{
  "address": "0x1085Fa0770a88a132E3b8aae21C84755d70081ce",
  "abi": [
    {
      "inputs": [
        {
          "internalType": "contract ILayerZeroEndpoint",
          "name": "_endpoint",
          "type": "address"
        },
        {
          "internalType": "contract ERC20",
          "name": "_SPELL",
          "type": "address"
        },
        {
          "internalType": "address",
          "name": "_mSpell",
          "type": "address"
        },
        {
          "internalType": "address",
          "name": "_mSpellSender",
          "type": "address"
        }
      ],
      "stateMutability": "nonpayable",
      "type": "constructor"
    },
    {
      "inputs": [],
      "name": "NotNoon",
      "type": "error"
    },
    {
      "stateMutability": "payable",
      "type": "fallback"
    },
    {
      "inputs": [],
      "name": "SPELL",
      "outputs": [
        {
          "internalType": "contract ERC20",
          "name": "",
          "type": "address"
        }
      ],
      "stateMutability": "view",
      "type": "function"
    },
    {
      "inputs": [],
      "name": "lastUpdated",
      "outputs": [
        {
          "internalType": "uint256",
          "name": "",
          "type": "uint256"
        }
      ],
      "stateMutability": "view",
      "type": "function"
    },
    {
      "inputs": [],
      "name": "mSpell",
      "outputs": [
        {
          "internalType": "address",
          "name": "",
          "type": "address"
        }
      ],
      "stateMutability": "view",
      "type": "function"
    },
    {
      "inputs": [],
      "name": "mSpellSender",
      "outputs": [
        {
          "internalType": "address",
          "name": "",
          "type": "address"
        }
      ],
      "stateMutability": "view",
      "type": "function"
    },
    {
      "inputs": [],
      "name": "sendAmount",
      "outputs": [],
      "stateMutability": "nonpayable",
      "type": "function"
    },
    {
      "inputs": [],
      "name": "withdraw",
      "outputs": [],
      "stateMutability": "nonpayable",
      "type": "function"
    },
    {
      "stateMutability": "payable",
      "type": "receive"
    }
  ],
  "transactionHash": "0x73950e10112c23deaef288e2f472ad817097001bb11a20ac99184ad2f7b0cf6b",
  "args": [
    "0xb6319cC6c8c27A8F5dAF0dD3DF91EA35C4720dd7",
    "0x468003B688943977e6130F4F68F23aad939a1040",
    "0x15a2a96608b48ebfd80c31DA8a9bE340A354CD46",
    "0x3D94B714382F61107a71690463B921E1Db6b6735"
  ],
  "numDeployments": 2,
  "solcInputHash": "ceadf8dc6e889a34a8e8a3413c75dc97",
  "bytecode": "0x61010060405234801561001157600080fd5b50604051610c47380380610c478339810160408190526100309161006a565b6001600160a01b0392831660a05290821660c052811660e052166080526100c9565b6001600160a01b038116811461006757600080fd5b50565b6000806000806080858703121561008057600080fd5b845161008b81610052565b602086015190945061009c81610052565b60408601519093506100ad81610052565b60608601519092506100be81610052565b939692955090935050565b60805160a05160c05160e051610b326101156000396000818160f1015261043a015260008181609301526103690152600081816101250152610394015260006104c80152610b326000f3fe6080604052600436106100635760003560e01c8063766367221161004057806376636722146101135780638b2b3d8b14610147578063d0b06f5d1461015c57005b80633ccfd60b1461006c5780634375feb414610081578063572e9858146100df57005b3661006a57005b005b34801561007857600080fd5b5061006a610180565b34801561008d57600080fd5b506100b57f000000000000000000000000000000000000000000000000000000000000000081565b60405173ffffffffffffffffffffffffffffffffffffffff90911681526020015b60405180910390f35b3480156100eb57600080fd5b506100b57f000000000000000000000000000000000000000000000000000000000000000081565b34801561011f57600080fd5b506100b57f000000000000000000000000000000000000000000000000000000000000000081565b34801561015357600080fd5b5061006a610250565b34801561016857600080fd5b5061017260005481565b6040519081526020016100d6565b604051479060009073fddfe525054efaad204600d00ca86adb1cc2ea8a9083908381818185875af1925050503d80600081146101d8576040519150601f19603f3d011682016040523d82523d6000602084013e6101dd565b606091505b505090508061024c576040517f08c379a000000000000000000000000000000000000000000000000000000000815260206004820152601460248201527f4661696c656420746f2073656e64204574686572000000000000000000000000604482015260640160405180910390fd5b5050565b60006018610260610e10426107b8565b61026a91906107cc565b905080600c146102a6576040517f3ea9114000000000000000000000000000000000000000000000000000000000815260040160405180910390fd5b6102af42610557565b6102ba600054610557565b10806102d757506102ca42610576565b6102d5600054610576565b105b806102f357506102e642610590565b6102f1600054610590565b105b6102fc57600080fd5b6000610307426105ab565b905080600114806103185750806003145b806103235750806005145b61032c57600080fd5b6040517f70a0823100000000000000000000000000000000000000000000000000000000815273ffffffffffffffffffffffffffffffffffffffff7f0000000000000000000000000000000000000000000000000000000000000000811660048301526000917f0000000000000000000000000000000000000000000000000000000000000000909116906370a0823190602401602060405180830381865afa1580156103dd573d6000803e3d6000fd5b505050506040513d601f19601f8201168201806040525081019061040191906107e0565b604080514263ffffffff1660208201526fffffffffffffffffffffffffffffffff831681830152815180820383018152606080830184527f0000000000000000000000000000000000000000000000000000000000000000901b7fffffffffffffffffffffffffffffffffffffffff0000000000000000000000001660808301528251607481840301815260b4830184526000609490930183815293517fc580310000000000000000000000000000000000000000000000000000000000815294955090937f000000000000000000000000000000000000000000000000000000000000000073ffffffffffffffffffffffffffffffffffffffff169363c580310093479361051b93600193919289923092600401610864565b6000604051808303818588803b15801561053457600080fd5b505af1158015610548573d6000803e3d6000fd5b50504260005550505050505050565b600061056e61056962015180846107b8565b6105e6565b949350505050565b600061058861056962015180846107b8565b509392505050565b60006105a261056962015180846107b8565b50909392505050565b6000806105bb62015180846107b8565b905060076105ca8260036108d8565b6105d491906107cc565b6105df9060016108d8565b9392505050565b60008080838162253d8c6105fd8362010bd96108f0565b61060791906108f0565b9050600062023ab161061a836004610964565b6106249190610a20565b905060046106358262023ab1610964565b6106409060036108f0565b61064a9190610a20565b6106549083610a88565b9150600062164b096106678460016108f0565b61067390610fa0610964565b61067d9190610a20565b9050600461068d826105b5610964565b6106979190610a20565b6106a19084610a88565b6106ac90601f6108f0565b9250600061098f6106be856050610964565b6106c89190610a20565b9050600060506106da8361098f610964565b6106e49190610a20565b6106ee9086610a88565b90506106fb600b83610a20565b945061070885600c610964565b6107138360026108f0565b61071d9190610a88565b9150848361072c603187610a88565b610737906064610964565b61074191906108f0565b61074b91906108f0565b9a919950975095505050505050565b7f4e487b7100000000000000000000000000000000000000000000000000000000600052601260045260246000fd5b7f4e487b7100000000000000000000000000000000000000000000000000000000600052601160045260246000fd5b6000826107c7576107c761075a565b500490565b6000826107db576107db61075a565b500690565b6000602082840312156107f257600080fd5b5051919050565b6000815180845260005b8181101561081f57602081850181015186830182015201610803565b81811115610831576000602083870101525b50601f017fffffffffffffffffffffffffffffffffffffffffffffffffffffffffffffffe0169290920160200192915050565b61ffff8716815260c06020820152600061088160c08301886107f9565b828103604084015261089381886107f9565b73ffffffffffffffffffffffffffffffffffffffff87811660608601528616608085015283810360a085015290506108cb81856107f9565b9998505050505050505050565b600082198211156108eb576108eb610789565b500190565b6000808212827f7fffffffffffffffffffffffffffffffffffffffffffffffffffffffffffffff0384138115161561092a5761092a610789565b827f800000000000000000000000000000000000000000000000000000000000000003841281161561095e5761095e610789565b50500190565b60007f7fffffffffffffffffffffffffffffffffffffffffffffffffffffffffffffff6000841360008413858304851182821616156109a5576109a5610789565b7f800000000000000000000000000000000000000000000000000000000000000060008712868205881281841616156109e0576109e0610789565b600087129250878205871284841616156109fc576109fc610789565b87850587128184161615610a1257610a12610789565b505050929093029392505050565b600082610a2f57610a2f61075a565b7fffffffffffffffffffffffffffffffffffffffffffffffffffffffffffffffff83147f800000000000000000000000000000000000000000000000000000000000000083141615610a8357610a83610789565b500590565b6000808312837f800000000000000000000000000000000000000000000000000000000000000001831281151615610ac257610ac2610789565b837f7fffffffffffffffffffffffffffffffffffffffffffffffffffffffffffffff018313811615610af657610af6610789565b5050039056fea26469706673582212203a95cd86cbc52299cb6a296c6d8a93365832f0daf6f40fd2821ab20ada89e17064736f6c634300080a0033",
  "devdoc": {
    "kind": "dev",
    "methods": {},
    "version": 1
  },
  "userdoc": {
    "kind": "user",
    "methods": {},
    "version": 1
  },
  "storageLayout": {
    "storage": [
      {
        "astId": 8699,
        "contract": "contracts/mspell/mSpellReporter.sol:mSpellReporter",
        "label": "lastUpdated",
        "offset": 0,
        "slot": "0",
        "type": "t_uint256"
      }
    ],
    "types": {
      "t_uint256": {
        "encoding": "inplace",
        "label": "uint256",
        "numberOfBytes": "32"
      }
    }
  }
}