{
  "address": "0xE94C443e2d124cF9d5b5A6F1CE0E29dc464551DA",
  "abi": [
    {
      "inputs": [],
      "stateMutability": "nonpayable",
      "type": "constructor"
    },
    {
      "inputs": [],
      "name": "MIM",
      "outputs": [
        {
          "internalType": "contract IERC20",
          "name": "",
          "type": "address"
        }
      ],
      "stateMutability": "view",
      "type": "function"
    },
    {
      "inputs": [],
      "name": "ThreeCrypto",
      "outputs": [
        {
          "internalType": "contract ICurvePool",
          "name": "",
          "type": "address"
        }
      ],
      "stateMutability": "view",
      "type": "function"
    },
    {
      "inputs": [],
      "name": "bentoBox",
      "outputs": [
        {
          "internalType": "contract IBentoBoxV1",
          "name": "",
          "type": "address"
        }
      ],
      "stateMutability": "view",
      "type": "function"
    },
    {
      "inputs": [
        {
          "internalType": "contract IERC20",
          "name": "fromToken",
          "type": "address"
        },
        {
          "internalType": "contract IERC20",
          "name": "toToken",
          "type": "address"
        },
        {
          "internalType": "address",
          "name": "recipient",
          "type": "address"
        },
        {
          "internalType": "uint256",
          "name": "shareToMin",
          "type": "uint256"
        },
        {
          "internalType": "uint256",
          "name": "shareFrom",
          "type": "uint256"
        }
      ],
      "name": "swap",
      "outputs": [
        {
          "internalType": "uint256",
          "name": "extraShare",
          "type": "uint256"
        },
        {
          "internalType": "uint256",
          "name": "shareReturned",
          "type": "uint256"
        }
      ],
      "stateMutability": "nonpayable",
      "type": "function"
    },
    {
      "inputs": [
        {
          "internalType": "contract IERC20",
          "name": "fromToken",
          "type": "address"
        },
        {
          "internalType": "contract IERC20",
          "name": "toToken",
          "type": "address"
        },
        {
          "internalType": "address",
          "name": "recipient",
          "type": "address"
        },
        {
          "internalType": "address",
          "name": "refundTo",
          "type": "address"
        },
        {
          "internalType": "uint256",
          "name": "shareFromSupplied",
          "type": "uint256"
        },
        {
          "internalType": "uint256",
          "name": "shareToExact",
          "type": "uint256"
        }
      ],
      "name": "swapExact",
      "outputs": [
        {
          "internalType": "uint256",
          "name": "shareUsed",
          "type": "uint256"
        },
        {
          "internalType": "uint256",
          "name": "shareReturned",
          "type": "uint256"
        }
      ],
      "stateMutability": "nonpayable",
      "type": "function"
    }
  ],
  "transactionHash": "0x4bf472feea8926943db242c2cbd4b0a1d7cbaee301bfe3e1e742318072be1268",
  "args": [],
  "solcInputHash": "148e615205899e75db490fef912fcd91",
  "bytecode": "0x608060405234801561001057600080fd5b506040805163095ea7b360e01b8152732dd7c9371965472e5a5fd28fbe165007c61439e16004820152600019602482015290517304068da6c83afcfa0e13ba15a6696662335d5b759163095ea7b39160448083019260209291908290030181600087803b15801561008057600080fd5b505af1158015610094573d6000803e3d6000fd5b505050506040513d60208110156100aa57600080fd5b50506108a8806100bb6000396000f3fe608060405234801561001057600080fd5b50600436106100575760003560e01c80634622be901461005c5780636b2ace87146100c1578063957489d9146100e5578063daec383d146100ed578063e343fe12146100f5575b600080fd5b6100a8600480360360c081101561007257600080fd5b506001600160a01b0381358116916020810135821691604082013581169160608101359091169060808101359060a00135610137565b6040805192835260208301919091528051918290030190f35b6100c9610145565b604080516001600160a01b039092168252519081900360200190f35b6100c961015d565b6100c9610175565b6100a8600480360360a081101561010b57600080fd5b506001600160a01b0381358116916020810135821691604082013516906060810135906080013561018d565b600080965096945050505050565b7374a0bca2eeedf8883cb91e37e9ff49430f20a61681565b732dd7c9371965472e5a5fd28fbe165007c61439e181565b7382f0b8b456c1a451378467398982d4834b6829c181565b6040805163097da6d360e41b81526001600160a01b0387166004820152306024820152732b4c76d0dc16be1c31d4c1dc53bf9b45987fc75c60448201526000606482018190526084820184905282519092839283927374a0bca2eeedf8883cb91e37e9ff49430f20a616926397da6d309260a4808201939182900301818787803b15801561021a57600080fd5b505af115801561022e573d6000803e3d6000fd5b505050506040513d604081101561024457600080fd5b5051905060008061027d7321be370d5312f44cb42ce377bc9b8a0cef1a4c837304068da6c83afcfa0e13ba15a6696662335d5b75610607565b509050600080732b4c76d0dc16be1c31d4c1dc53bf9b45987fc75c6001600160a01b0316630902f1ac6040518163ffffffff1660e01b815260040160606040518083038186803b1580156102d057600080fd5b505afa1580156102e4573d6000803e3d6000fd5b505050506040513d60608110156102fa57600080fd5b5080516020909101516dffffffffffffffffffffffffffff91821693501690507321be370d5312f44cb42ce377bc9b8a0cef1a4c836001600160a01b03841614610345578082610348565b81815b90925090506103588583836106e5565b93506000807321be370d5312f44cb42ce377bc9b8a0cef1a4c836001600160a01b038616146103895785600061038d565b6000865b604080516000808252602082019283905263022c0d9f60e01b835260248201858152604483018590523060648401819052608060848501908152845160a48601819052979950959750732b4c76d0dc16be1c31d4c1dc53bf9b45987fc75c9663022c0d9f968a968a969395939493919260c48601928190849084905b83811015610421578181015183820152602001610409565b50505050905090810190601f16801561044e5780820380516001836020036101000a031916815260200191505b5095505050505050600060405180830381600087803b15801561047057600080fd5b505af1158015610484573d6000803e3d6000fd5b50506040805163ddc1f59d60e01b815260026004820152600060248201819052604482018b9052606482018190527374a0bca2eeedf8883cb91e37e9ff49430f20a61660848301529151919850732dd7c9371965472e5a5fd28fbe165007c61439e1975063ddc1f59d965060a4808201965060209550919350839003019050818787803b15801561051457600080fd5b505af1158015610528573d6000803e3d6000fd5b505050506040513d602081101561053e57600080fd5b50516040805162ae511b60e21b81526001600160a01b038c811660048301527374a0bca2eeedf8883cb91e37e9ff49430f20a61660248301819052908c16604483015260648201849052600060848301819052835194955090936302b9446c9360a4808501949193918390030190829087803b1580156105bd57600080fd5b505af11580156105d1573d6000803e3d6000fd5b505050506040513d60408110156105e757600080fd5b506020015193506105f88488610733565b94505050509550959350505050565b600080826001600160a01b0316846001600160a01b0316141561065b5760405162461bcd60e51b815260040180806020018281038252602581526020018061084e6025913960400191505060405180910390fd5b826001600160a01b0316846001600160a01b03161061067b57828461067e565b83835b90925090506001600160a01b0382166106de576040805162461bcd60e51b815260206004820152601e60248201527f556e697377617056324c6962726172793a205a45524f5f414444524553530000604482015290519081900360640190fd5b9250929050565b6000806106f4856103e5610789565b905060006107028285610789565b9050600061071c83610716886103e8610789565b906107f5565b905080828161072757fe5b04979650505050505050565b80820382811115610783576040805162461bcd60e51b8152602060048201526015602482015274426f72696e674d6174683a20556e646572666c6f7760581b604482015290519081900360640190fd5b92915050565b60008115806107a4575050808202828282816107a157fe5b04145b610783576040805162461bcd60e51b815260206004820152601860248201527f426f72696e674d6174683a204d756c204f766572666c6f770000000000000000604482015290519081900360640190fd5b81810181811015610783576040805162461bcd60e51b815260206004820152601860248201527f426f72696e674d6174683a20416464204f766572666c6f770000000000000000604482015290519081900360640190fdfe556e697377617056324c6962726172793a204944454e544943414c5f414444524553534553a264697066735822122005390b0ff6f95ef4744cd8716f10f43da04af849d57666a498550d740c1f288764736f6c634300060c0033",
  "devdoc": {
    "kind": "dev",
    "methods": {},
    "version": 1
  },
  "userdoc": {
    "kind": "user",
    "methods": {
      "swap(address,address,address,uint256,uint256)": {
        "notice": "Withdraws 'amountFrom' of token 'from' from the BentoBox account for this swapper. Swaps it for at least 'amountToMin' of token 'to'. Transfers the swapped tokens of 'to' into the BentoBox using a plain ERC20 transfer. Returns the amount of tokens 'to' transferred to BentoBox. (The BentoBox skim function will be used by the caller to get the swapped funds)."
      },
      "swapExact(address,address,address,address,uint256,uint256)": {
        "notice": "Calculates the amount of token 'from' needed to complete the swap (amountFrom), this should be less than or equal to amountFromMax. Withdraws 'amountFrom' of token 'from' from the BentoBox account for this swapper. Swaps it for exactly 'exactAmountTo' of token 'to'. Transfers the swapped tokens of 'to' into the BentoBox using a plain ERC20 transfer. Transfers allocated, but unused 'from' tokens within the BentoBox to 'refundTo' (amountFromMax - amountFrom). Returns the amount of 'from' tokens withdrawn from BentoBox (amountFrom). (The BentoBox skim function will be used by the caller to get the swapped funds)."
      }
    },
    "version": 1
  },
  "storageLayout": {
    "storage": [],
    "types": null
  }
}