{
  "address": "0x38a67c0F839e5F8939B12f9181A1924E4e4375eD",
  "abi": [
    {
      "inputs": [],
      "stateMutability": "nonpayable",
      "type": "constructor"
    },
    {
      "inputs": [],
      "name": "MIM",
      "outputs": [
        {
          "internalType": "contract IERC20",
          "name": "",
          "type": "address"
        }
      ],
      "stateMutability": "view",
      "type": "function"
    },
    {
      "inputs": [],
      "name": "ThreeCrypto",
      "outputs": [
        {
          "internalType": "contract ICurvePool",
          "name": "",
          "type": "address"
        }
      ],
      "stateMutability": "view",
      "type": "function"
    },
    {
      "inputs": [],
      "name": "bentoBox",
      "outputs": [
        {
          "internalType": "contract IBentoBoxV1",
          "name": "",
          "type": "address"
        }
      ],
      "stateMutability": "view",
      "type": "function"
    },
    {
      "inputs": [
        {
          "internalType": "address",
          "name": "recipient",
          "type": "address"
        },
        {
          "internalType": "uint256",
          "name": "shareToMin",
          "type": "uint256"
        },
        {
          "internalType": "uint256",
          "name": "shareFrom",
          "type": "uint256"
        }
      ],
      "name": "swap",
      "outputs": [
        {
          "internalType": "uint256",
          "name": "extraShare",
          "type": "uint256"
        },
        {
          "internalType": "uint256",
          "name": "shareReturned",
          "type": "uint256"
        }
      ],
      "stateMutability": "nonpayable",
      "type": "function"
    }
  ],
  "transactionHash": "0x46fb0b6caf060ef94f01326b4cbe872fc787b903b94d2dfce9c7e35f77b54419",
  "args": [],
  "solcInputHash": "10d4b5036678d6718c4b389d3689e9a8",
  "bytecode": "0x608060405234801561001057600080fd5b506040805163095ea7b360e01b8152732dd7c9371965472e5a5fd28fbe165007c61439e16004820152600019602482015290517382f0b8b456c1a451378467398982d4834b6829c19163095ea7b39160448083019260209291908290030181600087803b15801561008057600080fd5b505af1158015610094573d6000803e3d6000fd5b505050506040513d60208110156100aa57600080fd5b5050610883806100bb6000396000f3fe608060405234801561001057600080fd5b506004361061004c5760003560e01c80636b2ace8714610051578063957489d9146100755780639f1d0f591461007d578063daec383d146100c8575b600080fd5b6100596100d0565b604080516001600160a01b039092168252519081900360200190f35b6100596100e8565b6100af6004803603606081101561009357600080fd5b506001600160a01b038135169060208101359060400135610100565b6040805192835260208301919091528051918290030190f35b6100596105ca565b7374a0bca2eeedf8883cb91e37e9ff49430f20a61681565b732dd7c9371965472e5a5fd28fbe165007c61439e181565b6040805163097da6d360e41b81527382f0b8b456c1a451378467398982d4834b6829c160048201523060248201819052604482015260006064820181905260848201849052825190928392839283927374a0bca2eeedf8883cb91e37e9ff49430f20a616926397da6d309260a4808301939282900301818787803b15801561018757600080fd5b505af115801561019b573d6000803e3d6000fd5b505050506040513d60408110156101b157600080fd5b50516040805163ddc1f59d60e01b8152600060048201819052600260248301526044820184905260648201819052732b4c76d0dc16be1c31d4c1dc53bf9b45987fc75c60848301529151929350732dd7c9371965472e5a5fd28fbe165007c61439e19263ddc1f59d9260a480840193602093929083900390910190829087803b15801561023d57600080fd5b505af1158015610251573d6000803e3d6000fd5b505050506040513d602081101561026757600080fd5b5051915060009050806102a27304068da6c83afcfa0e13ba15a6696662335d5b757321be370d5312f44cb42ce377bc9b8a0cef1a4c836105e2565b509050600080732b4c76d0dc16be1c31d4c1dc53bf9b45987fc75c6001600160a01b0316630902f1ac6040518163ffffffff1660e01b815260040160606040518083038186803b1580156102f557600080fd5b505afa158015610309573d6000803e3d6000fd5b505050506040513d606081101561031f57600080fd5b5080516020909101516dffffffffffffffffffffffffffff91821693501690507304068da6c83afcfa0e13ba15a6696662335d5b756001600160a01b0384161461036a57808261036d565b81815b909250905061037d8583836106c0565b93506000807304068da6c83afcfa0e13ba15a6696662335d5b756001600160a01b038616146103ae578560006103b2565b6000865b604080516000808252602082019283905263022c0d9f60e01b835260248201858152604483018590527374a0bca2eeedf8883cb91e37e9ff49430f20a61660648401819052608060848501908152845160a48601819052979950959750732b4c76d0dc16be1c31d4c1dc53bf9b45987fc75c9663022c0d9f968a968a969395939493919260c48601928190849084905b8381101561045a578181015183820152602001610442565b50505050905090810190601f1680156104875780820380516001836020036101000a031916815260200191505b5095505050505050600060405180830381600087803b1580156104a957600080fd5b505af11580156104bd573d6000803e3d6000fd5b5050505050505050507374a0bca2eeedf8883cb91e37e9ff49430f20a6166001600160a01b03166302b9446c7321be370d5312f44cb42ce377bc9b8a0cef1a4c837374a0bca2eeedf8883cb91e37e9ff49430f20a6168a8560006040518663ffffffff1660e01b815260040180866001600160a01b03168152602001856001600160a01b03168152602001846001600160a01b03168152602001838152602001828152602001955050505050506040805180830381600087803b15801561058357600080fd5b505af1158015610597573d6000803e3d6000fd5b505050506040513d60408110156105ad57600080fd5b506020015192506105be838761070e565b93505050935093915050565b7382f0b8b456c1a451378467398982d4834b6829c181565b600080826001600160a01b0316846001600160a01b031614156106365760405162461bcd60e51b81526004018080602001828103825260258152602001806108296025913960400191505060405180910390fd5b826001600160a01b0316846001600160a01b031610610656578284610659565b83835b90925090506001600160a01b0382166106b9576040805162461bcd60e51b815260206004820152601e60248201527f556e697377617056324c6962726172793a205a45524f5f414444524553530000604482015290519081900360640190fd5b9250929050565b6000806106cf856103e5610764565b905060006106dd8285610764565b905060006106f7836106f1886103e8610764565b906107d0565b905080828161070257fe5b04979650505050505050565b8082038281111561075e576040805162461bcd60e51b8152602060048201526015602482015274426f72696e674d6174683a20556e646572666c6f7760581b604482015290519081900360640190fd5b92915050565b600081158061077f5750508082028282828161077c57fe5b04145b61075e576040805162461bcd60e51b815260206004820152601860248201527f426f72696e674d6174683a204d756c204f766572666c6f770000000000000000604482015290519081900360640190fd5b8181018181101561075e576040805162461bcd60e51b815260206004820152601860248201527f426f72696e674d6174683a20416464204f766572666c6f770000000000000000604482015290519081900360640190fdfe556e697377617056324c6962726172793a204944454e544943414c5f414444524553534553a2646970667358221220f4e738133a2d9a212e992ea43d46821f5f2f8f4366727b5f3e76a29d1c6a012064736f6c634300060c0033",
  "devdoc": {
    "kind": "dev",
    "methods": {},
    "version": 1
  },
  "userdoc": {
    "kind": "user",
    "methods": {},
    "version": 1
  },
  "storageLayout": {
    "storage": [],
    "types": null
  }
}