{
  "address": "0x6cc0cd7D25E291029B55C767B9A2D1d9A18Ae668",
  "abi": [
    {
      "inputs": [],
      "stateMutability": "nonpayable",
      "type": "constructor"
    },
    {
      "inputs": [],
      "name": "ICE",
      "outputs": [
        {
          "internalType": "contract IERC20",
          "name": "",
          "type": "address"
        }
      ],
      "stateMutability": "view",
      "type": "function"
    },
    {
      "inputs": [],
      "name": "ICE_FTM",
      "outputs": [
        {
          "internalType": "contract IUniswapV2Pair",
          "name": "",
          "type": "address"
        }
      ],
      "stateMutability": "view",
      "type": "function"
    },
    {
      "inputs": [],
      "name": "MIM",
      "outputs": [
        {
          "internalType": "contract IERC20",
          "name": "",
          "type": "address"
        }
      ],
      "stateMutability": "view",
      "type": "function"
    },
    {
      "inputs": [],
      "name": "USDC",
      "outputs": [
        {
          "internalType": "contract IERC20",
          "name": "",
          "type": "address"
        }
      ],
      "stateMutability": "view",
      "type": "function"
    },
    {
      "inputs": [],
      "name": "USDC_FTM",
      "outputs": [
        {
          "internalType": "contract IUniswapV2Pair",
          "name": "",
          "type": "address"
        }
      ],
      "stateMutability": "view",
      "type": "function"
    },
    {
      "inputs": [],
      "name": "WFTM",
      "outputs": [
        {
          "internalType": "contract IERC20",
          "name": "",
          "type": "address"
        }
      ],
      "stateMutability": "view",
      "type": "function"
    },
    {
      "inputs": [],
      "name": "bentoBox",
      "outputs": [
        {
          "internalType": "contract IBentoBoxV1",
          "name": "",
          "type": "address"
        }
      ],
      "stateMutability": "view",
      "type": "function"
    },
    {
      "inputs": [
        {
          "internalType": "address",
          "name": "recipient",
          "type": "address"
        },
        {
          "internalType": "uint256",
          "name": "shareToMin",
          "type": "uint256"
        },
        {
          "internalType": "uint256",
          "name": "shareFrom",
          "type": "uint256"
        }
      ],
      "name": "swap",
      "outputs": [
        {
          "internalType": "uint256",
          "name": "extraShare",
          "type": "uint256"
        },
        {
          "internalType": "uint256",
          "name": "shareReturned",
          "type": "uint256"
        }
      ],
      "stateMutability": "nonpayable",
      "type": "function"
    },
    {
      "inputs": [],
      "name": "threePool",
      "outputs": [
        {
          "internalType": "contract CurvePool",
          "name": "",
          "type": "address"
        }
      ],
      "stateMutability": "view",
      "type": "function"
    }
  ],
  "transactionHash": "0x4b037aa5a61517d653ccec22374a1e515c16c8365c0366ad1c458b8e4886b626",
  "args": [],
  "solcInputHash": "3e3bd96d81bc0e807e01ed9f416e4732",
  "bytecode": "0x608060405234801561001057600080fd5b506040805163095ea7b360e01b8152732dd7c9371965472e5a5fd28fbe165007c61439e16004820152600019602482015290517382f0b8b456c1a451378467398982d4834b6829c19163095ea7b39160448083019260209291908290030181600087803b15801561008057600080fd5b505af1158015610094573d6000803e3d6000fd5b505050506040513d60208110156100aa57600080fd5b5050610bb2806100bb6000396000f3fe608060405234801561001057600080fd5b50600436106100935760003560e01c80636b2ace87116100665780636b2ace87146100d45780637549dfca146100dc57806389a30271146100e45780639f1d0f59146100ec578063daec383d1461013757610093565b80630940d5e91461009857806321dbe876146100bc57806324fbaa2c146100c45780635305bd8e146100cc575b600080fd5b6100a061013f565b604080516001600160a01b039092168252519081900360200190f35b6100a0610157565b6100a061016f565b6100a0610187565b6100a061019f565b6100a06101b7565b6100a06101cf565b61011e6004803603606081101561010257600080fd5b506001600160a01b0381351690602081013590604001356101e7565b6040805192835260208301919091528051918290030190f35b6100a06108f9565b73f16e81dce15b08f326220742020379b855b87df981565b7321be370d5312f44cb42ce377bc9b8a0cef1a4c8381565b7384311ecc54d7553378c067282940b0fdfb91367581565b732dd7c9371965472e5a5fd28fbe165007c61439e181565b73f5bce5077908a1b7370b9ae04adc565ebd64396681565b732b4c76d0dc16be1c31d4c1dc53bf9b45987fc75c81565b7304068da6c83afcfa0e13ba15a6696662335d5b7581565b6040805163097da6d360e41b81527382f0b8b456c1a451378467398982d4834b6829c160048201523060248201819052604482015260006064820181905260848201849052825190928392839273f5bce5077908a1b7370b9ae04adc565ebd643966926397da6d309260a4808201939182900301818787803b15801561026c57600080fd5b505af1158015610280573d6000803e3d6000fd5b505050506040513d604081101561029657600080fd5b50516040805163ddc1f59d60e01b8152600060048201819052600260248301526044820184905260648201819052732b4c76d0dc16be1c31d4c1dc53bf9b45987fc75c608483015291519293509091732dd7c9371965472e5a5fd28fbe165007c61439e19163ddc1f59d9160a480830192602092919082900301818787803b15801561032157600080fd5b505af1158015610335573d6000803e3d6000fd5b505050506040513d602081101561034b57600080fd5b505190506000806103847304068da6c83afcfa0e13ba15a6696662335d5b757321be370d5312f44cb42ce377bc9b8a0cef1a4c83610911565b509050600080732b4c76d0dc16be1c31d4c1dc53bf9b45987fc75c6001600160a01b0316630902f1ac6040518163ffffffff1660e01b815260040160606040518083038186803b1580156103d757600080fd5b505afa1580156103eb573d6000803e3d6000fd5b505050506040513d606081101561040157600080fd5b5080516020909101516001600160701b0391821693501690507304068da6c83afcfa0e13ba15a6696662335d5b756001600160a01b03841614610445578082610448565b81815b90925090506104588583836109ef565b93506000807304068da6c83afcfa0e13ba15a6696662335d5b756001600160a01b038616146104895785600061048d565b6000865b604080516000808252602082019283905263022c0d9f60e01b835260248201858152604483018590527384311ecc54d7553378c067282940b0fdfb91367560648401819052608060848501908152845160a48601819052979950959750732b4c76d0dc16be1c31d4c1dc53bf9b45987fc75c9663022c0d9f968a968a969395939493919260c48601928190849084905b8381101561053557818101518382015260200161051d565b50505050905090810190601f1680156105625780820380516001836020036101000a031916815260200191505b5095505050505050600060405180830381600087803b15801561058457600080fd5b505af1158015610598573d6000803e3d6000fd5b5050505050505050506000806105d673f16e81dce15b08f326220742020379b855b87df97321be370d5312f44cb42ce377bc9b8a0cef1a4c83610911565b5090506000807384311ecc54d7553378c067282940b0fdfb9136756001600160a01b0316630902f1ac6040518163ffffffff1660e01b815260040160606040518083038186803b15801561062957600080fd5b505afa15801561063d573d6000803e3d6000fd5b505050506040513d606081101561065357600080fd5b5080516020909101516001600160701b0391821693501690507321be370d5312f44cb42ce377bc9b8a0cef1a4c836001600160a01b0384161461069757808261069a565b81815b90925090506106aa8583836109ef565b93506000807321be370d5312f44cb42ce377bc9b8a0cef1a4c836001600160a01b038616146106db578560006106df565b6000865b604080516000808252602082019283905263022c0d9f60e01b8352602482018581526044830185905273f5bce5077908a1b7370b9ae04adc565ebd64396660648401819052608060848501908152845160a486018190529799509597507384311ecc54d7553378c067282940b0fdfb9136759663022c0d9f968a968a969395939493919260c48601928190849084905b8381101561078757818101518382015260200161076f565b50505050905090810190601f1680156107b45780820380516001836020036101000a031916815260200191505b5095505050505050600060405180830381600087803b1580156107d657600080fd5b505af11580156107ea573d6000803e3d6000fd5b50505050505050505073f5bce5077908a1b7370b9ae04adc565ebd6439666001600160a01b03166302b9446c73f16e81dce15b08f326220742020379b855b87df973f5bce5077908a1b7370b9ae04adc565ebd6439668c8560006040518663ffffffff1660e01b815260040180866001600160a01b03168152602001856001600160a01b03168152602001846001600160a01b03168152602001838152602001828152602001955050505050506040805180830381600087803b1580156108b057600080fd5b505af11580156108c4573d6000803e3d6000fd5b505050506040513d60408110156108da57600080fd5b506020015194506108eb8589610a3d565b955050505050935093915050565b7382f0b8b456c1a451378467398982d4834b6829c181565b600080826001600160a01b0316846001600160a01b031614156109655760405162461bcd60e51b8152600401808060200182810382526025815260200180610b586025913960400191505060405180910390fd5b826001600160a01b0316846001600160a01b031610610985578284610988565b83835b90925090506001600160a01b0382166109e8576040805162461bcd60e51b815260206004820152601e60248201527f556e697377617056324c6962726172793a205a45524f5f414444524553530000604482015290519081900360640190fd5b9250929050565b6000806109fe856103e5610a93565b90506000610a0c8285610a93565b90506000610a2683610a20886103e8610a93565b90610aff565b9050808281610a3157fe5b04979650505050505050565b80820382811115610a8d576040805162461bcd60e51b8152602060048201526015602482015274426f72696e674d6174683a20556e646572666c6f7760581b604482015290519081900360640190fd5b92915050565b6000811580610aae57505080820282828281610aab57fe5b04145b610a8d576040805162461bcd60e51b815260206004820152601860248201527f426f72696e674d6174683a204d756c204f766572666c6f770000000000000000604482015290519081900360640190fd5b81810181811015610a8d576040805162461bcd60e51b815260206004820152601860248201527f426f72696e674d6174683a20416464204f766572666c6f770000000000000000604482015290519081900360640190fdfe556e697377617056324c6962726172793a204944454e544943414c5f414444524553534553a264697066735822122081105bf0ec5b0296ec6ddf116769d56c3fb6974746eb04d9e4077fa218d4923864736f6c634300060c0033",
  "devdoc": {
    "kind": "dev",
    "methods": {},
    "version": 1
  },
  "userdoc": {
    "kind": "user",
    "methods": {},
    "version": 1
  },
  "storageLayout": {
    "storage": [],
    "types": null
  }
}