{
  "address": "0xC9faCFA2fC50C9A30C77a2ad14E2dB107d591918",
  "abi": [
    {
      "inputs": [],
      "name": "FTM_USD",
      "outputs": [
        {
          "internalType": "contract IAggregator",
          "name": "",
          "type": "address"
        }
      ],
      "stateMutability": "view",
      "type": "function"
    },
    {
      "inputs": [],
      "name": "ICE",
      "outputs": [
        {
          "internalType": "contract IERC20",
          "name": "",
          "type": "address"
        }
      ],
      "stateMutability": "view",
      "type": "function"
    },
    {
      "inputs": [],
      "name": "ICE_FTM",
      "outputs": [
        {
          "internalType": "contract IUniswapV2Pair",
          "name": "",
          "type": "address"
        }
      ],
      "stateMutability": "view",
      "type": "function"
    },
    {
      "inputs": [],
      "name": "PERIOD",
      "outputs": [
        {
          "internalType": "uint256",
          "name": "",
          "type": "uint256"
        }
      ],
      "stateMutability": "view",
      "type": "function"
    },
    {
      "inputs": [
        {
          "internalType": "uint32",
          "name": "blockTimestamp",
          "type": "uint32"
        }
      ],
      "name": "_get",
      "outputs": [
        {
          "internalType": "uint256",
          "name": "",
          "type": "uint256"
        }
      ],
      "stateMutability": "view",
      "type": "function"
    },
    {
      "inputs": [
        {
          "internalType": "bytes",
          "name": "",
          "type": "bytes"
        }
      ],
      "name": "get",
      "outputs": [
        {
          "internalType": "bool",
          "name": "",
          "type": "bool"
        },
        {
          "internalType": "uint256",
          "name": "",
          "type": "uint256"
        }
      ],
      "stateMutability": "nonpayable",
      "type": "function"
    },
    {
      "inputs": [
        {
          "internalType": "bytes",
          "name": "",
          "type": "bytes"
        }
      ],
      "name": "name",
      "outputs": [
        {
          "internalType": "string",
          "name": "",
          "type": "string"
        }
      ],
      "stateMutability": "view",
      "type": "function"
    },
    {
      "inputs": [],
      "name": "pairInfo",
      "outputs": [
        {
          "internalType": "uint256",
          "name": "priceCumulativeLast",
          "type": "uint256"
        },
        {
          "internalType": "uint32",
          "name": "blockTimestampLast",
          "type": "uint32"
        },
        {
          "internalType": "uint144",
          "name": "priceAverage",
          "type": "uint144"
        }
      ],
      "stateMutability": "view",
      "type": "function"
    },
    {
      "inputs": [
        {
          "internalType": "bytes",
          "name": "",
          "type": "bytes"
        }
      ],
      "name": "peek",
      "outputs": [
        {
          "internalType": "bool",
          "name": "",
          "type": "bool"
        },
        {
          "internalType": "uint256",
          "name": "",
          "type": "uint256"
        }
      ],
      "stateMutability": "view",
      "type": "function"
    },
    {
      "inputs": [
        {
          "internalType": "bytes",
          "name": "",
          "type": "bytes"
        }
      ],
      "name": "peekSpot",
      "outputs": [
        {
          "internalType": "uint256",
          "name": "rate",
          "type": "uint256"
        }
      ],
      "stateMutability": "view",
      "type": "function"
    },
    {
      "inputs": [
        {
          "internalType": "bytes",
          "name": "",
          "type": "bytes"
        }
      ],
      "name": "symbol",
      "outputs": [
        {
          "internalType": "string",
          "name": "",
          "type": "string"
        }
      ],
      "stateMutability": "view",
      "type": "function"
    }
  ],
  "transactionHash": "0x0c6e7f4206c2c2662bd9522791e7b5b91f4bfb9efa831744f4afad7b3a1e69c6",
  "args": [],
  "solcInputHash": "356d2f662bf470781c429698306c3948",
  "bytecode": "0x608060405234801561001057600080fd5b50610e7f806100206000396000f3fe608060405234801561001057600080fd5b50600436106100a95760003560e01c8063c699c4d611610071578063c699c4d614610104578063d39bbef014610124578063d568866c14610137578063d6d7d5251461014a578063eeb8a8d31461016b578063fc2a5b1d1461017e576100a9565b80630940d5e9146100ae57806324fbaa2c146100cc5780634d032d8d146100d4578063b4d1d795146100f4578063bb3e1374146100fc575b600080fd5b6100b6610195565b6040516100c39190610c7a565b60405180910390f35b6100b66101ad565b6100e76100e2366004610c47565b6101c5565b6040516100c39190610df4565b6100e761031c565b6100b6610322565b610117610112366004610b76565b61033a565b6040516100c39190610c8e565b6100e7610132366004610b76565b61035b565b610117610145366004610b76565b6104c7565b61015d610158366004610b76565b6104eb565b6040516100c3929190610c6a565b61015d610179366004610b76565b6106e2565b610186610837565b6040516100c393929190610dfd565b73f16e81dce15b08f326220742020379b855b87df981565b7384311ecc54d7553378c067282940b0fdfb91367581565b6000807384311ecc54d7553378c067282940b0fdfb9136756001600160a01b0316635a3d54936040518163ffffffff1660e01b815260040160206040518083038186803b15801561021557600080fd5b505afa158015610229573d6000803e3d6000fd5b505050506040513d601f19601f8201168201806040525081019061024d9190610be3565b905060008060007384311ecc54d7553378c067282940b0fdfb9136756001600160a01b0316630902f1ac6040518163ffffffff1660e01b815260040160606040518083038186803b1580156102a157600080fd5b505afa1580156102b5573d6000803e3d6000fd5b505050506040513d601f19601f820116820180604052508101906102d99190610bfb565b92509250925080860363ffffffff16610304846001600160701b0316846001600160701b0316610859565b516001600160e01b0316029390930195945050505050565b61025881565b73f4766552d15ae4d256ad41b6cf2933482b0680dc81565b60408051808201909152600381526249434560e81b60208201525b92915050565b60008060007384311ecc54d7553378c067282940b0fdfb9136756001600160a01b0316630902f1ac6040518163ffffffff1660e01b815260040160606040518083038186803b1580156103ad57600080fd5b505afa1580156103c1573d6000803e3d6000fd5b505050506040513d601f19601f820116820180604052508101906103e59190610bfb565b506001600160701b031691506001600160701b031691506104a573f4766552d15ae4d256ad41b6cf2933482b0680dc6001600160a01b03166350d25bcd6040518163ffffffff1660e01b815260040160206040518083038186803b15801561044c57600080fd5b505afa158015610460573d6000803e3d6000fd5b505050506040513d601f19601f820116820180604052508101906104849190610be3565b8261049785670de0b6b3a7640000610945565b8161049e57fe5b0490610945565b6c47bf19673df52e37f2410011d1602c1b816104bd57fe5b0495945050505050565b5050604080518082019091526008815267049434520545741560c41b602082015290565b6001546000908190429063ffffffff1661052e576001805463ffffffff191663ffffffff831617905561051d816101c5565b600090815592508291506106db9050565b60015463ffffffff90811682039061054790821661097c565b6102588163ffffffff1610156105785750506001805490925064010000000090046001600160901b031690506106db565b6000610583836101c5565b905061066273f4766552d15ae4d256ad41b6cf2933482b0680dc6001600160a01b03166350d25bcd6040518163ffffffff1660e01b815260040160206040518083038186803b1580156105d557600080fd5b505afa1580156105e9573d6000803e3d6000fd5b505050506040513d601f19601f8201168201806040525081019061060d9190610be3565b61065361064e670de0b6b3a764000060405180602001604052808863ffffffff16600080015489038161063c57fe5b046001600160e01b03169052906109c2565b610a21565b6001600160901b031690610945565b6c47bf19673df52e37f2410011d1602c1b8161067a57fe5b6001805475ffffffffffffffffffffffffffffffffffff000000001916640100000000939092046001600160901b0390811684029290921763ffffffff191663ffffffff969096169590951780865560009390935593955090049091169150505b9250929050565b6001546000908190429063ffffffff166107035760008092509250506106db565b60015463ffffffff908116820390610258908216101561073e5750506001805490925064010000000090046001600160901b031690506106db565b6000610749836101c5565b9050600061080473f4766552d15ae4d256ad41b6cf2933482b0680dc6001600160a01b03166350d25bcd6040518163ffffffff1660e01b815260040160206040518083038186803b15801561079d57600080fd5b505afa1580156107b1573d6000803e3d6000fd5b505050506040513d601f19601f820116820180604052508101906107d59190610be3565b61065361064e670de0b6b3a764000060405180602001604052808963ffffffff1660008001548a038161063c57fe5b6c47bf19673df52e37f2410011d1602c1b8161081c57fe5b60019a9190046001600160901b031698509650505050505050565b60005460015463ffffffff81169064010000000090046001600160901b031683565b610861610b51565b6000821161088a5760405162461bcd60e51b815260040161088190610d86565b60405180910390fd5b826108a45750604080516020810190915260008152610355565b6001600160901b03831161090b57600082607085901b816108c157fe5b0490506001600160e01b038111156108eb5760405162461bcd60e51b815260040161088190610d4f565b6040518060200160405280826001600160e01b0316815250915050610355565b600061091c84600160701b85610a28565b90506001600160e01b038111156108eb5760405162461bcd60e51b815260040161088190610d4f565b60008115806109605750508082028282828161095d57fe5b04145b6103555760405162461bcd60e51b815260040161088190610dbd565b6109bf816040516024016109909190610df4565b60408051601f198184030181529190526020810180516001600160e01b031663f5b1bba960e01b179052610a93565b50565b6109ca610b63565b60008215806109f057505082516001600160e01b0316828102908382816109ed57fe5b04145b610a0c5760405162461bcd60e51b815260040161088190610ce1565b60408051602081019091529081529392505050565b5160701c90565b6000806000610a378686610ab4565b9150915060008480610a4557fe5b868809905082811115610a59576001820391505b8083039250848210610a7d5760405162461bcd60e51b815260040161088190610d18565b610a88838387610ae1565b979650505050505050565b80516a636f6e736f6c652e6c6f67602083016000808483855afa5050505050565b6000808060001984860990508385029250828103915082811015610ad9576001820391505b509250929050565b60008181038216808381610af157fe5b049250808581610afd57fe5b049450808160000381610b0c57fe5b60028581038087028203028087028203028087028203028087028203028087028203028087028203029586029003909402930460010193909302939093010292915050565b60408051602081019091526000815290565b6040518060200160405280600081525090565b60008060208385031215610b88578182fd5b823567ffffffffffffffff80821115610b9f578384fd5b818501915085601f830112610bb2578384fd5b813581811115610bc0578485fd5b866020828501011115610bd1578485fd5b60209290920196919550909350505050565b600060208284031215610bf4578081fd5b5051919050565b600080600060608486031215610c0f578081fd5b8351610c1a81610e22565b6020850151909350610c2b81610e22565b6040850151909250610c3c81610e37565b809150509250925092565b600060208284031215610c58578081fd5b8135610c6381610e37565b9392505050565b9115158252602082015260400190565b6001600160a01b0391909116815260200190565b6000602080835283518082850152825b81811015610cba57858101830151858201604001528201610c9e565b81811115610ccb5783604083870101525b50601f01601f1916929092016040019392505050565b60208082526019908201527f4669786564506f696e743a3a6d756c3a206f766572666c6f7700000000000000604082015260600190565b6020808252601a908201527f46756c6c4d6174683a3a6d756c4469763a206f766572666c6f77000000000000604082015260600190565b6020808252601e908201527f4669786564506f696e743a3a6672616374696f6e3a206f766572666c6f770000604082015260600190565b6020808252601e908201527f4669786564506f696e743a3a6672616374696f6e3a2064697620627920300000604082015260600190565b60208082526018908201527f426f72696e674d6174683a204d756c204f766572666c6f770000000000000000604082015260600190565b90815260200190565b92835263ffffffff9190911660208301526001600160901b0316604082015260600190565b6001600160701b03811681146109bf57600080fd5b63ffffffff811681146109bf57600080fdfea264697066735822122078c04630bb80917637583f689aeeb5452ef8db114b30e31e807aea48f0cff3e064736f6c634300060c0033",
  "devdoc": {
    "kind": "dev",
    "methods": {
      "get(bytes)": {
        "params": {
          "data": "Usually abi encoded, implementation specific data that contains information and arguments to & about the oracle. For example: (string memory collateralSymbol, string memory assetSymbol, uint256 division) = abi.decode(data, (string, string, uint256));"
        },
        "returns": {
          "_0": "success if no valid (recent) rate is available, return false else true.",
          "_1": "rate The rate of the requested asset / pair / pool."
        }
      },
      "name(bytes)": {
        "params": {
          "data": "Usually abi encoded, implementation specific data that contains information and arguments to & about the oracle. For example: (string memory collateralSymbol, string memory assetSymbol, uint256 division) = abi.decode(data, (string, string, uint256));"
        },
        "returns": {
          "_0": "(string) A human readable name about this oracle."
        }
      },
      "peek(bytes)": {
        "params": {
          "data": "Usually abi encoded, implementation specific data that contains information and arguments to & about the oracle. For example: (string memory collateralSymbol, string memory assetSymbol, uint256 division) = abi.decode(data, (string, string, uint256));"
        },
        "returns": {
          "_0": "success if no valid (recent) rate is available, return false else true.",
          "_1": "rate The rate of the requested asset / pair / pool."
        }
      },
      "peekSpot(bytes)": {
        "params": {
          "data": "Usually abi encoded, implementation specific data that contains information and arguments to & about the oracle. For example: (string memory collateralSymbol, string memory assetSymbol, uint256 division) = abi.decode(data, (string, string, uint256));"
        },
        "returns": {
          "rate": "The rate of the requested asset / pair / pool."
        }
      },
      "symbol(bytes)": {
        "params": {
          "data": "Usually abi encoded, implementation specific data that contains information and arguments to & about the oracle. For example: (string memory collateralSymbol, string memory assetSymbol, uint256 division) = abi.decode(data, (string, string, uint256));"
        },
        "returns": {
          "_0": "(string) A human readable symbol name about this oracle."
        }
      }
    },
    "version": 1
  },
  "userdoc": {
    "kind": "user",
    "methods": {
      "get(bytes)": {
        "notice": "Get the latest exchange rate."
      },
      "name(bytes)": {
        "notice": "Returns a human readable name about this oracle."
      },
      "peek(bytes)": {
        "notice": "Check the last exchange rate without any state changes."
      },
      "peekSpot(bytes)": {
        "notice": "Check the current spot exchange rate without any state changes. For oracles like TWAP this will be different from peek()."
      },
      "symbol(bytes)": {
        "notice": "Returns a human readable (short) name about this oracle."
      }
    },
    "version": 1
  },
  "storageLayout": {
    "storage": [
      {
        "astId": 16942,
        "contract": "contracts/oracles/ICEOracleFTM.sol:ICEOracleFTM",
        "label": "pairInfo",
        "offset": 0,
        "slot": "0",
        "type": "t_struct(PairInfo)16940_storage"
      }
    ],
    "types": {
      "t_struct(PairInfo)16940_storage": {
        "encoding": "inplace",
        "label": "struct ICEOracleFTM.PairInfo",
        "members": [
          {
            "astId": 16935,
            "contract": "contracts/oracles/ICEOracleFTM.sol:ICEOracleFTM",
            "label": "priceCumulativeLast",
            "offset": 0,
            "slot": "0",
            "type": "t_uint256"
          },
          {
            "astId": 16937,
            "contract": "contracts/oracles/ICEOracleFTM.sol:ICEOracleFTM",
            "label": "blockTimestampLast",
            "offset": 0,
            "slot": "1",
            "type": "t_uint32"
          },
          {
            "astId": 16939,
            "contract": "contracts/oracles/ICEOracleFTM.sol:ICEOracleFTM",
            "label": "priceAverage",
            "offset": 4,
            "slot": "1",
            "type": "t_uint144"
          }
        ],
        "numberOfBytes": "64"
      },
      "t_uint144": {
        "encoding": "inplace",
        "label": "uint144",
        "numberOfBytes": "18"
      },
      "t_uint256": {
        "encoding": "inplace",
        "label": "uint256",
        "numberOfBytes": "32"
      },
      "t_uint32": {
        "encoding": "inplace",
        "label": "uint32",
        "numberOfBytes": "4"
      }
    }
  }
}