{
  "address": "0x99D8a9C45b2ecA8864373A26D1459e3Dff1e17F3",
  "abi": [
    {
      "inputs": [
        {
          "internalType": "contract IBentoBoxV1",
          "name": "bentoBox_",
          "type": "address"
        }
      ],
      "stateMutability": "nonpayable",
      "type": "constructor"
    },
    {
      "anonymous": false,
      "inputs": [
        {
          "indexed": true,
          "internalType": "address",
          "name": "_owner",
          "type": "address"
        },
        {
          "indexed": true,
          "internalType": "address",
          "name": "_spender",
          "type": "address"
        },
        {
          "indexed": false,
          "internalType": "uint256",
          "name": "_value",
          "type": "uint256"
        }
      ],
      "name": "Approval",
      "type": "event"
    },
    {
      "anonymous": false,
      "inputs": [
        {
          "indexed": false,
          "internalType": "uint256",
          "name": "accruedAmount",
          "type": "uint256"
        },
        {
          "indexed": false,
          "internalType": "uint256",
          "name": "feeFraction",
          "type": "uint256"
        },
        {
          "indexed": false,
          "internalType": "uint64",
          "name": "rate",
          "type": "uint64"
        },
        {
          "indexed": false,
          "internalType": "uint256",
          "name": "utilization",
          "type": "uint256"
        }
      ],
      "name": "LogAccrue",
      "type": "event"
    },
    {
      "anonymous": false,
      "inputs": [
        {
          "indexed": true,
          "internalType": "address",
          "name": "from",
          "type": "address"
        },
        {
          "indexed": true,
          "internalType": "address",
          "name": "to",
          "type": "address"
        },
        {
          "indexed": false,
          "internalType": "uint256",
          "name": "share",
          "type": "uint256"
        },
        {
          "indexed": false,
          "internalType": "uint256",
          "name": "fraction",
          "type": "uint256"
        }
      ],
      "name": "LogAddAsset",
      "type": "event"
    },
    {
      "anonymous": false,
      "inputs": [
        {
          "indexed": true,
          "internalType": "address",
          "name": "from",
          "type": "address"
        },
        {
          "indexed": true,
          "internalType": "address",
          "name": "to",
          "type": "address"
        },
        {
          "indexed": false,
          "internalType": "uint256",
          "name": "share",
          "type": "uint256"
        }
      ],
      "name": "LogAddCollateral",
      "type": "event"
    },
    {
      "anonymous": false,
      "inputs": [
        {
          "indexed": true,
          "internalType": "address",
          "name": "from",
          "type": "address"
        },
        {
          "indexed": true,
          "internalType": "address",
          "name": "to",
          "type": "address"
        },
        {
          "indexed": false,
          "internalType": "uint256",
          "name": "amount",
          "type": "uint256"
        },
        {
          "indexed": false,
          "internalType": "uint256",
          "name": "feeAmount",
          "type": "uint256"
        },
        {
          "indexed": false,
          "internalType": "uint256",
          "name": "part",
          "type": "uint256"
        }
      ],
      "name": "LogBorrow",
      "type": "event"
    },
    {
      "anonymous": false,
      "inputs": [
        {
          "indexed": false,
          "internalType": "uint256",
          "name": "rate",
          "type": "uint256"
        }
      ],
      "name": "LogExchangeRate",
      "type": "event"
    },
    {
      "anonymous": false,
      "inputs": [
        {
          "indexed": true,
          "internalType": "address",
          "name": "newFeeTo",
          "type": "address"
        }
      ],
      "name": "LogFeeTo",
      "type": "event"
    },
    {
      "anonymous": false,
      "inputs": [
        {
          "indexed": true,
          "internalType": "address",
          "name": "from",
          "type": "address"
        },
        {
          "indexed": true,
          "internalType": "address",
          "name": "to",
          "type": "address"
        },
        {
          "indexed": false,
          "internalType": "uint256",
          "name": "share",
          "type": "uint256"
        },
        {
          "indexed": false,
          "internalType": "uint256",
          "name": "fraction",
          "type": "uint256"
        }
      ],
      "name": "LogRemoveAsset",
      "type": "event"
    },
    {
      "anonymous": false,
      "inputs": [
        {
          "indexed": true,
          "internalType": "address",
          "name": "from",
          "type": "address"
        },
        {
          "indexed": true,
          "internalType": "address",
          "name": "to",
          "type": "address"
        },
        {
          "indexed": false,
          "internalType": "uint256",
          "name": "share",
          "type": "uint256"
        }
      ],
      "name": "LogRemoveCollateral",
      "type": "event"
    },
    {
      "anonymous": false,
      "inputs": [
        {
          "indexed": true,
          "internalType": "address",
          "name": "from",
          "type": "address"
        },
        {
          "indexed": true,
          "internalType": "address",
          "name": "to",
          "type": "address"
        },
        {
          "indexed": false,
          "internalType": "uint256",
          "name": "amount",
          "type": "uint256"
        },
        {
          "indexed": false,
          "internalType": "uint256",
          "name": "part",
          "type": "uint256"
        }
      ],
      "name": "LogRepay",
      "type": "event"
    },
    {
      "anonymous": false,
      "inputs": [
        {
          "indexed": true,
          "internalType": "address",
          "name": "feeTo",
          "type": "address"
        },
        {
          "indexed": false,
          "internalType": "uint256",
          "name": "feesEarnedFraction",
          "type": "uint256"
        }
      ],
      "name": "LogWithdrawFees",
      "type": "event"
    },
    {
      "anonymous": false,
      "inputs": [
        {
          "indexed": true,
          "internalType": "address",
          "name": "previousOwner",
          "type": "address"
        },
        {
          "indexed": true,
          "internalType": "address",
          "name": "newOwner",
          "type": "address"
        }
      ],
      "name": "OwnershipTransferred",
      "type": "event"
    },
    {
      "anonymous": false,
      "inputs": [
        {
          "indexed": true,
          "internalType": "address",
          "name": "_from",
          "type": "address"
        },
        {
          "indexed": true,
          "internalType": "address",
          "name": "_to",
          "type": "address"
        },
        {
          "indexed": false,
          "internalType": "uint256",
          "name": "_value",
          "type": "uint256"
        }
      ],
      "name": "Transfer",
      "type": "event"
    },
    {
      "inputs": [],
      "name": "DOMAIN_SEPARATOR",
      "outputs": [
        {
          "internalType": "bytes32",
          "name": "",
          "type": "bytes32"
        }
      ],
      "stateMutability": "view",
      "type": "function"
    },
    {
      "inputs": [],
      "name": "accrue",
      "outputs": [],
      "stateMutability": "nonpayable",
      "type": "function"
    },
    {
      "inputs": [],
      "name": "accrueInfo",
      "outputs": [
        {
          "internalType": "uint64",
          "name": "interestPerSecond",
          "type": "uint64"
        },
        {
          "internalType": "uint64",
          "name": "lastAccrued",
          "type": "uint64"
        },
        {
          "internalType": "uint128",
          "name": "feesEarnedFraction",
          "type": "uint128"
        }
      ],
      "stateMutability": "view",
      "type": "function"
    },
    {
      "inputs": [
        {
          "internalType": "address",
          "name": "to",
          "type": "address"
        },
        {
          "internalType": "bool",
          "name": "skim",
          "type": "bool"
        },
        {
          "internalType": "uint256",
          "name": "share",
          "type": "uint256"
        }
      ],
      "name": "addAsset",
      "outputs": [
        {
          "internalType": "uint256",
          "name": "fraction",
          "type": "uint256"
        }
      ],
      "stateMutability": "nonpayable",
      "type": "function"
    },
    {
      "inputs": [
        {
          "internalType": "address",
          "name": "to",
          "type": "address"
        },
        {
          "internalType": "bool",
          "name": "skim",
          "type": "bool"
        },
        {
          "internalType": "uint256",
          "name": "share",
          "type": "uint256"
        }
      ],
      "name": "addCollateral",
      "outputs": [],
      "stateMutability": "nonpayable",
      "type": "function"
    },
    {
      "inputs": [
        {
          "internalType": "address",
          "name": "",
          "type": "address"
        },
        {
          "internalType": "address",
          "name": "",
          "type": "address"
        }
      ],
      "name": "allowance",
      "outputs": [
        {
          "internalType": "uint256",
          "name": "",
          "type": "uint256"
        }
      ],
      "stateMutability": "view",
      "type": "function"
    },
    {
      "inputs": [
        {
          "internalType": "address",
          "name": "spender",
          "type": "address"
        },
        {
          "internalType": "uint256",
          "name": "amount",
          "type": "uint256"
        }
      ],
      "name": "approve",
      "outputs": [
        {
          "internalType": "bool",
          "name": "",
          "type": "bool"
        }
      ],
      "stateMutability": "nonpayable",
      "type": "function"
    },
    {
      "inputs": [],
      "name": "asset",
      "outputs": [
        {
          "internalType": "contract IERC20",
          "name": "",
          "type": "address"
        }
      ],
      "stateMutability": "view",
      "type": "function"
    },
    {
      "inputs": [
        {
          "internalType": "address",
          "name": "",
          "type": "address"
        }
      ],
      "name": "balanceOf",
      "outputs": [
        {
          "internalType": "uint256",
          "name": "",
          "type": "uint256"
        }
      ],
      "stateMutability": "view",
      "type": "function"
    },
    {
      "inputs": [],
      "name": "bentoBox",
      "outputs": [
        {
          "internalType": "contract IBentoBoxV1",
          "name": "",
          "type": "address"
        }
      ],
      "stateMutability": "view",
      "type": "function"
    },
    {
      "inputs": [
        {
          "internalType": "address",
          "name": "to",
          "type": "address"
        },
        {
          "internalType": "uint256",
          "name": "amount",
          "type": "uint256"
        }
      ],
      "name": "borrow",
      "outputs": [
        {
          "internalType": "uint256",
          "name": "part",
          "type": "uint256"
        },
        {
          "internalType": "uint256",
          "name": "share",
          "type": "uint256"
        }
      ],
      "stateMutability": "nonpayable",
      "type": "function"
    },
    {
      "inputs": [],
      "name": "claimOwnership",
      "outputs": [],
      "stateMutability": "nonpayable",
      "type": "function"
    },
    {
      "inputs": [],
      "name": "collateral",
      "outputs": [
        {
          "internalType": "contract IERC20",
          "name": "",
          "type": "address"
        }
      ],
      "stateMutability": "view",
      "type": "function"
    },
    {
      "inputs": [
        {
          "internalType": "uint8[]",
          "name": "actions",
          "type": "uint8[]"
        },
        {
          "internalType": "uint256[]",
          "name": "values",
          "type": "uint256[]"
        },
        {
          "internalType": "bytes[]",
          "name": "datas",
          "type": "bytes[]"
        }
      ],
      "name": "cook",
      "outputs": [
        {
          "internalType": "uint256",
          "name": "value1",
          "type": "uint256"
        },
        {
          "internalType": "uint256",
          "name": "value2",
          "type": "uint256"
        }
      ],
      "stateMutability": "payable",
      "type": "function"
    },
    {
      "inputs": [],
      "name": "decimals",
      "outputs": [
        {
          "internalType": "uint8",
          "name": "",
          "type": "uint8"
        }
      ],
      "stateMutability": "view",
      "type": "function"
    },
    {
      "inputs": [],
      "name": "exchangeRate",
      "outputs": [
        {
          "internalType": "uint256",
          "name": "",
          "type": "uint256"
        }
      ],
      "stateMutability": "view",
      "type": "function"
    },
    {
      "inputs": [],
      "name": "feeTo",
      "outputs": [
        {
          "internalType": "address",
          "name": "",
          "type": "address"
        }
      ],
      "stateMutability": "view",
      "type": "function"
    },
    {
      "inputs": [
        {
          "internalType": "bytes",
          "name": "data",
          "type": "bytes"
        }
      ],
      "name": "init",
      "outputs": [],
      "stateMutability": "payable",
      "type": "function"
    },
    {
      "inputs": [
        {
          "internalType": "address[]",
          "name": "users",
          "type": "address[]"
        },
        {
          "internalType": "uint256[]",
          "name": "maxBorrowParts",
          "type": "uint256[]"
        },
        {
          "internalType": "address",
          "name": "to",
          "type": "address"
        },
        {
          "internalType": "contract ISwapper",
          "name": "swapper",
          "type": "address"
        }
      ],
      "name": "liquidate",
      "outputs": [],
      "stateMutability": "nonpayable",
      "type": "function"
    },
    {
      "inputs": [],
      "name": "masterContract",
      "outputs": [
        {
          "internalType": "contract KashiPairMediumRiskV2",
          "name": "",
          "type": "address"
        }
      ],
      "stateMutability": "view",
      "type": "function"
    },
    {
      "inputs": [],
      "name": "name",
      "outputs": [
        {
          "internalType": "string",
          "name": "",
          "type": "string"
        }
      ],
      "stateMutability": "view",
      "type": "function"
    },
    {
      "inputs": [
        {
          "internalType": "address",
          "name": "",
          "type": "address"
        }
      ],
      "name": "nonces",
      "outputs": [
        {
          "internalType": "uint256",
          "name": "",
          "type": "uint256"
        }
      ],
      "stateMutability": "view",
      "type": "function"
    },
    {
      "inputs": [],
      "name": "oracle",
      "outputs": [
        {
          "internalType": "contract IOracle",
          "name": "",
          "type": "address"
        }
      ],
      "stateMutability": "view",
      "type": "function"
    },
    {
      "inputs": [],
      "name": "oracleData",
      "outputs": [
        {
          "internalType": "bytes",
          "name": "",
          "type": "bytes"
        }
      ],
      "stateMutability": "view",
      "type": "function"
    },
    {
      "inputs": [],
      "name": "owner",
      "outputs": [
        {
          "internalType": "address",
          "name": "",
          "type": "address"
        }
      ],
      "stateMutability": "view",
      "type": "function"
    },
    {
      "inputs": [],
      "name": "pendingOwner",
      "outputs": [
        {
          "internalType": "address",
          "name": "",
          "type": "address"
        }
      ],
      "stateMutability": "view",
      "type": "function"
    },
    {
      "inputs": [
        {
          "internalType": "address",
          "name": "owner_",
          "type": "address"
        },
        {
          "internalType": "address",
          "name": "spender",
          "type": "address"
        },
        {
          "internalType": "uint256",
          "name": "value",
          "type": "uint256"
        },
        {
          "internalType": "uint256",
          "name": "deadline",
          "type": "uint256"
        },
        {
          "internalType": "uint8",
          "name": "v",
          "type": "uint8"
        },
        {
          "internalType": "bytes32",
          "name": "r",
          "type": "bytes32"
        },
        {
          "internalType": "bytes32",
          "name": "s",
          "type": "bytes32"
        }
      ],
      "name": "permit",
      "outputs": [],
      "stateMutability": "nonpayable",
      "type": "function"
    },
    {
      "inputs": [
        {
          "internalType": "address",
          "name": "to",
          "type": "address"
        },
        {
          "internalType": "uint256",
          "name": "fraction",
          "type": "uint256"
        }
      ],
      "name": "removeAsset",
      "outputs": [
        {
          "internalType": "uint256",
          "name": "share",
          "type": "uint256"
        }
      ],
      "stateMutability": "nonpayable",
      "type": "function"
    },
    {
      "inputs": [
        {
          "internalType": "address",
          "name": "to",
          "type": "address"
        },
        {
          "internalType": "uint256",
          "name": "share",
          "type": "uint256"
        }
      ],
      "name": "removeCollateral",
      "outputs": [],
      "stateMutability": "nonpayable",
      "type": "function"
    },
    {
      "inputs": [
        {
          "internalType": "address",
          "name": "to",
          "type": "address"
        },
        {
          "internalType": "bool",
          "name": "skim",
          "type": "bool"
        },
        {
          "internalType": "uint256",
          "name": "part",
          "type": "uint256"
        }
      ],
      "name": "repay",
      "outputs": [
        {
          "internalType": "uint256",
          "name": "amount",
          "type": "uint256"
        }
      ],
      "stateMutability": "nonpayable",
      "type": "function"
    },
    {
      "inputs": [
        {
          "internalType": "address",
          "name": "newFeeTo",
          "type": "address"
        }
      ],
      "name": "setFeeTo",
      "outputs": [],
      "stateMutability": "nonpayable",
      "type": "function"
    },
    {
      "inputs": [],
      "name": "symbol",
      "outputs": [
        {
          "internalType": "string",
          "name": "",
          "type": "string"
        }
      ],
      "stateMutability": "view",
      "type": "function"
    },
    {
      "inputs": [],
      "name": "totalAsset",
      "outputs": [
        {
          "internalType": "uint128",
          "name": "elastic",
          "type": "uint128"
        },
        {
          "internalType": "uint128",
          "name": "base",
          "type": "uint128"
        }
      ],
      "stateMutability": "view",
      "type": "function"
    },
    {
      "inputs": [],
      "name": "totalBorrow",
      "outputs": [
        {
          "internalType": "uint128",
          "name": "elastic",
          "type": "uint128"
        },
        {
          "internalType": "uint128",
          "name": "base",
          "type": "uint128"
        }
      ],
      "stateMutability": "view",
      "type": "function"
    },
    {
      "inputs": [],
      "name": "totalCollateralShare",
      "outputs": [
        {
          "internalType": "uint256",
          "name": "",
          "type": "uint256"
        }
      ],
      "stateMutability": "view",
      "type": "function"
    },
    {
      "inputs": [],
      "name": "totalSupply",
      "outputs": [
        {
          "internalType": "uint256",
          "name": "",
          "type": "uint256"
        }
      ],
      "stateMutability": "view",
      "type": "function"
    },
    {
      "inputs": [
        {
          "internalType": "address",
          "name": "to",
          "type": "address"
        },
        {
          "internalType": "uint256",
          "name": "amount",
          "type": "uint256"
        }
      ],
      "name": "transfer",
      "outputs": [
        {
          "internalType": "bool",
          "name": "",
          "type": "bool"
        }
      ],
      "stateMutability": "nonpayable",
      "type": "function"
    },
    {
      "inputs": [
        {
          "internalType": "address",
          "name": "from",
          "type": "address"
        },
        {
          "internalType": "address",
          "name": "to",
          "type": "address"
        },
        {
          "internalType": "uint256",
          "name": "amount",
          "type": "uint256"
        }
      ],
      "name": "transferFrom",
      "outputs": [
        {
          "internalType": "bool",
          "name": "",
          "type": "bool"
        }
      ],
      "stateMutability": "nonpayable",
      "type": "function"
    },
    {
      "inputs": [
        {
          "internalType": "address",
          "name": "newOwner",
          "type": "address"
        },
        {
          "internalType": "bool",
          "name": "direct",
          "type": "bool"
        },
        {
          "internalType": "bool",
          "name": "renounce",
          "type": "bool"
        }
      ],
      "name": "transferOwnership",
      "outputs": [],
      "stateMutability": "nonpayable",
      "type": "function"
    },
    {
      "inputs": [],
      "name": "updateExchangeRate",
      "outputs": [
        {
          "internalType": "bool",
          "name": "updated",
          "type": "bool"
        },
        {
          "internalType": "uint256",
          "name": "rate",
          "type": "uint256"
        }
      ],
      "stateMutability": "nonpayable",
      "type": "function"
    },
    {
      "inputs": [
        {
          "internalType": "address",
          "name": "",
          "type": "address"
        }
      ],
      "name": "userBorrowPart",
      "outputs": [
        {
          "internalType": "uint256",
          "name": "",
          "type": "uint256"
        }
      ],
      "stateMutability": "view",
      "type": "function"
    },
    {
      "inputs": [
        {
          "internalType": "address",
          "name": "",
          "type": "address"
        }
      ],
      "name": "userCollateralShare",
      "outputs": [
        {
          "internalType": "uint256",
          "name": "",
          "type": "uint256"
        }
      ],
      "stateMutability": "view",
      "type": "function"
    },
    {
      "inputs": [],
      "name": "withdrawFees",
      "outputs": [],
      "stateMutability": "nonpayable",
      "type": "function"
    }
  ],
  "transactionHash": "0x2860aca55418815c724070a02f5950330e2a3f44e86a95cfe191c4108e263b08",
  "args": [
    "0x74A0BcA2eeEdf8883cb91E37e9ff49430f20a616"
  ],
  "solcInputHash": "b882ecccb50e9681d7425cd8cee19d97",
  "bytecode": "0x6101006040523480156200001257600080fd5b5060405162005c0138038062005c018339810160408190526200003591620000fe565b4660a08190526200004681620000a8565b60805250600380546001600160a01b031916339081179091556040516000907f8be0079c531659141344cd1fd0a4f28419497f9722a3daafe3b4186f6b6457e0908290a36001600160601b0319606091821b1660c05230901b60e0526200014d565b60007f47e79534a245952e8b16893a336b85a3d9ea9fa8c573f3d803afb92a794692188230604051602001620000e1939291906200012e565b604051602081830303815290604052805190602001209050919050565b60006020828403121562000110578081fd5b81516001600160a01b038116811462000127578182fd5b9392505050565b92835260208301919091526001600160a01b0316604082015260600190565b60805160a05160c05160601c60e05160601c6159f66200020b60003980610cff52806123df5250806113b95280611581528061165952806117cc528061196f5280611ae75280611c075280611f7f528061201a5280612163528061286d5280612dc25280612eca5280612f8c52806131745280613234528061342e52806136fc528061384b52806139745280613af15280613ba75280613c835280613e08528061401e52806140fb525080610c7d525080610cb252506159f66000f3fe60806040526004361061028c5760003560e01c8063656f3d641161016457806395d89b41116100c6578063d8dfeb451161008a578063f46901ed11610064578063f46901ed14610715578063f8ba4cff14610735578063f9557ccb1461074a5761028c565b8063d8dfeb45146106cb578063dd62ed3e146106e0578063e30c3978146107005761028c565b806395d89b411461063d578063a9059cbb14610652578063b27c0e7414610672578063cd446e2214610696578063d505accf146106ab5761028c565b80637ecebe0011610128578063876467f811610102578063876467f8146105e85780638da5cb5b14610608578063912860c51461061d5761028c565b80637ecebe00146105855780638285ef40146105a5578063860ffea1146105c85761028c565b8063656f3d64146105135780636b2ace871461052657806370a082311461053b57806374645ff31461055b5780637dc0d1d0146105705761028c565b806323b872dd1161020d578063473e3ce7116101d15780634b8a3529116101ab5780634b8a3529146104bd5780634ddf47d4146104eb5780634e71e0c8146104fe5761028c565b8063473e3ce714610473578063476343ee1461048857806348e4163e1461049d5761028c565b806323b872dd146103f2578063313ce567146104125780633644e5151461043457806338d52e0f146104495780633ba0b9a91461045e5761028c565b806315294c401161025457806315294c401461035057806318160ddd1461037d5780631b51e940146103925780631c9e379b146103b25780632317ef67146103d25761028c565b8063017e7e581461029157806302ce728f146102bc57806306fdde03146102df578063078dfbe714610301578063095ea7b314610323575b600080fd5b34801561029d57600080fd5b506102a661075f565b6040516102b3919061504f565b60405180910390f35b3480156102c857600080fd5b506102d161076e565b6040516102b39291906150a7565b3480156102eb57600080fd5b506102f461084b565b6040516102b39190615131565b34801561030d57600080fd5b5061032161031c366004614931565b610923565b005b34801561032f57600080fd5b5061034361033e3660046149aa565b610a13565b6040516102b3919061509c565b34801561035c57600080fd5b5061037061036b36600461497b565b610a7e565b6040516102b391906150b7565b34801561038957600080fd5b50610370610a9b565b34801561039e57600080fd5b506103706103ad36600461497b565b610ab1565b3480156103be57600080fd5b506103706103cd36600461471a565b610ac6565b3480156103de57600080fd5b506103706103ed3660046149aa565b610ad8565b3480156103fe57600080fd5b5061034361040d366004614881565b610af3565b34801561041e57600080fd5b50610427610c5b565b6040516102b39190615864565b34801561044057600080fd5b50610370610c78565b34801561045557600080fd5b506102a6610cd8565b34801561046a57600080fd5b50610370610ce7565b34801561047f57600080fd5b50610370610ced565b34801561049457600080fd5b50610321610cf3565b3480156104a957600080fd5b506103706104b836600461471a565b610e63565b3480156104c957600080fd5b506104dd6104d83660046149aa565b610e75565b6040516102b3929190615814565b6103216104f9366004614b5c565b610ec0565b34801561050a57600080fd5b50610321610fa3565b6104dd610521366004614a66565b611031565b34801561053257600080fd5b506102a661196d565b34801561054757600080fd5b5061037061055636600461471a565b611991565b34801561056757600080fd5b506102f46119a3565b34801561057c57600080fd5b506102a6611a31565b34801561059157600080fd5b506103706105a036600461471a565b611a40565b3480156105b157600080fd5b506105ba611a52565b6040516102b39291906157fa565b3480156105d457600080fd5b506103216105e336600461497b565b611a6c565b3480156105f457600080fd5b506103216106033660046149aa565b611b4d565b34801561061457600080fd5b506102a6611b8b565b34801561062957600080fd5b506103216106383660046149d5565b611b9a565b34801561064957600080fd5b506102f4612221565b34801561065e57600080fd5b5061034361066d3660046149aa565b6122e5565b34801561067e57600080fd5b506106876123b0565b6040516102b393929190615838565b3480156106a257600080fd5b506102a66123dd565b3480156106b757600080fd5b506103216106c63660046148c1565b612401565b3480156106d757600080fd5b506102a66125a2565b3480156106ec57600080fd5b506103706106fb366004614849565b6125b1565b34801561070c57600080fd5b506102a66125ce565b34801561072157600080fd5b5061032161073036600461471a565b6125dd565b34801561074157600080fd5b50610321612651565b34801561075657600080fd5b506105ba612c1d565b6005546001600160a01b031681565b60085460405163d6d7d52560e01b815260009182916001600160a01b039091169063d6d7d525906107a490600990600401615144565b6040805180830381600087803b1580156107bd57600080fd5b505af11580156107d1573d6000803e3d6000fd5b505050506040513d601f19601f820116820180604052508101906107f59190614afb565b9092509050811561084257600f8190556040517f9f9192b5edb17356c524e08d9e025c8e2f6307e6ea52fb7968faa3081f51c3c8906108359083906150b7565b60405180910390a1610847565b50600f545b9091565b600654606090610863906001600160a01b0316612c37565b600754610878906001600160a01b0316612c37565b60085460405163355a219b60e21b81526001600160a01b039091169063d568866c906108a990600990600401615144565b60006040518083038186803b1580156108c157600080fd5b505afa1580156108d5573d6000803e3d6000fd5b505050506040513d6000823e601f3d908101601f191682016040526108fd9190810190614ded565b60405160200161090f93929190614f65565b604051602081830303815290604052905090565b6003546001600160a01b031633146109565760405162461bcd60e51b815260040161094d9061560f565b60405180910390fd5b81156109f2576001600160a01b0383161515806109705750805b61098c5760405162461bcd60e51b815260040161094d9061542f565b6003546040516001600160a01b038086169216907f8be0079c531659141344cd1fd0a4f28419497f9722a3daafe3b4186f6b6457e090600090a3600380546001600160a01b0385166001600160a01b031991821617909155600480549091169055610a0e565b600480546001600160a01b0319166001600160a01b0385161790555b505050565b3360008181526001602090815260408083206001600160a01b038716808552925280832085905551919290917f8c5be1e5ebec7d5bd14f71427d1e84f3dd0314c0f7b2291e5b200ac8c7c3b92590610a6c9086906150b7565b60405180910390a35060015b92915050565b6000610a88612651565b610a93848484612cfc565b949350505050565b600b54600160801b90046001600160801b031690565b6000610abb612651565b610a93848484612f35565b600d6020526000908152604090205481565b6000610ae2612651565b610aec83836131e0565b9392505050565b60008115610c18576001600160a01b03841660009081526020819052604090205482811015610b345760405162461bcd60e51b815260040161094d906156e7565b836001600160a01b0316856001600160a01b031614610c16576001600160a01b03851660009081526001602090815260408083203384529091529020546000198114610bc35783811015610b9a5760405162461bcd60e51b815260040161094d90615542565b6001600160a01b0386166000908152600160209081526040808320338452909152902084820390555b6001600160a01b038516610be95760405162461bcd60e51b815260040161094d906153c1565b506001600160a01b0380861660009081526020819052604080822086850390559186168152208054840190555b505b826001600160a01b0316846001600160a01b03166000805160206159a183398151915284604051610c4991906150b7565b60405180910390a35060019392505050565b600754600090610c73906001600160a01b03166134a7565b905090565b6000467f00000000000000000000000000000000000000000000000000000000000000008114610cb057610cab81613560565b610cd2565b7f00000000000000000000000000000000000000000000000000000000000000005b91505090565b6007546001600160a01b031681565b600f5481565b600a5481565b610cfb612651565b60007f00000000000000000000000000000000000000000000000000000000000000006001600160a01b031663017e7e586040518163ffffffff1660e01b815260040160206040518083038186803b158015610d5657600080fd5b505afa158015610d6a573d6000803e3d6000fd5b505050506040513d601f19601f82011682018060405250810190610d8e9190614736565b6010546001600160a01b038216600090815260208190526040902054919250600160801b90046001600160801b031690610dc890826135b4565b6001600160a01b0383166000818152602081905260408082209390935591519091906000805160206159a183398151915290610e059085906150b7565b60405180910390a3601080546001600160801b031690556040516001600160a01b038316907fbe641c3ffc44b2d6c184f023fa4ed7bda4b6ffa71e03b3c98ae0c776da1f17e790610e579084906150b7565b60405180910390a25050565b600e6020526000908152604090205481565b600080610e80612651565b610e8a84846135d7565b600f549193509150610e9d9033906138c5565b610eb95760405162461bcd60e51b815260040161094d906155d8565b9250929050565b6006546001600160a01b031615610ee95760405162461bcd60e51b815260040161094d9061538a565b610ef581830183614ce1565b805160069060009060079082906008908290610f189060099060208a019061454d565b5081546001600160a01b0398891661010092830a908102908a021990911617909155825497871691810a918202918702199097161790558154958416940a93840293830219909416929092179092555060065416610f885760405162461bcd60e51b815260040161094d9061550b565b50506010805467ffffffffffffffff19166312e687c0179055565b6004546001600160a01b0316338114610fce5760405162461bcd60e51b815260040161094d90615644565b6003546040516001600160a01b038084169216907f8be0079c531659141344cd1fd0a4f28419497f9722a3daafe3b4186f6b6457e090600090a3600380546001600160a01b039092166001600160a01b0319928316179055600480549091169055565b60008061103c6145c7565b60005b888110156119315760008a8a8381811061105557fe5b905060200201602081019061106a9190614e9c565b905082602001511580156110815750600a8160ff16105b156110965761108e612651565b600160208401525b60ff8116600a14156110f05760008060008989868181106110b357fe5b90506020028101906110c59190615872565b8101906110d29190614dc7565b9250925092506110e882826105e3868c8c613a30565b505050611928565b60ff81166001141561115157600080600089898681811061110d57fe5b905060200281019061111f9190615872565b81019061112c9190614dc7565b9250925092506111478282611142868c8c613a30565b612f35565b9750505050611928565b60ff8116600214156111b157600080600089898681811061116e57fe5b90506020028101906111809190615872565b81019061118d9190614dc7565b9250925092506111a882826111a3868c8c613a30565b612cfc565b50505050611928565b60ff81166003141561120c576000808888858181106111cc57fe5b90506020028101906111de9190615872565b8101906111eb9190614da3565b91509150611203816111fe848a8a613a30565b6131e0565b96505050611928565b60ff8116600414156112695760008088888581811061122757fe5b90506020028101906112399190615872565b8101906112469190614da3565b9150915061125e81611259848a8a613a30565b613a58565b505060018352611928565b60ff8116600514156112cc5760008088888581811061128457fe5b90506020028101906112969190615872565b8101906112a39190614da3565b915091506112bb816112b6848a8a613a30565b6135d7565b600187529097509550611928915050565b60ff8116600b141561136b5760008060008989868181106112e957fe5b90506020028101906112fb9190615872565b8101906113089190614b28565b92509250925060008061131961076e565b915091508415806113275750815b801561133257508381115b8015611345575082158061134557508281115b6113615760405162461bcd60e51b815260040161094d9061578c565b5050505050611928565b60ff81166018141561144a576000806000806000808c8c8981811061138c57fe5b905060200281019061139e9190615872565b8101906113ab9190614752565b9550955095509550955095507f00000000000000000000000000000000000000000000000000000000000000006001600160a01b031663c0a47c938787878787876040518763ffffffff1660e01b815260040161140d96959493929190615063565b600060405180830381600087803b15801561142757600080fd5b505af115801561143b573d6000803e3d6000fd5b50505050505050505050611928565b60ff8116601414156114d2576114c887878481811061146557fe5b90506020028101906114779190615872565b8080601f0160208091040260200160405190810160405280939291908181526020018383808284376000920191909152508d92508c91508690508181106114ba57fe5b905060200201358787613b66565b9095509350611928565b60ff81166015141561153d576114c88787848181106114ed57fe5b90506020028101906114ff9190615872565b8080601f016020809104026020016040519081016040528093929190818152602001838380828437600092019190915250899250889150613c5c9050565b60ff81166016141561161557600080600089898681811061155a57fe5b905060200281019061156c9190615872565b8101906115799190614881565b9250925092507f00000000000000000000000000000000000000000000000000000000000000006001600160a01b031663f18d03cc8433856115bc868e8e613a30565b6040518563ffffffff1660e01b81526004016115db94939291906151e8565b600060405180830381600087803b1580156115f557600080fd5b505af1158015611609573d6000803e3d6000fd5b50505050505050611928565b60ff8116601714156116a957600060608089898681811061163257fe5b90506020028101906116449190615872565b8101906116519190614c0f565b9250925092507f00000000000000000000000000000000000000000000000000000000000000006001600160a01b0316630fca8843843385856040518563ffffffff1660e01b81526004016115db9493929190615246565b60ff8116601e1415611783576060600061172b8b8b868181106116c857fe5b905060200201358a8a878181106116db57fe5b90506020028101906116ed9190615872565b8080601f0160208091040260200160405190810160405280939291908181526020018383808284376000920191909152508c92508b9150613d4a9050565b915091508060ff1660011415611756578180602001905181019061174f9190614e61565b965061177c565b8060ff166002141561177c57818060200190518101906117769190614e79565b90975095505b5050611928565b60ff8116600614156118ab57600087878481811061179d57fe5b90506020028101906117af9190615872565b8101906117bc9190614d8b565b6007549091506001600160a01b037f000000000000000000000000000000000000000000000000000000000000000081169163da5139ca9116611833611803858b8b613a30565b60408051808201909152600c546001600160801b038082168352600160801b909104166020820152906001613f00565b60016040518463ffffffff1660e01b81526004016118539392919061530c565b60206040518083038186803b15801561186b57600080fd5b505afa15801561187f573d6000803e3d6000fd5b505050506040513d601f19601f820116820180604052508101906118a39190614e61565b955050611928565b60ff8116600714156119285760008787848181106118c557fe5b90506020028101906118d79190615872565b8101906118e49190614d8b565b90506119246118f4828888613a30565b60408051808201909152600c546001600160801b038082168352600160801b909104166020820152906000613f99565b9550505b5060010161103f565b508051156119615761194533600f546138c5565b6119615760405162461bcd60e51b815260040161094d906155d8565b50965096945050505050565b7f000000000000000000000000000000000000000000000000000000000000000081565b60006020819052908152604090205481565b6009805460408051602060026001851615610100026000190190941693909304601f81018490048402820184019092528181529291830182828015611a295780601f106119fe57610100808354040283529160200191611a29565b820191906000526020600020905b815481529060010190602001808311611a0c57829003601f168201915b505050505081565b6008546001600160a01b031681565b60026020526000908152604090205481565b600c546001600160801b0380821691600160801b90041682565b6001600160a01b0383166000908152600d6020526040902054611a8f90826135b4565b6001600160a01b0384166000908152600d6020526040902055600a54611ab581836135b4565b600a55600654611ad0906001600160a01b0316838386614012565b836001600160a01b031683611ae55733611b07565b7f00000000000000000000000000000000000000000000000000000000000000005b6001600160a01b03167f9ed03113de523cebfe5e49d5f8e12894b1c0d42ce805990461726444c90eab8784604051611b3f91906150b7565b60405180910390a350505050565b611b55612651565b611b5f8282613a58565b611b6b33600f546138c5565b611b875760405162461bcd60e51b815260040161094d906155d8565b5050565b6003546001600160a01b031681565b6000611ba461076e565b915050611baf612651565b6000806000611bbc6145c7565b5060408051808201909152600c546001600160801b038082168352600160801b909104166020820152611bed6145c7565b600654604051634ffe34db60e01b81526001600160a01b037f0000000000000000000000000000000000000000000000000000000000000000811692634ffe34db92611c4092919091169060040161504f565b604080518083038186803b158015611c5757600080fd5b505afa158015611c6b573d6000803e3d6000fd5b505050506040513d601f19601f82011682018060405250810190611c8f9190614e1f565b905060005b8b811015611eb55760008d8d83818110611caa57fe5b9050602002016020810190611cbf919061471a565b9050611ccb81896138c5565b611eac576001600160a01b0381166000908152600e6020526040812054808e8e86818110611cf557fe5b9050602002013511611d19578d8d85818110611d0d57fe5b90506020020135611d1b565b805b9150611d27818361416f565b6001600160a01b0384166000908152600e60205260408120919091559050611d50868383613f00565b90506000611d8b69152d02c7e14af6800000611d798d611d73866201b580614192565b90614192565b81611d8057fe5b889190046000613f99565b6001600160a01b0385166000908152600d6020526040902054909150611db1908261416f565b6001600160a01b038086166000908152600d60205260409020919091558c1615611ddb578b611ddd565b8c5b6001600160a01b0316846001600160a01b03167f8ad4d3ff00da092c7ad9a573ea4f5f6a3dffc6712dc06d3f78f49b862297c40283604051611e1f91906150b7565b60405180910390a36001600160a01b03808516908d1615611e40578c611e42565b335b6001600160a01b03167fc8e512d8f188ca059984b5853d2bf653da902696b8512785b182b2c813789a6e8486604051611e7c929190615814565b60405180910390a3611e8e8a826135b4565b9950611e9a89836135b4565b9850611ea688846135b4565b97505050505b50600101611c94565b5083611ed35760405162461bcd60e51b815260040161094d906153f8565b611ef0611edf856141c9565b83516001600160801b0316906141f6565b6001600160801b03168252611f1b611f07846141c9565b60208401516001600160801b0316906141f6565b6001600160801b03908116602084018190528351600c80546001600160801b03191691841691909117909216600160801b909102179055600a54611f5f908661416f565b600a55600754604051636d289ce560e11b81526000916001600160a01b037f000000000000000000000000000000000000000000000000000000000000000081169263da5139ca92611fba921690899060019060040161530c565b60206040518083038186803b158015611fd257600080fd5b505afa158015611fe6573d6000803e3d6000fd5b505050506040513d601f19601f8201168201806040525081019061200a9190614e61565b6006549091506001600160a01b037f000000000000000000000000000000000000000000000000000000000000000081169163f18d03cc919081169030908c1615612055578b612057565b8c5b8a6040518563ffffffff1660e01b815260040161207794939291906151e8565b600060405180830381600087803b15801561209157600080fd5b505af11580156120a5573d6000803e3d6000fd5b505050506001600160a01b03881615612149576006546007546040516371a1ff0960e11b81526001600160a01b03808c169363e343fe12936120f593918316921690339087908d90600401615212565b6040805180830381600087803b15801561210e57600080fd5b505af1158015612122573d6000803e3d6000fd5b505050506040513d601f19601f820116820180604052508101906121469190614e79565b50505b600754604051633c6340f360e21b81526001600160a01b037f000000000000000000000000000000000000000000000000000000000000000081169263f18d03cc926121a29291909116903390309087906004016151e8565b600060405180830381600087803b1580156121bc57600080fd5b505af11580156121d0573d6000803e3d6000fd5b505050506121f26121e0826141c9565b600b546001600160801b031690614225565b600b80546001600160801b0319166001600160801b039290921691909117905550505050505050505050505050565b600654606090612239906001600160a01b0316614254565b60075461224e906001600160a01b0316614254565b60085460405163634ce26b60e11b81526001600160a01b039091169063c699c4d69061227f90600990600401615144565b60006040518083038186803b15801561229757600080fd5b505afa1580156122ab573d6000803e3d6000fd5b505050506040513d6000823e601f3d908101601f191682016040526122d39190810190614ded565b60405160200161090f93929190614fe2565b6000811561237f57336000908152602081905260409020548281101561231d5760405162461bcd60e51b815260040161094d906156e7565b336001600160a01b0385161461237d576001600160a01b0384166123535760405162461bcd60e51b815260040161094d906153c1565b3360009081526020819052604080822085840390556001600160a01b038616825290208054840190555b505b826001600160a01b0316336001600160a01b03166000805160206159a183398151915284604051610a6c91906150b7565b6010546001600160401b0380821691600160401b810490911690600160801b90046001600160801b031683565b7f000000000000000000000000000000000000000000000000000000000000000081565b6001600160a01b0387166124275760405162461bcd60e51b815260040161094d90615679565b8342106124465760405162461bcd60e51b815260040161094d906155b0565b6001600160a01b03871660008181526002602090815260409182902080546001818101909255925190926124c4926124a9927f6e71edae12b1b97f4d1f60370fef10105fa2faae0126114a169c64845d6126c9928e928e928e92918e91016150c0565b6040516020818303038152906040528051906020012061429b565b858585604051600081526020016040526040516124e49493929190615113565b6020604051602081039080840390855afa158015612506573d6000803e3d6000fd5b505050602060405103516001600160a01b0316146125365760405162461bcd60e51b815260040161094d906157c3565b6001600160a01b038088166000818152600160209081526040808320948b168084529490915290819020889055517f8c5be1e5ebec7d5bd14f71427d1e84f3dd0314c0f7b2291e5b200ac8c7c3b925906125919089906150b7565b60405180910390a350505050505050565b6006546001600160a01b031681565b600160209081526000928352604080842090915290825290205481565b6004546001600160a01b031681565b6003546001600160a01b031633146126075760405162461bcd60e51b815260040161094d9061560f565b600580546001600160a01b0319166001600160a01b0383169081179091556040517fcf1d3f17e521c635e0d20b8acba94ba170afc041d0546d46dafa09d3c9c19eb390600090a250565b6126596145de565b50604080516060810182526010546001600160401b038082168352600160401b82041660208301819052600160801b9091046001600160801b031692820192909252904203806126aa575050612c1b565b6001600160401b03421660208301526126c16145c7565b5060408051808201909152600c546001600160801b038082168352600160801b90910416602082018190526127b85782516001600160401b03166312e687c01461274b576312e687c08084526040517f33af5ce86e8438eff54589f85332916444457dfa8685493fbd579b809097026b91612742916000918291829061532f565b60405180910390a15b5050805160108054602084015160409094015167ffffffffffffffff199091166001600160401b03938416176fffffffffffffffff00000000000000001916600160401b9390941692909202929092176001600160801b03908116600160801b9190921602179055612c1b565b6000806127c36145c7565b5060408051808201909152600b546001600160801b038082168352600160801b9091048116602083015286518551670de0b6b3a764000092612815928992611d739216906001600160401b0316614192565b8161281c57fe5b04925061283c61282b846141c9565b85516001600160801b031690614225565b6001600160801b03168085526007548251604051630acc462360e31b81526000936128fd9390926001600160a01b037f00000000000000000000000000000000000000000000000000000000000000008116936356623118936128a7939216919088906004016152e0565b60206040518083038186803b1580156128bf57600080fd5b505afa1580156128d3573d6000803e3d6000fd5b505050506040513d601f19601f820116820180604052508101906128f79190614e61565b906135b4565b90506000620186a061291186612710614192565b8161291857fe5b0490508161293c84602001516001600160801b03168361419290919063ffffffff16565b8161294357fe5b049350612966612952856141c9565b60408a01516001600160801b031690614225565b6001600160801b03166040890152612994612980856141c9565b60208501516001600160801b031690614225565b600b80546001600160801b03908116600160801b9382168402179091558751600c805460208b01516001600160801b0319909116928416928317841693169093029190911790915560009083906129f390670de0b6b3a7640000614192565b816129fa57fe5b0490506709b6e64a8ec60000811015612abc5760006709b6e64a8ec60000612a2e670de0b6b3a7640000611d73838661416f565b81612a3557fe5b0490506000612a63612a4b8b611d738580614192565b7054a2b63d65d79d094abb66880000000000906135b4565b8b519091508190612a8e906001600160401b03167054a2b63d65d79d094abb66880000000000614192565b81612a9557fe5b046001600160401b0316808c526304b9a1f01115612ab5576304b9a1f08b525b5050612b6d565b670b1a2bc2ec500000811115612b6d5760006702c68af0bb140000612af5670de0b6b3a7640000611d7385670b1a2bc2ec50000061416f565b81612afc57fe5b0490506000612b12612a4b8b611d738580614192565b8b519091506000907054a2b63d65d79d094abb6688000000000090612b40906001600160401b031684614192565b81612b4757fe5b0490506449d4824600811115612b5f57506449d48246005b6001600160401b03168b5250505b88516040517f33af5ce86e8438eff54589f85332916444457dfa8685493fbd579b809097026b91612ba39189918991869061532f565b60405180910390a1505086516010805460208a01516040909a015167ffffffffffffffff199091166001600160401b03938416176fffffffffffffffff00000000000000001916600160401b93909a1692909202989098176001600160801b03908116600160801b9190921602179096555050505050505b565b600b546001600160801b0380821691600160801b90041682565b60408051600481526024810182526020810180516001600160e01b03166306fdde0360e01b179052905160609160009183916001600160a01b03861691612c7e9190614f00565b600060405180830381855afa9150503d8060008114612cb9576040519150601f19603f3d011682016040523d82523d6000602084013e612cbe565b606091505b509150915081612ce957604051806040016040528060038152602001623f3f3f60e81b815250612cf2565b612cf2816142d3565b925050505b919050565b60408051808201909152600c546001600160801b038082168352600160801b909104166020820152600090612d3390836001614438565b8151600c80546020948501516001600160801b03908116600160801b029381166001600160801b031990921691909117169190911790556001600160a01b0386166000908152600e909252604090912054909150612d91908361416f565b6001600160a01b038086166000908152600e6020526040808220939093556007549251636d289ce560e11b815290927f000000000000000000000000000000000000000000000000000000000000000083169263da5139ca92612dff9290911690869060019060040161530c565b60206040518083038186803b158015612e1757600080fd5b505afa158015612e2b573d6000803e3d6000fd5b505050506040513d601f19601f82011682018060405250810190612e4f9190614e61565b600b546007549192506001600160801b031690612e77906001600160a01b0316838388614012565b612e93612e83836141c9565b6001600160801b03831690614225565b600b80546001600160801b0319166001600160801b03929092169190911790556001600160a01b03861685612ec85733612eea565b7f00000000000000000000000000000000000000000000000000000000000000005b6001600160a01b03167fc8e512d8f188ca059984b5853d2bf653da902696b8512785b182b2c813789a6e8587604051612f24929190615814565b60405180910390a350509392505050565b6000612f3f6145c7565b50604080518082018252600b546001600160801b03808216808452600160801b90920481166020840152600754600c549451636d289ce560e11b8152939492936000936001600160a01b037f000000000000000000000000000000000000000000000000000000000000000081169463da5139ca94612fc89492169216906001906004016152e0565b60206040518083038186803b158015612fe057600080fd5b505afa158015612ff4573d6000803e3d6000fd5b505050506040513d601f19601f820116820180604052508101906130189190614e61565b83516001600160801b0316019050801561305a578061304d84602001516001600160801b03168761419290919063ffffffff16565b8161305457fe5b0461305c565b845b93506103e861308161306d866141c9565b60208601516001600160801b031690614225565b6001600160801b0316101561309c5760009350505050610aec565b6130a78386866144ad565b8051600b80546020938401516001600160801b03908116600160801b029381166001600160801b031990921691909117169190911790556001600160a01b038816600090815290819052604090205461310090856135b4565b6001600160a01b0388166000818152602081905260408082209390935591519091906000805160206159a18339815191529061313d9088906150b7565b60405180910390a360075461315d906001600160a01b0316868489614012565b866001600160a01b0316866131725733613194565b7f00000000000000000000000000000000000000000000000000000000000000005b6001600160a01b03167f30a8c4f9ab5af7e1309ca87c32377d1a83366c5990472dbf9d262450eae14e3887876040516131ce929190615814565b60405180910390a35050509392505050565b60006131ea6145c7565b50604080518082018252600b546001600160801b038082168352600160801b90910481166020830152600754600c549351636d289ce560e11b815292936000936001600160a01b037f000000000000000000000000000000000000000000000000000000000000000081169463da5139ca94613271949216929116906001906004016152e0565b60206040518083038186803b15801561328957600080fd5b505afa15801561329d573d6000803e3d6000fd5b505050506040513d601f19601f820116820180604052508101906132c19190614e61565b825160208401516001600160801b03918216929092019250166132e48583614192565b816132eb57fe5b33600090815260208190526040902054919004935061330a908561416f565b336000818152602081905260408082209390935591516000805160206159a18339815191529061333b9088906150b7565b60405180910390a361334f611edf846141c9565b6001600160801b03168252613366611f07856141c9565b6001600160801b0316602083018190526103e811156133975760405162461bcd60e51b815260040161094d906156b0565b8151600b805460208501516001600160801b03908116600160801b029381166001600160801b031990921691909117169190911790556040516001600160a01b0386169033907f6e853a5fd6b51d773691f542ebac8513c9992a51380d4c342031056a641142289061340c9087908990615814565b60405180910390a3600754604051633c6340f360e21b81526001600160a01b037f000000000000000000000000000000000000000000000000000000000000000081169263f18d03cc9261346d92919091169030908a9089906004016151e8565b600060405180830381600087803b15801561348757600080fd5b505af115801561349b573d6000803e3d6000fd5b50505050505092915050565b60408051600481526024810182526020810180516001600160e01b031663313ce56760e01b179052905160009182916060916001600160a01b038616916134ee9190614f00565b600060405180830381855afa9150503d8060008114613529576040519150601f19603f3d011682016040523d82523d6000602084013e61352e565b606091505b5091509150818015613541575080516020145b61354c576012612cf2565b80806020019051810190612cf29190614eb8565b60007f47e79534a245952e8b16893a336b85a3d9ea9fa8c573f3d803afb92a794692188230604051602001613597939291906150f4565b604051602081830303815290604052805190602001209050919050565b81810181811015610a785760405162461bcd60e51b815260040161094d906154d4565b60008080620186a06135ea856032614192565b816135f157fe5b04905061363161360185836135b4565b60408051808201909152600c546001600160801b038082168352600160801b9091041660208201529060016144ee565b8151600c80546020948501516001600160801b03908116600160801b029381166001600160801b03199092169190911716919091179055336000908152600e90925260409091205490935061368690846135b4565b336000818152600e6020526040908190209290925590516001600160a01b03871691907f3a5151e57d3bc9798e7853034ac52293d1a0e12a2b44725e75b03b21f86477a6906136da90889086908990615822565b60405180910390a3600754604051636d289ce560e11b81526001600160a01b037f000000000000000000000000000000000000000000000000000000000000000081169263da5139ca9261373a929190911690889060009060040161530c565b60206040518083038186803b15801561375257600080fd5b505afa158015613766573d6000803e3d6000fd5b505050506040513d601f19601f8201168201806040525081019061378a9190614e61565b91506137946145c7565b5060408051808201909152600b546001600160801b038082168352600160801b90910416602082018190526103e811156137e05760405162461bcd60e51b815260040161094d906156b0565b6137fd6137ec846141c9565b82516001600160801b0316906141f6565b6001600160801b03908116808352600b805460208501518416600160801b026001600160801b0319909116909217909216179055600754604051633c6340f360e21b81526001600160a01b037f000000000000000000000000000000000000000000000000000000000000000081169263f18d03cc9261388a92919091169030908b9089906004016151e8565b600060405180830381600087803b1580156138a457600080fd5b505af11580156138b8573d6000803e3d6000fd5b5050505050509250929050565b6001600160a01b0382166000908152600e6020526040812054806138ed576001915050610a78565b6001600160a01b0384166000908152600d60205260409020548061391657600092505050610a78565b61391e6145c7565b5060408051808201909152600c546001600160801b03808216808452600160801b90920416602083018190529061395c908790611d73908790614192565b8161396357fe5b600654919004906001600160a01b037f0000000000000000000000000000000000000000000000000000000000000000811691635662311891166139b4620124f8611d73886509184e72a000614192565b60006040518463ffffffff1660e01b81526004016139d49392919061530c565b60206040518083038186803b1580156139ec57600080fd5b505afa158015613a00573d6000803e3d6000fd5b505050506040513d601f19601f82011682018060405250810190613a249190614e61565b10159695505050505050565b600080841215613a50576000198414613a495781613a4b565b825b610a93565b509192915050565b336000908152600d6020526040902054613a72908261416f565b336000908152600d6020526040902055600a54613a8f908261416f565b600a556040516001600160a01b0383169033907f8ad4d3ff00da092c7ad9a573ea4f5f6a3dffc6712dc06d3f78f49b862297c40290613acf9085906150b7565b60405180910390a3600654604051633c6340f360e21b81526001600160a01b037f000000000000000000000000000000000000000000000000000000000000000081169263f18d03cc92613b309291909116903090879087906004016151e8565b600060405180830381600087803b158015613b4a57600080fd5b505af1158015613b5e573d6000803e3d6000fd5b505050505050565b60008060008060008089806020019051810190613b839190614bc8565b9350935093509350613b96828989613a30565b9150613ba3818989613a30565b90507f00000000000000000000000000000000000000000000000000000000000000006001600160a01b03166302b9446c8a86338787876040518763ffffffff1660e01b8152600401613bfa959493929190615212565b60408051808303818588803b158015613c1257600080fd5b505af1158015613c26573d6000803e3d6000fd5b50505050506040513d601f19601f82011682018060405250810190613c4b9190614e79565b955095505050505094509492505050565b60008060008060008088806020019051810190613c799190614bc8565b93509350935093507f00000000000000000000000000000000000000000000000000000000000000006001600160a01b03166397da6d30853386613cbe878e8e613a30565b613cc9878f8f613a30565b6040518663ffffffff1660e01b8152600401613ce9959493929190615212565b6040805180830381600087803b158015613d0257600080fd5b505af1158015613d16573d6000803e3d6000fd5b505050506040513d601f19601f82011682018060405250810190613d3a9190614e79565b9550955050505050935093915050565b60606000806060600080600089806020019051810190613d6a91906147bf565b94509450945094509450828015613d7f575081155b15613dad578389604051602001613d97929190614f1c565b6040516020818303038152906040529350613e06565b82158015613db85750815b15613dd0578388604051602001613d97929190614f1c565b828015613dda5750815b15613e0657838989604051602001613df493929190614f3e565b60405160208183030381529060405293505b7f00000000000000000000000000000000000000000000000000000000000000006001600160a01b0316856001600160a01b031614158015613e5157506001600160a01b0385163014155b613e6d5760405162461bcd60e51b815260040161094d90615579565b60006060866001600160a01b03168d87604051613e8a9190614f00565b60006040518083038185875af1925050503d8060008114613ec7576040519150601f19603f3d011682016040523d82523d6000602084013e613ecc565b606091505b509150915081613eee5760405162461bcd60e51b815260040161094d90615466565b9c919b50909950505050505050505050565b600083602001516001600160801b031660001415613f1f575081610aec565b602084015184516001600160801b0391821691613f3e91869116614192565b81613f4557fe5b049050818015613f8957508284600001516001600160801b0316613f7f86602001516001600160801b03168461419290919063ffffffff16565b81613f8657fe5b04105b15610aec57610a938160016135b4565b82516000906001600160801b0316613fb2575081610aec565b835160208501516001600160801b0391821691613fd191869116614192565b81613fd857fe5b049050818015613f8957508284602001516001600160801b0316613f7f86600001516001600160801b03168461419290919063ffffffff16565b80156140e4576140c0827f00000000000000000000000000000000000000000000000000000000000000006001600160a01b031663f7888aec87306040518363ffffffff1660e01b815260040161406a9291906151ce565b60206040518083038186803b15801561408257600080fd5b505afa158015614096573d6000803e3d6000fd5b505050506040513d601f19601f820116820180604052508101906140ba9190614e61565b9061416f565b8311156140df5760405162461bcd60e51b815260040161094d9061571e565b614169565b604051633c6340f360e21b81526001600160a01b037f0000000000000000000000000000000000000000000000000000000000000000169063f18d03cc906141369087903390309089906004016151e8565b600060405180830381600087803b15801561415057600080fd5b505af1158015614164573d6000803e3d6000fd5b505050505b50505050565b80820382811115610a785760405162461bcd60e51b815260040161094d90615353565b60008115806141ad575050808202828282816141aa57fe5b04145b610a785760405162461bcd60e51b815260040161094d90615755565b60006001600160801b038211156141f25760405162461bcd60e51b815260040161094d9061549d565b5090565b8082036001600160801b038084169082161115610a785760405162461bcd60e51b815260040161094d90615353565b8181016001600160801b038083169082161015610a785760405162461bcd60e51b815260040161094d906154d4565b60408051600481526024810182526020810180516001600160e01b03166395d89b4160e01b179052905160609160009183916001600160a01b03861691612c7e9190614f00565b600060405180604001604052806002815260200161190160f01b8152506142c0610c78565b8360405160200161359793929190614f3e565b606060408251106142f957818060200190518101906142f29190614ded565b9050612cf7565b8151602014156144185760005b60208160ff161080156143355750828160ff168151811061432357fe5b01602001516001600160f81b03191615155b1561434257600101614306565b60608160ff166001600160401b038111801561435d57600080fd5b506040519080825280601f01601f191660200182016040528015614388576020820181803683370190505b509050600091505b60208260ff161080156143bf5750838260ff16815181106143ad57fe5b01602001516001600160f81b03191615155b1561440f57838260ff16815181106143d357fe5b602001015160f81c60f81b818360ff16815181106143ed57fe5b60200101906001600160f81b031916908160001a905350600190910190614390565b9150612cf79050565b506040805180820190915260038152623f3f3f60e81b6020820152612cf7565b6144406145c7565b600061444d858585613f00565b905061446c61445b826141c9565b86516001600160801b0316906141f6565b6001600160801b03168552614497614483856141c9565b60208701516001600160801b0316906141f6565b6001600160801b03166020860152939492505050565b6144b56145c7565b6144c161282b846141c9565b6001600160801b031684526144d861306d836141c9565b6001600160801b03166020850152509192915050565b6144f66145c7565b6000614503858585613f99565b9050614522614511856141c9565b86516001600160801b031690614225565b6001600160801b03168552614497614539826141c9565b60208701516001600160801b031690614225565b828054600181600116156101000203166002900490600052602060002090601f016020900481019282601f1061458e57805160ff19168380011785556145bb565b828001600101855582156145bb579182015b828111156145bb5782518255916020019190600101906145a0565b506141f29291506145fe565b604080518082019091526000808252602082015290565b604080516060810182526000808252602082018190529181019190915290565b5b808211156141f257600081556001016145ff565b8035610a7881615956565b60008083601f84011261462f578182fd5b5081356001600160401b03811115614645578182fd5b6020830191508360208083028501011115610eb957600080fd5b600082601f83011261466f578081fd5b813561468261467d826158dc565b6158b6565b8181529150602080830190848101818402860182018710156146a357600080fd5b60005b848110156146c2578135845292820192908201906001016146a6565b505050505092915050565b600082601f8301126146dd578081fd5b81516146eb61467d826158fb565b915080825283602082850101111561470257600080fd5b61471381602084016020860161592a565b5092915050565b60006020828403121561472b578081fd5b8135610aec81615956565b600060208284031215614747578081fd5b8151610aec81615956565b60008060008060008060c0878903121561476a578182fd5b863561477581615956565b9550602087013561478581615956565b945060408701356147958161596e565b935060608701356147a581615991565b9598949750929560808101359460a0909101359350915050565b600080600080600060a086880312156147d6578283fd5b85516147e181615956565b60208701519095506001600160401b038111156147fc578384fd5b614808888289016146cd565b94505060408601516148198161596e565b606087015190935061482a8161596e565b608087015190925061483b81615991565b809150509295509295909350565b6000806040838503121561485b578182fd5b823561486681615956565b9150602083013561487681615956565b809150509250929050565b600080600060608486031215614895578081fd5b83356148a081615956565b925060208401356148b081615956565b929592945050506040919091013590565b600080600080600080600060e0888a0312156148db578485fd5b87356148e681615956565b965060208801356148f681615956565b95506040880135945060608801359350608088013561491481615991565b9699959850939692959460a0840135945060c09093013592915050565b600080600060608486031215614945578081fd5b833561495081615956565b925060208401356149608161596e565b915060408401356149708161596e565b809150509250925092565b60008060006060848603121561498f578081fd5b833561499a81615956565b925060208401356148b08161596e565b600080604083850312156149bc578182fd5b82356149c781615956565b946020939093013593505050565b600080600080600080608087890312156149ed578384fd5b86356001600160401b0380821115614a03578586fd5b614a0f8a838b0161461e565b90985096506020890135915080821115614a27578586fd5b50614a3489828a0161461e565b9095509350506040870135614a4881615956565b91506060870135614a5881615956565b809150509295509295509295565b60008060008060008060608789031215614a7e578384fd5b86356001600160401b0380821115614a94578586fd5b614aa08a838b0161461e565b90985096506020890135915080821115614ab8578586fd5b614ac48a838b0161461e565b90965094506040890135915080821115614adc578384fd5b50614ae989828a0161461e565b979a9699509497509295939492505050565b60008060408385031215614b0d578182fd5b8251614b188161596e565b6020939093015192949293505050565b600080600060608486031215614b3c578081fd5b8335614b478161596e565b95602085013595506040909401359392505050565b60008060208385031215614b6e578182fd5b82356001600160401b0380821115614b84578384fd5b818501915085601f830112614b97578384fd5b813581811115614ba5578485fd5b866020828501011115614bb6578485fd5b60209290920196919550909350505050565b60008060008060808587031215614bdd578182fd5b8451614be881615956565b6020860151909450614bf981615956565b6040860151606090960151949790965092505050565b600080600060608486031215614c23578081fd5b8335614c2e81615956565b92506020848101356001600160401b0380821115614c4a578384fd5b818701915087601f830112614c5d578384fd5b8135614c6b61467d826158dc565b81815284810190848601868402860187018c1015614c87578788fd5b8795505b83861015614cb157614c9d8c82614613565b835260019590950194918601918601614c8b565b50965050506040870135925080831115614cc9578384fd5b5050614cd78682870161465f565b9150509250925092565b60008060008060808587031215614cf6578182fd5b8435614d0181615956565b93506020850135614d1181615956565b92506040850135614d2181615956565b915060608501356001600160401b03811115614d3b578182fd5b8501601f81018713614d4b578182fd5b8035614d5961467d826158fb565b818152886020838501011115614d6d578384fd5b81602084016020830137908101602001929092525092959194509250565b600060208284031215614d9c578081fd5b5035919050565b60008060408385031215614db5578182fd5b82359150602083013561487681615956565b600080600060608486031215614ddb578081fd5b83359250602084013561496081615956565b600060208284031215614dfe578081fd5b81516001600160401b03811115614e13578182fd5b610a93848285016146cd565b600060408284031215614e30578081fd5b614e3a60406158b6565b8251614e458161597c565b81526020830151614e558161597c565b60208201529392505050565b600060208284031215614e72578081fd5b5051919050565b60008060408385031215614e8b578182fd5b505080516020909101519092909150565b600060208284031215614ead578081fd5b8135610aec81615991565b600060208284031215614ec9578081fd5b8151610aec81615991565b60008151808452614eec81602086016020860161592a565b601f01601f19169290920160200192915050565b60008251614f1281846020870161592a565b9190910192915050565b60008351614f2e81846020880161592a565b9190910191825250602001919050565b60008451614f5081846020890161592a565b91909101928352506020820152604001919050565b600071025b0b9b4349026b2b234bab6902934b9b5960751b82528451614f9281601285016020890161592a565b602f60f81b6012918401918201528451614fb381601384016020890161592a565b602d60f81b601392909101918201528351614fd581601484016020880161592a565b0160140195945050505050565b6000616b6d60f01b82528451614fff81600285016020890161592a565b602f60f81b600291840191820152845161502081600384016020890161592a565b602d60f81b60039290910191820152835161504281600484016020880161592a565b0160040195945050505050565b6001600160a01b0391909116815260200190565b6001600160a01b039687168152949095166020850152911515604084015260ff166060830152608082015260a081019190915260c00190565b901515815260200190565b9115158252602082015260400190565b90815260200190565b9586526001600160a01b0394851660208701529290931660408501526060840152608083019190915260a082015260c00190565b92835260208301919091526001600160a01b0316604082015260600190565b93845260ff9290921660208401526040830152606082015260800190565b600060208252610aec6020830184614ed4565b6000602080830181845282855460018082166000811461516b5760018114615189576151c1565b60028304607f16855260ff19831660408901526060880193506151c1565b600283048086526151998a61591e565b885b828110156151b75781548b82016040015290840190880161519b565b8a01604001955050505b5091979650505050505050565b6001600160a01b0392831681529116602082015260400190565b6001600160a01b039485168152928416602084015292166040820152606081019190915260800190565b6001600160a01b03958616815293851660208501529190931660408301526060820192909252608081019190915260a00190565b6000608082016001600160a01b0380881684526020818816818601526080604086015282875180855260a0870191508289019450855b8181101561529a57855185168352948301949183019160010161527c565b50508581036060870152865180825290820193509150808601845b838110156152d1578151855293820193908201906001016152b5565b50929998505050505050505050565b6001600160a01b039390931683526001600160801b039190911660208301521515604082015260600190565b6001600160a01b0393909316835260208301919091521515604082015260600190565b93845260208401929092526001600160401b03166040830152606082015260800190565b60208082526015908201527f426f72696e674d6174683a20556e646572666c6f770000000000000000000000604082015260600190565b6020808252601e908201527f4b61736869506169723a20616c726561647920696e697469616c697a65640000604082015260600190565b60208082526016908201527f45524332303a206e6f207a65726f206164647265737300000000000000000000604082015260600190565b6020808252601a908201527f4b61736869506169723a20616c6c2061726520736f6c76656e74000000000000604082015260600190565b60208082526015908201527f4f776e61626c653a207a65726f20616464726573730000000000000000000000604082015260600190565b60208082526016908201527f4b61736869506169723a2063616c6c206661696c656400000000000000000000604082015260600190565b6020808252601c908201527f426f72696e674d6174683a2075696e74313238204f766572666c6f7700000000604082015260600190565b60208082526018908201527f426f72696e674d6174683a20416464204f766572666c6f770000000000000000604082015260600190565b60208082526013908201527f4b61736869506169723a20626164207061697200000000000000000000000000604082015260600190565b60208082526018908201527f45524332303a20616c6c6f77616e636520746f6f206c6f770000000000000000604082015260600190565b60208082526015908201527f4b61736869506169723a2063616e27742063616c6c0000000000000000000000604082015260600190565b6020808252600e908201526d115490cc8c0e88115e1c1a5c995960921b604082015260600190565b60208082526019908201527f4b61736869506169723a207573657220696e736f6c76656e7400000000000000604082015260600190565b6020808252818101527f4f776e61626c653a2063616c6c6572206973206e6f7420746865206f776e6572604082015260600190565b6020808252818101527f4f776e61626c653a2063616c6c657220213d2070656e64696e67206f776e6572604082015260600190565b60208082526018908201527f45524332303a204f776e65722063616e6e6f7420626520300000000000000000604082015260600190565b60208082526014908201527f4b617368693a2062656c6f77206d696e696d756d000000000000000000000000604082015260600190565b60208082526016908201527f45524332303a2062616c616e636520746f6f206c6f7700000000000000000000604082015260600190565b60208082526018908201527f4b61736869506169723a20536b696d20746f6f206d7563680000000000000000604082015260600190565b60208082526018908201527f426f72696e674d6174683a204d756c204f766572666c6f770000000000000000604082015260600190565b60208082526016908201527f4b61736869506169723a2072617465206e6f74206f6b00000000000000000000604082015260600190565b60208082526018908201527f45524332303a20496e76616c6964205369676e61747572650000000000000000604082015260600190565b6001600160801b0392831681529116602082015260400190565b918252602082015260400190565b9283526020830191909152604082015260600190565b6001600160401b0393841681529190921660208201526001600160801b03909116604082015260600190565b60ff91909116815260200190565b6000808335601e19843603018112615888578283fd5b8301803591506001600160401b038211156158a1578283fd5b602001915036819003821315610eb957600080fd5b6040518181016001600160401b03811182821017156158d457600080fd5b604052919050565b60006001600160401b038211156158f1578081fd5b5060209081020190565b60006001600160401b03821115615910578081fd5b50601f01601f191660200190565b60009081526020902090565b60005b8381101561594557818101518382015260200161592d565b838111156141695750506000910152565b6001600160a01b038116811461596b57600080fd5b50565b801515811461596b57600080fd5b6001600160801b038116811461596b57600080fd5b60ff8116811461596b57600080fdfeddf252ad1be2c89b69c2b068fc378daa952ba7f163c4a11628f55a4df523b3efa26469706673582212203d84c3de42bf97d01d2978db1be3f0561cc43a94d92088b038b45f6efb3a7a0164736f6c634300060c0033"
}