{
  "address": "0xe788aBab092c165fAb7Ded7b7D2962abc808eE6C",
  "abi": [
    {
      "inputs": [],
      "stateMutability": "nonpayable",
      "type": "constructor"
    },
    {
      "inputs": [],
      "name": "DEGENBOX",
      "outputs": [
        {
          "internalType": "contract IBentoBoxV1",
          "name": "",
          "type": "address"
        }
      ],
      "stateMutability": "view",
      "type": "function"
    },
    {
      "inputs": [],
      "name": "MIM",
      "outputs": [
        {
          "internalType": "contract IERC20",
          "name": "",
          "type": "address"
        }
      ],
      "stateMutability": "view",
      "type": "function"
    },
    {
      "inputs": [],
      "name": "MIMFTM",
      "outputs": [
        {
          "internalType": "contract IUniswapV2Pair",
          "name": "",
          "type": "address"
        }
      ],
      "stateMutability": "view",
      "type": "function"
    },
    {
      "inputs": [],
      "name": "ROUTER",
      "outputs": [
        {
          "internalType": "contract IUniswapV2Router01",
          "name": "",
          "type": "address"
        }
      ],
      "stateMutability": "view",
      "type": "function"
    },
    {
      "inputs": [],
      "name": "WFTM",
      "outputs": [
        {
          "internalType": "contract IERC20",
          "name": "",
          "type": "address"
        }
      ],
      "stateMutability": "view",
      "type": "function"
    },
    {
      "inputs": [
        {
          "internalType": "address",
          "name": "recipient",
          "type": "address"
        },
        {
          "internalType": "uint256",
          "name": "shareToMin",
          "type": "uint256"
        },
        {
          "internalType": "uint256",
          "name": "shareFrom",
          "type": "uint256"
        }
      ],
      "name": "swap",
      "outputs": [
        {
          "internalType": "uint256",
          "name": "extraShare",
          "type": "uint256"
        },
        {
          "internalType": "uint256",
          "name": "shareReturned",
          "type": "uint256"
        }
      ],
      "stateMutability": "nonpayable",
      "type": "function"
    }
  ],
  "transactionHash": "0x6045fd00f5f51e2811d552da3080a4d868745fb4c40919dcbfe73d7583e16457",
  "args": [],
  "solcInputHash": "9bbe32d4c141cfe33b8896eb39dc1f89",
  "bytecode": "0x60806040523480156200001157600080fd5b50736f86e65b255c9111109d2d2325ca2dfc82456efc73ffffffffffffffffffffffffffffffffffffffff1663095ea7b37374a0bca2eeedf8883cb91e37e9ff49430f20a6167fffffffffffffffffffffffffffffffffffffffffffffffffffffffffffffffff6040518363ffffffff1660e01b81526004016200009792919062000311565b602060405180830381600087803b158015620000b257600080fd5b505af1158015620000c7573d6000803e3d6000fd5b505050506040513d601f19601f82011682018060405250810190620000ed9190620002c3565b507382f0b8b456c1a451378467398982d4834b6829c173ffffffffffffffffffffffffffffffffffffffff1663095ea7b373f491e7b69e4244ad4002bc14e878a34207e38c297fffffffffffffffffffffffffffffffffffffffffffffffffffffffffffffffff6040518363ffffffff1660e01b81526004016200017392919062000311565b602060405180830381600087803b1580156200018e57600080fd5b505af1158015620001a3573d6000803e3d6000fd5b505050506040513d601f19601f82011682018060405250810190620001c99190620002c3565b507321be370d5312f44cb42ce377bc9b8a0cef1a4c8373ffffffffffffffffffffffffffffffffffffffff1663095ea7b373f491e7b69e4244ad4002bc14e878a34207e38c297fffffffffffffffffffffffffffffffffffffffffffffffffffffffffffffffff6040518363ffffffff1660e01b81526004016200024f92919062000311565b602060405180830381600087803b1580156200026a57600080fd5b505af11580156200027f573d6000803e3d6000fd5b505050506040513d601f19601f82011682018060405250810190620002a59190620002c3565b50620003a2565b600081519050620002bd8162000388565b92915050565b600060208284031215620002d657600080fd5b6000620002e684828501620002ac565b91505092915050565b620002fa816200033e565b82525050565b6200030b816200037e565b82525050565b6000604082019050620003286000830185620002ef565b62000337602083018462000300565b9392505050565b60006200034b826200035e565b9050919050565b60008115159050919050565b600073ffffffffffffffffffffffffffffffffffffffff82169050919050565b6000819050919050565b620003938162000352565b81146200039f57600080fd5b50565b6112e280620003b26000396000f3fe608060405234801561001057600080fd5b50600436106100625760003560e01c806321dbe8761461006757806332fe7b261461008557806358d9e818146100a35780639f1d0f59146100c1578063daec383d146100f2578063e0bc66b814610110575b600080fd5b61006f61012e565b60405161007c9190610e22565b60405180910390f35b61008d610146565b60405161009a9190610efe565b60405180910390f35b6100ab61015e565b6040516100b89190610ee3565b60405180910390f35b6100db60048036038101906100d69190610b2f565b610176565b6040516100e9929190610f63565b60405180910390f35b6100fa6107f3565b6040516101079190610e22565b60405180910390f35b61011861080b565b6040516101259190610e07565b60405180910390f35b7321be370d5312f44cb42ce377bc9b8a0cef1a4c8381565b73f491e7b69e4244ad4002bc14e878a34207e38c2981565b736f86e65b255c9111109d2d2325ca2dfc82456efc81565b60008060007374a0bca2eeedf8883cb91e37e9ff49430f20a61673ffffffffffffffffffffffffffffffffffffffff166397da6d307382f0b8b456c1a451378467398982d4834b6829c130306000896040518663ffffffff1660e01b81526004016101e5959493929190610e3d565b6040805180830381600087803b1580156101fe57600080fd5b505af1158015610212573d6000803e3d6000fd5b505050506040513d601f19601f820116820180604052508101906102369190610c1f565b509050600080736f86e65b255c9111109d2d2325ca2dfc82456efc73ffffffffffffffffffffffffffffffffffffffff16630902f1ac6040518163ffffffff1660e01b815260040160606040518083038186803b15801561029657600080fd5b505afa1580156102aa573d6000803e3d6000fd5b505050506040513d601f19601f820116820180604052508101906102ce9190610ba7565b506dffffffffffffffffffffffffffff1691506dffffffffffffffffffffffffffff16915060006102ff8285610823565b9050600061030e82848661088d565b90507382f0b8b456c1a451378467398982d4834b6829c173ffffffffffffffffffffffffffffffffffffffff1663a9059cbb736f86e65b255c9111109d2d2325ca2dfc82456efc846040518363ffffffff1660e01b8152600401610373929190610dde565b602060405180830381600087803b15801561038d57600080fd5b505af11580156103a1573d6000803e3d6000fd5b505050506040513d601f19601f820116820180604052508101906103c59190610b7e565b50736f86e65b255c9111109d2d2325ca2dfc82456efc73ffffffffffffffffffffffffffffffffffffffff1663022c0d9f826000306040518463ffffffff1660e01b815260040161041893929190610f19565b600060405180830381600087803b15801561043257600080fd5b505af1158015610446573d6000803e3d6000fd5b5050505073f491e7b69e4244ad4002bc14e878a34207e38c2973ffffffffffffffffffffffffffffffffffffffff1663e8e337007382f0b8b456c1a451378467398982d4834b6829c17321be370d5312f44cb42ce377bc9b8a0cef1a4c837382f0b8b456c1a451378467398982d4834b6829c173ffffffffffffffffffffffffffffffffffffffff166370a08231306040518263ffffffff1660e01b81526004016104f19190610d45565b60206040518083038186803b15801561050957600080fd5b505afa15801561051d573d6000803e3d6000fd5b505050506040513d601f19601f820116820180604052508101906105419190610bf6565b7321be370d5312f44cb42ce377bc9b8a0cef1a4c8373ffffffffffffffffffffffffffffffffffffffff166370a08231306040518263ffffffff1660e01b815260040161058e9190610d45565b60206040518083038186803b1580156105a657600080fd5b505afa1580156105ba573d6000803e3d6000fd5b505050506040513d601f19601f820116820180604052508101906105de9190610bf6565b600180307ff0000000000000000000000000000000000000000000000000000000000000006040518963ffffffff1660e01b8152600401610626989796959493929190610d60565b606060405180830381600087803b15801561064057600080fd5b505af1158015610654573d6000803e3d6000fd5b505050506040513d601f19601f820116820180604052508101906106789190610c5b565b5050507374a0bca2eeedf8883cb91e37e9ff49430f20a61673ffffffffffffffffffffffffffffffffffffffff166302b9446c736f86e65b255c9111109d2d2325ca2dfc82456efc308d736f86e65b255c9111109d2d2325ca2dfc82456efc73ffffffffffffffffffffffffffffffffffffffff166370a08231306040518263ffffffff1660e01b815260040161070f9190610d45565b60206040518083038186803b15801561072757600080fd5b505afa15801561073b573d6000803e3d6000fd5b505050506040513d601f19601f8201168201806040525081019061075f9190610bf6565b60006040518663ffffffff1660e01b8152600401610781959493929190610e90565b6040805180830381600087803b15801561079a57600080fd5b505af11580156107ae573d6000803e3d6000fd5b505050506040513d601f19601f820116820180604052508101906107d29190610c1f565b90508096505088866107e4919061107e565b96505050505050935093915050565b7382f0b8b456c1a451378467398982d4834b6829c181565b7374a0bca2eeedf8883cb91e37e9ff49430f20a61681565b60006107ca6107cd846108369190611024565b610871623cda29866108489190611024565b623cda20866108579190611024565b6108619190610f9d565b8661086c9190611024565b6108e5565b61087b919061107e565b6108859190610ff3565b905092915050565b6000806103e58561089e9190611024565b9050600083826108ae9190611024565b90506000826103e8876108c19190611024565b6108cb9190610f9d565b905080826108d99190610ff3565b93505050509392505050565b6000808214156108f85760009050610aac565b6000829050600060019050700100000000000000000000000000000000821061092a57608082901c9150604081901b90505b68010000000000000000821061094957604082901c9150602081901b90505b640100000000821061096457602082901c9150601081901b90505b62010000821061097d57601082901c9150600881901b90505b610100821061099557600882901c9150600481901b90505b601082106109ac57600482901c9150600281901b90505b600882106109bc57600181901b90505b600181856109ca9190610ff3565b826109d59190610f9d565b901c9050600181856109e79190610ff3565b826109f29190610f9d565b901c905060018185610a049190610ff3565b82610a0f9190610f9d565b901c905060018185610a219190610ff3565b82610a2c9190610f9d565b901c905060018185610a3e9190610ff3565b82610a499190610f9d565b901c905060018185610a5b9190610ff3565b82610a669190610f9d565b901c905060018185610a789190610ff3565b82610a839190610f9d565b901c905060008185610a959190610ff3565b9050808210610aa45780610aa6565b815b93505050505b919050565b600081359050610ac081611239565b92915050565b600081519050610ad581611250565b92915050565b600081519050610aea81611267565b92915050565b600081359050610aff8161127e565b92915050565b600081519050610b148161127e565b92915050565b600081519050610b2981611295565b92915050565b600080600060608486031215610b4457600080fd5b6000610b5286828701610ab1565b9350506020610b6386828701610af0565b9250506040610b7486828701610af0565b9150509250925092565b600060208284031215610b9057600080fd5b6000610b9e84828501610ac6565b91505092915050565b600080600060608486031215610bbc57600080fd5b6000610bca86828701610adb565b9350506020610bdb86828701610adb565b9250506040610bec86828701610b1a565b9150509250925092565b600060208284031215610c0857600080fd5b6000610c1684828501610b05565b91505092915050565b60008060408385031215610c3257600080fd5b6000610c4085828601610b05565b9250506020610c5185828601610b05565b9150509250929050565b600080600060608486031215610c7057600080fd5b6000610c7e86828701610b05565b9350506020610c8f86828701610b05565b9250506040610ca086828701610b05565b9150509250925092565b610cb3816110b2565b82525050565b610cc281611124565b82525050565b610cd181611148565b82525050565b610ce08161116c565b82525050565b610cef81611190565b82525050565b610cfe816111b4565b82525050565b610d0d816111c6565b82525050565b6000610d20600083610f8c565b9150610d2b82611236565b600082019050919050565b610d3f8161110a565b82525050565b6000602082019050610d5a6000830184610caa565b92915050565b600061010082019050610d76600083018b610caa565b610d83602083018a610caa565b610d906040830189610d36565b610d9d6060830188610d36565b610daa6080830187610d04565b610db760a0830186610d04565b610dc460c0830185610caa565b610dd160e0830184610d36565b9998505050505050505050565b6000604082019050610df36000830185610caa565b610e006020830184610d36565b9392505050565b6000602082019050610e1c6000830184610cb9565b92915050565b6000602082019050610e376000830184610cc8565b92915050565b600060a082019050610e526000830188610cc8565b610e5f6020830187610caa565b610e6c6040830186610caa565b610e796060830185610cf5565b610e866080830184610d36565b9695505050505050565b600060a082019050610ea56000830188610cc8565b610eb26020830187610caa565b610ebf6040830186610caa565b610ecc6060830185610d36565b610ed96080830184610cf5565b9695505050505050565b6000602082019050610ef86000830184610cd7565b92915050565b6000602082019050610f136000830184610ce6565b92915050565b6000608082019050610f2e6000830186610d36565b610f3b6020830185610cf5565b610f486040830184610caa565b8181036060830152610f5981610d13565b9050949350505050565b6000604082019050610f786000830185610d36565b610f856020830184610d36565b9392505050565b600082825260208201905092915050565b6000610fa88261110a565b9150610fb38361110a565b9250827fffffffffffffffffffffffffffffffffffffffffffffffffffffffffffffffff03821115610fe857610fe76111d8565b5b828201905092915050565b6000610ffe8261110a565b91506110098361110a565b92508261101957611018611207565b5b828204905092915050565b600061102f8261110a565b915061103a8361110a565b9250817fffffffffffffffffffffffffffffffffffffffffffffffffffffffffffffffff0483118215151615611073576110726111d8565b5b828202905092915050565b60006110898261110a565b91506110948361110a565b9250828210156110a7576110a66111d8565b5b828203905092915050565b60006110bd826110ea565b9050919050565b60008115159050919050565b60006dffffffffffffffffffffffffffff82169050919050565b600073ffffffffffffffffffffffffffffffffffffffff82169050919050565b6000819050919050565b600063ffffffff82169050919050565b600061112f82611136565b9050919050565b6000611141826110ea565b9050919050565b60006111538261115a565b9050919050565b6000611165826110ea565b9050919050565b60006111778261117e565b9050919050565b6000611189826110ea565b9050919050565b600061119b826111a2565b9050919050565b60006111ad826110ea565b9050919050565b60006111bf8261110a565b9050919050565b60006111d18261110a565b9050919050565b7f4e487b7100000000000000000000000000000000000000000000000000000000600052601160045260246000fd5b7f4e487b7100000000000000000000000000000000000000000000000000000000600052601260045260246000fd5b50565b611242816110b2565b811461124d57600080fd5b50565b611259816110c4565b811461126457600080fd5b50565b611270816110d0565b811461127b57600080fd5b50565b6112878161110a565b811461129257600080fd5b50565b61129e81611114565b81146112a957600080fd5b5056fea2646970667358221220eda9afa707e04223e86fe0565963fb5a273a3b0af8ea7dc7449cf772ca8a7e9d64736f6c63430008040033",
  "devdoc": {
    "kind": "dev",
    "methods": {},
    "version": 1
  },
  "userdoc": {
    "kind": "user",
    "methods": {},
    "version": 1
  },
  "storageLayout": {
    "storage": [],
    "types": null
  }
}