{
  "address": "0xd794F13B9A494118cC83ec8880D22a44f1A843cF",
  "abi": [
    {
      "inputs": [],
      "name": "FTMUSD",
      "outputs": [
        {
          "internalType": "contract AggregatorV3Interface",
          "name": "",
          "type": "address"
        }
      ],
      "stateMutability": "view",
      "type": "function"
    },
    {
      "inputs": [],
      "name": "MIMUSD",
      "outputs": [
        {
          "internalType": "contract AggregatorV3Interface",
          "name": "",
          "type": "address"
        }
      ],
      "stateMutability": "view",
      "type": "function"
    },
    {
      "inputs": [],
      "name": "decimals",
      "outputs": [
        {
          "internalType": "uint8",
          "name": "",
          "type": "uint8"
        }
      ],
      "stateMutability": "pure",
      "type": "function"
    },
    {
      "inputs": [],
      "name": "latestRoundData",
      "outputs": [
        {
          "internalType": "uint80",
          "name": "roundId",
          "type": "uint80"
        },
        {
          "internalType": "int256",
          "name": "answer",
          "type": "int256"
        },
        {
          "internalType": "uint256",
          "name": "startedAt",
          "type": "uint256"
        },
        {
          "internalType": "uint256",
          "name": "updatedAt",
          "type": "uint256"
        },
        {
          "internalType": "uint80",
          "name": "answeredInRound",
          "type": "uint80"
        }
      ],
      "stateMutability": "view",
      "type": "function"
    }
  ],
  "transactionHash": "0x728520035b965dd76cda0d201c6664b21ddf5087f8bf0a877ed82cd3e9eec4b8",
  "args": [],
  "solcInputHash": "62dee3776bab877217cf9d4c4a3e93fb",
  "bytecode": "0x608060405234801561001057600080fd5b506106f0806100206000396000f3fe608060405234801561001057600080fd5b506004361061004c5760003560e01c8063313ce5671461005157806344fce6e81461006f57806390b4ea731461008d578063feaf968c146100ab575b600080fd5b6100596100cd565b6040516100669190610278565b60405180910390f35b6100776100d6565b6040516100849190610312565b60405180910390f35b6100956100ee565b6040516100a29190610312565b60405180910390f35b6100b3610106565b6040516100c4959493929190610384565b60405180910390f35b60006012905090565b73f4766552d15ae4d256ad41b6cf2933482b0680dc81565b7328de48d3291f31f839274b8d82691c77df1c5ced81565b6000806000806000807328de48d3291f31f839274b8d82691c77df1c5ced73ffffffffffffffffffffffffffffffffffffffff1663feaf968c6040518163ffffffff1660e01b815260040160a060405180830381865afa15801561016e573d6000803e3d6000fd5b505050506040513d601f19601f820116820180604052508101906101929190610460565b505050915050600073f4766552d15ae4d256ad41b6cf2933482b0680dc73ffffffffffffffffffffffffffffffffffffffff1663feaf968c6040518163ffffffff1660e01b815260040160a060405180830381865afa1580156101f9573d6000803e3d6000fd5b505050506040513d601f19601f8201168201806040525081019061021d9190610460565b505050915050600081670de0b6b3a76400008461023a919061050a565b6102449190610650565b60008060009650965096509650965050509091929394565b600060ff82169050919050565b6102728161025c565b82525050565b600060208201905061028d6000830184610269565b92915050565b600073ffffffffffffffffffffffffffffffffffffffff82169050919050565b6000819050919050565b60006102d86102d36102ce84610293565b6102b3565b610293565b9050919050565b60006102ea826102bd565b9050919050565b60006102fc826102df565b9050919050565b61030c816102f1565b82525050565b60006020820190506103276000830184610303565b92915050565b600069ffffffffffffffffffff82169050919050565b61034c8161032d565b82525050565b6000819050919050565b61036581610352565b82525050565b6000819050919050565b61037e8161036b565b82525050565b600060a0820190506103996000830188610343565b6103a6602083018761035c565b6103b36040830186610375565b6103c06060830185610375565b6103cd6080830184610343565b9695505050505050565b600080fd5b6103e58161032d565b81146103f057600080fd5b50565b600081519050610402816103dc565b92915050565b61041181610352565b811461041c57600080fd5b50565b60008151905061042e81610408565b92915050565b61043d8161036b565b811461044857600080fd5b50565b60008151905061045a81610434565b92915050565b600080600080600060a0868803121561047c5761047b6103d7565b5b600061048a888289016103f3565b955050602061049b8882890161041f565b94505060406104ac8882890161044b565b93505060606104bd8882890161044b565b92505060806104ce888289016103f3565b9150509295509295909350565b7f4e487b7100000000000000000000000000000000000000000000000000000000600052601160045260246000fd5b600061051582610352565b915061052083610352565b9250827f7fffffffffffffffffffffffffffffffffffffffffffffffffffffffffffffff048211600084136000841316161561055f5761055e6104db565b5b817f8000000000000000000000000000000000000000000000000000000000000000058312600084126000841316161561059c5761059b6104db565b5b827f800000000000000000000000000000000000000000000000000000000000000005821260008413600084121616156105d9576105d86104db565b5b827f7fffffffffffffffffffffffffffffffffffffffffffffffffffffffffffffff0582126000841260008412161615610616576106156104db565b5b828202905092915050565b7f4e487b7100000000000000000000000000000000000000000000000000000000600052601260045260246000fd5b600061065b82610352565b915061066683610352565b92508261067657610675610621565b5b600160000383147f8000000000000000000000000000000000000000000000000000000000000000831416156106af576106ae6104db565b5b82820590509291505056fea2646970667358221220228be086d1bbec37afdc36a258160ec2069287b1251a29e2abd28f49f9b51c7d64736f6c634300080a0033",
  "devdoc": {
    "author": "0xCalibur",
    "kind": "dev",
    "methods": {},
    "title": "MimFTMOracleV1",
    "version": 1
  },
  "userdoc": {
    "kind": "user",
    "methods": {},
    "notice": "Oracle used for getting the price of 1 MIM in AVAX using Chainlink",
    "version": 1
  },
  "storageLayout": {
    "storage": [],
    "types": null
  }
}