{
  "address": "0x1E217d3cA2a19f2cB0F9f12a65b40f335286758E",
  "abi": [
    {
      "inputs": [
        {
          "internalType": "contract IBentoBoxV1",
          "name": "_bentoBox",
          "type": "address"
        }
      ],
      "stateMutability": "nonpayable",
      "type": "constructor"
    },
    {
      "inputs": [],
      "name": "FUSDT",
      "outputs": [
        {
          "internalType": "contract IERC20",
          "name": "",
          "type": "address"
        }
      ],
      "stateMutability": "view",
      "type": "function"
    },
    {
      "inputs": [],
      "name": "LP",
      "outputs": [
        {
          "internalType": "contract IUniswapV2Pair",
          "name": "",
          "type": "address"
        }
      ],
      "stateMutability": "view",
      "type": "function"
    },
    {
      "inputs": [],
      "name": "MIM",
      "outputs": [
        {
          "internalType": "contract IERC20",
          "name": "",
          "type": "address"
        }
      ],
      "stateMutability": "view",
      "type": "function"
    },
    {
      "inputs": [],
      "name": "MIM3POOL",
      "outputs": [
        {
          "internalType": "contract CurvePool",
          "name": "",
          "type": "address"
        }
      ],
      "stateMutability": "view",
      "type": "function"
    },
    {
      "inputs": [],
      "name": "USDC",
      "outputs": [
        {
          "internalType": "contract IERC20",
          "name": "",
          "type": "address"
        }
      ],
      "stateMutability": "view",
      "type": "function"
    },
    {
      "inputs": [],
      "name": "bentoBox",
      "outputs": [
        {
          "internalType": "contract IBentoBoxV1",
          "name": "",
          "type": "address"
        }
      ],
      "stateMutability": "view",
      "type": "function"
    },
    {
      "inputs": [
        {
          "internalType": "contract IERC20",
          "name": "",
          "type": "address"
        },
        {
          "internalType": "contract IERC20",
          "name": "",
          "type": "address"
        },
        {
          "internalType": "address",
          "name": "recipient",
          "type": "address"
        },
        {
          "internalType": "uint256",
          "name": "shareToMin",
          "type": "uint256"
        },
        {
          "internalType": "uint256",
          "name": "shareFrom",
          "type": "uint256"
        }
      ],
      "name": "swap",
      "outputs": [
        {
          "internalType": "uint256",
          "name": "extraShare",
          "type": "uint256"
        },
        {
          "internalType": "uint256",
          "name": "shareReturned",
          "type": "uint256"
        }
      ],
      "stateMutability": "nonpayable",
      "type": "function"
    },
    {
      "inputs": [
        {
          "internalType": "contract IERC20",
          "name": "",
          "type": "address"
        },
        {
          "internalType": "contract IERC20",
          "name": "",
          "type": "address"
        },
        {
          "internalType": "address",
          "name": "",
          "type": "address"
        },
        {
          "internalType": "address",
          "name": "",
          "type": "address"
        },
        {
          "internalType": "uint256",
          "name": "",
          "type": "uint256"
        },
        {
          "internalType": "uint256",
          "name": "",
          "type": "uint256"
        }
      ],
      "name": "swapExact",
      "outputs": [
        {
          "internalType": "uint256",
          "name": "shareUsed",
          "type": "uint256"
        },
        {
          "internalType": "uint256",
          "name": "shareReturned",
          "type": "uint256"
        }
      ],
      "stateMutability": "pure",
      "type": "function"
    }
  ],
  "transactionHash": "0x611192b2aee335f6557986a8704d61b451458e81c1b4ebb9e39213330c372173",
  "args": [
    "0xc7a161Cfd0e133d289B13692b636B8e8B5CD8d8c"
  ],
  "numDeployments": 1,
  "solcInputHash": "3cedbfc58fe4754231958049c0f01daf",
  "bytecode": "0x60a060405234801561001057600080fd5b5060405161096438038061096483398101604081905261002f91610166565b6001600160a01b03811660805260405163095ea7b360e01b8152732dd7c9371965472e5a5fd28fbe165007c61439e1600482015260001960248201527304068da6c83afcfa0e13ba15a6696662335d5b759063095ea7b3906044016020604051808303816000875af11580156100a9573d6000803e3d6000fd5b505050506040513d601f19601f820116820180604052508101906100cd9190610196565b5060405163095ea7b360e01b8152732dd7c9371965472e5a5fd28fbe165007c61439e16004820152600019602482015273049d68029688eabf473097a2fc38ef61633a3c7a9063095ea7b3906044016020604051808303816000875af115801561013b573d6000803e3d6000fd5b505050506040513d601f19601f8201168201806040525081019061015f9190610196565b50506101b8565b60006020828403121561017857600080fd5b81516001600160a01b038116811461018f57600080fd5b9392505050565b6000602082840312156101a857600080fd5b8151801515811461018f57600080fd5b6080516107756101ef60003960008181610116015281816101ea0152818161038501528181610445015261050901526107756000f3fe608060405234801561001057600080fd5b50600436106100885760003560e01c806389a302711161005b57806389a3027114610138578063b6fccf8a14610153578063daec383d1461016e578063e343fe121461018957600080fd5b806322a88c091461008d57806323c35834146100c55780634622be90146100e05780636b2ace8714610111575b600080fd5b6100a8732dd7c9371965472e5a5fd28fbe165007c61439e181565b6040516001600160a01b0390911681526020015b60405180910390f35b6100a873049d68029688eabf473097a2fc38ef61633a3c7a81565b6100fc6100ee3660046105cb565b600080965096945050505050565b604080519283526020830191909152016100bc565b6100a87f000000000000000000000000000000000000000000000000000000000000000081565b6100a87304068da6c83afcfa0e13ba15a6696662335d5b7581565b6100a873e7f86cef8fef60ce5050899d1f8e465c00d04a7981565b6100a87382f0b8b456c1a451378467398982d4834b6829c181565b6100fc610197366004610639565b60405163097da6d360e41b815273e7f86cef8fef60ce5050899d1f8e465c00d04a796004820152306024820181905260448201526000606482018190526084820183905290819081906001600160a01b037f000000000000000000000000000000000000000000000000000000000000000016906397da6d309060a40160408051808303816000875af1158015610232573d6000803e3d6000fd5b505050506040513d601f19601f820116820180604052508101906102569190610694565b5060405163a9059cbb60e01b815273e7f86cef8fef60ce5050899d1f8e465c00d04a79600482018190526024820183905291925063a9059cbb906044016020604051808303816000875af11580156102b2573d6000803e3d6000fd5b505050506040513d601f19601f820116820180604052508101906102d691906106b8565b5060405163226bf2d160e21b8152306004820152600090819073e7f86cef8fef60ce5050899d1f8e465c00d04a79906389afcb449060240160408051808303816000875af115801561032c573d6000803e3d6000fd5b505050506040513d601f19601f820116820180604052508101906103509190610694565b60405163ddc1f59d60e01b81526001600482015260006024820181905260448201839052606482018190526001600160a01b037f0000000000000000000000000000000000000000000000000000000000000000166084830152929450909250732dd7c9371965472e5a5fd28fbe165007c61439e19063ddc1f59d9060a4016020604051808303816000875af11580156103ee573d6000803e3d6000fd5b505050506040513d601f19601f8201168201806040525081019061041291906106e1565b60405163ddc1f59d60e01b8152600260048201526000602482018190526044820186905260648201526001600160a01b037f0000000000000000000000000000000000000000000000000000000000000000166084820152909150732dd7c9371965472e5a5fd28fbe165007c61439e19063ddc1f59d9060a4016020604051808303816000875af11580156104ab573d6000803e3d6000fd5b505050506040513d601f19601f820116820180604052508101906104cf91906106e1565b6104d99082610710565b60405162ae511b60e21b81527382f0b8b456c1a451378467398982d4834b6829c160048201526001600160a01b037f0000000000000000000000000000000000000000000000000000000000000000811660248301819052908c16604483015260648201839052600060848301529192506302b9446c9060a40160408051808303816000875af1158015610571573d6000803e3d6000fd5b505050506040513d601f19601f820116820180604052508101906105959190610694565b95506105a390508886610728565b9550505050509550959350505050565b6001600160a01b03811681146105c857600080fd5b50565b60008060008060008060c087890312156105e457600080fd5b86356105ef816105b3565b955060208701356105ff816105b3565b9450604087013561060f816105b3565b9350606087013561061f816105b3565b9598949750929560808101359460a0909101359350915050565b600080600080600060a0868803121561065157600080fd5b853561065c816105b3565b9450602086013561066c816105b3565b9350604086013561067c816105b3565b94979396509394606081013594506080013592915050565b600080604083850312156106a757600080fd5b505080516020909101519092909150565b6000602082840312156106ca57600080fd5b815180151581146106da57600080fd5b9392505050565b6000602082840312156106f357600080fd5b5051919050565b634e487b7160e01b600052601160045260246000fd5b60008219821115610723576107236106fa565b500190565b60008282101561073a5761073a6106fa565b50039056fea26469706673582212208f3f82eb8a929e5d16d29304c56ec1603e5ac0dd92c60fb6a6c12e2bfe5ecfec64736f6c634300080a0033",
  "devdoc": {
    "kind": "dev",
    "methods": {},
    "version": 1
  },
  "userdoc": {
    "kind": "user",
    "methods": {
      "swap(address,address,address,uint256,uint256)": {
        "notice": "Withdraws 'amountFrom' of token 'from' from the BentoBox account for this swapper. Swaps it for at least 'amountToMin' of token 'to'. Transfers the swapped tokens of 'to' into the BentoBox using a plain ERC20 transfer. Returns the amount of tokens 'to' transferred to BentoBox. (The BentoBox skim function will be used by the caller to get the swapped funds)."
      },
      "swapExact(address,address,address,address,uint256,uint256)": {
        "notice": "Calculates the amount of token 'from' needed to complete the swap (amountFrom), this should be less than or equal to amountFromMax. Withdraws 'amountFrom' of token 'from' from the BentoBox account for this swapper. Swaps it for exactly 'exactAmountTo' of token 'to'. Transfers the swapped tokens of 'to' into the BentoBox using a plain ERC20 transfer. Transfers allocated, but unused 'from' tokens within the BentoBox to 'refundTo' (amountFromMax - amountFrom). Returns the amount of 'from' tokens withdrawn from BentoBox (amountFrom). (The BentoBox skim function will be used by the caller to get the swapped funds)."
      }
    },
    "version": 1
  },
  "storageLayout": {
    "storage": [],
    "types": null
  }
}