{
  "address": "0xc97C7F6e60Fdd610A0fCA4792BbBD1dbD028d474",
  "abi": [
    {
      "inputs": [
        {
          "internalType": "contract IBentoBoxV1",
          "name": "_bentoBox",
          "type": "address"
        }
      ],
      "stateMutability": "nonpayable",
      "type": "constructor"
    },
    {
      "inputs": [],
      "name": "FUSDT",
      "outputs": [
        {
          "internalType": "contract IERC20",
          "name": "",
          "type": "address"
        }
      ],
      "stateMutability": "view",
      "type": "function"
    },
    {
      "inputs": [],
      "name": "LP",
      "outputs": [
        {
          "internalType": "contract IUniswapV2Pair",
          "name": "",
          "type": "address"
        }
      ],
      "stateMutability": "view",
      "type": "function"
    },
    {
      "inputs": [],
      "name": "MIM",
      "outputs": [
        {
          "internalType": "contract IERC20",
          "name": "",
          "type": "address"
        }
      ],
      "stateMutability": "view",
      "type": "function"
    },
    {
      "inputs": [],
      "name": "MIM3POOL",
      "outputs": [
        {
          "internalType": "contract CurvePool",
          "name": "",
          "type": "address"
        }
      ],
      "stateMutability": "view",
      "type": "function"
    },
    {
      "inputs": [],
      "name": "ROUTER",
      "outputs": [
        {
          "internalType": "contract IUniswapV2Router01",
          "name": "",
          "type": "address"
        }
      ],
      "stateMutability": "view",
      "type": "function"
    },
    {
      "inputs": [],
      "name": "USDC",
      "outputs": [
        {
          "internalType": "contract IERC20",
          "name": "",
          "type": "address"
        }
      ],
      "stateMutability": "view",
      "type": "function"
    },
    {
      "inputs": [],
      "name": "bentoBox",
      "outputs": [
        {
          "internalType": "contract IBentoBoxV1",
          "name": "",
          "type": "address"
        }
      ],
      "stateMutability": "view",
      "type": "function"
    },
    {
      "inputs": [
        {
          "internalType": "address",
          "name": "recipient",
          "type": "address"
        },
        {
          "internalType": "uint256",
          "name": "shareToMin",
          "type": "uint256"
        },
        {
          "internalType": "uint256",
          "name": "shareFrom",
          "type": "uint256"
        }
      ],
      "name": "swap",
      "outputs": [
        {
          "internalType": "uint256",
          "name": "extraShare",
          "type": "uint256"
        },
        {
          "internalType": "uint256",
          "name": "shareReturned",
          "type": "uint256"
        }
      ],
      "stateMutability": "nonpayable",
      "type": "function"
    }
  ],
  "transactionHash": "0x5eb129a7742d1ddf35ef3373904875fe82bebed8f55510df3c30cf831de44067",
  "args": [
    "0xc7a161Cfd0e133d289B13692b636B8e8B5CD8d8c"
  ],
  "numDeployments": 1,
  "solcInputHash": "3cedbfc58fe4754231958049c0f01daf",
  "bytecode": "0x60a06040523480156200001157600080fd5b5060405162000edb38038062000edb833981016040819052620000349162000331565b6001600160a01b03811660805260405163095ea7b360e01b8152732dd7c9371965472e5a5fd28fbe165007c61439e1600482015260001960248201527382f0b8b456c1a451378467398982d4834b6829c19063095ea7b3906044016020604051808303816000875af1158015620000af573d6000803e3d6000fd5b505050506040513d601f19601f82011682018060405250810190620000d5919062000363565b5060405163095ea7b360e01b8152732dd7c9371965472e5a5fd28fbe165007c61439e1600482015260001960248201527304068da6c83afcfa0e13ba15a6696662335d5b759063095ea7b3906044016020604051808303816000875af115801562000144573d6000803e3d6000fd5b505050506040513d601f19601f820116820180604052508101906200016a919062000363565b5060405163095ea7b360e01b8152732dd7c9371965472e5a5fd28fbe165007c61439e16004820152600019602482015273049d68029688eabf473097a2fc38ef61633a3c7a9063095ea7b3906044016020604051808303816000875af1158015620001d9573d6000803e3d6000fd5b505050506040513d601f19601f82011682018060405250810190620001ff919062000363565b5060405163095ea7b360e01b81527316327e3fbdaca3bcf7e38f5af2599d2ddc33ae52600482015260001960248201527304068da6c83afcfa0e13ba15a6696662335d5b759063095ea7b3906044016020604051808303816000875af11580156200026e573d6000803e3d6000fd5b505050506040513d601f19601f8201168201806040525081019062000294919062000363565b5060405163095ea7b360e01b81527316327e3fbdaca3bcf7e38f5af2599d2ddc33ae526004820152600019602482015273049d68029688eabf473097a2fc38ef61633a3c7a9063095ea7b3906044016020604051808303816000875af115801562000303573d6000803e3d6000fd5b505050506040513d601f19601f8201168201806040525081019062000329919062000363565b505062000387565b6000602082840312156200034457600080fd5b81516001600160a01b03811681146200035c57600080fd5b9392505050565b6000602082840312156200037657600080fd5b815180151581146200035c57600080fd5b608051610b1c620003bf60003960008181610100015281816101ee015281816105a001528181610856015261092b0152610b1c6000f3fe608060405234801561001057600080fd5b50600436106100885760003560e01c806389a302711161005b57806389a30271146101225780639f1d0f591461013d578063b6fccf8a14610165578063daec383d1461018057600080fd5b806322a88c091461008d57806323c35834146100c557806332fe7b26146100e05780636b2ace87146100fb575b600080fd5b6100a8732dd7c9371965472e5a5fd28fbe165007c61439e181565b6040516001600160a01b0390911681526020015b60405180910390f35b6100a873049d68029688eabf473097a2fc38ef61633a3c7a81565b6100a87316327e3fbdaca3bcf7e38f5af2599d2ddc33ae5281565b6100a87f000000000000000000000000000000000000000000000000000000000000000081565b6100a87304068da6c83afcfa0e13ba15a6696662335d5b7581565b61015061014b3660046109d3565b61019b565b604080519283526020830191909152016100bc565b6100a873e7f86cef8fef60ce5050899d1f8e465c00d04a7981565b6100a87382f0b8b456c1a451378467398982d4834b6829c181565b60405163097da6d360e41b81527382f0b8b456c1a451378467398982d4834b6829c16004820152306024820181905260448201526000606482018190526084820183905290819081906001600160a01b037f000000000000000000000000000000000000000000000000000000000000000016906397da6d309060a40160408051808303816000875af1158015610236573d6000803e3d6000fd5b505050506040513d601f19601f8201168201806040525081019061025a9190610a14565b509050732dd7c9371965472e5a5fd28fbe165007c61439e163ddc1f59d60006001610286600286610a4e565b6040517fffffffff0000000000000000000000000000000000000000000000000000000060e086901b168152600f93840b60048201529190920b602482015260448101919091526000606482015230608482015260a4016020604051808303816000875af11580156102fc573d6000803e3d6000fd5b505050506040513d601f19601f820116820180604052508101906103209190610a70565b506040516370a0823160e01b8152306004820152732dd7c9371965472e5a5fd28fbe165007c61439e19063ddc1f59d906000906002907382f0b8b456c1a451378467398982d4834b6829c1906370a0823190602401602060405180830381865afa158015610392573d6000803e3d6000fd5b505050506040513d601f19601f820116820180604052508101906103b69190610a70565b6040517fffffffff0000000000000000000000000000000000000000000000000000000060e086901b168152600f93840b60048201529190920b602482015260448101919091526000606482015230608482015260a4016020604051808303816000875af115801561042c573d6000803e3d6000fd5b505050506040513d601f19601f820116820180604052508101906104509190610a70565b506040516370a0823160e01b81523060048201526000907304068da6c83afcfa0e13ba15a6696662335d5b75906370a0823190602401602060405180830381865afa1580156104a3573d6000803e3d6000fd5b505050506040513d601f19601f820116820180604052508101906104c79190610a70565b6040516370a0823160e01b815230600482015290915060009073049d68029688eabf473097a2fc38ef61633a3c7a906370a0823190602401602060405180830381865afa15801561051c573d6000803e3d6000fd5b505050506040513d601f19601f820116820180604052508101906105409190610a70565b60405162e8e33760e81b81527304068da6c83afcfa0e13ba15a6696662335d5b75600482015273049d68029688eabf473097a2fc38ef61633a3c7a6024820152604481018490526064810182905260006084820181905260a482018190527f00000000000000000000000000000000000000000000000000000000000000006001600160a01b031660c483015260001960e4830152919250819081907316327e3fbdaca3bcf7e38f5af2599d2ddc33ae529063e8e3370090610104016060604051808303816000875af115801561061b573d6000803e3d6000fd5b505050506040513d601f19601f8201168201806040525081019061063f9190610a89565b919450925090506106508386610ab7565b945061065c8285610ab7565b9350621e8480851015806106735750621e84808410155b156108fb57841561073857610689600286610a4e565b6106939086610ab7565b60405163ddc1f59d60e01b815260026004820152600160248201526044810182905260006064820152306084820152909550732dd7c9371965472e5a5fd28fbe165007c61439e19063ddc1f59d9060a4016020604051808303816000875af1158015610703573d6000803e3d6000fd5b505050506040513d601f19601f820116820180604052508101906107279190610a70565b6107319085610ace565b93506107ee565b610743600285610a4e565b61074d9085610ab7565b60405163ddc1f59d60e01b815260016004820152600260248201526044810182905260006064820152306084820152909450732dd7c9371965472e5a5fd28fbe165007c61439e19063ddc1f59d9060a4016020604051808303816000875af11580156107bd573d6000803e3d6000fd5b505050506040513d601f19601f820116820180604052508101906107e19190610a70565b6107eb9086610ace565b94505b60405162e8e33760e81b81527304068da6c83afcfa0e13ba15a6696662335d5b75600482015273049d68029688eabf473097a2fc38ef61633a3c7a6024820152604481018690526064810185905260006084820181905260a482018190526001600160a01b037f00000000000000000000000000000000000000000000000000000000000000001660c483015260001960e4830152907316327e3fbdaca3bcf7e38f5af2599d2ddc33ae529063e8e3370090610104016060604051808303816000875af11580156108c3573d6000803e3d6000fd5b505050506040513d601f19601f820116820180604052508101906108e79190610a89565b9250505080826108f79190610ace565b9150505b60405162ae511b60e21b815273e7f86cef8fef60ce5050899d1f8e465c00d04a7960048201526001600160a01b037f0000000000000000000000000000000000000000000000000000000000000000811660248301819052908d1660448301526064820183905260006084830152906302b9446c9060a40160408051808303816000875af1158015610991573d6000803e3d6000fd5b505050506040513d601f19601f820116820180604052508101906109b59190610a14565b97506109c390508a88610ab7565b9750505050505050935093915050565b6000806000606084860312156109e857600080fd5b83356001600160a01b03811681146109ff57600080fd5b95602085013595506040909401359392505050565b60008060408385031215610a2757600080fd5b505080516020909101519092909150565b634e487b7160e01b600052601160045260246000fd5b600082610a6b57634e487b7160e01b600052601260045260246000fd5b500490565b600060208284031215610a8257600080fd5b5051919050565b600080600060608486031215610a9e57600080fd5b8351925060208401519150604084015190509250925092565b600082821015610ac957610ac9610a38565b500390565b60008219821115610ae157610ae1610a38565b50019056fea2646970667358221220098a3e9568844b9b2a39282674942679114bb04a724fafd6d3234672715b951d64736f6c634300080a0033",
  "devdoc": {
    "kind": "dev",
    "methods": {},
    "version": 1
  },
  "userdoc": {
    "kind": "user",
    "methods": {},
    "version": 1
  },
  "storageLayout": {
    "storage": [],
    "types": null
  }
}