{
  "address": "0x4a9Cb5D0B755275Fd188f87c0A8DF531B0C7c7D2",
  "abi": [
    {
      "inputs": [],
      "name": "BOO",
      "outputs": [
        {
          "internalType": "contract IERC20",
          "name": "",
          "type": "address"
        }
      ],
      "stateMutability": "view",
      "type": "function"
    },
    {
      "inputs": [],
      "name": "BOO_FTM",
      "outputs": [
        {
          "internalType": "contract IUniswapV2Pair",
          "name": "",
          "type": "address"
        }
      ],
      "stateMutability": "view",
      "type": "function"
    },
    {
      "inputs": [],
      "name": "FTM_USD",
      "outputs": [
        {
          "internalType": "contract IAggregator",
          "name": "",
          "type": "address"
        }
      ],
      "stateMutability": "view",
      "type": "function"
    },
    {
      "inputs": [],
      "name": "PERIOD",
      "outputs": [
        {
          "internalType": "uint256",
          "name": "",
          "type": "uint256"
        }
      ],
      "stateMutability": "view",
      "type": "function"
    },
    {
      "inputs": [],
      "name": "XBOO",
      "outputs": [
        {
          "internalType": "contract IERC20",
          "name": "",
          "type": "address"
        }
      ],
      "stateMutability": "view",
      "type": "function"
    },
    {
      "inputs": [
        {
          "internalType": "uint32",
          "name": "blockTimestamp",
          "type": "uint32"
        }
      ],
      "name": "_get",
      "outputs": [
        {
          "internalType": "uint256",
          "name": "",
          "type": "uint256"
        }
      ],
      "stateMutability": "view",
      "type": "function"
    },
    {
      "inputs": [
        {
          "internalType": "bytes",
          "name": "",
          "type": "bytes"
        }
      ],
      "name": "get",
      "outputs": [
        {
          "internalType": "bool",
          "name": "",
          "type": "bool"
        },
        {
          "internalType": "uint256",
          "name": "",
          "type": "uint256"
        }
      ],
      "stateMutability": "nonpayable",
      "type": "function"
    },
    {
      "inputs": [
        {
          "internalType": "bytes",
          "name": "",
          "type": "bytes"
        }
      ],
      "name": "name",
      "outputs": [
        {
          "internalType": "string",
          "name": "",
          "type": "string"
        }
      ],
      "stateMutability": "view",
      "type": "function"
    },
    {
      "inputs": [],
      "name": "pairInfo",
      "outputs": [
        {
          "internalType": "uint256",
          "name": "priceCumulativeLast",
          "type": "uint256"
        },
        {
          "internalType": "uint32",
          "name": "blockTimestampLast",
          "type": "uint32"
        },
        {
          "internalType": "uint144",
          "name": "priceAverage",
          "type": "uint144"
        }
      ],
      "stateMutability": "view",
      "type": "function"
    },
    {
      "inputs": [
        {
          "internalType": "bytes",
          "name": "",
          "type": "bytes"
        }
      ],
      "name": "peek",
      "outputs": [
        {
          "internalType": "bool",
          "name": "",
          "type": "bool"
        },
        {
          "internalType": "uint256",
          "name": "",
          "type": "uint256"
        }
      ],
      "stateMutability": "view",
      "type": "function"
    },
    {
      "inputs": [
        {
          "internalType": "bytes",
          "name": "",
          "type": "bytes"
        }
      ],
      "name": "peekSpot",
      "outputs": [
        {
          "internalType": "uint256",
          "name": "rate",
          "type": "uint256"
        }
      ],
      "stateMutability": "view",
      "type": "function"
    },
    {
      "inputs": [
        {
          "internalType": "bytes",
          "name": "",
          "type": "bytes"
        }
      ],
      "name": "symbol",
      "outputs": [
        {
          "internalType": "string",
          "name": "",
          "type": "string"
        }
      ],
      "stateMutability": "view",
      "type": "function"
    }
  ],
  "transactionHash": "0x5d44b5ee6f82a1ef956fa38ebee29aff242eebb89d0c8568ddae95098fc3b084",
  "args": [],
  "solcInputHash": "10d4b5036678d6718c4b389d3689e9a8",
  "bytecode": "0x608060405234801561001057600080fd5b50610ff4806100206000396000f3fe608060405234801561001057600080fd5b50600436106100b45760003560e01c8063c699c4d611610071578063c699c4d614610117578063d39bbef014610137578063d568866c1461014a578063d6d7d5251461015d578063eeb8a8d31461017e578063fc2a5b1d14610191576100b4565b806328ac3c90146100b95780634d032d8d146100d7578063624c7762146100f75780639c3a76bd146100ff578063b4d1d79514610107578063bb3e13741461010f575b600080fd5b6100c16101a8565b6040516100ce9190610ddf565b60405180910390f35b6100ea6100e5366004610dbc565b6101c0565b6040516100ce9190610f69565b6100c1610317565b6100c161032f565b6100ea610347565b6100c161034d565b61012a610125366004610ceb565b610365565b6040516100ce9190610e03565b6100ea610145366004610ceb565b610387565b61012a610158366004610ceb565b6104fb565b61017061016b366004610ceb565b610520565b6040516100ce929190610df3565b61017061018c366004610ceb565b610719565b610199610871565b6040516100ce93929190610f72565b73ec7178f4c41f346b2721907f5cf7628e388a7a5881565b60008073ec7178f4c41f346b2721907f5cf7628e388a7a586001600160a01b0316635a3d54936040518163ffffffff1660e01b815260040160206040518083038186803b15801561021057600080fd5b505afa158015610224573d6000803e3d6000fd5b505050506040513d601f19601f820116820180604052508101906102489190610d58565b9050600080600073ec7178f4c41f346b2721907f5cf7628e388a7a586001600160a01b0316630902f1ac6040518163ffffffff1660e01b815260040160606040518083038186803b15801561029c57600080fd5b505afa1580156102b0573d6000803e3d6000fd5b505050506040513d601f19601f820116820180604052508101906102d49190610d70565b92509250925080860363ffffffff166102ff846001600160701b0316846001600160701b0316610893565b516001600160e01b0316029390930195945050505050565b73841fad6eae12c286d1fd18d1d525dffa75c7effe81565b73a48d959ae2e88f1daa7d5f611e01908106de759881565b61025881565b73f4766552d15ae4d256ad41b6cf2933482b0680dc81565b60408051808201909152600481526378424f4f60e01b60208201525b92915050565b600080600073ec7178f4c41f346b2721907f5cf7628e388a7a586001600160a01b0316630902f1ac6040518163ffffffff1660e01b815260040160606040518083038186803b1580156103d957600080fd5b505afa1580156103ed573d6000803e3d6000fd5b505050506040513d601f19601f820116820180604052508101906104119190610d70565b506001600160701b031691506001600160701b031691506104d973f4766552d15ae4d256ad41b6cf2933482b0680dc6001600160a01b03166350d25bcd6040518163ffffffff1660e01b815260040160206040518083038186803b15801561047857600080fd5b505afa15801561048c573d6000803e3d6000fd5b505050506040513d601f19601f820116820180604052508101906104b09190610d58565b6104d3836104c686670de0b6b3a764000061097f565b816104cd57fe5b046109b6565b9061097f565b6c47bf19673df52e37f2410011d1602c1b816104f157fe5b0495945050505050565b5050604080518082019091526009815268078424f4f20545741560bc1b602082015290565b6001546000908190429063ffffffff16610563576001805463ffffffff191663ffffffff8316179055610552816101c0565b600090815592508291506107129050565b60015463ffffffff90811682039061057c908216610af1565b6102588163ffffffff1610156105ad5750506001805490925064010000000090046001600160901b03169050610712565b60006105b8836101c0565b905061069973f4766552d15ae4d256ad41b6cf2933482b0680dc6001600160a01b03166350d25bcd6040518163ffffffff1660e01b815260040160206040518083038186803b15801561060a57600080fd5b505afa15801561061e573d6000803e3d6000fd5b505050506040513d601f19601f820116820180604052508101906106429190610d58565b6104d361068b610686670de0b6b3a764000060405180602001604052808963ffffffff1660008001548a038161067457fe5b046001600160e01b0316905290610b37565b610b96565b6001600160901b03166109b6565b6c47bf19673df52e37f2410011d1602c1b816106b157fe5b6001805475ffffffffffffffffffffffffffffffffffff000000001916640100000000939092046001600160901b0390811684029290921763ffffffff191663ffffffff969096169590951780865560009390935593955090049091169150505b9250929050565b6001546000908190429063ffffffff1661073a576000809250925050610712565b60015463ffffffff90811682039061025890821610156107755750506001805490925064010000000090046001600160901b03169050610712565b6000610780836101c0565b9050600061083e73f4766552d15ae4d256ad41b6cf2933482b0680dc6001600160a01b03166350d25bcd6040518163ffffffff1660e01b815260040160206040518083038186803b1580156107d457600080fd5b505afa1580156107e8573d6000803e3d6000fd5b505050506040513d601f19601f8201168201806040525081019061080c9190610d58565b6104d361068b610686670de0b6b3a764000060405180602001604052808a63ffffffff1660008001548b038161067457fe5b6c47bf19673df52e37f2410011d1602c1b8161085657fe5b60019a9190046001600160901b031698509650505050505050565b60005460015463ffffffff81169064010000000090046001600160901b031683565b61089b610cc6565b600082116108c45760405162461bcd60e51b81526004016108bb90610efb565b60405180910390fd5b826108de5750604080516020810190915260008152610381565b6001600160901b03831161094557600082607085901b816108fb57fe5b0490506001600160e01b038111156109255760405162461bcd60e51b81526004016108bb90610ec4565b6040518060200160405280826001600160e01b0316815250915050610381565b600061095684600160701b85610b9d565b90506001600160e01b038111156109255760405162461bcd60e51b81526004016108bb90610ec4565b600081158061099a5750508082028282828161099757fe5b04145b6103815760405162461bcd60e51b81526004016108bb90610f32565b600073a48d959ae2e88f1daa7d5f611e01908106de75986001600160a01b03166318160ddd6040518163ffffffff1660e01b815260040160206040518083038186803b158015610a0557600080fd5b505afa158015610a19573d6000803e3d6000fd5b505050506040513d601f19601f82011682018060405250810190610a3d9190610d58565b6040516370a0823160e01b8152610ae39073841fad6eae12c286d1fd18d1d525dffa75c7effe906370a0823190610a8c9073a48d959ae2e88f1daa7d5f611e01908106de759890600401610ddf565b60206040518083038186803b158015610aa457600080fd5b505afa158015610ab8573d6000803e3d6000fd5b505050506040513d601f19601f82011682018060405250810190610adc9190610d58565b849061097f565b81610aea57fe5b0492915050565b610b3481604051602401610b059190610f69565b60408051601f198184030181529190526020810180516001600160e01b031663f5b1bba960e01b179052610c08565b50565b610b3f610cd8565b6000821580610b6557505082516001600160e01b031682810290838281610b6257fe5b04145b610b815760405162461bcd60e51b81526004016108bb90610e56565b60408051602081019091529081529392505050565b5160701c90565b6000806000610bac8686610c29565b9150915060008480610bba57fe5b868809905082811115610bce576001820391505b8083039250848210610bf25760405162461bcd60e51b81526004016108bb90610e8d565b610bfd838387610c56565b979650505050505050565b80516a636f6e736f6c652e6c6f67602083016000808483855afa5050505050565b6000808060001984860990508385029250828103915082811015610c4e576001820391505b509250929050565b60008181038216808381610c6657fe5b049250808581610c7257fe5b049450808160000381610c8157fe5b60028581038087028203028087028203028087028203028087028203028087028203028087028203029586029003909402930460010193909302939093010292915050565b60408051602081019091526000815290565b6040518060200160405280600081525090565b60008060208385031215610cfd578182fd5b823567ffffffffffffffff80821115610d14578384fd5b818501915085601f830112610d27578384fd5b813581811115610d35578485fd5b866020828501011115610d46578485fd5b60209290920196919550909350505050565b600060208284031215610d69578081fd5b5051919050565b600080600060608486031215610d84578081fd5b8351610d8f81610f97565b6020850151909350610da081610f97565b6040850151909250610db181610fac565b809150509250925092565b600060208284031215610dcd578081fd5b8135610dd881610fac565b9392505050565b6001600160a01b0391909116815260200190565b9115158252602082015260400190565b6000602080835283518082850152825b81811015610e2f57858101830151858201604001528201610e13565b81811115610e405783604083870101525b50601f01601f1916929092016040019392505050565b60208082526019908201527f4669786564506f696e743a3a6d756c3a206f766572666c6f7700000000000000604082015260600190565b6020808252601a908201527f46756c6c4d6174683a3a6d756c4469763a206f766572666c6f77000000000000604082015260600190565b6020808252601e908201527f4669786564506f696e743a3a6672616374696f6e3a206f766572666c6f770000604082015260600190565b6020808252601e908201527f4669786564506f696e743a3a6672616374696f6e3a2064697620627920300000604082015260600190565b60208082526018908201527f426f72696e674d6174683a204d756c204f766572666c6f770000000000000000604082015260600190565b90815260200190565b92835263ffffffff9190911660208301526001600160901b0316604082015260600190565b6001600160701b0381168114610b3457600080fd5b63ffffffff81168114610b3457600080fdfea264697066735822122034823bf1082c59d2506be865e59e2e82cc599181f9af5f9c6f9c22284f8306c864736f6c634300060c0033",
  "devdoc": {
    "kind": "dev",
    "methods": {
      "get(bytes)": {
        "params": {
          "data": "Usually abi encoded, implementation specific data that contains information and arguments to & about the oracle. For example: (string memory collateralSymbol, string memory assetSymbol, uint256 division) = abi.decode(data, (string, string, uint256));"
        },
        "returns": {
          "_0": "success if no valid (recent) rate is available, return false else true.",
          "_1": "rate The rate of the requested asset / pair / pool."
        }
      },
      "name(bytes)": {
        "params": {
          "data": "Usually abi encoded, implementation specific data that contains information and arguments to & about the oracle. For example: (string memory collateralSymbol, string memory assetSymbol, uint256 division) = abi.decode(data, (string, string, uint256));"
        },
        "returns": {
          "_0": "(string) A human readable name about this oracle."
        }
      },
      "peek(bytes)": {
        "params": {
          "data": "Usually abi encoded, implementation specific data that contains information and arguments to & about the oracle. For example: (string memory collateralSymbol, string memory assetSymbol, uint256 division) = abi.decode(data, (string, string, uint256));"
        },
        "returns": {
          "_0": "success if no valid (recent) rate is available, return false else true.",
          "_1": "rate The rate of the requested asset / pair / pool."
        }
      },
      "peekSpot(bytes)": {
        "params": {
          "data": "Usually abi encoded, implementation specific data that contains information and arguments to & about the oracle. For example: (string memory collateralSymbol, string memory assetSymbol, uint256 division) = abi.decode(data, (string, string, uint256));"
        },
        "returns": {
          "rate": "The rate of the requested asset / pair / pool."
        }
      },
      "symbol(bytes)": {
        "params": {
          "data": "Usually abi encoded, implementation specific data that contains information and arguments to & about the oracle. For example: (string memory collateralSymbol, string memory assetSymbol, uint256 division) = abi.decode(data, (string, string, uint256));"
        },
        "returns": {
          "_0": "(string) A human readable symbol name about this oracle."
        }
      }
    },
    "version": 1
  },
  "userdoc": {
    "kind": "user",
    "methods": {
      "get(bytes)": {
        "notice": "Get the latest exchange rate."
      },
      "name(bytes)": {
        "notice": "Returns a human readable name about this oracle."
      },
      "peek(bytes)": {
        "notice": "Check the last exchange rate without any state changes."
      },
      "peekSpot(bytes)": {
        "notice": "Check the current spot exchange rate without any state changes. For oracles like TWAP this will be different from peek()."
      },
      "symbol(bytes)": {
        "notice": "Returns a human readable (short) name about this oracle."
      }
    },
    "version": 1
  },
  "storageLayout": {
    "storage": [
      {
        "astId": 19379,
        "contract": "contracts/oracles/xBooOracle.sol:xBooOracle",
        "label": "pairInfo",
        "offset": 0,
        "slot": "0",
        "type": "t_struct(PairInfo)19377_storage"
      }
    ],
    "types": {
      "t_struct(PairInfo)19377_storage": {
        "encoding": "inplace",
        "label": "struct xBooOracle.PairInfo",
        "members": [
          {
            "astId": 19372,
            "contract": "contracts/oracles/xBooOracle.sol:xBooOracle",
            "label": "priceCumulativeLast",
            "offset": 0,
            "slot": "0",
            "type": "t_uint256"
          },
          {
            "astId": 19374,
            "contract": "contracts/oracles/xBooOracle.sol:xBooOracle",
            "label": "blockTimestampLast",
            "offset": 0,
            "slot": "1",
            "type": "t_uint32"
          },
          {
            "astId": 19376,
            "contract": "contracts/oracles/xBooOracle.sol:xBooOracle",
            "label": "priceAverage",
            "offset": 4,
            "slot": "1",
            "type": "t_uint144"
          }
        ],
        "numberOfBytes": "64"
      },
      "t_uint144": {
        "encoding": "inplace",
        "label": "uint144",
        "numberOfBytes": "18"
      },
      "t_uint256": {
        "encoding": "inplace",
        "label": "uint256",
        "numberOfBytes": "32"
      },
      "t_uint32": {
        "encoding": "inplace",
        "label": "uint32",
        "numberOfBytes": "4"
      }
    }
  }
}