{
  "address": "0x791aaB38C442a327Df0beb1fEc5767D8cA91dcc1",
  "abi": [
    {
      "inputs": [],
      "stateMutability": "nonpayable",
      "type": "constructor"
    },
    {
      "inputs": [],
      "name": "MIM",
      "outputs": [
        {
          "internalType": "contract IERC20",
          "name": "",
          "type": "address"
        }
      ],
      "stateMutability": "view",
      "type": "function"
    },
    {
      "inputs": [],
      "name": "ThreeCrypto",
      "outputs": [
        {
          "internalType": "contract ICurvePool",
          "name": "",
          "type": "address"
        }
      ],
      "stateMutability": "view",
      "type": "function"
    },
    {
      "inputs": [],
      "name": "bentoBox",
      "outputs": [
        {
          "internalType": "contract IBentoBoxV1",
          "name": "",
          "type": "address"
        }
      ],
      "stateMutability": "view",
      "type": "function"
    },
    {
      "inputs": [
        {
          "internalType": "address",
          "name": "recipient",
          "type": "address"
        },
        {
          "internalType": "uint256",
          "name": "shareToMin",
          "type": "uint256"
        },
        {
          "internalType": "uint256",
          "name": "shareFrom",
          "type": "uint256"
        }
      ],
      "name": "swap",
      "outputs": [
        {
          "internalType": "uint256",
          "name": "extraShare",
          "type": "uint256"
        },
        {
          "internalType": "uint256",
          "name": "shareReturned",
          "type": "uint256"
        }
      ],
      "stateMutability": "nonpayable",
      "type": "function"
    }
  ],
  "transactionHash": "0xd069351dfe02a5a963dd6121942d21006aa3910b95726d2facfffaabef6269b9",
  "args": [],
  "solcInputHash": "eeb88a748b24dc57dfbfb8e1343aa5bf",
  "bytecode": "0x608060405234801561001057600080fd5b506040805163095ea7b360e01b8152732dd7c9371965472e5a5fd28fbe165007c61439e16004820152600019602482015290517382f0b8b456c1a451378467398982d4834b6829c19163095ea7b39160448083019260209291908290030181600087803b15801561008057600080fd5b505af1158015610094573d6000803e3d6000fd5b505050506040513d60208110156100aa57600080fd5b50506040805163095ea7b360e01b815273a48d959ae2e88f1daa7d5f611e01908106de759860048201526000196024820152905173841fad6eae12c286d1fd18d1d525dffa75c7effe9163095ea7b39160448083019260209291908290030181600087803b15801561011b57600080fd5b505af115801561012f573d6000803e3d6000fd5b505050506040513d602081101561014557600080fd5b5050610c19806101566000396000f3fe608060405234801561001057600080fd5b506004361061004c5760003560e01c80636b2ace8714610051578063957489d9146100755780639f1d0f591461007d578063daec383d146100c8575b600080fd5b6100596100d0565b604080516001600160a01b039092168252519081900360200190f35b6100596100e8565b6100af6004803603606081101561009357600080fd5b506001600160a01b038135169060208101359060400135610100565b6040805192835260208301919091528051918290030190f35b610059610960565b7374a0bca2eeedf8883cb91e37e9ff49430f20a61681565b732dd7c9371965472e5a5fd28fbe165007c61439e181565b6040805163097da6d360e41b81527382f0b8b456c1a451378467398982d4834b6829c16004820152306024820181905260448201526000606482018190526084820184905282519092839283927374a0bca2eeedf8883cb91e37e9ff49430f20a616926397da6d309260a4808201939182900301818787803b15801561018557600080fd5b505af1158015610199573d6000803e3d6000fd5b505050506040513d60408110156101af57600080fd5b50516040805163ddc1f59d60e01b8152600060048201819052600260248301526044820184905260648201819052732b4c76d0dc16be1c31d4c1dc53bf9b45987fc75c6084830152915192935090918291732dd7c9371965472e5a5fd28fbe165007c61439e19163ddc1f59d9160a48082019260209290919082900301818787803b15801561023d57600080fd5b505af1158015610251573d6000803e3d6000fd5b505050506040513d602081101561026757600080fd5b50519050600061029f7304068da6c83afcfa0e13ba15a6696662335d5b757321be370d5312f44cb42ce377bc9b8a0cef1a4c83610978565b509050600080732b4c76d0dc16be1c31d4c1dc53bf9b45987fc75c6001600160a01b0316630902f1ac6040518163ffffffff1660e01b815260040160606040518083038186803b1580156102f257600080fd5b505afa158015610306573d6000803e3d6000fd5b505050506040513d606081101561031c57600080fd5b5080516020909101516001600160701b0391821693501690507304068da6c83afcfa0e13ba15a6696662335d5b756001600160a01b03841614610360578082610363565b81815b9092509050610373848383610a56565b94506000807304068da6c83afcfa0e13ba15a6696662335d5b756001600160a01b038616146103a4578660006103a8565b6000875b604080516000808252602082019283905263022c0d9f60e01b8352602482018581526044830185905273ec7178f4c41f346b2721907f5cf7628e388a7a5860648401819052608060848501908152845160a48601819052979950959750732b4c76d0dc16be1c31d4c1dc53bf9b45987fc75c9663022c0d9f968a968a969395939493919260c48601928190849084905b83811015610450578181015183820152602001610438565b50505050905090810190601f16801561047d5780820380516001836020036101000a031916815260200191505b5095505050505050600060405180830381600087803b15801561049f57600080fd5b505af11580156104b3573d6000803e3d6000fd5b505050505050505050506000806104f273841fad6eae12c286d1fd18d1d525dffa75c7effe7321be370d5312f44cb42ce377bc9b8a0cef1a4c83610978565b50905060008073ec7178f4c41f346b2721907f5cf7628e388a7a586001600160a01b0316630902f1ac6040518163ffffffff1660e01b815260040160606040518083038186803b15801561054557600080fd5b505afa158015610559573d6000803e3d6000fd5b505050506040513d606081101561056f57600080fd5b5080516020909101516001600160701b0391821693501690507321be370d5312f44cb42ce377bc9b8a0cef1a4c836001600160a01b038416146105b35780826105b6565b81815b90925090506105c6858383610a56565b93506000807321be370d5312f44cb42ce377bc9b8a0cef1a4c836001600160a01b038616146105f7578560006105fb565b6000865b604080516000808252602082019283905263022c0d9f60e01b835260248201858152604483018590523060648401819052608060848501908152845160a4860181905297995095975073ec7178f4c41f346b2721907f5cf7628e388a7a589663022c0d9f968a968a969395939493919260c48601928190849084905b8381101561068f578181015183820152602001610677565b50505050905090810190601f1680156106bc5780820380516001836020036101000a031916815260200191505b5095505050505050600060405180830381600087803b1580156106de57600080fd5b505af11580156106f2573d6000803e3d6000fd5b50505050505050505073a48d959ae2e88f1daa7d5f611e01908106de75986001600160a01b031663a59f3e0c826040518263ffffffff1660e01b815260040180828152602001915050600060405180830381600087803b15801561075557600080fd5b505af1158015610769573d6000803e3d6000fd5b5050604080516370a0823160e01b815230600482015290516000935073a48d959ae2e88f1daa7d5f611e01908106de759892506370a0823191602480820192602092909190829003018186803b1580156107c257600080fd5b505afa1580156107d6573d6000803e3d6000fd5b505050506040513d60208110156107ec57600080fd5b50516040805163a9059cbb60e01b81527374a0bca2eeedf8883cb91e37e9ff49430f20a616600482015260248101839052905191925073a48d959ae2e88f1daa7d5f611e01908106de75989163a9059cbb916044808201926020929091908290030181600087803b15801561086057600080fd5b505af1158015610874573d6000803e3d6000fd5b505050506040513d602081101561088a57600080fd5b50506040805162ae511b60e21b815273a48d959ae2e88f1daa7d5f611e01908106de759860048201527374a0bca2eeedf8883cb91e37e9ff49430f20a616602482018190526001600160a01b038c16604483015260648201849052600060848301819052835191936302b9446c9360a4808201949293918390030190829087803b15801561091757600080fd5b505af115801561092b573d6000803e3d6000fd5b505050506040513d604081101561094157600080fd5b506020015194506109528589610aa4565b955050505050935093915050565b7382f0b8b456c1a451378467398982d4834b6829c181565b600080826001600160a01b0316846001600160a01b031614156109cc5760405162461bcd60e51b8152600401808060200182810382526025815260200180610bbf6025913960400191505060405180910390fd5b826001600160a01b0316846001600160a01b0316106109ec5782846109ef565b83835b90925090506001600160a01b038216610a4f576040805162461bcd60e51b815260206004820152601e60248201527f556e697377617056324c6962726172793a205a45524f5f414444524553530000604482015290519081900360640190fd5b9250929050565b600080610a65856103e5610afa565b90506000610a738285610afa565b90506000610a8d83610a87886103e8610afa565b90610b66565b9050808281610a9857fe5b04979650505050505050565b80820382811115610af4576040805162461bcd60e51b8152602060048201526015602482015274426f72696e674d6174683a20556e646572666c6f7760581b604482015290519081900360640190fd5b92915050565b6000811580610b1557505080820282828281610b1257fe5b04145b610af4576040805162461bcd60e51b815260206004820152601860248201527f426f72696e674d6174683a204d756c204f766572666c6f770000000000000000604482015290519081900360640190fd5b81810181811015610af4576040805162461bcd60e51b815260206004820152601860248201527f426f72696e674d6174683a20416464204f766572666c6f770000000000000000604482015290519081900360640190fdfe556e697377617056324c6962726172793a204944454e544943414c5f414444524553534553a2646970667358221220e47e4226370324b4458b2cdd3f4ac28884fa741c3d593690d23373d83eecda5964736f6c634300060c0033",
  "devdoc": {
    "kind": "dev",
    "methods": {},
    "version": 1
  },
  "userdoc": {
    "kind": "user",
    "methods": {},
    "version": 1
  },
  "storageLayout": {
    "storage": [],
    "types": null
  }
}