{
  "address": "0x26FA3fFFB6EfE8c1E69103aCb4044C26B9A106a9",
  "abi": [
    {
      "inputs": [],
      "stateMutability": "nonpayable",
      "type": "constructor"
    },
    {
      "inputs": [],
      "name": "MIM",
      "outputs": [
        {
          "internalType": "contract IERC20",
          "name": "",
          "type": "address"
        }
      ],
      "stateMutability": "view",
      "type": "function"
    },
    {
      "inputs": [],
      "name": "WFTM_VAULT",
      "outputs": [
        {
          "internalType": "contract YearnVault",
          "name": "",
          "type": "address"
        }
      ],
      "stateMutability": "view",
      "type": "function"
    },
    {
      "inputs": [],
      "name": "bentoBox",
      "outputs": [
        {
          "internalType": "contract IBentoBoxV1",
          "name": "",
          "type": "address"
        }
      ],
      "stateMutability": "view",
      "type": "function"
    },
    {
      "inputs": [
        {
          "internalType": "address",
          "name": "recipient",
          "type": "address"
        },
        {
          "internalType": "uint256",
          "name": "shareToMin",
          "type": "uint256"
        },
        {
          "internalType": "uint256",
          "name": "shareFrom",
          "type": "uint256"
        }
      ],
      "name": "swap",
      "outputs": [
        {
          "internalType": "uint256",
          "name": "extraShare",
          "type": "uint256"
        },
        {
          "internalType": "uint256",
          "name": "shareReturned",
          "type": "uint256"
        }
      ],
      "stateMutability": "nonpayable",
      "type": "function"
    }
  ],
  "transactionHash": "0x3e2302b4e53ef543f8b7c6a2220af09ccc0dcb9bdf35cfb7c867b05922cf970f",
  "args": [],
  "solcInputHash": "e9abf2aaca25029fd377c515be1b2779",
  "bytecode": "0x608060405234801561001057600080fd5b5060405163095ea7b360e01b81527321be370d5312f44cb42ce377bc9b8a0cef1a4c839063095ea7b39061006090730dec85e74a92c52b7f708c4b10207d9560cefaf090600019906004016100df565b602060405180830381600087803b15801561007a57600080fd5b505af115801561008e573d6000803e3d6000fd5b505050506040513d601f19601f820116820180604052508101906100b291906100b8565b506100f8565b6000602082840312156100c9578081fd5b815180151581146100d8578182fd5b9392505050565b6001600160a01b03929092168252602082015260400190565b6107ae806101076000396000f3fe608060405234801561001057600080fd5b506004361061004c5760003560e01c80632fbfe340146100515780636b2ace871461006f5780639f1d0f5914610077578063daec383d14610098575b600080fd5b6100596100a0565b60405161006691906105e5565b60405180910390f35b6100596100b8565b61008a610085366004610517565b6100d0565b604051610066929190610752565b610059610425565b730dec85e74a92c52b7f708c4b10207d9560cefaf081565b73f5bce5077908a1b7370b9ae04adc565ebd64396681565b60405163097da6d360e41b81526000908190819073f5bce5077908a1b7370b9ae04adc565ebd643966906397da6d309061013e907382f0b8b456c1a451378467398982d4834b6829c190309073b32b31dfafbd53e310390f641c7119b5b9ea04889087908b906004016105f9565b6040805180830381600087803b15801561015757600080fd5b505af115801561016b573d6000803e3d6000fd5b505050506040513d601f19601f8201168201806040525081019061018f91906105c2565b50905060008073b32b31dfafbd53e310390f641c7119b5b9ea04886001600160a01b0316630902f1ac6040518163ffffffff1660e01b815260040160606040518083038186803b1580156101e257600080fd5b505afa1580156101f6573d6000803e3d6000fd5b505050506040513d601f19601f8201168201806040525081019061021a9190610556565b506001600160701b031691506001600160701b03169150600061023e84838561043d565b604080516000808252602082019283905263022c0d9f60e01b90925291925073b32b31dfafbd53e310390f641c7119b5b9ea04889163022c0d9f9161028b918591903090602481016106e1565b600060405180830381600087803b1580156102a557600080fd5b505af11580156102b9573d6000803e3d6000fd5b5050604051636e553f6560e01b815260009250730dec85e74a92c52b7f708c4b10207d9560cefaf09150636e553f659061030f906000199073f5bce5077908a1b7370b9ae04adc565ebd643966906004016106ca565b602060405180830381600087803b15801561032957600080fd5b505af115801561033d573d6000803e3d6000fd5b505050506040513d601f19601f8201168201806040525081019061036191906105aa565b60405162ae511b60e21b815290915073f5bce5077908a1b7370b9ae04adc565ebd643966906302b9446c906103b790730dec85e74a92c52b7f708c4b10207d9560cefaf09084908f9087906000906004016105f9565b6040805180830381600087803b1580156103d057600080fd5b505af11580156103e4573d6000803e3d6000fd5b505050506040513d601f19601f8201168201806040525081019061040891906105c2565b96506104169050868a61048b565b96505050505050935093915050565b7382f0b8b456c1a451378467398982d4834b6829c181565b60008061044c856103e56104bd565b9050600061045a82856104bd565b905060006104748361046e886103e86104bd565b906104f4565b905080828161047f57fe5b04979650505050505050565b808203828111156104b75760405162461bcd60e51b81526004016104ae9061062d565b60405180910390fd5b92915050565b60008115806104d8575050808202828282816104d557fe5b04145b6104b75760405162461bcd60e51b81526004016104ae90610693565b818101818110156104b75760405162461bcd60e51b81526004016104ae9061065c565b60008060006060848603121561052b578283fd5b83356001600160a01b0381168114610541578384fd5b95602085013595506040909401359392505050565b60008060006060848603121561056a578283fd5b835161057581610760565b602085015190935061058681610760565b604085015190925063ffffffff8116811461059f578182fd5b809150509250925092565b6000602082840312156105bb578081fd5b5051919050565b600080604083850312156105d4578182fd5b505080516020909101519092909150565b6001600160a01b0391909116815260200190565b6001600160a01b03958616815293851660208501529190931660408301526060820192909252608081019190915260a00190565b602080825260159082015274426f72696e674d6174683a20556e646572666c6f7760581b604082015260600190565b60208082526018908201527f426f72696e674d6174683a20416464204f766572666c6f770000000000000000604082015260600190565b60208082526018908201527f426f72696e674d6174683a204d756c204f766572666c6f770000000000000000604082015260600190565b9182526001600160a01b0316602082015260400190565b60008582526020858184015260018060a01b0385166040840152608060608401528351806080850152825b818110156107285785810183015185820160a00152820161070c565b81811115610739578360a083870101525b50601f01601f19169290920160a0019695505050505050565b918252602082015260400190565b6001600160701b038116811461077557600080fd5b5056fea26469706673582212204aad1dca00b174f0d7ce21c06ca7e10f702ae47019f880da8fb79dfa1f296fc864736f6c634300060c0033",
  "devdoc": {
    "kind": "dev",
    "methods": {},
    "version": 1
  },
  "userdoc": {
    "kind": "user",
    "methods": {},
    "version": 1
  },
  "storageLayout": {
    "storage": [],
    "types": null
  }
}