{
  "address": "0x167dB0FFc0F3A9160e855F19C6fc7517Ea286c1a",
  "abi": [
    {
      "anonymous": false,
      "inputs": [
        {
          "indexed": true,
          "internalType": "address",
          "name": "owner",
          "type": "address"
        },
        {
          "indexed": true,
          "internalType": "address",
          "name": "approved",
          "type": "address"
        },
        {
          "indexed": true,
          "internalType": "uint256",
          "name": "tokenId",
          "type": "uint256"
        }
      ],
      "name": "Approval",
      "type": "event"
    },
    {
      "anonymous": false,
      "inputs": [
        {
          "indexed": true,
          "internalType": "address",
          "name": "owner",
          "type": "address"
        },
        {
          "indexed": true,
          "internalType": "address",
          "name": "operator",
          "type": "address"
        },
        {
          "indexed": false,
          "internalType": "bool",
          "name": "approved",
          "type": "bool"
        }
      ],
      "name": "ApprovalForAll",
      "type": "event"
    },
    {
      "anonymous": false,
      "inputs": [
        {
          "indexed": true,
          "internalType": "address",
          "name": "from",
          "type": "address"
        },
        {
          "indexed": true,
          "internalType": "address",
          "name": "to",
          "type": "address"
        },
        {
          "indexed": true,
          "internalType": "uint256",
          "name": "tokenId",
          "type": "uint256"
        }
      ],
      "name": "Transfer",
      "type": "event"
    },
    {
      "inputs": [
        {
          "internalType": "address",
          "name": "approved",
          "type": "address"
        },
        {
          "internalType": "uint256",
          "name": "tokenId",
          "type": "uint256"
        }
      ],
      "name": "approve",
      "outputs": [],
      "stateMutability": "payable",
      "type": "function"
    },
    {
      "inputs": [
        {
          "internalType": "address",
          "name": "owner",
          "type": "address"
        }
      ],
      "name": "balanceOf",
      "outputs": [
        {
          "internalType": "uint256",
          "name": "",
          "type": "uint256"
        }
      ],
      "stateMutability": "view",
      "type": "function"
    },
    {
      "inputs": [
        {
          "internalType": "uint256",
          "name": "",
          "type": "uint256"
        }
      ],
      "name": "getApproved",
      "outputs": [
        {
          "internalType": "address",
          "name": "",
          "type": "address"
        }
      ],
      "stateMutability": "view",
      "type": "function"
    },
    {
      "inputs": [
        {
          "internalType": "address",
          "name": "",
          "type": "address"
        },
        {
          "internalType": "address",
          "name": "",
          "type": "address"
        }
      ],
      "name": "isApprovedForAll",
      "outputs": [
        {
          "internalType": "bool",
          "name": "",
          "type": "bool"
        }
      ],
      "stateMutability": "view",
      "type": "function"
    },
    {
      "inputs": [
        {
          "internalType": "address",
          "name": "owner",
          "type": "address"
        }
      ],
      "name": "mint",
      "outputs": [
        {
          "internalType": "uint256",
          "name": "id",
          "type": "uint256"
        }
      ],
      "stateMutability": "nonpayable",
      "type": "function"
    },
    {
      "inputs": [
        {
          "internalType": "uint256",
          "name": "tokenId",
          "type": "uint256"
        }
      ],
      "name": "ownerOf",
      "outputs": [
        {
          "internalType": "address",
          "name": "",
          "type": "address"
        }
      ],
      "stateMutability": "view",
      "type": "function"
    },
    {
      "inputs": [
        {
          "internalType": "address",
          "name": "from",
          "type": "address"
        },
        {
          "internalType": "address",
          "name": "to",
          "type": "address"
        },
        {
          "internalType": "uint256",
          "name": "tokenId",
          "type": "uint256"
        }
      ],
      "name": "safeTransferFrom",
      "outputs": [],
      "stateMutability": "payable",
      "type": "function"
    },
    {
      "inputs": [
        {
          "internalType": "address",
          "name": "from",
          "type": "address"
        },
        {
          "internalType": "address",
          "name": "to",
          "type": "address"
        },
        {
          "internalType": "uint256",
          "name": "tokenId",
          "type": "uint256"
        },
        {
          "internalType": "bytes",
          "name": "data",
          "type": "bytes"
        }
      ],
      "name": "safeTransferFrom",
      "outputs": [],
      "stateMutability": "payable",
      "type": "function"
    },
    {
      "inputs": [
        {
          "internalType": "address",
          "name": "operator",
          "type": "address"
        },
        {
          "internalType": "bool",
          "name": "approved",
          "type": "bool"
        }
      ],
      "name": "setApprovalForAll",
      "outputs": [],
      "stateMutability": "nonpayable",
      "type": "function"
    },
    {
      "inputs": [
        {
          "internalType": "bytes4",
          "name": "interfaceID",
          "type": "bytes4"
        }
      ],
      "name": "supportsInterface",
      "outputs": [
        {
          "internalType": "bool",
          "name": "",
          "type": "bool"
        }
      ],
      "stateMutability": "pure",
      "type": "function"
    },
    {
      "inputs": [
        {
          "internalType": "uint256",
          "name": "index",
          "type": "uint256"
        }
      ],
      "name": "tokenByIndex",
      "outputs": [
        {
          "internalType": "uint256",
          "name": "",
          "type": "uint256"
        }
      ],
      "stateMutability": "view",
      "type": "function"
    },
    {
      "inputs": [
        {
          "internalType": "address",
          "name": "owner",
          "type": "address"
        },
        {
          "internalType": "uint256",
          "name": "index",
          "type": "uint256"
        }
      ],
      "name": "tokenOfOwnerByIndex",
      "outputs": [
        {
          "internalType": "uint256",
          "name": "",
          "type": "uint256"
        }
      ],
      "stateMutability": "view",
      "type": "function"
    },
    {
      "inputs": [
        {
          "internalType": "uint256",
          "name": "tokenId",
          "type": "uint256"
        }
      ],
      "name": "tokenURI",
      "outputs": [
        {
          "internalType": "string",
          "name": "",
          "type": "string"
        }
      ],
      "stateMutability": "view",
      "type": "function"
    },
    {
      "inputs": [
        {
          "internalType": "address",
          "name": "",
          "type": "address"
        },
        {
          "internalType": "uint256",
          "name": "",
          "type": "uint256"
        }
      ],
      "name": "tokensOf",
      "outputs": [
        {
          "internalType": "uint256",
          "name": "",
          "type": "uint256"
        }
      ],
      "stateMutability": "view",
      "type": "function"
    },
    {
      "inputs": [],
      "name": "totalSupply",
      "outputs": [
        {
          "internalType": "uint256",
          "name": "",
          "type": "uint256"
        }
      ],
      "stateMutability": "view",
      "type": "function"
    },
    {
      "inputs": [
        {
          "internalType": "address",
          "name": "from",
          "type": "address"
        },
        {
          "internalType": "address",
          "name": "to",
          "type": "address"
        },
        {
          "internalType": "uint256",
          "name": "tokenId",
          "type": "uint256"
        }
      ],
      "name": "transferFrom",
      "outputs": [],
      "stateMutability": "payable",
      "type": "function"
    }
  ],
  "transactionHash": "0x2bcc83f8c2d30ca5a23d3b703bea4e31114cd0306ef51863b5038c57f334e1ee",
  "args": [],
  "numDeployments": 1,
  "solcInputHash": "957d564936a9a51fa0a705bb7246fd40",
  "bytecode": "0x60806040526000805534801561001457600080fd5b50610efd806100246000396000f3fe6080604052600436106100f35760003560e01c80634f6ccce71161008a578063a22cb46511610059578063a22cb46514610373578063b88d4fde146103ae578063c87b56dd14610474578063e985e9c514610513576100f3565b80634f6ccce7146102b95780636352211e146102e35780636a6278421461030d57806370a0823114610340576100f3565b806323b872dd116100c657806323b872dd146101db5780632f745c591461021157806338a3dbae1461024a57806342842e0e14610283576100f3565b806301ffc9a7146100f8578063081812fc14610140578063095ea7b31461018657806318160ddd146101b4575b600080fd5b34801561010457600080fd5b5061012c6004803603602081101561011b57600080fd5b50356001600160e01b03191661054e565b604080519115158252519081900360200190f35b34801561014c57600080fd5b5061016a6004803603602081101561016357600080fd5b5035610587565b604080516001600160a01b039092168252519081900360200190f35b6101b26004803603604081101561019c57600080fd5b506001600160a01b0381351690602001356105a2565b005b3480156101c057600080fd5b506101c96106a5565b60408051918252519081900360200190f35b6101b2600480360360608110156101f157600080fd5b506001600160a01b038135811691602081013590911690604001356106ab565b34801561021d57600080fd5b506101c96004803603604081101561023457600080fd5b506001600160a01b0381351690602001356106bb565b34801561025657600080fd5b506101c96004803603604081101561026d57600080fd5b506001600160a01b0381351690602001356106f2565b6101b26004803603606081101561029957600080fd5b506001600160a01b03813581169160208101359091169060400135610720565b3480156102c557600080fd5b506101c9600480360360208110156102dc57600080fd5b503561073b565b3480156102ef57600080fd5b5061016a6004803603602081101561030657600080fd5b5035610796565b34801561031957600080fd5b506101c96004803603602081101561033057600080fd5b50356001600160a01b03166107eb565b34801561034c57600080fd5b506101c96004803603602081101561036357600080fd5b50356001600160a01b03166107fc565b34801561037f57600080fd5b506101b26004803603604081101561039657600080fd5b506001600160a01b0381351690602001351515610875565b6101b2600480360360808110156103c457600080fd5b6001600160a01b038235811692602081013590911691604082013591908101906080810160608201356401000000008111156103ff57600080fd5b82018360208201111561041157600080fd5b8035906020019184600183028401116401000000008311171561043357600080fd5b91908080601f0160208091040260200160405190810160405280939291908181526020018383808284376000920191909152509295506108e3945050505050565b34801561048057600080fd5b5061049e6004803603602081101561049757600080fd5b5035610a5d565b6040805160208082528351818301528351919283929083019185019080838360005b838110156104d85781810151838201526020016104c0565b50505050905090810190601f1680156105055780820380516001836020036101000a031916815260200191505b509250505060405180910390f35b34801561051f57600080fd5b5061012c6004803603604081101561053657600080fd5b506001600160a01b0381358116916020013516610abe565b60006001600160e01b031982166301ffc9a760e01b148061057f57506380ac58cd60e01b6001600160e01b03198316145b90505b919050565b6004602052600090815260409020546001600160a01b031681565b6000818152600360205260409020546001600160a01b0316338114806105eb57506001600160a01b038116600090815260016020908152604080832033845290915290205460ff165b61063c576040805162461bcd60e51b815260206004820152600b60248201527f4e6f7420616c6c6f776564000000000000000000000000000000000000000000604482015290519081900360640190fd5b600082815260046020526040808220805473ffffffffffffffffffffffffffffffffffffffff19166001600160a01b0387811691821790925591518593918516917f8c5be1e5ebec7d5bd14f71427d1e84f3dd0314c0f7b2291e5b200ac8c7c3b92591a4505050565b60005481565b6106b6838383610ade565b505050565b6001600160a01b03821660009081526002602052604081208054839081106106df57fe5b9060005260206000200154905092915050565b6002602052816000526040600020818154811061070b57fe5b90600052602060002001600091509150505481565b6106b6838383604051806020016040528060008152506108e3565b600080548210610792576040805162461bcd60e51b815260206004820152600d60248201527f4f7574206f6620626f756e647300000000000000000000000000000000000000604482015290519081900360640190fd5b5090565b6000818152600360205260408120546001600160a01b03168061057f576040805162461bcd60e51b815260206004820152600860248201526727379037bbb732b960c11b604482015290519081900360640190fd5b600080549050610582826000610bf2565b60006001600160a01b038216610859576040805162461bcd60e51b815260206004820152600a60248201527f4e6f2030206f776e657200000000000000000000000000000000000000000000604482015290519081900360640190fd5b506001600160a01b031660009081526002602052604090205490565b3360008181526001602090815260408083206001600160a01b03871680855290835292819020805460ff1916861515908117909155815190815290519293927f17307eab39ab6107e8899845ad3d59bd9653f200f220920489ca2b5937696c31929181900390910190a35050565b6108ee848484610ade565b610900836001600160a01b0316610c0e565b15610a5757604051630a85bd0160e11b80825233600483018181526001600160a01b0388811660248601526044850187905260806064860190815286516084870152865194959189169463150b7a0294938b938a938a93909160a40190602085019080838360005b83811015610980578181015183820152602001610968565b50505050905090810190601f1680156109ad5780820380516001836020036101000a031916815260200191505b5095505050505050602060405180830381600087803b1580156109cf57600080fd5b505af11580156109e3573d6000803e3d6000fd5b505050506040513d60208110156109f957600080fd5b50516001600160e01b03191614610a57576040805162461bcd60e51b815260206004820152601260248201527f57726f6e672072657475726e2076616c75650000000000000000000000000000604482015290519081900360640190fd5b50505050565b60606000548210610ab5576040805162461bcd60e51b815260206004820152600a60248201527f4e6f74206d696e74656400000000000000000000000000000000000000000000604482015290519081900360640190fd5b61057f82610c14565b600160209081526000928352604080842090915290825290205460ff1681565b336001600160a01b0384161480610b0b57506000818152600460205260409020546001600160a01b031633145b80610b3957506001600160a01b038316600090815260016020908152604080832033845290915290205460ff165b610b8a576040805162461bcd60e51b815260206004820152601460248201527f5472616e73666572206e6f7420616c6c6f776564000000000000000000000000604482015290519081900360640190fd5b6001600160a01b038216610be5576040805162461bcd60e51b815260206004820152600f60248201527f4e6f207a65726f20616464726573730000000000000000000000000000000000604482015290519081900360640190fd5b6106b68184846000610c27565b610c0160005460008484610c27565b5050600080546001019055565b3b151590565b5060408051602081019091526000815290565b6000848152600360205260409020546001600160a01b039081169084168114610c97576040805162461bcd60e51b815260206004820152600e60248201527f46726f6d206e6f74206f776e6572000000000000000000000000000000000000604482015290519081900360640190fd5b60006001600160a01b03851615610db457506000858152600360209081526040808320546001600160a01b0388168452600290925282208054600160b81b830468ffffffffffffffffff169550600160a01b90920462ffffff169260001983019290919083908110610d0557fe5b906000526020600020015490508060026000896001600160a01b03166001600160a01b031681526020019081526020016000208462ffffff1681548110610d4857fe5b600091825260208083209190910192909255828152600382526040808220805462ffffff60a01b1916600160a01b62ffffff8916021790556001600160a01b038a168252600290925220805480610d9b57fe5b6001900381819060005260206000200160009055905550505b506001600160a01b038084166000818152600260209081526040808320805460018101825590845282842081018b9055815160608101835285815262ffffff80831682860190815268ffffffffffffffffff808c168487019081528f8952600388528689209451855493519151909216600160b81b0276ffffffffffffffffffffffffffffffffffffffffffffff91909416600160a01b0262ffffff60a01b19928c1673ffffffffffffffffffffffffffffffffffffffff19948516179290921691909117169190911790915560049093528184208054909316909255519093899392908916917fddf252ad1be2c89b69c2b068fc378daa952ba7f163c4a11628f55a4df523b3ef9190a450505050505056fea264697066735822122053ed1f0a4bbf2bc5e656d7fcfeae42c3244f35da206d26103dce33ef9d78544964736f6c634300060c0033",
  "devdoc": {
    "kind": "dev",
    "methods": {},
    "version": 1
  },
  "userdoc": {
    "kind": "user",
    "methods": {},
    "version": 1
  },
  "storageLayout": {
    "storage": [
      {
        "astId": 166,
        "contract": "contracts/mocks/ERC721Mock.sol:ERC721Mock",
        "label": "totalSupply",
        "offset": 0,
        "slot": "0",
        "type": "t_uint256"
      },
      {
        "astId": 179,
        "contract": "contracts/mocks/ERC721Mock.sol:ERC721Mock",
        "label": "isApprovedForAll",
        "offset": 0,
        "slot": "1",
        "type": "t_mapping(t_address,t_mapping(t_address,t_bool))"
      },
      {
        "astId": 184,
        "contract": "contracts/mocks/ERC721Mock.sol:ERC721Mock",
        "label": "tokensOf",
        "offset": 0,
        "slot": "2",
        "type": "t_mapping(t_address,t_array(t_uint256)dyn_storage)"
      },
      {
        "astId": 188,
        "contract": "contracts/mocks/ERC721Mock.sol:ERC721Mock",
        "label": "_tokens",
        "offset": 0,
        "slot": "3",
        "type": "t_mapping(t_uint256,t_struct(TokenInfo)173_storage)"
      },
      {
        "astId": 192,
        "contract": "contracts/mocks/ERC721Mock.sol:ERC721Mock",
        "label": "getApproved",
        "offset": 0,
        "slot": "4",
        "type": "t_mapping(t_uint256,t_address)"
      }
    ],
    "types": {
      "t_address": {
        "encoding": "inplace",
        "label": "address",
        "numberOfBytes": "20"
      },
      "t_array(t_uint256)dyn_storage": {
        "base": "t_uint256",
        "encoding": "dynamic_array",
        "label": "uint256[]",
        "numberOfBytes": "32"
      },
      "t_bool": {
        "encoding": "inplace",
        "label": "bool",
        "numberOfBytes": "1"
      },
      "t_mapping(t_address,t_array(t_uint256)dyn_storage)": {
        "encoding": "mapping",
        "key": "t_address",
        "label": "mapping(address => uint256[])",
        "numberOfBytes": "32",
        "value": "t_array(t_uint256)dyn_storage"
      },
      "t_mapping(t_address,t_bool)": {
        "encoding": "mapping",
        "key": "t_address",
        "label": "mapping(address => bool)",
        "numberOfBytes": "32",
        "value": "t_bool"
      },
      "t_mapping(t_address,t_mapping(t_address,t_bool))": {
        "encoding": "mapping",
        "key": "t_address",
        "label": "mapping(address => mapping(address => bool))",
        "numberOfBytes": "32",
        "value": "t_mapping(t_address,t_bool)"
      },
      "t_mapping(t_uint256,t_address)": {
        "encoding": "mapping",
        "key": "t_uint256",
        "label": "mapping(uint256 => address)",
        "numberOfBytes": "32",
        "value": "t_address"
      },
      "t_mapping(t_uint256,t_struct(TokenInfo)173_storage)": {
        "encoding": "mapping",
        "key": "t_uint256",
        "label": "mapping(uint256 => struct BoringMultipleNFT.TokenInfo)",
        "numberOfBytes": "32",
        "value": "t_struct(TokenInfo)173_storage"
      },
      "t_struct(TokenInfo)173_storage": {
        "encoding": "inplace",
        "label": "struct BoringMultipleNFT.TokenInfo",
        "members": [
          {
            "astId": 168,
            "contract": "contracts/mocks/ERC721Mock.sol:ERC721Mock",
            "label": "owner",
            "offset": 0,
            "slot": "0",
            "type": "t_address"
          },
          {
            "astId": 170,
            "contract": "contracts/mocks/ERC721Mock.sol:ERC721Mock",
            "label": "index",
            "offset": 20,
            "slot": "0",
            "type": "t_uint24"
          },
          {
            "astId": 172,
            "contract": "contracts/mocks/ERC721Mock.sol:ERC721Mock",
            "label": "data",
            "offset": 23,
            "slot": "0",
            "type": "t_uint72"
          }
        ],
        "numberOfBytes": "32"
      },
      "t_uint24": {
        "encoding": "inplace",
        "label": "uint24",
        "numberOfBytes": "3"
      },
      "t_uint256": {
        "encoding": "inplace",
        "label": "uint256",
        "numberOfBytes": "32"
      },
      "t_uint72": {
        "encoding": "inplace",
        "label": "uint72",
        "numberOfBytes": "9"
      }
    }
  }
}