{
  "address": "0x8578582a89EBbb90B16dD7e8A0F177F0B6A611F8",
  "abi": [
    {
      "inputs": [],
      "stateMutability": "nonpayable",
      "type": "constructor"
    },
    {
      "inputs": [
        {
          "internalType": "address",
          "name": "_pair",
          "type": "address"
        },
        {
          "internalType": "uint256",
          "name": "tokenId",
          "type": "uint256"
        }
      ],
      "name": "get",
      "outputs": [
        {
          "internalType": "bool",
          "name": "success",
          "type": "bool"
        },
        {
          "internalType": "uint256",
          "name": "rate",
          "type": "uint256"
        }
      ],
      "stateMutability": "nonpayable",
      "type": "function"
    },
    {
      "inputs": [
        {
          "internalType": "address",
          "name": "_pair",
          "type": "address"
        },
        {
          "internalType": "uint256",
          "name": "tokenId",
          "type": "uint256"
        }
      ],
      "name": "peek",
      "outputs": [
        {
          "internalType": "bool",
          "name": "",
          "type": "bool"
        },
        {
          "internalType": "uint256",
          "name": "",
          "type": "uint256"
        }
      ],
      "stateMutability": "view",
      "type": "function"
    },
    {
      "inputs": [
        {
          "internalType": "address",
          "name": "_pair",
          "type": "address"
        },
        {
          "internalType": "uint256",
          "name": "tokenId",
          "type": "uint256"
        }
      ],
      "name": "peekSpot",
      "outputs": [
        {
          "internalType": "uint256",
          "name": "",
          "type": "uint256"
        }
      ],
      "stateMutability": "view",
      "type": "function"
    },
    {
      "inputs": [
        {
          "internalType": "uint256",
          "name": "",
          "type": "uint256"
        }
      ],
      "name": "rates",
      "outputs": [
        {
          "internalType": "uint256",
          "name": "",
          "type": "uint256"
        }
      ],
      "stateMutability": "view",
      "type": "function"
    },
    {
      "inputs": [
        {
          "internalType": "uint256",
          "name": "tokenId",
          "type": "uint256"
        },
        {
          "internalType": "uint256",
          "name": "rate",
          "type": "uint256"
        }
      ],
      "name": "set",
      "outputs": [],
      "stateMutability": "nonpayable",
      "type": "function"
    },
    {
      "inputs": [
        {
          "internalType": "bool",
          "name": "val",
          "type": "bool"
        }
      ],
      "name": "setSuccess",
      "outputs": [],
      "stateMutability": "nonpayable",
      "type": "function"
    },
    {
      "inputs": [],
      "name": "success",
      "outputs": [
        {
          "internalType": "bool",
          "name": "",
          "type": "bool"
        }
      ],
      "stateMutability": "view",
      "type": "function"
    }
  ],
  "transactionHash": "0x887517dd34234d44ff707ec050924d851638f37011f7aec68114f923f386e1a9",
  "args": [],
  "numDeployments": 1,
  "solcInputHash": "957d564936a9a51fa0a705bb7246fd40",
  "bytecode": "0x608060405234801561001057600080fd5b506001805460ff1916811790556102958061002c6000396000f3fe608060405234801561001057600080fd5b506004361061007d5760003560e01c8063a3f205571161005b578063a3f20557146100e2578063b464631b14610136578063dd418ae21461016f578063fcbc2f181461019e5761007d565b80630b93381b146100825780631ab06ee51461009e5780637bcc7f81146100c3575b600080fd5b61008a6101d7565b604080519115158252519081900360200190f35b6100c1600480360360408110156100b457600080fd5b50803590602001356101e0565b005b6100c1600480360360208110156100d957600080fd5b503515156101f2565b61011b600480360360408110156100f857600080fd5b5073ffffffffffffffffffffffffffffffffffffffff8135169060200135610205565b60408051921515835260208301919091528051918290030190f35b61011b6004803603604081101561014c57600080fd5b5073ffffffffffffffffffffffffffffffffffffffff8135169060200135610223565b61018c6004803603602081101561018557600080fd5b5035610239565b60408051918252519081900360200190f35b61018c600480360360408110156101b457600080fd5b5073ffffffffffffffffffffffffffffffffffffffff813516906020013561024b565b60015460ff1681565b60009182526020829052604090912055565b6001805460ff1916911515919091179055565b6001546000918252602082905260409091205460ff90911692909150565b6000818152602081905260408120549250929050565b60006020819052908152604090205481565b60009081526020819052604090205491905056fea2646970667358221220f22f8cb31697bb3fe114ebefbb85fd75fa27b62e5ead0951bb145248a0639e2064736f6c634300060c0033",
  "devdoc": {
    "kind": "dev",
    "methods": {},
    "version": 1
  },
  "userdoc": {
    "kind": "user",
    "methods": {},
    "version": 1
  },
  "storageLayout": {
    "storage": [
      {
        "astId": 19712,
        "contract": "contracts/mocks/NFTOracleMock.sol:NFTOracleMock",
        "label": "rates",
        "offset": 0,
        "slot": "0",
        "type": "t_mapping(t_uint256,t_uint256)"
      },
      {
        "astId": 19714,
        "contract": "contracts/mocks/NFTOracleMock.sol:NFTOracleMock",
        "label": "success",
        "offset": 0,
        "slot": "1",
        "type": "t_bool"
      }
    ],
    "types": {
      "t_bool": {
        "encoding": "inplace",
        "label": "bool",
        "numberOfBytes": "1"
      },
      "t_mapping(t_uint256,t_uint256)": {
        "encoding": "mapping",
        "key": "t_uint256",
        "label": "mapping(uint256 => uint256)",
        "numberOfBytes": "32",
        "value": "t_uint256"
      },
      "t_uint256": {
        "encoding": "inplace",
        "label": "uint256",
        "numberOfBytes": "32"
      }
    }
  }
}