{
  "address": "0xF2A3c13290FC57e4D52D6EeC3C4325a37845ED48",
  "abi": [
    {
      "inputs": [
        {
          "internalType": "contract IERC20",
          "name": "weth",
          "type": "address"
        }
      ],
      "stateMutability": "nonpayable",
      "type": "constructor"
    },
    {
      "anonymous": false,
      "inputs": [
        {
          "indexed": true,
          "internalType": "address",
          "name": "masterContract",
          "type": "address"
        },
        {
          "indexed": false,
          "internalType": "bytes",
          "name": "data",
          "type": "bytes"
        },
        {
          "indexed": true,
          "internalType": "address",
          "name": "cloneAddress",
          "type": "address"
        }
      ],
      "name": "LogDeploy",
      "type": "event"
    },
    {
      "anonymous": false,
      "inputs": [
        {
          "indexed": true,
          "internalType": "contract IERC20",
          "name": "token",
          "type": "address"
        },
        {
          "indexed": true,
          "internalType": "address",
          "name": "from",
          "type": "address"
        },
        {
          "indexed": true,
          "internalType": "address",
          "name": "to",
          "type": "address"
        },
        {
          "indexed": false,
          "internalType": "uint256",
          "name": "amount",
          "type": "uint256"
        },
        {
          "indexed": false,
          "internalType": "uint256",
          "name": "share",
          "type": "uint256"
        }
      ],
      "name": "LogDeposit",
      "type": "event"
    },
    {
      "anonymous": false,
      "inputs": [
        {
          "indexed": true,
          "internalType": "address",
          "name": "borrower",
          "type": "address"
        },
        {
          "indexed": true,
          "internalType": "contract IERC20",
          "name": "token",
          "type": "address"
        },
        {
          "indexed": false,
          "internalType": "uint256",
          "name": "amount",
          "type": "uint256"
        },
        {
          "indexed": false,
          "internalType": "uint256",
          "name": "feeAmount",
          "type": "uint256"
        },
        {
          "indexed": true,
          "internalType": "address",
          "name": "receiver",
          "type": "address"
        }
      ],
      "name": "LogFlashLoan",
      "type": "event"
    },
    {
      "anonymous": false,
      "inputs": [
        {
          "indexed": true,
          "internalType": "address",
          "name": "protocol",
          "type": "address"
        }
      ],
      "name": "LogRegisterProtocol",
      "type": "event"
    },
    {
      "anonymous": false,
      "inputs": [
        {
          "indexed": true,
          "internalType": "address",
          "name": "masterContract",
          "type": "address"
        },
        {
          "indexed": true,
          "internalType": "address",
          "name": "user",
          "type": "address"
        },
        {
          "indexed": false,
          "internalType": "bool",
          "name": "approved",
          "type": "bool"
        }
      ],
      "name": "LogSetMasterContractApproval",
      "type": "event"
    },
    {
      "anonymous": false,
      "inputs": [
        {
          "indexed": true,
          "internalType": "contract IERC20",
          "name": "token",
          "type": "address"
        },
        {
          "indexed": false,
          "internalType": "uint256",
          "name": "amount",
          "type": "uint256"
        }
      ],
      "name": "LogStrategyDivest",
      "type": "event"
    },
    {
      "anonymous": false,
      "inputs": [
        {
          "indexed": true,
          "internalType": "contract IERC20",
          "name": "token",
          "type": "address"
        },
        {
          "indexed": false,
          "internalType": "uint256",
          "name": "amount",
          "type": "uint256"
        }
      ],
      "name": "LogStrategyInvest",
      "type": "event"
    },
    {
      "anonymous": false,
      "inputs": [
        {
          "indexed": true,
          "internalType": "contract IERC20",
          "name": "token",
          "type": "address"
        },
        {
          "indexed": false,
          "internalType": "uint256",
          "name": "amount",
          "type": "uint256"
        }
      ],
      "name": "LogStrategyLoss",
      "type": "event"
    },
    {
      "anonymous": false,
      "inputs": [
        {
          "indexed": true,
          "internalType": "contract IERC20",
          "name": "token",
          "type": "address"
        },
        {
          "indexed": false,
          "internalType": "uint256",
          "name": "amount",
          "type": "uint256"
        }
      ],
      "name": "LogStrategyProfit",
      "type": "event"
    },
    {
      "anonymous": false,
      "inputs": [
        {
          "indexed": true,
          "internalType": "contract IERC20",
          "name": "token",
          "type": "address"
        },
        {
          "indexed": true,
          "internalType": "contract IStrategy",
          "name": "strategy",
          "type": "address"
        }
      ],
      "name": "LogStrategyQueued",
      "type": "event"
    },
    {
      "anonymous": false,
      "inputs": [
        {
          "indexed": true,
          "internalType": "contract IERC20",
          "name": "token",
          "type": "address"
        },
        {
          "indexed": true,
          "internalType": "contract IStrategy",
          "name": "strategy",
          "type": "address"
        }
      ],
      "name": "LogStrategySet",
      "type": "event"
    },
    {
      "anonymous": false,
      "inputs": [
        {
          "indexed": true,
          "internalType": "contract IERC20",
          "name": "token",
          "type": "address"
        },
        {
          "indexed": false,
          "internalType": "uint256",
          "name": "targetPercentage",
          "type": "uint256"
        }
      ],
      "name": "LogStrategyTargetPercentage",
      "type": "event"
    },
    {
      "anonymous": false,
      "inputs": [
        {
          "indexed": true,
          "internalType": "contract IERC20",
          "name": "token",
          "type": "address"
        },
        {
          "indexed": true,
          "internalType": "address",
          "name": "from",
          "type": "address"
        },
        {
          "indexed": true,
          "internalType": "address",
          "name": "to",
          "type": "address"
        },
        {
          "indexed": false,
          "internalType": "uint256",
          "name": "share",
          "type": "uint256"
        }
      ],
      "name": "LogTransfer",
      "type": "event"
    },
    {
      "anonymous": false,
      "inputs": [
        {
          "indexed": true,
          "internalType": "address",
          "name": "masterContract",
          "type": "address"
        },
        {
          "indexed": false,
          "internalType": "bool",
          "name": "approved",
          "type": "bool"
        }
      ],
      "name": "LogWhiteListMasterContract",
      "type": "event"
    },
    {
      "anonymous": false,
      "inputs": [
        {
          "indexed": true,
          "internalType": "contract IERC20",
          "name": "token",
          "type": "address"
        },
        {
          "indexed": true,
          "internalType": "address",
          "name": "from",
          "type": "address"
        },
        {
          "indexed": true,
          "internalType": "address",
          "name": "to",
          "type": "address"
        },
        {
          "indexed": false,
          "internalType": "uint256",
          "name": "amount",
          "type": "uint256"
        },
        {
          "indexed": false,
          "internalType": "uint256",
          "name": "share",
          "type": "uint256"
        }
      ],
      "name": "LogWithdraw",
      "type": "event"
    },
    {
      "anonymous": false,
      "inputs": [
        {
          "indexed": true,
          "internalType": "address",
          "name": "previousOwner",
          "type": "address"
        },
        {
          "indexed": true,
          "internalType": "address",
          "name": "newOwner",
          "type": "address"
        }
      ],
      "name": "OwnershipTransferred",
      "type": "event"
    },
    {
      "inputs": [],
      "name": "DOMAIN_SEPARATOR",
      "outputs": [
        {
          "internalType": "bytes32",
          "name": "",
          "type": "bytes32"
        }
      ],
      "stateMutability": "view",
      "type": "function"
    },
    {
      "inputs": [
        {
          "internalType": "contract IERC20",
          "name": "token",
          "type": "address"
        },
        {
          "internalType": "uint256",
          "name": "amount",
          "type": "uint256"
        }
      ],
      "name": "addProfit",
      "outputs": [],
      "stateMutability": "nonpayable",
      "type": "function"
    },
    {
      "inputs": [
        {
          "internalType": "contract IERC20",
          "name": "",
          "type": "address"
        },
        {
          "internalType": "address",
          "name": "",
          "type": "address"
        }
      ],
      "name": "balanceOf",
      "outputs": [
        {
          "internalType": "uint256",
          "name": "",
          "type": "uint256"
        }
      ],
      "stateMutability": "view",
      "type": "function"
    },
    {
      "inputs": [
        {
          "internalType": "bytes[]",
          "name": "calls",
          "type": "bytes[]"
        },
        {
          "internalType": "bool",
          "name": "revertOnFail",
          "type": "bool"
        }
      ],
      "name": "batch",
      "outputs": [
        {
          "internalType": "bool[]",
          "name": "successes",
          "type": "bool[]"
        },
        {
          "internalType": "bytes[]",
          "name": "results",
          "type": "bytes[]"
        }
      ],
      "stateMutability": "payable",
      "type": "function"
    },
    {
      "inputs": [
        {
          "internalType": "contract IBatchFlashBorrower",
          "name": "borrower",
          "type": "address"
        },
        {
          "internalType": "address[]",
          "name": "receivers",
          "type": "address[]"
        },
        {
          "internalType": "contract IERC20[]",
          "name": "tokens",
          "type": "address[]"
        },
        {
          "internalType": "uint256[]",
          "name": "amounts",
          "type": "uint256[]"
        },
        {
          "internalType": "bytes",
          "name": "data",
          "type": "bytes"
        }
      ],
      "name": "batchFlashLoan",
      "outputs": [],
      "stateMutability": "nonpayable",
      "type": "function"
    },
    {
      "inputs": [],
      "name": "claimOwnership",
      "outputs": [],
      "stateMutability": "nonpayable",
      "type": "function"
    },
    {
      "inputs": [
        {
          "internalType": "address",
          "name": "masterContract",
          "type": "address"
        },
        {
          "internalType": "bytes",
          "name": "data",
          "type": "bytes"
        },
        {
          "internalType": "bool",
          "name": "useCreate2",
          "type": "bool"
        }
      ],
      "name": "deploy",
      "outputs": [
        {
          "internalType": "address",
          "name": "cloneAddress",
          "type": "address"
        }
      ],
      "stateMutability": "payable",
      "type": "function"
    },
    {
      "inputs": [
        {
          "internalType": "contract IERC20",
          "name": "token_",
          "type": "address"
        },
        {
          "internalType": "address",
          "name": "from",
          "type": "address"
        },
        {
          "internalType": "address",
          "name": "to",
          "type": "address"
        },
        {
          "internalType": "uint256",
          "name": "amount",
          "type": "uint256"
        },
        {
          "internalType": "uint256",
          "name": "share",
          "type": "uint256"
        }
      ],
      "name": "deposit",
      "outputs": [
        {
          "internalType": "uint256",
          "name": "amountOut",
          "type": "uint256"
        },
        {
          "internalType": "uint256",
          "name": "shareOut",
          "type": "uint256"
        }
      ],
      "stateMutability": "payable",
      "type": "function"
    },
    {
      "inputs": [
        {
          "internalType": "contract IFlashBorrower",
          "name": "borrower",
          "type": "address"
        },
        {
          "internalType": "address",
          "name": "receiver",
          "type": "address"
        },
        {
          "internalType": "contract IERC20",
          "name": "token",
          "type": "address"
        },
        {
          "internalType": "uint256",
          "name": "amount",
          "type": "uint256"
        },
        {
          "internalType": "bytes",
          "name": "data",
          "type": "bytes"
        }
      ],
      "name": "flashLoan",
      "outputs": [],
      "stateMutability": "nonpayable",
      "type": "function"
    },
    {
      "inputs": [
        {
          "internalType": "contract IERC20",
          "name": "token",
          "type": "address"
        },
        {
          "internalType": "bool",
          "name": "balance",
          "type": "bool"
        },
        {
          "internalType": "uint256",
          "name": "maxChangeAmount",
          "type": "uint256"
        }
      ],
      "name": "harvest",
      "outputs": [],
      "stateMutability": "nonpayable",
      "type": "function"
    },
    {
      "inputs": [
        {
          "internalType": "address",
          "name": "",
          "type": "address"
        },
        {
          "internalType": "address",
          "name": "",
          "type": "address"
        }
      ],
      "name": "masterContractApproved",
      "outputs": [
        {
          "internalType": "bool",
          "name": "",
          "type": "bool"
        }
      ],
      "stateMutability": "view",
      "type": "function"
    },
    {
      "inputs": [
        {
          "internalType": "address",
          "name": "",
          "type": "address"
        }
      ],
      "name": "masterContractOf",
      "outputs": [
        {
          "internalType": "address",
          "name": "",
          "type": "address"
        }
      ],
      "stateMutability": "view",
      "type": "function"
    },
    {
      "inputs": [
        {
          "internalType": "address",
          "name": "",
          "type": "address"
        }
      ],
      "name": "nonces",
      "outputs": [
        {
          "internalType": "uint256",
          "name": "",
          "type": "uint256"
        }
      ],
      "stateMutability": "view",
      "type": "function"
    },
    {
      "inputs": [],
      "name": "owner",
      "outputs": [
        {
          "internalType": "address",
          "name": "",
          "type": "address"
        }
      ],
      "stateMutability": "view",
      "type": "function"
    },
    {
      "inputs": [],
      "name": "pendingOwner",
      "outputs": [
        {
          "internalType": "address",
          "name": "",
          "type": "address"
        }
      ],
      "stateMutability": "view",
      "type": "function"
    },
    {
      "inputs": [
        {
          "internalType": "contract IERC20",
          "name": "",
          "type": "address"
        }
      ],
      "name": "pendingStrategy",
      "outputs": [
        {
          "internalType": "contract IStrategy",
          "name": "",
          "type": "address"
        }
      ],
      "stateMutability": "view",
      "type": "function"
    },
    {
      "inputs": [
        {
          "internalType": "contract IERC20",
          "name": "token",
          "type": "address"
        },
        {
          "internalType": "address",
          "name": "from",
          "type": "address"
        },
        {
          "internalType": "address",
          "name": "to",
          "type": "address"
        },
        {
          "internalType": "uint256",
          "name": "amount",
          "type": "uint256"
        },
        {
          "internalType": "uint256",
          "name": "deadline",
          "type": "uint256"
        },
        {
          "internalType": "uint8",
          "name": "v",
          "type": "uint8"
        },
        {
          "internalType": "bytes32",
          "name": "r",
          "type": "bytes32"
        },
        {
          "internalType": "bytes32",
          "name": "s",
          "type": "bytes32"
        }
      ],
      "name": "permitToken",
      "outputs": [],
      "stateMutability": "nonpayable",
      "type": "function"
    },
    {
      "inputs": [],
      "name": "registerProtocol",
      "outputs": [],
      "stateMutability": "nonpayable",
      "type": "function"
    },
    {
      "inputs": [
        {
          "internalType": "address",
          "name": "user",
          "type": "address"
        },
        {
          "internalType": "address",
          "name": "masterContract",
          "type": "address"
        },
        {
          "internalType": "bool",
          "name": "approved",
          "type": "bool"
        },
        {
          "internalType": "uint8",
          "name": "v",
          "type": "uint8"
        },
        {
          "internalType": "bytes32",
          "name": "r",
          "type": "bytes32"
        },
        {
          "internalType": "bytes32",
          "name": "s",
          "type": "bytes32"
        }
      ],
      "name": "setMasterContractApproval",
      "outputs": [],
      "stateMutability": "nonpayable",
      "type": "function"
    },
    {
      "inputs": [
        {
          "internalType": "contract IERC20",
          "name": "token",
          "type": "address"
        },
        {
          "internalType": "contract IStrategy",
          "name": "newStrategy",
          "type": "address"
        }
      ],
      "name": "setStrategy",
      "outputs": [],
      "stateMutability": "nonpayable",
      "type": "function"
    },
    {
      "inputs": [
        {
          "internalType": "contract IERC20",
          "name": "token",
          "type": "address"
        },
        {
          "internalType": "uint64",
          "name": "targetPercentage_",
          "type": "uint64"
        }
      ],
      "name": "setStrategyTargetPercentage",
      "outputs": [],
      "stateMutability": "nonpayable",
      "type": "function"
    },
    {
      "inputs": [
        {
          "internalType": "contract IERC20",
          "name": "",
          "type": "address"
        }
      ],
      "name": "strategy",
      "outputs": [
        {
          "internalType": "contract IStrategy",
          "name": "",
          "type": "address"
        }
      ],
      "stateMutability": "view",
      "type": "function"
    },
    {
      "inputs": [
        {
          "internalType": "contract IERC20",
          "name": "",
          "type": "address"
        }
      ],
      "name": "strategyData",
      "outputs": [
        {
          "internalType": "uint64",
          "name": "strategyStartDate",
          "type": "uint64"
        },
        {
          "internalType": "uint64",
          "name": "targetPercentage",
          "type": "uint64"
        },
        {
          "internalType": "uint128",
          "name": "balance",
          "type": "uint128"
        }
      ],
      "stateMutability": "view",
      "type": "function"
    },
    {
      "inputs": [
        {
          "internalType": "contract IERC20",
          "name": "token",
          "type": "address"
        },
        {
          "internalType": "uint256",
          "name": "amount",
          "type": "uint256"
        }
      ],
      "name": "takeLoss",
      "outputs": [],
      "stateMutability": "nonpayable",
      "type": "function"
    },
    {
      "inputs": [
        {
          "internalType": "contract IERC20",
          "name": "token",
          "type": "address"
        },
        {
          "internalType": "uint256",
          "name": "share",
          "type": "uint256"
        },
        {
          "internalType": "bool",
          "name": "roundUp",
          "type": "bool"
        }
      ],
      "name": "toAmount",
      "outputs": [
        {
          "internalType": "uint256",
          "name": "amount",
          "type": "uint256"
        }
      ],
      "stateMutability": "view",
      "type": "function"
    },
    {
      "inputs": [
        {
          "internalType": "contract IERC20",
          "name": "token",
          "type": "address"
        },
        {
          "internalType": "uint256",
          "name": "amount",
          "type": "uint256"
        },
        {
          "internalType": "bool",
          "name": "roundUp",
          "type": "bool"
        }
      ],
      "name": "toShare",
      "outputs": [
        {
          "internalType": "uint256",
          "name": "share",
          "type": "uint256"
        }
      ],
      "stateMutability": "view",
      "type": "function"
    },
    {
      "inputs": [
        {
          "internalType": "contract IERC20",
          "name": "",
          "type": "address"
        }
      ],
      "name": "totals",
      "outputs": [
        {
          "internalType": "uint128",
          "name": "elastic",
          "type": "uint128"
        },
        {
          "internalType": "uint128",
          "name": "base",
          "type": "uint128"
        }
      ],
      "stateMutability": "view",
      "type": "function"
    },
    {
      "inputs": [
        {
          "internalType": "contract IERC20",
          "name": "token",
          "type": "address"
        },
        {
          "internalType": "address",
          "name": "from",
          "type": "address"
        },
        {
          "internalType": "address",
          "name": "to",
          "type": "address"
        },
        {
          "internalType": "uint256",
          "name": "share",
          "type": "uint256"
        }
      ],
      "name": "transfer",
      "outputs": [],
      "stateMutability": "nonpayable",
      "type": "function"
    },
    {
      "inputs": [
        {
          "internalType": "contract IERC20",
          "name": "token",
          "type": "address"
        },
        {
          "internalType": "address",
          "name": "from",
          "type": "address"
        },
        {
          "internalType": "address[]",
          "name": "tos",
          "type": "address[]"
        },
        {
          "internalType": "uint256[]",
          "name": "shares",
          "type": "uint256[]"
        }
      ],
      "name": "transferMultiple",
      "outputs": [],
      "stateMutability": "nonpayable",
      "type": "function"
    },
    {
      "inputs": [
        {
          "internalType": "address",
          "name": "newOwner",
          "type": "address"
        },
        {
          "internalType": "bool",
          "name": "direct",
          "type": "bool"
        },
        {
          "internalType": "bool",
          "name": "renounce",
          "type": "bool"
        }
      ],
      "name": "transferOwnership",
      "outputs": [],
      "stateMutability": "nonpayable",
      "type": "function"
    },
    {
      "inputs": [
        {
          "internalType": "address",
          "name": "masterContract",
          "type": "address"
        },
        {
          "internalType": "bool",
          "name": "approved",
          "type": "bool"
        }
      ],
      "name": "whitelistMasterContract",
      "outputs": [],
      "stateMutability": "nonpayable",
      "type": "function"
    },
    {
      "inputs": [
        {
          "internalType": "address",
          "name": "",
          "type": "address"
        }
      ],
      "name": "whitelistedMasterContracts",
      "outputs": [
        {
          "internalType": "bool",
          "name": "",
          "type": "bool"
        }
      ],
      "stateMutability": "view",
      "type": "function"
    },
    {
      "inputs": [
        {
          "internalType": "contract IERC20",
          "name": "token_",
          "type": "address"
        },
        {
          "internalType": "address",
          "name": "from",
          "type": "address"
        },
        {
          "internalType": "address",
          "name": "to",
          "type": "address"
        },
        {
          "internalType": "uint256",
          "name": "amount",
          "type": "uint256"
        },
        {
          "internalType": "uint256",
          "name": "share",
          "type": "uint256"
        }
      ],
      "name": "withdraw",
      "outputs": [
        {
          "internalType": "uint256",
          "name": "amountOut",
          "type": "uint256"
        },
        {
          "internalType": "uint256",
          "name": "shareOut",
          "type": "uint256"
        }
      ],
      "stateMutability": "nonpayable",
      "type": "function"
    },
    {
      "stateMutability": "payable",
      "type": "receive"
    }
  ],
  "transactionHash": "0x97437bb5b107b578c5fb85a4975044db740618153305bd3e7e7252fdca939fc0",
  "args": [
    "0x9707BaC401B7c1A1b2a2D5180b8E37c200cC32B3"
  ],
  "numDeployments": 1,
  "solcInputHash": "a898604cefbf190335b010838e423346",
  "bytecode": "0x60e06040523480156200001157600080fd5b506040516200498638038062004986833981016040819052620000349162000117565b600080546001600160a01b0319163390811782556040518392907f8be0079c531659141344cd1fd0a4f28419497f9722a3daafe3b4186f6b6457e0908290a34660a081905262000084816200009f565b6080525060601b6001600160601b03191660c052506200016b565b60007f8cad95687ba82c2ce50e74f7b754645e5117c3a5bec8151c0726d5857980a8667fd7df266aff736d415a9dc14b4158201d612e70d75b9c7f4e375ccfd20aa5166f8330604051602001620000fa949392919062000147565b604051602081830303815290604052805190602001209050919050565b60006020828403121562000129578081fd5b81516001600160a01b038116811462000140578182fd5b9392505050565b938452602084019290925260408301526001600160a01b0316606082015260800190565b60805160a05160c05160601c6147dc620001aa6000398061072b52806109f85280611f9852806121795250806110d052508061110552506147dc6000f3fe6080604052600436106102025760003560e01c80637c516e941161011d578063c0a47c93116100b0578063e30c39781161007f578063f18d03cc11610064578063f18d03cc146105db578063f483b3da146105fb578063f7888aec1461061b57610209565b8063e30c3978146105a6578063f1676d37146105bb57610209565b8063c0a47c9314610516578063d2423b5114610536578063da5139ca14610557578063df23b45b1461057757610209565b806397da6d30116100ec57806397da6d30146104a15780639a7a4b5d146104c1578063aee4d1b2146104e1578063bafe4f14146104f657610209565b80637c516e941461042c5780637ecebe001461044c5780638da5cb5b1461046c57806391e0eab51461048157610209565b80633e2a9d4e11610195578063566231181161016457806356623118146103ac57806366c6bb0b146103cc57806372cb5d97146103ec578063733a9d7c1461040c57610209565b80633e2a9d4e146103295780634e71e0c8146103495780634ffe34db1461035e5780635108a5581461038c57610209565b80631583d56c116101d15780631583d56c146102a75780631f54245b146102c7578063228bfd9f146102e75780633644e5151461030757610209565b806302b9446c1461020e578063078dfbe7146102385780630fca88431461025a57806312a90c8a1461027a57610209565b3661020957005b600080fd5b61022161021c3660046138cd565b61063b565b60405161022f9291906146af565b60405180910390f35b34801561024457600080fd5b50610258610253366004613681565b610aff565b005b34801561026657600080fd5b506102586102753660046139a8565b610be5565b34801561028657600080fd5b5061029a610295366004613594565b610e96565b60405161022f9190613f7d565b3480156102b357600080fd5b506102586102c2366004613a7a565b610eab565b6102da6102d53660046136cb565b610ee2565b60405161022f9190613d2f565b3480156102f357600080fd5b506102da610302366004613594565b6110b0565b34801561031357600080fd5b5061031c6110cb565b60405161022f9190613f88565b34801561033557600080fd5b50610258610344366004613adb565b61112b565b34801561035557600080fd5b506102586111fd565b34801561036a57600080fd5b5061037e610379366004613594565b61128a565b60405161022f929190614695565b34801561039857600080fd5b506102da6103a7366004613594565b6112b0565b3480156103b857600080fd5b5061031c6103c7366004613aa5565b6112cb565b3480156103d857600080fd5b506102586103e7366004613a3a565b61131f565b3480156103f857600080fd5b5061025861040736600461386b565b6118f0565b34801561041857600080fd5b50610258610427366004613654565b611d58565b34801561043857600080fd5b50610258610447366004613927565b611dfc565b34801561045857600080fd5b5061031c610467366004613594565b611e70565b34801561047857600080fd5b506102da611e82565b34801561048d57600080fd5b5061029a61049c3660046135b0565b611e91565b3480156104ad57600080fd5b506102216104bc3660046138cd565b611eb1565b3480156104cd57600080fd5b506102586104dc366004613a7a565b6122c5565b3480156104ed57600080fd5b506102586122fb565b34801561050257600080fd5b506102da610511366004613594565b612342565b34801561052257600080fd5b506102586105313660046135e8565b61235d565b610549610544366004613731565b61266c565b60405161022f929190613ee3565b34801561056357600080fd5b5061031c610572366004613aa5565b6127fe565b34801561058357600080fd5b50610597610592366004613594565b61284a565b60405161022f939291906146d2565b3480156105b257600080fd5b506102da612884565b3480156105c757600080fd5b506102586105d6366004613b14565b612893565b3480156105e757600080fd5b506102586105f636600461387d565b6129e4565b34801561060757600080fd5b50610258610616366004613797565b612b88565b34801561062757600080fd5b5061031c61063636600461386b565b612e49565b600080856001600160a01b038116331480159061066157506001600160a01b0381163014155b156106ec57336000908152600260205260409020546001600160a01b0316806106a55760405162461bcd60e51b815260040161069c906144ab565b60405180910390fd5b6001600160a01b0380821660009081526003602090815260408083209386168352929052205460ff166106ea5760405162461bcd60e51b815260040161069c9061432e565b505b6001600160a01b0386166107125760405162461bcd60e51b815260040161069c9061428b565b60006001600160a01b03891615610729578861074b565b7f00000000000000000000000000000000000000000000000000000000000000005b90506107556134b8565b506001600160a01b0381166000908152600760209081526040918290208251808401909352546001600160801b03808216808552600160801b909204169183019190915215158061081657506000826001600160a01b03166318160ddd6040518163ffffffff1660e01b815260040160206040518083038186803b1580156107dc57600080fd5b505afa1580156107f0573d6000803e3d6000fd5b505050506040513d601f19601f820116820180604052508101906108149190613b85565b115b6108325760405162461bcd60e51b815260040161069c906141af565b8561088a5761084381886000612e66565b95506103e861086861085488612f00565b60208401516001600160801b031690612f2d565b6001600160801b0316101561088557600080945094505050610af4565b610899565b61089681876001612f62565b96505b6001600160a01b038916301415806108b857506001600160a01b038a16155b806108e0575080516108dc906001600160801b03166108d684612fe1565b90613089565b8711155b6108fc5760405162461bcd60e51b815260040161069c90614065565b6001600160a01b038083166000908152600660209081526040808320938c168352929052205461092c90876130ac565b6001600160a01b038084166000908152600660209081526040808320938d168352929052205561097261095e87612f00565b60208301516001600160801b031690612f2d565b6001600160801b0316602082015261099d61098c88612f00565b82516001600160801b031690612f2d565b6001600160801b0390811682526001600160a01b03808416600090815260076020908152604090912084518154928601518516600160801b029085166001600160801b031990931692909217909316179091558a16610a6f577f00000000000000000000000000000000000000000000000000000000000000006001600160a01b031663d0e30db0886040518263ffffffff1660e01b81526004016000604051808303818588803b158015610a5157600080fd5b505af1158015610a65573d6000803e3d6000fd5b5050505050610a94565b6001600160a01b0389163014610a9457610a946001600160a01b0383168a308a6130cf565b876001600160a01b0316896001600160a01b0316836001600160a01b03167fb2346165e782564f17f5b7e555c21f4fd96fbc93458572bf0113ea35a958fc558a8a604051610ae39291906146af565b60405180910390a486945085935050505b509550959350505050565b6000546001600160a01b03163314610b295760405162461bcd60e51b815260040161069c906142f9565b8115610bc4576001600160a01b038316151580610b435750805b610b5f5760405162461bcd60e51b815260040161069c90614178565b600080546040516001600160a01b03808716939216917f8be0079c531659141344cd1fd0a4f28419497f9722a3daafe3b4186f6b6457e091a3600080546001600160a01b0385166001600160a01b031991821617909155600180549091169055610be0565b600180546001600160a01b0319166001600160a01b0385161790555b505050565b846001600160a01b0381163314801590610c0857506001600160a01b0381163014155b15610c8a57336000908152600260205260409020546001600160a01b031680610c435760405162461bcd60e51b815260040161069c906144ab565b6001600160a01b0380821660009081526003602090815260408083209386168352929052205460ff16610c885760405162461bcd60e51b815260040161069c9061432e565b505b600085858281610c9657fe5b9050602002016020810190610cab9190613594565b6001600160a01b03161415610cd25760405162461bcd60e51b815260040161069c90614254565b600084815b81811015610e2e576000888883818110610ced57fe5b9050602002016020810190610d029190613594565b9050610d71878784818110610d1357fe5b90506020020135600660008e6001600160a01b03166001600160a01b031681526020019081526020016000206000846001600160a01b03166001600160a01b03168152602001908152602001600020546130ac90919063ffffffff16565b6001600160a01b03808d16600090815260066020908152604080832093861683529290522055610dbc878784818110610da657fe5b90506020020135856130ac90919063ffffffff16565b9350806001600160a01b03168a6001600160a01b03168c6001600160a01b03167f6eabe333476233fd382224f233210cb808a7bc4c4de64f9d76628bf63c677b1a8a8a87818110610e0957fe5b90506020020135604051610e1d9190613f88565b60405180910390a450600101610cd7565b506001600160a01b03808a166000908152600660209081526040808320938c1683529290522054610e5f9083613089565b6001600160a01b03998a1660009081526006602090815260408083209b909c16825299909952989097209790975550505050505050565b60046020526000908152604090205460ff1681565b610ec06001600160a01b0383163330846130cf565b6001600160a01b0382166000908152600760205260409020610be090826131e0565b60006001600160a01b038516610f0a5760405162461bcd60e51b815260040161069c9061443f565b606085901b8215610f855760008585604051610f27929190613cd9565b604051809103902090506040517f3d602d80600a3d3981f3363d3d373d3d3d363d7300000000000000000000000081528260148201526e5af43d82803e903d91602b57fd5bf360881b6028820152816037826000f593505050610fd3565b6040517f3d602d80600a3d3981f3363d3d373d3d3d363d7300000000000000000000000081528160148201526e5af43d82803e903d91602b57fd5bf360881b60288201526037816000f09250505b6001600160a01b038281166000818152600260205260409081902080546001600160a01b031916938a16939093179092559051631377d1f560e21b8152634ddf47d49034906110289089908990600401614007565b6000604051808303818588803b15801561104157600080fd5b505af1158015611055573d6000803e3d6000fd5b5050505050816001600160a01b0316866001600160a01b03167fd62166f3c2149208e51788b1401cc356bf5da1fc6c7886a32e18570f57d88b3b878760405161109f929190614007565b60405180910390a350949350505050565b6008602052600090815260409020546001600160a01b031681565b6000467f00000000000000000000000000000000000000000000000000000000000000008114611103576110fe81613224565b611125565b7f00000000000000000000000000000000000000000000000000000000000000005b91505090565b6000546001600160a01b031633146111555760405162461bcd60e51b815260040161069c906142f9565b605f8167ffffffffffffffff1611156111805760405162461bcd60e51b815260040161069c9061462a565b6001600160a01b0382166000818152600a60205260409081902080546fffffffffffffffff00000000000000001916600160401b67ffffffffffffffff861602179055517f7543af99b5602c06e62da0631b5308489a5ff859150105a623b6eb15e8deae0b906111f19084906146bd565b60405180910390a25050565b6001546001600160a01b03163381146112285760405162461bcd60e51b815260040161069c90614365565b600080546040516001600160a01b03808516939216917f8be0079c531659141344cd1fd0a4f28419497f9722a3daafe3b4186f6b6457e091a3600080546001600160a01b039092166001600160a01b0319928316179055600180549091169055565b6007602052600090815260409020546001600160801b0380821691600160801b90041682565b6009602052600090815260409020546001600160a01b031681565b6001600160a01b03831660009081526007602090815260408083208151808301909252546001600160801b038082168352600160801b9091041691810191909152611317908484612f62565b949350505050565b6113276134cf565b506001600160a01b038381166000818152600a602090815260408083208151606081018352905467ffffffffffffffff8082168352600160401b82041682850152600160801b90046001600160801b031681830190815294845260089092528083205493519051630c7e663b60e11b81529194939093169283916318fccc76916113b5913390600401614673565b602060405180830381600087803b1580156113cf57600080fd5b505af11580156113e3573d6000803e3d6000fd5b505050506040513d601f19601f820116820180604052508101906114079190613b85565b905080158015611415575084155b1561142257505050610be0565b6001600160a01b0386166000908152600760205260408120546001600160801b0316908213156114d8578161145782826130ac565b915061146282612f00565b6001600160a01b0389166000818152600760205260409081902080546001600160801b0319166001600160801b03949094169390931790925590517f911c9f20a03edabcbcbd18dca1174cce47a91b234ced7a5a3c60ba0d5b56c5d2906114ca908490613f88565b60405180910390a2506115a6565b60008212156115a65760008290036114f08282613089565b91506114fb82612f00565b6001600160a01b038916600090815260076020526040902080546001600160801b0319166001600160801b039290921691909117905561155161153d82612f00565b60408701516001600160801b03169061329b565b6001600160801b0316604080870191909152516001600160a01b038916907f8f1f26eb9b6aa8689dbdd519ead1999d9c8819d4738e403b2003b18197d9cf979061159c908490613f88565b60405180910390a2505b851561186657600060646115d1866020015167ffffffffffffffff16846132ca90919063ffffffff16565b816115d857fe5b0490508085604001516001600160801b0316101561171357600061161286604001516001600160801b03168361308990919063ffffffff16565b9050861580159061162257508681115b1561162a5750855b61163e6001600160a01b038a168683613301565b61165e61164a82612f00565b60408801516001600160801b031690612f2d565b6001600160801b031660408088019190915251636939aaf560e01b81526001600160a01b03861690636939aaf59061169a908490600401613f88565b600060405180830381600087803b1580156116b457600080fd5b505af11580156116c8573d6000803e3d6000fd5b50505050886001600160a01b03167fb18e7e4f6eac147a63a3bb6beb2d9039c88698623aff3efc4febbc20b0164ee5826040516117059190613f88565b60405180910390a250611864565b8085604001516001600160801b0316111561186457600061174a61173683612f00565b60408801516001600160801b03169061329b565b6001600160801b03169050861580159061176357508681115b1561176b5750855b604051632e1a7d4d60e01b81526000906001600160a01b03871690632e1a7d4d9061179a908590600401613f88565b602060405180830381600087803b1580156117b457600080fd5b505af11580156117c8573d6000803e3d6000fd5b505050506040513d601f19601f820116820180604052508101906117ec9190613b85565b905061180e6117fa82612f00565b60408901516001600160801b03169061329b565b6001600160801b0316604080890191909152516001600160a01b038b16907f39aa22060f8dd4d291720311feedf3b72fef47c06c66ccf5c22b502c62e7550a90611859908490613f88565b60405180910390a250505b505b5050506001600160a01b0384166000908152600a6020908152604091829020835181549285015193909401516001600160801b03908116600160801b0267ffffffffffffffff948516600160401b026fffffffffffffffff0000000000000000199590961667ffffffffffffffff1990941693909317939093169390931791909116179055505050565b6000546001600160a01b0316331461191a5760405162461bcd60e51b815260040161069c906142f9565b6119226134cf565b506001600160a01b038281166000818152600a602090815260408083208151606081018352905467ffffffffffffffff8082168352600160401b8204811683860152600160801b9091046001600160801b0316828401529484526009909252909120548151919316911615806119aa5750826001600160a01b0316816001600160a01b031614155b15611a35576001600160a01b03848116600090815260096020526040902080546001600160a01b0319169185169190911790556119eb62127500420161340f565b67ffffffffffffffff1682526040516001600160a01b0380851691908616907f6f7ccdf3f86039e5a1dcf6028bf7b4773cbf7a234716ba2e5392b12bb0f8558f90600090a3611cd2565b815167ffffffffffffffff1615801590611a5a5750815167ffffffffffffffff164210155b611a765760405162461bcd60e51b815260040161069c906142c2565b6001600160a01b038481166000908152600860205260409020541615611c5b576001600160a01b0380851660009081526008602052604080822054858201519151637f8661a160e01b815292931691637f8661a191611ad79160040161465f565b602060405180830381600087803b158015611af157600080fd5b505af1158015611b05573d6000803e3d6000fd5b505050506040513d601f19601f82011682018060405250810190611b299190613b85565b90506000811315611ba0576001600160a01b03851660009081526007602052604090208190611b5890826131e0565b50856001600160a01b03167f911c9f20a03edabcbcbd18dca1174cce47a91b234ced7a5a3c60ba0d5b56c5d282604051611b929190613f88565b60405180910390a250611c14565b6000811215611c14576001600160a01b03851660009081526007602052604081209082900390611bd09082613439565b50856001600160a01b03167f8f1f26eb9b6aa8689dbdd519ead1999d9c8819d4738e403b2003b18197d9cf9782604051611c0a9190613f88565b60405180910390a2505b846001600160a01b03167f39aa22060f8dd4d291720311feedf3b72fef47c06c66ccf5c22b502c62e7550a8460400151604051611c51919061465f565b60405180910390a2505b6001600160a01b03808516600081815260086020908152604080832080548688166001600160a01b0319918216179091558388528782018490528484526009909252808320805490921690915551928616927f03e6352a885adc4cc54767592939c3b1bbd65685658c3beaaba66a888120e2179190a35b506001600160a01b03929092166000908152600a60209081526040918290208451815492860151939095015167ffffffffffffffff1990921667ffffffffffffffff958616176fffffffffffffffff00000000000000001916600160401b9590931694909402919091176001600160801b03908116600160801b91909216021790915550565b6000546001600160a01b03163314611d825760405162461bcd60e51b815260040161069c906142f9565b6001600160a01b038216611da85760405162461bcd60e51b815260040161069c9061409c565b6001600160a01b03821660008181526004602052604090819020805460ff1916841515179055517f31a1e0eac44b54ac6c2a2efa87e92c83405ffcf33fceef02a7bca695130e2600906111f1908490613f7d565b60405163d505accf60e01b81526001600160a01b0389169063d505accf90611e34908a908a908a908a908a908a908a90600401613e89565b600060405180830381600087803b158015611e4e57600080fd5b505af1158015611e62573d6000803e3d6000fd5b505050505050505050505050565b60056020526000908152604090205481565b6000546001600160a01b031681565b600360209081526000928352604080842090915290825290205460ff1681565b600080856001600160a01b0381163314801590611ed757506001600160a01b0381163014155b15611f5957336000908152600260205260409020546001600160a01b031680611f125760405162461bcd60e51b815260040161069c906144ab565b6001600160a01b0380821660009081526003602090815260408083209386168352929052205460ff16611f575760405162461bcd60e51b815260040161069c9061432e565b505b6001600160a01b038616611f7f5760405162461bcd60e51b815260040161069c9061428b565b60006001600160a01b03891615611f965788611fb8565b7f00000000000000000000000000000000000000000000000000000000000000005b9050611fc26134b8565b506001600160a01b0381166000908152600760209081526040918290208251808401909352546001600160801b038082168452600160801b90910416908201528561201a5761201381886001612e66565b9550612029565b61202681876000612f62565b96505b6001600160a01b038083166000908152600660209081526040808320938d16835292905220546120599087613089565b6001600160a01b038084166000908152600660209081526040808320938e168352929052205561209c61208b88612f00565b82516001600160801b03169061329b565b6001600160801b031681526120c76120b387612f00565b60208301516001600160801b03169061329b565b6001600160801b0316602082018190526103e81115806120f2575060208101516001600160801b0316155b61210e5760405162461bcd60e51b815260040161069c90614141565b6001600160a01b03828116600090815260076020908152604090912083518154928501516001600160801b03199093166001600160801b03918216178116600160801b91909316029190911790558a1661226257604051632e1a7d4d60e01b81526001600160a01b037f00000000000000000000000000000000000000000000000000000000000000001690632e1a7d4d906121ae908a90600401613f88565b600060405180830381600087803b1580156121c857600080fd5b505af11580156121dc573d6000803e3d6000fd5b505050506000886001600160a01b0316886040516121f990613d2c565b60006040518083038185875af1925050503d8060008114612236576040519150601f19603f3d011682016040523d82523d6000602084013e61223b565b606091505b505090508061225c5760405162461bcd60e51b815260040161069c906145bc565b50612276565b6122766001600160a01b0383168989613301565b876001600160a01b0316896001600160a01b0316836001600160a01b03167fad9ab9ee6953d4d177f4a03b3a3ac3178ffcb9816319f348060194aa76b144868a8a604051610ae39291906146af565b6122d96001600160a01b0383163383613301565b6001600160a01b0382166000908152600760205260409020610be09082613439565b3360008181526002602052604080822080546001600160a01b03191684179055517fdfb44ffabf0d3a8f650d3ce43eff98f6d050e7ea1a396d5794f014e7dadabacb9190a2565b6002602052600090815260409020546001600160a01b031681565b6001600160a01b0385166123835760405162461bcd60e51b815260040161069c90614474565b8115801561238f575080155b801561239c575060ff8316155b1561243e576001600160a01b03861633146123c95760405162461bcd60e51b815260040161069c906140d3565b6001600160a01b0386811660009081526002602052604090205416156124015760405162461bcd60e51b815260040161069c906143d1565b6001600160a01b03851660009081526004602052604090205460ff166124395760405162461bcd60e51b815260040161069c90614585565b6125f8565b6001600160a01b0386166124645760405162461bcd60e51b815260040161069c90614517565b600060405180604001604052806002815260200161190160f01b8152506124896110cb565b7f1962bc9f5484cb7a998701b81090e966ee1fce5771af884cceee7c081b14ade2876124d5577fb426802f1f7dc850a7b6b38805edea2442f3992878a9ab985abfe8091d95d0b16124f7565b7f422ac5323fe049241dee67716229a1cc1bc7b313b23dfe3ef6d42ab177a3b2845b6001600160a01b038b1660009081526005602090815260409182902080546001810190915591516125319493928e928e928e929101613f91565b6040516020818303038152906040528051906020012060405160200161255993929190613d05565b6040516020818303038152906040528051906020012090506000600182868686604051600081526020016040526040516125969493929190613fe9565b6020604051602081039080840390855afa1580156125b8573d6000803e3d6000fd5b505050602060405103519050876001600160a01b0316816001600160a01b0316146125f55760405162461bcd60e51b815260040161069c90614408565b50505b6001600160a01b038581166000818152600360209081526040808320948b168084529490915290819020805460ff1916881515179055517f5f6ebb64ba012a851c6f014e6cad458ddf213d1512049b31cd06365c2b0592579061265c908890613f7d565b60405180910390a3505050505050565b6060808367ffffffffffffffff8111801561268657600080fd5b506040519080825280602002602001820160405280156126b0578160200160208202803683370190505b5091508367ffffffffffffffff811180156126ca57600080fd5b506040519080825280602002602001820160405280156126fe57816020015b60608152602001906001900390816126e95790505b50905060005b848110156127f557600060603088888581811061271d57fe5b905060200281019061272f91906146ff565b60405161273d929190613cd9565b600060405180830381855af49150503d8060008114612778576040519150601f19603f3d011682016040523d82523d6000602084013e61277d565b606091505b5091509150818061278c575085155b61279582613458565b906127b35760405162461bcd60e51b815260040161069c919061401b565b50818584815181106127c157fe5b602002602001019015159081151581525050808484815181106127e057fe5b60209081029190910101525050600101612704565b50935093915050565b6001600160a01b03831660009081526007602090815260408083208151808301909252546001600160801b038082168352600160801b9091041691810191909152611317908484612e66565b600a6020526000908152604090205467ffffffffffffffff80821691600160401b810490911690600160801b90046001600160801b031683565b6001546001600160a01b031681565b6000620186a06128a48560326132ca565b816128ab57fe5b0490506128c26001600160a01b0386168786613301565b6040516323e30c8b60e01b81526001600160a01b038816906323e30c8b906128f89033908990899087908a908a90600401613e20565b600060405180830381600087803b15801561291257600080fd5b505af1158015612926573d6000803e3d6000fd5b5050505061295d61293682612f00565b6001600160a01b0387166000908152600760205260409020906001600160801b03166131e0565b61296686612fe1565b10156129845760405162461bcd60e51b815260040161069c9061454e565b856001600160a01b0316856001600160a01b0316886001600160a01b03167f3be9b85936d5d30a1655ea116a17ee3d827b2cd428cc026ce5bf2ac46a22320487856040516129d39291906146af565b60405180910390a450505050505050565b826001600160a01b0381163314801590612a0757506001600160a01b0381163014155b15612a8957336000908152600260205260409020546001600160a01b031680612a425760405162461bcd60e51b815260040161069c906144ab565b6001600160a01b0380821660009081526003602090815260408083209386168352929052205460ff16612a875760405162461bcd60e51b815260040161069c9061432e565b505b6001600160a01b038316612aaf5760405162461bcd60e51b815260040161069c9061428b565b6001600160a01b03808616600090815260066020908152604080832093881683529290522054612adf9083613089565b6001600160a01b03868116600090815260066020908152604080832089851684529091528082209390935590851681522054612b1b90836130ac565b6001600160a01b0380871660008181526006602090815260408083208986168085529252918290209490945551918716917f6eabe333476233fd382224f233210cb808a7bc4c4de64f9d76628bf63c677b1a90612b79908790613f88565b60405180910390a45050505050565b60608567ffffffffffffffff81118015612ba157600080fd5b50604051908082528060200260200182016040528015612bcb578160200160208202803683370190505b5090508560005b81811015612c9a576000878783818110612be857fe5b905060200201359050620186a0612c096032836132ca90919063ffffffff16565b81612c1057fe5b04848381518110612c1d57fe5b602002602001018181525050612c918c8c84818110612c3857fe5b9050602002016020810190612c4d9190613594565b898985818110612c5957fe5b905060200201358c8c86818110612c6c57fe5b9050602002016020810190612c819190613594565b6001600160a01b03169190613301565b50600101612bd2565b5060405163d9d1762360e01b81526001600160a01b038c169063d9d1762390612cd59033908c908c908c908c908a908d908d90600401613d43565b600060405180830381600087803b158015612cef57600080fd5b505af1158015612d03573d6000803e3d6000fd5b5050505060005b81811015611e62576000898983818110612d2057fe5b9050602002016020810190612d359190613594565b9050612d7d612d56858481518110612d4957fe5b6020026020010151612f00565b6001600160a01b0383166000908152600760205260409020906001600160801b03166131e0565b612d8682612fe1565b1015612da45760405162461bcd60e51b815260040161069c9061454e565b8b8b83818110612db057fe5b9050602002016020810190612dc59190613594565b6001600160a01b0316816001600160a01b03168e6001600160a01b03167f3be9b85936d5d30a1655ea116a17ee3d827b2cd428cc026ce5bf2ac46a2232048b8b87818110612e0f57fe5b90506020020135888781518110612e2257fe5b6020026020010151604051612e389291906146af565b60405180910390a450600101612d0a565b600660209081526000928352604080842090915290825290205481565b82516000906001600160801b0316612e7f575081612ef9565b835160208501516001600160801b0391821691612e9e918691166132ca565b81612ea557fe5b049050818015612ee957508284602001516001600160801b0316612edf86600001516001600160801b0316846132ca90919063ffffffff16565b81612ee657fe5b04105b15612ef9576113178160016130ac565b9392505050565b60006001600160801b03821115612f295760405162461bcd60e51b815260040161069c906141e6565b5090565b8181016001600160801b038083169082161015612f5c5760405162461bcd60e51b815260040161069c9061421d565b92915050565b600083602001516001600160801b031660001415612f81575081612ef9565b602084015184516001600160801b0391821691612fa0918691166132ca565b81612fa757fe5b049050818015612ee957508284600001516001600160801b0316612edf86602001516001600160801b0316846132ca90919063ffffffff16565b6001600160a01b0381166000818152600a60205260408082205490516370a0823160e01b81529192612f5c92600160801b9092046001600160801b0316916370a0823190613033903090600401613d2f565b60206040518083038186803b15801561304b57600080fd5b505afa15801561305f573d6000803e3d6000fd5b505050506040513d601f19601f820116820180604052508101906130839190613b85565b906130ac565b80820382811115612f5c5760405162461bcd60e51b815260040161069c9061402e565b81810181811015612f5c5760405162461bcd60e51b815260040161069c9061421d565b60006060856001600160a01b03166323b872dd60e01b8686866040516024016130fa93929190613e65565b60408051601f198184030181529181526020820180516001600160e01b03167fffffffff000000000000000000000000000000000000000000000000000000009094169390931790925290516131509190613ce9565b6000604051808303816000865af19150503d806000811461318d576040519150601f19603f3d011682016040523d82523d6000602084013e613192565b606091505b50915091508180156131bc5750805115806131bc5750808060200190518101906131bc919061377b565b6131d85760405162461bcd60e51b815260040161069c906144e2565b505050505050565b60006131ff6131ee83612f00565b84546001600160801b031690612f2d565b83546001600160801b0319166001600160801b03919091169081179093555090919050565b60007f8cad95687ba82c2ce50e74f7b754645e5117c3a5bec8151c0726d5857980a8667fd7df266aff736d415a9dc14b4158201d612e70d75b9c7f4e375ccfd20aa5166f833060405160200161327d9493929190613fc5565b6040516020818303038152906040528051906020012090505b919050565b8082036001600160801b038084169082161115612f5c5760405162461bcd60e51b815260040161069c9061402e565b60008115806132e5575050808202828282816132e257fe5b04145b612f5c5760405162461bcd60e51b815260040161069c906145f3565b60006060846001600160a01b031663a9059cbb60e01b858560405160240161332a929190613eca565b60408051601f198184030181529181526020820180516001600160e01b03167fffffffff000000000000000000000000000000000000000000000000000000009094169390931790925290516133809190613ce9565b6000604051808303816000865af19150503d80600081146133bd576040519150601f19603f3d011682016040523d82523d6000602084013e6133c2565b606091505b50915091508180156133ec5750805115806133ec5750808060200190518101906133ec919061377b565b6134085760405162461bcd60e51b815260040161069c9061410a565b5050505050565b600067ffffffffffffffff821115612f295760405162461bcd60e51b815260040161069c9061439a565b60006131ff61344783612f00565b84546001600160801b03169061329b565b606060448251101561349e575060408051808201909152601d81527f5472616e73616374696f6e2072657665727465642073696c656e746c790000006020820152613296565b60048201915081806020019051810190612f5c9190613b9d565b604080518082019091526000808252602082015290565b604080516060810182526000808252602082018190529181019190915290565b60008083601f840112613500578182fd5b50813567ffffffffffffffff811115613517578182fd5b602083019150836020808302850101111561353157600080fd5b9250929050565b60008083601f840112613549578182fd5b50813567ffffffffffffffff811115613560578182fd5b60208301915083602082850101111561353157600080fd5b8035612f5c81614780565b803560ff81168114612f5c57600080fd5b6000602082840312156135a5578081fd5b8135612ef981614780565b600080604083850312156135c2578081fd5b82356135cd81614780565b915060208301356135dd81614780565b809150509250929050565b60008060008060008060c08789031215613600578182fd5b863561360b81614780565b9550602087013561361b81614780565b9450604087013561362b81614798565b935061363a8860608901613583565b92506080870135915060a087013590509295509295509295565b60008060408385031215613666578182fd5b823561367181614780565b915060208301356135dd81614798565b600080600060608486031215613695578283fd5b83356136a081614780565b925060208401356136b081614798565b915060408401356136c081614798565b809150509250925092565b600080600080606085870312156136e0578384fd5b84356136eb81614780565b9350602085013567ffffffffffffffff811115613706578384fd5b61371287828801613538565b909450925050604085013561372681614798565b939692955090935050565b600080600060408486031215613745578081fd5b833567ffffffffffffffff81111561375b578182fd5b613767868287016134ef565b90945092505060208401356136c081614798565b60006020828403121561378c578081fd5b8151612ef981614798565b600080600080600080600080600060a08a8c0312156137b4578687fd5b89356137bf81614780565b985060208a013567ffffffffffffffff808211156137db578889fd5b6137e78d838e016134ef565b909a50985060408c01359150808211156137ff578485fd5b61380b8d838e016134ef565b909850965060608c0135915080821115613823578485fd5b61382f8d838e016134ef565b909650945060808c0135915080821115613847578384fd5b506138548c828d01613538565b915080935050809150509295985092959850929598565b600080604083850312156135c2578182fd5b60008060008060808587031215613892578182fd5b843561389d81614780565b935060208501356138ad81614780565b925060408501356138bd81614780565b9396929550929360600135925050565b600080600080600060a086880312156138e4578283fd5b85356138ef81614780565b945060208601356138ff81614780565b9350604086013561390f81614780565b94979396509394606081013594506080013592915050565b600080600080600080600080610100898b031215613943578182fd5b883561394e81614780565b9750602089013561395e81614780565b9650604089013561396e81614780565b9550606089013594506080890135935061398b8a60a08b01613583565b925060c0890135915060e089013590509295985092959890939650565b600080600080600080608087890312156139c0578384fd5b86356139cb81614780565b955060208701356139db81614780565b9450604087013567ffffffffffffffff808211156139f7578586fd5b613a038a838b016134ef565b90965094506060890135915080821115613a1b578384fd5b50613a2889828a016134ef565b979a9699509497509295939492505050565b600080600060608486031215613a4e578081fd5b8335613a5981614780565b92506020840135613a6981614798565b929592945050506040919091013590565b60008060408385031215613a8c578182fd5b8235613a9781614780565b946020939093013593505050565b600080600060608486031215613ab9578081fd5b8335613ac481614780565b92506020840135915060408401356136c081614798565b60008060408385031215613aed578182fd5b8235613af881614780565b9150602083013567ffffffffffffffff811681146135dd578182fd5b60008060008060008060a08789031215613b2c578384fd5b8635613b3781614780565b95506020870135613b4781614780565b94506040870135613b5781614780565b935060608701359250608087013567ffffffffffffffff811115613b79578283fd5b613a2889828a01613538565b600060208284031215613b96578081fd5b5051919050565b600060208284031215613bae578081fd5b815167ffffffffffffffff80821115613bc5578283fd5b818401915084601f830112613bd8578283fd5b815181811115613be6578384fd5b604051601f8201601f191681016020018381118282101715613c06578586fd5b604052818152838201602001871015613c1d578485fd5b613c2e826020830160208701614750565b9695505050505050565b6001600160a01b0316815260200190565b6000815180845260208085019450808401835b83811015613c7857815187529582019590820190600101613c5c565b509495945050505050565b60008284528282602086013780602084860101526020601f19601f85011685010190509392505050565b60008151808452613cc5816020860160208601614750565b601f01601f19169290920160200192915050565b6000828483379101908152919050565b60008251613cfb818460208701614750565b9190910192915050565b60008451613d17818460208901614750565b91909101928352506020820152604001919050565b90565b6001600160a01b0391909116815260200190565b600060a082016001600160a01b038b168352602060a08185015281613d688b84613f88565b90508b9250835b8b811015613d9a57828401613d8d83613d888388613578565b613c38565b9094509150600101613d6f565b508481036040860152613dad8982613f88565b9250507f07ffffffffffffffffffffffffffffffffffffffffffffffffffffffffffffff881115613ddc578283fd5b8702613de981838b614744565b018281036060840152613dfc8187613c49565b90508281036080840152613e11818587613c83565b9b9a5050505050505050505050565b60006001600160a01b03808916835280881660208401525085604083015284606083015260a06080830152613e5960a083018486613c83565b98975050505050505050565b6001600160a01b039384168152919092166020820152604081019190915260600190565b6001600160a01b0397881681529590961660208601526040850193909352606084019190915260ff16608083015260a082015260c081019190915260e00190565b6001600160a01b03929092168252602082015260400190565b604080825283519082018190526000906020906060840190828701845b82811015613f1e578151151584529284019290840190600101613f00565b50505083810382850152808551613f358184613f88565b91508192508381028201848801865b83811015613f6e578583038552613f5c838351613cad565b94870194925090860190600101613f44565b50909998505050505050505050565b901515815260200190565b90815260200190565b95865260208601949094526001600160a01b039283166040860152911660608401521515608083015260a082015260c00190565b938452602084019290925260408301526001600160a01b0316606082015260800190565b93845260ff9290921660208401526040830152606082015260800190565b600060208252611317602083018486613c83565b600060208252612ef96020830184613cad565b60208082526015908201527f426f72696e674d6174683a20556e646572666c6f770000000000000000000000604082015260600190565b60208082526017908201527f42656e746f426f783a20536b696d20746f6f206d756368000000000000000000604082015260600190565b6020808252601c908201527f4d6173746572434d67723a2043616e6e6f7420617070726f7665203000000000604082015260600190565b6020808252601b908201527f4d6173746572434d67723a2075736572206e6f742073656e6465720000000000604082015260600190565b6020808252601c908201527f426f72696e6745524332303a205472616e73666572206661696c656400000000604082015260600190565b60208082526016908201527f42656e746f426f783a2063616e6e6f7420656d70747900000000000000000000604082015260600190565b60208082526015908201527f4f776e61626c653a207a65726f20616464726573730000000000000000000000604082015260600190565b60208082526013908201527f42656e746f426f783a204e6f20746f6b656e7300000000000000000000000000604082015260600190565b6020808252601c908201527f426f72696e674d6174683a2075696e74313238204f766572666c6f7700000000604082015260600190565b60208082526018908201527f426f72696e674d6174683a20416464204f766572666c6f770000000000000000604082015260600190565b60208082526017908201527f42656e746f426f783a20746f5b305d206e6f7420736574000000000000000000604082015260600190565b60208082526014908201527f42656e746f426f783a20746f206e6f7420736574000000000000000000000000604082015260600190565b6020808252601a908201527f53747261746567794d616e616765723a20546f6f206561726c79000000000000604082015260600190565b6020808252818101527f4f776e61626c653a2063616c6c6572206973206e6f7420746865206f776e6572604082015260600190565b6020808252601f908201527f42656e746f426f783a205472616e73666572206e6f7420617070726f76656400604082015260600190565b6020808252818101527f4f776e61626c653a2063616c6c657220213d2070656e64696e67206f776e6572604082015260600190565b6020808252601b908201527f426f72696e674d6174683a2075696e743634204f766572666c6f770000000000604082015260600190565b60208082526019908201527f4d6173746572434d67723a207573657220697320636c6f6e6500000000000000604082015260600190565b6020808252601d908201527f4d6173746572434d67723a20496e76616c6964205369676e6174757265000000604082015260600190565b6020808252818101527f426f72696e67466163746f72793a204e6f206d6173746572436f6e7472616374604082015260600190565b6020808252601b908201527f4d6173746572434d67723a206d617374657243206e6f74207365740000000000604082015260600190565b6020808252601b908201527f42656e746f426f783a206e6f206d6173746572436f6e74726163740000000000604082015260600190565b6020808252818101527f426f72696e6745524332303a205472616e7366657246726f6d206661696c6564604082015260600190565b6020808252601c908201527f4d6173746572434d67723a20557365722063616e6e6f74206265203000000000604082015260600190565b60208082526016908201527f42656e746f426f783a2057726f6e6720616d6f756e7400000000000000000000604082015260600190565b6020808252601b908201527f4d6173746572434d67723a206e6f742077686974656c69737465640000000000604082015260600190565b6020808252601d908201527f42656e746f426f783a20455448207472616e73666572206661696c6564000000604082015260600190565b60208082526018908201527f426f72696e674d6174683a204d756c204f766572666c6f770000000000000000604082015260600190565b6020808252818101527f53747261746567794d616e616765723a2054617267657420746f6f2068696768604082015260600190565b6001600160801b0391909116815260200190565b6001600160801b039290921682526001600160a01b0316602082015260400190565b6001600160801b0392831681529116602082015260400190565b918252602082015260400190565b67ffffffffffffffff91909116815260200190565b67ffffffffffffffff93841681529190921660208201526001600160801b03909116604082015260600190565b6000808335601e19843603018112614715578283fd5b83018035915067ffffffffffffffff82111561472f578283fd5b60200191503681900382131561353157600080fd5b82818337506000910152565b60005b8381101561476b578181015183820152602001614753565b8381111561477a576000848401525b50505050565b6001600160a01b038116811461479557600080fd5b50565b801515811461479557600080fdfea264697066735822122033debe754f1ed688b235094b40024432b6c4f4617da97af712333887859440c864736f6c634300060c0033",
  "devdoc": {
    "kind": "dev",
    "methods": {
      "batch(bytes[],bool)": {
        "params": {
          "calls": "An array of inputs for each call.",
          "revertOnFail": "If True then reverts after a failed call and stops doing further calls."
        },
        "returns": {
          "results": "An array with the returned data of each function call, mapped one-to-one to `calls`.",
          "successes": "An array indicating the success of a call, mapped one-to-one to `calls`."
        }
      },
      "batchFlashLoan(address,address[],address[],uint256[],bytes)": {
        "params": {
          "amounts": "of the tokens for each receiver.",
          "borrower": "The address of the contract that implements and conforms to `IBatchFlashBorrower` and handles the flashloan.",
          "data": "The calldata to pass to the `borrower` contract.",
          "receivers": "An array of the token receivers. A one-to-one mapping with `tokens` and `amounts`.",
          "tokens": "The addresses of the tokens."
        }
      },
      "deploy(address,bytes,bool)": {
        "params": {
          "data": "Additional abi encoded calldata that is passed to the new clone via `IMasterContract.init`.",
          "masterContract": "The address of the contract to clone.",
          "useCreate2": "Creates the clone by using the CREATE2 opcode, in this case `data` will be used as salt."
        },
        "returns": {
          "cloneAddress": "Address of the created clone contract."
        }
      },
      "deposit(address,address,address,uint256,uint256)": {
        "params": {
          "amount": "Token amount in native representation to deposit.",
          "from": "which account to pull the tokens.",
          "share": "Token amount represented in shares to deposit. Takes precedence over `amount`.",
          "to": "which account to push the tokens.",
          "token_": "The ERC-20 token to deposit."
        },
        "returns": {
          "amountOut": "The amount deposited.",
          "shareOut": "The deposited amount repesented in shares."
        }
      },
      "flashLoan(address,address,address,uint256,bytes)": {
        "params": {
          "amount": "of the tokens to receive.",
          "borrower": "The address of the contract that implements and conforms to `IFlashBorrower` and handles the flashloan.",
          "data": "The calldata to pass to the `borrower` contract.",
          "receiver": "Address of the token receiver.",
          "token": "The address of the token to receive."
        }
      },
      "harvest(address,bool,uint256)": {
        "params": {
          "balance": "True if housekeeping should be done.",
          "maxChangeAmount": "The maximum amount for either pulling or pushing from/to the `IStrategy` contract.",
          "token": "The address of the token for which a strategy is deployed."
        }
      },
      "setMasterContractApproval(address,address,bool,uint8,bytes32,bytes32)": {
        "params": {
          "approved": "If True approves access. If False revokes access.",
          "masterContract": "The address who gains or loses access.",
          "r": "Part of the signature. (See EIP-191)",
          "s": "Part of the signature. (See EIP-191)",
          "user": "The address of the user that approves or revokes access.",
          "v": "Part of the signature. (See EIP-191)"
        }
      },
      "setStrategy(address,address)": {
        "details": "Only the owner of this contract is allowed to change this.",
        "params": {
          "newStrategy": "The address of the contract that conforms to `IStrategy`.",
          "token": "The address of the token that maps to a strategy to change."
        }
      },
      "setStrategyTargetPercentage(address,uint64)": {
        "details": "Only the owner of this contract is allowed to change this.",
        "params": {
          "targetPercentage_": "The new target in percent. Must be lesser or equal to `MAX_TARGET_PERCENTAGE`.",
          "token": "The address of the token that maps to a strategy to change."
        }
      },
      "toAmount(address,uint256,bool)": {
        "details": "Helper function represent shares back into the `token` amount.",
        "params": {
          "roundUp": "If the result should be rounded up.",
          "share": "The amount of shares.",
          "token": "The ERC-20 token."
        },
        "returns": {
          "amount": "The share amount back into native representation."
        }
      },
      "toShare(address,uint256,bool)": {
        "details": "Helper function to represent an `amount` of `token` in shares.",
        "params": {
          "amount": "The `token` amount.",
          "roundUp": "If the result `share` should be rounded up.",
          "token": "The ERC-20 token."
        },
        "returns": {
          "share": "The token amount represented in shares."
        }
      },
      "transfer(address,address,address,uint256)": {
        "params": {
          "from": "which user to pull the tokens.",
          "share": "The amount of `token` in shares.",
          "to": "which user to push the tokens.",
          "token": "The ERC-20 token to transfer."
        }
      },
      "transferMultiple(address,address,address[],uint256[])": {
        "params": {
          "from": "which user to pull the tokens.",
          "shares": "The amount of `token` in shares for each receiver in `tos`.",
          "token": "The ERC-20 token to transfer.",
          "tos": "The receivers of the tokens."
        }
      },
      "transferOwnership(address,bool,bool)": {
        "params": {
          "direct": "True if `newOwner` should be set immediately. False if `newOwner` needs to use `claimOwnership`.",
          "newOwner": "Address of the new owner.",
          "renounce": "Allows the `newOwner` to be `address(0)` if `direct` and `renounce` is True. Has no effect otherwise."
        }
      },
      "withdraw(address,address,address,uint256,uint256)": {
        "params": {
          "amount": "of tokens. Either one of `amount` or `share` needs to be supplied.",
          "from": "which user to pull the tokens.",
          "share": "Like above, but `share` takes precedence over `amount`.",
          "to": "which user to push the tokens.",
          "token_": "The ERC-20 token to withdraw."
        }
      }
    },
    "version": 1
  },
  "userdoc": {
    "kind": "user",
    "methods": {
      "batch(bytes[],bool)": {
        "notice": "Allows batched call to self (this contract)."
      },
      "batchFlashLoan(address,address[],address[],uint256[],bytes)": {
        "notice": "Support for batched flashloans. Useful to request multiple different `tokens` in a single transaction."
      },
      "claimOwnership()": {
        "notice": "Needs to be called by `pendingOwner` to claim ownership."
      },
      "deploy(address,bytes,bool)": {
        "notice": "Deploys a given master Contract as a clone. Any ETH transferred with this call is forwarded to the new clone. Emits `LogDeploy`."
      },
      "deposit(address,address,address,uint256,uint256)": {
        "notice": "Deposit an amount of `token` represented in either `amount` or `share`."
      },
      "flashLoan(address,address,address,uint256,bytes)": {
        "notice": "Flashloan ability."
      },
      "harvest(address,bool,uint256)": {
        "notice": "The actual process of yield farming. Executes the strategy of `token`. Optionally does housekeeping if `balance` is true. `maxChangeAmount` is relevant for skimming or withdrawing if `balance` is true."
      },
      "masterContractApproved(address,address)": {
        "notice": "masterContract to user to approval state"
      },
      "masterContractOf(address)": {
        "notice": "Mapping from clone contracts to their masterContract."
      },
      "nonces(address)": {
        "notice": "user nonces for masterContract approvals"
      },
      "permitToken(address,address,address,uint256,uint256,uint8,bytes32,bytes32)": {
        "notice": "Call wrapper that performs `ERC20.permit` on `token`. Lookup `IERC20.permit`."
      },
      "registerProtocol()": {
        "notice": "Other contracts need to register with this master contract so that users can approve them for the BentoBox."
      },
      "setMasterContractApproval(address,address,bool,uint8,bytes32,bytes32)": {
        "notice": "Approves or revokes a `masterContract` access to `user` funds."
      },
      "setStrategy(address,address)": {
        "notice": "Sets the contract address of a new strategy that conforms to `IStrategy` for `token`. Must be called twice with the same arguments. A new strategy becomes pending first and can be activated once `STRATEGY_DELAY` is over."
      },
      "setStrategyTargetPercentage(address,uint64)": {
        "notice": "Sets the target percentage of the strategy for `token`."
      },
      "transfer(address,address,address,uint256)": {
        "notice": "Transfer shares from a user account to another one."
      },
      "transferMultiple(address,address,address[],uint256[])": {
        "notice": "Transfer shares from a user account to multiple other ones."
      },
      "transferOwnership(address,bool,bool)": {
        "notice": "Transfers ownership to `newOwner`. Either directly or claimable by the new pending owner. Can only be invoked by the current `owner`."
      },
      "whitelistMasterContract(address,bool)": {
        "notice": "Enables or disables a contract for approval without signed message."
      },
      "whitelistedMasterContracts(address)": {
        "notice": "masterContract to whitelisted state for approval without signed message"
      },
      "withdraw(address,address,address,uint256,uint256)": {
        "notice": "Withdraws an amount of `token` from a user account."
      }
    },
    "version": 1
  },
  "storageLayout": {
    "storage": [
      {
        "astId": 900,
        "contract": "contracts/mocks/BentoBoxMock.sol:BentoBoxMock",
        "label": "owner",
        "offset": 0,
        "slot": "0",
        "type": "t_address"
      },
      {
        "astId": 902,
        "contract": "contracts/mocks/BentoBoxMock.sol:BentoBoxMock",
        "label": "pendingOwner",
        "offset": 0,
        "slot": "1",
        "type": "t_address"
      },
      {
        "astId": 1046,
        "contract": "contracts/mocks/BentoBoxMock.sol:BentoBoxMock",
        "label": "masterContractOf",
        "offset": 0,
        "slot": "2",
        "type": "t_mapping(t_address,t_address)"
      },
      {
        "astId": 1140,
        "contract": "contracts/mocks/BentoBoxMock.sol:BentoBoxMock",
        "label": "masterContractApproved",
        "offset": 0,
        "slot": "3",
        "type": "t_mapping(t_address,t_mapping(t_address,t_bool))"
      },
      {
        "astId": 1145,
        "contract": "contracts/mocks/BentoBoxMock.sol:BentoBoxMock",
        "label": "whitelistedMasterContracts",
        "offset": 0,
        "slot": "4",
        "type": "t_mapping(t_address,t_bool)"
      },
      {
        "astId": 1150,
        "contract": "contracts/mocks/BentoBoxMock.sol:BentoBoxMock",
        "label": "nonces",
        "offset": 0,
        "slot": "5",
        "type": "t_mapping(t_address,t_uint256)"
      },
      {
        "astId": 1701,
        "contract": "contracts/mocks/BentoBoxMock.sol:BentoBoxMock",
        "label": "balanceOf",
        "offset": 0,
        "slot": "6",
        "type": "t_mapping(t_contract(IERC20)67,t_mapping(t_address,t_uint256))"
      },
      {
        "astId": 1705,
        "contract": "contracts/mocks/BentoBoxMock.sol:BentoBoxMock",
        "label": "totals",
        "offset": 0,
        "slot": "7",
        "type": "t_mapping(t_contract(IERC20)67,t_struct(Rebase)550_storage)"
      },
      {
        "astId": 1709,
        "contract": "contracts/mocks/BentoBoxMock.sol:BentoBoxMock",
        "label": "strategy",
        "offset": 0,
        "slot": "8",
        "type": "t_mapping(t_contract(IERC20)67,t_contract(IStrategy)142)"
      },
      {
        "astId": 1713,
        "contract": "contracts/mocks/BentoBoxMock.sol:BentoBoxMock",
        "label": "pendingStrategy",
        "offset": 0,
        "slot": "9",
        "type": "t_mapping(t_contract(IERC20)67,t_contract(IStrategy)142)"
      },
      {
        "astId": 1717,
        "contract": "contracts/mocks/BentoBoxMock.sol:BentoBoxMock",
        "label": "strategyData",
        "offset": 0,
        "slot": "10",
        "type": "t_mapping(t_contract(IERC20)67,t_struct(StrategyData)1673_storage)"
      }
    ],
    "types": {
      "t_address": {
        "encoding": "inplace",
        "label": "address",
        "numberOfBytes": "20"
      },
      "t_bool": {
        "encoding": "inplace",
        "label": "bool",
        "numberOfBytes": "1"
      },
      "t_contract(IERC20)67": {
        "encoding": "inplace",
        "label": "contract IERC20",
        "numberOfBytes": "20"
      },
      "t_contract(IStrategy)142": {
        "encoding": "inplace",
        "label": "contract IStrategy",
        "numberOfBytes": "20"
      },
      "t_mapping(t_address,t_address)": {
        "encoding": "mapping",
        "key": "t_address",
        "label": "mapping(address => address)",
        "numberOfBytes": "32",
        "value": "t_address"
      },
      "t_mapping(t_address,t_bool)": {
        "encoding": "mapping",
        "key": "t_address",
        "label": "mapping(address => bool)",
        "numberOfBytes": "32",
        "value": "t_bool"
      },
      "t_mapping(t_address,t_mapping(t_address,t_bool))": {
        "encoding": "mapping",
        "key": "t_address",
        "label": "mapping(address => mapping(address => bool))",
        "numberOfBytes": "32",
        "value": "t_mapping(t_address,t_bool)"
      },
      "t_mapping(t_address,t_uint256)": {
        "encoding": "mapping",
        "key": "t_address",
        "label": "mapping(address => uint256)",
        "numberOfBytes": "32",
        "value": "t_uint256"
      },
      "t_mapping(t_contract(IERC20)67,t_contract(IStrategy)142)": {
        "encoding": "mapping",
        "key": "t_contract(IERC20)67",
        "label": "mapping(contract IERC20 => contract IStrategy)",
        "numberOfBytes": "32",
        "value": "t_contract(IStrategy)142"
      },
      "t_mapping(t_contract(IERC20)67,t_mapping(t_address,t_uint256))": {
        "encoding": "mapping",
        "key": "t_contract(IERC20)67",
        "label": "mapping(contract IERC20 => mapping(address => uint256))",
        "numberOfBytes": "32",
        "value": "t_mapping(t_address,t_uint256)"
      },
      "t_mapping(t_contract(IERC20)67,t_struct(Rebase)550_storage)": {
        "encoding": "mapping",
        "key": "t_contract(IERC20)67",
        "label": "mapping(contract IERC20 => struct Rebase)",
        "numberOfBytes": "32",
        "value": "t_struct(Rebase)550_storage"
      },
      "t_mapping(t_contract(IERC20)67,t_struct(StrategyData)1673_storage)": {
        "encoding": "mapping",
        "key": "t_contract(IERC20)67",
        "label": "mapping(contract IERC20 => struct BentoBoxV1.StrategyData)",
        "numberOfBytes": "32",
        "value": "t_struct(StrategyData)1673_storage"
      },
      "t_struct(Rebase)550_storage": {
        "encoding": "inplace",
        "label": "struct Rebase",
        "members": [
          {
            "astId": 547,
            "contract": "contracts/mocks/BentoBoxMock.sol:BentoBoxMock",
            "label": "elastic",
            "offset": 0,
            "slot": "0",
            "type": "t_uint128"
          },
          {
            "astId": 549,
            "contract": "contracts/mocks/BentoBoxMock.sol:BentoBoxMock",
            "label": "base",
            "offset": 16,
            "slot": "0",
            "type": "t_uint128"
          }
        ],
        "numberOfBytes": "32"
      },
      "t_struct(StrategyData)1673_storage": {
        "encoding": "inplace",
        "label": "struct BentoBoxV1.StrategyData",
        "members": [
          {
            "astId": 1668,
            "contract": "contracts/mocks/BentoBoxMock.sol:BentoBoxMock",
            "label": "strategyStartDate",
            "offset": 0,
            "slot": "0",
            "type": "t_uint64"
          },
          {
            "astId": 1670,
            "contract": "contracts/mocks/BentoBoxMock.sol:BentoBoxMock",
            "label": "targetPercentage",
            "offset": 8,
            "slot": "0",
            "type": "t_uint64"
          },
          {
            "astId": 1672,
            "contract": "contracts/mocks/BentoBoxMock.sol:BentoBoxMock",
            "label": "balance",
            "offset": 16,
            "slot": "0",
            "type": "t_uint128"
          }
        ],
        "numberOfBytes": "32"
      },
      "t_uint128": {
        "encoding": "inplace",
        "label": "uint128",
        "numberOfBytes": "16"
      },
      "t_uint256": {
        "encoding": "inplace",
        "label": "uint256",
        "numberOfBytes": "32"
      },
      "t_uint64": {
        "encoding": "inplace",
        "label": "uint64",
        "numberOfBytes": "8"
      }
    }
  }
}