{
  "address": "0xf1e655063Ca5f86b022eB61a49aB1BB87f68228a",
  "abi": [
    {
      "inputs": [
        {
          "internalType": "contract IBentoBoxV1",
          "name": "bentoBox_",
          "type": "address"
        }
      ],
      "stateMutability": "nonpayable",
      "type": "constructor"
    },
    {
      "anonymous": false,
      "inputs": [
        {
          "indexed": true,
          "internalType": "address",
          "name": "newFeeTo",
          "type": "address"
        }
      ],
      "name": "LogFeeTo",
      "type": "event"
    },
    {
      "anonymous": false,
      "inputs": [
        {
          "indexed": true,
          "internalType": "address",
          "name": "lender",
          "type": "address"
        },
        {
          "indexed": true,
          "internalType": "address",
          "name": "borrower",
          "type": "address"
        },
        {
          "indexed": true,
          "internalType": "uint256",
          "name": "tokenId",
          "type": "uint256"
        },
        {
          "components": [
            {
              "internalType": "uint128",
              "name": "valuation",
              "type": "uint128"
            },
            {
              "internalType": "uint64",
              "name": "duration",
              "type": "uint64"
            },
            {
              "internalType": "uint16",
              "name": "annualInterestBPS",
              "type": "uint16"
            }
          ],
          "indexed": false,
          "internalType": "struct TokenLoanParams",
          "name": "params",
          "type": "tuple"
        }
      ],
      "name": "LogLend",
      "type": "event"
    },
    {
      "anonymous": false,
      "inputs": [
        {
          "indexed": true,
          "internalType": "uint256",
          "name": "tokenId",
          "type": "uint256"
        },
        {
          "indexed": false,
          "internalType": "address",
          "name": "recipient",
          "type": "address"
        }
      ],
      "name": "LogRemoveCollateral",
      "type": "event"
    },
    {
      "anonymous": false,
      "inputs": [
        {
          "indexed": true,
          "internalType": "address",
          "name": "from",
          "type": "address"
        },
        {
          "indexed": true,
          "internalType": "uint256",
          "name": "tokenId",
          "type": "uint256"
        }
      ],
      "name": "LogRepay",
      "type": "event"
    },
    {
      "anonymous": false,
      "inputs": [
        {
          "indexed": true,
          "internalType": "address",
          "name": "borrower",
          "type": "address"
        },
        {
          "indexed": true,
          "internalType": "uint256",
          "name": "tokenId",
          "type": "uint256"
        },
        {
          "components": [
            {
              "internalType": "uint128",
              "name": "valuation",
              "type": "uint128"
            },
            {
              "internalType": "uint64",
              "name": "duration",
              "type": "uint64"
            },
            {
              "internalType": "uint16",
              "name": "annualInterestBPS",
              "type": "uint16"
            }
          ],
          "indexed": false,
          "internalType": "struct TokenLoanParams",
          "name": "params",
          "type": "tuple"
        }
      ],
      "name": "LogRequestLoan",
      "type": "event"
    },
    {
      "anonymous": false,
      "inputs": [
        {
          "indexed": true,
          "internalType": "uint256",
          "name": "tokenId",
          "type": "uint256"
        },
        {
          "components": [
            {
              "internalType": "uint128",
              "name": "valuation",
              "type": "uint128"
            },
            {
              "internalType": "uint64",
              "name": "duration",
              "type": "uint64"
            },
            {
              "internalType": "uint16",
              "name": "annualInterestBPS",
              "type": "uint16"
            }
          ],
          "indexed": false,
          "internalType": "struct TokenLoanParams",
          "name": "params",
          "type": "tuple"
        }
      ],
      "name": "LogUpdateLoanParams",
      "type": "event"
    },
    {
      "anonymous": false,
      "inputs": [
        {
          "indexed": true,
          "internalType": "address",
          "name": "feeTo",
          "type": "address"
        },
        {
          "indexed": false,
          "internalType": "uint256",
          "name": "feeShare",
          "type": "uint256"
        }
      ],
      "name": "LogWithdrawFees",
      "type": "event"
    },
    {
      "anonymous": false,
      "inputs": [
        {
          "indexed": true,
          "internalType": "address",
          "name": "previousOwner",
          "type": "address"
        },
        {
          "indexed": true,
          "internalType": "address",
          "name": "newOwner",
          "type": "address"
        }
      ],
      "name": "OwnershipTransferred",
      "type": "event"
    },
    {
      "inputs": [],
      "name": "DOMAIN_SEPARATOR",
      "outputs": [
        {
          "internalType": "bytes32",
          "name": "",
          "type": "bytes32"
        }
      ],
      "stateMutability": "view",
      "type": "function"
    },
    {
      "inputs": [],
      "name": "asset",
      "outputs": [
        {
          "internalType": "contract IERC20",
          "name": "",
          "type": "address"
        }
      ],
      "stateMutability": "view",
      "type": "function"
    },
    {
      "inputs": [],
      "name": "bentoBox",
      "outputs": [
        {
          "internalType": "contract IBentoBoxV1",
          "name": "",
          "type": "address"
        }
      ],
      "stateMutability": "view",
      "type": "function"
    },
    {
      "inputs": [
        {
          "internalType": "uint256",
          "name": "principal",
          "type": "uint256"
        },
        {
          "internalType": "uint64",
          "name": "t",
          "type": "uint64"
        },
        {
          "internalType": "uint16",
          "name": "aprBPS",
          "type": "uint16"
        }
      ],
      "name": "calculateInterest",
      "outputs": [
        {
          "internalType": "uint256",
          "name": "interest",
          "type": "uint256"
        }
      ],
      "stateMutability": "pure",
      "type": "function"
    },
    {
      "inputs": [],
      "name": "claimOwnership",
      "outputs": [],
      "stateMutability": "nonpayable",
      "type": "function"
    },
    {
      "inputs": [],
      "name": "collateral",
      "outputs": [
        {
          "internalType": "contract IERC721",
          "name": "",
          "type": "address"
        }
      ],
      "stateMutability": "view",
      "type": "function"
    },
    {
      "inputs": [
        {
          "internalType": "uint8[]",
          "name": "actions",
          "type": "uint8[]"
        },
        {
          "internalType": "uint256[]",
          "name": "values",
          "type": "uint256[]"
        },
        {
          "internalType": "bytes[]",
          "name": "datas",
          "type": "bytes[]"
        }
      ],
      "name": "cook",
      "outputs": [
        {
          "internalType": "uint256",
          "name": "value1",
          "type": "uint256"
        },
        {
          "internalType": "uint256",
          "name": "value2",
          "type": "uint256"
        }
      ],
      "stateMutability": "payable",
      "type": "function"
    },
    {
      "inputs": [
        {
          "internalType": "address",
          "name": "",
          "type": "address"
        }
      ],
      "name": "currentBatchIds",
      "outputs": [
        {
          "internalType": "uint256",
          "name": "",
          "type": "uint256"
        }
      ],
      "stateMutability": "view",
      "type": "function"
    },
    {
      "inputs": [],
      "name": "feeTo",
      "outputs": [
        {
          "internalType": "address",
          "name": "",
          "type": "address"
        }
      ],
      "stateMutability": "view",
      "type": "function"
    },
    {
      "inputs": [],
      "name": "feesEarnedShare",
      "outputs": [
        {
          "internalType": "uint256",
          "name": "",
          "type": "uint256"
        }
      ],
      "stateMutability": "view",
      "type": "function"
    },
    {
      "inputs": [
        {
          "internalType": "uint256",
          "name": "tokenId",
          "type": "uint256"
        },
        {
          "internalType": "uint256",
          "name": "price",
          "type": "uint256"
        },
        {
          "internalType": "contract INFTSeller",
          "name": "seller",
          "type": "address"
        },
        {
          "internalType": "address",
          "name": "excessRecipient",
          "type": "address"
        },
        {
          "internalType": "bool",
          "name": "skimShortage",
          "type": "bool"
        }
      ],
      "name": "flashRepay",
      "outputs": [],
      "stateMutability": "nonpayable",
      "type": "function"
    },
    {
      "inputs": [
        {
          "internalType": "uint256",
          "name": "tokenId",
          "type": "uint256"
        },
        {
          "internalType": "address",
          "name": "lender",
          "type": "address"
        },
        {
          "internalType": "address",
          "name": "borrower",
          "type": "address"
        },
        {
          "components": [
            {
              "internalType": "uint128",
              "name": "valuation",
              "type": "uint128"
            },
            {
              "internalType": "uint64",
              "name": "duration",
              "type": "uint64"
            },
            {
              "internalType": "uint16",
              "name": "annualInterestBPS",
              "type": "uint16"
            }
          ],
          "internalType": "struct TokenLoanParams",
          "name": "params",
          "type": "tuple"
        },
        {
          "internalType": "bool",
          "name": "anyTokenId",
          "type": "bool"
        },
        {
          "components": [
            {
              "internalType": "uint256",
              "name": "deadline",
              "type": "uint256"
            },
            {
              "internalType": "uint8",
              "name": "v",
              "type": "uint8"
            },
            {
              "internalType": "bytes32",
              "name": "r",
              "type": "bytes32"
            },
            {
              "internalType": "bytes32",
              "name": "s",
              "type": "bytes32"
            }
          ],
          "internalType": "struct SignatureParams",
          "name": "signature",
          "type": "tuple"
        },
        {
          "internalType": "uint256",
          "name": "price",
          "type": "uint256"
        },
        {
          "internalType": "contract INFTBuyer",
          "name": "buyer",
          "type": "address"
        },
        {
          "internalType": "bool",
          "name": "skimShortage",
          "type": "bool"
        }
      ],
      "name": "flashRequestAndBorrow",
      "outputs": [],
      "stateMutability": "nonpayable",
      "type": "function"
    },
    {
      "inputs": [
        {
          "internalType": "bytes",
          "name": "data",
          "type": "bytes"
        }
      ],
      "name": "init",
      "outputs": [],
      "stateMutability": "payable",
      "type": "function"
    },
    {
      "inputs": [
        {
          "internalType": "uint256",
          "name": "tokenId",
          "type": "uint256"
        },
        {
          "components": [
            {
              "internalType": "uint128",
              "name": "valuation",
              "type": "uint128"
            },
            {
              "internalType": "uint64",
              "name": "duration",
              "type": "uint64"
            },
            {
              "internalType": "uint16",
              "name": "annualInterestBPS",
              "type": "uint16"
            }
          ],
          "internalType": "struct TokenLoanParams",
          "name": "accepted",
          "type": "tuple"
        },
        {
          "internalType": "bool",
          "name": "skim",
          "type": "bool"
        }
      ],
      "name": "lend",
      "outputs": [],
      "stateMutability": "nonpayable",
      "type": "function"
    },
    {
      "inputs": [],
      "name": "masterContract",
      "outputs": [
        {
          "internalType": "contract NFTPair",
          "name": "",
          "type": "address"
        }
      ],
      "stateMutability": "view",
      "type": "function"
    },
    {
      "inputs": [],
      "name": "owner",
      "outputs": [
        {
          "internalType": "address",
          "name": "",
          "type": "address"
        }
      ],
      "stateMutability": "view",
      "type": "function"
    },
    {
      "inputs": [],
      "name": "pendingOwner",
      "outputs": [
        {
          "internalType": "address",
          "name": "",
          "type": "address"
        }
      ],
      "stateMutability": "view",
      "type": "function"
    },
    {
      "inputs": [
        {
          "internalType": "uint256",
          "name": "tokenId",
          "type": "uint256"
        },
        {
          "internalType": "address",
          "name": "to",
          "type": "address"
        }
      ],
      "name": "removeCollateral",
      "outputs": [],
      "stateMutability": "nonpayable",
      "type": "function"
    },
    {
      "inputs": [
        {
          "internalType": "uint256",
          "name": "tokenId",
          "type": "uint256"
        },
        {
          "internalType": "uint256",
          "name": "principal",
          "type": "uint256"
        },
        {
          "internalType": "address",
          "name": "to",
          "type": "address"
        },
        {
          "internalType": "bool",
          "name": "skim",
          "type": "bool"
        }
      ],
      "name": "repay",
      "outputs": [],
      "stateMutability": "nonpayable",
      "type": "function"
    },
    {
      "inputs": [
        {
          "internalType": "uint256",
          "name": "tokenId",
          "type": "uint256"
        },
        {
          "internalType": "address",
          "name": "lender",
          "type": "address"
        },
        {
          "internalType": "address",
          "name": "borrower",
          "type": "address"
        },
        {
          "components": [
            {
              "internalType": "uint128",
              "name": "valuation",
              "type": "uint128"
            },
            {
              "internalType": "uint64",
              "name": "duration",
              "type": "uint64"
            },
            {
              "internalType": "uint16",
              "name": "annualInterestBPS",
              "type": "uint16"
            }
          ],
          "internalType": "struct TokenLoanParams",
          "name": "params",
          "type": "tuple"
        },
        {
          "internalType": "bool",
          "name": "skimCollateral",
          "type": "bool"
        },
        {
          "internalType": "bool",
          "name": "anyTokenId",
          "type": "bool"
        },
        {
          "components": [
            {
              "internalType": "uint256",
              "name": "deadline",
              "type": "uint256"
            },
            {
              "internalType": "uint8",
              "name": "v",
              "type": "uint8"
            },
            {
              "internalType": "bytes32",
              "name": "r",
              "type": "bytes32"
            },
            {
              "internalType": "bytes32",
              "name": "s",
              "type": "bytes32"
            }
          ],
          "internalType": "struct SignatureParams",
          "name": "signature",
          "type": "tuple"
        }
      ],
      "name": "requestAndBorrow",
      "outputs": [],
      "stateMutability": "nonpayable",
      "type": "function"
    },
    {
      "inputs": [
        {
          "internalType": "uint256",
          "name": "tokenId",
          "type": "uint256"
        },
        {
          "components": [
            {
              "internalType": "uint128",
              "name": "valuation",
              "type": "uint128"
            },
            {
              "internalType": "uint64",
              "name": "duration",
              "type": "uint64"
            },
            {
              "internalType": "uint16",
              "name": "annualInterestBPS",
              "type": "uint16"
            }
          ],
          "internalType": "struct TokenLoanParams",
          "name": "params",
          "type": "tuple"
        },
        {
          "internalType": "address",
          "name": "to",
          "type": "address"
        },
        {
          "internalType": "bool",
          "name": "skim",
          "type": "bool"
        }
      ],
      "name": "requestLoan",
      "outputs": [],
      "stateMutability": "nonpayable",
      "type": "function"
    },
    {
      "inputs": [
        {
          "internalType": "address",
          "name": "newFeeTo",
          "type": "address"
        }
      ],
      "name": "setFeeTo",
      "outputs": [],
      "stateMutability": "nonpayable",
      "type": "function"
    },
    {
      "inputs": [
        {
          "internalType": "uint256",
          "name": "tokenId",
          "type": "uint256"
        },
        {
          "internalType": "address",
          "name": "borrower",
          "type": "address"
        },
        {
          "components": [
            {
              "internalType": "uint128",
              "name": "valuation",
              "type": "uint128"
            },
            {
              "internalType": "uint64",
              "name": "duration",
              "type": "uint64"
            },
            {
              "internalType": "uint16",
              "name": "annualInterestBPS",
              "type": "uint16"
            }
          ],
          "internalType": "struct TokenLoanParams",
          "name": "params",
          "type": "tuple"
        },
        {
          "internalType": "bool",
          "name": "skimFunds",
          "type": "bool"
        },
        {
          "components": [
            {
              "internalType": "uint256",
              "name": "deadline",
              "type": "uint256"
            },
            {
              "internalType": "uint8",
              "name": "v",
              "type": "uint8"
            },
            {
              "internalType": "bytes32",
              "name": "r",
              "type": "bytes32"
            },
            {
              "internalType": "bytes32",
              "name": "s",
              "type": "bytes32"
            }
          ],
          "internalType": "struct SignatureParams",
          "name": "signature",
          "type": "tuple"
        }
      ],
      "name": "takeCollateralAndLend",
      "outputs": [],
      "stateMutability": "nonpayable",
      "type": "function"
    },
    {
      "inputs": [
        {
          "internalType": "uint256",
          "name": "",
          "type": "uint256"
        }
      ],
      "name": "tokenLoan",
      "outputs": [
        {
          "internalType": "address",
          "name": "borrower",
          "type": "address"
        },
        {
          "internalType": "address",
          "name": "lender",
          "type": "address"
        },
        {
          "internalType": "uint64",
          "name": "startTime",
          "type": "uint64"
        },
        {
          "internalType": "uint8",
          "name": "status",
          "type": "uint8"
        }
      ],
      "stateMutability": "view",
      "type": "function"
    },
    {
      "inputs": [
        {
          "internalType": "uint256",
          "name": "",
          "type": "uint256"
        }
      ],
      "name": "tokenLoanParams",
      "outputs": [
        {
          "internalType": "uint128",
          "name": "valuation",
          "type": "uint128"
        },
        {
          "internalType": "uint64",
          "name": "duration",
          "type": "uint64"
        },
        {
          "internalType": "uint16",
          "name": "annualInterestBPS",
          "type": "uint16"
        }
      ],
      "stateMutability": "view",
      "type": "function"
    },
    {
      "inputs": [
        {
          "internalType": "address",
          "name": "newOwner",
          "type": "address"
        },
        {
          "internalType": "bool",
          "name": "direct",
          "type": "bool"
        },
        {
          "internalType": "bool",
          "name": "renounce",
          "type": "bool"
        }
      ],
      "name": "transferOwnership",
      "outputs": [],
      "stateMutability": "nonpayable",
      "type": "function"
    },
    {
      "inputs": [
        {
          "internalType": "uint256",
          "name": "tokenId",
          "type": "uint256"
        },
        {
          "components": [
            {
              "internalType": "uint128",
              "name": "valuation",
              "type": "uint128"
            },
            {
              "internalType": "uint64",
              "name": "duration",
              "type": "uint64"
            },
            {
              "internalType": "uint16",
              "name": "annualInterestBPS",
              "type": "uint16"
            }
          ],
          "internalType": "struct TokenLoanParams",
          "name": "params",
          "type": "tuple"
        }
      ],
      "name": "updateLoanParams",
      "outputs": [],
      "stateMutability": "nonpayable",
      "type": "function"
    },
    {
      "inputs": [],
      "name": "withdrawFees",
      "outputs": [],
      "stateMutability": "nonpayable",
      "type": "function"
    }
  ],
  "transactionHash": "0xd8c72f13e14df89018723ef8a236b80ddacc11bd3f9f960f34cf348c2a30fead",
  "args": [
    "0xF2A3c13290FC57e4D52D6EeC3C4325a37845ED48"
  ],
  "numDeployments": 1,
  "solcInputHash": "957d564936a9a51fa0a705bb7246fd40",
  "bytecode": "0x6101006040523480156200001257600080fd5b50604051620050fb380380620050fb8339810160408190526200003591620000fd565b600080546001600160a01b0319163390811782556040519091907f8be0079c531659141344cd1fd0a4f28419497f9722a3daafe3b4186f6b6457e0908290a34660a08190526200008581620000a7565b608052506001600160601b0319606091821b1660c05230901b60e0526200014c565b60007f47e79534a245952e8b16893a336b85a3d9ea9fa8c573f3d803afb92a794692188230604051602001620000e0939291906200012d565b604051602081830303815290604052805190602001209050919050565b6000602082840312156200010f578081fd5b81516001600160a01b038116811462000126578182fd5b9392505050565b92835260208301919091526001600160a01b0316604082015260600190565b60805160a05160c05160601c60e05160601c614efb6200020060003980610b9652806113e5525080610a575280610aeb5280610c4c5280610ea35280610ef05280610fb45280611058528061111d52806111a85280611c965280611d685280611e3e5280611ecb52806121ae5280612279528061233e52806123d05280612a9c5280612d1f5280612f1a5280612ff85280613538528061361452806137c1525080611f46525080611f7b5250614efb6000f3fe6080604052600436106101b75760003560e01c80634e71e0c8116100ec578063cd446e221161008a578063e30c397811610064578063e30c397814610486578063e7cf3f861461049b578063f41f5e1e146104bb578063f46901ed146104db576101b7565b8063cd446e221461043c578063d41ddc9614610451578063d8dfeb4514610471576101b7565b806380e00478116100c657806380e00478146103b75780638bea2242146103d75780638da5cb5b14610407578063a05a16371461041c576101b7565b80634e71e0c81461036c578063656f3d64146103815780636b2ace87146103a2576101b7565b80632e2f190111610159578063476343ee11610133578063476343ee146103045780634d8085d2146103195780634dde3bce146103395780634ddf47d414610359576101b7565b80632e2f1901146102ba5780633644e515146102da57806338d52e0f146102ef576101b7565b80631329b682116101955780631329b682146102365780631b65fe041461024b57806321fa31001461026b57806324ba88ec1461029a576101b7565b8063017e7e58146101bc578063078dfbe7146101e7578063114c2cda14610209575b600080fd5b3480156101c857600080fd5b506101d16104fb565b6040516101de9190614404565b60405180910390f35b3480156101f357600080fd5b50610207610202366004613c93565b61050a565b005b34801561021557600080fd5b5061022961022436600461433b565b6105f9565b6040516101de91906144aa565b34801561024257600080fd5b5061022961067e565b34801561025757600080fd5b506102076102663660046141ca565b610684565b34801561027757600080fd5b5061028b610286366004613fd0565b6108f9565b6040516101de93929190614d37565b3480156102a657600080fd5b506102076102b536600461429f565b610933565b3480156102c657600080fd5b506102076102d53660046142dd565b610960565b3480156102e657600080fd5b50610229610b74565b3480156102fb57600080fd5b506101d1610b83565b34801561031057600080fd5b50610207610b92565b34801561032557600080fd5b506102076103343660046140ae565b610d04565b34801561034557600080fd5b50610207610354366004614106565b610d32565b610207610367366004613d8f565b610d5a565b34801561037857600080fd5b50610207610de1565b61039461038f366004613cdd565b610e6e565b6040516101de929190614db1565b3480156103ae57600080fd5b506101d1610ea1565b3480156103c357600080fd5b506102076103d2366004614121565b610ec5565b3480156103e357600080fd5b506103f76103f2366004613fd0565b61137e565b6040516101de9493929190614475565b34801561041357600080fd5b506101d16113c2565b34801561042857600080fd5b50610229610437366004613b18565b6113d1565b34801561044857600080fd5b506101d16113e3565b34801561045d57600080fd5b5061020761046c366004614000565b611407565b34801561047d57600080fd5b506101d1611590565b34801561049257600080fd5b506101d161159f565b3480156104a757600080fd5b506102076104b63660046141f6565b6115ae565b3480156104c757600080fd5b506102076104d6366004614247565b6117a8565b3480156104e757600080fd5b506102076104f6366004613b18565b61190e565b6002546001600160a01b031681565b6000546001600160a01b0316331461053d5760405162461bcd60e51b8152600401610534906149ca565b60405180910390fd5b81156105d8576001600160a01b0383161515806105575750805b6105735760405162461bcd60e51b815260040161053490614812565b600080546040516001600160a01b03808716939216917f8be0079c531659141344cd1fd0a4f28419497f9722a3daafe3b4186f6b6457e091a3600080546001600160a01b0385166001600160a01b0319918216179091556001805490911690556105f4565b600180546001600160a01b0319166001600160a01b0385161790555b505050565b64496cebb80061ffff821667ffffffffffffffff84160284810282900491829060025b600681116106505764496cebb80082019150818484028161063957fe5b0492506106468584611982565b945060010161061c565b50600160801b84106106745760405162461bcd60e51b815260040161053490614c23565b5050509392505050565b60055481565b61068c61390a565b50600082815260076020908152604091829020825160808101845281546001600160a01b03908116825260019092015491821692810192909252600160a01b810467ffffffffffffffff1692820192909252600160e01b90910460ff1660608201819052600214156107ec5780602001516001600160a01b0316336001600160a01b03161461072d5760405162461bcd60e51b815260040161053490614bec565b610735613931565b50600083815260066020908152604091829020825160608101845290546001600160801b0381168252600160801b810467ffffffffffffffff908116838501819052600160c01b90920461ffff169483019490945291850151909216108015906107ae5750805183516001600160801b03918216911611155b80156107ca5750806040015161ffff16836040015161ffff1611155b6107e65760405162461bcd60e51b8152600401610534906147db565b50610842565b606081015160ff166001141561082a5780516001600160a01b031633146108255760405162461bcd60e51b815260040161053490614ad9565b610842565b60405162461bcd60e51b815260040161053490614b7e565b6000838152600660209081526040918290208451815492860151868501516001600160801b03199094166001600160801b039092169190911767ffffffffffffffff60801b1916600160801b67ffffffffffffffff909216919091021761ffff60c01b1916600160c01b61ffff909316929092029190911790555183907f4806b0411d30ea0d78ca288170b72377a6442c56e923371fa99dc2b62c4a7a0c906108ec908590614cff565b60405180910390a2505050565b6006602052600090815260409020546001600160801b03811690600160801b810467ffffffffffffffff1690600160c01b900461ffff1683565b6000806000610944878787876119ab565b9350935050925061095781848487611d4f565b50505050505050565b60008060006109738860008860006119ab565b935093505092506000600460009054906101000a90046001600160a01b031690506000876001600160a01b031663f9cf7c21600360009054906101000a90046001600160a01b03168c858d306040518663ffffffff1660e01b81526004016109df959493929190614706565b602060405180830381600087803b1580156109f957600080fd5b505af1158015610a0d573d6000803e3d6000fd5b505050506040513d601f19601f82011682018060405250810190610a319190613fe8565b905084811015610acc5785610ac757604051633c6340f360e21b81526001600160a01b037f0000000000000000000000000000000000000000000000000000000000000000169063f18d03cc90610a9490859033903090878c03906004016145bf565b600060405180830381600087803b158015610aae57600080fd5b505af1158015610ac2573d6000803e3d6000fd5b505050505b610b5b565b84811115610b5b57604051633c6340f360e21b81526001600160a01b037f0000000000000000000000000000000000000000000000000000000000000000169063f18d03cc90610b2890859030908c908b8803906004016145bf565b600060405180830381600087803b158015610b4257600080fd5b505af1158015610b56573d6000803e3d6000fd5b505050505b610b688386866001611d4f565b50505050505050505050565b6000610b7e611f41565b905090565b6004546001600160a01b031681565b60007f00000000000000000000000000000000000000000000000000000000000000006001600160a01b031663017e7e586040518163ffffffff1660e01b815260040160206040518083038186803b158015610bed57600080fd5b505afa158015610c01573d6000803e3d6000fd5b505050506040513d601f19601f82011682018060405250810190610c259190613b34565b6005549091508015610cbf5760048054604051633c6340f360e21b81526001600160a01b037f000000000000000000000000000000000000000000000000000000000000000081169363f18d03cc93610c8793921691309188918891016145bf565b600060405180830381600087803b158015610ca157600080fd5b505af1158015610cb5573d6000803e3d6000fd5b5050600060055550505b816001600160a01b03167fbe641c3ffc44b2d6c184f023fa4ed7bda4b6ffa71e03b3c98ae0c776da1f17e782604051610cf891906144aa565b60405180910390a25050565b610d1084868584611fa1565b610d1e33858688878761218c565b50610d2b848660006125d8565b5050505050565b610d3f86888685856126eb565b610d4e8686878a88600061218c565b506109573388856125d8565b6003546001600160a01b031615610d835760405162461bcd60e51b815260040161053490614b10565b610d8f81830183613f56565b600480546001600160a01b03199081166001600160a01b039384161790915560038054909116928216929092179182905516610ddd5760405162461bcd60e51b815260040161053490614b47565b5050565b6001546001600160a01b0316338114610e0c5760405162461bcd60e51b815260040161053490614a6d565b600080546040516001600160a01b03808516939216917f8be0079c531659141344cd1fd0a4f28419497f9722a3daafe3b4186f6b6457e091a3600080546001600160a01b039092166001600160a01b0319928316179055600180549091169055565b600080610e79613951565b610e8a8989898989896000886129bd565b805160209091015190999098509650505050505050565b7f000000000000000000000000000000000000000000000000000000000000000081565b610ed2888a8888886126eb565b60048054604051636d289ce560e11b81526000926001600160a01b037f000000000000000000000000000000000000000000000000000000000000000081169363da5139ca93610f2c9391909216918991600191016146e3565b60206040518083038186803b158015610f4457600080fd5b505afa158015610f58573d6000803e3d6000fd5b505050506040513d601f19601f82011682018060405250810190610f7c9190613fe8565b90506000610f8f8a8a308e8c600061218c565b9050818111156110285760048054604051633c6340f360e21b81526001600160a01b037f000000000000000000000000000000000000000000000000000000000000000081169363f18d03cc93610ff19392169130918f9189890391016145bf565b600060405180830381600087803b15801561100b57600080fd5b505af115801561101f573d6000803e3d6000fd5b5050505061118d565b8181101561118d5782156111025760055460048054604051633de222bb60e21b8152928501926001600160a01b037f000000000000000000000000000000000000000000000000000000000000000081169363f7888aec9361108f939216913091016145a5565b60206040518083038186803b1580156110a757600080fd5b505afa1580156110bb573d6000803e3d6000fd5b505050506040513d601f19601f820116820180604052508101906110df9190613fe8565b10156110fd5760405162461bcd60e51b815260040161053490614aa2565b61118d565b60048054604051633c6340f360e21b81526001600160a01b037f000000000000000000000000000000000000000000000000000000000000000081169363f18d03cc9361115a9392169133913091888a0391016145bf565b600060405180830381600087803b15801561117457600080fd5b505af1158015611188573d6000803e3d6000fd5b505050505b6004805460405163097da6d360e41b81526001600160a01b037f00000000000000000000000000000000000000000000000000000000000000008116936397da6d30936111e69392169130918a918c91600091016145e9565b6040805180830381600087803b1580156111ff57600080fd5b505af1158015611213573d6000803e3d6000fd5b505050506040513d601f19601f82011682018060405250810190611237919061427c565b5050836001600160a01b03166333563d1b600460009054906101000a90046001600160a01b031687600360009054906101000a90046001600160a01b03168f306040518663ffffffff1660e01b8152600401611297959493929190614706565b600060405180830381600087803b1580156112b157600080fd5b505af11580156112c5573d6000803e3d6000fd5b50506003546040516331a9108f60e11b81523093506001600160a01b039091169150636352211e906112fb908f906004016144aa565b60206040518083038186803b15801561131357600080fd5b505afa158015611327573d6000803e3d6000fd5b505050506040513d601f19601f8201168201806040525081019061134b9190613b34565b6001600160a01b0316146113715760405162461bcd60e51b815260040161053490614993565b5050505050505050505050565b600760205260009081526040902080546001909101546001600160a01b0391821691811690600160a01b810467ffffffffffffffff1690600160e01b900460ff1684565b6000546001600160a01b031681565b60086020526000908152604090205481565b7f000000000000000000000000000000000000000000000000000000000000000081565b61140f61390a565b50600082815260076020908152604091829020825160808101845281546001600160a01b03908116825260019283015490811693820193909352600160a01b830467ffffffffffffffff1693810193909352600160e01b90910460ff166060830181905214156114a75780516001600160a01b031633146114a25760405162461bcd60e51b815260040161053490614ad9565b611556565b606081015160ff16600214156115565780602001516001600160a01b0316826001600160a01b031614806114f0575080602001516001600160a01b0316336001600160a01b0316145b61150c5760405162461bcd60e51b815260040161053490614bec565b60008381526006602052604090819020549082015142600160801b90920467ffffffffffffffff908116911601106115565760405162461bcd60e51b815260040161053490614c91565b6115608383613260565b827f279c10f9827cdddd314534dd33cb906c270c3ac21cdd72ed94a1d534aca5a25a836040516108ec9190614404565b6003546001600160a01b031681565b6001546001600160a01b031681565b6115b661390a565b50600084815260076020908152604091829020825160808101845281546001600160a01b03908116825260019092015491821692810192909252600160a01b810467ffffffffffffffff1692820192909252600160e01b90910460ff1660608201819052156116375760405162461bcd60e51b81526004016105349061495c565b6001600160a01b038381168083526001606084018181526000898152600760209081526040808320885181546001600160a01b0319908116918a16919091178255838a0151919096018054838b01519651971691909816177fffffffff0000000000000000ffffffffffffffffffffffffffffffffffffffff16600160a01b67ffffffffffffffff95861602177fffffff00ffffffffffffffffffffffffffffffffffffffffffffffffffffffff16600160e01b60ff90961695909502949094179095556006855282902088518154958a01518a8501516001600160801b03199097166001600160801b039092169190911767ffffffffffffffff60801b1916600160801b91909316029190911761ffff60c01b1916600160c01b61ffff909516949094029390931790925590518691907f605ebeabc91188a43baf9442070fc0c5ccae4fedaf3e6852cf28e395c11a767290611795908890614cff565b60405180910390a3610d2b3386846125d8565b6117b061390a565b50600083815260076020908152604091829020825160808101845281546001600160a01b03908116825260019283015490811693820193909352600160a01b830467ffffffffffffffff1693810193909352600160e01b90910460ff1660608301819052146118315760405162461bcd60e51b81526004016105349061476d565b611839613931565b50600084815260066020908152604091829020825160608101845290546001600160801b03808216808452600160801b830467ffffffffffffffff1694840194909452600160c01b90910461ffff169382019390935285519092161480156118bd5750836020015167ffffffffffffffff16816020015167ffffffffffffffff1611155b80156118d95750836040015161ffff16816040015161ffff1610155b6118f55760405162461bcd60e51b8152600401610534906147a4565b81516119069033908088858861218c565b505050505050565b6000546001600160a01b031633146119385760405162461bcd60e51b8152600401610534906149ca565b600280546001600160a01b0319166001600160a01b0383169081179091556040517fcf1d3f17e521c635e0d20b8acba94ba170afc041d0546d46dafa09d3c9c19eb390600090a250565b818101818110156119a55760405162461bcd60e51b8152600401610534906148ee565b92915050565b6000806000806119b961390a565b50600088815260076020908152604091829020825160808101845281546001600160a01b03908116825260019092015491821692810192909252600160a01b810467ffffffffffffffff1692820192909252600160e01b90910460ff1660608201819052600214611a3c5760405162461bcd60e51b815260040161053490614736565b80516001600160a01b0316331480611a60575080516001600160a01b038881169116145b611a7c5760405162461bcd60e51b8152600401610534906149ff565b611a84613931565b50600089815260066020908152604091829020825160608101845290546001600160801b0381168252600160801b810467ffffffffffffffff908116938301849052600160c01b90910461ffff16828501529284015190924291169091011015611b005760405162461bcd60e51b8152600401610534906148b7565b881580611b17575080516001600160801b03168910155b15611b7b5780516001600160801b03169850611b338a89613260565b8987611b3f5733611b41565b305b6001600160a01b03167fcd300581542c5eab58e736a0b08b42cec829c4504d1c16af90f4630b27e30de360405160405180910390a3611c39565b80516001600160801b039081168a90038116825260008b8152600660209081526040918290208451815492860151848701516001600160801b0319909416919095161767ffffffffffffffff60801b1916600160801b67ffffffffffffffff909516949094029390931761ffff60c01b1916600160c01b61ffff9092169190910217909155518a907f4806b0411d30ea0d78ca288170b72377a6442c56e923371fa99dc2b62c4a7a0c90611c30908490614cff565b60405180910390a25b6000611c638a6001600160801b0316846040015167ffffffffffffffff16420384604001516105f9565b8a8101965090506127106103e8820204611c7b61396f565b60048054604051634ffe34db60e01b81526001600160a01b037f0000000000000000000000000000000000000000000000000000000000000000811693634ffe34db93611ccb9392169101614404565b604080518083038186803b158015611ce257600080fd5b505afa158015611cf6573d6000803e3d6000fd5b505050506040513d601f19601f82011682018060405250810190611d1a9190613f8e565b9050611d2881896001613338565b9850611d3681836000613338565b9650846020015195505050505050945094509450949050565b6004546001600160a01b03168115611e275760055484017f00000000000000000000000000000000000000000000000000000000000000006001600160a01b031663f7888aec83306040518363ffffffff1660e01b8152600401611db49291906145a5565b60206040518083038186803b158015611dcc57600080fd5b505afa158015611de0573d6000803e3d6000fd5b505050506040513d601f19601f82011682018060405250810190611e049190613fe8565b1015611e225760405162461bcd60e51b815260040161053490614aa2565b611eac565b604051633c6340f360e21b81526001600160a01b037f0000000000000000000000000000000000000000000000000000000000000000169063f18d03cc90611e79908490339030908a906004016145bf565b600060405180830381600087803b158015611e9357600080fd5b505af1158015611ea7573d6000803e3d6000fd5b505050505b6005805484019055604051633c6340f360e21b81526001600160a01b037f0000000000000000000000000000000000000000000000000000000000000000169063f18d03cc90611f0890849030908a90898b03906004016145bf565b600060405180830381600087803b158015611f2257600080fd5b505af1158015611f36573d6000803e3d6000fd5b505050505050505050565b6000467f00000000000000000000000000000000000000000000000000000000000000008114611f7957611f74816133d5565b611f9b565b7f00000000000000000000000000000000000000000000000000000000000000005b91505090565b8051421115611fc25760405162461bcd60e51b815260040161053490614849565b6001600160a01b0384166000908152600860209081526040808320548551868401518784015187519451939695612029957f31609c8787e5709f4c4e0d7c6f3239ad028b96968335012bb862a64361421ef99530958d959094909390928b92909101614512565b604051602081830303815290604052805190602001209050856001600160a01b0316600161205683613429565b856020015186604001518760600151604051600081526020016040526040516120829493929190614587565b6020604051602081039080840390855afa1580156120a4573d6000803e3d6000fd5b505050602060405103516001600160a01b0316146120d45760405162461bcd60e51b815260040161053490614cc8565b600085815260076020526040902060010154600160e01b900460ff161561210d5760405162461bcd60e51b81526004016105349061495c565b5050506000918252600660209081526040928390208251815492840151949093015161ffff16600160c01b0261ffff60c01b1967ffffffffffffffff909516600160801b0267ffffffffffffffff60801b196001600160801b039095166001600160801b03199094169390931793909316919091179290921617905550565b600480548351604051636d289ce560e11b815260009384936001600160a01b037f000000000000000000000000000000000000000000000000000000000000000081169463da5139ca946121e994939092169290918791016146b7565b60206040518083038186803b15801561220157600080fd5b505afa158015612215573d6000803e3d6000fd5b505050506040513d601f19601f820116820180604052508101906122399190613fe8565b905061271060648202819004906103e882020484156123235760055460048054604051633de222bb60e21b81528587038501909301926001600160a01b037f000000000000000000000000000000000000000000000000000000000000000081169363f7888aec936122b0939216913091016145a5565b60206040518083038186803b1580156122c857600080fd5b505afa1580156122dc573d6000803e3d6000fd5b505050506040513d601f19601f820116820180604052508101906123009190613fe8565b101561231e5760405162461bcd60e51b815260040161053490614aa2565b6123b0565b60048054604051633c6340f360e21b81526001600160a01b037f000000000000000000000000000000000000000000000000000000000000000081169363f18d03cc9361237d939216918f913091898b03890191016145bf565b600060405180830381600087803b15801561239757600080fd5b505af11580156123ab573d6000803e3d6000fd5b505050505b60048054604051633c6340f360e21b815284860396506001600160a01b037f000000000000000000000000000000000000000000000000000000000000000081169363f18d03cc9361240b9392169130918e918b91016145bf565b600060405180830381600087803b15801561242557600080fd5b505af1158015612439573d6000803e3d6000fd5b505060058054840190555061244e905061390a565b8a81602001906001600160a01b031690816001600160a01b0316815250508981600001906001600160a01b031690816001600160a01b0316815250506002816060019060ff16908160ff168152505042816040019067ffffffffffffffff16908167ffffffffffffffff168152505080600760008a815260200190815260200160002060008201518160000160006101000a8154816001600160a01b0302191690836001600160a01b0316021790555060208201518160010160006101000a8154816001600160a01b0302191690836001600160a01b0316021790555060408201518160010160146101000a81548167ffffffffffffffff021916908367ffffffffffffffff160217905550606082015181600101601c6101000a81548160ff021916908360ff160217905550905050878a6001600160a01b03168c6001600160a01b03167f467ddae58c15b853f7195fb0a53262b32d8e73bd10833023764e91a5d48256ba8a6040516125c29190614cff565b60405180910390a4505050509695505050505050565b8015612689576003546040516331a9108f60e11b815230916001600160a01b031690636352211e9061260e9086906004016144aa565b60206040518083038186803b15801561262657600080fd5b505afa15801561263a573d6000803e3d6000fd5b505050506040513d601f19601f8201168201806040525081019061265e9190613b34565b6001600160a01b0316146126845760405162461bcd60e51b815260040161053490614bb5565b6105f4565b6003546040516323b872dd60e01b81526001600160a01b03909116906323b872dd906126bd90869030908790600401614451565b600060405180830381600087803b1580156126d757600080fd5b505af1158015610957573d6000803e3d6000fd5b602081015160ff1615801561270257506040810151155b801561271057506060810151155b156127c557825160208401516040808601519051632022616360e01b81526001600160a01b03891693632022616393612752938a936000908190600401614d66565b602060405180830381600087803b15801561276c57600080fd5b505af1158015612780573d6000803e3d6000fd5b505050506040513d601f19601f820116820180604052508101906127a49190613d73565b6127c05760405162461bcd60e51b815260040161053490614925565b612906565b80514211156127e65760405162461bcd60e51b815260040161053490614849565b6001600160a01b038516600090815260086020526040812054907f51bdf8c1d18fdb31c98b3fa9c0eafb21834eebc55f0e77bd59fa99bc434ddf92308561282d5787612830565b60005b87516020808a01516040808c01518a519151612858989796958d959094938c929091016144b3565b604051602081830303815290604052805190602001209050866001600160a01b0316600161288583613429565b856020015186604001518760600151604051600081526020016040526040516128b19493929190614587565b6020604051602081039080840390855afa1580156128d3573d6000803e3d6000fd5b505050602060405103516001600160a01b0316146129035760405162461bcd60e51b815260040161053490614cc8565b50505b600084815260076020526040902060010154600160e01b900460ff161561293f5760405162461bcd60e51b81526004016105349061495c565b50506000918252600660209081526040928390208251815492840151949093015161ffff16600160c01b0261ffff60c01b1967ffffffffffffffff909516600160801b0267ffffffffffffffff60801b196001600160801b039095166001600160801b03199094169390931793909316919091179290921617905550565b868210156132565760008888848181106129d357fe5b90506020020160208101906129e89190614383565b905060ff811660011415612a36576000858585818110612a0457fe5b9050602002810190612a169190614dbf565b810190612a239190613fd0565b9050612a2e81613461565b83525061324a565b60ff811660021415612b28576000858585818110612a5057fe5b9050602002810190612a629190614dbf565b810190612a6f9190613fd0565b9050612a7a81613461565b6020840181905260048054604051636d289ce560e11b81526001600160a01b037f000000000000000000000000000000000000000000000000000000000000000081169463da5139ca94612ad89492909216929091600191016146e3565b60206040518083038186803b158015612af057600080fd5b505afa158015612b04573d6000803e3d6000fd5b505050506040513d601f19601f82011682018060405250810190612a2e9190613fe8565b60ff811660031415612bc55760008060008060008060008b8b8b818110612b4b57fe5b9050602002810190612b5d9190614dbf565b810190612b6a919061429f565b9299509095509092509050612b81878583856119ab565b60208d0192909252828c5260019c909c019b9197509095509250612bad90508f8f8f8f8f8f8f8f6129bd565b612bb982868684611d4f565b50505050505050613256565b60ff811660041415612c1457600080868686818110612be057fe5b9050602002810190612bf29190614dbf565b810190612bff9190614000565b91509150612c0d8282611407565b505061324a565b60ff8116600c1415612c75576000612c2a613931565b600080888888818110612c3957fe5b9050602002810190612c4b9190614dbf565b810190612c5891906141f6565b9350935093509350612c6c848484846115ae565b5050505061324a565b60ff8116600d1415612cd1576000612c8b613931565b6000878787818110612c9957fe5b9050602002810190612cab9190614dbf565b810190612cb89190614247565b925092509250612cc98383836117a8565b50505061324a565b60ff811660181415612db0576000806000806000808a8a8a818110612cf257fe5b9050602002810190612d049190614dbf565b810190612d119190613b50565b9550955095509550955095507f00000000000000000000000000000000000000000000000000000000000000006001600160a01b031663c0a47c938787878787876040518763ffffffff1660e01b8152600401612d7396959493929190614418565b600060405180830381600087803b158015612d8d57600080fd5b505af1158015612da1573d6000803e3d6000fd5b5050505050505050505061324a565b60ff811660141415612e5257612e46858585818110612dcb57fe5b9050602002810190612ddd9190614dbf565b8080601f0160208091040260200160405190810160405280939291908181526020018383808284376000920191909152508b92508a9150879050818110612e2057fe5b9050602002013584600060028110612e3457fe5b602002015185600160200201516134f7565b6020840152825261324a565b60ff811660151415612ecd57612e46858585818110612e6d57fe5b9050602002810190612e7f9190614dbf565b8080601f01602080910402602001604051908101604052809392919081815260200183838082843760009201829052508793509150612ebb9050565b602002015184600160200201516135ed565b60ff811660161415612fb4576000806000878787818110612eea57fe5b9050602002810190612efc9190614dbf565b810190612f099190613dfc565b919450925090506001600160a01b037f00000000000000000000000000000000000000000000000000000000000000001663f18d03cc843385612f5b868b600060200201518c600160200201516136db565b6040518563ffffffff1660e01b8152600401612f7a94939291906145bf565b600060405180830381600087803b158015612f9457600080fd5b505af1158015612fa8573d6000803e3d6000fd5b5050505050505061324a565b60ff811660171415613048576000606080878787818110612fd157fe5b9050602002810190612fe39190614dbf565b810190612ff09190613e83565b9250925092507f00000000000000000000000000000000000000000000000000000000000000006001600160a01b0316630fca8843843385856040518563ffffffff1660e01b8152600401612f7a949392919061461d565b60ff8116601e141561313457606060006130da89898781811061306757fe5b9050602002013588888881811061307a57fe5b905060200281019061308c9190614dbf565b8080601f01602080910402602001604051908101604052809392919081815260200183838082843760009201829052508a935091506130c89050565b60200201518760016020020151613703565b915091508060ff166001141561310557818060200190518101906130fe9190613fe8565b8452612c0d565b8060ff1660021415612c0d5781806020019051810190613125919061427c565b602086015284525061324a9050565b60ff8116602814156131e15760008060008061314e613931565b600061315861390a565b8b8b8b81811061316457fe5b90506020028101906131769190614dbf565b8101906131839190614024565b919c50949a50929850909650945090925090506131a385878585856126eb565b6131b28585868987600061218c565b5050505050506131ce8b8b8b8b8b8b8b6001019b508b8b6129bd565b6131d93382846125d8565b505050613256565b60ff81166029141561324a576000806131f8613931565b600061320261390a565b89898981811061320e57fe5b90506020028101906132209190614dbf565b81019061322d91906140ae565b945094509450945094506132448585858585610d04565b50505050505b506001909101906129bd565b5050505050505050565b600082815260076020908152604080832080546001600160a01b031916815560010180547fffffff000000000000000000000000000000000000000000000000000000000016905560069091529081902080547fffffffffffff000000000000000000000000000000000000000000000000000016905560035490516323b872dd60e01b81526001600160a01b03909116906323b872dd9061330a90309085908790600401614451565b600060405180830381600087803b15801561332457600080fd5b505af1158015611906573d6000803e3d6000fd5b82516000906001600160801b03166133515750816133ce565b835160208501516001600160801b0391821691613370918691166138d3565b8161337757fe5b0490508180156133bb57508284602001516001600160801b03166133b186600001516001600160801b0316846138d390919063ffffffff16565b816133b857fe5b04105b156133ce576133cb816001611982565b90505b9392505050565b60007f47e79534a245952e8b16893a336b85a3d9ea9fa8c573f3d803afb92a79469218823060405160200161340c93929190614568565b604051602081830303815290604052805190602001209050919050565b600060405180604001604052806002815260200161190160f01b81525061344e611f41565b8360405160200161340c939291906143dd565b600061346b613931565b506000828152600660209081526040808320815160608101835290546001600160801b038116808352600160801b820467ffffffffffffffff90811684870152600160c01b90920461ffff168385019081528887526007909552928520600101549351919492936134eb928592600160a01b9092049091164203906105f9565b91909101949350505050565b600080600080600080898060200190518101906135149190613e3c565b93509350935093506135278289896136db565b91506135348189896136db565b90507f00000000000000000000000000000000000000000000000000000000000000006001600160a01b03166302b9446c8a86338787876040518763ffffffff1660e01b815260040161358b9594939291906145e9565b60408051808303818588803b1580156135a357600080fd5b505af11580156135b7573d6000803e3d6000fd5b50505050506040513d601f19601f820116820180604052508101906135dc919061427c565b955095505050505094509492505050565b6000806000806000808880602001905181019061360a9190613e3c565b93509350935093507f00000000000000000000000000000000000000000000000000000000000000006001600160a01b03166397da6d3085338661364f878e8e6136db565b61365a878f8f6136db565b6040518663ffffffff1660e01b815260040161367a9594939291906145e9565b6040805180830381600087803b15801561369357600080fd5b505af11580156136a7573d6000803e3d6000fd5b505050506040513d601f19601f820116820180604052508101906136cb919061427c565b9550955050505050935093915050565b6000808412156136fb5760001984146136f457816136f6565b825b6133cb565b509192915050565b606060008060606000806000898060200190518101906137239190613bbd565b94509450945094509450828015613738575081155b156137665783896040516020016137509291906143bb565b60405160208183030381529060405293506137bf565b821580156137715750815b156137895783886040516020016137509291906143bb565b8280156137935750815b156137bf578389896040516020016137ad939291906143dd565b60405160208183030381529060405293505b7f00000000000000000000000000000000000000000000000000000000000000006001600160a01b0316856001600160a01b03161415801561380f57506003546001600160a01b03868116911614155b801561382457506001600160a01b0385163014155b6138405760405162461bcd60e51b815260040161053490614a36565b60006060866001600160a01b03168d8760405161385d919061439f565b60006040518083038185875af1925050503d806000811461389a576040519150601f19603f3d011682016040523d82523d6000602084013e61389f565b606091505b5091509150816138c15760405162461bcd60e51b815260040161053490614880565b9c919b50909950505050505050505050565b60008115806138ee575050808202828282816138eb57fe5b04145b6119a55760405162461bcd60e51b815260040161053490614c5a565b60408051608081018252600080825260208201819052918101829052606081019190915290565b604080516060810182526000808252602082018190529181019190915290565b60405180604001604052806002906020820280368337509192915050565b604080518082019091526000808252602082015290565b80356119a581614e7b565b60008083601f8401126139a2578182fd5b50813567ffffffffffffffff8111156139b9578182fd5b60208301915083602080830285010111156139d357600080fd5b9250929050565b600082601f8301126139ea578081fd5b81356139fd6139f882614e2b565b614e04565b818152915060208083019084810181840286018201871015613a1e57600080fd5b60005b84811015613a3d57813584529282019290820190600101613a21565b505050505092915050565b80516119a581614e93565b600060808284031215613a64578081fd5b613a6e6080614e04565b9050813581526020820135613a8281614eb6565b80602083015250604082013560408201526060820135606082015292915050565b600060608284031215613ab4578081fd5b613abe6060614e04565b90508135613acb81614ea1565b8152602082013567ffffffffffffffff81168114613ae857600080fd5b6020820152604082013561ffff81168114613b0257600080fd5b604082015292915050565b80516119a581614eb6565b600060208284031215613b29578081fd5b81356133ce81614e7b565b600060208284031215613b45578081fd5b81516133ce81614e7b565b60008060008060008060c08789031215613b68578182fd5b8635613b7381614e7b565b95506020870135613b8381614e7b565b94506040870135613b9381614e93565b93506060870135613ba381614eb6565b9598949750929560808101359460a0909101359350915050565b600080600080600060a08688031215613bd4578283fd5b8551613bdf81614e7b565b602087015190955067ffffffffffffffff80821115613bfc578485fd5b818801915088601f830112613c0f578485fd5b815181811115613c1d578586fd5b613c30601f8201601f1916602001614e04565b9150808252896020828501011115613c46578586fd5b613c57816020840160208601614e4b565b509450613c6990508760408801613a48565b9250613c788760608801613a48565b9150613c878760808801613b0d565b90509295509295909350565b600080600060608486031215613ca7578081fd5b8335613cb281614e7b565b92506020840135613cc281614e93565b91506040840135613cd281614e93565b809150509250925092565b60008060008060008060608789031215613cf5578384fd5b863567ffffffffffffffff80821115613d0c578586fd5b613d188a838b01613991565b90985096506020890135915080821115613d30578586fd5b613d3c8a838b01613991565b90965094506040890135915080821115613d54578384fd5b50613d6189828a01613991565b979a9699509497509295939492505050565b600060208284031215613d84578081fd5b81516133ce81614e93565b60008060208385031215613da1578182fd5b823567ffffffffffffffff80821115613db8578384fd5b818501915085601f830112613dcb578384fd5b813581811115613dd9578485fd5b866020828501011115613dea578485fd5b60209290920196919550909350505050565b600080600060608486031215613e10578081fd5b8335613e1b81614e7b565b92506020840135613e2b81614e7b565b929592945050506040919091013590565b60008060008060808587031215613e51578182fd5b8451613e5c81614e7b565b6020860151909450613e6d81614e7b565b6040860151606090960151949790965092505050565b600080600060608486031215613e97578081fd5b8335613ea281614e7b565b925060208481013567ffffffffffffffff80821115613ebf578384fd5b818701915087601f830112613ed2578384fd5b8135613ee06139f882614e2b565b81815284810190848601868402860187018c1015613efc578788fd5b8795505b83861015613f2657613f128c82613986565b835260019590950194918601918601613f00565b50965050506040870135925080831115613f3e578384fd5b5050613f4c868287016139da565b9150509250925092565b60008060408385031215613f68578182fd5b8235613f7381614e7b565b91506020830135613f8381614e7b565b809150509250929050565b600060408284031215613f9f578081fd5b613fa96040614e04565b8251613fb481614ea1565b81526020830151613fc481614ea1565b60208201529392505050565b600060208284031215613fe1578081fd5b5035919050565b600060208284031215613ff9578081fd5b5051919050565b60008060408385031215614012578182fd5b823591506020830135613f8381614e7b565b6000806000806000806000610180888a03121561403f578485fd5b87359650602088013561405181614e7b565b9550604088013561406181614e7b565b94506140708960608a01613aa3565b935060c088013561408081614e93565b925060e088013561409081614e93565b91506140a0896101008a01613a53565b905092959891949750929550565b600080600080600061014086880312156140c6578283fd5b8535945060208601356140d881614e7b565b93506140e78760408801613aa3565b925060a08601356140f781614e93565b9150613c878760c08801613a53565b6000806000806000806000610180888a03121561403f578081fd5b60008060008060008060008060006101c08a8c03121561413f578283fd5b8935985060208a013561415181614e7b565b975060408a013561416181614e7b565b96506141708b60608c01613aa3565b955060c08a013561418081614e93565b945061418f8b60e08c01613a53565b93506101608a013592506101808a01356141a881614e7b565b91506101a08a01356141b981614e93565b809150509295985092959850929598565b600080608083850312156141dc578182fd5b823591506141ed8460208501613aa3565b90509250929050565b60008060008060c0858703121561420b578182fd5b8435935061421c8660208701613aa3565b9250608085013561422c81614e7b565b915060a085013561423c81614e93565b939692955090935050565b600080600060a0848603121561425b578081fd5b8335925061426c8560208601613aa3565b91506080840135613cd281614e93565b6000806040838503121561428e578182fd5b505080516020909101519092909150565b600080600080608085870312156142b4578182fd5b843593506020850135925060408501356142cd81614e7b565b9150606085013561423c81614e93565b600080600080600060a086880312156142f4578283fd5b8535945060208601359350604086013561430d81614e7b565b9250606086013561431d81614e7b565b9150608086013561432d81614e93565b809150509295509295909350565b60008060006060848603121561434f578081fd5b83359250602084013567ffffffffffffffff8116811461436d578182fd5b9150604084013561ffff81168114613cd2578182fd5b600060208284031215614394578081fd5b81356133ce81614eb6565b600082516143b1818460208701614e4b565b9190910192915050565b600083516143cd818460208801614e4b565b9190910191825250602001919050565b600084516143ef818460208901614e4b565b91909101928352506020820152604001919050565b6001600160a01b0391909116815260200190565b6001600160a01b039687168152949095166020850152911515604084015260ff166060830152608082015260a081019190915260c00190565b6001600160a01b039384168152919092166020820152604081019190915260600190565b6001600160a01b03948516815292909316602083015267ffffffffffffffff16604082015260ff909116606082015260800190565b90815260200190565b9889526001600160a01b03979097166020890152604088019590955292151560608701526001600160801b0391909116608086015267ffffffffffffffff1660a085015261ffff1660c084015260e08301526101008201526101200190565b9788526001600160a01b0396909616602088015260408701949094526001600160801b0392909216606086015267ffffffffffffffff16608085015261ffff1660a084015260c083015260e08201526101000190565b92835260208301919091526001600160a01b0316604082015260600190565b93845260ff9290921660208401526040830152606082015260800190565b6001600160a01b0392831681529116602082015260400190565b6001600160a01b039485168152928416602084015292166040820152606081019190915260800190565b6001600160a01b03958616815293851660208501529190931660408301526060820192909252608081019190915260a00190565b6000608082016001600160a01b0380881684526020818816818601526080604086015282875180855260a0870191508289019450855b81811015614671578551851683529483019491830191600101614653565b50508581036060870152865180825290820193509150808601845b838110156146a85781518552938201939082019060010161468c565b50929998505050505050505050565b6001600160a01b039390931683526001600160801b039190911660208301521515604082015260600190565b6001600160a01b0393909316835260208301919091521515604082015260600190565b6001600160a01b039586168152602081019490945291841660408401526060830152909116608082015260a00190565b60208082526010908201527f4e4654506169723a206e6f206c6f616e00000000000000000000000000000000604082015260600190565b60208082526016908201527f4e4654506169723a206e6f7420617661696c61626c6500000000000000000000604082015260600190565b60208082526013908201527f4e4654506169723a2062616420706172616d7300000000000000000000000000604082015260600190565b60208082526015908201527f4e4654506169723a20776f72736520706172616d730000000000000000000000604082015260600190565b60208082526015908201527f4f776e61626c653a207a65726f20616464726573730000000000000000000000604082015260600190565b6020808252601a908201527f4e4654506169723a207369676e61747572652065787069726564000000000000604082015260600190565b60208082526014908201527f4e4654506169723a2063616c6c206661696c6564000000000000000000000000604082015260600190565b60208082526015908201527f4e4654506169723a206c6f616e20657870697265640000000000000000000000604082015260600190565b60208082526018908201527f426f72696e674d6174683a20416464204f766572666c6f770000000000000000604082015260600190565b6020808252601c908201527f4e4654506169723a204c656e64696e67436c7562207265667573656400000000604082015260600190565b60208082526014908201527f4e4654506169723a206c6f616e20657869737473000000000000000000000000604082015260600190565b60208082526015908201527f4e4654506169723a206275796572206661696c65640000000000000000000000604082015260600190565b6020808252818101527f4f776e61626c653a2063616c6c6572206973206e6f7420746865206f776e6572604082015260600190565b60208082526015908201527f4e4654506169723a206e6f7420626f72726f7765720000000000000000000000604082015260600190565b60208082526013908201527f4e4654506169723a2063616e27742063616c6c00000000000000000000000000604082015260600190565b6020808252818101527f4f776e61626c653a2063616c6c657220213d2070656e64696e67206f776e6572604082015260600190565b60208082526016908201527f4e4654506169723a20736b696d20746f6f206d75636800000000000000000000604082015260600190565b60208082526019908201527f4e4654506169723a206e6f742074686520626f72726f77657200000000000000604082015260600190565b6020808252601c908201527f4e4654506169723a20616c726561647920696e697469616c697a656400000000604082015260600190565b60208082526011908201527f4e4654506169723a206261642070616972000000000000000000000000000000604082015260600190565b60208082526016908201527f4e4654506169723a206e6f20636f6c6c61746572616c00000000000000000000604082015260600190565b60208082526014908201527f4e4654506169723a20736b696d206661696c6564000000000000000000000000604082015260600190565b60208082526017908201527f4e4654506169723a206e6f7420746865206c656e646572000000000000000000604082015260600190565b6020808252601b908201527f4e4654506169723a20496e74657265737420756e70617961626c650000000000604082015260600190565b60208082526018908201527f426f72696e674d6174683a204d756c204f766572666c6f770000000000000000604082015260600190565b60208082526014908201527f4e4654506169723a206e6f742065787069726564000000000000000000000000604082015260600190565b6020808252601a908201527f4e4654506169723a207369676e617475726520696e76616c6964000000000000604082015260600190565b81516001600160801b0316815260208083015167ffffffffffffffff169082015260409182015161ffff169181019190915260600190565b6001600160801b0393909316835267ffffffffffffffff91909116602083015261ffff16604082015260600190565b9586526001600160801b0394909416602086015267ffffffffffffffff92909216604085015261ffff90811660608501521660808301526001600160a01b031660a082015260c00190565b918252602082015260400190565b6000808335601e19843603018112614dd5578283fd5b83018035915067ffffffffffffffff821115614def578283fd5b6020019150368190038213156139d357600080fd5b60405181810167ffffffffffffffff81118282101715614e2357600080fd5b604052919050565b600067ffffffffffffffff821115614e41578081fd5b5060209081020190565b60005b83811015614e66578181015183820152602001614e4e565b83811115614e75576000848401525b50505050565b6001600160a01b0381168114614e9057600080fd5b50565b8015158114614e9057600080fd5b6001600160801b0381168114614e9057600080fd5b60ff81168114614e9057600080fdfea26469706673582212200b7d3fbca2bd74098bf2df18889cbc4f2201696efb5d38e64527b33fdf74810c64736f6c634300060c0033",
  "devdoc": {
    "details": "This contract allows contract calls to any contract (except BentoBox) from arbitrary callers thus, don't trust calls from this contract in any circumstances.",
    "kind": "dev",
    "methods": {
      "calculateInterest(uint256,uint64,uint16)": {
        "params": {
          "aprBPS": "Annual rate in basis points (1/10_000)",
          "principal": "Amount owed in wei",
          "t": "Duration in seconds"
        }
      },
      "cook(uint8[],uint256[],bytes[])": {
        "params": {
          "actions": "An array with a sequence of actions to execute (see ACTION_ declarations).",
          "datas": "A one-to-one mapped array to `actions`. Contains abi encoded data of function arguments.",
          "values": "A one-to-one mapped array to `actions`. ETH amounts to send along with the actions. Only applicable to `ACTION_CALL`, `ACTION_BENTO_DEPOSIT`."
        },
        "returns": {
          "value1": "May contain the first positioned return value of the last executed action (if applicable).",
          "value2": "May contain the second positioned return value of the last executed action which returns 2 values (if applicable)."
        }
      },
      "flashRepay(uint256,uint256,address,address,bool)": {
        "params": {
          "excessRecipient": "Receives any funds left over after repaying, if any",
          "price": "Sale price of the token, in wei",
          "seller": "INFTSeller contract that will perform the sale",
          "skimShortage": "True if any extra funds required have already been Bento-transfered to the contract. Take care to send enough; interest accumulates by the second.",
          "tokenId": "Token ID of the loan in question."
        }
      },
      "flashRequestAndBorrow(uint256,address,address,(uint128,uint64,uint16),bool,(uint256,uint8,bytes32,bytes32),uint256,address,bool)": {
        "params": {
          "anyTokenId": "Set if lender agreed to any token. Must have tokenId 0 in signature.",
          "borrower": "Receives the funds (and excess if token is cheaper)",
          "buyer": "INFTBuyer contract that will purchase the token",
          "lender": "Lender, whose BentoBox balance the funds will come from",
          "params": "Loan parameters requested, and signed by the lender",
          "price": "Price of token (in wei), sent to buyer contract",
          "signature": "(deadline, v, r, s) of signature. (See docs)",
          "skimShortage": "True if any funds needed in excess of the loan have already been Bento-transfered to the contract",
          "tokenId": "ID of the token that will function as collateral"
        }
      },
      "lend(uint256,(uint128,uint64,uint16),bool)": {
        "params": {
          "accepted": "Loan parameters as the lender saw them, for security",
          "skim": "True if the funds have been Bento-transferred to the contract",
          "tokenId": "ID of the token that will function as collateral"
        }
      },
      "removeCollateral(uint256,address)": {
        "params": {
          "to": "The receiver of the token.",
          "tokenId": "The token"
        }
      },
      "repay(uint256,uint256,address,bool)": {
        "params": {
          "principal": "How much of the principal to repay. Saturates at the full loan value. Zero also taken to mean 100%.",
          "skim": "True if the funds have already been Bento-transfered to the contract. Take care to send enough; interest accumulates by the second.",
          "to": "Recipient of the returned collateral. Can be anyone if msg.sender is the borrower, otherwise the borrower.",
          "tokenId": "Token ID of the loan in question."
        }
      },
      "requestAndBorrow(uint256,address,address,(uint128,uint64,uint16),bool,bool,(uint256,uint8,bytes32,bytes32))": {
        "params": {
          "anyTokenId": "Set if lender agreed to any token. Must have tokenId 0 in signature.",
          "borrower": "Receives the funds and the option to repay",
          "lender": "Lender, whose BentoBox balance the funds will come from",
          "params": "Loan parameters requested, and signed by the lender",
          "signature": "(deadline, v, r, s) of signature. (See docs)",
          "skimCollateral": "True if the collateral has already been transferred",
          "tokenId": "ID of the token that will function as collateral"
        }
      },
      "requestLoan(uint256,(uint128,uint64,uint16),address,bool)": {
        "params": {
          "params": "Loan conditions on offer",
          "skim": "True if the token has already been transferred",
          "to": "Address to receive the loan, or option to withdraw collateral",
          "tokenId": "ID of the NFT"
        }
      },
      "setFeeTo(address)": {
        "params": {
          "newFeeTo": "The address of the receiver."
        }
      },
      "takeCollateralAndLend(uint256,address,(uint128,uint64,uint16),bool,(uint256,uint8,bytes32,bytes32))": {
        "params": {
          "borrower": "Address that provides collateral and receives the loan",
          "params": "Loan terms offered, and signed by the borrower",
          "signature": "(deadline, v, r, s) of signature. (See docs)",
          "skimFunds": "True if the funds have been Bento-transferred to the contract",
          "tokenId": "ID of the token that will function as collateral"
        }
      },
      "transferOwnership(address,bool,bool)": {
        "params": {
          "direct": "True if `newOwner` should be set immediately. False if `newOwner` needs to use `claimOwnership`.",
          "newOwner": "Address of the new owner.",
          "renounce": "Allows the `newOwner` to be `address(0)` if `direct` and `renounce` is True. Has no effect otherwise."
        }
      },
      "updateLoanParams(uint256,(uint128,uint64,uint16))": {
        "params": {
          "params": "The desired new loan parameters",
          "tokenId": "The token ID of the loan in question"
        }
      }
    },
    "title": "NFTPair",
    "version": 1
  },
  "userdoc": {
    "kind": "user",
    "methods": {
      "claimOwnership()": {
        "notice": "Needs to be called by `pendingOwner` to claim ownership."
      },
      "constructor": "The constructor is only used for the initial master contract.Subsequent clones are initialised via `init`.",
      "cook(uint8[],uint256[],bytes[])": {
        "notice": "Executes a set of actions and allows composability (contract calls) to other contracts."
      },
      "flashRepay(uint256,uint256,address,address,bool)": {
        "notice": "Repay a loan in full, by selling the token in the same transaction. Must be the borrower."
      },
      "flashRequestAndBorrow(uint256,address,address,(uint128,uint64,uint16),bool,(uint256,uint8,bytes32,bytes32),uint256,address,bool)": {
        "notice": "Request and immediately borrow from a pre-committed lender, while buying the collateral in the same transaction.Caller provides extra funds if needed; loan can go to a different address."
      },
      "init(bytes)": {
        "notice": "De facto constructor for clone contracts"
      },
      "lend(uint256,(uint128,uint64,uint16),bool)": {
        "notice": "Lends with the parameters specified by the borrower."
      },
      "removeCollateral(uint256,address)": {
        "notice": "Removes `tokenId` as collateral and transfers it to `to`.This destroys the loan."
      },
      "repay(uint256,uint256,address,bool)": {
        "notice": "Repay a loan in part or in full"
      },
      "requestAndBorrow(uint256,address,address,(uint128,uint64,uint16),bool,bool,(uint256,uint8,bytes32,bytes32))": {
        "notice": "Caller provides collateral; loan can go to a different address."
      },
      "requestLoan(uint256,(uint128,uint64,uint16),address,bool)": {
        "notice": "Deposit an NFT as collateral and request a loan against it"
      },
      "setFeeTo(address)": {
        "notice": "Sets the beneficiary of fees accrued in liquidations. MasterContract Only Admin function."
      },
      "takeCollateralAndLend(uint256,address,(uint128,uint64,uint16),bool,(uint256,uint8,bytes32,bytes32))": {
        "notice": "Take collateral from a pre-commited borrower and lend against itCollateral must come from the borrower, not a third party."
      },
      "transferOwnership(address,bool,bool)": {
        "notice": "Transfers ownership to `newOwner`. Either directly or claimable by the new pending owner. Can only be invoked by the current `owner`."
      },
      "withdrawFees()": {
        "notice": "Withdraws the fees accumulated."
      }
    },
    "version": 1
  },
  "storageLayout": {
    "storage": [
      {
        "astId": 5442,
        "contract": "contracts/NFTPair.sol:NFTPair",
        "label": "owner",
        "offset": 0,
        "slot": "0",
        "type": "t_address"
      },
      {
        "astId": 5444,
        "contract": "contracts/NFTPair.sol:NFTPair",
        "label": "pendingOwner",
        "offset": 0,
        "slot": "1",
        "type": "t_address"
      },
      {
        "astId": 7684,
        "contract": "contracts/NFTPair.sol:NFTPair",
        "label": "feeTo",
        "offset": 0,
        "slot": "2",
        "type": "t_address"
      },
      {
        "astId": 7686,
        "contract": "contracts/NFTPair.sol:NFTPair",
        "label": "collateral",
        "offset": 0,
        "slot": "3",
        "type": "t_contract(IERC721)16866"
      },
      {
        "astId": 7688,
        "contract": "contracts/NFTPair.sol:NFTPair",
        "label": "asset",
        "offset": 0,
        "slot": "4",
        "type": "t_contract(IERC20)6157"
      },
      {
        "astId": 7690,
        "contract": "contracts/NFTPair.sol:NFTPair",
        "label": "feesEarnedShare",
        "offset": 0,
        "slot": "5",
        "type": "t_uint256"
      },
      {
        "astId": 7694,
        "contract": "contracts/NFTPair.sol:NFTPair",
        "label": "tokenLoanParams",
        "offset": 0,
        "slot": "6",
        "type": "t_mapping(t_uint256,t_struct(TokenLoanParams)17634_storage)"
      },
      {
        "astId": 7716,
        "contract": "contracts/NFTPair.sol:NFTPair",
        "label": "tokenLoan",
        "offset": 0,
        "slot": "7",
        "type": "t_mapping(t_uint256,t_struct(TokenLoan)7712_storage)"
      },
      {
        "astId": 7741,
        "contract": "contracts/NFTPair.sol:NFTPair",
        "label": "currentBatchIds",
        "offset": 0,
        "slot": "8",
        "type": "t_mapping(t_address,t_uint256)"
      }
    ],
    "types": {
      "t_address": {
        "encoding": "inplace",
        "label": "address",
        "numberOfBytes": "20"
      },
      "t_contract(IERC20)6157": {
        "encoding": "inplace",
        "label": "contract IERC20",
        "numberOfBytes": "20"
      },
      "t_contract(IERC721)16866": {
        "encoding": "inplace",
        "label": "contract IERC721",
        "numberOfBytes": "20"
      },
      "t_mapping(t_address,t_uint256)": {
        "encoding": "mapping",
        "key": "t_address",
        "label": "mapping(address => uint256)",
        "numberOfBytes": "32",
        "value": "t_uint256"
      },
      "t_mapping(t_uint256,t_struct(TokenLoan)7712_storage)": {
        "encoding": "mapping",
        "key": "t_uint256",
        "label": "mapping(uint256 => struct NFTPair.TokenLoan)",
        "numberOfBytes": "32",
        "value": "t_struct(TokenLoan)7712_storage"
      },
      "t_mapping(t_uint256,t_struct(TokenLoanParams)17634_storage)": {
        "encoding": "mapping",
        "key": "t_uint256",
        "label": "mapping(uint256 => struct TokenLoanParams)",
        "numberOfBytes": "32",
        "value": "t_struct(TokenLoanParams)17634_storage"
      },
      "t_struct(TokenLoan)7712_storage": {
        "encoding": "inplace",
        "label": "struct NFTPair.TokenLoan",
        "members": [
          {
            "astId": 7705,
            "contract": "contracts/NFTPair.sol:NFTPair",
            "label": "borrower",
            "offset": 0,
            "slot": "0",
            "type": "t_address"
          },
          {
            "astId": 7707,
            "contract": "contracts/NFTPair.sol:NFTPair",
            "label": "lender",
            "offset": 0,
            "slot": "1",
            "type": "t_address"
          },
          {
            "astId": 7709,
            "contract": "contracts/NFTPair.sol:NFTPair",
            "label": "startTime",
            "offset": 20,
            "slot": "1",
            "type": "t_uint64"
          },
          {
            "astId": 7711,
            "contract": "contracts/NFTPair.sol:NFTPair",
            "label": "status",
            "offset": 28,
            "slot": "1",
            "type": "t_uint8"
          }
        ],
        "numberOfBytes": "64"
      },
      "t_struct(TokenLoanParams)17634_storage": {
        "encoding": "inplace",
        "label": "struct TokenLoanParams",
        "members": [
          {
            "astId": 17629,
            "contract": "contracts/NFTPair.sol:NFTPair",
            "label": "valuation",
            "offset": 0,
            "slot": "0",
            "type": "t_uint128"
          },
          {
            "astId": 17631,
            "contract": "contracts/NFTPair.sol:NFTPair",
            "label": "duration",
            "offset": 16,
            "slot": "0",
            "type": "t_uint64"
          },
          {
            "astId": 17633,
            "contract": "contracts/NFTPair.sol:NFTPair",
            "label": "annualInterestBPS",
            "offset": 24,
            "slot": "0",
            "type": "t_uint16"
          }
        ],
        "numberOfBytes": "32"
      },
      "t_uint128": {
        "encoding": "inplace",
        "label": "uint128",
        "numberOfBytes": "16"
      },
      "t_uint16": {
        "encoding": "inplace",
        "label": "uint16",
        "numberOfBytes": "2"
      },
      "t_uint256": {
        "encoding": "inplace",
        "label": "uint256",
        "numberOfBytes": "32"
      },
      "t_uint64": {
        "encoding": "inplace",
        "label": "uint64",
        "numberOfBytes": "8"
      },
      "t_uint8": {
        "encoding": "inplace",
        "label": "uint8",
        "numberOfBytes": "1"
      }
    }
  }
}