{
  "address": "0x32134A95E94489CeED70Df48F0cB89C0115F9C01",
  "abi": [
    {
      "inputs": [
        {
          "internalType": "contract IBentoBoxV1",
          "name": "bentoBox_",
          "type": "address"
        }
      ],
      "stateMutability": "nonpayable",
      "type": "constructor"
    },
    {
      "anonymous": false,
      "inputs": [
        {
          "indexed": true,
          "internalType": "address",
          "name": "newFeeTo",
          "type": "address"
        }
      ],
      "name": "LogFeeTo",
      "type": "event"
    },
    {
      "anonymous": false,
      "inputs": [
        {
          "indexed": true,
          "internalType": "address",
          "name": "lender",
          "type": "address"
        },
        {
          "indexed": true,
          "internalType": "address",
          "name": "borrower",
          "type": "address"
        },
        {
          "indexed": true,
          "internalType": "uint256",
          "name": "tokenId",
          "type": "uint256"
        },
        {
          "components": [
            {
              "internalType": "uint128",
              "name": "valuation",
              "type": "uint128"
            },
            {
              "internalType": "uint64",
              "name": "duration",
              "type": "uint64"
            },
            {
              "internalType": "uint16",
              "name": "annualInterestBPS",
              "type": "uint16"
            },
            {
              "internalType": "uint16",
              "name": "ltvBPS",
              "type": "uint16"
            },
            {
              "internalType": "contract INFTOracle",
              "name": "oracle",
              "type": "address"
            }
          ],
          "indexed": false,
          "internalType": "struct TokenLoanParamsWithOracle",
          "name": "params",
          "type": "tuple"
        }
      ],
      "name": "LogLend",
      "type": "event"
    },
    {
      "anonymous": false,
      "inputs": [
        {
          "indexed": true,
          "internalType": "uint256",
          "name": "tokenId",
          "type": "uint256"
        },
        {
          "indexed": false,
          "internalType": "address",
          "name": "recipient",
          "type": "address"
        }
      ],
      "name": "LogRemoveCollateral",
      "type": "event"
    },
    {
      "anonymous": false,
      "inputs": [
        {
          "indexed": true,
          "internalType": "address",
          "name": "from",
          "type": "address"
        },
        {
          "indexed": true,
          "internalType": "uint256",
          "name": "tokenId",
          "type": "uint256"
        }
      ],
      "name": "LogRepay",
      "type": "event"
    },
    {
      "anonymous": false,
      "inputs": [
        {
          "indexed": true,
          "internalType": "address",
          "name": "borrower",
          "type": "address"
        },
        {
          "indexed": true,
          "internalType": "uint256",
          "name": "tokenId",
          "type": "uint256"
        },
        {
          "components": [
            {
              "internalType": "uint128",
              "name": "valuation",
              "type": "uint128"
            },
            {
              "internalType": "uint64",
              "name": "duration",
              "type": "uint64"
            },
            {
              "internalType": "uint16",
              "name": "annualInterestBPS",
              "type": "uint16"
            },
            {
              "internalType": "uint16",
              "name": "ltvBPS",
              "type": "uint16"
            },
            {
              "internalType": "contract INFTOracle",
              "name": "oracle",
              "type": "address"
            }
          ],
          "indexed": false,
          "internalType": "struct TokenLoanParamsWithOracle",
          "name": "params",
          "type": "tuple"
        }
      ],
      "name": "LogRequestLoan",
      "type": "event"
    },
    {
      "anonymous": false,
      "inputs": [
        {
          "indexed": true,
          "internalType": "uint256",
          "name": "tokenId",
          "type": "uint256"
        },
        {
          "components": [
            {
              "internalType": "uint128",
              "name": "valuation",
              "type": "uint128"
            },
            {
              "internalType": "uint64",
              "name": "duration",
              "type": "uint64"
            },
            {
              "internalType": "uint16",
              "name": "annualInterestBPS",
              "type": "uint16"
            },
            {
              "internalType": "uint16",
              "name": "ltvBPS",
              "type": "uint16"
            },
            {
              "internalType": "contract INFTOracle",
              "name": "oracle",
              "type": "address"
            }
          ],
          "indexed": false,
          "internalType": "struct TokenLoanParamsWithOracle",
          "name": "params",
          "type": "tuple"
        }
      ],
      "name": "LogUpdateLoanParams",
      "type": "event"
    },
    {
      "anonymous": false,
      "inputs": [
        {
          "indexed": true,
          "internalType": "address",
          "name": "feeTo",
          "type": "address"
        },
        {
          "indexed": false,
          "internalType": "uint256",
          "name": "feeShare",
          "type": "uint256"
        }
      ],
      "name": "LogWithdrawFees",
      "type": "event"
    },
    {
      "anonymous": false,
      "inputs": [
        {
          "indexed": true,
          "internalType": "address",
          "name": "previousOwner",
          "type": "address"
        },
        {
          "indexed": true,
          "internalType": "address",
          "name": "newOwner",
          "type": "address"
        }
      ],
      "name": "OwnershipTransferred",
      "type": "event"
    },
    {
      "inputs": [],
      "name": "DOMAIN_SEPARATOR",
      "outputs": [
        {
          "internalType": "bytes32",
          "name": "",
          "type": "bytes32"
        }
      ],
      "stateMutability": "view",
      "type": "function"
    },
    {
      "inputs": [],
      "name": "asset",
      "outputs": [
        {
          "internalType": "contract IERC20",
          "name": "",
          "type": "address"
        }
      ],
      "stateMutability": "view",
      "type": "function"
    },
    {
      "inputs": [],
      "name": "bentoBox",
      "outputs": [
        {
          "internalType": "contract IBentoBoxV1",
          "name": "",
          "type": "address"
        }
      ],
      "stateMutability": "view",
      "type": "function"
    },
    {
      "inputs": [
        {
          "internalType": "uint256",
          "name": "principal",
          "type": "uint256"
        },
        {
          "internalType": "uint64",
          "name": "t",
          "type": "uint64"
        },
        {
          "internalType": "uint16",
          "name": "aprBPS",
          "type": "uint16"
        }
      ],
      "name": "calculateInterest",
      "outputs": [
        {
          "internalType": "uint256",
          "name": "interest",
          "type": "uint256"
        }
      ],
      "stateMutability": "pure",
      "type": "function"
    },
    {
      "inputs": [],
      "name": "claimOwnership",
      "outputs": [],
      "stateMutability": "nonpayable",
      "type": "function"
    },
    {
      "inputs": [],
      "name": "collateral",
      "outputs": [
        {
          "internalType": "contract IERC721",
          "name": "",
          "type": "address"
        }
      ],
      "stateMutability": "view",
      "type": "function"
    },
    {
      "inputs": [
        {
          "internalType": "uint8[]",
          "name": "actions",
          "type": "uint8[]"
        },
        {
          "internalType": "uint256[]",
          "name": "values",
          "type": "uint256[]"
        },
        {
          "internalType": "bytes[]",
          "name": "datas",
          "type": "bytes[]"
        }
      ],
      "name": "cook",
      "outputs": [
        {
          "internalType": "uint256",
          "name": "value1",
          "type": "uint256"
        },
        {
          "internalType": "uint256",
          "name": "value2",
          "type": "uint256"
        }
      ],
      "stateMutability": "payable",
      "type": "function"
    },
    {
      "inputs": [
        {
          "internalType": "address",
          "name": "",
          "type": "address"
        }
      ],
      "name": "currentBatchIds",
      "outputs": [
        {
          "internalType": "uint256",
          "name": "",
          "type": "uint256"
        }
      ],
      "stateMutability": "view",
      "type": "function"
    },
    {
      "inputs": [],
      "name": "feeTo",
      "outputs": [
        {
          "internalType": "address",
          "name": "",
          "type": "address"
        }
      ],
      "stateMutability": "view",
      "type": "function"
    },
    {
      "inputs": [],
      "name": "feesEarnedShare",
      "outputs": [
        {
          "internalType": "uint256",
          "name": "",
          "type": "uint256"
        }
      ],
      "stateMutability": "view",
      "type": "function"
    },
    {
      "inputs": [
        {
          "internalType": "uint256",
          "name": "tokenId",
          "type": "uint256"
        },
        {
          "internalType": "uint256",
          "name": "price",
          "type": "uint256"
        },
        {
          "internalType": "contract INFTSeller",
          "name": "seller",
          "type": "address"
        },
        {
          "internalType": "address",
          "name": "excessRecipient",
          "type": "address"
        },
        {
          "internalType": "bool",
          "name": "skimShortage",
          "type": "bool"
        }
      ],
      "name": "flashRepay",
      "outputs": [],
      "stateMutability": "nonpayable",
      "type": "function"
    },
    {
      "inputs": [
        {
          "internalType": "uint256",
          "name": "tokenId",
          "type": "uint256"
        },
        {
          "internalType": "address",
          "name": "lender",
          "type": "address"
        },
        {
          "internalType": "address",
          "name": "borrower",
          "type": "address"
        },
        {
          "components": [
            {
              "internalType": "uint128",
              "name": "valuation",
              "type": "uint128"
            },
            {
              "internalType": "uint64",
              "name": "duration",
              "type": "uint64"
            },
            {
              "internalType": "uint16",
              "name": "annualInterestBPS",
              "type": "uint16"
            },
            {
              "internalType": "uint16",
              "name": "ltvBPS",
              "type": "uint16"
            },
            {
              "internalType": "contract INFTOracle",
              "name": "oracle",
              "type": "address"
            }
          ],
          "internalType": "struct TokenLoanParamsWithOracle",
          "name": "params",
          "type": "tuple"
        },
        {
          "internalType": "bool",
          "name": "anyTokenId",
          "type": "bool"
        },
        {
          "components": [
            {
              "internalType": "uint256",
              "name": "deadline",
              "type": "uint256"
            },
            {
              "internalType": "uint8",
              "name": "v",
              "type": "uint8"
            },
            {
              "internalType": "bytes32",
              "name": "r",
              "type": "bytes32"
            },
            {
              "internalType": "bytes32",
              "name": "s",
              "type": "bytes32"
            }
          ],
          "internalType": "struct SignatureParams",
          "name": "signature",
          "type": "tuple"
        },
        {
          "internalType": "uint256",
          "name": "price",
          "type": "uint256"
        },
        {
          "internalType": "contract INFTBuyer",
          "name": "buyer",
          "type": "address"
        },
        {
          "internalType": "bool",
          "name": "skimShortage",
          "type": "bool"
        }
      ],
      "name": "flashRequestAndBorrow",
      "outputs": [],
      "stateMutability": "nonpayable",
      "type": "function"
    },
    {
      "inputs": [],
      "name": "incrementBatchId",
      "outputs": [],
      "stateMutability": "nonpayable",
      "type": "function"
    },
    {
      "inputs": [
        {
          "internalType": "bytes",
          "name": "data",
          "type": "bytes"
        }
      ],
      "name": "init",
      "outputs": [],
      "stateMutability": "payable",
      "type": "function"
    },
    {
      "inputs": [
        {
          "internalType": "uint256",
          "name": "tokenId",
          "type": "uint256"
        },
        {
          "components": [
            {
              "internalType": "uint128",
              "name": "valuation",
              "type": "uint128"
            },
            {
              "internalType": "uint64",
              "name": "duration",
              "type": "uint64"
            },
            {
              "internalType": "uint16",
              "name": "annualInterestBPS",
              "type": "uint16"
            },
            {
              "internalType": "uint16",
              "name": "ltvBPS",
              "type": "uint16"
            },
            {
              "internalType": "contract INFTOracle",
              "name": "oracle",
              "type": "address"
            }
          ],
          "internalType": "struct TokenLoanParamsWithOracle",
          "name": "accepted",
          "type": "tuple"
        },
        {
          "internalType": "bool",
          "name": "skim",
          "type": "bool"
        }
      ],
      "name": "lend",
      "outputs": [],
      "stateMutability": "nonpayable",
      "type": "function"
    },
    {
      "inputs": [],
      "name": "masterContract",
      "outputs": [
        {
          "internalType": "contract NFTPairWithOracle",
          "name": "",
          "type": "address"
        }
      ],
      "stateMutability": "view",
      "type": "function"
    },
    {
      "inputs": [],
      "name": "owner",
      "outputs": [
        {
          "internalType": "address",
          "name": "",
          "type": "address"
        }
      ],
      "stateMutability": "view",
      "type": "function"
    },
    {
      "inputs": [],
      "name": "pendingOwner",
      "outputs": [
        {
          "internalType": "address",
          "name": "",
          "type": "address"
        }
      ],
      "stateMutability": "view",
      "type": "function"
    },
    {
      "inputs": [
        {
          "internalType": "uint256",
          "name": "tokenId",
          "type": "uint256"
        },
        {
          "internalType": "address",
          "name": "to",
          "type": "address"
        }
      ],
      "name": "removeCollateral",
      "outputs": [],
      "stateMutability": "nonpayable",
      "type": "function"
    },
    {
      "inputs": [
        {
          "internalType": "uint256",
          "name": "tokenId",
          "type": "uint256"
        },
        {
          "internalType": "uint256",
          "name": "principal",
          "type": "uint256"
        },
        {
          "internalType": "address",
          "name": "to",
          "type": "address"
        },
        {
          "internalType": "bool",
          "name": "skim",
          "type": "bool"
        }
      ],
      "name": "repay",
      "outputs": [],
      "stateMutability": "nonpayable",
      "type": "function"
    },
    {
      "inputs": [
        {
          "internalType": "uint256",
          "name": "tokenId",
          "type": "uint256"
        },
        {
          "internalType": "address",
          "name": "lender",
          "type": "address"
        },
        {
          "internalType": "address",
          "name": "borrower",
          "type": "address"
        },
        {
          "components": [
            {
              "internalType": "uint128",
              "name": "valuation",
              "type": "uint128"
            },
            {
              "internalType": "uint64",
              "name": "duration",
              "type": "uint64"
            },
            {
              "internalType": "uint16",
              "name": "annualInterestBPS",
              "type": "uint16"
            },
            {
              "internalType": "uint16",
              "name": "ltvBPS",
              "type": "uint16"
            },
            {
              "internalType": "contract INFTOracle",
              "name": "oracle",
              "type": "address"
            }
          ],
          "internalType": "struct TokenLoanParamsWithOracle",
          "name": "params",
          "type": "tuple"
        },
        {
          "internalType": "bool",
          "name": "skimCollateral",
          "type": "bool"
        },
        {
          "internalType": "bool",
          "name": "anyTokenId",
          "type": "bool"
        },
        {
          "components": [
            {
              "internalType": "uint256",
              "name": "deadline",
              "type": "uint256"
            },
            {
              "internalType": "uint8",
              "name": "v",
              "type": "uint8"
            },
            {
              "internalType": "bytes32",
              "name": "r",
              "type": "bytes32"
            },
            {
              "internalType": "bytes32",
              "name": "s",
              "type": "bytes32"
            }
          ],
          "internalType": "struct SignatureParams",
          "name": "signature",
          "type": "tuple"
        }
      ],
      "name": "requestAndBorrow",
      "outputs": [],
      "stateMutability": "nonpayable",
      "type": "function"
    },
    {
      "inputs": [
        {
          "internalType": "uint256",
          "name": "tokenId",
          "type": "uint256"
        },
        {
          "components": [
            {
              "internalType": "uint128",
              "name": "valuation",
              "type": "uint128"
            },
            {
              "internalType": "uint64",
              "name": "duration",
              "type": "uint64"
            },
            {
              "internalType": "uint16",
              "name": "annualInterestBPS",
              "type": "uint16"
            },
            {
              "internalType": "uint16",
              "name": "ltvBPS",
              "type": "uint16"
            },
            {
              "internalType": "contract INFTOracle",
              "name": "oracle",
              "type": "address"
            }
          ],
          "internalType": "struct TokenLoanParamsWithOracle",
          "name": "params",
          "type": "tuple"
        },
        {
          "internalType": "address",
          "name": "to",
          "type": "address"
        },
        {
          "internalType": "bool",
          "name": "skim",
          "type": "bool"
        }
      ],
      "name": "requestLoan",
      "outputs": [],
      "stateMutability": "nonpayable",
      "type": "function"
    },
    {
      "inputs": [
        {
          "internalType": "address",
          "name": "newFeeTo",
          "type": "address"
        }
      ],
      "name": "setFeeTo",
      "outputs": [],
      "stateMutability": "nonpayable",
      "type": "function"
    },
    {
      "inputs": [
        {
          "internalType": "uint256",
          "name": "tokenId",
          "type": "uint256"
        },
        {
          "internalType": "address",
          "name": "borrower",
          "type": "address"
        },
        {
          "components": [
            {
              "internalType": "uint128",
              "name": "valuation",
              "type": "uint128"
            },
            {
              "internalType": "uint64",
              "name": "duration",
              "type": "uint64"
            },
            {
              "internalType": "uint16",
              "name": "annualInterestBPS",
              "type": "uint16"
            },
            {
              "internalType": "uint16",
              "name": "ltvBPS",
              "type": "uint16"
            },
            {
              "internalType": "contract INFTOracle",
              "name": "oracle",
              "type": "address"
            }
          ],
          "internalType": "struct TokenLoanParamsWithOracle",
          "name": "params",
          "type": "tuple"
        },
        {
          "internalType": "bool",
          "name": "skimFunds",
          "type": "bool"
        },
        {
          "components": [
            {
              "internalType": "uint256",
              "name": "deadline",
              "type": "uint256"
            },
            {
              "internalType": "uint8",
              "name": "v",
              "type": "uint8"
            },
            {
              "internalType": "bytes32",
              "name": "r",
              "type": "bytes32"
            },
            {
              "internalType": "bytes32",
              "name": "s",
              "type": "bytes32"
            }
          ],
          "internalType": "struct SignatureParams",
          "name": "signature",
          "type": "tuple"
        }
      ],
      "name": "takeCollateralAndLend",
      "outputs": [],
      "stateMutability": "nonpayable",
      "type": "function"
    },
    {
      "inputs": [
        {
          "internalType": "uint256",
          "name": "",
          "type": "uint256"
        }
      ],
      "name": "tokenLoan",
      "outputs": [
        {
          "internalType": "address",
          "name": "borrower",
          "type": "address"
        },
        {
          "internalType": "address",
          "name": "lender",
          "type": "address"
        },
        {
          "internalType": "uint64",
          "name": "startTime",
          "type": "uint64"
        },
        {
          "internalType": "uint8",
          "name": "status",
          "type": "uint8"
        }
      ],
      "stateMutability": "view",
      "type": "function"
    },
    {
      "inputs": [
        {
          "internalType": "uint256",
          "name": "",
          "type": "uint256"
        }
      ],
      "name": "tokenLoanParams",
      "outputs": [
        {
          "internalType": "uint128",
          "name": "valuation",
          "type": "uint128"
        },
        {
          "internalType": "uint64",
          "name": "duration",
          "type": "uint64"
        },
        {
          "internalType": "uint16",
          "name": "annualInterestBPS",
          "type": "uint16"
        },
        {
          "internalType": "uint16",
          "name": "ltvBPS",
          "type": "uint16"
        },
        {
          "internalType": "contract INFTOracle",
          "name": "oracle",
          "type": "address"
        }
      ],
      "stateMutability": "view",
      "type": "function"
    },
    {
      "inputs": [
        {
          "internalType": "address",
          "name": "newOwner",
          "type": "address"
        },
        {
          "internalType": "bool",
          "name": "direct",
          "type": "bool"
        },
        {
          "internalType": "bool",
          "name": "renounce",
          "type": "bool"
        }
      ],
      "name": "transferOwnership",
      "outputs": [],
      "stateMutability": "nonpayable",
      "type": "function"
    },
    {
      "inputs": [
        {
          "internalType": "uint256",
          "name": "tokenId",
          "type": "uint256"
        },
        {
          "components": [
            {
              "internalType": "uint128",
              "name": "valuation",
              "type": "uint128"
            },
            {
              "internalType": "uint64",
              "name": "duration",
              "type": "uint64"
            },
            {
              "internalType": "uint16",
              "name": "annualInterestBPS",
              "type": "uint16"
            },
            {
              "internalType": "uint16",
              "name": "ltvBPS",
              "type": "uint16"
            },
            {
              "internalType": "contract INFTOracle",
              "name": "oracle",
              "type": "address"
            }
          ],
          "internalType": "struct TokenLoanParamsWithOracle",
          "name": "params",
          "type": "tuple"
        }
      ],
      "name": "updateLoanParams",
      "outputs": [],
      "stateMutability": "nonpayable",
      "type": "function"
    },
    {
      "inputs": [],
      "name": "withdrawFees",
      "outputs": [],
      "stateMutability": "nonpayable",
      "type": "function"
    }
  ],
  "transactionHash": "0x81c2b6c1f62f740465931ef3f595c78c06b5159c59bd669ce9c274183eb314e7",
  "args": [
    "0xe56F37Ef2e54ECaA41a9675da1c3445736d60B42"
  ],
  "numDeployments": 1,
  "solcInputHash": "957d564936a9a51fa0a705bb7246fd40",
  "bytecode": "0x6101006040523480156200001257600080fd5b50604051620057b2380380620057b28339810160408190526200003591620000fd565b600080546001600160a01b0319163390811782556040519091907f8be0079c531659141344cd1fd0a4f28419497f9722a3daafe3b4186f6b6457e0908290a34660a08190526200008581620000a7565b608052506001600160601b0319606091821b1660c05230901b60e0526200014c565b60007f47e79534a245952e8b16893a336b85a3d9ea9fa8c573f3d803afb92a794692188230604051602001620000e0939291906200012d565b604051602081830303815290604052805190602001209050919050565b6000602082840312156200010f578081fd5b81516001600160a01b038116811462000126578182fd5b9392505050565b92835260208301919091526001600160a01b0316604082015260600190565b60805160a05160c05160601c60e05160601c6155b26200020060003980610e415280611652525080610d025280610d965280610ef752806110f852806111c25280611286528061132a52806113ef528061147a5280611cc85280611ea05280611f655280611ff7528061254a528061261c52806126f2528061277f52806129345280612bb75280612db25280612e905280613a945280613b705280613d1d5250806127fa52508061282f52506155b26000f3fe6080604052600436106101c25760003560e01c8063656f3d64116100f7578063cd446e2211610095578063e30c397811610064578063e30c3978146104a8578063e5d90296146104bd578063eb66d33a146104dd578063f46901ed146104fd576101c2565b8063cd446e221461043e578063d41ddc9614610453578063d6e43e0f14610473578063d8dfeb4514610493576101c2565b80638bea2242116100d15780638bea2242146103b95780638da5cb5b146103e9578063a05a1637146103fe578063bef1e6211461041e576101c2565b8063656f3d641461036e5780636b2ace871461038f57806388fb3a50146103a4576101c2565b806324ba88ec1161016457806338d52e0f1161013e57806338d52e0f1461031c578063476343ee146103315780634ddf47d4146103465780634e71e0c814610359576101c2565b806324ba88ec146102c75780632e2f1901146102e75780633644e51514610307576101c2565b8063114c2cda116101a0578063114c2cda146102345780631329b68214610261578063217d81711461027657806321fa310014610296576101c2565b8063017e7e58146101c7578063078dfbe7146101f257806309954a9214610214575b600080fd5b3480156101d357600080fd5b506101dc61051d565b6040516101e991906149a2565b60405180910390f35b3480156101fe57600080fd5b5061021261020d366004614210565b61052c565b005b34801561022057600080fd5b5061021261022f366004614779565b61061b565b34801561024057600080fd5b5061025461024f3660046148eb565b610933565b6040516101e99190614a61565b34801561026d57600080fd5b506102546109b8565b34801561028257600080fd5b506102126102913660046147f7565b6109be565b3480156102a257600080fd5b506102b66102b136600461457a565b610b89565b6040516101e99594939291906153b2565b3480156102d357600080fd5b506102126102e236600461484f565b610bde565b3480156102f357600080fd5b5061021261030236600461488d565b610c0b565b34801561031357600080fd5b50610254610e1f565b34801561032857600080fd5b506101dc610e2e565b34801561033d57600080fd5b50610212610e3d565b610212610354366004614339565b610faf565b34801561036557600080fd5b50610212611036565b61038161037c36600461425a565b6110c3565b6040516101e9929190615442565b34801561039b57600080fd5b506101dc6110f6565b3480156103b057600080fd5b5061021261111a565b3480156103c557600080fd5b506103d96103d436600461457a565b611132565b6040516101e99493929190614a13565b3480156103f557600080fd5b506101dc611176565b34801561040a57600080fd5b50610254610419366004614095565b611185565b34801561042a57600080fd5b506102126104393660046146ce565b611197565b34801561044a57600080fd5b506101dc611650565b34801561045f57600080fd5b5061021261046e3660046145aa565b611674565b34801561047f57600080fd5b5061021261048e3660046147a5565b61196e565b34801561049f57600080fd5b506101dc611b9c565b3480156104b457600080fd5b506101dc611bab565b3480156104c957600080fd5b506102126104d83660046146b3565b611bba565b3480156104e957600080fd5b506102126104f836600461465a565b611be2565b34801561050957600080fd5b50610212610518366004614095565b611c09565b6002546001600160a01b031681565b6000546001600160a01b0316331461055f5760405162461bcd60e51b815260040161055690614fe6565b60405180910390fd5b81156105fa576001600160a01b0383161515806105795750805b6105955760405162461bcd60e51b815260040161055690614e2e565b600080546040516001600160a01b03808716939216917f8be0079c531659141344cd1fd0a4f28419497f9722a3daafe3b4186f6b6457e091a3600080546001600160a01b0385166001600160a01b031991821617909155600180549091169055610616565b600180546001600160a01b0319166001600160a01b0385161790555b505050565b610623613e67565b50600082815260076020908152604091829020825160808101845281546001600160a01b03908116825260019092015491821692810192909252600160a01b810467ffffffffffffffff1692820192909252600160e01b90910460ff1660608201819052600214156107ea5780602001516001600160a01b0316336001600160a01b0316146106c45760405162461bcd60e51b815260040161055690615276565b6106cc613e8e565b50600083815260066020908152604091829020825160a08101845281546001600160801b038116825267ffffffffffffffff600160801b8204811683860181905261ffff600160c01b8404811697850197909752600160d01b90920490951660608301526001909201546001600160a01b03166080820152918501519192919091161080159061076b5750805183516001600160801b03918216911611155b80156107875750806040015161ffff16836040015161ffff1611155b80156107a35750806060015161ffff16836060015161ffff1610155b80156107c8575080608001516001600160a01b031683608001516001600160a01b0316145b6107e45760405162461bcd60e51b815260040161055690614df7565b50610840565b606081015160ff16600114156108285780516001600160a01b031633146108235760405162461bcd60e51b81526004016105569061512c565b610840565b60405162461bcd60e51b8152600401610556906151d1565b60008381526006602090815260409182902084518154928601518685015160608801516001600160801b03199095166001600160801b039093169290921767ffffffffffffffff60801b1916600160801b67ffffffffffffffff909216919091021761ffff60c01b1916600160c01b61ffff928316021761ffff60d01b1916600160d01b91909316029190911781556080840151600190910180546001600160a01b0319166001600160a01b039092169190911790555183907f458ea5c741227ae04221dc53879ec92e42ef90c58701a64d50352fc5ab26422a90610926908590615352565b60405180910390a2505050565b64496cebb80061ffff821667ffffffffffffffff84160284810282900491829060025b6006811161098a5764496cebb80082019150818484028161097357fe5b0492506109808584611c7d565b9450600101610956565b50600160801b84106109ae5760405162461bcd60e51b8152600401610556906152ad565b5050509392505050565b60055481565b6109c6613e67565b50600083815260076020908152604091829020825160808101845281546001600160a01b03908116825260019283015490811693820193909352600160a01b830467ffffffffffffffff1693810193909352600160e01b90910460ff166060830181905214610a475760405162461bcd60e51b815260040161055690614d89565b610a4f613e8e565b50600084815260066020908152604091829020825160a08101845281546001600160801b0380821680845267ffffffffffffffff600160801b8404169584019590955261ffff600160c01b8304811696840196909652600160d01b90910490941660608201526001909101546001600160a01b031660808201528551909216148015610af75750836020015167ffffffffffffffff16816020015167ffffffffffffffff1611155b8015610b135750836040015161ffff16816040015161ffff1610155b8015610b2f5750836060015161ffff16816060015161ffff1611155b8015610b54575083608001516001600160a01b031681608001516001600160a01b0316145b610b705760405162461bcd60e51b815260040161055690614dc0565b8151610b8190339080888588611ca6565b505050505050565b600660205260009081526040902080546001909101546001600160801b0382169167ffffffffffffffff600160801b8204169161ffff600160c01b8304811692600160d01b900416906001600160a01b031685565b6000806000610bef878787876121ff565b93509350509250610c0281848487612603565b50505050505050565b6000806000610c1e8860008860006121ff565b935093505092506000600460009054906101000a90046001600160a01b031690506000876001600160a01b031663f9cf7c21600360009054906101000a90046001600160a01b03168c858d306040518663ffffffff1660e01b8152600401610c8a959493929190614ceb565b602060405180830381600087803b158015610ca457600080fd5b505af1158015610cb8573d6000803e3d6000fd5b505050506040513d601f19601f82011682018060405250810190610cdc9190614592565b905084811015610d775785610d7257604051633c6340f360e21b81526001600160a01b037f0000000000000000000000000000000000000000000000000000000000000000169063f18d03cc90610d3f90859033903090878c0390600401614ba4565b600060405180830381600087803b158015610d5957600080fd5b505af1158015610d6d573d6000803e3d6000fd5b505050505b610e06565b84811115610e0657604051633c6340f360e21b81526001600160a01b037f0000000000000000000000000000000000000000000000000000000000000000169063f18d03cc90610dd390859030908c908b880390600401614ba4565b600060405180830381600087803b158015610ded57600080fd5b505af1158015610e01573d6000803e3d6000fd5b505050505b610e138386866001612603565b50505050505050505050565b6000610e296127f5565b905090565b6004546001600160a01b031681565b60007f00000000000000000000000000000000000000000000000000000000000000006001600160a01b031663017e7e586040518163ffffffff1660e01b815260040160206040518083038186803b158015610e9857600080fd5b505afa158015610eac573d6000803e3d6000fd5b505050506040513d601f19601f82011682018060405250810190610ed091906140b1565b6005549091508015610f6a5760048054604051633c6340f360e21b81526001600160a01b037f000000000000000000000000000000000000000000000000000000000000000081169363f18d03cc93610f329392169130918891889101614ba4565b600060405180830381600087803b158015610f4c57600080fd5b505af1158015610f60573d6000803e3d6000fd5b5050600060055550505b816001600160a01b03167fbe641c3ffc44b2d6c184f023fa4ed7bda4b6ffa71e03b3c98ae0c776da1f17e782604051610fa39190614a61565b60405180910390a25050565b6003546001600160a01b031615610fd85760405162461bcd60e51b815260040161055690615163565b610fe481830183614500565b600480546001600160a01b03199081166001600160a01b0393841617909155600380549091169282169290921791829055166110325760405162461bcd60e51b81526004016105569061519a565b5050565b6001546001600160a01b03163381146110615760405162461bcd60e51b815260040161055690615089565b600080546040516001600160a01b03808516939216917f8be0079c531659141344cd1fd0a4f28419497f9722a3daafe3b4186f6b6457e091a3600080546001600160a01b039092166001600160a01b0319928316179055600180549091169055565b6000806110ce613ebc565b6110df898989898989600088612855565b805160209091015190999098509650505050505050565b7f000000000000000000000000000000000000000000000000000000000000000081565b33600090815260086020526040902080546001019055565b600760205260009081526040902080546001909101546001600160a01b0391821691811690600160a01b810467ffffffffffffffff1690600160e01b900460ff1684565b6000546001600160a01b031681565b60086020526000908152604090205481565b6111a4888a88888861311f565b60048054604051636d289ce560e11b81526000926001600160a01b037f000000000000000000000000000000000000000000000000000000000000000081169363da5139ca936111fe939190921691899160019101614cc8565b60206040518083038186803b15801561121657600080fd5b505afa15801561122a573d6000803e3d6000fd5b505050506040513d601f19601f8201168201806040525081019061124e9190614592565b905060006112618a8a308e8c6000611ca6565b9050818111156112fa5760048054604051633c6340f360e21b81526001600160a01b037f000000000000000000000000000000000000000000000000000000000000000081169363f18d03cc936112c39392169130918f918989039101614ba4565b600060405180830381600087803b1580156112dd57600080fd5b505af11580156112f1573d6000803e3d6000fd5b5050505061145f565b8181101561145f5782156113d45760055460048054604051633de222bb60e21b8152928501926001600160a01b037f000000000000000000000000000000000000000000000000000000000000000081169363f7888aec9361136193921691309101614b8a565b60206040518083038186803b15801561137957600080fd5b505afa15801561138d573d6000803e3d6000fd5b505050506040513d601f19601f820116820180604052508101906113b19190614592565b10156113cf5760405162461bcd60e51b8152600401610556906150f5565b61145f565b60048054604051633c6340f360e21b81526001600160a01b037f000000000000000000000000000000000000000000000000000000000000000081169363f18d03cc9361142c9392169133913091888a039101614ba4565b600060405180830381600087803b15801561144657600080fd5b505af115801561145a573d6000803e3d6000fd5b505050505b6004805460405163097da6d360e41b81526001600160a01b037f00000000000000000000000000000000000000000000000000000000000000008116936397da6d30936114b89392169130918a918c9160009101614bce565b6040805180830381600087803b1580156114d157600080fd5b505af11580156114e5573d6000803e3d6000fd5b505050506040513d601f19601f82011682018060405250810190611509919061482c565b5050836001600160a01b03166333563d1b600460009054906101000a90046001600160a01b031687600360009054906101000a90046001600160a01b03168f306040518663ffffffff1660e01b8152600401611569959493929190614ceb565b600060405180830381600087803b15801561158357600080fd5b505af1158015611597573d6000803e3d6000fd5b50506003546040516331a9108f60e11b81523093506001600160a01b039091169150636352211e906115cd908f90600401614a61565b60206040518083038186803b1580156115e557600080fd5b505afa1580156115f9573d6000803e3d6000fd5b505050506040513d601f19601f8201168201806040525081019061161d91906140b1565b6001600160a01b0316146116435760405162461bcd60e51b815260040161055690614faf565b5050505050505050505050565b7f000000000000000000000000000000000000000000000000000000000000000081565b61167c613e67565b50600082815260076020908152604091829020825160808101845281546001600160a01b03908116825260019283015490811693820193909352600160a01b830467ffffffffffffffff1693810193909352600160e01b90910460ff166060830181905214156117145780516001600160a01b0316331461170f5760405162461bcd60e51b81526004016105569061512c565b611934565b606081015160ff16600214156119345780602001516001600160a01b0316826001600160a01b0316148061175d575080602001516001600160a01b0316336001600160a01b0316145b6117795760405162461bcd60e51b815260040161055690615276565b611781613e8e565b50600083815260066020908152604091829020825160a08101845281546001600160801b038116825267ffffffffffffffff600160801b8204811694830185905261ffff600160c01b8304811684880152600160d01b90920490911660608301526001909201546001600160a01b03166080820152928401514291169091011061193257600061183382600001516001600160801b0316846040015167ffffffffffffffff1642038460400151610933565b905060008183600001516001600160801b031601905060008084608001516001600160a01b031663b464631b308a6040518363ffffffff1660e01b815260040161187e929190614a48565b6040805180830381600087803b15801561189757600080fd5b505af11580156118ab573d6000803e3d6000fd5b505050506040513d601f19601f820116820180604052508101906118cf919061430c565b91509150816118f05760405162461bcd60e51b815260040161055690614d52565b6127108302611910866060015161ffff168361344390919063ffffffff16565b1061192d5760405162461bcd60e51b8152600401610556906150be565b505050505b505b61193e838361347a565b827f279c10f9827cdddd314534dd33cb906c270c3ac21cdd72ed94a1d534aca5a25a8360405161092691906149a2565b611976613e67565b50600084815260076020908152604091829020825160808101845281546001600160a01b03908116825260019092015491821692810192909252600160a01b810467ffffffffffffffff1692820192909252600160e01b90910460ff1660608201819052156119f75760405162461bcd60e51b815260040161055690614f78565b6001600160a01b038381168083526001606080850182815260008a8152600760209081526040808320895181546001600160a01b0319908116918b16919091178255838b01519188018054848d01519751908316938c16939093177fffffffff0000000000000000ffffffffffffffffffffffffffffffffffffffff16600160a01b67ffffffffffffffff98891602177fffffff00ffffffffffffffffffffffffffffffffffffffffffffffffffffffff16600160e01b60ff909416939093029290921790915560068352928190208c518154938e01518e840151978f01516001600160801b03199095166001600160801b039092169190911767ffffffffffffffff60801b1916600160801b91909616029490941761ffff60c01b1916600160c01b61ffff968716021761ffff60d01b1916600160d01b959092169490940217825560808a0151919093018054909316941693909317905590518691907f9dc87ceb1ac2811b0dbf8562e9f2385758ab8f65e8bf6090dd01725734909cd590611b82908890615352565b60405180910390a3611b95338684613560565b5050505050565b6003546001600160a01b031681565b6001546001600160a01b031681565b611bc7868886858561311f565b611bd68686878a886000611ca6565b50610c02338885613560565b611bee84868584613673565b611bfc338586888787611ca6565b50611b9584866000613560565b6000546001600160a01b03163314611c335760405162461bcd60e51b815260040161055690614fe6565b600280546001600160a01b0319166001600160a01b0383169081179091556040517fcf1d3f17e521c635e0d20b8acba94ba170afc041d0546d46dafa09d3c9c19eb390600090a250565b81810181811015611ca05760405162461bcd60e51b815260040161055690614f0a565b92915050565b600480548351604051636d289ce560e11b815260009384936001600160a01b037f000000000000000000000000000000000000000000000000000000000000000081169463da5139ca94611d039493909216929091879101614c9c565b60206040518083038186803b158015611d1b57600080fd5b505afa158015611d2f573d6000803e3d6000fd5b505050506040513d601f19601f82011682018060405250810190611d539190614592565b608085015190915061271060648302819004916103e8830291909104906001600160a01b031615611e735760008087608001516001600160a01b031663b464631b308b6040518363ffffffff1660e01b8152600401611db3929190614a48565b6040805180830381600087803b158015611dcc57600080fd5b505af1158015611de0573d6000803e3d6000fd5b505050506040513d601f19601f82011682018060405250810190611e04919061430c565b9150915081611e255760405162461bcd60e51b815260040161055690614d52565b61271088600001516001600160801b031602611e52896060015161ffff168361344390919063ffffffff16565b1015611e705760405162461bcd60e51b815260040161055690615208565b50505b8415611f4a5760055460048054604051633de222bb60e21b81528587038501909301926001600160a01b037f000000000000000000000000000000000000000000000000000000000000000081169363f7888aec93611ed793921691309101614b8a565b60206040518083038186803b158015611eef57600080fd5b505afa158015611f03573d6000803e3d6000fd5b505050506040513d601f19601f82011682018060405250810190611f279190614592565b1015611f455760405162461bcd60e51b8152600401610556906150f5565b611fd7565b60048054604051633c6340f360e21b81526001600160a01b037f000000000000000000000000000000000000000000000000000000000000000081169363f18d03cc93611fa4939216918f913091898b0389019101614ba4565b600060405180830381600087803b158015611fbe57600080fd5b505af1158015611fd2573d6000803e3d6000fd5b505050505b60048054604051633c6340f360e21b815284860396506001600160a01b037f000000000000000000000000000000000000000000000000000000000000000081169363f18d03cc936120329392169130918e918b9101614ba4565b600060405180830381600087803b15801561204c57600080fd5b505af1158015612060573d6000803e3d6000fd5b50506005805484019055506120759050613e67565b8a81602001906001600160a01b031690816001600160a01b0316815250508981600001906001600160a01b031690816001600160a01b0316815250506002816060019060ff16908160ff168152505042816040019067ffffffffffffffff16908167ffffffffffffffff168152505080600760008a815260200190815260200160002060008201518160000160006101000a8154816001600160a01b0302191690836001600160a01b0316021790555060208201518160010160006101000a8154816001600160a01b0302191690836001600160a01b0316021790555060408201518160010160146101000a81548167ffffffffffffffff021916908367ffffffffffffffff160217905550606082015181600101601c6101000a81548160ff021916908360ff160217905550905050878a6001600160a01b03168c6001600160a01b03167fae7e1ba7777d84ff6b1fe4c7ee687ee102fceca71f5406a7322a246226d42f628a6040516121e99190615352565b60405180910390a4505050509695505050505050565b60008060008061220d613e67565b50600088815260076020908152604091829020825160808101845281546001600160a01b03908116825260019092015491821692810192909252600160a01b810467ffffffffffffffff1692820192909252600160e01b90910460ff16606082018190526002146122905760405162461bcd60e51b815260040161055690614d1b565b80516001600160a01b03163314806122b4575080516001600160a01b038881169116145b6122d05760405162461bcd60e51b81526004016105569061501b565b6122d8613e8e565b50600089815260066020908152604091829020825160a08101845281546001600160801b038116825267ffffffffffffffff600160801b8204811694830185905261ffff600160c01b8304811684880152600160d01b90920490911660608301526001909201546001600160a01b031660808201529284015142911690910110156123755760405162461bcd60e51b815260040161055690614ed3565b88158061238c575080516001600160801b03168910155b156123f05780516001600160801b031698506123a88a8961347a565b89876123b457336123b6565b305b6001600160a01b03167fcd300581542c5eab58e736a0b08b42cec829c4504d1c16af90f4630b27e30de360405160405180910390a36124ed565b80516001600160801b039081168a90038116825260008b81526006602090815260409182902084518154928601518487015160608801516001600160801b0319909516929096169190911767ffffffffffffffff60801b1916600160801b67ffffffffffffffff909216919091021761ffff60c01b1916600160c01b61ffff958616021761ffff60d01b1916600160d01b94909216939093021782556080830151600190920180546001600160a01b0319166001600160a01b0390931692909217909155518a907f458ea5c741227ae04221dc53879ec92e42ef90c58701a64d50352fc5ab26422a906124e4908490615352565b60405180910390a25b60006125178a6001600160801b0316846040015167ffffffffffffffff1642038460400151610933565b8a8101965090506127106103e882020461252f613eda565b60048054604051634ffe34db60e01b81526001600160a01b037f0000000000000000000000000000000000000000000000000000000000000000811693634ffe34db9361257f93921691016149a2565b604080518083038186803b15801561259657600080fd5b505afa1580156125aa573d6000803e3d6000fd5b505050506040513d601f19601f820116820180604052508101906125ce9190614538565b90506125dc818960016138ab565b98506125ea818360006138ab565b9650846020015195505050505050945094509450949050565b6004546001600160a01b031681156126db5760055484017f00000000000000000000000000000000000000000000000000000000000000006001600160a01b031663f7888aec83306040518363ffffffff1660e01b8152600401612668929190614b8a565b60206040518083038186803b15801561268057600080fd5b505afa158015612694573d6000803e3d6000fd5b505050506040513d601f19601f820116820180604052508101906126b89190614592565b10156126d65760405162461bcd60e51b8152600401610556906150f5565b612760565b604051633c6340f360e21b81526001600160a01b037f0000000000000000000000000000000000000000000000000000000000000000169063f18d03cc9061272d908490339030908a90600401614ba4565b600060405180830381600087803b15801561274757600080fd5b505af115801561275b573d6000803e3d6000fd5b505050505b6005805484019055604051633c6340f360e21b81526001600160a01b037f0000000000000000000000000000000000000000000000000000000000000000169063f18d03cc906127bc90849030908a90898b0390600401614ba4565b600060405180830381600087803b1580156127d657600080fd5b505af11580156127ea573d6000803e3d6000fd5b505050505050505050565b6000467f0000000000000000000000000000000000000000000000000000000000000000811461282d5761282881613948565b61284f565b7f00000000000000000000000000000000000000000000000000000000000000005b91505090565b8682101561311557600088888481811061286b57fe5b90506020020160208101906128809190614921565b905060ff8116600114156128ce57600085858581811061289c57fe5b90506020028101906128ae9190615450565b8101906128bb919061457a565b90506128c68161399c565b835250613109565b60ff8116600214156129c05760008585858181106128e857fe5b90506020028101906128fa9190615450565b810190612907919061457a565b90506129128161399c565b6020840181905260048054604051636d289ce560e11b81526001600160a01b037f000000000000000000000000000000000000000000000000000000000000000081169463da5139ca94612970949290921692909160019101614cc8565b60206040518083038186803b15801561298857600080fd5b505afa15801561299c573d6000803e3d6000fd5b505050506040513d601f19601f820116820180604052508101906128c69190614592565b60ff811660031415612a5d5760008060008060008060008b8b8b8181106129e357fe5b90506020028101906129f59190615450565b810190612a02919061484f565b9299509095509092509050612a19878583856121ff565b60208d0192909252828c5260019c909c019b9197509095509250612a4590508f8f8f8f8f8f8f8f612855565b612a5182868684612603565b50505050505050613115565b60ff811660041415612aac57600080868686818110612a7857fe5b9050602002810190612a8a9190615450565b810190612a9791906145aa565b91509150612aa58282611674565b5050613109565b60ff8116600c1415612b0d576000612ac2613e8e565b600080888888818110612ad157fe5b9050602002810190612ae39190615450565b810190612af091906147a5565b9350935093509350612b048484848461196e565b50505050613109565b60ff8116600d1415612b69576000612b23613e8e565b6000878787818110612b3157fe5b9050602002810190612b439190615450565b810190612b5091906147f7565b925092509250612b618383836109be565b505050613109565b60ff811660181415612c48576000806000806000808a8a8a818110612b8a57fe5b9050602002810190612b9c9190615450565b810190612ba991906140cd565b9550955095509550955095507f00000000000000000000000000000000000000000000000000000000000000006001600160a01b031663c0a47c938787878787876040518763ffffffff1660e01b8152600401612c0b969594939291906149b6565b600060405180830381600087803b158015612c2557600080fd5b505af1158015612c39573d6000803e3d6000fd5b50505050505050505050613109565b60ff811660141415612cea57612cde858585818110612c6357fe5b9050602002810190612c759190615450565b8080601f0160208091040260200160405190810160405280939291908181526020018383808284376000920191909152508b92508a9150879050818110612cb857fe5b9050602002013584600060028110612ccc57fe5b60200201518560016020020151613a53565b60208401528252613109565b60ff811660151415612d6557612cde858585818110612d0557fe5b9050602002810190612d179190615450565b8080601f01602080910402602001604051908101604052809392919081815260200183838082843760009201829052508793509150612d539050565b60200201518460016020020151613b49565b60ff811660161415612e4c576000806000878787818110612d8257fe5b9050602002810190612d949190615450565b810190612da191906143a6565b919450925090506001600160a01b037f00000000000000000000000000000000000000000000000000000000000000001663f18d03cc843385612df3868b600060200201518c60016020020151613c37565b6040518563ffffffff1660e01b8152600401612e129493929190614ba4565b600060405180830381600087803b158015612e2c57600080fd5b505af1158015612e40573d6000803e3d6000fd5b50505050505050613109565b60ff811660171415612ee0576000606080878787818110612e6957fe5b9050602002810190612e7b9190615450565b810190612e88919061442d565b9250925092507f00000000000000000000000000000000000000000000000000000000000000006001600160a01b0316630fca8843843385856040518563ffffffff1660e01b8152600401612e129493929190614c02565b60ff8116601e1415612fcc5760606000612f72898987818110612eff57fe5b90506020020135888888818110612f1257fe5b9050602002810190612f249190615450565b8080601f01602080910402602001604051908101604052809392919081815260200183838082843760009201829052508a93509150612f609050565b60200201518760016020020151613c5f565b915091508060ff1660011415612f9d5781806020019051810190612f969190614592565b8452612aa5565b8060ff1660021415612aa55781806020019051810190612fbd919061482c565b60208601528452506131099050565b60ff81166028141561307957600080600080612fe6613e8e565b6000612ff0613e67565b8b8b8b818110612ffc57fe5b905060200281019061300e9190615450565b81019061301b91906145ce565b919c50949a509298509096509450909250905061303b858785858561311f565b61304a85858689876000611ca6565b5050505050506130668b8b8b8b8b8b8b6001019b508b8b612855565b613071338284613560565b505050613115565b60ff8116602914156130e657600080613090613e8e565b600061309a613e67565b8989898181106130a657fe5b90506020028101906130b89190615450565b8101906130c5919061465a565b945094509450945094506130dc8585858585611be2565b5050505050613109565b60ff8116602a141561310957336000908152600860205260409020805460010190555b50600190910190612855565b5050505050505050565b602081015160ff1615801561313657506040810151155b801561314457506060810151155b156132025782516020840151604080860151606087015160808801519251632022616360e01b81526001600160a01b038b169563202261639561318f958c95929491936004016153f7565b602060405180830381600087803b1580156131a957600080fd5b505af11580156131bd573d6000803e3d6000fd5b505050506040513d601f19601f820116820180604052508101906131e191906142f0565b6131fd5760405162461bcd60e51b815260040161055690614f41565b61334d565b80514211156132235760405162461bcd60e51b815260040161055690614e65565b6001600160a01b038516600090815260086020526040812054907f8a9babc0343382eb95f2afe42315b0aae02bf65f3402dea5279df2857e1d5e33308561326a578761326d565b60005b87516020808a01516040808c015160608d015160808e01518c51935161329f9a9998978f979096958e92909101614a6a565b604051602081830303815290604052805190602001209050866001600160a01b031660016132cc83613e2f565b856020015186604001518760600151604051600081526020016040526040516132f89493929190614b6c565b6020604051602081039080840390855afa15801561331a573d6000803e3d6000fd5b505050602060405103516001600160a01b03161461334a5760405162461bcd60e51b81526004016105569061531b565b50505b600084815260076020526040902060010154600160e01b900460ff16156133865760405162461bcd60e51b815260040161055690614f78565b505060009182526006602090815260409283902082518154928401519484015160608501516001600160801b03199094166001600160801b039092169190911767ffffffffffffffff60801b1916600160801b67ffffffffffffffff909616959095029490941761ffff60c01b1916600160c01b61ffff958616021761ffff60d01b1916600160d01b949092169390930217825560800151600190910180546001600160a01b0319166001600160a01b0390921691909117905550565b600081158061345e5750508082028282828161345b57fe5b04145b611ca05760405162461bcd60e51b8152600401610556906152e4565b600082815260076020908152604080832080546001600160a01b03199081168255600191820180547fffffff000000000000000000000000000000000000000000000000000000000016905560069093529281902080547fffffffff000000000000000000000000000000000000000000000000000000001681559092018054909116905560035490516323b872dd60e01b81526001600160a01b03909116906323b872dd90613532903090859087906004016149ef565b600060405180830381600087803b15801561354c57600080fd5b505af1158015610b81573d6000803e3d6000fd5b8015613611576003546040516331a9108f60e11b815230916001600160a01b031690636352211e90613596908690600401614a61565b60206040518083038186803b1580156135ae57600080fd5b505afa1580156135c2573d6000803e3d6000fd5b505050506040513d601f19601f820116820180604052508101906135e691906140b1565b6001600160a01b03161461360c5760405162461bcd60e51b81526004016105569061523f565b610616565b6003546040516323b872dd60e01b81526001600160a01b03909116906323b872dd90613645908690309087906004016149ef565b600060405180830381600087803b15801561365f57600080fd5b505af1158015610c02573d6000803e3d6000fd5b80514211156136945760405162461bcd60e51b815260040161055690614e65565b6001600160a01b03841660009081526008602090815260408083205485518684015187840151606089015160808a015189519651959897613709977ffc330aba716d251faf66653e0e3573bae6b9a6dfd29fd30dede3c7cddb7f60fe9730978f97909690959094909390928d92909101614ae0565b604051602081830303815290604052805190602001209050856001600160a01b0316600161373683613e2f565b856020015186604001518760600151604051600081526020016040526040516137629493929190614b6c565b6020604051602081039080840390855afa158015613784573d6000803e3d6000fd5b505050602060405103516001600160a01b0316146137b45760405162461bcd60e51b81526004016105569061531b565b600085815260076020526040902060010154600160e01b900460ff16156137ed5760405162461bcd60e51b815260040161055690614f78565b50505060009182526006602090815260409283902082518154928401519484015160608501516001600160801b03199094166001600160801b039092169190911767ffffffffffffffff60801b1916600160801b67ffffffffffffffff909616959095029490941761ffff60c01b1916600160c01b61ffff958616021761ffff60d01b1916600160d01b949092169390930217825560800151600190910180546001600160a01b0319166001600160a01b0390921691909117905550565b82516000906001600160801b03166138c4575081613941565b835160208501516001600160801b03918216916138e391869116613443565b816138ea57fe5b04905081801561392e57508284602001516001600160801b031661392486600001516001600160801b03168461344390919063ffffffff16565b8161392b57fe5b04105b156139415761393e816001611c7d565b90505b9392505050565b60007f47e79534a245952e8b16893a336b85a3d9ea9fa8c573f3d803afb92a79469218823060405160200161397f93929190614b4d565b604051602081830303815290604052805190602001209050919050565b60006139a6613e8e565b506000828152600660209081526040808320815160a08101835281546001600160801b03811680835267ffffffffffffffff600160801b830481168488015261ffff600160c01b84048116858801908152600160d01b9094041660608501526001948501546001600160a01b03166080850152898852600790965293862090920154915190949293613a47928592600160a01b909104909116420390610933565b91909101949350505050565b60008060008060008089806020019051810190613a7091906143e6565b9350935093509350613a83828989613c37565b9150613a90818989613c37565b90507f00000000000000000000000000000000000000000000000000000000000000006001600160a01b03166302b9446c8a86338787876040518763ffffffff1660e01b8152600401613ae7959493929190614bce565b60408051808303818588803b158015613aff57600080fd5b505af1158015613b13573d6000803e3d6000fd5b50505050506040513d601f19601f82011682018060405250810190613b38919061482c565b955095505050505094509492505050565b60008060008060008088806020019051810190613b6691906143e6565b93509350935093507f00000000000000000000000000000000000000000000000000000000000000006001600160a01b03166397da6d30853386613bab878e8e613c37565b613bb6878f8f613c37565b6040518663ffffffff1660e01b8152600401613bd6959493929190614bce565b6040805180830381600087803b158015613bef57600080fd5b505af1158015613c03573d6000803e3d6000fd5b505050506040513d601f19601f82011682018060405250810190613c27919061482c565b9550955050505050935093915050565b600080841215613c57576000198414613c505781613c52565b825b61393e565b509192915050565b60606000806060600080600089806020019051810190613c7f919061413a565b94509450945094509450828015613c94575081155b15613cc2578389604051602001613cac929190614959565b6040516020818303038152906040529350613d1b565b82158015613ccd5750815b15613ce5578388604051602001613cac929190614959565b828015613cef5750815b15613d1b57838989604051602001613d099392919061497b565b60405160208183030381529060405293505b7f00000000000000000000000000000000000000000000000000000000000000006001600160a01b0316856001600160a01b031614158015613d6b57506003546001600160a01b03868116911614155b8015613d8057506001600160a01b0385163014155b613d9c5760405162461bcd60e51b815260040161055690615052565b60006060866001600160a01b03168d87604051613db9919061493d565b60006040518083038185875af1925050503d8060008114613df6576040519150601f19603f3d011682016040523d82523d6000602084013e613dfb565b606091505b509150915081613e1d5760405162461bcd60e51b815260040161055690614e9c565b9c919b50909950505050505050505050565b600060405180604001604052806002815260200161190160f01b815250613e546127f5565b8360405160200161397f9392919061497b565b60408051608081018252600080825260208201819052918101829052606081019190915290565b6040805160a08101825260008082526020820181905291810182905260608101829052608081019190915290565b60405180604001604052806002906020820280368337509192915050565b604080518082019091526000808252602082015290565b8035611ca08161550c565b60008083601f840112613f0d578182fd5b50813567ffffffffffffffff811115613f24578182fd5b6020830191508360208083028501011115613f3e57600080fd5b9250929050565b600082601f830112613f55578081fd5b8135613f68613f63826154bc565b615495565b818152915060208083019084810181840286018201871015613f8957600080fd5b60005b84811015613fa857813584529282019290820190600101613f8c565b505050505092915050565b8051611ca081615524565b600060808284031215613fcf578081fd5b613fd96080615495565b9050813581526020820135613fed8161556d565b80602083015250604082013560408201526060820135606082015292915050565b600060a0828403121561401f578081fd5b61402960a0615495565b9050813561403681615532565b8152602082013561404681615557565b6020820152604082013561405981615547565b6040820152606082013561406c81615547565b6060820152608082013561407f8161550c565b608082015292915050565b8051611ca08161556d565b6000602082840312156140a6578081fd5b81356139418161550c565b6000602082840312156140c2578081fd5b81516139418161550c565b60008060008060008060c087890312156140e5578182fd5b86356140f08161550c565b955060208701356141008161550c565b9450604087013561411081615524565b935060608701356141208161556d565b9598949750929560808101359460a0909101359350915050565b600080600080600060a08688031215614151578283fd5b855161415c8161550c565b602087015190955067ffffffffffffffff80821115614179578485fd5b818801915088601f83011261418c578485fd5b81518181111561419a578586fd5b6141ad601f8201601f1916602001615495565b91508082528960208285010111156141c3578586fd5b6141d48160208401602086016154dc565b5094506141e690508760408801613fb3565b92506141f58760608801613fb3565b9150614204876080880161408a565b90509295509295909350565b600080600060608486031215614224578081fd5b833561422f8161550c565b9250602084013561423f81615524565b9150604084013561424f81615524565b809150509250925092565b60008060008060008060608789031215614272578384fd5b863567ffffffffffffffff80821115614289578586fd5b6142958a838b01613efc565b909850965060208901359150808211156142ad578586fd5b6142b98a838b01613efc565b909650945060408901359150808211156142d1578384fd5b506142de89828a01613efc565b979a9699509497509295939492505050565b600060208284031215614301578081fd5b815161394181615524565b6000806040838503121561431e578182fd5b825161432981615524565b6020939093015192949293505050565b6000806020838503121561434b578182fd5b823567ffffffffffffffff80821115614362578384fd5b818501915085601f830112614375578384fd5b813581811115614383578485fd5b866020828501011115614394578485fd5b60209290920196919550909350505050565b6000806000606084860312156143ba578081fd5b83356143c58161550c565b925060208401356143d58161550c565b929592945050506040919091013590565b600080600080608085870312156143fb578182fd5b84516144068161550c565b60208601519094506144178161550c565b6040860151606090960151949790965092505050565b600080600060608486031215614441578081fd5b833561444c8161550c565b925060208481013567ffffffffffffffff80821115614469578384fd5b818701915087601f83011261447c578384fd5b813561448a613f63826154bc565b81815284810190848601868402860187018c10156144a6578788fd5b8795505b838610156144d0576144bc8c82613ef1565b8352600195909501949186019186016144aa565b509650505060408701359250808311156144e8578384fd5b50506144f686828701613f45565b9150509250925092565b60008060408385031215614512578182fd5b823561451d8161550c565b9150602083013561452d8161550c565b809150509250929050565b600060408284031215614549578081fd5b6145536040615495565b825161455e81615532565b8152602083015161456e81615532565b60208201529392505050565b60006020828403121561458b578081fd5b5035919050565b6000602082840312156145a3578081fd5b5051919050565b600080604083850312156145bc578182fd5b82359150602083013561452d8161550c565b60008060008060008060006101c0888a0312156145e9578485fd5b8735965060208801356145fb8161550c565b9550604088013561460b8161550c565b945061461a8960608a0161400e565b935061010088013561462b81615524565b925061012088013561463c81615524565b915061464c896101408a01613fbe565b905092959891949750929550565b60008060008060006101808688031215614672578283fd5b8535945060208601356146848161550c565b9350614693876040880161400e565b925060e08601356146a381615524565b9150614204876101008801613fbe565b60008060008060008060006101c0888a0312156145e9578081fd5b60008060008060008060008060006102008a8c0312156146ec578283fd5b8935985060208a01356146fe8161550c565b975060408a013561470e8161550c565b965061471d8b60608c0161400e565b95506101008a013561472e81615524565b945061473e8b6101208c01613fbe565b93506101a08a013592506101c08a01356147578161550c565b91506101e08a013561476881615524565b809150509295985092959850929598565b60008060c0838503121561478b578182fd5b8235915061479c846020850161400e565b90509250929050565b60008060008061010085870312156147bb578182fd5b843593506147cc866020870161400e565b925060c08501356147dc8161550c565b915060e08501356147ec81615524565b939692955090935050565b600080600060e0848603121561480b578081fd5b8335925061481c856020860161400e565b915060c084013561424f81615524565b6000806040838503121561483e578182fd5b505080516020909101519092909150565b60008060008060808587031215614864578182fd5b8435935060208501359250604085013561487d8161550c565b915060608501356147ec81615524565b600080600080600060a086880312156148a4578283fd5b853594506020860135935060408601356148bd8161550c565b925060608601356148cd8161550c565b915060808601356148dd81615524565b809150509295509295909350565b6000806000606084860312156148ff578081fd5b83359250602084013561491181615557565b9150604084013561424f81615547565b600060208284031215614932578081fd5b81356139418161556d565b6000825161494f8184602087016154dc565b9190910192915050565b6000835161496b8184602088016154dc565b9190910191825250602001919050565b6000845161498d8184602089016154dc565b91909101928352506020820152604001919050565b6001600160a01b0391909116815260200190565b6001600160a01b039687168152949095166020850152911515604084015260ff166060830152608082015260a081019190915260c00190565b6001600160a01b039384168152919092166020820152604081019190915260600190565b6001600160a01b03948516815292909316602083015267ffffffffffffffff16604082015260ff909116606082015260800190565b6001600160a01b03929092168252602082015260400190565b90815260200190565b9a8b526001600160a01b03998a1660208c015260408b019890985295151560608a01526001600160801b0394909416608089015267ffffffffffffffff9290921660a088015261ffff90811660c08801521660e08601529092166101008401526101208301919091526101408201526101600190565b998a526001600160a01b0398891660208b015260408a01979097526001600160801b0395909516606089015267ffffffffffffffff93909316608088015261ffff91821660a08801521660c086015290921660e08401526101008301919091526101208201526101400190565b92835260208301919091526001600160a01b0316604082015260600190565b93845260ff9290921660208401526040830152606082015260800190565b6001600160a01b0392831681529116602082015260400190565b6001600160a01b039485168152928416602084015292166040820152606081019190915260800190565b6001600160a01b03958616815293851660208501529190931660408301526060820192909252608081019190915260a00190565b6000608082016001600160a01b0380881684526020818816818601526080604086015282875180855260a0870191508289019450855b81811015614c56578551851683529483019491830191600101614c38565b50508581036060870152865180825290820193509150808601845b83811015614c8d57815185529382019390820190600101614c71565b50929998505050505050505050565b6001600160a01b039390931683526001600160801b039190911660208301521515604082015260600190565b6001600160a01b0393909316835260208301919091521515604082015260600190565b6001600160a01b039586168152602081019490945291841660408401526060830152909116608082015260a00190565b60208082526010908201527f4e4654506169723a206e6f206c6f616e00000000000000000000000000000000604082015260600190565b6020808252601b908201527f4e4654506169723a206f7261636c65206e6f7420776f726b696e670000000000604082015260600190565b60208082526016908201527f4e4654506169723a206e6f7420617661696c61626c6500000000000000000000604082015260600190565b60208082526013908201527f4e4654506169723a2062616420706172616d7300000000000000000000000000604082015260600190565b60208082526015908201527f4e4654506169723a20776f72736520706172616d730000000000000000000000604082015260600190565b60208082526015908201527f4f776e61626c653a207a65726f20616464726573730000000000000000000000604082015260600190565b6020808252601a908201527f4e4654506169723a207369676e61747572652065787069726564000000000000604082015260600190565b60208082526014908201527f4e4654506169723a2063616c6c206661696c6564000000000000000000000000604082015260600190565b60208082526015908201527f4e4654506169723a206c6f616e20657870697265640000000000000000000000604082015260600190565b60208082526018908201527f426f72696e674d6174683a20416464204f766572666c6f770000000000000000604082015260600190565b6020808252601c908201527f4e4654506169723a204c656e64696e67436c7562207265667573656400000000604082015260600190565b60208082526014908201527f4e4654506169723a206c6f616e20657869737473000000000000000000000000604082015260600190565b60208082526015908201527f4e4654506169723a206275796572206661696c65640000000000000000000000604082015260600190565b6020808252818101527f4f776e61626c653a2063616c6c6572206973206e6f7420746865206f776e6572604082015260600190565b60208082526015908201527f4e4654506169723a206e6f7420626f72726f7765720000000000000000000000604082015260600190565b60208082526013908201527f4e4654506169723a2063616e27742063616c6c00000000000000000000000000604082015260600190565b6020808252818101527f4f776e61626c653a2063616c6c657220213d2070656e64696e67206f776e6572604082015260600190565b60208082526019908201527f4e4654506169723a204c5456206e6f7420657863656564656400000000000000604082015260600190565b60208082526016908201527f4e4654506169723a20736b696d20746f6f206d75636800000000000000000000604082015260600190565b60208082526019908201527f4e4654506169723a206e6f742074686520626f72726f77657200000000000000604082015260600190565b6020808252601c908201527f4e4654506169723a20616c726561647920696e697469616c697a656400000000604082015260600190565b60208082526011908201527f4e4654506169723a206261642070616972000000000000000000000000000000604082015260600190565b60208082526016908201527f4e4654506169723a206e6f20636f6c6c61746572616c00000000000000000000604082015260600190565b6020808252601b908201527f4e4654506169723a20616c726561647920756e64657277617465720000000000604082015260600190565b60208082526014908201527f4e4654506169723a20736b696d206661696c6564000000000000000000000000604082015260600190565b60208082526017908201527f4e4654506169723a206e6f7420746865206c656e646572000000000000000000604082015260600190565b6020808252601b908201527f4e4654506169723a20496e74657265737420756e70617961626c650000000000604082015260600190565b60208082526018908201527f426f72696e674d6174683a204d756c204f766572666c6f770000000000000000604082015260600190565b6020808252601a908201527f4e4654506169723a207369676e617475726520696e76616c6964000000000000604082015260600190565b600060a0820190506001600160801b03835116825267ffffffffffffffff6020840151166020830152604083015161ffff808216604085015280606086015116606085015250506001600160a01b03608084015116608083015292915050565b6001600160801b0395909516855267ffffffffffffffff93909316602085015261ffff91821660408501521660608301526001600160a01b0316608082015260a00190565b9586526001600160801b0394909416602086015267ffffffffffffffff92909216604085015261ffff90811660608501521660808301526001600160a01b031660a082015260c00190565b918252602082015260400190565b6000808335601e19843603018112615466578283fd5b83018035915067ffffffffffffffff821115615480578283fd5b602001915036819003821315613f3e57600080fd5b60405181810167ffffffffffffffff811182821017156154b457600080fd5b604052919050565b600067ffffffffffffffff8211156154d2578081fd5b5060209081020190565b60005b838110156154f75781810151838201526020016154df565b83811115615506576000848401525b50505050565b6001600160a01b038116811461552157600080fd5b50565b801515811461552157600080fd5b6001600160801b038116811461552157600080fd5b61ffff8116811461552157600080fd5b67ffffffffffffffff8116811461552157600080fd5b60ff8116811461552157600080fdfea26469706673582212203afc9d91c69cda2586954ed206981d3477945e042af313eea037f4b034c4216264736f6c634300060c0033",
  "devdoc": {
    "details": "This contract allows contract calls to any contract (except BentoBox) from arbitrary callers thus, don't trust calls from this contract in any circumstances.",
    "kind": "dev",
    "methods": {
      "calculateInterest(uint256,uint64,uint16)": {
        "params": {
          "aprBPS": "Annual rate in basis points (1/10_000)",
          "principal": "Amount owed in wei",
          "t": "Duration in seconds"
        }
      },
      "cook(uint8[],uint256[],bytes[])": {
        "params": {
          "actions": "An array with a sequence of actions to execute (see ACTION_ declarations).",
          "datas": "A one-to-one mapped array to `actions`. Contains abi encoded data of function arguments.",
          "values": "A one-to-one mapped array to `actions`. ETH amounts to send along with the actions. Only applicable to `ACTION_CALL`, `ACTION_BENTO_DEPOSIT`."
        },
        "returns": {
          "value1": "May contain the first positioned return value of the last executed action (if applicable).",
          "value2": "May contain the second positioned return value of the last executed action which returns 2 values (if applicable)."
        }
      },
      "flashRepay(uint256,uint256,address,address,bool)": {
        "params": {
          "excessRecipient": "Receives any funds left over after repaying, if any",
          "price": "Sale price of the token, in wei",
          "seller": "INFTSeller contract that will perform the sale",
          "skimShortage": "True if any extra funds required have already been Bento-transfered to the contract. Take care to send enough; interest accumulates by the second.",
          "tokenId": "Token ID of the loan in question."
        }
      },
      "flashRequestAndBorrow(uint256,address,address,(uint128,uint64,uint16,uint16,address),bool,(uint256,uint8,bytes32,bytes32),uint256,address,bool)": {
        "params": {
          "anyTokenId": "Set if lender agreed to any token. Must have tokenId 0 in signature.",
          "borrower": "Receives the funds (and excess if token is cheaper)",
          "buyer": "INFTBuyer contract that will purchase the token",
          "lender": "Lender, whose BentoBox balance the funds will come from",
          "params": "Loan parameters requested, and signed by the lender",
          "price": "Price of token (in wei), sent to buyer contract",
          "signature": "(deadline, v, r, s) of signature. (See docs)",
          "skimShortage": "True if any funds needed in excess of the loan have already been Bento-transfered to the contract",
          "tokenId": "ID of the token that will function as collateral"
        }
      },
      "lend(uint256,(uint128,uint64,uint16,uint16,address),bool)": {
        "params": {
          "accepted": "Loan parameters as the lender saw them, for security",
          "skim": "True if the funds have been Bento-transferred to the contract",
          "tokenId": "ID of the token that will function as collateral"
        }
      },
      "removeCollateral(uint256,address)": {
        "params": {
          "to": "The receiver of the token.",
          "tokenId": "The token"
        }
      },
      "repay(uint256,uint256,address,bool)": {
        "params": {
          "principal": "How much of the principal to repay. Saturates at the full loan value. Zero also taken to mean 100%.",
          "skim": "True if the funds have already been Bento-transfered to the contract. Take care to send enough; interest accumulates by the second.",
          "to": "Recipient of the returned collateral. Can be anyone if msg.sender is the borrower, otherwise the borrower.",
          "tokenId": "Token ID of the loan in question."
        }
      },
      "requestAndBorrow(uint256,address,address,(uint128,uint64,uint16,uint16,address),bool,bool,(uint256,uint8,bytes32,bytes32))": {
        "params": {
          "anyTokenId": "Set if lender agreed to any token. Must have tokenId 0 in signature.",
          "borrower": "Receives the funds and the option to repay",
          "lender": "Lender, whose BentoBox balance the funds will come from",
          "params": "Loan parameters requested, and signed by the lender",
          "signature": "(deadline, v, r, s) of signature. (See docs)",
          "skimCollateral": "True if the collateral has already been transferred",
          "tokenId": "ID of the token that will function as collateral"
        }
      },
      "requestLoan(uint256,(uint128,uint64,uint16,uint16,address),address,bool)": {
        "params": {
          "params": "Loan conditions on offer",
          "skim": "True if the token has already been transferred",
          "to": "Address to receive the loan, or option to withdraw collateral",
          "tokenId": "ID of the NFT"
        }
      },
      "setFeeTo(address)": {
        "params": {
          "newFeeTo": "The address of the receiver."
        }
      },
      "takeCollateralAndLend(uint256,address,(uint128,uint64,uint16,uint16,address),bool,(uint256,uint8,bytes32,bytes32))": {
        "params": {
          "borrower": "Address that provides collateral and receives the loan",
          "params": "Loan terms offered, and signed by the borrower",
          "signature": "(deadline, v, r, s) of signature. (See docs)",
          "skimFunds": "True if the funds have been Bento-transferred to the contract",
          "tokenId": "ID of the token that will function as collateral"
        }
      },
      "transferOwnership(address,bool,bool)": {
        "params": {
          "direct": "True if `newOwner` should be set immediately. False if `newOwner` needs to use `claimOwnership`.",
          "newOwner": "Address of the new owner.",
          "renounce": "Allows the `newOwner` to be `address(0)` if `direct` and `renounce` is True. Has no effect otherwise."
        }
      },
      "updateLoanParams(uint256,(uint128,uint64,uint16,uint16,address))": {
        "params": {
          "params": "The desired new loan parameters",
          "tokenId": "The token ID of the loan in question"
        }
      }
    },
    "title": "NFTPairWithOracle",
    "version": 1
  },
  "userdoc": {
    "kind": "user",
    "methods": {
      "claimOwnership()": {
        "notice": "Needs to be called by `pendingOwner` to claim ownership."
      },
      "constructor": "The constructor is only used for the initial master contract.Subsequent clones are initialised via `init`.",
      "cook(uint8[],uint256[],bytes[])": {
        "notice": "Executes a set of actions and allows composability (contract calls) to other contracts."
      },
      "flashRepay(uint256,uint256,address,address,bool)": {
        "notice": "Repay a loan in full, by selling the token in the same transaction. Must be the borrower."
      },
      "flashRequestAndBorrow(uint256,address,address,(uint128,uint64,uint16,uint16,address),bool,(uint256,uint8,bytes32,bytes32),uint256,address,bool)": {
        "notice": "Request and immediately borrow from a pre-committed lender, while buying the collateral in the same transaction.Caller provides extra funds if needed; loan can go to a different address."
      },
      "init(bytes)": {
        "notice": "De facto constructor for clone contracts"
      },
      "lend(uint256,(uint128,uint64,uint16,uint16,address),bool)": {
        "notice": "Lends with the parameters specified by the borrower."
      },
      "removeCollateral(uint256,address)": {
        "notice": "Removes `tokenId` as collateral and transfers it to `to`.This destroys the loan."
      },
      "repay(uint256,uint256,address,bool)": {
        "notice": "Repay a loan in part or in full"
      },
      "requestAndBorrow(uint256,address,address,(uint128,uint64,uint16,uint16,address),bool,bool,(uint256,uint8,bytes32,bytes32))": {
        "notice": "Caller provides collateral; loan can go to a different address."
      },
      "requestLoan(uint256,(uint128,uint64,uint16,uint16,address),address,bool)": {
        "notice": "Deposit an NFT as collateral and request a loan against it"
      },
      "setFeeTo(address)": {
        "notice": "Sets the beneficiary of fees accrued in liquidations. MasterContract Only Admin function."
      },
      "takeCollateralAndLend(uint256,address,(uint128,uint64,uint16,uint16,address),bool,(uint256,uint8,bytes32,bytes32))": {
        "notice": "Take collateral from a pre-commited borrower and lend against itCollateral must come from the borrower, not a third party."
      },
      "transferOwnership(address,bool,bool)": {
        "notice": "Transfers ownership to `newOwner`. Either directly or claimable by the new pending owner. Can only be invoked by the current `owner`."
      },
      "withdrawFees()": {
        "notice": "Withdraws the fees accumulated."
      }
    },
    "version": 1
  },
  "storageLayout": {
    "storage": [
      {
        "astId": 5442,
        "contract": "contracts/NFTPairWithOracle.sol:NFTPairWithOracle",
        "label": "owner",
        "offset": 0,
        "slot": "0",
        "type": "t_address"
      },
      {
        "astId": 5444,
        "contract": "contracts/NFTPairWithOracle.sol:NFTPairWithOracle",
        "label": "pendingOwner",
        "offset": 0,
        "slot": "1",
        "type": "t_address"
      },
      {
        "astId": 10477,
        "contract": "contracts/NFTPairWithOracle.sol:NFTPairWithOracle",
        "label": "feeTo",
        "offset": 0,
        "slot": "2",
        "type": "t_address"
      },
      {
        "astId": 10479,
        "contract": "contracts/NFTPairWithOracle.sol:NFTPairWithOracle",
        "label": "collateral",
        "offset": 0,
        "slot": "3",
        "type": "t_contract(IERC721)16866"
      },
      {
        "astId": 10481,
        "contract": "contracts/NFTPairWithOracle.sol:NFTPairWithOracle",
        "label": "asset",
        "offset": 0,
        "slot": "4",
        "type": "t_contract(IERC20)6157"
      },
      {
        "astId": 10483,
        "contract": "contracts/NFTPairWithOracle.sol:NFTPairWithOracle",
        "label": "feesEarnedShare",
        "offset": 0,
        "slot": "5",
        "type": "t_uint256"
      },
      {
        "astId": 10487,
        "contract": "contracts/NFTPairWithOracle.sol:NFTPairWithOracle",
        "label": "tokenLoanParams",
        "offset": 0,
        "slot": "6",
        "type": "t_mapping(t_uint256,t_struct(TokenLoanParamsWithOracle)17648_storage)"
      },
      {
        "astId": 10509,
        "contract": "contracts/NFTPairWithOracle.sol:NFTPairWithOracle",
        "label": "tokenLoan",
        "offset": 0,
        "slot": "7",
        "type": "t_mapping(t_uint256,t_struct(TokenLoan)10505_storage)"
      },
      {
        "astId": 10534,
        "contract": "contracts/NFTPairWithOracle.sol:NFTPairWithOracle",
        "label": "currentBatchIds",
        "offset": 0,
        "slot": "8",
        "type": "t_mapping(t_address,t_uint256)"
      }
    ],
    "types": {
      "t_address": {
        "encoding": "inplace",
        "label": "address",
        "numberOfBytes": "20"
      },
      "t_contract(IERC20)6157": {
        "encoding": "inplace",
        "label": "contract IERC20",
        "numberOfBytes": "20"
      },
      "t_contract(IERC721)16866": {
        "encoding": "inplace",
        "label": "contract IERC721",
        "numberOfBytes": "20"
      },
      "t_contract(INFTOracle)17412": {
        "encoding": "inplace",
        "label": "contract INFTOracle",
        "numberOfBytes": "20"
      },
      "t_mapping(t_address,t_uint256)": {
        "encoding": "mapping",
        "key": "t_address",
        "label": "mapping(address => uint256)",
        "numberOfBytes": "32",
        "value": "t_uint256"
      },
      "t_mapping(t_uint256,t_struct(TokenLoan)10505_storage)": {
        "encoding": "mapping",
        "key": "t_uint256",
        "label": "mapping(uint256 => struct NFTPairWithOracle.TokenLoan)",
        "numberOfBytes": "32",
        "value": "t_struct(TokenLoan)10505_storage"
      },
      "t_mapping(t_uint256,t_struct(TokenLoanParamsWithOracle)17648_storage)": {
        "encoding": "mapping",
        "key": "t_uint256",
        "label": "mapping(uint256 => struct TokenLoanParamsWithOracle)",
        "numberOfBytes": "32",
        "value": "t_struct(TokenLoanParamsWithOracle)17648_storage"
      },
      "t_struct(TokenLoan)10505_storage": {
        "encoding": "inplace",
        "label": "struct NFTPairWithOracle.TokenLoan",
        "members": [
          {
            "astId": 10498,
            "contract": "contracts/NFTPairWithOracle.sol:NFTPairWithOracle",
            "label": "borrower",
            "offset": 0,
            "slot": "0",
            "type": "t_address"
          },
          {
            "astId": 10500,
            "contract": "contracts/NFTPairWithOracle.sol:NFTPairWithOracle",
            "label": "lender",
            "offset": 0,
            "slot": "1",
            "type": "t_address"
          },
          {
            "astId": 10502,
            "contract": "contracts/NFTPairWithOracle.sol:NFTPairWithOracle",
            "label": "startTime",
            "offset": 20,
            "slot": "1",
            "type": "t_uint64"
          },
          {
            "astId": 10504,
            "contract": "contracts/NFTPairWithOracle.sol:NFTPairWithOracle",
            "label": "status",
            "offset": 28,
            "slot": "1",
            "type": "t_uint8"
          }
        ],
        "numberOfBytes": "64"
      },
      "t_struct(TokenLoanParamsWithOracle)17648_storage": {
        "encoding": "inplace",
        "label": "struct TokenLoanParamsWithOracle",
        "members": [
          {
            "astId": 17639,
            "contract": "contracts/NFTPairWithOracle.sol:NFTPairWithOracle",
            "label": "valuation",
            "offset": 0,
            "slot": "0",
            "type": "t_uint128"
          },
          {
            "astId": 17641,
            "contract": "contracts/NFTPairWithOracle.sol:NFTPairWithOracle",
            "label": "duration",
            "offset": 16,
            "slot": "0",
            "type": "t_uint64"
          },
          {
            "astId": 17643,
            "contract": "contracts/NFTPairWithOracle.sol:NFTPairWithOracle",
            "label": "annualInterestBPS",
            "offset": 24,
            "slot": "0",
            "type": "t_uint16"
          },
          {
            "astId": 17645,
            "contract": "contracts/NFTPairWithOracle.sol:NFTPairWithOracle",
            "label": "ltvBPS",
            "offset": 26,
            "slot": "0",
            "type": "t_uint16"
          },
          {
            "astId": 17647,
            "contract": "contracts/NFTPairWithOracle.sol:NFTPairWithOracle",
            "label": "oracle",
            "offset": 0,
            "slot": "1",
            "type": "t_contract(INFTOracle)17412"
          }
        ],
        "numberOfBytes": "64"
      },
      "t_uint128": {
        "encoding": "inplace",
        "label": "uint128",
        "numberOfBytes": "16"
      },
      "t_uint16": {
        "encoding": "inplace",
        "label": "uint16",
        "numberOfBytes": "2"
      },
      "t_uint256": {
        "encoding": "inplace",
        "label": "uint256",
        "numberOfBytes": "32"
      },
      "t_uint64": {
        "encoding": "inplace",
        "label": "uint64",
        "numberOfBytes": "8"
      },
      "t_uint8": {
        "encoding": "inplace",
        "label": "uint8",
        "numberOfBytes": "1"
      }
    }
  }
}