{
  "address": "0x2ed641367f16f9783666409be7d083c8c49cBEc2",
  "abi": [
    {
      "inputs": [
        {
          "internalType": "address",
          "name": "_bentoBox",
          "type": "address"
        },
        {
          "internalType": "address",
          "name": "_pair",
          "type": "address"
        },
        {
          "internalType": "address",
          "name": "_mim",
          "type": "address"
        },
        {
          "internalType": "address",
          "name": "_zeroXExchangeProxy",
          "type": "address"
        }
      ],
      "stateMutability": "nonpayable",
      "type": "constructor"
    },
    {
      "inputs": [],
      "name": "ErrToken0SwapFailed",
      "type": "error"
    },
    {
      "inputs": [],
      "name": "ErrToken1SwapFailed",
      "type": "error"
    },
    {
      "inputs": [],
      "name": "bentoBox",
      "outputs": [
        {
          "internalType": "contract IBentoBoxV1Minimal",
          "name": "",
          "type": "address"
        }
      ],
      "stateMutability": "view",
      "type": "function"
    },
    {
      "inputs": [],
      "name": "mim",
      "outputs": [
        {
          "internalType": "contract ERC20",
          "name": "",
          "type": "address"
        }
      ],
      "stateMutability": "view",
      "type": "function"
    },
    {
      "inputs": [],
      "name": "pair",
      "outputs": [
        {
          "internalType": "contract IUniswapV2Pair",
          "name": "",
          "type": "address"
        }
      ],
      "stateMutability": "view",
      "type": "function"
    },
    {
      "inputs": [
        {
          "internalType": "address",
          "name": "",
          "type": "address"
        },
        {
          "internalType": "address",
          "name": "",
          "type": "address"
        },
        {
          "internalType": "address",
          "name": "recipient",
          "type": "address"
        },
        {
          "internalType": "uint256",
          "name": "shareToMin",
          "type": "uint256"
        },
        {
          "internalType": "uint256",
          "name": "shareFrom",
          "type": "uint256"
        },
        {
          "internalType": "bytes",
          "name": "data",
          "type": "bytes"
        }
      ],
      "name": "swap",
      "outputs": [
        {
          "internalType": "uint256",
          "name": "extraShare",
          "type": "uint256"
        },
        {
          "internalType": "uint256",
          "name": "shareReturned",
          "type": "uint256"
        }
      ],
      "stateMutability": "nonpayable",
      "type": "function"
    },
    {
      "inputs": [
        {
          "internalType": "address",
          "name": "",
          "type": "address"
        },
        {
          "internalType": "address",
          "name": "",
          "type": "address"
        },
        {
          "internalType": "address",
          "name": "",
          "type": "address"
        },
        {
          "internalType": "address",
          "name": "",
          "type": "address"
        },
        {
          "internalType": "uint256",
          "name": "",
          "type": "uint256"
        },
        {
          "internalType": "uint256",
          "name": "",
          "type": "uint256"
        },
        {
          "internalType": "bytes",
          "name": "",
          "type": "bytes"
        }
      ],
      "name": "swapExact",
      "outputs": [
        {
          "internalType": "uint256",
          "name": "",
          "type": "uint256"
        },
        {
          "internalType": "uint256",
          "name": "",
          "type": "uint256"
        }
      ],
      "stateMutability": "pure",
      "type": "function"
    },
    {
      "inputs": [],
      "name": "zeroXExchangeProxy",
      "outputs": [
        {
          "internalType": "address",
          "name": "",
          "type": "address"
        }
      ],
      "stateMutability": "view",
      "type": "function"
    }
  ],
  "transactionHash": "0x346198f66d68fffaeec9ce827f377dc7e9b0841ded262ccfcbf179e05bf00e87",
  "args": [
    "0xB3f5c7D0Ac3944a9d9A9623D6B50bCeA85A26753",
    "0x47029bc8f5CBe3b464004E87eF9c9419a48018cd",
    "0xB153FB3d196A8eB25522705560ac152eeEc57901",
    "0xDEF1ABE32c034e558Cdd535791643C58a13aCC10"
  ],
  "numDeployments": 1,
  "solcInputHash": "e0bd86da2c8b952442e4530258ea255f",
  "bytecode": "0x6101006040523480156200001257600080fd5b5060405162000e4838038062000e48833981016040819052620000359162000250565b6001600160a01b0380851660805283811660a081905283821660c05290821660e05260408051630dfe168160e01b81529051620000e292849260001992630dfe1681916004808201926020929091908290030181865afa1580156200009e573d6000803e3d6000fd5b505050506040513d601f19601f82011682018060405250810190620000c49190620002ad565b6001600160a01b0316620001b160201b6200065a179092919060201c565b6200012b8160001960a0516001600160a01b031663d21220a76040518163ffffffff1660e01b8152600401602060405180830381865afa1580156200009e573d6000803e3d6000fd5b60c05160405163095ea7b360e01b81526001600160a01b03868116600483015260001960248301529091169063095ea7b3906044016020604051808303816000875af115801562000180573d6000803e3d6000fd5b505050506040513d601f19601f82011682018060405250810190620001a69190620002d2565b5050505050620002f6565b600060405163095ea7b360e01b8152836004820152826024820152602060006044836000895af13d15601f3d11600160005114161716915050806200022d5760405162461bcd60e51b815260206004820152600e60248201526d1054141493d59157d1905253115160921b604482015260640160405180910390fd5b50505050565b80516001600160a01b03811681146200024b57600080fd5b919050565b600080600080608085870312156200026757600080fd5b620002728562000233565b9350620002826020860162000233565b9250620002926040860162000233565b9150620002a26060860162000233565b905092959194509250565b600060208284031215620002c057600080fd5b620002cb8262000233565b9392505050565b600060208284031215620002e557600080fd5b81518015158114620002cb57600080fd5b60805160a05160c05160e051610ae3620003656000396000818160c001528181610376015261042c01526000818160e7015261052b0152600081816101360152818161019d0152818161026101526102fc015260008181607c015281816101e501526105010152610ae36000f3fe608060405234801561001057600080fd5b50600436106100725760003560e01c8063a5d4096b11610050578063a5d4096b14610109578063a8aa1b3114610131578063c507ffc11461015857600080fd5b80636b2ace87146100775780639997c7f1146100bb5780639f67679e146100e2575b600080fd5b61009e7f000000000000000000000000000000000000000000000000000000000000000081565b6040516001600160a01b0390911681526020015b60405180910390f35b61009e7f000000000000000000000000000000000000000000000000000000000000000081565b61009e7f000000000000000000000000000000000000000000000000000000000000000081565b61011c61011736600461074f565b610176565b604080519283526020830191909152016100b2565b61009e7f000000000000000000000000000000000000000000000000000000000000000081565b61011c6101663660046107d8565b6000809850989650505050505050565b60008080610186848601866108b8565b60405163097da6d360e41b81526001600160a01b037f00000000000000000000000000000000000000000000000000000000000000008116600483015230602483018190526044830152600060648301819052608483018a90529293507f000000000000000000000000000000000000000000000000000000000000000016906397da6d309060a40160408051808303816000875af115801561022d573d6000803e3d6000fd5b505050506040513d601f19601f8201168201806040525081019061025191906109d1565b5060405163a9059cbb60e01b81527f00000000000000000000000000000000000000000000000000000000000000006001600160a01b0316600482018190526024820183905291925063a9059cbb906044016020604051808303816000875af11580156102c2573d6000803e3d6000fd5b505050506040513d601f19601f820116820180604052508101906102e691906109f5565b5060405163226bf2d160e21b81523060048201527f00000000000000000000000000000000000000000000000000000000000000006001600160a01b0316906389afcb449060240160408051808303816000875af115801561034c573d6000803e3d6000fd5b505050506040513d601f19601f8201168201806040525081019061037091906109d1565b505060007f00000000000000000000000000000000000000000000000000000000000000006001600160a01b0316836000815181106103b1576103b1610a1e565b60200260200101516040516103c69190610a34565b6000604051808303816000865af19150503d8060008114610403576040519150601f19603f3d011682016040523d82523d6000602084013e610408565b606091505b505090508061042a5760405163c4a632a560e01b815260040160405180910390fd5b7f00000000000000000000000000000000000000000000000000000000000000006001600160a01b03168360018151811061046757610467610a1e565b602002602001015160405161047c9190610a34565b6000604051808303816000865af19150503d80600081146104b9576040519150601f19603f3d011682016040523d82523d6000602084013e6104be565b606091505b505080915050806104e2576040516326bfc13160e11b815260040160405180910390fd5b6040516370a0823160e01b815230600482018190526001600160a01b037f00000000000000000000000000000000000000000000000000000000000000008116926302b9446c927f00000000000000000000000000000000000000000000000000000000000000009290918f918416906370a0823190602401602060405180830381865afa158015610578573d6000803e3d6000fd5b505050506040513d601f19601f8201168201806040525081019061059c9190610a6f565b6040517fffffffff0000000000000000000000000000000000000000000000000000000060e087901b1681526001600160a01b03948516600482015292841660248401529216604482015260648101919091526000608482015260a40160408051808303816000875af1158015610617573d6000803e3d6000fd5b505050506040513d601f19601f8201168201806040525081019061063b91906109d1565b945061064990508985610a88565b945050505097509795505050505050565b600060405163095ea7b360e01b8152836004820152826024820152602060006044836000895af13d15601f3d11600160005114161716915050806106e45760405162461bcd60e51b815260206004820152600e60248201527f415050524f56455f4641494c4544000000000000000000000000000000000000604482015260640160405180910390fd5b50505050565b80356001600160a01b038116811461070157600080fd5b919050565b60008083601f84011261071857600080fd5b50813567ffffffffffffffff81111561073057600080fd5b60208301915083602082850101111561074857600080fd5b9250929050565b600080600080600080600060c0888a03121561076a57600080fd5b610773886106ea565b9650610781602089016106ea565b955061078f604089016106ea565b9450606088013593506080880135925060a088013567ffffffffffffffff8111156107b957600080fd5b6107c58a828b01610706565b989b979a50959850939692959293505050565b60008060008060008060008060e0898b0312156107f457600080fd5b6107fd896106ea565b975061080b60208a016106ea565b965061081960408a016106ea565b955061082760608a016106ea565b94506080890135935060a0890135925060c089013567ffffffffffffffff81111561085157600080fd5b61085d8b828c01610706565b999c989b5096995094979396929594505050565b634e487b7160e01b600052604160045260246000fd5b604051601f8201601f1916810167ffffffffffffffff811182821017156108b0576108b0610871565b604052919050565b600060208083850312156108cb57600080fd5b823567ffffffffffffffff808211156108e357600080fd5b8185019150601f86818401126108f857600080fd5b82358281111561090a5761090a610871565b8060051b610919868201610887565b918252848101860191868101908a84111561093357600080fd5b87870192505b838310156109c3578235868111156109515760008081fd5b8701603f81018c136109635760008081fd5b8881013560408882111561097957610979610871565b61098a828901601f19168c01610887565b8281528e8284860101111561099f5760008081fd5b828285018d83013760009281018c0192909252508352509187019190870190610939565b9a9950505050505050505050565b600080604083850312156109e457600080fd5b505080516020909101519092909150565b600060208284031215610a0757600080fd5b81518015158114610a1757600080fd5b9392505050565b634e487b7160e01b600052603260045260246000fd5b6000825160005b81811015610a555760208186018101518583015201610a3b565b81811115610a64576000828501525b509190910192915050565b600060208284031215610a8157600080fd5b5051919050565b600082821015610aa857634e487b7160e01b600052601160045260246000fd5b50039056fea26469706673582212207196149263cc9c6804aac9c4f14d99f9b5d97797a6266b276a300afaae369f5364736f6c634300080a0033",
  "devdoc": {
    "kind": "dev",
    "methods": {},
    "version": 1
  },
  "userdoc": {
    "kind": "user",
    "methods": {
      "swap(address,address,address,uint256,uint256,bytes)": {
        "notice": "Withdraws 'amountFrom' of token 'from' from the BentoBox account for this swapper. Swaps it for at least 'amountToMin' of token 'to'. Transfers the swapped tokens of 'to' into the BentoBox using a plain ERC20 transfer. Returns the amount of tokens 'to' transferred to BentoBox. (The BentoBox skim function will be used by the caller to get the swapped funds)."
      },
      "swapExact(address,address,address,address,uint256,uint256,bytes)": {
        "notice": "Calculates the amount of token 'from' needed to complete the swap (amountFrom), this should be less than or equal to amountFromMax. Withdraws 'amountFrom' of token 'from' from the BentoBox account for this swapper. Swaps it for exactly 'exactAmountTo' of token 'to'. Transfers the swapped tokens of 'to' into the BentoBox using a plain ERC20 transfer. Transfers allocated, but unused 'from' tokens within the BentoBox to 'refundTo' (amountFromMax - amountFrom). Returns the amount of 'from' tokens withdrawn from BentoBox (amountFrom). (The BentoBox skim function will be used by the caller to get the swapped funds)."
      }
    },
    "notice": "Generic LP liquidation/deleverage swapper for Uniswap like compatible DEX using Matcha/0x aggregator",
    "version": 1
  },
  "storageLayout": {
    "storage": [],
    "types": null
  }
}