{
  "address": "0x1E217d3cA2a19f2cB0F9f12a65b40f335286758E",
  "abi": [
    {
      "inputs": [
        {
          "internalType": "contract IBentoBoxV1",
          "name": "bentoBox_",
          "type": "address"
        },
        {
          "internalType": "contract IBentoBoxV1",
          "name": "degenBox_",
          "type": "address"
        },
        {
          "internalType": "contract IERC20",
          "name": "mim",
          "type": "address"
        },
        {
          "internalType": "contract AnyswapRouter",
          "name": "anyswapRouter_",
          "type": "address"
        },
        {
          "internalType": "address",
          "name": "mimProvider_",
          "type": "address"
        },
        {
          "internalType": "address",
          "name": "ethereumRecipient_",
          "type": "address"
        },
        {
          "internalType": "contract Cauldron[]",
          "name": "bentoBoxCauldronsV2_",
          "type": "address[]"
        },
        {
          "internalType": "contract CauldronV1[]",
          "name": "bentoBoxCauldronsV1_",
          "type": "address[]"
        },
        {
          "internalType": "contract Cauldron[]",
          "name": "degenBoxCauldrons_",
          "type": "address[]"
        }
      ],
      "stateMutability": "nonpayable",
      "type": "constructor"
    },
    {
      "anonymous": false,
      "inputs": [
        {
          "indexed": false,
          "internalType": "uint256",
          "name": "amount",
          "type": "uint256"
        }
      ],
      "name": "MimWithdrawn",
      "type": "event"
    },
    {
      "anonymous": false,
      "inputs": [
        {
          "indexed": true,
          "internalType": "address",
          "name": "previousOwner",
          "type": "address"
        },
        {
          "indexed": true,
          "internalType": "address",
          "name": "newOwner",
          "type": "address"
        }
      ],
      "name": "OwnershipTransferred",
      "type": "event"
    },
    {
      "inputs": [],
      "name": "MIM",
      "outputs": [
        {
          "internalType": "contract IERC20",
          "name": "",
          "type": "address"
        }
      ],
      "stateMutability": "view",
      "type": "function"
    },
    {
      "inputs": [
        {
          "internalType": "contract Cauldron",
          "name": "pool",
          "type": "address"
        }
      ],
      "name": "addPool",
      "outputs": [],
      "stateMutability": "nonpayable",
      "type": "function"
    },
    {
      "inputs": [
        {
          "internalType": "contract CauldronV1",
          "name": "pool",
          "type": "address"
        }
      ],
      "name": "addPoolV1",
      "outputs": [],
      "stateMutability": "nonpayable",
      "type": "function"
    },
    {
      "inputs": [
        {
          "internalType": "contract Cauldron[]",
          "name": "pools",
          "type": "address[]"
        }
      ],
      "name": "addPools",
      "outputs": [],
      "stateMutability": "nonpayable",
      "type": "function"
    },
    {
      "inputs": [],
      "name": "anyswapRouter",
      "outputs": [
        {
          "internalType": "contract AnyswapRouter",
          "name": "",
          "type": "address"
        }
      ],
      "stateMutability": "view",
      "type": "function"
    },
    {
      "inputs": [],
      "name": "bentoBox",
      "outputs": [
        {
          "internalType": "contract IBentoBoxV1",
          "name": "",
          "type": "address"
        }
      ],
      "stateMutability": "view",
      "type": "function"
    },
    {
      "inputs": [
        {
          "internalType": "uint256",
          "name": "",
          "type": "uint256"
        }
      ],
      "name": "bentoBoxCauldronsV1",
      "outputs": [
        {
          "internalType": "contract CauldronV1",
          "name": "",
          "type": "address"
        }
      ],
      "stateMutability": "view",
      "type": "function"
    },
    {
      "inputs": [
        {
          "internalType": "uint256",
          "name": "",
          "type": "uint256"
        }
      ],
      "name": "bentoBoxCauldronsV2",
      "outputs": [
        {
          "internalType": "contract Cauldron",
          "name": "",
          "type": "address"
        }
      ],
      "stateMutability": "view",
      "type": "function"
    },
    {
      "inputs": [
        {
          "internalType": "uint256",
          "name": "amount",
          "type": "uint256"
        }
      ],
      "name": "bridgeMimToEthereum",
      "outputs": [],
      "stateMutability": "nonpayable",
      "type": "function"
    },
    {
      "inputs": [],
      "name": "claimOwnership",
      "outputs": [],
      "stateMutability": "nonpayable",
      "type": "function"
    },
    {
      "inputs": [],
      "name": "degenBox",
      "outputs": [
        {
          "internalType": "contract IBentoBoxV1",
          "name": "",
          "type": "address"
        }
      ],
      "stateMutability": "view",
      "type": "function"
    },
    {
      "inputs": [
        {
          "internalType": "uint256",
          "name": "",
          "type": "uint256"
        }
      ],
      "name": "degenBoxCauldrons",
      "outputs": [
        {
          "internalType": "contract Cauldron",
          "name": "",
          "type": "address"
        }
      ],
      "stateMutability": "view",
      "type": "function"
    },
    {
      "inputs": [],
      "name": "ethereumRecipient",
      "outputs": [
        {
          "internalType": "address",
          "name": "",
          "type": "address"
        }
      ],
      "stateMutability": "view",
      "type": "function"
    },
    {
      "inputs": [],
      "name": "mimProvider",
      "outputs": [
        {
          "internalType": "address",
          "name": "",
          "type": "address"
        }
      ],
      "stateMutability": "view",
      "type": "function"
    },
    {
      "inputs": [],
      "name": "owner",
      "outputs": [
        {
          "internalType": "address",
          "name": "",
          "type": "address"
        }
      ],
      "stateMutability": "view",
      "type": "function"
    },
    {
      "inputs": [],
      "name": "pendingOwner",
      "outputs": [
        {
          "internalType": "address",
          "name": "",
          "type": "address"
        }
      ],
      "stateMutability": "view",
      "type": "function"
    },
    {
      "inputs": [
        {
          "internalType": "contract IERC20",
          "name": "token",
          "type": "address"
        },
        {
          "internalType": "address",
          "name": "to",
          "type": "address"
        },
        {
          "internalType": "uint256",
          "name": "amount",
          "type": "uint256"
        }
      ],
      "name": "rescueTokens",
      "outputs": [],
      "stateMutability": "nonpayable",
      "type": "function"
    },
    {
      "inputs": [
        {
          "internalType": "address",
          "name": "newOwner",
          "type": "address"
        },
        {
          "internalType": "bool",
          "name": "direct",
          "type": "bool"
        },
        {
          "internalType": "bool",
          "name": "renounce",
          "type": "bool"
        }
      ],
      "name": "transferOwnership",
      "outputs": [],
      "stateMutability": "nonpayable",
      "type": "function"
    },
    {
      "inputs": [],
      "name": "withdraw",
      "outputs": [],
      "stateMutability": "nonpayable",
      "type": "function"
    },
    {
      "inputs": [
        {
          "internalType": "uint256",
          "name": "amountBentoboxShare",
          "type": "uint256"
        },
        {
          "internalType": "uint256",
          "name": "amountDegenBoxShare",
          "type": "uint256"
        }
      ],
      "name": "withdrawFromBentoBoxes",
      "outputs": [],
      "stateMutability": "nonpayable",
      "type": "function"
    }
  ],
  "transactionHash": "0xef269a46944d4a34a29c0312556ad9bcf17f26eed9772b5b4a9068e576cdbeb9",
  "args": [
    "0x0000000000000000000000000000000000000000",
    "0x233332a01Ebf20f770883ebff68374b015AccB9C",
    "0xB153FB3d196A8eB25522705560ac152eeEc57901",
    "0xDC42728B0eA910349ed3c6e1c9Dc06b5FB591f98",
    "0x4217AA01360846A849d2A89809d450D10248B513",
    "0xB2c3A9c577068479B1E5119f6B7da98d25Ba48f4",
    [],
    [],
    []
  ],
  "numDeployments": 1,
  "solcInputHash": "ad217ce9d84e838729d0cef2136966ca",
  "bytecode": "0x6101406040523480156200001257600080fd5b5060405162002efe38038062002efe8339810160408190526200003591620002e1565b600080546001600160a01b0319163390811782556040519091907f8be0079c531659141344cd1fd0a4f28419497f9722a3daafe3b4186f6b6457e0908290a36001600160a01b03808a1660805288811660a05287811660c05286811660e052858116610100528416610120528251620000b690600390602086019062000170565b508151620000cc90600290602085019062000170565b508051620000e290600490602084019062000170565b5060c05160e05160405163095ea7b360e01b81526001600160a01b039182166004820152600019602482015291169063095ea7b3906044016020604051808303816000875af11580156200013a573d6000803e3d6000fd5b505050506040513d601f19601f82011682018060405250810190620001609190620003e4565b505050505050505050506200040f565b828054828255906000526020600020908101928215620001c8579160200282015b82811115620001c857825182546001600160a01b0319166001600160a01b0390911617825560209092019160019091019062000191565b50620001d6929150620001da565b5090565b5b80821115620001d65760008155600101620001db565b6001600160a01b03811681146200020757600080fd5b50565b80516200021781620001f1565b919050565b634e487b7160e01b600052604160045260246000fd5b600082601f8301126200024457600080fd5b815160206001600160401b03808311156200026357620002636200021c565b8260051b604051601f19603f830116810181811084821117156200028b576200028b6200021c565b604052938452858101830193838101925087851115620002aa57600080fd5b83870191505b84821015620002d6578151620002c681620001f1565b83529183019190830190620002b0565b979650505050505050565b60008060008060008060008060006101208a8c0312156200030157600080fd5b6200030c8a6200020a565b98506200031c60208b016200020a565b97506200032c60408b016200020a565b96506200033c60608b016200020a565b95506200034c60808b016200020a565b94506200035c60a08b016200020a565b60c08b01519094506001600160401b03808211156200037a57600080fd5b620003888d838e0162000232565b945060e08c01519150808211156200039f57600080fd5b620003ad8d838e0162000232565b93506101008c0151915080821115620003c557600080fd5b50620003d48c828d0162000232565b9150509295985092959850929598565b600060208284031215620003f757600080fd5b815180151581146200040857600080fd5b9392505050565b60805160a05160c05160e051610100516101205161295d620005a1600039600081816101de0152611d0d01526000818161034b015281816108e801528181610f7f01526116180152600081816102640152611d430152600081816102fe01528181610759015281816107a90152818161093f015281816109de01528181610df001528181610e4001528181610fd60152818161107501528181611489015281816114d90152818161166f0152818161170e015281816118ce015281816119b701528181611a7401528181611ce501528181611f38015261200701526000818161028b0152818161145a015281816114aa01528181611640015281816116df0152818161172f0152818161196d015281816119e50152818161204a01526122eb01526000818161019b0152818161072a0152818161077a01528181610910015281816109af015281816109ff01528181610dc101528181610e1101528181610fa7015281816110460152818161109601528181611884015281816118fc01528181611f7b015261216e015261295d6000f3fe608060405234801561001057600080fd5b506004361061016c5760003560e01c80639a3eb6e9116100cd578063d914cd4b11610081578063dbf6005011610066578063dbf6005014610320578063e30c397814610333578063f3523b341461034657600080fd5b8063d914cd4b146102e6578063daec383d146102f957600080fd5b8063ab93539d116100b2578063ab93539d146102ad578063b36a4ab1146102c0578063cea9d26f146102d357600080fd5b80639a3eb6e91461025f5780639f495c151461028657600080fd5b80636d18d05c1161012457806384b1fc101161010957806384b1fc10146102265780638739be16146102395780638da5cb5b1461024c57600080fd5b80636d18d05c146102005780637dd470801461021357600080fd5b80634e71e0c8116101555780634e71e0c81461018e5780636b2ace87146101965780636c243aab146101d957600080fd5b8063078dfbe7146101715780633ccfd60b14610186575b600080fd5b61018461017f3660046125b2565b61036d565b005b6101846104b8565b610184611b2b565b6101bd7f000000000000000000000000000000000000000000000000000000000000000081565b6040516001600160a01b03909116815260200160405180910390f35b6101bd7f000000000000000000000000000000000000000000000000000000000000000081565b6101bd61020e3660046125fd565b611be8565b610184610221366004612616565b611c12565b6101bd6102343660046125fd565b611cbe565b6101846102473660046125fd565b611cce565b6000546101bd906001600160a01b031681565b6101bd7f000000000000000000000000000000000000000000000000000000000000000081565b6101bd7f000000000000000000000000000000000000000000000000000000000000000081565b6101bd6102bb3660046125fd565b611da2565b6101846102ce366004612660565b611db2565b6101846102e1366004612725565b611e50565b6101846102f4366004612616565b611eb5565b6101bd7f000000000000000000000000000000000000000000000000000000000000000081565b61018461032e366004612766565b611f1b565b6001546101bd906001600160a01b031681565b6101bd7f000000000000000000000000000000000000000000000000000000000000000081565b6000546001600160a01b031633146103cc5760405162461bcd60e51b815260206004820181905260248201527f4f776e61626c653a2063616c6c6572206973206e6f7420746865206f776e657260448201526064015b60405180910390fd5b8115610497576001600160a01b0383161515806103e65750805b6104325760405162461bcd60e51b815260206004820152601560248201527f4f776e61626c653a207a65726f2061646472657373000000000000000000000060448201526064016103c3565b600080546040516001600160a01b03808716939216917f8be0079c531659141344cd1fd0a4f28419497f9722a3daafe3b4186f6b6457e091a3600080546001600160a01b0385166001600160a01b031991821617909155600180549091169055505050565b600180546001600160a01b0319166001600160a01b0385161790555b505050565b60035460005b81811015610b4f57306001600160a01b0316600382815481106104e3576104e3612788565b9060005260206000200160009054906101000a90046001600160a01b03166001600160a01b031663cd446e226040518163ffffffff1660e01b81526004016020604051808303816000875af1158015610540573d6000803e3d6000fd5b505050506040513d601f19601f82011682018060405250810190610564919061279e565b6001600160a01b031663017e7e586040518163ffffffff1660e01b81526004016020604051808303816000875af11580156105a3573d6000803e3d6000fd5b505050506040513d601f19601f820116820180604052508101906105c7919061279e565b6001600160a01b03161461060b5760405162461bcd60e51b815260206004820152600b60248201526a77726f6e6720666565546f60a81b60448201526064016103c3565b6003818154811061061e5761061e612788565b60009182526020822001546040805163f8ba4cff60e01b815290516001600160a01b039092169263f8ba4cff9260048084019382900301818387803b15801561066657600080fd5b505af115801561067a573d6000803e3d6000fd5b5050505060006003828154811061069357610693612788565b9060005260206000200160009054906101000a90046001600160a01b03166001600160a01b031663b27c0e746040518163ffffffff1660e01b8152600401606060405180830381865afa1580156106ee573d6000803e3d6000fd5b505050506040513d601f19601f8201168201806040525081019061071291906127f3565b506fffffffffffffffffffffffffffffffff169150507f00000000000000000000000000000000000000000000000000000000000000006001600160a01b031663566231187f00000000000000000000000000000000000000000000000000000000000000007f00000000000000000000000000000000000000000000000000000000000000006001600160a01b031663f7888aec7f0000000000000000000000000000000000000000000000000000000000000000600388815481106107db576107db612788565b60009182526020909120015460405160e084901b6001600160e01b03191681526001600160a01b03928316600482015291166024820152604401602060405180830381865afa158015610832573d6000803e3d6000fd5b505050506040513d601f19601f820116820180604052508101906108569190612836565b6040516001600160e01b031960e085901b1681526001600160a01b039092166004830152602482015260006044820152606401602060405180830381865afa1580156108a6573d6000803e3d6000fd5b505050506040513d601f19601f820116820180604052508101906108ca9190612836565b811115610ac8576040516323b872dd60e01b81526001600160a01b037f0000000000000000000000000000000000000000000000000000000000000000811660048301527f000000000000000000000000000000000000000000000000000000000000000081166024830152604482018390527f000000000000000000000000000000000000000000000000000000000000000016906323b872dd906064016020604051808303816000875af1158015610988573d6000803e3d6000fd5b505050506040513d601f19601f820116820180604052508101906109ac919061284f565b507f00000000000000000000000000000000000000000000000000000000000000006001600160a01b03166302b9446c7f00000000000000000000000000000000000000000000000000000000000000007f000000000000000000000000000000000000000000000000000000000000000060038681548110610a3157610a31612788565b600091825260208220015460405160e086901b6001600160e01b03191681526001600160a01b039485166004820152928416602484015292909216604482015260648101859052608481019190915260a40160408051808303816000875af1158015610aa1573d6000803e3d6000fd5b505050506040513d601f19601f82011682018060405250810190610ac5919061286c565b50505b60038281548110610adb57610adb612788565b6000918252602082200154604080516323b1a1f760e11b815290516001600160a01b039092169263476343ee9260048084019382900301818387803b158015610b2357600080fd5b505af1158015610b37573d6000803e3d6000fd5b50505050508080610b4790612890565b9150506104be565b505060025460005b818110156111e657306001600160a01b031660028281548110610b7c57610b7c612788565b9060005260206000200160009054906101000a90046001600160a01b03166001600160a01b031663cd446e226040518163ffffffff1660e01b81526004016020604051808303816000875af1158015610bd9573d6000803e3d6000fd5b505050506040513d601f19601f82011682018060405250810190610bfd919061279e565b6001600160a01b031663017e7e586040518163ffffffff1660e01b81526004016020604051808303816000875af1158015610c3c573d6000803e3d6000fd5b505050506040513d601f19601f82011682018060405250810190610c60919061279e565b6001600160a01b031614610ca45760405162461bcd60e51b815260206004820152600b60248201526a77726f6e6720666565546f60a81b60448201526064016103c3565b60028181548110610cb757610cb7612788565b60009182526020822001546040805163f8ba4cff60e01b815290516001600160a01b039092169263f8ba4cff9260048084019382900301818387803b158015610cff57600080fd5b505af1158015610d13573d6000803e3d6000fd5b50505050600060028281548110610d2c57610d2c612788565b9060005260206000200160009054906101000a90046001600160a01b03166001600160a01b031663b27c0e746040518163ffffffff1660e01b81526004016040805180830381865afa158015610d86573d6000803e3d6000fd5b505050506040513d601f19601f82011682018060405250810190610daa91906128b9565b6fffffffffffffffffffffffffffffffff169150507f00000000000000000000000000000000000000000000000000000000000000006001600160a01b031663566231187f00000000000000000000000000000000000000000000000000000000000000007f00000000000000000000000000000000000000000000000000000000000000006001600160a01b031663f7888aec7f000000000000000000000000000000000000000000000000000000000000000060028881548110610e7257610e72612788565b60009182526020909120015460405160e084901b6001600160e01b03191681526001600160a01b03928316600482015291166024820152604401602060405180830381865afa158015610ec9573d6000803e3d6000fd5b505050506040513d601f19601f82011682018060405250810190610eed9190612836565b6040516001600160e01b031960e085901b1681526001600160a01b039092166004830152602482015260006044820152606401602060405180830381865afa158015610f3d573d6000803e3d6000fd5b505050506040513d601f19601f82011682018060405250810190610f619190612836565b81111561115f576040516323b872dd60e01b81526001600160a01b037f0000000000000000000000000000000000000000000000000000000000000000811660048301527f000000000000000000000000000000000000000000000000000000000000000081166024830152604482018390527f000000000000000000000000000000000000000000000000000000000000000016906323b872dd906064016020604051808303816000875af115801561101f573d6000803e3d6000fd5b505050506040513d601f19601f82011682018060405250810190611043919061284f565b507f00000000000000000000000000000000000000000000000000000000000000006001600160a01b03166302b9446c7f00000000000000000000000000000000000000000000000000000000000000007f0000000000000000000000000000000000000000000000000000000000000000600286815481106110c8576110c8612788565b600091825260208220015460405160e086901b6001600160e01b03191681526001600160a01b039485166004820152928416602484015292909216604482015260648101859052608481019190915260a40160408051808303816000875af1158015611138573d6000803e3d6000fd5b505050506040513d601f19601f8201168201806040525081019061115c919061286c565b50505b6002828154811061117257611172612788565b6000918252602082200154604080516323b1a1f760e11b815290516001600160a01b039092169263476343ee9260048084019382900301818387803b1580156111ba57600080fd5b505af11580156111ce573d6000803e3d6000fd5b505050505080806111de90612890565b915050610b57565b505060045460005b8181101561187f57306001600160a01b03166004828154811061121357611213612788565b9060005260206000200160009054906101000a90046001600160a01b03166001600160a01b031663cd446e226040518163ffffffff1660e01b81526004016020604051808303816000875af1158015611270573d6000803e3d6000fd5b505050506040513d601f19601f82011682018060405250810190611294919061279e565b6001600160a01b031663017e7e586040518163ffffffff1660e01b81526004016020604051808303816000875af11580156112d3573d6000803e3d6000fd5b505050506040513d601f19601f820116820180604052508101906112f7919061279e565b6001600160a01b03161461133b5760405162461bcd60e51b815260206004820152600b60248201526a77726f6e6720666565546f60a81b60448201526064016103c3565b6004818154811061134e5761134e612788565b60009182526020822001546040805163f8ba4cff60e01b815290516001600160a01b039092169263f8ba4cff9260048084019382900301818387803b15801561139657600080fd5b505af11580156113aa573d6000803e3d6000fd5b505050506000600482815481106113c3576113c3612788565b9060005260206000200160009054906101000a90046001600160a01b03166001600160a01b031663b27c0e746040518163ffffffff1660e01b8152600401606060405180830381865afa15801561141e573d6000803e3d6000fd5b505050506040513d601f19601f8201168201806040525081019061144291906127f3565b506fffffffffffffffffffffffffffffffff169150507f00000000000000000000000000000000000000000000000000000000000000006001600160a01b031663566231187f00000000000000000000000000000000000000000000000000000000000000007f00000000000000000000000000000000000000000000000000000000000000006001600160a01b031663f7888aec7f00000000000000000000000000000000000000000000000000000000000000006004888154811061150b5761150b612788565b60009182526020909120015460405160e084901b6001600160e01b03191681526001600160a01b03928316600482015291166024820152604401602060405180830381865afa158015611562573d6000803e3d6000fd5b505050506040513d601f19601f820116820180604052508101906115869190612836565b6040516001600160e01b031960e085901b1681526001600160a01b039092166004830152602482015260006044820152606401602060405180830381865afa1580156115d6573d6000803e3d6000fd5b505050506040513d601f19601f820116820180604052508101906115fa9190612836565b8111156117f8576040516323b872dd60e01b81526001600160a01b037f0000000000000000000000000000000000000000000000000000000000000000811660048301527f000000000000000000000000000000000000000000000000000000000000000081166024830152604482018390527f000000000000000000000000000000000000000000000000000000000000000016906323b872dd906064016020604051808303816000875af11580156116b8573d6000803e3d6000fd5b505050506040513d601f19601f820116820180604052508101906116dc919061284f565b507f00000000000000000000000000000000000000000000000000000000000000006001600160a01b03166302b9446c7f00000000000000000000000000000000000000000000000000000000000000007f00000000000000000000000000000000000000000000000000000000000000006004868154811061176157611761612788565b600091825260208220015460405160e086901b6001600160e01b03191681526001600160a01b039485166004820152928416602484015292909216604482015260648101859052608481019190915260a40160408051808303816000875af11580156117d1573d6000803e3d6000fd5b505050506040513d601f19601f820116820180604052508101906117f5919061286c565b50505b6004828154811061180b5761180b612788565b6000918252602082200154604080516323b1a1f760e11b815290516001600160a01b039092169263476343ee9260048084019382900301818387803b15801561185357600080fd5b505af1158015611867573d6000803e3d6000fd5b5050505050808061187790612890565b9150506111ee565b5060007f00000000000000000000000000000000000000000000000000000000000000006001600160a01b03166118b7576000611967565b604051633de222bb60e21b81526001600160a01b037f0000000000000000000000000000000000000000000000000000000000000000811660048301523060248301527f0000000000000000000000000000000000000000000000000000000000000000169063f7888aec90604401602060405180830381865afa158015611943573d6000803e3d6000fd5b505050506040513d601f19601f820116820180604052508101906119679190612836565b905060007f00000000000000000000000000000000000000000000000000000000000000006001600160a01b03166119a0576000611a50565b604051633de222bb60e21b81526001600160a01b037f0000000000000000000000000000000000000000000000000000000000000000811660048301523060248301527f0000000000000000000000000000000000000000000000000000000000000000169063f7888aec90604401602060405180830381865afa158015611a2c573d6000803e3d6000fd5b505050506040513d601f19601f82011682018060405250810190611a509190612836565b9050611a5c8282611f1b565b6040516370a0823160e01b81523060048201526000907f00000000000000000000000000000000000000000000000000000000000000006001600160a01b0316906370a0823190602401602060405180830381865afa158015611ac3573d6000803e3d6000fd5b505050506040513d601f19601f82011682018060405250810190611ae79190612836565b9050611af281611cce565b6040518181527fc74347d34e4ef5415fa47a23b47ad93ecd10c105e63fa663eef31bbe73899c2c9060200160405180910390a150505050565b6001546001600160a01b0316338114611b865760405162461bcd60e51b815260206004820181905260248201527f4f776e61626c653a2063616c6c657220213d2070656e64696e67206f776e657260448201526064016103c3565b600080546040516001600160a01b03808516939216917f8be0079c531659141344cd1fd0a4f28419497f9722a3daafe3b4186f6b6457e091a3600080546001600160a01b039092166001600160a01b0319928316179055600180549091169055565b60048181548110611bf857600080fd5b6000918252602090912001546001600160a01b0316905081565b6000546001600160a01b03163314611c6c5760405162461bcd60e51b815260206004820181905260248201527f4f776e61626c653a2063616c6c6572206973206e6f7420746865206f776e657260448201526064016103c3565b600280546001810182556000919091527f405787fa12a823e0f2b7631cc41b3ba8828b3321ca811111fa75cd3aa3bb5ace0180546001600160a01b0319166001600160a01b0392909216919091179055565b60038181548110611bf857600080fd5b60405163241dc2df60e01b81526001600160a01b037f0000000000000000000000000000000000000000000000000000000000000000811660048301527f00000000000000000000000000000000000000000000000000000000000000008116602483015260448201839052600160648301527f0000000000000000000000000000000000000000000000000000000000000000169063241dc2df90608401600060405180830381600087803b158015611d8757600080fd5b505af1158015611d9b573d6000803e3d6000fd5b5050505050565b60028181548110611bf857600080fd5b6000546001600160a01b03163314611e0c5760405162461bcd60e51b815260206004820181905260248201527f4f776e61626c653a2063616c6c6572206973206e6f7420746865206f776e657260448201526064016103c3565b60005b8151811015611e4c57611e3a828281518110611e2d57611e2d612788565b60200260200101516120bc565b80611e4481612890565b915050611e0f565b5050565b6000546001600160a01b03163314611eaa5760405162461bcd60e51b815260206004820181905260248201527f4f776e61626c653a2063616c6c6572206973206e6f7420746865206f776e657260448201526064016103c3565b6104b3838383612466565b6000546001600160a01b03163314611f0f5760405162461bcd60e51b815260206004820181905260248201527f4f776e61626c653a2063616c6c6572206973206e6f7420746865206f776e657260448201526064016103c3565b611f18816120bc565b50565b8115611fea5760405163097da6d360e41b81526001600160a01b037f0000000000000000000000000000000000000000000000000000000000000000811660048301523060248301819052604483015260006064830152608482018490527f000000000000000000000000000000000000000000000000000000000000000016906397da6d309060a40160408051808303816000875af1158015611fc3573d6000803e3d6000fd5b505050506040513d601f19601f82011682018060405250810190611fe7919061286c565b50505b8015611e4c5760405163097da6d360e41b81526001600160a01b037f0000000000000000000000000000000000000000000000000000000000000000811660048301523060248301819052604483015260006064830152608482018390527f000000000000000000000000000000000000000000000000000000000000000016906397da6d309060a40160408051808303816000875af1158015612092573d6000803e3d6000fd5b505050506040513d601f19601f820116820180604052508101906120b6919061286c565b50505050565b6000546001600160a01b031633146121165760405162461bcd60e51b815260206004820181905260248201527f4f776e61626c653a2063616c6c6572206973206e6f7420746865206f776e657260448201526064016103c3565b6001600160a01b03811661216c5760405162461bcd60e51b815260206004820152601060248201527f696e76616c6964206361756c64726f6e0000000000000000000000000000000060448201526064016103c3565b7f00000000000000000000000000000000000000000000000000000000000000006001600160a01b0316816001600160a01b0316636b2ace876040518163ffffffff1660e01b81526004016020604051808303816000875af11580156121d6573d6000803e3d6000fd5b505050506040513d601f19601f820116820180604052508101906121fa919061279e565b6001600160a01b031614156122e95760005b60035481101561229857816001600160a01b03166003828154811061223357612233612788565b6000918252602090912001546001600160a01b031614156122865760405162461bcd60e51b815260206004820152600d60248201526c185b1c9958591e481859191959609a1b60448201526064016103c3565b8061229081612890565b91505061220c565b50600380546001810182556000919091527fc2575a0e9e593c00f959f8c92f12db2869c3395a3b0502d05e2516446f71f85b0180546001600160a01b0383166001600160a01b031990911617905550565b7f00000000000000000000000000000000000000000000000000000000000000006001600160a01b0316816001600160a01b0316636b2ace876040518163ffffffff1660e01b81526004016020604051808303816000875af1158015612353573d6000803e3d6000fd5b505050506040513d601f19601f82011682018060405250810190612377919061279e565b6001600160a01b03161415611f185760005b60045481101561241557816001600160a01b0316600482815481106123b0576123b0612788565b6000918252602090912001546001600160a01b031614156124035760405162461bcd60e51b815260206004820152600d60248201526c185b1c9958591e481859191959609a1b60448201526064016103c3565b8061240d81612890565b915050612389565b50600480546001810182556000919091527f8a35acfbc15ff81a39ae7d344fd709f28e8600b4aa8c65c6b64bfe7fe36bd19b0180546001600160a01b0383166001600160a01b031990911617905550565b604080516001600160a01b038481166024830152604480830185905283518084039091018152606490920183526020820180517bffffffffffffffffffffffffffffffffffffffffffffffffffffffff1663a9059cbb60e01b17905291516000928392908716916124d791906128ec565b6000604051808303816000865af19150503d8060008114612514576040519150601f19603f3d011682016040523d82523d6000602084013e612519565b606091505b5091509150818015612543575080511580612543575080806020019051810190612543919061284f565b611d9b5760405162461bcd60e51b815260206004820152600f60248201527f7472616e73666572206661696c6564000000000000000000000000000000000060448201526064016103c3565b6001600160a01b0381168114611f1857600080fd5b8015158114611f1857600080fd5b6000806000606084860312156125c757600080fd5b83356125d28161258f565b925060208401356125e2816125a4565b915060408401356125f2816125a4565b809150509250925092565b60006020828403121561260f57600080fd5b5035919050565b60006020828403121561262857600080fd5b81356126338161258f565b9392505050565b634e487b7160e01b600052604160045260246000fd5b803561265b8161258f565b919050565b6000602080838503121561267357600080fd5b823567ffffffffffffffff8082111561268b57600080fd5b818501915085601f83011261269f57600080fd5b8135818111156126b1576126b161263a565b8060051b604051601f19603f830116810181811085821117156126d6576126d661263a565b6040529182528482019250838101850191888311156126f457600080fd5b938501935b828510156127195761270a85612650565b845293850193928501926126f9565b98975050505050505050565b60008060006060848603121561273a57600080fd5b83356127458161258f565b925060208401356127558161258f565b929592945050506040919091013590565b6000806040838503121561277957600080fd5b50508035926020909101359150565b634e487b7160e01b600052603260045260246000fd5b6000602082840312156127b057600080fd5b81516126338161258f565b805167ffffffffffffffff8116811461265b57600080fd5b80516fffffffffffffffffffffffffffffffff8116811461265b57600080fd5b60008060006060848603121561280857600080fd5b612811846127bb565b925061281f602085016127d3565b915061282d604085016127bb565b90509250925092565b60006020828403121561284857600080fd5b5051919050565b60006020828403121561286157600080fd5b8151612633816125a4565b6000806040838503121561287f57600080fd5b505080516020909101519092909150565b60006000198214156128b257634e487b7160e01b600052601160045260246000fd5b5060010190565b600080604083850312156128cc57600080fd5b6128d5836127bb565b91506128e3602084016127d3565b90509250929050565b6000825160005b8181101561290d57602081860181015185830152016128f3565b8181111561291c576000828501525b50919091019291505056fea26469706673582212205664507de28c62a7de5eba30d404ff385ee6b076897bf4c1d14fa32e8e04ca8b64736f6c634300080a0033",
  "devdoc": {
    "kind": "dev",
    "methods": {
      "transferOwnership(address,bool,bool)": {
        "params": {
          "direct": "True if `newOwner` should be set immediately. False if `newOwner` needs to use `claimOwnership`.",
          "newOwner": "Address of the new owner.",
          "renounce": "Allows the `newOwner` to be `address(0)` if `direct` and `renounce` is True. Has no effect otherwise."
        }
      }
    },
    "version": 1
  },
  "userdoc": {
    "kind": "user",
    "methods": {
      "claimOwnership()": {
        "notice": "Needs to be called by `pendingOwner` to claim ownership."
      },
      "transferOwnership(address,bool,bool)": {
        "notice": "Transfers ownership to `newOwner`. Either directly or claimable by the new pending owner. Can only be invoked by the current `owner`."
      }
    },
    "version": 1
  },
  "storageLayout": {
    "storage": [
      {
        "astId": 24426,
        "contract": "contracts/withdrawer/MultichainWithdrawer.sol:MultichainWithdrawer",
        "label": "owner",
        "offset": 0,
        "slot": "0",
        "type": "t_address"
      },
      {
        "astId": 24428,
        "contract": "contracts/withdrawer/MultichainWithdrawer.sol:MultichainWithdrawer",
        "label": "pendingOwner",
        "offset": 0,
        "slot": "1",
        "type": "t_address"
      },
      {
        "astId": 24780,
        "contract": "contracts/withdrawer/MultichainWithdrawer.sol:MultichainWithdrawer",
        "label": "bentoBoxCauldronsV1",
        "offset": 0,
        "slot": "2",
        "type": "t_array(t_contract(CauldronV1)24739)dyn_storage"
      },
      {
        "astId": 24784,
        "contract": "contracts/withdrawer/MultichainWithdrawer.sol:MultichainWithdrawer",
        "label": "bentoBoxCauldronsV2",
        "offset": 0,
        "slot": "3",
        "type": "t_array(t_contract(Cauldron)24709)dyn_storage"
      },
      {
        "astId": 24788,
        "contract": "contracts/withdrawer/MultichainWithdrawer.sol:MultichainWithdrawer",
        "label": "degenBoxCauldrons",
        "offset": 0,
        "slot": "4",
        "type": "t_array(t_contract(Cauldron)24709)dyn_storage"
      }
    ],
    "types": {
      "t_address": {
        "encoding": "inplace",
        "label": "address",
        "numberOfBytes": "20"
      },
      "t_array(t_contract(Cauldron)24709)dyn_storage": {
        "base": "t_contract(Cauldron)24709",
        "encoding": "dynamic_array",
        "label": "contract Cauldron[]",
        "numberOfBytes": "32"
      },
      "t_array(t_contract(CauldronV1)24739)dyn_storage": {
        "base": "t_contract(CauldronV1)24739",
        "encoding": "dynamic_array",
        "label": "contract CauldronV1[]",
        "numberOfBytes": "32"
      },
      "t_contract(Cauldron)24709": {
        "encoding": "inplace",
        "label": "contract Cauldron",
        "numberOfBytes": "20"
      },
      "t_contract(CauldronV1)24739": {
        "encoding": "inplace",
        "label": "contract CauldronV1",
        "numberOfBytes": "20"
      }
    }
  }
}