{
  "address": "0x08a47F1F14292b0655B70588C76b614f64074db4",
  "abi": [
    {
      "inputs": [
        {
          "internalType": "contract IBentoBoxV1Minimal",
          "name": "_bentoBox",
          "type": "address"
        },
        {
          "internalType": "contract IUniswapV2Router01",
          "name": "_router",
          "type": "address"
        },
        {
          "internalType": "contract IUniswapV2Pair",
          "name": "_pair",
          "type": "address"
        },
        {
          "internalType": "contract ERC20",
          "name": "_mim",
          "type": "address"
        },
        {
          "internalType": "address",
          "name": "_zeroXExchangeProxy",
          "type": "address"
        }
      ],
      "stateMutability": "nonpayable",
      "type": "constructor"
    },
    {
      "inputs": [],
      "name": "ErrToken0SwapFailed",
      "type": "error"
    },
    {
      "inputs": [],
      "name": "ErrToken1SwapFailed",
      "type": "error"
    },
    {
      "inputs": [],
      "name": "bentoBox",
      "outputs": [
        {
          "internalType": "contract IBentoBoxV1Minimal",
          "name": "",
          "type": "address"
        }
      ],
      "stateMutability": "view",
      "type": "function"
    },
    {
      "inputs": [],
      "name": "mim",
      "outputs": [
        {
          "internalType": "contract ERC20",
          "name": "",
          "type": "address"
        }
      ],
      "stateMutability": "view",
      "type": "function"
    },
    {
      "inputs": [],
      "name": "pair",
      "outputs": [
        {
          "internalType": "contract IUniswapV2Pair",
          "name": "",
          "type": "address"
        }
      ],
      "stateMutability": "view",
      "type": "function"
    },
    {
      "inputs": [],
      "name": "router",
      "outputs": [
        {
          "internalType": "contract IUniswapV2Router01",
          "name": "",
          "type": "address"
        }
      ],
      "stateMutability": "view",
      "type": "function"
    },
    {
      "inputs": [
        {
          "internalType": "address",
          "name": "",
          "type": "address"
        },
        {
          "internalType": "address",
          "name": "",
          "type": "address"
        },
        {
          "internalType": "address",
          "name": "recipient",
          "type": "address"
        },
        {
          "internalType": "uint256",
          "name": "shareToMin",
          "type": "uint256"
        },
        {
          "internalType": "uint256",
          "name": "shareFrom",
          "type": "uint256"
        },
        {
          "internalType": "bytes",
          "name": "data",
          "type": "bytes"
        }
      ],
      "name": "swap",
      "outputs": [
        {
          "internalType": "uint256",
          "name": "extraShare",
          "type": "uint256"
        },
        {
          "internalType": "uint256",
          "name": "shareReturned",
          "type": "uint256"
        }
      ],
      "stateMutability": "nonpayable",
      "type": "function"
    },
    {
      "inputs": [
        {
          "internalType": "address",
          "name": "",
          "type": "address"
        },
        {
          "internalType": "address",
          "name": "",
          "type": "address"
        },
        {
          "internalType": "address",
          "name": "",
          "type": "address"
        },
        {
          "internalType": "address",
          "name": "",
          "type": "address"
        },
        {
          "internalType": "uint256",
          "name": "",
          "type": "uint256"
        },
        {
          "internalType": "uint256",
          "name": "",
          "type": "uint256"
        },
        {
          "internalType": "bytes",
          "name": "",
          "type": "bytes"
        }
      ],
      "name": "swapExact",
      "outputs": [
        {
          "internalType": "uint256",
          "name": "",
          "type": "uint256"
        },
        {
          "internalType": "uint256",
          "name": "",
          "type": "uint256"
        }
      ],
      "stateMutability": "pure",
      "type": "function"
    },
    {
      "inputs": [],
      "name": "zeroXExchangeProxy",
      "outputs": [
        {
          "internalType": "address",
          "name": "",
          "type": "address"
        }
      ],
      "stateMutability": "view",
      "type": "function"
    }
  ],
  "transactionHash": "0x93330f68a646e17b685bdd495cb7cb1efdc9f81c3779fcea4733b3f8aa82c932",
  "args": [
    "0xD825d06061fdc0585e4373F0A3F01a8C02b0e6A4",
    "0x60aE616a2155Ee3d9A68541Ba4544862310933d4",
    "0xf4003F4efBE8691B60249E6afbD307aBE7758adb",
    "0x130966628846BFd36ff31a822705796e8cb8C18D",
    "0xDef1C0ded9bec7F1a1670819833240f027b25EfF"
  ],
  "numDeployments": 1,
  "solcInputHash": "13399da6a3fa025ace53173b726b30bd",
  "bytecode": "0x6101206040523480156200001257600080fd5b5060405162000f4038038062000f4083398101604081905262000035916200029e565b6001600160a01b0380861660805284811660c05283811660a081905283821660e0529082166101005260408051630dfe168160e01b81529051620000e992849260001992630dfe1681916004808201926020929091908290030181865afa158015620000a5573d6000803e3d6000fd5b505050506040513d601f19601f82011682018060405250810190620000cb91906200031e565b6001600160a01b0316620001b360201b6200068c179092919060201c565b6200013081600019856001600160a01b031663d21220a76040518163ffffffff1660e01b8152600401602060405180830381865afa158015620000a5573d6000803e3d6000fd5b60405163095ea7b360e01b81526001600160a01b038681166004830152600019602483015283169063095ea7b3906044016020604051808303816000875af115801562000181573d6000803e3d6000fd5b505050506040513d601f19601f82011682018060405250810190620001a7919062000345565b50505050505062000369565b600060405163095ea7b360e01b81526001600160a01b03841660048201528260248201526000806044836000895af19150620001f190508162000239565b620002335760405162461bcd60e51b815260206004820152600e60248201526d1054141493d59157d1905253115160921b604482015260640160405180910390fd5b50505050565b60003d826200024c57806000803e806000fd5b8060208114620002675780156200027957600092506200027e565b816000803e600051151592506200027e565b600192505b5050919050565b6001600160a01b03811681146200029b57600080fd5b50565b600080600080600060a08688031215620002b757600080fd5b8551620002c48162000285565b6020870151909550620002d78162000285565b6040870151909450620002ea8162000285565b6060870151909350620002fd8162000285565b6080870151909250620003108162000285565b809150509295509295909350565b6000602082840312156200033157600080fd5b81516200033e8162000285565b9392505050565b6000602082840312156200035857600080fd5b815180151581146200033e57600080fd5b60805160a05160c05160e05161010051610b5d620003e36000396000818160cb015281816103a8015261045e01526000818160f2015261055d01526000610186015260008181610141015281816101cf01528181610293015261032e01526000818160870152818161021701526105330152610b5d6000f3fe608060405234801561001057600080fd5b506004361061007d5760003560e01c8063a5d4096b1161005b578063a5d4096b14610114578063a8aa1b311461013c578063c507ffc114610163578063f887ea401461018157600080fd5b80636b2ace87146100825780639997c7f1146100c65780639f67679e146100ed575b600080fd5b6100a97f000000000000000000000000000000000000000000000000000000000000000081565b6040516001600160a01b0390911681526020015b60405180910390f35b6100a97f000000000000000000000000000000000000000000000000000000000000000081565b6100a97f000000000000000000000000000000000000000000000000000000000000000081565b6101276101223660046107c9565b6101a8565b604080519283526020830191909152016100bd565b6100a97f000000000000000000000000000000000000000000000000000000000000000081565b610127610171366004610852565b6000809850989650505050505050565b6100a97f000000000000000000000000000000000000000000000000000000000000000081565b600080806101b884860186610932565b60405163097da6d360e41b81526001600160a01b037f00000000000000000000000000000000000000000000000000000000000000008116600483015230602483018190526044830152600060648301819052608483018a90529293507f000000000000000000000000000000000000000000000000000000000000000016906397da6d309060a40160408051808303816000875af115801561025f573d6000803e3d6000fd5b505050506040513d601f19601f820116820180604052508101906102839190610a4b565b5060405163a9059cbb60e01b81527f00000000000000000000000000000000000000000000000000000000000000006001600160a01b0316600482018190526024820183905291925063a9059cbb906044016020604051808303816000875af11580156102f4573d6000803e3d6000fd5b505050506040513d601f19601f820116820180604052508101906103189190610a6f565b5060405163226bf2d160e21b81523060048201527f00000000000000000000000000000000000000000000000000000000000000006001600160a01b0316906389afcb449060240160408051808303816000875af115801561037e573d6000803e3d6000fd5b505050506040513d601f19601f820116820180604052508101906103a29190610a4b565b505060007f00000000000000000000000000000000000000000000000000000000000000006001600160a01b0316836000815181106103e3576103e3610a98565b60200260200101516040516103f89190610aae565b6000604051808303816000865af19150503d8060008114610435576040519150601f19603f3d011682016040523d82523d6000602084013e61043a565b606091505b505090508061045c5760405163c4a632a560e01b815260040160405180910390fd5b7f00000000000000000000000000000000000000000000000000000000000000006001600160a01b03168360018151811061049957610499610a98565b60200260200101516040516104ae9190610aae565b6000604051808303816000865af19150503d80600081146104eb576040519150601f19603f3d011682016040523d82523d6000602084013e6104f0565b606091505b50508091505080610514576040516326bfc13160e11b815260040160405180910390fd5b6040516370a0823160e01b815230600482018190526001600160a01b037f00000000000000000000000000000000000000000000000000000000000000008116926302b9446c927f00000000000000000000000000000000000000000000000000000000000000009290918f918416906370a0823190602401602060405180830381865afa1580156105aa573d6000803e3d6000fd5b505050506040513d601f19601f820116820180604052508101906105ce9190610ae9565b6040517fffffffff0000000000000000000000000000000000000000000000000000000060e087901b1681526001600160a01b03948516600482015292841660248401529216604482015260648101919091526000608482015260a40160408051808303816000875af1158015610649573d6000803e3d6000fd5b505050506040513d601f19601f8201168201806040525081019061066d9190610a4b565b945061067b90508985610b02565b945050505097509795505050505050565b600060405163095ea7b360e01b81526001600160a01b03841660048201528260248201526000806044836000895af19150506106c78161071d565b6107175760405162461bcd60e51b815260206004820152600e60248201527f415050524f56455f4641494c4544000000000000000000000000000000000000604482015260640160405180910390fd5b50505050565b60003d8261072f57806000803e806000fd5b8060208114610747578015610758576000925061075d565b816000803e6000511515925061075d565b600192505b5050919050565b80356001600160a01b038116811461077b57600080fd5b919050565b60008083601f84011261079257600080fd5b50813567ffffffffffffffff8111156107aa57600080fd5b6020830191508360208285010111156107c257600080fd5b9250929050565b600080600080600080600060c0888a0312156107e457600080fd5b6107ed88610764565b96506107fb60208901610764565b955061080960408901610764565b9450606088013593506080880135925060a088013567ffffffffffffffff81111561083357600080fd5b61083f8a828b01610780565b989b979a50959850939692959293505050565b60008060008060008060008060e0898b03121561086e57600080fd5b61087789610764565b975061088560208a01610764565b965061089360408a01610764565b95506108a160608a01610764565b94506080890135935060a0890135925060c089013567ffffffffffffffff8111156108cb57600080fd5b6108d78b828c01610780565b999c989b5096995094979396929594505050565b634e487b7160e01b600052604160045260246000fd5b604051601f8201601f1916810167ffffffffffffffff8111828210171561092a5761092a6108eb565b604052919050565b6000602080838503121561094557600080fd5b823567ffffffffffffffff8082111561095d57600080fd5b8185019150601f868184011261097257600080fd5b823582811115610984576109846108eb565b8060051b610993868201610901565b918252848101860191868101908a8411156109ad57600080fd5b87870192505b83831015610a3d578235868111156109cb5760008081fd5b8701603f81018c136109dd5760008081fd5b888101356040888211156109f3576109f36108eb565b610a04828901601f19168c01610901565b8281528e82848601011115610a195760008081fd5b828285018d83013760009281018c01929092525083525091870191908701906109b3565b9a9950505050505050505050565b60008060408385031215610a5e57600080fd5b505080516020909101519092909150565b600060208284031215610a8157600080fd5b81518015158114610a9157600080fd5b9392505050565b634e487b7160e01b600052603260045260246000fd5b6000825160005b81811015610acf5760208186018101518583015201610ab5565b81811115610ade576000828501525b509190910192915050565b600060208284031215610afb57600080fd5b5051919050565b600082821015610b2257634e487b7160e01b600052601160045260246000fd5b50039056fea2646970667358221220129591afb36af2d0698079cf4b8a8954363b74ff961a6824bb6f4c9d14b0e69a64736f6c634300080a0033",
  "devdoc": {
    "kind": "dev",
    "methods": {},
    "version": 1
  },
  "userdoc": {
    "kind": "user",
    "methods": {
      "swap(address,address,address,uint256,uint256,bytes)": {
        "notice": "Withdraws 'amountFrom' of token 'from' from the BentoBox account for this swapper. Swaps it for at least 'amountToMin' of token 'to'. Transfers the swapped tokens of 'to' into the BentoBox using a plain ERC20 transfer. Returns the amount of tokens 'to' transferred to BentoBox. (The BentoBox skim function will be used by the caller to get the swapped funds)."
      },
      "swapExact(address,address,address,address,uint256,uint256,bytes)": {
        "notice": "Calculates the amount of token 'from' needed to complete the swap (amountFrom), this should be less than or equal to amountFromMax. Withdraws 'amountFrom' of token 'from' from the BentoBox account for this swapper. Swaps it for exactly 'exactAmountTo' of token 'to'. Transfers the swapped tokens of 'to' into the BentoBox using a plain ERC20 transfer. Transfers allocated, but unused 'from' tokens within the BentoBox to 'refundTo' (amountFromMax - amountFrom). Returns the amount of 'from' tokens withdrawn from BentoBox (amountFrom). (The BentoBox skim function will be used by the caller to get the swapped funds)."
      }
    },
    "notice": "Generic LP liquidation/deleverage swapper for Uniswap like compatible DEX using Matcha/0x aggregator",
    "version": 1
  },
  "storageLayout": {
    "storage": [],
    "types": null
  }
}