{
  "address": "0x49Bd7dB43695c38661067765BE9484F8177B13f3",
  "abi": [
    {
      "inputs": [
        {
          "internalType": "contract IBentoBoxV1Minimal",
          "name": "_bentoBox",
          "type": "address"
        },
        {
          "internalType": "contract IUniswapV2Router01",
          "name": "_router",
          "type": "address"
        },
        {
          "internalType": "contract IUniswapV2Pair",
          "name": "_pair",
          "type": "address"
        },
        {
          "internalType": "contract ERC20",
          "name": "_mim",
          "type": "address"
        },
        {
          "internalType": "address",
          "name": "_zeroXExchangeProxy",
          "type": "address"
        }
      ],
      "stateMutability": "nonpayable",
      "type": "constructor"
    },
    {
      "inputs": [],
      "name": "ErrToken0SwapFailed",
      "type": "error"
    },
    {
      "inputs": [],
      "name": "ErrToken1SwapFailed",
      "type": "error"
    },
    {
      "inputs": [],
      "name": "bentoBox",
      "outputs": [
        {
          "internalType": "contract IBentoBoxV1Minimal",
          "name": "",
          "type": "address"
        }
      ],
      "stateMutability": "view",
      "type": "function"
    },
    {
      "inputs": [],
      "name": "mim",
      "outputs": [
        {
          "internalType": "contract ERC20",
          "name": "",
          "type": "address"
        }
      ],
      "stateMutability": "view",
      "type": "function"
    },
    {
      "inputs": [],
      "name": "pair",
      "outputs": [
        {
          "internalType": "contract IUniswapV2Pair",
          "name": "",
          "type": "address"
        }
      ],
      "stateMutability": "view",
      "type": "function"
    },
    {
      "inputs": [],
      "name": "router",
      "outputs": [
        {
          "internalType": "contract IUniswapV2Router01",
          "name": "",
          "type": "address"
        }
      ],
      "stateMutability": "view",
      "type": "function"
    },
    {
      "inputs": [
        {
          "internalType": "address",
          "name": "recipient",
          "type": "address"
        },
        {
          "internalType": "uint256",
          "name": "shareToMin",
          "type": "uint256"
        },
        {
          "internalType": "uint256",
          "name": "shareFrom",
          "type": "uint256"
        },
        {
          "internalType": "bytes",
          "name": "data",
          "type": "bytes"
        }
      ],
      "name": "swap",
      "outputs": [
        {
          "internalType": "uint256",
          "name": "extraShare",
          "type": "uint256"
        },
        {
          "internalType": "uint256",
          "name": "shareReturned",
          "type": "uint256"
        }
      ],
      "stateMutability": "nonpayable",
      "type": "function"
    },
    {
      "inputs": [],
      "name": "token0",
      "outputs": [
        {
          "internalType": "contract ERC20",
          "name": "",
          "type": "address"
        }
      ],
      "stateMutability": "view",
      "type": "function"
    },
    {
      "inputs": [],
      "name": "token1",
      "outputs": [
        {
          "internalType": "contract ERC20",
          "name": "",
          "type": "address"
        }
      ],
      "stateMutability": "view",
      "type": "function"
    },
    {
      "inputs": [],
      "name": "zeroXExchangeProxy",
      "outputs": [
        {
          "internalType": "address",
          "name": "",
          "type": "address"
        }
      ],
      "stateMutability": "view",
      "type": "function"
    }
  ],
  "transactionHash": "0x6611e53304198867694d092ffb780633d77aeb71916714a301bb0272a5410f7e",
  "args": [
    "0xD825d06061fdc0585e4373F0A3F01a8C02b0e6A4",
    "0x60aE616a2155Ee3d9A68541Ba4544862310933d4",
    "0xf4003F4efBE8691B60249E6afbD307aBE7758adb",
    "0x130966628846BFd36ff31a822705796e8cb8C18D",
    "0xDef1C0ded9bec7F1a1670819833240f027b25EfF"
  ],
  "numDeployments": 1,
  "solcInputHash": "13399da6a3fa025ace53173b726b30bd",
  "bytecode": "0x6101606040523480156200001257600080fd5b5060405162001a1738038062001a178339810160408190526200003591620002f9565b6001600160a01b0380861660805284811660c05283811660a081905283821660e0529082166101405260408051630dfe168160e01b8152905160009291630dfe16819160048083019260209291908290030181865afa1580156200009d573d6000803e3d6000fd5b505050506040513d601f19601f82011682018060405250810190620000c3919062000379565b90506000846001600160a01b031663d21220a76040518163ffffffff1660e01b8152600401602060405180830381865afa15801562000106573d6000803e3d6000fd5b505050506040513d601f19601f820116820180604052508101906200012c919062000379565b6001600160a01b03838116610100819052908216610120529091506200016290876000196200020e602090811b6200085717901c565b6200018986600019836001600160a01b03166200020e60201b62000857179092919060201c565b60405163095ea7b360e01b81526001600160a01b038481166004830152600019602483015285169063095ea7b3906044016020604051808303816000875af1158015620001da573d6000803e3d6000fd5b505050506040513d601f19601f82011682018060405250810190620002009190620003a0565b5050505050505050620003c4565b600060405163095ea7b360e01b81526001600160a01b03841660048201528260248201526000806044836000895af191506200024c90508162000294565b6200028e5760405162461bcd60e51b815260206004820152600e60248201526d1054141493d59157d1905253115160921b604482015260640160405180910390fd5b50505050565b60003d82620002a757806000803e806000fd5b8060208114620002c2578015620002d45760009250620002d9565b816000803e60005115159250620002d9565b600192505b5050919050565b6001600160a01b0381168114620002f657600080fd5b50565b600080600080600060a086880312156200031257600080fd5b85516200031f81620002e0565b60208701519095506200033281620002e0565b60408701519094506200034581620002e0565b60608701519093506200035881620002e0565b60808701519092506200036b81620002e0565b809150509295509295909350565b6000602082840312156200038c57600080fd5b81516200039981620002e0565b9392505050565b600060208284031215620003b357600080fd5b815180151581146200039957600080fd5b60805160a05160c05160e051610100516101205161014051611592620004856000396000818160fd015281816102cb015261038101526000818161019a015281816104e7015261069b015260008181609201528181610459015261066c015260008181610124015261020c0152600081816101c1015261060e01526000818161014b015281816105590152818161063d015261076301526000818160d601528181610257015281816106ee01528181610734015261078401526115926000f3fe608060405234801561001057600080fd5b50600436106100885760003560e01c8063a8aa1b311161005b578063a8aa1b3114610146578063b691d78c1461016d578063d21220a714610195578063f887ea40146101bc57600080fd5b80630dfe16811461008d5780636b2ace87146100d15780639997c7f1146100f85780639f67679e1461011f575b600080fd5b6100b47f000000000000000000000000000000000000000000000000000000000000000081565b6040516001600160a01b0390911681526020015b60405180910390f35b6100b47f000000000000000000000000000000000000000000000000000000000000000081565b6100b47f000000000000000000000000000000000000000000000000000000000000000081565b6100b47f000000000000000000000000000000000000000000000000000000000000000081565b6100b47f000000000000000000000000000000000000000000000000000000000000000081565b61018061017b366004611174565b6101e3565b604080519283526020830191909152016100c8565b6100b47f000000000000000000000000000000000000000000000000000000000000000081565b6100b47f000000000000000000000000000000000000000000000000000000000000000081565b6000808080806101f58688018861125d565b60405163097da6d360e41b81526001600160a01b037f0000000000000000000000000000000000000000000000000000000000000000811660048301523060248301819052604483015260006064830152608482018d905293965091945092507f0000000000000000000000000000000000000000000000000000000000000000909116906397da6d309060a40160408051808303816000875af11580156102a1573d6000803e3d6000fd5b505050506040513d601f19601f820116820180604052508101906102c59190611385565b505060007f00000000000000000000000000000000000000000000000000000000000000006001600160a01b031684600081518110610306576103066113a9565b602002602001015160405161031b91906113bf565b6000604051808303816000865af19150503d8060008114610358576040519150601f19603f3d011682016040523d82523d6000602084013e61035d565b606091505b505090508061037f5760405163c4a632a560e01b815260040160405180910390fd5b7f00000000000000000000000000000000000000000000000000000000000000006001600160a01b0316846001815181106103bc576103bc6113a9565b60200260200101516040516103d191906113bf565b6000604051808303816000865af19150503d806000811461040e576040519150601f19603f3d011682016040523d82523d6000602084013e610413565b606091505b50508091505080610437576040516326bfc13160e11b815260040160405180910390fd5b6040516370a0823160e01b815230600482015260009081906001600160a01b037f000000000000000000000000000000000000000000000000000000000000000016906370a0823190602401602060405180830381865afa1580156104a0573d6000803e3d6000fd5b505050506040513d601f19601f820116820180604052508101906104c491906113fa565b6040516370a0823160e01b81523060048201529091506000906001600160a01b037f000000000000000000000000000000000000000000000000000000000000000016906370a0823190602401602060405180830381865afa15801561052e573d6000803e3d6000fd5b505050506040513d601f19601f8201168201806040525081019061055291906113fa565b90506000807f00000000000000000000000000000000000000000000000000000000000000006001600160a01b0316630902f1ac6040518163ffffffff1660e01b8152600401606060405180830381865afa1580156105b5573d6000803e3d6000fd5b505050506040513d601f19601f820116820180604052508101906105d99190611436565b506dffffffffffffffffffffffffffff1691506dffffffffffffffffffffffffffff16915060006040518061016001604052807f00000000000000000000000000000000000000000000000000000000000000006001600160a01b031681526020017f00000000000000000000000000000000000000000000000000000000000000006001600160a01b031681526020017f00000000000000000000000000000000000000000000000000000000000000006001600160a01b031681526020017f00000000000000000000000000000000000000000000000000000000000000006001600160a01b031681526020018481526020018381526020018681526020018581526020018a81526020018981526020017f00000000000000000000000000000000000000000000000000000000000000006001600160a01b03168152509050610724816108e8565b90915090508096505050505050507f00000000000000000000000000000000000000000000000000000000000000006001600160a01b03166302b9446c7f00000000000000000000000000000000000000000000000000000000000000007f00000000000000000000000000000000000000000000000000000000000000008f8560006040518663ffffffff1660e01b81526004016107f69594939291906001600160a01b03958616815293851660208501529190931660408301526060820192909252608081019190915260a00190565b60408051808303816000875af1158015610814573d6000803e3d6000fd5b505050506040513d601f19601f820116820180604052508101906108389190611385565b965061084690508b8761149c565b965050505050509550959350505050565b600060405163095ea7b360e01b81526001600160a01b03841660048201528260248201526000806044836000895af191505061089281610b09565b6108e25760405162461bcd60e51b815260206004820152600e60248201527f415050524f56455f4641494c4544000000000000000000000000000000000000604482015260640160405180910390fd5b50505050565b8051604080830151606084015160c085015160e0860151610140870151945162e8e33760e81b81526001600160a01b03948516600482015292841660248401526044830191909152606482015260006084820181905260a4820181905292821660c482015260001960e48201529192839283929091169063e8e3370090610104016060604051808303816000875af1158015610988573d6000803e3d6000fd5b505050506040513d601f19601f820116820180604052508101906109ac91906114b3565b60c087018051939650919450925084916109c790839061149c565b90525060e0840180518391906109de90839061149c565b90525061010084015160c0850151600091829110610a07575050604084015160c0850151610a25565b8561012001518660e001511115610a25575050606084015160e08501515b8015610b0057600060405180610120016040528088600001516001600160a01b0316815260200188602001516001600160a01b0316815260200188604001516001600160a01b0316815260200188606001516001600160a01b03168152602001886080015181526020018860a001518152602001846001600160a01b031681526020018381526020018861014001516001600160a01b031681525090506000806000610ad084610b50565b91945092509050610ae1838a6114e1565b9850610aed82896114e1565b9750610af981886114e1565b9650505050505b50509193909250565b60003d82610b1b57806000803e806000fd5b8060208114610b33578015610b445760009250610b49565b816000803e60005115159250610b49565b600192505b5050919050565b600080600083604001516001600160a01b03168460c001516001600160a01b03161415610d7a576000610b8b85608001518660e00151610f38565b9050808560e001818151610b9f919061149c565b915081815250506000610bbb8287608001518860a00151610f9a565b60c0870151602088015160405163a9059cbb60e01b81526001600160a01b03918216600482015260248101869052929350169063a9059cbb906044016020604051808303816000875af1158015610c16573d6000803e3d6000fd5b505050506040513d601f19601f82011682018060405250810190610c3a91906114f9565b50602086015160405163022c0d9f60e01b8152600060048201819052602482018490523060448301526080606483015260848201526001600160a01b039091169063022c0d9f9060a401600060405180830381600087803b158015610c9e57600080fd5b505af1158015610cb2573d6000803e3d6000fd5b505087516040808a015160608b015160e08c01516101008d0151935162e8e33760e81b81526001600160a01b039384166004820152918316602483015260448201526064810187905260006084820181905260a482015291811660c483015260001960e4830152909116925063e8e337009150610104015b6060604051808303816000875af1158015610d49573d6000803e3d6000fd5b505050506040513d601f19601f82011682018060405250810190610d6d91906114b3565b9450945094505050610f31565b6000610d8e8560a001518660e00151610f38565b9050808560e001818151610da2919061149c565b915081815250506000610dbe828760a001518860800151610f9a565b60c0870151602088015160405163a9059cbb60e01b81526001600160a01b03918216600482015260248101869052929350169063a9059cbb906044016020604051808303816000875af1158015610e19573d6000803e3d6000fd5b505050506040513d601f19601f82011682018060405250810190610e3d91906114f9565b50602086015160405163022c0d9f60e01b8152600481018390526000602482018190523060448301526080606483015260848201526001600160a01b039091169063022c0d9f9060a401600060405180830381600087803b158015610ea157600080fd5b505af1158015610eb5573d6000803e3d6000fd5b505087516040808a015160608b015160e08c01516101008d0151935162e8e33760e81b81526001600160a01b039384166004820152918316602483015260448201889052606482015260006084820181905260a482015291811660c483015260001960e4830152909116925063e8e33700915061010401610d2a565b9193909250565b60006107ca610f49846107cd61151b565b610f7f610f5986623cda2961151b565b610f6686623cda2061151b565b610f7091906114e1565b610f7a908761151b565b610fe9565b610f89919061149c565b610f93919061153a565b9392505050565b600080610fa9856103e561151b565b90506000610fb7848361151b565b9050600082610fc8876103e861151b565b610fd291906114e1565b9050610fde818361153a565b979650505050505050565b600081610ff857506000919050565b816001700100000000000000000000000000000000821061101e5760809190911c9060401b5b6801000000000000000082106110395760409190911c9060201b5b64010000000082106110505760209190911c9060101b5b6201000082106110655760109190911c9060081b5b61010082106110795760089190911c9060041b5b6010821061108c5760049190911c9060021b5b600882106110985760011b5b60016110a4828661153a565b6110ae90836114e1565b901c905060016110be828661153a565b6110c890836114e1565b901c905060016110d8828661153a565b6110e290836114e1565b901c905060016110f2828661153a565b6110fc90836114e1565b901c9050600161110c828661153a565b61111690836114e1565b901c90506001611126828661153a565b61113090836114e1565b901c90506001611140828661153a565b61114a90836114e1565b901c9050600061115a828661153a565b9050808210611169578061116b565b815b95945050505050565b60008060008060006080868803121561118c57600080fd5b85356001600160a01b03811681146111a357600080fd5b94506020860135935060408601359250606086013567ffffffffffffffff808211156111ce57600080fd5b818801915088601f8301126111e257600080fd5b8135818111156111f157600080fd5b89602082850101111561120357600080fd5b9699959850939650602001949392505050565b634e487b7160e01b600052604160045260246000fd5b604051601f8201601f1916810167ffffffffffffffff8111828210171561125557611255611216565b604052919050565b60008060006060848603121561127257600080fd5b833567ffffffffffffffff8082111561128a57600080fd5b818601915086601f83011261129e57600080fd5b81356020828211156112b2576112b2611216565b8160051b6112c182820161122c565b928352848101820192828101908b8511156112db57600080fd5b83870192505b8483101561136c578235868111156112f95760008081fd5b8701603f81018d1361130b5760008081fd5b8481013560408882111561132157611321611216565b611333601f8301601f1916880161122c565b8281528f828486010111156113485760008081fd5b828285018983013760009281018801929092525083525091830191908301906112e1565b9b928a01359a5050506040909701359695505050505050565b6000806040838503121561139857600080fd5b505080516020909101519092909150565b634e487b7160e01b600052603260045260246000fd5b6000825160005b818110156113e057602081860181015185830152016113c6565b818111156113ef576000828501525b509190910192915050565b60006020828403121561140c57600080fd5b5051919050565b80516dffffffffffffffffffffffffffff8116811461143157600080fd5b919050565b60008060006060848603121561144b57600080fd5b61145484611413565b925061146260208501611413565b9150604084015163ffffffff8116811461147b57600080fd5b809150509250925092565b634e487b7160e01b600052601160045260246000fd5b6000828210156114ae576114ae611486565b500390565b6000806000606084860312156114c857600080fd5b8351925060208401519150604084015190509250925092565b600082198211156114f4576114f4611486565b500190565b60006020828403121561150b57600080fd5b81518015158114610f9357600080fd5b600081600019048311821515161561153557611535611486565b500290565b60008261155757634e487b7160e01b600052601260045260246000fd5b50049056fea26469706673582212203b96b7c37803de4e8146cff849c5d5fe644625d2ca96f513f6453c9dadb589a564736f6c634300080a0033",
  "devdoc": {
    "kind": "dev",
    "methods": {},
    "version": 1
  },
  "userdoc": {
    "kind": "user",
    "methods": {},
    "notice": "Generic LP leverage swapper for Uniswap like compatible DEX using Matcha/0x aggregator",
    "version": 1
  },
  "storageLayout": {
    "storage": [],
    "types": null
  }
}