{
  "address": "0x0C963A595AFb4609c5cc6BB0A9daD01925b91886",
  "abi": [
    {
      "inputs": [
        {
          "internalType": "address",
          "name": "_mim",
          "type": "address"
        }
      ],
      "stateMutability": "nonpayable",
      "type": "constructor"
    },
    {
      "anonymous": false,
      "inputs": [
        {
          "indexed": true,
          "internalType": "address",
          "name": "previousOwner",
          "type": "address"
        },
        {
          "indexed": true,
          "internalType": "address",
          "name": "newOwner",
          "type": "address"
        }
      ],
      "name": "OwnershipTransferred",
      "type": "event"
    },
    {
      "inputs": [],
      "name": "mim",
      "outputs": [
        {
          "internalType": "address",
          "name": "",
          "type": "address"
        }
      ],
      "stateMutability": "view",
      "type": "function"
    },
    {
      "inputs": [],
      "name": "owner",
      "outputs": [
        {
          "internalType": "address",
          "name": "",
          "type": "address"
        }
      ],
      "stateMutability": "view",
      "type": "function"
    },
    {
      "inputs": [],
      "name": "renounceOwnership",
      "outputs": [],
      "stateMutability": "nonpayable",
      "type": "function"
    },
    {
      "inputs": [
        {
          "internalType": "address",
          "name": "degenBox",
          "type": "address"
        },
        {
          "internalType": "address",
          "name": "swapper",
          "type": "address"
        },
        {
          "internalType": "address",
          "name": "collateral",
          "type": "address"
        },
        {
          "internalType": "uint256",
          "name": "amount",
          "type": "uint256"
        },
        {
          "internalType": "uint256",
          "name": "shareToMin",
          "type": "uint256"
        },
        {
          "internalType": "bytes",
          "name": "data",
          "type": "bytes"
        }
      ],
      "name": "testLeveraging",
      "outputs": [],
      "stateMutability": "nonpayable",
      "type": "function"
    },
    {
      "inputs": [
        {
          "internalType": "address",
          "name": "degenBox",
          "type": "address"
        },
        {
          "internalType": "address",
          "name": "swapper",
          "type": "address"
        },
        {
          "internalType": "address",
          "name": "collateral",
          "type": "address"
        },
        {
          "internalType": "uint256",
          "name": "amount",
          "type": "uint256"
        },
        {
          "internalType": "uint256",
          "name": "shareToMin",
          "type": "uint256"
        },
        {
          "internalType": "bytes",
          "name": "data",
          "type": "bytes"
        }
      ],
      "name": "testLiquidation",
      "outputs": [],
      "stateMutability": "nonpayable",
      "type": "function"
    },
    {
      "inputs": [
        {
          "internalType": "address",
          "name": "newOwner",
          "type": "address"
        }
      ],
      "name": "transferOwnership",
      "outputs": [],
      "stateMutability": "nonpayable",
      "type": "function"
    },
    {
      "inputs": [
        {
          "internalType": "contract ERC20",
          "name": "token",
          "type": "address"
        },
        {
          "internalType": "address",
          "name": "to",
          "type": "address"
        },
        {
          "internalType": "uint256",
          "name": "amount",
          "type": "uint256"
        }
      ],
      "name": "withdraw",
      "outputs": [],
      "stateMutability": "nonpayable",
      "type": "function"
    }
  ],
  "transactionHash": "0xa5269aa2d945fbe02d9b21baac31ffed38bfc05612d3645daa1f9d987eb4aadc",
  "args": [
    "0x130966628846BFd36ff31a822705796e8cb8C18D"
  ],
  "numDeployments": 1,
  "solcInputHash": "1383b2f9d0cb8fcc182c45855ea81946",
  "bytecode": "0x608060405234801561001057600080fd5b50604051610dde380380610dde83398101604081905261002f916100ad565b6100383361005d565b600180546001600160a01b0319166001600160a01b03929092169190911790556100dd565b600080546001600160a01b038381166001600160a01b0319831681178455604051919092169283917f8be0079c531659141344cd1fd0a4f28419497f9722a3daafe3b4186f6b6457e09190a35050565b6000602082840312156100bf57600080fd5b81516001600160a01b03811681146100d657600080fd5b9392505050565b610cf2806100ec6000396000f3fe608060405234801561001057600080fd5b506004361061007d5760003560e01c80639f67679e1161005b5780639f67679e146100c8578063d9caed12146100db578063f2fde38b146100ee578063f96060a01461010157600080fd5b8063715018a6146100825780638da5cb5b1461008c5780639e5a96b8146100b5575b600080fd5b61008a610114565b005b6000546001600160a01b03165b6040516001600160a01b03909116815260200160405180910390f35b61008a6100c3366004610a89565b61017f565b600154610099906001600160a01b031681565b61008a6100e9366004610b47565b6104e7565b61008a6100fc366004610b88565b61055a565b61008a61010f366004610a89565b610625565b6000546001600160a01b031633146101735760405162461bcd60e51b815260206004820181905260248201527f4f776e61626c653a2063616c6c6572206973206e6f7420746865206f776e657260448201526064015b60405180910390fd5b61017d6000610943565b565b6000546001600160a01b031633146101d95760405162461bcd60e51b815260206004820181905260248201527f4f776e61626c653a2063616c6c6572206973206e6f7420746865206f776e6572604482015260640161016a565b6001546040516323b872dd60e01b81523360048201526001600160a01b03898116602483015260448201879052909116906323b872dd906064016020604051808303816000875af1158015610232573d6000803e3d6000fd5b505050506040513d601f19601f820116820180604052508101906102569190610bac565b5060015460405162ae511b60e21b81526001600160a01b03918216600482015288821660248201819052918816604482015260648101869052600060848201526302b9446c9060a40160408051808303816000875af11580156102bd573d6000803e3d6000fd5b505050506040513d601f19601f820116820180604052508101906102e19190610bce565b5050600154604051636d289ce560e11b81526001600160a01b039182166004820152602481018690526000604482018190529189169063da5139ca90606401602060405180830381865afa15801561033d573d6000803e3d6000fd5b505050506040513d601f19601f820116820180604052508101906103619190610bf2565b604051632da475e360e21b81529091506001600160a01b0388169063b691d78c906103989030908890869089908990600401610c34565b60408051808303816000875af11580156103b6573d6000803e3d6000fd5b505050506040513d601f19601f820116820180604052508101906103da9190610bce565b5050604051633de222bb60e21b81526001600160a01b038781166004830152306024830152600091908a169063f7888aec90604401602060405180830381865afa15801561042c573d6000803e3d6000fd5b505050506040513d601f19601f820116820180604052508101906104509190610bf2565b60405163097da6d360e41b81526001600160a01b0389811660048301523060248301523360448301526000606483015260848201839052919250908a16906397da6d309060a4015b60408051808303816000875af11580156104b6573d6000803e3d6000fd5b505050506040513d601f19601f820116820180604052508101906104da9190610bce565b5050505050505050505050565b6000546001600160a01b031633146105415760405162461bcd60e51b815260206004820181905260248201527f4f776e61626c653a2063616c6c6572206973206e6f7420746865206f776e6572604482015260640161016a565b6105556001600160a01b03841683836109a0565b505050565b6000546001600160a01b031633146105b45760405162461bcd60e51b815260206004820181905260248201527f4f776e61626c653a2063616c6c6572206973206e6f7420746865206f776e6572604482015260640161016a565b6001600160a01b0381166106195760405162461bcd60e51b815260206004820152602660248201527f4f776e61626c653a206e6577206f776e657220697320746865207a65726f206160448201526564647265737360d01b606482015260840161016a565b61062281610943565b50565b6000546001600160a01b0316331461067f5760405162461bcd60e51b815260206004820181905260248201527f4f776e61626c653a2063616c6c6572206973206e6f7420746865206f776e6572604482015260640161016a565b6040516323b872dd60e01b81523360048201526001600160a01b038881166024830152604482018690528616906323b872dd906064016020604051808303816000875af11580156106d4573d6000803e3d6000fd5b505050506040513d601f19601f820116820180604052508101906106f89190610bac565b5060405162ae511b60e21b81526001600160a01b0386811660048301528881166024830181905290881660448301526064820186905260006084830152906302b9446c9060a40160408051808303816000875af115801561075d573d6000803e3d6000fd5b505050506040513d601f19601f820116820180604052508101906107819190610bce565b5050604051636d289ce560e11b81526001600160a01b03868116600483015260248201869052600060448301819052919089169063da5139ca90606401602060405180830381865afa1580156107db573d6000803e3d6000fd5b505050506040513d601f19601f820116820180604052508101906107ff9190610bf2565b60405163a5d4096b60e01b81529091506001600160a01b0388169063a5d4096b9061083b90600090819030908a9088908b908b90600401610c6e565b60408051808303816000875af1158015610859573d6000803e3d6000fd5b505050506040513d601f19601f8201168201806040525081019061087d9190610bce565b5050600154604051633de222bb60e21b81526001600160a01b0391821660048201523060248201526000918a169063f7888aec90604401602060405180830381865afa1580156108d1573d6000803e3d6000fd5b505050506040513d601f19601f820116820180604052508101906108f59190610bf2565b60015460405163097da6d360e41b81526001600160a01b03918216600482015230602482015233604482015260006064820152608481018390529192508a16906397da6d309060a401610498565b600080546001600160a01b0383811673ffffffffffffffffffffffffffffffffffffffff19831681178455604051919092169283917f8be0079c531659141344cd1fd0a4f28419497f9722a3daafe3b4186f6b6457e09190a35050565b600060405163a9059cbb60e01b81526001600160a01b03841660048201528260248201526000806044836000895af19150506109db81610a2d565b610a275760405162461bcd60e51b815260206004820152600f60248201527f5452414e534645525f4641494c45440000000000000000000000000000000000604482015260640161016a565b50505050565b60003d82610a3f57806000803e806000fd5b8060208114610a57578015610a685760009250610a6d565b816000803e60005115159250610a6d565b600192505b5050919050565b6001600160a01b038116811461062257600080fd5b600080600080600080600060c0888a031215610aa457600080fd5b8735610aaf81610a74565b96506020880135610abf81610a74565b95506040880135610acf81610a74565b9450606088013593506080880135925060a088013567ffffffffffffffff80821115610afa57600080fd5b818a0191508a601f830112610b0e57600080fd5b813581811115610b1d57600080fd5b8b6020828501011115610b2f57600080fd5b60208301945080935050505092959891949750929550565b600080600060608486031215610b5c57600080fd5b8335610b6781610a74565b92506020840135610b7781610a74565b929592945050506040919091013590565b600060208284031215610b9a57600080fd5b8135610ba581610a74565b9392505050565b600060208284031215610bbe57600080fd5b81518015158114610ba557600080fd5b60008060408385031215610be157600080fd5b505080516020909101519092909150565b600060208284031215610c0457600080fd5b5051919050565b81835281816020850137506000828201602090810191909152601f909101601f19169091010190565b6001600160a01b0386168152846020820152836040820152608060608201526000610c63608083018486610c0b565b979650505050505050565b60006001600160a01b03808a168352808916602084015280881660408401525085606083015284608083015260c060a0830152610caf60c083018486610c0b565b999850505050505050505056fea264697066735822122075c23ba875bdbee9d3d7793224518ec96ba5ac3cb232f7f64efe6cfd35d372f864736f6c634300080a0033",
  "devdoc": {
    "kind": "dev",
    "methods": {
      "owner()": {
        "details": "Returns the address of the current owner."
      },
      "renounceOwnership()": {
        "details": "Leaves the contract without owner. It will not be possible to call `onlyOwner` functions anymore. Can only be called by the current owner. NOTE: Renouncing ownership will leave the contract without an owner, thereby removing any functionality that is only available to the owner."
      },
      "transferOwnership(address)": {
        "details": "Transfers ownership of the contract to a new account (`newOwner`). Can only be called by the current owner."
      }
    },
    "version": 1
  },
  "userdoc": {
    "kind": "user",
    "methods": {},
    "version": 1
  },
  "storageLayout": {
    "storage": [
      {
        "astId": 7,
        "contract": "contracts/utilities/SwapperTesterV2.sol:SwapperTesterV2",
        "label": "_owner",
        "offset": 0,
        "slot": "0",
        "type": "t_address"
      },
      {
        "astId": 20257,
        "contract": "contracts/utilities/SwapperTesterV2.sol:SwapperTesterV2",
        "label": "mim",
        "offset": 0,
        "slot": "1",
        "type": "t_address"
      }
    ],
    "types": {
      "t_address": {
        "encoding": "inplace",
        "label": "address",
        "numberOfBytes": "20"
      }
    }
  }
}