{
  "address": "0xD43f26102b0671dCf8D6357aA2908D6cC80C0559",
  "abi": [
    {
      "inputs": [],
      "name": "AVAXUSD",
      "outputs": [
        {
          "internalType": "contract AggregatorV3Interface",
          "name": "",
          "type": "address"
        }
      ],
      "stateMutability": "view",
      "type": "function"
    },
    {
      "inputs": [],
      "name": "USDTUSD",
      "outputs": [
        {
          "internalType": "contract AggregatorV3Interface",
          "name": "",
          "type": "address"
        }
      ],
      "stateMutability": "view",
      "type": "function"
    },
    {
      "inputs": [],
      "name": "decimals",
      "outputs": [
        {
          "internalType": "uint8",
          "name": "",
          "type": "uint8"
        }
      ],
      "stateMutability": "pure",
      "type": "function"
    },
    {
      "inputs": [],
      "name": "latestRoundData",
      "outputs": [
        {
          "internalType": "uint80",
          "name": "roundId",
          "type": "uint80"
        },
        {
          "internalType": "int256",
          "name": "answer",
          "type": "int256"
        },
        {
          "internalType": "uint256",
          "name": "startedAt",
          "type": "uint256"
        },
        {
          "internalType": "uint256",
          "name": "updatedAt",
          "type": "uint256"
        },
        {
          "internalType": "uint80",
          "name": "answeredInRound",
          "type": "uint80"
        }
      ],
      "stateMutability": "view",
      "type": "function"
    }
  ],
  "transactionHash": "0x720d803aeebdf2daed5647f707d6601ba9dabb081e7342d1098277f457de2196",
  "args": [],
  "solcInputHash": "ed832352595a0cfff36da2418e10fcc5",
  "bytecode": "0x608060405234801561001057600080fd5b506106f0806100206000396000f3fe608060405234801561001057600080fd5b506004361061004c5760003560e01c8063190d9efb14610051578063313ce5671461006f57806361c860201461008d578063feaf968c146100ab575b600080fd5b6100596100cd565b60405161006691906102db565b60405180910390f35b6100776100e5565b6040516100849190610312565b60405180910390f35b6100956100ee565b6040516100a291906102db565b60405180910390f35b6100b3610106565b6040516100c4959493929190610384565b60405180910390f35b730a77230d17318075983913bc2145db16c736615681565b60006012905090565b73ebe676ee90fe1112671f19b6b7459bc678b67e8a81565b60008060008060008073ebe676ee90fe1112671f19b6b7459bc678b67e8a73ffffffffffffffffffffffffffffffffffffffff1663feaf968c6040518163ffffffff1660e01b815260040160a060405180830381865afa15801561016e573d6000803e3d6000fd5b505050506040513d601f19601f820116820180604052508101906101929190610460565b5050509150506000730a77230d17318075983913bc2145db16c736615673ffffffffffffffffffffffffffffffffffffffff1663feaf968c6040518163ffffffff1660e01b815260040160a060405180830381865afa1580156101f9573d6000803e3d6000fd5b505050506040513d601f19601f8201168201806040525081019061021d9190610460565b505050915050600081670de0b6b3a76400008461023a919061050a565b6102449190610650565b60008060009650965096509650965050509091929394565b600073ffffffffffffffffffffffffffffffffffffffff82169050919050565b6000819050919050565b60006102a161029c6102978461025c565b61027c565b61025c565b9050919050565b60006102b382610286565b9050919050565b60006102c5826102a8565b9050919050565b6102d5816102ba565b82525050565b60006020820190506102f060008301846102cc565b92915050565b600060ff82169050919050565b61030c816102f6565b82525050565b60006020820190506103276000830184610303565b92915050565b600069ffffffffffffffffffff82169050919050565b61034c8161032d565b82525050565b6000819050919050565b61036581610352565b82525050565b6000819050919050565b61037e8161036b565b82525050565b600060a0820190506103996000830188610343565b6103a6602083018761035c565b6103b36040830186610375565b6103c06060830185610375565b6103cd6080830184610343565b9695505050505050565b600080fd5b6103e58161032d565b81146103f057600080fd5b50565b600081519050610402816103dc565b92915050565b61041181610352565b811461041c57600080fd5b50565b60008151905061042e81610408565b92915050565b61043d8161036b565b811461044857600080fd5b50565b60008151905061045a81610434565b92915050565b600080600080600060a0868803121561047c5761047b6103d7565b5b600061048a888289016103f3565b955050602061049b8882890161041f565b94505060406104ac8882890161044b565b93505060606104bd8882890161044b565b92505060806104ce888289016103f3565b9150509295509295909350565b7f4e487b7100000000000000000000000000000000000000000000000000000000600052601160045260246000fd5b600061051582610352565b915061052083610352565b9250827f7fffffffffffffffffffffffffffffffffffffffffffffffffffffffffffffff048211600084136000841316161561055f5761055e6104db565b5b817f8000000000000000000000000000000000000000000000000000000000000000058312600084126000841316161561059c5761059b6104db565b5b827f800000000000000000000000000000000000000000000000000000000000000005821260008413600084121616156105d9576105d86104db565b5b827f7fffffffffffffffffffffffffffffffffffffffffffffffffffffffffffffff0582126000841260008412161615610616576106156104db565b5b828202905092915050565b7f4e487b7100000000000000000000000000000000000000000000000000000000600052601260045260246000fd5b600061065b82610352565b915061066683610352565b92508261067657610675610621565b5b600160000383147f8000000000000000000000000000000000000000000000000000000000000000831416156106af576106ae6104db565b5b82820590509291505056fea2646970667358221220cfb66520b84f6f4fa8a1ecf1d04b7171d53fb9ee6c64b7d295191fc224819ce964736f6c634300080a0033",
  "devdoc": {
    "author": "0xCalibur",
    "kind": "dev",
    "methods": {},
    "title": "AvaxUsdtOracleV1",
    "version": 1
  },
  "userdoc": {
    "kind": "user",
    "methods": {},
    "notice": "Oracle used for getting the price of 1 USDT in AVAX using Chainlink",
    "version": 1
  },
  "storageLayout": {
    "storage": [],
    "types": null
  }
}