{
  "address": "0xd1631DD915cc7B0ad94c307b576012817F6C41A5",
  "abi": [
    {
      "inputs": [
        {
          "internalType": "contract IBentoBoxV1Minimal",
          "name": "_bentoBox",
          "type": "address"
        },
        {
          "internalType": "contract IUniswapV2Router01",
          "name": "_router",
          "type": "address"
        },
        {
          "internalType": "contract IUniswapV2Pair",
          "name": "_pair",
          "type": "address"
        },
        {
          "internalType": "contract ERC20",
          "name": "_mim",
          "type": "address"
        },
        {
          "internalType": "address",
          "name": "_zeroXExchangeProxy",
          "type": "address"
        },
        {
          "internalType": "uint256",
          "name": "_minOneSideableAmount0",
          "type": "uint256"
        },
        {
          "internalType": "uint256",
          "name": "_minOneSideableAmount1",
          "type": "uint256"
        }
      ],
      "stateMutability": "nonpayable",
      "type": "constructor"
    },
    {
      "inputs": [],
      "name": "ErrToken0SwapFailed",
      "type": "error"
    },
    {
      "inputs": [],
      "name": "ErrToken1SwapFailed",
      "type": "error"
    },
    {
      "inputs": [],
      "name": "bentoBox",
      "outputs": [
        {
          "internalType": "contract IBentoBoxV1Minimal",
          "name": "",
          "type": "address"
        }
      ],
      "stateMutability": "view",
      "type": "function"
    },
    {
      "inputs": [],
      "name": "mim",
      "outputs": [
        {
          "internalType": "contract ERC20",
          "name": "",
          "type": "address"
        }
      ],
      "stateMutability": "view",
      "type": "function"
    },
    {
      "inputs": [],
      "name": "minOneSideableAmount0",
      "outputs": [
        {
          "internalType": "uint256",
          "name": "",
          "type": "uint256"
        }
      ],
      "stateMutability": "view",
      "type": "function"
    },
    {
      "inputs": [],
      "name": "minOneSideableAmount1",
      "outputs": [
        {
          "internalType": "uint256",
          "name": "",
          "type": "uint256"
        }
      ],
      "stateMutability": "view",
      "type": "function"
    },
    {
      "inputs": [],
      "name": "pair",
      "outputs": [
        {
          "internalType": "contract IUniswapV2Pair",
          "name": "",
          "type": "address"
        }
      ],
      "stateMutability": "view",
      "type": "function"
    },
    {
      "inputs": [],
      "name": "router",
      "outputs": [
        {
          "internalType": "contract IUniswapV2Router01",
          "name": "",
          "type": "address"
        }
      ],
      "stateMutability": "view",
      "type": "function"
    },
    {
      "inputs": [
        {
          "internalType": "address",
          "name": "recipient",
          "type": "address"
        },
        {
          "internalType": "uint256",
          "name": "shareToMin",
          "type": "uint256"
        },
        {
          "internalType": "uint256",
          "name": "shareFrom",
          "type": "uint256"
        },
        {
          "internalType": "bytes",
          "name": "data",
          "type": "bytes"
        }
      ],
      "name": "swap",
      "outputs": [
        {
          "internalType": "uint256",
          "name": "extraShare",
          "type": "uint256"
        },
        {
          "internalType": "uint256",
          "name": "shareReturned",
          "type": "uint256"
        }
      ],
      "stateMutability": "nonpayable",
      "type": "function"
    },
    {
      "inputs": [],
      "name": "token0",
      "outputs": [
        {
          "internalType": "contract ERC20",
          "name": "",
          "type": "address"
        }
      ],
      "stateMutability": "view",
      "type": "function"
    },
    {
      "inputs": [],
      "name": "token1",
      "outputs": [
        {
          "internalType": "contract ERC20",
          "name": "",
          "type": "address"
        }
      ],
      "stateMutability": "view",
      "type": "function"
    },
    {
      "inputs": [],
      "name": "zeroXExchangeProxy",
      "outputs": [
        {
          "internalType": "address",
          "name": "",
          "type": "address"
        }
      ],
      "stateMutability": "view",
      "type": "function"
    }
  ],
  "transactionHash": "0x8ca5e828e0f6b371247cb92ff47ccf21e104f0905bd487836360eb013e69ed59",
  "args": [
    "0xD825d06061fdc0585e4373F0A3F01a8C02b0e6A4",
    "0x60aE616a2155Ee3d9A68541Ba4544862310933d4",
    "0x4b946c91C2B1a7d7C40FB3C130CdfBaf8389094d",
    "0x130966628846BFd36ff31a822705796e8cb8C18D",
    "0xDef1C0ded9bec7F1a1670819833240f027b25EfF",
    "10000000000000000",
    "10000000000000000"
  ],
  "numDeployments": 1,
  "solcInputHash": "469e47309c479f66de662c0a08238ba7",
  "bytecode": "0x6101a06040523480156200001257600080fd5b5060405162001a5338038062001a53833981016040819052620000359162000307565b6001600160a01b0380881660805286811660c05285811660a081905285821660e0529084166101405261016083905261018082905260408051630dfe168160e01b8152905160009291630dfe16819160048083019260209291908290030181865afa158015620000a9573d6000803e3d6000fd5b505050506040513d601f19601f82011682018060405250810190620000cf91906200039a565b90506000866001600160a01b031663d21220a76040518163ffffffff1660e01b8152600401602060405180830381865afa15801562000112573d6000803e3d6000fd5b505050506040513d601f19601f820116820180604052508101906200013891906200039a565b6001600160a01b03838116610100819052908216610120529091506200016e90896000196200021c602090811b6200092017901c565b6200019588600019836001600160a01b03166200021c60201b62000920179092919060201c565b60405163095ea7b360e01b81526001600160a01b038681166004830152600019602483015287169063095ea7b3906044016020604051808303816000875af1158015620001e6573d6000803e3d6000fd5b505050506040513d601f19601f820116820180604052508101906200020c9190620003c1565b50505050505050505050620003e5565b600060405163095ea7b360e01b81526001600160a01b03841660048201528260248201526000806044836000895af191506200025a905081620002a2565b6200029c5760405162461bcd60e51b815260206004820152600e60248201526d1054141493d59157d1905253115160921b604482015260640160405180910390fd5b50505050565b60003d82620002b557806000803e806000fd5b8060208114620002d0578015620002e25760009250620002e7565b816000803e60005115159250620002e7565b600192505b5050919050565b6001600160a01b03811681146200030457600080fd5b50565b600080600080600080600060e0888a0312156200032357600080fd5b87516200033081620002ee565b60208901519097506200034381620002ee565b60408901519096506200035681620002ee565b60608901519095506200036981620002ee565b60808901519094506200037c81620002ee565b8093505060a0880151915060c0880151905092959891949750929550565b600060208284031215620003ad57600080fd5b8151620003ba81620002ee565b9392505050565b600060208284031215620003d457600080fd5b81518015158114620003ba57600080fd5b60805160a05160c05160e0516101005161012051610140516101605161018051611587620004cc6000396000818161022c015261079301526000818160c8015261076d01526000818161016801528181610356015261040c015260008181610205015281816105720152610726015260008181610102015281816104e401526106f701526000818161018f015261029c01526000818161025301526106990152600081816101b6015281816105e4015281816106c8015261082e015260008181610141015281816102e2015281816107b9015281816107ff015261084f01526115876000f3fe608060405234801561001057600080fd5b50600436106100be5760003560e01c8063a8aa1b3111610076578063d21220a71161005b578063d21220a714610200578063d24fc03f14610227578063f887ea401461024e57600080fd5b8063a8aa1b31146101b1578063b691d78c146101d857600080fd5b80636b2ace87116100a75780636b2ace871461013c5780639997c7f1146101635780639f67679e1461018a57600080fd5b806307991c3b146100c35780630dfe1681146100fd575b600080fd5b6100ea7f000000000000000000000000000000000000000000000000000000000000000081565b6040519081526020015b60405180910390f35b6101247f000000000000000000000000000000000000000000000000000000000000000081565b6040516001600160a01b0390911681526020016100f4565b6101247f000000000000000000000000000000000000000000000000000000000000000081565b6101247f000000000000000000000000000000000000000000000000000000000000000081565b6101247f000000000000000000000000000000000000000000000000000000000000000081565b6101247f000000000000000000000000000000000000000000000000000000000000000081565b6101eb6101e6366004611178565b610275565b604080519283526020830191909152016100f4565b6101247f000000000000000000000000000000000000000000000000000000000000000081565b6100ea7f000000000000000000000000000000000000000000000000000000000000000081565b6101247f000000000000000000000000000000000000000000000000000000000000000081565b6000808061028584860186611261565b60405163097da6d360e41b81526001600160a01b037f0000000000000000000000000000000000000000000000000000000000000000811660048301523060248301819052604483015260006064830152608482018990529192507f0000000000000000000000000000000000000000000000000000000000000000909116906397da6d309060a40160408051808303816000875af115801561032c573d6000803e3d6000fd5b505050506040513d601f19601f82011682018060405250810190610350919061137a565b505060007f00000000000000000000000000000000000000000000000000000000000000006001600160a01b0316826000815181106103915761039161139e565b60200260200101516040516103a691906113b4565b6000604051808303816000865af19150503d80600081146103e3576040519150601f19603f3d011682016040523d82523d6000602084013e6103e8565b606091505b505090508061040a5760405163c4a632a560e01b815260040160405180910390fd5b7f00000000000000000000000000000000000000000000000000000000000000006001600160a01b0316826001815181106104475761044761139e565b602002602001015160405161045c91906113b4565b6000604051808303816000865af19150503d8060008114610499576040519150601f19603f3d011682016040523d82523d6000602084013e61049e565b606091505b505080915050806104c2576040516326bfc13160e11b815260040160405180910390fd5b6040516370a0823160e01b815230600482015260009081906001600160a01b037f000000000000000000000000000000000000000000000000000000000000000016906370a0823190602401602060405180830381865afa15801561052b573d6000803e3d6000fd5b505050506040513d601f19601f8201168201806040525081019061054f91906113ef565b6040516370a0823160e01b81523060048201529091506000906001600160a01b037f000000000000000000000000000000000000000000000000000000000000000016906370a0823190602401602060405180830381865afa1580156105b9573d6000803e3d6000fd5b505050506040513d601f19601f820116820180604052508101906105dd91906113ef565b90506000807f00000000000000000000000000000000000000000000000000000000000000006001600160a01b0316630902f1ac6040518163ffffffff1660e01b8152600401606060405180830381865afa158015610640573d6000803e3d6000fd5b505050506040513d601f19601f82011682018060405250810190610664919061142b565b506dffffffffffffffffffffffffffff1691506dffffffffffffffffffffffffffff16915060006040518061016001604052807f00000000000000000000000000000000000000000000000000000000000000006001600160a01b031681526020017f00000000000000000000000000000000000000000000000000000000000000006001600160a01b031681526020017f00000000000000000000000000000000000000000000000000000000000000006001600160a01b031681526020017f00000000000000000000000000000000000000000000000000000000000000006001600160a01b031681526020018481526020018381526020018681526020018581526020017f000000000000000000000000000000000000000000000000000000000000000081526020017f000000000000000000000000000000000000000000000000000000000000000081526020017f00000000000000000000000000000000000000000000000000000000000000006001600160a01b031681525090506107ef816109b1565b90915090508096505050505050507f00000000000000000000000000000000000000000000000000000000000000006001600160a01b03166302b9446c7f00000000000000000000000000000000000000000000000000000000000000007f00000000000000000000000000000000000000000000000000000000000000008d8560006040518663ffffffff1660e01b81526004016108c19594939291906001600160a01b03958616815293851660208501529190931660408301526060820192909252608081019190915260a00190565b60408051808303816000875af11580156108df573d6000803e3d6000fd5b505050506040513d601f19601f82011682018060405250810190610903919061137a565b945061091190508985611491565b94505050509550959350505050565b600060405163095ea7b360e01b81526001600160a01b03841660048201528260248201526000806044836000895af191505061095b81610bb5565b6109ab5760405162461bcd60e51b815260206004820152600e60248201527f415050524f56455f4641494c4544000000000000000000000000000000000000604482015260640160405180910390fd5b50505050565b8051604080830151606084015160c085015160e0860151935162e8e33760e81b81526001600160a01b03938416600482015291831660248301526044820152606481019290925260006084830181905260a483018190523060c484015260001960e484015292839283929091169063e8e3370090610104016060604051808303816000875af1158015610a48573d6000803e3d6000fd5b505050506040513d601f19601f82011682018060405250810190610a6c91906114a8565b60c08701805193965091945092508491610a87908390611491565b90525060e084018051839190610a9e908390611491565b90525061010084015160009081908510610ac3575050604084015160c0850151610adc565b8561012001518410610adc575050606084015160e08501515b8015610bac57600060405180610120016040528088600001516001600160a01b0316815260200188602001516001600160a01b0316815260200188604001516001600160a01b0316815260200188606001516001600160a01b03168152602001886080015181526020018860a001518152602001846001600160a01b031681526020018381526020018861014001516001600160a01b031681525090506000806000610b8784610bfc565b91945092509050610b98838a6114d6565b9850610ba482896114d6565b975095505050505b50509193909250565b60003d82610bc757806000803e806000fd5b8060208114610bdf578015610bf05760009250610bf5565b816000803e60005115159250610bf5565b600192505b5050919050565b600080600083604001516001600160a01b03168460c001516001600160a01b03161415610e23576000610c3785608001518660e00151610f3c565b9050808560e001818151610c4b9190611491565b915081815250506000610c678287608001518860a00151610f9e565b60c0870151602088015160405163a9059cbb60e01b81526001600160a01b03918216600482015260248101869052929350169063a9059cbb906044016020604051808303816000875af1158015610cc2573d6000803e3d6000fd5b505050506040513d601f19601f82011682018060405250810190610ce691906114ee565b50602086015160405163022c0d9f60e01b8152600060048201819052602482018490523060448301526080606483015260848201526001600160a01b039091169063022c0d9f9060a4015b600060405180830381600087803b158015610d4b57600080fd5b505af1158015610d5f573d6000803e3d6000fd5b505087516040808a015160608b01516101008c0151925162e8e33760e81b81526001600160a01b0392831660048201529082166024820152604481018790526064810187905260006084820181905260a482015291811660c483015260001960e4830152909116925063e8e337009150610104016060604051808303816000875af1158015610df2573d6000803e3d6000fd5b505050506040513d601f19601f82011682018060405250810190610e1691906114a8565b9450945094505050610f35565b6000610e378560a001518660e00151610f3c565b9050808560e001818151610e4b9190611491565b915081815250506000610e67828760a001518860800151610f9e565b60c0870151602088015160405163a9059cbb60e01b81526001600160a01b03918216600482015260248101869052929350169063a9059cbb906044016020604051808303816000875af1158015610ec2573d6000803e3d6000fd5b505050506040513d601f19601f82011682018060405250810190610ee691906114ee565b50602086015160405163022c0d9f60e01b8152600481018390526000602482018190523060448301526080606483015260848201526001600160a01b039091169063022c0d9f9060a401610d31565b9193909250565b60006107ca610f4d846107cd611510565b610f83610f5d86623cda29611510565b610f6a86623cda20611510565b610f7491906114d6565b610f7e9087611510565b610fed565b610f8d9190611491565b610f97919061152f565b9392505050565b600080610fad856103e5611510565b90506000610fbb8483611510565b9050600082610fcc876103e8611510565b610fd691906114d6565b9050610fe2818361152f565b979650505050505050565b600081610ffc57506000919050565b81600170010000000000000000000000000000000082106110225760809190911c9060401b5b68010000000000000000821061103d5760409190911c9060201b5b64010000000082106110545760209190911c9060101b5b6201000082106110695760109190911c9060081b5b610100821061107d5760089190911c9060041b5b601082106110905760049190911c9060021b5b6008821061109c5760011b5b60016110a8828661152f565b6110b290836114d6565b901c905060016110c2828661152f565b6110cc90836114d6565b901c905060016110dc828661152f565b6110e690836114d6565b901c905060016110f6828661152f565b61110090836114d6565b901c90506001611110828661152f565b61111a90836114d6565b901c9050600161112a828661152f565b61113490836114d6565b901c90506001611144828661152f565b61114e90836114d6565b901c9050600061115e828661152f565b905080821061116d578061116f565b815b95945050505050565b60008060008060006080868803121561119057600080fd5b85356001600160a01b03811681146111a757600080fd5b94506020860135935060408601359250606086013567ffffffffffffffff808211156111d257600080fd5b818801915088601f8301126111e657600080fd5b8135818111156111f557600080fd5b89602082850101111561120757600080fd5b9699959850939650602001949392505050565b634e487b7160e01b600052604160045260246000fd5b604051601f8201601f1916810167ffffffffffffffff811182821017156112595761125961121a565b604052919050565b6000602080838503121561127457600080fd5b823567ffffffffffffffff8082111561128c57600080fd5b8185019150601f86818401126112a157600080fd5b8235828111156112b3576112b361121a565b8060051b6112c2868201611230565b918252848101860191868101908a8411156112dc57600080fd5b87870192505b8383101561136c578235868111156112fa5760008081fd5b8701603f81018c1361130c5760008081fd5b888101356040888211156113225761132261121a565b611333828901601f19168c01611230565b8281528e828486010111156113485760008081fd5b828285018d83013760009281018c01929092525083525091870191908701906112e2565b9a9950505050505050505050565b6000806040838503121561138d57600080fd5b505080516020909101519092909150565b634e487b7160e01b600052603260045260246000fd5b6000825160005b818110156113d557602081860181015185830152016113bb565b818111156113e4576000828501525b509190910192915050565b60006020828403121561140157600080fd5b5051919050565b80516dffffffffffffffffffffffffffff8116811461142657600080fd5b919050565b60008060006060848603121561144057600080fd5b61144984611408565b925061145760208501611408565b9150604084015163ffffffff8116811461147057600080fd5b809150509250925092565b634e487b7160e01b600052601160045260246000fd5b6000828210156114a3576114a361147b565b500390565b6000806000606084860312156114bd57600080fd5b8351925060208401519150604084015190509250925092565b600082198211156114e9576114e961147b565b500190565b60006020828403121561150057600080fd5b81518015158114610f9757600080fd5b600081600019048311821515161561152a5761152a61147b565b500290565b60008261154c57634e487b7160e01b600052601260045260246000fd5b50049056fea2646970667358221220c756e25c1ac1429a25b4c3476f3df395145d3821b6feba066cb8a4c79fa44a3964736f6c634300080a0033",
  "devdoc": {
    "kind": "dev",
    "methods": {},
    "stateVariables": {
      "minOneSideableAmount0": {
        "details": "The minimum amount of amount0 and amount1 amounts to trigger adding extra liquidity"
      }
    },
    "version": 1
  },
  "userdoc": {
    "kind": "user",
    "methods": {},
    "notice": "Generic LP leverage swapper for Uniswap like compatible DEX using Matcha/0x aggregator",
    "version": 1
  },
  "storageLayout": {
    "storage": [],
    "types": null
  }
}