{
  "address": "0x0d62F99AC1Fd8B9aA51762a207e9E92Fe353C4F7",
  "abi": [
    {
      "inputs": [
        {
          "internalType": "contract IBentoBoxV1Minimal",
          "name": "_bentoBox",
          "type": "address"
        },
        {
          "internalType": "contract IUniswapV2Router01",
          "name": "_router",
          "type": "address"
        },
        {
          "internalType": "contract IUniswapV2Pair",
          "name": "_pair",
          "type": "address"
        },
        {
          "internalType": "contract ERC20",
          "name": "_mim",
          "type": "address"
        },
        {
          "internalType": "address",
          "name": "_zeroXExchangeProxy",
          "type": "address"
        }
      ],
      "stateMutability": "nonpayable",
      "type": "constructor"
    },
    {
      "inputs": [],
      "name": "ErrToken0SwapFailed",
      "type": "error"
    },
    {
      "inputs": [],
      "name": "ErrToken1SwapFailed",
      "type": "error"
    },
    {
      "inputs": [],
      "name": "bentoBox",
      "outputs": [
        {
          "internalType": "contract IBentoBoxV1Minimal",
          "name": "",
          "type": "address"
        }
      ],
      "stateMutability": "view",
      "type": "function"
    },
    {
      "inputs": [],
      "name": "mim",
      "outputs": [
        {
          "internalType": "contract ERC20",
          "name": "",
          "type": "address"
        }
      ],
      "stateMutability": "view",
      "type": "function"
    },
    {
      "inputs": [],
      "name": "pair",
      "outputs": [
        {
          "internalType": "contract IUniswapV2Pair",
          "name": "",
          "type": "address"
        }
      ],
      "stateMutability": "view",
      "type": "function"
    },
    {
      "inputs": [],
      "name": "router",
      "outputs": [
        {
          "internalType": "contract IUniswapV2Router01",
          "name": "",
          "type": "address"
        }
      ],
      "stateMutability": "view",
      "type": "function"
    },
    {
      "inputs": [
        {
          "internalType": "address",
          "name": "recipient",
          "type": "address"
        },
        {
          "internalType": "uint256",
          "name": "shareToMin",
          "type": "uint256"
        },
        {
          "internalType": "uint256",
          "name": "shareFrom",
          "type": "uint256"
        },
        {
          "internalType": "bytes",
          "name": "data",
          "type": "bytes"
        }
      ],
      "name": "swap",
      "outputs": [
        {
          "internalType": "uint256",
          "name": "extraShare",
          "type": "uint256"
        },
        {
          "internalType": "uint256",
          "name": "shareReturned",
          "type": "uint256"
        }
      ],
      "stateMutability": "nonpayable",
      "type": "function"
    },
    {
      "inputs": [],
      "name": "token0",
      "outputs": [
        {
          "internalType": "contract ERC20",
          "name": "",
          "type": "address"
        }
      ],
      "stateMutability": "view",
      "type": "function"
    },
    {
      "inputs": [],
      "name": "token1",
      "outputs": [
        {
          "internalType": "contract ERC20",
          "name": "",
          "type": "address"
        }
      ],
      "stateMutability": "view",
      "type": "function"
    },
    {
      "inputs": [],
      "name": "zeroXExchangeProxy",
      "outputs": [
        {
          "internalType": "address",
          "name": "",
          "type": "address"
        }
      ],
      "stateMutability": "view",
      "type": "function"
    }
  ],
  "transactionHash": "0x7a9b91c1611b275c0eb67a6668db5c76e2dfec0515b8f911d758bc71f5d4eb95",
  "args": [
    "0xD825d06061fdc0585e4373F0A3F01a8C02b0e6A4",
    "0x60aE616a2155Ee3d9A68541Ba4544862310933d4",
    "0x4b946c91C2B1a7d7C40FB3C130CdfBaf8389094d",
    "0x130966628846BFd36ff31a822705796e8cb8C18D",
    "0xDef1C0ded9bec7F1a1670819833240f027b25EfF"
  ],
  "numDeployments": 1,
  "solcInputHash": "ebbf6ae0cc34b2bc86262ed4a86700b5",
  "bytecode": "0x6101606040523480156200001257600080fd5b506040516200100b3803806200100b8339810160408190526200003591620002f9565b6001600160a01b0380861660805284811660c05283811660a081905283821660e0529082166101405260408051630dfe168160e01b8152905160009291630dfe16819160048083019260209291908290030181865afa1580156200009d573d6000803e3d6000fd5b505050506040513d601f19601f82011682018060405250810190620000c3919062000379565b90506000846001600160a01b031663d21220a76040518163ffffffff1660e01b8152600401602060405180830381865afa15801562000106573d6000803e3d6000fd5b505050506040513d601f19601f820116820180604052508101906200012c919062000379565b6001600160a01b03838116610100819052908216610120529091506200016290876000196200020e602090811b620007b817901c565b6200018986600019836001600160a01b03166200020e60201b620007b8179092919060201c565b60405163095ea7b360e01b81526001600160a01b038481166004830152600019602483015285169063095ea7b3906044016020604051808303816000875af1158015620001da573d6000803e3d6000fd5b505050506040513d601f19601f82011682018060405250810190620002009190620003a0565b5050505050505050620003c4565b600060405163095ea7b360e01b81526001600160a01b03841660048201528260248201526000806044836000895af191506200024c90508162000294565b6200028e5760405162461bcd60e51b815260206004820152600e60248201526d1054141493d59157d1905253115160921b604482015260640160405180910390fd5b50505050565b60003d82620002a757806000803e806000fd5b8060208114620002c2578015620002d45760009250620002d9565b816000803e60005115159250620002d9565b600192505b5050919050565b6001600160a01b0381168114620002f657600080fd5b50565b600080600080600060a086880312156200031257600080fd5b85516200031f81620002e0565b60208701519095506200033281620002e0565b60408701519094506200034581620002e0565b60608701519093506200035881620002e0565b60808701519092506200036b81620002e0565b809150509295509295909350565b6000602082840312156200038c57600080fd5b81516200039981620002e0565b9392505050565b600060208284031215620003b357600080fd5b815180151581146200039957600080fd5b60805160a05160c05160e051610100516101205161014051610ba9620004626000396000818160fd015281816102c4015261037a01526000818161019a01528181610499015261051b01526000818160920152610477015260008181610124015261020a0152600081816101c1015261044d01526000818161014b015261068c01526000818160d60152818161025001526106610152610ba96000f3fe608060405234801561001057600080fd5b50600436106100885760003560e01c8063a8aa1b311161005b578063a8aa1b3114610146578063b691d78c1461016d578063d21220a714610195578063f887ea40146101bc57600080fd5b80630dfe16811461008d5780636b2ace87146100d15780639997c7f1146100f85780639f67679e1461011f575b600080fd5b6100b47f000000000000000000000000000000000000000000000000000000000000000081565b6040516001600160a01b0390911681526020015b60405180910390f35b6100b47f000000000000000000000000000000000000000000000000000000000000000081565b6100b47f000000000000000000000000000000000000000000000000000000000000000081565b6100b47f000000000000000000000000000000000000000000000000000000000000000081565b6100b47f000000000000000000000000000000000000000000000000000000000000000081565b61018061017b366004610890565b6101e3565b604080519283526020830191909152016100c8565b6100b47f000000000000000000000000000000000000000000000000000000000000000081565b6100b47f000000000000000000000000000000000000000000000000000000000000000081565b600080806101f384860186610979565b60405163097da6d360e41b81526001600160a01b037f0000000000000000000000000000000000000000000000000000000000000000811660048301523060248301819052604483015260006064830152608482018990529192507f0000000000000000000000000000000000000000000000000000000000000000909116906397da6d309060a40160408051808303816000875af115801561029a573d6000803e3d6000fd5b505050506040513d601f19601f820116820180604052508101906102be9190610a92565b505060007f00000000000000000000000000000000000000000000000000000000000000006001600160a01b0316826000815181106102ff576102ff610ab6565b60200260200101516040516103149190610acc565b6000604051808303816000865af19150503d8060008114610351576040519150601f19603f3d011682016040523d82523d6000602084013e610356565b606091505b50509050806103785760405163c4a632a560e01b815260040160405180910390fd5b7f00000000000000000000000000000000000000000000000000000000000000006001600160a01b0316826001815181106103b5576103b5610ab6565b60200260200101516040516103ca9190610acc565b6000604051808303816000865af19150503d8060008114610407576040519150601f19603f3d011682016040523d82523d6000602084013e61040c565b606091505b50508091505080610430576040516326bfc13160e11b815260040160405180910390fd5b6040516370a0823160e01b81523060048201526001600160a01b037f000000000000000000000000000000000000000000000000000000000000000081169163e8e33700917f0000000000000000000000000000000000000000000000000000000000000000917f0000000000000000000000000000000000000000000000000000000000000000918316906370a0823190602401602060405180830381865afa1580156104e2573d6000803e3d6000fd5b505050506040513d601f19601f820116820180604052508101906105069190610b07565b6040516370a0823160e01b81523060048201527f00000000000000000000000000000000000000000000000000000000000000006001600160a01b0316906370a0823190602401602060405180830381865afa15801561056a573d6000803e3d6000fd5b505050506040513d601f19601f8201168201806040525081019061058e9190610b07565b6040517fffffffff0000000000000000000000000000000000000000000000000000000060e087901b1681526001600160a01b0394851660048201529390921660248401526044830152606482015260006084820181905260a48201523060c482015260001960e4820152610104016060604051808303816000875af115801561061c573d6000803e3d6000fd5b505050506040513d601f19601f820116820180604052508101906106409190610b20565b50506040516370a0823160e01b815230600482018190526001600160a01b037f0000000000000000000000000000000000000000000000000000000000000000811693506302b9446c927f000000000000000000000000000000000000000000000000000000000000000092918e91908416906370a0823190602401602060405180830381865afa1580156106d9573d6000803e3d6000fd5b505050506040513d601f19601f820116820180604052508101906106fd9190610b07565b6040517fffffffff0000000000000000000000000000000000000000000000000000000060e087901b1681526001600160a01b03948516600482015292841660248401529216604482015260648101919091526000608482015260a40160408051808303816000875af1158015610778573d6000803e3d6000fd5b505050506040513d601f19601f8201168201806040525081019061079c9190610a92565b93506107aa90508884610b4e565b935050509550959350505050565b600060405163095ea7b360e01b81526001600160a01b03841660048201528260248201526000806044836000895af19150506107f381610849565b6108435760405162461bcd60e51b815260206004820152600e60248201527f415050524f56455f4641494c4544000000000000000000000000000000000000604482015260640160405180910390fd5b50505050565b60003d8261085b57806000803e806000fd5b80602081146108735780156108845760009250610889565b816000803e60005115159250610889565b600192505b5050919050565b6000806000806000608086880312156108a857600080fd5b85356001600160a01b03811681146108bf57600080fd5b94506020860135935060408601359250606086013567ffffffffffffffff808211156108ea57600080fd5b818801915088601f8301126108fe57600080fd5b81358181111561090d57600080fd5b89602082850101111561091f57600080fd5b9699959850939650602001949392505050565b634e487b7160e01b600052604160045260246000fd5b604051601f8201601f1916810167ffffffffffffffff8111828210171561097157610971610932565b604052919050565b6000602080838503121561098c57600080fd5b823567ffffffffffffffff808211156109a457600080fd5b8185019150601f86818401126109b957600080fd5b8235828111156109cb576109cb610932565b8060051b6109da868201610948565b918252848101860191868101908a8411156109f457600080fd5b87870192505b83831015610a8457823586811115610a125760008081fd5b8701603f81018c13610a245760008081fd5b88810135604088821115610a3a57610a3a610932565b610a4b828901601f19168c01610948565b8281528e82848601011115610a605760008081fd5b828285018d83013760009281018c01929092525083525091870191908701906109fa565b9a9950505050505050505050565b60008060408385031215610aa557600080fd5b505080516020909101519092909150565b634e487b7160e01b600052603260045260246000fd5b6000825160005b81811015610aed5760208186018101518583015201610ad3565b81811115610afc576000828501525b509190910192915050565b600060208284031215610b1957600080fd5b5051919050565b600080600060608486031215610b3557600080fd5b8351925060208401519150604084015190509250925092565b600082821015610b6e57634e487b7160e01b600052601160045260246000fd5b50039056fea264697066735822122015e5a977b9fb5b83929092588f8d74e98e9c96188b4f607f32b571611253f04b64736f6c634300080a0033",
  "devdoc": {
    "kind": "dev",
    "methods": {},
    "version": 1
  },
  "userdoc": {
    "kind": "user",
    "methods": {},
    "notice": "Generic LP leverage swapper for Uniswap like compatible DEX using Matcha/0x aggregator",
    "version": 1
  },
  "storageLayout": {
    "storage": [],
    "types": null
  }
}