{
  "address": "0xD7477321A84F3d39B8D742580F3740016658135D",
  "abi": [
    {
      "inputs": [],
      "stateMutability": "nonpayable",
      "type": "constructor"
    },
    {
      "inputs": [],
      "name": "DEGENBOX",
      "outputs": [
        {
          "internalType": "contract IBentoBoxV1",
          "name": "",
          "type": "address"
        }
      ],
      "stateMutability": "view",
      "type": "function"
    },
    {
      "inputs": [],
      "name": "MIM",
      "outputs": [
        {
          "internalType": "contract IERC20",
          "name": "",
          "type": "address"
        }
      ],
      "stateMutability": "view",
      "type": "function"
    },
    {
      "inputs": [],
      "name": "MIMAVAX",
      "outputs": [
        {
          "internalType": "contract IUniswapV2Pair",
          "name": "",
          "type": "address"
        }
      ],
      "stateMutability": "view",
      "type": "function"
    },
    {
      "inputs": [],
      "name": "WAVAX",
      "outputs": [
        {
          "internalType": "contract IERC20",
          "name": "",
          "type": "address"
        }
      ],
      "stateMutability": "view",
      "type": "function"
    },
    {
      "inputs": [
        {
          "internalType": "contract IERC20",
          "name": "",
          "type": "address"
        },
        {
          "internalType": "contract IERC20",
          "name": "",
          "type": "address"
        },
        {
          "internalType": "address",
          "name": "recipient",
          "type": "address"
        },
        {
          "internalType": "uint256",
          "name": "shareToMin",
          "type": "uint256"
        },
        {
          "internalType": "uint256",
          "name": "shareFrom",
          "type": "uint256"
        }
      ],
      "name": "swap",
      "outputs": [
        {
          "internalType": "uint256",
          "name": "extraShare",
          "type": "uint256"
        },
        {
          "internalType": "uint256",
          "name": "shareReturned",
          "type": "uint256"
        }
      ],
      "stateMutability": "nonpayable",
      "type": "function"
    },
    {
      "inputs": [
        {
          "internalType": "contract IERC20",
          "name": "",
          "type": "address"
        },
        {
          "internalType": "contract IERC20",
          "name": "",
          "type": "address"
        },
        {
          "internalType": "address",
          "name": "",
          "type": "address"
        },
        {
          "internalType": "address",
          "name": "",
          "type": "address"
        },
        {
          "internalType": "uint256",
          "name": "",
          "type": "uint256"
        },
        {
          "internalType": "uint256",
          "name": "",
          "type": "uint256"
        }
      ],
      "name": "swapExact",
      "outputs": [
        {
          "internalType": "uint256",
          "name": "shareUsed",
          "type": "uint256"
        },
        {
          "internalType": "uint256",
          "name": "shareReturned",
          "type": "uint256"
        }
      ],
      "stateMutability": "nonpayable",
      "type": "function"
    }
  ],
  "transactionHash": "0x3829a90e12c2198715d1c21346cc9b4462f953678f75a52983b3f839b190c89d",
  "args": [],
  "solcInputHash": "807c6c4c9fc90b0c2e0ffb80dcd59dc9",
  "bytecode": "0x60806040523480156200001157600080fd5b5073130966628846bfd36ff31a822705796e8cb8c18d73ffffffffffffffffffffffffffffffffffffffff1663095ea7b3731fc83f75499b7620d53757f0b01e2ae626aae5307fffffffffffffffffffffffffffffffffffffffffffffffffffffffffffffffff6040518363ffffffff1660e01b81526004016200009792919062000159565b602060405180830381600087803b158015620000b257600080fd5b505af1158015620000c7573d6000803e3d6000fd5b505050506040513d601f19601f82011682018060405250810190620000ed91906200010b565b50620001ea565b6000815190506200010581620001d0565b92915050565b6000602082840312156200011e57600080fd5b60006200012e84828501620000f4565b91505092915050565b620001428162000186565b82525050565b6200015381620001c6565b82525050565b600060408201905062000170600083018562000137565b6200017f602083018462000148565b9392505050565b60006200019382620001a6565b9050919050565b60008115159050919050565b600073ffffffffffffffffffffffffffffffffffffffff82169050919050565b6000819050919050565b620001db816200019a565b8114620001e757600080fd5b50565b610fb080620001fa6000396000f3fe608060405234801561001057600080fd5b50600436106100625760003560e01c80634622be901461006757806373b295c214610098578063daec383d146100b6578063e0bc66b8146100d4578063e343fe12146100f2578063f0f98f7414610123575b600080fd5b610081600480360381019061007c919061084d565b610141565b60405161008f929190610bf2565b60405180910390f35b6100a0610156565b6040516100ad9190610aca565b60405180910390f35b6100be61016e565b6040516100cb9190610aca565b60405180910390f35b6100dc610186565b6040516100e99190610aaf565b60405180910390f35b61010c600480360381019061010791906108d6565b61019e565b60405161011a929190610bf2565b60405180910390f35b61012b610721565b6040516101389190610b8b565b60405180910390f35b60008060008091509150965096945050505050565b73b31f66aa3c1e785363f0875a1b74e27b85fd66c781565b73130966628846bfd36ff31a822705796e8cb8c18d81565b731fc83f75499b7620d53757f0b01e2ae626aae53081565b6000806000731fc83f75499b7620d53757f0b01e2ae626aae53073ffffffffffffffffffffffffffffffffffffffff166397da6d3073cbb424fd93cdec0ef330d8a8c985e8b147f6233930306000896040518663ffffffff1660e01b815260040161020d959493929190610ae5565b6040805180830381600087803b15801561022657600080fd5b505af115801561023a573d6000803e3d6000fd5b505050506040513d601f19601f8201168201806040525081019061025e919061099c565b50905073cbb424fd93cdec0ef330d8a8c985e8b147f6233973ffffffffffffffffffffffffffffffffffffffff1663a9059cbb73cbb424fd93cdec0ef330d8a8c985e8b147f62339836040518363ffffffff1660e01b81526004016102c4929190610a86565b602060405180830381600087803b1580156102de57600080fd5b505af11580156102f2573d6000803e3d6000fd5b505050506040513d601f19601f820116820180604052508101906103169190610824565b5060008073cbb424fd93cdec0ef330d8a8c985e8b147f6233973ffffffffffffffffffffffffffffffffffffffff166389afcb44306040518263ffffffff1660e01b81526004016103679190610a6b565b6040805180830381600087803b15801561038057600080fd5b505af1158015610394573d6000803e3d6000fd5b505050506040513d601f19601f820116820180604052508101906103b8919061099c565b9150915060008073cbb424fd93cdec0ef330d8a8c985e8b147f6233973ffffffffffffffffffffffffffffffffffffffff16630902f1ac6040518163ffffffff1660e01b815260040160606040518083038186803b15801561041957600080fd5b505afa15801561042d573d6000803e3d6000fd5b505050506040513d601f19601f82011682018060405250810190610451919061094d565b506dffffffffffffffffffffffffffff1691506dffffffffffffffffffffffffffff1691506000610483848385610739565b905073b31f66aa3c1e785363f0875a1b74e27b85fd66c773ffffffffffffffffffffffffffffffffffffffff1663a9059cbb73cbb424fd93cdec0ef330d8a8c985e8b147f62339866040518363ffffffff1660e01b81526004016104e8929190610a86565b602060405180830381600087803b15801561050257600080fd5b505af1158015610516573d6000803e3d6000fd5b505050506040513d601f19601f8201168201806040525081019061053a9190610824565b5073cbb424fd93cdec0ef330d8a8c985e8b147f6233973ffffffffffffffffffffffffffffffffffffffff1663022c0d9f82600030600067ffffffffffffffff8111156105b0577f4e487b7100000000000000000000000000000000000000000000000000000000600052604160045260246000fd5b6040519080825280601f01601f1916602001820160405280156105e25781602001600182028036833780820191505090505b506040518563ffffffff1660e01b81526004016106029493929190610ba6565b600060405180830381600087803b15801561061c57600080fd5b505af1158015610630573d6000803e3d6000fd5b5050505080856106409190610c37565b9450731fc83f75499b7620d53757f0b01e2ae626aae53073ffffffffffffffffffffffffffffffffffffffff166302b9446c73130966628846bfd36ff31a822705796e8cb8c18d308e8960006040518663ffffffff1660e01b81526004016106ac959493929190610b38565b6040805180830381600087803b1580156106c557600080fd5b505af11580156106d9573d6000803e3d6000fd5b505050506040513d601f19601f820116820180604052508101906106fd919061099c565b905080975050898761070f9190610d18565b97505050505050509550959350505050565b73cbb424fd93cdec0ef330d8a8c985e8b147f6233981565b6000806103e58561074a9190610cbe565b90506000838261075a9190610cbe565b90506000826103e88761076d9190610cbe565b6107779190610c37565b905080826107859190610c8d565b93505050509392505050565b6000813590506107a081610ef0565b92915050565b6000815190506107b581610f07565b92915050565b6000813590506107ca81610f1e565b92915050565b6000815190506107df81610f35565b92915050565b6000813590506107f481610f4c565b92915050565b60008151905061080981610f4c565b92915050565b60008151905061081e81610f63565b92915050565b60006020828403121561083657600080fd5b6000610844848285016107a6565b91505092915050565b60008060008060008060c0878903121561086657600080fd5b600061087489828a016107bb565b965050602061088589828a016107bb565b955050604061089689828a01610791565b94505060606108a789828a01610791565b93505060806108b889828a016107e5565b92505060a06108c989828a016107e5565b9150509295509295509295565b600080600080600060a086880312156108ee57600080fd5b60006108fc888289016107bb565b955050602061090d888289016107bb565b945050604061091e88828901610791565b935050606061092f888289016107e5565b9250506080610940888289016107e5565b9150509295509295909350565b60008060006060848603121561096257600080fd5b6000610970868287016107d0565b9350506020610981868287016107d0565b92505060406109928682870161080f565b9150509250925092565b600080604083850312156109af57600080fd5b60006109bd858286016107fa565b92505060206109ce858286016107fa565b9150509250929050565b6109e181610d4c565b82525050565b60006109f282610c1b565b6109fc8185610c26565b9350610a0c818560208601610e4e565b610a1581610edf565b840191505092915050565b610a2981610dd0565b82525050565b610a3881610df4565b82525050565b610a4781610e18565b82525050565b610a5681610e3c565b82525050565b610a6581610db6565b82525050565b6000602082019050610a8060008301846109d8565b92915050565b6000604082019050610a9b60008301856109d8565b610aa86020830184610a5c565b9392505050565b6000602082019050610ac46000830184610a20565b92915050565b6000602082019050610adf6000830184610a2f565b92915050565b600060a082019050610afa6000830188610a2f565b610b0760208301876109d8565b610b1460408301866109d8565b610b216060830185610a4d565b610b2e6080830184610a5c565b9695505050505050565b600060a082019050610b4d6000830188610a2f565b610b5a60208301876109d8565b610b6760408301866109d8565b610b746060830185610a5c565b610b816080830184610a4d565b9695505050505050565b6000602082019050610ba06000830184610a3e565b92915050565b6000608082019050610bbb6000830187610a5c565b610bc86020830186610a4d565b610bd560408301856109d8565b8181036060830152610be781846109e7565b905095945050505050565b6000604082019050610c076000830185610a5c565b610c146020830184610a5c565b9392505050565b600081519050919050565b600082825260208201905092915050565b6000610c4282610db6565b9150610c4d83610db6565b9250827fffffffffffffffffffffffffffffffffffffffffffffffffffffffffffffffff03821115610c8257610c81610e81565b5b828201905092915050565b6000610c9882610db6565b9150610ca383610db6565b925082610cb357610cb2610eb0565b5b828204905092915050565b6000610cc982610db6565b9150610cd483610db6565b9250817fffffffffffffffffffffffffffffffffffffffffffffffffffffffffffffffff0483118215151615610d0d57610d0c610e81565b5b828202905092915050565b6000610d2382610db6565b9150610d2e83610db6565b925082821015610d4157610d40610e81565b5b828203905092915050565b6000610d5782610d96565b9050919050565b60008115159050919050565b6000610d7582610d4c565b9050919050565b60006dffffffffffffffffffffffffffff82169050919050565b600073ffffffffffffffffffffffffffffffffffffffff82169050919050565b6000819050919050565b600063ffffffff82169050919050565b6000610ddb82610de2565b9050919050565b6000610ded82610d96565b9050919050565b6000610dff82610e06565b9050919050565b6000610e1182610d96565b9050919050565b6000610e2382610e2a565b9050919050565b6000610e3582610d96565b9050919050565b6000610e4782610db6565b9050919050565b60005b83811015610e6c578082015181840152602081019050610e51565b83811115610e7b576000848401525b50505050565b7f4e487b7100000000000000000000000000000000000000000000000000000000600052601160045260246000fd5b7f4e487b7100000000000000000000000000000000000000000000000000000000600052601260045260246000fd5b6000601f19601f8301169050919050565b610ef981610d4c565b8114610f0457600080fd5b50565b610f1081610d5e565b8114610f1b57600080fd5b50565b610f2781610d6a565b8114610f3257600080fd5b50565b610f3e81610d7c565b8114610f4957600080fd5b50565b610f5581610db6565b8114610f6057600080fd5b50565b610f6c81610dc0565b8114610f7757600080fd5b5056fea2646970667358221220df08b2da1a450bcc0ef541713015acd03ac9e8a2a51f0711a131d14f05273f2964736f6c63430008040033",
  "devdoc": {
    "kind": "dev",
    "methods": {},
    "version": 1
  },
  "userdoc": {
    "kind": "user",
    "methods": {
      "swap(address,address,address,uint256,uint256)": {
        "notice": "Withdraws 'amountFrom' of token 'from' from the BentoBox account for this swapper. Swaps it for at least 'amountToMin' of token 'to'. Transfers the swapped tokens of 'to' into the BentoBox using a plain ERC20 transfer. Returns the amount of tokens 'to' transferred to BentoBox. (The BentoBox skim function will be used by the caller to get the swapped funds)."
      },
      "swapExact(address,address,address,address,uint256,uint256)": {
        "notice": "Calculates the amount of token 'from' needed to complete the swap (amountFrom), this should be less than or equal to amountFromMax. Withdraws 'amountFrom' of token 'from' from the BentoBox account for this swapper. Swaps it for exactly 'exactAmountTo' of token 'to'. Transfers the swapped tokens of 'to' into the BentoBox using a plain ERC20 transfer. Transfers allocated, but unused 'from' tokens within the BentoBox to 'refundTo' (amountFromMax - amountFrom). Returns the amount of 'from' tokens withdrawn from BentoBox (amountFrom). (The BentoBox skim function will be used by the caller to get the swapped funds)."
      }
    },
    "version": 1
  },
  "storageLayout": {
    "storage": [],
    "types": null
  }
}