{
  "address": "0x7d76568d84de8A0F34BBf315F53d7772c1fABcD8",
  "abi": [
    {
      "inputs": [
        {
          "internalType": "contract IBentoBoxV1",
          "name": "_DEGENBOX",
          "type": "address"
        }
      ],
      "stateMutability": "nonpayable",
      "type": "constructor"
    },
    {
      "inputs": [],
      "name": "DEGENBOX",
      "outputs": [
        {
          "internalType": "contract IBentoBoxV1",
          "name": "",
          "type": "address"
        }
      ],
      "stateMutability": "view",
      "type": "function"
    },
    {
      "inputs": [],
      "name": "MIM",
      "outputs": [
        {
          "internalType": "contract IERC20",
          "name": "",
          "type": "address"
        }
      ],
      "stateMutability": "view",
      "type": "function"
    },
    {
      "inputs": [],
      "name": "MIMAVAX",
      "outputs": [
        {
          "internalType": "contract IUniswapV2Pair",
          "name": "",
          "type": "address"
        }
      ],
      "stateMutability": "view",
      "type": "function"
    },
    {
      "inputs": [],
      "name": "PLATYPUS_ROUTER",
      "outputs": [
        {
          "internalType": "contract IPlatypusRouter01",
          "name": "",
          "type": "address"
        }
      ],
      "stateMutability": "view",
      "type": "function"
    },
    {
      "inputs": [],
      "name": "ROUTER",
      "outputs": [
        {
          "internalType": "contract IUniswapV2Router01",
          "name": "",
          "type": "address"
        }
      ],
      "stateMutability": "view",
      "type": "function"
    },
    {
      "inputs": [],
      "name": "USDC",
      "outputs": [
        {
          "internalType": "contract IERC20",
          "name": "",
          "type": "address"
        }
      ],
      "stateMutability": "view",
      "type": "function"
    },
    {
      "inputs": [],
      "name": "USDCE",
      "outputs": [
        {
          "internalType": "contract IERC20",
          "name": "",
          "type": "address"
        }
      ],
      "stateMutability": "view",
      "type": "function"
    },
    {
      "inputs": [],
      "name": "USDCEAVAX",
      "outputs": [
        {
          "internalType": "contract IUniswapV2Pair",
          "name": "",
          "type": "address"
        }
      ],
      "stateMutability": "view",
      "type": "function"
    },
    {
      "inputs": [],
      "name": "WAVAX",
      "outputs": [
        {
          "internalType": "contract IERC20",
          "name": "",
          "type": "address"
        }
      ],
      "stateMutability": "view",
      "type": "function"
    },
    {
      "inputs": [
        {
          "internalType": "address",
          "name": "recipient",
          "type": "address"
        },
        {
          "internalType": "uint256",
          "name": "shareToMin",
          "type": "uint256"
        },
        {
          "internalType": "uint256",
          "name": "shareFrom",
          "type": "uint256"
        }
      ],
      "name": "swap",
      "outputs": [
        {
          "internalType": "uint256",
          "name": "extraShare",
          "type": "uint256"
        },
        {
          "internalType": "uint256",
          "name": "shareReturned",
          "type": "uint256"
        }
      ],
      "stateMutability": "nonpayable",
      "type": "function"
    }
  ],
  "transactionHash": "0x49ff4b083e93b1a5b1904fa6fb1866a87951466eba3a1dd198c602b481798a1a",
  "args": [
    "0xD825d06061fdc0585e4373F0A3F01a8C02b0e6A4"
  ],
  "numDeployments": 1,
  "solcInputHash": "77a728b24953505d9a978abf88608935",
  "bytecode": "0x60a06040523480156200001157600080fd5b50604051620011e9380380620011e983398101604081905262000034916200028c565b6001600160a01b038116608081905260405163095ea7b360e01b81526004810191909152600019602482015273a389f9430876455c36478deea9769b7ca4e3ddb19063095ea7b3906044016020604051808303816000875af11580156200009f573d6000803e3d6000fd5b505050506040513d601f19601f82011682018060405250810190620000c59190620002be565b5060405163095ea7b360e01b81527373256ec7575d999c360c1eec118ecbefd8da7d126004820152600019602482015273130966628846bfd36ff31a822705796e8cb8c18d9063095ea7b3906044016020604051808303816000875af115801562000134573d6000803e3d6000fd5b505050506040513d601f19601f820116820180604052508101906200015a9190620002be565b5060405163095ea7b360e01b81527360ae616a2155ee3d9a68541ba4544862310933d46004820152600019602482015273b31f66aa3c1e785363f0875a1b74e27b85fd66c79063095ea7b3906044016020604051808303816000875af1158015620001c9573d6000803e3d6000fd5b505050506040513d601f19601f82011682018060405250810190620001ef9190620002be565b5060405163095ea7b360e01b81527360ae616a2155ee3d9a68541ba4544862310933d46004820152600019602482015273a7d7079b0fead91f3e65f86e8915cb59c1a4c6649063095ea7b3906044016020604051808303816000875af11580156200025e573d6000803e3d6000fd5b505050506040513d601f19601f82011682018060405250810190620002849190620002be565b5050620002e2565b6000602082840312156200029f57600080fd5b81516001600160a01b0381168114620002b757600080fd5b9392505050565b600060208284031215620002d157600080fd5b81518015158114620002b757600080fd5b608051610edd6200030c600039600081816101ca0152818161025a01526108ae0152610edd6000f3fe608060405234801561001057600080fd5b50600436106100be5760003560e01c806390f7609811610076578063daec383d1161005b578063daec383d146101aa578063e0bc66b8146101c5578063f0f98f74146101ec57600080fd5b806390f76098146101675780639f1d0f591461018257600080fd5b806332fe7b26116100a757806332fe7b261461011657806373b295c21461013157806389a302711461014c57600080fd5b8063195187e1146100c35780632de7c259146100fb575b600080fd5b6100de73a7d7079b0fead91f3e65f86e8915cb59c1a4c66481565b6040516001600160a01b0390911681526020015b60405180910390f35b6100de7373256ec7575d999c360c1eec118ecbefd8da7d1281565b6100de7360ae616a2155ee3d9a68541ba4544862310933d481565b6100de73b31f66aa3c1e785363f0875a1b74e27b85fd66c781565b6100de73b97ef9ef8734c71904d8002f8b6bc66dd9c48a6e81565b6100de73a389f9430876455c36478deea9769b7ca4e3ddb181565b610195610190366004610c32565b610207565b604080519283526020830191909152016100f2565b6100de73130966628846bfd36ff31a822705796e8cb8c18d81565b6100de7f000000000000000000000000000000000000000000000000000000000000000081565b6100de73781655d802670bba3c89aebaaea59d3182fd755d81565b60405163097da6d360e41b815273130966628846bfd36ff31a822705796e8cb8c18d6004820152306024820181905260448201526000606482018190526084820183905290819081906001600160a01b037f000000000000000000000000000000000000000000000000000000000000000016906397da6d309060a40160408051808303816000875af11580156102a2573d6000803e3d6000fd5b505050506040513d601f19601f820116820180604052508101906102c69190610c73565b5060408051600380825260808201909252919250600091906020820160608036833701905050905073130966628846bfd36ff31a822705796e8cb8c18d8160008151811061031657610316610c97565b60200260200101906001600160a01b031690816001600160a01b03168152505073b97ef9ef8734c71904d8002f8b6bc66dd9c48a6e8160018151811061035e5761035e610c97565b60200260200101906001600160a01b031690816001600160a01b03168152505073a7d7079b0fead91f3e65f86e8915cb59c1a4c664816002815181106103a6576103a6610c97565b6001600160a01b039290921660209283029190910182015260408051600280825260608201835260009391929091830190803683370190505090507330c30d826be87cd0a4b90855c2f38f7fcfe4eaa78160008151811061040957610409610c97565b60200260200101906001600160a01b031690816001600160a01b0316815250507366357dcace80431aee0a7507e2e361b7e24023708160018151811061045157610451610c97565b6001600160a01b03909216602092830291909101909101526040516321579b7960e01b81527373256ec7575d999c360c1eec118ecbefd8da7d12906321579b79906104ad90859085908890600090309060001990600401610cf1565b60408051808303816000875af11580156104cb573d6000803e3d6000fd5b505050506040513d601f19601f820116820180604052508101906104ef9190610c73565b5080935050505060008073a389f9430876455c36478deea9769b7ca4e3ddb16001600160a01b0316630902f1ac6040518163ffffffff1660e01b8152600401606060405180830381865afa15801561054b573d6000803e3d6000fd5b505050506040513d601f19601f8201168201806040525081019061056f9190610d68565b506dffffffffffffffffffffffffffff1691506dffffffffffffffffffffffffffff16915060006105a083856109f6565b90506105ad818484610a58565b60405163a9059cbb60e01b815273a389f9430876455c36478deea9769b7ca4e3ddb160048201526024810183905290945073a7d7079b0fead91f3e65f86e8915cb59c1a4c6649063a9059cbb906044016020604051808303816000875af115801561061c573d6000803e3d6000fd5b505050506040513d601f19601f820116820180604052508101906106409190610db8565b5060405163022c0d9f60e01b81526000600482018190526024820186905230604483015260806064830152608482015273a389f9430876455c36478deea9769b7ca4e3ddb19063022c0d9f9060a401600060405180830381600087803b1580156106a957600080fd5b505af11580156106bd573d6000803e3d6000fd5b50506040516370a0823160e01b81523060048201527360ae616a2155ee3d9a68541ba4544862310933d4925063e8e33700915073a7d7079b0fead91f3e65f86e8915cb59c1a4c6649073b31f66aa3c1e785363f0875a1b74e27b85fd66c79082906370a0823190602401602060405180830381865afa158015610744573d6000803e3d6000fd5b505050506040513d601f19601f820116820180604052508101906107689190610dda565b6040516370a0823160e01b815230600482015273b31f66aa3c1e785363f0875a1b74e27b85fd66c7906370a0823190602401602060405180830381865afa1580156107b7573d6000803e3d6000fd5b505050506040513d601f19601f820116820180604052508101906107db9190610dda565b6040517fffffffff0000000000000000000000000000000000000000000000000000000060e087901b1681526001600160a01b0394851660048201529390921660248401526044830152606482015260006084820181905260a48201523060c482015260001960e4820152610104016060604051808303816000875af1158015610869573d6000803e3d6000fd5b505050506040513d601f19601f8201168201806040525081019061088d9190610df3565b50506040516370a0823160e01b815230600482018190526001600160a01b037f00000000000000000000000000000000000000000000000000000000000000001692506302b9446c9173a389f9430876455c36478deea9769b7ca4e3ddb191908d9083906370a0823190602401602060405180830381865afa158015610917573d6000803e3d6000fd5b505050506040513d601f19601f8201168201806040525081019061093b9190610dda565b6040517fffffffff0000000000000000000000000000000000000000000000000000000060e087901b1681526001600160a01b03948516600482015292841660248401529216604482015260648101919091526000608482015260a40160408051808303816000875af11580156109b6573d6000803e3d6000fd5b505050506040513d601f19601f820116820180604052508101906109da9190610c73565b95506109e890508886610e37565b955050505050935093915050565b60006107ca610a07846107cd610e4e565b610a3d610a1786623cda29610e4e565b610a2486623cda20610e4e565b610a2e9190610e6d565b610a389087610e4e565b610aa7565b610a479190610e37565b610a519190610e85565b9392505050565b600080610a67856103e5610e4e565b90506000610a758483610e4e565b9050600082610a86876103e8610e4e565b610a909190610e6d565b9050610a9c8183610e85565b979650505050505050565b600081610ab657506000919050565b8160017001000000000000000000000000000000008210610adc5760809190911c9060401b5b680100000000000000008210610af75760409190911c9060201b5b6401000000008210610b0e5760209190911c9060101b5b620100008210610b235760109190911c9060081b5b6101008210610b375760089190911c9060041b5b60108210610b4a5760049190911c9060021b5b60088210610b565760011b5b6001610b628286610e85565b610b6c9083610e6d565b901c90506001610b7c8286610e85565b610b869083610e6d565b901c90506001610b968286610e85565b610ba09083610e6d565b901c90506001610bb08286610e85565b610bba9083610e6d565b901c90506001610bca8286610e85565b610bd49083610e6d565b901c90506001610be48286610e85565b610bee9083610e6d565b901c90506001610bfe8286610e85565b610c089083610e6d565b901c90506000610c188286610e85565b9050808210610c275780610c29565b815b95945050505050565b600080600060608486031215610c4757600080fd5b83356001600160a01b0381168114610c5e57600080fd5b95602085013595506040909401359392505050565b60008060408385031215610c8657600080fd5b505080516020909101519092909150565b634e487b7160e01b600052603260045260246000fd5b600081518084526020808501945080840160005b83811015610ce65781516001600160a01b031687529582019590820190600101610cc1565b509495945050505050565b60c081526000610d0460c0830189610cad565b8281036020840152610d168189610cad565b9150508560408301528460608301526001600160a01b03841660808301528260a0830152979650505050505050565b80516dffffffffffffffffffffffffffff81168114610d6357600080fd5b919050565b600080600060608486031215610d7d57600080fd5b610d8684610d45565b9250610d9460208501610d45565b9150604084015163ffffffff81168114610dad57600080fd5b809150509250925092565b600060208284031215610dca57600080fd5b81518015158114610a5157600080fd5b600060208284031215610dec57600080fd5b5051919050565b600080600060608486031215610e0857600080fd5b8351925060208401519150604084015190509250925092565b634e487b7160e01b600052601160045260246000fd5b600082821015610e4957610e49610e21565b500390565b6000816000190483118215151615610e6857610e68610e21565b500290565b60008219821115610e8057610e80610e21565b500190565b600082610ea257634e487b7160e01b600052601260045260246000fd5b50049056fea2646970667358221220fbcb9e6ee0dd0477805c74cb0131b59be27d15db855748abba92acb462e94ef564736f6c634300080a0033",
  "devdoc": {
    "kind": "dev",
    "methods": {},
    "version": 1
  },
  "userdoc": {
    "kind": "user",
    "methods": {
      "swap(address,uint256,uint256)": {
        "notice": "Swaps to a flexible amount, from an exact input amount"
      }
    },
    "version": 1
  },
  "storageLayout": {
    "storage": [],
    "types": null
  }
}