{
  "address": "0x6dA65013D5814dA632F1A94f3501aBc8e54C98ae",
  "abi": [
    {
      "inputs": [
        {
          "internalType": "contract IBentoBoxV1",
          "name": "_DEGENBOX",
          "type": "address"
        }
      ],
      "stateMutability": "nonpayable",
      "type": "constructor"
    },
    {
      "inputs": [],
      "name": "DEGENBOX",
      "outputs": [
        {
          "internalType": "contract IBentoBoxV1",
          "name": "",
          "type": "address"
        }
      ],
      "stateMutability": "view",
      "type": "function"
    },
    {
      "inputs": [],
      "name": "MIM",
      "outputs": [
        {
          "internalType": "contract IERC20",
          "name": "",
          "type": "address"
        }
      ],
      "stateMutability": "view",
      "type": "function"
    },
    {
      "inputs": [],
      "name": "MIMAVAX",
      "outputs": [
        {
          "internalType": "contract IUniswapV2Pair",
          "name": "",
          "type": "address"
        }
      ],
      "stateMutability": "view",
      "type": "function"
    },
    {
      "inputs": [],
      "name": "PLATYPUS_ROUTER",
      "outputs": [
        {
          "internalType": "contract IPlatypusRouter01",
          "name": "",
          "type": "address"
        }
      ],
      "stateMutability": "view",
      "type": "function"
    },
    {
      "inputs": [],
      "name": "USDC",
      "outputs": [
        {
          "internalType": "contract IERC20",
          "name": "",
          "type": "address"
        }
      ],
      "stateMutability": "view",
      "type": "function"
    },
    {
      "inputs": [],
      "name": "USDCE",
      "outputs": [
        {
          "internalType": "contract IERC20",
          "name": "",
          "type": "address"
        }
      ],
      "stateMutability": "view",
      "type": "function"
    },
    {
      "inputs": [],
      "name": "USDCEAVAX",
      "outputs": [
        {
          "internalType": "contract IUniswapV2Pair",
          "name": "",
          "type": "address"
        }
      ],
      "stateMutability": "view",
      "type": "function"
    },
    {
      "inputs": [],
      "name": "WAVAX",
      "outputs": [
        {
          "internalType": "contract IERC20",
          "name": "",
          "type": "address"
        }
      ],
      "stateMutability": "view",
      "type": "function"
    },
    {
      "inputs": [
        {
          "internalType": "contract IERC20",
          "name": "",
          "type": "address"
        },
        {
          "internalType": "contract IERC20",
          "name": "",
          "type": "address"
        },
        {
          "internalType": "address",
          "name": "recipient",
          "type": "address"
        },
        {
          "internalType": "uint256",
          "name": "shareToMin",
          "type": "uint256"
        },
        {
          "internalType": "uint256",
          "name": "shareFrom",
          "type": "uint256"
        }
      ],
      "name": "swap",
      "outputs": [
        {
          "internalType": "uint256",
          "name": "extraShare",
          "type": "uint256"
        },
        {
          "internalType": "uint256",
          "name": "shareReturned",
          "type": "uint256"
        }
      ],
      "stateMutability": "nonpayable",
      "type": "function"
    },
    {
      "inputs": [
        {
          "internalType": "contract IERC20",
          "name": "",
          "type": "address"
        },
        {
          "internalType": "contract IERC20",
          "name": "",
          "type": "address"
        },
        {
          "internalType": "address",
          "name": "",
          "type": "address"
        },
        {
          "internalType": "address",
          "name": "",
          "type": "address"
        },
        {
          "internalType": "uint256",
          "name": "",
          "type": "uint256"
        },
        {
          "internalType": "uint256",
          "name": "",
          "type": "uint256"
        }
      ],
      "name": "swapExact",
      "outputs": [
        {
          "internalType": "uint256",
          "name": "shareUsed",
          "type": "uint256"
        },
        {
          "internalType": "uint256",
          "name": "shareReturned",
          "type": "uint256"
        }
      ],
      "stateMutability": "pure",
      "type": "function"
    }
  ],
  "transactionHash": "0x3e581386a2be114eea18bc9141fb6ecf0c426902bf4bf89125767ece8fe956d9",
  "args": [
    "0xD825d06061fdc0585e4373F0A3F01a8C02b0e6A4"
  ],
  "numDeployments": 1,
  "solcInputHash": "77a728b24953505d9a978abf88608935",
  "bytecode": "0x60a060405234801561001057600080fd5b50604051610e3c380380610e3c83398101604081905261002f9161015b565b6001600160a01b03811660805260405163095ea7b360e01b81527373256ec7575d999c360c1eec118ecbefd8da7d126004820152600019602482015273a7d7079b0fead91f3e65f86e8915cb59c1a4c6649063095ea7b3906044016020604051808303816000875af11580156100a9573d6000803e3d6000fd5b505050506040513d601f19601f820116820180604052508101906100cd919061018b565b5060405163095ea7b360e01b81526001600160a01b0382166004820152600019602482015273130966628846bfd36ff31a822705796e8cb8c18d9063095ea7b3906044016020604051808303816000875af1158015610130573d6000803e3d6000fd5b505050506040513d601f19601f82011682018060405250810190610154919061018b565b50506101ad565b60006020828403121561016d57600080fd5b81516001600160a01b038116811461018457600080fd5b9392505050565b60006020828403121561019d57600080fd5b8151801515811461018457600080fd5b608051610c666101d6600039600081816101b80152818161025b01526108090152610c666000f3fe608060405234801561001057600080fd5b50600436106100be5760003560e01c806390f7609811610076578063e0bc66b81161005b578063e0bc66b8146101b3578063e343fe12146101da578063f0f98f74146101ed57600080fd5b806390f760981461017d578063daec383d1461019857600080fd5b80634622be90116100a75780634622be901461011657806373b295c21461014757806389a302711461016257600080fd5b8063195187e1146100c35780632de7c259146100fb575b600080fd5b6100de73a7d7079b0fead91f3e65f86e8915cb59c1a4c66481565b6040516001600160a01b0390911681526020015b60405180910390f35b6100de7373256ec7575d999c360c1eec118ecbefd8da7d1281565b6101326101243660046108ff565b600080965096945050505050565b604080519283526020830191909152016100f2565b6100de73b31f66aa3c1e785363f0875a1b74e27b85fd66c781565b6100de73b97ef9ef8734c71904d8002f8b6bc66dd9c48a6e81565b6100de73a389f9430876455c36478deea9769b7ca4e3ddb181565b6100de73130966628846bfd36ff31a822705796e8cb8c18d81565b6100de7f000000000000000000000000000000000000000000000000000000000000000081565b6101326101e836600461096d565b610208565b6100de73781655d802670bba3c89aebaaea59d3182fd755d81565b60405163097da6d360e41b815273a389f9430876455c36478deea9769b7ca4e3ddb16004820152306024820181905260448201526000606482018190526084820183905290819081906001600160a01b037f000000000000000000000000000000000000000000000000000000000000000016906397da6d309060a40160408051808303816000875af11580156102a3573d6000803e3d6000fd5b505050506040513d601f19601f820116820180604052508101906102c791906109c8565b5060405163a9059cbb60e01b815273a389f9430876455c36478deea9769b7ca4e3ddb1600482018190526024820183905291925063a9059cbb906044016020604051808303816000875af1158015610323573d6000803e3d6000fd5b505050506040513d601f19601f8201168201806040525081019061034791906109ec565b5060405163226bf2d160e21b8152306004820152600090819073a389f9430876455c36478deea9769b7ca4e3ddb1906389afcb449060240160408051808303816000875af115801561039d573d6000803e3d6000fd5b505050506040513d601f19601f820116820180604052508101906103c191906109c8565b6040805160038082526080820190925292945090925060009182916020820160608036833701905050905073a7d7079b0fead91f3e65f86e8915cb59c1a4c6648160008151811061041457610414610a15565b60200260200101906001600160a01b031690816001600160a01b03168152505073b97ef9ef8734c71904d8002f8b6bc66dd9c48a6e8160018151811061045c5761045c610a15565b60200260200101906001600160a01b031690816001600160a01b03168152505073130966628846bfd36ff31a822705796e8cb8c18d816002815181106104a4576104a4610a15565b6001600160a01b039290921660209283029190910182015260408051600280825260608201835260009391929091830190803683370190505090507366357dcace80431aee0a7507e2e361b7e24023708160008151811061050757610507610a15565b60200260200101906001600160a01b031690816001600160a01b0316815250507330c30d826be87cd0a4b90855c2f38f7fcfe4eaa78160018151811061054f5761054f610a15565b6001600160a01b03909216602092830291909101909101526040516321579b7960e01b81527373256ec7575d999c360c1eec118ecbefd8da7d12906321579b79906105ab90859085908a90600090309060001990600401610a6f565b60408051808303816000875af11580156105c9573d6000803e3d6000fd5b505050506040513d601f19601f820116820180604052508101906105ed91906109c8565b5080935050505060008073781655d802670bba3c89aebaaea59d3182fd755d6001600160a01b0316630902f1ac6040518163ffffffff1660e01b8152600401606060405180830381865afa158015610649573d6000803e3d6000fd5b505050506040513d601f19601f8201168201806040525081019061066d9190610ae6565b506dffffffffffffffffffffffffffff1691506dffffffffffffffffffffffffffff169150600061069f858385610898565b60405163a9059cbb60e01b815273781655d802670bba3c89aebaaea59d3182fd755d60048201526024810187905290915073b31f66aa3c1e785363f0875a1b74e27b85fd66c79063a9059cbb906044016020604051808303816000875af115801561070e573d6000803e3d6000fd5b505050506040513d601f19601f8201168201806040525081019061073291906109ec565b50604080516000808252602082019283905263022c0d9f60e01b90925273781655d802670bba3c89aebaaea59d3182fd755d9163022c0d9f9161077c918591309060248101610b36565b600060405180830381600087803b15801561079657600080fd5b505af11580156107aa573d6000803e3d6000fd5b5050505080846107ba9190610bc0565b60405162ae511b60e21b815273130966628846bfd36ff31a822705796e8cb8c18d60048201523060248201526001600160a01b038e8116604483015260648201839052600060848301529195507f0000000000000000000000000000000000000000000000000000000000000000909116906302b9446c9060a40160408051808303816000875af1158015610853573d6000803e3d6000fd5b505050506040513d601f19601f8201168201806040525081019061087791906109c8565b985061088590508b89610bd8565b9850505050505050509550959350505050565b6000806108a7856103e5610bef565b905060006108b58483610bef565b90506000826108c6876103e8610bef565b6108d09190610bc0565b90506108dc8183610c0e565b979650505050505050565b6001600160a01b03811681146108fc57600080fd5b50565b60008060008060008060c0878903121561091857600080fd5b8635610923816108e7565b95506020870135610933816108e7565b94506040870135610943816108e7565b93506060870135610953816108e7565b9598949750929560808101359460a0909101359350915050565b600080600080600060a0868803121561098557600080fd5b8535610990816108e7565b945060208601356109a0816108e7565b935060408601356109b0816108e7565b94979396509394606081013594506080013592915050565b600080604083850312156109db57600080fd5b505080516020909101519092909150565b6000602082840312156109fe57600080fd5b81518015158114610a0e57600080fd5b9392505050565b634e487b7160e01b600052603260045260246000fd5b600081518084526020808501945080840160005b83811015610a645781516001600160a01b031687529582019590820190600101610a3f565b509495945050505050565b60c081526000610a8260c0830189610a2b565b8281036020840152610a948189610a2b565b9150508560408301528460608301526001600160a01b03841660808301528260a0830152979650505050505050565b80516dffffffffffffffffffffffffffff81168114610ae157600080fd5b919050565b600080600060608486031215610afb57600080fd5b610b0484610ac3565b9250610b1260208501610ac3565b9150604084015163ffffffff81168114610b2b57600080fd5b809150509250925092565b8481526000602085818401526001600160a01b038516604084015260806060840152835180608085015260005b81811015610b7f5785810183015185820160a001528201610b63565b81811115610b9157600060a083870101525b50601f01601f19169290920160a0019695505050505050565b634e487b7160e01b600052601160045260246000fd5b60008219821115610bd357610bd3610baa565b500190565b600082821015610bea57610bea610baa565b500390565b6000816000190483118215151615610c0957610c09610baa565b500290565b600082610c2b57634e487b7160e01b600052601260045260246000fd5b50049056fea26469706673582212204242157372b19f0430bd730e9275cd61e631852148a9ea83f3c6723b66a456d264736f6c634300080a0033",
  "devdoc": {
    "kind": "dev",
    "methods": {},
    "version": 1
  },
  "userdoc": {
    "kind": "user",
    "methods": {
      "swap(address,address,address,uint256,uint256)": {
        "notice": "Withdraws 'amountFrom' of token 'from' from the BentoBox account for this swapper. Swaps it for at least 'amountToMin' of token 'to'. Transfers the swapped tokens of 'to' into the BentoBox using a plain ERC20 transfer. Returns the amount of tokens 'to' transferred to BentoBox. (The BentoBox skim function will be used by the caller to get the swapped funds)."
      },
      "swapExact(address,address,address,address,uint256,uint256)": {
        "notice": "Calculates the amount of token 'from' needed to complete the swap (amountFrom), this should be less than or equal to amountFromMax. Withdraws 'amountFrom' of token 'from' from the BentoBox account for this swapper. Swaps it for exactly 'exactAmountTo' of token 'to'. Transfers the swapped tokens of 'to' into the BentoBox using a plain ERC20 transfer. Transfers allocated, but unused 'from' tokens within the BentoBox to 'refundTo' (amountFromMax - amountFrom). Returns the amount of 'from' tokens withdrawn from BentoBox (amountFrom). (The BentoBox skim function will be used by the caller to get the swapped funds)."
      }
    },
    "notice": "Joe USDCE.e/WAVAX swapper using Platypus for swapping USDCE.e to MIM",
    "version": 1
  },
  "storageLayout": {
    "storage": [],
    "types": null
  }
}