{
  "address": "0x184a07c9CFD6165D6ACCDc373Eb00Bc5Cd8733cF",
  "abi": [
    {
      "inputs": [],
      "name": "AvaxTime",
      "outputs": [
        {
          "internalType": "contract IERC20",
          "name": "",
          "type": "address"
        }
      ],
      "stateMutability": "view",
      "type": "function"
    },
    {
      "inputs": [],
      "name": "MEMO",
      "outputs": [
        {
          "internalType": "contract IERC20",
          "name": "",
          "type": "address"
        }
      ],
      "stateMutability": "view",
      "type": "function"
    },
    {
      "inputs": [],
      "name": "MimTime",
      "outputs": [
        {
          "internalType": "contract IERC20",
          "name": "",
          "type": "address"
        }
      ],
      "stateMutability": "view",
      "type": "function"
    },
    {
      "inputs": [],
      "name": "TIME",
      "outputs": [
        {
          "internalType": "contract IERC20",
          "name": "",
          "type": "address"
        }
      ],
      "stateMutability": "view",
      "type": "function"
    },
    {
      "inputs": [
        {
          "internalType": "address",
          "name": "",
          "type": "address"
        },
        {
          "internalType": "address",
          "name": "",
          "type": "address"
        }
      ],
      "name": "allowance",
      "outputs": [
        {
          "internalType": "uint256",
          "name": "",
          "type": "uint256"
        }
      ],
      "stateMutability": "pure",
      "type": "function"
    },
    {
      "inputs": [
        {
          "internalType": "address",
          "name": "",
          "type": "address"
        },
        {
          "internalType": "uint256",
          "name": "",
          "type": "uint256"
        }
      ],
      "name": "approve",
      "outputs": [
        {
          "internalType": "bool",
          "name": "",
          "type": "bool"
        }
      ],
      "stateMutability": "pure",
      "type": "function"
    },
    {
      "inputs": [
        {
          "internalType": "address",
          "name": "account",
          "type": "address"
        }
      ],
      "name": "balanceOf",
      "outputs": [
        {
          "internalType": "uint256",
          "name": "powah",
          "type": "uint256"
        }
      ],
      "stateMutability": "view",
      "type": "function"
    },
    {
      "inputs": [],
      "name": "bento",
      "outputs": [
        {
          "internalType": "contract IBentoBoxV1BalanceAmount",
          "name": "",
          "type": "address"
        }
      ],
      "stateMutability": "view",
      "type": "function"
    },
    {
      "inputs": [],
      "name": "decimals",
      "outputs": [
        {
          "internalType": "uint8",
          "name": "",
          "type": "uint8"
        }
      ],
      "stateMutability": "pure",
      "type": "function"
    },
    {
      "inputs": [],
      "name": "joeStaking",
      "outputs": [
        {
          "internalType": "contract IJoeStaking",
          "name": "",
          "type": "address"
        }
      ],
      "stateMutability": "view",
      "type": "function"
    },
    {
      "inputs": [],
      "name": "name",
      "outputs": [
        {
          "internalType": "string",
          "name": "",
          "type": "string"
        }
      ],
      "stateMutability": "pure",
      "type": "function"
    },
    {
      "inputs": [],
      "name": "symbol",
      "outputs": [
        {
          "internalType": "string",
          "name": "",
          "type": "string"
        }
      ],
      "stateMutability": "pure",
      "type": "function"
    },
    {
      "inputs": [],
      "name": "totalSupply",
      "outputs": [
        {
          "internalType": "uint256",
          "name": "total",
          "type": "uint256"
        }
      ],
      "stateMutability": "view",
      "type": "function"
    },
    {
      "inputs": [
        {
          "internalType": "address",
          "name": "",
          "type": "address"
        },
        {
          "internalType": "uint256",
          "name": "",
          "type": "uint256"
        }
      ],
      "name": "transfer",
      "outputs": [
        {
          "internalType": "bool",
          "name": "",
          "type": "bool"
        }
      ],
      "stateMutability": "pure",
      "type": "function"
    },
    {
      "inputs": [
        {
          "internalType": "address",
          "name": "",
          "type": "address"
        },
        {
          "internalType": "address",
          "name": "",
          "type": "address"
        },
        {
          "internalType": "uint256",
          "name": "",
          "type": "uint256"
        }
      ],
      "name": "transferFrom",
      "outputs": [
        {
          "internalType": "bool",
          "name": "",
          "type": "bool"
        }
      ],
      "stateMutability": "pure",
      "type": "function"
    },
    {
      "inputs": [],
      "name": "wMEMO",
      "outputs": [
        {
          "internalType": "contract IwMEMO",
          "name": "",
          "type": "address"
        }
      ],
      "stateMutability": "view",
      "type": "function"
    },
    {
      "inputs": [],
      "name": "wMEMOCauldron1",
      "outputs": [
        {
          "internalType": "contract ICauldron",
          "name": "",
          "type": "address"
        }
      ],
      "stateMutability": "view",
      "type": "function"
    },
    {
      "inputs": [],
      "name": "wMEMOCauldron2",
      "outputs": [
        {
          "internalType": "contract ICauldron",
          "name": "",
          "type": "address"
        }
      ],
      "stateMutability": "view",
      "type": "function"
    }
  ],
  "transactionHash": "0x036d8822fdc18a11defbd2c5d7ae6efe31468e0ae221e0133008cb4396e59d77",
  "args": [],
  "solcInputHash": "d2b60eee6db4613cd34b3a84046b6570",
  "bytecode": "0x608060405234801561001057600080fd5b50611954806100206000396000f3fe608060405234801561001057600080fd5b50600436106101165760003560e01c80635af7bfbe116100a2578063a9059cbb11610071578063a9059cbb146102d7578063beae663714610307578063c7eaef1e14610325578063ce03771514610343578063dd62ed3e1461036157610116565b80635af7bfbe1461024d57806370a082311461026b57806395d89b411461029b57806397d33c07146102b957610116565b806319a03569116100e957806319a03569146101a557806323b872dd146101c3578063292de648146101f3578063313ce567146102115780634da318271461022f57610116565b806306fdde031461011b578063095ea7b3146101395780630d5810c21461016957806318160ddd14610187575b600080fd5b610123610391565b6040516101309190611585565b60405180910390f35b610153600480360381019061014e91906112d6565b6103ce565b604051610160919061145a565b60405180910390f35b6101716103d6565b60405161017e91906114c6565b60405180910390f35b61018f6103ee565b60405161019c91906115a7565b60405180910390f35b6101ad610634565b6040516101ba91906114ab565b60405180910390f35b6101dd60048036038101906101d89190611283565b61064c565b6040516101ea919061145a565b60405180910390f35b6101fb610655565b6040516102089190611490565b60405180910390f35b61021961066d565b60405161022691906115c2565b60405180910390f35b610237610676565b6040516102449190611475565b60405180910390f35b61025561068e565b60405161026291906114e1565b60405180910390f35b61028560048036038101906102809190611216565b6106a6565b60405161029291906115a7565b60405180910390f35b6102a36110da565b6040516102b09190611585565b60405180910390f35b6102c1611117565b6040516102ce91906114ab565b60405180910390f35b6102f160048036038101906102ec91906112d6565b61112f565b6040516102fe919061145a565b60405180910390f35b61030f611137565b60405161031c91906114ab565b60405180910390f35b61032d61114f565b60405161033a91906114ab565b60405180910390f35b61034b611167565b6040516103589190611490565b60405180910390f35b61037b60048036038101906103769190611243565b61117f565b60405161038891906115a7565b60405180910390f35b60606040518060400160405280600a81526020017f5350454c4c504f57455200000000000000000000000000000000000000000000815250905090565b600092915050565b73d6a4f121ca35509af06a0be99093d08462f5305281565b600073b54f16fb19478766a268f172c9480f8da1a7c9c373ffffffffffffffffffffffffffffffffffffffff166370a08231734456b87af11e87e329ab7d7c7a246ed1ac2168b96040518263ffffffff1660e01b8152600401610451919061143f565b60206040518083038186803b15801561046957600080fd5b505afa15801561047d573d6000803e3d6000fd5b505050506040513d601f19601f820116820180604052508101906104a19190611343565b600273b54f16fb19478766a268f172c9480f8da1a7c9c373ffffffffffffffffffffffffffffffffffffffff166370a0823173113f413371fc4cc4c9d6416cf1de9dfd7bf747df6040518263ffffffff1660e01b8152600401610504919061143f565b60206040518083038186803b15801561051c57600080fd5b505afa158015610530573d6000803e3d6000fd5b505050506040513d601f19601f820116820180604052508101906105549190611343565b61055e91906116a5565b600273b54f16fb19478766a268f172c9480f8da1a7c9c373ffffffffffffffffffffffffffffffffffffffff166370a0823173f64e1c5b6e17031f5504481ac8145f4c3eab49176040518263ffffffff1660e01b81526004016105c1919061143f565b60206040518083038186803b1580156105d957600080fd5b505afa1580156105ed573d6000803e3d6000fd5b505050506040513d601f19601f820116820180604052508101906106119190611343565b61061b91906116a5565b610625919061161e565b61062f919061161e565b905090565b73f64e1c5b6e17031f5504481ac8145f4c3eab491781565b60009392505050565b7335fa7a723b3b39f15623ff1eb26d8701e7d6bb2181565b60006009905090565b73f4f46382c2be1603dc817551ff9a7b333ed1d18f81565b730da67235dd5787d67955420c84ca1cecd4e5bb3b81565b60008073f4f46382c2be1603dc817551ff9a7b333ed1d18f73ffffffffffffffffffffffffffffffffffffffff166356623118730da67235dd5787d67955420c84ca1cecd4e5bb3b7335fa7a723b3b39f15623ff1eb26d8701e7d6bb2173ffffffffffffffffffffffffffffffffffffffff16631c9e379b876040518263ffffffff1660e01b815260040161073b919061143f565b60206040518083038186803b15801561075357600080fd5b505afa158015610767573d6000803e3d6000fd5b505050506040513d601f19601f8201168201806040525081019061078b9190611343565b7356984f04d2d04b2f63403f0ebedd3487716ba49d73ffffffffffffffffffffffffffffffffffffffff16631c9e379b886040518263ffffffff1660e01b81526004016107d8919061143f565b60206040518083038186803b1580156107f057600080fd5b505afa158015610804573d6000803e3d6000fd5b505050506040513d601f19601f820116820180604052508101906108289190611343565b73f4f46382c2be1603dc817551ff9a7b333ed1d18f73ffffffffffffffffffffffffffffffffffffffff1663f7888aec730da67235dd5787d67955420c84ca1cecd4e5bb3b8a6040518363ffffffff1660e01b815260040161088b9291906114fc565b60206040518083038186803b1580156108a357600080fd5b505afa1580156108b7573d6000803e3d6000fd5b505050506040513d601f19601f820116820180604052508101906108db9190611343565b6108e5919061161e565b6108ef919061161e565b60006040518463ffffffff1660e01b815260040161090f93929190611525565b60206040518083038186803b15801561092757600080fd5b505afa15801561093b573d6000803e3d6000fd5b505050506040513d601f19601f8201168201806040525081019061095f9190611343565b90506000730da67235dd5787d67955420c84ca1cecd4e5bb3b73ffffffffffffffffffffffffffffffffffffffff166370a08231856040518263ffffffff1660e01b81526004016109b0919061143f565b60206040518083038186803b1580156109c857600080fd5b505afa1580156109dc573d6000803e3d6000fd5b505050506040513d601f19601f82011682018060405250810190610a009190611343565b82610a0b919061161e565b9050600073b54f16fb19478766a268f172c9480f8da1a7c9c373ffffffffffffffffffffffffffffffffffffffff166370a08231866040518263ffffffff1660e01b8152600401610a5c919061143f565b60206040518083038186803b158015610a7457600080fd5b505afa158015610a88573d6000803e3d6000fd5b505050506040513d601f19601f82011682018060405250810190610aac9190611343565b73136acd46c134e8269052c62a67042d6bdedde3c973ffffffffffffffffffffffffffffffffffffffff166370a08231876040518263ffffffff1660e01b8152600401610af9919061143f565b60206040518083038186803b158015610b1157600080fd5b505afa158015610b25573d6000803e3d6000fd5b505050506040513d601f19601f82011682018060405250810190610b499190611343565b730da67235dd5787d67955420c84ca1cecd4e5bb3b73ffffffffffffffffffffffffffffffffffffffff16633f398cd8856040518263ffffffff1660e01b8152600401610b9691906115a7565b60206040518083038186803b158015610bae57600080fd5b505afa158015610bc2573d6000803e3d6000fd5b505050506040513d601f19601f82011682018060405250810190610be69190611343565b610bf0919061161e565b610bfa919061161e565b9050600073f64e1c5b6e17031f5504481ac8145f4c3eab491773ffffffffffffffffffffffffffffffffffffffff166370a08231876040518263ffffffff1660e01b8152600401610c4b919061143f565b60206040518083038186803b158015610c6357600080fd5b505afa158015610c77573d6000803e3d6000fd5b505050506040513d601f19601f82011682018060405250810190610c9b9190611343565b73d6a4f121ca35509af06a0be99093d08462f5305273ffffffffffffffffffffffffffffffffffffffff166393f1a40b602d896040518363ffffffff1660e01b8152600401610ceb92919061155c565b604080518083038186803b158015610d0257600080fd5b505afa158015610d16573d6000803e3d6000fd5b505050506040513d601f19601f82011682018060405250810190610d3a9190611316565b60000151610d48919061161e565b90506000600273f64e1c5b6e17031f5504481ac8145f4c3eab491773ffffffffffffffffffffffffffffffffffffffff166318160ddd6040518163ffffffff1660e01b815260040160206040518083038186803b158015610da857600080fd5b505afa158015610dbc573d6000803e3d6000fd5b505050506040513d601f19601f82011682018060405250810190610de09190611343565b73b54f16fb19478766a268f172c9480f8da1a7c9c373ffffffffffffffffffffffffffffffffffffffff166370a0823173f64e1c5b6e17031f5504481ac8145f4c3eab49176040518263ffffffff1660e01b8152600401610e41919061143f565b60206040518083038186803b158015610e5957600080fd5b505afa158015610e6d573d6000803e3d6000fd5b505050506040513d601f19601f82011682018060405250810190610e919190611343565b84610e9c91906116a5565b610ea69190611674565b610eb091906116a5565b90506000600273113f413371fc4cc4c9d6416cf1de9dfd7bf747df73ffffffffffffffffffffffffffffffffffffffff166318160ddd6040518163ffffffff1660e01b815260040160206040518083038186803b158015610f1057600080fd5b505afa158015610f24573d6000803e3d6000fd5b505050506040513d601f19601f82011682018060405250810190610f489190611343565b73b54f16fb19478766a268f172c9480f8da1a7c9c373ffffffffffffffffffffffffffffffffffffffff166370a0823173113f413371fc4cc4c9d6416cf1de9dfd7bf747df6040518263ffffffff1660e01b8152600401610fa9919061143f565b60206040518083038186803b158015610fc157600080fd5b505afa158015610fd5573d6000803e3d6000fd5b505050506040513d601f19601f82011682018060405250810190610ff99190611343565b73113f413371fc4cc4c9d6416cf1de9dfd7bf747df73ffffffffffffffffffffffffffffffffffffffff166370a082318c6040518263ffffffff1660e01b8152600401611046919061143f565b60206040518083038186803b15801561105e57600080fd5b505afa158015611072573d6000803e3d6000fd5b505050506040513d601f19601f820116820180604052508101906110969190611343565b6110a091906116a5565b6110aa9190611674565b6110b491906116a5565b90508082856110c3919061161e565b6110cd919061161e565b9650505050505050919050565b60606040518060400160405280600a81526020017f5350454c4c504f57455200000000000000000000000000000000000000000000815250905090565b73113f413371fc4cc4c9d6416cf1de9dfd7bf747df81565b600092915050565b73b54f16fb19478766a268f172c9480f8da1a7c9c381565b73136acd46c134e8269052c62a67042d6bdedde3c981565b7356984f04d2d04b2f63403f0ebedd3487716ba49d81565b600092915050565b600081359050611196816118f0565b92915050565b6000604082840312156111b2576111b16118d5565b5b6111bc60406115dd565b905060006111cc84828501611201565b60008301525060206111e084828501611201565b60208301525092915050565b6000813590506111fb81611907565b92915050565b60008151905061121081611907565b92915050565b60006020828403121561122c5761122b6118da565b5b600061123a84828501611187565b91505092915050565b6000806040838503121561125a576112596118da565b5b600061126885828601611187565b925050602061127985828601611187565b9150509250929050565b60008060006060848603121561129c5761129b6118da565b5b60006112aa86828701611187565b93505060206112bb86828701611187565b92505060406112cc868287016111ec565b9150509250925092565b600080604083850312156112ed576112ec6118da565b5b60006112fb85828601611187565b925050602061130c858286016111ec565b9150509250929050565b60006040828403121561132c5761132b6118da565b5b600061133a8482850161119c565b91505092915050565b600060208284031215611359576113586118da565b5b600061136784828501611201565b91505092915050565b611379816116ff565b82525050565b61138881611711565b82525050565b61139781611754565b82525050565b6113a681611766565b82525050565b6113b581611778565b82525050565b6113c48161178a565b82525050565b6113d38161179c565b82525050565b6113e2816117ae565b82525050565b60006113f382611602565b6113fd818561160d565b935061140d8185602086016117e4565b611416816118df565b840191505092915050565b61142a8161173d565b82525050565b61143981611747565b82525050565b60006020820190506114546000830184611370565b92915050565b600060208201905061146f600083018461137f565b92915050565b600060208201905061148a600083018461138e565b92915050565b60006020820190506114a5600083018461139d565b92915050565b60006020820190506114c060008301846113ac565b92915050565b60006020820190506114db60008301846113bb565b92915050565b60006020820190506114f660008301846113ca565b92915050565b600060408201905061151160008301856113ca565b61151e6020830184611370565b9392505050565b600060608201905061153a60008301866113ca565b6115476020830185611421565b611554604083018461137f565b949350505050565b600060408201905061157160008301856113d9565b61157e6020830184611370565b9392505050565b6000602082019050818103600083015261159f81846113e8565b905092915050565b60006020820190506115bc6000830184611421565b92915050565b60006020820190506115d76000830184611430565b92915050565b60006115e76115f8565b90506115f38282611817565b919050565b6000604051905090565b600081519050919050565b600082825260208201905092915050565b60006116298261173d565b91506116348361173d565b9250827fffffffffffffffffffffffffffffffffffffffffffffffffffffffffffffffff0382111561166957611668611848565b5b828201905092915050565b600061167f8261173d565b915061168a8361173d565b92508261169a57611699611877565b5b828204905092915050565b60006116b08261173d565b91506116bb8361173d565b9250817fffffffffffffffffffffffffffffffffffffffffffffffffffffffffffffffff04831182151516156116f4576116f3611848565b5b828202905092915050565b600061170a8261171d565b9050919050565b60008115159050919050565b600073ffffffffffffffffffffffffffffffffffffffff82169050919050565b6000819050919050565b600060ff82169050919050565b600061175f826117c0565b9050919050565b6000611771826117c0565b9050919050565b6000611783826117c0565b9050919050565b6000611795826117c0565b9050919050565b60006117a7826117c0565b9050919050565b60006117b98261173d565b9050919050565b60006117cb826117d2565b9050919050565b60006117dd8261171d565b9050919050565b60005b838110156118025780820151818401526020810190506117e7565b83811115611811576000848401525b50505050565b611820826118df565b810181811067ffffffffffffffff8211171561183f5761183e6118a6565b5b80604052505050565b7f4e487b7100000000000000000000000000000000000000000000000000000000600052601160045260246000fd5b7f4e487b7100000000000000000000000000000000000000000000000000000000600052601260045260246000fd5b7f4e487b7100000000000000000000000000000000000000000000000000000000600052604160045260246000fd5b600080fd5b600080fd5b6000601f19601f8301169050919050565b6118f9816116ff565b811461190457600080fd5b50565b6119108161173d565b811461191b57600080fd5b5056fea2646970667358221220479b767ed9c54d3b9bbe37263556370f031ae6e969a34a7dc3d53ca709b6109664736f6c63430008070033",
  "devdoc": {
    "kind": "dev",
    "methods": {},
    "version": 1
  },
  "userdoc": {
    "kind": "user",
    "methods": {
      "balanceOf(address)": {
        "notice": "Returns SUSHI voting 'powah' for `account`."
      },
      "totalSupply()": {
        "notice": "Returns total 'powah' supply."
      }
    },
    "version": 1
  },
  "storageLayout": {
    "storage": [],
    "types": null
  }
}