{
  "address": "0xF8B72e847e648BC87c8269FE258cbe908Fa2A71d",
  "abi": [
    {
      "inputs": [],
      "stateMutability": "nonpayable",
      "type": "constructor"
    },
    {
      "anonymous": false,
      "inputs": [
        {
          "indexed": true,
          "internalType": "contract IOracle",
          "name": "oldOracle",
          "type": "address"
        },
        {
          "indexed": true,
          "internalType": "contract IOracle",
          "name": "newOracle",
          "type": "address"
        }
      ],
      "name": "LogOracleImplementationChange",
      "type": "event"
    },
    {
      "anonymous": false,
      "inputs": [
        {
          "indexed": true,
          "internalType": "address",
          "name": "previousOwner",
          "type": "address"
        },
        {
          "indexed": true,
          "internalType": "address",
          "name": "newOwner",
          "type": "address"
        }
      ],
      "name": "OwnershipTransferred",
      "type": "event"
    },
    {
      "inputs": [
        {
          "internalType": "contract IOracle",
          "name": "newOracle",
          "type": "address"
        }
      ],
      "name": "changeOracleImplementation",
      "outputs": [],
      "stateMutability": "nonpayable",
      "type": "function"
    },
    {
      "inputs": [],
      "name": "claimOwnership",
      "outputs": [],
      "stateMutability": "nonpayable",
      "type": "function"
    },
    {
      "inputs": [
        {
          "internalType": "bytes",
          "name": "data",
          "type": "bytes"
        }
      ],
      "name": "get",
      "outputs": [
        {
          "internalType": "bool",
          "name": "",
          "type": "bool"
        },
        {
          "internalType": "uint256",
          "name": "",
          "type": "uint256"
        }
      ],
      "stateMutability": "nonpayable",
      "type": "function"
    },
    {
      "inputs": [
        {
          "internalType": "bytes",
          "name": "",
          "type": "bytes"
        }
      ],
      "name": "name",
      "outputs": [
        {
          "internalType": "string",
          "name": "",
          "type": "string"
        }
      ],
      "stateMutability": "view",
      "type": "function"
    },
    {
      "inputs": [],
      "name": "oracleImplementation",
      "outputs": [
        {
          "internalType": "contract IOracle",
          "name": "",
          "type": "address"
        }
      ],
      "stateMutability": "view",
      "type": "function"
    },
    {
      "inputs": [],
      "name": "owner",
      "outputs": [
        {
          "internalType": "address",
          "name": "",
          "type": "address"
        }
      ],
      "stateMutability": "view",
      "type": "function"
    },
    {
      "inputs": [
        {
          "internalType": "bytes",
          "name": "data",
          "type": "bytes"
        }
      ],
      "name": "peek",
      "outputs": [
        {
          "internalType": "bool",
          "name": "",
          "type": "bool"
        },
        {
          "internalType": "uint256",
          "name": "",
          "type": "uint256"
        }
      ],
      "stateMutability": "view",
      "type": "function"
    },
    {
      "inputs": [
        {
          "internalType": "bytes",
          "name": "data",
          "type": "bytes"
        }
      ],
      "name": "peekSpot",
      "outputs": [
        {
          "internalType": "uint256",
          "name": "rate",
          "type": "uint256"
        }
      ],
      "stateMutability": "view",
      "type": "function"
    },
    {
      "inputs": [],
      "name": "pendingOwner",
      "outputs": [
        {
          "internalType": "address",
          "name": "",
          "type": "address"
        }
      ],
      "stateMutability": "view",
      "type": "function"
    },
    {
      "inputs": [
        {
          "internalType": "bytes",
          "name": "",
          "type": "bytes"
        }
      ],
      "name": "symbol",
      "outputs": [
        {
          "internalType": "string",
          "name": "",
          "type": "string"
        }
      ],
      "stateMutability": "view",
      "type": "function"
    },
    {
      "inputs": [
        {
          "internalType": "address",
          "name": "newOwner",
          "type": "address"
        },
        {
          "internalType": "bool",
          "name": "direct",
          "type": "bool"
        },
        {
          "internalType": "bool",
          "name": "renounce",
          "type": "bool"
        }
      ],
      "name": "transferOwnership",
      "outputs": [],
      "stateMutability": "nonpayable",
      "type": "function"
    }
  ],
  "transactionHash": "0xb9932918b5a9b6014e5815d971a81d7df9fdd5cdf9bc2c4ecd49f2f8f2532d5b",
  "args": [],
  "numDeployments": 1,
  "solcInputHash": "c6eec116dfbfa84438aeaaf3930f345f",
  "bytecode": "0x608060405234801561001057600080fd5b50600080546001600160a01b0319163390811782556040519091907f8be0079c531659141344cd1fd0a4f28419497f9722a3daafe3b4186f6b6457e0908290a36109a98061005f6000396000f3fe608060405234801561001057600080fd5b50600436106100c95760003560e01c8063cb19341011610081578063d6d7d5251161005b578063d6d7d52514610337578063e30c3978146103c2578063eeb8a8d3146103ca576100c9565b8063cb1934101461023d578063d39bbef014610245578063d568866c146102c7576100c9565b8063784ce806116100b2578063784ce8061461010e5780638da5cb5b14610134578063c699c4d614610158576100c9565b8063078dfbe7146100ce5780634e71e0c814610106575b600080fd5b610104600480360360608110156100e457600080fd5b506001600160a01b0381351690602081013515159060400135151561043a565b005b61010461058a565b6101046004803603602081101561012457600080fd5b50356001600160a01b031661064c565b61013c6106fd565b604080516001600160a01b039092168252519081900360200190f35b6101c86004803603602081101561016e57600080fd5b81019060208101813564010000000081111561018957600080fd5b82018360208201111561019b57600080fd5b803590602001918460018302840111640100000000831117156101bd57600080fd5b50909250905061070c565b6040805160208082528351818301528351919283929083019185019080838360005b838110156102025781810151838201526020016101ea565b50505050905090810190601f16801561022f5780820380516001836020036101000a031916815260200191505b509250505060405180910390f35b61013c61072d565b6102b56004803603602081101561025b57600080fd5b81019060208101813564010000000081111561027657600080fd5b82018360208201111561028857600080fd5b803590602001918460018302840111640100000000831117156102aa57600080fd5b50909250905061073c565b60408051918252519081900360200190f35b6101c8600480360360208110156102dd57600080fd5b8101906020810181356401000000008111156102f857600080fd5b82018360208201111561030a57600080fd5b8035906020019184600183028401116401000000008311171561032c57600080fd5b5090925090506107e5565b6103a76004803603602081101561034d57600080fd5b81019060208101813564010000000081111561036857600080fd5b82018360208201111561037a57600080fd5b8035906020019184600183028401116401000000008311171561039c57600080fd5b50909250905061081e565b60408051921515835260208301919091528051918290030190f35b61013c6108d7565b6103a7600480360360208110156103e057600080fd5b8101906020810181356401000000008111156103fb57600080fd5b82018360208201111561040d57600080fd5b8035906020019184600183028401116401000000008311171561042f57600080fd5b5090925090506108e6565b6000546001600160a01b03163314610499576040805162461bcd60e51b815260206004820181905260248201527f4f776e61626c653a2063616c6c6572206973206e6f7420746865206f776e6572604482015290519081900360640190fd5b8115610569576001600160a01b0383161515806104b35750805b610504576040805162461bcd60e51b815260206004820152601560248201527f4f776e61626c653a207a65726f20616464726573730000000000000000000000604482015290519081900360640190fd5b600080546040516001600160a01b03808716939216917f8be0079c531659141344cd1fd0a4f28419497f9722a3daafe3b4186f6b6457e091a3600080546001600160a01b0385166001600160a01b031991821617909155600180549091169055610585565b600180546001600160a01b0319166001600160a01b0385161790555b505050565b6001546001600160a01b03163381146105ea576040805162461bcd60e51b815260206004820181905260248201527f4f776e61626c653a2063616c6c657220213d2070656e64696e67206f776e6572604482015290519081900360640190fd5b600080546040516001600160a01b03808516939216917f8be0079c531659141344cd1fd0a4f28419497f9722a3daafe3b4186f6b6457e091a3600080546001600160a01b039092166001600160a01b0319928316179055600180549091169055565b6000546001600160a01b031633146106ab576040805162461bcd60e51b815260206004820181905260248201527f4f776e61626c653a2063616c6c6572206973206e6f7420746865206f776e6572604482015290519081900360640190fd5b600280546001600160a01b038381166001600160a01b0319831681179093556040519116919082907f8e0352ee1de57032a7c8ddf4cb1daa3ff929d0a8534e42a124811b2fa033cccd90600090a35050565b6000546001600160a01b031681565b505060408051808201909152600581526450726f787960d81b602082015290565b6002546001600160a01b031681565b600254604051630d39bbef60e41b8152602060048201908152602482018490526000926001600160a01b03169163d39bbef09186918691908190604401848480828437600083820152604051601f909101601f191690920195506020945090925050508083038186803b1580156107b257600080fd5b505afa1580156107c6573d6000803e3d6000fd5b505050506040513d60208110156107dc57600080fd5b50519392505050565b505060408051808201909152600c81527f50726f7879204f7261636c650000000000000000000000000000000000000000602082015290565b60025460405163d6d7d52560e01b81526020600482019081526024820184905260009283926001600160a01b039091169163d6d7d52591879187918190604401848480828437600081840152601f19601f82011690508083019250505093505050506040805180830381600087803b15801561089957600080fd5b505af11580156108ad573d6000803e3d6000fd5b505050506040513d60408110156108c357600080fd5b508051602090910151909590945092505050565b6001546001600160a01b031681565b60025460405163eeb8a8d360e01b81526020600482019081526024820184905260009283926001600160a01b039091169163eeb8a8d39187918791819060440184848082843760008382015260408051601f909201601f1916909301965091945090925050508083038186803b15801561095f57600080fd5b505afa1580156108ad573d6000803e3d6000fdfea264697066735822122044f743a8c733a197e01ce2780b0701db410f1d6162ad1211118ed1dafb29e58464736f6c634300060c0033",
  "devdoc": {
    "author": "0xMerlin",
    "kind": "dev",
    "methods": {
      "get(bytes)": {
        "params": {
          "data": "Usually abi encoded, implementation specific data that contains information and arguments to & about the oracle. For example: (string memory collateralSymbol, string memory assetSymbol, uint256 division) = abi.decode(data, (string, string, uint256));"
        },
        "returns": {
          "_0": "success if no valid (recent) rate is available, return false else true.",
          "_1": "rate The rate of the requested asset / pair / pool."
        }
      },
      "name(bytes)": {
        "params": {
          "data": "Usually abi encoded, implementation specific data that contains information and arguments to & about the oracle. For example: (string memory collateralSymbol, string memory assetSymbol, uint256 division) = abi.decode(data, (string, string, uint256));"
        },
        "returns": {
          "_0": "(string) A human readable name about this oracle."
        }
      },
      "peek(bytes)": {
        "params": {
          "data": "Usually abi encoded, implementation specific data that contains information and arguments to & about the oracle. For example: (string memory collateralSymbol, string memory assetSymbol, uint256 division) = abi.decode(data, (string, string, uint256));"
        },
        "returns": {
          "_0": "success if no valid (recent) rate is available, return false else true.",
          "_1": "rate The rate of the requested asset / pair / pool."
        }
      },
      "peekSpot(bytes)": {
        "params": {
          "data": "Usually abi encoded, implementation specific data that contains information and arguments to & about the oracle. For example: (string memory collateralSymbol, string memory assetSymbol, uint256 division) = abi.decode(data, (string, string, uint256));"
        },
        "returns": {
          "rate": "The rate of the requested asset / pair / pool."
        }
      },
      "symbol(bytes)": {
        "params": {
          "data": "Usually abi encoded, implementation specific data that contains information and arguments to & about the oracle. For example: (string memory collateralSymbol, string memory assetSymbol, uint256 division) = abi.decode(data, (string, string, uint256));"
        },
        "returns": {
          "_0": "(string) A human readable symbol name about this oracle."
        }
      },
      "transferOwnership(address,bool,bool)": {
        "params": {
          "direct": "True if `newOwner` should be set immediately. False if `newOwner` needs to use `claimOwnership`.",
          "newOwner": "Address of the new owner.",
          "renounce": "Allows the `newOwner` to be `address(0)` if `direct` and `renounce` is True. Has no effect otherwise."
        }
      }
    },
    "title": "ProxyOracle",
    "version": 1
  },
  "userdoc": {
    "kind": "user",
    "methods": {
      "claimOwnership()": {
        "notice": "Needs to be called by `pendingOwner` to claim ownership."
      },
      "get(bytes)": {
        "notice": "Get the latest exchange rate."
      },
      "name(bytes)": {
        "notice": "Returns a human readable name about this oracle."
      },
      "peek(bytes)": {
        "notice": "Check the last exchange rate without any state changes."
      },
      "peekSpot(bytes)": {
        "notice": "Check the current spot exchange rate without any state changes. For oracles like TWAP this will be different from peek()."
      },
      "symbol(bytes)": {
        "notice": "Returns a human readable (short) name about this oracle."
      },
      "transferOwnership(address,bool,bool)": {
        "notice": "Transfers ownership to `newOwner`. Either directly or claimable by the new pending owner. Can only be invoked by the current `owner`."
      }
    },
    "notice": "Oracle used for getting the price of an oracle implementation",
    "version": 1
  },
  "storageLayout": {
    "storage": [
      {
        "astId": 118,
        "contract": "contracts/oracles/ProxyOracle.sol:ProxyOracle",
        "label": "owner",
        "offset": 0,
        "slot": "0",
        "type": "t_address"
      },
      {
        "astId": 120,
        "contract": "contracts/oracles/ProxyOracle.sol:ProxyOracle",
        "label": "pendingOwner",
        "offset": 0,
        "slot": "1",
        "type": "t_address"
      },
      {
        "astId": 8859,
        "contract": "contracts/oracles/ProxyOracle.sol:ProxyOracle",
        "label": "oracleImplementation",
        "offset": 0,
        "slot": "2",
        "type": "t_contract(IOracle)5890"
      }
    ],
    "types": {
      "t_address": {
        "encoding": "inplace",
        "label": "address",
        "numberOfBytes": "20"
      },
      "t_contract(IOracle)5890": {
        "encoding": "inplace",
        "label": "contract IOracle",
        "numberOfBytes": "20"
      }
    }
  }
}