{
  "address": "0x9ab1A92D2877A5EFbf42885159122556edD39A32",
  "abi": [
    {
      "inputs": [
        {
          "internalType": "contract IUniswapV2Pair",
          "name": "pair_",
          "type": "address"
        },
        {
          "internalType": "contract IAggregator",
          "name": "tokenOracle_",
          "type": "address"
        }
      ],
      "stateMutability": "nonpayable",
      "type": "constructor"
    },
    {
      "inputs": [],
      "name": "WAD",
      "outputs": [
        {
          "internalType": "uint256",
          "name": "",
          "type": "uint256"
        }
      ],
      "stateMutability": "view",
      "type": "function"
    },
    {
      "inputs": [],
      "name": "decimals",
      "outputs": [
        {
          "internalType": "uint8",
          "name": "",
          "type": "uint8"
        }
      ],
      "stateMutability": "pure",
      "type": "function"
    },
    {
      "inputs": [],
      "name": "latestAnswer",
      "outputs": [
        {
          "internalType": "int256",
          "name": "",
          "type": "int256"
        }
      ],
      "stateMutability": "view",
      "type": "function"
    },
    {
      "inputs": [],
      "name": "latestRoundData",
      "outputs": [
        {
          "internalType": "uint80",
          "name": "",
          "type": "uint80"
        },
        {
          "internalType": "int256",
          "name": "",
          "type": "int256"
        },
        {
          "internalType": "uint256",
          "name": "",
          "type": "uint256"
        },
        {
          "internalType": "uint256",
          "name": "",
          "type": "uint256"
        },
        {
          "internalType": "uint80",
          "name": "",
          "type": "uint80"
        }
      ],
      "stateMutability": "view",
      "type": "function"
    },
    {
      "inputs": [],
      "name": "oracleDecimals",
      "outputs": [
        {
          "internalType": "uint8",
          "name": "",
          "type": "uint8"
        }
      ],
      "stateMutability": "view",
      "type": "function"
    },
    {
      "inputs": [],
      "name": "pair",
      "outputs": [
        {
          "internalType": "contract IUniswapV2Pair",
          "name": "",
          "type": "address"
        }
      ],
      "stateMutability": "view",
      "type": "function"
    },
    {
      "inputs": [],
      "name": "token0Decimals",
      "outputs": [
        {
          "internalType": "uint8",
          "name": "",
          "type": "uint8"
        }
      ],
      "stateMutability": "view",
      "type": "function"
    },
    {
      "inputs": [],
      "name": "token1Decimals",
      "outputs": [
        {
          "internalType": "uint8",
          "name": "",
          "type": "uint8"
        }
      ],
      "stateMutability": "view",
      "type": "function"
    },
    {
      "inputs": [],
      "name": "tokenOracle",
      "outputs": [
        {
          "internalType": "contract IAggregator",
          "name": "",
          "type": "address"
        }
      ],
      "stateMutability": "view",
      "type": "function"
    }
  ],
  "transactionHash": "0x8604b44f9cd241aeeb2e1c8025caa7752e76bcd57e1083d69b35698b02921e1a",
  "args": [
    "0xf4003F4efBE8691B60249E6afbD307aBE7758adb",
    "0x588d402C868aDD9053f8F0098c2DC3443c991d17"
  ],
  "numDeployments": 1,
  "solcInputHash": "13399da6a3fa025ace53173b726b30bd",
  "bytecode": "0x6101206040523480156200001257600080fd5b5060405162000cd338038062000cd3833981016040819052620000359162000282565b6001600160a01b03808316608081905290821660a05260408051630dfe168160e01b81529051630dfe1681916004808201926020929091908290030181865afa15801562000087573d6000803e3d6000fd5b505050506040513d601f19601f82011682018060405250810190620000ad9190620002c1565b6001600160a01b031663313ce5676040518163ffffffff1660e01b8152600401602060405180830381865afa158015620000eb573d6000803e3d6000fd5b505050506040513d601f19601f82011682018060405250810190620001119190620002e8565b60ff1660c08160ff1681525050816001600160a01b031663d21220a76040518163ffffffff1660e01b8152600401602060405180830381865afa1580156200015d573d6000803e3d6000fd5b505050506040513d601f19601f82011682018060405250810190620001839190620002c1565b6001600160a01b031663313ce5676040518163ffffffff1660e01b8152600401602060405180830381865afa158015620001c1573d6000803e3d6000fd5b505050506040513d601f19601f82011682018060405250810190620001e79190620002e8565b60ff1660e08160ff1681525050806001600160a01b031663313ce5676040518163ffffffff1660e01b8152600401602060405180830381865afa15801562000233573d6000803e3d6000fd5b505050506040513d601f19601f82011682018060405250810190620002599190620002e8565b60ff1661010052506200030d9050565b6001600160a01b03811681146200027f57600080fd5b50565b600080604083850312156200029657600080fd5b8251620002a38162000269565b6020840151909250620002b68162000269565b809150509250929050565b600060208284031215620002d457600080fd5b8151620002e18162000269565b9392505050565b600060208284031215620002fb57600080fd5b815160ff81168114620002e157600080fd5b60805160a05160c05160e051610100516109586200037b6000396000818161019d015261045a01526000818160ad0152610380015260008181610176015261033901526000818161011001526103d001526000818161014f0152818161020501526102ae01526109586000f3fe608060405234801561001057600080fd5b50600436106100a35760003560e01c80636c5ec25c11610076578063b31ac6e21161005b578063b31ac6e214610171578063e68b52e714610198578063feaf968c146101bf57600080fd5b80636c5ec25c1461010b578063a8aa1b311461014a57600080fd5b80630b77884d146100a8578063313ce567146100e657806350d25bcd146100ed5780636a14602414610103575b600080fd5b6100cf7f000000000000000000000000000000000000000000000000000000000000000081565b60405160ff90911681526020015b60405180910390f35b60126100cf565b6100f56101fe565b6040519081526020016100dd565b6100f5601281565b6101327f000000000000000000000000000000000000000000000000000000000000000081565b6040516001600160a01b0390911681526020016100dd565b6101327f000000000000000000000000000000000000000000000000000000000000000081565b6100cf7f000000000000000000000000000000000000000000000000000000000000000081565b6100cf7f000000000000000000000000000000000000000000000000000000000000000081565b6101c76104fe565b6040805169ffffffffffffffffffff968716815260208101959095528401929092526060830152909116608082015260a0016100dd565b60008060007f00000000000000000000000000000000000000000000000000000000000000006001600160a01b0316630902f1ac6040518163ffffffff1660e01b8152600401606060405180830381865afa158015610261573d6000803e3d6000fd5b505050506040513d601f19601f8201168201806040525081019061028591906106d0565b506dffffffffffffffffffffffffffff1691506dffffffffffffffffffffffffffff16915060007f00000000000000000000000000000000000000000000000000000000000000006001600160a01b03166318160ddd6040518163ffffffff1660e01b8152600401602060405180830381865afa15801561030a573d6000803e3d6000fd5b505050506040513d601f19601f8201168201806040525081019061032e9190610720565b9050600061036060ff7f000000000000000000000000000000000000000000000000000000000000000016601261074f565b61036b90600a61084c565b610375908561085f565b905060006103a760ff7f000000000000000000000000000000000000000000000000000000000000000016601261074f565b6103b290600a61084c565b6103bc908561085f565b905060006103ca828461085f565b905060007f00000000000000000000000000000000000000000000000000000000000000006001600160a01b031663feaf968c6040518163ffffffff1660e01b815260040160a060405180830381865afa15801561042c573d6000803e3d6000fd5b505050506040513d601f19601f820116820180604052508101906104509190610898565b50505091505060007f000000000000000000000000000000000000000000000000000000000000000060ff166012610488919061074f565b61049390600a61084c565b61049d908361085f565b905060006104c6826104b7670de0b6b3a7640000876108e8565b6104c1919061085f565b610522565b6104d190600261085f565b9050866104e682670de0b6b3a764000061085f565b6104f091906108e8565b995050505050505050505090565b60008060008060008061050f6101fe565b9096909550600094508493508392509050565b60008161053157506000919050565b81600170010000000000000000000000000000000082106105575760809190911c9060401b5b6801000000000000000082106105725760409190911c9060201b5b64010000000082106105895760209190911c9060101b5b62010000821061059e5760109190911c9060081b5b61010082106105b25760089190911c9060041b5b601082106105c55760049190911c9060021b5b600882106105d15760011b5b60016105dd82866108e8565b6105e7908361090a565b901c905060016105f782866108e8565b610601908361090a565b901c9050600161061182866108e8565b61061b908361090a565b901c9050600161062b82866108e8565b610635908361090a565b901c9050600161064582866108e8565b61064f908361090a565b901c9050600161065f82866108e8565b610669908361090a565b901c9050600161067982866108e8565b610683908361090a565b901c9050600061069382866108e8565b90508082106106a257806106a4565b815b95945050505050565b80516dffffffffffffffffffffffffffff811681146106cb57600080fd5b919050565b6000806000606084860312156106e557600080fd5b6106ee846106ad565b92506106fc602085016106ad565b9150604084015163ffffffff8116811461071557600080fd5b809150509250925092565b60006020828403121561073257600080fd5b5051919050565b634e487b7160e01b600052601160045260246000fd5b60008282101561076157610761610739565b500390565b600181815b808511156107a157816000190482111561078757610787610739565b8085161561079457918102915b93841c939080029061076b565b509250929050565b6000826107b857506001610846565b816107c557506000610846565b81600181146107db57600281146107e557610801565b6001915050610846565b60ff8411156107f6576107f6610739565b50506001821b610846565b5060208310610133831016604e8410600b8410161715610824575081810a610846565b61082e8383610766565b806000190482111561084257610842610739565b0290505b92915050565b600061085883836107a9565b9392505050565b600081600019048311821515161561087957610879610739565b500290565b805169ffffffffffffffffffff811681146106cb57600080fd5b600080600080600060a086880312156108b057600080fd5b6108b98661087e565b94506020860151935060408601519250606086015191506108dc6080870161087e565b90509295509295909350565b60008261090557634e487b7160e01b600052601260045260246000fd5b500490565b6000821982111561091d5761091d610739565b50019056fea2646970667358221220cb54282f0da72e8fd3e965086687cb60dbffb7c2cb5458996db2f8bfebb59e5864736f6c634300080a0033",
  "devdoc": {
    "author": "BoringCrypto, 0xCalibur",
    "details": "Optimized version based on https://blog.alphafinance.io/fair-lp-token-pricing/",
    "kind": "dev",
    "methods": {
      "constructor": {
        "params": {
          "pair_": "The UniswapV2 compatible pair address",
          "tokenOracle_": "The token price 1 lp should be denominated with."
        }
      },
      "latestAnswer()": {
        "returns": {
          "_0": "the price of 1 lp in token price Example: - For 1 AVAX = $82 - Total LP Value is: $160,000,000 - LP supply is 8.25 - latestAnswer() returns 234420638348190662349201 / 1e18 = 234420.63 AVAX - 1 LP = 234420.63 AVAX => 234420.63 * 8.25 * 82 = ≈$160,000,000"
        }
      }
    },
    "title": "LPChainlinkOracleV2",
    "version": 1
  },
  "userdoc": {
    "kind": "user",
    "methods": {
      "latestAnswer()": {
        "notice": "Calculates the lastest exchange rate"
      }
    },
    "notice": "Oracle used for getting the price of an LP token denominated in tokenOracle.",
    "version": 1
  },
  "storageLayout": {
    "storage": [],
    "types": null
  }
}