{
  "address": "0x38a67c0F839e5F8939B12f9181A1924E4e4375eD",
  "abi": [
    {
      "inputs": [],
      "stateMutability": "nonpayable",
      "type": "constructor"
    },
    {
      "inputs": [],
      "name": "DEGENBOX",
      "outputs": [
        {
          "internalType": "contract IBentoBoxV1",
          "name": "",
          "type": "address"
        }
      ],
      "stateMutability": "view",
      "type": "function"
    },
    {
      "inputs": [],
      "name": "MIM",
      "outputs": [
        {
          "internalType": "contract IERC20",
          "name": "",
          "type": "address"
        }
      ],
      "stateMutability": "view",
      "type": "function"
    },
    {
      "inputs": [],
      "name": "MIMAVAX",
      "outputs": [
        {
          "internalType": "contract IUniswapV2Pair",
          "name": "",
          "type": "address"
        }
      ],
      "stateMutability": "view",
      "type": "function"
    },
    {
      "inputs": [],
      "name": "ROUTER",
      "outputs": [
        {
          "internalType": "contract IUniswapV2Router01",
          "name": "",
          "type": "address"
        }
      ],
      "stateMutability": "view",
      "type": "function"
    },
    {
      "inputs": [],
      "name": "USDC",
      "outputs": [
        {
          "internalType": "contract IERC20",
          "name": "",
          "type": "address"
        }
      ],
      "stateMutability": "view",
      "type": "function"
    },
    {
      "inputs": [],
      "name": "USDCAVAX",
      "outputs": [
        {
          "internalType": "contract IUniswapV2Pair",
          "name": "",
          "type": "address"
        }
      ],
      "stateMutability": "view",
      "type": "function"
    },
    {
      "inputs": [],
      "name": "WAVAX",
      "outputs": [
        {
          "internalType": "contract IERC20",
          "name": "",
          "type": "address"
        }
      ],
      "stateMutability": "view",
      "type": "function"
    },
    {
      "inputs": [
        {
          "internalType": "address",
          "name": "recipient",
          "type": "address"
        },
        {
          "internalType": "uint256",
          "name": "shareToMin",
          "type": "uint256"
        },
        {
          "internalType": "uint256",
          "name": "shareFrom",
          "type": "uint256"
        }
      ],
      "name": "swap",
      "outputs": [
        {
          "internalType": "uint256",
          "name": "extraShare",
          "type": "uint256"
        },
        {
          "internalType": "uint256",
          "name": "shareReturned",
          "type": "uint256"
        }
      ],
      "stateMutability": "nonpayable",
      "type": "function"
    }
  ],
  "transactionHash": "0x6e0b95e681d5b8d2892589a7c4a1b2dd5238800233bdca93890e8a8fc221d4d3",
  "args": [],
  "solcInputHash": "35f1d35b76fe039a477ba55150e36634",
  "bytecode": "0x60806040523480156200001157600080fd5b5073a389f9430876455c36478deea9769b7ca4e3ddb173ffffffffffffffffffffffffffffffffffffffff1663095ea7b3731fc83f75499b7620d53757f0b01e2ae626aae5307fffffffffffffffffffffffffffffffffffffffffffffffffffffffffffffffff6040518363ffffffff1660e01b81526004016200009792919062000311565b602060405180830381600087803b158015620000b257600080fd5b505af1158015620000c7573d6000803e3d6000fd5b505050506040513d601f19601f82011682018060405250810190620000ed9190620002c3565b5073b31f66aa3c1e785363f0875a1b74e27b85fd66c773ffffffffffffffffffffffffffffffffffffffff1663095ea7b37360ae616a2155ee3d9a68541ba4544862310933d47fffffffffffffffffffffffffffffffffffffffffffffffffffffffffffffffff6040518363ffffffff1660e01b81526004016200017392919062000311565b602060405180830381600087803b1580156200018e57600080fd5b505af1158015620001a3573d6000803e3d6000fd5b505050506040513d601f19601f82011682018060405250810190620001c99190620002c3565b5073a7d7079b0fead91f3e65f86e8915cb59c1a4c66473ffffffffffffffffffffffffffffffffffffffff1663095ea7b37360ae616a2155ee3d9a68541ba4544862310933d47fffffffffffffffffffffffffffffffffffffffffffffffffffffffffffffffff6040518363ffffffff1660e01b81526004016200024f92919062000311565b602060405180830381600087803b1580156200026a57600080fd5b505af11580156200027f573d6000803e3d6000fd5b505050506040513d601f19601f82011682018060405250810190620002a59190620002c3565b50620003a2565b600081519050620002bd8162000388565b92915050565b600060208284031215620002d657600080fd5b6000620002e684828501620002ac565b91505092915050565b620002fa816200033e565b82525050565b6200030b816200037e565b82525050565b6000604082019050620003286000830185620002ef565b62000337602083018462000300565b9392505050565b60006200034b826200035e565b9050919050565b60008115159050919050565b600073ffffffffffffffffffffffffffffffffffffffff82169050919050565b6000819050919050565b620003938162000352565b81146200039f57600080fd5b50565b6116c880620003b26000396000f3fe608060405234801561001057600080fd5b50600436106100885760003560e01c8063d01ecb2d1161005b578063d01ecb2d14610118578063daec383d14610136578063e0bc66b814610154578063f0f98f741461017257610088565b806332fe7b261461008d57806373b295c2146100ab57806389a30271146100c95780639f1d0f59146100e7575b600080fd5b610095610190565b6040516100a29190611249565b60405180910390f35b6100b36101a8565b6040516100c0919061116d565b60405180910390f35b6100d16101c0565b6040516100de919061116d565b60405180910390f35b61010160048036038101906100fc9190610e41565b6101d8565b60405161010f9291906112fa565b60405180910390f35b610120610ad5565b60405161012d919061122e565b60405180910390f35b61013e610aed565b60405161014b919061116d565b60405180910390f35b61015c610b05565b6040516101699190611152565b60405180910390f35b61017a610b1d565b604051610187919061122e565b60405180910390f35b7360ae616a2155ee3d9a68541ba4544862310933d481565b73b31f66aa3c1e785363f0875a1b74e27b85fd66c781565b73a7d7079b0fead91f3e65f86e8915cb59c1a4c66481565b6000806000731fc83f75499b7620d53757f0b01e2ae626aae53073ffffffffffffffffffffffffffffffffffffffff166397da6d3073130966628846bfd36ff31a822705796e8cb8c18d30306000896040518663ffffffff1660e01b8152600401610247959493929190611188565b6040805180830381600087803b15801561026057600080fd5b505af1158015610274573d6000803e3d6000fd5b505050506040513d601f19601f820116820180604052508101906102989190610f31565b50905060008073781655d802670bba3c89aebaaea59d3182fd755d73ffffffffffffffffffffffffffffffffffffffff16630902f1ac6040518163ffffffff1660e01b815260040160606040518083038186803b1580156102f857600080fd5b505afa15801561030c573d6000803e3d6000fd5b505050506040513d601f19601f820116820180604052508101906103309190610eb9565b506dffffffffffffffffffffffffffff1691506dffffffffffffffffffffffffffff1691506000610362848484610b35565b905073130966628846bfd36ff31a822705796e8cb8c18d73ffffffffffffffffffffffffffffffffffffffff1663a9059cbb73781655d802670bba3c89aebaaea59d3182fd755d866040518363ffffffff1660e01b81526004016103c7929190611129565b602060405180830381600087803b1580156103e157600080fd5b505af11580156103f5573d6000803e3d6000fd5b505050506040513d601f19601f820116820180604052508101906104199190610e90565b5073781655d802670bba3c89aebaaea59d3182fd755d73ffffffffffffffffffffffffffffffffffffffff1663022c0d9f60008330600067ffffffffffffffff81111561048f577f4e487b7100000000000000000000000000000000000000000000000000000000600052604160045260246000fd5b6040519080825280601f01601f1916602001820160405280156104c15781602001600182028036833780820191505090505b506040518563ffffffff1660e01b81526004016104e19493929190611264565b600060405180830381600087803b1580156104fb57600080fd5b505af115801561050f573d6000803e3d6000fd5b5050505073a389f9430876455c36478deea9769b7ca4e3ddb173ffffffffffffffffffffffffffffffffffffffff16630902f1ac6040518163ffffffff1660e01b815260040160606040518083038186803b15801561056d57600080fd5b505afa158015610581573d6000803e3d6000fd5b505050506040513d601f19601f820116820180604052508101906105a59190610eb9565b826dffffffffffffffffffffffffffff169250816dffffffffffffffffffffffffffff16915050809350819450505060006105e08383610b8d565b905060006105ef828587610b35565b905073b31f66aa3c1e785363f0875a1b74e27b85fd66c773ffffffffffffffffffffffffffffffffffffffff1663a9059cbb73a389f9430876455c36478deea9769b7ca4e3ddb1846040518363ffffffff1660e01b8152600401610654929190611129565b602060405180830381600087803b15801561066e57600080fd5b505af1158015610682573d6000803e3d6000fd5b505050506040513d601f19601f820116820180604052508101906106a69190610e90565b5073a389f9430876455c36478deea9769b7ca4e3ddb173ffffffffffffffffffffffffffffffffffffffff1663022c0d9f826000306040518463ffffffff1660e01b81526004016106f9939291906112b0565b600060405180830381600087803b15801561071357600080fd5b505af1158015610727573d6000803e3d6000fd5b505050507360ae616a2155ee3d9a68541ba4544862310933d473ffffffffffffffffffffffffffffffffffffffff1663e8e3370073a7d7079b0fead91f3e65f86e8915cb59c1a4c66473b31f66aa3c1e785363f0875a1b74e27b85fd66c773a7d7079b0fead91f3e65f86e8915cb59c1a4c66473ffffffffffffffffffffffffffffffffffffffff166370a08231306040518263ffffffff1660e01b81526004016107d29190611090565b60206040518083038186803b1580156107ea57600080fd5b505afa1580156107fe573d6000803e3d6000fd5b505050506040513d601f19601f820116820180604052508101906108229190610f08565b73b31f66aa3c1e785363f0875a1b74e27b85fd66c773ffffffffffffffffffffffffffffffffffffffff166370a08231306040518263ffffffff1660e01b815260040161086f9190611090565b60206040518083038186803b15801561088757600080fd5b505afa15801561089b573d6000803e3d6000fd5b505050506040513d601f19601f820116820180604052508101906108bf9190610f08565b600180307ff0000000000000000000000000000000000000000000000000000000000000006040518963ffffffff1660e01b81526004016109079897969594939291906110ab565b606060405180830381600087803b15801561092157600080fd5b505af1158015610935573d6000803e3d6000fd5b505050506040513d601f19601f820116820180604052508101906109599190610f6d565b505050731fc83f75499b7620d53757f0b01e2ae626aae53073ffffffffffffffffffffffffffffffffffffffff166302b9446c73a389f9430876455c36478deea9769b7ca4e3ddb1308e73a389f9430876455c36478deea9769b7ca4e3ddb173ffffffffffffffffffffffffffffffffffffffff166370a08231306040518263ffffffff1660e01b81526004016109f09190611090565b60206040518083038186803b158015610a0857600080fd5b505afa158015610a1c573d6000803e3d6000fd5b505050506040513d601f19601f82011682018060405250810190610a409190610f08565b60006040518663ffffffff1660e01b8152600401610a629594939291906111db565b6040805180830381600087803b158015610a7b57600080fd5b505af1158015610a8f573d6000803e3d6000fd5b505050506040513d601f19601f82011682018060405250810190610ab39190610f31565b9050809750508987610ac59190611420565b9750505050505050935093915050565b73a389f9430876455c36478deea9769b7ca4e3ddb181565b73130966628846bfd36ff31a822705796e8cb8c18d81565b731fc83f75499b7620d53757f0b01e2ae626aae53081565b73781655d802670bba3c89aebaaea59d3182fd755d81565b6000806103e585610b4691906113c6565b905060008382610b5691906113c6565b90506000826103e887610b6991906113c6565b610b73919061133f565b90508082610b819190611395565b93505050509392505050565b60006107ca6107cd84610ba091906113c6565b610bdb623cda2986610bb291906113c6565b623cda2086610bc191906113c6565b610bcb919061133f565b86610bd691906113c6565b610bf7565b610be59190611420565b610bef9190611395565b905092915050565b600080821415610c0a5760009050610dbe565b60008290506000600190507001000000000000000000000000000000008210610c3c57608082901c9150604081901b90505b680100000000000000008210610c5b57604082901c9150602081901b90505b6401000000008210610c7657602082901c9150601081901b90505b620100008210610c8f57601082901c9150600881901b90505b6101008210610ca757600882901c9150600481901b90505b60108210610cbe57600482901c9150600281901b90505b60088210610cce57600181901b90505b60018185610cdc9190611395565b82610ce7919061133f565b901c905060018185610cf99190611395565b82610d04919061133f565b901c905060018185610d169190611395565b82610d21919061133f565b901c905060018185610d339190611395565b82610d3e919061133f565b901c905060018185610d509190611395565b82610d5b919061133f565b901c905060018185610d6d9190611395565b82610d78919061133f565b901c905060018185610d8a9190611395565b82610d95919061133f565b901c905060008185610da79190611395565b9050808210610db65780610db8565b815b93505050505b919050565b600081359050610dd28161161f565b92915050565b600081519050610de781611636565b92915050565b600081519050610dfc8161164d565b92915050565b600081359050610e1181611664565b92915050565b600081519050610e2681611664565b92915050565b600081519050610e3b8161167b565b92915050565b600080600060608486031215610e5657600080fd5b6000610e6486828701610dc3565b9350506020610e7586828701610e02565b9250506040610e8686828701610e02565b9150509250925092565b600060208284031215610ea257600080fd5b6000610eb084828501610dd8565b91505092915050565b600080600060608486031215610ece57600080fd5b6000610edc86828701610ded565b9350506020610eed86828701610ded565b9250506040610efe86828701610e2c565b9150509250925092565b600060208284031215610f1a57600080fd5b6000610f2884828501610e17565b91505092915050565b60008060408385031215610f4457600080fd5b6000610f5285828601610e17565b9250506020610f6385828601610e17565b9150509250929050565b600080600060608486031215610f8257600080fd5b6000610f9086828701610e17565b9350506020610fa186828701610e17565b9250506040610fb286828701610e17565b9150509250925092565b610fc581611454565b82525050565b6000610fd682611323565b610fe0818561132e565b9350610ff081856020860161157a565b610ff98161160b565b840191505092915050565b61100d816114c6565b82525050565b61101c816114ea565b82525050565b61102b8161150e565b82525050565b61103a81611532565b82525050565b61104981611556565b82525050565b61105881611568565b82525050565b600061106b60008361132e565b91506110768261161c565b600082019050919050565b61108a816114ac565b82525050565b60006020820190506110a56000830184610fbc565b92915050565b6000610100820190506110c1600083018b610fbc565b6110ce602083018a610fbc565b6110db6040830189611081565b6110e86060830188611081565b6110f5608083018761104f565b61110260a083018661104f565b61110f60c0830185610fbc565b61111c60e0830184611081565b9998505050505050505050565b600060408201905061113e6000830185610fbc565b61114b6020830184611081565b9392505050565b60006020820190506111676000830184611004565b92915050565b60006020820190506111826000830184611013565b92915050565b600060a08201905061119d6000830188611013565b6111aa6020830187610fbc565b6111b76040830186610fbc565b6111c46060830185611040565b6111d16080830184611081565b9695505050505050565b600060a0820190506111f06000830188611013565b6111fd6020830187610fbc565b61120a6040830186610fbc565b6112176060830185611081565b6112246080830184611040565b9695505050505050565b60006020820190506112436000830184611022565b92915050565b600060208201905061125e6000830184611031565b92915050565b60006080820190506112796000830187611040565b6112866020830186611081565b6112936040830185610fbc565b81810360608301526112a58184610fcb565b905095945050505050565b60006080820190506112c56000830186611081565b6112d26020830185611040565b6112df6040830184610fbc565b81810360608301526112f08161105e565b9050949350505050565b600060408201905061130f6000830185611081565b61131c6020830184611081565b9392505050565b600081519050919050565b600082825260208201905092915050565b600061134a826114ac565b9150611355836114ac565b9250827fffffffffffffffffffffffffffffffffffffffffffffffffffffffffffffffff0382111561138a576113896115ad565b5b828201905092915050565b60006113a0826114ac565b91506113ab836114ac565b9250826113bb576113ba6115dc565b5b828204905092915050565b60006113d1826114ac565b91506113dc836114ac565b9250817fffffffffffffffffffffffffffffffffffffffffffffffffffffffffffffffff0483118215151615611415576114146115ad565b5b828202905092915050565b600061142b826114ac565b9150611436836114ac565b925082821015611449576114486115ad565b5b828203905092915050565b600061145f8261148c565b9050919050565b60008115159050919050565b60006dffffffffffffffffffffffffffff82169050919050565b600073ffffffffffffffffffffffffffffffffffffffff82169050919050565b6000819050919050565b600063ffffffff82169050919050565b60006114d1826114d8565b9050919050565b60006114e38261148c565b9050919050565b60006114f5826114fc565b9050919050565b60006115078261148c565b9050919050565b600061151982611520565b9050919050565b600061152b8261148c565b9050919050565b600061153d82611544565b9050919050565b600061154f8261148c565b9050919050565b6000611561826114ac565b9050919050565b6000611573826114ac565b9050919050565b60005b8381101561159857808201518184015260208101905061157d565b838111156115a7576000848401525b50505050565b7f4e487b7100000000000000000000000000000000000000000000000000000000600052601160045260246000fd5b7f4e487b7100000000000000000000000000000000000000000000000000000000600052601260045260246000fd5b6000601f19601f8301169050919050565b50565b61162881611454565b811461163357600080fd5b50565b61163f81611466565b811461164a57600080fd5b50565b61165681611472565b811461166157600080fd5b50565b61166d816114ac565b811461167857600080fd5b50565b611684816114b6565b811461168f57600080fd5b5056fea26469706673582212205d3bacd67afc69eb32d1a0de5ac876e25caf90d949df890eded2e784d76f218664736f6c63430008040033",
  "devdoc": {
    "kind": "dev",
    "methods": {},
    "version": 1
  },
  "userdoc": {
    "kind": "user",
    "methods": {},
    "version": 1
  },
  "storageLayout": {
    "storage": [],
    "types": null
  }
}