{
  "address": "0x7386946A2e2A8412c09a63AfA6EC047CecC0423F",
  "abi": [
    {
      "inputs": [],
      "stateMutability": "nonpayable",
      "type": "constructor"
    },
    {
      "inputs": [],
      "name": "MEMO",
      "outputs": [
        {
          "internalType": "contract IERC20",
          "name": "",
          "type": "address"
        }
      ],
      "stateMutability": "view",
      "type": "function"
    },
    {
      "inputs": [],
      "name": "MIM",
      "outputs": [
        {
          "internalType": "contract IERC20",
          "name": "",
          "type": "address"
        }
      ],
      "stateMutability": "view",
      "type": "function"
    },
    {
      "inputs": [],
      "name": "STAKING_MANAGER",
      "outputs": [
        {
          "internalType": "contract IStakingManager",
          "name": "",
          "type": "address"
        }
      ],
      "stateMutability": "view",
      "type": "function"
    },
    {
      "inputs": [],
      "name": "TIME",
      "outputs": [
        {
          "internalType": "contract IERC20",
          "name": "",
          "type": "address"
        }
      ],
      "stateMutability": "view",
      "type": "function"
    },
    {
      "inputs": [],
      "name": "WMEMO",
      "outputs": [
        {
          "internalType": "contract IWMEMO",
          "name": "",
          "type": "address"
        }
      ],
      "stateMutability": "view",
      "type": "function"
    },
    {
      "inputs": [],
      "name": "bentoBox",
      "outputs": [
        {
          "internalType": "contract IBentoBoxV1",
          "name": "",
          "type": "address"
        }
      ],
      "stateMutability": "view",
      "type": "function"
    },
    {
      "inputs": [
        {
          "internalType": "address",
          "name": "recipient",
          "type": "address"
        },
        {
          "internalType": "uint256",
          "name": "shareToMin",
          "type": "uint256"
        },
        {
          "internalType": "uint256",
          "name": "shareFrom",
          "type": "uint256"
        }
      ],
      "name": "swap",
      "outputs": [
        {
          "internalType": "uint256",
          "name": "extraShare",
          "type": "uint256"
        },
        {
          "internalType": "uint256",
          "name": "shareReturned",
          "type": "uint256"
        }
      ],
      "stateMutability": "nonpayable",
      "type": "function"
    }
  ],
  "transactionHash": "0x7aee46f3dbbfdc951c3e49506189676a3297ce124d51ed5d2ba14d9fb02c48b1",
  "args": [],
  "solcInputHash": "ac5dd4e07d4b01e76e0db6f1336e9fab",
  "bytecode": "0x608060405234801561001057600080fd5b506040805163095ea7b360e01b8152734456b87af11e87e329ab7d7c7a246ed1ac2168b960048201526000196024820152905173b54f16fb19478766a268f172c9480f8da1a7c9c39163095ea7b39160448083019260209291908290030181600087803b15801561008057600080fd5b505af1158015610094573d6000803e3d6000fd5b505050506040513d60208110156100aa57600080fd5b50506040805163095ea7b360e01b8152730da67235dd5787d67955420c84ca1cecd4e5bb3b60048201526000196024820152905173136acd46c134e8269052c62a67042d6bdedde3c99163095ea7b39160448083019260209291908290030181600087803b15801561011b57600080fd5b505af115801561012f573d6000803e3d6000fd5b505050506040513d602081101561014557600080fd5b5050610c91806101566000396000f3fe608060405234801561001057600080fd5b506004361061007d5760003560e01c80639f1d0f591161005b5780639f1d0f59146100b6578063beae663714610101578063c7eaef1e14610109578063daec383d146101115761007d565b80631ab2b74b146100825780636b2ace87146100a6578063864a8efa146100ae575b600080fd5b61008a610119565b604080516001600160a01b039092168252519081900360200190f35b61008a610131565b61008a610149565b6100e8600480360360608110156100cc57600080fd5b506001600160a01b038135169060208101359060400135610161565b6040805192835260208301919091528051918290030190f35b61008a6109a8565b61008a6109c0565b61008a6109d8565b730da67235dd5787d67955420c84ca1cecd4e5bb3b81565b73f4f46382c2be1603dc817551ff9a7b333ed1d18f81565b734456b87af11e87e329ab7d7c7a246ed1ac2168b981565b6040805163097da6d360e41b815273130966628846bfd36ff31a822705796e8cb8c18d600482015230602482015273781655d802670bba3c89aebaaea59d3182fd755d60448201526000606482018190526084820184905282519092839283928392839273f4f46382c2be1603dc817551ff9a7b333ed1d18f926397da6d309260a48084019391929182900301818787803b1580156101ff57600080fd5b505af1158015610213573d6000803e3d6000fd5b505050506040513d604081101561022957600080fd5b50519050600061026173130966628846bfd36ff31a822705796e8cb8c18d73b31f66aa3c1e785363f0875a1b74e27b85fd66c76109f0565b50905060008073781655d802670bba3c89aebaaea59d3182fd755d6001600160a01b0316630902f1ac6040518163ffffffff1660e01b815260040160606040518083038186803b1580156102b457600080fd5b505afa1580156102c8573d6000803e3d6000fd5b505050506040513d60608110156102de57600080fd5b5080516020909101516001600160701b03918216935016905073130966628846bfd36ff31a822705796e8cb8c18d6001600160a01b03841614610322578082610325565b81815b9092509050610335848383610ace565b955060008073130966628846bfd36ff31a822705796e8cb8c18d6001600160a01b038616146103665787600061036a565b6000885b604080516000808252602082019283905263022c0d9f60e01b8352602482018581526044830185905273f64e1c5b6e17031f5504481ac8145f4c3eab491760648401819052608060848501908152845160a4860181905297995095975073781655d802670bba3c89aebaaea59d3182fd755d9663022c0d9f968a968a969395939493919260c48601928190849084905b838110156104125781810151838201526020016103fa565b50505050905090810190601f16801561043f5780820380516001836020036101000a031916815260200191505b5095505050505050600060405180830381600087803b15801561046157600080fd5b505af1158015610475573d6000803e3d6000fd5b5050505050505050505060006104b373b31f66aa3c1e785363f0875a1b74e27b85fd66c773b54f16fb19478766a268f172c9480f8da1a7c9c36109f0565b50905060008073f64e1c5b6e17031f5504481ac8145f4c3eab49176001600160a01b0316630902f1ac6040518163ffffffff1660e01b815260040160606040518083038186803b15801561050657600080fd5b505afa15801561051a573d6000803e3d6000fd5b505050506040513d606081101561053057600080fd5b5080516020909101516001600160701b03918216935016905073b31f66aa3c1e785363f0875a1b74e27b85fd66c76001600160a01b03841614610574578082610577565b81815b9092509050610587858383610ace565b935060008073b31f66aa3c1e785363f0875a1b74e27b85fd66c76001600160a01b038616146105b8578560006105bc565b6000865b604080516000808252602082019283905263022c0d9f60e01b835260248201858152604483018590523060648401819052608060848501908152845160a4860181905297995095975073f64e1c5b6e17031f5504481ac8145f4c3eab49179663022c0d9f968a968a969395939493919260c48601928190849084905b83811015610650578181015183820152602001610638565b50505050905090810190601f16801561067d5780820380516001836020036101000a031916815260200191505b5095505050505050600060405180830381600087803b15801561069f57600080fd5b505af11580156106b3573d6000803e3d6000fd5b505060408051637acb775760e01b8152600481018a90523060248201529051734456b87af11e87e329ab7d7c7a246ed1ac2168b99850637acb77579750604480830197506020965090945090849003019150829050600087803b15801561071957600080fd5b505af115801561072d573d6000803e3d6000fd5b505050506040513d602081101561074357600080fd5b505060408051630f41a04d60e11b81523060048201529051734456b87af11e87e329ab7d7c7a246ed1ac2168b991631e83409a91602480830192600092919082900301818387803b15801561079757600080fd5b505af11580156107ab573d6000803e3d6000fd5b505050506000730da67235dd5787d67955420c84ca1cecd4e5bb3b6001600160a01b031663ea598cb0836040518263ffffffff1660e01b815260040180828152602001915050602060405180830381600087803b15801561080b57600080fd5b505af115801561081f573d6000803e3d6000fd5b505050506040513d602081101561083557600080fd5b50516040805163a9059cbb60e01b815273f4f46382c2be1603dc817551ff9a7b333ed1d18f6004820152602481018390529051919250730da67235dd5787d67955420c84ca1cecd4e5bb3b9163a9059cbb916044808201926020929091908290030181600087803b1580156108a957600080fd5b505af11580156108bd573d6000803e3d6000fd5b505050506040513d60208110156108d357600080fd5b50506040805162ae511b60e21b8152730da67235dd5787d67955420c84ca1cecd4e5bb3b600482015273f4f46382c2be1603dc817551ff9a7b333ed1d18f602482018190526001600160a01b038b16604483015260648201849052600060848301819052835191936302b9446c9360a4808201949293918390030190829087803b15801561096057600080fd5b505af1158015610974573d6000803e3d6000fd5b505050506040513d604081101561098a57600080fd5b5060200151935061099b8488610b1c565b9450505050935093915050565b73b54f16fb19478766a268f172c9480f8da1a7c9c381565b73136acd46c134e8269052c62a67042d6bdedde3c981565b73130966628846bfd36ff31a822705796e8cb8c18d81565b600080826001600160a01b0316846001600160a01b03161415610a445760405162461bcd60e51b8152600401808060200182810382526025815260200180610c376025913960400191505060405180910390fd5b826001600160a01b0316846001600160a01b031610610a64578284610a67565b83835b90925090506001600160a01b038216610ac7576040805162461bcd60e51b815260206004820152601e60248201527f556e697377617056324c6962726172793a205a45524f5f414444524553530000604482015290519081900360640190fd5b9250929050565b600080610add856103e5610b72565b90506000610aeb8285610b72565b90506000610b0583610aff886103e8610b72565b90610bde565b9050808281610b1057fe5b04979650505050505050565b80820382811115610b6c576040805162461bcd60e51b8152602060048201526015602482015274426f72696e674d6174683a20556e646572666c6f7760581b604482015290519081900360640190fd5b92915050565b6000811580610b8d57505080820282828281610b8a57fe5b04145b610b6c576040805162461bcd60e51b815260206004820152601860248201527f426f72696e674d6174683a204d756c204f766572666c6f770000000000000000604482015290519081900360640190fd5b81810181811015610b6c576040805162461bcd60e51b815260206004820152601860248201527f426f72696e674d6174683a20416464204f766572666c6f770000000000000000604482015290519081900360640190fdfe556e697377617056324c6962726172793a204944454e544943414c5f414444524553534553a264697066735822122072a8c540c4edf7225a0995e77b374684140430d90d63b0941dab4f86acd5de0c64736f6c634300060c0033",
  "devdoc": {
    "kind": "dev",
    "methods": {},
    "version": 1
  },
  "userdoc": {
    "kind": "user",
    "methods": {},
    "version": 1
  },
  "storageLayout": {
    "storage": [],
    "types": null
  }
}