{
  "address": "0xB099cC8Cd672646317c2da0414aEa7D3838eD258",
  "abi": [
    {
      "inputs": [],
      "name": "MIM_USD",
      "outputs": [
        {
          "internalType": "contract IAggregator",
          "name": "",
          "type": "address"
        }
      ],
      "stateMutability": "view",
      "type": "function"
    },
    {
      "inputs": [],
      "name": "PERIOD",
      "outputs": [
        {
          "internalType": "uint256",
          "name": "",
          "type": "uint256"
        }
      ],
      "stateMutability": "view",
      "type": "function"
    },
    {
      "inputs": [],
      "name": "WMEMO",
      "outputs": [
        {
          "internalType": "contract IWMEMO",
          "name": "",
          "type": "address"
        }
      ],
      "stateMutability": "view",
      "type": "function"
    },
    {
      "inputs": [],
      "name": "WMEMO_MIM",
      "outputs": [
        {
          "internalType": "contract IUniswapV2Pair",
          "name": "",
          "type": "address"
        }
      ],
      "stateMutability": "view",
      "type": "function"
    },
    {
      "inputs": [
        {
          "internalType": "uint32",
          "name": "blockTimestamp",
          "type": "uint32"
        }
      ],
      "name": "_get",
      "outputs": [
        {
          "internalType": "uint256",
          "name": "",
          "type": "uint256"
        }
      ],
      "stateMutability": "view",
      "type": "function"
    },
    {
      "inputs": [
        {
          "internalType": "bytes",
          "name": "data",
          "type": "bytes"
        }
      ],
      "name": "get",
      "outputs": [
        {
          "internalType": "bool",
          "name": "",
          "type": "bool"
        },
        {
          "internalType": "uint256",
          "name": "",
          "type": "uint256"
        }
      ],
      "stateMutability": "nonpayable",
      "type": "function"
    },
    {
      "inputs": [
        {
          "internalType": "bytes",
          "name": "",
          "type": "bytes"
        }
      ],
      "name": "name",
      "outputs": [
        {
          "internalType": "string",
          "name": "",
          "type": "string"
        }
      ],
      "stateMutability": "view",
      "type": "function"
    },
    {
      "inputs": [],
      "name": "pairInfo",
      "outputs": [
        {
          "internalType": "uint256",
          "name": "priceCumulativeLast",
          "type": "uint256"
        },
        {
          "internalType": "uint32",
          "name": "blockTimestampLast",
          "type": "uint32"
        },
        {
          "internalType": "uint144",
          "name": "priceAverage",
          "type": "uint144"
        }
      ],
      "stateMutability": "view",
      "type": "function"
    },
    {
      "inputs": [
        {
          "internalType": "bytes",
          "name": "data",
          "type": "bytes"
        }
      ],
      "name": "peek",
      "outputs": [
        {
          "internalType": "bool",
          "name": "",
          "type": "bool"
        },
        {
          "internalType": "uint256",
          "name": "",
          "type": "uint256"
        }
      ],
      "stateMutability": "view",
      "type": "function"
    },
    {
      "inputs": [
        {
          "internalType": "bytes",
          "name": "data",
          "type": "bytes"
        }
      ],
      "name": "peekSpot",
      "outputs": [
        {
          "internalType": "uint256",
          "name": "rate",
          "type": "uint256"
        }
      ],
      "stateMutability": "view",
      "type": "function"
    },
    {
      "inputs": [
        {
          "internalType": "bytes",
          "name": "",
          "type": "bytes"
        }
      ],
      "name": "symbol",
      "outputs": [
        {
          "internalType": "string",
          "name": "",
          "type": "string"
        }
      ],
      "stateMutability": "view",
      "type": "function"
    }
  ],
  "transactionHash": "0x65b7f39f202e4b9d2e3c61136ab36a168a2cb84d77275a40897a25041a6378e2",
  "args": [],
  "solcInputHash": "6c40100f1e883d7a7f5894b7d16d1c19",
  "bytecode": "0x608060405234801561001057600080fd5b50610e10806100206000396000f3fe608060405234801561001057600080fd5b50600436106100a95760003560e01c8063c699c4d611610071578063c699c4d614610104578063d39bbef014610124578063d568866c14610137578063d6d7d5251461014a578063eeb8a8d31461016b578063fc2a5b1d1461017e576100a9565b80631ab2b74b146100ae5780633938471f146100cc5780634d032d8d146100d45780637d144b18146100f4578063b4d1d795146100fc575b600080fd5b6100b6610195565b6040516100c39190610c08565b60405180910390f35b6100b66101ad565b6100e76100e2366004610bd5565b6101c5565b6040516100c39190610d82565b6100b661031c565b6100e7610334565b610117610112366004610b04565b61033a565b6040516100c39190610c1c565b6100e7610132366004610b04565b61035d565b610117610145366004610b04565b6104c9565b61015d610158366004610b04565b6104ef565b6040516100c3929190610bf8565b61015d610179366004610b04565b6106d7565b61018661082c565b6040516100c393929190610d8b565b730da67235dd5787d67955420c84ca1cecd4e5bb3b81565b7354edab30a7134a16a54218ae64c73e1daf48a8fb81565b600080734d308c46ea9f234ea515cc51f16fba776451cac86001600160a01b0316635909c0d56040518163ffffffff1660e01b815260040160206040518083038186803b15801561021557600080fd5b505afa158015610229573d6000803e3d6000fd5b505050506040513d601f19601f8201168201806040525081019061024d9190610b71565b90506000806000734d308c46ea9f234ea515cc51f16fba776451cac86001600160a01b0316630902f1ac6040518163ffffffff1660e01b815260040160606040518083038186803b1580156102a157600080fd5b505afa1580156102b5573d6000803e3d6000fd5b505050506040513d601f19601f820116820180604052508101906102d99190610b89565b92509250925080860363ffffffff16610304836001600160701b0316856001600160701b031661084e565b516001600160e01b0316029390930195945050505050565b734d308c46ea9f234ea515cc51f16fba776451cac881565b61025881565b604080518082019091526005815264774d454d4f60d81b60208201525b92915050565b6000806000734d308c46ea9f234ea515cc51f16fba776451cac86001600160a01b0316630902f1ac6040518163ffffffff1660e01b815260040160606040518083038186803b1580156103af57600080fd5b505afa1580156103c3573d6000803e3d6000fd5b505050506040513d601f19601f820116820180604052508101906103e79190610b89565b506001600160701b031691506001600160701b031691506104a77354edab30a7134a16a54218ae64c73e1daf48a8fb6001600160a01b03166350d25bcd6040518163ffffffff1660e01b815260040160206040518083038186803b15801561044e57600080fd5b505afa158015610462573d6000803e3d6000fd5b505050506040513d601f19601f820116820180604052508101906104869190610b71565b8361049984670de0b6b3a764000061093a565b816104a057fe5b049061093a565b6c47bf19673df52e37f2410011d1602c1b816104bf57fe5b0495945050505050565b505060408051808201909152600a8152690774d454d4f20545741560b41b602082015290565b6001546000908190429063ffffffff16610532576001805463ffffffff191663ffffffff8316179055610521816101c5565b600090815592508291506106d09050565b60015463ffffffff908116820390610258908216101561056d5750506001805490925064010000000090046001600160901b031690506106d0565b6000610578836101c5565b90506106577354edab30a7134a16a54218ae64c73e1daf48a8fb6001600160a01b03166350d25bcd6040518163ffffffff1660e01b815260040160206040518083038186803b1580156105ca57600080fd5b505afa1580156105de573d6000803e3d6000fd5b505050506040513d601f19601f820116820180604052508101906106029190610b71565b610648610643670de0b6b3a764000060405180602001604052808863ffffffff16600080015489038161063157fe5b046001600160e01b0316905290610971565b6109d0565b6001600160901b03169061093a565b6c47bf19673df52e37f2410011d1602c1b8161066f57fe5b6001805475ffffffffffffffffffffffffffffffffffff000000001916640100000000939092046001600160901b0390811684029290921763ffffffff191663ffffffff969096169590951780865560009390935593955090049091169150505b9250929050565b6001546000908190429063ffffffff166106f85760008092509250506106d0565b60015463ffffffff90811682039061025890821610156107335750506001805490925064010000000090046001600160901b031690506106d0565b600061073e836101c5565b905060006107f97354edab30a7134a16a54218ae64c73e1daf48a8fb6001600160a01b03166350d25bcd6040518163ffffffff1660e01b815260040160206040518083038186803b15801561079257600080fd5b505afa1580156107a6573d6000803e3d6000fd5b505050506040513d601f19601f820116820180604052508101906107ca9190610b71565b610648610643670de0b6b3a764000060405180602001604052808963ffffffff1660008001548a038161063157fe5b6c47bf19673df52e37f2410011d1602c1b8161081157fe5b60019a9190046001600160901b031698509650505050505050565b60005460015463ffffffff81169064010000000090046001600160901b031683565b610856610adf565b6000821161087f5760405162461bcd60e51b815260040161087690610d14565b60405180910390fd5b826108995750604080516020810190915260008152610357565b6001600160901b03831161090057600082607085901b816108b657fe5b0490506001600160e01b038111156108e05760405162461bcd60e51b815260040161087690610cdd565b6040518060200160405280826001600160e01b0316815250915050610357565b600061091184600160701b856109d7565b90506001600160e01b038111156108e05760405162461bcd60e51b815260040161087690610cdd565b60008115806109555750508082028282828161095257fe5b04145b6103575760405162461bcd60e51b815260040161087690610d4b565b610979610af1565b600082158061099f57505082516001600160e01b03168281029083828161099c57fe5b04145b6109bb5760405162461bcd60e51b815260040161087690610c6f565b60408051602081019091529081529392505050565b5160701c90565b60008060006109e68686610a42565b91509150600084806109f457fe5b868809905082811115610a08576001820391505b8083039250848210610a2c5760405162461bcd60e51b815260040161087690610ca6565b610a37838387610a6f565b979650505050505050565b6000808060001984860990508385029250828103915082811015610a67576001820391505b509250929050565b60008181038216808381610a7f57fe5b049250808581610a8b57fe5b049450808160000381610a9a57fe5b60028581038087028203028087028203028087028203028087028203028087028203028087028203029586029003909402930460010193909302939093010292915050565b60408051602081019091526000815290565b6040518060200160405280600081525090565b60008060208385031215610b16578182fd5b823567ffffffffffffffff80821115610b2d578384fd5b818501915085601f830112610b40578384fd5b813581811115610b4e578485fd5b866020828501011115610b5f578485fd5b60209290920196919550909350505050565b600060208284031215610b82578081fd5b5051919050565b600080600060608486031215610b9d578081fd5b8351610ba881610db0565b6020850151909350610bb981610db0565b6040850151909250610bca81610dc8565b809150509250925092565b600060208284031215610be6578081fd5b8135610bf181610dc8565b9392505050565b9115158252602082015260400190565b6001600160a01b0391909116815260200190565b6000602080835283518082850152825b81811015610c4857858101830151858201604001528201610c2c565b81811115610c595783604083870101525b50601f01601f1916929092016040019392505050565b60208082526019908201527f4669786564506f696e743a3a6d756c3a206f766572666c6f7700000000000000604082015260600190565b6020808252601a908201527f46756c6c4d6174683a3a6d756c4469763a206f766572666c6f77000000000000604082015260600190565b6020808252601e908201527f4669786564506f696e743a3a6672616374696f6e3a206f766572666c6f770000604082015260600190565b6020808252601e908201527f4669786564506f696e743a3a6672616374696f6e3a2064697620627920300000604082015260600190565b60208082526018908201527f426f72696e674d6174683a204d756c204f766572666c6f770000000000000000604082015260600190565b90815260200190565b92835263ffffffff9190911660208301526001600160901b0316604082015260600190565b6001600160701b0381168114610dc557600080fd5b50565b63ffffffff81168114610dc557600080fdfea26469706673582212201a51f4971a109de8033f038c560f8442d46e1b47075a6e988d0bf72ac0fc2d5564736f6c634300060c0033",
  "devdoc": {
    "kind": "dev",
    "methods": {
      "get(bytes)": {
        "params": {
          "data": "Usually abi encoded, implementation specific data that contains information and arguments to & about the oracle. For example: (string memory collateralSymbol, string memory assetSymbol, uint256 division) = abi.decode(data, (string, string, uint256));"
        },
        "returns": {
          "_0": "success if no valid (recent) rate is available, return false else true.",
          "_1": "rate The rate of the requested asset / pair / pool."
        }
      },
      "name(bytes)": {
        "params": {
          "data": "Usually abi encoded, implementation specific data that contains information and arguments to & about the oracle. For example: (string memory collateralSymbol, string memory assetSymbol, uint256 division) = abi.decode(data, (string, string, uint256));"
        },
        "returns": {
          "_0": "(string) A human readable name about this oracle."
        }
      },
      "peek(bytes)": {
        "params": {
          "data": "Usually abi encoded, implementation specific data that contains information and arguments to & about the oracle. For example: (string memory collateralSymbol, string memory assetSymbol, uint256 division) = abi.decode(data, (string, string, uint256));"
        },
        "returns": {
          "_0": "success if no valid (recent) rate is available, return false else true.",
          "_1": "rate The rate of the requested asset / pair / pool."
        }
      },
      "peekSpot(bytes)": {
        "params": {
          "data": "Usually abi encoded, implementation specific data that contains information and arguments to & about the oracle. For example: (string memory collateralSymbol, string memory assetSymbol, uint256 division) = abi.decode(data, (string, string, uint256));"
        },
        "returns": {
          "rate": "The rate of the requested asset / pair / pool."
        }
      },
      "symbol(bytes)": {
        "params": {
          "data": "Usually abi encoded, implementation specific data that contains information and arguments to & about the oracle. For example: (string memory collateralSymbol, string memory assetSymbol, uint256 division) = abi.decode(data, (string, string, uint256));"
        },
        "returns": {
          "_0": "(string) A human readable symbol name about this oracle."
        }
      }
    },
    "version": 1
  },
  "userdoc": {
    "kind": "user",
    "methods": {
      "get(bytes)": {
        "notice": "Get the latest exchange rate."
      },
      "name(bytes)": {
        "notice": "Returns a human readable name about this oracle."
      },
      "peek(bytes)": {
        "notice": "Check the last exchange rate without any state changes."
      },
      "peekSpot(bytes)": {
        "notice": "Check the current spot exchange rate without any state changes. For oracles like TWAP this will be different from peek()."
      },
      "symbol(bytes)": {
        "notice": "Returns a human readable (short) name about this oracle."
      }
    },
    "version": 1
  },
  "storageLayout": {
    "storage": [
      {
        "astId": 18850,
        "contract": "contracts/oracles/wMEMOOracle.sol:wMemoOracle",
        "label": "pairInfo",
        "offset": 0,
        "slot": "0",
        "type": "t_struct(PairInfo)18848_storage"
      }
    ],
    "types": {
      "t_struct(PairInfo)18848_storage": {
        "encoding": "inplace",
        "label": "struct wMemoOracle.PairInfo",
        "members": [
          {
            "astId": 18843,
            "contract": "contracts/oracles/wMEMOOracle.sol:wMemoOracle",
            "label": "priceCumulativeLast",
            "offset": 0,
            "slot": "0",
            "type": "t_uint256"
          },
          {
            "astId": 18845,
            "contract": "contracts/oracles/wMEMOOracle.sol:wMemoOracle",
            "label": "blockTimestampLast",
            "offset": 0,
            "slot": "1",
            "type": "t_uint32"
          },
          {
            "astId": 18847,
            "contract": "contracts/oracles/wMEMOOracle.sol:wMemoOracle",
            "label": "priceAverage",
            "offset": 4,
            "slot": "1",
            "type": "t_uint144"
          }
        ],
        "numberOfBytes": "64"
      },
      "t_uint144": {
        "encoding": "inplace",
        "label": "uint144",
        "numberOfBytes": "18"
      },
      "t_uint256": {
        "encoding": "inplace",
        "label": "uint256",
        "numberOfBytes": "32"
      },
      "t_uint32": {
        "encoding": "inplace",
        "label": "uint32",
        "numberOfBytes": "4"
      }
    }
  }
}