{
  "address": "0x2Be431EE7E74b1CB7CfA16Fc90578EF42eF361B0",
  "abi": [
    {
      "inputs": [],
      "stateMutability": "nonpayable",
      "type": "constructor"
    },
    {
      "inputs": [],
      "name": "MEMO",
      "outputs": [
        {
          "internalType": "contract IERC20",
          "name": "",
          "type": "address"
        }
      ],
      "stateMutability": "view",
      "type": "function"
    },
    {
      "inputs": [],
      "name": "MIM",
      "outputs": [
        {
          "internalType": "contract IERC20",
          "name": "",
          "type": "address"
        }
      ],
      "stateMutability": "view",
      "type": "function"
    },
    {
      "inputs": [],
      "name": "STAKING_MANAGER",
      "outputs": [
        {
          "internalType": "contract IStakingManager",
          "name": "",
          "type": "address"
        }
      ],
      "stateMutability": "view",
      "type": "function"
    },
    {
      "inputs": [],
      "name": "TIME",
      "outputs": [
        {
          "internalType": "contract IERC20",
          "name": "",
          "type": "address"
        }
      ],
      "stateMutability": "view",
      "type": "function"
    },
    {
      "inputs": [],
      "name": "WMEMO",
      "outputs": [
        {
          "internalType": "contract IWMEMO",
          "name": "",
          "type": "address"
        }
      ],
      "stateMutability": "view",
      "type": "function"
    },
    {
      "inputs": [],
      "name": "bentoBox",
      "outputs": [
        {
          "internalType": "contract IBentoBoxV1",
          "name": "",
          "type": "address"
        }
      ],
      "stateMutability": "view",
      "type": "function"
    },
    {
      "inputs": [
        {
          "internalType": "address",
          "name": "recipient",
          "type": "address"
        },
        {
          "internalType": "uint256",
          "name": "shareToMin",
          "type": "uint256"
        },
        {
          "internalType": "uint256",
          "name": "shareFrom",
          "type": "uint256"
        }
      ],
      "name": "swap",
      "outputs": [
        {
          "internalType": "uint256",
          "name": "extraShare",
          "type": "uint256"
        },
        {
          "internalType": "uint256",
          "name": "shareReturned",
          "type": "uint256"
        }
      ],
      "stateMutability": "nonpayable",
      "type": "function"
    }
  ],
  "transactionHash": "0x6fae855f659c92f5abf8d66819f3fb7f6362e6cc52b2d8525839ed25e9200ba4",
  "args": [],
  "solcInputHash": "487ecb47e7046802fb6450378f2ad5eb",
  "bytecode": "0x608060405234801561001057600080fd5b506040805163095ea7b360e01b8152734456b87af11e87e329ab7d7c7a246ed1ac2168b960048201526000196024820152905173b54f16fb19478766a268f172c9480f8da1a7c9c39163095ea7b39160448083019260209291908290030181600087803b15801561008057600080fd5b505af1158015610094573d6000803e3d6000fd5b505050506040513d60208110156100aa57600080fd5b50506040805163095ea7b360e01b8152730da67235dd5787d67955420c84ca1cecd4e5bb3b60048201526000196024820152905173136acd46c134e8269052c62a67042d6bdedde3c99163095ea7b39160448083019260209291908290030181600087803b15801561011b57600080fd5b505af115801561012f573d6000803e3d6000fd5b505050506040513d602081101561014557600080fd5b505061086e806101566000396000f3fe608060405234801561001057600080fd5b506004361061007d5760003560e01c80639f1d0f591161005b5780639f1d0f59146100b6578063beae663714610101578063c7eaef1e14610109578063daec383d146101115761007d565b80631ab2b74b146100825780636b2ace87146100a6578063864a8efa146100ae575b600080fd5b61008a610119565b604080516001600160a01b039092168252519081900360200190f35b61008a610131565b61008a610149565b6100e8600480360360608110156100cc57600080fd5b506001600160a01b038135169060208101359060400135610161565b6040805192835260208301919091528051918290030190f35b61008a610585565b61008a61059d565b61008a6105b5565b730da67235dd5787d67955420c84ca1cecd4e5bb3b81565b73f4f46382c2be1603dc817551ff9a7b333ed1d18f81565b734456b87af11e87e329ab7d7c7a246ed1ac2168b981565b6040805163097da6d360e41b815273130966628846bfd36ff31a822705796e8cb8c18d6004820152306024820152734d308c46ea9f234ea515cc51f16fba776451cac8604482015260006064820181905260848201849052825190928392839273f4f46382c2be1603dc817551ff9a7b333ed1d18f926397da6d309260a4808201939182900301818787803b1580156101f957600080fd5b505af115801561020d573d6000803e3d6000fd5b505050506040513d604081101561022357600080fd5b50519050600061025b730da67235dd5787d67955420c84ca1cecd4e5bb3b73130966628846bfd36ff31a822705796e8cb8c18d6105cd565b509050600080734d308c46ea9f234ea515cc51f16fba776451cac86001600160a01b0316630902f1ac6040518163ffffffff1660e01b815260040160606040518083038186803b1580156102ae57600080fd5b505afa1580156102c2573d6000803e3d6000fd5b505050506040513d60608110156102d857600080fd5b5080516020909101516dffffffffffffffffffffffffffff918216935016905073130966628846bfd36ff31a822705796e8cb8c18d6001600160a01b03841614610323578082610326565b81815b909250905060006103388584846106ab565b905060008073130966628846bfd36ff31a822705796e8cb8c18d6001600160a01b038716146103695782600061036d565b6000835b604080516000808252602082019283905263022c0d9f60e01b8352602482018581526044830185905273f4f46382c2be1603dc817551ff9a7b333ed1d18f60648401819052608060848501908152845160a48601819052979950959750734d308c46ea9f234ea515cc51f16fba776451cac89663022c0d9f968a968a969395939493919260c48601928190849084905b838110156104155781810151838201526020016103fd565b50505050905090810190601f1680156104425780820380516001836020036101000a031916815260200191505b5095505050505050600060405180830381600087803b15801561046457600080fd5b505af1158015610478573d6000803e3d6000fd5b5050505073f4f46382c2be1603dc817551ff9a7b333ed1d18f6001600160a01b03166302b9446c730da67235dd5787d67955420c84ca1cecd4e5bb3b73f4f46382c2be1603dc817551ff9a7b333ed1d18f8f8760006040518663ffffffff1660e01b815260040180866001600160a01b03168152602001856001600160a01b03168152602001846001600160a01b03168152602001838152602001828152602001955050505050506040805180830381600087803b15801561053957600080fd5b505af115801561054d573d6000803e3d6000fd5b505050506040513d604081101561056357600080fd5b50602001519750610574888c6106f9565b985050505050505050935093915050565b73b54f16fb19478766a268f172c9480f8da1a7c9c381565b73136acd46c134e8269052c62a67042d6bdedde3c981565b73130966628846bfd36ff31a822705796e8cb8c18d81565b600080826001600160a01b0316846001600160a01b031614156106215760405162461bcd60e51b81526004018080602001828103825260258152602001806108146025913960400191505060405180910390fd5b826001600160a01b0316846001600160a01b031610610641578284610644565b83835b90925090506001600160a01b0382166106a4576040805162461bcd60e51b815260206004820152601e60248201527f556e697377617056324c6962726172793a205a45524f5f414444524553530000604482015290519081900360640190fd5b9250929050565b6000806106ba856103e561074f565b905060006106c8828561074f565b905060006106e2836106dc886103e861074f565b906107bb565b90508082816106ed57fe5b04979650505050505050565b80820382811115610749576040805162461bcd60e51b8152602060048201526015602482015274426f72696e674d6174683a20556e646572666c6f7760581b604482015290519081900360640190fd5b92915050565b600081158061076a5750508082028282828161076757fe5b04145b610749576040805162461bcd60e51b815260206004820152601860248201527f426f72696e674d6174683a204d756c204f766572666c6f770000000000000000604482015290519081900360640190fd5b81810181811015610749576040805162461bcd60e51b815260206004820152601860248201527f426f72696e674d6174683a20416464204f766572666c6f770000000000000000604482015290519081900360640190fdfe556e697377617056324c6962726172793a204944454e544943414c5f414444524553534553a26469706673582212208f10e34e41179031897fc34046abd6b52b5e0058f9f83e7209e6a7c3034e227164736f6c634300060c0033",
  "devdoc": {
    "kind": "dev",
    "methods": {},
    "version": 1
  },
  "userdoc": {
    "kind": "user",
    "methods": {},
    "version": 1
  },
  "storageLayout": {
    "storage": [],
    "types": null
  }
}