{
  "address": "0xC9faCFA2fC50C9A30C77a2ad14E2dB107d591918",
  "abi": [
    {
      "inputs": [],
      "name": "AVAX_USD",
      "outputs": [
        {
          "internalType": "contract IAggregator",
          "name": "",
          "type": "address"
        }
      ],
      "stateMutability": "view",
      "type": "function"
    },
    {
      "inputs": [],
      "name": "PERIOD",
      "outputs": [
        {
          "internalType": "uint256",
          "name": "",
          "type": "uint256"
        }
      ],
      "stateMutability": "view",
      "type": "function"
    },
    {
      "inputs": [],
      "name": "WMEMO",
      "outputs": [
        {
          "internalType": "contract IWMEMO",
          "name": "",
          "type": "address"
        }
      ],
      "stateMutability": "view",
      "type": "function"
    },
    {
      "inputs": [
        {
          "internalType": "uint32",
          "name": "blockTimestamp",
          "type": "uint32"
        }
      ],
      "name": "_get",
      "outputs": [
        {
          "internalType": "uint256",
          "name": "",
          "type": "uint256"
        }
      ],
      "stateMutability": "view",
      "type": "function"
    },
    {
      "inputs": [
        {
          "internalType": "bytes",
          "name": "data",
          "type": "bytes"
        }
      ],
      "name": "get",
      "outputs": [
        {
          "internalType": "bool",
          "name": "",
          "type": "bool"
        },
        {
          "internalType": "uint256",
          "name": "",
          "type": "uint256"
        }
      ],
      "stateMutability": "nonpayable",
      "type": "function"
    },
    {
      "inputs": [
        {
          "internalType": "bytes",
          "name": "",
          "type": "bytes"
        }
      ],
      "name": "name",
      "outputs": [
        {
          "internalType": "string",
          "name": "",
          "type": "string"
        }
      ],
      "stateMutability": "view",
      "type": "function"
    },
    {
      "inputs": [],
      "name": "pair",
      "outputs": [
        {
          "internalType": "contract IUniswapV2Pair",
          "name": "",
          "type": "address"
        }
      ],
      "stateMutability": "view",
      "type": "function"
    },
    {
      "inputs": [],
      "name": "pairInfo",
      "outputs": [
        {
          "internalType": "uint256",
          "name": "priceCumulativeLast",
          "type": "uint256"
        },
        {
          "internalType": "uint32",
          "name": "blockTimestampLast",
          "type": "uint32"
        },
        {
          "internalType": "uint144",
          "name": "priceAverage",
          "type": "uint144"
        }
      ],
      "stateMutability": "view",
      "type": "function"
    },
    {
      "inputs": [
        {
          "internalType": "bytes",
          "name": "data",
          "type": "bytes"
        }
      ],
      "name": "peek",
      "outputs": [
        {
          "internalType": "bool",
          "name": "",
          "type": "bool"
        },
        {
          "internalType": "uint256",
          "name": "",
          "type": "uint256"
        }
      ],
      "stateMutability": "view",
      "type": "function"
    },
    {
      "inputs": [
        {
          "internalType": "bytes",
          "name": "data",
          "type": "bytes"
        }
      ],
      "name": "peekSpot",
      "outputs": [
        {
          "internalType": "uint256",
          "name": "rate",
          "type": "uint256"
        }
      ],
      "stateMutability": "view",
      "type": "function"
    },
    {
      "inputs": [
        {
          "internalType": "bytes",
          "name": "",
          "type": "bytes"
        }
      ],
      "name": "symbol",
      "outputs": [
        {
          "internalType": "string",
          "name": "",
          "type": "string"
        }
      ],
      "stateMutability": "view",
      "type": "function"
    }
  ],
  "transactionHash": "0xec5bf1d848d2428a63d18f7cdc811a012065a94f75ed51fdf2a3bbf556ba62f8",
  "args": [],
  "solcInputHash": "15c0fb73b7997dc954372867f2c05da9",
  "bytecode": "0x608060405234801561001057600080fd5b50610ff2806100206000396000f3fe608060405234801561001057600080fd5b50600436106100a95760003560e01c8063d39bbef011610071578063d39bbef01461011c578063d568866c1461012f578063d6d7d52514610142578063e17c60cc14610163578063eeb8a8d31461016b578063fc2a5b1d1461017e576100a9565b80631ab2b74b146100ae5780634d032d8d146100cc578063a8aa1b31146100ec578063b4d1d795146100f4578063c699c4d6146100fc575b600080fd5b6100b6610195565b6040516100c39190610dea565b60405180910390f35b6100df6100da366004610db7565b6101ad565b6040516100c39190610dfe565b6100b6610304565b6100df61031c565b61010f61010a366004610ce6565b610322565b6040516100c39190610e07565b6100df61012a366004610ce6565b610345565b61010f61013d366004610ce6565b610555565b610155610150366004610ce6565b61057b565b6040516100c3929190610dda565b6100b6610806565b610155610179366004610ce6565b61081e565b610186610a0e565b6040516100c393929190610f6d565b730da67235dd5787d67955420c84ca1cecd4e5bb3b81565b60008073f64e1c5b6e17031f5504481ac8145f4c3eab49176001600160a01b0316635a3d54936040518163ffffffff1660e01b815260040160206040518083038186803b1580156101fd57600080fd5b505afa158015610211573d6000803e3d6000fd5b505050506040513d601f19601f820116820180604052508101906102359190610d53565b9050600080600073f64e1c5b6e17031f5504481ac8145f4c3eab49176001600160a01b0316630902f1ac6040518163ffffffff1660e01b815260040160606040518083038186803b15801561028957600080fd5b505afa15801561029d573d6000803e3d6000fd5b505050506040513d601f19601f820116820180604052508101906102c19190610d6b565b92509250925080860363ffffffff166102ec846001600160701b0316846001600160701b0316610a30565b516001600160e01b0316029390930195945050505050565b73f64e1c5b6e17031f5504481ac8145f4c3eab491781565b61025881565b604080518082019091526005815264774d454d4f60d81b60208201525b92915050565b600080600073f64e1c5b6e17031f5504481ac8145f4c3eab49176001600160a01b0316630902f1ac6040518163ffffffff1660e01b815260040160606040518083038186803b15801561039757600080fd5b505afa1580156103ab573d6000803e3d6000fd5b505050506040513d601f19601f820116820180604052508101906103cf9190610d6b565b506040516308d21a0760e11b81526001600160701b03928316945091169150730da67235dd5787d67955420c84ca1cecd4e5bb3b906311a4340e9061041c90633b9aca0090600401610dfe565b60206040518083038186803b15801561043457600080fd5b505afa158015610448573d6000803e3d6000fd5b505050506040513d601f19601f8201168201806040525081019061046c9190610d53565b610528730a77230d17318075983913bc2145db16c73661566001600160a01b03166350d25bcd6040518163ffffffff1660e01b815260040160206040518083038186803b1580156104bc57600080fd5b505afa1580156104d0573d6000803e3d6000fd5b505050506040513d601f19601f820116820180604052508101906104f49190610d53565b6105228461050a87670de0b6b3a7640000610b1c565b8161051157fe5b670de0b6b3a7640000919004610b1c565b90610b1c565b8161052f57fe5b046f085a36366eb71f04147a6da2b7f8647560351b8161054b57fe5b0495945050505050565b505060408051808201909152600a8152690774d454d4f20545741560b41b602082015290565b6001546000908190429063ffffffff166105be576001805463ffffffff191663ffffffff83161790556105ad816101ad565b600090815592508291506107ff9050565b60015463ffffffff90811682039061025890821610156105f95750506001805490925064010000000090046001600160901b031690506107ff565b6000610604836101ad565b6040516308d21a0760e11b8152909150730da67235dd5787d67955420c84ca1cecd4e5bb3b906311a4340e9061064290633b9aca0090600401610dfe565b60206040518083038186803b15801561065a57600080fd5b505afa15801561066e573d6000803e3d6000fd5b505050506040513d601f19601f820116820180604052508101906106929190610d53565b61077b730a77230d17318075983913bc2145db16c73661566001600160a01b03166350d25bcd6040518163ffffffff1660e01b815260040160206040518083038186803b1580156106e257600080fd5b505afa1580156106f6573d6000803e3d6000fd5b505050506040513d601f19601f8201168201806040525081019061071a9190610d53565b61052261076361075e670de0b6b3a764000060405180602001604052808a63ffffffff1660008001548b038161074c57fe5b046001600160e01b0316905290610b53565b610bb2565b670de0b6b3a7640000906001600160901b0316610b1c565b8161078257fe5b046f085a36366eb71f04147a6da2b7f8647560351b8161079e57fe5b6001805475ffffffffffffffffffffffffffffffffffff000000001916640100000000939092046001600160901b0390811684029290921763ffffffff191663ffffffff969096169590951780865560009390935593955090049091169150505b9250929050565b730a77230d17318075983913bc2145db16c736615681565b6001546000908190429063ffffffff1661083f5760008092509250506107ff565b60015463ffffffff908116820390610258908216101561087a5750506001805490925064010000000090046001600160901b031690506107ff565b6000610885836101ad565b6040516308d21a0760e11b8152909150600090730da67235dd5787d67955420c84ca1cecd4e5bb3b906311a4340e906108c690633b9aca0090600401610dfe565b60206040518083038186803b1580156108de57600080fd5b505afa1580156108f2573d6000803e3d6000fd5b505050506040513d601f19601f820116820180604052508101906109169190610d53565b6109d0730a77230d17318075983913bc2145db16c73661566001600160a01b03166350d25bcd6040518163ffffffff1660e01b815260040160206040518083038186803b15801561096657600080fd5b505afa15801561097a573d6000803e3d6000fd5b505050506040513d601f19601f8201168201806040525081019061099e9190610d53565b61052261076361075e670de0b6b3a764000060405180602001604052808b63ffffffff1660008001548c038161074c57fe5b816109d757fe5b046f085a36366eb71f04147a6da2b7f8647560351b816109f357fe5b60019a9190046001600160901b031698509650505050505050565b60005460015463ffffffff81169064010000000090046001600160901b031683565b610a38610cc1565b60008211610a615760405162461bcd60e51b8152600401610a5890610eff565b60405180910390fd5b82610a7b575060408051602081019091526000815261033f565b6001600160901b038311610ae257600082607085901b81610a9857fe5b0490506001600160e01b03811115610ac25760405162461bcd60e51b8152600401610a5890610ec8565b6040518060200160405280826001600160e01b031681525091505061033f565b6000610af384600160701b85610bb9565b90506001600160e01b03811115610ac25760405162461bcd60e51b8152600401610a5890610ec8565b6000811580610b3757505080820282828281610b3457fe5b04145b61033f5760405162461bcd60e51b8152600401610a5890610f36565b610b5b610cd3565b6000821580610b8157505082516001600160e01b031682810290838281610b7e57fe5b04145b610b9d5760405162461bcd60e51b8152600401610a5890610e5a565b60408051602081019091529081529392505050565b5160701c90565b6000806000610bc88686610c24565b9150915060008480610bd657fe5b868809905082811115610bea576001820391505b8083039250848210610c0e5760405162461bcd60e51b8152600401610a5890610e91565b610c19838387610c51565b979650505050505050565b6000808060001984860990508385029250828103915082811015610c49576001820391505b509250929050565b60008181038216808381610c6157fe5b049250808581610c6d57fe5b049450808160000381610c7c57fe5b60028581038087028203028087028203028087028203028087028203028087028203028087028203029586029003909402930460010193909302939093010292915050565b60408051602081019091526000815290565b6040518060200160405280600081525090565b60008060208385031215610cf8578182fd5b823567ffffffffffffffff80821115610d0f578384fd5b818501915085601f830112610d22578384fd5b813581811115610d30578485fd5b866020828501011115610d41578485fd5b60209290920196919550909350505050565b600060208284031215610d64578081fd5b5051919050565b600080600060608486031215610d7f578081fd5b8351610d8a81610f92565b6020850151909350610d9b81610f92565b6040850151909250610dac81610faa565b809150509250925092565b600060208284031215610dc8578081fd5b8135610dd381610faa565b9392505050565b9115158252602082015260400190565b6001600160a01b0391909116815260200190565b90815260200190565b6000602080835283518082850152825b81811015610e3357858101830151858201604001528201610e17565b81811115610e445783604083870101525b50601f01601f1916929092016040019392505050565b60208082526019908201527f4669786564506f696e743a3a6d756c3a206f766572666c6f7700000000000000604082015260600190565b6020808252601a908201527f46756c6c4d6174683a3a6d756c4469763a206f766572666c6f77000000000000604082015260600190565b6020808252601e908201527f4669786564506f696e743a3a6672616374696f6e3a206f766572666c6f770000604082015260600190565b6020808252601e908201527f4669786564506f696e743a3a6672616374696f6e3a2064697620627920300000604082015260600190565b60208082526018908201527f426f72696e674d6174683a204d756c204f766572666c6f770000000000000000604082015260600190565b92835263ffffffff9190911660208301526001600160901b0316604082015260600190565b6001600160701b0381168114610fa757600080fd5b50565b63ffffffff81168114610fa757600080fdfea26469706673582212205d58127df9bc8de1eb8c5d2856c47ae65cee0ad07e327713e2ce28ba8a91139f64736f6c634300060c0033",
  "devdoc": {
    "kind": "dev",
    "methods": {
      "get(bytes)": {
        "params": {
          "data": "Usually abi encoded, implementation specific data that contains information and arguments to & about the oracle. For example: (string memory collateralSymbol, string memory assetSymbol, uint256 division) = abi.decode(data, (string, string, uint256));"
        },
        "returns": {
          "_0": "success if no valid (recent) rate is available, return false else true.",
          "_1": "rate The rate of the requested asset / pair / pool."
        }
      },
      "name(bytes)": {
        "params": {
          "data": "Usually abi encoded, implementation specific data that contains information and arguments to & about the oracle. For example: (string memory collateralSymbol, string memory assetSymbol, uint256 division) = abi.decode(data, (string, string, uint256));"
        },
        "returns": {
          "_0": "(string) A human readable name about this oracle."
        }
      },
      "peek(bytes)": {
        "params": {
          "data": "Usually abi encoded, implementation specific data that contains information and arguments to & about the oracle. For example: (string memory collateralSymbol, string memory assetSymbol, uint256 division) = abi.decode(data, (string, string, uint256));"
        },
        "returns": {
          "_0": "success if no valid (recent) rate is available, return false else true.",
          "_1": "rate The rate of the requested asset / pair / pool."
        }
      },
      "peekSpot(bytes)": {
        "params": {
          "data": "Usually abi encoded, implementation specific data that contains information and arguments to & about the oracle. For example: (string memory collateralSymbol, string memory assetSymbol, uint256 division) = abi.decode(data, (string, string, uint256));"
        },
        "returns": {
          "rate": "The rate of the requested asset / pair / pool."
        }
      },
      "symbol(bytes)": {
        "params": {
          "data": "Usually abi encoded, implementation specific data that contains information and arguments to & about the oracle. For example: (string memory collateralSymbol, string memory assetSymbol, uint256 division) = abi.decode(data, (string, string, uint256));"
        },
        "returns": {
          "_0": "(string) A human readable symbol name about this oracle."
        }
      }
    },
    "version": 1
  },
  "userdoc": {
    "kind": "user",
    "methods": {
      "get(bytes)": {
        "notice": "Get the latest exchange rate."
      },
      "name(bytes)": {
        "notice": "Returns a human readable name about this oracle."
      },
      "peek(bytes)": {
        "notice": "Check the last exchange rate without any state changes."
      },
      "peekSpot(bytes)": {
        "notice": "Check the current spot exchange rate without any state changes. For oracles like TWAP this will be different from peek()."
      },
      "symbol(bytes)": {
        "notice": "Returns a human readable (short) name about this oracle."
      }
    },
    "version": 1
  },
  "storageLayout": {
    "storage": [
      {
        "astId": 18850,
        "contract": "contracts/oracles/wMEMOOracle.sol:wMemoOracle",
        "label": "pairInfo",
        "offset": 0,
        "slot": "0",
        "type": "t_struct(PairInfo)18848_storage"
      }
    ],
    "types": {
      "t_struct(PairInfo)18848_storage": {
        "encoding": "inplace",
        "label": "struct wMemoOracle.PairInfo",
        "members": [
          {
            "astId": 18843,
            "contract": "contracts/oracles/wMEMOOracle.sol:wMemoOracle",
            "label": "priceCumulativeLast",
            "offset": 0,
            "slot": "0",
            "type": "t_uint256"
          },
          {
            "astId": 18845,
            "contract": "contracts/oracles/wMEMOOracle.sol:wMemoOracle",
            "label": "blockTimestampLast",
            "offset": 0,
            "slot": "1",
            "type": "t_uint32"
          },
          {
            "astId": 18847,
            "contract": "contracts/oracles/wMEMOOracle.sol:wMemoOracle",
            "label": "priceAverage",
            "offset": 4,
            "slot": "1",
            "type": "t_uint144"
          }
        ],
        "numberOfBytes": "64"
      },
      "t_uint144": {
        "encoding": "inplace",
        "label": "uint144",
        "numberOfBytes": "18"
      },
      "t_uint256": {
        "encoding": "inplace",
        "label": "uint256",
        "numberOfBytes": "32"
      },
      "t_uint32": {
        "encoding": "inplace",
        "label": "uint32",
        "numberOfBytes": "4"
      }
    }
  }
}