{
  "address": "0x3BAB7207D4E27b5DE4A15D540B7297281B45Ed2a",
  "abi": [
    {
      "inputs": [],
      "stateMutability": "nonpayable",
      "type": "constructor"
    },
    {
      "inputs": [],
      "name": "MEMO",
      "outputs": [
        {
          "internalType": "contract IERC20",
          "name": "",
          "type": "address"
        }
      ],
      "stateMutability": "view",
      "type": "function"
    },
    {
      "inputs": [],
      "name": "MIM",
      "outputs": [
        {
          "internalType": "contract IERC20",
          "name": "",
          "type": "address"
        }
      ],
      "stateMutability": "view",
      "type": "function"
    },
    {
      "inputs": [],
      "name": "STAKING_MANAGER",
      "outputs": [
        {
          "internalType": "contract IStakingManager",
          "name": "",
          "type": "address"
        }
      ],
      "stateMutability": "view",
      "type": "function"
    },
    {
      "inputs": [],
      "name": "TIME",
      "outputs": [
        {
          "internalType": "contract ITIME",
          "name": "",
          "type": "address"
        }
      ],
      "stateMutability": "view",
      "type": "function"
    },
    {
      "inputs": [],
      "name": "WMEMO",
      "outputs": [
        {
          "internalType": "contract IWMEMO",
          "name": "",
          "type": "address"
        }
      ],
      "stateMutability": "view",
      "type": "function"
    },
    {
      "inputs": [],
      "name": "bentoBox",
      "outputs": [
        {
          "internalType": "contract IBentoBoxV1",
          "name": "",
          "type": "address"
        }
      ],
      "stateMutability": "view",
      "type": "function"
    },
    {
      "inputs": [
        {
          "internalType": "contract IERC20",
          "name": "fromToken",
          "type": "address"
        },
        {
          "internalType": "contract IERC20",
          "name": "toToken",
          "type": "address"
        },
        {
          "internalType": "address",
          "name": "recipient",
          "type": "address"
        },
        {
          "internalType": "uint256",
          "name": "shareToMin",
          "type": "uint256"
        },
        {
          "internalType": "uint256",
          "name": "shareFrom",
          "type": "uint256"
        }
      ],
      "name": "swap",
      "outputs": [
        {
          "internalType": "uint256",
          "name": "extraShare",
          "type": "uint256"
        },
        {
          "internalType": "uint256",
          "name": "shareReturned",
          "type": "uint256"
        }
      ],
      "stateMutability": "nonpayable",
      "type": "function"
    },
    {
      "inputs": [
        {
          "internalType": "contract IERC20",
          "name": "fromToken",
          "type": "address"
        },
        {
          "internalType": "contract IERC20",
          "name": "toToken",
          "type": "address"
        },
        {
          "internalType": "address",
          "name": "recipient",
          "type": "address"
        },
        {
          "internalType": "address",
          "name": "refundTo",
          "type": "address"
        },
        {
          "internalType": "uint256",
          "name": "shareFromSupplied",
          "type": "uint256"
        },
        {
          "internalType": "uint256",
          "name": "shareToExact",
          "type": "uint256"
        }
      ],
      "name": "swapExact",
      "outputs": [
        {
          "internalType": "uint256",
          "name": "shareUsed",
          "type": "uint256"
        },
        {
          "internalType": "uint256",
          "name": "shareReturned",
          "type": "uint256"
        }
      ],
      "stateMutability": "nonpayable",
      "type": "function"
    }
  ],
  "transactionHash": "0xdaef7526411b521bec0b377c7a7c0ecfdaafd7178a1d29c3fcd79c11278e3db7",
  "args": [],
  "solcInputHash": "487ecb47e7046802fb6450378f2ad5eb",
  "bytecode": "0x608060405234801561001057600080fd5b506040805163095ea7b360e01b8152734456b87af11e87e329ab7d7c7a246ed1ac2168b960048201526000196024820152905173136acd46c134e8269052c62a67042d6bdedde3c99163095ea7b39160448083019260209291908290030181600087803b15801561008057600080fd5b505af1158015610094573d6000803e3d6000fd5b505050506040513d60208110156100aa57600080fd5b50506108b3806100bb6000396000f3fe608060405234801561001057600080fd5b50600436106100885760003560e01c8063beae66371161005b578063beae663714610126578063c7eaef1e1461012e578063daec383d14610136578063e343fe121461013e57610088565b80631ab2b74b1461008d5780634622be90146100b15780636b2ace8714610116578063864a8efa1461011e575b600080fd5b610095610180565b604080516001600160a01b039092168252519081900360200190f35b6100fd600480360360c08110156100c757600080fd5b506001600160a01b0381358116916020810135821691604082013581169160608101359091169060808101359060a00135610198565b6040805192835260208301919091528051918290030190f35b6100956101a6565b6100956101be565b6100956101d6565b6100956101ee565b610095610206565b6100fd600480360360a081101561015457600080fd5b506001600160a01b0381358116916020810135821691604082013516906060810135906080013561021e565b730da67235dd5787d67955420c84ca1cecd4e5bb3b81565b600080965096945050505050565b73f4f46382c2be1603dc817551ff9a7b333ed1d18f81565b734456b87af11e87e329ab7d7c7a246ed1ac2168b981565b73b54f16fb19478766a268f172c9480f8da1a7c9c381565b73136acd46c134e8269052c62a67042d6bdedde3c981565b73130966628846bfd36ff31a822705796e8cb8c18d81565b6040805163097da6d360e41b81526001600160a01b03871660048201523060248201819052604482015260006064820181905260848201849052825190928392839273f4f46382c2be1603dc817551ff9a7b333ed1d18f926397da6d309260a4808201939182900301818787803b15801561029857600080fd5b505af11580156102ac573d6000803e3d6000fd5b505050506040513d60408110156102c257600080fd5b5051905060006102fa730da67235dd5787d67955420c84ca1cecd4e5bb3b734d308c46ea9f234ea515cc51f16fba776451cac8610612565b509050600080734d308c46ea9f234ea515cc51f16fba776451cac86001600160a01b0316630902f1ac6040518163ffffffff1660e01b815260040160606040518083038186803b15801561034d57600080fd5b505afa158015610361573d6000803e3d6000fd5b505050506040513d606081101561037757600080fd5b5080516020909101516dffffffffffffffffffffffffffff9182169350169050730da67235dd5787d67955420c84ca1cecd4e5bb3b6001600160a01b038416146103c25780826103c5565b81815b909250905060006103d78584846106f0565b9050600080730da67235dd5787d67955420c84ca1cecd4e5bb3b6001600160a01b038716146104085782600061040c565b6000835b604080516000808252602082019283905263022c0d9f60e01b8352602482018581526044830185905273f4f46382c2be1603dc817551ff9a7b333ed1d18f60648401819052608060848501908152845160a48601819052979950959750734d308c46ea9f234ea515cc51f16fba776451cac89663022c0d9f968a968a969395939493919260c48601928190849084905b838110156104b457818101518382015260200161049c565b50505050905090810190601f1680156104e15780820380516001836020036101000a031916815260200191505b5095505050505050600060405180830381600087803b15801561050357600080fd5b505af1158015610517573d6000803e3d6000fd5b5050505073f4f46382c2be1603dc817551ff9a7b333ed1d18f6001600160a01b03166302b9446c8e73f4f46382c2be1603dc817551ff9a7b333ed1d18f8f8760006040518663ffffffff1660e01b815260040180866001600160a01b03168152602001856001600160a01b03168152602001846001600160a01b03168152602001838152602001828152602001955050505050506040805180830381600087803b1580156105c457600080fd5b505af11580156105d8573d6000803e3d6000fd5b505050506040513d60408110156105ee57600080fd5b506020015197506105ff888c61073e565b9850505050505050509550959350505050565b600080826001600160a01b0316846001600160a01b031614156106665760405162461bcd60e51b81526004018080602001828103825260258152602001806108596025913960400191505060405180910390fd5b826001600160a01b0316846001600160a01b031610610686578284610689565b83835b90925090506001600160a01b0382166106e9576040805162461bcd60e51b815260206004820152601e60248201527f556e697377617056324c6962726172793a205a45524f5f414444524553530000604482015290519081900360640190fd5b9250929050565b6000806106ff856103e5610794565b9050600061070d8285610794565b9050600061072783610721886103e8610794565b90610800565b905080828161073257fe5b04979650505050505050565b8082038281111561078e576040805162461bcd60e51b8152602060048201526015602482015274426f72696e674d6174683a20556e646572666c6f7760581b604482015290519081900360640190fd5b92915050565b60008115806107af575050808202828282816107ac57fe5b04145b61078e576040805162461bcd60e51b815260206004820152601860248201527f426f72696e674d6174683a204d756c204f766572666c6f770000000000000000604482015290519081900360640190fd5b8181018181101561078e576040805162461bcd60e51b815260206004820152601860248201527f426f72696e674d6174683a20416464204f766572666c6f770000000000000000604482015290519081900360640190fdfe556e697377617056324c6962726172793a204944454e544943414c5f414444524553534553a26469706673582212209668f90b4348e9695612200fae9f6162066b1a76bb4471467ff1860e100a3c5364736f6c634300060c0033",
  "devdoc": {
    "kind": "dev",
    "methods": {},
    "version": 1
  },
  "userdoc": {
    "kind": "user",
    "methods": {
      "swap(address,address,address,uint256,uint256)": {
        "notice": "Withdraws 'amountFrom' of token 'from' from the BentoBox account for this swapper. Swaps it for at least 'amountToMin' of token 'to'. Transfers the swapped tokens of 'to' into the BentoBox using a plain ERC20 transfer. Returns the amount of tokens 'to' transferred to BentoBox. (The BentoBox skim function will be used by the caller to get the swapped funds)."
      },
      "swapExact(address,address,address,address,uint256,uint256)": {
        "notice": "Calculates the amount of token 'from' needed to complete the swap (amountFrom), this should be less than or equal to amountFromMax. Withdraws 'amountFrom' of token 'from' from the BentoBox account for this swapper. Swaps it for exactly 'exactAmountTo' of token 'to'. Transfers the swapped tokens of 'to' into the BentoBox using a plain ERC20 transfer. Transfers allocated, but unused 'from' tokens within the BentoBox to 'refundTo' (amountFromMax - amountFrom). Returns the amount of 'from' tokens withdrawn from BentoBox (amountFrom). (The BentoBox skim function will be used by the caller to get the swapped funds)."
      }
    },
    "version": 1
  },
  "storageLayout": {
    "storage": [],
    "types": null
  }
}