{
  "address": "0xF675bB0C1cde2179D19B2ea0E6e5e9D2053B3D87",
  "abi": [
    {
      "inputs": [],
      "name": "AVAX_USD",
      "outputs": [
        {
          "internalType": "contract IAggregator",
          "name": "",
          "type": "address"
        }
      ],
      "stateMutability": "view",
      "type": "function"
    },
    {
      "inputs": [],
      "name": "JOE",
      "outputs": [
        {
          "internalType": "contract IERC20",
          "name": "",
          "type": "address"
        }
      ],
      "stateMutability": "view",
      "type": "function"
    },
    {
      "inputs": [],
      "name": "JOE_AVAX",
      "outputs": [
        {
          "internalType": "contract IUniswapV2Pair",
          "name": "",
          "type": "address"
        }
      ],
      "stateMutability": "view",
      "type": "function"
    },
    {
      "inputs": [],
      "name": "PERIOD",
      "outputs": [
        {
          "internalType": "uint256",
          "name": "",
          "type": "uint256"
        }
      ],
      "stateMutability": "view",
      "type": "function"
    },
    {
      "inputs": [
        {
          "internalType": "uint32",
          "name": "blockTimestamp",
          "type": "uint32"
        }
      ],
      "name": "_get",
      "outputs": [
        {
          "internalType": "uint256",
          "name": "",
          "type": "uint256"
        }
      ],
      "stateMutability": "view",
      "type": "function"
    },
    {
      "inputs": [
        {
          "internalType": "bytes",
          "name": "data",
          "type": "bytes"
        }
      ],
      "name": "get",
      "outputs": [
        {
          "internalType": "bool",
          "name": "",
          "type": "bool"
        },
        {
          "internalType": "uint256",
          "name": "",
          "type": "uint256"
        }
      ],
      "stateMutability": "nonpayable",
      "type": "function"
    },
    {
      "inputs": [
        {
          "internalType": "bytes",
          "name": "",
          "type": "bytes"
        }
      ],
      "name": "name",
      "outputs": [
        {
          "internalType": "string",
          "name": "",
          "type": "string"
        }
      ],
      "stateMutability": "view",
      "type": "function"
    },
    {
      "inputs": [],
      "name": "pairInfo",
      "outputs": [
        {
          "internalType": "uint256",
          "name": "priceCumulativeLast",
          "type": "uint256"
        },
        {
          "internalType": "uint32",
          "name": "blockTimestampLast",
          "type": "uint32"
        },
        {
          "internalType": "uint144",
          "name": "priceAverage",
          "type": "uint144"
        }
      ],
      "stateMutability": "view",
      "type": "function"
    },
    {
      "inputs": [
        {
          "internalType": "bytes",
          "name": "data",
          "type": "bytes"
        }
      ],
      "name": "peek",
      "outputs": [
        {
          "internalType": "bool",
          "name": "",
          "type": "bool"
        },
        {
          "internalType": "uint256",
          "name": "",
          "type": "uint256"
        }
      ],
      "stateMutability": "view",
      "type": "function"
    },
    {
      "inputs": [
        {
          "internalType": "bytes",
          "name": "data",
          "type": "bytes"
        }
      ],
      "name": "peekSpot",
      "outputs": [
        {
          "internalType": "uint256",
          "name": "rate",
          "type": "uint256"
        }
      ],
      "stateMutability": "view",
      "type": "function"
    },
    {
      "inputs": [
        {
          "internalType": "bytes",
          "name": "",
          "type": "bytes"
        }
      ],
      "name": "symbol",
      "outputs": [
        {
          "internalType": "string",
          "name": "",
          "type": "string"
        }
      ],
      "stateMutability": "view",
      "type": "function"
    },
    {
      "inputs": [],
      "name": "xJOE",
      "outputs": [
        {
          "internalType": "contract IERC20",
          "name": "",
          "type": "address"
        }
      ],
      "stateMutability": "view",
      "type": "function"
    }
  ],
  "transactionHash": "0x2a7748278f381eac347a96cfdf3b9264ae2b0e7a8b182f6a8dd818fe7f447654",
  "args": [],
  "solcInputHash": "142c7e84bdf239f162566476a51b8eed",
  "bytecode": "0x608060405234801561001057600080fd5b50610f81806100206000396000f3fe608060405234801561001057600080fd5b50600436106100b45760003560e01c8063d6d7d52511610071578063d6d7d52514610145578063dc9df0e014610166578063e17c60cc1461016e578063eeb8a8d314610176578063fc2a5b1d14610189578063ffebad30146101a0576100b4565b80630c9342b3146100b95780634d032d8d146100d7578063b4d1d795146100f7578063c699c4d6146100ff578063d39bbef01461011f578063d568866c14610132575b600080fd5b6100c16101a8565b6040516100ce9190610d69565b60405180910390f35b6100ea6100e5366004610d46565b6101c0565b6040516100ce9190610ef3565b6100ea610317565b61011261010d366004610c75565b61031d565b6040516100ce9190610d8d565b6100ea61012d366004610c75565b61033f565b610112610140366004610c75565b6104b3565b610158610153366004610c75565b6104d8565b6040516100ce929190610d7d565b6100c16106c2565b6100c16106da565b610158610184366004610c75565b6106f2565b61019161084a565b6040516100ce93929190610efc565b6100c161086c565b7357319d41f71e81f3c65f2a47ca4e001ebafd4f3381565b60008073454e67025631c065d3cfad6d71e6892f74487a156001600160a01b0316635909c0d56040518163ffffffff1660e01b815260040160206040518083038186803b15801561021057600080fd5b505afa158015610224573d6000803e3d6000fd5b505050506040513d601f19601f820116820180604052508101906102489190610ce2565b9050600080600073454e67025631c065d3cfad6d71e6892f74487a156001600160a01b0316630902f1ac6040518163ffffffff1660e01b815260040160606040518083038186803b15801561029c57600080fd5b505afa1580156102b0573d6000803e3d6000fd5b505050506040513d601f19601f820116820180604052508101906102d49190610cfa565b92509250925080860363ffffffff166102ff836001600160701b0316856001600160701b0316610884565b516001600160e01b0316029390930195945050505050565b61025881565b604080518082019091526004815263784a4f4560e01b60208201525b92915050565b600080600073454e67025631c065d3cfad6d71e6892f74487a156001600160a01b0316630902f1ac6040518163ffffffff1660e01b815260040160606040518083038186803b15801561039157600080fd5b505afa1580156103a5573d6000803e3d6000fd5b505050506040513d601f19601f820116820180604052508101906103c99190610cfa565b506001600160701b031691506001600160701b03169150610491730a77230d17318075983913bc2145db16c73661566001600160a01b03166350d25bcd6040518163ffffffff1660e01b815260040160206040518083038186803b15801561043057600080fd5b505afa158015610444573d6000803e3d6000fd5b505050506040513d601f19601f820116820180604052508101906104689190610ce2565b61048b8461047e85670de0b6b3a7640000610970565b8161048557fe5b046109a7565b90610970565b6c47bf19673df52e37f2410011d1602c1b816104a957fe5b0495945050505050565b50506040805180820190915260098152680784a4f4520545741560bc1b602082015290565b6001546000908190429063ffffffff1661051b576001805463ffffffff191663ffffffff831617905561050a816101c0565b600090815592508291506106bb9050565b60015463ffffffff90811682039061025890821610156105565750506001805490925064010000000090046001600160901b031690506106bb565b6000610561836101c0565b9050610642730a77230d17318075983913bc2145db16c73661566001600160a01b03166350d25bcd6040518163ffffffff1660e01b815260040160206040518083038186803b1580156105b357600080fd5b505afa1580156105c7573d6000803e3d6000fd5b505050506040513d601f19601f820116820180604052508101906105eb9190610ce2565b61048b61063461062f670de0b6b3a764000060405180602001604052808963ffffffff1660008001548a038161061d57fe5b046001600160e01b0316905290610ae2565b610b41565b6001600160901b03166109a7565b6c47bf19673df52e37f2410011d1602c1b8161065a57fe5b6001805475ffffffffffffffffffffffffffffffffffff000000001916640100000000939092046001600160901b0390811684029290921763ffffffff191663ffffffff969096169590951780865560009390935593955090049091169150505b9250929050565b73454e67025631c065d3cfad6d71e6892f74487a1581565b730a77230d17318075983913bc2145db16c736615681565b6001546000908190429063ffffffff166107135760008092509250506106bb565b60015463ffffffff908116820390610258908216101561074e5750506001805490925064010000000090046001600160901b031690506106bb565b6000610759836101c0565b90506000610817730a77230d17318075983913bc2145db16c73661566001600160a01b03166350d25bcd6040518163ffffffff1660e01b815260040160206040518083038186803b1580156107ad57600080fd5b505afa1580156107c1573d6000803e3d6000fd5b505050506040513d601f19601f820116820180604052508101906107e59190610ce2565b61048b61063461062f670de0b6b3a764000060405180602001604052808a63ffffffff1660008001548b038161061d57fe5b6c47bf19673df52e37f2410011d1602c1b8161082f57fe5b60019a9190046001600160901b031698509650505050505050565b60005460015463ffffffff81169064010000000090046001600160901b031683565b736e84a6216ea6dacc71ee8e6b0a5b7322eebc0fdd81565b61088c610c50565b600082116108b55760405162461bcd60e51b81526004016108ac90610e85565b60405180910390fd5b826108cf5750604080516020810190915260008152610339565b6001600160901b03831161093657600082607085901b816108ec57fe5b0490506001600160e01b038111156109165760405162461bcd60e51b81526004016108ac90610e4e565b6040518060200160405280826001600160e01b0316815250915050610339565b600061094784600160701b85610b48565b90506001600160e01b038111156109165760405162461bcd60e51b81526004016108ac90610e4e565b600081158061098b5750508082028282828161098857fe5b04145b6103395760405162461bcd60e51b81526004016108ac90610ebc565b60007357319d41f71e81f3c65f2a47ca4e001ebafd4f336001600160a01b03166318160ddd6040518163ffffffff1660e01b815260040160206040518083038186803b1580156109f657600080fd5b505afa158015610a0a573d6000803e3d6000fd5b505050506040513d601f19601f82011682018060405250810190610a2e9190610ce2565b6040516370a0823160e01b8152610ad490736e84a6216ea6dacc71ee8e6b0a5b7322eebc0fdd906370a0823190610a7d907357319d41f71e81f3c65f2a47ca4e001ebafd4f3390600401610d69565b60206040518083038186803b158015610a9557600080fd5b505afa158015610aa9573d6000803e3d6000fd5b505050506040513d601f19601f82011682018060405250810190610acd9190610ce2565b8490610970565b81610adb57fe5b0492915050565b610aea610c62565b6000821580610b1057505082516001600160e01b031682810290838281610b0d57fe5b04145b610b2c5760405162461bcd60e51b81526004016108ac90610de0565b60408051602081019091529081529392505050565b5160701c90565b6000806000610b578686610bb3565b9150915060008480610b6557fe5b868809905082811115610b79576001820391505b8083039250848210610b9d5760405162461bcd60e51b81526004016108ac90610e17565b610ba8838387610be0565b979650505050505050565b6000808060001984860990508385029250828103915082811015610bd8576001820391505b509250929050565b60008181038216808381610bf057fe5b049250808581610bfc57fe5b049450808160000381610c0b57fe5b60028581038087028203028087028203028087028203028087028203028087028203028087028203029586029003909402930460010193909302939093010292915050565b60408051602081019091526000815290565b6040518060200160405280600081525090565b60008060208385031215610c87578182fd5b823567ffffffffffffffff80821115610c9e578384fd5b818501915085601f830112610cb1578384fd5b813581811115610cbf578485fd5b866020828501011115610cd0578485fd5b60209290920196919550909350505050565b600060208284031215610cf3578081fd5b5051919050565b600080600060608486031215610d0e578081fd5b8351610d1981610f21565b6020850151909350610d2a81610f21565b6040850151909250610d3b81610f39565b809150509250925092565b600060208284031215610d57578081fd5b8135610d6281610f39565b9392505050565b6001600160a01b0391909116815260200190565b9115158252602082015260400190565b6000602080835283518082850152825b81811015610db957858101830151858201604001528201610d9d565b81811115610dca5783604083870101525b50601f01601f1916929092016040019392505050565b60208082526019908201527f4669786564506f696e743a3a6d756c3a206f766572666c6f7700000000000000604082015260600190565b6020808252601a908201527f46756c6c4d6174683a3a6d756c4469763a206f766572666c6f77000000000000604082015260600190565b6020808252601e908201527f4669786564506f696e743a3a6672616374696f6e3a206f766572666c6f770000604082015260600190565b6020808252601e908201527f4669786564506f696e743a3a6672616374696f6e3a2064697620627920300000604082015260600190565b60208082526018908201527f426f72696e674d6174683a204d756c204f766572666c6f770000000000000000604082015260600190565b90815260200190565b92835263ffffffff9190911660208301526001600160901b0316604082015260600190565b6001600160701b0381168114610f3657600080fd5b50565b63ffffffff81168114610f3657600080fdfea264697066735822122009e21d1c174f6f795da62804e1a0b8bcc6b05df5b54e944f6c3b981a4b8b251964736f6c634300060c0033",
  "devdoc": {
    "kind": "dev",
    "methods": {
      "get(bytes)": {
        "params": {
          "data": "Usually abi encoded, implementation specific data that contains information and arguments to & about the oracle. For example: (string memory collateralSymbol, string memory assetSymbol, uint256 division) = abi.decode(data, (string, string, uint256));"
        },
        "returns": {
          "_0": "success if no valid (recent) rate is available, return false else true.",
          "_1": "rate The rate of the requested asset / pair / pool."
        }
      },
      "name(bytes)": {
        "params": {
          "data": "Usually abi encoded, implementation specific data that contains information and arguments to & about the oracle. For example: (string memory collateralSymbol, string memory assetSymbol, uint256 division) = abi.decode(data, (string, string, uint256));"
        },
        "returns": {
          "_0": "(string) A human readable name about this oracle."
        }
      },
      "peek(bytes)": {
        "params": {
          "data": "Usually abi encoded, implementation specific data that contains information and arguments to & about the oracle. For example: (string memory collateralSymbol, string memory assetSymbol, uint256 division) = abi.decode(data, (string, string, uint256));"
        },
        "returns": {
          "_0": "success if no valid (recent) rate is available, return false else true.",
          "_1": "rate The rate of the requested asset / pair / pool."
        }
      },
      "peekSpot(bytes)": {
        "params": {
          "data": "Usually abi encoded, implementation specific data that contains information and arguments to & about the oracle. For example: (string memory collateralSymbol, string memory assetSymbol, uint256 division) = abi.decode(data, (string, string, uint256));"
        },
        "returns": {
          "rate": "The rate of the requested asset / pair / pool."
        }
      },
      "symbol(bytes)": {
        "params": {
          "data": "Usually abi encoded, implementation specific data that contains information and arguments to & about the oracle. For example: (string memory collateralSymbol, string memory assetSymbol, uint256 division) = abi.decode(data, (string, string, uint256));"
        },
        "returns": {
          "_0": "(string) A human readable symbol name about this oracle."
        }
      }
    },
    "version": 1
  },
  "userdoc": {
    "kind": "user",
    "methods": {
      "get(bytes)": {
        "notice": "Get the latest exchange rate."
      },
      "name(bytes)": {
        "notice": "Returns a human readable name about this oracle."
      },
      "peek(bytes)": {
        "notice": "Check the last exchange rate without any state changes."
      },
      "peekSpot(bytes)": {
        "notice": "Check the current spot exchange rate without any state changes. For oracles like TWAP this will be different from peek()."
      },
      "symbol(bytes)": {
        "notice": "Returns a human readable (short) name about this oracle."
      }
    },
    "version": 1
  },
  "storageLayout": {
    "storage": [
      {
        "astId": 19504,
        "contract": "contracts/oracles/xJOEOracle.sol:XJoeOracle",
        "label": "pairInfo",
        "offset": 0,
        "slot": "0",
        "type": "t_struct(PairInfo)19502_storage"
      }
    ],
    "types": {
      "t_struct(PairInfo)19502_storage": {
        "encoding": "inplace",
        "label": "struct XJoeOracle.PairInfo",
        "members": [
          {
            "astId": 19497,
            "contract": "contracts/oracles/xJOEOracle.sol:XJoeOracle",
            "label": "priceCumulativeLast",
            "offset": 0,
            "slot": "0",
            "type": "t_uint256"
          },
          {
            "astId": 19499,
            "contract": "contracts/oracles/xJOEOracle.sol:XJoeOracle",
            "label": "blockTimestampLast",
            "offset": 0,
            "slot": "1",
            "type": "t_uint32"
          },
          {
            "astId": 19501,
            "contract": "contracts/oracles/xJOEOracle.sol:XJoeOracle",
            "label": "priceAverage",
            "offset": 4,
            "slot": "1",
            "type": "t_uint144"
          }
        ],
        "numberOfBytes": "64"
      },
      "t_uint144": {
        "encoding": "inplace",
        "label": "uint144",
        "numberOfBytes": "18"
      },
      "t_uint256": {
        "encoding": "inplace",
        "label": "uint256",
        "numberOfBytes": "32"
      },
      "t_uint32": {
        "encoding": "inplace",
        "label": "uint32",
        "numberOfBytes": "4"
      }
    }
  }
}