{
  "address": "0xf33Eb640773827AFBbB886Fa2d60B071d51D2D85",
  "abi": [
    {
      "inputs": [],
      "name": "AVAX_USD",
      "outputs": [
        {
          "internalType": "contract IAggregator",
          "name": "",
          "type": "address"
        }
      ],
      "stateMutability": "view",
      "type": "function"
    },
    {
      "inputs": [],
      "name": "JOE",
      "outputs": [
        {
          "internalType": "contract IERC20",
          "name": "",
          "type": "address"
        }
      ],
      "stateMutability": "view",
      "type": "function"
    },
    {
      "inputs": [],
      "name": "PERIOD",
      "outputs": [
        {
          "internalType": "uint256",
          "name": "",
          "type": "uint256"
        }
      ],
      "stateMutability": "view",
      "type": "function"
    },
    {
      "inputs": [
        {
          "internalType": "uint32",
          "name": "blockTimestamp",
          "type": "uint32"
        }
      ],
      "name": "_get",
      "outputs": [
        {
          "internalType": "uint256",
          "name": "",
          "type": "uint256"
        }
      ],
      "stateMutability": "view",
      "type": "function"
    },
    {
      "inputs": [
        {
          "internalType": "bytes",
          "name": "data",
          "type": "bytes"
        }
      ],
      "name": "get",
      "outputs": [
        {
          "internalType": "bool",
          "name": "",
          "type": "bool"
        },
        {
          "internalType": "uint256",
          "name": "",
          "type": "uint256"
        }
      ],
      "stateMutability": "nonpayable",
      "type": "function"
    },
    {
      "inputs": [
        {
          "internalType": "bytes",
          "name": "",
          "type": "bytes"
        }
      ],
      "name": "name",
      "outputs": [
        {
          "internalType": "string",
          "name": "",
          "type": "string"
        }
      ],
      "stateMutability": "view",
      "type": "function"
    },
    {
      "inputs": [],
      "name": "pair",
      "outputs": [
        {
          "internalType": "contract IUniswapV2Pair",
          "name": "",
          "type": "address"
        }
      ],
      "stateMutability": "view",
      "type": "function"
    },
    {
      "inputs": [],
      "name": "pairInfo",
      "outputs": [
        {
          "internalType": "uint256",
          "name": "priceCumulativeLast",
          "type": "uint256"
        },
        {
          "internalType": "uint32",
          "name": "blockTimestampLast",
          "type": "uint32"
        },
        {
          "internalType": "uint144",
          "name": "priceAverage",
          "type": "uint144"
        }
      ],
      "stateMutability": "view",
      "type": "function"
    },
    {
      "inputs": [
        {
          "internalType": "bytes",
          "name": "data",
          "type": "bytes"
        }
      ],
      "name": "peek",
      "outputs": [
        {
          "internalType": "bool",
          "name": "",
          "type": "bool"
        },
        {
          "internalType": "uint256",
          "name": "",
          "type": "uint256"
        }
      ],
      "stateMutability": "view",
      "type": "function"
    },
    {
      "inputs": [
        {
          "internalType": "bytes",
          "name": "data",
          "type": "bytes"
        }
      ],
      "name": "peekSpot",
      "outputs": [
        {
          "internalType": "uint256",
          "name": "rate",
          "type": "uint256"
        }
      ],
      "stateMutability": "view",
      "type": "function"
    },
    {
      "inputs": [
        {
          "internalType": "bytes",
          "name": "",
          "type": "bytes"
        }
      ],
      "name": "symbol",
      "outputs": [
        {
          "internalType": "string",
          "name": "",
          "type": "string"
        }
      ],
      "stateMutability": "view",
      "type": "function"
    },
    {
      "inputs": [],
      "name": "xJOE",
      "outputs": [
        {
          "internalType": "contract IERC20",
          "name": "",
          "type": "address"
        }
      ],
      "stateMutability": "view",
      "type": "function"
    }
  ],
  "transactionHash": "0xdbdabe3c0874b8faac96c377c1ca0ff75dd79c7c775b320fe04d25d361f97620",
  "args": [],
  "solcInputHash": "7854ec938b8614e39914b1c45b772f31",
  "bytecode": "0x608060405234801561001057600080fd5b506110d8806100206000396000f3fe608060405234801561001057600080fd5b50600436106100b45760003560e01c8063d568866c11610071578063d568866c1461013a578063d6d7d5251461014d578063e17c60cc1461016e578063eeb8a8d314610176578063fc2a5b1d14610189578063ffebad30146101a0576100b4565b80630c9342b3146100b95780634d032d8d146100d7578063a8aa1b31146100f7578063b4d1d795146100ff578063c699c4d614610107578063d39bbef014610127575b600080fd5b6100c16101a8565b6040516100ce9190610ec0565b60405180910390f35b6100ea6100e5366004610e9d565b6101c0565b6040516100ce919061104a565b6100c1610317565b6100ea61032f565b61011a610115366004610dcc565b610335565b6040516100ce9190610ee4565b6100ea610135366004610dcc565b610357565b61011a610148366004610dcc565b61057d565b61016061015b366004610dcc565b6105a2565b6040516100ce929190610ed4565b6100c16108c5565b610160610184366004610dcc565b6108dd565b610191610adc565b6040516100ce93929190611053565b6100c1610afe565b7357319d41f71e81f3c65f2a47ca4e001ebafd4f3381565b60008073454e67025631c065d3cfad6d71e6892f74487a156001600160a01b0316635a3d54936040518163ffffffff1660e01b815260040160206040518083038186803b15801561021057600080fd5b505afa158015610224573d6000803e3d6000fd5b505050506040513d601f19601f820116820180604052508101906102489190610e39565b9050600080600073454e67025631c065d3cfad6d71e6892f74487a156001600160a01b0316630902f1ac6040518163ffffffff1660e01b815260040160606040518083038186803b15801561029c57600080fd5b505afa1580156102b0573d6000803e3d6000fd5b505050506040513d601f19601f820116820180604052508101906102d49190610e51565b92509250925080860363ffffffff166102ff836001600160701b0316856001600160701b0316610b16565b516001600160e01b0316029390930195945050505050565b73454e67025631c065d3cfad6d71e6892f74487a1581565b61025881565b604080518082019091526004815263784a4f4560e01b60208201525b92915050565b600080600073454e67025631c065d3cfad6d71e6892f74487a156001600160a01b0316630902f1ac6040518163ffffffff1660e01b815260040160606040518083038186803b1580156103a957600080fd5b505afa1580156103bd573d6000803e3d6000fd5b505050506040513d601f19601f820116820180604052508101906103e19190610e51565b506001600160701b031691506001600160701b031691507357319d41f71e81f3c65f2a47ca4e001ebafd4f336001600160a01b03166318160ddd6040518163ffffffff1660e01b815260040160206040518083038186803b15801561044557600080fd5b505afa158015610459573d6000803e3d6000fd5b505050506040513d601f19601f8201168201806040525081019061047d9190610e39565b6040516370a0823160e01b815261055090736e84a6216ea6dacc71ee8e6b0a5b7322eebc0fdd906370a08231906104cc907357319d41f71e81f3c65f2a47ca4e001ebafd4f3390600401610ec0565b60206040518083038186803b1580156104e457600080fd5b505afa1580156104f8573d6000803e3d6000fd5b505050506040513d601f19601f8201168201806040525081019061051c9190610e39565b61054a8561053286670de0b6b3a7640000610c02565b8161053957fe5b670de0b6b3a7640000919004610c02565b90610c02565b8161055757fe5b046f085a36366eb71f04147a6da2b7f8647560351b8161057357fe5b0495945050505050565b50506040805180820190915260098152680784a4f4520545741560bc1b602082015290565b6001546000908190429063ffffffff166105e5576001805463ffffffff191663ffffffff83161790556105d4816101c0565b600090815592508291506108be9050565b60015463ffffffff90811682039061025890821610156106205750506001805490925064010000000090046001600160901b031690506108be565b600061062b836101c0565b90507357319d41f71e81f3c65f2a47ca4e001ebafd4f336001600160a01b03166318160ddd6040518163ffffffff1660e01b815260040160206040518083038186803b15801561067a57600080fd5b505afa15801561068e573d6000803e3d6000fd5b505050506040513d601f19601f820116820180604052508101906106b29190610e39565b6040516370a0823160e01b815261083a90736e84a6216ea6dacc71ee8e6b0a5b7322eebc0fdd906370a0823190610701907357319d41f71e81f3c65f2a47ca4e001ebafd4f3390600401610ec0565b60206040518083038186803b15801561071957600080fd5b505afa15801561072d573d6000803e3d6000fd5b505050506040513d601f19601f820116820180604052508101906107519190610e39565b61054a730a77230d17318075983913bc2145db16c73661566001600160a01b03166350d25bcd6040518163ffffffff1660e01b815260040160206040518083038186803b1580156107a157600080fd5b505afa1580156107b5573d6000803e3d6000fd5b505050506040513d601f19601f820116820180604052508101906107d99190610e39565b61054a61082261081d670de0b6b3a764000060405180602001604052808c63ffffffff1660008001548d038161080b57fe5b046001600160e01b0316905290610c39565b610c98565b670de0b6b3a7640000906001600160901b0316610c02565b8161084157fe5b046f085a36366eb71f04147a6da2b7f8647560351b8161085d57fe5b6001805475ffffffffffffffffffffffffffffffffffff000000001916640100000000939092046001600160901b0390811684029290921763ffffffff191663ffffffff969096169590951780865560009390935593955090049091169150505b9250929050565b730a77230d17318075983913bc2145db16c736615681565b6001546000908190429063ffffffff166108fe5760008092509250506108be565b60015463ffffffff90811682039061025890821610156109395750506001805490925064010000000090046001600160901b031690506108be565b6000610944836101c0565b905060007357319d41f71e81f3c65f2a47ca4e001ebafd4f336001600160a01b03166318160ddd6040518163ffffffff1660e01b815260040160206040518083038186803b15801561099557600080fd5b505afa1580156109a9573d6000803e3d6000fd5b505050506040513d601f19601f820116820180604052508101906109cd9190610e39565b6040516370a0823160e01b8152610a9e90736e84a6216ea6dacc71ee8e6b0a5b7322eebc0fdd906370a0823190610a1c907357319d41f71e81f3c65f2a47ca4e001ebafd4f3390600401610ec0565b60206040518083038186803b158015610a3457600080fd5b505afa158015610a48573d6000803e3d6000fd5b505050506040513d601f19601f82011682018060405250810190610a6c9190610e39565b61054a61082261081d670de0b6b3a764000060405180602001604052808b63ffffffff1660008001548c038161080b57fe5b81610aa557fe5b046f085a36366eb71f04147a6da2b7f8647560351b81610ac157fe5b60019a9190046001600160901b031698509650505050505050565b60005460015463ffffffff81169064010000000090046001600160901b031683565b736e84a6216ea6dacc71ee8e6b0a5b7322eebc0fdd81565b610b1e610da7565b60008211610b475760405162461bcd60e51b8152600401610b3e90610fdc565b60405180910390fd5b82610b615750604080516020810190915260008152610351565b6001600160901b038311610bc857600082607085901b81610b7e57fe5b0490506001600160e01b03811115610ba85760405162461bcd60e51b8152600401610b3e90610fa5565b6040518060200160405280826001600160e01b0316815250915050610351565b6000610bd984600160701b85610c9f565b90506001600160e01b03811115610ba85760405162461bcd60e51b8152600401610b3e90610fa5565b6000811580610c1d57505080820282828281610c1a57fe5b04145b6103515760405162461bcd60e51b8152600401610b3e90611013565b610c41610db9565b6000821580610c6757505082516001600160e01b031682810290838281610c6457fe5b04145b610c835760405162461bcd60e51b8152600401610b3e90610f37565b60408051602081019091529081529392505050565b5160701c90565b6000806000610cae8686610d0a565b9150915060008480610cbc57fe5b868809905082811115610cd0576001820391505b8083039250848210610cf45760405162461bcd60e51b8152600401610b3e90610f6e565b610cff838387610d37565b979650505050505050565b6000808060001984860990508385029250828103915082811015610d2f576001820391505b509250929050565b60008181038216808381610d4757fe5b049250808581610d5357fe5b049450808160000381610d6257fe5b60028581038087028203028087028203028087028203028087028203028087028203028087028203029586029003909402930460010193909302939093010292915050565b60408051602081019091526000815290565b6040518060200160405280600081525090565b60008060208385031215610dde578182fd5b823567ffffffffffffffff80821115610df5578384fd5b818501915085601f830112610e08578384fd5b813581811115610e16578485fd5b866020828501011115610e27578485fd5b60209290920196919550909350505050565b600060208284031215610e4a578081fd5b5051919050565b600080600060608486031215610e65578081fd5b8351610e7081611078565b6020850151909350610e8181611078565b6040850151909250610e9281611090565b809150509250925092565b600060208284031215610eae578081fd5b8135610eb981611090565b9392505050565b6001600160a01b0391909116815260200190565b9115158252602082015260400190565b6000602080835283518082850152825b81811015610f1057858101830151858201604001528201610ef4565b81811115610f215783604083870101525b50601f01601f1916929092016040019392505050565b60208082526019908201527f4669786564506f696e743a3a6d756c3a206f766572666c6f7700000000000000604082015260600190565b6020808252601a908201527f46756c6c4d6174683a3a6d756c4469763a206f766572666c6f77000000000000604082015260600190565b6020808252601e908201527f4669786564506f696e743a3a6672616374696f6e3a206f766572666c6f770000604082015260600190565b6020808252601e908201527f4669786564506f696e743a3a6672616374696f6e3a2064697620627920300000604082015260600190565b60208082526018908201527f426f72696e674d6174683a204d756c204f766572666c6f770000000000000000604082015260600190565b90815260200190565b92835263ffffffff9190911660208301526001600160901b0316604082015260600190565b6001600160701b038116811461108d57600080fd5b50565b63ffffffff8116811461108d57600080fdfea26469706673582212209839b0fe75af40acdcae58bd91cf4bb4879595bdd1040e693066446348d1d19364736f6c634300060c0033",
  "devdoc": {
    "kind": "dev",
    "methods": {
      "get(bytes)": {
        "params": {
          "data": "Usually abi encoded, implementation specific data that contains information and arguments to & about the oracle. For example: (string memory collateralSymbol, string memory assetSymbol, uint256 division) = abi.decode(data, (string, string, uint256));"
        },
        "returns": {
          "_0": "success if no valid (recent) rate is available, return false else true.",
          "_1": "rate The rate of the requested asset / pair / pool."
        }
      },
      "name(bytes)": {
        "params": {
          "data": "Usually abi encoded, implementation specific data that contains information and arguments to & about the oracle. For example: (string memory collateralSymbol, string memory assetSymbol, uint256 division) = abi.decode(data, (string, string, uint256));"
        },
        "returns": {
          "_0": "(string) A human readable name about this oracle."
        }
      },
      "peek(bytes)": {
        "params": {
          "data": "Usually abi encoded, implementation specific data that contains information and arguments to & about the oracle. For example: (string memory collateralSymbol, string memory assetSymbol, uint256 division) = abi.decode(data, (string, string, uint256));"
        },
        "returns": {
          "_0": "success if no valid (recent) rate is available, return false else true.",
          "_1": "rate The rate of the requested asset / pair / pool."
        }
      },
      "peekSpot(bytes)": {
        "params": {
          "data": "Usually abi encoded, implementation specific data that contains information and arguments to & about the oracle. For example: (string memory collateralSymbol, string memory assetSymbol, uint256 division) = abi.decode(data, (string, string, uint256));"
        },
        "returns": {
          "rate": "The rate of the requested asset / pair / pool."
        }
      },
      "symbol(bytes)": {
        "params": {
          "data": "Usually abi encoded, implementation specific data that contains information and arguments to & about the oracle. For example: (string memory collateralSymbol, string memory assetSymbol, uint256 division) = abi.decode(data, (string, string, uint256));"
        },
        "returns": {
          "_0": "(string) A human readable symbol name about this oracle."
        }
      }
    },
    "version": 1
  },
  "userdoc": {
    "kind": "user",
    "methods": {
      "get(bytes)": {
        "notice": "Get the latest exchange rate."
      },
      "name(bytes)": {
        "notice": "Returns a human readable name about this oracle."
      },
      "peek(bytes)": {
        "notice": "Check the last exchange rate without any state changes."
      },
      "peekSpot(bytes)": {
        "notice": "Check the current spot exchange rate without any state changes. For oracles like TWAP this will be different from peek()."
      },
      "symbol(bytes)": {
        "notice": "Returns a human readable (short) name about this oracle."
      }
    },
    "version": 1
  },
  "storageLayout": {
    "storage": [
      {
        "astId": 19504,
        "contract": "contracts/oracles/xJOEOracle.sol:xJoeOracle",
        "label": "pairInfo",
        "offset": 0,
        "slot": "0",
        "type": "t_struct(PairInfo)19502_storage"
      }
    ],
    "types": {
      "t_struct(PairInfo)19502_storage": {
        "encoding": "inplace",
        "label": "struct xJoeOracle.PairInfo",
        "members": [
          {
            "astId": 19497,
            "contract": "contracts/oracles/xJOEOracle.sol:xJoeOracle",
            "label": "priceCumulativeLast",
            "offset": 0,
            "slot": "0",
            "type": "t_uint256"
          },
          {
            "astId": 19499,
            "contract": "contracts/oracles/xJOEOracle.sol:xJoeOracle",
            "label": "blockTimestampLast",
            "offset": 0,
            "slot": "1",
            "type": "t_uint32"
          },
          {
            "astId": 19501,
            "contract": "contracts/oracles/xJOEOracle.sol:xJoeOracle",
            "label": "priceAverage",
            "offset": 4,
            "slot": "1",
            "type": "t_uint144"
          }
        ],
        "numberOfBytes": "64"
      },
      "t_uint144": {
        "encoding": "inplace",
        "label": "uint144",
        "numberOfBytes": "18"
      },
      "t_uint256": {
        "encoding": "inplace",
        "label": "uint256",
        "numberOfBytes": "32"
      },
      "t_uint32": {
        "encoding": "inplace",
        "label": "uint32",
        "numberOfBytes": "4"
      }
    }
  }
}