{
  "address": "0xFDeBd11f8f821B7Bf404DfaFD4d2bC83DCb8bB26",
  "abi": [
    {
      "inputs": [],
      "name": "AGLD",
      "outputs": [
        {
          "internalType": "address",
          "name": "",
          "type": "address"
        }
      ],
      "stateMutability": "view",
      "type": "function"
    },
    {
      "inputs": [],
      "name": "ETH_USD",
      "outputs": [
        {
          "internalType": "contract IAggregator",
          "name": "",
          "type": "address"
        }
      ],
      "stateMutability": "view",
      "type": "function"
    },
    {
      "inputs": [],
      "name": "WETH",
      "outputs": [
        {
          "internalType": "address",
          "name": "",
          "type": "address"
        }
      ],
      "stateMutability": "view",
      "type": "function"
    },
    {
      "inputs": [
        {
          "internalType": "bytes",
          "name": "",
          "type": "bytes"
        }
      ],
      "name": "get",
      "outputs": [
        {
          "internalType": "bool",
          "name": "",
          "type": "bool"
        },
        {
          "internalType": "uint256",
          "name": "",
          "type": "uint256"
        }
      ],
      "stateMutability": "view",
      "type": "function"
    },
    {
      "inputs": [
        {
          "internalType": "bytes",
          "name": "",
          "type": "bytes"
        }
      ],
      "name": "name",
      "outputs": [
        {
          "internalType": "string",
          "name": "",
          "type": "string"
        }
      ],
      "stateMutability": "pure",
      "type": "function"
    },
    {
      "inputs": [
        {
          "internalType": "bytes",
          "name": "",
          "type": "bytes"
        }
      ],
      "name": "peek",
      "outputs": [
        {
          "internalType": "bool",
          "name": "",
          "type": "bool"
        },
        {
          "internalType": "uint256",
          "name": "",
          "type": "uint256"
        }
      ],
      "stateMutability": "view",
      "type": "function"
    },
    {
      "inputs": [
        {
          "internalType": "bytes",
          "name": "data",
          "type": "bytes"
        }
      ],
      "name": "peekSpot",
      "outputs": [
        {
          "internalType": "uint256",
          "name": "rate",
          "type": "uint256"
        }
      ],
      "stateMutability": "view",
      "type": "function"
    },
    {
      "inputs": [],
      "name": "period",
      "outputs": [
        {
          "internalType": "uint32",
          "name": "",
          "type": "uint32"
        }
      ],
      "stateMutability": "view",
      "type": "function"
    },
    {
      "inputs": [],
      "name": "pool",
      "outputs": [
        {
          "internalType": "address",
          "name": "",
          "type": "address"
        }
      ],
      "stateMutability": "view",
      "type": "function"
    },
    {
      "inputs": [
        {
          "internalType": "bytes",
          "name": "",
          "type": "bytes"
        }
      ],
      "name": "symbol",
      "outputs": [
        {
          "internalType": "string",
          "name": "",
          "type": "string"
        }
      ],
      "stateMutability": "pure",
      "type": "function"
    }
  ],
  "transactionHash": "0x79daebd612c621a7a1946051dccd5527acc95185207d0f8436808daabb3b778a",
  "args": [],
  "solcInputHash": "5db6f98a8161ae227975d400590cb304",
  "bytecode": "0x608060405234801561001057600080fd5b506112aa806100206000396000f3fe608060405234801561001057600080fd5b506004361061009e5760003560e01c8063d39bbef011610066578063d39bbef014610265578063d568866c146102f2578063d6d7d525146103e4578063eeb8a8d31461047a578063ef78d4fd146105105761009e565b806316f0115b146100a35780636260f55b146100d757806387d29d1c1461010b578063ad5c46481461013f578063c699c4d614610173575b600080fd5b6100ab610534565b604051808273ffffffffffffffffffffffffffffffffffffffff16815260200191505060405180910390f35b6100df61054c565b604051808273ffffffffffffffffffffffffffffffffffffffff16815260200191505060405180910390f35b610113610564565b604051808273ffffffffffffffffffffffffffffffffffffffff16815260200191505060405180910390f35b61014761057c565b604051808273ffffffffffffffffffffffffffffffffffffffff16815260200191505060405180910390f35b6101ea6004803603602081101561018957600080fd5b81019080803590602001906401000000008111156101a657600080fd5b8201836020820111156101b857600080fd5b803590602001918460018302840111640100000000831117156101da57600080fd5b9091929391929390505050610594565b6040518080602001828103825283818151815260200191508051906020019080838360005b8381101561022a57808201518184015260208101905061020f565b50505050905090810190601f1680156102575780820380516001836020036101000a031916815260200191505b509250505060405180910390f35b6102dc6004803603602081101561027b57600080fd5b810190808035906020019064010000000081111561029857600080fd5b8201836020820111156102aa57600080fd5b803590602001918460018302840111640100000000831117156102cc57600080fd5b90919293919293905050506105d4565b6040518082815260200191505060405180910390f35b6103696004803603602081101561030857600080fd5b810190808035906020019064010000000081111561032557600080fd5b82018360208201111561033757600080fd5b8035906020019184600183028401116401000000008311171561035957600080fd5b90919293919293905050506105ec565b6040518080602001828103825283818151815260200191508051906020019080838360005b838110156103a957808201518184015260208101905061038e565b50505050905090810190601f1680156103d65780820380516001836020036101000a031916815260200191505b509250505060405180910390f35b61045b600480360360208110156103fa57600080fd5b810190808035906020019064010000000081111561041757600080fd5b82018360208201111561042957600080fd5b8035906020019184600183028401116401000000008311171561044b57600080fd5b909192939192939050505061062c565b6040518083151581526020018281526020019250505060405180910390f35b6104f16004803603602081101561049057600080fd5b81019080803590602001906401000000008111156104ad57600080fd5b8201836020820111156104bf57600080fd5b803590602001918460018302840111640100000000831117156104e157600080fd5b9091929391929390505050610644565b6040518083151581526020018281526020019250505060405180910390f35b61051861065c565b604051808263ffffffff16815260200191505060405180910390f35b735d752f322befb038991579972e912b02f61a3dda81565b735f4ec3df9cbd43714fe2740f5e3616155c5b841981565b7332353a6c91143bfd6c7d363b546e62a9a2489a2081565b73c02aaa39b223fe8d0a0e5c4f27ead9083c756cc281565b60606040518060400160405280600f81526020017f4c494e4b2f554e4956332041474c440000000000000000000000000000000000815250905092915050565b60006105e08383610644565b90508091505092915050565b60606040518060400160405280601481526020017f436861696e6c696e6b20554e4956332041474c44000000000000000000000000815250905092915050565b6000806001610639610662565b915091509250929050565b6000806001610651610662565b915091509250929050565b61025881565b600080610685735d752f322befb038991579972e912b02f61a3dda610258610791565b905060006106c582670de0b6b3a76400007332353a6c91143bfd6c7d363b546e62a9a2489a2073c02aaa39b223fe8d0a0e5c4f27ead9083c756cc2610b30565b905061076e735f4ec3df9cbd43714fe2740f5e3616155c5b841973ffffffffffffffffffffffffffffffffffffffff166350d25bcd6040518163ffffffff1660e01b815260040160206040518083038186803b15801561072457600080fd5b505afa158015610738573d6000803e3d6000fd5b505050506040513d602081101561074e57600080fd5b810190808051906020019092919050505082610d3390919063ffffffff16565b72047bf19673df52e37f2410011d1000000000008161078957fe5b049250505090565b6000808263ffffffff16141561080f576040517f08c379a00000000000000000000000000000000000000000000000000000000081526004018080602001828103825260028152602001807f425000000000000000000000000000000000000000000000000000000000000081525060200191505060405180910390fd5b6000600267ffffffffffffffff8111801561082957600080fd5b506040519080825280602002602001820160405280156108585781602001602082028036833780820191505090505b509050828160008151811061086957fe5b602002602001019063ffffffff16908163ffffffff168152505060008160018151811061089257fe5b602002602001019063ffffffff16908163ffffffff168152505060008473ffffffffffffffffffffffffffffffffffffffff1663883bdbfd836040518263ffffffff1660e01b81526004018080602001828103825283818151815260200191508051906020019060200280838360005b8381101561091d578082015181840152602081019050610902565b505050509050019250505060006040518083038186803b15801561094057600080fd5b505afa158015610954573d6000803e3d6000fd5b505050506040513d6000823e3d601f19601f82011682018060405250604081101561097e57600080fd5b810190808051604051939291908464010000000082111561099e57600080fd5b838201915060208201858111156109b457600080fd5b82518660208202830111640100000000821117156109d157600080fd5b8083526020830192505050908051906020019060200280838360005b83811015610a085780820151818401526020810190506109ed565b5050505090500160405260200180516040519392919084640100000000821115610a3157600080fd5b83820191506020820185811115610a4757600080fd5b8251866020820283011164010000000082111715610a6457600080fd5b8083526020830192505050908051906020019060200280838360005b83811015610a9b578082015181840152602081019050610a80565b50505050905001604052505050509050600081600081518110610aba57fe5b602002602001015182600181518110610acf57fe5b60200260200101510390508463ffffffff168160060b81610aec57fe5b05935060008160060b128015610b18575060008563ffffffff168260060b81610b1157fe5b0760060b14155b15610b27578380600190039450505b50505092915050565b600080610b3c86610d5f565b90506fffffffffffffffffffffffffffffffff80168173ffffffffffffffffffffffffffffffffffffffff1611610c4d5760008173ffffffffffffffffffffffffffffffffffffffff168273ffffffffffffffffffffffffffffffffffffffff160290508373ffffffffffffffffffffffffffffffffffffffff168573ffffffffffffffffffffffffffffffffffffffff1610610c0e57610c097801000000000000000000000000000000000000000000000000876fffffffffffffffffffffffffffffffff168361119a565b610c45565b610c4481876fffffffffffffffffffffffffffffffff16780100000000000000000000000000000000000000000000000061119a565b5b925050610d2a565b6000610c8f8273ffffffffffffffffffffffffffffffffffffffff168373ffffffffffffffffffffffffffffffffffffffff166801000000000000000061119a565b90508373ffffffffffffffffffffffffffffffffffffffff168573ffffffffffffffffffffffffffffffffffffffff1610610cf757610cf2700100000000000000000000000000000000876fffffffffffffffffffffffffffffffff168361119a565b610d26565b610d2581876fffffffffffffffffffffffffffffffff1670010000000000000000000000000000000061119a565b5b9250505b50949350505050565b600080831480610d505750818383850292508281610d4d57fe5b04145b610d5957600080fd5b92915050565b60008060008360020b12610d76578260020b610d7e565b8260020b6000035b90507ffffffffffffffffffffffffffffffffffffffffffffffffffffffffffff2761860000360020b811115610e1c576040517f08c379a00000000000000000000000000000000000000000000000000000000081526004018080602001828103825260018152602001807f540000000000000000000000000000000000000000000000000000000000000081525060200191505060405180910390fd5b600080600183161415610e4057700100000000000000000000000000000000610e52565b6ffffcb933bd6fad37aa2d162d1a5940015b70ffffffffffffffffffffffffffffffffff16905060006002831614610e8c5760806ffff97272373d413259a46990580e213a8202901c90505b60006004831614610eb15760806ffff2e50f5f656932ef12357cf3c7fdcc8202901c90505b60006008831614610ed65760806fffe5caca7e10e4e61c3624eaa0941cd08202901c90505b60006010831614610efb5760806fffcb9843d60f6159c9db58835c9266448202901c90505b60006020831614610f205760806fff973b41fa98c081472e6896dfb254c08202901c90505b60006040831614610f455760806fff2ea16466c96a3843ec78b326b528618202901c90505b60006080831614610f6a5760806ffe5dee046a99a2a811c461f1969c30538202901c90505b6000610100831614610f905760806ffcbe86c7900a88aedcffc83b479aa3a48202901c90505b6000610200831614610fb65760806ff987a7253ac413176f2b074cf7815e548202901c90505b6000610400831614610fdc5760806ff3392b0822b70005940c7a398e4b70f38202901c90505b60006108008316146110025760806fe7159475a2c29b7443b29c7fa6e889d98202901c90505b60006110008316146110285760806fd097f3bdfd2022b8845ad8f792aa58258202901c90505b600061200083161461104e5760806fa9f746462d870fdf8a65dc1f90e061e58202901c90505b60006140008316146110745760806f70d869a156d2a1b890bb3df62baf32f78202901c90505b600061800083161461109a5760806f31be135f97d08fd981231505542fcfa68202901c90505b6000620100008316146110c15760806f09aa508b5b7a84e1c677de54f3e99bc98202901c90505b6000620200008316146110e75760806e5d6af8dedb81196699c329225ee6048202901c90505b60006204000083161461110c5760806d2216e584f5fa1ea926041bedfe988202901c90505b60006208000083161461112f5760806b048a170391f7dc42444e8fa28202901c90505b60008460020b131561116857807fffffffffffffffffffffffffffffffffffffffffffffffffffffffffffffffff8161116457fe5b0490505b6000640100000000828161117857fe5b0614611185576001611188565b60005b60ff16602082901c0192505050919050565b6000806000801985870985870292508281108382030391505060008114156111d557600084116111c957600080fd5b8382049250505061126d565b8084116111e157600080fd5b600084868809905082811182039150808303925060008586600003169050808604955080840493506001818260000304019050808302841793506000600287600302189050808702600203810290508087026002038102905080870260020381029050808702600203810290508087026002038102905080870260020381029050808502955050505050505b939250505056fea2646970667358221220e1469236890174af410de5bf953e64b8118b103eefc99366f4ef034b973be98864736f6c63430007060033",
  "devdoc": {
    "kind": "dev",
    "methods": {
      "get(bytes)": {
        "params": {
          "data": "Usually abi encoded, implementation specific data that contains information and arguments to & about the oracle. For example: (string memory collateralSymbol, string memory assetSymbol, uint256 division) = abi.decode(data, (string, string, uint256));"
        },
        "returns": {
          "_0": "if no valid (recent) rate is available, return false else true.",
          "_1": "The rate of the requested asset / pair / pool."
        }
      },
      "name(bytes)": {
        "params": {
          "data": "Usually abi encoded, implementation specific data that contains information and arguments to & about the oracle. For example: (string memory collateralSymbol, string memory assetSymbol, uint256 division) = abi.decode(data, (string, string, uint256));"
        },
        "returns": {
          "_0": "(string) A human readable name about this oracle."
        }
      },
      "peek(bytes)": {
        "params": {
          "data": "Usually abi encoded, implementation specific data that contains information and arguments to & about the oracle. For example: (string memory collateralSymbol, string memory assetSymbol, uint256 division) = abi.decode(data, (string, string, uint256));"
        },
        "returns": {
          "_0": "if no valid (recent) rate is available, return false else true.",
          "_1": "The rate of the requested asset / pair / pool."
        }
      },
      "peekSpot(bytes)": {
        "params": {
          "data": "Usually abi encoded, implementation specific data that contains information and arguments to & about the oracle. For example: (string memory collateralSymbol, string memory assetSymbol, uint256 division) = abi.decode(data, (string, string, uint256));"
        },
        "returns": {
          "rate": "The rate of the requested asset / pair / pool."
        }
      },
      "symbol(bytes)": {
        "params": {
          "data": "Usually abi encoded, implementation specific data that contains information and arguments to & about the oracle. For example: (string memory collateralSymbol, string memory assetSymbol, uint256 division) = abi.decode(data, (string, string, uint256));"
        },
        "returns": {
          "_0": "(string) A human readable symbol name about this oracle."
        }
      }
    },
    "version": 1
  },
  "userdoc": {
    "kind": "user",
    "methods": {
      "get(bytes)": {
        "notice": "Get the latest exchange rate."
      },
      "name(bytes)": {
        "notice": "Returns a human readable name about this oracle."
      },
      "peek(bytes)": {
        "notice": "Check the last exchange rate without any state changes."
      },
      "peekSpot(bytes)": {
        "notice": "Check the current spot exchange rate without any state changes. For oracles like TWAP this will be different from peek()."
      },
      "symbol(bytes)": {
        "notice": "Returns a human readable (short) name about this oracle."
      }
    },
    "version": 1
  },
  "storageLayout": {
    "storage": [],
    "types": null
  }
}