{
  "address": "0xd404BEF05E9e256765440A1B9a6B56750c4cedEc",
  "abi": [
    {
      "inputs": [],
      "stateMutability": "nonpayable",
      "type": "constructor"
    },
    {
      "inputs": [],
      "name": "MIM3POOL",
      "outputs": [
        {
          "internalType": "contract CurvePool",
          "name": "",
          "type": "address"
        }
      ],
      "stateMutability": "view",
      "type": "function"
    },
    {
      "inputs": [
        {
          "internalType": "address",
          "name": "recipient",
          "type": "address"
        },
        {
          "internalType": "uint256",
          "name": "shareToMin",
          "type": "uint256"
        },
        {
          "internalType": "uint256",
          "name": "shareFrom",
          "type": "uint256"
        }
      ],
      "name": "swap",
      "outputs": [
        {
          "internalType": "uint256",
          "name": "extraShare",
          "type": "uint256"
        },
        {
          "internalType": "uint256",
          "name": "shareReturned",
          "type": "uint256"
        }
      ],
      "stateMutability": "nonpayable",
      "type": "function"
    },
    {
      "inputs": [
        {
          "internalType": "int256",
          "name": "amount0Delta",
          "type": "int256"
        },
        {
          "internalType": "int256",
          "name": "amount1Delta",
          "type": "int256"
        },
        {
          "internalType": "bytes",
          "name": "data",
          "type": "bytes"
        }
      ],
      "name": "uniswapV3SwapCallback",
      "outputs": [],
      "stateMutability": "nonpayable",
      "type": "function"
    }
  ],
  "transactionHash": "0x8c098b885007d9e2455b46b1453b8eb075bac1db28388d6a81e922346fd068d4",
  "args": [],
  "solcInputHash": "8ed46c3adf713ea78433dc3e0a7c4720",
  "bytecode": "0x608060405234801561001057600080fd5b506040805163095ea7b360e01b8152735a6a4d54456819380173272a5e8e9b9904bdf41b6004820152600019602482015290517399d8a9c45b2eca8864373a26d1459e3dff1e17f39163095ea7b39160448083019260209291908290030181600087803b15801561008057600080fd5b505af1158015610094573d6000803e3d6000fd5b505050506040513d60208110156100aa57600080fd5b5050610bd0806100bb6000396000f3fe608060405234801561001057600080fd5b50600436106100415760003560e01c806322a88c09146100465780639f1d0f5914610077578063fa461e33146100cf575b600080fd5b61004e61014d565b6040805173ffffffffffffffffffffffffffffffffffffffff9092168252519081900360200190f35b6100b66004803603606081101561008d57600080fd5b5073ffffffffffffffffffffffffffffffffffffffff8135169060208101359060400135610165565b6040805192835260208301919091528051918290030190f35b61014b600480360360608110156100e557600080fd5b81359160208101359181019060608101604082013564010000000081111561010c57600080fd5b82018360208201111561011e57600080fd5b8035906020019184600183028401116401000000008311171561014057600080fd5b509092509050610784565b005b735a6a4d54456819380173272a5e8e9b9904bdf41b81565b604080517f97da6d300000000000000000000000000000000000000000000000000000000081527399d8a9c45b2eca8864373a26d1459e3dff1e17f3600482015230602482018190526044820152600060648201819052608482018490528251909283928392839273f5bce5077908a1b7370b9ae04adc565ebd643966926397da6d309260a4808301939282900301818787803b15801561020557600080fd5b505af1158015610219573d6000803e3d6000fd5b505050506040513d604081101561022f57600080fd5b5051604080517f44ee19860000000000000000000000000000000000000000000000000000000081526000600482018190526003602483015260448201849052606482018190527306da0fd433c1a5d7a4faa01111c044910a184553608483015291519293509091735a6a4d54456819380173272a5e8e9b9904bdf41b916344ee19869160a480830192602092919082900301818787803b1580156102d357600080fd5b505af11580156102e7573d6000803e3d6000fd5b505050506040513d60208110156102fd57600080fd5b5051604080517f0902f1ac000000000000000000000000000000000000000000000000000000008152905191925060009182917306da0fd433c1a5d7a4faa01111c044910a18455391630902f1ac91600480820192606092909190829003018186803b15801561036c57600080fd5b505afa158015610380573d6000803e3d6000fd5b505050506040513d606081101561039657600080fd5b5080516020909101516dffffffffffffffffffffffffffff91821693501690506103c18382846107d4565b60408051600080825260208201928390527f022c0d9f00000000000000000000000000000000000000000000000000000000835260248201848152604483018290523060648401819052608060848501908152845160a48601819052969b507306da0fd433c1a5d7a4faa01111c044910a1845539a5063022c0d9f99508b9850929650949293909260c4850191908083838a5b8381101561046c578181015183820152602001610454565b50505050905090810190601f1680156104995780820380516001836020036101000a031916815260200191505b5095505050505050600060405180830381600087803b1580156104bb57600080fd5b505af11580156104cf573d6000803e3d6000fd5b5060009250829150819050735d752f322befb038991579972e912b02f61a3dda63128acb0873f5bce5077908a1b7370b9ae04adc565ebd6439668361051388610822565b876105325773fffd8963efd1fc6a506488495d951d5263988d25610539565b6401000276a45b89604051602001808281526020019150506040516020818303038152906040526040518663ffffffff1660e01b8152600401808673ffffffffffffffffffffffffffffffffffffffff16815260200185151581526020018481526020018373ffffffffffffffffffffffffffffffffffffffff16815260200180602001828103825283818151815260200191508051906020019080838360005b838110156105eb5781810151838201526020016105d3565b50505050905090810190601f1680156106185780820380516001836020036101000a031916815260200191505b5096505050505050506040805180830381600087803b15801561063a57600080fd5b505af115801561064e573d6000803e3d6000fd5b505050506040513d604081101561066457600080fd5b508051602090910151909250905060008361067f5782610681565b815b604080517f02b9446c0000000000000000000000000000000000000000000000000000000081527332353a6c91143bfd6c7d363b546e62a9a2489a20600482015273f5bce5077908a1b7370b9ae04adc565ebd6439666024820181905273ffffffffffffffffffffffffffffffffffffffff8e16604483015260009384036064830181905260848301859052835190955090936302b9446c9360a480850194919392918390030190829087803b15801561073a57600080fd5b505af115801561074e573d6000803e3d6000fd5b505050506040513d604081101561076457600080fd5b50602001519550610775868a610854565b96505050505050935093915050565b60008282602081101561079657600080fd5b503590506107cd73c02aaa39b223fe8d0a0e5c4f27ead9083c756cc2735d752f322befb038991579972e912b02f61a3dda836108cc565b5050505050565b6000806107e3856103e5610aa2565b905060006107f18285610aa2565b9050600061080b83610805886103e8610aa2565b90610b28565b905080828161081657fe5b04979650505050505050565b60007f8000000000000000000000000000000000000000000000000000000000000000821061085057600080fd5b5090565b808203828111156108c657604080517f08c379a000000000000000000000000000000000000000000000000000000000815260206004820152601560248201527f426f72696e674d6174683a20556e646572666c6f770000000000000000000000604482015290519081900360640190fd5b92915050565b6040805173ffffffffffffffffffffffffffffffffffffffff8481166024830152604480830185905283518084039091018152606490920183526020820180517bffffffffffffffffffffffffffffffffffffffffffffffffffffffff167fa9059cbb00000000000000000000000000000000000000000000000000000000178152925182516000946060949389169392918291908083835b602083106109a257805182527fffffffffffffffffffffffffffffffffffffffffffffffffffffffffffffffe09092019160209182019101610965565b6001836020036101000a0380198251168184511680821785525050505050509050019150506000604051808303816000865af19150503d8060008114610a04576040519150601f19603f3d011682016040523d82523d6000602084013e610a09565b606091505b5091509150818015610a37575080511580610a375750808060200190516020811015610a3457600080fd5b50515b6107cd57604080517f08c379a000000000000000000000000000000000000000000000000000000000815260206004820152601c60248201527f426f72696e6745524332303a205472616e73666572206661696c656400000000604482015290519081900360640190fd5b6000811580610abd57505080820282828281610aba57fe5b04145b6108c657604080517f08c379a000000000000000000000000000000000000000000000000000000000815260206004820152601860248201527f426f72696e674d6174683a204d756c204f766572666c6f770000000000000000604482015290519081900360640190fd5b818101818110156108c657604080517f08c379a000000000000000000000000000000000000000000000000000000000815260206004820152601860248201527f426f72696e674d6174683a20416464204f766572666c6f770000000000000000604482015290519081900360640190fdfea2646970667358221220e4ac24fde025d3ba75aa2a45e254e66556af9e1c624ea5fd7deb962c989211ba64736f6c634300060c0033"
}