{
  "address": "0x184a07c9CFD6165D6ACCDc373Eb00Bc5Cd8733cF",
  "abi": [
    {
      "inputs": [],
      "stateMutability": "nonpayable",
      "type": "constructor"
    },
    {
      "inputs": [],
      "name": "MIM3POOL",
      "outputs": [
        {
          "internalType": "contract CurvePool",
          "name": "",
          "type": "address"
        }
      ],
      "stateMutability": "view",
      "type": "function"
    },
    {
      "inputs": [],
      "name": "TETHER",
      "outputs": [
        {
          "internalType": "contract TetherToken",
          "name": "",
          "type": "address"
        }
      ],
      "stateMutability": "view",
      "type": "function"
    },
    {
      "inputs": [
        {
          "internalType": "contract IERC20",
          "name": "fromToken",
          "type": "address"
        },
        {
          "internalType": "contract IERC20",
          "name": "toToken",
          "type": "address"
        },
        {
          "internalType": "address",
          "name": "recipient",
          "type": "address"
        },
        {
          "internalType": "uint256",
          "name": "shareToMin",
          "type": "uint256"
        },
        {
          "internalType": "uint256",
          "name": "shareFrom",
          "type": "uint256"
        }
      ],
      "name": "swap",
      "outputs": [
        {
          "internalType": "uint256",
          "name": "extraShare",
          "type": "uint256"
        },
        {
          "internalType": "uint256",
          "name": "shareReturned",
          "type": "uint256"
        }
      ],
      "stateMutability": "nonpayable",
      "type": "function"
    },
    {
      "inputs": [
        {
          "internalType": "contract IERC20",
          "name": "fromToken",
          "type": "address"
        },
        {
          "internalType": "contract IERC20",
          "name": "toToken",
          "type": "address"
        },
        {
          "internalType": "address",
          "name": "recipient",
          "type": "address"
        },
        {
          "internalType": "address",
          "name": "refundTo",
          "type": "address"
        },
        {
          "internalType": "uint256",
          "name": "shareFromSupplied",
          "type": "uint256"
        },
        {
          "internalType": "uint256",
          "name": "shareToExact",
          "type": "uint256"
        }
      ],
      "name": "swapExact",
      "outputs": [
        {
          "internalType": "uint256",
          "name": "shareUsed",
          "type": "uint256"
        },
        {
          "internalType": "uint256",
          "name": "shareReturned",
          "type": "uint256"
        }
      ],
      "stateMutability": "nonpayable",
      "type": "function"
    },
    {
      "inputs": [
        {
          "internalType": "int256",
          "name": "amount0Delta",
          "type": "int256"
        },
        {
          "internalType": "int256",
          "name": "amount1Delta",
          "type": "int256"
        },
        {
          "internalType": "bytes",
          "name": "data",
          "type": "bytes"
        }
      ],
      "name": "uniswapV3SwapCallback",
      "outputs": [],
      "stateMutability": "nonpayable",
      "type": "function"
    }
  ],
  "transactionHash": "0xe923e44e1640a1083c233c3848c3a23d10df11e435e918c052560d646d00f28b",
  "args": [],
  "solcInputHash": "bfeda5ac8cde809992153071d24068dd",
  "bytecode": "0x608060405234801561001057600080fd5b506040805163095ea7b360e01b8152735a6a4d54456819380173272a5e8e9b9904bdf41b60048201526000196024820152905173dac17f958d2ee523a2206206994597c13d831ec79163095ea7b391604480830192600092919082900301818387803b15801561007f57600080fd5b505af1158015610093573d6000803e3d6000fd5b50505050610c70806100a66000396000f3fe608060405234801561001057600080fd5b50600436106100675760003560e01c806378e7e3d11161005057806378e7e3d11461010f578063e343fe1214610117578063fa461e331461016657610067565b806322a88c091461006c5780634622be901461009d575b600080fd5b6100746101e4565b6040805173ffffffffffffffffffffffffffffffffffffffff9092168252519081900360200190f35b6100f6600480360360c08110156100b357600080fd5b5073ffffffffffffffffffffffffffffffffffffffff81358116916020810135821691604082013581169160608101359091169060808101359060a001356101fc565b6040805192835260208301919091528051918290030190f35b61007461020a565b6100f6600480360360a081101561012d57600080fd5b5073ffffffffffffffffffffffffffffffffffffffff813581169160208101358216916040820135169060608101359060800135610222565b6101e26004803603606081101561017c57600080fd5b8135916020810135918101906060810160408201356401000000008111156101a357600080fd5b8201836020820111156101b557600080fd5b803590602001918460018302840111640100000000831117156101d757600080fd5b509092509050610824565b005b735a6a4d54456819380173272a5e8e9b9904bdf41b81565b600080965096945050505050565b73dac17f958d2ee523a2206206994597c13d831ec781565b604080517f97da6d3000000000000000000000000000000000000000000000000000000000815273ffffffffffffffffffffffffffffffffffffffff8716600482015230602482018190526044820152600060648201819052608482018490528251909283928392839273f5bce5077908a1b7370b9ae04adc565ebd643966926397da6d309260a4808301939282900301818787803b1580156102c457600080fd5b505af11580156102d8573d6000803e3d6000fd5b505050506040513d60408110156102ee57600080fd5b505190506001600080735d752f322befb038991579972e912b02f61a3dda63128acb087306da0fd433c1a5d7a4faa01111c044910a1845538561033088610874565b8761034f5773fffd8963efd1fc6a506488495d951d5263988d25610356565b6401000276a45b89604051602001808281526020019150506040516020818303038152906040526040518663ffffffff1660e01b8152600401808673ffffffffffffffffffffffffffffffffffffffff16815260200185151581526020018481526020018373ffffffffffffffffffffffffffffffffffffffff16815260200180602001828103825283818151815260200191508051906020019080838360005b838110156104085781810151838201526020016103f0565b50505050905090810190601f1680156104355780820380516001836020036101000a031916815260200191505b5096505050505050506040805180830381600087803b15801561045757600080fd5b505af115801561046b573d6000803e3d6000fd5b505050506040513d604081101561048157600080fd5b50805160209091015190925090508261049a578161049c565b805b6000039450505050506000807306da0fd433c1a5d7a4faa01111c044910a18455373ffffffffffffffffffffffffffffffffffffffff16630902f1ac6040518163ffffffff1660e01b815260040160606040518083038186803b15801561050257600080fd5b505afa158015610516573d6000803e3d6000fd5b505050506040513d606081101561052c57600080fd5b5080516020909101516dffffffffffffffffffffffffffff918216935016905060006105598484846108a6565b60408051600080825260208201928390527f022c0d9f00000000000000000000000000000000000000000000000000000000835260248201818152604483018590523060648401819052608060848501908152845160a486018190529697507306da0fd433c1a5d7a4faa01111c044910a1845539663022c0d9f96949589959394909390929160c4850191908083838b5b838110156106025781810151838201526020016105ea565b50505050905090810190601f16801561062f5780820380516001836020036101000a031916815260200191505b5095505050505050600060405180830381600087803b15801561065157600080fd5b505af1158015610665573d6000803e3d6000fd5b5050604080517f44ee198600000000000000000000000000000000000000000000000000000000815260036004820152600060248201819052604482018690526064820181905273f5bce5077908a1b7370b9ae04adc565ebd64396660848301529151919350735a6a4d54456819380173272a5e8e9b9904bdf41b92506344ee19869160a480830192602092919082900301818787803b15801561070857600080fd5b505af115801561071c573d6000803e3d6000fd5b505050506040513d602081101561073257600080fd5b5051604080517f02b9446c00000000000000000000000000000000000000000000000000000000815273ffffffffffffffffffffffffffffffffffffffff8e8116600483015273f5bce5077908a1b7370b9ae04adc565ebd64396660248301819052908e16604483015260648201849052600060848301819052835194955090936302b9446c9360a4808501949193918390030190829087803b1580156107d857600080fd5b505af11580156107ec573d6000803e3d6000fd5b505050506040513d604081101561080257600080fd5b50602001519550610813868a6108f4565b965050505050509550959350505050565b60008282602081101561083657600080fd5b5035905061086d7332353a6c91143bfd6c7d363b546e62a9a2489a20735d752f322befb038991579972e912b02f61a3dda8361096c565b5050505050565b60007f800000000000000000000000000000000000000000000000000000000000000082106108a257600080fd5b5090565b6000806108b5856103e5610b42565b905060006108c38285610b42565b905060006108dd836108d7886103e8610b42565b90610bc8565b90508082816108e857fe5b04979650505050505050565b8082038281111561096657604080517f08c379a000000000000000000000000000000000000000000000000000000000815260206004820152601560248201527f426f72696e674d6174683a20556e646572666c6f770000000000000000000000604482015290519081900360640190fd5b92915050565b6040805173ffffffffffffffffffffffffffffffffffffffff8481166024830152604480830185905283518084039091018152606490920183526020820180517bffffffffffffffffffffffffffffffffffffffffffffffffffffffff167fa9059cbb00000000000000000000000000000000000000000000000000000000178152925182516000946060949389169392918291908083835b60208310610a4257805182527fffffffffffffffffffffffffffffffffffffffffffffffffffffffffffffffe09092019160209182019101610a05565b6001836020036101000a0380198251168184511680821785525050505050509050019150506000604051808303816000865af19150503d8060008114610aa4576040519150601f19603f3d011682016040523d82523d6000602084013e610aa9565b606091505b5091509150818015610ad7575080511580610ad75750808060200190516020811015610ad457600080fd5b50515b61086d57604080517f08c379a000000000000000000000000000000000000000000000000000000000815260206004820152601c60248201527f426f72696e6745524332303a205472616e73666572206661696c656400000000604482015290519081900360640190fd5b6000811580610b5d57505080820282828281610b5a57fe5b04145b61096657604080517f08c379a000000000000000000000000000000000000000000000000000000000815260206004820152601860248201527f426f72696e674d6174683a204d756c204f766572666c6f770000000000000000604482015290519081900360640190fd5b8181018181101561096657604080517f08c379a000000000000000000000000000000000000000000000000000000000815260206004820152601860248201527f426f72696e674d6174683a20416464204f766572666c6f770000000000000000604482015290519081900360640190fdfea2646970667358221220103017b087336895a4d0b0ee9365ce388e16fd016598f540ab8215ee040750f164736f6c634300060c0033"
}