{
  "address": "0x24a76073Ab9131b25693F3b75dD1ce996fd3116c",
  "abi": [
    {
      "inputs": [],
      "name": "aUST",
      "outputs": [
        {
          "internalType": "contract IAggregator",
          "name": "",
          "type": "address"
        }
      ],
      "stateMutability": "view",
      "type": "function"
    },
    {
      "inputs": [
        {
          "internalType": "address",
          "name": "",
          "type": "address"
        },
        {
          "internalType": "bool",
          "name": "",
          "type": "bool"
        }
      ],
      "name": "exchangeRateOf",
      "outputs": [
        {
          "internalType": "uint256",
          "name": "",
          "type": "uint256"
        }
      ],
      "stateMutability": "view",
      "type": "function"
    }
  ],
  "transactionHash": "0x6542f9dcad71dd166381672d96370fc57f1ed211feb693592911a47b2dc499fa",
  "args": [],
  "solcInputHash": "77da55f8249d09967288423c5c580043",
  "bytecode": "0x608060405234801561001057600080fd5b50610350806100206000396000f3fe608060405234801561001057600080fd5b50600436106100365760003560e01c8063066f80cd1461003b578063cdd2193914610059575b600080fd5b610043610089565b60405161005091906101ad565b60405180910390f35b610073600480360381019061006e9190610243565b6100a1565b604051610080919061029c565b60405180910390f35b7373bb8a4220e5c7db3e73e4fcb8d7dcf2efe0480581565b60007373bb8a4220e5c7db3e73e4fcb8d7dcf2efe0480573ffffffffffffffffffffffffffffffffffffffff166350d25bcd6040518163ffffffff1660e01b8152600401602060405180830381865afa158015610102573d6000803e3d6000fd5b505050506040513d601f19601f8201168201806040525081019061012691906102ed565b905092915050565b600073ffffffffffffffffffffffffffffffffffffffff82169050919050565b6000819050919050565b600061017361016e6101698461012e565b61014e565b61012e565b9050919050565b600061018582610158565b9050919050565b60006101978261017a565b9050919050565b6101a78161018c565b82525050565b60006020820190506101c2600083018461019e565b92915050565b600080fd5b60006101d88261012e565b9050919050565b6101e8816101cd565b81146101f357600080fd5b50565b600081359050610205816101df565b92915050565b60008115159050919050565b6102208161020b565b811461022b57600080fd5b50565b60008135905061023d81610217565b92915050565b6000806040838503121561025a576102596101c8565b5b6000610268858286016101f6565b92505060206102798582860161022e565b9150509250929050565b6000819050919050565b61029681610283565b82525050565b60006020820190506102b1600083018461028d565b92915050565b6000819050919050565b6102ca816102b7565b81146102d557600080fd5b50565b6000815190506102e7816102c1565b92915050565b600060208284031215610303576103026101c8565b5b6000610311848285016102d8565b9150509291505056fea2646970667358221220510db006aafb3c1314bcfea0749434e81f257d1afb74cabe029939946609633b64736f6c634300080a0033",
  "devdoc": {
    "kind": "dev",
    "methods": {},
    "version": 1
  },
  "userdoc": {
    "kind": "user",
    "methods": {},
    "version": 1
  },
  "storageLayout": {
    "storage": [],
    "types": null
  }
}