{
  "address": "0x469a991a6bB8cbBfEe42E7aB846eDEef1bc0B3d3",
  "abi": [
    {
      "inputs": [
        {
          "internalType": "contract IBentoBoxV1",
          "name": "bentoBox_",
          "type": "address"
        },
        {
          "internalType": "contract IERC20",
          "name": "magicInternetMoney_",
          "type": "address"
        }
      ],
      "stateMutability": "nonpayable",
      "type": "constructor"
    },
    {
      "anonymous": false,
      "inputs": [
        {
          "indexed": false,
          "internalType": "uint128",
          "name": "accruedAmount",
          "type": "uint128"
        }
      ],
      "name": "LogAccrue",
      "type": "event"
    },
    {
      "anonymous": false,
      "inputs": [
        {
          "indexed": true,
          "internalType": "address",
          "name": "from",
          "type": "address"
        },
        {
          "indexed": true,
          "internalType": "address",
          "name": "to",
          "type": "address"
        },
        {
          "indexed": false,
          "internalType": "uint256",
          "name": "share",
          "type": "uint256"
        }
      ],
      "name": "LogAddCollateral",
      "type": "event"
    },
    {
      "anonymous": false,
      "inputs": [
        {
          "indexed": true,
          "internalType": "address",
          "name": "from",
          "type": "address"
        },
        {
          "indexed": true,
          "internalType": "address",
          "name": "to",
          "type": "address"
        },
        {
          "indexed": false,
          "internalType": "uint256",
          "name": "amount",
          "type": "uint256"
        },
        {
          "indexed": false,
          "internalType": "uint256",
          "name": "part",
          "type": "uint256"
        }
      ],
      "name": "LogBorrow",
      "type": "event"
    },
    {
      "anonymous": false,
      "inputs": [
        {
          "indexed": false,
          "internalType": "uint256",
          "name": "rate",
          "type": "uint256"
        }
      ],
      "name": "LogExchangeRate",
      "type": "event"
    },
    {
      "anonymous": false,
      "inputs": [
        {
          "indexed": true,
          "internalType": "address",
          "name": "newFeeTo",
          "type": "address"
        }
      ],
      "name": "LogFeeTo",
      "type": "event"
    },
    {
      "anonymous": false,
      "inputs": [
        {
          "indexed": true,
          "internalType": "address",
          "name": "from",
          "type": "address"
        },
        {
          "indexed": true,
          "internalType": "address",
          "name": "to",
          "type": "address"
        },
        {
          "indexed": false,
          "internalType": "uint256",
          "name": "share",
          "type": "uint256"
        }
      ],
      "name": "LogRemoveCollateral",
      "type": "event"
    },
    {
      "anonymous": false,
      "inputs": [
        {
          "indexed": true,
          "internalType": "address",
          "name": "from",
          "type": "address"
        },
        {
          "indexed": true,
          "internalType": "address",
          "name": "to",
          "type": "address"
        },
        {
          "indexed": false,
          "internalType": "uint256",
          "name": "amount",
          "type": "uint256"
        },
        {
          "indexed": false,
          "internalType": "uint256",
          "name": "part",
          "type": "uint256"
        }
      ],
      "name": "LogRepay",
      "type": "event"
    },
    {
      "anonymous": false,
      "inputs": [
        {
          "indexed": true,
          "internalType": "address",
          "name": "feeTo",
          "type": "address"
        },
        {
          "indexed": false,
          "internalType": "uint256",
          "name": "feesEarnedFraction",
          "type": "uint256"
        }
      ],
      "name": "LogWithdrawFees",
      "type": "event"
    },
    {
      "anonymous": false,
      "inputs": [
        {
          "indexed": true,
          "internalType": "address",
          "name": "previousOwner",
          "type": "address"
        },
        {
          "indexed": true,
          "internalType": "address",
          "name": "newOwner",
          "type": "address"
        }
      ],
      "name": "OwnershipTransferred",
      "type": "event"
    },
    {
      "inputs": [],
      "name": "accrue",
      "outputs": [],
      "stateMutability": "nonpayable",
      "type": "function"
    },
    {
      "inputs": [],
      "name": "accrueInfo",
      "outputs": [
        {
          "internalType": "uint64",
          "name": "lastAccrued",
          "type": "uint64"
        },
        {
          "internalType": "uint128",
          "name": "feesEarned",
          "type": "uint128"
        }
      ],
      "stateMutability": "view",
      "type": "function"
    },
    {
      "inputs": [
        {
          "internalType": "address",
          "name": "to",
          "type": "address"
        },
        {
          "internalType": "bool",
          "name": "skim",
          "type": "bool"
        },
        {
          "internalType": "uint256",
          "name": "share",
          "type": "uint256"
        }
      ],
      "name": "addCollateral",
      "outputs": [],
      "stateMutability": "nonpayable",
      "type": "function"
    },
    {
      "inputs": [],
      "name": "bentoBox",
      "outputs": [
        {
          "internalType": "contract IBentoBoxV1",
          "name": "",
          "type": "address"
        }
      ],
      "stateMutability": "view",
      "type": "function"
    },
    {
      "inputs": [
        {
          "internalType": "address",
          "name": "to",
          "type": "address"
        },
        {
          "internalType": "uint256",
          "name": "amount",
          "type": "uint256"
        }
      ],
      "name": "borrow",
      "outputs": [
        {
          "internalType": "uint256",
          "name": "part",
          "type": "uint256"
        },
        {
          "internalType": "uint256",
          "name": "share",
          "type": "uint256"
        }
      ],
      "stateMutability": "nonpayable",
      "type": "function"
    },
    {
      "inputs": [],
      "name": "claimOwnership",
      "outputs": [],
      "stateMutability": "nonpayable",
      "type": "function"
    },
    {
      "inputs": [],
      "name": "collateral",
      "outputs": [
        {
          "internalType": "contract IERC20",
          "name": "",
          "type": "address"
        }
      ],
      "stateMutability": "view",
      "type": "function"
    },
    {
      "inputs": [
        {
          "internalType": "uint8[]",
          "name": "actions",
          "type": "uint8[]"
        },
        {
          "internalType": "uint256[]",
          "name": "values",
          "type": "uint256[]"
        },
        {
          "internalType": "bytes[]",
          "name": "datas",
          "type": "bytes[]"
        }
      ],
      "name": "cook",
      "outputs": [
        {
          "internalType": "uint256",
          "name": "value1",
          "type": "uint256"
        },
        {
          "internalType": "uint256",
          "name": "value2",
          "type": "uint256"
        }
      ],
      "stateMutability": "payable",
      "type": "function"
    },
    {
      "inputs": [],
      "name": "exchangeRate",
      "outputs": [
        {
          "internalType": "uint256",
          "name": "",
          "type": "uint256"
        }
      ],
      "stateMutability": "view",
      "type": "function"
    },
    {
      "inputs": [],
      "name": "feeTo",
      "outputs": [
        {
          "internalType": "address",
          "name": "",
          "type": "address"
        }
      ],
      "stateMutability": "view",
      "type": "function"
    },
    {
      "inputs": [
        {
          "internalType": "bytes",
          "name": "data",
          "type": "bytes"
        }
      ],
      "name": "init",
      "outputs": [],
      "stateMutability": "payable",
      "type": "function"
    },
    {
      "inputs": [
        {
          "internalType": "address[]",
          "name": "users",
          "type": "address[]"
        },
        {
          "internalType": "uint256[]",
          "name": "maxBorrowParts",
          "type": "uint256[]"
        },
        {
          "internalType": "address",
          "name": "to",
          "type": "address"
        },
        {
          "internalType": "contract ISwapper",
          "name": "swapper",
          "type": "address"
        }
      ],
      "name": "liquidate",
      "outputs": [],
      "stateMutability": "nonpayable",
      "type": "function"
    },
    {
      "inputs": [],
      "name": "magicInternetMoney",
      "outputs": [
        {
          "internalType": "contract IERC20",
          "name": "",
          "type": "address"
        }
      ],
      "stateMutability": "view",
      "type": "function"
    },
    {
      "inputs": [],
      "name": "masterContract",
      "outputs": [
        {
          "internalType": "contract CauldronLowRiskV1",
          "name": "",
          "type": "address"
        }
      ],
      "stateMutability": "view",
      "type": "function"
    },
    {
      "inputs": [],
      "name": "oracle",
      "outputs": [
        {
          "internalType": "contract IOracle",
          "name": "",
          "type": "address"
        }
      ],
      "stateMutability": "view",
      "type": "function"
    },
    {
      "inputs": [],
      "name": "oracleData",
      "outputs": [
        {
          "internalType": "bytes",
          "name": "",
          "type": "bytes"
        }
      ],
      "stateMutability": "view",
      "type": "function"
    },
    {
      "inputs": [],
      "name": "owner",
      "outputs": [
        {
          "internalType": "address",
          "name": "",
          "type": "address"
        }
      ],
      "stateMutability": "view",
      "type": "function"
    },
    {
      "inputs": [],
      "name": "pendingOwner",
      "outputs": [
        {
          "internalType": "address",
          "name": "",
          "type": "address"
        }
      ],
      "stateMutability": "view",
      "type": "function"
    },
    {
      "inputs": [
        {
          "internalType": "uint256",
          "name": "amount",
          "type": "uint256"
        }
      ],
      "name": "reduceSupply",
      "outputs": [],
      "stateMutability": "nonpayable",
      "type": "function"
    },
    {
      "inputs": [
        {
          "internalType": "address",
          "name": "to",
          "type": "address"
        },
        {
          "internalType": "uint256",
          "name": "share",
          "type": "uint256"
        }
      ],
      "name": "removeCollateral",
      "outputs": [],
      "stateMutability": "nonpayable",
      "type": "function"
    },
    {
      "inputs": [
        {
          "internalType": "address",
          "name": "to",
          "type": "address"
        },
        {
          "internalType": "bool",
          "name": "skim",
          "type": "bool"
        },
        {
          "internalType": "uint256",
          "name": "part",
          "type": "uint256"
        }
      ],
      "name": "repay",
      "outputs": [
        {
          "internalType": "uint256",
          "name": "amount",
          "type": "uint256"
        }
      ],
      "stateMutability": "nonpayable",
      "type": "function"
    },
    {
      "inputs": [
        {
          "internalType": "address",
          "name": "newFeeTo",
          "type": "address"
        }
      ],
      "name": "setFeeTo",
      "outputs": [],
      "stateMutability": "nonpayable",
      "type": "function"
    },
    {
      "inputs": [],
      "name": "totalBorrow",
      "outputs": [
        {
          "internalType": "uint128",
          "name": "elastic",
          "type": "uint128"
        },
        {
          "internalType": "uint128",
          "name": "base",
          "type": "uint128"
        }
      ],
      "stateMutability": "view",
      "type": "function"
    },
    {
      "inputs": [],
      "name": "totalCollateralShare",
      "outputs": [
        {
          "internalType": "uint256",
          "name": "",
          "type": "uint256"
        }
      ],
      "stateMutability": "view",
      "type": "function"
    },
    {
      "inputs": [
        {
          "internalType": "address",
          "name": "newOwner",
          "type": "address"
        },
        {
          "internalType": "bool",
          "name": "direct",
          "type": "bool"
        },
        {
          "internalType": "bool",
          "name": "renounce",
          "type": "bool"
        }
      ],
      "name": "transferOwnership",
      "outputs": [],
      "stateMutability": "nonpayable",
      "type": "function"
    },
    {
      "inputs": [],
      "name": "updateExchangeRate",
      "outputs": [
        {
          "internalType": "bool",
          "name": "updated",
          "type": "bool"
        },
        {
          "internalType": "uint256",
          "name": "rate",
          "type": "uint256"
        }
      ],
      "stateMutability": "nonpayable",
      "type": "function"
    },
    {
      "inputs": [
        {
          "internalType": "address",
          "name": "",
          "type": "address"
        }
      ],
      "name": "userBorrowPart",
      "outputs": [
        {
          "internalType": "uint256",
          "name": "",
          "type": "uint256"
        }
      ],
      "stateMutability": "view",
      "type": "function"
    },
    {
      "inputs": [
        {
          "internalType": "address",
          "name": "",
          "type": "address"
        }
      ],
      "name": "userCollateralShare",
      "outputs": [
        {
          "internalType": "uint256",
          "name": "",
          "type": "uint256"
        }
      ],
      "stateMutability": "view",
      "type": "function"
    },
    {
      "inputs": [],
      "name": "withdrawFees",
      "outputs": [],
      "stateMutability": "nonpayable",
      "type": "function"
    }
  ],
  "transactionHash": "0x527ba24853b38f9f189f6d83f55410e88ac2e1cc259e5594d8d8620578d2af86",
  "args": [
    "0xF5BCE5077908a1b7370B9ae04AdC565EBd643966",
    "0x99D8a9C45b2ecA8864373A26D1459e3Dff1e17F3"
  ],
  "solcInputHash": "28266205490dc6769ff681a1853e95c0",
  "bytecode": "0x60e06040523480156200001157600080fd5b506040516200434938038062004349833981016040819052620000349162000099565b600080546001600160a01b0319163390811782556040519091907f8be0079c531659141344cd1fd0a4f28419497f9722a3daafe3b4186f6b6457e0908290a36001600160601b0319606092831b811660805290821b1660c05230901b60a052620000f0565b60008060408385031215620000ac578182fd5b8251620000b981620000d7565b6020840151909250620000cc81620000d7565b809150509250929050565b6001600160a01b0381168114620000ed57600080fd5b50565b60805160601c60a05160601c60c05160601c614160620001e96000398061080852806108cb52806112275280611584528061161f5280611bb15280611cf45280611dba5280611e2b528061222f52806122df528061250552806125c752508061071b52806114815280611e715250806107d3528061089e5280610df15280610fb9528061109152806111f852806113c05280611557528061171e528061183a5280611b845280611c4b5280611d8d528061220052806122b0528061230b528061239552806124d0528061259a528061272c52806128ab52806129615280612a3d5280612bc25280612e025280612edf52506141606000f3fe6080604052600436106101c25760003560e01c806374645ff3116100f7578063912860c511610095578063d8dfeb4511610064578063d8dfeb451461049d578063e30c3978146104b2578063f46901ed146104c7578063f8ba4cff146104e7576101c2565b8063912860c5146104305780639b352ae114610450578063b27c0e7414610465578063cd446e2214610488576101c2565b80638285ef40116100d15780638285ef40146103b8578063860ffea1146103db578063876467f8146103fb5780638da5cb5b1461041b576101c2565b806374645ff3146103615780637dc0d1d0146103835780638062344414610398576101c2565b8063476343ee116101645780634ddf47d41161013e5780634ddf47d4146103115780634e71e0c814610324578063656f3d64146103395780636b2ace871461034c576101c2565b8063476343ee146102ae57806348e4163e146102c35780634b8a3529146102e3576101c2565b806315294c40116101a057806315294c40146102375780631c9e379b146102645780633ba0b9a914610284578063473e3ce714610299576101c2565b8063017e7e58146101c757806302ce728f146101f2578063078dfbe714610215575b600080fd5b3480156101d357600080fd5b506101dc6104fc565b6040516101e991906139e0565b60405180910390f35b3480156101fe57600080fd5b5061020761050b565b6040516101e9929190613a2d565b34801561022157600080fd5b506102356102303660046133e6565b6105e5565b005b34801561024357600080fd5b50610257610252366004613430565b6106d4565b6040516101e99190613fbe565b34801561027057600080fd5b5061025761027f366004613283565b6106f1565b34801561029057600080fd5b50610257610703565b3480156102a557600080fd5b50610257610709565b3480156102ba57600080fd5b5061023561070f565b3480156102cf57600080fd5b506102576102de366004613283565b610986565b3480156102ef57600080fd5b506103036102fe366004613470565b610998565b6040516101e9929190613fc7565b61023561031f366004613624565b6109e3565b34801561033057600080fd5b50610235610a98565b61030361034736600461352d565b610b25565b34801561035857600080fd5b506101dc6113be565b34801561036d57600080fd5b506103766113e2565b6040516101e99190613a3d565b34801561038f57600080fd5b506101dc611470565b3480156103a457600080fd5b506102356103b3366004613875565b61147f565b3480156103c457600080fd5b506103cd611689565b6040516101e9929190613fa4565b3480156103e757600080fd5b506102356103f6366004613430565b6116a3565b34801561040757600080fd5b50610235610416366004613470565b611784565b34801561042757600080fd5b506101dc6117be565b34801561043c57600080fd5b5061023561044b36600461349b565b6117cd565b34801561045c57600080fd5b506101dc611e29565b34801561047157600080fd5b5061047a611e4d565b6040516101e9929190613fd5565b34801561049457600080fd5b506101dc611e6f565b3480156104a957600080fd5b506101dc611e93565b3480156104be57600080fd5b506101dc611ea2565b3480156104d357600080fd5b506102356104e2366004613283565b611eb1565b3480156104f357600080fd5b50610235611f25565b6002546001600160a01b031681565b6004805460405163d6d7d52560e01b815260009283926001600160a01b03169163d6d7d5259161053e9160059101613a70565b6040805180830381600087803b15801561055757600080fd5b505af115801561056b573d6000803e3d6000fd5b505050506040513d601f19601f8201168201806040525081019061058f91906135c3565b909250905081156105dc57600a8190556040517f9f9192b5edb17356c524e08d9e025c8e2f6307e6ea52fb7968faa3081f51c3c8906105cf908390613fbe565b60405180910390a16105e1565b50600a545b9091565b6000546001600160a01b031633146106185760405162461bcd60e51b815260040161060f90613de7565b60405180910390fd5b81156106b3576001600160a01b0383161515806106325750805b61064e5760405162461bcd60e51b815260040161060f90613d0b565b600080546040516001600160a01b03808716939216917f8be0079c531659141344cd1fd0a4f28419497f9722a3daafe3b4186f6b6457e091a3600080546001600160a01b0385166001600160a01b0319918216179091556001805490911690556106cf565b600180546001600160a01b0319166001600160a01b0385161790555b505050565b60006106de611f25565b6106e984848461213f565b949350505050565b60086020526000908152604090205481565b600a5481565b60065481565b610717611f25565b60007f00000000000000000000000000000000000000000000000000000000000000006001600160a01b031663017e7e586040518163ffffffff1660e01b815260040160206040518083038186803b15801561077257600080fd5b505afa158015610786573d6000803e3d6000fd5b505050506040513d601f19601f820116820180604052508101906107aa919061329f565b600b54604051636d289ce560e11b8152919250600160401b90046001600160801b0316906000907f00000000000000000000000000000000000000000000000000000000000000006001600160a01b03169063da5139ca90610834907f00000000000000000000000000000000000000000000000000000000000000009086908690600401613c0c565b60206040518083038186803b15801561084c57600080fd5b505afa158015610860573d6000803e3d6000fd5b505050506040513d601f19601f820116820180604052508101906108849190613924565b604051633c6340f360e21b81529091506001600160a01b037f0000000000000000000000000000000000000000000000000000000000000000169063f18d03cc906108f9907f000000000000000000000000000000000000000000000000000000000000000090309088908790600401613b14565b600060405180830381600087803b15801561091357600080fd5b505af1158015610927573d6000803e3d6000fd5b5050600b8054600160401b600160c01b031916905550506040516001600160a01b038416907fbe641c3ffc44b2d6c184f023fa4ed7bda4b6ffa71e03b3c98ae0c776da1f17e790610979908590613fbe565b60405180910390a2505050565b60096020526000908152604090205481565b6000806109a3611f25565b6109ad84846123ff565b600a5491935091506109c090339061267d565b6109dc5760405162461bcd60e51b815260040161060f90613c66565b9250929050565b6003546001600160a01b031615610a0c5760405162461bcd60e51b815260040161060f90613e88565b610a18818301836137da565b80516003906000906004908290610a3690600590602088019061310c565b50815461010091820a6001600160a01b03818102199092169782160296909617909155825491900a8085021990911694841602939093179092556003541615159050610a945760405162461bcd60e51b815260040161060f90613ef6565b5050565b6001546001600160a01b0316338114610ac35760405162461bcd60e51b815260040161060f90613e1c565b600080546040516001600160a01b03808516939216917f8be0079c531659141344cd1fd0a4f28419497f9722a3daafe3b4186f6b6457e091a3600080546001600160a01b039092166001600160a01b0319928316179055600180549091169055565b600080610b30613186565b60005b888110156113825760008a8a83818110610b4957fe5b9050602002016020810190610b5e919061395f565b90508260200151158015610b755750600a8160ff16105b15610b8a57610b82611f25565b600160208401525b60ff8116600a1415610be4576000806000898986818110610ba757fe5b9050602002810190610bb99190613ff8565b810190610bc691906138bc565b925092509250610bdc82826103f6868c8c6127ea565b505050611379565b60ff811660021415610c44576000806000898986818110610c0157fe5b9050602002810190610c139190613ff8565b810190610c2091906138bc565b925092509250610c3b8282610c36868c8c6127ea565b61213f565b50505050611379565b60ff811660041415610ca157600080888885818110610c5f57fe5b9050602002810190610c719190613ff8565b810190610c7e919061388d565b91509150610c9681610c91848a8a6127ea565b612812565b505060018352611379565b60ff811660051415610d0457600080888885818110610cbc57fe5b9050602002810190610cce9190613ff8565b810190610cdb919061388d565b91509150610cf381610cee848a8a6127ea565b6123ff565b600187529097509550611379915050565b60ff8116600b1415610da3576000806000898986818110610d2157fe5b9050602002810190610d339190613ff8565b810190610d4091906135f0565b925092509250600080610d5161050b565b91509150841580610d5f5750815b8015610d6a57508381115b8015610d7d5750821580610d7d57508281115b610d995760405162461bcd60e51b815260040161060f90613f59565b5050505050611379565b60ff811660181415610e82576000806000806000808c8c89818110610dc457fe5b9050602002810190610dd69190613ff8565b810190610de391906132bb565b9550955095509550955095507f00000000000000000000000000000000000000000000000000000000000000006001600160a01b031663c0a47c938787878787876040518763ffffffff1660e01b8152600401610e45969594939291906139f4565b600060405180830381600087803b158015610e5f57600080fd5b505af1158015610e73573d6000803e3d6000fd5b50505050505050505050611379565b60ff811660141415610f0a57610f00878784818110610e9d57fe5b9050602002810190610eaf9190613ff8565b8080601f0160208091040260200160405190810160405280939291908181526020018383808284376000920191909152508d92508c9150869050818110610ef257fe5b905060200201358787612920565b9095509350611379565b60ff811660151415610f7557610f00878784818110610f2557fe5b9050602002810190610f379190613ff8565b8080601f016020809104026020016040519081016040528093929190818152602001838380828437600092019190915250899250889150612a169050565b60ff81166016141561104d576000806000898986818110610f9257fe5b9050602002810190610fa49190613ff8565b810190610fb19190613691565b9250925092507f00000000000000000000000000000000000000000000000000000000000000006001600160a01b031663f18d03cc843385610ff4868e8e6127ea565b6040518563ffffffff1660e01b81526004016110139493929190613b14565b600060405180830381600087803b15801561102d57600080fd5b505af1158015611041573d6000803e3d6000fd5b50505050505050611379565b60ff8116601714156110e157600060608089898681811061106a57fe5b905060200281019061107c9190613ff8565b8101906110899190613707565b9250925092507f00000000000000000000000000000000000000000000000000000000000000006001600160a01b0316630fca8843843385856040518563ffffffff1660e01b81526004016110139493929190613b72565b60ff8116601e14156111bb57606060006111638b8b8681811061110057fe5b905060200201358a8a8781811061111357fe5b90506020028101906111259190613ff8565b8080601f0160208091040260200160405190810160405280939291908181526020018383808284376000920191909152508c92508b9150612b049050565b915091508060ff166001141561118e57818060200190518101906111879190613924565b96506111b4565b8060ff16600214156111b457818060200190518101906111ae919061393c565b90975095505b5050611379565b60ff8116600614156112fc5760008787848181106111d557fe5b90506020028101906111e79190613ff8565b8101906111f49190613875565b90507f00000000000000000000000000000000000000000000000000000000000000006001600160a01b031663da5139ca7f0000000000000000000000000000000000000000000000000000000000000000611284611254858b8b6127ea565b604080518082019091526007546001600160801b038082168352600160801b909104166020820152906001612cba565b60016040518463ffffffff1660e01b81526004016112a493929190613c0c565b60206040518083038186803b1580156112bc57600080fd5b505afa1580156112d0573d6000803e3d6000fd5b505050506040513d601f19601f820116820180604052508101906112f49190613924565b955050611379565b60ff81166007141561137957600087878481811061131657fe5b90506020028101906113289190613ff8565b8101906113359190613875565b90506113756113458288886127ea565b604080518082019091526007546001600160801b038082168352600160801b909104166020820152906000612d5a565b9550505b50600101610b33565b508051156113b25761139633600a5461267d565b6113b25760405162461bcd60e51b815260040161060f90613c66565b50965096945050505050565b7f000000000000000000000000000000000000000000000000000000000000000081565b6005805460408051602060026001851615610100026000190190941693909304601f810184900484028201840190925281815292918301828280156114685780601f1061143d57610100808354040283529160200191611468565b820191906000526020600020905b81548152906001019060200180831161144b57829003601f168201915b505050505081565b6004546001600160a01b031681565b7f00000000000000000000000000000000000000000000000000000000000000006001600160a01b0316638da5cb5b6040518163ffffffff1660e01b815260040160206040518083038186803b1580156114d857600080fd5b505afa1580156114ec573d6000803e3d6000fd5b505050506040513d601f19601f82011682018060405250810190611510919061329f565b6001600160a01b0316336001600160a01b0316146115405760405162461bcd60e51b815260040161060f90613c9d565b60405163097da6d360e41b81526001600160a01b037f000000000000000000000000000000000000000000000000000000000000000016906397da6d30906115b5907f000000000000000000000000000000000000000000000000000000000000000090309081908790600090600401613b3e565b6040805180830381600087803b1580156115ce57600080fd5b505af11580156115e2573d6000803e3d6000fd5b505050506040513d601f19601f82011682018060405250810190611606919061393c565b5050604051630852cd8d60e31b81526001600160a01b037f000000000000000000000000000000000000000000000000000000000000000016906342966c6890611654908490600401613fbe565b600060405180830381600087803b15801561166e57600080fd5b505af1158015611682573d6000803e3d6000fd5b5050505050565b6007546001600160801b0380821691600160801b90041682565b6001600160a01b0383166000908152600860205260409020546116c69082612dd3565b6001600160a01b0384166000908152600860205260409020556006546116ec8183612dd3565b600655600354611707906001600160a01b0316838386612df6565b836001600160a01b03168361171c573361173e565b7f00000000000000000000000000000000000000000000000000000000000000005b6001600160a01b03167f9ed03113de523cebfe5e49d5f8e12894b1c0d42ce805990461726444c90eab87846040516117769190613fbe565b60405180910390a350505050565b61178c611f25565b6117968282612812565b6117a233600a5461267d565b610a945760405162461bcd60e51b815260040161060f90613c66565b6000546001600160a01b031681565b60006117d761050b565b9150506117e2611f25565b60008060006117ef613186565b50604080518082019091526007546001600160801b038082168352600160801b909104166020820152611820613186565b600354604051634ffe34db60e01b81526001600160a01b037f0000000000000000000000000000000000000000000000000000000000000000811692634ffe34db926118739291909116906004016139e0565b604080518083038186803b15801561188a57600080fd5b505afa15801561189e573d6000803e3d6000fd5b505050506040513d601f19601f820116820180604052508101906118c291906138e2565b905060005b8b811015611abd5760008d8d838181106118dd57fe5b90506020020160208101906118f29190613283565b90506118fe818961267d565b611ab4576001600160a01b038116600090815260096020526040812054808e8e8681811061192857fe5b905060200201351161194c578d8d8581811061194057fe5b9050602002013561194e565b805b915061195a8183612f53565b6001600160a01b0384166000908152600960205260408120919091559050611983868383612cba565b905060006119be69152d02c7e14af68000006119ac8d6119a68662019258612f76565b90612f76565b816119b357fe5b889190046000612d5a565b6001600160a01b0385166000908152600860205260409020549091506119e49082612f53565b6001600160a01b0380861660008181526008602052604090819020939093559151908f1691907f8ad4d3ff00da092c7ad9a573ea4f5f6a3dffc6712dc06d3f78f49b862297c40290611a37908590613fbe565b60405180910390a3836001600160a01b0316336001600160a01b03167fc8e512d8f188ca059984b5853d2bf653da902696b8512785b182b2c813789a6e8486604051611a84929190613fc7565b60405180910390a3611a968a82612dd3565b9950611aa28983612dd3565b9850611aae8884612dd3565b97505050505b506001016118c7565b5083611adb5760405162461bcd60e51b815260040161060f90613d79565b611af8611ae785612fad565b83516001600160801b031690612fda565b6001600160801b03168252611b23611b0f84612fad565b60208401516001600160801b031690612fda565b6001600160801b03908116602084018190528351600780546001600160801b03191691841691909117909216600160801b909102179055600654611b679086612f53565b600655604051636d289ce560e11b81526000906001600160a01b037f0000000000000000000000000000000000000000000000000000000000000000169063da5139ca90611bde907f0000000000000000000000000000000000000000000000000000000000000000908990600190600401613c0c565b60206040518083038186803b158015611bf657600080fd5b505afa158015611c0a573d6000803e3d6000fd5b505050506040513d601f19601f82011682018060405250810190611c2e9190613924565b600354604051633c6340f360e21b81529192506001600160a01b037f000000000000000000000000000000000000000000000000000000000000000081169263f18d03cc92611c8792169030908e908c90600401613b14565b600060405180830381600087803b158015611ca157600080fd5b505af1158015611cb5573d6000803e3d6000fd5b505050506001600160a01b03881615611d76576003546040516371a1ff0960e11b81526001600160a01b038a81169263e343fe1292611d2292909116907f000000000000000000000000000000000000000000000000000000000000000090339087908d90600401613b3e565b6040805180830381600087803b158015611d3b57600080fd5b505af1158015611d4f573d6000803e3d6000fd5b505050506040513d601f19601f82011682018060405250810190611d73919061393c565b50505b604051633c6340f360e21b81526001600160a01b037f0000000000000000000000000000000000000000000000000000000000000000169063f18d03cc90611de8907f000000000000000000000000000000000000000000000000000000000000000090339030908790600401613b14565b600060405180830381600087803b158015611e0257600080fd5b505af1158015611e16573d6000803e3d6000fd5b5050505050505050505050505050505050565b7f000000000000000000000000000000000000000000000000000000000000000081565b600b5467ffffffffffffffff811690600160401b90046001600160801b031682565b7f000000000000000000000000000000000000000000000000000000000000000081565b6003546001600160a01b031681565b6001546001600160a01b031681565b6000546001600160a01b03163314611edb5760405162461bcd60e51b815260040161060f90613de7565b600280546001600160a01b0319166001600160a01b0383169081179091556040517fcf1d3f17e521c635e0d20b8acba94ba170afc041d0546d46dafa09d3c9c19eb390600090a250565b611f2d613186565b5060408051808201909152600b5467ffffffffffffffff8116808352600160401b9091046001600160801b03166020830152420380611f6d57505061213d565b67ffffffffffffffff42168252611f82613186565b50604080518082019091526007546001600160801b038082168352600160801b90910416602082018190526120065750508051600b80546020909301516001600160801b0316600160401b02600160401b600160c01b031967ffffffffffffffff90931667ffffffffffffffff19909416939093179190911691909117905561213d565b6000612049670de0b6b3a764000061203c856119a6630f1c411487600001516001600160801b0316612f7690919063ffffffff16565b8161204357fe5b04612fad565b8251909150612061906001600160801b031682613009565b6001600160801b039081168352602085015161207e911682613009565b6001600160801b039081166020868101829052845160078054928701516001600160801b0319909316918516919091178416600160801b9290941691909102929092179091558451600b805467ffffffffffffffff191667ffffffffffffffff90921691909117600160401b600160c01b031916600160401b9092029190911790556040517fee527de5e142bcc7fe0eddc4b9a04816d73f6307dd74f9204585910d60a8c08390612130908390613f90565b60405180910390a1505050505b565b604080518082019091526007546001600160801b038082168352600160801b90910416602082015260009061217690836001613038565b8151600780546020948501516001600160801b03908116600160801b029381166001600160801b031990921691909117169190911790556001600160a01b038616600090815260099092526040909120549091506121d49083612f53565b6001600160a01b03808616600090815260096020526040808220939093559151636d289ce560e11b81527f00000000000000000000000000000000000000000000000000000000000000009091169063da5139ca9061225c907f0000000000000000000000000000000000000000000000000000000000000000908690600190600401613c0c565b60206040518083038186803b15801561227457600080fd5b505afa158015612288573d6000803e3d6000fd5b505050506040513d601f19601f820116820180604052508101906122ac9190613924565b90507f00000000000000000000000000000000000000000000000000000000000000006001600160a01b031663f18d03cc7f000000000000000000000000000000000000000000000000000000000000000086612309573361232b565b7f00000000000000000000000000000000000000000000000000000000000000005b30856040518563ffffffff1660e01b815260040161234c9493929190613b14565b600060405180830381600087803b15801561236657600080fd5b505af115801561237a573d6000803e3d6000fd5b50505050846001600160a01b03168461239357336123b5565b7f00000000000000000000000000000000000000000000000000000000000000005b6001600160a01b03167fc8e512d8f188ca059984b5853d2bf653da902696b8512785b182b2c813789a6e84866040516123ef929190613fc7565b60405180910390a3509392505050565b60008080620186a0612412856032612f76565b8161241957fe5b0490506124596124298583612dd3565b604080518082019091526007546001600160801b038082168352600160801b9091041660208201529060016130ad565b8151600780546020948501516001600160801b03908116600160801b029381166001600160801b0319909216919091171691909117905533600090815260099092526040909120549093506124ae9084612dd3565b33600090815260096020526040808220929092559051636d289ce560e11b81527f00000000000000000000000000000000000000000000000000000000000000006001600160a01b03169163da5139ca91612530917f000000000000000000000000000000000000000000000000000000000000000091899190600401613c0c565b60206040518083038186803b15801561254857600080fd5b505afa15801561255c573d6000803e3d6000fd5b505050506040513d601f19601f820116820180604052508101906125809190613924565b604051633c6340f360e21b81529092506001600160a01b037f0000000000000000000000000000000000000000000000000000000000000000169063f18d03cc906125f5907f00000000000000000000000000000000000000000000000000000000000000009030908a908890600401613b14565b600060405180830381600087803b15801561260f57600080fd5b505af1158015612623573d6000803e3d6000fd5b5050506001600160a01b0386169050337fb92cb6bca8e3270b9170930f03b17571e55791acdb1a0e9f339eec88bdb35e2461265e8785612dd3565b8660405161266d929190613fc7565b60405180910390a3509250929050565b6001600160a01b038216600090815260096020526040812054806126a55760019150506127e4565b6001600160a01b038416600090815260086020526040902054806126ce576000925050506127e4565b6126d6613186565b50604080518082019091526007546001600160801b03808216808452600160801b9092041660208301819052906127149087906119a6908790612f76565b8161271b57fe5b600354919004906001600160a01b037f00000000000000000000000000000000000000000000000000000000000000008116916356623118911661276c62015f906119a6886509184e72a000612f76565b60006040518463ffffffff1660e01b815260040161278c93929190613c0c565b60206040518083038186803b1580156127a457600080fd5b505afa1580156127b8573d6000803e3d6000fd5b505050506040513d601f19601f820116820180604052508101906127dc9190613924565b101593505050505b92915050565b60008084121561280a5760001984146128035781612805565b825b6106e9565b509192915050565b3360009081526008602052604090205461282c9082612f53565b336000908152600860205260409020556006546128499082612f53565b6006556040516001600160a01b0383169033907f8ad4d3ff00da092c7ad9a573ea4f5f6a3dffc6712dc06d3f78f49b862297c40290612889908590613fbe565b60405180910390a3600354604051633c6340f360e21b81526001600160a01b037f000000000000000000000000000000000000000000000000000000000000000081169263f18d03cc926128ea929190911690309087908790600401613b14565b600060405180830381600087803b15801561290457600080fd5b505af1158015612918573d6000803e3d6000fd5b505050505050565b6000806000806000808980602001905181019061293d91906136c0565b93509350935093506129508289896127ea565b915061295d8189896127ea565b90507f00000000000000000000000000000000000000000000000000000000000000006001600160a01b03166302b9446c8a86338787876040518763ffffffff1660e01b81526004016129b4959493929190613b3e565b60408051808303818588803b1580156129cc57600080fd5b505af11580156129e0573d6000803e3d6000fd5b50505050506040513d601f19601f82011682018060405250810190612a05919061393c565b955095505050505094509492505050565b60008060008060008088806020019051810190612a3391906136c0565b93509350935093507f00000000000000000000000000000000000000000000000000000000000000006001600160a01b03166397da6d30853386612a78878e8e6127ea565b612a83878f8f6127ea565b6040518663ffffffff1660e01b8152600401612aa3959493929190613b3e565b6040805180830381600087803b158015612abc57600080fd5b505af1158015612ad0573d6000803e3d6000fd5b505050506040513d601f19601f82011682018060405250810190612af4919061393c565b9550955050505050935093915050565b60606000806060600080600089806020019051810190612b249190613328565b94509450945094509450828015612b39575081155b15612b67578389604051602001612b51929190613997565b6040516020818303038152906040529350612bc0565b82158015612b725750815b15612b8a578388604051602001612b51929190613997565b828015612b945750815b15612bc057838989604051602001612bae939291906139b9565b60405160208183030381529060405293505b7f00000000000000000000000000000000000000000000000000000000000000006001600160a01b0316856001600160a01b031614158015612c0b57506001600160a01b0385163014155b612c275760405162461bcd60e51b815260040161060f90613e51565b60006060866001600160a01b03168d87604051612c44919061397b565b60006040518083038185875af1925050503d8060008114612c81576040519150601f19603f3d011682016040523d82523d6000602084013e612c86565b606091505b509150915081612ca85760405162461bcd60e51b815260040161060f90613cd4565b9c919b50909950505050505050505050565b600083602001516001600160801b031660001415612cd9575081612d53565b602084015184516001600160801b0391821691612cf891869116612f76565b81612cff57fe5b049050818015612d4357508284600001516001600160801b0316612d3986602001516001600160801b031684612f7690919063ffffffff16565b81612d4057fe5b04105b15612d53576106e9816001612dd3565b9392505050565b82516000906001600160801b0316612d73575081612d53565b835160208501516001600160801b0391821691612d9291869116612f76565b81612d9957fe5b049050818015612d4357508284602001516001600160801b0316612d3986600001516001600160801b031684612f7690919063ffffffff16565b818101818110156127e45760405162461bcd60e51b815260040161060f90613db0565b8015612ec857612ea4827f00000000000000000000000000000000000000000000000000000000000000006001600160a01b031663f7888aec87306040518363ffffffff1660e01b8152600401612e4e929190613afa565b60206040518083038186803b158015612e6657600080fd5b505afa158015612e7a573d6000803e3d6000fd5b505050506040513d601f19601f82011682018060405250810190612e9e9190613924565b90612f53565b831115612ec35760405162461bcd60e51b815260040161060f90613ebf565b612f4d565b604051633c6340f360e21b81526001600160a01b037f0000000000000000000000000000000000000000000000000000000000000000169063f18d03cc90612f1a908790339030908990600401613b14565b600060405180830381600087803b158015612f3457600080fd5b505af1158015612f48573d6000803e3d6000fd5b505050505b50505050565b808203828111156127e45760405162461bcd60e51b815260040161060f90613c2f565b6000811580612f9157505080820282828281612f8e57fe5b04145b6127e45760405162461bcd60e51b815260040161060f90613f22565b60006001600160801b03821115612fd65760405162461bcd60e51b815260040161060f90613d42565b5090565b8082036001600160801b0380841690821611156127e45760405162461bcd60e51b815260040161060f90613c2f565b8181016001600160801b0380831690821610156127e45760405162461bcd60e51b815260040161060f90613db0565b613040613186565b600061304d858585612cba565b905061306c61305b82612fad565b86516001600160801b031690612fda565b6001600160801b0316855261309761308385612fad565b60208701516001600160801b031690612fda565b6001600160801b03166020860152939492505050565b6130b5613186565b60006130c2858585612d5a565b90506130e16130d085612fad565b86516001600160801b031690613009565b6001600160801b031685526130976130f882612fad565b60208701516001600160801b031690613009565b828054600181600116156101000203166002900490600052602060002090601f016020900481019282601f1061314d57805160ff191683800117855561317a565b8280016001018555821561317a579182015b8281111561317a57825182559160200191906001019061315f565b50612fd692915061319d565b604080518082019091526000808252602082015290565b5b80821115612fd6576000815560010161319e565b80356127e4816140e0565b60008083601f8401126131ce578182fd5b50813567ffffffffffffffff8111156131e5578182fd5b60208301915083602080830285010111156109dc57600080fd5b600082601f83011261320f578081fd5b813561322261321d82614064565b61403d565b81815291506020808301908481018184028601820187101561324357600080fd5b60005b8481101561326257813584529282019290820190600101613246565b505050505092915050565b80516127e4816140f8565b80516127e48161411b565b600060208284031215613294578081fd5b8135612d53816140e0565b6000602082840312156132b0578081fd5b8151612d53816140e0565b60008060008060008060c087890312156132d3578182fd5b86356132de816140e0565b955060208701356132ee816140e0565b945060408701356132fe816140f8565b9350606087013561330e8161411b565b9598949750929560808101359460a0909101359350915050565b600080600080600060a0868803121561333f578283fd5b855161334a816140e0565b602087015190955067ffffffffffffffff811115613366578384fd5b8601601f81018813613376578384fd5b805161338461321d82614084565b818152896020838501011115613398578586fd5b6133a98260208301602086016140b4565b8096505050506133bc876040880161326d565b92506133cb876060880161326d565b91506133da8760808801613278565b90509295509295909350565b6000806000606084860312156133fa578081fd5b8335613405816140e0565b92506020840135613415816140f8565b91506040840135613425816140f8565b809150509250925092565b600080600060608486031215613444578081fd5b833561344f816140e0565b9250602084013561345f816140f8565b929592945050506040919091013590565b60008060408385031215613482578182fd5b823561348d816140e0565b946020939093013593505050565b600080600080600080608087890312156134b3578384fd5b863567ffffffffffffffff808211156134ca578586fd5b6134d68a838b016131bd565b909850965060208901359150808211156134ee578586fd5b506134fb89828a016131bd565b909550935050604087013561350f816140e0565b9150606087013561351f816140e0565b809150509295509295509295565b60008060008060008060608789031215613545578384fd5b863567ffffffffffffffff8082111561355c578586fd5b6135688a838b016131bd565b90985096506020890135915080821115613580578586fd5b61358c8a838b016131bd565b909650945060408901359150808211156135a4578384fd5b506135b189828a016131bd565b979a9699509497509295939492505050565b600080604083850312156135d5578182fd5b82516135e0816140f8565b6020939093015192949293505050565b600080600060608486031215613604578081fd5b833561360f816140f8565b95602085013595506040909401359392505050565b60008060208385031215613636578182fd5b823567ffffffffffffffff8082111561364d578384fd5b818501915085601f830112613660578384fd5b81358181111561366e578485fd5b86602082850101111561367f578485fd5b60209290920196919550909350505050565b6000806000606084860312156136a5578081fd5b83356136b0816140e0565b9250602084013561345f816140e0565b600080600080608085870312156136d5578182fd5b84516136e0816140e0565b60208601519094506136f1816140e0565b6040860151606090960151949790965092505050565b60008060006060848603121561371b578081fd5b8335613726816140e0565b925060208481013567ffffffffffffffff80821115613743578384fd5b818701915087601f830112613756578384fd5b813561376461321d82614064565b81815284810190848601868402860187018c1015613780578788fd5b8795505b838610156137aa576137968c826131b2565b835260019590950194918601918601613784565b509650505060408701359250808311156137c2578384fd5b50506137d0868287016131ff565b9150509250925092565b6000806000606084860312156137ee578081fd5b83356137f9816140e0565b92506020840135613809816140e0565b9150604084013567ffffffffffffffff811115613824578182fd5b8401601f81018613613834578182fd5b803561384261321d82614084565b818152876020838501011115613856578384fd5b8160208401602083013783602083830101528093505050509250925092565b600060208284031215613886578081fd5b5035919050565b6000806040838503121561389f578182fd5b8235915060208301356138b1816140e0565b809150509250929050565b6000806000606084860312156138d0578081fd5b833592506020840135613415816140e0565b6000604082840312156138f3578081fd5b6138fd604061403d565b825161390881614106565b8152602083015161391881614106565b60208201529392505050565b600060208284031215613935578081fd5b5051919050565b6000806040838503121561394e578182fd5b505080516020909101519092909150565b600060208284031215613970578081fd5b8135612d538161411b565b6000825161398d8184602087016140b4565b9190910192915050565b600083516139a98184602088016140b4565b9190910191825250602001919050565b600084516139cb8184602089016140b4565b91909101928352506020820152604001919050565b6001600160a01b0391909116815260200190565b6001600160a01b039687168152949095166020850152911515604084015260ff166060830152608082015260a081019190915260c00190565b9115158252602082015260400190565b6000602082528251806020840152613a5c8160408501602087016140b4565b601f01601f19169190910160400192915050565b60006020808301818452828554600180821660008114613a975760018114613ab557613aed565b60028304607f16855260ff1983166040890152606088019350613aed565b60028304808652613ac58a6140a8565b885b82811015613ae35781548b820160400152908401908801613ac7565b8a01604001955050505b5091979650505050505050565b6001600160a01b0392831681529116602082015260400190565b6001600160a01b039485168152928416602084015292166040820152606081019190915260800190565b6001600160a01b03958616815293851660208501529190931660408301526060820192909252608081019190915260a00190565b6000608082016001600160a01b0380881684526020818816818601526080604086015282875180855260a0870191508289019450855b81811015613bc6578551851683529483019491830191600101613ba8565b50508581036060870152865180825290820193509150808601845b83811015613bfd57815185529382019390820190600101613be1565b50929998505050505050505050565b6001600160a01b0393909316835260208301919091521515604082015260600190565b60208082526015908201527f426f72696e674d6174683a20556e646572666c6f770000000000000000000000604082015260600190565b60208082526018908201527f4361756c64726f6e3a207573657220696e736f6c76656e740000000000000000604082015260600190565b60208082526017908201527f43616c6c6572206973206e6f7420746865206f776e6572000000000000000000604082015260600190565b60208082526015908201527f4361756c64726f6e3a2063616c6c206661696c65640000000000000000000000604082015260600190565b60208082526015908201527f4f776e61626c653a207a65726f20616464726573730000000000000000000000604082015260600190565b6020808252601c908201527f426f72696e674d6174683a2075696e74313238204f766572666c6f7700000000604082015260600190565b60208082526019908201527f4361756c64726f6e3a20616c6c2061726520736f6c76656e7400000000000000604082015260600190565b60208082526018908201527f426f72696e674d6174683a20416464204f766572666c6f770000000000000000604082015260600190565b6020808252818101527f4f776e61626c653a2063616c6c6572206973206e6f7420746865206f776e6572604082015260600190565b6020808252818101527f4f776e61626c653a2063616c6c657220213d2070656e64696e67206f776e6572604082015260600190565b60208082526014908201527f4361756c64726f6e3a2063616e27742063616c6c000000000000000000000000604082015260600190565b6020808252601d908201527f4361756c64726f6e3a20616c726561647920696e697469616c697a6564000000604082015260600190565b60208082526017908201527f4361756c64726f6e3a20536b696d20746f6f206d756368000000000000000000604082015260600190565b60208082526012908201527121b0bab6323937b71d103130b2103830b4b960711b604082015260600190565b60208082526018908201527f426f72696e674d6174683a204d756c204f766572666c6f770000000000000000604082015260600190565b60208082526015908201527f4361756c64726f6e3a2072617465206e6f74206f6b0000000000000000000000604082015260600190565b6001600160801b0391909116815260200190565b6001600160801b0392831681529116602082015260400190565b90815260200190565b918252602082015260400190565b67ffffffffffffffff9290921682526001600160801b0316602082015260400190565b6000808335601e1984360301811261400e578283fd5b83018035915067ffffffffffffffff821115614028578283fd5b6020019150368190038213156109dc57600080fd5b60405181810167ffffffffffffffff8111828210171561405c57600080fd5b604052919050565b600067ffffffffffffffff82111561407a578081fd5b5060209081020190565b600067ffffffffffffffff82111561409a578081fd5b50601f01601f191660200190565b60009081526020902090565b60005b838110156140cf5781810151838201526020016140b7565b83811115612f4d5750506000910152565b6001600160a01b03811681146140f557600080fd5b50565b80151581146140f557600080fd5b6001600160801b03811681146140f557600080fd5b60ff811681146140f557600080fdfea26469706673582212201548d0a9a13c56669a91b6dd100b1c062b9d8858a257d2ead8efabf4715872ec64736f6c634300060c0033"
}