{
  "address": "0x4c56DbCC056655b8813539aF9C819ae128c07e17",
  "abi": [
    {
      "inputs": [
        {
          "internalType": "contract IBentoBoxV1",
          "name": "bentoBox_",
          "type": "address"
        },
        {
          "internalType": "contract IERC20",
          "name": "magicInternetMoney_",
          "type": "address"
        }
      ],
      "stateMutability": "nonpayable",
      "type": "constructor"
    },
    {
      "anonymous": false,
      "inputs": [
        {
          "indexed": false,
          "internalType": "uint128",
          "name": "accruedAmount",
          "type": "uint128"
        }
      ],
      "name": "LogAccrue",
      "type": "event"
    },
    {
      "anonymous": false,
      "inputs": [
        {
          "indexed": true,
          "internalType": "address",
          "name": "from",
          "type": "address"
        },
        {
          "indexed": true,
          "internalType": "address",
          "name": "to",
          "type": "address"
        },
        {
          "indexed": false,
          "internalType": "uint256",
          "name": "share",
          "type": "uint256"
        }
      ],
      "name": "LogAddCollateral",
      "type": "event"
    },
    {
      "anonymous": false,
      "inputs": [
        {
          "indexed": true,
          "internalType": "address",
          "name": "from",
          "type": "address"
        },
        {
          "indexed": true,
          "internalType": "address",
          "name": "to",
          "type": "address"
        },
        {
          "indexed": false,
          "internalType": "uint256",
          "name": "amount",
          "type": "uint256"
        },
        {
          "indexed": false,
          "internalType": "uint256",
          "name": "part",
          "type": "uint256"
        }
      ],
      "name": "LogBorrow",
      "type": "event"
    },
    {
      "anonymous": false,
      "inputs": [
        {
          "indexed": false,
          "internalType": "uint256",
          "name": "rate",
          "type": "uint256"
        }
      ],
      "name": "LogExchangeRate",
      "type": "event"
    },
    {
      "anonymous": false,
      "inputs": [
        {
          "indexed": true,
          "internalType": "address",
          "name": "newFeeTo",
          "type": "address"
        }
      ],
      "name": "LogFeeTo",
      "type": "event"
    },
    {
      "anonymous": false,
      "inputs": [
        {
          "indexed": true,
          "internalType": "address",
          "name": "from",
          "type": "address"
        },
        {
          "indexed": true,
          "internalType": "address",
          "name": "to",
          "type": "address"
        },
        {
          "indexed": false,
          "internalType": "uint256",
          "name": "share",
          "type": "uint256"
        }
      ],
      "name": "LogRemoveCollateral",
      "type": "event"
    },
    {
      "anonymous": false,
      "inputs": [
        {
          "indexed": true,
          "internalType": "address",
          "name": "from",
          "type": "address"
        },
        {
          "indexed": true,
          "internalType": "address",
          "name": "to",
          "type": "address"
        },
        {
          "indexed": false,
          "internalType": "uint256",
          "name": "amount",
          "type": "uint256"
        },
        {
          "indexed": false,
          "internalType": "uint256",
          "name": "part",
          "type": "uint256"
        }
      ],
      "name": "LogRepay",
      "type": "event"
    },
    {
      "anonymous": false,
      "inputs": [
        {
          "indexed": true,
          "internalType": "address",
          "name": "feeTo",
          "type": "address"
        },
        {
          "indexed": false,
          "internalType": "uint256",
          "name": "feesEarnedFraction",
          "type": "uint256"
        }
      ],
      "name": "LogWithdrawFees",
      "type": "event"
    },
    {
      "anonymous": false,
      "inputs": [
        {
          "indexed": true,
          "internalType": "address",
          "name": "previousOwner",
          "type": "address"
        },
        {
          "indexed": true,
          "internalType": "address",
          "name": "newOwner",
          "type": "address"
        }
      ],
      "name": "OwnershipTransferred",
      "type": "event"
    },
    {
      "inputs": [],
      "name": "accrue",
      "outputs": [],
      "stateMutability": "nonpayable",
      "type": "function"
    },
    {
      "inputs": [],
      "name": "accrueInfo",
      "outputs": [
        {
          "internalType": "uint64",
          "name": "lastAccrued",
          "type": "uint64"
        },
        {
          "internalType": "uint128",
          "name": "feesEarned",
          "type": "uint128"
        }
      ],
      "stateMutability": "view",
      "type": "function"
    },
    {
      "inputs": [
        {
          "internalType": "address",
          "name": "to",
          "type": "address"
        },
        {
          "internalType": "bool",
          "name": "skim",
          "type": "bool"
        },
        {
          "internalType": "uint256",
          "name": "share",
          "type": "uint256"
        }
      ],
      "name": "addCollateral",
      "outputs": [],
      "stateMutability": "nonpayable",
      "type": "function"
    },
    {
      "inputs": [],
      "name": "bentoBox",
      "outputs": [
        {
          "internalType": "contract IBentoBoxV1",
          "name": "",
          "type": "address"
        }
      ],
      "stateMutability": "view",
      "type": "function"
    },
    {
      "inputs": [
        {
          "internalType": "address",
          "name": "to",
          "type": "address"
        },
        {
          "internalType": "uint256",
          "name": "amount",
          "type": "uint256"
        }
      ],
      "name": "borrow",
      "outputs": [
        {
          "internalType": "uint256",
          "name": "part",
          "type": "uint256"
        },
        {
          "internalType": "uint256",
          "name": "share",
          "type": "uint256"
        }
      ],
      "stateMutability": "nonpayable",
      "type": "function"
    },
    {
      "inputs": [],
      "name": "claimOwnership",
      "outputs": [],
      "stateMutability": "nonpayable",
      "type": "function"
    },
    {
      "inputs": [],
      "name": "collateral",
      "outputs": [
        {
          "internalType": "contract IERC20",
          "name": "",
          "type": "address"
        }
      ],
      "stateMutability": "view",
      "type": "function"
    },
    {
      "inputs": [
        {
          "internalType": "uint8[]",
          "name": "actions",
          "type": "uint8[]"
        },
        {
          "internalType": "uint256[]",
          "name": "values",
          "type": "uint256[]"
        },
        {
          "internalType": "bytes[]",
          "name": "datas",
          "type": "bytes[]"
        }
      ],
      "name": "cook",
      "outputs": [
        {
          "internalType": "uint256",
          "name": "value1",
          "type": "uint256"
        },
        {
          "internalType": "uint256",
          "name": "value2",
          "type": "uint256"
        }
      ],
      "stateMutability": "payable",
      "type": "function"
    },
    {
      "inputs": [],
      "name": "exchangeRate",
      "outputs": [
        {
          "internalType": "uint256",
          "name": "",
          "type": "uint256"
        }
      ],
      "stateMutability": "view",
      "type": "function"
    },
    {
      "inputs": [],
      "name": "feeTo",
      "outputs": [
        {
          "internalType": "address",
          "name": "",
          "type": "address"
        }
      ],
      "stateMutability": "view",
      "type": "function"
    },
    {
      "inputs": [
        {
          "internalType": "bytes",
          "name": "data",
          "type": "bytes"
        }
      ],
      "name": "init",
      "outputs": [],
      "stateMutability": "payable",
      "type": "function"
    },
    {
      "inputs": [
        {
          "internalType": "address[]",
          "name": "users",
          "type": "address[]"
        },
        {
          "internalType": "uint256[]",
          "name": "maxBorrowParts",
          "type": "uint256[]"
        },
        {
          "internalType": "address",
          "name": "to",
          "type": "address"
        },
        {
          "internalType": "contract ISwapper",
          "name": "swapper",
          "type": "address"
        }
      ],
      "name": "liquidate",
      "outputs": [],
      "stateMutability": "nonpayable",
      "type": "function"
    },
    {
      "inputs": [],
      "name": "magicInternetMoney",
      "outputs": [
        {
          "internalType": "contract IERC20",
          "name": "",
          "type": "address"
        }
      ],
      "stateMutability": "view",
      "type": "function"
    },
    {
      "inputs": [],
      "name": "masterContract",
      "outputs": [
        {
          "internalType": "contract CauldronMediumRiskV1",
          "name": "",
          "type": "address"
        }
      ],
      "stateMutability": "view",
      "type": "function"
    },
    {
      "inputs": [],
      "name": "oracle",
      "outputs": [
        {
          "internalType": "contract IOracle",
          "name": "",
          "type": "address"
        }
      ],
      "stateMutability": "view",
      "type": "function"
    },
    {
      "inputs": [],
      "name": "oracleData",
      "outputs": [
        {
          "internalType": "bytes",
          "name": "",
          "type": "bytes"
        }
      ],
      "stateMutability": "view",
      "type": "function"
    },
    {
      "inputs": [],
      "name": "owner",
      "outputs": [
        {
          "internalType": "address",
          "name": "",
          "type": "address"
        }
      ],
      "stateMutability": "view",
      "type": "function"
    },
    {
      "inputs": [],
      "name": "pendingOwner",
      "outputs": [
        {
          "internalType": "address",
          "name": "",
          "type": "address"
        }
      ],
      "stateMutability": "view",
      "type": "function"
    },
    {
      "inputs": [
        {
          "internalType": "uint256",
          "name": "amount",
          "type": "uint256"
        }
      ],
      "name": "reduceSupply",
      "outputs": [],
      "stateMutability": "nonpayable",
      "type": "function"
    },
    {
      "inputs": [
        {
          "internalType": "address",
          "name": "to",
          "type": "address"
        },
        {
          "internalType": "uint256",
          "name": "share",
          "type": "uint256"
        }
      ],
      "name": "removeCollateral",
      "outputs": [],
      "stateMutability": "nonpayable",
      "type": "function"
    },
    {
      "inputs": [
        {
          "internalType": "address",
          "name": "to",
          "type": "address"
        },
        {
          "internalType": "bool",
          "name": "skim",
          "type": "bool"
        },
        {
          "internalType": "uint256",
          "name": "part",
          "type": "uint256"
        }
      ],
      "name": "repay",
      "outputs": [
        {
          "internalType": "uint256",
          "name": "amount",
          "type": "uint256"
        }
      ],
      "stateMutability": "nonpayable",
      "type": "function"
    },
    {
      "inputs": [
        {
          "internalType": "address",
          "name": "newFeeTo",
          "type": "address"
        }
      ],
      "name": "setFeeTo",
      "outputs": [],
      "stateMutability": "nonpayable",
      "type": "function"
    },
    {
      "inputs": [],
      "name": "totalBorrow",
      "outputs": [
        {
          "internalType": "uint128",
          "name": "elastic",
          "type": "uint128"
        },
        {
          "internalType": "uint128",
          "name": "base",
          "type": "uint128"
        }
      ],
      "stateMutability": "view",
      "type": "function"
    },
    {
      "inputs": [],
      "name": "totalCollateralShare",
      "outputs": [
        {
          "internalType": "uint256",
          "name": "",
          "type": "uint256"
        }
      ],
      "stateMutability": "view",
      "type": "function"
    },
    {
      "inputs": [
        {
          "internalType": "address",
          "name": "newOwner",
          "type": "address"
        },
        {
          "internalType": "bool",
          "name": "direct",
          "type": "bool"
        },
        {
          "internalType": "bool",
          "name": "renounce",
          "type": "bool"
        }
      ],
      "name": "transferOwnership",
      "outputs": [],
      "stateMutability": "nonpayable",
      "type": "function"
    },
    {
      "inputs": [],
      "name": "updateExchangeRate",
      "outputs": [
        {
          "internalType": "bool",
          "name": "updated",
          "type": "bool"
        },
        {
          "internalType": "uint256",
          "name": "rate",
          "type": "uint256"
        }
      ],
      "stateMutability": "nonpayable",
      "type": "function"
    },
    {
      "inputs": [
        {
          "internalType": "address",
          "name": "",
          "type": "address"
        }
      ],
      "name": "userBorrowPart",
      "outputs": [
        {
          "internalType": "uint256",
          "name": "",
          "type": "uint256"
        }
      ],
      "stateMutability": "view",
      "type": "function"
    },
    {
      "inputs": [
        {
          "internalType": "address",
          "name": "",
          "type": "address"
        }
      ],
      "name": "userCollateralShare",
      "outputs": [
        {
          "internalType": "uint256",
          "name": "",
          "type": "uint256"
        }
      ],
      "stateMutability": "view",
      "type": "function"
    },
    {
      "inputs": [],
      "name": "withdrawFees",
      "outputs": [],
      "stateMutability": "nonpayable",
      "type": "function"
    }
  ],
  "transactionHash": "0x418684869f30c5e25fbd915b746f1148da59f48f54b4e8a50eff0c58e80fa558",
  "args": [
    "0xF5BCE5077908a1b7370B9ae04AdC565EBd643966",
    "0x99D8a9C45b2ecA8864373A26D1459e3Dff1e17F3"
  ],
  "solcInputHash": "061141e6ca9889b8f853b9ae4947c621",
  "bytecode": "0x60e06040523480156200001157600080fd5b506040516200427838038062004278833981016040819052620000349162000099565b600080546001600160a01b0319163390811782556040519091907f8be0079c531659141344cd1fd0a4f28419497f9722a3daafe3b4186f6b6457e0908290a36001600160601b0319606092831b811660805290821b1660c05230901b60a052620000f0565b60008060408385031215620000ac578182fd5b8251620000b981620000d7565b6020840151909250620000cc81620000d7565b809150509250929050565b6001600160a01b0381168114620000ed57600080fd5b50565b60805160601c60a05160601c60c05160601c614099620001df60003980610805528061116052806114bd52806115585280611aea5280611c2d5280611cf35280611d6452806121685280612218528061243e528061250052508061071b52806113ba5280611daa5250806107d05280610d2a5280610ef25280610fca528061113152806112f95280611490528061165752806117735280611abd5280611b845280611cc6528061213952806121e9528061224452806122ce528061240952806124d3528061266552806127e4528061289a52806129765280612afb5280612d3b5280612e1852506140996000f3fe6080604052600436106101c25760003560e01c806374645ff3116100f7578063912860c511610095578063d8dfeb4511610064578063d8dfeb451461049d578063e30c3978146104b2578063f46901ed146104c7578063f8ba4cff146104e7576101c2565b8063912860c5146104305780639b352ae114610450578063b27c0e7414610465578063cd446e2214610488576101c2565b80638285ef40116100d15780638285ef40146103b8578063860ffea1146103db578063876467f8146103fb5780638da5cb5b1461041b576101c2565b806374645ff3146103615780637dc0d1d0146103835780638062344414610398576101c2565b8063476343ee116101645780634ddf47d41161013e5780634ddf47d4146103115780634e71e0c814610324578063656f3d64146103395780636b2ace871461034c576101c2565b8063476343ee146102ae57806348e4163e146102c35780634b8a3529146102e3576101c2565b806315294c40116101a057806315294c40146102375780631c9e379b146102645780633ba0b9a914610284578063473e3ce714610299576101c2565b8063017e7e58146101c757806302ce728f146101f2578063078dfbe714610215575b600080fd5b3480156101d357600080fd5b506101dc6104fc565b6040516101e99190613919565b60405180910390f35b3480156101fe57600080fd5b5061020761050b565b6040516101e9929190613966565b34801561022157600080fd5b5061023561023036600461331f565b6105e5565b005b34801561024357600080fd5b50610257610252366004613369565b6106d4565b6040516101e99190613ef7565b34801561027057600080fd5b5061025761027f3660046131bc565b6106f1565b34801561029057600080fd5b50610257610703565b3480156102a557600080fd5b50610257610709565b3480156102ba57600080fd5b5061023561070f565b3480156102cf57600080fd5b506102576102de3660046131bc565b6108bf565b3480156102ef57600080fd5b506103036102fe3660046133a9565b6108d1565b6040516101e9929190613f00565b61023561031f36600461355d565b61091c565b34801561033057600080fd5b506102356109d1565b610303610347366004613466565b610a5e565b34801561035857600080fd5b506101dc6112f7565b34801561036d57600080fd5b5061037661131b565b6040516101e99190613976565b34801561038f57600080fd5b506101dc6113a9565b3480156103a457600080fd5b506102356103b33660046137ae565b6113b8565b3480156103c457600080fd5b506103cd6115c2565b6040516101e9929190613edd565b3480156103e757600080fd5b506102356103f6366004613369565b6115dc565b34801561040757600080fd5b506102356104163660046133a9565b6116bd565b34801561042757600080fd5b506101dc6116f7565b34801561043c57600080fd5b5061023561044b3660046133d4565b611706565b34801561045c57600080fd5b506101dc611d62565b34801561047157600080fd5b5061047a611d86565b6040516101e9929190613f0e565b34801561049457600080fd5b506101dc611da8565b3480156104a957600080fd5b506101dc611dcc565b3480156104be57600080fd5b506101dc611ddb565b3480156104d357600080fd5b506102356104e23660046131bc565b611dea565b3480156104f357600080fd5b50610235611e5e565b6002546001600160a01b031681565b6004805460405163d6d7d52560e01b815260009283926001600160a01b03169163d6d7d5259161053e91600591016139a9565b6040805180830381600087803b15801561055757600080fd5b505af115801561056b573d6000803e3d6000fd5b505050506040513d601f19601f8201168201806040525081019061058f91906134fc565b909250905081156105dc57600a8190556040517f9f9192b5edb17356c524e08d9e025c8e2f6307e6ea52fb7968faa3081f51c3c8906105cf908390613ef7565b60405180910390a16105e1565b50600a545b9091565b6000546001600160a01b031633146106185760405162461bcd60e51b815260040161060f90613d20565b60405180910390fd5b81156106b3576001600160a01b0383161515806106325750805b61064e5760405162461bcd60e51b815260040161060f90613c44565b600080546040516001600160a01b03808716939216917f8be0079c531659141344cd1fd0a4f28419497f9722a3daafe3b4186f6b6457e091a3600080546001600160a01b0385166001600160a01b0319918216179091556001805490911690556106cf565b600180546001600160a01b0319166001600160a01b0385161790555b505050565b60006106de611e5e565b6106e9848484612078565b949350505050565b60086020526000908152604090205481565b600a5481565b60065481565b610717611e5e565b60007f00000000000000000000000000000000000000000000000000000000000000006001600160a01b031663017e7e586040518163ffffffff1660e01b815260040160206040518083038186803b15801561077257600080fd5b505afa158015610786573d6000803e3d6000fd5b505050506040513d601f19601f820116820180604052508101906107aa91906131d8565b600b54604051633c6340f360e21b8152919250600160401b90046001600160801b0316907f00000000000000000000000000000000000000000000000000000000000000006001600160a01b03169063f18d03cc90610833907f000000000000000000000000000000000000000000000000000000000000000090309087908790600401613a4d565b600060405180830381600087803b15801561084d57600080fd5b505af1158015610861573d6000803e3d6000fd5b5050600b8054600160401b600160c01b031916905550506040516001600160a01b038316907fbe641c3ffc44b2d6c184f023fa4ed7bda4b6ffa71e03b3c98ae0c776da1f17e7906108b3908490613ef7565b60405180910390a25050565b60096020526000908152604090205481565b6000806108dc611e5e565b6108e68484612338565b600a5491935091506108f99033906125b6565b6109155760405162461bcd60e51b815260040161060f90613b9f565b9250929050565b6003546001600160a01b0316156109455760405162461bcd60e51b815260040161060f90613dc1565b61095181830183613713565b8051600390600090600490829061096f906005906020880190613045565b50815461010091820a6001600160a01b03818102199092169782160296909617909155825491900a80850219909116948416029390931790925560035416151590506109cd5760405162461bcd60e51b815260040161060f90613e2f565b5050565b6001546001600160a01b03163381146109fc5760405162461bcd60e51b815260040161060f90613d55565b600080546040516001600160a01b03808516939216917f8be0079c531659141344cd1fd0a4f28419497f9722a3daafe3b4186f6b6457e091a3600080546001600160a01b039092166001600160a01b0319928316179055600180549091169055565b600080610a696130bf565b60005b888110156112bb5760008a8a83818110610a8257fe5b9050602002016020810190610a979190613898565b90508260200151158015610aae5750600a8160ff16105b15610ac357610abb611e5e565b600160208401525b60ff8116600a1415610b1d576000806000898986818110610ae057fe5b9050602002810190610af29190613f31565b810190610aff91906137f5565b925092509250610b1582826103f6868c8c612723565b5050506112b2565b60ff811660021415610b7d576000806000898986818110610b3a57fe5b9050602002810190610b4c9190613f31565b810190610b5991906137f5565b925092509250610b748282610b6f868c8c612723565b612078565b505050506112b2565b60ff811660041415610bda57600080888885818110610b9857fe5b9050602002810190610baa9190613f31565b810190610bb791906137c6565b91509150610bcf81610bca848a8a612723565b61274b565b5050600183526112b2565b60ff811660051415610c3d57600080888885818110610bf557fe5b9050602002810190610c079190613f31565b810190610c1491906137c6565b91509150610c2c81610c27848a8a612723565b612338565b6001875290975095506112b2915050565b60ff8116600b1415610cdc576000806000898986818110610c5a57fe5b9050602002810190610c6c9190613f31565b810190610c799190613529565b925092509250600080610c8a61050b565b91509150841580610c985750815b8015610ca357508381115b8015610cb65750821580610cb657508281115b610cd25760405162461bcd60e51b815260040161060f90613e92565b50505050506112b2565b60ff811660181415610dbb576000806000806000808c8c89818110610cfd57fe5b9050602002810190610d0f9190613f31565b810190610d1c91906131f4565b9550955095509550955095507f00000000000000000000000000000000000000000000000000000000000000006001600160a01b031663c0a47c938787878787876040518763ffffffff1660e01b8152600401610d7e9695949392919061392d565b600060405180830381600087803b158015610d9857600080fd5b505af1158015610dac573d6000803e3d6000fd5b505050505050505050506112b2565b60ff811660141415610e4357610e39878784818110610dd657fe5b9050602002810190610de89190613f31565b8080601f0160208091040260200160405190810160405280939291908181526020018383808284376000920191909152508d92508c9150869050818110610e2b57fe5b905060200201358787612859565b90955093506112b2565b60ff811660151415610eae57610e39878784818110610e5e57fe5b9050602002810190610e709190613f31565b8080601f01602080910402602001604051908101604052809392919081815260200183838082843760009201919091525089925088915061294f9050565b60ff811660161415610f86576000806000898986818110610ecb57fe5b9050602002810190610edd9190613f31565b810190610eea91906135ca565b9250925092507f00000000000000000000000000000000000000000000000000000000000000006001600160a01b031663f18d03cc843385610f2d868e8e612723565b6040518563ffffffff1660e01b8152600401610f4c9493929190613a4d565b600060405180830381600087803b158015610f6657600080fd5b505af1158015610f7a573d6000803e3d6000fd5b505050505050506112b2565b60ff81166017141561101a576000606080898986818110610fa357fe5b9050602002810190610fb59190613f31565b810190610fc29190613640565b9250925092507f00000000000000000000000000000000000000000000000000000000000000006001600160a01b0316630fca8843843385856040518563ffffffff1660e01b8152600401610f4c9493929190613aab565b60ff8116601e14156110f4576060600061109c8b8b8681811061103957fe5b905060200201358a8a8781811061104c57fe5b905060200281019061105e9190613f31565b8080601f0160208091040260200160405190810160405280939291908181526020018383808284376000920191909152508c92508b9150612a3d9050565b915091508060ff16600114156110c757818060200190518101906110c0919061385d565b96506110ed565b8060ff16600214156110ed57818060200190518101906110e79190613875565b90975095505b50506112b2565b60ff81166006141561123557600087878481811061110e57fe5b90506020028101906111209190613f31565b81019061112d91906137ae565b90507f00000000000000000000000000000000000000000000000000000000000000006001600160a01b031663da5139ca7f00000000000000000000000000000000000000000000000000000000000000006111bd61118d858b8b612723565b604080518082019091526007546001600160801b038082168352600160801b909104166020820152906001612bf3565b60016040518463ffffffff1660e01b81526004016111dd93929190613b45565b60206040518083038186803b1580156111f557600080fd5b505afa158015611209573d6000803e3d6000fd5b505050506040513d601f19601f8201168201806040525081019061122d919061385d565b9550506112b2565b60ff8116600714156112b257600087878481811061124f57fe5b90506020028101906112619190613f31565b81019061126e91906137ae565b90506112ae61127e828888612723565b604080518082019091526007546001600160801b038082168352600160801b909104166020820152906000612c93565b9550505b50600101610a6c565b508051156112eb576112cf33600a546125b6565b6112eb5760405162461bcd60e51b815260040161060f90613b9f565b50965096945050505050565b7f000000000000000000000000000000000000000000000000000000000000000081565b6005805460408051602060026001851615610100026000190190941693909304601f810184900484028201840190925281815292918301828280156113a15780601f10611376576101008083540402835291602001916113a1565b820191906000526020600020905b81548152906001019060200180831161138457829003601f168201915b505050505081565b6004546001600160a01b031681565b7f00000000000000000000000000000000000000000000000000000000000000006001600160a01b0316638da5cb5b6040518163ffffffff1660e01b815260040160206040518083038186803b15801561141157600080fd5b505afa158015611425573d6000803e3d6000fd5b505050506040513d601f19601f8201168201806040525081019061144991906131d8565b6001600160a01b0316336001600160a01b0316146114795760405162461bcd60e51b815260040161060f90613bd6565b60405163097da6d360e41b81526001600160a01b037f000000000000000000000000000000000000000000000000000000000000000016906397da6d30906114ee907f000000000000000000000000000000000000000000000000000000000000000090309081908790600090600401613a77565b6040805180830381600087803b15801561150757600080fd5b505af115801561151b573d6000803e3d6000fd5b505050506040513d601f19601f8201168201806040525081019061153f9190613875565b5050604051630852cd8d60e31b81526001600160a01b037f000000000000000000000000000000000000000000000000000000000000000016906342966c689061158d908490600401613ef7565b600060405180830381600087803b1580156115a757600080fd5b505af11580156115bb573d6000803e3d6000fd5b5050505050565b6007546001600160801b0380821691600160801b90041682565b6001600160a01b0383166000908152600860205260409020546115ff9082612d0c565b6001600160a01b0384166000908152600860205260409020556006546116258183612d0c565b600655600354611640906001600160a01b0316838386612d2f565b836001600160a01b0316836116555733611677565b7f00000000000000000000000000000000000000000000000000000000000000005b6001600160a01b03167f9ed03113de523cebfe5e49d5f8e12894b1c0d42ce805990461726444c90eab87846040516116af9190613ef7565b60405180910390a350505050565b6116c5611e5e565b6116cf828261274b565b6116db33600a546125b6565b6109cd5760405162461bcd60e51b815260040161060f90613b9f565b6000546001600160a01b031681565b600061171061050b565b91505061171b611e5e565b60008060006117286130bf565b50604080518082019091526007546001600160801b038082168352600160801b9091041660208201526117596130bf565b600354604051634ffe34db60e01b81526001600160a01b037f0000000000000000000000000000000000000000000000000000000000000000811692634ffe34db926117ac929190911690600401613919565b604080518083038186803b1580156117c357600080fd5b505afa1580156117d7573d6000803e3d6000fd5b505050506040513d601f19601f820116820180604052508101906117fb919061381b565b905060005b8b8110156119f65760008d8d8381811061181657fe5b905060200201602081019061182b91906131bc565b905061183781896125b6565b6119ed576001600160a01b038116600090815260096020526040812054808e8e8681811061186157fe5b9050602002013511611885578d8d8581811061187957fe5b90506020020135611887565b805b91506118938183612e8c565b6001600160a01b03841660009081526009602052604081209190915590506118bc868383612bf3565b905060006118f769152d02c7e14af68000006118e58d6118df866201b774612eaf565b90612eaf565b816118ec57fe5b889190046000612c93565b6001600160a01b03851660009081526008602052604090205490915061191d9082612e8c565b6001600160a01b0380861660008181526008602052604090819020939093559151908f1691907f8ad4d3ff00da092c7ad9a573ea4f5f6a3dffc6712dc06d3f78f49b862297c40290611970908590613ef7565b60405180910390a3836001600160a01b0316336001600160a01b03167fc8e512d8f188ca059984b5853d2bf653da902696b8512785b182b2c813789a6e84866040516119bd929190613f00565b60405180910390a36119cf8a82612d0c565b99506119db8983612d0c565b98506119e78884612d0c565b97505050505b50600101611800565b5083611a145760405162461bcd60e51b815260040161060f90613cb2565b611a31611a2085612ee6565b83516001600160801b031690612f13565b6001600160801b03168252611a5c611a4884612ee6565b60208401516001600160801b031690612f13565b6001600160801b03908116602084018190528351600780546001600160801b03191691841691909117909216600160801b909102179055600654611aa09086612e8c565b600655604051636d289ce560e11b81526000906001600160a01b037f0000000000000000000000000000000000000000000000000000000000000000169063da5139ca90611b17907f0000000000000000000000000000000000000000000000000000000000000000908990600190600401613b45565b60206040518083038186803b158015611b2f57600080fd5b505afa158015611b43573d6000803e3d6000fd5b505050506040513d601f19601f82011682018060405250810190611b67919061385d565b600354604051633c6340f360e21b81529192506001600160a01b037f000000000000000000000000000000000000000000000000000000000000000081169263f18d03cc92611bc092169030908e908c90600401613a4d565b600060405180830381600087803b158015611bda57600080fd5b505af1158015611bee573d6000803e3d6000fd5b505050506001600160a01b03881615611caf576003546040516371a1ff0960e11b81526001600160a01b038a81169263e343fe1292611c5b92909116907f000000000000000000000000000000000000000000000000000000000000000090339087908d90600401613a77565b6040805180830381600087803b158015611c7457600080fd5b505af1158015611c88573d6000803e3d6000fd5b505050506040513d601f19601f82011682018060405250810190611cac9190613875565b50505b604051633c6340f360e21b81526001600160a01b037f0000000000000000000000000000000000000000000000000000000000000000169063f18d03cc90611d21907f000000000000000000000000000000000000000000000000000000000000000090339030908790600401613a4d565b600060405180830381600087803b158015611d3b57600080fd5b505af1158015611d4f573d6000803e3d6000fd5b5050505050505050505050505050505050565b7f000000000000000000000000000000000000000000000000000000000000000081565b600b5467ffffffffffffffff811690600160401b90046001600160801b031682565b7f000000000000000000000000000000000000000000000000000000000000000081565b6003546001600160a01b031681565b6001546001600160a01b031681565b6000546001600160a01b03163314611e145760405162461bcd60e51b815260040161060f90613d20565b600280546001600160a01b0319166001600160a01b0383169081179091556040517fcf1d3f17e521c635e0d20b8acba94ba170afc041d0546d46dafa09d3c9c19eb390600090a250565b611e666130bf565b5060408051808201909152600b5467ffffffffffffffff8116808352600160401b9091046001600160801b03166020830152420380611ea6575050612076565b67ffffffffffffffff42168252611ebb6130bf565b50604080518082019091526007546001600160801b038082168352600160801b9091041660208201819052611f3f5750508051600b80546020909301516001600160801b0316600160401b02600160401b600160c01b031967ffffffffffffffff90931667ffffffffffffffff199094169390931791909116919091179055612076565b6000611f82670de0b6b3a7640000611f75856118df631c54fa0687600001516001600160801b0316612eaf90919063ffffffff16565b81611f7c57fe5b04612ee6565b8251909150611f9a906001600160801b031682612f42565b6001600160801b0390811683526020850151611fb7911682612f42565b6001600160801b039081166020868101829052845160078054928701516001600160801b0319909316918516919091178416600160801b9290941691909102929092179091558451600b805467ffffffffffffffff191667ffffffffffffffff90921691909117600160401b600160c01b031916600160401b9092029190911790556040517fee527de5e142bcc7fe0eddc4b9a04816d73f6307dd74f9204585910d60a8c08390612069908390613ec9565b60405180910390a1505050505b565b604080518082019091526007546001600160801b038082168352600160801b9091041660208201526000906120af90836001612f71565b8151600780546020948501516001600160801b03908116600160801b029381166001600160801b031990921691909117169190911790556001600160a01b0386166000908152600990925260409091205490915061210d9083612e8c565b6001600160a01b03808616600090815260096020526040808220939093559151636d289ce560e11b81527f00000000000000000000000000000000000000000000000000000000000000009091169063da5139ca90612195907f0000000000000000000000000000000000000000000000000000000000000000908690600190600401613b45565b60206040518083038186803b1580156121ad57600080fd5b505afa1580156121c1573d6000803e3d6000fd5b505050506040513d601f19601f820116820180604052508101906121e5919061385d565b90507f00000000000000000000000000000000000000000000000000000000000000006001600160a01b031663f18d03cc7f0000000000000000000000000000000000000000000000000000000000000000866122425733612264565b7f00000000000000000000000000000000000000000000000000000000000000005b30856040518563ffffffff1660e01b81526004016122859493929190613a4d565b600060405180830381600087803b15801561229f57600080fd5b505af11580156122b3573d6000803e3d6000fd5b50505050846001600160a01b0316846122cc57336122ee565b7f00000000000000000000000000000000000000000000000000000000000000005b6001600160a01b03167fc8e512d8f188ca059984b5853d2bf653da902696b8512785b182b2c813789a6e8486604051612328929190613f00565b60405180910390a3509392505050565b60008080620186a061234b856032612eaf565b8161235257fe5b0490506123926123628583612d0c565b604080518082019091526007546001600160801b038082168352600160801b909104166020820152906001612fe6565b8151600780546020948501516001600160801b03908116600160801b029381166001600160801b0319909216919091171691909117905533600090815260099092526040909120549093506123e79084612d0c565b33600090815260096020526040808220929092559051636d289ce560e11b81527f00000000000000000000000000000000000000000000000000000000000000006001600160a01b03169163da5139ca91612469917f000000000000000000000000000000000000000000000000000000000000000091899190600401613b45565b60206040518083038186803b15801561248157600080fd5b505afa158015612495573d6000803e3d6000fd5b505050506040513d601f19601f820116820180604052508101906124b9919061385d565b604051633c6340f360e21b81529092506001600160a01b037f0000000000000000000000000000000000000000000000000000000000000000169063f18d03cc9061252e907f00000000000000000000000000000000000000000000000000000000000000009030908a908890600401613a4d565b600060405180830381600087803b15801561254857600080fd5b505af115801561255c573d6000803e3d6000fd5b5050506001600160a01b0386169050337fb92cb6bca8e3270b9170930f03b17571e55791acdb1a0e9f339eec88bdb35e246125978785612d0c565b866040516125a6929190613f00565b60405180910390a3509250929050565b6001600160a01b038216600090815260096020526040812054806125de57600191505061271d565b6001600160a01b038416600090815260086020526040902054806126075760009250505061271d565b61260f6130bf565b50604080518082019091526007546001600160801b03808216808452600160801b90920416602083018190529061264d9087906118df908790612eaf565b8161265457fe5b600354919004906001600160a01b037f0000000000000000000000000000000000000000000000000000000000000000811691635662311891166126a5620124f86118df886509184e72a000612eaf565b60006040518463ffffffff1660e01b81526004016126c593929190613b45565b60206040518083038186803b1580156126dd57600080fd5b505afa1580156126f1573d6000803e3d6000fd5b505050506040513d601f19601f82011682018060405250810190612715919061385d565b101593505050505b92915050565b60008084121561274357600019841461273c578161273e565b825b6106e9565b509192915050565b336000908152600860205260409020546127659082612e8c565b336000908152600860205260409020556006546127829082612e8c565b6006556040516001600160a01b0383169033907f8ad4d3ff00da092c7ad9a573ea4f5f6a3dffc6712dc06d3f78f49b862297c402906127c2908590613ef7565b60405180910390a3600354604051633c6340f360e21b81526001600160a01b037f000000000000000000000000000000000000000000000000000000000000000081169263f18d03cc92612823929190911690309087908790600401613a4d565b600060405180830381600087803b15801561283d57600080fd5b505af1158015612851573d6000803e3d6000fd5b505050505050565b6000806000806000808980602001905181019061287691906135f9565b9350935093509350612889828989612723565b9150612896818989612723565b90507f00000000000000000000000000000000000000000000000000000000000000006001600160a01b03166302b9446c8a86338787876040518763ffffffff1660e01b81526004016128ed959493929190613a77565b60408051808303818588803b15801561290557600080fd5b505af1158015612919573d6000803e3d6000fd5b50505050506040513d601f19601f8201168201806040525081019061293e9190613875565b955095505050505094509492505050565b6000806000806000808880602001905181019061296c91906135f9565b93509350935093507f00000000000000000000000000000000000000000000000000000000000000006001600160a01b03166397da6d308533866129b1878e8e612723565b6129bc878f8f612723565b6040518663ffffffff1660e01b81526004016129dc959493929190613a77565b6040805180830381600087803b1580156129f557600080fd5b505af1158015612a09573d6000803e3d6000fd5b505050506040513d601f19601f82011682018060405250810190612a2d9190613875565b9550955050505050935093915050565b60606000806060600080600089806020019051810190612a5d9190613261565b94509450945094509450828015612a72575081155b15612aa0578389604051602001612a8a9291906138d0565b6040516020818303038152906040529350612af9565b82158015612aab5750815b15612ac3578388604051602001612a8a9291906138d0565b828015612acd5750815b15612af957838989604051602001612ae7939291906138f2565b60405160208183030381529060405293505b7f00000000000000000000000000000000000000000000000000000000000000006001600160a01b0316856001600160a01b031614158015612b4457506001600160a01b0385163014155b612b605760405162461bcd60e51b815260040161060f90613d8a565b60006060866001600160a01b03168d87604051612b7d91906138b4565b60006040518083038185875af1925050503d8060008114612bba576040519150601f19603f3d011682016040523d82523d6000602084013e612bbf565b606091505b509150915081612be15760405162461bcd60e51b815260040161060f90613c0d565b9c919b50909950505050505050505050565b600083602001516001600160801b031660001415612c12575081612c8c565b602084015184516001600160801b0391821691612c3191869116612eaf565b81612c3857fe5b049050818015612c7c57508284600001516001600160801b0316612c7286602001516001600160801b031684612eaf90919063ffffffff16565b81612c7957fe5b04105b15612c8c576106e9816001612d0c565b9392505050565b82516000906001600160801b0316612cac575081612c8c565b835160208501516001600160801b0391821691612ccb91869116612eaf565b81612cd257fe5b049050818015612c7c57508284602001516001600160801b0316612c7286600001516001600160801b031684612eaf90919063ffffffff16565b8181018181101561271d5760405162461bcd60e51b815260040161060f90613ce9565b8015612e0157612ddd827f00000000000000000000000000000000000000000000000000000000000000006001600160a01b031663f7888aec87306040518363ffffffff1660e01b8152600401612d87929190613a33565b60206040518083038186803b158015612d9f57600080fd5b505afa158015612db3573d6000803e3d6000fd5b505050506040513d601f19601f82011682018060405250810190612dd7919061385d565b90612e8c565b831115612dfc5760405162461bcd60e51b815260040161060f90613df8565b612e86565b604051633c6340f360e21b81526001600160a01b037f0000000000000000000000000000000000000000000000000000000000000000169063f18d03cc90612e53908790339030908990600401613a4d565b600060405180830381600087803b158015612e6d57600080fd5b505af1158015612e81573d6000803e3d6000fd5b505050505b50505050565b8082038281111561271d5760405162461bcd60e51b815260040161060f90613b68565b6000811580612eca57505080820282828281612ec757fe5b04145b61271d5760405162461bcd60e51b815260040161060f90613e5b565b60006001600160801b03821115612f0f5760405162461bcd60e51b815260040161060f90613c7b565b5090565b8082036001600160801b03808416908216111561271d5760405162461bcd60e51b815260040161060f90613b68565b8181016001600160801b03808316908216101561271d5760405162461bcd60e51b815260040161060f90613ce9565b612f796130bf565b6000612f86858585612bf3565b9050612fa5612f9482612ee6565b86516001600160801b031690612f13565b6001600160801b03168552612fd0612fbc85612ee6565b60208701516001600160801b031690612f13565b6001600160801b03166020860152939492505050565b612fee6130bf565b6000612ffb858585612c93565b905061301a61300985612ee6565b86516001600160801b031690612f42565b6001600160801b03168552612fd061303182612ee6565b60208701516001600160801b031690612f42565b828054600181600116156101000203166002900490600052602060002090601f016020900481019282601f1061308657805160ff19168380011785556130b3565b828001600101855582156130b3579182015b828111156130b3578251825591602001919060010190613098565b50612f0f9291506130d6565b604080518082019091526000808252602082015290565b5b80821115612f0f57600081556001016130d7565b803561271d81614019565b60008083601f840112613107578182fd5b50813567ffffffffffffffff81111561311e578182fd5b602083019150836020808302850101111561091557600080fd5b600082601f830112613148578081fd5b813561315b61315682613f9d565b613f76565b81815291506020808301908481018184028601820187101561317c57600080fd5b60005b8481101561319b5781358452928201929082019060010161317f565b505050505092915050565b805161271d81614031565b805161271d81614054565b6000602082840312156131cd578081fd5b8135612c8c81614019565b6000602082840312156131e9578081fd5b8151612c8c81614019565b60008060008060008060c0878903121561320c578182fd5b863561321781614019565b9550602087013561322781614019565b9450604087013561323781614031565b9350606087013561324781614054565b9598949750929560808101359460a0909101359350915050565b600080600080600060a08688031215613278578283fd5b855161328381614019565b602087015190955067ffffffffffffffff81111561329f578384fd5b8601601f810188136132af578384fd5b80516132bd61315682613fbd565b8181528960208385010111156132d1578586fd5b6132e2826020830160208601613fed565b8096505050506132f587604088016131a6565b925061330487606088016131a6565b915061331387608088016131b1565b90509295509295909350565b600080600060608486031215613333578081fd5b833561333e81614019565b9250602084013561334e81614031565b9150604084013561335e81614031565b809150509250925092565b60008060006060848603121561337d578081fd5b833561338881614019565b9250602084013561339881614031565b929592945050506040919091013590565b600080604083850312156133bb578182fd5b82356133c681614019565b946020939093013593505050565b600080600080600080608087890312156133ec578384fd5b863567ffffffffffffffff80821115613403578586fd5b61340f8a838b016130f6565b90985096506020890135915080821115613427578586fd5b5061343489828a016130f6565b909550935050604087013561344881614019565b9150606087013561345881614019565b809150509295509295509295565b6000806000806000806060878903121561347e578384fd5b863567ffffffffffffffff80821115613495578586fd5b6134a18a838b016130f6565b909850965060208901359150808211156134b9578586fd5b6134c58a838b016130f6565b909650945060408901359150808211156134dd578384fd5b506134ea89828a016130f6565b979a9699509497509295939492505050565b6000806040838503121561350e578182fd5b825161351981614031565b6020939093015192949293505050565b60008060006060848603121561353d578081fd5b833561354881614031565b95602085013595506040909401359392505050565b6000806020838503121561356f578182fd5b823567ffffffffffffffff80821115613586578384fd5b818501915085601f830112613599578384fd5b8135818111156135a7578485fd5b8660208285010111156135b8578485fd5b60209290920196919550909350505050565b6000806000606084860312156135de578081fd5b83356135e981614019565b9250602084013561339881614019565b6000806000806080858703121561360e578182fd5b845161361981614019565b602086015190945061362a81614019565b6040860151606090960151949790965092505050565b600080600060608486031215613654578081fd5b833561365f81614019565b925060208481013567ffffffffffffffff8082111561367c578384fd5b818701915087601f83011261368f578384fd5b813561369d61315682613f9d565b81815284810190848601868402860187018c10156136b9578788fd5b8795505b838610156136e3576136cf8c826130eb565b8352600195909501949186019186016136bd565b509650505060408701359250808311156136fb578384fd5b505061370986828701613138565b9150509250925092565b600080600060608486031215613727578081fd5b833561373281614019565b9250602084013561374281614019565b9150604084013567ffffffffffffffff81111561375d578182fd5b8401601f8101861361376d578182fd5b803561377b61315682613fbd565b81815287602083850101111561378f578384fd5b8160208401602083013783602083830101528093505050509250925092565b6000602082840312156137bf578081fd5b5035919050565b600080604083850312156137d8578182fd5b8235915060208301356137ea81614019565b809150509250929050565b600080600060608486031215613809578081fd5b83359250602084013561334e81614019565b60006040828403121561382c578081fd5b6138366040613f76565b82516138418161403f565b815260208301516138518161403f565b60208201529392505050565b60006020828403121561386e578081fd5b5051919050565b60008060408385031215613887578182fd5b505080516020909101519092909150565b6000602082840312156138a9578081fd5b8135612c8c81614054565b600082516138c6818460208701613fed565b9190910192915050565b600083516138e2818460208801613fed565b9190910191825250602001919050565b60008451613904818460208901613fed565b91909101928352506020820152604001919050565b6001600160a01b0391909116815260200190565b6001600160a01b039687168152949095166020850152911515604084015260ff166060830152608082015260a081019190915260c00190565b9115158252602082015260400190565b6000602082528251806020840152613995816040850160208701613fed565b601f01601f19169190910160400192915050565b600060208083018184528285546001808216600081146139d057600181146139ee57613a26565b60028304607f16855260ff1983166040890152606088019350613a26565b600283048086526139fe8a613fe1565b885b82811015613a1c5781548b820160400152908401908801613a00565b8a01604001955050505b5091979650505050505050565b6001600160a01b0392831681529116602082015260400190565b6001600160a01b039485168152928416602084015292166040820152606081019190915260800190565b6001600160a01b03958616815293851660208501529190931660408301526060820192909252608081019190915260a00190565b6000608082016001600160a01b0380881684526020818816818601526080604086015282875180855260a0870191508289019450855b81811015613aff578551851683529483019491830191600101613ae1565b50508581036060870152865180825290820193509150808601845b83811015613b3657815185529382019390820190600101613b1a565b50929998505050505050505050565b6001600160a01b0393909316835260208301919091521515604082015260600190565b60208082526015908201527f426f72696e674d6174683a20556e646572666c6f770000000000000000000000604082015260600190565b60208082526018908201527f4361756c64726f6e3a207573657220696e736f6c76656e740000000000000000604082015260600190565b60208082526017908201527f43616c6c6572206973206e6f7420746865206f776e6572000000000000000000604082015260600190565b60208082526015908201527f4361756c64726f6e3a2063616c6c206661696c65640000000000000000000000604082015260600190565b60208082526015908201527f4f776e61626c653a207a65726f20616464726573730000000000000000000000604082015260600190565b6020808252601c908201527f426f72696e674d6174683a2075696e74313238204f766572666c6f7700000000604082015260600190565b60208082526019908201527f4361756c64726f6e3a20616c6c2061726520736f6c76656e7400000000000000604082015260600190565b60208082526018908201527f426f72696e674d6174683a20416464204f766572666c6f770000000000000000604082015260600190565b6020808252818101527f4f776e61626c653a2063616c6c6572206973206e6f7420746865206f776e6572604082015260600190565b6020808252818101527f4f776e61626c653a2063616c6c657220213d2070656e64696e67206f776e6572604082015260600190565b60208082526014908201527f4361756c64726f6e3a2063616e27742063616c6c000000000000000000000000604082015260600190565b6020808252601d908201527f4361756c64726f6e3a20616c726561647920696e697469616c697a6564000000604082015260600190565b60208082526017908201527f4361756c64726f6e3a20536b696d20746f6f206d756368000000000000000000604082015260600190565b60208082526012908201527121b0bab6323937b71d103130b2103830b4b960711b604082015260600190565b60208082526018908201527f426f72696e674d6174683a204d756c204f766572666c6f770000000000000000604082015260600190565b60208082526015908201527f4361756c64726f6e3a2072617465206e6f74206f6b0000000000000000000000604082015260600190565b6001600160801b0391909116815260200190565b6001600160801b0392831681529116602082015260400190565b90815260200190565b918252602082015260400190565b67ffffffffffffffff9290921682526001600160801b0316602082015260400190565b6000808335601e19843603018112613f47578283fd5b83018035915067ffffffffffffffff821115613f61578283fd5b60200191503681900382131561091557600080fd5b60405181810167ffffffffffffffff81118282101715613f9557600080fd5b604052919050565b600067ffffffffffffffff821115613fb3578081fd5b5060209081020190565b600067ffffffffffffffff821115613fd3578081fd5b50601f01601f191660200190565b60009081526020902090565b60005b83811015614008578181015183820152602001613ff0565b83811115612e865750506000910152565b6001600160a01b038116811461402e57600080fd5b50565b801515811461402e57600080fd5b6001600160801b038116811461402e57600080fd5b60ff8116811461402e57600080fdfea2646970667358221220a6407592a968ed130a278a0cd6cb8e5ef98934d4d9689a679183dc69ef4f0f3364736f6c634300060c0033"
}