{
  "address": "0x3E2a2BC69E5C22A8DA4056B413621D1820Eb493E",
  "abi": [
    {
      "inputs": [
        {
          "internalType": "contract IBentoBoxV1",
          "name": "bentoBox_",
          "type": "address"
        },
        {
          "internalType": "contract IERC20",
          "name": "magicInternetMoney_",
          "type": "address"
        }
      ],
      "stateMutability": "nonpayable",
      "type": "constructor"
    },
    {
      "anonymous": false,
      "inputs": [
        {
          "indexed": false,
          "internalType": "uint128",
          "name": "accruedAmount",
          "type": "uint128"
        }
      ],
      "name": "LogAccrue",
      "type": "event"
    },
    {
      "anonymous": false,
      "inputs": [
        {
          "indexed": true,
          "internalType": "address",
          "name": "from",
          "type": "address"
        },
        {
          "indexed": true,
          "internalType": "address",
          "name": "to",
          "type": "address"
        },
        {
          "indexed": false,
          "internalType": "uint256",
          "name": "share",
          "type": "uint256"
        }
      ],
      "name": "LogAddCollateral",
      "type": "event"
    },
    {
      "anonymous": false,
      "inputs": [
        {
          "indexed": true,
          "internalType": "address",
          "name": "from",
          "type": "address"
        },
        {
          "indexed": true,
          "internalType": "address",
          "name": "to",
          "type": "address"
        },
        {
          "indexed": false,
          "internalType": "uint256",
          "name": "amount",
          "type": "uint256"
        },
        {
          "indexed": false,
          "internalType": "uint256",
          "name": "part",
          "type": "uint256"
        }
      ],
      "name": "LogBorrow",
      "type": "event"
    },
    {
      "anonymous": false,
      "inputs": [
        {
          "indexed": false,
          "internalType": "uint128",
          "name": "newLimit",
          "type": "uint128"
        },
        {
          "indexed": false,
          "internalType": "uint128",
          "name": "perAddressPart",
          "type": "uint128"
        }
      ],
      "name": "LogChangeBorrowLimit",
      "type": "event"
    },
    {
      "anonymous": false,
      "inputs": [
        {
          "indexed": false,
          "internalType": "uint256",
          "name": "rate",
          "type": "uint256"
        }
      ],
      "name": "LogExchangeRate",
      "type": "event"
    },
    {
      "anonymous": false,
      "inputs": [
        {
          "indexed": true,
          "internalType": "address",
          "name": "newFeeTo",
          "type": "address"
        }
      ],
      "name": "LogFeeTo",
      "type": "event"
    },
    {
      "anonymous": false,
      "inputs": [
        {
          "indexed": false,
          "internalType": "uint64",
          "name": "oldInterestRate",
          "type": "uint64"
        },
        {
          "indexed": false,
          "internalType": "uint64",
          "name": "newInterestRate",
          "type": "uint64"
        }
      ],
      "name": "LogInterestChange",
      "type": "event"
    },
    {
      "anonymous": false,
      "inputs": [
        {
          "indexed": true,
          "internalType": "address",
          "name": "from",
          "type": "address"
        },
        {
          "indexed": true,
          "internalType": "address",
          "name": "user",
          "type": "address"
        },
        {
          "indexed": true,
          "internalType": "address",
          "name": "to",
          "type": "address"
        },
        {
          "indexed": false,
          "internalType": "uint256",
          "name": "collateralShare",
          "type": "uint256"
        },
        {
          "indexed": false,
          "internalType": "uint256",
          "name": "borrowAmount",
          "type": "uint256"
        },
        {
          "indexed": false,
          "internalType": "uint256",
          "name": "borrowPart",
          "type": "uint256"
        }
      ],
      "name": "LogLiquidation",
      "type": "event"
    },
    {
      "anonymous": false,
      "inputs": [
        {
          "indexed": true,
          "internalType": "address",
          "name": "from",
          "type": "address"
        },
        {
          "indexed": true,
          "internalType": "address",
          "name": "to",
          "type": "address"
        },
        {
          "indexed": false,
          "internalType": "uint256",
          "name": "share",
          "type": "uint256"
        }
      ],
      "name": "LogRemoveCollateral",
      "type": "event"
    },
    {
      "anonymous": false,
      "inputs": [
        {
          "indexed": true,
          "internalType": "address",
          "name": "from",
          "type": "address"
        },
        {
          "indexed": true,
          "internalType": "address",
          "name": "to",
          "type": "address"
        },
        {
          "indexed": false,
          "internalType": "uint256",
          "name": "amount",
          "type": "uint256"
        },
        {
          "indexed": false,
          "internalType": "uint256",
          "name": "part",
          "type": "uint256"
        }
      ],
      "name": "LogRepay",
      "type": "event"
    },
    {
      "anonymous": false,
      "inputs": [
        {
          "indexed": true,
          "internalType": "address",
          "name": "feeTo",
          "type": "address"
        },
        {
          "indexed": false,
          "internalType": "uint256",
          "name": "feesEarnedFraction",
          "type": "uint256"
        }
      ],
      "name": "LogWithdrawFees",
      "type": "event"
    },
    {
      "anonymous": false,
      "inputs": [
        {
          "indexed": true,
          "internalType": "address",
          "name": "previousOwner",
          "type": "address"
        },
        {
          "indexed": true,
          "internalType": "address",
          "name": "newOwner",
          "type": "address"
        }
      ],
      "name": "OwnershipTransferred",
      "type": "event"
    },
    {
      "inputs": [],
      "name": "BORROW_OPENING_FEE",
      "outputs": [
        {
          "internalType": "uint256",
          "name": "",
          "type": "uint256"
        }
      ],
      "stateMutability": "view",
      "type": "function"
    },
    {
      "inputs": [],
      "name": "COLLATERIZATION_RATE",
      "outputs": [
        {
          "internalType": "uint256",
          "name": "",
          "type": "uint256"
        }
      ],
      "stateMutability": "view",
      "type": "function"
    },
    {
      "inputs": [],
      "name": "LIQUIDATION_MULTIPLIER",
      "outputs": [
        {
          "internalType": "uint256",
          "name": "",
          "type": "uint256"
        }
      ],
      "stateMutability": "view",
      "type": "function"
    },
    {
      "inputs": [],
      "name": "accrue",
      "outputs": [],
      "stateMutability": "nonpayable",
      "type": "function"
    },
    {
      "inputs": [],
      "name": "accrueInfo",
      "outputs": [
        {
          "internalType": "uint64",
          "name": "lastAccrued",
          "type": "uint64"
        },
        {
          "internalType": "uint128",
          "name": "feesEarned",
          "type": "uint128"
        },
        {
          "internalType": "uint64",
          "name": "INTEREST_PER_SECOND",
          "type": "uint64"
        }
      ],
      "stateMutability": "view",
      "type": "function"
    },
    {
      "inputs": [
        {
          "internalType": "address",
          "name": "to",
          "type": "address"
        },
        {
          "internalType": "bool",
          "name": "skim",
          "type": "bool"
        },
        {
          "internalType": "uint256",
          "name": "share",
          "type": "uint256"
        }
      ],
      "name": "addCollateral",
      "outputs": [],
      "stateMutability": "nonpayable",
      "type": "function"
    },
    {
      "inputs": [],
      "name": "bentoBox",
      "outputs": [
        {
          "internalType": "contract IBentoBoxV1",
          "name": "",
          "type": "address"
        }
      ],
      "stateMutability": "view",
      "type": "function"
    },
    {
      "inputs": [
        {
          "internalType": "address",
          "name": "to",
          "type": "address"
        },
        {
          "internalType": "uint256",
          "name": "amount",
          "type": "uint256"
        }
      ],
      "name": "borrow",
      "outputs": [
        {
          "internalType": "uint256",
          "name": "part",
          "type": "uint256"
        },
        {
          "internalType": "uint256",
          "name": "share",
          "type": "uint256"
        }
      ],
      "stateMutability": "nonpayable",
      "type": "function"
    },
    {
      "inputs": [],
      "name": "borrowLimit",
      "outputs": [
        {
          "internalType": "uint128",
          "name": "total",
          "type": "uint128"
        },
        {
          "internalType": "uint128",
          "name": "borrowPartPerAddress",
          "type": "uint128"
        }
      ],
      "stateMutability": "view",
      "type": "function"
    },
    {
      "inputs": [
        {
          "internalType": "uint128",
          "name": "newBorrowLimit",
          "type": "uint128"
        },
        {
          "internalType": "uint128",
          "name": "perAddressPart",
          "type": "uint128"
        }
      ],
      "name": "changeBorrowLimit",
      "outputs": [],
      "stateMutability": "nonpayable",
      "type": "function"
    },
    {
      "inputs": [
        {
          "internalType": "uint64",
          "name": "newInterestRate",
          "type": "uint64"
        }
      ],
      "name": "changeInterestRate",
      "outputs": [],
      "stateMutability": "nonpayable",
      "type": "function"
    },
    {
      "inputs": [],
      "name": "claimOwnership",
      "outputs": [],
      "stateMutability": "nonpayable",
      "type": "function"
    },
    {
      "inputs": [],
      "name": "collateral",
      "outputs": [
        {
          "internalType": "contract IERC20",
          "name": "",
          "type": "address"
        }
      ],
      "stateMutability": "view",
      "type": "function"
    },
    {
      "inputs": [
        {
          "internalType": "uint8[]",
          "name": "actions",
          "type": "uint8[]"
        },
        {
          "internalType": "uint256[]",
          "name": "values",
          "type": "uint256[]"
        },
        {
          "internalType": "bytes[]",
          "name": "datas",
          "type": "bytes[]"
        }
      ],
      "name": "cook",
      "outputs": [
        {
          "internalType": "uint256",
          "name": "value1",
          "type": "uint256"
        },
        {
          "internalType": "uint256",
          "name": "value2",
          "type": "uint256"
        }
      ],
      "stateMutability": "payable",
      "type": "function"
    },
    {
      "inputs": [],
      "name": "exchangeRate",
      "outputs": [
        {
          "internalType": "uint256",
          "name": "",
          "type": "uint256"
        }
      ],
      "stateMutability": "view",
      "type": "function"
    },
    {
      "inputs": [],
      "name": "feeTo",
      "outputs": [
        {
          "internalType": "address",
          "name": "",
          "type": "address"
        }
      ],
      "stateMutability": "view",
      "type": "function"
    },
    {
      "inputs": [
        {
          "internalType": "bytes",
          "name": "data",
          "type": "bytes"
        }
      ],
      "name": "init",
      "outputs": [],
      "stateMutability": "payable",
      "type": "function"
    },
    {
      "inputs": [
        {
          "internalType": "address[]",
          "name": "users",
          "type": "address[]"
        },
        {
          "internalType": "uint256[]",
          "name": "maxBorrowParts",
          "type": "uint256[]"
        },
        {
          "internalType": "address",
          "name": "to",
          "type": "address"
        },
        {
          "internalType": "contract ISwapper",
          "name": "swapper",
          "type": "address"
        }
      ],
      "name": "liquidate",
      "outputs": [],
      "stateMutability": "nonpayable",
      "type": "function"
    },
    {
      "inputs": [],
      "name": "magicInternetMoney",
      "outputs": [
        {
          "internalType": "contract IERC20",
          "name": "",
          "type": "address"
        }
      ],
      "stateMutability": "view",
      "type": "function"
    },
    {
      "inputs": [],
      "name": "masterContract",
      "outputs": [
        {
          "internalType": "contract CauldronV3",
          "name": "",
          "type": "address"
        }
      ],
      "stateMutability": "view",
      "type": "function"
    },
    {
      "inputs": [],
      "name": "oracle",
      "outputs": [
        {
          "internalType": "contract IOracle",
          "name": "",
          "type": "address"
        }
      ],
      "stateMutability": "view",
      "type": "function"
    },
    {
      "inputs": [],
      "name": "oracleData",
      "outputs": [
        {
          "internalType": "bytes",
          "name": "",
          "type": "bytes"
        }
      ],
      "stateMutability": "view",
      "type": "function"
    },
    {
      "inputs": [],
      "name": "owner",
      "outputs": [
        {
          "internalType": "address",
          "name": "",
          "type": "address"
        }
      ],
      "stateMutability": "view",
      "type": "function"
    },
    {
      "inputs": [],
      "name": "pendingOwner",
      "outputs": [
        {
          "internalType": "address",
          "name": "",
          "type": "address"
        }
      ],
      "stateMutability": "view",
      "type": "function"
    },
    {
      "inputs": [
        {
          "internalType": "uint256",
          "name": "amount",
          "type": "uint256"
        }
      ],
      "name": "reduceSupply",
      "outputs": [],
      "stateMutability": "nonpayable",
      "type": "function"
    },
    {
      "inputs": [
        {
          "internalType": "address",
          "name": "to",
          "type": "address"
        },
        {
          "internalType": "uint256",
          "name": "share",
          "type": "uint256"
        }
      ],
      "name": "removeCollateral",
      "outputs": [],
      "stateMutability": "nonpayable",
      "type": "function"
    },
    {
      "inputs": [
        {
          "internalType": "address",
          "name": "to",
          "type": "address"
        },
        {
          "internalType": "bool",
          "name": "skim",
          "type": "bool"
        },
        {
          "internalType": "uint256",
          "name": "part",
          "type": "uint256"
        }
      ],
      "name": "repay",
      "outputs": [
        {
          "internalType": "uint256",
          "name": "amount",
          "type": "uint256"
        }
      ],
      "stateMutability": "nonpayable",
      "type": "function"
    },
    {
      "inputs": [
        {
          "internalType": "address",
          "name": "newFeeTo",
          "type": "address"
        }
      ],
      "name": "setFeeTo",
      "outputs": [],
      "stateMutability": "nonpayable",
      "type": "function"
    },
    {
      "inputs": [],
      "name": "totalBorrow",
      "outputs": [
        {
          "internalType": "uint128",
          "name": "elastic",
          "type": "uint128"
        },
        {
          "internalType": "uint128",
          "name": "base",
          "type": "uint128"
        }
      ],
      "stateMutability": "view",
      "type": "function"
    },
    {
      "inputs": [],
      "name": "totalCollateralShare",
      "outputs": [
        {
          "internalType": "uint256",
          "name": "",
          "type": "uint256"
        }
      ],
      "stateMutability": "view",
      "type": "function"
    },
    {
      "inputs": [
        {
          "internalType": "address",
          "name": "newOwner",
          "type": "address"
        },
        {
          "internalType": "bool",
          "name": "direct",
          "type": "bool"
        },
        {
          "internalType": "bool",
          "name": "renounce",
          "type": "bool"
        }
      ],
      "name": "transferOwnership",
      "outputs": [],
      "stateMutability": "nonpayable",
      "type": "function"
    },
    {
      "inputs": [],
      "name": "updateExchangeRate",
      "outputs": [
        {
          "internalType": "bool",
          "name": "updated",
          "type": "bool"
        },
        {
          "internalType": "uint256",
          "name": "rate",
          "type": "uint256"
        }
      ],
      "stateMutability": "nonpayable",
      "type": "function"
    },
    {
      "inputs": [
        {
          "internalType": "address",
          "name": "",
          "type": "address"
        }
      ],
      "name": "userBorrowPart",
      "outputs": [
        {
          "internalType": "uint256",
          "name": "",
          "type": "uint256"
        }
      ],
      "stateMutability": "view",
      "type": "function"
    },
    {
      "inputs": [
        {
          "internalType": "address",
          "name": "",
          "type": "address"
        }
      ],
      "name": "userCollateralShare",
      "outputs": [
        {
          "internalType": "uint256",
          "name": "",
          "type": "uint256"
        }
      ],
      "stateMutability": "view",
      "type": "function"
    },
    {
      "inputs": [],
      "name": "withdrawFees",
      "outputs": [],
      "stateMutability": "nonpayable",
      "type": "function"
    }
  ],
  "transactionHash": "0x7fe0adff5635105d72c27c1eae0ea45835d63f0ef3237ce37e6b4af18c287dc1",
  "args": [
    "0xd96f48665a1410C0cd669A88898ecA36B9Fc2cce",
    "0x99D8a9C45b2ecA8864373A26D1459e3Dff1e17F3"
  ],
  "solcInputHash": "398aa0ca9c4326669473f374125cd783",
  "bytecode": "0x60e06040523480156200001157600080fd5b5060405162004d5038038062004d50833981016040819052620000349162000099565b600080546001600160a01b0319163390811782556040519091907f8be0079c531659141344cd1fd0a4f28419497f9722a3daafe3b4186f6b6457e0908290a36001600160601b0319606092831b811660805290821b1660c05230901b60a052620000f0565b60008060408385031215620000ac578182fd5b8251620000b981620000d7565b6020840151909250620000cc81620000d7565b809150509250929050565b6001600160a01b0381168114620000ed57600080fd5b50565b60805160601c60a05160601c60c05160601c614b53620001fd60003980610ac65280610b8952806115c95280611926528061208052806121c35280612289528061234d52806123be528061297b5280612a2b5280612d245280612de652508061080c52806109d952806118365280611948528061241b52806124eb525080610a915280610b5c5280611193528061135b5280611433528061159a528061176f52806118f75280611ae05280611c075280612053528061211a528061225c5280612320528061294c52806129fc5280612a575280612ae15280612cef5280612db95280612f3f52806130e7528061319d528061327952806133fe528061363e528061371b5250614b536000f3fe6080604052600436106102345760003560e01c80637dc0d1d011610138578063b27c0e74116100b0578063e30c39781161007f578063f46901ed11610064578063f46901ed146105ae578063f7dad434146105ce578063f8ba4cff146105ee57610234565b8063e30c397814610584578063e551d11d1461059957610234565b8063b27c0e7414610521578063c7ee2a7b14610545578063cd446e221461055a578063d8dfeb451461056f57610234565b8063876467f811610107578063912860c5116100ec578063912860c5146104d75780639b352ae1146104f7578063aba024f41461050c57610234565b8063876467f8146104a25780638da5cb5b146104c257610234565b80637dc0d1d01461042a578063806234441461043f5780638285ef401461045f578063860ffea11461048257610234565b8063476343ee116101cb5780634e71e0c81161019a5780636b2ace871161017f5780636b2ace87146103de5780636ec097fb146103f357806374645ff31461040857610234565b80634e71e0c8146103b6578063656f3d64146103cb57610234565b8063476343ee1461034057806348e4163e146103555780634b8a3529146103755780634ddf47d4146103a357610234565b80631c9e379b116102075780631c9e379b146102d65780631cd4c966146102f65780633ba0b9a914610316578063473e3ce71461032b57610234565b8063017e7e581461023957806302ce728f14610264578063078dfbe71461028757806315294c40146102a9575b600080fd5b34801561024557600080fd5b5061024e610603565b60405161025b91906142dc565b60405180910390f35b34801561027057600080fd5b50610279610612565b60405161025b929190614329565b34801561029357600080fd5b506102a76102a2366004613c61565b6106ec565b005b3480156102b557600080fd5b506102c96102c4366004613cab565b6107db565b60405161025b919061496a565b3480156102e257600080fd5b506102c96102f1366004613afe565b6107f8565b34801561030257600080fd5b506102a7610311366004614233565b61080a565b34801561032257600080fd5b506102c96109c1565b34801561033757600080fd5b506102c96109c7565b34801561034c57600080fd5b506102a76109cd565b34801561036157600080fd5b506102c9610370366004613afe565b610c44565b34801561038157600080fd5b50610395610390366004613ceb565b610c56565b60405161025b929190614973565b6102a76103b1366004613e9f565b610cab565b3480156103c257600080fd5b506102a7610e3a565b6103956103d9366004613da8565b610ec7565b3480156103ea57600080fd5b5061024e61176d565b3480156103ff57600080fd5b506102c9611791565b34801561041457600080fd5b5061041d611797565b60405161025b9190614339565b34801561043657600080fd5b5061024e611825565b34801561044b57600080fd5b506102a761045a36600461411c565b611834565b34801561046b57600080fd5b50610474611a4b565b60405161025b929190614950565b34801561048e57600080fd5b506102a761049d366004613cab565b611a65565b3480156104ae57600080fd5b506102a76104bd366004613ceb565b611b46565b3480156104ce57600080fd5b5061024e611b8b565b3480156104e357600080fd5b506102a76104f2366004613d16565b611b9a565b34801561050357600080fd5b5061024e6123bc565b34801561051857600080fd5b506102c96123e0565b34801561052d57600080fd5b506105366123e6565b60405161025b93929190614997565b34801561055157600080fd5b506102c9612413565b34801561056657600080fd5b5061024e612419565b34801561057b57600080fd5b5061024e61243d565b34801561059057600080fd5b5061024e61244c565b3480156105a557600080fd5b5061047461245b565b3480156105ba57600080fd5b506102a76105c9366004613afe565b612475565b3480156105da57600080fd5b506102a76105e93660046141cb565b6124e9565b3480156105fa57600080fd5b506102a761261e565b6002546001600160a01b031681565b6004805460405163d6d7d52560e01b815260009283926001600160a01b03169163d6d7d52591610645916005910161436c565b6040805180830381600087803b15801561065e57600080fd5b505af1158015610672573d6000803e3d6000fd5b505050506040513d601f19601f820116820180604052508101906106969190613e3e565b909250905081156106e357600b8190556040517f9f9192b5edb17356c524e08d9e025c8e2f6307e6ea52fb7968faa3081f51c3c8906106d690839061496a565b60405180910390a16106e8565b50600b545b9091565b6000546001600160a01b0316331461071f5760405162461bcd60e51b81526004016107169061471a565b60405180910390fd5b81156107ba576001600160a01b0383161515806107395750805b6107555760405162461bcd60e51b815260040161071690614607565b600080546040516001600160a01b03808716939216917f8be0079c531659141344cd1fd0a4f28419497f9722a3daafe3b4186f6b6457e091a3600080546001600160a01b0385166001600160a01b0319918216179091556001805490911690556107d6565b600180546001600160a01b0319166001600160a01b0385161790555b505050565b60006107e561261e565b6107f084848461288b565b949350505050565b60096020526000908152604090205481565b7f00000000000000000000000000000000000000000000000000000000000000006001600160a01b0316638da5cb5b6040518163ffffffff1660e01b815260040160206040518083038186803b15801561086357600080fd5b505afa158015610877573d6000803e3d6000fd5b505050506040513d601f19601f8201168201806040525081019061089b9190613b1a565b6001600160a01b0316336001600160a01b0316146108cb5760405162461bcd60e51b815260040161071690614599565b600c5467ffffffffffffffff600160c01b909104811690600490600383021604810167ffffffffffffffff168267ffffffffffffffff16108061091c57506312e687c067ffffffffffffffff831611155b6109385760405162461bcd60e51b815260040161071690614784565b42600d546203f480011061095e5760405162461bcd60e51b8152600401610716906146e3565b42600d55600c80546001600160c01b0316600160c01b67ffffffffffffffff8516021790556040517f76bc92b92b7755bcb03b25070431a80435c4d3fbf91c6c81c0c0cc350f6b5c6a906109b590839085906149c4565b60405180910390a15050565b600b5481565b60075481565b6109d561261e565b60007f00000000000000000000000000000000000000000000000000000000000000006001600160a01b031663017e7e586040518163ffffffff1660e01b815260040160206040518083038186803b158015610a3057600080fd5b505afa158015610a44573d6000803e3d6000fd5b505050506040513d601f19601f82011682018060405250810190610a689190613b1a565b600c54604051636d289ce560e11b8152919250600160401b90046001600160801b0316906000907f00000000000000000000000000000000000000000000000000000000000000006001600160a01b03169063da5139ca90610af2907f00000000000000000000000000000000000000000000000000000000000000009086908690600401614508565b60206040518083038186803b158015610b0a57600080fd5b505afa158015610b1e573d6000803e3d6000fd5b505050506040513d601f19601f82011682018060405250810190610b4291906141f8565b604051633c6340f360e21b81529091506001600160a01b037f0000000000000000000000000000000000000000000000000000000000000000169063f18d03cc90610bb7907f000000000000000000000000000000000000000000000000000000000000000090309088908790600401614410565b600060405180830381600087803b158015610bd157600080fd5b505af1158015610be5573d6000803e3d6000fd5b5050600c8054600160401b600160c01b031916905550506040516001600160a01b038416907fbe641c3ffc44b2d6c184f023fa4ed7bda4b6ffa71e03b3c98ae0c776da1f17e790610c3790859061496a565b60405180910390a2505050565b600a6020526000908152604090205481565b600080610c6161261e565b610c6b8484612b4b565b90925090506000610c7a610612565b915050610c873382612e9e565b610ca35760405162461bcd60e51b815260040161071690614562565b509250929050565b6003546001600160a01b031615610cd45760405162461bcd60e51b8152600401610716906147f2565b610ce081830183614055565b6010819055600e829055600f839055600c80546001600160c01b0316600160c01b67ffffffffffffffff87160217905584516003906000906004908290610d2e9060059060208c0190613948565b50815461010091820a6001600160a01b03818102199092169b8216029a909a17909155825491900a8089021990911698881602979097179096555050604080518082019091526001600160801b0380825260209091015250506000196006556003541615159050610db15760405162461bcd60e51b815260040161071690614860565b6004805460405163d6d7d52560e01b81526001600160a01b039091169163d6d7d52591610de1916005910161436c565b6040805180830381600087803b158015610dfa57600080fd5b505af1158015610e0e573d6000803e3d6000fd5b505050506040513d601f19601f82011682018060405250810190610e329190613e3e565b600b55505050565b6001546001600160a01b0316338114610e655760405162461bcd60e51b81526004016107169061474f565b600080546040516001600160a01b03808516939216917f8be0079c531659141344cd1fd0a4f28419497f9722a3daafe3b4186f6b6457e091a3600080546001600160a01b039092166001600160a01b0319928316179055600180549091169055565b600080610ed26139c2565b60005b888110156117245760008a8a83818110610eeb57fe5b9050602002016020810190610f00919061425b565b90508260200151158015610f175750600a8160ff16105b15610f2c57610f2461261e565b600160208401525b60ff8116600a1415610f86576000806000898986818110610f4957fe5b9050602002810190610f5b91906149df565b810190610f689190614163565b925092509250610f7e828261049d868c8c613026565b50505061171b565b60ff811660021415610fe6576000806000898986818110610fa357fe5b9050602002810190610fb591906149df565b810190610fc29190614163565b925092509250610fdd8282610fd8868c8c613026565b61288b565b5050505061171b565b60ff8116600414156110435760008088888581811061100157fe5b905060200281019061101391906149df565b8101906110209190614134565b9150915061103881611033848a8a613026565b61304e565b50506001835261171b565b60ff8116600514156110a65760008088888581811061105e57fe5b905060200281019061107091906149df565b81019061107d9190614134565b9150915061109581611090848a8a613026565b612b4b565b60018752909750955061171b915050565b60ff8116600b14156111455760008060008989868181106110c357fe5b90506020028101906110d591906149df565b8101906110e29190613e6b565b9250925092506000806110f3610612565b915091508415806111015750815b801561110c57508381115b801561111f575082158061111f57508281115b61113b5760405162461bcd60e51b815260040161071690614905565b505050505061171b565b60ff811660181415611224576000806000806000808c8c8981811061116657fe5b905060200281019061117891906149df565b8101906111859190613b36565b9550955095509550955095507f00000000000000000000000000000000000000000000000000000000000000006001600160a01b031663c0a47c938787878787876040518763ffffffff1660e01b81526004016111e7969594939291906142f0565b600060405180830381600087803b15801561120157600080fd5b505af1158015611215573d6000803e3d6000fd5b5050505050505050505061171b565b60ff8116601414156112ac576112a287878481811061123f57fe5b905060200281019061125191906149df565b8080601f0160208091040260200160405190810160405280939291908181526020018383808284376000920191909152508d92508c915086905081811061129457fe5b90506020020135878761315c565b909550935061171b565b60ff811660151415611317576112a28787848181106112c757fe5b90506020028101906112d991906149df565b8080601f0160208091040260200160405190810160405280939291908181526020018383808284376000920191909152508992508891506132529050565b60ff8116601614156113ef57600080600089898681811061133457fe5b905060200281019061134691906149df565b8101906113539190613f0c565b9250925092507f00000000000000000000000000000000000000000000000000000000000000006001600160a01b031663f18d03cc843385611396868e8e613026565b6040518563ffffffff1660e01b81526004016113b59493929190614410565b600060405180830381600087803b1580156113cf57600080fd5b505af11580156113e3573d6000803e3d6000fd5b5050505050505061171b565b60ff81166017141561148357600060608089898681811061140c57fe5b905060200281019061141e91906149df565b81019061142b9190613f82565b9250925092507f00000000000000000000000000000000000000000000000000000000000000006001600160a01b0316630fca8843843385856040518563ffffffff1660e01b81526004016113b5949392919061446e565b60ff8116601e141561155d57606060006115058b8b868181106114a257fe5b905060200201358a8a878181106114b557fe5b90506020028101906114c791906149df565b8080601f0160208091040260200160405190810160405280939291908181526020018383808284376000920191909152508c92508b91506133409050565b915091508060ff1660011415611530578180602001905181019061152991906141f8565b9650611556565b8060ff166002141561155657818060200190518101906115509190614210565b90975095505b505061171b565b60ff81166006141561169e57600087878481811061157757fe5b905060200281019061158991906149df565b810190611596919061411c565b90507f00000000000000000000000000000000000000000000000000000000000000006001600160a01b031663da5139ca7f00000000000000000000000000000000000000000000000000000000000000006116266115f6858b8b613026565b604080518082019091526008546001600160801b038082168352600160801b9091041660208201529060016134f6565b60016040518463ffffffff1660e01b815260040161164693929190614508565b60206040518083038186803b15801561165e57600080fd5b505afa158015611672573d6000803e3d6000fd5b505050506040513d601f19601f8201168201806040525081019061169691906141f8565b95505061171b565b60ff81166007141561171b5760008787848181106116b857fe5b90506020028101906116ca91906149df565b8101906116d7919061411c565b90506117176116e7828888613026565b604080518082019091526008546001600160801b038082168352600160801b909104166020820152906000613596565b9550505b50600101610ed5565b50805115611761576000611736610612565b9150506117433382612e9e565b61175f5760405162461bcd60e51b815260040161071690614562565b505b50965096945050505050565b7f000000000000000000000000000000000000000000000000000000000000000081565b600f5481565b6005805460408051602060026001851615610100026000190190941693909304601f8101849004840282018401909252818152929183018282801561181d5780601f106117f25761010080835404028352916020019161181d565b820191906000526020600020905b81548152906001019060200180831161180057829003601f168201915b505050505081565b6004546001600160a01b031681565b7f00000000000000000000000000000000000000000000000000000000000000006001600160a01b0316638da5cb5b6040518163ffffffff1660e01b815260040160206040518083038186803b15801561188d57600080fd5b505afa1580156118a1573d6000803e3d6000fd5b505050506040513d601f19601f820116820180604052508101906118c59190613b1a565b6001600160a01b0316336001600160a01b0316146118f55760405162461bcd60e51b815260040161071690614599565b7f00000000000000000000000000000000000000000000000000000000000000006001600160a01b03166397da6d307f0000000000000000000000000000000000000000000000000000000000000000307f00000000000000000000000000000000000000000000000000000000000000006001600160a01b0316638da5cb5b6040518163ffffffff1660e01b815260040160206040518083038186803b15801561199f57600080fd5b505afa1580156119b3573d6000803e3d6000fd5b505050506040513d601f19601f820116820180604052508101906119d79190613b1a565b8560006040518663ffffffff1660e01b81526004016119fa95949392919061443a565b6040805180830381600087803b158015611a1357600080fd5b505af1158015611a27573d6000803e3d6000fd5b505050506040513d601f19601f820116820180604052508101906107d69190614210565b6008546001600160801b0380821691600160801b90041682565b6001600160a01b038316600090815260096020526040902054611a88908261360f565b6001600160a01b038416600090815260096020526040902055600754611aae818361360f565b600755600354611ac9906001600160a01b0316838386613632565b836001600160a01b031683611ade5733611b00565b7f00000000000000000000000000000000000000000000000000000000000000005b6001600160a01b03167f9ed03113de523cebfe5e49d5f8e12894b1c0d42ce805990461726444c90eab8784604051611b38919061496a565b60405180910390a350505050565b611b4e61261e565b611b58828261304e565b6000611b62610612565b915050611b6f3382612e9e565b6107d65760405162461bcd60e51b815260040161071690614562565b6000546001600160a01b031681565b6000611ba4610612565b915050611baf61261e565b6000806000611bbc6139c2565b50604080518082019091526008546001600160801b038082168352600160801b909104166020820152611bed6139c2565b600354604051634ffe34db60e01b81526001600160a01b037f0000000000000000000000000000000000000000000000000000000000000000811692634ffe34db92611c409291909116906004016142dc565b604080518083038186803b158015611c5757600080fd5b505afa158015611c6b573d6000803e3d6000fd5b505050506040513d601f19601f82011682018060405250810190611c8f9190614189565b905060005b8b811015611eee5760008d8d83818110611caa57fe5b9050602002016020810190611cbf9190613afe565b9050611ccb8189612e9e565b611ee5576001600160a01b0381166000908152600a6020526040812054808e8e86818110611cf557fe5b9050602002013511611d19578d8d85818110611d0d57fe5b90506020020135611d1b565b805b9150611d27818361378f565b6001600160a01b0384166000908152600a60205260408120919091559050611d508683836134f6565b90506000611d96670de0b6b3a7640000620186a002611d848d611d7e600f54876137b290919063ffffffff16565b906137b2565b81611d8b57fe5b889190046000613596565b6001600160a01b038516600090815260096020526040902054909150611dbc908261378f565b6001600160a01b0380861660008181526009602052604090819020939093559151908f1691907f8ad4d3ff00da092c7ad9a573ea4f5f6a3dffc6712dc06d3f78f49b862297c40290611e0f90859061496a565b60405180910390a3836001600160a01b0316336001600160a01b03167fc8e512d8f188ca059984b5853d2bf653da902696b8512785b182b2c813789a6e8486604051611e5c929190614973565b60405180910390a38c6001600160a01b0316846001600160a01b0316336001600160a01b03167f66b108dc29b952efc76dccea9b82dce6b59fab4d9af73d8dcc9789afcad5daf6848688604051611eb593929190614981565b60405180910390a4611ec78a8261360f565b9950611ed3898361360f565b9850611edf888461360f565b97505050505b50600101611c94565b5083611f0c5760405162461bcd60e51b815260040161071690614675565b611f29611f18856137e9565b83516001600160801b031690613816565b6001600160801b03168252611f54611f40846137e9565b60208401516001600160801b031690613816565b6001600160801b03908116602084018190528351600880546001600160801b03191691841691909117909216600160801b909102179055600754611f98908661378f565b60078190555060006064611fd2600a611d7e88620186a0611fc4600f548c6137b290919063ffffffff16565b81611fcb57fe5b049061378f565b81611fd957fe5b049050611fe6858261360f565b945061200d611ff4826137e9565b600c54600160401b90046001600160801b031690613845565b600c80546001600160801b0392909216600160401b02600160401b600160c01b031990921691909117905550604051636d289ce560e11b81526000906001600160a01b037f0000000000000000000000000000000000000000000000000000000000000000169063da5139ca906120ad907f0000000000000000000000000000000000000000000000000000000000000000908990600190600401614508565b60206040518083038186803b1580156120c557600080fd5b505afa1580156120d9573d6000803e3d6000fd5b505050506040513d601f19601f820116820180604052508101906120fd91906141f8565b600354604051633c6340f360e21b81529192506001600160a01b037f000000000000000000000000000000000000000000000000000000000000000081169263f18d03cc9261215692169030908e908c90600401614410565b600060405180830381600087803b15801561217057600080fd5b505af1158015612184573d6000803e3d6000fd5b505050506001600160a01b03881615612245576003546040516371a1ff0960e11b81526001600160a01b038a81169263e343fe12926121f192909116907f000000000000000000000000000000000000000000000000000000000000000090339087908d9060040161443a565b6040805180830381600087803b15801561220a57600080fd5b505af115801561221e573d6000803e3d6000fd5b505050506040513d601f19601f820116820180604052508101906122429190614210565b50505b604051636d289ce560e11b81526001600160a01b037f0000000000000000000000000000000000000000000000000000000000000000169063da5139ca906122b6907f0000000000000000000000000000000000000000000000000000000000000000908990600190600401614508565b60206040518083038186803b1580156122ce57600080fd5b505afa1580156122e2573d6000803e3d6000fd5b505050506040513d601f19601f8201168201806040525081019061230691906141f8565b604051633c6340f360e21b81529091506001600160a01b037f0000000000000000000000000000000000000000000000000000000000000000169063f18d03cc9061237b907f000000000000000000000000000000000000000000000000000000000000000090339030908790600401614410565b600060405180830381600087803b15801561239557600080fd5b505af11580156123a9573d6000803e3d6000fd5b5050505050505050505050505050505050565b7f000000000000000000000000000000000000000000000000000000000000000081565b60105481565b600c5467ffffffffffffffff808216916001600160801b03600160401b82041691600160c01b9091041683565b600e5481565b7f000000000000000000000000000000000000000000000000000000000000000081565b6003546001600160a01b031681565b6001546001600160a01b031681565b6006546001600160801b0380821691600160801b90041682565b6000546001600160a01b0316331461249f5760405162461bcd60e51b81526004016107169061471a565b600280546001600160a01b0319166001600160a01b0383169081179091556040517fcf1d3f17e521c635e0d20b8acba94ba170afc041d0546d46dafa09d3c9c19eb390600090a250565b7f00000000000000000000000000000000000000000000000000000000000000006001600160a01b0316638da5cb5b6040518163ffffffff1660e01b815260040160206040518083038186803b15801561254257600080fd5b505afa158015612556573d6000803e3d6000fd5b505050506040513d601f19601f8201168201806040525081019061257a9190613b1a565b6001600160a01b0316336001600160a01b0316146125aa5760405162461bcd60e51b815260040161071690614599565b6040805180820182526001600160801b038481168083528482166020909301839052600680546001600160801b031916909117909116600160801b909202919091179055517ff1fce436bc22563026222b3b2bdc088cb69d25192974264114df12ab812628f6906109b59084908490614950565b6126266139d9565b5060408051606081018252600c5467ffffffffffffffff8082168084526001600160801b03600160401b8404166020850152600160c01b909204169282019290925290420380612677575050612889565b67ffffffffffffffff4216825261268c6139c2565b50604080518082019091526008546001600160801b038082168352600160801b909104166020820181905261272b5750508051600c8054602084015160409094015167ffffffffffffffff908116600160c01b026001600160c01b036001600160801b03909616600160401b02600160401b600160c01b03199290951667ffffffffffffffff1990931692909217169290921792909216179055612889565b6000612778670de0b6b3a764000061276b85611d7e886040015167ffffffffffffffff1687600001516001600160801b03166137b290919063ffffffff16565b8161277257fe5b046137e9565b8251909150612790906001600160801b031682613845565b6001600160801b03908116835260208501516127ad911682613845565b6001600160801b039081166020808701829052845160088054928701518516600160801b029185166001600160801b031990931692909217909316929092179091558451600c805460408089015167ffffffffffffffff908116600160c01b026001600160c01b03600160401b909702600160401b600160c01b03199290961667ffffffffffffffff199094169390931716939093179390931692909217909155517fee527de5e142bcc7fe0eddc4b9a04816d73f6307dd74f9204585910d60a8c0839061287c90839061493c565b60405180910390a1505050505b565b604080518082019091526008546001600160801b038082168352600160801b9091041660208201526000906128c290836001613874565b8151600880546020948501516001600160801b03908116600160801b029381166001600160801b031990921691909117169190911790556001600160a01b0386166000908152600a909252604090912054909150612920908361378f565b6001600160a01b038086166000908152600a6020526040808220939093559151636d289ce560e11b81527f00000000000000000000000000000000000000000000000000000000000000009091169063da5139ca906129a8907f0000000000000000000000000000000000000000000000000000000000000000908690600190600401614508565b60206040518083038186803b1580156129c057600080fd5b505afa1580156129d4573d6000803e3d6000fd5b505050506040513d601f19601f820116820180604052508101906129f891906141f8565b90507f00000000000000000000000000000000000000000000000000000000000000006001600160a01b031663f18d03cc7f000000000000000000000000000000000000000000000000000000000000000086612a555733612a77565b7f00000000000000000000000000000000000000000000000000000000000000005b30856040518563ffffffff1660e01b8152600401612a989493929190614410565b600060405180830381600087803b158015612ab257600080fd5b505af1158015612ac6573d6000803e3d6000fd5b50505050846001600160a01b031684612adf5733612b01565b7f00000000000000000000000000000000000000000000000000000000000000005b6001600160a01b03167fc8e512d8f188ca059984b5853d2bf653da902696b8512785b182b2c813789a6e8486604051612b3b929190614973565b60405180910390a3509392505050565b6000806000620186a0612b69601054866137b290919063ffffffff16565b81612b7057fe5b049050612bb0612b80858361360f565b604080518082019091526008546001600160801b038082168352600160801b9091041660208201529060016138e9565b8151600880546020909401516001600160801b03908116600160801b029281166001600160801b031990951694909417909316179091559250612bf16139c2565b50604080518082019091526006546001600160801b03808216808452600160801b90920481166020840152600854161115612c3e5760405162461bcd60e51b815260040161071690614897565b600c54612c5b90600160401b90046001600160801b031683613845565b600c80546001600160801b0392909216600160401b02600160401b600160c01b0319909216919091179055336000908152600a6020526040812054612ca0908661360f565b905081602001516001600160801b0316811115612ccf5760405162461bcd60e51b815260040161071690614897565b336000908152600a602052604080822083905551636d289ce560e11b81527f00000000000000000000000000000000000000000000000000000000000000006001600160a01b03169163da5139ca91612d4f917f0000000000000000000000000000000000000000000000000000000000000000918b9190600401614508565b60206040518083038186803b158015612d6757600080fd5b505afa158015612d7b573d6000803e3d6000fd5b505050506040513d601f19601f82011682018060405250810190612d9f91906141f8565b604051633c6340f360e21b81529094506001600160a01b037f0000000000000000000000000000000000000000000000000000000000000000169063f18d03cc90612e14907f00000000000000000000000000000000000000000000000000000000000000009030908c908a90600401614410565b600060405180830381600087803b158015612e2e57600080fd5b505af1158015612e42573d6000803e3d6000fd5b5050506001600160a01b0388169050337fb92cb6bca8e3270b9170930f03b17571e55791acdb1a0e9f339eec88bdb35e24612e7d898761360f565b88604051612e8c929190614973565b60405180910390a35050509250929050565b6001600160a01b0382166000908152600a602052604081205480612ec6576001915050613020565b6001600160a01b03841660009081526009602052604090205480612eef57600092505050613020565b612ef76139c2565b50604080518082019091526008546001600160801b03808216808452600160801b909204166020830181905290612f35908790611d7e9087906137b2565b81612f3c57fe5b047f00000000000000000000000000000000000000000000000000000000000000006001600160a01b03166356623118600360009054906101000a90046001600160a01b0316612fa8600e54611d7e620186a0670de0b6b3a764000081612f9f57fe5b8a9190046137b2565b60006040518463ffffffff1660e01b8152600401612fc893929190614508565b60206040518083038186803b158015612fe057600080fd5b505afa158015612ff4573d6000803e3d6000fd5b505050506040513d601f19601f8201168201806040525081019061301891906141f8565b101593505050505b92915050565b60008084121561304657600019841461303f5781613041565b825b6107f0565b509192915050565b33600090815260096020526040902054613068908261378f565b33600090815260096020526040902055600754613085908261378f565b6007556040516001600160a01b0383169033907f8ad4d3ff00da092c7ad9a573ea4f5f6a3dffc6712dc06d3f78f49b862297c402906130c590859061496a565b60405180910390a3600354604051633c6340f360e21b81526001600160a01b037f000000000000000000000000000000000000000000000000000000000000000081169263f18d03cc92613126929190911690309087908790600401614410565b600060405180830381600087803b15801561314057600080fd5b505af1158015613154573d6000803e3d6000fd5b505050505050565b600080600080600080898060200190518101906131799190613f3b565b935093509350935061318c828989613026565b9150613199818989613026565b90507f00000000000000000000000000000000000000000000000000000000000000006001600160a01b03166302b9446c8a86338787876040518763ffffffff1660e01b81526004016131f095949392919061443a565b60408051808303818588803b15801561320857600080fd5b505af115801561321c573d6000803e3d6000fd5b50505050506040513d601f19601f820116820180604052508101906132419190614210565b955095505050505094509492505050565b6000806000806000808880602001905181019061326f9190613f3b565b93509350935093507f00000000000000000000000000000000000000000000000000000000000000006001600160a01b03166397da6d308533866132b4878e8e613026565b6132bf878f8f613026565b6040518663ffffffff1660e01b81526004016132df95949392919061443a565b6040805180830381600087803b1580156132f857600080fd5b505af115801561330c573d6000803e3d6000fd5b505050506040513d601f19601f820116820180604052508101906133309190614210565b9550955050505050935093915050565b606060008060606000806000898060200190518101906133609190613ba3565b94509450945094509450828015613375575081155b156133a357838960405160200161338d929190614293565b60405160208183030381529060405293506133fc565b821580156133ae5750815b156133c657838860405160200161338d929190614293565b8280156133d05750815b156133fc578389896040516020016133ea939291906142b5565b60405160208183030381529060405293505b7f00000000000000000000000000000000000000000000000000000000000000006001600160a01b0316856001600160a01b03161415801561344757506001600160a01b0385163014155b6134635760405162461bcd60e51b8152600401610716906147bb565b60006060866001600160a01b03168d876040516134809190614277565b60006040518083038185875af1925050503d80600081146134bd576040519150601f19603f3d011682016040523d82523d6000602084013e6134c2565b606091505b5091509150816134e45760405162461bcd60e51b8152600401610716906145d0565b9c919b50909950505050505050505050565b600083602001516001600160801b03166000141561351557508161358f565b602084015184516001600160801b0391821691613534918691166137b2565b8161353b57fe5b04905081801561357f57508284600001516001600160801b031661357586602001516001600160801b0316846137b290919063ffffffff16565b8161357c57fe5b04105b1561358f576107f081600161360f565b9392505050565b82516000906001600160801b03166135af57508161358f565b835160208501516001600160801b03918216916135ce918691166137b2565b816135d557fe5b04905081801561357f57508284602001516001600160801b031661357586600001516001600160801b0316846137b290919063ffffffff16565b818101818110156130205760405162461bcd60e51b8152600401610716906146ac565b8015613704576136e0827f00000000000000000000000000000000000000000000000000000000000000006001600160a01b031663f7888aec87306040518363ffffffff1660e01b815260040161368a9291906143f6565b60206040518083038186803b1580156136a257600080fd5b505afa1580156136b6573d6000803e3d6000fd5b505050506040513d601f19601f820116820180604052508101906136da91906141f8565b9061378f565b8311156136ff5760405162461bcd60e51b815260040161071690614829565b613789565b604051633c6340f360e21b81526001600160a01b037f0000000000000000000000000000000000000000000000000000000000000000169063f18d03cc90613756908790339030908990600401614410565b600060405180830381600087803b15801561377057600080fd5b505af1158015613784573d6000803e3d6000fd5b505050505b50505050565b808203828111156130205760405162461bcd60e51b81526004016107169061452b565b60008115806137cd575050808202828282816137ca57fe5b04145b6130205760405162461bcd60e51b8152600401610716906148ce565b60006001600160801b038211156138125760405162461bcd60e51b81526004016107169061463e565b5090565b8082036001600160801b0380841690821611156130205760405162461bcd60e51b81526004016107169061452b565b8181016001600160801b0380831690821610156130205760405162461bcd60e51b8152600401610716906146ac565b61387c6139c2565b60006138898585856134f6565b90506138a8613897826137e9565b86516001600160801b031690613816565b6001600160801b031685526138d36138bf856137e9565b60208701516001600160801b031690613816565b6001600160801b03166020860152939492505050565b6138f16139c2565b60006138fe858585613596565b905061391d61390c856137e9565b86516001600160801b031690613845565b6001600160801b031685526138d3613934826137e9565b60208701516001600160801b031690613845565b828054600181600116156101000203166002900490600052602060002090601f016020900481019282601f1061398957805160ff19168380011785556139b6565b828001600101855582156139b6579182015b828111156139b657825182559160200191906001019061399b565b506138129291506139f9565b604080518082019091526000808252602082015290565b604080516060810182526000808252602082018190529181019190915290565b5b8082111561381257600081556001016139fa565b803561302081614ad3565b60008083601f840112613a2a578182fd5b50813567ffffffffffffffff811115613a41578182fd5b6020830191508360208083028501011115613a5b57600080fd5b9250929050565b600082601f830112613a72578081fd5b8135613a85613a8082614a4b565b614a24565b818152915060208083019084810181840286018201871015613aa657600080fd5b60005b84811015613ac557813584529282019290820190600101613aa9565b505050505092915050565b805161302081614aeb565b803567ffffffffffffffff8116811461302057600080fd5b805161302081614b0e565b600060208284031215613b0f578081fd5b813561358f81614ad3565b600060208284031215613b2b578081fd5b815161358f81614ad3565b60008060008060008060c08789031215613b4e578182fd5b8635613b5981614ad3565b95506020870135613b6981614ad3565b94506040870135613b7981614aeb565b93506060870135613b8981614b0e565b9598949750929560808101359460a0909101359350915050565b600080600080600060a08688031215613bba578283fd5b8551613bc581614ad3565b602087015190955067ffffffffffffffff811115613be1578384fd5b8601601f81018813613bf1578384fd5b8051613bff613a8082614a6b565b818152896020838501011115613c13578586fd5b613c24826020830160208601614aa7565b809650505050613c378760408801613ad0565b9250613c468760608801613ad0565b9150613c558760808801613af3565b90509295509295909350565b600080600060608486031215613c75578081fd5b8335613c8081614ad3565b92506020840135613c9081614aeb565b91506040840135613ca081614aeb565b809150509250925092565b600080600060608486031215613cbf578081fd5b8335613cca81614ad3565b92506020840135613cda81614aeb565b929592945050506040919091013590565b60008060408385031215613cfd578182fd5b8235613d0881614ad3565b946020939093013593505050565b60008060008060008060808789031215613d2e578384fd5b863567ffffffffffffffff80821115613d45578586fd5b613d518a838b01613a19565b90985096506020890135915080821115613d69578586fd5b50613d7689828a01613a19565b9095509350506040870135613d8a81614ad3565b91506060870135613d9a81614ad3565b809150509295509295509295565b60008060008060008060608789031215613dc0578384fd5b863567ffffffffffffffff80821115613dd7578586fd5b613de38a838b01613a19565b90985096506020890135915080821115613dfb578586fd5b613e078a838b01613a19565b90965094506040890135915080821115613e1f578384fd5b50613e2c89828a01613a19565b979a9699509497509295939492505050565b60008060408385031215613e50578182fd5b8251613e5b81614aeb565b6020939093015192949293505050565b600080600060608486031215613e7f578081fd5b8335613e8a81614aeb565b95602085013595506040909401359392505050565b60008060208385031215613eb1578182fd5b823567ffffffffffffffff80821115613ec8578384fd5b818501915085601f830112613edb578384fd5b813581811115613ee9578485fd5b866020828501011115613efa578485fd5b60209290920196919550909350505050565b600080600060608486031215613f20578081fd5b8335613f2b81614ad3565b92506020840135613cda81614ad3565b60008060008060808587031215613f50578182fd5b8451613f5b81614ad3565b6020860151909450613f6c81614ad3565b6040860151606090960151949790965092505050565b600080600060608486031215613f96578081fd5b8335613fa181614ad3565b925060208481013567ffffffffffffffff80821115613fbe578384fd5b818701915087601f830112613fd1578384fd5b8135613fdf613a8082614a4b565b81815284810190848601868402860187018c1015613ffb578788fd5b8795505b83861015614025576140118c82613a0e565b835260019590950194918601918601613fff565b5096505050604087013592508083111561403d578384fd5b505061404b86828701613a62565b9150509250925092565b600080600080600080600060e0888a03121561406f578485fd5b873561407a81614ad3565b9650602088013561408a81614ad3565b9550604088013567ffffffffffffffff8111156140a5578586fd5b8801601f81018a136140b5578586fd5b80356140c3613a8082614a6b565b8181528b60208385010111156140d7578788fd5b6140e8826020830160208601614a9b565b8097505050506140fb8960608a01613adb565b9699959850939660808101359560a0820135955060c0909101359350915050565b60006020828403121561412d578081fd5b5035919050565b60008060408385031215614146578182fd5b82359150602083013561415881614ad3565b809150509250929050565b600080600060608486031215614177578081fd5b833592506020840135613c9081614ad3565b60006040828403121561419a578081fd5b6141a46040614a24565b82516141af81614af9565b815260208301516141bf81614af9565b60208201529392505050565b600080604083850312156141dd578182fd5b82356141e881614af9565b9150602083013561415881614af9565b600060208284031215614209578081fd5b5051919050565b60008060408385031215614222578182fd5b505080516020909101519092909150565b600060208284031215614244578081fd5b813567ffffffffffffffff8116811461358f578182fd5b60006020828403121561426c578081fd5b813561358f81614b0e565b60008251614289818460208701614aa7565b9190910192915050565b600083516142a5818460208801614aa7565b9190910191825250602001919050565b600084516142c7818460208901614aa7565b91909101928352506020820152604001919050565b6001600160a01b0391909116815260200190565b6001600160a01b039687168152949095166020850152911515604084015260ff166060830152608082015260a081019190915260c00190565b9115158252602082015260400190565b6000602082528251806020840152614358816040850160208701614aa7565b601f01601f19169190910160400192915050565b6000602080830181845282855460018082166000811461439357600181146143b1576143e9565b60028304607f16855260ff19831660408901526060880193506143e9565b600283048086526143c18a614a8f565b885b828110156143df5781548b8201604001529084019088016143c3565b8a01604001955050505b5091979650505050505050565b6001600160a01b0392831681529116602082015260400190565b6001600160a01b039485168152928416602084015292166040820152606081019190915260800190565b6001600160a01b03958616815293851660208501529190931660408301526060820192909252608081019190915260a00190565b6000608082016001600160a01b0380881684526020818816818601526080604086015282875180855260a0870191508289019450855b818110156144c25785518516835294830194918301916001016144a4565b50508581036060870152865180825290820193509150808601845b838110156144f9578151855293820193908201906001016144dd565b50929998505050505050505050565b6001600160a01b0393909316835260208301919091521515604082015260600190565b60208082526015908201527f426f72696e674d6174683a20556e646572666c6f770000000000000000000000604082015260600190565b60208082526018908201527f4361756c64726f6e3a207573657220696e736f6c76656e740000000000000000604082015260600190565b60208082526017908201527f43616c6c6572206973206e6f7420746865206f776e6572000000000000000000604082015260600190565b60208082526015908201527f4361756c64726f6e3a2063616c6c206661696c65640000000000000000000000604082015260600190565b60208082526015908201527f4f776e61626c653a207a65726f20616464726573730000000000000000000000604082015260600190565b6020808252601c908201527f426f72696e674d6174683a2075696e74313238204f766572666c6f7700000000604082015260600190565b60208082526019908201527f4361756c64726f6e3a20616c6c2061726520736f6c76656e7400000000000000604082015260600190565b60208082526018908201527f426f72696e674d6174683a20416464204f766572666c6f770000000000000000604082015260600190565b60208082526018908201527f557064617465206f6e6c79206576657279203320646179730000000000000000604082015260600190565b6020808252818101527f4f776e61626c653a2063616c6c6572206973206e6f7420746865206f776e6572604082015260600190565b6020808252818101527f4f776e61626c653a2063616c6c657220213d2070656e64696e67206f776e6572604082015260600190565b6020808252601c908201527f496e746572657374207261746520696e637265617365203e2037352500000000604082015260600190565b60208082526014908201527f4361756c64726f6e3a2063616e27742063616c6c000000000000000000000000604082015260600190565b6020808252601d908201527f4361756c64726f6e3a20616c726561647920696e697469616c697a6564000000604082015260600190565b60208082526017908201527f4361756c64726f6e3a20536b696d20746f6f206d756368000000000000000000604082015260600190565b60208082526012908201527f4361756c64726f6e3a2062616420706169720000000000000000000000000000604082015260600190565b60208082526014908201527f426f72726f77204c696d69742072656163686564000000000000000000000000604082015260600190565b60208082526018908201527f426f72696e674d6174683a204d756c204f766572666c6f770000000000000000604082015260600190565b60208082526015908201527f4361756c64726f6e3a2072617465206e6f74206f6b0000000000000000000000604082015260600190565b6001600160801b0391909116815260200190565b6001600160801b0392831681529116602082015260400190565b90815260200190565b918252602082015260400190565b9283526020830191909152604082015260600190565b67ffffffffffffffff93841681526001600160801b03929092166020830152909116604082015260600190565b67ffffffffffffffff92831681529116602082015260400190565b6000808335601e198436030181126149f5578283fd5b83018035915067ffffffffffffffff821115614a0f578283fd5b602001915036819003821315613a5b57600080fd5b60405181810167ffffffffffffffff81118282101715614a4357600080fd5b604052919050565b600067ffffffffffffffff821115614a61578081fd5b5060209081020190565b600067ffffffffffffffff821115614a81578081fd5b50601f01601f191660200190565b60009081526020902090565b82818337506000910152565b60005b83811015614ac2578181015183820152602001614aaa565b838111156137895750506000910152565b6001600160a01b0381168114614ae857600080fd5b50565b8015158114614ae857600080fd5b6001600160801b0381168114614ae857600080fd5b60ff81168114614ae857600080fdfea2646970667358221220b846798e90c5b62e5a4202fb7f45c2dc8dc311c5668e8bcef6b24905d688b9a464736f6c634300060c0033",
  "devdoc": {
    "details": "This contract allows contract calls to any contract (except BentoBox) from arbitrary callers thus, don't trust calls from this contract in any circumstances.",
    "kind": "dev",
    "methods": {
      "addCollateral(address,bool,uint256)": {
        "params": {
          "share": "The amount of shares to add for `to`.",
          "skim": "True if the amount should be skimmed from the deposit balance of msg.sender.x False if tokens from msg.sender in `bentoBox` should be transferred.",
          "to": "The receiver of the tokens."
        }
      },
      "borrow(address,uint256)": {
        "returns": {
          "part": "Total part of the debt held by borrowers.",
          "share": "Total amount in shares borrowed."
        }
      },
      "changeBorrowLimit(uint128,uint128)": {
        "params": {
          "newBorrowLimit": "new borrow limit",
          "perAddressPart": "new borrow limit per address"
        }
      },
      "changeInterestRate(uint64)": {
        "params": {
          "newInterestRate": "new interest rate"
        }
      },
      "cook(uint8[],uint256[],bytes[])": {
        "params": {
          "actions": "An array with a sequence of actions to execute (see ACTION_ declarations).",
          "datas": "A one-to-one mapped array to `actions`. Contains abi encoded data of function arguments.",
          "values": "A one-to-one mapped array to `actions`. ETH amounts to send along with the actions. Only applicable to `ACTION_CALL`, `ACTION_BENTO_DEPOSIT`."
        },
        "returns": {
          "value1": "May contain the first positioned return value of the last executed action (if applicable).",
          "value2": "May contain the second positioned return value of the last executed action which returns 2 values (if applicable)."
        }
      },
      "init(bytes)": {
        "details": "`data` is abi encoded in the format: (IERC20 collateral, IERC20 asset, IOracle oracle, bytes oracleData)"
      },
      "liquidate(address[],uint256[],address,address)": {
        "params": {
          "maxBorrowParts": "A one-to-one mapping to `users`, contains maximum (partial) borrow amounts (to liquidate) of the respective user.",
          "to": "Address of the receiver in open liquidations if `swapper` is zero.",
          "users": "An array of user addresses."
        }
      },
      "reduceSupply(uint256)": {
        "params": {
          "amount": "amount to reduce supply by"
        }
      },
      "removeCollateral(address,uint256)": {
        "params": {
          "share": "Amount of shares to remove.",
          "to": "The receiver of the shares."
        }
      },
      "repay(address,bool,uint256)": {
        "params": {
          "part": "The amount to repay. See `userBorrowPart`.",
          "skim": "True if the amount should be skimmed from the deposit balance of msg.sender. False if tokens from msg.sender in `bentoBox` should be transferred.",
          "to": "Address of the user this payment should go."
        },
        "returns": {
          "amount": "The total amount repayed."
        }
      },
      "setFeeTo(address)": {
        "params": {
          "newFeeTo": "The address of the receiver."
        }
      },
      "transferOwnership(address,bool,bool)": {
        "params": {
          "direct": "True if `newOwner` should be set immediately. False if `newOwner` needs to use `claimOwnership`.",
          "newOwner": "Address of the new owner.",
          "renounce": "Allows the `newOwner` to be `address(0)` if `direct` and `renounce` is True. Has no effect otherwise."
        }
      },
      "updateExchangeRate()": {
        "returns": {
          "rate": "The new exchange rate.",
          "updated": "True if `exchangeRate` was updated."
        }
      }
    },
    "title": "Cauldron",
    "version": 1
  },
  "userdoc": {
    "kind": "user",
    "methods": {
      "accrue()": {
        "notice": "Accrues the interest on the borrowed tokens and handles the accumulation of fees."
      },
      "addCollateral(address,bool,uint256)": {
        "notice": "Adds `collateral` from msg.sender to the account `to`."
      },
      "borrow(address,uint256)": {
        "notice": "Sender borrows `amount` and transfers it to `to`."
      },
      "changeBorrowLimit(uint128,uint128)": {
        "notice": "allows to change the borrow limit"
      },
      "changeInterestRate(uint64)": {
        "notice": "allows to change the interest rate"
      },
      "claimOwnership()": {
        "notice": "Needs to be called by `pendingOwner` to claim ownership."
      },
      "constructor": "The constructor is only used for the initial master contract. Subsequent clones are initialised via `init`.",
      "cook(uint8[],uint256[],bytes[])": {
        "notice": "Executes a set of actions and allows composability (contract calls) to other contracts."
      },
      "exchangeRate()": {
        "notice": "Exchange and interest rate tracking. This is 'cached' here because calls to Oracles can be very expensive."
      },
      "init(bytes)": {
        "notice": "Serves as the constructor for clones, as clones can't have a regular constructor"
      },
      "liquidate(address[],uint256[],address,address)": {
        "notice": "Handles the liquidation of users' balances, once the users' amount of collateral is too low."
      },
      "reduceSupply(uint256)": {
        "notice": "reduces the supply of MIM"
      },
      "removeCollateral(address,uint256)": {
        "notice": "Removes `share` amount of collateral and transfers it to `to`."
      },
      "repay(address,bool,uint256)": {
        "notice": "Repays a loan."
      },
      "setFeeTo(address)": {
        "notice": "Sets the beneficiary of interest accrued. MasterContract Only Admin function."
      },
      "transferOwnership(address,bool,bool)": {
        "notice": "Transfers ownership to `newOwner`. Either directly or claimable by the new pending owner. Can only be invoked by the current `owner`."
      },
      "updateExchangeRate()": {
        "notice": "Gets the exchange rate. I.e how much collateral to buy 1e18 asset. This function is supposed to be invoked if needed because Oracle queries can be expensive."
      },
      "withdrawFees()": {
        "notice": "Withdraws the fees accumulated."
      }
    },
    "version": 1
  },
  "storageLayout": {
    "storage": [
      {
        "astId": 118,
        "contract": "contracts/CauldronV3.sol:CauldronV3",
        "label": "owner",
        "offset": 0,
        "slot": "0",
        "type": "t_address"
      },
      {
        "astId": 120,
        "contract": "contracts/CauldronV3.sol:CauldronV3",
        "label": "pendingOwner",
        "offset": 0,
        "slot": "1",
        "type": "t_address"
      },
      {
        "astId": 4919,
        "contract": "contracts/CauldronV3.sol:CauldronV3",
        "label": "feeTo",
        "offset": 0,
        "slot": "2",
        "type": "t_address"
      },
      {
        "astId": 4921,
        "contract": "contracts/CauldronV3.sol:CauldronV3",
        "label": "collateral",
        "offset": 0,
        "slot": "3",
        "type": "t_contract(IERC20)831"
      },
      {
        "astId": 4923,
        "contract": "contracts/CauldronV3.sol:CauldronV3",
        "label": "oracle",
        "offset": 0,
        "slot": "4",
        "type": "t_contract(IOracle)8219"
      },
      {
        "astId": 4925,
        "contract": "contracts/CauldronV3.sol:CauldronV3",
        "label": "oracleData",
        "offset": 0,
        "slot": "5",
        "type": "t_bytes_storage"
      },
      {
        "astId": 4932,
        "contract": "contracts/CauldronV3.sol:CauldronV3",
        "label": "borrowLimit",
        "offset": 0,
        "slot": "6",
        "type": "t_struct(BorrowCap)4930_storage"
      },
      {
        "astId": 4934,
        "contract": "contracts/CauldronV3.sol:CauldronV3",
        "label": "totalCollateralShare",
        "offset": 0,
        "slot": "7",
        "type": "t_uint256"
      },
      {
        "astId": 4936,
        "contract": "contracts/CauldronV3.sol:CauldronV3",
        "label": "totalBorrow",
        "offset": 0,
        "slot": "8",
        "type": "t_struct(Rebase)1445_storage"
      },
      {
        "astId": 4940,
        "contract": "contracts/CauldronV3.sol:CauldronV3",
        "label": "userCollateralShare",
        "offset": 0,
        "slot": "9",
        "type": "t_mapping(t_address,t_uint256)"
      },
      {
        "astId": 4944,
        "contract": "contracts/CauldronV3.sol:CauldronV3",
        "label": "userBorrowPart",
        "offset": 0,
        "slot": "10",
        "type": "t_mapping(t_address,t_uint256)"
      },
      {
        "astId": 4947,
        "contract": "contracts/CauldronV3.sol:CauldronV3",
        "label": "exchangeRate",
        "offset": 0,
        "slot": "11",
        "type": "t_uint256"
      },
      {
        "astId": 4956,
        "contract": "contracts/CauldronV3.sol:CauldronV3",
        "label": "accrueInfo",
        "offset": 0,
        "slot": "12",
        "type": "t_struct(AccrueInfo)4954_storage"
      },
      {
        "astId": 4962,
        "contract": "contracts/CauldronV3.sol:CauldronV3",
        "label": "lastInterestUpdate",
        "offset": 0,
        "slot": "13",
        "type": "t_uint256"
      },
      {
        "astId": 4964,
        "contract": "contracts/CauldronV3.sol:CauldronV3",
        "label": "COLLATERIZATION_RATE",
        "offset": 0,
        "slot": "14",
        "type": "t_uint256"
      },
      {
        "astId": 4972,
        "contract": "contracts/CauldronV3.sol:CauldronV3",
        "label": "LIQUIDATION_MULTIPLIER",
        "offset": 0,
        "slot": "15",
        "type": "t_uint256"
      },
      {
        "astId": 4977,
        "contract": "contracts/CauldronV3.sol:CauldronV3",
        "label": "BORROW_OPENING_FEE",
        "offset": 0,
        "slot": "16",
        "type": "t_uint256"
      }
    ],
    "types": {
      "t_address": {
        "encoding": "inplace",
        "label": "address",
        "numberOfBytes": "20"
      },
      "t_bytes_storage": {
        "encoding": "bytes",
        "label": "bytes",
        "numberOfBytes": "32"
      },
      "t_contract(IERC20)831": {
        "encoding": "inplace",
        "label": "contract IERC20",
        "numberOfBytes": "20"
      },
      "t_contract(IOracle)8219": {
        "encoding": "inplace",
        "label": "contract IOracle",
        "numberOfBytes": "20"
      },
      "t_mapping(t_address,t_uint256)": {
        "encoding": "mapping",
        "key": "t_address",
        "label": "mapping(address => uint256)",
        "numberOfBytes": "32",
        "value": "t_uint256"
      },
      "t_struct(AccrueInfo)4954_storage": {
        "encoding": "inplace",
        "label": "struct CauldronV3.AccrueInfo",
        "members": [
          {
            "astId": 4949,
            "contract": "contracts/CauldronV3.sol:CauldronV3",
            "label": "lastAccrued",
            "offset": 0,
            "slot": "0",
            "type": "t_uint64"
          },
          {
            "astId": 4951,
            "contract": "contracts/CauldronV3.sol:CauldronV3",
            "label": "feesEarned",
            "offset": 8,
            "slot": "0",
            "type": "t_uint128"
          },
          {
            "astId": 4953,
            "contract": "contracts/CauldronV3.sol:CauldronV3",
            "label": "INTEREST_PER_SECOND",
            "offset": 24,
            "slot": "0",
            "type": "t_uint64"
          }
        ],
        "numberOfBytes": "32"
      },
      "t_struct(BorrowCap)4930_storage": {
        "encoding": "inplace",
        "label": "struct CauldronV3.BorrowCap",
        "members": [
          {
            "astId": 4927,
            "contract": "contracts/CauldronV3.sol:CauldronV3",
            "label": "total",
            "offset": 0,
            "slot": "0",
            "type": "t_uint128"
          },
          {
            "astId": 4929,
            "contract": "contracts/CauldronV3.sol:CauldronV3",
            "label": "borrowPartPerAddress",
            "offset": 16,
            "slot": "0",
            "type": "t_uint128"
          }
        ],
        "numberOfBytes": "32"
      },
      "t_struct(Rebase)1445_storage": {
        "encoding": "inplace",
        "label": "struct Rebase",
        "members": [
          {
            "astId": 1442,
            "contract": "contracts/CauldronV3.sol:CauldronV3",
            "label": "elastic",
            "offset": 0,
            "slot": "0",
            "type": "t_uint128"
          },
          {
            "astId": 1444,
            "contract": "contracts/CauldronV3.sol:CauldronV3",
            "label": "base",
            "offset": 16,
            "slot": "0",
            "type": "t_uint128"
          }
        ],
        "numberOfBytes": "32"
      },
      "t_uint128": {
        "encoding": "inplace",
        "label": "uint128",
        "numberOfBytes": "16"
      },
      "t_uint256": {
        "encoding": "inplace",
        "label": "uint256",
        "numberOfBytes": "32"
      },
      "t_uint64": {
        "encoding": "inplace",
        "label": "uint64",
        "numberOfBytes": "8"
      }
    }
  }
}