{
  "address": "0x476b1E35DDE474cB9Aa1f6B85c9Cc589BFa85c1F",
  "abi": [
    {
      "inputs": [
        {
          "internalType": "contract IBentoBoxV1",
          "name": "bentoBox_",
          "type": "address"
        },
        {
          "internalType": "contract IERC20",
          "name": "magicInternetMoney_",
          "type": "address"
        }
      ],
      "stateMutability": "nonpayable",
      "type": "constructor"
    },
    {
      "anonymous": false,
      "inputs": [
        {
          "indexed": false,
          "internalType": "uint128",
          "name": "accruedAmount",
          "type": "uint128"
        }
      ],
      "name": "LogAccrue",
      "type": "event"
    },
    {
      "anonymous": false,
      "inputs": [
        {
          "indexed": true,
          "internalType": "address",
          "name": "from",
          "type": "address"
        },
        {
          "indexed": true,
          "internalType": "address",
          "name": "to",
          "type": "address"
        },
        {
          "indexed": false,
          "internalType": "uint256",
          "name": "share",
          "type": "uint256"
        }
      ],
      "name": "LogAddCollateral",
      "type": "event"
    },
    {
      "anonymous": false,
      "inputs": [
        {
          "indexed": true,
          "internalType": "address",
          "name": "from",
          "type": "address"
        },
        {
          "indexed": true,
          "internalType": "address",
          "name": "to",
          "type": "address"
        },
        {
          "indexed": false,
          "internalType": "uint256",
          "name": "amount",
          "type": "uint256"
        },
        {
          "indexed": false,
          "internalType": "uint256",
          "name": "part",
          "type": "uint256"
        }
      ],
      "name": "LogBorrow",
      "type": "event"
    },
    {
      "anonymous": false,
      "inputs": [
        {
          "indexed": false,
          "internalType": "uint256",
          "name": "rate",
          "type": "uint256"
        }
      ],
      "name": "LogExchangeRate",
      "type": "event"
    },
    {
      "anonymous": false,
      "inputs": [
        {
          "indexed": true,
          "internalType": "address",
          "name": "newFeeTo",
          "type": "address"
        }
      ],
      "name": "LogFeeTo",
      "type": "event"
    },
    {
      "anonymous": false,
      "inputs": [
        {
          "indexed": true,
          "internalType": "address",
          "name": "from",
          "type": "address"
        },
        {
          "indexed": true,
          "internalType": "address",
          "name": "to",
          "type": "address"
        },
        {
          "indexed": false,
          "internalType": "uint256",
          "name": "share",
          "type": "uint256"
        }
      ],
      "name": "LogRemoveCollateral",
      "type": "event"
    },
    {
      "anonymous": false,
      "inputs": [
        {
          "indexed": true,
          "internalType": "address",
          "name": "from",
          "type": "address"
        },
        {
          "indexed": true,
          "internalType": "address",
          "name": "to",
          "type": "address"
        },
        {
          "indexed": false,
          "internalType": "uint256",
          "name": "amount",
          "type": "uint256"
        },
        {
          "indexed": false,
          "internalType": "uint256",
          "name": "part",
          "type": "uint256"
        }
      ],
      "name": "LogRepay",
      "type": "event"
    },
    {
      "anonymous": false,
      "inputs": [
        {
          "indexed": true,
          "internalType": "address",
          "name": "feeTo",
          "type": "address"
        },
        {
          "indexed": false,
          "internalType": "uint256",
          "name": "feesEarnedFraction",
          "type": "uint256"
        }
      ],
      "name": "LogWithdrawFees",
      "type": "event"
    },
    {
      "anonymous": false,
      "inputs": [
        {
          "indexed": true,
          "internalType": "address",
          "name": "previousOwner",
          "type": "address"
        },
        {
          "indexed": true,
          "internalType": "address",
          "name": "newOwner",
          "type": "address"
        }
      ],
      "name": "OwnershipTransferred",
      "type": "event"
    },
    {
      "inputs": [],
      "name": "BORROW_OPENING_FEE",
      "outputs": [
        {
          "internalType": "uint256",
          "name": "",
          "type": "uint256"
        }
      ],
      "stateMutability": "view",
      "type": "function"
    },
    {
      "inputs": [],
      "name": "COLLATERIZATION_RATE",
      "outputs": [
        {
          "internalType": "uint256",
          "name": "",
          "type": "uint256"
        }
      ],
      "stateMutability": "view",
      "type": "function"
    },
    {
      "inputs": [],
      "name": "LIQUIDATION_MULTIPLIER",
      "outputs": [
        {
          "internalType": "uint256",
          "name": "",
          "type": "uint256"
        }
      ],
      "stateMutability": "view",
      "type": "function"
    },
    {
      "inputs": [],
      "name": "accrue",
      "outputs": [],
      "stateMutability": "nonpayable",
      "type": "function"
    },
    {
      "inputs": [],
      "name": "accrueInfo",
      "outputs": [
        {
          "internalType": "uint64",
          "name": "lastAccrued",
          "type": "uint64"
        },
        {
          "internalType": "uint128",
          "name": "feesEarned",
          "type": "uint128"
        },
        {
          "internalType": "uint64",
          "name": "INTEREST_PER_SECOND",
          "type": "uint64"
        }
      ],
      "stateMutability": "view",
      "type": "function"
    },
    {
      "inputs": [
        {
          "internalType": "address",
          "name": "to",
          "type": "address"
        },
        {
          "internalType": "bool",
          "name": "skim",
          "type": "bool"
        },
        {
          "internalType": "uint256",
          "name": "share",
          "type": "uint256"
        }
      ],
      "name": "addCollateral",
      "outputs": [],
      "stateMutability": "nonpayable",
      "type": "function"
    },
    {
      "inputs": [],
      "name": "bentoBox",
      "outputs": [
        {
          "internalType": "contract IBentoBoxV1",
          "name": "",
          "type": "address"
        }
      ],
      "stateMutability": "view",
      "type": "function"
    },
    {
      "inputs": [
        {
          "internalType": "address",
          "name": "to",
          "type": "address"
        },
        {
          "internalType": "uint256",
          "name": "amount",
          "type": "uint256"
        }
      ],
      "name": "borrow",
      "outputs": [
        {
          "internalType": "uint256",
          "name": "part",
          "type": "uint256"
        },
        {
          "internalType": "uint256",
          "name": "share",
          "type": "uint256"
        }
      ],
      "stateMutability": "nonpayable",
      "type": "function"
    },
    {
      "inputs": [],
      "name": "claimOwnership",
      "outputs": [],
      "stateMutability": "nonpayable",
      "type": "function"
    },
    {
      "inputs": [],
      "name": "collateral",
      "outputs": [
        {
          "internalType": "contract IERC20",
          "name": "",
          "type": "address"
        }
      ],
      "stateMutability": "view",
      "type": "function"
    },
    {
      "inputs": [
        {
          "internalType": "uint8[]",
          "name": "actions",
          "type": "uint8[]"
        },
        {
          "internalType": "uint256[]",
          "name": "values",
          "type": "uint256[]"
        },
        {
          "internalType": "bytes[]",
          "name": "datas",
          "type": "bytes[]"
        }
      ],
      "name": "cook",
      "outputs": [
        {
          "internalType": "uint256",
          "name": "value1",
          "type": "uint256"
        },
        {
          "internalType": "uint256",
          "name": "value2",
          "type": "uint256"
        }
      ],
      "stateMutability": "payable",
      "type": "function"
    },
    {
      "inputs": [],
      "name": "exchangeRate",
      "outputs": [
        {
          "internalType": "uint256",
          "name": "",
          "type": "uint256"
        }
      ],
      "stateMutability": "view",
      "type": "function"
    },
    {
      "inputs": [],
      "name": "feeTo",
      "outputs": [
        {
          "internalType": "address",
          "name": "",
          "type": "address"
        }
      ],
      "stateMutability": "view",
      "type": "function"
    },
    {
      "inputs": [
        {
          "internalType": "bytes",
          "name": "data",
          "type": "bytes"
        }
      ],
      "name": "init",
      "outputs": [],
      "stateMutability": "payable",
      "type": "function"
    },
    {
      "inputs": [
        {
          "internalType": "address[]",
          "name": "users",
          "type": "address[]"
        },
        {
          "internalType": "uint256[]",
          "name": "maxBorrowParts",
          "type": "uint256[]"
        },
        {
          "internalType": "address",
          "name": "to",
          "type": "address"
        },
        {
          "internalType": "contract ISwapper",
          "name": "swapper",
          "type": "address"
        }
      ],
      "name": "liquidate",
      "outputs": [],
      "stateMutability": "nonpayable",
      "type": "function"
    },
    {
      "inputs": [],
      "name": "magicInternetMoney",
      "outputs": [
        {
          "internalType": "contract IERC20",
          "name": "",
          "type": "address"
        }
      ],
      "stateMutability": "view",
      "type": "function"
    },
    {
      "inputs": [],
      "name": "masterContract",
      "outputs": [
        {
          "internalType": "contract CauldronV2",
          "name": "",
          "type": "address"
        }
      ],
      "stateMutability": "view",
      "type": "function"
    },
    {
      "inputs": [],
      "name": "oracle",
      "outputs": [
        {
          "internalType": "contract IOracle",
          "name": "",
          "type": "address"
        }
      ],
      "stateMutability": "view",
      "type": "function"
    },
    {
      "inputs": [],
      "name": "oracleData",
      "outputs": [
        {
          "internalType": "bytes",
          "name": "",
          "type": "bytes"
        }
      ],
      "stateMutability": "view",
      "type": "function"
    },
    {
      "inputs": [],
      "name": "owner",
      "outputs": [
        {
          "internalType": "address",
          "name": "",
          "type": "address"
        }
      ],
      "stateMutability": "view",
      "type": "function"
    },
    {
      "inputs": [],
      "name": "pendingOwner",
      "outputs": [
        {
          "internalType": "address",
          "name": "",
          "type": "address"
        }
      ],
      "stateMutability": "view",
      "type": "function"
    },
    {
      "inputs": [
        {
          "internalType": "uint256",
          "name": "amount",
          "type": "uint256"
        }
      ],
      "name": "reduceSupply",
      "outputs": [],
      "stateMutability": "nonpayable",
      "type": "function"
    },
    {
      "inputs": [
        {
          "internalType": "address",
          "name": "to",
          "type": "address"
        },
        {
          "internalType": "uint256",
          "name": "share",
          "type": "uint256"
        }
      ],
      "name": "removeCollateral",
      "outputs": [],
      "stateMutability": "nonpayable",
      "type": "function"
    },
    {
      "inputs": [
        {
          "internalType": "address",
          "name": "to",
          "type": "address"
        },
        {
          "internalType": "bool",
          "name": "skim",
          "type": "bool"
        },
        {
          "internalType": "uint256",
          "name": "part",
          "type": "uint256"
        }
      ],
      "name": "repay",
      "outputs": [
        {
          "internalType": "uint256",
          "name": "amount",
          "type": "uint256"
        }
      ],
      "stateMutability": "nonpayable",
      "type": "function"
    },
    {
      "inputs": [
        {
          "internalType": "address",
          "name": "newFeeTo",
          "type": "address"
        }
      ],
      "name": "setFeeTo",
      "outputs": [],
      "stateMutability": "nonpayable",
      "type": "function"
    },
    {
      "inputs": [],
      "name": "totalBorrow",
      "outputs": [
        {
          "internalType": "uint128",
          "name": "elastic",
          "type": "uint128"
        },
        {
          "internalType": "uint128",
          "name": "base",
          "type": "uint128"
        }
      ],
      "stateMutability": "view",
      "type": "function"
    },
    {
      "inputs": [],
      "name": "totalCollateralShare",
      "outputs": [
        {
          "internalType": "uint256",
          "name": "",
          "type": "uint256"
        }
      ],
      "stateMutability": "view",
      "type": "function"
    },
    {
      "inputs": [
        {
          "internalType": "address",
          "name": "newOwner",
          "type": "address"
        },
        {
          "internalType": "bool",
          "name": "direct",
          "type": "bool"
        },
        {
          "internalType": "bool",
          "name": "renounce",
          "type": "bool"
        }
      ],
      "name": "transferOwnership",
      "outputs": [],
      "stateMutability": "nonpayable",
      "type": "function"
    },
    {
      "inputs": [],
      "name": "updateExchangeRate",
      "outputs": [
        {
          "internalType": "bool",
          "name": "updated",
          "type": "bool"
        },
        {
          "internalType": "uint256",
          "name": "rate",
          "type": "uint256"
        }
      ],
      "stateMutability": "nonpayable",
      "type": "function"
    },
    {
      "inputs": [
        {
          "internalType": "address",
          "name": "",
          "type": "address"
        }
      ],
      "name": "userBorrowPart",
      "outputs": [
        {
          "internalType": "uint256",
          "name": "",
          "type": "uint256"
        }
      ],
      "stateMutability": "view",
      "type": "function"
    },
    {
      "inputs": [
        {
          "internalType": "address",
          "name": "",
          "type": "address"
        }
      ],
      "name": "userCollateralShare",
      "outputs": [
        {
          "internalType": "uint256",
          "name": "",
          "type": "uint256"
        }
      ],
      "stateMutability": "view",
      "type": "function"
    },
    {
      "inputs": [],
      "name": "withdrawFees",
      "outputs": [],
      "stateMutability": "nonpayable",
      "type": "function"
    }
  ],
  "transactionHash": "0x5d2175f0efb4b5c703a85babbcf75afff2c84455faaa2dd293345d98808f1b77",
  "args": [
    "0xd96f48665a1410C0cd669A88898ecA36B9Fc2cce",
    "0x99D8a9C45b2ecA8864373A26D1459e3Dff1e17F3"
  ],
  "solcInputHash": "67ba1d6dfaee4a7011ae1ae24e9fedfa",
  "bytecode": "0x60e06040523480156200001157600080fd5b506040516200459d3803806200459d833981016040819052620000349162000099565b600080546001600160a01b0319163390811782556040519091907f8be0079c531659141344cd1fd0a4f28419497f9722a3daafe3b4186f6b6457e0908290a36001600160601b0319606092831b811660805290821b1660c05230901b60a052620000f0565b60008060408385031215620000ac578182fd5b8251620000b981620000d7565b6020840151909250620000cc81620000d7565b809150509250929050565b6001600160a01b0381168114620000ed57600080fd5b50565b60805160601c60a05160601c60c05160601c6143b4620001e960003980610869528061092c52806112be528061162152806116bc5280611cf75280611e3a5280611f005280611f7152806123d9528061248952806126fb52806127bd52508061077c528061151e5280611fcd52508061083452806108ff5280610e8852806110505280611128528061128f528061145752806115f452806117bb52806118d75280611cca5280611d915280611ed352806123aa528061245a52806124b5528061253f52806126c6528061279052806129145280612abc5280612b725280612c4e5280612dd3528061301352806130f052506143b46000f3fe6080604052600436106101e35760003560e01c80637dc0d1d011610102578063aba024f411610095578063d8dfeb4511610064578063d8dfeb45146104fe578063e30c397814610513578063f46901ed14610528578063f8ba4cff14610548576101e3565b8063aba024f41461049b578063b27c0e74146104b0578063c7ee2a7b146104d4578063cd446e22146104e9576101e3565b8063876467f8116100d1578063876467f8146104315780638da5cb5b14610451578063912860c5146104665780639b352ae114610486576101e3565b80637dc0d1d0146103b957806380623444146103ce5780638285ef40146103ee578063860ffea114610411576101e3565b806348e4163e1161017a578063656f3d6411610149578063656f3d641461035a5780636b2ace871461036d5780636ec097fb1461038257806374645ff314610397576101e3565b806348e4163e146102e45780634b8a3529146103045780634ddf47d4146103325780634e71e0c814610345576101e3565b80631c9e379b116101b65780631c9e379b146102855780633ba0b9a9146102a5578063473e3ce7146102ba578063476343ee146102cf576101e3565b8063017e7e58146101e857806302ce728f14610213578063078dfbe71461023657806315294c4014610258575b600080fd5b3480156101f457600080fd5b506101fd61055d565b60405161020a9190613c62565b60405180910390f35b34801561021f57600080fd5b5061022861056c565b60405161020a929190613caf565b34801561024257600080fd5b50610256610251366004613643565b610646565b005b34801561026457600080fd5b5061027861027336600461368d565b610735565b60405161020a9190614216565b34801561029157600080fd5b506102786102a03660046134e1565b610752565b3480156102b157600080fd5b50610278610764565b3480156102c657600080fd5b5061027861076a565b3480156102db57600080fd5b50610256610770565b3480156102f057600080fd5b506102786102ff3660046134e1565b6109e7565b34801561031057600080fd5b5061032461031f3660046136cd565b6109f9565b60405161020a92919061421f565b61025661034036600461387f565b610a44565b34801561035157600080fd5b50610256610b2f565b610324610368366004613789565b610bbc565b34801561037957600080fd5b506101fd611455565b34801561038e57600080fd5b50610278611479565b3480156103a357600080fd5b506103ac61147f565b60405161020a9190613cbf565b3480156103c557600080fd5b506101fd61150d565b3480156103da57600080fd5b506102566103e9366004613af9565b61151c565b3480156103fa57600080fd5b50610403611726565b60405161020a9291906141fc565b34801561041d57600080fd5b5061025661042c36600461368d565b611740565b34801561043d57600080fd5b5061025661044c3660046136cd565b611821565b34801561045d57600080fd5b506101fd61185b565b34801561047257600080fd5b506102566104813660046136f8565b61186a565b34801561049257600080fd5b506101fd611f6f565b3480156104a757600080fd5b50610278611f93565b3480156104bc57600080fd5b506104c5611f99565b60405161020a9392919061422d565b3480156104e057600080fd5b50610278611fc5565b3480156104f557600080fd5b506101fd611fcb565b34801561050a57600080fd5b506101fd611fef565b34801561051f57600080fd5b506101fd611ffe565b34801561053457600080fd5b506102566105433660046134e1565b61200d565b34801561055457600080fd5b50610256612081565b6002546001600160a01b031681565b6004805460405163d6d7d52560e01b815260009283926001600160a01b03169163d6d7d5259161059f9160059101613cf2565b6040805180830381600087803b1580156105b857600080fd5b505af11580156105cc573d6000803e3d6000fd5b505050506040513d601f19601f820116820180604052508101906105f0919061381e565b9092509050811561063d57600a8190556040517f9f9192b5edb17356c524e08d9e025c8e2f6307e6ea52fb7968faa3081f51c3c890610630908390614216565b60405180910390a1610642565b50600a545b9091565b6000546001600160a01b031633146106795760405162461bcd60e51b815260040161067090614050565b60405180910390fd5b8115610714576001600160a01b0383161515806106935750805b6106af5760405162461bcd60e51b815260040161067090613f7c565b600080546040516001600160a01b03808716939216917f8be0079c531659141344cd1fd0a4f28419497f9722a3daafe3b4186f6b6457e091a3600080546001600160a01b0385166001600160a01b031991821617909155600180549091169055610730565b600180546001600160a01b0319166001600160a01b0385161790555b505050565b600061073f612081565b61074a8484846122e9565b949350505050565b60086020526000908152604090205481565b600a5481565b60065481565b610778612081565b60007f00000000000000000000000000000000000000000000000000000000000000006001600160a01b031663017e7e586040518163ffffffff1660e01b815260040160206040518083038186803b1580156107d357600080fd5b505afa1580156107e7573d6000803e3d6000fd5b505050506040513d601f19601f8201168201806040525081019061080b91906134fd565b600b54604051636d289ce560e11b8152919250600160401b90046001600160801b0316906000907f00000000000000000000000000000000000000000000000000000000000000006001600160a01b03169063da5139ca90610895907f00000000000000000000000000000000000000000000000000000000000000009086908690600401613e8d565b60206040518083038186803b1580156108ad57600080fd5b505afa1580156108c1573d6000803e3d6000fd5b505050506040513d601f19601f820116820180604052508101906108e59190613ba6565b604051633c6340f360e21b81529091506001600160a01b037f0000000000000000000000000000000000000000000000000000000000000000169063f18d03cc9061095a907f000000000000000000000000000000000000000000000000000000000000000090309088908790600401613d96565b600060405180830381600087803b15801561097457600080fd5b505af1158015610988573d6000803e3d6000fd5b5050600b8054600160401b600160c01b031916905550506040516001600160a01b038416907fbe641c3ffc44b2d6c184f023fa4ed7bda4b6ffa71e03b3c98ae0c776da1f17e7906109da908590614216565b60405180910390a2505050565b60096020526000908152604090205481565b600080610a04612081565b610a0e84846125a9565b600a549193509150610a21903390612873565b610a3d5760405162461bcd60e51b815260040161067090613edf565b9250929050565b6003546001600160a01b031615610a6d5760405162461bcd60e51b8152600401610670906140e8565b610a7981830183613a33565b600e819055600c829055600d839055600b80546001600160c01b0316600160c01b6001600160401b0387160217905584516003906000906004908290610ac69060059060208c019061331d565b50815461010091820a6001600160a01b03818102199092169b8216029a909a17909155825491900a808902199091169888160297909717909655505060035490921615159250610b2b9150505760405162461bcd60e51b815260040161067090614156565b5050565b6001546001600160a01b0316338114610b5a5760405162461bcd60e51b815260040161067090614085565b600080546040516001600160a01b03808516939216917f8be0079c531659141344cd1fd0a4f28419497f9722a3daafe3b4186f6b6457e091a3600080546001600160a01b039092166001600160a01b0319928316179055600180549091169055565b600080610bc7613397565b60005b888110156114195760008a8a83818110610be057fe5b9050602002016020810190610bf59190613be1565b90508260200151158015610c0c5750600a8160ff16105b15610c2157610c19612081565b600160208401525b60ff8116600a1415610c7b576000806000898986818110610c3e57fe5b9050602002810190610c509190614259565b810190610c5d9190613b40565b925092509250610c73828261042c868c8c6129fb565b505050611410565b60ff811660021415610cdb576000806000898986818110610c9857fe5b9050602002810190610caa9190614259565b810190610cb79190613b40565b925092509250610cd28282610ccd868c8c6129fb565b6122e9565b50505050611410565b60ff811660041415610d3857600080888885818110610cf657fe5b9050602002810190610d089190614259565b810190610d159190613b11565b91509150610d2d81610d28848a8a6129fb565b612a23565b505060018352611410565b60ff811660051415610d9b57600080888885818110610d5357fe5b9050602002810190610d659190614259565b810190610d729190613b11565b91509150610d8a81610d85848a8a6129fb565b6125a9565b600187529097509550611410915050565b60ff8116600b1415610e3a576000806000898986818110610db857fe5b9050602002810190610dca9190614259565b810190610dd7919061384b565b925092509250600080610de861056c565b91509150841580610df65750815b8015610e0157508381115b8015610e145750821580610e1457508281115b610e305760405162461bcd60e51b8152600401610670906141b9565b5050505050611410565b60ff811660181415610f19576000806000806000808c8c89818110610e5b57fe5b9050602002810190610e6d9190614259565b810190610e7a9190613519565b9550955095509550955095507f00000000000000000000000000000000000000000000000000000000000000006001600160a01b031663c0a47c938787878787876040518763ffffffff1660e01b8152600401610edc96959493929190613c76565b600060405180830381600087803b158015610ef657600080fd5b505af1158015610f0a573d6000803e3d6000fd5b50505050505050505050611410565b60ff811660141415610fa157610f97878784818110610f3457fe5b9050602002810190610f469190614259565b8080601f0160208091040260200160405190810160405280939291908181526020018383808284376000920191909152508d92508c9150869050818110610f8957fe5b905060200201358787612b31565b9095509350611410565b60ff81166015141561100c57610f97878784818110610fbc57fe5b9050602002810190610fce9190614259565b8080601f016020809104026020016040519081016040528093929190818152602001838380828437600092019190915250899250889150612c279050565b60ff8116601614156110e457600080600089898681811061102957fe5b905060200281019061103b9190614259565b81019061104891906138eb565b9250925092507f00000000000000000000000000000000000000000000000000000000000000006001600160a01b031663f18d03cc84338561108b868e8e6129fb565b6040518563ffffffff1660e01b81526004016110aa9493929190613d96565b600060405180830381600087803b1580156110c457600080fd5b505af11580156110d8573d6000803e3d6000fd5b50505050505050611410565b60ff81166017141561117857600060608089898681811061110157fe5b90506020028101906111139190614259565b8101906111209190613961565b9250925092507f00000000000000000000000000000000000000000000000000000000000000006001600160a01b0316630fca8843843385856040518563ffffffff1660e01b81526004016110aa9493929190613df4565b60ff8116601e141561125257606060006111fa8b8b8681811061119757fe5b905060200201358a8a878181106111aa57fe5b90506020028101906111bc9190614259565b8080601f0160208091040260200160405190810160405280939291908181526020018383808284376000920191909152508c92508b9150612d159050565b915091508060ff1660011415611225578180602001905181019061121e9190613ba6565b965061124b565b8060ff166002141561124b57818060200190518101906112459190613bbe565b90975095505b5050611410565b60ff81166006141561139357600087878481811061126c57fe5b905060200281019061127e9190614259565b81019061128b9190613af9565b90507f00000000000000000000000000000000000000000000000000000000000000006001600160a01b031663da5139ca7f000000000000000000000000000000000000000000000000000000000000000061131b6112eb858b8b6129fb565b604080518082019091526007546001600160801b038082168352600160801b909104166020820152906001612ecb565b60016040518463ffffffff1660e01b815260040161133b93929190613e8d565b60206040518083038186803b15801561135357600080fd5b505afa158015611367573d6000803e3d6000fd5b505050506040513d601f19601f8201168201806040525081019061138b9190613ba6565b955050611410565b60ff8116600714156114105760008787848181106113ad57fe5b90506020028101906113bf9190614259565b8101906113cc9190613af9565b905061140c6113dc8288886129fb565b604080518082019091526007546001600160801b038082168352600160801b909104166020820152906000612f6b565b9550505b50600101610bca565b508051156114495761142d33600a54612873565b6114495760405162461bcd60e51b815260040161067090613edf565b50965096945050505050565b7f000000000000000000000000000000000000000000000000000000000000000081565b600d5481565b6005805460408051602060026001851615610100026000190190941693909304601f810184900484028201840190925281815292918301828280156115055780601f106114da57610100808354040283529160200191611505565b820191906000526020600020905b8154815290600101906020018083116114e857829003601f168201915b505050505081565b6004546001600160a01b031681565b7f00000000000000000000000000000000000000000000000000000000000000006001600160a01b0316638da5cb5b6040518163ffffffff1660e01b815260040160206040518083038186803b15801561157557600080fd5b505afa158015611589573d6000803e3d6000fd5b505050506040513d601f19601f820116820180604052508101906115ad91906134fd565b6001600160a01b0316336001600160a01b0316146115dd5760405162461bcd60e51b815260040161067090613f16565b60405163097da6d360e41b81526001600160a01b037f000000000000000000000000000000000000000000000000000000000000000016906397da6d3090611652907f000000000000000000000000000000000000000000000000000000000000000090309081908790600090600401613dc0565b6040805180830381600087803b15801561166b57600080fd5b505af115801561167f573d6000803e3d6000fd5b505050506040513d601f19601f820116820180604052508101906116a39190613bbe565b5050604051630852cd8d60e31b81526001600160a01b037f000000000000000000000000000000000000000000000000000000000000000016906342966c68906116f1908490600401614216565b600060405180830381600087803b15801561170b57600080fd5b505af115801561171f573d6000803e3d6000fd5b5050505050565b6007546001600160801b0380821691600160801b90041682565b6001600160a01b0383166000908152600860205260409020546117639082612fe4565b6001600160a01b0384166000908152600860205260409020556006546117898183612fe4565b6006556003546117a4906001600160a01b0316838386613007565b836001600160a01b0316836117b957336117db565b7f00000000000000000000000000000000000000000000000000000000000000005b6001600160a01b03167f9ed03113de523cebfe5e49d5f8e12894b1c0d42ce805990461726444c90eab87846040516118139190614216565b60405180910390a350505050565b611829612081565b6118338282612a23565b61183f33600a54612873565b610b2b5760405162461bcd60e51b815260040161067090613edf565b6000546001600160a01b031681565b600061187461056c565b91505061187f612081565b600080600061188c613397565b50604080518082019091526007546001600160801b038082168352600160801b9091041660208201526118bd613397565b600354604051634ffe34db60e01b81526001600160a01b037f0000000000000000000000000000000000000000000000000000000000000000811692634ffe34db92611910929190911690600401613c62565b604080518083038186803b15801561192757600080fd5b505afa15801561193b573d6000803e3d6000fd5b505050506040513d601f19601f8201168201806040525081019061195f9190613b66565b905060005b8b811015611b655760008d8d8381811061197a57fe5b905060200201602081019061198f91906134e1565b905061199b8189612873565b611b5c576001600160a01b038116600090815260096020526040812054808e8e868181106119c557fe5b90506020020135116119e9578d8d858181106119dd57fe5b905060200201356119eb565b805b91506119f78183613164565b6001600160a01b0384166000908152600960205260408120919091559050611a20868383612ecb565b90506000611a66670de0b6b3a7640000620186a002611a548d611a4e600d548761318790919063ffffffff16565b90613187565b81611a5b57fe5b889190046000612f6b565b6001600160a01b038516600090815260086020526040902054909150611a8c9082613164565b6001600160a01b0380861660008181526008602052604090819020939093559151908f1691907f8ad4d3ff00da092c7ad9a573ea4f5f6a3dffc6712dc06d3f78f49b862297c40290611adf908590614216565b60405180910390a3836001600160a01b0316336001600160a01b03167fc8e512d8f188ca059984b5853d2bf653da902696b8512785b182b2c813789a6e8486604051611b2c92919061421f565b60405180910390a3611b3e8a82612fe4565b9950611b4a8983612fe4565b9850611b568884612fe4565b97505050505b50600101611964565b5083611b835760405162461bcd60e51b815260040161067090613fe2565b611ba0611b8f856131be565b83516001600160801b0316906131eb565b6001600160801b03168252611bcb611bb7846131be565b60208401516001600160801b0316906131eb565b6001600160801b03908116602084018190528351600780546001600160801b03191691841691909117909216600160801b909102179055600654611c0f9086613164565b60068190555060006064611c49600a611a4e88620186a0611c3b600d548c61318790919063ffffffff16565b81611c4257fe5b0490613164565b81611c5057fe5b049050611c5d8582612fe4565b9450611c84611c6b826131be565b600b54600160401b90046001600160801b03169061321a565b600b80546001600160801b0392909216600160401b02600160401b600160c01b031990921691909117905550604051636d289ce560e11b81526000906001600160a01b037f0000000000000000000000000000000000000000000000000000000000000000169063da5139ca90611d24907f0000000000000000000000000000000000000000000000000000000000000000908990600190600401613e8d565b60206040518083038186803b158015611d3c57600080fd5b505afa158015611d50573d6000803e3d6000fd5b505050506040513d601f19601f82011682018060405250810190611d749190613ba6565b600354604051633c6340f360e21b81529192506001600160a01b037f000000000000000000000000000000000000000000000000000000000000000081169263f18d03cc92611dcd92169030908e908c90600401613d96565b600060405180830381600087803b158015611de757600080fd5b505af1158015611dfb573d6000803e3d6000fd5b505050506001600160a01b03881615611ebc576003546040516371a1ff0960e11b81526001600160a01b038a81169263e343fe1292611e6892909116907f000000000000000000000000000000000000000000000000000000000000000090339087908d90600401613dc0565b6040805180830381600087803b158015611e8157600080fd5b505af1158015611e95573d6000803e3d6000fd5b505050506040513d601f19601f82011682018060405250810190611eb99190613bbe565b50505b604051633c6340f360e21b81526001600160a01b037f0000000000000000000000000000000000000000000000000000000000000000169063f18d03cc90611f2e907f000000000000000000000000000000000000000000000000000000000000000090339030908790600401613d96565b600060405180830381600087803b158015611f4857600080fd5b505af1158015611f5c573d6000803e3d6000fd5b5050505050505050505050505050505050565b7f000000000000000000000000000000000000000000000000000000000000000081565b600e5481565b600b546001600160401b03808216916001600160801b03600160401b82041691600160c01b9091041683565b600c5481565b7f000000000000000000000000000000000000000000000000000000000000000081565b6003546001600160a01b031681565b6001546001600160a01b031681565b6000546001600160a01b031633146120375760405162461bcd60e51b815260040161067090614050565b600280546001600160a01b0319166001600160a01b0383169081179091556040517fcf1d3f17e521c635e0d20b8acba94ba170afc041d0546d46dafa09d3c9c19eb390600090a250565b6120896133ae565b5060408051606081018252600b546001600160401b038082168084526001600160801b03600160401b8404166020850152600160c01b9092041692820192909252904203806120d95750506122e7565b6001600160401b03421682526120ed613397565b50604080518082019091526007546001600160801b038082168352600160801b909104166020820181905261218b5750508051600b805460208401516040909401516001600160401b03908116600160c01b026001600160c01b036001600160801b03909616600160401b02600160401b600160c01b03199290951667ffffffffffffffff19909316929092171692909217929092161790556122e7565b60006121d7670de0b6b3a76400006121ca85611a4e88604001516001600160401b031687600001516001600160801b031661318790919063ffffffff16565b816121d157fe5b046131be565b82519091506121ef906001600160801b03168261321a565b6001600160801b039081168352602085015161220c91168261321a565b6001600160801b039081166020808701829052845160078054928701518516600160801b029185166001600160801b031990931692909217909316929092179091558451600b80546040808901516001600160401b03908116600160c01b026001600160c01b03600160401b909702600160401b600160c01b03199290961667ffffffffffffffff199094169390931716939093179390931692909217909155517fee527de5e142bcc7fe0eddc4b9a04816d73f6307dd74f9204585910d60a8c083906122da9083906141e8565b60405180910390a1505050505b565b604080518082019091526007546001600160801b038082168352600160801b90910416602082015260009061232090836001613249565b8151600780546020948501516001600160801b03908116600160801b029381166001600160801b031990921691909117169190911790556001600160a01b0386166000908152600990925260409091205490915061237e9083613164565b6001600160a01b03808616600090815260096020526040808220939093559151636d289ce560e11b81527f00000000000000000000000000000000000000000000000000000000000000009091169063da5139ca90612406907f0000000000000000000000000000000000000000000000000000000000000000908690600190600401613e8d565b60206040518083038186803b15801561241e57600080fd5b505afa158015612432573d6000803e3d6000fd5b505050506040513d601f19601f820116820180604052508101906124569190613ba6565b90507f00000000000000000000000000000000000000000000000000000000000000006001600160a01b031663f18d03cc7f0000000000000000000000000000000000000000000000000000000000000000866124b357336124d5565b7f00000000000000000000000000000000000000000000000000000000000000005b30856040518563ffffffff1660e01b81526004016124f69493929190613d96565b600060405180830381600087803b15801561251057600080fd5b505af1158015612524573d6000803e3d6000fd5b50505050846001600160a01b03168461253d573361255f565b7f00000000000000000000000000000000000000000000000000000000000000005b6001600160a01b03167fc8e512d8f188ca059984b5853d2bf653da902696b8512785b182b2c813789a6e848660405161259992919061421f565b60405180910390a3509392505050565b6000806000620186a06125c7600e548661318790919063ffffffff16565b816125ce57fe5b04905061260e6125de8583612fe4565b604080518082019091526007546001600160801b038082168352600160801b9091041660208201529060016132be565b8151600780546020909401516001600160801b03908116600160801b029281166001600160801b0319909516949094178416919091179055600b5490945061265f91600160401b909104168261321a565b600b80546001600160801b0392909216600160401b02600160401b600160c01b0319909216919091179055336000908152600960205260409020546126a49084612fe4565b33600090815260096020526040808220929092559051636d289ce560e11b81527f00000000000000000000000000000000000000000000000000000000000000006001600160a01b03169163da5139ca91612726917f000000000000000000000000000000000000000000000000000000000000000091899190600401613e8d565b60206040518083038186803b15801561273e57600080fd5b505afa158015612752573d6000803e3d6000fd5b505050506040513d601f19601f820116820180604052508101906127769190613ba6565b604051633c6340f360e21b81529092506001600160a01b037f0000000000000000000000000000000000000000000000000000000000000000169063f18d03cc906127eb907f00000000000000000000000000000000000000000000000000000000000000009030908a908890600401613d96565b600060405180830381600087803b15801561280557600080fd5b505af1158015612819573d6000803e3d6000fd5b5050506001600160a01b0386169050337fb92cb6bca8e3270b9170930f03b17571e55791acdb1a0e9f339eec88bdb35e246128548785612fe4565b8660405161286392919061421f565b60405180910390a3509250929050565b6001600160a01b0382166000908152600960205260408120548061289b5760019150506129f5565b6001600160a01b038416600090815260086020526040902054806128c4576000925050506129f5565b6128cc613397565b50604080518082019091526007546001600160801b03808216808452600160801b90920416602083018190529061290a908790611a4e908790613187565b8161291157fe5b047f00000000000000000000000000000000000000000000000000000000000000006001600160a01b03166356623118600360009054906101000a90046001600160a01b031661297d600c54611a4e620186a0670de0b6b3a76400008161297457fe5b8a919004613187565b60006040518463ffffffff1660e01b815260040161299d93929190613e8d565b60206040518083038186803b1580156129b557600080fd5b505afa1580156129c9573d6000803e3d6000fd5b505050506040513d601f19601f820116820180604052508101906129ed9190613ba6565b101593505050505b92915050565b600080841215612a1b576000198414612a145781612a16565b825b61074a565b509192915050565b33600090815260086020526040902054612a3d9082613164565b33600090815260086020526040902055600654612a5a9082613164565b6006556040516001600160a01b0383169033907f8ad4d3ff00da092c7ad9a573ea4f5f6a3dffc6712dc06d3f78f49b862297c40290612a9a908590614216565b60405180910390a3600354604051633c6340f360e21b81526001600160a01b037f000000000000000000000000000000000000000000000000000000000000000081169263f18d03cc92612afb929190911690309087908790600401613d96565b600060405180830381600087803b158015612b1557600080fd5b505af1158015612b29573d6000803e3d6000fd5b505050505050565b60008060008060008089806020019051810190612b4e919061391a565b9350935093509350612b618289896129fb565b9150612b6e8189896129fb565b90507f00000000000000000000000000000000000000000000000000000000000000006001600160a01b03166302b9446c8a86338787876040518763ffffffff1660e01b8152600401612bc5959493929190613dc0565b60408051808303818588803b158015612bdd57600080fd5b505af1158015612bf1573d6000803e3d6000fd5b50505050506040513d601f19601f82011682018060405250810190612c169190613bbe565b955095505050505094509492505050565b60008060008060008088806020019051810190612c44919061391a565b93509350935093507f00000000000000000000000000000000000000000000000000000000000000006001600160a01b03166397da6d30853386612c89878e8e6129fb565b612c94878f8f6129fb565b6040518663ffffffff1660e01b8152600401612cb4959493929190613dc0565b6040805180830381600087803b158015612ccd57600080fd5b505af1158015612ce1573d6000803e3d6000fd5b505050506040513d601f19601f82011682018060405250810190612d059190613bbe565b9550955050505050935093915050565b60606000806060600080600089806020019051810190612d359190613586565b94509450945094509450828015612d4a575081155b15612d78578389604051602001612d62929190613c19565b6040516020818303038152906040529350612dd1565b82158015612d835750815b15612d9b578388604051602001612d62929190613c19565b828015612da55750815b15612dd157838989604051602001612dbf93929190613c3b565b60405160208183030381529060405293505b7f00000000000000000000000000000000000000000000000000000000000000006001600160a01b0316856001600160a01b031614158015612e1c57506001600160a01b0385163014155b612e385760405162461bcd60e51b8152600401610670906140ba565b60006060866001600160a01b03168d87604051612e559190613bfd565b60006040518083038185875af1925050503d8060008114612e92576040519150601f19603f3d011682016040523d82523d6000602084013e612e97565b606091505b509150915081612eb95760405162461bcd60e51b815260040161067090613f4d565b9c919b50909950505050505050505050565b600083602001516001600160801b031660001415612eea575081612f64565b602084015184516001600160801b0391821691612f0991869116613187565b81612f1057fe5b049050818015612f5457508284600001516001600160801b0316612f4a86602001516001600160801b03168461318790919063ffffffff16565b81612f5157fe5b04105b15612f645761074a816001612fe4565b9392505050565b82516000906001600160801b0316612f84575081612f64565b835160208501516001600160801b0391821691612fa391869116613187565b81612faa57fe5b049050818015612f5457508284602001516001600160801b0316612f4a86600001516001600160801b03168461318790919063ffffffff16565b818101818110156129f55760405162461bcd60e51b815260040161067090614019565b80156130d9576130b5827f00000000000000000000000000000000000000000000000000000000000000006001600160a01b031663f7888aec87306040518363ffffffff1660e01b815260040161305f929190613d7c565b60206040518083038186803b15801561307757600080fd5b505afa15801561308b573d6000803e3d6000fd5b505050506040513d601f19601f820116820180604052508101906130af9190613ba6565b90613164565b8311156130d45760405162461bcd60e51b81526004016106709061411f565b61315e565b604051633c6340f360e21b81526001600160a01b037f0000000000000000000000000000000000000000000000000000000000000000169063f18d03cc9061312b908790339030908990600401613d96565b600060405180830381600087803b15801561314557600080fd5b505af1158015613159573d6000803e3d6000fd5b505050505b50505050565b808203828111156129f55760405162461bcd60e51b815260040161067090613eb0565b60008115806131a25750508082028282828161319f57fe5b04145b6129f55760405162461bcd60e51b815260040161067090614182565b60006001600160801b038211156131e75760405162461bcd60e51b815260040161067090613fab565b5090565b8082036001600160801b0380841690821611156129f55760405162461bcd60e51b815260040161067090613eb0565b8181016001600160801b0380831690821610156129f55760405162461bcd60e51b815260040161067090614019565b613251613397565b600061325e858585612ecb565b905061327d61326c826131be565b86516001600160801b0316906131eb565b6001600160801b031685526132a8613294856131be565b60208701516001600160801b0316906131eb565b6001600160801b03166020860152939492505050565b6132c6613397565b60006132d3858585612f6b565b90506132f26132e1856131be565b86516001600160801b03169061321a565b6001600160801b031685526132a8613309826131be565b60208701516001600160801b03169061321a565b828054600181600116156101000203166002900490600052602060002090601f016020900481019282601f1061335e57805160ff191683800117855561338b565b8280016001018555821561338b579182015b8281111561338b578251825591602001919060010190613370565b506131e79291506133ce565b604080518082019091526000808252602082015290565b604080516060810182526000808252602082018190529181019190915290565b5b808211156131e757600081556001016133cf565b80356129f581614349565b60008083601f8401126133ff578182fd5b5081356001600160401b03811115613415578182fd5b6020830191508360208083028501011115610a3d57600080fd5b600082601f83011261343f578081fd5b813561345261344d826142c3565b61429d565b81815291506020808301908481018184028601820187101561347357600080fd5b60005b8481101561349257813584529282019290820190600101613476565b505050505092915050565b80516129f581614361565b80516001600160801b03811681146129f557600080fd5b80356001600160401b03811681146129f557600080fd5b80516129f58161436f565b6000602082840312156134f2578081fd5b8135612f6481614349565b60006020828403121561350e578081fd5b8151612f6481614349565b60008060008060008060c08789031215613531578182fd5b863561353c81614349565b9550602087013561354c81614349565b9450604087013561355c81614361565b9350606087013561356c8161436f565b9598949750929560808101359460a0909101359350915050565b600080600080600060a0868803121561359d578283fd5b85516135a881614349565b60208701519095506001600160401b038111156135c3578384fd5b8601601f810188136135d3578384fd5b80516135e161344d826142e2565b8181528960208385010111156135f5578586fd5b61360682602083016020860161431d565b809650505050613619876040880161349d565b9250613628876060880161349d565b915061363787608088016134d6565b90509295509295909350565b600080600060608486031215613657578081fd5b833561366281614349565b9250602084013561367281614361565b9150604084013561368281614361565b809150509250925092565b6000806000606084860312156136a1578081fd5b83356136ac81614349565b925060208401356136bc81614361565b929592945050506040919091013590565b600080604083850312156136df578182fd5b82356136ea81614349565b946020939093013593505050565b60008060008060008060808789031215613710578384fd5b86356001600160401b0380821115613726578586fd5b6137328a838b016133ee565b9098509650602089013591508082111561374a578586fd5b5061375789828a016133ee565b909550935050604087013561376b81614349565b9150606087013561377b81614349565b809150509295509295509295565b600080600080600080606087890312156137a1578384fd5b86356001600160401b03808211156137b7578586fd5b6137c38a838b016133ee565b909850965060208901359150808211156137db578586fd5b6137e78a838b016133ee565b909650945060408901359150808211156137ff578384fd5b5061380c89828a016133ee565b979a9699509497509295939492505050565b60008060408385031215613830578182fd5b825161383b81614361565b6020939093015192949293505050565b60008060006060848603121561385f578081fd5b833561386a81614361565b95602085013595506040909401359392505050565b60008060208385031215613891578182fd5b82356001600160401b03808211156138a7578384fd5b818501915085601f8301126138ba578384fd5b8135818111156138c8578485fd5b8660208285010111156138d9578485fd5b60209290920196919550909350505050565b6000806000606084860312156138ff578081fd5b833561390a81614349565b925060208401356136bc81614349565b6000806000806080858703121561392f578182fd5b845161393a81614349565b602086015190945061394b81614349565b6040860151606090960151949790965092505050565b600080600060608486031215613975578081fd5b833561398081614349565b92506020848101356001600160401b038082111561399c578384fd5b818701915087601f8301126139af578384fd5b81356139bd61344d826142c3565b81815284810190848601868402860187018c10156139d9578788fd5b8795505b83861015613a03576139ef8c826133e3565b8352600195909501949186019186016139dd565b50965050506040870135925080831115613a1b578384fd5b5050613a298682870161342f565b9150509250925092565b600080600080600080600060e0888a031215613a4d578485fd5b8735613a5881614349565b96506020880135613a6881614349565b955060408801356001600160401b03811115613a82578586fd5b8801601f81018a13613a92578586fd5b8035613aa061344d826142e2565b8181528b6020838501011115613ab4578788fd5b613ac5826020830160208601614311565b809750505050613ad88960608a016134bf565b9699959850939660808101359560a0820135955060c0909101359350915050565b600060208284031215613b0a578081fd5b5035919050565b60008060408385031215613b23578182fd5b823591506020830135613b3581614349565b809150509250929050565b600080600060608486031215613b54578081fd5b83359250602084013561367281614349565b600060408284031215613b77578081fd5b613b81604061429d565b613b8b84846134a8565b8152613b9a84602085016134a8565b60208201529392505050565b600060208284031215613bb7578081fd5b5051919050565b60008060408385031215613bd0578182fd5b505080516020909101519092909150565b600060208284031215613bf2578081fd5b8135612f648161436f565b60008251613c0f81846020870161431d565b9190910192915050565b60008351613c2b81846020880161431d565b9190910191825250602001919050565b60008451613c4d81846020890161431d565b91909101928352506020820152604001919050565b6001600160a01b0391909116815260200190565b6001600160a01b039687168152949095166020850152911515604084015260ff166060830152608082015260a081019190915260c00190565b9115158252602082015260400190565b6000602082528251806020840152613cde81604085016020870161431d565b601f01601f19169190910160400192915050565b60006020808301818452828554600180821660008114613d195760018114613d3757613d6f565b60028304607f16855260ff1983166040890152606088019350613d6f565b60028304808652613d478a614305565b885b82811015613d655781548b820160400152908401908801613d49565b8a01604001955050505b5091979650505050505050565b6001600160a01b0392831681529116602082015260400190565b6001600160a01b039485168152928416602084015292166040820152606081019190915260800190565b6001600160a01b03958616815293851660208501529190931660408301526060820192909252608081019190915260a00190565b60006080820160018060a01b0380881684526020818816818601526080604086015282875180855260a0870191508289019450855b81811015613e47578551851683529483019491830191600101613e29565b50508581036060870152865180825290820193509150808601845b83811015613e7e57815185529382019390820190600101613e62565b50929998505050505050505050565b6001600160a01b0393909316835260208301919091521515604082015260600190565b602080825260159082015274426f72696e674d6174683a20556e646572666c6f7760581b604082015260600190565b60208082526018908201527f4361756c64726f6e3a207573657220696e736f6c76656e740000000000000000604082015260600190565b60208082526017908201527f43616c6c6572206973206e6f7420746865206f776e6572000000000000000000604082015260600190565b60208082526015908201527410d85d5b191c9bdb8e8818d85b1b0819985a5b1959605a1b604082015260600190565b6020808252601590820152744f776e61626c653a207a65726f206164647265737360581b604082015260600190565b6020808252601c908201527f426f72696e674d6174683a2075696e74313238204f766572666c6f7700000000604082015260600190565b60208082526019908201527f4361756c64726f6e3a20616c6c2061726520736f6c76656e7400000000000000604082015260600190565b60208082526018908201527f426f72696e674d6174683a20416464204f766572666c6f770000000000000000604082015260600190565b6020808252818101527f4f776e61626c653a2063616c6c6572206973206e6f7420746865206f776e6572604082015260600190565b6020808252818101527f4f776e61626c653a2063616c6c657220213d2070656e64696e67206f776e6572604082015260600190565b60208082526014908201527310d85d5b191c9bdb8e8818d85b89dd0818d85b1b60621b604082015260600190565b6020808252601d908201527f4361756c64726f6e3a20616c726561647920696e697469616c697a6564000000604082015260600190565b60208082526017908201527f4361756c64726f6e3a20536b696d20746f6f206d756368000000000000000000604082015260600190565b60208082526012908201527121b0bab6323937b71d103130b2103830b4b960711b604082015260600190565b60208082526018908201527f426f72696e674d6174683a204d756c204f766572666c6f770000000000000000604082015260600190565b6020808252601590820152744361756c64726f6e3a2072617465206e6f74206f6b60581b604082015260600190565b6001600160801b0391909116815260200190565b6001600160801b0392831681529116602082015260400190565b90815260200190565b918252602082015260400190565b6001600160401b0393841681526001600160801b03929092166020830152909116604082015260600190565b6000808335601e1984360301811261426f578283fd5b8301803591506001600160401b03821115614288578283fd5b602001915036819003821315610a3d57600080fd5b6040518181016001600160401b03811182821017156142bb57600080fd5b604052919050565b60006001600160401b038211156142d8578081fd5b5060209081020190565b60006001600160401b038211156142f7578081fd5b50601f01601f191660200190565b60009081526020902090565b82818337506000910152565b60005b83811015614338578181015183820152602001614320565b8381111561315e5750506000910152565b6001600160a01b038116811461435e57600080fd5b50565b801515811461435e57600080fd5b60ff8116811461435e57600080fdfea2646970667358221220d3d1120e8904503fec9e685d564b017eb9c98e38ba3432ce3985fbf44fd05e4964736f6c634300060c0033",
  "devdoc": {
    "details": "This contract allows contract calls to any contract (except BentoBox) from arbitrary callers thus, don't trust calls from this contract in any circumstances.",
    "kind": "dev",
    "methods": {
      "addCollateral(address,bool,uint256)": {
        "params": {
          "share": "The amount of shares to add for `to`.",
          "skim": "True if the amount should be skimmed from the deposit balance of msg.sender.x False if tokens from msg.sender in `bentoBox` should be transferred.",
          "to": "The receiver of the tokens."
        }
      },
      "borrow(address,uint256)": {
        "returns": {
          "part": "Total part of the debt held by borrowers.",
          "share": "Total amount in shares borrowed."
        }
      },
      "cook(uint8[],uint256[],bytes[])": {
        "params": {
          "actions": "An array with a sequence of actions to execute (see ACTION_ declarations).",
          "datas": "A one-to-one mapped array to `actions`. Contains abi encoded data of function arguments.",
          "values": "A one-to-one mapped array to `actions`. ETH amounts to send along with the actions. Only applicable to `ACTION_CALL`, `ACTION_BENTO_DEPOSIT`."
        },
        "returns": {
          "value1": "May contain the first positioned return value of the last executed action (if applicable).",
          "value2": "May contain the second positioned return value of the last executed action which returns 2 values (if applicable)."
        }
      },
      "init(bytes)": {
        "details": "`data` is abi encoded in the format: (IERC20 collateral, IERC20 asset, IOracle oracle, bytes oracleData)"
      },
      "liquidate(address[],uint256[],address,address)": {
        "params": {
          "maxBorrowParts": "A one-to-one mapping to `users`, contains maximum (partial) borrow amounts (to liquidate) of the respective user.",
          "to": "Address of the receiver in open liquidations if `swapper` is zero.",
          "users": "An array of user addresses."
        }
      },
      "reduceSupply(uint256)": {
        "params": {
          "amount": "amount to reduce supply by"
        }
      },
      "removeCollateral(address,uint256)": {
        "params": {
          "share": "Amount of shares to remove.",
          "to": "The receiver of the shares."
        }
      },
      "repay(address,bool,uint256)": {
        "params": {
          "part": "The amount to repay. See `userBorrowPart`.",
          "skim": "True if the amount should be skimmed from the deposit balance of msg.sender. False if tokens from msg.sender in `bentoBox` should be transferred.",
          "to": "Address of the user this payment should go."
        },
        "returns": {
          "amount": "The total amount repayed."
        }
      },
      "setFeeTo(address)": {
        "params": {
          "newFeeTo": "The address of the receiver."
        }
      },
      "transferOwnership(address,bool,bool)": {
        "params": {
          "direct": "True if `newOwner` should be set immediately. False if `newOwner` needs to use `claimOwnership`.",
          "newOwner": "Address of the new owner.",
          "renounce": "Allows the `newOwner` to be `address(0)` if `direct` and `renounce` is True. Has no effect otherwise."
        }
      },
      "updateExchangeRate()": {
        "returns": {
          "rate": "The new exchange rate.",
          "updated": "True if `exchangeRate` was updated."
        }
      }
    },
    "title": "Cauldron",
    "version": 1
  },
  "userdoc": {
    "kind": "user",
    "methods": {
      "accrue()": {
        "notice": "Accrues the interest on the borrowed tokens and handles the accumulation of fees."
      },
      "addCollateral(address,bool,uint256)": {
        "notice": "Adds `collateral` from msg.sender to the account `to`."
      },
      "borrow(address,uint256)": {
        "notice": "Sender borrows `amount` and transfers it to `to`."
      },
      "claimOwnership()": {
        "notice": "Needs to be called by `pendingOwner` to claim ownership."
      },
      "constructor": "The constructor is only used for the initial master contract. Subsequent clones are initialised via `init`.",
      "cook(uint8[],uint256[],bytes[])": {
        "notice": "Executes a set of actions and allows composability (contract calls) to other contracts."
      },
      "exchangeRate()": {
        "notice": "Exchange and interest rate tracking. This is 'cached' here because calls to Oracles can be very expensive."
      },
      "init(bytes)": {
        "notice": "Serves as the constructor for clones, as clones can't have a regular constructor"
      },
      "liquidate(address[],uint256[],address,address)": {
        "notice": "Handles the liquidation of users' balances, once the users' amount of collateral is too low."
      },
      "reduceSupply(uint256)": {
        "notice": "reduces the supply of MIM"
      },
      "removeCollateral(address,uint256)": {
        "notice": "Removes `share` amount of collateral and transfers it to `to`."
      },
      "repay(address,bool,uint256)": {
        "notice": "Repays a loan."
      },
      "setFeeTo(address)": {
        "notice": "Sets the beneficiary of interest accrued. MasterContract Only Admin function."
      },
      "transferOwnership(address,bool,bool)": {
        "notice": "Transfers ownership to `newOwner`. Either directly or claimable by the new pending owner. Can only be invoked by the current `owner`."
      },
      "updateExchangeRate()": {
        "notice": "Gets the exchange rate. I.e how much collateral to buy 1e18 asset. This function is supposed to be invoked if needed because Oracle queries can be expensive."
      },
      "withdrawFees()": {
        "notice": "Withdraws the fees accumulated."
      }
    },
    "version": 1
  },
  "storageLayout": {
    "storage": [
      {
        "astId": 118,
        "contract": "contracts/CauldronV2.sol:CauldronV2",
        "label": "owner",
        "offset": 0,
        "slot": "0",
        "type": "t_address"
      },
      {
        "astId": 120,
        "contract": "contracts/CauldronV2.sol:CauldronV2",
        "label": "pendingOwner",
        "offset": 0,
        "slot": "1",
        "type": "t_address"
      },
      {
        "astId": 8038,
        "contract": "contracts/CauldronV2.sol:CauldronV2",
        "label": "feeTo",
        "offset": 0,
        "slot": "2",
        "type": "t_address"
      },
      {
        "astId": 8040,
        "contract": "contracts/CauldronV2.sol:CauldronV2",
        "label": "collateral",
        "offset": 0,
        "slot": "3",
        "type": "t_contract(IERC20)831"
      },
      {
        "astId": 8042,
        "contract": "contracts/CauldronV2.sol:CauldronV2",
        "label": "oracle",
        "offset": 0,
        "slot": "4",
        "type": "t_contract(IOracle)15501"
      },
      {
        "astId": 8044,
        "contract": "contracts/CauldronV2.sol:CauldronV2",
        "label": "oracleData",
        "offset": 0,
        "slot": "5",
        "type": "t_bytes_storage"
      },
      {
        "astId": 8046,
        "contract": "contracts/CauldronV2.sol:CauldronV2",
        "label": "totalCollateralShare",
        "offset": 0,
        "slot": "6",
        "type": "t_uint256"
      },
      {
        "astId": 8048,
        "contract": "contracts/CauldronV2.sol:CauldronV2",
        "label": "totalBorrow",
        "offset": 0,
        "slot": "7",
        "type": "t_struct(Rebase)1445_storage"
      },
      {
        "astId": 8052,
        "contract": "contracts/CauldronV2.sol:CauldronV2",
        "label": "userCollateralShare",
        "offset": 0,
        "slot": "8",
        "type": "t_mapping(t_address,t_uint256)"
      },
      {
        "astId": 8056,
        "contract": "contracts/CauldronV2.sol:CauldronV2",
        "label": "userBorrowPart",
        "offset": 0,
        "slot": "9",
        "type": "t_mapping(t_address,t_uint256)"
      },
      {
        "astId": 8059,
        "contract": "contracts/CauldronV2.sol:CauldronV2",
        "label": "exchangeRate",
        "offset": 0,
        "slot": "10",
        "type": "t_uint256"
      },
      {
        "astId": 8068,
        "contract": "contracts/CauldronV2.sol:CauldronV2",
        "label": "accrueInfo",
        "offset": 0,
        "slot": "11",
        "type": "t_struct(AccrueInfo)8066_storage"
      },
      {
        "astId": 8070,
        "contract": "contracts/CauldronV2.sol:CauldronV2",
        "label": "COLLATERIZATION_RATE",
        "offset": 0,
        "slot": "12",
        "type": "t_uint256"
      },
      {
        "astId": 8078,
        "contract": "contracts/CauldronV2.sol:CauldronV2",
        "label": "LIQUIDATION_MULTIPLIER",
        "offset": 0,
        "slot": "13",
        "type": "t_uint256"
      },
      {
        "astId": 8083,
        "contract": "contracts/CauldronV2.sol:CauldronV2",
        "label": "BORROW_OPENING_FEE",
        "offset": 0,
        "slot": "14",
        "type": "t_uint256"
      }
    ],
    "types": {
      "t_address": {
        "encoding": "inplace",
        "label": "address",
        "numberOfBytes": "20"
      },
      "t_bytes_storage": {
        "encoding": "bytes",
        "label": "bytes",
        "numberOfBytes": "32"
      },
      "t_contract(IERC20)831": {
        "encoding": "inplace",
        "label": "contract IERC20",
        "numberOfBytes": "20"
      },
      "t_contract(IOracle)15501": {
        "encoding": "inplace",
        "label": "contract IOracle",
        "numberOfBytes": "20"
      },
      "t_mapping(t_address,t_uint256)": {
        "encoding": "mapping",
        "key": "t_address",
        "label": "mapping(address => uint256)",
        "numberOfBytes": "32",
        "value": "t_uint256"
      },
      "t_struct(AccrueInfo)8066_storage": {
        "encoding": "inplace",
        "label": "struct CauldronV2.AccrueInfo",
        "members": [
          {
            "astId": 8061,
            "contract": "contracts/CauldronV2.sol:CauldronV2",
            "label": "lastAccrued",
            "offset": 0,
            "slot": "0",
            "type": "t_uint64"
          },
          {
            "astId": 8063,
            "contract": "contracts/CauldronV2.sol:CauldronV2",
            "label": "feesEarned",
            "offset": 8,
            "slot": "0",
            "type": "t_uint128"
          },
          {
            "astId": 8065,
            "contract": "contracts/CauldronV2.sol:CauldronV2",
            "label": "INTEREST_PER_SECOND",
            "offset": 24,
            "slot": "0",
            "type": "t_uint64"
          }
        ],
        "numberOfBytes": "32"
      },
      "t_struct(Rebase)1445_storage": {
        "encoding": "inplace",
        "label": "struct Rebase",
        "members": [
          {
            "astId": 1442,
            "contract": "contracts/CauldronV2.sol:CauldronV2",
            "label": "elastic",
            "offset": 0,
            "slot": "0",
            "type": "t_uint128"
          },
          {
            "astId": 1444,
            "contract": "contracts/CauldronV2.sol:CauldronV2",
            "label": "base",
            "offset": 16,
            "slot": "0",
            "type": "t_uint128"
          }
        ],
        "numberOfBytes": "32"
      },
      "t_uint128": {
        "encoding": "inplace",
        "label": "uint128",
        "numberOfBytes": "16"
      },
      "t_uint256": {
        "encoding": "inplace",
        "label": "uint256",
        "numberOfBytes": "32"
      },
      "t_uint64": {
        "encoding": "inplace",
        "label": "uint64",
        "numberOfBytes": "8"
      }
    }
  }
}