{
  "address": "0x2F1Ba281cA9c32BCe9C6E8792Ba6448434178f89",
  "abi": [
    {
      "inputs": [],
      "stateMutability": "nonpayable",
      "type": "constructor"
    },
    {
      "anonymous": false,
      "inputs": [
        {
          "indexed": true,
          "internalType": "address",
          "name": "owner",
          "type": "address"
        },
        {
          "indexed": true,
          "internalType": "address",
          "name": "spender",
          "type": "address"
        },
        {
          "indexed": false,
          "internalType": "uint256",
          "name": "value",
          "type": "uint256"
        }
      ],
      "name": "Approval",
      "type": "event"
    },
    {
      "anonymous": false,
      "inputs": [
        {
          "indexed": true,
          "internalType": "address",
          "name": "_user",
          "type": "address"
        },
        {
          "indexed": true,
          "internalType": "address",
          "name": "_account",
          "type": "address"
        },
        {
          "indexed": false,
          "internalType": "uint256",
          "name": "_amount",
          "type": "uint256"
        },
        {
          "indexed": false,
          "internalType": "bool",
          "name": "_wrapped",
          "type": "bool"
        }
      ],
      "name": "Deposited",
      "type": "event"
    },
    {
      "anonymous": false,
      "inputs": [
        {
          "indexed": true,
          "internalType": "address",
          "name": "previousOwner",
          "type": "address"
        },
        {
          "indexed": true,
          "internalType": "address",
          "name": "newOwner",
          "type": "address"
        }
      ],
      "name": "OwnershipTransferred",
      "type": "event"
    },
    {
      "anonymous": false,
      "inputs": [
        {
          "indexed": true,
          "internalType": "address",
          "name": "from",
          "type": "address"
        },
        {
          "indexed": true,
          "internalType": "address",
          "name": "to",
          "type": "address"
        },
        {
          "indexed": false,
          "internalType": "uint256",
          "name": "value",
          "type": "uint256"
        }
      ],
      "name": "Transfer",
      "type": "event"
    },
    {
      "anonymous": false,
      "inputs": [
        {
          "indexed": true,
          "internalType": "address",
          "name": "_user",
          "type": "address"
        },
        {
          "indexed": false,
          "internalType": "uint256",
          "name": "_amount",
          "type": "uint256"
        },
        {
          "indexed": false,
          "internalType": "bool",
          "name": "_unwrapped",
          "type": "bool"
        }
      ],
      "name": "Withdrawn",
      "type": "event"
    },
    {
      "inputs": [],
      "name": "addRewards",
      "outputs": [],
      "stateMutability": "nonpayable",
      "type": "function"
    },
    {
      "inputs": [
        {
          "internalType": "address",
          "name": "owner",
          "type": "address"
        },
        {
          "internalType": "address",
          "name": "spender",
          "type": "address"
        }
      ],
      "name": "allowance",
      "outputs": [
        {
          "internalType": "uint256",
          "name": "",
          "type": "uint256"
        }
      ],
      "stateMutability": "view",
      "type": "function"
    },
    {
      "inputs": [
        {
          "internalType": "address",
          "name": "spender",
          "type": "address"
        },
        {
          "internalType": "uint256",
          "name": "amount",
          "type": "uint256"
        }
      ],
      "name": "approve",
      "outputs": [
        {
          "internalType": "bool",
          "name": "",
          "type": "bool"
        }
      ],
      "stateMutability": "nonpayable",
      "type": "function"
    },
    {
      "inputs": [
        {
          "internalType": "address",
          "name": "account",
          "type": "address"
        }
      ],
      "name": "balanceOf",
      "outputs": [
        {
          "internalType": "uint256",
          "name": "",
          "type": "uint256"
        }
      ],
      "stateMutability": "view",
      "type": "function"
    },
    {
      "inputs": [
        {
          "internalType": "uint256",
          "name": "",
          "type": "uint256"
        }
      ],
      "name": "cauldrons",
      "outputs": [
        {
          "internalType": "address",
          "name": "",
          "type": "address"
        }
      ],
      "stateMutability": "view",
      "type": "function"
    },
    {
      "inputs": [],
      "name": "cauldronsLength",
      "outputs": [
        {
          "internalType": "uint256",
          "name": "",
          "type": "uint256"
        }
      ],
      "stateMutability": "view",
      "type": "function"
    },
    {
      "inputs": [],
      "name": "collateralVault",
      "outputs": [
        {
          "internalType": "address",
          "name": "",
          "type": "address"
        }
      ],
      "stateMutability": "view",
      "type": "function"
    },
    {
      "inputs": [],
      "name": "convexBooster",
      "outputs": [
        {
          "internalType": "address",
          "name": "",
          "type": "address"
        }
      ],
      "stateMutability": "view",
      "type": "function"
    },
    {
      "inputs": [],
      "name": "convexPool",
      "outputs": [
        {
          "internalType": "address",
          "name": "",
          "type": "address"
        }
      ],
      "stateMutability": "view",
      "type": "function"
    },
    {
      "inputs": [],
      "name": "convexPoolId",
      "outputs": [
        {
          "internalType": "uint256",
          "name": "",
          "type": "uint256"
        }
      ],
      "stateMutability": "view",
      "type": "function"
    },
    {
      "inputs": [],
      "name": "convexToken",
      "outputs": [
        {
          "internalType": "address",
          "name": "",
          "type": "address"
        }
      ],
      "stateMutability": "view",
      "type": "function"
    },
    {
      "inputs": [],
      "name": "crv",
      "outputs": [
        {
          "internalType": "address",
          "name": "",
          "type": "address"
        }
      ],
      "stateMutability": "view",
      "type": "function"
    },
    {
      "inputs": [],
      "name": "curveToken",
      "outputs": [
        {
          "internalType": "address",
          "name": "",
          "type": "address"
        }
      ],
      "stateMutability": "view",
      "type": "function"
    },
    {
      "inputs": [],
      "name": "cvx",
      "outputs": [
        {
          "internalType": "address",
          "name": "",
          "type": "address"
        }
      ],
      "stateMutability": "view",
      "type": "function"
    },
    {
      "inputs": [
        {
          "internalType": "address",
          "name": "",
          "type": "address"
        }
      ],
      "name": "cvx_claimable_reward",
      "outputs": [
        {
          "internalType": "uint256",
          "name": "",
          "type": "uint256"
        }
      ],
      "stateMutability": "view",
      "type": "function"
    },
    {
      "inputs": [],
      "name": "cvx_reward_integral",
      "outputs": [
        {
          "internalType": "uint256",
          "name": "",
          "type": "uint256"
        }
      ],
      "stateMutability": "view",
      "type": "function"
    },
    {
      "inputs": [
        {
          "internalType": "address",
          "name": "",
          "type": "address"
        }
      ],
      "name": "cvx_reward_integral_for",
      "outputs": [
        {
          "internalType": "uint256",
          "name": "",
          "type": "uint256"
        }
      ],
      "stateMutability": "view",
      "type": "function"
    },
    {
      "inputs": [],
      "name": "cvx_reward_remaining",
      "outputs": [
        {
          "internalType": "uint256",
          "name": "",
          "type": "uint256"
        }
      ],
      "stateMutability": "view",
      "type": "function"
    },
    {
      "inputs": [],
      "name": "decimals",
      "outputs": [
        {
          "internalType": "uint8",
          "name": "",
          "type": "uint8"
        }
      ],
      "stateMutability": "view",
      "type": "function"
    },
    {
      "inputs": [
        {
          "internalType": "address",
          "name": "spender",
          "type": "address"
        },
        {
          "internalType": "uint256",
          "name": "subtractedValue",
          "type": "uint256"
        }
      ],
      "name": "decreaseAllowance",
      "outputs": [
        {
          "internalType": "bool",
          "name": "",
          "type": "bool"
        }
      ],
      "stateMutability": "nonpayable",
      "type": "function"
    },
    {
      "inputs": [
        {
          "internalType": "uint256",
          "name": "_amount",
          "type": "uint256"
        },
        {
          "internalType": "address",
          "name": "_to",
          "type": "address"
        }
      ],
      "name": "deposit",
      "outputs": [],
      "stateMutability": "nonpayable",
      "type": "function"
    },
    {
      "inputs": [
        {
          "internalType": "address",
          "name": "_account",
          "type": "address"
        }
      ],
      "name": "earned",
      "outputs": [
        {
          "components": [
            {
              "internalType": "address",
              "name": "token",
              "type": "address"
            },
            {
              "internalType": "uint256",
              "name": "amount",
              "type": "uint256"
            }
          ],
          "internalType": "struct ConvexStakingWrapper.EarnedData[]",
          "name": "claimable",
          "type": "tuple[]"
        }
      ],
      "stateMutability": "view",
      "type": "function"
    },
    {
      "inputs": [
        {
          "internalType": "address",
          "name": "_account",
          "type": "address"
        }
      ],
      "name": "getReward",
      "outputs": [],
      "stateMutability": "nonpayable",
      "type": "function"
    },
    {
      "inputs": [
        {
          "internalType": "address",
          "name": "spender",
          "type": "address"
        },
        {
          "internalType": "uint256",
          "name": "addedValue",
          "type": "uint256"
        }
      ],
      "name": "increaseAllowance",
      "outputs": [
        {
          "internalType": "bool",
          "name": "",
          "type": "bool"
        }
      ],
      "stateMutability": "nonpayable",
      "type": "function"
    },
    {
      "inputs": [
        {
          "internalType": "address",
          "name": "_curveToken",
          "type": "address"
        },
        {
          "internalType": "address",
          "name": "_convexToken",
          "type": "address"
        },
        {
          "internalType": "address",
          "name": "_convexPool",
          "type": "address"
        },
        {
          "internalType": "uint256",
          "name": "_poolId",
          "type": "uint256"
        },
        {
          "internalType": "address",
          "name": "_vault",
          "type": "address"
        }
      ],
      "name": "initialize",
      "outputs": [],
      "stateMutability": "nonpayable",
      "type": "function"
    },
    {
      "inputs": [],
      "name": "isInit",
      "outputs": [
        {
          "internalType": "bool",
          "name": "",
          "type": "bool"
        }
      ],
      "stateMutability": "view",
      "type": "function"
    },
    {
      "inputs": [],
      "name": "isShutdown",
      "outputs": [
        {
          "internalType": "bool",
          "name": "",
          "type": "bool"
        }
      ],
      "stateMutability": "view",
      "type": "function"
    },
    {
      "inputs": [],
      "name": "name",
      "outputs": [
        {
          "internalType": "string",
          "name": "",
          "type": "string"
        }
      ],
      "stateMutability": "view",
      "type": "function"
    },
    {
      "inputs": [],
      "name": "owner",
      "outputs": [
        {
          "internalType": "address",
          "name": "",
          "type": "address"
        }
      ],
      "stateMutability": "view",
      "type": "function"
    },
    {
      "inputs": [],
      "name": "renounceOwnership",
      "outputs": [],
      "stateMutability": "nonpayable",
      "type": "function"
    },
    {
      "inputs": [],
      "name": "rewardLength",
      "outputs": [
        {
          "internalType": "uint256",
          "name": "",
          "type": "uint256"
        }
      ],
      "stateMutability": "view",
      "type": "function"
    },
    {
      "inputs": [
        {
          "internalType": "uint256",
          "name": "",
          "type": "uint256"
        }
      ],
      "name": "rewards",
      "outputs": [
        {
          "internalType": "address",
          "name": "reward_token",
          "type": "address"
        },
        {
          "internalType": "address",
          "name": "reward_pool",
          "type": "address"
        },
        {
          "internalType": "uint128",
          "name": "reward_integral",
          "type": "uint128"
        },
        {
          "internalType": "uint128",
          "name": "reward_remaining",
          "type": "uint128"
        }
      ],
      "stateMutability": "view",
      "type": "function"
    },
    {
      "inputs": [],
      "name": "setApprovals",
      "outputs": [],
      "stateMutability": "nonpayable",
      "type": "function"
    },
    {
      "inputs": [
        {
          "internalType": "address",
          "name": "_cauldron",
          "type": "address"
        }
      ],
      "name": "setCauldron",
      "outputs": [],
      "stateMutability": "nonpayable",
      "type": "function"
    },
    {
      "inputs": [],
      "name": "shutdown",
      "outputs": [],
      "stateMutability": "nonpayable",
      "type": "function"
    },
    {
      "inputs": [
        {
          "internalType": "uint256",
          "name": "_amount",
          "type": "uint256"
        },
        {
          "internalType": "address",
          "name": "_to",
          "type": "address"
        }
      ],
      "name": "stake",
      "outputs": [],
      "stateMutability": "nonpayable",
      "type": "function"
    },
    {
      "inputs": [],
      "name": "symbol",
      "outputs": [
        {
          "internalType": "string",
          "name": "",
          "type": "string"
        }
      ],
      "stateMutability": "view",
      "type": "function"
    },
    {
      "inputs": [
        {
          "internalType": "address",
          "name": "_account",
          "type": "address"
        }
      ],
      "name": "totalBalanceOf",
      "outputs": [
        {
          "internalType": "uint256",
          "name": "",
          "type": "uint256"
        }
      ],
      "stateMutability": "view",
      "type": "function"
    },
    {
      "inputs": [],
      "name": "totalSupply",
      "outputs": [
        {
          "internalType": "uint256",
          "name": "",
          "type": "uint256"
        }
      ],
      "stateMutability": "view",
      "type": "function"
    },
    {
      "inputs": [
        {
          "internalType": "address",
          "name": "recipient",
          "type": "address"
        },
        {
          "internalType": "uint256",
          "name": "amount",
          "type": "uint256"
        }
      ],
      "name": "transfer",
      "outputs": [
        {
          "internalType": "bool",
          "name": "",
          "type": "bool"
        }
      ],
      "stateMutability": "nonpayable",
      "type": "function"
    },
    {
      "inputs": [
        {
          "internalType": "address",
          "name": "sender",
          "type": "address"
        },
        {
          "internalType": "address",
          "name": "recipient",
          "type": "address"
        },
        {
          "internalType": "uint256",
          "name": "amount",
          "type": "uint256"
        }
      ],
      "name": "transferFrom",
      "outputs": [
        {
          "internalType": "bool",
          "name": "",
          "type": "bool"
        }
      ],
      "stateMutability": "nonpayable",
      "type": "function"
    },
    {
      "inputs": [
        {
          "internalType": "address",
          "name": "newOwner",
          "type": "address"
        }
      ],
      "name": "transferOwnership",
      "outputs": [],
      "stateMutability": "nonpayable",
      "type": "function"
    },
    {
      "inputs": [
        {
          "internalType": "address[2]",
          "name": "_accounts",
          "type": "address[2]"
        }
      ],
      "name": "user_checkpoint",
      "outputs": [
        {
          "internalType": "bool",
          "name": "",
          "type": "bool"
        }
      ],
      "stateMutability": "nonpayable",
      "type": "function"
    },
    {
      "inputs": [
        {
          "internalType": "uint256",
          "name": "_amount",
          "type": "uint256"
        }
      ],
      "name": "withdraw",
      "outputs": [],
      "stateMutability": "nonpayable",
      "type": "function"
    },
    {
      "inputs": [
        {
          "internalType": "uint256",
          "name": "_amount",
          "type": "uint256"
        }
      ],
      "name": "withdrawAndUnwrap",
      "outputs": [],
      "stateMutability": "nonpayable",
      "type": "function"
    }
  ],
  "transactionHash": "0x8f90bfb5a44f944a4a496ec23c23f78b62a1f29732d12cc6354280471522843c",
  "args": [],
  "solcInputHash": "bc7b52d53514a6c97a36d4d2f9797fa3",
  "bytecode": "0x60806040523480156200001157600080fd5b50604080518082018252601181527029ba30b5b2b221b7b73b32bc2a37b5b2b760791b6020808301918252835180850190945260068452650e6e8d686ecf60d31b90840152815191929162000069916003916200009a565b5080516200007f9060049060208401906200009a565b50506005805460ff1916601217905550600160065562000136565b828054600181600116156101000203166002900490600052602060002090601f016020900481019282601f10620000dd57805160ff19168380011785556200010d565b828001600101855582156200010d579182015b828111156200010d578251825591602001919060010190620000f0565b506200011b9291506200011f565b5090565b5b808211156200011b576000815560010162000120565b613a3a80620001466000396000f3fe608060405234801561001057600080fd5b506004361061027e5760003560e01c80637c93fa621161015c578063bf86d690116100ce578063e529ee9511610087578063e529ee95146104e5578063e6d223b1146104ed578063e89133b214610500578063f2fde38b14610508578063f301af421461051b578063fc0e74d11461053e5761027e565b8063bf86d69014610489578063c00007b014610491578063c3ff0a5b146104a4578063cc7d510e146104b7578063dd62ed3e146104bf578063e2aecded146104d25761027e565b80639a04dbc7116101205780639a04dbc714610438578063a457c2d71461044b578063a52e19a51461045e578063a9059cbb14610466578063b145a5b814610479578063b95c5746146104815761027e565b80637c93fa62146104105780638757b15b146104185780638da5cb5b14610420578063923c1d611461042857806395d89b41146104305761027e565b80633969dfb4116101f55780636a4874a1116101b95780636a4874a1146103bf5780636e553f65146103c757806370a08231146103da578063715018a6146103ed57806376addb19146103f55780637acb7757146103fd5761027e565b80633969dfb41461036b5780634b0ee02a1461037e5780634f39059c14610391578063530b97a4146103995780635626265c146103ac5761027e565b806318160ddd1161024757806318160ddd1461030057806323b872dd146103155780632cdacb50146103285780632e1a7d4d14610330578063313ce5671461034357806339509351146103585761027e565b80628cc2621461028357806306fdde03146102ac578063095ea7b3146102c15780630bece79c146102e157806314d6aed0146102f6575b600080fd5b610296610291366004612fe3565b610546565b6040516102a391906133cb565b60405180910390f35b6102b46108b9565b6040516102a3919061342e565b6102d46102cf3660046130fa565b61094f565b6040516102a39190613423565b6102e961096d565b6040516102a391906132ee565b6102fe61097c565b005b610308610ce3565b6040516102a391906138ef565b6102d46103233660046130ba565b610ce9565b6102e9610d71565b6102fe61033e366004613206565b610d89565b61034b610e93565b6040516102a39190613920565b6102d46103663660046130fa565b610e98565b6102fe610379366004613206565b610ee6565b61030861038c366004612fe3565b610fd7565b6102e9610fe2565b6102fe6103a7366004613053565b610ff1565b6102e96103ba366004613206565b61129b565b6102e96112c2565b6102fe6103d5366004613236565b6112da565b6103086103e8366004612fe3565b611436565b6102fe611451565b6103086114d3565b6102fe61040b366004613236565b6114d9565b6103086115f5565b6102fe6115fb565b6102e9611693565b6102e96116a8565b6102b46116c0565b610308610446366004612fe3565b611721565b6102d46104593660046130fa565b611733565b61030861179b565b6102d46104743660046130fa565b6117a1565b6102d46117b5565b6103086117c3565b6102d46117c9565b6102fe61049f366004612fe3565b6117d2565b6102fe6104b2366004612fe3565b6117fb565b6102e9611903565b6103086104cd36600461301b565b611912565b6102d46104e0366004613125565b61193d565b6103086119a6565b6103086104fb366004612fe3565b6119ac565b6102e96119be565b6102fe610516366004612fe3565b6119cd565b61052e610529366004613206565b611a8d565b6040516102a3949392919061331c565b6102fe611ade565b60606000610552611b1d565b6010549091506001810167ffffffffffffffff8111801561057257600080fd5b506040519080825280602002602001820160405280156105ac57816020015b610599612f1b565b8152602001906001900390816105915790505b50925060005b818110156108b0576000601082815481106105c957fe5b60009182526020822060059091020180546040516370a0823160e01b81529193506001600160a01b0316906370a08231906106089030906004016132ee565b60206040518083038186803b15801561062057600080fd5b505afa158015610634573d6000803e3d6000fd5b505050506040513d601f19601f82011682018060405250810190610658919061321e565b600283015490915060009061067e908390600160801b90046001600160801b0316611b2c565b60018401546040516246613160e11b815291925061070c916001600160a01b0390911690628cc262906106b59030906004016132ee565b60206040518083038186803b1580156106cd57600080fd5b505afa1580156106e1573d6000803e3d6000fd5b505050506040513d601f19601f82011682018060405250810190610705919061321e565b8290611b54565b60028401549091506001600160801b03168615610742576107408761073a8468056bc75e2d63100000611b79565b90611bb3565b015b6001600160a01b038916600090815260038501602052604081205461078a9068056bc75e2d631000009061073a9061077b908690611b2c565b6107848e611be5565b90611b79565b6001600160a01b038b1660009081526004870160205260409020549091506107b29082611b54565b8987815181106107be57fe5b6020908102919091018101510152845489516001600160a01b03909116908a90889081106107e857fe5b60209081029190910101516001600160a01b03918216905285541673d533a949740bb3306d119cc777fa900ba034cd52141561089f5761084961082a82611d8c565b6001600160a01b038c166000908152600a602052604090205490611b54565b89888151811061085557fe5b60200260200101516020018181525050734e3fbd56cd56c3e72c1403e103b45db9da5b9d2b89888151811061088657fe5b60209081029190910101516001600160a01b0390911690525b5050600190930192506105b2915050565b5050505b919050565b60128054604080516020601f60026000196101006001881615020190951694909404938401819004810282018101909252828152606093909290918301828280156109455780601f1061091a57610100808354040283529160200191610945565b820191906000526020600020905b81548152906001019060200180831161092857829003601f168201915b5050505050905090565b600061096361095c612003565b8484612007565b5060015b92915050565b600f546001600160a01b031681565b600d546010546001600160a01b0390911690610aa8576040805160808101825273d533a949740bb3306d119cc777fa900ba034cd5281526001600160a01b038381166020830190815260009383018481526060840185815260108054600181018255965293517f1b6847dc741a1b0cd08d278845f9d819d87b734759afb55fe2de5cb82a9ae672600590960295860180546001600160a01b031990811692861692909217905591517f1b6847dc741a1b0cd08d278845f9d819d87b734759afb55fe2de5cb82a9ae673860180549093169316929092179055517f1b6847dc741a1b0cd08d278845f9d819d87b734759afb55fe2de5cb82a9ae674909201805491516001600160801b03199092166001600160801b03938416178316600160801b93909216929092021790555b6000816001600160a01b031663d55a23f46040518163ffffffff1660e01b815260040160206040518083038186803b158015610ae357600080fd5b505afa158015610af7573d6000803e3d6000fd5b505050506040513d601f19601f82011682018060405250810190610b1b919061321e565b60105490915060001901805b82811015610cdd57604051632061aa2360e11b81526000906001600160a01b038616906340c3544690610b5e9085906004016138ef565b60206040518083038186803b158015610b7657600080fd5b505afa158015610b8a573d6000803e3d6000fd5b505050506040513d601f19601f82011682018060405250810190610bae9190612fff565b905060106040518060800160405280836001600160a01b031663f7c618c16040518163ffffffff1660e01b815260040160206040518083038186803b158015610bf657600080fd5b505afa158015610c0a573d6000803e3d6000fd5b505050506040513d601f19601f82011682018060405250810190610c2e9190612fff565b6001600160a01b03908116825293841660208083019190915260006040808401829052606093840182905285546001808201885596835291839020855160059093020180546001600160a01b03199081169389169390931781559285015183870180549093169716969096179055938201516002909401805492909101516001600160801b03199092166001600160801b03948516178416600160801b94909216939093021790915501610b27565b50505050565b60025490565b6000610cf68484846120bb565b610d6684610d02612003565b610d61856040518060600160405280602881526020016139b8602891396001600160a01b038a16600090815260016020526040812090610d40612003565b6001600160a01b0316815260208101919091526040016000205491906121d0565b612007565b5060015b9392505050565b73f403c135812408bfbe8713b5a23a04b3d48aae3181565b60026006541415610db55760405162461bcd60e51b8152600401610dac9061382b565b60405180910390fd5b60026006558015610e4757610dca33826121fc565b600d54604051631c683a1b60e11b81526001600160a01b03909116906338d0743690610dfd9084906000906004016138f8565b600060405180830381600087803b158015610e1757600080fd5b505af1158015610e2b573d6000803e3d6000fd5b5050600c54610e4792506001600160a01b0316905033836122de565b336001600160a01b03167f2fd83d5e9f5d240bed47a97a24cf354e4047e25edc2da27b01fd95e5e8a0c9a5826000604051610e839291906138f8565b60405180910390a2506001600655565b601290565b6000610963610ea5612003565b84610d618560016000610eb6612003565b6001600160a01b03908116825260208083019390935260409182016000908120918c168152925290205490611b54565b60026006541415610f095760405162461bcd60e51b8152600401610dac9061382b565b60026006558015610f9b57610f1e33826121fc565b600d54604051636197390160e11b81526001600160a01b039091169063c32e720290610f519084906000906004016138f8565b600060405180830381600087803b158015610f6b57600080fd5b505af1158015610f7f573d6000803e3d6000fd5b5050600b54610f9b92506001600160a01b0316905033836122de565b336001600160a01b03167f2fd83d5e9f5d240bed47a97a24cf354e4047e25edc2da27b01fd95e5e8a0c9a5826001604051610e839291906138f8565b600061096782611be5565b600b546001600160a01b031681565b601154610100900460ff16156110195760405162461bcd60e51b8152600401610dac90613622565b601180546201000033810262010000600160b01b0319909216919091179182905560405191046001600160a01b0316906000907f8be0079c531659141344cd1fd0a4f28419497f9722a3daafe3b4186f6b6457e0908290a3836001600160a01b03166306fdde036040518163ffffffff1660e01b815260040160006040518083038186803b1580156110aa57600080fd5b505afa1580156110be573d6000803e3d6000fd5b505050506040513d6000823e601f3d908101601f191682016040526110e6919081019061316b565b6040516020016110f69190613276565b6040516020818303038152906040526012908051906020019061111a929190612f32565b50836001600160a01b03166395d89b416040518163ffffffff1660e01b815260040160006040518083038186803b15801561115457600080fd5b505afa158015611168573d6000803e3d6000fd5b505050506040513d6000823e601f3d908101601f19168201604052611190919081019061316b565b6040516020016111a091906132b4565b604051602081830303815290604052601390805190602001906111c4929190612f32565b506011805461ffff1916610100179055600b80546001600160a01b038088166001600160a01b031992831617909255600c8054878416908316179055600d8054868416908316179055600e849055600f805490911673f5bce5077908a1b7370b9ae04adc565ebd64396617905581161561128457601480546001810182556000919091527fce6d7b5282bd9a3661ae061feed1dbda4e52ab073b1f9285be6e155d9c38d4ec0180546001600160a01b0319166001600160a01b0383161790555b61128c61097c565b6112946115fb565b5050505050565b601481815481106112a857fe5b6000918252602090912001546001600160a01b0316905081565b73d533a949740bb3306d119cc777fa900ba034cd5281565b600260065414156112fd5760405162461bcd60e51b8152600401610dac9061382b565b600260065560115460ff16156113255760405162461bcd60e51b8152600401610dac90613744565b81156113df576113358183612339565b600b5461134d906001600160a01b03163330856123ed565b600e546040516321d0683360e11b815273f403c135812408bfbe8713b5a23a04b3d48aae31916343a0d0669161138b91908690600190600401613908565b602060405180830381600087803b1580156113a557600080fd5b505af11580156113b9573d6000803e3d6000fd5b505050506040513d601f19601f820116820180604052508101906113dd919061314b565b505b806001600160a01b0316336001600160a01b03167fb32af138549e2a71563d1f2b1f7f0a139b3cdbc83d877d13603de1c3c5fd487a8460016040516114259291906138f8565b60405180910390a350506001600655565b6001600160a01b031660009081526020819052604090205490565b6011546201000090046001600160a01b031633146114815760405162461bcd60e51b8152600401610dac90613689565b6011546040516000916201000090046001600160a01b0316907f8be0079c531659141344cd1fd0a4f28419497f9722a3daafe3b4186f6b6457e0908390a36011805462010000600160b01b0319169055565b60075481565b600260065414156114fc5760405162461bcd60e51b8152600401610dac9061382b565b600260065560115460ff16156115245760405162461bcd60e51b8152600401610dac90613744565b81156115af576115348183612339565b600c5461154c906001600160a01b03163330856123ed565b600d5460405163534a7e1d60e11b81526001600160a01b039091169063a694fc3a9061157c9085906004016138ef565b600060405180830381600087803b15801561159657600080fd5b505af11580156115aa573d6000803e3d6000fd5b505050505b806001600160a01b0316336001600160a01b03167fb32af138549e2a71563d1f2b1f7f0a139b3cdbc83d877d13603de1c3c5fd487a8460006040516114259291906138f8565b60085481565b600b54611627906001600160a01b031673f403c135812408bfbe8713b5a23a04b3d48aae31600061240e565b600b54611654906001600160a01b031673f403c135812408bfbe8713b5a23a04b3d48aae3160001961240e565b600d54600c54611672916001600160a01b039182169116600061240e565b600d54600c54611691916001600160a01b03918216911660001961240e565b565b6011546201000090046001600160a01b031681565b734e3fbd56cd56c3e72c1403e103b45db9da5b9d2b81565b60138054604080516020601f60026000196101006001881615020190951694909404938401819004810282018101909252828152606093909290918301828280156109455780601f1061091a57610100808354040283529160200191610945565b60096020526000908152604090205481565b6000610963611740612003565b84610d61856040518060600160405280602581526020016139e0602591396001600061176a612003565b6001600160a01b03908116825260208083019390935260409182016000908120918d168152925290205491906121d0565b60145490565b60006109636117ae612003565b84846120bb565b601154610100900460ff1681565b60105490565b60115460ff1681565b604080518082019091526001600160a01b0382168152600060208201526117f8906124d1565b50565b6011546201000090046001600160a01b0316331461182b5760405162461bcd60e51b8152600401610dac90613689565b6001600160a01b0381166118515760405162461bcd60e51b8152600401610dac9061352c565b60005b6014548110156118b057816001600160a01b03166014828154811061187557fe5b6000918252602090912001546001600160a01b031614156118a85760405162461bcd60e51b8152600401610dac906135fb565b600101611854565b50601480546001810182556000919091527fce6d7b5282bd9a3661ae061feed1dbda4e52ab073b1f9285be6e155d9c38d4ec0180546001600160a01b0319166001600160a01b0392909216919091179055565b600d546001600160a01b031681565b6001600160a01b03918216600090815260016020908152604080832093909416825291909152205490565b600061199e60405180604001604052808460006002811061195a57fe5b60200201602081019061196d9190612fe3565b6001600160a01b0316815260209081019061198e9060408701908701612fe3565b6001600160a01b03169052612591565b506001919050565b600e5481565b600a6020526000908152604090205481565b600c546001600160a01b031681565b6011546201000090046001600160a01b031633146119fd5760405162461bcd60e51b8152600401610dac90613689565b6001600160a01b038116611a235760405162461bcd60e51b8152600401610dac906134a4565b6011546040516001600160a01b038084169262010000900416907f8be0079c531659141344cd1fd0a4f28419497f9722a3daafe3b4186f6b6457e090600090a3601180546001600160a01b03909216620100000262010000600160b01b0319909216919091179055565b60108181548110611a9a57fe5b60009182526020909120600590910201805460018201546002909201546001600160a01b0391821693509116906001600160801b0380821691600160801b90041684565b6011546201000090046001600160a01b03163314611b0e5760405162461bcd60e51b8152600401610dac90613689565b6011805460ff19166001179055565b6000611b27610ce3565b905090565b600082821115611b4e5760405162461bcd60e51b8152600401610dac9061358d565b50900390565b600082820183811015610d6a5760405162461bcd60e51b8152600401610dac90613556565b600082611b8857506000610967565b82820282848281611b9557fe5b0414610d6a5760405162461bcd60e51b8152600401610dac90613648565b6000808211611bd45760405162461bcd60e51b8152600401610dac906135c4565b818381611bdd57fe5b049392505050565b60006001600160a01b0382161580611c0a5750600f546001600160a01b038381169116145b15611c17575060006108b4565b601454611c2e57611c2782611436565b90506108b4565b6000805b601454811015611ce95760148181548110611c4957fe5b600091825260209091200154604051631c9e379b60e01b81526001600160a01b0390911690631c9e379b90611c829087906004016132ee565b60206040518083038186803b158015611c9a57600080fd5b505afa925050508015611cca575060408051601f3d908101601f19168201909252611cc79181019061321e565b60015b611cd357611ce1565b611cdd8382611b54565b9250505b600101611c32565b50600f54604051630acc462360e31b81526000916001600160a01b031690635662311890611d1f903090869086906004016133a8565b60206040518083038186803b158015611d3757600080fd5b505afa158015611d4b573d6000803e3d6000fd5b505050506040513d601f19601f82011682018060405250810190611d6f919061321e565b9050611d8481611d7e86611436565b90611b54565b949350505050565b600080734e3fbd56cd56c3e72c1403e103b45db9da5b9d2b6001600160a01b03166318160ddd6040518163ffffffff1660e01b815260040160206040518083038186803b158015611ddc57600080fd5b505afa158015611df0573d6000803e3d6000fd5b505050506040513d601f19601f82011682018060405250810190611e14919061321e565b90506000734e3fbd56cd56c3e72c1403e103b45db9da5b9d2b6001600160a01b031663aa74e6226040518163ffffffff1660e01b815260040160206040518083038186803b158015611e6557600080fd5b505afa158015611e79573d6000803e3d6000fd5b505050506040513d601f19601f82011682018060405250810190611e9d919061321e565b90506000734e3fbd56cd56c3e72c1403e103b45db9da5b9d2b6001600160a01b0316631f96e76f6040518163ffffffff1660e01b815260040160206040518083038186803b158015611eee57600080fd5b505afa158015611f02573d6000803e3d6000fd5b505050506040513d601f19601f82011682018060405250810190611f26919061321e565b90506000734e3fbd56cd56c3e72c1403e103b45db9da5b9d2b6001600160a01b031663d5abeb016040518163ffffffff1660e01b815260040160206040518083038186803b158015611f7757600080fd5b505afa158015611f8b573d6000803e3d6000fd5b505050506040513d601f19601f82011682018060405250810190611faf919061321e565b90506000838581611fbc57fe5b04905082811015611ff6578083038388820281611fd557fe5b04975085830380891115611fe7578098505b889750505050505050506108b4565b5060009695505050505050565b3390565b6001600160a01b03831661202d5760405162461bcd60e51b8152600401610dac90613766565b6001600160a01b0382166120535760405162461bcd60e51b8152600401610dac906134ea565b6001600160a01b0380841660008181526001602090815260408083209487168084529490915290819020849055517f8c5be1e5ebec7d5bd14f71427d1e84f3dd0314c0f7b2291e5b200ac8c7c3b925906120ae9085906138ef565b60405180910390a3505050565b6001600160a01b0383166120e15760405162461bcd60e51b8152600401610dac906136ff565b6001600160a01b0382166121075760405162461bcd60e51b8152600401610dac90613461565b61211283838361266b565b61214f81604051806060016040528060268152602001613992602691396001600160a01b03861660009081526020819052604090205491906121d0565b6001600160a01b03808516600090815260208190526040808220939093559084168152205461217e9082611b54565b6001600160a01b0380841660008181526020819052604090819020939093559151908516907fddf252ad1be2c89b69c2b068fc378daa952ba7f163c4a11628f55a4df523b3ef906120ae9085906138ef565b600081848411156121f45760405162461bcd60e51b8152600401610dac919061342e565b505050900390565b6001600160a01b0382166122225760405162461bcd60e51b8152600401610dac906136be565b61222e8260008361266b565b61226b81604051806060016040528060228152602001613970602291396001600160a01b03851660009081526020819052604090205491906121d0565b6001600160a01b0383166000908152602081905260409020556002546122919082611b2c565b6002556040516000906001600160a01b038416907fddf252ad1be2c89b69c2b068fc378daa952ba7f163c4a11628f55a4df523b3ef906122d29085906138ef565b60405180910390a35050565b6123348363a9059cbb60e01b84846040516024016122fd92919061338f565b60408051601f198184030181529190526020810180516001600160e01b03166001600160e01b031990931692909217909152612692565b505050565b6001600160a01b03821661235f5760405162461bcd60e51b8152600401610dac906138b8565b61236b6000838361266b565b6002546123789082611b54565b6002556001600160a01b03821660009081526020819052604090205461239e9082611b54565b6001600160a01b0383166000818152602081905260408082209390935591519091907fddf252ad1be2c89b69c2b068fc378daa952ba7f163c4a11628f55a4df523b3ef906122d29085906138ef565b610cdd846323b872dd60e01b8585856040516024016122fd93929190613350565b8015806124965750604051636eb1769f60e11b81526001600160a01b0384169063dd62ed3e906124449030908690600401613302565b60206040518083038186803b15801561245c57600080fd5b505afa158015612470573d6000803e3d6000fd5b505050506040513d601f19601f82011682018060405250810190612494919061321e565b155b6124b25760405162461bcd60e51b8152600401610dac90613862565b6123348363095ea7b360e01b84846040516024016122fd92919061338f565b60006124db611b1d565b90506124e5612fb0565b6124f68360005b6020020151611be5565b8152600d54604051637050ccd960e01b81526001600160a01b0390911690637050ccd99061252b903090600190600401613374565b600060405180830381600087803b15801561254557600080fd5b505af1158015612559573d6000803e3d6000fd5b50506010549150600090505b818110156125835761257b818685876001612721565b600101612565565b50610cdd8483856001612b46565b60115460ff16156125a1576117f8565b60006125ab611b1d565b90506125b5612fb0565b6125c08360006124ec565b81526125cd8360016124ec565b6020820152600d54604051637050ccd960e01b81526001600160a01b0390911690637050ccd990612605903090600190600401613374565b600060405180830381600087803b15801561261f57600080fd5b505af1158015612633573d6000803e3d6000fd5b50506010549150600090505b8181101561265d57612655818685876000612721565b60010161263f565b50610cdd8483856000612b46565b604080518082019091526001600160a01b0380851682528316602082015261233490612591565b60606126e7826040518060400160405280602081526020017f5361666545524332303a206c6f772d6c6576656c2063616c6c206661696c6564815250856001600160a01b0316612e329092919063ffffffff16565b8051909150156123345780806020019051810190612705919061314b565b6123345760405162461bcd60e51b8152600401610dac906137e1565b60006010868154811061273057fe5b60009182526020822060059091020180546040516370a0823160e01b81529193506001600160a01b0316906370a082319061276f9030906004016132ee565b60206040518083038186803b15801561278757600080fd5b505afa15801561279b573d6000803e3d6000fd5b505050506040513d601f19601f820116820180604052508101906127bf919061321e565b90506000841180156127f1575060028201546000906127ef908390600160801b90046001600160801b0316611b2c565b115b1561285357600282015461282b90859061073a9068056bc75e2d6310000090610784908690600160801b90046001600160801b0316611b2c565b6002830180546001600160801b031981166001600160801b0391821693909301169190911790555b60005b6002811015612b0457600087826002811061286d57fe5b60200201516001600160a01b0316141561288657612afc565b600f546001600160a01b031687826002811061289e57fe5b60200201516001600160a01b031614156128b757612afc565b60008360030160008984600281106128cb57fe5b60200201516001600160a01b03166001600160a01b03168152602001908152602001600020549050848061290b575060028401546001600160801b031681105b15612afa578415612a235760028401546000906129a59061295f9068056bc75e2d631000009061073a90612948906001600160801b031687611b2c565b8c886002811061295457fe5b602002015190611b79565b8660040160008c876002811061297157fe5b60200201516001600160a01b03166001600160a01b0316815260200190815260200160002054611b5490919063ffffffff16565b90508015612a1d5760008560040160008b86600281106129c157fe5b60200201516001600160a01b03166001600160a01b0316815260200190815260200160002081905550612a108984600281106129f957fe5b602002015186546001600160a01b031690836122de565b612a1a8482611b2c565b93505b50612aac565b6002840154612a7090612a5e9068056bc75e2d631000009061073a90612a52906001600160801b031686611b2c565b8b876002811061295457fe5b8560040160008b866002811061297157fe5b8460040160008a8560028110612a8257fe5b60200201516001600160a01b03166001600160a01b03168152602001908152602001600020819055505b6002808501546001600160801b03169060038601906000908b9086908110612ad057fe5b60200201516001600160a01b03166001600160a01b03168152602001908152602001600020819055505b505b600101612856565b506002820154600160801b90046001600160801b03168114612b3d576002820180546001600160801b03808416600160801b0291161790555b50505050505050565b6040516370a0823160e01b8152600090734e3fbd56cd56c3e72c1403e103b45db9da5b9d2b906370a0823190612b809030906004016132ee565b60206040518083038186803b158015612b9857600080fd5b505afa158015612bac573d6000803e3d6000fd5b505050506040513d601f19601f82011682018060405250810190612bd0919061321e565b90506000612be960085483611b2c90919063ffffffff16565b9050600084118015612bfb5750600081115b15612c2257612c178461073a8368056bc75e2d63100000611b79565b600754016007819055505b60005b6002811015612e1a576000878260028110612c3c57fe5b60200201516001600160a01b03161415612c5557612e12565b600f546001600160a01b0316878260028110612c6d57fe5b60200201516001600160a01b03161415612c8657612e12565b600060096000898460028110612c9857fe5b60200201516001600160a01b03166001600160a01b031681526020019081526020016000205490508480612ccd575060075481105b15612e10576000612d0c612cfc68056bc75e2d6310000061073a61294886600754611b2c90919063ffffffff16565b600a60008c876002811061297157fe5b90508515612d97578015612d92576000600a60008b8660028110612d2c57fe5b60200201516001600160a01b03166001600160a01b0316815260200190815260200160002081905550612d85898460028110612d6457fe5b6020020151734e3fbd56cd56c3e72c1403e103b45db9da5b9d2b90836122de565b612d8f8582611b2c565b94505b612dd2565b80600a60008b8660028110612da857fe5b60200201516001600160a01b03166001600160a01b03168152602001908152602001600020819055505b600754600960008b8660028110612de557fe5b60200201516001600160a01b03166001600160a01b0316815260200190815260200160002081905550505b505b600101612c25565b506008548214612e2a5760088290555b505050505050565b6060611d84848460008585612e4685612edc565b612e625760405162461bcd60e51b8152600401610dac906137aa565b60006060866001600160a01b03168587604051612e7f919061325a565b60006040518083038185875af1925050503d8060008114612ebc576040519150601f19603f3d011682016040523d82523d6000602084013e612ec1565b606091505b5091509150612ed1828286612ee2565b979650505050505050565b3b151590565b60608315612ef1575081610d6a565b825115612f015782518084602001fd5b8160405162461bcd60e51b8152600401610dac919061342e565b604080518082019091526000808252602082015290565b828054600181600116156101000203166002900490600052602060002090601f016020900481019282601f10612f7357805160ff1916838001178555612fa0565b82800160010185558215612fa0579182015b82811115612fa0578251825591602001919060010190612f85565b50612fac929150612fce565b5090565b60405180604001604052806002906020820280368337509192915050565b5b80821115612fac5760008155600101612fcf565b600060208284031215612ff4578081fd5b8135610d6a8161395a565b600060208284031215613010578081fd5b8151610d6a8161395a565b6000806040838503121561302d578081fd5b82356130388161395a565b915060208301356130488161395a565b809150509250929050565b600080600080600060a0868803121561306a578081fd5b85356130758161395a565b945060208601356130858161395a565b935060408601356130958161395a565b92506060860135915060808601356130ac8161395a565b809150509295509295909350565b6000806000606084860312156130ce578283fd5b83356130d98161395a565b925060208401356130e98161395a565b929592945050506040919091013590565b6000806040838503121561310c578182fd5b82356131178161395a565b946020939093013593505050565b600060408284031215613136578081fd5b82604083011115613145578081fd5b50919050565b60006020828403121561315c578081fd5b81518015158114610d6a578182fd5b60006020828403121561317c578081fd5b815167ffffffffffffffff80821115613193578283fd5b818401915084601f8301126131a6578283fd5b8151818111156131b4578384fd5b604051601f8201601f1916810160200183811182821017156131d4578586fd5b6040528181528382016020018710156131eb578485fd5b6131fc82602083016020870161392e565b9695505050505050565b600060208284031215613217578081fd5b5035919050565b60006020828403121561322f578081fd5b5051919050565b60008060408385031215613248578182fd5b8235915060208301356130488161395a565b6000825161326c81846020870161392e565b9190910192915050565b600066029ba30b5b2b2160cd1b8252825161329881600785016020870161392e565b64204162726160d81b6007939091019283015250600c01919050565b60006273746b60e81b825282516132d281600385016020870161392e565b642d6162726160d81b6003939091019283015250600801919050565b6001600160a01b0391909116815260200190565b6001600160a01b0392831681529116602082015260400190565b6001600160a01b0394851681529290931660208301526001600160801b039081166040830152909116606082015260800190565b6001600160a01b039384168152919092166020820152604081019190915260600190565b6001600160a01b039290921682521515602082015260400190565b6001600160a01b03929092168252602082015260400190565b6001600160a01b0393909316835260208301919091521515604082015260600190565b602080825282518282018190526000919060409081850190868401855b8281101561341657815180516001600160a01b031685528601518685015292840192908501906001016133e8565b5091979650505050505050565b901515815260200190565b600060208252825180602084015261344d81604085016020870161392e565b601f01601f19169190910160400192915050565b60208082526023908201527f45524332303a207472616e7366657220746f20746865207a65726f206164647260408201526265737360e81b606082015260800190565b60208082526026908201527f4f776e61626c653a206e6577206f776e657220697320746865207a65726f206160408201526564647265737360d01b606082015260800190565b60208082526022908201527f45524332303a20617070726f766520746f20746865207a65726f206164647265604082015261737360f01b606082015260800190565b60208082526010908201526f34b73b30b634b21031b0bab6323937b760811b604082015260600190565b6020808252601b908201527f536166654d6174683a206164646974696f6e206f766572666c6f770000000000604082015260600190565b6020808252601e908201527f536166654d6174683a207375627472616374696f6e206f766572666c6f770000604082015260600190565b6020808252601a908201527f536166654d6174683a206469766973696f6e206279207a65726f000000000000604082015260600190565b6020808252600d908201526c185b1c9958591e481859191959609a1b604082015260600190565b6020808252600c908201526b185b1c9958591e481a5b9a5d60a21b604082015260600190565b60208082526021908201527f536166654d6174683a206d756c7469706c69636174696f6e206f766572666c6f6040820152607760f81b606082015260800190565b6020808252818101527f4f776e61626c653a2063616c6c6572206973206e6f7420746865206f776e6572604082015260600190565b60208082526021908201527f45524332303a206275726e2066726f6d20746865207a65726f206164647265736040820152607360f81b606082015260800190565b60208082526025908201527f45524332303a207472616e736665722066726f6d20746865207a65726f206164604082015264647265737360d81b606082015260800190565b60208082526008908201526739b43aba3237bbb760c11b604082015260600190565b60208082526024908201527f45524332303a20617070726f76652066726f6d20746865207a65726f206164646040820152637265737360e01b606082015260800190565b6020808252601d908201527f416464726573733a2063616c6c20746f206e6f6e2d636f6e7472616374000000604082015260600190565b6020808252602a908201527f5361666545524332303a204552433230206f7065726174696f6e20646964206e6040820152691bdd081cdd58d8d9595960b21b606082015260800190565b6020808252601f908201527f5265656e7472616e637947756172643a207265656e7472616e742063616c6c00604082015260600190565b60208082526036908201527f5361666545524332303a20617070726f76652066726f6d206e6f6e2d7a65726f60408201527520746f206e6f6e2d7a65726f20616c6c6f77616e636560501b606082015260800190565b6020808252601f908201527f45524332303a206d696e7420746f20746865207a65726f206164647265737300604082015260600190565b90815260200190565b9182521515602082015260400190565b92835260208301919091521515604082015260600190565b60ff91909116815260200190565b60005b83811015613949578181015183820152602001613931565b83811115610cdd5750506000910152565b6001600160a01b03811681146117f857600080fdfe45524332303a206275726e20616d6f756e7420657863656564732062616c616e636545524332303a207472616e7366657220616d6f756e7420657863656564732062616c616e636545524332303a207472616e7366657220616d6f756e74206578636565647320616c6c6f77616e636545524332303a2064656372656173656420616c6c6f77616e63652062656c6f77207a65726fa26469706673582212204408f893dbd56388a73acc33f1792238c0cab5860d2d67c6a73317858360645a64736f6c634300060c0033",
  "devdoc": {
    "kind": "dev",
    "methods": {
      "allowance(address,address)": {
        "details": "See {IERC20-allowance}."
      },
      "approve(address,uint256)": {
        "details": "See {IERC20-approve}. Requirements: - `spender` cannot be the zero address."
      },
      "balanceOf(address)": {
        "details": "See {IERC20-balanceOf}."
      },
      "decimals()": {
        "details": "Returns the number of decimals used to get its user representation. For example, if `decimals` equals `2`, a balance of `505` tokens should be displayed to a user as `5,05` (`505 / 10 ** 2`). Tokens usually opt for a value of 18, imitating the relationship between Ether and Wei. This is the value {ERC20} uses, unless {_setupDecimals} is called. NOTE: This information is only used for _display_ purposes: it in no way affects any of the arithmetic of the contract, including {IERC20-balanceOf} and {IERC20-transfer}."
      },
      "decreaseAllowance(address,uint256)": {
        "details": "Atomically decreases the allowance granted to `spender` by the caller. This is an alternative to {approve} that can be used as a mitigation for problems described in {IERC20-approve}. Emits an {Approval} event indicating the updated allowance. Requirements: - `spender` cannot be the zero address. - `spender` must have allowance for the caller of at least `subtractedValue`."
      },
      "increaseAllowance(address,uint256)": {
        "details": "Atomically increases the allowance granted to `spender` by the caller. This is an alternative to {approve} that can be used as a mitigation for problems described in {IERC20-approve}. Emits an {Approval} event indicating the updated allowance. Requirements: - `spender` cannot be the zero address."
      },
      "name()": {
        "details": "Returns the name of the token."
      },
      "symbol()": {
        "details": "Returns the symbol of the token, usually a shorter version of the name."
      },
      "totalSupply()": {
        "details": "See {IERC20-totalSupply}."
      },
      "transfer(address,uint256)": {
        "details": "See {IERC20-transfer}. Requirements: - `recipient` cannot be the zero address. - the caller must have a balance of at least `amount`."
      },
      "transferFrom(address,address,uint256)": {
        "details": "See {IERC20-transferFrom}. Emits an {Approval} event indicating the updated allowance. This is not required by the EIP. See the note at the beginning of {ERC20}. Requirements: - `sender` and `recipient` cannot be the zero address. - `sender` must have a balance of at least `amount`. - the caller must have allowance for ``sender``'s tokens of at least `amount`."
      }
    },
    "version": 1
  },
  "userdoc": {
    "kind": "user",
    "methods": {},
    "version": 1
  },
  "storageLayout": {
    "storage": [
      {
        "astId": 1179,
        "contract": "contracts/convex/ConvexStakingWrapperAbra.sol:ConvexStakingWrapperAbra",
        "label": "_balances",
        "offset": 0,
        "slot": "0",
        "type": "t_mapping(t_address,t_uint256)"
      },
      {
        "astId": 1185,
        "contract": "contracts/convex/ConvexStakingWrapperAbra.sol:ConvexStakingWrapperAbra",
        "label": "_allowances",
        "offset": 0,
        "slot": "1",
        "type": "t_mapping(t_address,t_mapping(t_address,t_uint256))"
      },
      {
        "astId": 1187,
        "contract": "contracts/convex/ConvexStakingWrapperAbra.sol:ConvexStakingWrapperAbra",
        "label": "_totalSupply",
        "offset": 0,
        "slot": "2",
        "type": "t_uint256"
      },
      {
        "astId": 1189,
        "contract": "contracts/convex/ConvexStakingWrapperAbra.sol:ConvexStakingWrapperAbra",
        "label": "_name",
        "offset": 0,
        "slot": "3",
        "type": "t_string_storage"
      },
      {
        "astId": 1191,
        "contract": "contracts/convex/ConvexStakingWrapperAbra.sol:ConvexStakingWrapperAbra",
        "label": "_symbol",
        "offset": 0,
        "slot": "4",
        "type": "t_string_storage"
      },
      {
        "astId": 1193,
        "contract": "contracts/convex/ConvexStakingWrapperAbra.sol:ConvexStakingWrapperAbra",
        "label": "_decimals",
        "offset": 0,
        "slot": "5",
        "type": "t_uint8"
      },
      {
        "astId": 1674,
        "contract": "contracts/convex/ConvexStakingWrapperAbra.sol:ConvexStakingWrapperAbra",
        "label": "_status",
        "offset": 0,
        "slot": "6",
        "type": "t_uint256"
      },
      {
        "astId": 1740,
        "contract": "contracts/convex/ConvexStakingWrapperAbra.sol:ConvexStakingWrapperAbra",
        "label": "cvx_reward_integral",
        "offset": 0,
        "slot": "7",
        "type": "t_uint256"
      },
      {
        "astId": 1742,
        "contract": "contracts/convex/ConvexStakingWrapperAbra.sol:ConvexStakingWrapperAbra",
        "label": "cvx_reward_remaining",
        "offset": 0,
        "slot": "8",
        "type": "t_uint256"
      },
      {
        "astId": 1746,
        "contract": "contracts/convex/ConvexStakingWrapperAbra.sol:ConvexStakingWrapperAbra",
        "label": "cvx_reward_integral_for",
        "offset": 0,
        "slot": "9",
        "type": "t_mapping(t_address,t_uint256)"
      },
      {
        "astId": 1750,
        "contract": "contracts/convex/ConvexStakingWrapperAbra.sol:ConvexStakingWrapperAbra",
        "label": "cvx_claimable_reward",
        "offset": 0,
        "slot": "10",
        "type": "t_mapping(t_address,t_uint256)"
      },
      {
        "astId": 1770,
        "contract": "contracts/convex/ConvexStakingWrapperAbra.sol:ConvexStakingWrapperAbra",
        "label": "curveToken",
        "offset": 0,
        "slot": "11",
        "type": "t_address"
      },
      {
        "astId": 1772,
        "contract": "contracts/convex/ConvexStakingWrapperAbra.sol:ConvexStakingWrapperAbra",
        "label": "convexToken",
        "offset": 0,
        "slot": "12",
        "type": "t_address"
      },
      {
        "astId": 1774,
        "contract": "contracts/convex/ConvexStakingWrapperAbra.sol:ConvexStakingWrapperAbra",
        "label": "convexPool",
        "offset": 0,
        "slot": "13",
        "type": "t_address"
      },
      {
        "astId": 1776,
        "contract": "contracts/convex/ConvexStakingWrapperAbra.sol:ConvexStakingWrapperAbra",
        "label": "convexPoolId",
        "offset": 0,
        "slot": "14",
        "type": "t_uint256"
      },
      {
        "astId": 1778,
        "contract": "contracts/convex/ConvexStakingWrapperAbra.sol:ConvexStakingWrapperAbra",
        "label": "collateralVault",
        "offset": 0,
        "slot": "15",
        "type": "t_address"
      },
      {
        "astId": 1781,
        "contract": "contracts/convex/ConvexStakingWrapperAbra.sol:ConvexStakingWrapperAbra",
        "label": "rewards",
        "offset": 0,
        "slot": "16",
        "type": "t_array(t_struct(RewardType)1738_storage)dyn_storage"
      },
      {
        "astId": 1783,
        "contract": "contracts/convex/ConvexStakingWrapperAbra.sol:ConvexStakingWrapperAbra",
        "label": "isShutdown",
        "offset": 0,
        "slot": "17",
        "type": "t_bool"
      },
      {
        "astId": 1785,
        "contract": "contracts/convex/ConvexStakingWrapperAbra.sol:ConvexStakingWrapperAbra",
        "label": "isInit",
        "offset": 1,
        "slot": "17",
        "type": "t_bool"
      },
      {
        "astId": 1787,
        "contract": "contracts/convex/ConvexStakingWrapperAbra.sol:ConvexStakingWrapperAbra",
        "label": "owner",
        "offset": 2,
        "slot": "17",
        "type": "t_address"
      },
      {
        "astId": 1789,
        "contract": "contracts/convex/ConvexStakingWrapperAbra.sol:ConvexStakingWrapperAbra",
        "label": "_tokenname",
        "offset": 0,
        "slot": "18",
        "type": "t_string_storage"
      },
      {
        "astId": 1791,
        "contract": "contracts/convex/ConvexStakingWrapperAbra.sol:ConvexStakingWrapperAbra",
        "label": "_tokensymbol",
        "offset": 0,
        "slot": "19",
        "type": "t_string_storage"
      },
      {
        "astId": 3216,
        "contract": "contracts/convex/ConvexStakingWrapperAbra.sol:ConvexStakingWrapperAbra",
        "label": "cauldrons",
        "offset": 0,
        "slot": "20",
        "type": "t_array(t_address)dyn_storage"
      }
    ],
    "types": {
      "t_address": {
        "encoding": "inplace",
        "label": "address",
        "numberOfBytes": "20"
      },
      "t_array(t_address)dyn_storage": {
        "base": "t_address",
        "encoding": "dynamic_array",
        "label": "address[]",
        "numberOfBytes": "32"
      },
      "t_array(t_struct(RewardType)1738_storage)dyn_storage": {
        "base": "t_struct(RewardType)1738_storage",
        "encoding": "dynamic_array",
        "label": "struct ConvexStakingWrapper.RewardType[]",
        "numberOfBytes": "32"
      },
      "t_bool": {
        "encoding": "inplace",
        "label": "bool",
        "numberOfBytes": "1"
      },
      "t_mapping(t_address,t_mapping(t_address,t_uint256))": {
        "encoding": "mapping",
        "key": "t_address",
        "label": "mapping(address => mapping(address => uint256))",
        "numberOfBytes": "32",
        "value": "t_mapping(t_address,t_uint256)"
      },
      "t_mapping(t_address,t_uint256)": {
        "encoding": "mapping",
        "key": "t_address",
        "label": "mapping(address => uint256)",
        "numberOfBytes": "32",
        "value": "t_uint256"
      },
      "t_string_storage": {
        "encoding": "bytes",
        "label": "string",
        "numberOfBytes": "32"
      },
      "t_struct(RewardType)1738_storage": {
        "encoding": "inplace",
        "label": "struct ConvexStakingWrapper.RewardType",
        "members": [
          {
            "astId": 1723,
            "contract": "contracts/convex/ConvexStakingWrapperAbra.sol:ConvexStakingWrapperAbra",
            "label": "reward_token",
            "offset": 0,
            "slot": "0",
            "type": "t_address"
          },
          {
            "astId": 1725,
            "contract": "contracts/convex/ConvexStakingWrapperAbra.sol:ConvexStakingWrapperAbra",
            "label": "reward_pool",
            "offset": 0,
            "slot": "1",
            "type": "t_address"
          },
          {
            "astId": 1727,
            "contract": "contracts/convex/ConvexStakingWrapperAbra.sol:ConvexStakingWrapperAbra",
            "label": "reward_integral",
            "offset": 0,
            "slot": "2",
            "type": "t_uint128"
          },
          {
            "astId": 1729,
            "contract": "contracts/convex/ConvexStakingWrapperAbra.sol:ConvexStakingWrapperAbra",
            "label": "reward_remaining",
            "offset": 16,
            "slot": "2",
            "type": "t_uint128"
          },
          {
            "astId": 1733,
            "contract": "contracts/convex/ConvexStakingWrapperAbra.sol:ConvexStakingWrapperAbra",
            "label": "reward_integral_for",
            "offset": 0,
            "slot": "3",
            "type": "t_mapping(t_address,t_uint256)"
          },
          {
            "astId": 1737,
            "contract": "contracts/convex/ConvexStakingWrapperAbra.sol:ConvexStakingWrapperAbra",
            "label": "claimable_reward",
            "offset": 0,
            "slot": "4",
            "type": "t_mapping(t_address,t_uint256)"
          }
        ],
        "numberOfBytes": "160"
      },
      "t_uint128": {
        "encoding": "inplace",
        "label": "uint128",
        "numberOfBytes": "16"
      },
      "t_uint256": {
        "encoding": "inplace",
        "label": "uint256",
        "numberOfBytes": "32"
      },
      "t_uint8": {
        "encoding": "inplace",
        "label": "uint8",
        "numberOfBytes": "1"
      }
    }
  }
}