{
  "address": "0x0b5E135FfBCd93F1323bdEF45c1bEa5887588dfD",
  "abi": [
    {
      "inputs": [],
      "name": "NotAllowedVoter",
      "type": "error"
    },
    {
      "inputs": [],
      "name": "NotAuthorized",
      "type": "error"
    },
    {
      "inputs": [],
      "name": "NotMagicCRV",
      "type": "error"
    },
    {
      "anonymous": false,
      "inputs": [
        {
          "indexed": true,
          "internalType": "address",
          "name": "previousOwner",
          "type": "address"
        },
        {
          "indexed": true,
          "internalType": "address",
          "name": "newOwner",
          "type": "address"
        }
      ],
      "name": "OwnershipTransferred",
      "type": "event"
    },
    {
      "inputs": [],
      "name": "CRV",
      "outputs": [
        {
          "internalType": "contract ERC20",
          "name": "",
          "type": "address"
        }
      ],
      "stateMutability": "view",
      "type": "function"
    },
    {
      "inputs": [],
      "name": "CRV3",
      "outputs": [
        {
          "internalType": "address",
          "name": "",
          "type": "address"
        }
      ],
      "stateMutability": "view",
      "type": "function"
    },
    {
      "inputs": [],
      "name": "ESCROW",
      "outputs": [
        {
          "internalType": "address",
          "name": "",
          "type": "address"
        }
      ],
      "stateMutability": "view",
      "type": "function"
    },
    {
      "inputs": [],
      "name": "FEE_DISTRIBUTOR",
      "outputs": [
        {
          "internalType": "address",
          "name": "",
          "type": "address"
        }
      ],
      "stateMutability": "view",
      "type": "function"
    },
    {
      "inputs": [],
      "name": "GAUGE_CONTROLLER",
      "outputs": [
        {
          "internalType": "address",
          "name": "",
          "type": "address"
        }
      ],
      "stateMutability": "view",
      "type": "function"
    },
    {
      "inputs": [],
      "name": "MAX_LOCKTIME",
      "outputs": [
        {
          "internalType": "uint256",
          "name": "",
          "type": "uint256"
        }
      ],
      "stateMutability": "view",
      "type": "function"
    },
    {
      "inputs": [],
      "name": "MAX_VOTE_WEIGHT",
      "outputs": [
        {
          "internalType": "uint256",
          "name": "",
          "type": "uint256"
        }
      ],
      "stateMutability": "view",
      "type": "function"
    },
    {
      "inputs": [],
      "name": "MIM_GAUGE",
      "outputs": [
        {
          "internalType": "address",
          "name": "",
          "type": "address"
        }
      ],
      "stateMutability": "view",
      "type": "function"
    },
    {
      "inputs": [
        {
          "internalType": "address",
          "name": "recipient",
          "type": "address"
        }
      ],
      "name": "claim",
      "outputs": [
        {
          "internalType": "uint256",
          "name": "amount",
          "type": "uint256"
        }
      ],
      "stateMutability": "nonpayable",
      "type": "function"
    },
    {
      "inputs": [
        {
          "internalType": "address",
          "name": "recipient",
          "type": "address"
        }
      ],
      "name": "claimAll",
      "outputs": [
        {
          "internalType": "uint256",
          "name": "amount",
          "type": "uint256"
        }
      ],
      "stateMutability": "nonpayable",
      "type": "function"
    },
    {
      "inputs": [
        {
          "internalType": "uint256",
          "name": "value",
          "type": "uint256"
        },
        {
          "internalType": "uint256",
          "name": "unlockTime",
          "type": "uint256"
        }
      ],
      "name": "createLock",
      "outputs": [],
      "stateMutability": "nonpayable",
      "type": "function"
    },
    {
      "inputs": [
        {
          "internalType": "uint256",
          "name": "value",
          "type": "uint256"
        }
      ],
      "name": "createMaxLock",
      "outputs": [],
      "stateMutability": "nonpayable",
      "type": "function"
    },
    {
      "inputs": [],
      "name": "harvester",
      "outputs": [
        {
          "internalType": "address",
          "name": "",
          "type": "address"
        }
      ],
      "stateMutability": "view",
      "type": "function"
    },
    {
      "inputs": [
        {
          "internalType": "uint256",
          "name": "unlockTime",
          "type": "uint256"
        }
      ],
      "name": "increaseLock",
      "outputs": [],
      "stateMutability": "nonpayable",
      "type": "function"
    },
    {
      "inputs": [],
      "name": "increaseMaxLock",
      "outputs": [],
      "stateMutability": "nonpayable",
      "type": "function"
    },
    {
      "inputs": [],
      "name": "lastClaimTimestamp",
      "outputs": [
        {
          "internalType": "uint256",
          "name": "",
          "type": "uint256"
        }
      ],
      "stateMutability": "view",
      "type": "function"
    },
    {
      "inputs": [],
      "name": "lock",
      "outputs": [],
      "stateMutability": "nonpayable",
      "type": "function"
    },
    {
      "inputs": [],
      "name": "magicCRV",
      "outputs": [
        {
          "internalType": "address",
          "name": "",
          "type": "address"
        }
      ],
      "stateMutability": "view",
      "type": "function"
    },
    {
      "inputs": [],
      "name": "owner",
      "outputs": [
        {
          "internalType": "address",
          "name": "",
          "type": "address"
        }
      ],
      "stateMutability": "view",
      "type": "function"
    },
    {
      "inputs": [],
      "name": "release",
      "outputs": [],
      "stateMutability": "nonpayable",
      "type": "function"
    },
    {
      "inputs": [],
      "name": "renounceOwnership",
      "outputs": [],
      "stateMutability": "nonpayable",
      "type": "function"
    },
    {
      "inputs": [
        {
          "internalType": "address",
          "name": "voter",
          "type": "address"
        },
        {
          "internalType": "bool",
          "name": "allowed",
          "type": "bool"
        }
      ],
      "name": "setAllowedVoter",
      "outputs": [],
      "stateMutability": "nonpayable",
      "type": "function"
    },
    {
      "inputs": [
        {
          "internalType": "address",
          "name": "_harvester",
          "type": "address"
        }
      ],
      "name": "setHarvester",
      "outputs": [],
      "stateMutability": "nonpayable",
      "type": "function"
    },
    {
      "inputs": [
        {
          "internalType": "address",
          "name": "_magicCRV",
          "type": "address"
        }
      ],
      "name": "setMagicCRV",
      "outputs": [],
      "stateMutability": "nonpayable",
      "type": "function"
    },
    {
      "inputs": [],
      "name": "totalCRVTokens",
      "outputs": [
        {
          "internalType": "uint256",
          "name": "",
          "type": "uint256"
        }
      ],
      "stateMutability": "view",
      "type": "function"
    },
    {
      "inputs": [
        {
          "internalType": "address",
          "name": "newOwner",
          "type": "address"
        }
      ],
      "name": "transferOwnership",
      "outputs": [],
      "stateMutability": "nonpayable",
      "type": "function"
    },
    {
      "inputs": [
        {
          "internalType": "address",
          "name": "gauge",
          "type": "address"
        },
        {
          "internalType": "uint256",
          "name": "amount",
          "type": "uint256"
        }
      ],
      "name": "voteForGaugeWeights",
      "outputs": [],
      "stateMutability": "nonpayable",
      "type": "function"
    },
    {
      "inputs": [],
      "name": "voteForMaxMIMGaugeWeights",
      "outputs": [],
      "stateMutability": "nonpayable",
      "type": "function"
    },
    {
      "inputs": [
        {
          "internalType": "address",
          "name": "",
          "type": "address"
        }
      ],
      "name": "voters",
      "outputs": [
        {
          "internalType": "bool",
          "name": "",
          "type": "bool"
        }
      ],
      "stateMutability": "view",
      "type": "function"
    },
    {
      "inputs": [
        {
          "internalType": "contract ERC20",
          "name": "token",
          "type": "address"
        },
        {
          "internalType": "address",
          "name": "to",
          "type": "address"
        },
        {
          "internalType": "uint256",
          "name": "amount",
          "type": "uint256"
        }
      ],
      "name": "withdraw",
      "outputs": [],
      "stateMutability": "nonpayable",
      "type": "function"
    }
  ],
  "transactionHash": "0xaa4f47b57d7b12d8a3ddb063098c66629451f82245e221424cd0758ac5d737a6",
  "args": [],
  "solcInputHash": "814b48cc1986245a8038f2694095470d",
  "bytecode": "0x608060405234801561001057600080fd5b5061001a3361001f565b61006f565b600080546001600160a01b038381166001600160a01b0319831681178455604051919092169283917f8be0079c531659141344cd1fd0a4f28419497f9722a3daafe3b4186f6b6457e09190a35050565b6114638061007e6000396000f3fe608060405234801561001057600080fd5b50600436106101da5760003560e01c806377329f3511610104578063c5dd2a1c116100a2578063e681c4aa11610071578063e681c4aa146103f9578063f2fde38b14610414578063f83d08ba14610427578063fab156321461042f57600080fd5b8063c5dd2a1c146103ad578063d2aaae80146103c0578063d9caed12146103d3578063e14cccdf146103e657600080fd5b8063945c9142116100de578063945c914214610331578063a3ec138d1461034c578063ae4a5a9f1461037f578063b52c05fe1461039a57600080fd5b806377329f351461030557806386d1a69f146103185780638da5cb5b1461032057600080fd5b80634bdaeac11161017c578063607af3971161014b578063607af397146102c65780636910dcce146102cf578063715018a6146102ea5780637244d960146102f257600080fd5b80634bdaeac11461028757806350c2d63b1461029a578063510b78d0146102a257806351f3b948146102bd57600080fd5b80631c5a0914116101b85780631c5a09141461023b5780631e83409a1461024e57806322884e2c146102615780633ea527cb1461027c57600080fd5b80631447a73e146101df57806315de1daa1461020f5780631c3ebaeb14610224575b600080fd5b6004546101f2906001600160a01b031681565b6040516001600160a01b0390911681526020015b60405180910390f35b61022261021d36600461124e565b610437565b005b61022d61271081565b604051908152602001610206565b610222610249366004611272565b61048c565b61022d61025c36600461124e565b6104c2565b6101f2732f50d538606fa9edd2b11e2446beb18c9d5846bb81565b61022d630784ce0081565b6005546101f2906001600160a01b031681565b61022261068f565b6101f2736c3f90f043a72fa612cbac8115ee7e52bde6e49081565b61022d60035481565b61022d60025481565b6101f273a464e6dcda8ac41e03616f95f4bc98a13b8922dc81565b61022261075a565b61022261030036600461128b565b610790565b61022d61031336600461124e565b610852565b610222610b3d565b6000546001600160a01b03166101f2565b6101f273d533a949740bb3306d119cc777fa900ba034cd5281565b61036f61035a36600461124e565b60016020526000908152604090205460ff1681565b6040519015158152602001610206565b6101f273d8b712d29381748db89c36bca0138d7c75866ddf81565b6102226103a83660046112b7565b610bb6565b6102226103bb3660046112e7565b610bee565b6102226103ce366004611272565b610c43565b6102226103e1366004611320565b610c84565b6102226103f436600461124e565b610cc7565b6101f2735f3b5dfeb7b28cdbd7faba78963ee202a494e2a281565b61022261042236600461124e565b610d13565b610222610dab565b610222610f6a565b6000546001600160a01b0316331461046a5760405162461bcd60e51b815260040161046190611361565b60405180910390fd5b600580546001600160a01b0319166001600160a01b0392909216919091179055565b6000546001600160a01b031633146104b65760405162461bcd60e51b815260040161046190611361565b6104bf81610fa5565b50565b6005546000906001600160a01b031633146104f05760405163040d77c760e11b815260040160405180910390fd5b6002546105009062093a80611396565b42101561050f57506000919050565b604051630f41a04d60e11b815230600482015273a464e6dcda8ac41e03616f95f4bc98a13b8922dc90631e83409a906024016020604051808303816000875af1158015610560573d6000803e3d6000fd5b505050506040513d601f19601f8201168201806040525081019061058491906113bc565b604051632a2a314b60e01b815230600482015290915073a464e6dcda8ac41e03616f95f4bc98a13b8922dc90632a2a314b90602401602060405180830381865afa1580156105d6573d6000803e3d6000fd5b505050506040513d601f19601f820116820180604052508101906105fa91906113bc565b600255801561068a5760405163a9059cbb60e01b81526001600160a01b038316600482015260248101829052736c3f90f043a72fa612cbac8115ee7e52bde6e4909063a9059cbb906044016020604051808303816000875af1158015610664573d6000803e3d6000fd5b505050506040513d601f19601f8201168201806040525081019061068891906113d5565b505b919050565b3360009081526001602052604090205460ff161580156106ba57506000546001600160a01b03163314155b156106d857604051631729954960e01b815260040160405180910390fd5b604051631ae26c6560e31b815273d8b712d29381748db89c36bca0138d7c75866ddf60048201526127106024820152732f50d538606fa9edd2b11e2446beb18c9d5846bb9063d713632890604401600060405180830381600087803b15801561074057600080fd5b505af1158015610754573d6000803e3d6000fd5b50505050565b6000546001600160a01b031633146107845760405162461bcd60e51b815260040161046190611361565b61078e600061100d565b565b3360009081526001602052604090205460ff161580156107bb57506000546001600160a01b03163314155b156107d957604051631729954960e01b815260040160405180910390fd5b604051631ae26c6560e31b81526001600160a01b038316600482015260248101829052732f50d538606fa9edd2b11e2446beb18c9d5846bb9063d7136328906044015b600060405180830381600087803b15801561083657600080fd5b505af115801561084a573d6000803e3d6000fd5b505050505050565b6005546000906001600160a01b031633146108805760405163040d77c760e11b815260040160405180910390fd5b6002546108909062093a80611396565b42101561089f57506000919050565b60408051610280810182523080825260208201819052818301819052606082018190526080820181905260a0820181905260c0820181905260e08201819052610100820181905261012082018190526101408201819052610160820181905261018082018190526101a082018190526101c082018190526101e0820181905261020082018190526102208201819052610240820181905261026082018190529151637b935a2360e01b815273a464e6dcda8ac41e03616f95f4bc98a13b8922dc91637b935a239161097391906004016113f2565b6020604051808303816000875af1158015610992573d6000803e3d6000fd5b505050506040513d601f19601f820116820180604052508101906109b691906113d5565b50604051632a2a314b60e01b81526001600160a01b038216600482015273a464e6dcda8ac41e03616f95f4bc98a13b8922dc90632a2a314b90602401602060405180830381865afa158015610a0f573d6000803e3d6000fd5b505050506040513d601f19601f82011682018060405250810190610a3391906113bc565b6002556040516370a0823160e01b8152306004820152736c3f90f043a72fa612cbac8115ee7e52bde6e490906370a0823190602401602060405180830381865afa158015610a85573d6000803e3d6000fd5b505050506040513d601f19601f82011682018060405250810190610aa991906113bc565b915081156106885760405163a9059cbb60e01b81526001600160a01b038416600482015260248101839052736c3f90f043a72fa612cbac8115ee7e52bde6e4909063a9059cbb906044016020604051808303816000875af1158015610b12573d6000803e3d6000fd5b505050506040513d601f19601f82011682018060405250810190610b3691906113d5565b5050919050565b6000546001600160a01b03163314610b675760405162461bcd60e51b815260040161046190611361565b735f3b5dfeb7b28cdbd7faba78963ee202a494e2a26001600160a01b0316633ccfd60b6040518163ffffffff1660e01b8152600401600060405180830381600087803b15801561074057600080fd5b6000546001600160a01b03163314610be05760405162461bcd60e51b815260040161046190611361565b610bea828261105d565b5050565b6000546001600160a01b03163314610c185760405162461bcd60e51b815260040161046190611361565b6001600160a01b03919091166000908152600160205260409020805460ff1916911515919091179055565b6000546001600160a01b03163314610c6d5760405162461bcd60e51b815260040161046190611361565b6104bf81610c7f630784ce0042611396565b61105d565b6000546001600160a01b03163314610cae5760405162461bcd60e51b815260040161046190611361565b610cc26001600160a01b0384168383611103565b505050565b6000546001600160a01b03163314610cf15760405162461bcd60e51b815260040161046190611361565b600480546001600160a01b0319166001600160a01b0392909216919091179055565b6000546001600160a01b03163314610d3d5760405162461bcd60e51b815260040161046190611361565b6001600160a01b038116610da25760405162461bcd60e51b815260206004820152602660248201527f4f776e61626c653a206e6577206f776e657220697320746865207a65726f206160448201526564647265737360d01b6064820152608401610461565b6104bf8161100d565b6004546001600160a01b03163314801590610dd157506000546001600160a01b03163314155b8015610de857506005546001600160a01b03163314155b15610e065760405163ea8e4eb560e01b815260040160405180910390fd5b6040516370a0823160e01b815230600482015260009073d533a949740bb3306d119cc777fa900ba034cd52906370a0823190602401602060405180830381865afa158015610e58573d6000803e3d6000fd5b505050506040513d601f19601f82011682018060405250810190610e7c91906113bc565b905080156104bf57610eb873d533a949740bb3306d119cc777fa900ba034cd52735f3b5dfeb7b28cdbd7faba78963ee202a494e2a2600061117c565b610eeb73d533a949740bb3306d119cc777fa900ba034cd52735f3b5dfeb7b28cdbd7faba78963ee202a494e2a28361117c565b604051631255d9df60e21b815260048101829052735f3b5dfeb7b28cdbd7faba78963ee202a494e2a290634957677c90602401600060405180830381600087803b158015610f3857600080fd5b505af1158015610f4c573d6000803e3d6000fd5b505050508060036000828254610f629190611396565b909155505050565b6000546001600160a01b03163314610f945760405162461bcd60e51b815260040161046190611361565b61078e610fa5630784ce0042611396565b6040516377fbd30960e11b815260048101829052735f3b5dfeb7b28cdbd7faba78963ee202a494e2a29063eff7a61290602401600060405180830381600087803b158015610ff257600080fd5b505af1158015611006573d6000803e3d6000fd5b5050505050565b600080546001600160a01b038381166001600160a01b0319831681178455604051919092169283917f8be0079c531659141344cd1fd0a4f28419497f9722a3daafe3b4186f6b6457e09190a35050565b61109173d533a949740bb3306d119cc777fa900ba034cd52735f3b5dfeb7b28cdbd7faba78963ee202a494e2a2600061117c565b6110c473d533a949740bb3306d119cc777fa900ba034cd52735f3b5dfeb7b28cdbd7faba78963ee202a494e2a28461117c565b6040516365fc387360e01b81526004810183905260248101829052735f3b5dfeb7b28cdbd7faba78963ee202a494e2a2906365fc38739060440161081c565b600060405163a9059cbb60e01b81526001600160a01b03841660048201528260248201526000806044836000895af191505061113e816111f4565b6107545760405162461bcd60e51b815260206004820152600f60248201526e1514905394d1915497d19052531151608a1b6044820152606401610461565b600060405163095ea7b360e01b81526001600160a01b03841660048201528260248201526000806044836000895af19150506111b7816111f4565b6107545760405162461bcd60e51b815260206004820152600e60248201526d1054141493d59157d1905253115160921b6044820152606401610461565b60003d8261120657806000803e806000fd5b806020811461121e57801561122f5760009250610b36565b816000803e60005115159250610b36565b5060019392505050565b6001600160a01b03811681146104bf57600080fd5b60006020828403121561126057600080fd5b813561126b81611239565b9392505050565b60006020828403121561128457600080fd5b5035919050565b6000806040838503121561129e57600080fd5b82356112a981611239565b946020939093013593505050565b600080604083850312156112ca57600080fd5b50508035926020909101359150565b80151581146104bf57600080fd5b600080604083850312156112fa57600080fd5b823561130581611239565b91506020830135611315816112d9565b809150509250929050565b60008060006060848603121561133557600080fd5b833561134081611239565b9250602084013561135081611239565b929592945050506040919091013590565b6020808252818101527f4f776e61626c653a2063616c6c6572206973206e6f7420746865206f776e6572604082015260600190565b600082198211156113b757634e487b7160e01b600052601160045260246000fd5b500190565b6000602082840312156113ce57600080fd5b5051919050565b6000602082840312156113e757600080fd5b815161126b816112d9565b6102808101818360005b60148110156114245781516001600160a01b03168352602092830192909101906001016113fc565b5050509291505056fea2646970667358221220ada6244e385a216c989d12920cf7897066eb1513549da01e571fe92dfbffac0664736f6c634300080a0033",
  "devdoc": {
    "kind": "dev",
    "methods": {
      "owner()": {
        "details": "Returns the address of the current owner."
      },
      "renounceOwnership()": {
        "details": "Leaves the contract without owner. It will not be possible to call `onlyOwner` functions anymore. Can only be called by the current owner. NOTE: Renouncing ownership will leave the contract without an owner, thereby removing any functionality that is only available to the owner."
      },
      "transferOwnership(address)": {
        "details": "Transfers ownership of the contract to a new account (`newOwner`). Can only be called by the current owner."
      }
    },
    "version": 1
  },
  "userdoc": {
    "kind": "user",
    "methods": {
      "createMaxLock(uint256)": {
        "notice": "creates a 4 years lock"
      },
      "increaseMaxLock()": {
        "notice": "extend to 4 years lock"
      },
      "lock()": {
        "notice": "add amount to the current lock created with `createLock` or `createMaxLock`"
      },
      "voteForGaugeWeights(address,uint256)": {
        "notice": "amount 10000 = 100%"
      }
    },
    "version": 1
  },
  "storageLayout": {
    "storage": [
      {
        "astId": 7,
        "contract": "contracts/magic-crv/CurveVoter.sol:CurveVoter",
        "label": "_owner",
        "offset": 0,
        "slot": "0",
        "type": "t_address"
      },
      {
        "astId": 6849,
        "contract": "contracts/magic-crv/CurveVoter.sol:CurveVoter",
        "label": "voters",
        "offset": 0,
        "slot": "1",
        "type": "t_mapping(t_address,t_bool)"
      },
      {
        "astId": 6851,
        "contract": "contracts/magic-crv/CurveVoter.sol:CurveVoter",
        "label": "lastClaimTimestamp",
        "offset": 0,
        "slot": "2",
        "type": "t_uint256"
      },
      {
        "astId": 6853,
        "contract": "contracts/magic-crv/CurveVoter.sol:CurveVoter",
        "label": "totalCRVTokens",
        "offset": 0,
        "slot": "3",
        "type": "t_uint256"
      },
      {
        "astId": 6855,
        "contract": "contracts/magic-crv/CurveVoter.sol:CurveVoter",
        "label": "magicCRV",
        "offset": 0,
        "slot": "4",
        "type": "t_address"
      },
      {
        "astId": 6857,
        "contract": "contracts/magic-crv/CurveVoter.sol:CurveVoter",
        "label": "harvester",
        "offset": 0,
        "slot": "5",
        "type": "t_address"
      }
    ],
    "types": {
      "t_address": {
        "encoding": "inplace",
        "label": "address",
        "numberOfBytes": "20"
      },
      "t_bool": {
        "encoding": "inplace",
        "label": "bool",
        "numberOfBytes": "1"
      },
      "t_mapping(t_address,t_bool)": {
        "encoding": "mapping",
        "key": "t_address",
        "label": "mapping(address => bool)",
        "numberOfBytes": "32",
        "value": "t_bool"
      },
      "t_uint256": {
        "encoding": "inplace",
        "label": "uint256",
        "numberOfBytes": "32"
      }
    }
  }
}