{
  "address": "0xAC6C439253987Be9aFF6AaC047EC8501eA13d512",
  "abi": [
    {
      "inputs": [],
      "name": "NotAllowedVoter",
      "type": "error"
    },
    {
      "inputs": [],
      "name": "NotAuthorized",
      "type": "error"
    },
    {
      "inputs": [],
      "name": "NotMagicCRV",
      "type": "error"
    },
    {
      "anonymous": false,
      "inputs": [
        {
          "indexed": true,
          "internalType": "address",
          "name": "previousOwner",
          "type": "address"
        },
        {
          "indexed": true,
          "internalType": "address",
          "name": "newOwner",
          "type": "address"
        }
      ],
      "name": "OwnershipTransferred",
      "type": "event"
    },
    {
      "inputs": [],
      "name": "CRV",
      "outputs": [
        {
          "internalType": "contract ERC20",
          "name": "",
          "type": "address"
        }
      ],
      "stateMutability": "view",
      "type": "function"
    },
    {
      "inputs": [],
      "name": "CRV3",
      "outputs": [
        {
          "internalType": "address",
          "name": "",
          "type": "address"
        }
      ],
      "stateMutability": "view",
      "type": "function"
    },
    {
      "inputs": [],
      "name": "ESCROW",
      "outputs": [
        {
          "internalType": "address",
          "name": "",
          "type": "address"
        }
      ],
      "stateMutability": "view",
      "type": "function"
    },
    {
      "inputs": [],
      "name": "FEE_DISTRIBUTOR",
      "outputs": [
        {
          "internalType": "address",
          "name": "",
          "type": "address"
        }
      ],
      "stateMutability": "view",
      "type": "function"
    },
    {
      "inputs": [],
      "name": "GAUGE_CONTROLLER",
      "outputs": [
        {
          "internalType": "address",
          "name": "",
          "type": "address"
        }
      ],
      "stateMutability": "view",
      "type": "function"
    },
    {
      "inputs": [],
      "name": "MAX_LOCKTIME",
      "outputs": [
        {
          "internalType": "uint256",
          "name": "",
          "type": "uint256"
        }
      ],
      "stateMutability": "view",
      "type": "function"
    },
    {
      "inputs": [],
      "name": "MAX_VOTE_WEIGHT",
      "outputs": [
        {
          "internalType": "uint256",
          "name": "",
          "type": "uint256"
        }
      ],
      "stateMutability": "view",
      "type": "function"
    },
    {
      "inputs": [],
      "name": "MIM_GAUGE",
      "outputs": [
        {
          "internalType": "address",
          "name": "",
          "type": "address"
        }
      ],
      "stateMutability": "view",
      "type": "function"
    },
    {
      "inputs": [
        {
          "internalType": "address",
          "name": "recipient",
          "type": "address"
        }
      ],
      "name": "claim",
      "outputs": [
        {
          "internalType": "uint256",
          "name": "amount",
          "type": "uint256"
        }
      ],
      "stateMutability": "nonpayable",
      "type": "function"
    },
    {
      "inputs": [
        {
          "internalType": "uint256",
          "name": "value",
          "type": "uint256"
        },
        {
          "internalType": "uint256",
          "name": "unlockTime",
          "type": "uint256"
        }
      ],
      "name": "createLock",
      "outputs": [],
      "stateMutability": "nonpayable",
      "type": "function"
    },
    {
      "inputs": [
        {
          "internalType": "uint256",
          "name": "value",
          "type": "uint256"
        }
      ],
      "name": "createMaxLock",
      "outputs": [],
      "stateMutability": "nonpayable",
      "type": "function"
    },
    {
      "inputs": [],
      "name": "harvester",
      "outputs": [
        {
          "internalType": "address",
          "name": "",
          "type": "address"
        }
      ],
      "stateMutability": "view",
      "type": "function"
    },
    {
      "inputs": [
        {
          "internalType": "uint256",
          "name": "unlockTime",
          "type": "uint256"
        }
      ],
      "name": "increaseLock",
      "outputs": [],
      "stateMutability": "nonpayable",
      "type": "function"
    },
    {
      "inputs": [],
      "name": "increaseMaxLock",
      "outputs": [],
      "stateMutability": "nonpayable",
      "type": "function"
    },
    {
      "inputs": [],
      "name": "lastClaimTimestamp",
      "outputs": [
        {
          "internalType": "uint256",
          "name": "",
          "type": "uint256"
        }
      ],
      "stateMutability": "view",
      "type": "function"
    },
    {
      "inputs": [],
      "name": "lock",
      "outputs": [],
      "stateMutability": "nonpayable",
      "type": "function"
    },
    {
      "inputs": [],
      "name": "magicCRV",
      "outputs": [
        {
          "internalType": "address",
          "name": "",
          "type": "address"
        }
      ],
      "stateMutability": "view",
      "type": "function"
    },
    {
      "inputs": [],
      "name": "owner",
      "outputs": [
        {
          "internalType": "address",
          "name": "",
          "type": "address"
        }
      ],
      "stateMutability": "view",
      "type": "function"
    },
    {
      "inputs": [],
      "name": "release",
      "outputs": [],
      "stateMutability": "nonpayable",
      "type": "function"
    },
    {
      "inputs": [],
      "name": "renounceOwnership",
      "outputs": [],
      "stateMutability": "nonpayable",
      "type": "function"
    },
    {
      "inputs": [
        {
          "internalType": "address",
          "name": "voter",
          "type": "address"
        },
        {
          "internalType": "bool",
          "name": "allowed",
          "type": "bool"
        }
      ],
      "name": "setAllowedVoter",
      "outputs": [],
      "stateMutability": "nonpayable",
      "type": "function"
    },
    {
      "inputs": [
        {
          "internalType": "address",
          "name": "_harvester",
          "type": "address"
        }
      ],
      "name": "setHarvester",
      "outputs": [],
      "stateMutability": "nonpayable",
      "type": "function"
    },
    {
      "inputs": [
        {
          "internalType": "address",
          "name": "_magicCRV",
          "type": "address"
        }
      ],
      "name": "setMagicCRV",
      "outputs": [],
      "stateMutability": "nonpayable",
      "type": "function"
    },
    {
      "inputs": [],
      "name": "totalCRVTokens",
      "outputs": [
        {
          "internalType": "uint256",
          "name": "",
          "type": "uint256"
        }
      ],
      "stateMutability": "view",
      "type": "function"
    },
    {
      "inputs": [
        {
          "internalType": "address",
          "name": "newOwner",
          "type": "address"
        }
      ],
      "name": "transferOwnership",
      "outputs": [],
      "stateMutability": "nonpayable",
      "type": "function"
    },
    {
      "inputs": [
        {
          "internalType": "address",
          "name": "gauge",
          "type": "address"
        },
        {
          "internalType": "uint256",
          "name": "amount",
          "type": "uint256"
        }
      ],
      "name": "voteForGaugeWeights",
      "outputs": [],
      "stateMutability": "nonpayable",
      "type": "function"
    },
    {
      "inputs": [],
      "name": "voteForMaxMIMGaugeWeights",
      "outputs": [],
      "stateMutability": "nonpayable",
      "type": "function"
    },
    {
      "inputs": [
        {
          "internalType": "address",
          "name": "",
          "type": "address"
        }
      ],
      "name": "voters",
      "outputs": [
        {
          "internalType": "bool",
          "name": "",
          "type": "bool"
        }
      ],
      "stateMutability": "view",
      "type": "function"
    },
    {
      "inputs": [
        {
          "internalType": "contract ERC20",
          "name": "token",
          "type": "address"
        },
        {
          "internalType": "address",
          "name": "to",
          "type": "address"
        },
        {
          "internalType": "uint256",
          "name": "amount",
          "type": "uint256"
        }
      ],
      "name": "withdraw",
      "outputs": [],
      "stateMutability": "nonpayable",
      "type": "function"
    }
  ],
  "transactionHash": "0xe069b88ac93d8809d065a9c978e128b4706864d24d63fd63c88d22571aaa300e",
  "args": [],
  "solcInputHash": "3aeb032b067c836109c1d5b08c725c38",
  "bytecode": "0x608060405234801561001057600080fd5b5061001a3361001f565b61006f565b600080546001600160a01b038381166001600160a01b0319831681178455604051919092169283917f8be0079c531659141344cd1fd0a4f28419497f9722a3daafe3b4186f6b6457e09190a35050565b6112798061007e6000396000f3fe608060405234801561001057600080fd5b50600436106101cf5760003560e01c80637244d96011610104578063c5dd2a1c116100a2578063e681c4aa11610071578063e681c4aa146103db578063f2fde38b146103f6578063f83d08ba14610409578063fab156321461041157600080fd5b8063c5dd2a1c1461038f578063d2aaae80146103a2578063d9caed12146103b5578063e14cccdf146103c857600080fd5b8063945c9142116100de578063945c914214610313578063a3ec138d1461032e578063ae4a5a9f14610361578063b52c05fe1461037c57600080fd5b80637244d960146102e757806386d1a69f146102fa5780638da5cb5b1461030257600080fd5b80634bdaeac11161017157806351f3b9481161014b57806351f3b948146102b2578063607af397146102bb5780636910dcce146102c4578063715018a6146102df57600080fd5b80634bdaeac11461027c57806350c2d63b1461028f578063510b78d01461029757600080fd5b80631c5a0914116101ad5780631c5a0914146102305780631e83409a1461024357806322884e2c146102565780633ea527cb1461027157600080fd5b80631447a73e146101d457806315de1daa146102045780631c3ebaeb14610219575b600080fd5b6004546101e7906001600160a01b031681565b6040516001600160a01b0390911681526020015b60405180910390f35b610217610212366004611064565b610419565b005b61022261271081565b6040519081526020016101fb565b61021761023e366004611088565b61046e565b610222610251366004611064565b6104a4565b6101e7732f50d538606fa9edd2b11e2446beb18c9d5846bb81565b610222630784ce0081565b6005546101e7906001600160a01b031681565b610217610790565b6101e7736c3f90f043a72fa612cbac8115ee7e52bde6e49081565b61022260035481565b61022260025481565b6101e773a464e6dcda8ac41e03616f95f4bc98a13b8922dc81565b61021761085b565b6102176102f53660046110a1565b610891565b610217610953565b6000546001600160a01b03166101e7565b6101e773d533a949740bb3306d119cc777fa900ba034cd5281565b61035161033c366004611064565b60016020526000908152604090205460ff1681565b60405190151581526020016101fb565b6101e773d8b712d29381748db89c36bca0138d7c75866ddf81565b61021761038a3660046110cd565b6109cc565b61021761039d3660046110fd565b610a04565b6102176103b0366004611088565b610a59565b6102176103c3366004611136565b610a9a565b6102176103d6366004611064565b610add565b6101e7735f3b5dfeb7b28cdbd7faba78963ee202a494e2a281565b610217610404366004611064565b610b29565b610217610bc1565b610217610d80565b6000546001600160a01b0316331461044c5760405162461bcd60e51b815260040161044390611177565b60405180910390fd5b600580546001600160a01b0319166001600160a01b0392909216919091179055565b6000546001600160a01b031633146104985760405162461bcd60e51b815260040161044390611177565b6104a181610dbb565b50565b6005546000906001600160a01b031633146104d25760405163040d77c760e11b815260040160405180910390fd5b6002546104e29062093a806111ac565b4210156104f157506000919050565b60408051610280810182523080825260208201819052818301819052606082018190526080820181905260a0820181905260c0820181905260e08201819052610100820181905261012082018190526101408201819052610160820181905261018082018190526101a082018190526101c082018190526101e0820181905261020082018190526102208201819052610240820181905261026082018190529151637b935a2360e01b815273a464e6dcda8ac41e03616f95f4bc98a13b8922dc91637b935a23916105c591906004016111d2565b6020604051808303816000875af11580156105e4573d6000803e3d6000fd5b505050506040513d601f19601f82011682018060405250810190610608919061120d565b50604051632a2a314b60e01b81526001600160a01b038216600482015273a464e6dcda8ac41e03616f95f4bc98a13b8922dc90632a2a314b90602401602060405180830381865afa158015610661573d6000803e3d6000fd5b505050506040513d601f19601f82011682018060405250810190610685919061122a565b6002556040516370a0823160e01b8152306004820152736c3f90f043a72fa612cbac8115ee7e52bde6e490906370a0823190602401602060405180830381865afa1580156106d7573d6000803e3d6000fd5b505050506040513d601f19601f820116820180604052508101906106fb919061122a565b9150811561078a5760405163a9059cbb60e01b81526001600160a01b038416600482015260248101839052736c3f90f043a72fa612cbac8115ee7e52bde6e4909063a9059cbb906044016020604051808303816000875af1158015610764573d6000803e3d6000fd5b505050506040513d601f19601f82011682018060405250810190610788919061120d565b505b50919050565b3360009081526001602052604090205460ff161580156107bb57506000546001600160a01b03163314155b156107d957604051631729954960e01b815260040160405180910390fd5b604051631ae26c6560e31b815273d8b712d29381748db89c36bca0138d7c75866ddf60048201526127106024820152732f50d538606fa9edd2b11e2446beb18c9d5846bb9063d713632890604401600060405180830381600087803b15801561084157600080fd5b505af1158015610855573d6000803e3d6000fd5b50505050565b6000546001600160a01b031633146108855760405162461bcd60e51b815260040161044390611177565b61088f6000610e23565b565b3360009081526001602052604090205460ff161580156108bc57506000546001600160a01b03163314155b156108da57604051631729954960e01b815260040160405180910390fd5b604051631ae26c6560e31b81526001600160a01b038316600482015260248101829052732f50d538606fa9edd2b11e2446beb18c9d5846bb9063d7136328906044015b600060405180830381600087803b15801561093757600080fd5b505af115801561094b573d6000803e3d6000fd5b505050505050565b6000546001600160a01b0316331461097d5760405162461bcd60e51b815260040161044390611177565b735f3b5dfeb7b28cdbd7faba78963ee202a494e2a26001600160a01b0316633ccfd60b6040518163ffffffff1660e01b8152600401600060405180830381600087803b15801561084157600080fd5b6000546001600160a01b031633146109f65760405162461bcd60e51b815260040161044390611177565b610a008282610e73565b5050565b6000546001600160a01b03163314610a2e5760405162461bcd60e51b815260040161044390611177565b6001600160a01b03919091166000908152600160205260409020805460ff1916911515919091179055565b6000546001600160a01b03163314610a835760405162461bcd60e51b815260040161044390611177565b6104a181610a95630784ce00426111ac565b610e73565b6000546001600160a01b03163314610ac45760405162461bcd60e51b815260040161044390611177565b610ad86001600160a01b0384168383610f19565b505050565b6000546001600160a01b03163314610b075760405162461bcd60e51b815260040161044390611177565b600480546001600160a01b0319166001600160a01b0392909216919091179055565b6000546001600160a01b03163314610b535760405162461bcd60e51b815260040161044390611177565b6001600160a01b038116610bb85760405162461bcd60e51b815260206004820152602660248201527f4f776e61626c653a206e6577206f776e657220697320746865207a65726f206160448201526564647265737360d01b6064820152608401610443565b6104a181610e23565b6004546001600160a01b03163314801590610be757506000546001600160a01b03163314155b8015610bfe57506005546001600160a01b03163314155b15610c1c5760405163ea8e4eb560e01b815260040160405180910390fd5b6040516370a0823160e01b815230600482015260009073d533a949740bb3306d119cc777fa900ba034cd52906370a0823190602401602060405180830381865afa158015610c6e573d6000803e3d6000fd5b505050506040513d601f19601f82011682018060405250810190610c92919061122a565b905080156104a157610cce73d533a949740bb3306d119cc777fa900ba034cd52735f3b5dfeb7b28cdbd7faba78963ee202a494e2a26000610f92565b610d0173d533a949740bb3306d119cc777fa900ba034cd52735f3b5dfeb7b28cdbd7faba78963ee202a494e2a283610f92565b604051631255d9df60e21b815260048101829052735f3b5dfeb7b28cdbd7faba78963ee202a494e2a290634957677c90602401600060405180830381600087803b158015610d4e57600080fd5b505af1158015610d62573d6000803e3d6000fd5b505050508060036000828254610d7891906111ac565b909155505050565b6000546001600160a01b03163314610daa5760405162461bcd60e51b815260040161044390611177565b61088f610dbb630784ce00426111ac565b6040516377fbd30960e11b815260048101829052735f3b5dfeb7b28cdbd7faba78963ee202a494e2a29063eff7a61290602401600060405180830381600087803b158015610e0857600080fd5b505af1158015610e1c573d6000803e3d6000fd5b5050505050565b600080546001600160a01b038381166001600160a01b0319831681178455604051919092169283917f8be0079c531659141344cd1fd0a4f28419497f9722a3daafe3b4186f6b6457e09190a35050565b610ea773d533a949740bb3306d119cc777fa900ba034cd52735f3b5dfeb7b28cdbd7faba78963ee202a494e2a26000610f92565b610eda73d533a949740bb3306d119cc777fa900ba034cd52735f3b5dfeb7b28cdbd7faba78963ee202a494e2a284610f92565b6040516365fc387360e01b81526004810183905260248101829052735f3b5dfeb7b28cdbd7faba78963ee202a494e2a2906365fc38739060440161091d565b600060405163a9059cbb60e01b81526001600160a01b03841660048201528260248201526000806044836000895af1915050610f548161100a565b6108555760405162461bcd60e51b815260206004820152600f60248201526e1514905394d1915497d19052531151608a1b6044820152606401610443565b600060405163095ea7b360e01b81526001600160a01b03841660048201528260248201526000806044836000895af1915050610fcd8161100a565b6108555760405162461bcd60e51b815260206004820152600e60248201526d1054141493d59157d1905253115160921b6044820152606401610443565b60003d8261101c57806000803e806000fd5b80602081146110345780156110455760009250610788565b816000803e60005115159250610788565b5060019392505050565b6001600160a01b03811681146104a157600080fd5b60006020828403121561107657600080fd5b81356110818161104f565b9392505050565b60006020828403121561109a57600080fd5b5035919050565b600080604083850312156110b457600080fd5b82356110bf8161104f565b946020939093013593505050565b600080604083850312156110e057600080fd5b50508035926020909101359150565b80151581146104a157600080fd5b6000806040838503121561111057600080fd5b823561111b8161104f565b9150602083013561112b816110ef565b809150509250929050565b60008060006060848603121561114b57600080fd5b83356111568161104f565b925060208401356111668161104f565b929592945050506040919091013590565b6020808252818101527f4f776e61626c653a2063616c6c6572206973206e6f7420746865206f776e6572604082015260600190565b600082198211156111cd57634e487b7160e01b600052601160045260246000fd5b500190565b6102808101818360005b60148110156112045781516001600160a01b03168352602092830192909101906001016111dc565b50505092915050565b60006020828403121561121f57600080fd5b8151611081816110ef565b60006020828403121561123c57600080fd5b505191905056fea2646970667358221220d1190ad67e0bf45e6f2e6e5a1c69d04743400fdb6f2d53f4ff82b235013643ba64736f6c634300080a0033",
  "devdoc": {
    "kind": "dev",
    "methods": {
      "owner()": {
        "details": "Returns the address of the current owner."
      },
      "renounceOwnership()": {
        "details": "Leaves the contract without owner. It will not be possible to call `onlyOwner` functions anymore. Can only be called by the current owner. NOTE: Renouncing ownership will leave the contract without an owner, thereby removing any functionality that is only available to the owner."
      },
      "transferOwnership(address)": {
        "details": "Transfers ownership of the contract to a new account (`newOwner`). Can only be called by the current owner."
      }
    },
    "version": 1
  },
  "userdoc": {
    "kind": "user",
    "methods": {
      "createMaxLock(uint256)": {
        "notice": "creates a 4 years lock"
      },
      "increaseMaxLock()": {
        "notice": "extend to 4 years lock"
      },
      "lock()": {
        "notice": "add amount to the current lock created with `createLock` or `createMaxLock`"
      },
      "voteForGaugeWeights(address,uint256)": {
        "notice": "amount 10000 = 100%"
      }
    },
    "version": 1
  },
  "storageLayout": {
    "storage": [
      {
        "astId": 7,
        "contract": "contracts/magic-crv/CurveVoter.sol:CurveVoter",
        "label": "_owner",
        "offset": 0,
        "slot": "0",
        "type": "t_address"
      },
      {
        "astId": 6754,
        "contract": "contracts/magic-crv/CurveVoter.sol:CurveVoter",
        "label": "voters",
        "offset": 0,
        "slot": "1",
        "type": "t_mapping(t_address,t_bool)"
      },
      {
        "astId": 6756,
        "contract": "contracts/magic-crv/CurveVoter.sol:CurveVoter",
        "label": "lastClaimTimestamp",
        "offset": 0,
        "slot": "2",
        "type": "t_uint256"
      },
      {
        "astId": 6758,
        "contract": "contracts/magic-crv/CurveVoter.sol:CurveVoter",
        "label": "totalCRVTokens",
        "offset": 0,
        "slot": "3",
        "type": "t_uint256"
      },
      {
        "astId": 6760,
        "contract": "contracts/magic-crv/CurveVoter.sol:CurveVoter",
        "label": "magicCRV",
        "offset": 0,
        "slot": "4",
        "type": "t_address"
      },
      {
        "astId": 6762,
        "contract": "contracts/magic-crv/CurveVoter.sol:CurveVoter",
        "label": "harvester",
        "offset": 0,
        "slot": "5",
        "type": "t_address"
      }
    ],
    "types": {
      "t_address": {
        "encoding": "inplace",
        "label": "address",
        "numberOfBytes": "20"
      },
      "t_bool": {
        "encoding": "inplace",
        "label": "bool",
        "numberOfBytes": "1"
      },
      "t_mapping(t_address,t_bool)": {
        "encoding": "mapping",
        "key": "t_address",
        "label": "mapping(address => bool)",
        "numberOfBytes": "32",
        "value": "t_bool"
      },
      "t_uint256": {
        "encoding": "inplace",
        "label": "uint256",
        "numberOfBytes": "32"
      }
    }
  }
}