{
  "address": "0x129149DC63F5778a41f619Bb36212566ac54eA45",
  "abi": [
    {
      "inputs": [],
      "name": "NotAllowedVoter",
      "type": "error"
    },
    {
      "inputs": [],
      "name": "NotAuthorized",
      "type": "error"
    },
    {
      "inputs": [],
      "name": "NotMagicCRV",
      "type": "error"
    },
    {
      "anonymous": false,
      "inputs": [
        {
          "indexed": false,
          "internalType": "address",
          "name": "voter",
          "type": "address"
        },
        {
          "indexed": false,
          "internalType": "bool",
          "name": "allowed",
          "type": "bool"
        }
      ],
      "name": "LogAllowedVoterChanged",
      "type": "event"
    },
    {
      "anonymous": false,
      "inputs": [
        {
          "indexed": false,
          "internalType": "address",
          "name": "harvester",
          "type": "address"
        }
      ],
      "name": "LogHarvesterChangeed",
      "type": "event"
    },
    {
      "anonymous": false,
      "inputs": [
        {
          "indexed": false,
          "internalType": "address",
          "name": "magicCRV",
          "type": "address"
        }
      ],
      "name": "LogMagicCRVChanged",
      "type": "event"
    },
    {
      "anonymous": false,
      "inputs": [
        {
          "indexed": true,
          "internalType": "address",
          "name": "previousOwner",
          "type": "address"
        },
        {
          "indexed": true,
          "internalType": "address",
          "name": "newOwner",
          "type": "address"
        }
      ],
      "name": "OwnershipTransferred",
      "type": "event"
    },
    {
      "inputs": [],
      "name": "CRV",
      "outputs": [
        {
          "internalType": "contract ERC20",
          "name": "",
          "type": "address"
        }
      ],
      "stateMutability": "view",
      "type": "function"
    },
    {
      "inputs": [],
      "name": "CRV3",
      "outputs": [
        {
          "internalType": "address",
          "name": "",
          "type": "address"
        }
      ],
      "stateMutability": "view",
      "type": "function"
    },
    {
      "inputs": [],
      "name": "ESCROW",
      "outputs": [
        {
          "internalType": "address",
          "name": "",
          "type": "address"
        }
      ],
      "stateMutability": "view",
      "type": "function"
    },
    {
      "inputs": [],
      "name": "FEE_DISTRIBUTOR",
      "outputs": [
        {
          "internalType": "address",
          "name": "",
          "type": "address"
        }
      ],
      "stateMutability": "view",
      "type": "function"
    },
    {
      "inputs": [],
      "name": "GAUGE_CONTROLLER",
      "outputs": [
        {
          "internalType": "address",
          "name": "",
          "type": "address"
        }
      ],
      "stateMutability": "view",
      "type": "function"
    },
    {
      "inputs": [],
      "name": "MAX_LOCKTIME",
      "outputs": [
        {
          "internalType": "uint256",
          "name": "",
          "type": "uint256"
        }
      ],
      "stateMutability": "view",
      "type": "function"
    },
    {
      "inputs": [],
      "name": "MAX_VOTE_WEIGHT",
      "outputs": [
        {
          "internalType": "uint256",
          "name": "",
          "type": "uint256"
        }
      ],
      "stateMutability": "view",
      "type": "function"
    },
    {
      "inputs": [],
      "name": "MIM_GAUGE",
      "outputs": [
        {
          "internalType": "address",
          "name": "",
          "type": "address"
        }
      ],
      "stateMutability": "view",
      "type": "function"
    },
    {
      "inputs": [
        {
          "internalType": "address",
          "name": "recipient",
          "type": "address"
        }
      ],
      "name": "claim",
      "outputs": [
        {
          "internalType": "uint256",
          "name": "amount",
          "type": "uint256"
        }
      ],
      "stateMutability": "nonpayable",
      "type": "function"
    },
    {
      "inputs": [
        {
          "internalType": "address",
          "name": "recipient",
          "type": "address"
        }
      ],
      "name": "claimAll",
      "outputs": [
        {
          "internalType": "uint256",
          "name": "amount",
          "type": "uint256"
        }
      ],
      "stateMutability": "nonpayable",
      "type": "function"
    },
    {
      "inputs": [
        {
          "internalType": "uint256",
          "name": "value",
          "type": "uint256"
        },
        {
          "internalType": "uint256",
          "name": "unlockTime",
          "type": "uint256"
        }
      ],
      "name": "createLock",
      "outputs": [],
      "stateMutability": "nonpayable",
      "type": "function"
    },
    {
      "inputs": [
        {
          "internalType": "uint256",
          "name": "value",
          "type": "uint256"
        }
      ],
      "name": "createMaxLock",
      "outputs": [],
      "stateMutability": "nonpayable",
      "type": "function"
    },
    {
      "inputs": [],
      "name": "harvester",
      "outputs": [
        {
          "internalType": "address",
          "name": "",
          "type": "address"
        }
      ],
      "stateMutability": "view",
      "type": "function"
    },
    {
      "inputs": [
        {
          "internalType": "uint256",
          "name": "unlockTime",
          "type": "uint256"
        }
      ],
      "name": "increaseLock",
      "outputs": [],
      "stateMutability": "nonpayable",
      "type": "function"
    },
    {
      "inputs": [],
      "name": "increaseMaxLock",
      "outputs": [],
      "stateMutability": "nonpayable",
      "type": "function"
    },
    {
      "inputs": [],
      "name": "lastClaimTimestamp",
      "outputs": [
        {
          "internalType": "uint256",
          "name": "",
          "type": "uint256"
        }
      ],
      "stateMutability": "view",
      "type": "function"
    },
    {
      "inputs": [],
      "name": "lock",
      "outputs": [],
      "stateMutability": "nonpayable",
      "type": "function"
    },
    {
      "inputs": [],
      "name": "magicCRV",
      "outputs": [
        {
          "internalType": "address",
          "name": "",
          "type": "address"
        }
      ],
      "stateMutability": "view",
      "type": "function"
    },
    {
      "inputs": [],
      "name": "owner",
      "outputs": [
        {
          "internalType": "address",
          "name": "",
          "type": "address"
        }
      ],
      "stateMutability": "view",
      "type": "function"
    },
    {
      "inputs": [],
      "name": "release",
      "outputs": [],
      "stateMutability": "nonpayable",
      "type": "function"
    },
    {
      "inputs": [],
      "name": "renounceOwnership",
      "outputs": [],
      "stateMutability": "nonpayable",
      "type": "function"
    },
    {
      "inputs": [
        {
          "internalType": "address",
          "name": "voter",
          "type": "address"
        },
        {
          "internalType": "bool",
          "name": "allowed",
          "type": "bool"
        }
      ],
      "name": "setAllowedVoter",
      "outputs": [],
      "stateMutability": "nonpayable",
      "type": "function"
    },
    {
      "inputs": [
        {
          "internalType": "address",
          "name": "_harvester",
          "type": "address"
        }
      ],
      "name": "setHarvester",
      "outputs": [],
      "stateMutability": "nonpayable",
      "type": "function"
    },
    {
      "inputs": [
        {
          "internalType": "address",
          "name": "_magicCRV",
          "type": "address"
        }
      ],
      "name": "setMagicCRV",
      "outputs": [],
      "stateMutability": "nonpayable",
      "type": "function"
    },
    {
      "inputs": [],
      "name": "totalCRVTokens",
      "outputs": [
        {
          "internalType": "uint256",
          "name": "",
          "type": "uint256"
        }
      ],
      "stateMutability": "view",
      "type": "function"
    },
    {
      "inputs": [
        {
          "internalType": "address",
          "name": "newOwner",
          "type": "address"
        }
      ],
      "name": "transferOwnership",
      "outputs": [],
      "stateMutability": "nonpayable",
      "type": "function"
    },
    {
      "inputs": [
        {
          "internalType": "address",
          "name": "gauge",
          "type": "address"
        },
        {
          "internalType": "uint256",
          "name": "amount",
          "type": "uint256"
        }
      ],
      "name": "voteForGaugeWeights",
      "outputs": [],
      "stateMutability": "nonpayable",
      "type": "function"
    },
    {
      "inputs": [],
      "name": "voteForMaxMIMGaugeWeights",
      "outputs": [],
      "stateMutability": "nonpayable",
      "type": "function"
    },
    {
      "inputs": [
        {
          "internalType": "address",
          "name": "",
          "type": "address"
        }
      ],
      "name": "voters",
      "outputs": [
        {
          "internalType": "bool",
          "name": "",
          "type": "bool"
        }
      ],
      "stateMutability": "view",
      "type": "function"
    },
    {
      "inputs": [
        {
          "internalType": "contract ERC20",
          "name": "token",
          "type": "address"
        },
        {
          "internalType": "address",
          "name": "to",
          "type": "address"
        },
        {
          "internalType": "uint256",
          "name": "amount",
          "type": "uint256"
        }
      ],
      "name": "withdraw",
      "outputs": [],
      "stateMutability": "nonpayable",
      "type": "function"
    }
  ],
  "transactionHash": "0xad467e6577598d41903550cdfce587658515250ac17db10407636cabcb1d0230",
  "args": [],
  "numDeployments": 2,
  "solcInputHash": "b9a79c21780e1e49a44f1f8703dfccce",
  "bytecode": "0x608060405234801561001057600080fd5b5061001a3361001f565b61006f565b600080546001600160a01b038381166001600160a01b0319831681178455604051919092169283917f8be0079c531659141344cd1fd0a4f28419497f9722a3daafe3b4186f6b6457e09190a35050565b6116f28061007e6000396000f3fe608060405234801561001057600080fd5b50600436106101da5760003560e01c806377329f3511610104578063c5dd2a1c116100a2578063e681c4aa11610071578063e681c4aa146103f9578063f2fde38b14610414578063f83d08ba14610427578063fab156321461042f57600080fd5b8063c5dd2a1c146103ad578063d2aaae80146103c0578063d9caed12146103d3578063e14cccdf146103e657600080fd5b8063945c9142116100de578063945c914214610331578063a3ec138d1461034c578063ae4a5a9f1461037f578063b52c05fe1461039a57600080fd5b806377329f351461030557806386d1a69f146103185780638da5cb5b1461032057600080fd5b80634bdaeac11161017c578063607af3971161014b578063607af397146102c65780636910dcce146102cf578063715018a6146102ea5780637244d960146102f257600080fd5b80634bdaeac11461028757806350c2d63b1461029a578063510b78d0146102a257806351f3b948146102bd57600080fd5b80631c5a0914116101b85780631c5a09141461023b5780631e83409a1461024e57806322884e2c146102615780633ea527cb1461027c57600080fd5b80631447a73e146101df57806315de1daa1461020f5780631c3ebaeb14610224575b600080fd5b6004546101f2906001600160a01b031681565b6040516001600160a01b0390911681526020015b60405180910390f35b61022261021d3660046114f2565b610437565b005b61022d61271081565b604051908152602001610206565b610222610249366004611516565b6104e6565b61022d61025c3660046114f2565b61053a565b6101f2732f50d538606fa9edd2b11e2446beb18c9d5846bb81565b61022d630784ce0081565b6005546101f2906001600160a01b031681565b610222610707565b6101f2736c3f90f043a72fa612cbac8115ee7e52bde6e49081565b61022d60035481565b61022d60025481565b6101f273a464e6dcda8ac41e03616f95f4bc98a13b8922dc81565b6102226107d2565b61022261030036600461152f565b610826565b61022d6103133660046114f2565b6108e8565b610222610bd3565b6000546001600160a01b03166101f2565b6101f273d533a949740bb3306d119cc777fa900ba034cd5281565b61036f61035a3660046114f2565b60016020526000908152604090205460ff1681565b6040519015158152602001610206565b6101f273d8b712d29381748db89c36bca0138d7c75866ddf81565b6102226103a836600461155b565b610c6a565b6102226103bb36600461158b565b610cc0565b6102226103ce366004611516565b610d6b565b6102226103e13660046115c4565b610dca565b6102226103f43660046114f2565b610e2b565b6101f2735f3b5dfeb7b28cdbd7faba78963ee202a494e2a281565b6102226104223660046114f2565b610ece565b610222610f84565b610222611143565b6000546001600160a01b031633146104845760405162461bcd60e51b8152602060048201819052602482015260008051602061169d83398151915260448201526064015b60405180910390fd5b6005805473ffffffffffffffffffffffffffffffffffffffff19166001600160a01b0383169081179091556040519081527ff9d4063aaabe369ed995818af3e45986af098f647aa201416ecbefa946308919906020015b60405180910390a150565b6000546001600160a01b0316331461052e5760405162461bcd60e51b8152602060048201819052602482015260008051602061169d833981519152604482015260640161047b565b6105378161119c565b50565b6005546000906001600160a01b031633146105685760405163040d77c760e11b815260040160405180910390fd5b6002546105789062093a80611605565b42101561058757506000919050565b604051630f41a04d60e11b815230600482015273a464e6dcda8ac41e03616f95f4bc98a13b8922dc90631e83409a906024016020604051808303816000875af11580156105d8573d6000803e3d6000fd5b505050506040513d601f19601f820116820180604052508101906105fc919061162b565b604051632a2a314b60e01b815230600482015290915073a464e6dcda8ac41e03616f95f4bc98a13b8922dc90632a2a314b90602401602060405180830381865afa15801561064e573d6000803e3d6000fd5b505050506040513d601f19601f82011682018060405250810190610672919061162b565b60025580156107025760405163a9059cbb60e01b81526001600160a01b038316600482015260248101829052736c3f90f043a72fa612cbac8115ee7e52bde6e4909063a9059cbb906044016020604051808303816000875af11580156106dc573d6000803e3d6000fd5b505050506040513d601f19601f820116820180604052508101906107009190611644565b505b919050565b3360009081526001602052604090205460ff1615801561073257506000546001600160a01b03163314155b1561075057604051631729954960e01b815260040160405180910390fd5b604051631ae26c6560e31b815273d8b712d29381748db89c36bca0138d7c75866ddf60048201526127106024820152732f50d538606fa9edd2b11e2446beb18c9d5846bb9063d713632890604401600060405180830381600087803b1580156107b857600080fd5b505af11580156107cc573d6000803e3d6000fd5b50505050565b6000546001600160a01b0316331461081a5760405162461bcd60e51b8152602060048201819052602482015260008051602061169d833981519152604482015260640161047b565b6108246000611204565b565b3360009081526001602052604090205460ff1615801561085157506000546001600160a01b03163314155b1561086f57604051631729954960e01b815260040160405180910390fd5b604051631ae26c6560e31b81526001600160a01b038316600482015260248101829052732f50d538606fa9edd2b11e2446beb18c9d5846bb9063d7136328906044015b600060405180830381600087803b1580156108cc57600080fd5b505af11580156108e0573d6000803e3d6000fd5b505050505050565b6005546000906001600160a01b031633146109165760405163040d77c760e11b815260040160405180910390fd5b6002546109269062093a80611605565b42101561093557506000919050565b60408051610280810182523080825260208201819052818301819052606082018190526080820181905260a0820181905260c0820181905260e08201819052610100820181905261012082018190526101408201819052610160820181905261018082018190526101a082018190526101c082018190526101e0820181905261020082018190526102208201819052610240820181905261026082018190529151637b935a2360e01b815273a464e6dcda8ac41e03616f95f4bc98a13b8922dc91637b935a2391610a099190600401611661565b6020604051808303816000875af1158015610a28573d6000803e3d6000fd5b505050506040513d601f19601f82011682018060405250810190610a4c9190611644565b50604051632a2a314b60e01b81526001600160a01b038216600482015273a464e6dcda8ac41e03616f95f4bc98a13b8922dc90632a2a314b90602401602060405180830381865afa158015610aa5573d6000803e3d6000fd5b505050506040513d601f19601f82011682018060405250810190610ac9919061162b565b6002556040516370a0823160e01b8152306004820152736c3f90f043a72fa612cbac8115ee7e52bde6e490906370a0823190602401602060405180830381865afa158015610b1b573d6000803e3d6000fd5b505050506040513d601f19601f82011682018060405250810190610b3f919061162b565b915081156107005760405163a9059cbb60e01b81526001600160a01b038416600482015260248101839052736c3f90f043a72fa612cbac8115ee7e52bde6e4909063a9059cbb906044016020604051808303816000875af1158015610ba8573d6000803e3d6000fd5b505050506040513d601f19601f82011682018060405250810190610bcc9190611644565b5050919050565b6000546001600160a01b03163314610c1b5760405162461bcd60e51b8152602060048201819052602482015260008051602061169d833981519152604482015260640161047b565b735f3b5dfeb7b28cdbd7faba78963ee202a494e2a26001600160a01b0316633ccfd60b6040518163ffffffff1660e01b8152600401600060405180830381600087803b1580156107b857600080fd5b6000546001600160a01b03163314610cb25760405162461bcd60e51b8152602060048201819052602482015260008051602061169d833981519152604482015260640161047b565b610cbc8282611261565b5050565b6000546001600160a01b03163314610d085760405162461bcd60e51b8152602060048201819052602482015260008051602061169d833981519152604482015260640161047b565b6001600160a01b038216600081815260016020908152604091829020805460ff19168515159081179091558251938452908301527f5baa9229475b423fbc8dac358bbfe1c8fa786a287bbcf6b7c09e04dca25644bf910160405180910390a15050565b6000546001600160a01b03163314610db35760405162461bcd60e51b8152602060048201819052602482015260008051602061169d833981519152604482015260640161047b565b61053781610dc5630784ce0042611605565b611261565b6000546001600160a01b03163314610e125760405162461bcd60e51b8152602060048201819052602482015260008051602061169d833981519152604482015260640161047b565b610e266001600160a01b038416838361138a565b505050565b6000546001600160a01b03163314610e735760405162461bcd60e51b8152602060048201819052602482015260008051602061169d833981519152604482015260640161047b565b6004805473ffffffffffffffffffffffffffffffffffffffff19166001600160a01b0383169081179091556040519081527f55c1a953892d9e675f053dcc46946fc6e774b8f3a6eefeeff73aa62b36f4b300906020016104db565b6000546001600160a01b03163314610f165760405162461bcd60e51b8152602060048201819052602482015260008051602061169d833981519152604482015260640161047b565b6001600160a01b038116610f7b5760405162461bcd60e51b815260206004820152602660248201527f4f776e61626c653a206e6577206f776e657220697320746865207a65726f206160448201526564647265737360d01b606482015260840161047b565b61053781611204565b6004546001600160a01b03163314801590610faa57506000546001600160a01b03163314155b8015610fc157506005546001600160a01b03163314155b15610fdf5760405163ea8e4eb560e01b815260040160405180910390fd5b6040516370a0823160e01b815230600482015260009073d533a949740bb3306d119cc777fa900ba034cd52906370a0823190602401602060405180830381865afa158015611031573d6000803e3d6000fd5b505050506040513d601f19601f82011682018060405250810190611055919061162b565b905080156105375761109173d533a949740bb3306d119cc777fa900ba034cd52735f3b5dfeb7b28cdbd7faba78963ee202a494e2a26000611411565b6110c473d533a949740bb3306d119cc777fa900ba034cd52735f3b5dfeb7b28cdbd7faba78963ee202a494e2a283611411565b604051631255d9df60e21b815260048101829052735f3b5dfeb7b28cdbd7faba78963ee202a494e2a290634957677c90602401600060405180830381600087803b15801561111157600080fd5b505af1158015611125573d6000803e3d6000fd5b50505050806003600082825461113b9190611605565b909155505050565b6000546001600160a01b0316331461118b5760405162461bcd60e51b8152602060048201819052602482015260008051602061169d833981519152604482015260640161047b565b61082461119c630784ce0042611605565b6040516377fbd30960e11b815260048101829052735f3b5dfeb7b28cdbd7faba78963ee202a494e2a29063eff7a61290602401600060405180830381600087803b1580156111e957600080fd5b505af11580156111fd573d6000803e3d6000fd5b5050505050565b600080546001600160a01b0383811673ffffffffffffffffffffffffffffffffffffffff19831681178455604051919092169283917f8be0079c531659141344cd1fd0a4f28419497f9722a3daafe3b4186f6b6457e09190a35050565b6040516323b872dd60e01b81523360048201523060248201526044810183905273d533a949740bb3306d119cc777fa900ba034cd52906323b872dd906064016020604051808303816000875af11580156112bf573d6000803e3d6000fd5b505050506040513d601f19601f820116820180604052508101906112e39190611644565b5061131873d533a949740bb3306d119cc777fa900ba034cd52735f3b5dfeb7b28cdbd7faba78963ee202a494e2a26000611411565b61134b73d533a949740bb3306d119cc777fa900ba034cd52735f3b5dfeb7b28cdbd7faba78963ee202a494e2a284611411565b6040516365fc387360e01b81526004810183905260248101829052735f3b5dfeb7b28cdbd7faba78963ee202a494e2a2906365fc3873906044016108b2565b600060405163a9059cbb60e01b81526001600160a01b03841660048201528260248201526000806044836000895af19150506113c581611498565b6107cc5760405162461bcd60e51b815260206004820152600f60248201527f5452414e534645525f4641494c45440000000000000000000000000000000000604482015260640161047b565b600060405163095ea7b360e01b81526001600160a01b03841660048201528260248201526000806044836000895af191505061144c81611498565b6107cc5760405162461bcd60e51b815260206004820152600e60248201527f415050524f56455f4641494c4544000000000000000000000000000000000000604482015260640161047b565b60003d826114aa57806000803e806000fd5b80602081146114c25780156114d35760009250610bcc565b816000803e60005115159250610bcc565b5060019392505050565b6001600160a01b038116811461053757600080fd5b60006020828403121561150457600080fd5b813561150f816114dd565b9392505050565b60006020828403121561152857600080fd5b5035919050565b6000806040838503121561154257600080fd5b823561154d816114dd565b946020939093013593505050565b6000806040838503121561156e57600080fd5b50508035926020909101359150565b801515811461053757600080fd5b6000806040838503121561159e57600080fd5b82356115a9816114dd565b915060208301356115b98161157d565b809150509250929050565b6000806000606084860312156115d957600080fd5b83356115e4816114dd565b925060208401356115f4816114dd565b929592945050506040919091013590565b6000821982111561162657634e487b7160e01b600052601160045260246000fd5b500190565b60006020828403121561163d57600080fd5b5051919050565b60006020828403121561165657600080fd5b815161150f8161157d565b6102808101818360005b60148110156116935781516001600160a01b031683526020928301929091019060010161166b565b5050509291505056fe4f776e61626c653a2063616c6c6572206973206e6f7420746865206f776e6572a2646970667358221220ff1daef376a0cec59d1292467c2027b3b54a549496165b7a071bb8b7d2fa98d964736f6c634300080a0033",
  "devdoc": {
    "kind": "dev",
    "methods": {
      "owner()": {
        "details": "Returns the address of the current owner."
      },
      "renounceOwnership()": {
        "details": "Leaves the contract without owner. It will not be possible to call `onlyOwner` functions anymore. Can only be called by the current owner. NOTE: Renouncing ownership will leave the contract without an owner, thereby removing any functionality that is only available to the owner."
      },
      "transferOwnership(address)": {
        "details": "Transfers ownership of the contract to a new account (`newOwner`). Can only be called by the current owner."
      }
    },
    "version": 1
  },
  "userdoc": {
    "kind": "user",
    "methods": {
      "createMaxLock(uint256)": {
        "notice": "creates a 4 years lock"
      },
      "increaseMaxLock()": {
        "notice": "extend to 4 years lock"
      },
      "lock()": {
        "notice": "add amount to the current lock created with `createLock` or `createMaxLock`"
      },
      "voteForGaugeWeights(address,uint256)": {
        "notice": "amount 10000 = 100%"
      }
    },
    "version": 1
  },
  "storageLayout": {
    "storage": [
      {
        "astId": 7,
        "contract": "contracts/magic-crv/CurveVoter.sol:CurveVoter",
        "label": "_owner",
        "offset": 0,
        "slot": "0",
        "type": "t_address"
      },
      {
        "astId": 8758,
        "contract": "contracts/magic-crv/CurveVoter.sol:CurveVoter",
        "label": "voters",
        "offset": 0,
        "slot": "1",
        "type": "t_mapping(t_address,t_bool)"
      },
      {
        "astId": 8760,
        "contract": "contracts/magic-crv/CurveVoter.sol:CurveVoter",
        "label": "lastClaimTimestamp",
        "offset": 0,
        "slot": "2",
        "type": "t_uint256"
      },
      {
        "astId": 8762,
        "contract": "contracts/magic-crv/CurveVoter.sol:CurveVoter",
        "label": "totalCRVTokens",
        "offset": 0,
        "slot": "3",
        "type": "t_uint256"
      },
      {
        "astId": 8764,
        "contract": "contracts/magic-crv/CurveVoter.sol:CurveVoter",
        "label": "magicCRV",
        "offset": 0,
        "slot": "4",
        "type": "t_address"
      },
      {
        "astId": 8766,
        "contract": "contracts/magic-crv/CurveVoter.sol:CurveVoter",
        "label": "harvester",
        "offset": 0,
        "slot": "5",
        "type": "t_address"
      }
    ],
    "types": {
      "t_address": {
        "encoding": "inplace",
        "label": "address",
        "numberOfBytes": "20"
      },
      "t_bool": {
        "encoding": "inplace",
        "label": "bool",
        "numberOfBytes": "1"
      },
      "t_mapping(t_address,t_bool)": {
        "encoding": "mapping",
        "key": "t_address",
        "label": "mapping(address => bool)",
        "numberOfBytes": "32",
        "value": "t_bool"
      },
      "t_uint256": {
        "encoding": "inplace",
        "label": "uint256",
        "numberOfBytes": "32"
      }
    }
  }
}