{
  "address": "0x49640905aAE77308f1D35f370efd5c08a790f1cc",
  "abi": [
    {
      "inputs": [],
      "name": "NotAllowedVoter",
      "type": "error"
    },
    {
      "inputs": [],
      "name": "NotAuthorized",
      "type": "error"
    },
    {
      "inputs": [],
      "name": "NotMagicCRV",
      "type": "error"
    },
    {
      "anonymous": false,
      "inputs": [
        {
          "indexed": false,
          "internalType": "address",
          "name": "voter",
          "type": "address"
        },
        {
          "indexed": false,
          "internalType": "bool",
          "name": "allowed",
          "type": "bool"
        }
      ],
      "name": "LogAllowedVoterChanged",
      "type": "event"
    },
    {
      "anonymous": false,
      "inputs": [
        {
          "indexed": false,
          "internalType": "address",
          "name": "harvester",
          "type": "address"
        }
      ],
      "name": "LogHarvesterChangeed",
      "type": "event"
    },
    {
      "anonymous": false,
      "inputs": [
        {
          "indexed": false,
          "internalType": "address",
          "name": "magicCRV",
          "type": "address"
        }
      ],
      "name": "LogMagicCRVChanged",
      "type": "event"
    },
    {
      "anonymous": false,
      "inputs": [
        {
          "indexed": true,
          "internalType": "address",
          "name": "previousOwner",
          "type": "address"
        },
        {
          "indexed": true,
          "internalType": "address",
          "name": "newOwner",
          "type": "address"
        }
      ],
      "name": "OwnershipTransferred",
      "type": "event"
    },
    {
      "inputs": [],
      "name": "CRV",
      "outputs": [
        {
          "internalType": "contract ERC20",
          "name": "",
          "type": "address"
        }
      ],
      "stateMutability": "view",
      "type": "function"
    },
    {
      "inputs": [],
      "name": "CRV3",
      "outputs": [
        {
          "internalType": "address",
          "name": "",
          "type": "address"
        }
      ],
      "stateMutability": "view",
      "type": "function"
    },
    {
      "inputs": [],
      "name": "ESCROW",
      "outputs": [
        {
          "internalType": "address",
          "name": "",
          "type": "address"
        }
      ],
      "stateMutability": "view",
      "type": "function"
    },
    {
      "inputs": [],
      "name": "FEE_DISTRIBUTOR",
      "outputs": [
        {
          "internalType": "address",
          "name": "",
          "type": "address"
        }
      ],
      "stateMutability": "view",
      "type": "function"
    },
    {
      "inputs": [],
      "name": "GAUGE_CONTROLLER",
      "outputs": [
        {
          "internalType": "address",
          "name": "",
          "type": "address"
        }
      ],
      "stateMutability": "view",
      "type": "function"
    },
    {
      "inputs": [],
      "name": "MAX_LOCKTIME",
      "outputs": [
        {
          "internalType": "uint256",
          "name": "",
          "type": "uint256"
        }
      ],
      "stateMutability": "view",
      "type": "function"
    },
    {
      "inputs": [],
      "name": "MAX_VOTE_WEIGHT",
      "outputs": [
        {
          "internalType": "uint256",
          "name": "",
          "type": "uint256"
        }
      ],
      "stateMutability": "view",
      "type": "function"
    },
    {
      "inputs": [],
      "name": "MIM_GAUGE",
      "outputs": [
        {
          "internalType": "address",
          "name": "",
          "type": "address"
        }
      ],
      "stateMutability": "view",
      "type": "function"
    },
    {
      "inputs": [
        {
          "internalType": "address",
          "name": "recipient",
          "type": "address"
        }
      ],
      "name": "claim",
      "outputs": [
        {
          "internalType": "uint256",
          "name": "amount",
          "type": "uint256"
        }
      ],
      "stateMutability": "nonpayable",
      "type": "function"
    },
    {
      "inputs": [
        {
          "internalType": "address",
          "name": "recipient",
          "type": "address"
        }
      ],
      "name": "claimAll",
      "outputs": [
        {
          "internalType": "uint256",
          "name": "amount",
          "type": "uint256"
        }
      ],
      "stateMutability": "nonpayable",
      "type": "function"
    },
    {
      "inputs": [
        {
          "internalType": "uint256",
          "name": "value",
          "type": "uint256"
        },
        {
          "internalType": "uint256",
          "name": "unlockTime",
          "type": "uint256"
        }
      ],
      "name": "createLock",
      "outputs": [],
      "stateMutability": "nonpayable",
      "type": "function"
    },
    {
      "inputs": [
        {
          "internalType": "uint256",
          "name": "value",
          "type": "uint256"
        }
      ],
      "name": "createMaxLock",
      "outputs": [],
      "stateMutability": "nonpayable",
      "type": "function"
    },
    {
      "inputs": [
        {
          "internalType": "address",
          "name": "to",
          "type": "address"
        },
        {
          "internalType": "uint256",
          "name": "value",
          "type": "uint256"
        },
        {
          "internalType": "bytes",
          "name": "data",
          "type": "bytes"
        }
      ],
      "name": "execute",
      "outputs": [
        {
          "internalType": "bool",
          "name": "",
          "type": "bool"
        },
        {
          "internalType": "bytes",
          "name": "",
          "type": "bytes"
        }
      ],
      "stateMutability": "nonpayable",
      "type": "function"
    },
    {
      "inputs": [],
      "name": "harvester",
      "outputs": [
        {
          "internalType": "address",
          "name": "",
          "type": "address"
        }
      ],
      "stateMutability": "view",
      "type": "function"
    },
    {
      "inputs": [
        {
          "internalType": "uint256",
          "name": "unlockTime",
          "type": "uint256"
        }
      ],
      "name": "increaseLock",
      "outputs": [],
      "stateMutability": "nonpayable",
      "type": "function"
    },
    {
      "inputs": [],
      "name": "increaseMaxLock",
      "outputs": [],
      "stateMutability": "nonpayable",
      "type": "function"
    },
    {
      "inputs": [],
      "name": "lastClaimTimestamp",
      "outputs": [
        {
          "internalType": "uint256",
          "name": "",
          "type": "uint256"
        }
      ],
      "stateMutability": "view",
      "type": "function"
    },
    {
      "inputs": [],
      "name": "lock",
      "outputs": [],
      "stateMutability": "nonpayable",
      "type": "function"
    },
    {
      "inputs": [],
      "name": "magicCRV",
      "outputs": [
        {
          "internalType": "address",
          "name": "",
          "type": "address"
        }
      ],
      "stateMutability": "view",
      "type": "function"
    },
    {
      "inputs": [],
      "name": "migrationEnabled",
      "outputs": [
        {
          "internalType": "bool",
          "name": "",
          "type": "bool"
        }
      ],
      "stateMutability": "view",
      "type": "function"
    },
    {
      "inputs": [],
      "name": "owner",
      "outputs": [
        {
          "internalType": "address",
          "name": "",
          "type": "address"
        }
      ],
      "stateMutability": "view",
      "type": "function"
    },
    {
      "inputs": [],
      "name": "release",
      "outputs": [],
      "stateMutability": "nonpayable",
      "type": "function"
    },
    {
      "inputs": [],
      "name": "renounceOwnership",
      "outputs": [],
      "stateMutability": "nonpayable",
      "type": "function"
    },
    {
      "inputs": [
        {
          "internalType": "address",
          "name": "voter",
          "type": "address"
        },
        {
          "internalType": "bool",
          "name": "allowed",
          "type": "bool"
        }
      ],
      "name": "setAllowedVoter",
      "outputs": [],
      "stateMutability": "nonpayable",
      "type": "function"
    },
    {
      "inputs": [
        {
          "internalType": "address",
          "name": "_harvester",
          "type": "address"
        }
      ],
      "name": "setHarvester",
      "outputs": [],
      "stateMutability": "nonpayable",
      "type": "function"
    },
    {
      "inputs": [
        {
          "internalType": "address",
          "name": "_magicCRV",
          "type": "address"
        }
      ],
      "name": "setMagicCRV",
      "outputs": [],
      "stateMutability": "nonpayable",
      "type": "function"
    },
    {
      "inputs": [],
      "name": "totalCRVTokens",
      "outputs": [
        {
          "internalType": "uint256",
          "name": "",
          "type": "uint256"
        }
      ],
      "stateMutability": "view",
      "type": "function"
    },
    {
      "inputs": [
        {
          "internalType": "address",
          "name": "newOwner",
          "type": "address"
        }
      ],
      "name": "transferOwnership",
      "outputs": [],
      "stateMutability": "nonpayable",
      "type": "function"
    },
    {
      "inputs": [
        {
          "internalType": "uint256",
          "name": "voteId",
          "type": "uint256"
        },
        {
          "internalType": "address",
          "name": "votingAddress",
          "type": "address"
        },
        {
          "internalType": "bool",
          "name": "support",
          "type": "bool"
        }
      ],
      "name": "vote",
      "outputs": [],
      "stateMutability": "nonpayable",
      "type": "function"
    },
    {
      "inputs": [
        {
          "internalType": "address",
          "name": "gauge",
          "type": "address"
        },
        {
          "internalType": "uint256",
          "name": "amount",
          "type": "uint256"
        }
      ],
      "name": "voteForGaugeWeights",
      "outputs": [],
      "stateMutability": "nonpayable",
      "type": "function"
    },
    {
      "inputs": [],
      "name": "voteForMaxMIMGaugeWeights",
      "outputs": [],
      "stateMutability": "nonpayable",
      "type": "function"
    },
    {
      "inputs": [
        {
          "internalType": "address",
          "name": "",
          "type": "address"
        }
      ],
      "name": "voters",
      "outputs": [
        {
          "internalType": "bool",
          "name": "",
          "type": "bool"
        }
      ],
      "stateMutability": "view",
      "type": "function"
    },
    {
      "inputs": [
        {
          "internalType": "contract ERC20",
          "name": "token",
          "type": "address"
        },
        {
          "internalType": "address",
          "name": "to",
          "type": "address"
        },
        {
          "internalType": "uint256",
          "name": "amount",
          "type": "uint256"
        }
      ],
      "name": "withdraw",
      "outputs": [],
      "stateMutability": "nonpayable",
      "type": "function"
    }
  ],
  "transactionHash": "0x84a8d28fb50cf841c9f12c068c9ee37ae008fffb8fd34850c34a407d1ccaaeca",
  "args": [],
  "numDeployments": 1,
  "solcInputHash": "86ffb0ec0532fd4279dd78bbdb3283e4",
  "bytecode": "0x608060405234801561001057600080fd5b5061001a3361001f565b61006f565b600080546001600160a01b038381166001600160a01b0319831681178455604051919092169283917f8be0079c531659141344cd1fd0a4f28419497f9722a3daafe3b4186f6b6457e09190a35050565b611a288061007e6000396000f3fe608060405234801561001057600080fd5b506004361061020b5760003560e01c806377329f351161012a578063c5dd2a1c116100bd578063e2cdd42a1161008c578063f2fde38b11610071578063f2fde38b1461049e578063f83d08ba146104b1578063fab15632146104b957600080fd5b8063e2cdd42a14610470578063e681c4aa1461048357600080fd5b8063c5dd2a1c14610424578063d2aaae8014610437578063d9caed121461044a578063e14cccdf1461045d57600080fd5b8063a3ec138d116100f9578063a3ec138d146103b2578063ae4a5a9f146103d5578063b52c05fe146103f0578063b61d27f61461040357600080fd5b806377329f351461036b57806386d1a69f1461037e5780638da5cb5b14610386578063945c91421461039757600080fd5b80634bdaeac1116101a2578063607af39711610171578063607af3971461032c5780636910dcce14610335578063715018a6146103505780637244d9601461035857600080fd5b80634bdaeac1146102ed57806350c2d63b14610300578063510b78d01461030857806351f3b9481461032357600080fd5b80631e83409a116101de5780631e83409a1461027f57806322884e2c1461029257806335b944bf146102ad5780633ea527cb146102e257600080fd5b80631447a73e1461021057806315de1daa146102405780631c3ebaeb146102555780631c5a09141461026c575b600080fd5b600454610223906001600160a01b031681565b6040516001600160a01b0390911681526020015b60405180910390f35b61025361024e3660046116ee565b6104c1565b005b61025e61271081565b604051908152602001610237565b61025361027a366004611712565b610570565b61025e61028d3660046116ee565b6105c4565b610223732f50d538606fa9edd2b11e2446beb18c9d5846bb81565b6005546102d29074010000000000000000000000000000000000000000900460ff1681565b6040519015158152602001610237565b61025e630784ce0081565b600554610223906001600160a01b031681565b610253610791565b610223736c3f90f043a72fa612cbac8115ee7e52bde6e49081565b61025e60035481565b61025e60025481565b61022373a464e6dcda8ac41e03616f95f4bc98a13b8922dc81565b61025361085c565b61025361036636600461172b565b6108b0565b61025e6103793660046116ee565b610972565b610253610c5d565b6000546001600160a01b0316610223565b61022373d533a949740bb3306d119cc777fa900ba034cd5281565b6102d26103c03660046116ee565b60016020526000908152604090205460ff1681565b61022373d8b712d29381748db89c36bca0138d7c75866ddf81565b6102536103fe366004611757565b610cf4565b610416610411366004611779565b610d4a565b604051610237929190611802565b61025361043236600461186f565b610e06565b610253610445366004611712565b610eb1565b6102536104583660046118a8565b610f10565b61025361046b3660046116ee565b610f71565b61025361047e3660046118e9565b611014565b610223735f3b5dfeb7b28cdbd7faba78963ee202a494e2a281565b6102536104ac3660046116ee565b6110ca565b610253611180565b61025361133f565b6000546001600160a01b0316331461050e5760405162461bcd60e51b815260206004820181905260248201526000805160206119d383398151915260448201526064015b60405180910390fd5b6005805473ffffffffffffffffffffffffffffffffffffffff19166001600160a01b0383169081179091556040519081527ff9d4063aaabe369ed995818af3e45986af098f647aa201416ecbefa946308919906020015b60405180910390a150565b6000546001600160a01b031633146105b85760405162461bcd60e51b815260206004820181905260248201526000805160206119d38339815191526044820152606401610505565b6105c181611398565b50565b6005546000906001600160a01b031633146105f25760405163040d77c760e11b815260040160405180910390fd5b6002546106029062093a8061192b565b42101561061157506000919050565b604051630f41a04d60e11b815230600482015273a464e6dcda8ac41e03616f95f4bc98a13b8922dc90631e83409a906024016020604051808303816000875af1158015610662573d6000803e3d6000fd5b505050506040513d601f19601f820116820180604052508101906106869190611951565b604051632a2a314b60e01b815230600482015290915073a464e6dcda8ac41e03616f95f4bc98a13b8922dc90632a2a314b90602401602060405180830381865afa1580156106d8573d6000803e3d6000fd5b505050506040513d601f19601f820116820180604052508101906106fc9190611951565b600255801561078c5760405163a9059cbb60e01b81526001600160a01b038316600482015260248101829052736c3f90f043a72fa612cbac8115ee7e52bde6e4909063a9059cbb906044016020604051808303816000875af1158015610766573d6000803e3d6000fd5b505050506040513d601f19601f8201168201806040525081019061078a919061196a565b505b919050565b3360009081526001602052604090205460ff161580156107bc57506000546001600160a01b03163314155b156107da57604051631729954960e01b815260040160405180910390fd5b604051631ae26c6560e31b815273d8b712d29381748db89c36bca0138d7c75866ddf60048201526127106024820152732f50d538606fa9edd2b11e2446beb18c9d5846bb9063d713632890604401600060405180830381600087803b15801561084257600080fd5b505af1158015610856573d6000803e3d6000fd5b50505050565b6000546001600160a01b031633146108a45760405162461bcd60e51b815260206004820181905260248201526000805160206119d38339815191526044820152606401610505565b6108ae6000611400565b565b3360009081526001602052604090205460ff161580156108db57506000546001600160a01b03163314155b156108f957604051631729954960e01b815260040160405180910390fd5b604051631ae26c6560e31b81526001600160a01b038316600482015260248101829052732f50d538606fa9edd2b11e2446beb18c9d5846bb9063d7136328906044015b600060405180830381600087803b15801561095657600080fd5b505af115801561096a573d6000803e3d6000fd5b505050505050565b6005546000906001600160a01b031633146109a05760405163040d77c760e11b815260040160405180910390fd5b6002546109b09062093a8061192b565b4210156109bf57506000919050565b60408051610280810182523080825260208201819052818301819052606082018190526080820181905260a0820181905260c0820181905260e08201819052610100820181905261012082018190526101408201819052610160820181905261018082018190526101a082018190526101c082018190526101e0820181905261020082018190526102208201819052610240820181905261026082018190529151637b935a2360e01b815273a464e6dcda8ac41e03616f95f4bc98a13b8922dc91637b935a2391610a939190600401611987565b6020604051808303816000875af1158015610ab2573d6000803e3d6000fd5b505050506040513d601f19601f82011682018060405250810190610ad6919061196a565b50604051632a2a314b60e01b81526001600160a01b038216600482015273a464e6dcda8ac41e03616f95f4bc98a13b8922dc90632a2a314b90602401602060405180830381865afa158015610b2f573d6000803e3d6000fd5b505050506040513d601f19601f82011682018060405250810190610b539190611951565b6002556040516370a0823160e01b8152306004820152736c3f90f043a72fa612cbac8115ee7e52bde6e490906370a0823190602401602060405180830381865afa158015610ba5573d6000803e3d6000fd5b505050506040513d601f19601f82011682018060405250810190610bc99190611951565b9150811561078a5760405163a9059cbb60e01b81526001600160a01b038416600482015260248101839052736c3f90f043a72fa612cbac8115ee7e52bde6e4909063a9059cbb906044016020604051808303816000875af1158015610c32573d6000803e3d6000fd5b505050506040513d601f19601f82011682018060405250810190610c56919061196a565b5050919050565b6000546001600160a01b03163314610ca55760405162461bcd60e51b815260206004820181905260248201526000805160206119d38339815191526044820152606401610505565b735f3b5dfeb7b28cdbd7faba78963ee202a494e2a26001600160a01b0316633ccfd60b6040518163ffffffff1660e01b8152600401600060405180830381600087803b15801561084257600080fd5b6000546001600160a01b03163314610d3c5760405162461bcd60e51b815260206004820181905260248201526000805160206119d38339815191526044820152606401610505565b610d46828261145d565b5050565b600080546060906001600160a01b03163314610d965760405162461bcd60e51b815260206004820181905260248201526000805160206119d38339815191526044820152606401610505565b600080876001600160a01b0316878787604051610db49291906119c2565b60006040518083038185875af1925050503d8060008114610df1576040519150601f19603f3d011682016040523d82523d6000602084013e610df6565b606091505b5090999098509650505050505050565b6000546001600160a01b03163314610e4e5760405162461bcd60e51b815260206004820181905260248201526000805160206119d38339815191526044820152606401610505565b6001600160a01b038216600081815260016020908152604091829020805460ff19168515159081179091558251938452908301527f5baa9229475b423fbc8dac358bbfe1c8fa786a287bbcf6b7c09e04dca25644bf910160405180910390a15050565b6000546001600160a01b03163314610ef95760405162461bcd60e51b815260206004820181905260248201526000805160206119d38339815191526044820152606401610505565b6105c181610f0b630784ce004261192b565b61145d565b6000546001600160a01b03163314610f585760405162461bcd60e51b815260206004820181905260248201526000805160206119d38339815191526044820152606401610505565b610f6c6001600160a01b0384168383611586565b505050565b6000546001600160a01b03163314610fb95760405162461bcd60e51b815260206004820181905260248201526000805160206119d38339815191526044820152606401610505565b6004805473ffffffffffffffffffffffffffffffffffffffff19166001600160a01b0383169081179091556040519081527f55c1a953892d9e675f053dcc46946fc6e774b8f3a6eefeeff73aa62b36f4b30090602001610565565b6000546001600160a01b0316331461105c5760405162461bcd60e51b815260206004820181905260248201526000805160206119d38339815191526044820152606401610505565b604051636f899de560e11b8152600481018490528115156024820152600060448201526001600160a01b0383169063df133bca90606401600060405180830381600087803b1580156110ad57600080fd5b505af11580156110c1573d6000803e3d6000fd5b50505050505050565b6000546001600160a01b031633146111125760405162461bcd60e51b815260206004820181905260248201526000805160206119d38339815191526044820152606401610505565b6001600160a01b0381166111775760405162461bcd60e51b815260206004820152602660248201527f4f776e61626c653a206e6577206f776e657220697320746865207a65726f206160448201526564647265737360d01b6064820152608401610505565b6105c181611400565b6004546001600160a01b031633148015906111a657506000546001600160a01b03163314155b80156111bd57506005546001600160a01b03163314155b156111db5760405163ea8e4eb560e01b815260040160405180910390fd5b6040516370a0823160e01b815230600482015260009073d533a949740bb3306d119cc777fa900ba034cd52906370a0823190602401602060405180830381865afa15801561122d573d6000803e3d6000fd5b505050506040513d601f19601f820116820180604052508101906112519190611951565b905080156105c15761128d73d533a949740bb3306d119cc777fa900ba034cd52735f3b5dfeb7b28cdbd7faba78963ee202a494e2a2600061160d565b6112c073d533a949740bb3306d119cc777fa900ba034cd52735f3b5dfeb7b28cdbd7faba78963ee202a494e2a28361160d565b604051631255d9df60e21b815260048101829052735f3b5dfeb7b28cdbd7faba78963ee202a494e2a290634957677c90602401600060405180830381600087803b15801561130d57600080fd5b505af1158015611321573d6000803e3d6000fd5b505050508060036000828254611337919061192b565b909155505050565b6000546001600160a01b031633146113875760405162461bcd60e51b815260206004820181905260248201526000805160206119d38339815191526044820152606401610505565b6108ae611398630784ce004261192b565b6040516377fbd30960e11b815260048101829052735f3b5dfeb7b28cdbd7faba78963ee202a494e2a29063eff7a61290602401600060405180830381600087803b1580156113e557600080fd5b505af11580156113f9573d6000803e3d6000fd5b5050505050565b600080546001600160a01b0383811673ffffffffffffffffffffffffffffffffffffffff19831681178455604051919092169283917f8be0079c531659141344cd1fd0a4f28419497f9722a3daafe3b4186f6b6457e09190a35050565b6040516323b872dd60e01b81523360048201523060248201526044810183905273d533a949740bb3306d119cc777fa900ba034cd52906323b872dd906064016020604051808303816000875af11580156114bb573d6000803e3d6000fd5b505050506040513d601f19601f820116820180604052508101906114df919061196a565b5061151473d533a949740bb3306d119cc777fa900ba034cd52735f3b5dfeb7b28cdbd7faba78963ee202a494e2a2600061160d565b61154773d533a949740bb3306d119cc777fa900ba034cd52735f3b5dfeb7b28cdbd7faba78963ee202a494e2a28461160d565b6040516365fc387360e01b81526004810183905260248101829052735f3b5dfeb7b28cdbd7faba78963ee202a494e2a2906365fc38739060440161093c565b600060405163a9059cbb60e01b81526001600160a01b03841660048201528260248201526000806044836000895af19150506115c181611694565b6108565760405162461bcd60e51b815260206004820152600f60248201527f5452414e534645525f4641494c454400000000000000000000000000000000006044820152606401610505565b600060405163095ea7b360e01b81526001600160a01b03841660048201528260248201526000806044836000895af191505061164881611694565b6108565760405162461bcd60e51b815260206004820152600e60248201527f415050524f56455f4641494c45440000000000000000000000000000000000006044820152606401610505565b60003d826116a657806000803e806000fd5b80602081146116be5780156116cf5760009250610c56565b816000803e60005115159250610c56565b5060019392505050565b6001600160a01b03811681146105c157600080fd5b60006020828403121561170057600080fd5b813561170b816116d9565b9392505050565b60006020828403121561172457600080fd5b5035919050565b6000806040838503121561173e57600080fd5b8235611749816116d9565b946020939093013593505050565b6000806040838503121561176a57600080fd5b50508035926020909101359150565b6000806000806060858703121561178f57600080fd5b843561179a816116d9565b935060208501359250604085013567ffffffffffffffff808211156117be57600080fd5b818701915087601f8301126117d257600080fd5b8135818111156117e157600080fd5b8860208285010111156117f357600080fd5b95989497505060200194505050565b821515815260006020604081840152835180604085015260005b818110156118385785810183015185820160600152820161181c565b8181111561184a576000606083870101525b50601f01601f191692909201606001949350505050565b80151581146105c157600080fd5b6000806040838503121561188257600080fd5b823561188d816116d9565b9150602083013561189d81611861565b809150509250929050565b6000806000606084860312156118bd57600080fd5b83356118c8816116d9565b925060208401356118d8816116d9565b929592945050506040919091013590565b6000806000606084860312156118fe57600080fd5b833592506020840135611910816116d9565b9150604084013561192081611861565b809150509250925092565b6000821982111561194c57634e487b7160e01b600052601160045260246000fd5b500190565b60006020828403121561196357600080fd5b5051919050565b60006020828403121561197c57600080fd5b815161170b81611861565b6102808101818360005b60148110156119b95781516001600160a01b0316835260209283019290910190600101611991565b50505092915050565b818382376000910190815291905056fe4f776e61626c653a2063616c6c6572206973206e6f7420746865206f776e6572a2646970667358221220798701adcd33c72f3c7b3c14b3e8a0f06c470b8a8c958377d6e2faac355b5f6464736f6c634300080a0033",
  "devdoc": {
    "kind": "dev",
    "methods": {
      "owner()": {
        "details": "Returns the address of the current owner."
      },
      "renounceOwnership()": {
        "details": "Leaves the contract without owner. It will not be possible to call `onlyOwner` functions anymore. Can only be called by the current owner. NOTE: Renouncing ownership will leave the contract without an owner, thereby removing any functionality that is only available to the owner."
      },
      "transferOwnership(address)": {
        "details": "Transfers ownership of the contract to a new account (`newOwner`). Can only be called by the current owner."
      }
    },
    "version": 1
  },
  "userdoc": {
    "kind": "user",
    "methods": {
      "createMaxLock(uint256)": {
        "notice": "creates a 4 years lock"
      },
      "increaseMaxLock()": {
        "notice": "extend to 4 years lock"
      },
      "lock()": {
        "notice": "add amount to the current lock created with `createLock` or `createMaxLock`"
      },
      "voteForGaugeWeights(address,uint256)": {
        "notice": "amount 10000 = 100%"
      }
    },
    "version": 1
  },
  "storageLayout": {
    "storage": [
      {
        "astId": 7,
        "contract": "contracts/magic-crv/CurveVoter.sol:CurveVoter",
        "label": "_owner",
        "offset": 0,
        "slot": "0",
        "type": "t_address"
      },
      {
        "astId": 8795,
        "contract": "contracts/magic-crv/CurveVoter.sol:CurveVoter",
        "label": "voters",
        "offset": 0,
        "slot": "1",
        "type": "t_mapping(t_address,t_bool)"
      },
      {
        "astId": 8797,
        "contract": "contracts/magic-crv/CurveVoter.sol:CurveVoter",
        "label": "lastClaimTimestamp",
        "offset": 0,
        "slot": "2",
        "type": "t_uint256"
      },
      {
        "astId": 8799,
        "contract": "contracts/magic-crv/CurveVoter.sol:CurveVoter",
        "label": "totalCRVTokens",
        "offset": 0,
        "slot": "3",
        "type": "t_uint256"
      },
      {
        "astId": 8801,
        "contract": "contracts/magic-crv/CurveVoter.sol:CurveVoter",
        "label": "magicCRV",
        "offset": 0,
        "slot": "4",
        "type": "t_address"
      },
      {
        "astId": 8803,
        "contract": "contracts/magic-crv/CurveVoter.sol:CurveVoter",
        "label": "harvester",
        "offset": 0,
        "slot": "5",
        "type": "t_address"
      },
      {
        "astId": 8805,
        "contract": "contracts/magic-crv/CurveVoter.sol:CurveVoter",
        "label": "migrationEnabled",
        "offset": 20,
        "slot": "5",
        "type": "t_bool"
      }
    ],
    "types": {
      "t_address": {
        "encoding": "inplace",
        "label": "address",
        "numberOfBytes": "20"
      },
      "t_bool": {
        "encoding": "inplace",
        "label": "bool",
        "numberOfBytes": "1"
      },
      "t_mapping(t_address,t_bool)": {
        "encoding": "mapping",
        "key": "t_address",
        "label": "mapping(address => bool)",
        "numberOfBytes": "32",
        "value": "t_bool"
      },
      "t_uint256": {
        "encoding": "inplace",
        "label": "uint256",
        "numberOfBytes": "32"
      }
    }
  }
}