{
  "address": "0xd96f48665a1410C0cd669A88898ecA36B9Fc2cce",
  "abi": [
    {
      "inputs": [
        {
          "internalType": "contract IERC20",
          "name": "wethToken_",
          "type": "address"
        }
      ],
      "stateMutability": "nonpayable",
      "type": "constructor"
    },
    {
      "anonymous": false,
      "inputs": [
        {
          "indexed": true,
          "internalType": "address",
          "name": "masterContract",
          "type": "address"
        },
        {
          "indexed": false,
          "internalType": "bytes",
          "name": "data",
          "type": "bytes"
        },
        {
          "indexed": true,
          "internalType": "address",
          "name": "cloneAddress",
          "type": "address"
        }
      ],
      "name": "LogDeploy",
      "type": "event"
    },
    {
      "anonymous": false,
      "inputs": [
        {
          "indexed": true,
          "internalType": "contract IERC20",
          "name": "token",
          "type": "address"
        },
        {
          "indexed": true,
          "internalType": "address",
          "name": "from",
          "type": "address"
        },
        {
          "indexed": true,
          "internalType": "address",
          "name": "to",
          "type": "address"
        },
        {
          "indexed": false,
          "internalType": "uint256",
          "name": "amount",
          "type": "uint256"
        },
        {
          "indexed": false,
          "internalType": "uint256",
          "name": "share",
          "type": "uint256"
        }
      ],
      "name": "LogDeposit",
      "type": "event"
    },
    {
      "anonymous": false,
      "inputs": [
        {
          "indexed": true,
          "internalType": "address",
          "name": "borrower",
          "type": "address"
        },
        {
          "indexed": true,
          "internalType": "contract IERC20",
          "name": "token",
          "type": "address"
        },
        {
          "indexed": false,
          "internalType": "uint256",
          "name": "amount",
          "type": "uint256"
        },
        {
          "indexed": false,
          "internalType": "uint256",
          "name": "feeAmount",
          "type": "uint256"
        },
        {
          "indexed": true,
          "internalType": "address",
          "name": "receiver",
          "type": "address"
        }
      ],
      "name": "LogFlashLoan",
      "type": "event"
    },
    {
      "anonymous": false,
      "inputs": [
        {
          "indexed": true,
          "internalType": "address",
          "name": "protocol",
          "type": "address"
        }
      ],
      "name": "LogRegisterProtocol",
      "type": "event"
    },
    {
      "anonymous": false,
      "inputs": [
        {
          "indexed": true,
          "internalType": "address",
          "name": "masterContract",
          "type": "address"
        },
        {
          "indexed": true,
          "internalType": "address",
          "name": "user",
          "type": "address"
        },
        {
          "indexed": false,
          "internalType": "bool",
          "name": "approved",
          "type": "bool"
        }
      ],
      "name": "LogSetMasterContractApproval",
      "type": "event"
    },
    {
      "anonymous": false,
      "inputs": [
        {
          "indexed": true,
          "internalType": "contract IERC20",
          "name": "token",
          "type": "address"
        },
        {
          "indexed": false,
          "internalType": "uint256",
          "name": "amount",
          "type": "uint256"
        }
      ],
      "name": "LogStrategyDivest",
      "type": "event"
    },
    {
      "anonymous": false,
      "inputs": [
        {
          "indexed": true,
          "internalType": "contract IERC20",
          "name": "token",
          "type": "address"
        },
        {
          "indexed": false,
          "internalType": "uint256",
          "name": "amount",
          "type": "uint256"
        }
      ],
      "name": "LogStrategyInvest",
      "type": "event"
    },
    {
      "anonymous": false,
      "inputs": [
        {
          "indexed": true,
          "internalType": "contract IERC20",
          "name": "token",
          "type": "address"
        },
        {
          "indexed": false,
          "internalType": "uint256",
          "name": "amount",
          "type": "uint256"
        }
      ],
      "name": "LogStrategyLoss",
      "type": "event"
    },
    {
      "anonymous": false,
      "inputs": [
        {
          "indexed": true,
          "internalType": "contract IERC20",
          "name": "token",
          "type": "address"
        },
        {
          "indexed": false,
          "internalType": "uint256",
          "name": "amount",
          "type": "uint256"
        }
      ],
      "name": "LogStrategyProfit",
      "type": "event"
    },
    {
      "anonymous": false,
      "inputs": [
        {
          "indexed": true,
          "internalType": "contract IERC20",
          "name": "token",
          "type": "address"
        },
        {
          "indexed": true,
          "internalType": "contract IStrategy",
          "name": "strategy",
          "type": "address"
        }
      ],
      "name": "LogStrategyQueued",
      "type": "event"
    },
    {
      "anonymous": false,
      "inputs": [
        {
          "indexed": true,
          "internalType": "contract IERC20",
          "name": "token",
          "type": "address"
        },
        {
          "indexed": true,
          "internalType": "contract IStrategy",
          "name": "strategy",
          "type": "address"
        }
      ],
      "name": "LogStrategySet",
      "type": "event"
    },
    {
      "anonymous": false,
      "inputs": [
        {
          "indexed": true,
          "internalType": "contract IERC20",
          "name": "token",
          "type": "address"
        },
        {
          "indexed": false,
          "internalType": "uint256",
          "name": "targetPercentage",
          "type": "uint256"
        }
      ],
      "name": "LogStrategyTargetPercentage",
      "type": "event"
    },
    {
      "anonymous": false,
      "inputs": [
        {
          "indexed": true,
          "internalType": "contract IERC20",
          "name": "token",
          "type": "address"
        },
        {
          "indexed": true,
          "internalType": "address",
          "name": "from",
          "type": "address"
        },
        {
          "indexed": true,
          "internalType": "address",
          "name": "to",
          "type": "address"
        },
        {
          "indexed": false,
          "internalType": "uint256",
          "name": "share",
          "type": "uint256"
        }
      ],
      "name": "LogTransfer",
      "type": "event"
    },
    {
      "anonymous": false,
      "inputs": [
        {
          "indexed": true,
          "internalType": "address",
          "name": "masterContract",
          "type": "address"
        },
        {
          "indexed": false,
          "internalType": "bool",
          "name": "approved",
          "type": "bool"
        }
      ],
      "name": "LogWhiteListMasterContract",
      "type": "event"
    },
    {
      "anonymous": false,
      "inputs": [
        {
          "indexed": true,
          "internalType": "contract IERC20",
          "name": "token",
          "type": "address"
        },
        {
          "indexed": true,
          "internalType": "address",
          "name": "from",
          "type": "address"
        },
        {
          "indexed": true,
          "internalType": "address",
          "name": "to",
          "type": "address"
        },
        {
          "indexed": false,
          "internalType": "uint256",
          "name": "amount",
          "type": "uint256"
        },
        {
          "indexed": false,
          "internalType": "uint256",
          "name": "share",
          "type": "uint256"
        }
      ],
      "name": "LogWithdraw",
      "type": "event"
    },
    {
      "anonymous": false,
      "inputs": [
        {
          "indexed": true,
          "internalType": "address",
          "name": "previousOwner",
          "type": "address"
        },
        {
          "indexed": true,
          "internalType": "address",
          "name": "newOwner",
          "type": "address"
        }
      ],
      "name": "OwnershipTransferred",
      "type": "event"
    },
    {
      "inputs": [],
      "name": "DOMAIN_SEPARATOR",
      "outputs": [
        {
          "internalType": "bytes32",
          "name": "",
          "type": "bytes32"
        }
      ],
      "stateMutability": "view",
      "type": "function"
    },
    {
      "inputs": [
        {
          "internalType": "contract IERC20",
          "name": "",
          "type": "address"
        },
        {
          "internalType": "address",
          "name": "",
          "type": "address"
        }
      ],
      "name": "balanceOf",
      "outputs": [
        {
          "internalType": "uint256",
          "name": "",
          "type": "uint256"
        }
      ],
      "stateMutability": "view",
      "type": "function"
    },
    {
      "inputs": [
        {
          "internalType": "bytes[]",
          "name": "calls",
          "type": "bytes[]"
        },
        {
          "internalType": "bool",
          "name": "revertOnFail",
          "type": "bool"
        }
      ],
      "name": "batch",
      "outputs": [
        {
          "internalType": "bool[]",
          "name": "successes",
          "type": "bool[]"
        },
        {
          "internalType": "bytes[]",
          "name": "results",
          "type": "bytes[]"
        }
      ],
      "stateMutability": "payable",
      "type": "function"
    },
    {
      "inputs": [
        {
          "internalType": "contract IBatchFlashBorrower",
          "name": "borrower",
          "type": "address"
        },
        {
          "internalType": "address[]",
          "name": "receivers",
          "type": "address[]"
        },
        {
          "internalType": "contract IERC20[]",
          "name": "tokens",
          "type": "address[]"
        },
        {
          "internalType": "uint256[]",
          "name": "amounts",
          "type": "uint256[]"
        },
        {
          "internalType": "bytes",
          "name": "data",
          "type": "bytes"
        }
      ],
      "name": "batchFlashLoan",
      "outputs": [],
      "stateMutability": "nonpayable",
      "type": "function"
    },
    {
      "inputs": [],
      "name": "claimOwnership",
      "outputs": [],
      "stateMutability": "nonpayable",
      "type": "function"
    },
    {
      "inputs": [
        {
          "internalType": "address",
          "name": "masterContract",
          "type": "address"
        },
        {
          "internalType": "bytes",
          "name": "data",
          "type": "bytes"
        },
        {
          "internalType": "bool",
          "name": "useCreate2",
          "type": "bool"
        }
      ],
      "name": "deploy",
      "outputs": [
        {
          "internalType": "address",
          "name": "cloneAddress",
          "type": "address"
        }
      ],
      "stateMutability": "payable",
      "type": "function"
    },
    {
      "inputs": [
        {
          "internalType": "contract IERC20",
          "name": "token_",
          "type": "address"
        },
        {
          "internalType": "address",
          "name": "from",
          "type": "address"
        },
        {
          "internalType": "address",
          "name": "to",
          "type": "address"
        },
        {
          "internalType": "uint256",
          "name": "amount",
          "type": "uint256"
        },
        {
          "internalType": "uint256",
          "name": "share",
          "type": "uint256"
        }
      ],
      "name": "deposit",
      "outputs": [
        {
          "internalType": "uint256",
          "name": "amountOut",
          "type": "uint256"
        },
        {
          "internalType": "uint256",
          "name": "shareOut",
          "type": "uint256"
        }
      ],
      "stateMutability": "payable",
      "type": "function"
    },
    {
      "inputs": [
        {
          "internalType": "contract IFlashBorrower",
          "name": "borrower",
          "type": "address"
        },
        {
          "internalType": "address",
          "name": "receiver",
          "type": "address"
        },
        {
          "internalType": "contract IERC20",
          "name": "token",
          "type": "address"
        },
        {
          "internalType": "uint256",
          "name": "amount",
          "type": "uint256"
        },
        {
          "internalType": "bytes",
          "name": "data",
          "type": "bytes"
        }
      ],
      "name": "flashLoan",
      "outputs": [],
      "stateMutability": "nonpayable",
      "type": "function"
    },
    {
      "inputs": [
        {
          "internalType": "contract IERC20",
          "name": "token",
          "type": "address"
        },
        {
          "internalType": "bool",
          "name": "balance",
          "type": "bool"
        },
        {
          "internalType": "uint256",
          "name": "maxChangeAmount",
          "type": "uint256"
        }
      ],
      "name": "harvest",
      "outputs": [],
      "stateMutability": "nonpayable",
      "type": "function"
    },
    {
      "inputs": [
        {
          "internalType": "address",
          "name": "",
          "type": "address"
        },
        {
          "internalType": "address",
          "name": "",
          "type": "address"
        }
      ],
      "name": "masterContractApproved",
      "outputs": [
        {
          "internalType": "bool",
          "name": "",
          "type": "bool"
        }
      ],
      "stateMutability": "view",
      "type": "function"
    },
    {
      "inputs": [
        {
          "internalType": "address",
          "name": "",
          "type": "address"
        }
      ],
      "name": "masterContractOf",
      "outputs": [
        {
          "internalType": "address",
          "name": "",
          "type": "address"
        }
      ],
      "stateMutability": "view",
      "type": "function"
    },
    {
      "inputs": [
        {
          "internalType": "address",
          "name": "",
          "type": "address"
        }
      ],
      "name": "nonces",
      "outputs": [
        {
          "internalType": "uint256",
          "name": "",
          "type": "uint256"
        }
      ],
      "stateMutability": "view",
      "type": "function"
    },
    {
      "inputs": [],
      "name": "owner",
      "outputs": [
        {
          "internalType": "address",
          "name": "",
          "type": "address"
        }
      ],
      "stateMutability": "view",
      "type": "function"
    },
    {
      "inputs": [],
      "name": "pendingOwner",
      "outputs": [
        {
          "internalType": "address",
          "name": "",
          "type": "address"
        }
      ],
      "stateMutability": "view",
      "type": "function"
    },
    {
      "inputs": [
        {
          "internalType": "contract IERC20",
          "name": "",
          "type": "address"
        }
      ],
      "name": "pendingStrategy",
      "outputs": [
        {
          "internalType": "contract IStrategy",
          "name": "",
          "type": "address"
        }
      ],
      "stateMutability": "view",
      "type": "function"
    },
    {
      "inputs": [
        {
          "internalType": "contract IERC20",
          "name": "token",
          "type": "address"
        },
        {
          "internalType": "address",
          "name": "from",
          "type": "address"
        },
        {
          "internalType": "address",
          "name": "to",
          "type": "address"
        },
        {
          "internalType": "uint256",
          "name": "amount",
          "type": "uint256"
        },
        {
          "internalType": "uint256",
          "name": "deadline",
          "type": "uint256"
        },
        {
          "internalType": "uint8",
          "name": "v",
          "type": "uint8"
        },
        {
          "internalType": "bytes32",
          "name": "r",
          "type": "bytes32"
        },
        {
          "internalType": "bytes32",
          "name": "s",
          "type": "bytes32"
        }
      ],
      "name": "permitToken",
      "outputs": [],
      "stateMutability": "nonpayable",
      "type": "function"
    },
    {
      "inputs": [],
      "name": "registerProtocol",
      "outputs": [],
      "stateMutability": "nonpayable",
      "type": "function"
    },
    {
      "inputs": [
        {
          "internalType": "address",
          "name": "user",
          "type": "address"
        },
        {
          "internalType": "address",
          "name": "masterContract",
          "type": "address"
        },
        {
          "internalType": "bool",
          "name": "approved",
          "type": "bool"
        },
        {
          "internalType": "uint8",
          "name": "v",
          "type": "uint8"
        },
        {
          "internalType": "bytes32",
          "name": "r",
          "type": "bytes32"
        },
        {
          "internalType": "bytes32",
          "name": "s",
          "type": "bytes32"
        }
      ],
      "name": "setMasterContractApproval",
      "outputs": [],
      "stateMutability": "nonpayable",
      "type": "function"
    },
    {
      "inputs": [
        {
          "internalType": "contract IERC20",
          "name": "token",
          "type": "address"
        },
        {
          "internalType": "contract IStrategy",
          "name": "newStrategy",
          "type": "address"
        }
      ],
      "name": "setStrategy",
      "outputs": [],
      "stateMutability": "nonpayable",
      "type": "function"
    },
    {
      "inputs": [
        {
          "internalType": "contract IERC20",
          "name": "token",
          "type": "address"
        },
        {
          "internalType": "uint64",
          "name": "targetPercentage_",
          "type": "uint64"
        }
      ],
      "name": "setStrategyTargetPercentage",
      "outputs": [],
      "stateMutability": "nonpayable",
      "type": "function"
    },
    {
      "inputs": [
        {
          "internalType": "contract IERC20",
          "name": "",
          "type": "address"
        }
      ],
      "name": "strategy",
      "outputs": [
        {
          "internalType": "contract IStrategy",
          "name": "",
          "type": "address"
        }
      ],
      "stateMutability": "view",
      "type": "function"
    },
    {
      "inputs": [
        {
          "internalType": "contract IERC20",
          "name": "",
          "type": "address"
        }
      ],
      "name": "strategyData",
      "outputs": [
        {
          "internalType": "uint64",
          "name": "strategyStartDate",
          "type": "uint64"
        },
        {
          "internalType": "uint64",
          "name": "targetPercentage",
          "type": "uint64"
        },
        {
          "internalType": "uint128",
          "name": "balance",
          "type": "uint128"
        }
      ],
      "stateMutability": "view",
      "type": "function"
    },
    {
      "inputs": [
        {
          "internalType": "contract IERC20",
          "name": "token",
          "type": "address"
        },
        {
          "internalType": "uint256",
          "name": "share",
          "type": "uint256"
        },
        {
          "internalType": "bool",
          "name": "roundUp",
          "type": "bool"
        }
      ],
      "name": "toAmount",
      "outputs": [
        {
          "internalType": "uint256",
          "name": "amount",
          "type": "uint256"
        }
      ],
      "stateMutability": "view",
      "type": "function"
    },
    {
      "inputs": [
        {
          "internalType": "contract IERC20",
          "name": "token",
          "type": "address"
        },
        {
          "internalType": "uint256",
          "name": "amount",
          "type": "uint256"
        },
        {
          "internalType": "bool",
          "name": "roundUp",
          "type": "bool"
        }
      ],
      "name": "toShare",
      "outputs": [
        {
          "internalType": "uint256",
          "name": "share",
          "type": "uint256"
        }
      ],
      "stateMutability": "view",
      "type": "function"
    },
    {
      "inputs": [
        {
          "internalType": "contract IERC20",
          "name": "",
          "type": "address"
        }
      ],
      "name": "totals",
      "outputs": [
        {
          "internalType": "uint128",
          "name": "elastic",
          "type": "uint128"
        },
        {
          "internalType": "uint128",
          "name": "base",
          "type": "uint128"
        }
      ],
      "stateMutability": "view",
      "type": "function"
    },
    {
      "inputs": [
        {
          "internalType": "contract IERC20",
          "name": "token",
          "type": "address"
        },
        {
          "internalType": "address",
          "name": "from",
          "type": "address"
        },
        {
          "internalType": "address",
          "name": "to",
          "type": "address"
        },
        {
          "internalType": "uint256",
          "name": "share",
          "type": "uint256"
        }
      ],
      "name": "transfer",
      "outputs": [],
      "stateMutability": "nonpayable",
      "type": "function"
    },
    {
      "inputs": [
        {
          "internalType": "contract IERC20",
          "name": "token",
          "type": "address"
        },
        {
          "internalType": "address",
          "name": "from",
          "type": "address"
        },
        {
          "internalType": "address[]",
          "name": "tos",
          "type": "address[]"
        },
        {
          "internalType": "uint256[]",
          "name": "shares",
          "type": "uint256[]"
        }
      ],
      "name": "transferMultiple",
      "outputs": [],
      "stateMutability": "nonpayable",
      "type": "function"
    },
    {
      "inputs": [
        {
          "internalType": "address",
          "name": "newOwner",
          "type": "address"
        },
        {
          "internalType": "bool",
          "name": "direct",
          "type": "bool"
        },
        {
          "internalType": "bool",
          "name": "renounce",
          "type": "bool"
        }
      ],
      "name": "transferOwnership",
      "outputs": [],
      "stateMutability": "nonpayable",
      "type": "function"
    },
    {
      "inputs": [
        {
          "internalType": "address",
          "name": "masterContract",
          "type": "address"
        },
        {
          "internalType": "bool",
          "name": "approved",
          "type": "bool"
        }
      ],
      "name": "whitelistMasterContract",
      "outputs": [],
      "stateMutability": "nonpayable",
      "type": "function"
    },
    {
      "inputs": [
        {
          "internalType": "address",
          "name": "",
          "type": "address"
        }
      ],
      "name": "whitelistedMasterContracts",
      "outputs": [
        {
          "internalType": "bool",
          "name": "",
          "type": "bool"
        }
      ],
      "stateMutability": "view",
      "type": "function"
    },
    {
      "inputs": [
        {
          "internalType": "contract IERC20",
          "name": "token_",
          "type": "address"
        },
        {
          "internalType": "address",
          "name": "from",
          "type": "address"
        },
        {
          "internalType": "address",
          "name": "to",
          "type": "address"
        },
        {
          "internalType": "uint256",
          "name": "amount",
          "type": "uint256"
        },
        {
          "internalType": "uint256",
          "name": "share",
          "type": "uint256"
        }
      ],
      "name": "withdraw",
      "outputs": [
        {
          "internalType": "uint256",
          "name": "amountOut",
          "type": "uint256"
        },
        {
          "internalType": "uint256",
          "name": "shareOut",
          "type": "uint256"
        }
      ],
      "stateMutability": "nonpayable",
      "type": "function"
    },
    {
      "stateMutability": "payable",
      "type": "receive"
    }
  ],
  "transactionHash": "0x6b674c6d17f46f01936fbe678e897ab07e43e3230582394e2e951af00371f700",
  "args": [
    "0xC02aaA39b223FE8D0A0e5C4F27eAD9083C756Cc2"
  ],
  "solcInputHash": "1fb69ec74234b3470c47d7b643a7d588",
  "bytecode": "0x60e06040523480156200001157600080fd5b5060405162005ae638038062005ae6833981016040819052620000349162000116565b600080546001600160a01b0319163390811782556040519091907f8be0079c531659141344cd1fd0a4f28419497f9722a3daafe3b4186f6b6457e0908290a34660a081905262000084816200009e565b6080525060601b6001600160601b03191660c0526200016a565b60007f8cad95687ba82c2ce50e74f7b754645e5117c3a5bec8151c0726d5857980a8667fd7df266aff736d415a9dc14b4158201d612e70d75b9c7f4e375ccfd20aa5166f8330604051602001620000f9949392919062000146565b604051602081830303815290604052805190602001209050919050565b60006020828403121562000128578081fd5b81516001600160a01b03811681146200013f578182fd5b9392505050565b938452602084019290925260408301526001600160a01b0316606082015260800190565b60805160a05160c05160601c61593d620001a9600039806107615280610b3752806129155280612bdb5250806114845250806114b9525061593d6000f3fe6080604052600436106101dc5760003560e01c80637c516e9411610102578063d2423b5111610095578063f1676d3711610064578063f1676d3714610555578063f18d03cc14610575578063f483b3da14610595578063f7888aec146105b5576101e3565b8063d2423b51146104d0578063da5139ca146104f1578063df23b45b14610511578063e30c397814610540576101e3565b806397da6d30116100d157806397da6d301461045b578063aee4d1b21461047b578063bafe4f1414610490578063c0a47c93146104b0576101e3565b80637c516e94146103e65780637ecebe00146104065780638da5cb5b1461042657806391e0eab51461043b576101e3565b80633e2a9d4e1161017a5780635662311811610149578063566231181461036657806366c6bb0b1461038657806372cb5d97146103a6578063733a9d7c146103c6576101e3565b80633e2a9d4e146102e35780634e71e0c8146103035780634ffe34db146103185780635108a55814610346576101e3565b806312a90c8a116101b657806312a90c8a146102545780631f54245b14610281578063228bfd9f146102a15780633644e515146102c1576101e3565b806302b9446c146101e8578063078dfbe7146102125780630fca884314610234576101e3565b366101e357005b600080fd5b6101fb6101f636600461492e565b6105d5565b6040516102099291906157dc565b60405180910390f35b34801561021e57600080fd5b5061023261022d3660046146e2565b610c8c565b005b34801561024057600080fd5b5061023261024f366004614a09565b610e17565b34801561026057600080fd5b5061027461026f3660046145f5565b6111d9565b6040516102099190615068565b61029461028f36600461472c565b6111ee565b6040516102099190614dcc565b3480156102ad57600080fd5b506102946102bc3660046145f5565b611457565b3480156102cd57600080fd5b506102d661147f565b6040516102099190615073565b3480156102ef57600080fd5b506102326102fe366004614b11565b6114df565b34801561030f57600080fd5b50610232611613565b34801561032457600080fd5b506103386103333660046145f5565b6116f9565b6040516102099291906157b9565b34801561035257600080fd5b506102946103613660046145f5565b611735565b34801561037257600080fd5b506102d6610381366004614adb565b61175d565b34801561039257600080fd5b506102326103a1366004614a9b565b6117d4565b3480156103b257600080fd5b506102326103c13660046148cc565b611f89565b3480156103d257600080fd5b506102326103e13660046146b5565b61258d565b3480156103f257600080fd5b50610232610401366004614988565b6126aa565b34801561041257600080fd5b506102d66104213660046145f5565b612744565b34801561043257600080fd5b50610294612756565b34801561044757600080fd5b50610274610456366004614611565b612772565b34801561046757600080fd5b506101fb61047636600461492e565b612792565b34801561048757600080fd5b50610232612d82565b34801561049c57600080fd5b506102946104ab3660046145f5565b612de1565b3480156104bc57600080fd5b506102326104cb366004614649565b612e09565b6104e36104de366004614792565b613262565b604051610209929190614fce565b3480156104fd57600080fd5b506102d661050c366004614adb565b61340e565b34801561051d57600080fd5b5061053161052c3660046145f5565b61347d565b604051610209939291906157ff565b34801561054c57600080fd5b506102946134d2565b34801561056157600080fd5b50610232610570366004614b4a565b6134ee565b34801561058157600080fd5b506102326105903660046148de565b6136c9565b3480156105a157600080fd5b506102326105b03660046147f8565b613923565b3480156105c157600080fd5b506102d66105d03660046148cc565b613c6e565b6000808573ffffffffffffffffffffffffffffffffffffffff81163314801590610615575073ffffffffffffffffffffffffffffffffffffffff81163014155b156106ee573360009081526002602052604090205473ffffffffffffffffffffffffffffffffffffffff1680610680576040517f08c379a0000000000000000000000000000000000000000000000000000000008152600401610677906155b0565b60405180910390fd5b73ffffffffffffffffffffffffffffffffffffffff80821660009081526003602090815260408083209386168352929052205460ff166106ec576040517f08c379a000000000000000000000000000000000000000000000000000000000815260040161067790615433565b505b73ffffffffffffffffffffffffffffffffffffffff861661073b576040517f08c379a000000000000000000000000000000000000000000000000000000000815260040161067790615390565b600073ffffffffffffffffffffffffffffffffffffffff89161561075f5788610781565b7f00000000000000000000000000000000000000000000000000000000000000005b905061078b614519565b5073ffffffffffffffffffffffffffffffffffffffff81166000908152600760209081526040918290208251808401909352546fffffffffffffffffffffffffffffffff808216808552700100000000000000000000000000000000909204169183019190915215158061087c575060008273ffffffffffffffffffffffffffffffffffffffff166318160ddd6040518163ffffffff1660e01b815260040160206040518083038186803b15801561084257600080fd5b505afa158015610856573d6000803e3d6000fd5b505050506040513d601f19601f8201168201806040525081019061087a9190614bbb565b115b6108b2576040517f08c379a0000000000000000000000000000000000000000000000000000000008152600401610677906152b4565b8561091c576108c381886000613c8b565b95506103e86108f16108d488613d49565b60208401516fffffffffffffffffffffffffffffffff1690613d99565b6fffffffffffffffffffffffffffffffff16101561091757600080945094505050610c81565b61092b565b61092881876001613df1565b96505b73ffffffffffffffffffffffffffffffffffffffff891630141580610964575073ffffffffffffffffffffffffffffffffffffffff8a16155b8061099557508051610991906fffffffffffffffffffffffffffffffff1661098b84613e94565b90613f78565b8711155b6109cb576040517f08c379a00000000000000000000000000000000000000000000000000000000081526004016106779061516a565b73ffffffffffffffffffffffffffffffffffffffff8083166000908152600660209081526040808320938c1683529290522054610a089087613fb5565b73ffffffffffffffffffffffffffffffffffffffff8084166000908152600660209081526040808320938d1683529290522055610a64610a4787613d49565b60208301516fffffffffffffffffffffffffffffffff1690613d99565b6fffffffffffffffffffffffffffffffff166020820152610aa1610a8788613d49565b82516fffffffffffffffffffffffffffffffff1690613d99565b6fffffffffffffffffffffffffffffffff908116825273ffffffffffffffffffffffffffffffffffffffff808416600090815260076020908152604090912084518154928601518516700100000000000000000000000000000000029085167fffffffffffffffffffffffffffffffff0000000000000000000000000000000090931692909217909316179091558a16610bbb577f000000000000000000000000000000000000000000000000000000000000000073ffffffffffffffffffffffffffffffffffffffff1663d0e30db0886040518263ffffffff1660e01b81526004016000604051808303818588803b158015610b9d57600080fd5b505af1158015610bb1573d6000803e3d6000fd5b5050505050610bfa565b73ffffffffffffffffffffffffffffffffffffffff89163014610bfa57610bfa73ffffffffffffffffffffffffffffffffffffffff83168a308a613ff2565b8773ffffffffffffffffffffffffffffffffffffffff168973ffffffffffffffffffffffffffffffffffffffff168373ffffffffffffffffffffffffffffffffffffffff167fb2346165e782564f17f5b7e555c21f4fd96fbc93458572bf0113ea35a958fc558a8a604051610c709291906157dc565b60405180910390a486945085935050505b509550959350505050565b60005473ffffffffffffffffffffffffffffffffffffffff163314610cdd576040517f08c379a0000000000000000000000000000000000000000000000000000000008152600401610677906153fe565b8115610dd15773ffffffffffffffffffffffffffffffffffffffff8316151580610d045750805b610d3a576040517f08c379a00000000000000000000000000000000000000000000000000000000081526004016106779061527d565b6000805460405173ffffffffffffffffffffffffffffffffffffffff808716939216917f8be0079c531659141344cd1fd0a4f28419497f9722a3daafe3b4186f6b6457e091a36000805473ffffffffffffffffffffffffffffffffffffffff85167fffffffffffffffffffffffff000000000000000000000000000000000000000091821617909155600180549091169055610e12565b600180547fffffffffffffffffffffffff00000000000000000000000000000000000000001673ffffffffffffffffffffffffffffffffffffffff85161790555b505050565b8473ffffffffffffffffffffffffffffffffffffffff81163314801590610e54575073ffffffffffffffffffffffffffffffffffffffff81163014155b15610f24573360009081526002602052604090205473ffffffffffffffffffffffffffffffffffffffff1680610eb6576040517f08c379a0000000000000000000000000000000000000000000000000000000008152600401610677906155b0565b73ffffffffffffffffffffffffffffffffffffffff80821660009081526003602090815260408083209386168352929052205460ff16610f22576040517f08c379a000000000000000000000000000000000000000000000000000000000815260040161067790615433565b505b600085858281610f3057fe5b9050602002016020810190610f4591906145f5565b73ffffffffffffffffffffffffffffffffffffffff161415610f93576040517f08c379a000000000000000000000000000000000000000000000000000000000815260040161067790615359565b600084815b81811015611157576000888883818110610fae57fe5b9050602002016020810190610fc391906145f5565b9050611066878784818110610fd457fe5b90506020020135600660008e73ffffffffffffffffffffffffffffffffffffffff1673ffffffffffffffffffffffffffffffffffffffff16815260200190815260200160002060008473ffffffffffffffffffffffffffffffffffffffff1673ffffffffffffffffffffffffffffffffffffffff16815260200190815260200160002054613fb590919063ffffffff16565b73ffffffffffffffffffffffffffffffffffffffff808d166000908152600660209081526040808320938616835292905220556110be8787848181106110a857fe5b9050602002013585613fb590919063ffffffff16565b93508073ffffffffffffffffffffffffffffffffffffffff168a73ffffffffffffffffffffffffffffffffffffffff168c73ffffffffffffffffffffffffffffffffffffffff167f6eabe333476233fd382224f233210cb808a7bc4c4de64f9d76628bf63c677b1a8a8a8781811061113257fe5b905060200201356040516111469190615073565b60405180910390a450600101610f98565b5073ffffffffffffffffffffffffffffffffffffffff808a166000908152600660209081526040808320938c16835292905220546111959083613f78565b73ffffffffffffffffffffffffffffffffffffffff998a1660009081526006602090815260408083209b909c16825299909952989097209790975550505050505050565b60046020526000908152604090205460ff1681565b600073ffffffffffffffffffffffffffffffffffffffff851661123d576040517f08c379a000000000000000000000000000000000000000000000000000000000815260040161067790615544565b606085901b82156112c6576000858560405161125a929190614d76565b604051809103902090506040517f3d602d80600a3d3981f3363d3d373d3d3d363d7300000000000000000000000081528260148201527f5af43d82803e903d91602b57fd5bf300000000000000000000000000000000006028820152816037826000f593505050611322565b6040517f3d602d80600a3d3981f3363d3d373d3d3d363d7300000000000000000000000081528160148201527f5af43d82803e903d91602b57fd5bf3000000000000000000000000000000000060288201526037816000f09250505b73ffffffffffffffffffffffffffffffffffffffff8281166000818152600260205260409081902080547fffffffffffffffffffffffff000000000000000000000000000000000000000016938a169390931790925590517f4ddf47d4000000000000000000000000000000000000000000000000000000008152634ddf47d49034906113b5908990899060040161510c565b6000604051808303818588803b1580156113ce57600080fd5b505af11580156113e2573d6000803e3d6000fd5b50505050508173ffffffffffffffffffffffffffffffffffffffff168673ffffffffffffffffffffffffffffffffffffffff167fd62166f3c2149208e51788b1401cc356bf5da1fc6c7886a32e18570f57d88b3b878760405161144692919061510c565b60405180910390a350949350505050565b60086020526000908152604090205473ffffffffffffffffffffffffffffffffffffffff1681565b6000467f000000000000000000000000000000000000000000000000000000000000000081146114b7576114b28161415d565b6114d9565b7f00000000000000000000000000000000000000000000000000000000000000005b91505090565b60005473ffffffffffffffffffffffffffffffffffffffff163314611530576040517f08c379a0000000000000000000000000000000000000000000000000000000008152600401610677906153fe565b605f8167ffffffffffffffff161115611575576040517f08c379a00000000000000000000000000000000000000000000000000000000081526004016106779061572f565b73ffffffffffffffffffffffffffffffffffffffff82166000818152600a60205260409081902080547fffffffffffffffffffffffffffffffff0000000000000000ffffffffffffffff166801000000000000000067ffffffffffffffff861602179055517f7543af99b5602c06e62da0631b5308489a5ff859150105a623b6eb15e8deae0b906116079084906157ea565b60405180910390a25050565b60015473ffffffffffffffffffffffffffffffffffffffff16338114611665576040517f08c379a00000000000000000000000000000000000000000000000000000000081526004016106779061546a565b6000805460405173ffffffffffffffffffffffffffffffffffffffff808516939216917f8be0079c531659141344cd1fd0a4f28419497f9722a3daafe3b4186f6b6457e091a36000805473ffffffffffffffffffffffffffffffffffffffff9092167fffffffffffffffffffffffff0000000000000000000000000000000000000000928316179055600180549091169055565b6007602052600090815260409020546fffffffffffffffffffffffffffffffff8082169170010000000000000000000000000000000090041682565b60096020526000908152604090205473ffffffffffffffffffffffffffffffffffffffff1681565b73ffffffffffffffffffffffffffffffffffffffff831660009081526007602090815260408083208151808301909252546fffffffffffffffffffffffffffffffff808216835270010000000000000000000000000000000090910416918101919091526117cc908484613df1565b949350505050565b6117dc614530565b5073ffffffffffffffffffffffffffffffffffffffff8381166000818152600a602090815260408083208151606081018352905467ffffffffffffffff8082168352680100000000000000008204168285015270010000000000000000000000000000000090046fffffffffffffffffffffffffffffffff16818301908152948452600890925280832054935190517f18fccc760000000000000000000000000000000000000000000000000000000081529194939093169283916318fccc76916118ab913390600401615781565b602060405180830381600087803b1580156118c557600080fd5b505af11580156118d9573d6000803e3d6000fd5b505050506040513d601f19601f820116820180604052508101906118fd9190614bbb565b90508015801561190b575084155b1561191857505050610e12565b73ffffffffffffffffffffffffffffffffffffffff86166000908152600760205260408120546fffffffffffffffffffffffffffffffff1690821315611a1257816119638282613fb5565b915061196e82613d49565b73ffffffffffffffffffffffffffffffffffffffff89166000818152600760205260409081902080547fffffffffffffffffffffffffffffffff00000000000000000000000000000000166fffffffffffffffffffffffffffffffff949094169390931790925590517f911c9f20a03edabcbcbd18dca1174cce47a91b234ced7a5a3c60ba0d5b56c5d290611a04908490615073565b60405180910390a250611b2d565b6000821215611b2d576000829003611a2a8282613f78565b9150611a3582613d49565b73ffffffffffffffffffffffffffffffffffffffff8916600090815260076020526040902080547fffffffffffffffffffffffffffffffff00000000000000000000000000000000166fffffffffffffffffffffffffffffffff92909216919091179055611ac2611aa582613d49565b60408701516fffffffffffffffffffffffffffffffff16906141d4565b6fffffffffffffffffffffffffffffffff166040808701919091525173ffffffffffffffffffffffffffffffffffffffff8916907f8f1f26eb9b6aa8689dbdd519ead1999d9c8819d4738e403b2003b18197d9cf9790611b23908490615073565b60405180910390a2505b8515611eb15760006064611b58866020015167ffffffffffffffff168461422690919063ffffffff16565b81611b5f57fe5b0490508085604001516fffffffffffffffffffffffffffffffff161015611cfe576000611bab86604001516fffffffffffffffffffffffffffffffff1683613f7890919063ffffffff16565b90508615801590611bbb57508681115b15611bc35750855b611be473ffffffffffffffffffffffffffffffffffffffff8a168683614277565b611c0d611bf082613d49565b60408801516fffffffffffffffffffffffffffffffff1690613d99565b6fffffffffffffffffffffffffffffffff16604080880191909152517f6939aaf500000000000000000000000000000000000000000000000000000000815273ffffffffffffffffffffffffffffffffffffffff861690636939aaf590611c78908490600401615073565b600060405180830381600087803b158015611c9257600080fd5b505af1158015611ca6573d6000803e3d6000fd5b505050508873ffffffffffffffffffffffffffffffffffffffff167fb18e7e4f6eac147a63a3bb6beb2d9039c88698623aff3efc4febbc20b0164ee582604051611cf09190615073565b60405180910390a250611eaf565b8085604001516fffffffffffffffffffffffffffffffff161115611eaf576000611d47611d2a83613d49565b60408801516fffffffffffffffffffffffffffffffff16906141d4565b6fffffffffffffffffffffffffffffffff1690508615801590611d6957508681115b15611d715750855b6040517f2e1a7d4d00000000000000000000000000000000000000000000000000000000815260009073ffffffffffffffffffffffffffffffffffffffff871690632e1a7d4d90611dc6908590600401615073565b602060405180830381600087803b158015611de057600080fd5b505af1158015611df4573d6000803e3d6000fd5b505050506040513d601f19601f82011682018060405250810190611e189190614bbb565b9050611e43611e2682613d49565b60408901516fffffffffffffffffffffffffffffffff16906141d4565b6fffffffffffffffffffffffffffffffff166040808901919091525173ffffffffffffffffffffffffffffffffffffffff8b16907f39aa22060f8dd4d291720311feedf3b72fef47c06c66ccf5c22b502c62e7550a90611ea4908490615073565b60405180910390a250505b505b50505073ffffffffffffffffffffffffffffffffffffffff84166000908152600a6020908152604091829020835181549285015193909401516fffffffffffffffffffffffffffffffff9081167001000000000000000000000000000000000267ffffffffffffffff94851668010000000000000000027fffffffffffffffffffffffffffffffff0000000000000000ffffffffffffffff959096167fffffffffffffffffffffffffffffffffffffffffffffffff000000000000000090941693909317939093169390931791909116179055505050565b60005473ffffffffffffffffffffffffffffffffffffffff163314611fda576040517f08c379a0000000000000000000000000000000000000000000000000000000008152600401610677906153fe565b611fe2614530565b5073ffffffffffffffffffffffffffffffffffffffff8281166000818152600a602090815260408083208151606081018352905467ffffffffffffffff80821683526801000000000000000082048116838601527001000000000000000000000000000000009091046fffffffffffffffffffffffffffffffff16828401529484526009909252909120548151919316911615806120ac57508273ffffffffffffffffffffffffffffffffffffffff168173ffffffffffffffffffffffffffffffffffffffff1614155b156121695773ffffffffffffffffffffffffffffffffffffffff848116600090815260096020526040902080547fffffffffffffffffffffffff0000000000000000000000000000000000000000169185169190911790556121126203f48042016143df565b67ffffffffffffffff16825260405173ffffffffffffffffffffffffffffffffffffffff80851691908616907f6f7ccdf3f86039e5a1dcf6028bf7b4773cbf7a234716ba2e5392b12bb0f8558f90600090a36124b9565b815167ffffffffffffffff161580159061218e5750815167ffffffffffffffff164210155b6121c4576040517f08c379a0000000000000000000000000000000000000000000000000000000008152600401610677906153c7565b73ffffffffffffffffffffffffffffffffffffffff848116600090815260086020526040902054161561241d5773ffffffffffffffffffffffffffffffffffffffff808516600090815260086020526040808220548582015191517f7f8661a100000000000000000000000000000000000000000000000000000000815292931691637f8661a19161225891600401615764565b602060405180830381600087803b15801561227257600080fd5b505af1158015612286573d6000803e3d6000fd5b505050506040513d601f19601f820116820180604052508101906122aa9190614bbb565b9050600081131561233b5773ffffffffffffffffffffffffffffffffffffffff8516600090815260076020526040902081906122e69082614423565b508573ffffffffffffffffffffffffffffffffffffffff167f911c9f20a03edabcbcbd18dca1174cce47a91b234ced7a5a3c60ba0d5b56c5d28260405161232d9190615073565b60405180910390a2506123c9565b60008112156123c95773ffffffffffffffffffffffffffffffffffffffff8516600090815260076020526040812090829003906123789082614491565b508573ffffffffffffffffffffffffffffffffffffffff167f8f1f26eb9b6aa8689dbdd519ead1999d9c8819d4738e403b2003b18197d9cf97826040516123bf9190615073565b60405180910390a2505b8473ffffffffffffffffffffffffffffffffffffffff167f39aa22060f8dd4d291720311feedf3b72fef47c06c66ccf5c22b502c62e7550a84604001516040516124139190615764565b60405180910390a2505b73ffffffffffffffffffffffffffffffffffffffff808516600081815260086020908152604080832080548688167fffffffffffffffffffffffff0000000000000000000000000000000000000000918216179091558388528782018490528484526009909252808320805490921690915551928616927f03e6352a885adc4cc54767592939c3b1bbd65685658c3beaaba66a888120e2179190a35b5073ffffffffffffffffffffffffffffffffffffffff929092166000908152600a6020908152604091829020845181549286015193909501517fffffffffffffffffffffffffffffffffffffffffffffffff000000000000000090921667ffffffffffffffff958616177fffffffffffffffffffffffffffffffff0000000000000000ffffffffffffffff16680100000000000000009590931694909402919091176fffffffffffffffffffffffffffffffff90811670010000000000000000000000000000000091909216021790915550565b60005473ffffffffffffffffffffffffffffffffffffffff1633146125de576040517f08c379a0000000000000000000000000000000000000000000000000000000008152600401610677906153fe565b73ffffffffffffffffffffffffffffffffffffffff821661262b576040517f08c379a0000000000000000000000000000000000000000000000000000000008152600401610677906151a1565b73ffffffffffffffffffffffffffffffffffffffff82166000818152600460205260409081902080547fffffffffffffffffffffffffffffffffffffffffffffffffffffffffffffff0016841515179055517f31a1e0eac44b54ac6c2a2efa87e92c83405ffcf33fceef02a7bca695130e260090611607908490615068565b6040517fd505accf00000000000000000000000000000000000000000000000000000000815273ffffffffffffffffffffffffffffffffffffffff89169063d505accf90612708908a908a908a908a908a908a908a90600401614f5a565b600060405180830381600087803b15801561272257600080fd5b505af1158015612736573d6000803e3d6000fd5b505050505050505050505050565b60056020526000908152604090205481565b60005473ffffffffffffffffffffffffffffffffffffffff1681565b600360209081526000928352604080842090915290825290205460ff1681565b6000808573ffffffffffffffffffffffffffffffffffffffff811633148015906127d2575073ffffffffffffffffffffffffffffffffffffffff81163014155b156128a2573360009081526002602052604090205473ffffffffffffffffffffffffffffffffffffffff1680612834576040517f08c379a0000000000000000000000000000000000000000000000000000000008152600401610677906155b0565b73ffffffffffffffffffffffffffffffffffffffff80821660009081526003602090815260408083209386168352929052205460ff166128a0576040517f08c379a000000000000000000000000000000000000000000000000000000000815260040161067790615433565b505b73ffffffffffffffffffffffffffffffffffffffff86166128ef576040517f08c379a000000000000000000000000000000000000000000000000000000000815260040161067790615390565b600073ffffffffffffffffffffffffffffffffffffffff8916156129135788612935565b7f00000000000000000000000000000000000000000000000000000000000000005b905061293f614519565b5073ffffffffffffffffffffffffffffffffffffffff81166000908152600760209081526040918290208251808401909352546fffffffffffffffffffffffffffffffff80821684527001000000000000000000000000000000009091041690820152856129ba576129b381886001613c8b565b95506129c9565b6129c681876000613df1565b96505b73ffffffffffffffffffffffffffffffffffffffff8083166000908152600660209081526040808320938d1683529290522054612a069087613f78565b73ffffffffffffffffffffffffffffffffffffffff8084166000908152600660209081526040808320938e1683529290522055612a5f612a4588613d49565b82516fffffffffffffffffffffffffffffffff16906141d4565b6fffffffffffffffffffffffffffffffff168152612a9c612a7f87613d49565b60208301516fffffffffffffffffffffffffffffffff16906141d4565b6fffffffffffffffffffffffffffffffff16602082018190526103e8111580612ad9575060208101516fffffffffffffffffffffffffffffffff16155b612b0f576040517f08c379a000000000000000000000000000000000000000000000000000000000815260040161067790615246565b73ffffffffffffffffffffffffffffffffffffffff828116600090815260076020908152604090912083518154928501517fffffffffffffffffffffffffffffffff000000000000000000000000000000009093166fffffffffffffffffffffffffffffffff91821617811670010000000000000000000000000000000091909316029190911790558a16612ceb576040517f2e1a7d4d00000000000000000000000000000000000000000000000000000000815273ffffffffffffffffffffffffffffffffffffffff7f00000000000000000000000000000000000000000000000000000000000000001690632e1a7d4d90612c10908a90600401615073565b600060405180830381600087803b158015612c2a57600080fd5b505af1158015612c3e573d6000803e3d6000fd5b5050505060008873ffffffffffffffffffffffffffffffffffffffff1688604051612c6890614dc9565b60006040518083038185875af1925050503d8060008114612ca5576040519150601f19603f3d011682016040523d82523d6000602084013e612caa565b606091505b5050905080612ce5576040517f08c379a0000000000000000000000000000000000000000000000000000000008152600401610677906156c1565b50612d0c565b612d0c73ffffffffffffffffffffffffffffffffffffffff83168989614277565b8773ffffffffffffffffffffffffffffffffffffffff168973ffffffffffffffffffffffffffffffffffffffff168373ffffffffffffffffffffffffffffffffffffffff167fad9ab9ee6953d4d177f4a03b3a3ac3178ffcb9816319f348060194aa76b144868a8a604051610c709291906157dc565b3360008181526002602052604080822080547fffffffffffffffffffffffff00000000000000000000000000000000000000001684179055517fdfb44ffabf0d3a8f650d3ce43eff98f6d050e7ea1a396d5794f014e7dadabacb9190a2565b60026020526000908152604090205473ffffffffffffffffffffffffffffffffffffffff1681565b73ffffffffffffffffffffffffffffffffffffffff8516612e56576040517f08c379a000000000000000000000000000000000000000000000000000000000815260040161067790615579565b81158015612e62575080155b8015612e6f575060ff8316155b15612f865773ffffffffffffffffffffffffffffffffffffffff86163314612ec3576040517f08c379a0000000000000000000000000000000000000000000000000000000008152600401610677906151d8565b73ffffffffffffffffffffffffffffffffffffffff8681166000908152600260205260409020541615612f22576040517f08c379a0000000000000000000000000000000000000000000000000000000008152600401610677906154d6565b73ffffffffffffffffffffffffffffffffffffffff851660009081526004602052604090205460ff16612f81576040517f08c379a00000000000000000000000000000000000000000000000000000000081526004016106779061568a565b6131c3565b73ffffffffffffffffffffffffffffffffffffffff8616612fd3576040517f08c379a00000000000000000000000000000000000000000000000000000000081526004016106779061561c565b60006040518060400160405280600281526020017f190100000000000000000000000000000000000000000000000000000000000081525061301361147f565b7f1962bc9f5484cb7a998701b81090e966ee1fce5771af884cceee7c081b14ade28761305f577fb426802f1f7dc850a7b6b38805edea2442f3992878a9ab985abfe8091d95d0b1613081565b7f422ac5323fe049241dee67716229a1cc1bc7b313b23dfe3ef6d42ab177a3b2845b73ffffffffffffffffffffffffffffffffffffffff8b1660009081526005602090815260409182902080546001810190915591516130c89493928e928e928e92910161507c565b604051602081830303815290604052805190602001206040516020016130f093929190614da2565b60405160208183030381529060405280519060200120905060006001828686866040516000815260200160405260405161312d94939291906150ee565b6020604051602081039080840390855afa15801561314f573d6000803e3d6000fd5b5050506020604051035190508773ffffffffffffffffffffffffffffffffffffffff168173ffffffffffffffffffffffffffffffffffffffff16146131c0576040517f08c379a00000000000000000000000000000000000000000000000000000000081526004016106779061550d565b50505b73ffffffffffffffffffffffffffffffffffffffff8581166000818152600360209081526040808320948b16808452949091529081902080547fffffffffffffffffffffffffffffffffffffffffffffffffffffffffffffff0016881515179055517f5f6ebb64ba012a851c6f014e6cad458ddf213d1512049b31cd06365c2b05925790613252908890615068565b60405180910390a3505050505050565b6060808367ffffffffffffffff8111801561327c57600080fd5b506040519080825280602002602001820160405280156132a6578160200160208202803683370190505b5091508367ffffffffffffffff811180156132c057600080fd5b506040519080825280602002602001820160405280156132f457816020015b60608152602001906001900390816132df5790505b50905060005b8481101561340557600060603088888581811061331357fe5b90506020028101906133259190615835565b604051613333929190614d76565b600060405180830381855af49150503d806000811461336e576040519150601f19603f3d011682016040523d82523d6000602084013e613373565b606091505b50915091508180613382575085155b61338b826144b9565b906133c3576040517f08c379a00000000000000000000000000000000000000000000000000000000081526004016106779190615120565b50818584815181106133d157fe5b602002602001019015159081151581525050808484815181106133f057fe5b602090810291909101015250506001016132fa565b50935093915050565b73ffffffffffffffffffffffffffffffffffffffff831660009081526007602090815260408083208151808301909252546fffffffffffffffffffffffffffffffff808216835270010000000000000000000000000000000090910416918101919091526117cc908484613c8b565b600a6020526000908152604090205467ffffffffffffffff808216916801000000000000000081049091169070010000000000000000000000000000000090046fffffffffffffffffffffffffffffffff1683565b60015473ffffffffffffffffffffffffffffffffffffffff1681565b6000620186a06134ff856032614226565b8161350657fe5b04905061352a73ffffffffffffffffffffffffffffffffffffffff86168786614277565b6040517f23e30c8b00000000000000000000000000000000000000000000000000000000815273ffffffffffffffffffffffffffffffffffffffff8816906323e30c8b906135869033908990899087908a908a90600401614ed7565b600060405180830381600087803b1580156135a057600080fd5b505af11580156135b4573d6000803e3d6000fd5b505050506136016135c482613d49565b73ffffffffffffffffffffffffffffffffffffffff87166000908152600760205260409020906fffffffffffffffffffffffffffffffff16614423565b61360a86613e94565b1015613642576040517f08c379a000000000000000000000000000000000000000000000000000000000815260040161067790615653565b8573ffffffffffffffffffffffffffffffffffffffff168573ffffffffffffffffffffffffffffffffffffffff168873ffffffffffffffffffffffffffffffffffffffff167f3be9b85936d5d30a1655ea116a17ee3d827b2cd428cc026ce5bf2ac46a22320487856040516136b89291906157dc565b60405180910390a450505050505050565b8273ffffffffffffffffffffffffffffffffffffffff81163314801590613706575073ffffffffffffffffffffffffffffffffffffffff81163014155b156137d6573360009081526002602052604090205473ffffffffffffffffffffffffffffffffffffffff1680613768576040517f08c379a0000000000000000000000000000000000000000000000000000000008152600401610677906155b0565b73ffffffffffffffffffffffffffffffffffffffff80821660009081526003602090815260408083209386168352929052205460ff166137d4576040517f08c379a000000000000000000000000000000000000000000000000000000000815260040161067790615433565b505b73ffffffffffffffffffffffffffffffffffffffff8316613823576040517f08c379a000000000000000000000000000000000000000000000000000000000815260040161067790615390565b73ffffffffffffffffffffffffffffffffffffffff8086166000908152600660209081526040808320938816835292905220546138609083613f78565b73ffffffffffffffffffffffffffffffffffffffff8681166000908152600660209081526040808320898516845290915280822093909355908516815220546138a99083613fb5565b73ffffffffffffffffffffffffffffffffffffffff80871660008181526006602090815260408083208986168085529252918290209490945551918716917f6eabe333476233fd382224f233210cb808a7bc4c4de64f9d76628bf63c677b1a90613914908790615073565b60405180910390a45050505050565b60608567ffffffffffffffff8111801561393c57600080fd5b50604051908082528060200260200182016040528015613966578160200160208202803683370190505b5090508560005b81811015613a4257600087878381811061398357fe5b905060200201359050620186a06139a460328361422690919063ffffffff16565b816139ab57fe5b048483815181106139b857fe5b602002602001018181525050613a398c8c848181106139d357fe5b90506020020160208101906139e891906145f5565b8989858181106139f457fe5b905060200201358c8c86818110613a0757fe5b9050602002016020810190613a1c91906145f5565b73ffffffffffffffffffffffffffffffffffffffff169190614277565b5060010161396d565b506040517fd9d1762300000000000000000000000000000000000000000000000000000000815273ffffffffffffffffffffffffffffffffffffffff8c169063d9d1762390613aa39033908c908c908c908c908a908d908d90600401614ded565b600060405180830381600087803b158015613abd57600080fd5b505af1158015613ad1573d6000803e3d6000fd5b5050505060005b81811015612736576000898983818110613aee57fe5b9050602002016020810190613b0391906145f5565b9050613b61613b24858481518110613b1757fe5b6020026020010151613d49565b73ffffffffffffffffffffffffffffffffffffffff83166000908152600760205260409020906fffffffffffffffffffffffffffffffff16614423565b613b6a82613e94565b1015613ba2576040517f08c379a000000000000000000000000000000000000000000000000000000000815260040161067790615653565b8b8b83818110613bae57fe5b9050602002016020810190613bc391906145f5565b73ffffffffffffffffffffffffffffffffffffffff168173ffffffffffffffffffffffffffffffffffffffff168e73ffffffffffffffffffffffffffffffffffffffff167f3be9b85936d5d30a1655ea116a17ee3d827b2cd428cc026ce5bf2ac46a2232048b8b87818110613c3457fe5b90506020020135888781518110613c4757fe5b6020026020010151604051613c5d9291906157dc565b60405180910390a450600101613ad8565b600660209081526000928352604080842090915290825290205481565b82516000906fffffffffffffffffffffffffffffffff16613cad575081613d42565b835160208501516fffffffffffffffffffffffffffffffff91821691613cd591869116614226565b81613cdc57fe5b049050818015613d3257508284602001516fffffffffffffffffffffffffffffffff16613d2886600001516fffffffffffffffffffffffffffffffff168461422690919063ffffffff16565b81613d2f57fe5b04105b15613d42576117cc816001613fb5565b9392505050565b60006fffffffffffffffffffffffffffffffff821115613d95576040517f08c379a0000000000000000000000000000000000000000000000000000000008152600401610677906152eb565b5090565b8181016fffffffffffffffffffffffffffffffff8083169082161015613deb576040517f08c379a000000000000000000000000000000000000000000000000000000000815260040161067790615322565b92915050565b600083602001516fffffffffffffffffffffffffffffffff1660001415613e19575081613d42565b602084015184516fffffffffffffffffffffffffffffffff91821691613e4191869116614226565b81613e4857fe5b049050818015613d3257508284600001516fffffffffffffffffffffffffffffffff16613d2886602001516fffffffffffffffffffffffffffffffff168461422690919063ffffffff16565b73ffffffffffffffffffffffffffffffffffffffff81166000818152600a60205260408082205490517f70a082310000000000000000000000000000000000000000000000000000000081529192613deb927001000000000000000000000000000000009092046fffffffffffffffffffffffffffffffff16916370a0823190613f22903090600401614dcc565b60206040518083038186803b158015613f3a57600080fd5b505afa158015613f4e573d6000803e3d6000fd5b505050506040513d601f19601f82011682018060405250810190613f729190614bbb565b90613fb5565b80820382811115613deb576040517f08c379a000000000000000000000000000000000000000000000000000000000815260040161067790615133565b81810181811015613deb576040517f08c379a000000000000000000000000000000000000000000000000000000000815260040161067790615322565b600060608573ffffffffffffffffffffffffffffffffffffffff166323b872dd60e01b86868660405160240161402a93929190614f29565b604080517fffffffffffffffffffffffffffffffffffffffffffffffffffffffffffffffe08184030181529181526020820180517bffffffffffffffffffffffffffffffffffffffffffffffffffffffff167fffffffff000000000000000000000000000000000000000000000000000000009094169390931790925290516140b39190614d86565b6000604051808303816000865af19150503d80600081146140f0576040519150601f19603f3d011682016040523d82523d6000602084013e6140f5565b606091505b509150915081801561411f57508051158061411f57508080602001905181019061411f91906147dc565b614155576040517f08c379a0000000000000000000000000000000000000000000000000000000008152600401610677906155e7565b505050505050565b60007f8cad95687ba82c2ce50e74f7b754645e5117c3a5bec8151c0726d5857980a8667fd7df266aff736d415a9dc14b4158201d612e70d75b9c7f4e375ccfd20aa5166f83306040516020016141b694939291906150bd565b6040516020818303038152906040528051906020012090505b919050565b8082036fffffffffffffffffffffffffffffffff8084169082161115613deb576040517f08c379a000000000000000000000000000000000000000000000000000000000815260040161067790615133565b60008115806142415750508082028282828161423e57fe5b04145b613deb576040517f08c379a0000000000000000000000000000000000000000000000000000000008152600401610677906156f8565b600060608473ffffffffffffffffffffffffffffffffffffffff1663a9059cbb60e01b85856040516024016142ad929190614fa8565b604080517fffffffffffffffffffffffffffffffffffffffffffffffffffffffffffffffe08184030181529181526020820180517bffffffffffffffffffffffffffffffffffffffffffffffffffffffff167fffffffff000000000000000000000000000000000000000000000000000000009094169390931790925290516143369190614d86565b6000604051808303816000865af19150503d8060008114614373576040519150601f19603f3d011682016040523d82523d6000602084013e614378565b606091505b50915091508180156143a25750805115806143a25750808060200190518101906143a291906147dc565b6143d8576040517f08c379a00000000000000000000000000000000000000000000000000000000081526004016106779061520f565b5050505050565b600067ffffffffffffffff821115613d95576040517f08c379a00000000000000000000000000000000000000000000000000000000081526004016106779061549f565b600061444b61443183613d49565b84546fffffffffffffffffffffffffffffffff1690613d99565b83547fffffffffffffffffffffffffffffffff00000000000000000000000000000000166fffffffffffffffffffffffffffffffff919091169081179093555090919050565b600061444b61449f83613d49565b84546fffffffffffffffffffffffffffffffff16906141d4565b60606044825110156144ff575060408051808201909152601d81527f5472616e73616374696f6e2072657665727465642073696c656e746c7900000060208201526141cf565b60048201915081806020019051810190613deb9190614bd3565b604080518082019091526000808252602082015290565b604080516060810182526000808252602082018190529181019190915290565b60008083601f840112614561578182fd5b50813567ffffffffffffffff811115614578578182fd5b602083019150836020808302850101111561459257600080fd5b9250929050565b60008083601f8401126145aa578182fd5b50813567ffffffffffffffff8111156145c1578182fd5b60208301915083602082850101111561459257600080fd5b8035613deb816158d4565b803560ff81168114613deb57600080fd5b600060208284031215614606578081fd5b8135613d42816158d4565b60008060408385031215614623578081fd5b823561462e816158d4565b9150602083013561463e816158d4565b809150509250929050565b60008060008060008060c08789031215614661578182fd5b863561466c816158d4565b9550602087013561467c816158d4565b9450604087013561468c816158f9565b935061469b88606089016145e4565b92506080870135915060a087013590509295509295509295565b600080604083850312156146c7578182fd5b82356146d2816158d4565b9150602083013561463e816158f9565b6000806000606084860312156146f6578283fd5b8335614701816158d4565b92506020840135614711816158f9565b91506040840135614721816158f9565b809150509250925092565b60008060008060608587031215614741578384fd5b843561474c816158d4565b9350602085013567ffffffffffffffff811115614767578384fd5b61477387828801614599565b9094509250506040850135614787816158f9565b939692955090935050565b6000806000604084860312156147a6578081fd5b833567ffffffffffffffff8111156147bc578182fd5b6147c886828701614550565b9094509250506020840135614721816158f9565b6000602082840312156147ed578081fd5b8151613d42816158f9565b600080600080600080600080600060a08a8c031215614815578687fd5b8935614820816158d4565b985060208a013567ffffffffffffffff8082111561483c578889fd5b6148488d838e01614550565b909a50985060408c0135915080821115614860578485fd5b61486c8d838e01614550565b909850965060608c0135915080821115614884578485fd5b6148908d838e01614550565b909650945060808c01359150808211156148a8578384fd5b506148b58c828d01614599565b915080935050809150509295985092959850929598565b60008060408385031215614623578182fd5b600080600080608085870312156148f3578182fd5b84356148fe816158d4565b9350602085013561490e816158d4565b9250604085013561491e816158d4565b9396929550929360600135925050565b600080600080600060a08688031215614945578283fd5b8535614950816158d4565b94506020860135614960816158d4565b93506040860135614970816158d4565b94979396509394606081013594506080013592915050565b600080600080600080600080610100898b0312156149a4578182fd5b88356149af816158d4565b975060208901356149bf816158d4565b965060408901356149cf816158d4565b955060608901359450608089013593506149ec8a60a08b016145e4565b925060c0890135915060e089013590509295985092959890939650565b60008060008060008060808789031215614a21578384fd5b8635614a2c816158d4565b95506020870135614a3c816158d4565b9450604087013567ffffffffffffffff80821115614a58578586fd5b614a648a838b01614550565b90965094506060890135915080821115614a7c578384fd5b50614a8989828a01614550565b979a9699509497509295939492505050565b600080600060608486031215614aaf578081fd5b8335614aba816158d4565b92506020840135614aca816158f9565b929592945050506040919091013590565b600080600060608486031215614aef578081fd5b8335614afa816158d4565b9250602084013591506040840135614721816158f9565b60008060408385031215614b23578182fd5b8235614b2e816158d4565b9150602083013567ffffffffffffffff8116811461463e578182fd5b60008060008060008060a08789031215614b62578384fd5b8635614b6d816158d4565b95506020870135614b7d816158d4565b94506040870135614b8d816158d4565b935060608701359250608087013567ffffffffffffffff811115614baf578283fd5b614a8989828a01614599565b600060208284031215614bcc578081fd5b5051919050565b600060208284031215614be4578081fd5b815167ffffffffffffffff80821115614bfb578283fd5b818401915084601f830112614c0e578283fd5b815181811115614c1c578384fd5b60405160207fffffffffffffffffffffffffffffffffffffffffffffffffffffffffffffffe0601f8401168201018181108482111715614c5a578586fd5b604052818152838201602001871015614c71578485fd5b614c828260208301602087016158a4565b9695505050505050565b73ffffffffffffffffffffffffffffffffffffffff16815260200190565b6000815180845260208085019450808401835b83811015614cd957815187529582019590820190600101614cbd565b509495945050505050565b600082845282826020860137806020848601015260207fffffffffffffffffffffffffffffffffffffffffffffffffffffffffffffffe0601f85011685010190509392505050565b60008151808452614d448160208601602086016158a4565b601f017fffffffffffffffffffffffffffffffffffffffffffffffffffffffffffffffe0169290920160200192915050565b6000828483379101908152919050565b60008251614d988184602087016158a4565b9190910192915050565b60008451614db48184602089016158a4565b91909101928352506020820152604001919050565b90565b73ffffffffffffffffffffffffffffffffffffffff91909116815260200190565b600060a0820173ffffffffffffffffffffffffffffffffffffffff8b168352602060a08185015281614e1f8b84615073565b90508b9250835b8b811015614e5157828401614e4483614e3f83886145d9565b614c8c565b9094509150600101614e26565b508481036040860152614e648982615073565b9250507f07ffffffffffffffffffffffffffffffffffffffffffffffffffffffffffffff881115614e93578283fd5b8702614ea081838b615898565b018281036060840152614eb38187614caa565b90508281036080840152614ec8818587614ce4565b9b9a5050505050505050505050565b600073ffffffffffffffffffffffffffffffffffffffff808916835280881660208401525085604083015284606083015260a06080830152614f1d60a083018486614ce4565b98975050505050505050565b73ffffffffffffffffffffffffffffffffffffffff9384168152919092166020820152604081019190915260600190565b73ffffffffffffffffffffffffffffffffffffffff97881681529590961660208601526040850193909352606084019190915260ff16608083015260a082015260c081019190915260e00190565b73ffffffffffffffffffffffffffffffffffffffff929092168252602082015260400190565b604080825283519082018190526000906020906060840190828701845b82811015615009578151151584529284019290840190600101614feb565b505050838103828501528085516150208184615073565b91508192508381028201848801865b83811015615059578583038552615047838351614d2c565b9487019492509086019060010161502f565b50909998505050505050505050565b901515815260200190565b90815260200190565b958652602086019490945273ffffffffffffffffffffffffffffffffffffffff9283166040860152911660608401521515608083015260a082015260c00190565b9384526020840192909252604083015273ffffffffffffffffffffffffffffffffffffffff16606082015260800190565b93845260ff9290921660208401526040830152606082015260800190565b6000602082526117cc602083018486614ce4565b600060208252613d426020830184614d2c565b60208082526015908201527f426f72696e674d6174683a20556e646572666c6f770000000000000000000000604082015260600190565b60208082526017908201527f42656e746f426f783a20536b696d20746f6f206d756368000000000000000000604082015260600190565b6020808252601c908201527f4d6173746572434d67723a2043616e6e6f7420617070726f7665203000000000604082015260600190565b6020808252601b908201527f4d6173746572434d67723a2075736572206e6f742073656e6465720000000000604082015260600190565b6020808252601c908201527f426f72696e6745524332303a205472616e73666572206661696c656400000000604082015260600190565b60208082526016908201527f42656e746f426f783a2063616e6e6f7420656d70747900000000000000000000604082015260600190565b60208082526015908201527f4f776e61626c653a207a65726f20616464726573730000000000000000000000604082015260600190565b60208082526013908201527f42656e746f426f783a204e6f20746f6b656e7300000000000000000000000000604082015260600190565b6020808252601c908201527f426f72696e674d6174683a2075696e74313238204f766572666c6f7700000000604082015260600190565b60208082526018908201527f426f72696e674d6174683a20416464204f766572666c6f770000000000000000604082015260600190565b60208082526017908201527f42656e746f426f783a20746f5b305d206e6f7420736574000000000000000000604082015260600190565b60208082526014908201527f42656e746f426f783a20746f206e6f7420736574000000000000000000000000604082015260600190565b6020808252601a908201527f53747261746567794d616e616765723a20546f6f206561726c79000000000000604082015260600190565b6020808252818101527f4f776e61626c653a2063616c6c6572206973206e6f7420746865206f776e6572604082015260600190565b6020808252601f908201527f42656e746f426f783a205472616e73666572206e6f7420617070726f76656400604082015260600190565b6020808252818101527f4f776e61626c653a2063616c6c657220213d2070656e64696e67206f776e6572604082015260600190565b6020808252601b908201527f426f72696e674d6174683a2075696e743634204f766572666c6f770000000000604082015260600190565b60208082526019908201527f4d6173746572434d67723a207573657220697320636c6f6e6500000000000000604082015260600190565b6020808252601d908201527f4d6173746572434d67723a20496e76616c6964205369676e6174757265000000604082015260600190565b6020808252818101527f426f72696e67466163746f72793a204e6f206d6173746572436f6e7472616374604082015260600190565b6020808252601b908201527f4d6173746572434d67723a206d617374657243206e6f74207365740000000000604082015260600190565b6020808252601b908201527f42656e746f426f783a206e6f206d6173746572436f6e74726163740000000000604082015260600190565b6020808252818101527f426f72696e6745524332303a205472616e7366657246726f6d206661696c6564604082015260600190565b6020808252601c908201527f4d6173746572434d67723a20557365722063616e6e6f74206265203000000000604082015260600190565b60208082526016908201527f42656e746f426f783a2057726f6e6720616d6f756e7400000000000000000000604082015260600190565b6020808252601b908201527f4d6173746572434d67723a206e6f742077686974656c69737465640000000000604082015260600190565b6020808252601d908201527f42656e746f426f783a20455448207472616e73666572206661696c6564000000604082015260600190565b60208082526018908201527f426f72696e674d6174683a204d756c204f766572666c6f770000000000000000604082015260600190565b6020808252818101527f53747261746567794d616e616765723a2054617267657420746f6f2068696768604082015260600190565b6fffffffffffffffffffffffffffffffff91909116815260200190565b6fffffffffffffffffffffffffffffffff92909216825273ffffffffffffffffffffffffffffffffffffffff16602082015260400190565b6fffffffffffffffffffffffffffffffff92831681529116602082015260400190565b918252602082015260400190565b67ffffffffffffffff91909116815260200190565b67ffffffffffffffff93841681529190921660208201526fffffffffffffffffffffffffffffffff909116604082015260600190565b60008083357fffffffffffffffffffffffffffffffffffffffffffffffffffffffffffffffe1843603018112615869578283fd5b83018035915067ffffffffffffffff821115615883578283fd5b60200191503681900382131561459257600080fd5b82818337506000910152565b60005b838110156158bf5781810151838201526020016158a7565b838111156158ce576000848401525b50505050565b73ffffffffffffffffffffffffffffffffffffffff811681146158f657600080fd5b50565b80151581146158f657600080fdfea2646970667358221220e612c29141e7f0fa996965c01422e2d21d2c416986396d5b72b1994a4abe316364736f6c634300060c0033"
}