{
  "address": "0x2612c7a5fDAF8Dea4f4D6C7A9da8e32A003706F6",
  "abi": [
    {
      "inputs": [
        {
          "internalType": "contract Cauldron[]",
          "name": "bentoBoxCauldronsV2_",
          "type": "address[]"
        },
        {
          "internalType": "contract CauldronV1[]",
          "name": "bentoBoxCauldronsV1_",
          "type": "address[]"
        },
        {
          "internalType": "contract Cauldron[]",
          "name": "degenBoxCauldrons_",
          "type": "address[]"
        }
      ],
      "stateMutability": "nonpayable",
      "type": "constructor"
    },
    {
      "anonymous": false,
      "inputs": [
        {
          "indexed": false,
          "internalType": "uint256",
          "name": "bentoxBoxAmount",
          "type": "uint256"
        },
        {
          "indexed": false,
          "internalType": "uint256",
          "name": "degenBoxAmount",
          "type": "uint256"
        },
        {
          "indexed": false,
          "internalType": "uint256",
          "name": "total",
          "type": "uint256"
        }
      ],
      "name": "MimWithdrawn",
      "type": "event"
    },
    {
      "anonymous": false,
      "inputs": [
        {
          "indexed": true,
          "internalType": "address",
          "name": "previousOwner",
          "type": "address"
        },
        {
          "indexed": true,
          "internalType": "address",
          "name": "newOwner",
          "type": "address"
        }
      ],
      "name": "OwnershipTransferred",
      "type": "event"
    },
    {
      "anonymous": false,
      "inputs": [
        {
          "indexed": false,
          "internalType": "uint256",
          "name": "amountSushiswap",
          "type": "uint256"
        },
        {
          "indexed": false,
          "internalType": "uint256",
          "name": "amountUniswap",
          "type": "uint256"
        },
        {
          "indexed": false,
          "internalType": "uint256",
          "name": "total",
          "type": "uint256"
        }
      ],
      "name": "SwappedMimToSpell",
      "type": "event"
    },
    {
      "inputs": [],
      "name": "BENTOBOX",
      "outputs": [
        {
          "internalType": "contract IBentoBoxV1",
          "name": "",
          "type": "address"
        }
      ],
      "stateMutability": "view",
      "type": "function"
    },
    {
      "inputs": [],
      "name": "DEGENBOX",
      "outputs": [
        {
          "internalType": "contract IBentoBoxV1",
          "name": "",
          "type": "address"
        }
      ],
      "stateMutability": "view",
      "type": "function"
    },
    {
      "inputs": [],
      "name": "MIM",
      "outputs": [
        {
          "internalType": "contract IERC20",
          "name": "",
          "type": "address"
        }
      ],
      "stateMutability": "view",
      "type": "function"
    },
    {
      "inputs": [],
      "name": "MIM3POOL",
      "outputs": [
        {
          "internalType": "contract CurvePool",
          "name": "",
          "type": "address"
        }
      ],
      "stateMutability": "view",
      "type": "function"
    },
    {
      "inputs": [],
      "name": "MIM_PROVIDER",
      "outputs": [
        {
          "internalType": "address",
          "name": "",
          "type": "address"
        }
      ],
      "stateMutability": "view",
      "type": "function"
    },
    {
      "inputs": [],
      "name": "SPELL",
      "outputs": [
        {
          "internalType": "address",
          "name": "",
          "type": "address"
        }
      ],
      "stateMutability": "view",
      "type": "function"
    },
    {
      "inputs": [],
      "name": "THREECRYPTO",
      "outputs": [
        {
          "internalType": "contract CurvePool",
          "name": "",
          "type": "address"
        }
      ],
      "stateMutability": "view",
      "type": "function"
    },
    {
      "inputs": [],
      "name": "TREASURY",
      "outputs": [
        {
          "internalType": "address",
          "name": "",
          "type": "address"
        }
      ],
      "stateMutability": "view",
      "type": "function"
    },
    {
      "inputs": [],
      "name": "USDT",
      "outputs": [
        {
          "internalType": "contract IERC20",
          "name": "",
          "type": "address"
        }
      ],
      "stateMutability": "view",
      "type": "function"
    },
    {
      "inputs": [],
      "name": "WETH",
      "outputs": [
        {
          "internalType": "contract IERC20",
          "name": "",
          "type": "address"
        }
      ],
      "stateMutability": "view",
      "type": "function"
    },
    {
      "inputs": [
        {
          "internalType": "contract Cauldron",
          "name": "pool",
          "type": "address"
        }
      ],
      "name": "addPool",
      "outputs": [],
      "stateMutability": "nonpayable",
      "type": "function"
    },
    {
      "inputs": [
        {
          "internalType": "contract CauldronV1",
          "name": "pool",
          "type": "address"
        }
      ],
      "name": "addPoolV1",
      "outputs": [],
      "stateMutability": "nonpayable",
      "type": "function"
    },
    {
      "inputs": [
        {
          "internalType": "contract Cauldron[]",
          "name": "pools",
          "type": "address[]"
        }
      ],
      "name": "addPools",
      "outputs": [],
      "stateMutability": "nonpayable",
      "type": "function"
    },
    {
      "inputs": [
        {
          "internalType": "uint256",
          "name": "",
          "type": "uint256"
        }
      ],
      "name": "bentoBoxCauldronsV1",
      "outputs": [
        {
          "internalType": "contract CauldronV1",
          "name": "",
          "type": "address"
        }
      ],
      "stateMutability": "view",
      "type": "function"
    },
    {
      "inputs": [
        {
          "internalType": "uint256",
          "name": "",
          "type": "uint256"
        }
      ],
      "name": "bentoBoxCauldronsV2",
      "outputs": [
        {
          "internalType": "contract Cauldron",
          "name": "",
          "type": "address"
        }
      ],
      "stateMutability": "view",
      "type": "function"
    },
    {
      "inputs": [],
      "name": "claimOwnership",
      "outputs": [],
      "stateMutability": "nonpayable",
      "type": "function"
    },
    {
      "inputs": [
        {
          "internalType": "uint256",
          "name": "",
          "type": "uint256"
        }
      ],
      "name": "degenBoxCauldrons",
      "outputs": [
        {
          "internalType": "contract Cauldron",
          "name": "",
          "type": "address"
        }
      ],
      "stateMutability": "view",
      "type": "function"
    },
    {
      "inputs": [],
      "name": "owner",
      "outputs": [
        {
          "internalType": "address",
          "name": "",
          "type": "address"
        }
      ],
      "stateMutability": "view",
      "type": "function"
    },
    {
      "inputs": [],
      "name": "pendingOwner",
      "outputs": [
        {
          "internalType": "address",
          "name": "",
          "type": "address"
        }
      ],
      "stateMutability": "view",
      "type": "function"
    },
    {
      "inputs": [
        {
          "internalType": "contract IERC20",
          "name": "token",
          "type": "address"
        },
        {
          "internalType": "address",
          "name": "to",
          "type": "address"
        },
        {
          "internalType": "uint256",
          "name": "amount",
          "type": "uint256"
        }
      ],
      "name": "rescueTokens",
      "outputs": [],
      "stateMutability": "nonpayable",
      "type": "function"
    },
    {
      "inputs": [],
      "name": "sSPELL",
      "outputs": [
        {
          "internalType": "address",
          "name": "",
          "type": "address"
        }
      ],
      "stateMutability": "view",
      "type": "function"
    },
    {
      "inputs": [
        {
          "internalType": "address",
          "name": "operator",
          "type": "address"
        },
        {
          "internalType": "bool",
          "name": "status",
          "type": "bool"
        }
      ],
      "name": "setVerified",
      "outputs": [],
      "stateMutability": "nonpayable",
      "type": "function"
    },
    {
      "inputs": [
        {
          "internalType": "uint256",
          "name": "amountSwapOnSushi",
          "type": "uint256"
        },
        {
          "internalType": "uint256",
          "name": "amountSwapOnUniswap",
          "type": "uint256"
        },
        {
          "internalType": "uint256",
          "name": "minAmountOutOnSushi",
          "type": "uint256"
        },
        {
          "internalType": "uint256",
          "name": "minAmountOutOnUniswap",
          "type": "uint256"
        },
        {
          "internalType": "bool",
          "name": "autoDepositToSSpell",
          "type": "bool"
        }
      ],
      "name": "swapMimForSpell",
      "outputs": [],
      "stateMutability": "nonpayable",
      "type": "function"
    },
    {
      "inputs": [
        {
          "internalType": "address",
          "name": "inchrouter",
          "type": "address"
        },
        {
          "internalType": "bytes",
          "name": "data",
          "type": "bytes"
        }
      ],
      "name": "swapMimForSpell1Inch",
      "outputs": [],
      "stateMutability": "nonpayable",
      "type": "function"
    },
    {
      "inputs": [
        {
          "internalType": "address",
          "name": "newOwner",
          "type": "address"
        },
        {
          "internalType": "bool",
          "name": "direct",
          "type": "bool"
        },
        {
          "internalType": "bool",
          "name": "renounce",
          "type": "bool"
        }
      ],
      "name": "transferOwnership",
      "outputs": [],
      "stateMutability": "nonpayable",
      "type": "function"
    },
    {
      "inputs": [
        {
          "internalType": "address",
          "name": "",
          "type": "address"
        }
      ],
      "name": "verified",
      "outputs": [
        {
          "internalType": "bool",
          "name": "",
          "type": "bool"
        }
      ],
      "stateMutability": "view",
      "type": "function"
    },
    {
      "inputs": [],
      "name": "withdraw",
      "outputs": [],
      "stateMutability": "nonpayable",
      "type": "function"
    },
    {
      "inputs": [
        {
          "internalType": "uint256",
          "name": "amountBentoboxShare",
          "type": "uint256"
        },
        {
          "internalType": "uint256",
          "name": "amountDegenBoxShare",
          "type": "uint256"
        }
      ],
      "name": "withdrawFromBentoBoxes",
      "outputs": [],
      "stateMutability": "nonpayable",
      "type": "function"
    }
  ],
  "transactionHash": "0x6425fa4b97a6eb4b097df530738f698db996101ae8ab89101bf69e6aa747178d",
  "args": [
    [
      "0xc1879bf24917ebE531FbAA20b0D05Da027B592ce",
      "0x7b7473a76d6ae86ce19f7352a1e89f6c9dc39020",
      "0x920D9BD936Da4eAFb5E25c6bDC9f6CB528953F9f",
      "0x806e16ec797c69afa8590A55723CE4CC1b54050E",
      "0x6371EfE5CD6e3d2d7C477935b7669401143b7985",
      "0x257101F20cB7243E2c7129773eD5dBBcef8B34E0",
      "0x35a0Dd182E4bCa59d5931eae13D0A2332fA30321",
      "0x4EAeD76C3A388f4a841E9c765560BBe7B3E4B3A0",
      "0x05500e2Ee779329698DF35760bEdcAAC046e7C27",
      "0x9617b633EF905860D919b88E1d9d9a6191795341",
      "0x252dCf1B621Cc53bc22C256255d2bE5C8c32EaE4",
      "0x3410297D89dCDAf4072B805EFc1ef701Bb3dd9BF",
      "0xc319eea1e792577c319723b5e60a15da3857e7da",
      "0x003d5A75d284824Af736df51933be522DE9Eed0f",
      "0x98a84EfF6e008c5ed0289655CcdCa899bcb6B99F",
      "0xEBfDe87310dc22404d918058FAa4D56DC4E93f0A",
      "0x0BCa8ebcB26502b013493Bf8fE53aA2B1ED401C1"
    ],
    [
      "0x551a7CfF4de931F32893c928bBc3D25bF1Fc5147",
      "0x6Ff9061bB8f97d948942cEF376d98b51fA38B91f",
      "0xFFbF4892822e0d552CFF317F65e1eE7b5D3d9aE6",
      "0x6cbAFEE1FaB76cA5B5e144c43B3B50d42b7C8c8f",
      "0xbb02A884621FB8F5BFd263A67F58B65df5b090f3"
    ],
    [
      "0xCfc571f3203756319c231d3Bc643Cee807E74636",
      "0xbc36FdE44A7FD8f545d459452EF9539d7A14dd63",
      "0x59E9082E068Ddb27FC5eF1690F9a9f22B32e573f"
    ]
  ],
  "solcInputHash": "2cce61343d31120f9e912cb069458f70",
  "bytecode": "0x60806040523480156200001157600080fd5b506040516200696338038062006963833981810160405281019062000037919062000bed565b336000806101000a81548173ffffffffffffffffffffffffffffffffffffffff021916908373ffffffffffffffffffffffffffffffffffffffff1602179055503373ffffffffffffffffffffffffffffffffffffffff16600073ffffffffffffffffffffffffffffffffffffffff167f8be0079c531659141344cd1fd0a4f28419497f9722a3daafe3b4186f6b6457e060405160405180910390a38260039080519060200190620000ea92919062000793565b5081600290805190602001906200010392919062000822565b5080600490805190602001906200011c92919062000793565b507399d8a9c45b2eca8864373a26d1459e3dff1e17f373ffffffffffffffffffffffffffffffffffffffff1663095ea7b3735a6a4d54456819380173272a5e8e9b9904bdf41b7fffffffffffffffffffffffffffffffffffffffffffffffffffffffffffffffff6040518363ffffffff1660e01b8152600401620001a292919062000cd2565b6020604051808303816000875af1158015620001c2573d6000803e3d6000fd5b505050506040513d601f19601f82011682018060405250810190620001e8919062000d3c565b5073c02aaa39b223fe8d0a0e5c4f27ead9083c756cc273ffffffffffffffffffffffffffffffffffffffff1663095ea7b373e592427a0aece92de3edee1f18e0157c058615647fffffffffffffffffffffffffffffffffffffffffffffffffffffffffffffffff6040518363ffffffff1660e01b81526004016200026e92919062000cd2565b6020604051808303816000875af11580156200028e573d6000803e3d6000fd5b505050506040513d601f19601f82011682018060405250810190620002b4919062000d3c565b506200032f73d51a44d3fae010294c616388b506acda1bfaae467fffffffffffffffffffffffffffffffffffffffffffffffffffffffffffffffff73dac17f958d2ee523a2206206994597c13d831ec773ffffffffffffffffffffffffffffffffffffffff166200039060201b62002fb6179092919060201c565b6001600560003373ffffffffffffffffffffffffffffffffffffffff1673ffffffffffffffffffffffffffffffffffffffff16815260200190815260200160002060006101000a81548160ff02191690831515021790555050505062001155565b600081148062000420575060008373ffffffffffffffffffffffffffffffffffffffff1663dd62ed3e30856040518363ffffffff1660e01b8152600401620003da92919062000d6e565b602060405180830381865afa158015620003f8573d6000803e3d6000fd5b505050506040513d601f19601f820116820180604052508101906200041e919062000dcc565b145b62000462576040517f08c379a0000000000000000000000000000000000000000000000000000000008152600401620004599062000e85565b60405180910390fd5b620004ed8363095ea7b360e01b84846040516024016200048492919062000cd2565b604051602081830303815290604052907bffffffffffffffffffffffffffffffffffffffffffffffffffffffff19166020820180517bffffffffffffffffffffffffffffffffffffffffffffffffffffffff8381831617835250505050620004f260201b60201c565b505050565b60006200055b826040518060400160405280602081526020017f5361666545524332303a206c6f772d6c6576656c2063616c6c206661696c65648152508573ffffffffffffffffffffffffffffffffffffffff16620005c660201b62003105179092919060201c565b9050600081511115620005c157808060200190518101906200057e919062000d3c565b620005c0576040517f08c379a0000000000000000000000000000000000000000000000000000000008152600401620005b79062000f1d565b60405180910390fd5b5b505050565b6060620005dd8484600085620005e660201b60201c565b90509392505050565b6060824710156200062e576040517f08c379a0000000000000000000000000000000000000000000000000000000008152600401620006259062000fb5565b60405180910390fd5b6200063f856200071460201b60201c565b62000681576040517f08c379a0000000000000000000000000000000000000000000000000000000008152600401620006789062001027565b60405180910390fd5b6000808673ffffffffffffffffffffffffffffffffffffffff168587604051620006ac9190620010cc565b60006040518083038185875af1925050503d8060008114620006eb576040519150601f19603f3d011682016040523d82523d6000602084013e620006f0565b606091505b5091509150620007088282866200072760201b60201c565b92505050949350505050565b600080823b905060008111915050919050565b6060831562000739578290506200078c565b6000835111156200074d5782518084602001fd5b816040517f08c379a000000000000000000000000000000000000000000000000000000000815260040162000783919062001131565b60405180910390fd5b9392505050565b8280548282559060005260206000209081019282156200080f579160200282015b828111156200080e5782518260006101000a81548173ffffffffffffffffffffffffffffffffffffffff021916908373ffffffffffffffffffffffffffffffffffffffff16021790555091602001919060010190620007b4565b5b5090506200081e9190620008b1565b5090565b8280548282559060005260206000209081019282156200089e579160200282015b828111156200089d5782518260006101000a81548173ffffffffffffffffffffffffffffffffffffffff021916908373ffffffffffffffffffffffffffffffffffffffff1602179055509160200191906001019062000843565b5b509050620008ad9190620008b1565b5090565b5b80821115620008cc576000816000905550600101620008b2565b5090565b6000604051905090565b600080fd5b600080fd5b600080fd5b6000601f19601f8301169050919050565b7f4e487b7100000000000000000000000000000000000000000000000000000000600052604160045260246000fd5b6200093482620008e9565b810181811067ffffffffffffffff82111715620009565762000955620008fa565b5b80604052505050565b60006200096b620008d0565b905062000979828262000929565b919050565b600067ffffffffffffffff8211156200099c576200099b620008fa565b5b602082029050602081019050919050565b600080fd5b600073ffffffffffffffffffffffffffffffffffffffff82169050919050565b6000620009df82620009b2565b9050919050565b6000620009f382620009d2565b9050919050565b62000a0581620009e6565b811462000a1157600080fd5b50565b60008151905062000a2581620009fa565b92915050565b600062000a4262000a3c846200097e565b6200095f565b9050808382526020820190506020840283018581111562000a685762000a67620009ad565b5b835b8181101562000a95578062000a80888262000a14565b84526020840193505060208101905062000a6a565b5050509392505050565b600082601f83011262000ab75762000ab6620008e4565b5b815162000ac984826020860162000a2b565b91505092915050565b600067ffffffffffffffff82111562000af05762000aef620008fa565b5b602082029050602081019050919050565b600062000b0e82620009d2565b9050919050565b62000b208162000b01565b811462000b2c57600080fd5b50565b60008151905062000b408162000b15565b92915050565b600062000b5d62000b578462000ad2565b6200095f565b9050808382526020820190506020840283018581111562000b835762000b82620009ad565b5b835b8181101562000bb0578062000b9b888262000b2f565b84526020840193505060208101905062000b85565b5050509392505050565b600082601f83011262000bd25762000bd1620008e4565b5b815162000be484826020860162000b46565b91505092915050565b60008060006060848603121562000c095762000c08620008da565b5b600084015167ffffffffffffffff81111562000c2a5762000c29620008df565b5b62000c388682870162000a9f565b935050602084015167ffffffffffffffff81111562000c5c5762000c5b620008df565b5b62000c6a8682870162000bba565b925050604084015167ffffffffffffffff81111562000c8e5762000c8d620008df565b5b62000c9c8682870162000a9f565b9150509250925092565b62000cb181620009d2565b82525050565b6000819050919050565b62000ccc8162000cb7565b82525050565b600060408201905062000ce9600083018562000ca6565b62000cf8602083018462000cc1565b9392505050565b60008115159050919050565b62000d168162000cff565b811462000d2257600080fd5b50565b60008151905062000d368162000d0b565b92915050565b60006020828403121562000d555762000d54620008da565b5b600062000d658482850162000d25565b91505092915050565b600060408201905062000d85600083018562000ca6565b62000d94602083018462000ca6565b9392505050565b62000da68162000cb7565b811462000db257600080fd5b50565b60008151905062000dc68162000d9b565b92915050565b60006020828403121562000de55762000de4620008da565b5b600062000df58482850162000db5565b91505092915050565b600082825260208201905092915050565b7f5361666545524332303a20617070726f76652066726f6d206e6f6e2d7a65726f60008201527f20746f206e6f6e2d7a65726f20616c6c6f77616e636500000000000000000000602082015250565b600062000e6d60368362000dfe565b915062000e7a8262000e0f565b604082019050919050565b6000602082019050818103600083015262000ea08162000e5e565b9050919050565b7f5361666545524332303a204552433230206f7065726174696f6e20646964206e60008201527f6f74207375636365656400000000000000000000000000000000000000000000602082015250565b600062000f05602a8362000dfe565b915062000f128262000ea7565b604082019050919050565b6000602082019050818103600083015262000f388162000ef6565b9050919050565b7f416464726573733a20696e73756666696369656e742062616c616e636520666f60008201527f722063616c6c0000000000000000000000000000000000000000000000000000602082015250565b600062000f9d60268362000dfe565b915062000faa8262000f3f565b604082019050919050565b6000602082019050818103600083015262000fd08162000f8e565b9050919050565b7f416464726573733a2063616c6c20746f206e6f6e2d636f6e7472616374000000600082015250565b60006200100f601d8362000dfe565b91506200101c8262000fd7565b602082019050919050565b60006020820190508181036000830152620010428162001000565b9050919050565b600081519050919050565b600081905092915050565b60005b838110156200107f57808201518184015260208101905062001062565b838111156200108f576000848401525b50505050565b6000620010a28262001049565b620010ae818562001054565b9350620010c08185602086016200105f565b80840191505092915050565b6000620010da828462001095565b915081905092915050565b600081519050919050565b6000620010fd82620010e5565b62001109818562000dfe565b93506200111b8185602086016200105f565b6200112681620008e9565b840191505092915050565b600060208201905081810360008301526200114d8184620010f0565b905092915050565b6157fe80620011656000396000f3fe608060405234801561001057600080fd5b50600436106101c45760003560e01c80638da5cb5b116100f9578063cea9d26f11610097578063dbf6005011610071578063dbf60050146104a9578063e0bc66b8146104c5578063e30c3978146104e3578063fabf360114610501576101c4565b8063cea9d26f14610453578063d914cd4b1461046f578063daec383d1461048b576101c4565b8063ab93539d116100d3578063ab93539d146103cb578063ad5c4648146103fb578063b36a4ab114610419578063c54e44eb14610435576101c4565b80638da5cb5b146103755780639109f9e4146103935780639cf5c613146103af576101c4565b80634e71e0c8116101665780636f2e7c50116101405780636f2e7c50146102ed578063766367221461030b5780637dd470801461032957806384b1fc1014610345576101c4565b80634e71e0c8146102955780635825a2481461029f5780636d18d05c146102bd576101c4565b806322a88c09116101a257806322a88c09146102315780632d2c55651461024f5780633ccfd60b1461026d578063483a721b14610277576101c4565b8063078dfbe7146101c95780630db065f4146101e557806313e3eaa614610215575b600080fd5b6101e360048036038101906101de9190613e45565b61051f565b005b6101ff60048036038101906101fa9190613e98565b610773565b60405161020c9190613ed4565b60405180910390f35b61022f600480360381019061022a9190613f25565b610793565b005b610239610b3d565b6040516102469190613fff565b60405180910390f35b610257610b55565b6040516102649190614029565b60405180910390f35b610275610b6d565b005b61027f612370565b60405161028c9190614065565b60405180910390f35b61029d612388565b005b6102a761251c565b6040516102b49190613fff565b60405180910390f35b6102d760048036038101906102d29190614080565b612534565b6040516102e491906140ce565b60405180910390f35b6102f5612573565b6040516103029190614029565b60405180910390f35b61031361258b565b6040516103209190614029565b60405180910390f35b610343600480360381019061033e9190614127565b6125a3565b005b61035f600480360381019061035a9190614080565b612697565b60405161036c91906140ce565b60405180910390f35b61037d6126d6565b60405161038a9190614029565b60405180910390f35b6103ad60048036038101906103a891906141b9565b6126fa565b005b6103c960048036038101906103c49190614219565b612a64565b005b6103e560048036038101906103e09190614080565b612b4d565b6040516103f2919061427a565b60405180910390f35b610403612b8c565b60405161041091906142b6565b60405180910390f35b610433600480360381019061042e919061445e565b612ba4565b005b61043d612c78565b60405161044a91906142b6565b60405180910390f35b61046d600480360381019061046891906144e5565b612c90565b005b61048960048036038101906104849190614538565b612d4e565b005b610493612de8565b6040516104a091906142b6565b60405180910390f35b6104c360048036038101906104be9190614565565b612e00565b005b6104cd612f60565b6040516104da9190614065565b60405180910390f35b6104eb612f78565b6040516104f89190614029565b60405180910390f35b610509612f9e565b6040516105169190614029565b60405180910390f35b60008054906101000a900473ffffffffffffffffffffffffffffffffffffffff1673ffffffffffffffffffffffffffffffffffffffff163373ffffffffffffffffffffffffffffffffffffffff16146105ad576040517f08c379a00000000000000000000000000000000000000000000000000000000081526004016105a490614602565b60405180910390fd5b811561072c57600073ffffffffffffffffffffffffffffffffffffffff168373ffffffffffffffffffffffffffffffffffffffff161415806105ec5750805b61062b576040517f08c379a00000000000000000000000000000000000000000000000000000000081526004016106229061466e565b60405180910390fd5b8273ffffffffffffffffffffffffffffffffffffffff1660008054906101000a900473ffffffffffffffffffffffffffffffffffffffff1673ffffffffffffffffffffffffffffffffffffffff167f8be0079c531659141344cd1fd0a4f28419497f9722a3daafe3b4186f6b6457e060405160405180910390a3826000806101000a81548173ffffffffffffffffffffffffffffffffffffffff021916908373ffffffffffffffffffffffffffffffffffffffff1602179055506000600160006101000a81548173ffffffffffffffffffffffffffffffffffffffff021916908373ffffffffffffffffffffffffffffffffffffffff16021790555061076e565b82600160006101000a81548173ffffffffffffffffffffffffffffffffffffffff021916908373ffffffffffffffffffffffffffffffffffffffff1602179055505b505050565b60056020528060005260406000206000915054906101000a900460ff1681565b600560003373ffffffffffffffffffffffffffffffffffffffff1673ffffffffffffffffffffffffffffffffffffffff16815260200190815260200160002060009054906101000a900460ff1661081f576040517f08c379a0000000000000000000000000000000000000000000000000000000008152600401610816906146da565b60405180910390fd5b600085118061082e5750600084115b61086d576040517f08c379a000000000000000000000000000000000000000000000000000000000815260040161086490614746565b60405180910390fd5b60008161087a5730610890565b7326fa3fffb6efe8c1e69103acb4044c26b9a106a95b905060006108a886886108a39190614795565b61311d565b90506000735a6a4d54456819380173272a5e8e9b9904bdf41b73ffffffffffffffffffffffffffffffffffffffff166344ee198660006003856000306040518663ffffffff1660e01b81526004016109049594939291906148ae565b6020604051808303816000875af1158015610923573d6000803e3d6000fd5b505050506040513d601f19601f820116820180604052508101906109479190614916565b905073d51a44d3fae010294c616388b506acda1bfaae4673ffffffffffffffffffffffffffffffffffffffff16635b41b908600060028460006040518563ffffffff1660e01b815260040161099f949392919061497e565b600060405180830381600087803b1580156109b957600080fd5b505af11580156109cd573d6000803e3d6000fd5b50505050600073c02aaa39b223fe8d0a0e5c4f27ead9083c756cc273ffffffffffffffffffffffffffffffffffffffff166370a08231306040518263ffffffff1660e01b8152600401610a209190614029565b602060405180830381865afa158015610a3d573d6000803e3d6000fd5b505050506040513d601f19601f82011682018060405250810190610a619190614916565b90506000888a610a719190614795565b60648b610a7e91906149c3565b610a889190614a4c565b9050600060648284610a9a91906149c3565b610aa49190614a4c565b905060008184610ab49190614a7d565b905060008060008e1115610ad057610acd848d8b6131ea565b91505b60008d1115610ae757610ae4838c8b613421565b90505b7f5bf58f83da08462fa5a56d1c795c56bda7a06ebaf819e0c3d03765faaa52390782828385610b169190614795565b604051610b2593929190614ab1565b60405180910390a15050505050505050505050505050565b735a6a4d54456819380173272a5e8e9b9904bdf41b81565b735a7c5505f3cfb9a0d9a8493ec41bf27ee48c406d81565b6000600380549050905060005b81811015611270573073ffffffffffffffffffffffffffffffffffffffff1660038281548110610bad57610bac614ae8565b5b9060005260206000200160009054906101000a900473ffffffffffffffffffffffffffffffffffffffff1673ffffffffffffffffffffffffffffffffffffffff1663cd446e226040518163ffffffff1660e01b81526004016020604051808303816000875af1158015610c24573d6000803e3d6000fd5b505050506040513d601f19601f82011682018060405250810190610c489190614b2c565b73ffffffffffffffffffffffffffffffffffffffff1663017e7e586040518163ffffffff1660e01b81526004016020604051808303816000875af1158015610c94573d6000803e3d6000fd5b505050506040513d601f19601f82011682018060405250810190610cb89190614b6e565b73ffffffffffffffffffffffffffffffffffffffff1614610d0e576040517f08c379a0000000000000000000000000000000000000000000000000000000008152600401610d0590614be7565b60405180910390fd5b60038181548110610d2257610d21614ae8565b5b9060005260206000200160009054906101000a900473ffffffffffffffffffffffffffffffffffffffff1673ffffffffffffffffffffffffffffffffffffffff1663f8ba4cff6040518163ffffffff1660e01b8152600401600060405180830381600087803b158015610d9457600080fd5b505af1158015610da8573d6000803e3d6000fd5b50505050600060038281548110610dc257610dc1614ae8565b5b9060005260206000200160009054906101000a900473ffffffffffffffffffffffffffffffffffffffff1673ffffffffffffffffffffffffffffffffffffffff1663b27c0e746040518163ffffffff1660e01b8152600401606060405180830381865afa158015610e37573d6000803e3d6000fd5b505050506040513d601f19601f82011682018060405250810190610e5b9190614c8f565b506fffffffffffffffffffffffffffffffff1691505073f5bce5077908a1b7370b9ae04adc565ebd64396673ffffffffffffffffffffffffffffffffffffffff1663566231187399d8a9c45b2eca8864373a26d1459e3dff1e17f373f5bce5077908a1b7370b9ae04adc565ebd64396673ffffffffffffffffffffffffffffffffffffffff1663f7888aec7399d8a9c45b2eca8864373a26d1459e3dff1e17f360038881548110610f0f57610f0e614ae8565b5b9060005260206000200160009054906101000a900473ffffffffffffffffffffffffffffffffffffffff166040518363ffffffff1660e01b8152600401610f57929190614ce2565b602060405180830381865afa158015610f74573d6000803e3d6000fd5b505050506040513d601f19601f82011682018060405250810190610f989190614916565b60006040518463ffffffff1660e01b8152600401610fb893929190614d0b565b602060405180830381865afa158015610fd5573d6000803e3d6000fd5b505050506040513d601f19601f82011682018060405250810190610ff99190614916565b8111156111be577399d8a9c45b2eca8864373a26d1459e3dff1e17f373ffffffffffffffffffffffffffffffffffffffff166323b872dd735f0dee98360d8200b20812e174d139a1a633edd273f5bce5077908a1b7370b9ae04adc565ebd643966846040518463ffffffff1660e01b815260040161107993929190614d42565b6020604051808303816000875af1158015611098573d6000803e3d6000fd5b505050506040513d601f19601f820116820180604052508101906110bc9190614d8e565b5073f5bce5077908a1b7370b9ae04adc565ebd64396673ffffffffffffffffffffffffffffffffffffffff166302b9446c7399d8a9c45b2eca8864373a26d1459e3dff1e17f373f5bce5077908a1b7370b9ae04adc565ebd6439666003868154811061112b5761112a614ae8565b5b9060005260206000200160009054906101000a900473ffffffffffffffffffffffffffffffffffffffff168560006040518663ffffffff1660e01b8152600401611179959493929190614dbb565b60408051808303816000875af1158015611197573d6000803e3d6000fd5b505050506040513d601f19601f820116820180604052508101906111bb9190614e0e565b50505b600382815481106111d2576111d1614ae8565b5b9060005260206000200160009054906101000a900473ffffffffffffffffffffffffffffffffffffffff1673ffffffffffffffffffffffffffffffffffffffff1663476343ee6040518163ffffffff1660e01b8152600401600060405180830381600087803b15801561124457600080fd5b505af1158015611258573d6000803e3d6000fd5b5050505050808061126890614e4e565b915050610b7a565b50600280549050905060005b81811015611970573073ffffffffffffffffffffffffffffffffffffffff16600282815481106112af576112ae614ae8565b5b9060005260206000200160009054906101000a900473ffffffffffffffffffffffffffffffffffffffff1673ffffffffffffffffffffffffffffffffffffffff1663cd446e226040518163ffffffff1660e01b81526004016020604051808303816000875af1158015611326573d6000803e3d6000fd5b505050506040513d601f19601f8201168201806040525081019061134a9190614eac565b73ffffffffffffffffffffffffffffffffffffffff1663017e7e586040518163ffffffff1660e01b81526004016020604051808303816000875af1158015611396573d6000803e3d6000fd5b505050506040513d601f19601f820116820180604052508101906113ba9190614b6e565b73ffffffffffffffffffffffffffffffffffffffff1614611410576040517f08c379a000000000000000000000000000000000000000000000000000000000815260040161140790614be7565b60405180910390fd5b6002818154811061142457611423614ae8565b5b9060005260206000200160009054906101000a900473ffffffffffffffffffffffffffffffffffffffff1673ffffffffffffffffffffffffffffffffffffffff1663f8ba4cff6040518163ffffffff1660e01b8152600401600060405180830381600087803b15801561149657600080fd5b505af11580156114aa573d6000803e3d6000fd5b505050506000600282815481106114c4576114c3614ae8565b5b9060005260206000200160009054906101000a900473ffffffffffffffffffffffffffffffffffffffff1673ffffffffffffffffffffffffffffffffffffffff1663b27c0e746040518163ffffffff1660e01b81526004016040805180830381865afa158015611538573d6000803e3d6000fd5b505050506040513d601f19601f8201168201806040525081019061155c9190614ed9565b6fffffffffffffffffffffffffffffffff1691505073f5bce5077908a1b7370b9ae04adc565ebd64396673ffffffffffffffffffffffffffffffffffffffff1663566231187399d8a9c45b2eca8864373a26d1459e3dff1e17f373f5bce5077908a1b7370b9ae04adc565ebd64396673ffffffffffffffffffffffffffffffffffffffff1663f7888aec7399d8a9c45b2eca8864373a26d1459e3dff1e17f36002888154811061160f5761160e614ae8565b5b9060005260206000200160009054906101000a900473ffffffffffffffffffffffffffffffffffffffff166040518363ffffffff1660e01b8152600401611657929190614ce2565b602060405180830381865afa158015611674573d6000803e3d6000fd5b505050506040513d601f19601f820116820180604052508101906116989190614916565b60006040518463ffffffff1660e01b81526004016116b893929190614d0b565b602060405180830381865afa1580156116d5573d6000803e3d6000fd5b505050506040513d601f19601f820116820180604052508101906116f99190614916565b8111156118be577399d8a9c45b2eca8864373a26d1459e3dff1e17f373ffffffffffffffffffffffffffffffffffffffff166323b872dd735f0dee98360d8200b20812e174d139a1a633edd273f5bce5077908a1b7370b9ae04adc565ebd643966846040518463ffffffff1660e01b815260040161177993929190614d42565b6020604051808303816000875af1158015611798573d6000803e3d6000fd5b505050506040513d601f19601f820116820180604052508101906117bc9190614d8e565b5073f5bce5077908a1b7370b9ae04adc565ebd64396673ffffffffffffffffffffffffffffffffffffffff166302b9446c7399d8a9c45b2eca8864373a26d1459e3dff1e17f373f5bce5077908a1b7370b9ae04adc565ebd6439666002868154811061182b5761182a614ae8565b5b9060005260206000200160009054906101000a900473ffffffffffffffffffffffffffffffffffffffff168560006040518663ffffffff1660e01b8152600401611879959493929190614dbb565b60408051808303816000875af1158015611897573d6000803e3d6000fd5b505050506040513d601f19601f820116820180604052508101906118bb9190614e0e565b50505b600282815481106118d2576118d1614ae8565b5b9060005260206000200160009054906101000a900473ffffffffffffffffffffffffffffffffffffffff1673ffffffffffffffffffffffffffffffffffffffff1663476343ee6040518163ffffffff1660e01b8152600401600060405180830381600087803b15801561194457600080fd5b505af1158015611958573d6000803e3d6000fd5b5050505050808061196890614e4e565b91505061127c565b50600480549050905060005b81811015612072573073ffffffffffffffffffffffffffffffffffffffff16600482815481106119af576119ae614ae8565b5b9060005260206000200160009054906101000a900473ffffffffffffffffffffffffffffffffffffffff1673ffffffffffffffffffffffffffffffffffffffff1663cd446e226040518163ffffffff1660e01b81526004016020604051808303816000875af1158015611a26573d6000803e3d6000fd5b505050506040513d601f19601f82011682018060405250810190611a4a9190614b2c565b73ffffffffffffffffffffffffffffffffffffffff1663017e7e586040518163ffffffff1660e01b81526004016020604051808303816000875af1158015611a96573d6000803e3d6000fd5b505050506040513d601f19601f82011682018060405250810190611aba9190614b6e565b73ffffffffffffffffffffffffffffffffffffffff1614611b10576040517f08c379a0000000000000000000000000000000000000000000000000000000008152600401611b0790614be7565b60405180910390fd5b60048181548110611b2457611b23614ae8565b5b9060005260206000200160009054906101000a900473ffffffffffffffffffffffffffffffffffffffff1673ffffffffffffffffffffffffffffffffffffffff1663f8ba4cff6040518163ffffffff1660e01b8152600401600060405180830381600087803b158015611b9657600080fd5b505af1158015611baa573d6000803e3d6000fd5b50505050600060048281548110611bc457611bc3614ae8565b5b9060005260206000200160009054906101000a900473ffffffffffffffffffffffffffffffffffffffff1673ffffffffffffffffffffffffffffffffffffffff1663b27c0e746040518163ffffffff1660e01b8152600401606060405180830381865afa158015611c39573d6000803e3d6000fd5b505050506040513d601f19601f82011682018060405250810190611c5d9190614c8f565b506fffffffffffffffffffffffffffffffff1691505073d96f48665a1410c0cd669a88898eca36b9fc2cce73ffffffffffffffffffffffffffffffffffffffff1663566231187399d8a9c45b2eca8864373a26d1459e3dff1e17f373d96f48665a1410c0cd669a88898eca36b9fc2cce73ffffffffffffffffffffffffffffffffffffffff1663f7888aec7399d8a9c45b2eca8864373a26d1459e3dff1e17f360048881548110611d1157611d10614ae8565b5b9060005260206000200160009054906101000a900473ffffffffffffffffffffffffffffffffffffffff166040518363ffffffff1660e01b8152600401611d59929190614ce2565b602060405180830381865afa158015611d76573d6000803e3d6000fd5b505050506040513d601f19601f82011682018060405250810190611d9a9190614916565b60006040518463ffffffff1660e01b8152600401611dba93929190614d0b565b602060405180830381865afa158015611dd7573d6000803e3d6000fd5b505050506040513d601f19601f82011682018060405250810190611dfb9190614916565b811115611fc0577399d8a9c45b2eca8864373a26d1459e3dff1e17f373ffffffffffffffffffffffffffffffffffffffff166323b872dd735f0dee98360d8200b20812e174d139a1a633edd273d96f48665a1410c0cd669a88898eca36b9fc2cce846040518463ffffffff1660e01b8152600401611e7b93929190614d42565b6020604051808303816000875af1158015611e9a573d6000803e3d6000fd5b505050506040513d601f19601f82011682018060405250810190611ebe9190614d8e565b5073d96f48665a1410c0cd669a88898eca36b9fc2cce73ffffffffffffffffffffffffffffffffffffffff166302b9446c7399d8a9c45b2eca8864373a26d1459e3dff1e17f373d96f48665a1410c0cd669a88898eca36b9fc2cce60048681548110611f2d57611f2c614ae8565b5b9060005260206000200160009054906101000a900473ffffffffffffffffffffffffffffffffffffffff168560006040518663ffffffff1660e01b8152600401611f7b959493929190614dbb565b60408051808303816000875af1158015611f99573d6000803e3d6000fd5b505050506040513d601f19601f82011682018060405250810190611fbd9190614e0e565b50505b60048281548110611fd457611fd3614ae8565b5b9060005260206000200160009054906101000a900473ffffffffffffffffffffffffffffffffffffffff1673ffffffffffffffffffffffffffffffffffffffff1663476343ee6040518163ffffffff1660e01b8152600401600060405180830381600087803b15801561204657600080fd5b505af115801561205a573d6000803e3d6000fd5b5050505050808061206a90614e4e565b91505061197c565b50600073f5bce5077908a1b7370b9ae04adc565ebd64396673ffffffffffffffffffffffffffffffffffffffff1663f7888aec7399d8a9c45b2eca8864373a26d1459e3dff1e17f3306040518363ffffffff1660e01b81526004016120d8929190614ce2565b602060405180830381865afa1580156120f5573d6000803e3d6000fd5b505050506040513d601f19601f820116820180604052508101906121199190614916565b9050600073d96f48665a1410c0cd669a88898eca36b9fc2cce73ffffffffffffffffffffffffffffffffffffffff1663f7888aec7399d8a9c45b2eca8864373a26d1459e3dff1e17f3306040518363ffffffff1660e01b8152600401612180929190614ce2565b602060405180830381865afa15801561219d573d6000803e3d6000fd5b505050506040513d601f19601f820116820180604052508101906121c19190614916565b90506121cd8282612e00565b600073f5bce5077908a1b7370b9ae04adc565ebd64396673ffffffffffffffffffffffffffffffffffffffff1663566231187399d8a9c45b2eca8864373a26d1459e3dff1e17f38560006040518463ffffffff1660e01b815260040161223593929190614d0b565b602060405180830381865afa158015612252573d6000803e3d6000fd5b505050506040513d601f19601f820116820180604052508101906122769190614916565b9050600073d96f48665a1410c0cd669a88898eca36b9fc2cce73ffffffffffffffffffffffffffffffffffffffff1663566231187399d8a9c45b2eca8864373a26d1459e3dff1e17f38560006040518463ffffffff1660e01b81526004016122e093929190614d0b565b602060405180830381865afa1580156122fd573d6000803e3d6000fd5b505050506040513d601f19601f820116820180604052508101906123219190614916565b90507facad33a1159cfbce2f4f341040243f330dc8ece6c9fa5c191bbb71c0df548d66828283856123529190614795565b60405161236193929190614ab1565b60405180910390a15050505050565b73f5bce5077908a1b7370b9ae04adc565ebd64396681565b6000600160009054906101000a900473ffffffffffffffffffffffffffffffffffffffff1690508073ffffffffffffffffffffffffffffffffffffffff163373ffffffffffffffffffffffffffffffffffffffff161461241d576040517f08c379a000000000000000000000000000000000000000000000000000000000815260040161241490614f65565b60405180910390fd5b8073ffffffffffffffffffffffffffffffffffffffff1660008054906101000a900473ffffffffffffffffffffffffffffffffffffffff1673ffffffffffffffffffffffffffffffffffffffff167f8be0079c531659141344cd1fd0a4f28419497f9722a3daafe3b4186f6b6457e060405160405180910390a3806000806101000a81548173ffffffffffffffffffffffffffffffffffffffff021916908373ffffffffffffffffffffffffffffffffffffffff1602179055506000600160006101000a81548173ffffffffffffffffffffffffffffffffffffffff021916908373ffffffffffffffffffffffffffffffffffffffff16021790555050565b73d51a44d3fae010294c616388b506acda1bfaae4681565b6004818154811061254457600080fd5b906000526020600020016000915054906101000a900473ffffffffffffffffffffffffffffffffffffffff1681565b735f0dee98360d8200b20812e174d139a1a633edd281565b73090185f2135308bad17527004364ebcc2d37e5f681565b60008054906101000a900473ffffffffffffffffffffffffffffffffffffffff1673ffffffffffffffffffffffffffffffffffffffff163373ffffffffffffffffffffffffffffffffffffffff1614612631576040517f08c379a000000000000000000000000000000000000000000000000000000000815260040161262890614602565b60405180910390fd5b6002819080600181540180825580915050600190039060005260206000200160009091909190916101000a81548173ffffffffffffffffffffffffffffffffffffffff021916908373ffffffffffffffffffffffffffffffffffffffff16021790555050565b600381815481106126a757600080fd5b906000526020600020016000915054906101000a900473ffffffffffffffffffffffffffffffffffffffff1681565b60008054906101000a900473ffffffffffffffffffffffffffffffffffffffff1681565b60008054906101000a900473ffffffffffffffffffffffffffffffffffffffff1673ffffffffffffffffffffffffffffffffffffffff163373ffffffffffffffffffffffffffffffffffffffff1614612788576040517f08c379a000000000000000000000000000000000000000000000000000000000815260040161277f90614602565b60405180910390fd5b7399d8a9c45b2eca8864373a26d1459e3dff1e17f373ffffffffffffffffffffffffffffffffffffffff1663095ea7b3847fffffffffffffffffffffffffffffffffffffffffffffffffffffffffffffffff6040518363ffffffff1660e01b81526004016127f7929190614f85565b6020604051808303816000875af1158015612816573d6000803e3d6000fd5b505050506040513d601f19601f8201168201806040525081019061283a9190614d8e565b5060008373ffffffffffffffffffffffffffffffffffffffff168383604051612864929190614fed565b6000604051808303816000865af19150503d80600081146128a1576040519150601f19603f3d011682016040523d82523d6000602084013e6128a6565b606091505b50509050806128ea576040517f08c379a00000000000000000000000000000000000000000000000000000000081526004016128e190615052565b60405180910390fd5b6129ca7326fa3fffb6efe8c1e69103acb4044c26b9a106a973090185f2135308bad17527004364ebcc2d37e5f673ffffffffffffffffffffffffffffffffffffffff166370a08231306040518263ffffffff1660e01b815260040161294f9190614029565b602060405180830381865afa15801561296c573d6000803e3d6000fd5b505050506040513d601f19601f820116820180604052508101906129909190614916565b73090185f2135308bad17527004364ebcc2d37e5f673ffffffffffffffffffffffffffffffffffffffff166135889092919063ffffffff16565b7399d8a9c45b2eca8864373a26d1459e3dff1e17f373ffffffffffffffffffffffffffffffffffffffff1663095ea7b38560006040518363ffffffff1660e01b8152600401612a1a929190615072565b6020604051808303816000875af1158015612a39573d6000803e3d6000fd5b505050506040513d601f19601f82011682018060405250810190612a5d9190614d8e565b5050505050565b60008054906101000a900473ffffffffffffffffffffffffffffffffffffffff1673ffffffffffffffffffffffffffffffffffffffff163373ffffffffffffffffffffffffffffffffffffffff1614612af2576040517f08c379a0000000000000000000000000000000000000000000000000000000008152600401612ae990614602565b60405180910390fd5b80600560008473ffffffffffffffffffffffffffffffffffffffff1673ffffffffffffffffffffffffffffffffffffffff16815260200190815260200160002060006101000a81548160ff0219169083151502179055505050565b60028181548110612b5d57600080fd5b906000526020600020016000915054906101000a900473ffffffffffffffffffffffffffffffffffffffff1681565b73c02aaa39b223fe8d0a0e5c4f27ead9083c756cc281565b60008054906101000a900473ffffffffffffffffffffffffffffffffffffffff1673ffffffffffffffffffffffffffffffffffffffff163373ffffffffffffffffffffffffffffffffffffffff1614612c32576040517f08c379a0000000000000000000000000000000000000000000000000000000008152600401612c2990614602565b60405180910390fd5b60005b8151811015612c7457612c61828281518110612c5457612c53614ae8565b5b602002602001015161360e565b8080612c6c90614e4e565b915050612c35565b5050565b73dac17f958d2ee523a2206206994597c13d831ec781565b60008054906101000a900473ffffffffffffffffffffffffffffffffffffffff1673ffffffffffffffffffffffffffffffffffffffff163373ffffffffffffffffffffffffffffffffffffffff1614612d1e576040517f08c379a0000000000000000000000000000000000000000000000000000000008152600401612d1590614602565b60405180910390fd5b612d4982828573ffffffffffffffffffffffffffffffffffffffff166135889092919063ffffffff16565b505050565b60008054906101000a900473ffffffffffffffffffffffffffffffffffffffff1673ffffffffffffffffffffffffffffffffffffffff163373ffffffffffffffffffffffffffffffffffffffff1614612ddc576040517f08c379a0000000000000000000000000000000000000000000000000000000008152600401612dd390614602565b60405180910390fd5b612de58161360e565b50565b7399d8a9c45b2eca8864373a26d1459e3dff1e17f381565b73f5bce5077908a1b7370b9ae04adc565ebd64396673ffffffffffffffffffffffffffffffffffffffff166397da6d307399d8a9c45b2eca8864373a26d1459e3dff1e17f330306000876040518663ffffffff1660e01b8152600401612e6a95949392919061509b565b60408051808303816000875af1158015612e88573d6000803e3d6000fd5b505050506040513d601f19601f82011682018060405250810190612eac9190614e0e565b505073d96f48665a1410c0cd669a88898eca36b9fc2cce73ffffffffffffffffffffffffffffffffffffffff166397da6d307399d8a9c45b2eca8864373a26d1459e3dff1e17f330306000866040518663ffffffff1660e01b8152600401612f1895949392919061509b565b60408051808303816000875af1158015612f36573d6000803e3d6000fd5b505050506040513d601f19601f82011682018060405250810190612f5a9190614e0e565b50505050565b73d96f48665a1410c0cd669a88898eca36b9fc2cce81565b600160009054906101000a900473ffffffffffffffffffffffffffffffffffffffff1681565b7326fa3fffb6efe8c1e69103acb4044c26b9a106a981565b6000811480613040575060008373ffffffffffffffffffffffffffffffffffffffff1663dd62ed3e30856040518363ffffffff1660e01b8152600401612ffd9291906150ee565b602060405180830381865afa15801561301a573d6000803e3d6000fd5b505050506040513d601f19601f8201168201806040525081019061303e9190614916565b145b61307f576040517f08c379a000000000000000000000000000000000000000000000000000000000815260040161307690615189565b60405180910390fd5b6131008363095ea7b360e01b848460405160240161309e929190614f85565b604051602081830303815290604052907bffffffffffffffffffffffffffffffffffffffffffffffffffffffff19166020820180517bffffffffffffffffffffffffffffffffffffffffffffffffffffffff8381831617835250505050613aee565b505050565b60606131148484600085613bb5565b90509392505050565b60008060048361312d9190614a4c565b90507399d8a9c45b2eca8864373a26d1459e3dff1e17f373ffffffffffffffffffffffffffffffffffffffff1663a9059cbb735a7c5505f3cfb9a0d9a8493ec41bf27ee48c406d836040518363ffffffff1660e01b8152600401613192929190614f85565b6020604051808303816000875af11580156131b1573d6000803e3d6000fd5b505050506040513d601f19601f820116820180604052508101906131d59190614d8e565b5080836131e29190614a7d565b915050919050565b600080600073b5de0c3753b6e1b4dba616db82767f17513e6d4e73ffffffffffffffffffffffffffffffffffffffff16630902f1ac6040518163ffffffff1660e01b8152600401606060405180830381865afa15801561324e573d6000803e3d6000fd5b505050506040513d601f19601f82011682018060405250810190613272919061522b565b506dffffffffffffffffffffffffffff1691506dffffffffffffffffffffffffffff16915060006132a4878385613cc9565b9050858110156132e9576040517f08c379a00000000000000000000000000000000000000000000000000000000081526004016132e0906152ca565b60405180910390fd5b73c02aaa39b223fe8d0a0e5c4f27ead9083c756cc273ffffffffffffffffffffffffffffffffffffffff1663a9059cbb73b5de0c3753b6e1b4dba616db82767f17513e6d4e896040518363ffffffff1660e01b815260040161334c929190614f85565b6020604051808303816000875af115801561336b573d6000803e3d6000fd5b505050506040513d601f19601f8201168201806040525081019061338f9190614d8e565b5073b5de0c3753b6e1b4dba616db82767f17513e6d4e73ffffffffffffffffffffffffffffffffffffffff1663022c0d9f826000886040518463ffffffff1660e01b81526004016133e293929190615321565b600060405180830381600087803b1580156133fc57600080fd5b505af1158015613410573d6000803e3d6000fd5b505050508093505050509392505050565b60008060405180610100016040528073c02aaa39b223fe8d0a0e5c4f27ead9083c756cc273ffffffffffffffffffffffffffffffffffffffff16815260200173090185f2135308bad17527004364ebcc2d37e5f673ffffffffffffffffffffffffffffffffffffffff168152602001610bb862ffffff1681526020018473ffffffffffffffffffffffffffffffffffffffff168152602001428152602001868152602001858152602001600073ffffffffffffffffffffffffffffffffffffffff168152509050600073e592427a0aece92de3edee1f18e0157c0586156473ffffffffffffffffffffffffffffffffffffffff1663414bf389836040518263ffffffff1660e01b81526004016135379190615458565b6020604051808303816000875af1158015613556573d6000803e3d6000fd5b505050506040513d601f19601f8201168201806040525081019061357a9190614916565b905080925050509392505050565b6136098363a9059cbb60e01b84846040516024016135a7929190614f85565b604051602081830303815290604052907bffffffffffffffffffffffffffffffffffffffffffffffffffffffff19166020820180517bffffffffffffffffffffffffffffffffffffffffffffffffffffffff8381831617835250505050613aee565b505050565b60008054906101000a900473ffffffffffffffffffffffffffffffffffffffff1673ffffffffffffffffffffffffffffffffffffffff163373ffffffffffffffffffffffffffffffffffffffff161461369c576040517f08c379a000000000000000000000000000000000000000000000000000000000815260040161369390614602565b60405180910390fd5b600073ffffffffffffffffffffffffffffffffffffffff168173ffffffffffffffffffffffffffffffffffffffff16141561370c576040517f08c379a0000000000000000000000000000000000000000000000000000000008152600401613703906154c0565b60405180910390fd5b73f5bce5077908a1b7370b9ae04adc565ebd64396673ffffffffffffffffffffffffffffffffffffffff168173ffffffffffffffffffffffffffffffffffffffff16636b2ace876040518163ffffffff1660e01b81526004016020604051808303816000875af1158015613784573d6000803e3d6000fd5b505050506040513d601f19601f820116820180604052508101906137a89190614b6e565b73ffffffffffffffffffffffffffffffffffffffff1614156138fd5760005b600380549050811015613894578173ffffffffffffffffffffffffffffffffffffffff16600382815481106137ff576137fe614ae8565b5b9060005260206000200160009054906101000a900473ffffffffffffffffffffffffffffffffffffffff1673ffffffffffffffffffffffffffffffffffffffff161415613881576040517f08c379a00000000000000000000000000000000000000000000000000000000081526004016138789061552c565b60405180910390fd5b808061388c90614e4e565b9150506137c7565b506003819080600181540180825580915050600190039060005260206000200160009091909190916101000a81548173ffffffffffffffffffffffffffffffffffffffff021916908373ffffffffffffffffffffffffffffffffffffffff160217905550613aeb565b73d96f48665a1410c0cd669a88898eca36b9fc2cce73ffffffffffffffffffffffffffffffffffffffff168173ffffffffffffffffffffffffffffffffffffffff16636b2ace876040518163ffffffff1660e01b81526004016020604051808303816000875af1158015613975573d6000803e3d6000fd5b505050506040513d601f19601f820116820180604052508101906139999190614b6e565b73ffffffffffffffffffffffffffffffffffffffff161415613aea5760005b600480549050811015613a85578173ffffffffffffffffffffffffffffffffffffffff16600482815481106139f0576139ef614ae8565b5b9060005260206000200160009054906101000a900473ffffffffffffffffffffffffffffffffffffffff1673ffffffffffffffffffffffffffffffffffffffff161415613a72576040517f08c379a0000000000000000000000000000000000000000000000000000000008152600401613a699061552c565b60405180910390fd5b8080613a7d90614e4e565b9150506139b8565b506004819080600181540180825580915050600190039060005260206000200160009091909190916101000a81548173ffffffffffffffffffffffffffffffffffffffff021916908373ffffffffffffffffffffffffffffffffffffffff1602179055505b5b50565b6000613b50826040518060400160405280602081526020017f5361666545524332303a206c6f772d6c6576656c2063616c6c206661696c65648152508573ffffffffffffffffffffffffffffffffffffffff166131059092919063ffffffff16565b9050600081511115613bb05780806020019051810190613b709190614d8e565b613baf576040517f08c379a0000000000000000000000000000000000000000000000000000000008152600401613ba6906155be565b60405180910390fd5b5b505050565b606082471015613bfa576040517f08c379a0000000000000000000000000000000000000000000000000000000008152600401613bf190615650565b60405180910390fd5b613c0385613d21565b613c42576040517f08c379a0000000000000000000000000000000000000000000000000000000008152600401613c39906156bc565b60405180910390fd5b6000808673ffffffffffffffffffffffffffffffffffffffff168587604051613c6b919061574b565b60006040518083038185875af1925050503d8060008114613ca8576040519150601f19603f3d011682016040523d82523d6000602084013e613cad565b606091505b5091509150613cbd828286613d34565b92505050949350505050565b6000806103e585613cda91906149c3565b905060008382613cea91906149c3565b90506000826103e887613cfd91906149c3565b613d079190614795565b90508082613d159190614a4c565b93505050509392505050565b600080823b905060008111915050919050565b60608315613d4457829050613d94565b600083511115613d575782518084602001fd5b816040517f08c379a0000000000000000000000000000000000000000000000000000000008152600401613d8b91906157a6565b60405180910390fd5b9392505050565b6000604051905090565b600080fd5b600080fd5b600073ffffffffffffffffffffffffffffffffffffffff82169050919050565b6000613dda82613daf565b9050919050565b613dea81613dcf565b8114613df557600080fd5b50565b600081359050613e0781613de1565b92915050565b60008115159050919050565b613e2281613e0d565b8114613e2d57600080fd5b50565b600081359050613e3f81613e19565b92915050565b600080600060608486031215613e5e57613e5d613da5565b5b6000613e6c86828701613df8565b9350506020613e7d86828701613e30565b9250506040613e8e86828701613e30565b9150509250925092565b600060208284031215613eae57613ead613da5565b5b6000613ebc84828501613df8565b91505092915050565b613ece81613e0d565b82525050565b6000602082019050613ee96000830184613ec5565b92915050565b6000819050919050565b613f0281613eef565b8114613f0d57600080fd5b50565b600081359050613f1f81613ef9565b92915050565b600080600080600060a08688031215613f4157613f40613da5565b5b6000613f4f88828901613f10565b9550506020613f6088828901613f10565b9450506040613f7188828901613f10565b9350506060613f8288828901613f10565b9250506080613f9388828901613e30565b9150509295509295909350565b6000819050919050565b6000613fc5613fc0613fbb84613daf565b613fa0565b613daf565b9050919050565b6000613fd782613faa565b9050919050565b6000613fe982613fcc565b9050919050565b613ff981613fde565b82525050565b60006020820190506140146000830184613ff0565b92915050565b61402381613dcf565b82525050565b600060208201905061403e600083018461401a565b92915050565b600061404f82613fcc565b9050919050565b61405f81614044565b82525050565b600060208201905061407a6000830184614056565b92915050565b60006020828403121561409657614095613da5565b5b60006140a484828501613f10565b91505092915050565b60006140b882613fcc565b9050919050565b6140c8816140ad565b82525050565b60006020820190506140e360008301846140bf565b92915050565b60006140f482613dcf565b9050919050565b614104816140e9565b811461410f57600080fd5b50565b600081359050614121816140fb565b92915050565b60006020828403121561413d5761413c613da5565b5b600061414b84828501614112565b91505092915050565b600080fd5b600080fd5b600080fd5b60008083601f84011261417957614178614154565b5b8235905067ffffffffffffffff81111561419657614195614159565b5b6020830191508360018202830111156141b2576141b161415e565b5b9250929050565b6000806000604084860312156141d2576141d1613da5565b5b60006141e086828701613df8565b935050602084013567ffffffffffffffff81111561420157614200613daa565b5b61420d86828701614163565b92509250509250925092565b600080604083850312156142305761422f613da5565b5b600061423e85828601613df8565b925050602061424f85828601613e30565b9150509250929050565b600061426482613fcc565b9050919050565b61427481614259565b82525050565b600060208201905061428f600083018461426b565b92915050565b60006142a082613fcc565b9050919050565b6142b081614295565b82525050565b60006020820190506142cb60008301846142a7565b92915050565b6000601f19601f8301169050919050565b7f4e487b7100000000000000000000000000000000000000000000000000000000600052604160045260246000fd5b61431a826142d1565b810181811067ffffffffffffffff82111715614339576143386142e2565b5b80604052505050565b600061434c613d9b565b90506143588282614311565b919050565b600067ffffffffffffffff821115614378576143776142e2565b5b602082029050602081019050919050565b600061439482613dcf565b9050919050565b6143a481614389565b81146143af57600080fd5b50565b6000813590506143c18161439b565b92915050565b60006143da6143d58461435d565b614342565b905080838252602082019050602084028301858111156143fd576143fc61415e565b5b835b81811015614426578061441288826143b2565b8452602084019350506020810190506143ff565b5050509392505050565b600082601f83011261444557614444614154565b5b81356144558482602086016143c7565b91505092915050565b60006020828403121561447457614473613da5565b5b600082013567ffffffffffffffff81111561449257614491613daa565b5b61449e84828501614430565b91505092915050565b60006144b282613dcf565b9050919050565b6144c2816144a7565b81146144cd57600080fd5b50565b6000813590506144df816144b9565b92915050565b6000806000606084860312156144fe576144fd613da5565b5b600061450c868287016144d0565b935050602061451d86828701613df8565b925050604061452e86828701613f10565b9150509250925092565b60006020828403121561454e5761454d613da5565b5b600061455c848285016143b2565b91505092915050565b6000806040838503121561457c5761457b613da5565b5b600061458a85828601613f10565b925050602061459b85828601613f10565b9150509250929050565b600082825260208201905092915050565b7f4f776e61626c653a2063616c6c6572206973206e6f7420746865206f776e6572600082015250565b60006145ec6020836145a5565b91506145f7826145b6565b602082019050919050565b6000602082019050818103600083015261461b816145df565b9050919050565b7f4f776e61626c653a207a65726f20616464726573730000000000000000000000600082015250565b60006146586015836145a5565b915061466382614622565b602082019050919050565b600060208201905081810360008301526146878161464b565b9050919050565b7f4f6e6c79207665726966696564206f70657261746f7273000000000000000000600082015250565b60006146c46017836145a5565b91506146cf8261468e565b602082019050919050565b600060208201905081810360008301526146f3816146b7565b9050919050565b7f6e6f7468696e6720746f20737761700000000000000000000000000000000000600082015250565b6000614730600f836145a5565b915061473b826146fa565b602082019050919050565b6000602082019050818103600083015261475f81614723565b9050919050565b7f4e487b7100000000000000000000000000000000000000000000000000000000600052601160045260246000fd5b60006147a082613eef565b91506147ab83613eef565b9250827fffffffffffffffffffffffffffffffffffffffffffffffffffffffffffffffff038211156147e0576147df614766565b5b828201905092915050565b6000819050919050565b600081600f0b9050919050565b600061481d614818614813846147eb565b613fa0565b6147f5565b9050919050565b61482d81614802565b82525050565b6000819050919050565b600061485861485361484e84614833565b613fa0565b6147f5565b9050919050565b6148688161483d565b82525050565b61487781613eef565b82525050565b600061489861489361488e846147eb565b613fa0565b613eef565b9050919050565b6148a88161487d565b82525050565b600060a0820190506148c36000830188614824565b6148d0602083018761485f565b6148dd604083018661486e565b6148ea606083018561489f565b6148f7608083018461401a565b9695505050505050565b60008151905061491081613ef9565b92915050565b60006020828403121561492c5761492b613da5565b5b600061493a84828501614901565b91505092915050565b6000819050919050565b600061496861496361495e84614943565b613fa0565b613eef565b9050919050565b6149788161494d565b82525050565b6000608082019050614993600083018761489f565b6149a0602083018661496f565b6149ad604083018561486e565b6149ba606083018461489f565b95945050505050565b60006149ce82613eef565b91506149d983613eef565b9250817fffffffffffffffffffffffffffffffffffffffffffffffffffffffffffffffff0483118215151615614a1257614a11614766565b5b828202905092915050565b7f4e487b7100000000000000000000000000000000000000000000000000000000600052601260045260246000fd5b6000614a5782613eef565b9150614a6283613eef565b925082614a7257614a71614a1d565b5b828204905092915050565b6000614a8882613eef565b9150614a9383613eef565b925082821015614aa657614aa5614766565b5b828203905092915050565b6000606082019050614ac6600083018661486e565b614ad3602083018561486e565b614ae0604083018461486e565b949350505050565b7f4e487b7100000000000000000000000000000000000000000000000000000000600052603260045260246000fd5b600081519050614b268161439b565b92915050565b600060208284031215614b4257614b41613da5565b5b6000614b5084828501614b17565b91505092915050565b600081519050614b6881613de1565b92915050565b600060208284031215614b8457614b83613da5565b5b6000614b9284828501614b59565b91505092915050565b7f77726f6e6720666565546f000000000000000000000000000000000000000000600082015250565b6000614bd1600b836145a5565b9150614bdc82614b9b565b602082019050919050565b60006020820190508181036000830152614c0081614bc4565b9050919050565b600067ffffffffffffffff82169050919050565b614c2481614c07565b8114614c2f57600080fd5b50565b600081519050614c4181614c1b565b92915050565b60006fffffffffffffffffffffffffffffffff82169050919050565b614c6c81614c47565b8114614c7757600080fd5b50565b600081519050614c8981614c63565b92915050565b600080600060608486031215614ca857614ca7613da5565b5b6000614cb686828701614c32565b9350506020614cc786828701614c7a565b9250506040614cd886828701614c32565b9150509250925092565b6000604082019050614cf760008301856142a7565b614d04602083018461401a565b9392505050565b6000606082019050614d2060008301866142a7565b614d2d602083018561486e565b614d3a6040830184613ec5565b949350505050565b6000606082019050614d57600083018661401a565b614d64602083018561401a565b614d71604083018461486e565b949350505050565b600081519050614d8881613e19565b92915050565b600060208284031215614da457614da3613da5565b5b6000614db284828501614d79565b91505092915050565b600060a082019050614dd060008301886142a7565b614ddd602083018761401a565b614dea604083018661401a565b614df7606083018561486e565b614e04608083018461489f565b9695505050505050565b60008060408385031215614e2557614e24613da5565b5b6000614e3385828601614901565b9250506020614e4485828601614901565b9150509250929050565b6000614e5982613eef565b91507fffffffffffffffffffffffffffffffffffffffffffffffffffffffffffffffff821415614e8c57614e8b614766565b5b600182019050919050565b600081519050614ea6816140fb565b92915050565b600060208284031215614ec257614ec1613da5565b5b6000614ed084828501614e97565b91505092915050565b60008060408385031215614ef057614eef613da5565b5b6000614efe85828601614c32565b9250506020614f0f85828601614c7a565b9150509250929050565b7f4f776e61626c653a2063616c6c657220213d2070656e64696e67206f776e6572600082015250565b6000614f4f6020836145a5565b9150614f5a82614f19565b602082019050919050565b60006020820190508181036000830152614f7e81614f42565b9050919050565b6000604082019050614f9a600083018561401a565b614fa7602083018461486e565b9392505050565b600081905092915050565b82818337600083830152505050565b6000614fd48385614fae565b9350614fe1838584614fb9565b82840190509392505050565b6000614ffa828486614fc8565b91508190509392505050565b7f31696e6368207377617020756e73756365737366756c00000000000000000000600082015250565b600061503c6016836145a5565b915061504782615006565b602082019050919050565b6000602082019050818103600083015261506b8161502f565b9050919050565b6000604082019050615087600083018561401a565b615094602083018461489f565b9392505050565b600060a0820190506150b060008301886142a7565b6150bd602083018761401a565b6150ca604083018661401a565b6150d7606083018561489f565b6150e4608083018461486e565b9695505050505050565b6000604082019050615103600083018561401a565b615110602083018461401a565b9392505050565b7f5361666545524332303a20617070726f76652066726f6d206e6f6e2d7a65726f60008201527f20746f206e6f6e2d7a65726f20616c6c6f77616e636500000000000000000000602082015250565b60006151736036836145a5565b915061517e82615117565b604082019050919050565b600060208201905081810360008301526151a281615166565b9050919050565b60006dffffffffffffffffffffffffffff82169050919050565b6151cc816151a9565b81146151d757600080fd5b50565b6000815190506151e9816151c3565b92915050565b600063ffffffff82169050919050565b615208816151ef565b811461521357600080fd5b50565b600081519050615225816151ff565b92915050565b60008060006060848603121561524457615243613da5565b5b6000615252868287016151da565b9350506020615263868287016151da565b925050604061527486828701615216565b9150509250925092565b7f546f6f206c6974746c6520726563656976656400000000000000000000000000600082015250565b60006152b46013836145a5565b91506152bf8261527e565b602082019050919050565b600060208201905081810360008301526152e3816152a7565b9050919050565b600082825260208201905092915050565b50565b600061530b6000836152ea565b9150615316826152fb565b600082019050919050565b6000608082019050615336600083018661486e565b615343602083018561489f565b615350604083018461401a565b8181036060830152615361816152fe565b9050949350505050565b61537481613dcf565b82525050565b600062ffffff82169050919050565b6153928161537a565b82525050565b6153a181613eef565b82525050565b6153b081613daf565b82525050565b610100820160008201516153cd600085018261536b565b5060208201516153e0602085018261536b565b5060408201516153f36040850182615389565b506060820151615406606085018261536b565b5060808201516154196080850182615398565b5060a082015161542c60a0850182615398565b5060c082015161543f60c0850182615398565b5060e082015161545260e08501826153a7565b50505050565b60006101008201905061546e60008301846153b6565b92915050565b7f696e76616c6964206361756c64726f6e00000000000000000000000000000000600082015250565b60006154aa6010836145a5565b91506154b582615474565b602082019050919050565b600060208201905081810360008301526154d98161549d565b9050919050565b7f616c726561647920616464656400000000000000000000000000000000000000600082015250565b6000615516600d836145a5565b9150615521826154e0565b602082019050919050565b6000602082019050818103600083015261554581615509565b9050919050565b7f5361666545524332303a204552433230206f7065726174696f6e20646964206e60008201527f6f74207375636365656400000000000000000000000000000000000000000000602082015250565b60006155a8602a836145a5565b91506155b38261554c565b604082019050919050565b600060208201905081810360008301526155d78161559b565b9050919050565b7f416464726573733a20696e73756666696369656e742062616c616e636520666f60008201527f722063616c6c0000000000000000000000000000000000000000000000000000602082015250565b600061563a6026836145a5565b9150615645826155de565b604082019050919050565b600060208201905081810360008301526156698161562d565b9050919050565b7f416464726573733a2063616c6c20746f206e6f6e2d636f6e7472616374000000600082015250565b60006156a6601d836145a5565b91506156b182615670565b602082019050919050565b600060208201905081810360008301526156d581615699565b9050919050565b600081519050919050565b60005b838110156157055780820151818401526020810190506156ea565b83811115615714576000848401525b50505050565b6000615725826156dc565b61572f8185614fae565b935061573f8185602086016156e7565b80840191505092915050565b6000615757828461571a565b915081905092915050565b600081519050919050565b600061577882615762565b61578281856145a5565b93506157928185602086016156e7565b61579b816142d1565b840191505092915050565b600060208201905081810360008301526157c0818461576d565b90509291505056fea264697066735822122023c6875560619a9a22b899264d61516e9bcc50dd4dccf06b2b73a10a7798bcaf64736f6c634300080a0033",
  "devdoc": {
    "kind": "dev",
    "methods": {
      "transferOwnership(address,bool,bool)": {
        "params": {
          "direct": "True if `newOwner` should be set immediately. False if `newOwner` needs to use `claimOwnership`.",
          "newOwner": "Address of the new owner.",
          "renounce": "Allows the `newOwner` to be `address(0)` if `direct` and `renounce` is True. Has no effect otherwise."
        }
      }
    },
    "version": 1
  },
  "userdoc": {
    "kind": "user",
    "methods": {
      "claimOwnership()": {
        "notice": "Needs to be called by `pendingOwner` to claim ownership."
      },
      "transferOwnership(address,bool,bool)": {
        "notice": "Transfers ownership to `newOwner`. Either directly or claimable by the new pending owner. Can only be invoked by the current `owner`."
      }
    },
    "version": 1
  },
  "storageLayout": {
    "storage": [
      {
        "astId": 1404,
        "contract": "contracts/withdrawer/EthereumWithdrawer.sol:EthereumWithdrawer",
        "label": "owner",
        "offset": 0,
        "slot": "0",
        "type": "t_address"
      },
      {
        "astId": 1406,
        "contract": "contracts/withdrawer/EthereumWithdrawer.sol:EthereumWithdrawer",
        "label": "pendingOwner",
        "offset": 0,
        "slot": "1",
        "type": "t_address"
      },
      {
        "astId": 1814,
        "contract": "contracts/withdrawer/EthereumWithdrawer.sol:EthereumWithdrawer",
        "label": "bentoBoxCauldronsV1",
        "offset": 0,
        "slot": "2",
        "type": "t_array(t_contract(CauldronV1)1680)dyn_storage"
      },
      {
        "astId": 1818,
        "contract": "contracts/withdrawer/EthereumWithdrawer.sol:EthereumWithdrawer",
        "label": "bentoBoxCauldronsV2",
        "offset": 0,
        "slot": "3",
        "type": "t_array(t_contract(Cauldron)1650)dyn_storage"
      },
      {
        "astId": 1822,
        "contract": "contracts/withdrawer/EthereumWithdrawer.sol:EthereumWithdrawer",
        "label": "degenBoxCauldrons",
        "offset": 0,
        "slot": "4",
        "type": "t_array(t_contract(Cauldron)1650)dyn_storage"
      },
      {
        "astId": 1826,
        "contract": "contracts/withdrawer/EthereumWithdrawer.sol:EthereumWithdrawer",
        "label": "verified",
        "offset": 0,
        "slot": "5",
        "type": "t_mapping(t_address,t_bool)"
      }
    ],
    "types": {
      "t_address": {
        "encoding": "inplace",
        "label": "address",
        "numberOfBytes": "20"
      },
      "t_array(t_contract(Cauldron)1650)dyn_storage": {
        "base": "t_contract(Cauldron)1650",
        "encoding": "dynamic_array",
        "label": "contract Cauldron[]",
        "numberOfBytes": "32"
      },
      "t_array(t_contract(CauldronV1)1680)dyn_storage": {
        "base": "t_contract(CauldronV1)1680",
        "encoding": "dynamic_array",
        "label": "contract CauldronV1[]",
        "numberOfBytes": "32"
      },
      "t_bool": {
        "encoding": "inplace",
        "label": "bool",
        "numberOfBytes": "1"
      },
      "t_contract(Cauldron)1650": {
        "encoding": "inplace",
        "label": "contract Cauldron",
        "numberOfBytes": "20"
      },
      "t_contract(CauldronV1)1680": {
        "encoding": "inplace",
        "label": "contract CauldronV1",
        "numberOfBytes": "20"
      },
      "t_mapping(t_address,t_bool)": {
        "encoding": "mapping",
        "key": "t_address",
        "label": "mapping(address => bool)",
        "numberOfBytes": "32",
        "value": "t_bool"
      }
    }
  }
}