{
  "address": "0xB2c3A9c577068479B1E5119f6B7da98d25Ba48f4",
  "abi": [
    {
      "inputs": [
        {
          "internalType": "contract Cauldron[]",
          "name": "bentoBoxCauldronsV2_",
          "type": "address[]"
        },
        {
          "internalType": "contract CauldronV1[]",
          "name": "bentoBoxCauldronsV1_",
          "type": "address[]"
        },
        {
          "internalType": "contract Cauldron[]",
          "name": "degenBoxCauldrons_",
          "type": "address[]"
        }
      ],
      "stateMutability": "nonpayable",
      "type": "constructor"
    },
    {
      "anonymous": false,
      "inputs": [
        {
          "indexed": false,
          "internalType": "uint256",
          "name": "bentoxBoxAmount",
          "type": "uint256"
        },
        {
          "indexed": false,
          "internalType": "uint256",
          "name": "degenBoxAmount",
          "type": "uint256"
        },
        {
          "indexed": false,
          "internalType": "uint256",
          "name": "total",
          "type": "uint256"
        }
      ],
      "name": "MimWithdrawn",
      "type": "event"
    },
    {
      "anonymous": false,
      "inputs": [
        {
          "indexed": true,
          "internalType": "address",
          "name": "previousOwner",
          "type": "address"
        },
        {
          "indexed": true,
          "internalType": "address",
          "name": "newOwner",
          "type": "address"
        }
      ],
      "name": "OwnershipTransferred",
      "type": "event"
    },
    {
      "anonymous": false,
      "inputs": [
        {
          "indexed": false,
          "internalType": "uint256",
          "name": "amountSushiswap",
          "type": "uint256"
        },
        {
          "indexed": false,
          "internalType": "uint256",
          "name": "amountUniswap",
          "type": "uint256"
        },
        {
          "indexed": false,
          "internalType": "uint256",
          "name": "total",
          "type": "uint256"
        }
      ],
      "name": "SwappedMimToSpell",
      "type": "event"
    },
    {
      "inputs": [],
      "name": "BENTOBOX",
      "outputs": [
        {
          "internalType": "contract IBentoBoxV1",
          "name": "",
          "type": "address"
        }
      ],
      "stateMutability": "view",
      "type": "function"
    },
    {
      "inputs": [],
      "name": "DEGENBOX",
      "outputs": [
        {
          "internalType": "contract IBentoBoxV1",
          "name": "",
          "type": "address"
        }
      ],
      "stateMutability": "view",
      "type": "function"
    },
    {
      "inputs": [],
      "name": "MIM",
      "outputs": [
        {
          "internalType": "contract IERC20",
          "name": "",
          "type": "address"
        }
      ],
      "stateMutability": "view",
      "type": "function"
    },
    {
      "inputs": [],
      "name": "MIM3POOL",
      "outputs": [
        {
          "internalType": "contract CurvePool",
          "name": "",
          "type": "address"
        }
      ],
      "stateMutability": "view",
      "type": "function"
    },
    {
      "inputs": [],
      "name": "MIM_PROVIDER",
      "outputs": [
        {
          "internalType": "address",
          "name": "",
          "type": "address"
        }
      ],
      "stateMutability": "view",
      "type": "function"
    },
    {
      "inputs": [],
      "name": "SPELL",
      "outputs": [
        {
          "internalType": "address",
          "name": "",
          "type": "address"
        }
      ],
      "stateMutability": "view",
      "type": "function"
    },
    {
      "inputs": [],
      "name": "THREECRYPTO",
      "outputs": [
        {
          "internalType": "contract CurvePool",
          "name": "",
          "type": "address"
        }
      ],
      "stateMutability": "view",
      "type": "function"
    },
    {
      "inputs": [],
      "name": "TREASURY",
      "outputs": [
        {
          "internalType": "address",
          "name": "",
          "type": "address"
        }
      ],
      "stateMutability": "view",
      "type": "function"
    },
    {
      "inputs": [],
      "name": "USDT",
      "outputs": [
        {
          "internalType": "contract IERC20",
          "name": "",
          "type": "address"
        }
      ],
      "stateMutability": "view",
      "type": "function"
    },
    {
      "inputs": [],
      "name": "WETH",
      "outputs": [
        {
          "internalType": "contract IERC20",
          "name": "",
          "type": "address"
        }
      ],
      "stateMutability": "view",
      "type": "function"
    },
    {
      "inputs": [
        {
          "internalType": "contract Cauldron",
          "name": "pool",
          "type": "address"
        }
      ],
      "name": "addPool",
      "outputs": [],
      "stateMutability": "nonpayable",
      "type": "function"
    },
    {
      "inputs": [
        {
          "internalType": "contract CauldronV1",
          "name": "pool",
          "type": "address"
        }
      ],
      "name": "addPoolV1",
      "outputs": [],
      "stateMutability": "nonpayable",
      "type": "function"
    },
    {
      "inputs": [
        {
          "internalType": "contract Cauldron[]",
          "name": "pools",
          "type": "address[]"
        }
      ],
      "name": "addPools",
      "outputs": [],
      "stateMutability": "nonpayable",
      "type": "function"
    },
    {
      "inputs": [
        {
          "internalType": "uint256",
          "name": "",
          "type": "uint256"
        }
      ],
      "name": "bentoBoxCauldronsV1",
      "outputs": [
        {
          "internalType": "contract CauldronV1",
          "name": "",
          "type": "address"
        }
      ],
      "stateMutability": "view",
      "type": "function"
    },
    {
      "inputs": [
        {
          "internalType": "uint256",
          "name": "",
          "type": "uint256"
        }
      ],
      "name": "bentoBoxCauldronsV2",
      "outputs": [
        {
          "internalType": "contract Cauldron",
          "name": "",
          "type": "address"
        }
      ],
      "stateMutability": "view",
      "type": "function"
    },
    {
      "inputs": [],
      "name": "claimOwnership",
      "outputs": [],
      "stateMutability": "nonpayable",
      "type": "function"
    },
    {
      "inputs": [
        {
          "internalType": "uint256",
          "name": "",
          "type": "uint256"
        }
      ],
      "name": "degenBoxCauldrons",
      "outputs": [
        {
          "internalType": "contract Cauldron",
          "name": "",
          "type": "address"
        }
      ],
      "stateMutability": "view",
      "type": "function"
    },
    {
      "inputs": [],
      "name": "owner",
      "outputs": [
        {
          "internalType": "address",
          "name": "",
          "type": "address"
        }
      ],
      "stateMutability": "view",
      "type": "function"
    },
    {
      "inputs": [],
      "name": "pendingOwner",
      "outputs": [
        {
          "internalType": "address",
          "name": "",
          "type": "address"
        }
      ],
      "stateMutability": "view",
      "type": "function"
    },
    {
      "inputs": [
        {
          "internalType": "contract IERC20",
          "name": "token",
          "type": "address"
        },
        {
          "internalType": "address",
          "name": "to",
          "type": "address"
        },
        {
          "internalType": "uint256",
          "name": "amount",
          "type": "uint256"
        }
      ],
      "name": "rescueTokens",
      "outputs": [],
      "stateMutability": "nonpayable",
      "type": "function"
    },
    {
      "inputs": [],
      "name": "sSPELL",
      "outputs": [
        {
          "internalType": "address",
          "name": "",
          "type": "address"
        }
      ],
      "stateMutability": "view",
      "type": "function"
    },
    {
      "inputs": [
        {
          "internalType": "uint256",
          "name": "share",
          "type": "uint256"
        }
      ],
      "name": "setTreasuryShare",
      "outputs": [],
      "stateMutability": "nonpayable",
      "type": "function"
    },
    {
      "inputs": [
        {
          "internalType": "address",
          "name": "operator",
          "type": "address"
        },
        {
          "internalType": "bool",
          "name": "status",
          "type": "bool"
        }
      ],
      "name": "setVerified",
      "outputs": [],
      "stateMutability": "nonpayable",
      "type": "function"
    },
    {
      "inputs": [
        {
          "internalType": "uint256",
          "name": "amountSwapOnSushi",
          "type": "uint256"
        },
        {
          "internalType": "uint256",
          "name": "amountSwapOnUniswap",
          "type": "uint256"
        },
        {
          "internalType": "uint256",
          "name": "minAmountOutOnSushi",
          "type": "uint256"
        },
        {
          "internalType": "uint256",
          "name": "minAmountOutOnUniswap",
          "type": "uint256"
        },
        {
          "internalType": "bool",
          "name": "autoDepositToSSpell",
          "type": "bool"
        }
      ],
      "name": "swapMimForSpell",
      "outputs": [],
      "stateMutability": "nonpayable",
      "type": "function"
    },
    {
      "inputs": [
        {
          "internalType": "address",
          "name": "inchrouter",
          "type": "address"
        },
        {
          "internalType": "bytes",
          "name": "data",
          "type": "bytes"
        }
      ],
      "name": "swapMimForSpell1Inch",
      "outputs": [],
      "stateMutability": "nonpayable",
      "type": "function"
    },
    {
      "inputs": [
        {
          "internalType": "address",
          "name": "newOwner",
          "type": "address"
        },
        {
          "internalType": "bool",
          "name": "direct",
          "type": "bool"
        },
        {
          "internalType": "bool",
          "name": "renounce",
          "type": "bool"
        }
      ],
      "name": "transferOwnership",
      "outputs": [],
      "stateMutability": "nonpayable",
      "type": "function"
    },
    {
      "inputs": [],
      "name": "treasuryShare",
      "outputs": [
        {
          "internalType": "uint256",
          "name": "",
          "type": "uint256"
        }
      ],
      "stateMutability": "view",
      "type": "function"
    },
    {
      "inputs": [
        {
          "internalType": "address",
          "name": "",
          "type": "address"
        }
      ],
      "name": "verified",
      "outputs": [
        {
          "internalType": "bool",
          "name": "",
          "type": "bool"
        }
      ],
      "stateMutability": "view",
      "type": "function"
    },
    {
      "inputs": [],
      "name": "withdraw",
      "outputs": [],
      "stateMutability": "nonpayable",
      "type": "function"
    },
    {
      "inputs": [
        {
          "internalType": "uint256",
          "name": "amountBentoboxShare",
          "type": "uint256"
        },
        {
          "internalType": "uint256",
          "name": "amountDegenBoxShare",
          "type": "uint256"
        }
      ],
      "name": "withdrawFromBentoBoxes",
      "outputs": [],
      "stateMutability": "nonpayable",
      "type": "function"
    }
  ],
  "transactionHash": "0x4c76ba2216ff38b6094a46355d6527fee1b07d9151edfa2e046662cc293c3da5",
  "args": [
    [
      "0xc1879bf24917ebE531FbAA20b0D05Da027B592ce",
      "0x7b7473a76d6ae86ce19f7352a1e89f6c9dc39020",
      "0x920D9BD936Da4eAFb5E25c6bDC9f6CB528953F9f",
      "0x806e16ec797c69afa8590A55723CE4CC1b54050E",
      "0x6371EfE5CD6e3d2d7C477935b7669401143b7985",
      "0x257101F20cB7243E2c7129773eD5dBBcef8B34E0",
      "0x35a0Dd182E4bCa59d5931eae13D0A2332fA30321",
      "0x4EAeD76C3A388f4a841E9c765560BBe7B3E4B3A0",
      "0x05500e2Ee779329698DF35760bEdcAAC046e7C27",
      "0x9617b633EF905860D919b88E1d9d9a6191795341",
      "0x252dCf1B621Cc53bc22C256255d2bE5C8c32EaE4",
      "0x3410297D89dCDAf4072B805EFc1ef701Bb3dd9BF",
      "0xc319eea1e792577c319723b5e60a15da3857e7da",
      "0x003d5A75d284824Af736df51933be522DE9Eed0f",
      "0x98a84EfF6e008c5ed0289655CcdCa899bcb6B99F",
      "0xEBfDe87310dc22404d918058FAa4D56DC4E93f0A",
      "0x0BCa8ebcB26502b013493Bf8fE53aA2B1ED401C1"
    ],
    [
      "0x551a7CfF4de931F32893c928bBc3D25bF1Fc5147",
      "0x6Ff9061bB8f97d948942cEF376d98b51fA38B91f",
      "0xFFbF4892822e0d552CFF317F65e1eE7b5D3d9aE6",
      "0x6cbAFEE1FaB76cA5B5e144c43B3B50d42b7C8c8f",
      "0xbb02A884621FB8F5BFd263A67F58B65df5b090f3"
    ],
    [
      "0xCfc571f3203756319c231d3Bc643Cee807E74636",
      "0xbc36FdE44A7FD8f545d459452EF9539d7A14dd63",
      "0x59E9082E068Ddb27FC5eF1690F9a9f22B32e573f"
    ]
  ],
  "solcInputHash": "1ec6e20748bec7e5fc11ad745d06a1cd",
  "bytecode": "0x60806040523480156200001157600080fd5b5060405162006a8138038062006a81833981810160405281019062000037919062000bf5565b336000806101000a81548173ffffffffffffffffffffffffffffffffffffffff021916908373ffffffffffffffffffffffffffffffffffffffff1602179055503373ffffffffffffffffffffffffffffffffffffffff16600073ffffffffffffffffffffffffffffffffffffffff167f8be0079c531659141344cd1fd0a4f28419497f9722a3daafe3b4186f6b6457e060405160405180910390a38260039080519060200190620000ea9291906200079b565b508160029080519060200190620001039291906200082a565b5080600490805190602001906200011c9291906200079b565b507399d8a9c45b2eca8864373a26d1459e3dff1e17f373ffffffffffffffffffffffffffffffffffffffff1663095ea7b3735a6a4d54456819380173272a5e8e9b9904bdf41b7fffffffffffffffffffffffffffffffffffffffffffffffffffffffffffffffff6040518363ffffffff1660e01b8152600401620001a292919062000cda565b6020604051808303816000875af1158015620001c2573d6000803e3d6000fd5b505050506040513d601f19601f82011682018060405250810190620001e8919062000d44565b5073c02aaa39b223fe8d0a0e5c4f27ead9083c756cc273ffffffffffffffffffffffffffffffffffffffff1663095ea7b373e592427a0aece92de3edee1f18e0157c058615647fffffffffffffffffffffffffffffffffffffffffffffffffffffffffffffffff6040518363ffffffff1660e01b81526004016200026e92919062000cda565b6020604051808303816000875af11580156200028e573d6000803e3d6000fd5b505050506040513d601f19601f82011682018060405250810190620002b4919062000d44565b506200032f73d51a44d3fae010294c616388b506acda1bfaae467fffffffffffffffffffffffffffffffffffffffffffffffffffffffffffffffff73dac17f958d2ee523a2206206994597c13d831ec773ffffffffffffffffffffffffffffffffffffffff166200039860201b620030a4179092919060201c565b6001600660003373ffffffffffffffffffffffffffffffffffffffff1673ffffffffffffffffffffffffffffffffffffffff16815260200190815260200160002060006101000a81548160ff02191690831515021790555060196005819055505050506200115d565b600081148062000428575060008373ffffffffffffffffffffffffffffffffffffffff1663dd62ed3e30856040518363ffffffff1660e01b8152600401620003e292919062000d76565b602060405180830381865afa15801562000400573d6000803e3d6000fd5b505050506040513d601f19601f8201168201806040525081019062000426919062000dd4565b145b6200046a576040517f08c379a0000000000000000000000000000000000000000000000000000000008152600401620004619062000e8d565b60405180910390fd5b620004f58363095ea7b360e01b84846040516024016200048c92919062000cda565b604051602081830303815290604052907bffffffffffffffffffffffffffffffffffffffffffffffffffffffff19166020820180517bffffffffffffffffffffffffffffffffffffffffffffffffffffffff8381831617835250505050620004fa60201b60201c565b505050565b600062000563826040518060400160405280602081526020017f5361666545524332303a206c6f772d6c6576656c2063616c6c206661696c65648152508573ffffffffffffffffffffffffffffffffffffffff16620005ce60201b620031f3179092919060201c565b9050600081511115620005c9578080602001905181019062000586919062000d44565b620005c8576040517f08c379a0000000000000000000000000000000000000000000000000000000008152600401620005bf9062000f25565b60405180910390fd5b5b505050565b6060620005e58484600085620005ee60201b60201c565b90509392505050565b60608247101562000636576040517f08c379a00000000000000000000000000000000000000000000000000000000081526004016200062d9062000fbd565b60405180910390fd5b62000647856200071c60201b60201c565b62000689576040517f08c379a000000000000000000000000000000000000000000000000000000000815260040162000680906200102f565b60405180910390fd5b6000808673ffffffffffffffffffffffffffffffffffffffff168587604051620006b49190620010d4565b60006040518083038185875af1925050503d8060008114620006f3576040519150601f19603f3d011682016040523d82523d6000602084013e620006f8565b606091505b5091509150620007108282866200072f60201b60201c565b92505050949350505050565b600080823b905060008111915050919050565b60608315620007415782905062000794565b600083511115620007555782518084602001fd5b816040517f08c379a00000000000000000000000000000000000000000000000000000000081526004016200078b919062001139565b60405180910390fd5b9392505050565b82805482825590600052602060002090810192821562000817579160200282015b82811115620008165782518260006101000a81548173ffffffffffffffffffffffffffffffffffffffff021916908373ffffffffffffffffffffffffffffffffffffffff16021790555091602001919060010190620007bc565b5b509050620008269190620008b9565b5090565b828054828255906000526020600020908101928215620008a6579160200282015b82811115620008a55782518260006101000a81548173ffffffffffffffffffffffffffffffffffffffff021916908373ffffffffffffffffffffffffffffffffffffffff160217905550916020019190600101906200084b565b5b509050620008b59190620008b9565b5090565b5b80821115620008d4576000816000905550600101620008ba565b5090565b6000604051905090565b600080fd5b600080fd5b600080fd5b6000601f19601f8301169050919050565b7f4e487b7100000000000000000000000000000000000000000000000000000000600052604160045260246000fd5b6200093c82620008f1565b810181811067ffffffffffffffff821117156200095e576200095d62000902565b5b80604052505050565b600062000973620008d8565b905062000981828262000931565b919050565b600067ffffffffffffffff821115620009a457620009a362000902565b5b602082029050602081019050919050565b600080fd5b600073ffffffffffffffffffffffffffffffffffffffff82169050919050565b6000620009e782620009ba565b9050919050565b6000620009fb82620009da565b9050919050565b62000a0d81620009ee565b811462000a1957600080fd5b50565b60008151905062000a2d8162000a02565b92915050565b600062000a4a62000a448462000986565b62000967565b9050808382526020820190506020840283018581111562000a705762000a6f620009b5565b5b835b8181101562000a9d578062000a88888262000a1c565b84526020840193505060208101905062000a72565b5050509392505050565b600082601f83011262000abf5762000abe620008ec565b5b815162000ad184826020860162000a33565b91505092915050565b600067ffffffffffffffff82111562000af85762000af762000902565b5b602082029050602081019050919050565b600062000b1682620009da565b9050919050565b62000b288162000b09565b811462000b3457600080fd5b50565b60008151905062000b488162000b1d565b92915050565b600062000b6562000b5f8462000ada565b62000967565b9050808382526020820190506020840283018581111562000b8b5762000b8a620009b5565b5b835b8181101562000bb8578062000ba3888262000b37565b84526020840193505060208101905062000b8d565b5050509392505050565b600082601f83011262000bda5762000bd9620008ec565b5b815162000bec84826020860162000b4e565b91505092915050565b60008060006060848603121562000c115762000c10620008e2565b5b600084015167ffffffffffffffff81111562000c325762000c31620008e7565b5b62000c408682870162000aa7565b935050602084015167ffffffffffffffff81111562000c645762000c63620008e7565b5b62000c728682870162000bc2565b925050604084015167ffffffffffffffff81111562000c965762000c95620008e7565b5b62000ca48682870162000aa7565b9150509250925092565b62000cb981620009da565b82525050565b6000819050919050565b62000cd48162000cbf565b82525050565b600060408201905062000cf1600083018562000cae565b62000d00602083018462000cc9565b9392505050565b60008115159050919050565b62000d1e8162000d07565b811462000d2a57600080fd5b50565b60008151905062000d3e8162000d13565b92915050565b60006020828403121562000d5d5762000d5c620008e2565b5b600062000d6d8482850162000d2d565b91505092915050565b600060408201905062000d8d600083018562000cae565b62000d9c602083018462000cae565b9392505050565b62000dae8162000cbf565b811462000dba57600080fd5b50565b60008151905062000dce8162000da3565b92915050565b60006020828403121562000ded5762000dec620008e2565b5b600062000dfd8482850162000dbd565b91505092915050565b600082825260208201905092915050565b7f5361666545524332303a20617070726f76652066726f6d206e6f6e2d7a65726f60008201527f20746f206e6f6e2d7a65726f20616c6c6f77616e636500000000000000000000602082015250565b600062000e7560368362000e06565b915062000e828262000e17565b604082019050919050565b6000602082019050818103600083015262000ea88162000e66565b9050919050565b7f5361666545524332303a204552433230206f7065726174696f6e20646964206e60008201527f6f74207375636365656400000000000000000000000000000000000000000000602082015250565b600062000f0d602a8362000e06565b915062000f1a8262000eaf565b604082019050919050565b6000602082019050818103600083015262000f408162000efe565b9050919050565b7f416464726573733a20696e73756666696369656e742062616c616e636520666f60008201527f722063616c6c0000000000000000000000000000000000000000000000000000602082015250565b600062000fa560268362000e06565b915062000fb28262000f47565b604082019050919050565b6000602082019050818103600083015262000fd88162000f96565b9050919050565b7f416464726573733a2063616c6c20746f206e6f6e2d636f6e7472616374000000600082015250565b600062001017601d8362000e06565b9150620010248262000fdf565b602082019050919050565b600060208201905081810360008301526200104a8162001008565b9050919050565b600081519050919050565b600081905092915050565b60005b83811015620010875780820151818401526020810190506200106a565b8381111562001097576000848401525b50505050565b6000620010aa8262001051565b620010b681856200105c565b9350620010c881856020860162001067565b80840191505092915050565b6000620010e282846200109d565b915081905092915050565b600081519050919050565b60006200110582620010ed565b62001111818562000e06565b93506200112381856020860162001067565b6200112e81620008f1565b840191505092915050565b60006020820190508181036000830152620011558184620010f8565b905092915050565b615914806200116d6000396000f3fe608060405234801561001057600080fd5b50600436106101da5760003560e01c806384b1fc1011610104578063c54e44eb116100a2578063dbf6005011610071578063dbf60050146104f9578063e0bc66b814610515578063e30c397814610533578063fabf360114610551576101da565b8063c54e44eb14610485578063cea9d26f146104a3578063d914cd4b146104bf578063daec383d146104db576101da565b80639cf5c613116100de5780639cf5c613146103ff578063ab93539d1461041b578063ad5c46481461044b578063b36a4ab114610469576101da565b806384b1fc10146103955780638da5cb5b146103c55780639109f9e4146103e3576101da565b80634e71e0c81161017c57806374f9e6a31161014b57806374f9e6a314610321578063766367221461033d5780637796ff371461035b5780637dd4708014610379576101da565b80634e71e0c8146102ab5780635825a248146102b55780636d18d05c146102d35780636f2e7c5014610303576101da565b806322a88c09116101b857806322a88c09146102475780632d2c5565146102655780633ccfd60b14610283578063483a721b1461028d576101da565b8063078dfbe7146101df5780630db065f4146101fb57806313e3eaa61461022b575b600080fd5b6101f960048036038101906101f49190613f40565b61056f565b005b61021560048036038101906102109190613f93565b6107c3565b6040516102229190613fcf565b60405180910390f35b61024560048036038101906102409190614020565b6107e3565b005b61024f610b8d565b60405161025c91906140fa565b60405180910390f35b61026d610ba5565b60405161027a9190614124565b60405180910390f35b61028b610bbd565b005b6102956123c0565b6040516102a29190614160565b60405180910390f35b6102b36123d8565b005b6102bd61256c565b6040516102ca91906140fa565b60405180910390f35b6102ed60048036038101906102e8919061417b565b612584565b6040516102fa91906141c9565b60405180910390f35b61030b6125c3565b6040516103189190614124565b60405180910390f35b61033b6004803603810190610336919061417b565b6125db565b005b610345612673565b6040516103529190614124565b60405180910390f35b61036361268b565b60405161037091906141f3565b60405180910390f35b610393600480360381019061038e919061424c565b612691565b005b6103af60048036038101906103aa919061417b565b612785565b6040516103bc91906141c9565b60405180910390f35b6103cd6127c4565b6040516103da9190614124565b60405180910390f35b6103fd60048036038101906103f891906142de565b6127e8565b005b6104196004803603810190610414919061433e565b612b52565b005b6104356004803603810190610430919061417b565b612c3b565b604051610442919061439f565b60405180910390f35b610453612c7a565b60405161046091906143db565b60405180910390f35b610483600480360381019061047e9190614583565b612c92565b005b61048d612d66565b60405161049a91906143db565b60405180910390f35b6104bd60048036038101906104b8919061460a565b612d7e565b005b6104d960048036038101906104d4919061465d565b612e3c565b005b6104e3612ed6565b6040516104f091906143db565b60405180910390f35b610513600480360381019061050e919061468a565b612eee565b005b61051d61304e565b60405161052a9190614160565b60405180910390f35b61053b613066565b6040516105489190614124565b60405180910390f35b61055961308c565b6040516105669190614124565b60405180910390f35b60008054906101000a900473ffffffffffffffffffffffffffffffffffffffff1673ffffffffffffffffffffffffffffffffffffffff163373ffffffffffffffffffffffffffffffffffffffff16146105fd576040517f08c379a00000000000000000000000000000000000000000000000000000000081526004016105f490614727565b60405180910390fd5b811561077c57600073ffffffffffffffffffffffffffffffffffffffff168373ffffffffffffffffffffffffffffffffffffffff1614158061063c5750805b61067b576040517f08c379a000000000000000000000000000000000000000000000000000000000815260040161067290614793565b60405180910390fd5b8273ffffffffffffffffffffffffffffffffffffffff1660008054906101000a900473ffffffffffffffffffffffffffffffffffffffff1673ffffffffffffffffffffffffffffffffffffffff167f8be0079c531659141344cd1fd0a4f28419497f9722a3daafe3b4186f6b6457e060405160405180910390a3826000806101000a81548173ffffffffffffffffffffffffffffffffffffffff021916908373ffffffffffffffffffffffffffffffffffffffff1602179055506000600160006101000a81548173ffffffffffffffffffffffffffffffffffffffff021916908373ffffffffffffffffffffffffffffffffffffffff1602179055506107be565b82600160006101000a81548173ffffffffffffffffffffffffffffffffffffffff021916908373ffffffffffffffffffffffffffffffffffffffff1602179055505b505050565b60066020528060005260406000206000915054906101000a900460ff1681565b600660003373ffffffffffffffffffffffffffffffffffffffff1673ffffffffffffffffffffffffffffffffffffffff16815260200190815260200160002060009054906101000a900460ff1661086f576040517f08c379a0000000000000000000000000000000000000000000000000000000008152600401610866906147ff565b60405180910390fd5b600085118061087e5750600084115b6108bd576040517f08c379a00000000000000000000000000000000000000000000000000000000081526004016108b49061486b565b60405180910390fd5b6000816108ca57306108e0565b7326fa3fffb6efe8c1e69103acb4044c26b9a106a95b905060006108f886886108f391906148ba565b61320b565b90506000735a6a4d54456819380173272a5e8e9b9904bdf41b73ffffffffffffffffffffffffffffffffffffffff166344ee198660006003856000306040518663ffffffff1660e01b81526004016109549594939291906149c4565b6020604051808303816000875af1158015610973573d6000803e3d6000fd5b505050506040513d601f19601f820116820180604052508101906109979190614a2c565b905073d51a44d3fae010294c616388b506acda1bfaae4673ffffffffffffffffffffffffffffffffffffffff16635b41b908600060028460006040518563ffffffff1660e01b81526004016109ef9493929190614a94565b600060405180830381600087803b158015610a0957600080fd5b505af1158015610a1d573d6000803e3d6000fd5b50505050600073c02aaa39b223fe8d0a0e5c4f27ead9083c756cc273ffffffffffffffffffffffffffffffffffffffff166370a08231306040518263ffffffff1660e01b8152600401610a709190614124565b602060405180830381865afa158015610a8d573d6000803e3d6000fd5b505050506040513d601f19601f82011682018060405250810190610ab19190614a2c565b90506000888a610ac191906148ba565b60648b610ace9190614ad9565b610ad89190614b62565b9050600060648284610aea9190614ad9565b610af49190614b62565b905060008184610b049190614b93565b905060008060008e1115610b2057610b1d848d8b6132e5565b91505b60008d1115610b3757610b34838c8b61351c565b90505b7f5bf58f83da08462fa5a56d1c795c56bda7a06ebaf819e0c3d03765faaa52390782828385610b6691906148ba565b604051610b7593929190614bc7565b60405180910390a15050505050505050505050505050565b735a6a4d54456819380173272a5e8e9b9904bdf41b81565b735a7c5505f3cfb9a0d9a8493ec41bf27ee48c406d81565b6000600380549050905060005b818110156112c0573073ffffffffffffffffffffffffffffffffffffffff1660038281548110610bfd57610bfc614bfe565b5b9060005260206000200160009054906101000a900473ffffffffffffffffffffffffffffffffffffffff1673ffffffffffffffffffffffffffffffffffffffff1663cd446e226040518163ffffffff1660e01b81526004016020604051808303816000875af1158015610c74573d6000803e3d6000fd5b505050506040513d601f19601f82011682018060405250810190610c989190614c42565b73ffffffffffffffffffffffffffffffffffffffff1663017e7e586040518163ffffffff1660e01b81526004016020604051808303816000875af1158015610ce4573d6000803e3d6000fd5b505050506040513d601f19601f82011682018060405250810190610d089190614c84565b73ffffffffffffffffffffffffffffffffffffffff1614610d5e576040517f08c379a0000000000000000000000000000000000000000000000000000000008152600401610d5590614cfd565b60405180910390fd5b60038181548110610d7257610d71614bfe565b5b9060005260206000200160009054906101000a900473ffffffffffffffffffffffffffffffffffffffff1673ffffffffffffffffffffffffffffffffffffffff1663f8ba4cff6040518163ffffffff1660e01b8152600401600060405180830381600087803b158015610de457600080fd5b505af1158015610df8573d6000803e3d6000fd5b50505050600060038281548110610e1257610e11614bfe565b5b9060005260206000200160009054906101000a900473ffffffffffffffffffffffffffffffffffffffff1673ffffffffffffffffffffffffffffffffffffffff1663b27c0e746040518163ffffffff1660e01b8152600401606060405180830381865afa158015610e87573d6000803e3d6000fd5b505050506040513d601f19601f82011682018060405250810190610eab9190614da5565b506fffffffffffffffffffffffffffffffff1691505073f5bce5077908a1b7370b9ae04adc565ebd64396673ffffffffffffffffffffffffffffffffffffffff1663566231187399d8a9c45b2eca8864373a26d1459e3dff1e17f373f5bce5077908a1b7370b9ae04adc565ebd64396673ffffffffffffffffffffffffffffffffffffffff1663f7888aec7399d8a9c45b2eca8864373a26d1459e3dff1e17f360038881548110610f5f57610f5e614bfe565b5b9060005260206000200160009054906101000a900473ffffffffffffffffffffffffffffffffffffffff166040518363ffffffff1660e01b8152600401610fa7929190614df8565b602060405180830381865afa158015610fc4573d6000803e3d6000fd5b505050506040513d601f19601f82011682018060405250810190610fe89190614a2c565b60006040518463ffffffff1660e01b815260040161100893929190614e21565b602060405180830381865afa158015611025573d6000803e3d6000fd5b505050506040513d601f19601f820116820180604052508101906110499190614a2c565b81111561120e577399d8a9c45b2eca8864373a26d1459e3dff1e17f373ffffffffffffffffffffffffffffffffffffffff166323b872dd735f0dee98360d8200b20812e174d139a1a633edd273f5bce5077908a1b7370b9ae04adc565ebd643966846040518463ffffffff1660e01b81526004016110c993929190614e58565b6020604051808303816000875af11580156110e8573d6000803e3d6000fd5b505050506040513d601f19601f8201168201806040525081019061110c9190614ea4565b5073f5bce5077908a1b7370b9ae04adc565ebd64396673ffffffffffffffffffffffffffffffffffffffff166302b9446c7399d8a9c45b2eca8864373a26d1459e3dff1e17f373f5bce5077908a1b7370b9ae04adc565ebd6439666003868154811061117b5761117a614bfe565b5b9060005260206000200160009054906101000a900473ffffffffffffffffffffffffffffffffffffffff168560006040518663ffffffff1660e01b81526004016111c9959493929190614ed1565b60408051808303816000875af11580156111e7573d6000803e3d6000fd5b505050506040513d601f19601f8201168201806040525081019061120b9190614f24565b50505b6003828154811061122257611221614bfe565b5b9060005260206000200160009054906101000a900473ffffffffffffffffffffffffffffffffffffffff1673ffffffffffffffffffffffffffffffffffffffff1663476343ee6040518163ffffffff1660e01b8152600401600060405180830381600087803b15801561129457600080fd5b505af11580156112a8573d6000803e3d6000fd5b505050505080806112b890614f64565b915050610bca565b50600280549050905060005b818110156119c0573073ffffffffffffffffffffffffffffffffffffffff16600282815481106112ff576112fe614bfe565b5b9060005260206000200160009054906101000a900473ffffffffffffffffffffffffffffffffffffffff1673ffffffffffffffffffffffffffffffffffffffff1663cd446e226040518163ffffffff1660e01b81526004016020604051808303816000875af1158015611376573d6000803e3d6000fd5b505050506040513d601f19601f8201168201806040525081019061139a9190614fc2565b73ffffffffffffffffffffffffffffffffffffffff1663017e7e586040518163ffffffff1660e01b81526004016020604051808303816000875af11580156113e6573d6000803e3d6000fd5b505050506040513d601f19601f8201168201806040525081019061140a9190614c84565b73ffffffffffffffffffffffffffffffffffffffff1614611460576040517f08c379a000000000000000000000000000000000000000000000000000000000815260040161145790614cfd565b60405180910390fd5b6002818154811061147457611473614bfe565b5b9060005260206000200160009054906101000a900473ffffffffffffffffffffffffffffffffffffffff1673ffffffffffffffffffffffffffffffffffffffff1663f8ba4cff6040518163ffffffff1660e01b8152600401600060405180830381600087803b1580156114e657600080fd5b505af11580156114fa573d6000803e3d6000fd5b5050505060006002828154811061151457611513614bfe565b5b9060005260206000200160009054906101000a900473ffffffffffffffffffffffffffffffffffffffff1673ffffffffffffffffffffffffffffffffffffffff1663b27c0e746040518163ffffffff1660e01b81526004016040805180830381865afa158015611588573d6000803e3d6000fd5b505050506040513d601f19601f820116820180604052508101906115ac9190614fef565b6fffffffffffffffffffffffffffffffff1691505073f5bce5077908a1b7370b9ae04adc565ebd64396673ffffffffffffffffffffffffffffffffffffffff1663566231187399d8a9c45b2eca8864373a26d1459e3dff1e17f373f5bce5077908a1b7370b9ae04adc565ebd64396673ffffffffffffffffffffffffffffffffffffffff1663f7888aec7399d8a9c45b2eca8864373a26d1459e3dff1e17f36002888154811061165f5761165e614bfe565b5b9060005260206000200160009054906101000a900473ffffffffffffffffffffffffffffffffffffffff166040518363ffffffff1660e01b81526004016116a7929190614df8565b602060405180830381865afa1580156116c4573d6000803e3d6000fd5b505050506040513d601f19601f820116820180604052508101906116e89190614a2c565b60006040518463ffffffff1660e01b815260040161170893929190614e21565b602060405180830381865afa158015611725573d6000803e3d6000fd5b505050506040513d601f19601f820116820180604052508101906117499190614a2c565b81111561190e577399d8a9c45b2eca8864373a26d1459e3dff1e17f373ffffffffffffffffffffffffffffffffffffffff166323b872dd735f0dee98360d8200b20812e174d139a1a633edd273f5bce5077908a1b7370b9ae04adc565ebd643966846040518463ffffffff1660e01b81526004016117c993929190614e58565b6020604051808303816000875af11580156117e8573d6000803e3d6000fd5b505050506040513d601f19601f8201168201806040525081019061180c9190614ea4565b5073f5bce5077908a1b7370b9ae04adc565ebd64396673ffffffffffffffffffffffffffffffffffffffff166302b9446c7399d8a9c45b2eca8864373a26d1459e3dff1e17f373f5bce5077908a1b7370b9ae04adc565ebd6439666002868154811061187b5761187a614bfe565b5b9060005260206000200160009054906101000a900473ffffffffffffffffffffffffffffffffffffffff168560006040518663ffffffff1660e01b81526004016118c9959493929190614ed1565b60408051808303816000875af11580156118e7573d6000803e3d6000fd5b505050506040513d601f19601f8201168201806040525081019061190b9190614f24565b50505b6002828154811061192257611921614bfe565b5b9060005260206000200160009054906101000a900473ffffffffffffffffffffffffffffffffffffffff1673ffffffffffffffffffffffffffffffffffffffff1663476343ee6040518163ffffffff1660e01b8152600401600060405180830381600087803b15801561199457600080fd5b505af11580156119a8573d6000803e3d6000fd5b505050505080806119b890614f64565b9150506112cc565b50600480549050905060005b818110156120c2573073ffffffffffffffffffffffffffffffffffffffff16600482815481106119ff576119fe614bfe565b5b9060005260206000200160009054906101000a900473ffffffffffffffffffffffffffffffffffffffff1673ffffffffffffffffffffffffffffffffffffffff1663cd446e226040518163ffffffff1660e01b81526004016020604051808303816000875af1158015611a76573d6000803e3d6000fd5b505050506040513d601f19601f82011682018060405250810190611a9a9190614c42565b73ffffffffffffffffffffffffffffffffffffffff1663017e7e586040518163ffffffff1660e01b81526004016020604051808303816000875af1158015611ae6573d6000803e3d6000fd5b505050506040513d601f19601f82011682018060405250810190611b0a9190614c84565b73ffffffffffffffffffffffffffffffffffffffff1614611b60576040517f08c379a0000000000000000000000000000000000000000000000000000000008152600401611b5790614cfd565b60405180910390fd5b60048181548110611b7457611b73614bfe565b5b9060005260206000200160009054906101000a900473ffffffffffffffffffffffffffffffffffffffff1673ffffffffffffffffffffffffffffffffffffffff1663f8ba4cff6040518163ffffffff1660e01b8152600401600060405180830381600087803b158015611be657600080fd5b505af1158015611bfa573d6000803e3d6000fd5b50505050600060048281548110611c1457611c13614bfe565b5b9060005260206000200160009054906101000a900473ffffffffffffffffffffffffffffffffffffffff1673ffffffffffffffffffffffffffffffffffffffff1663b27c0e746040518163ffffffff1660e01b8152600401606060405180830381865afa158015611c89573d6000803e3d6000fd5b505050506040513d601f19601f82011682018060405250810190611cad9190614da5565b506fffffffffffffffffffffffffffffffff1691505073d96f48665a1410c0cd669a88898eca36b9fc2cce73ffffffffffffffffffffffffffffffffffffffff1663566231187399d8a9c45b2eca8864373a26d1459e3dff1e17f373d96f48665a1410c0cd669a88898eca36b9fc2cce73ffffffffffffffffffffffffffffffffffffffff1663f7888aec7399d8a9c45b2eca8864373a26d1459e3dff1e17f360048881548110611d6157611d60614bfe565b5b9060005260206000200160009054906101000a900473ffffffffffffffffffffffffffffffffffffffff166040518363ffffffff1660e01b8152600401611da9929190614df8565b602060405180830381865afa158015611dc6573d6000803e3d6000fd5b505050506040513d601f19601f82011682018060405250810190611dea9190614a2c565b60006040518463ffffffff1660e01b8152600401611e0a93929190614e21565b602060405180830381865afa158015611e27573d6000803e3d6000fd5b505050506040513d601f19601f82011682018060405250810190611e4b9190614a2c565b811115612010577399d8a9c45b2eca8864373a26d1459e3dff1e17f373ffffffffffffffffffffffffffffffffffffffff166323b872dd735f0dee98360d8200b20812e174d139a1a633edd273d96f48665a1410c0cd669a88898eca36b9fc2cce846040518463ffffffff1660e01b8152600401611ecb93929190614e58565b6020604051808303816000875af1158015611eea573d6000803e3d6000fd5b505050506040513d601f19601f82011682018060405250810190611f0e9190614ea4565b5073d96f48665a1410c0cd669a88898eca36b9fc2cce73ffffffffffffffffffffffffffffffffffffffff166302b9446c7399d8a9c45b2eca8864373a26d1459e3dff1e17f373d96f48665a1410c0cd669a88898eca36b9fc2cce60048681548110611f7d57611f7c614bfe565b5b9060005260206000200160009054906101000a900473ffffffffffffffffffffffffffffffffffffffff168560006040518663ffffffff1660e01b8152600401611fcb959493929190614ed1565b60408051808303816000875af1158015611fe9573d6000803e3d6000fd5b505050506040513d601f19601f8201168201806040525081019061200d9190614f24565b50505b6004828154811061202457612023614bfe565b5b9060005260206000200160009054906101000a900473ffffffffffffffffffffffffffffffffffffffff1673ffffffffffffffffffffffffffffffffffffffff1663476343ee6040518163ffffffff1660e01b8152600401600060405180830381600087803b15801561209657600080fd5b505af11580156120aa573d6000803e3d6000fd5b505050505080806120ba90614f64565b9150506119cc565b50600073f5bce5077908a1b7370b9ae04adc565ebd64396673ffffffffffffffffffffffffffffffffffffffff1663f7888aec7399d8a9c45b2eca8864373a26d1459e3dff1e17f3306040518363ffffffff1660e01b8152600401612128929190614df8565b602060405180830381865afa158015612145573d6000803e3d6000fd5b505050506040513d601f19601f820116820180604052508101906121699190614a2c565b9050600073d96f48665a1410c0cd669a88898eca36b9fc2cce73ffffffffffffffffffffffffffffffffffffffff1663f7888aec7399d8a9c45b2eca8864373a26d1459e3dff1e17f3306040518363ffffffff1660e01b81526004016121d0929190614df8565b602060405180830381865afa1580156121ed573d6000803e3d6000fd5b505050506040513d601f19601f820116820180604052508101906122119190614a2c565b905061221d8282612eee565b600073f5bce5077908a1b7370b9ae04adc565ebd64396673ffffffffffffffffffffffffffffffffffffffff1663566231187399d8a9c45b2eca8864373a26d1459e3dff1e17f38560006040518463ffffffff1660e01b815260040161228593929190614e21565b602060405180830381865afa1580156122a2573d6000803e3d6000fd5b505050506040513d601f19601f820116820180604052508101906122c69190614a2c565b9050600073d96f48665a1410c0cd669a88898eca36b9fc2cce73ffffffffffffffffffffffffffffffffffffffff1663566231187399d8a9c45b2eca8864373a26d1459e3dff1e17f38560006040518463ffffffff1660e01b815260040161233093929190614e21565b602060405180830381865afa15801561234d573d6000803e3d6000fd5b505050506040513d601f19601f820116820180604052508101906123719190614a2c565b90507facad33a1159cfbce2f4f341040243f330dc8ece6c9fa5c191bbb71c0df548d66828283856123a291906148ba565b6040516123b193929190614bc7565b60405180910390a15050505050565b73f5bce5077908a1b7370b9ae04adc565ebd64396681565b6000600160009054906101000a900473ffffffffffffffffffffffffffffffffffffffff1690508073ffffffffffffffffffffffffffffffffffffffff163373ffffffffffffffffffffffffffffffffffffffff161461246d576040517f08c379a00000000000000000000000000000000000000000000000000000000081526004016124649061507b565b60405180910390fd5b8073ffffffffffffffffffffffffffffffffffffffff1660008054906101000a900473ffffffffffffffffffffffffffffffffffffffff1673ffffffffffffffffffffffffffffffffffffffff167f8be0079c531659141344cd1fd0a4f28419497f9722a3daafe3b4186f6b6457e060405160405180910390a3806000806101000a81548173ffffffffffffffffffffffffffffffffffffffff021916908373ffffffffffffffffffffffffffffffffffffffff1602179055506000600160006101000a81548173ffffffffffffffffffffffffffffffffffffffff021916908373ffffffffffffffffffffffffffffffffffffffff16021790555050565b73d51a44d3fae010294c616388b506acda1bfaae4681565b6004818154811061259457600080fd5b906000526020600020016000915054906101000a900473ffffffffffffffffffffffffffffffffffffffff1681565b735f0dee98360d8200b20812e174d139a1a633edd281565b60008054906101000a900473ffffffffffffffffffffffffffffffffffffffff1673ffffffffffffffffffffffffffffffffffffffff163373ffffffffffffffffffffffffffffffffffffffff1614612669576040517f08c379a000000000000000000000000000000000000000000000000000000000815260040161266090614727565b60405180910390fd5b8060058190555050565b73090185f2135308bad17527004364ebcc2d37e5f681565b60055481565b60008054906101000a900473ffffffffffffffffffffffffffffffffffffffff1673ffffffffffffffffffffffffffffffffffffffff163373ffffffffffffffffffffffffffffffffffffffff161461271f576040517f08c379a000000000000000000000000000000000000000000000000000000000815260040161271690614727565b60405180910390fd5b6002819080600181540180825580915050600190039060005260206000200160009091909190916101000a81548173ffffffffffffffffffffffffffffffffffffffff021916908373ffffffffffffffffffffffffffffffffffffffff16021790555050565b6003818154811061279557600080fd5b906000526020600020016000915054906101000a900473ffffffffffffffffffffffffffffffffffffffff1681565b60008054906101000a900473ffffffffffffffffffffffffffffffffffffffff1681565b60008054906101000a900473ffffffffffffffffffffffffffffffffffffffff1673ffffffffffffffffffffffffffffffffffffffff163373ffffffffffffffffffffffffffffffffffffffff1614612876576040517f08c379a000000000000000000000000000000000000000000000000000000000815260040161286d90614727565b60405180910390fd5b7399d8a9c45b2eca8864373a26d1459e3dff1e17f373ffffffffffffffffffffffffffffffffffffffff1663095ea7b3847fffffffffffffffffffffffffffffffffffffffffffffffffffffffffffffffff6040518363ffffffff1660e01b81526004016128e592919061509b565b6020604051808303816000875af1158015612904573d6000803e3d6000fd5b505050506040513d601f19601f820116820180604052508101906129289190614ea4565b5060008373ffffffffffffffffffffffffffffffffffffffff168383604051612952929190615103565b6000604051808303816000865af19150503d806000811461298f576040519150601f19603f3d011682016040523d82523d6000602084013e612994565b606091505b50509050806129d8576040517f08c379a00000000000000000000000000000000000000000000000000000000081526004016129cf90615168565b60405180910390fd5b612ab87326fa3fffb6efe8c1e69103acb4044c26b9a106a973090185f2135308bad17527004364ebcc2d37e5f673ffffffffffffffffffffffffffffffffffffffff166370a08231306040518263ffffffff1660e01b8152600401612a3d9190614124565b602060405180830381865afa158015612a5a573d6000803e3d6000fd5b505050506040513d601f19601f82011682018060405250810190612a7e9190614a2c565b73090185f2135308bad17527004364ebcc2d37e5f673ffffffffffffffffffffffffffffffffffffffff166136839092919063ffffffff16565b7399d8a9c45b2eca8864373a26d1459e3dff1e17f373ffffffffffffffffffffffffffffffffffffffff1663095ea7b38560006040518363ffffffff1660e01b8152600401612b08929190615188565b6020604051808303816000875af1158015612b27573d6000803e3d6000fd5b505050506040513d601f19601f82011682018060405250810190612b4b9190614ea4565b5050505050565b60008054906101000a900473ffffffffffffffffffffffffffffffffffffffff1673ffffffffffffffffffffffffffffffffffffffff163373ffffffffffffffffffffffffffffffffffffffff1614612be0576040517f08c379a0000000000000000000000000000000000000000000000000000000008152600401612bd790614727565b60405180910390fd5b80600660008473ffffffffffffffffffffffffffffffffffffffff1673ffffffffffffffffffffffffffffffffffffffff16815260200190815260200160002060006101000a81548160ff0219169083151502179055505050565b60028181548110612c4b57600080fd5b906000526020600020016000915054906101000a900473ffffffffffffffffffffffffffffffffffffffff1681565b73c02aaa39b223fe8d0a0e5c4f27ead9083c756cc281565b60008054906101000a900473ffffffffffffffffffffffffffffffffffffffff1673ffffffffffffffffffffffffffffffffffffffff163373ffffffffffffffffffffffffffffffffffffffff1614612d20576040517f08c379a0000000000000000000000000000000000000000000000000000000008152600401612d1790614727565b60405180910390fd5b60005b8151811015612d6257612d4f828281518110612d4257612d41614bfe565b5b6020026020010151613709565b8080612d5a90614f64565b915050612d23565b5050565b73dac17f958d2ee523a2206206994597c13d831ec781565b60008054906101000a900473ffffffffffffffffffffffffffffffffffffffff1673ffffffffffffffffffffffffffffffffffffffff163373ffffffffffffffffffffffffffffffffffffffff1614612e0c576040517f08c379a0000000000000000000000000000000000000000000000000000000008152600401612e0390614727565b60405180910390fd5b612e3782828573ffffffffffffffffffffffffffffffffffffffff166136839092919063ffffffff16565b505050565b60008054906101000a900473ffffffffffffffffffffffffffffffffffffffff1673ffffffffffffffffffffffffffffffffffffffff163373ffffffffffffffffffffffffffffffffffffffff1614612eca576040517f08c379a0000000000000000000000000000000000000000000000000000000008152600401612ec190614727565b60405180910390fd5b612ed381613709565b50565b7399d8a9c45b2eca8864373a26d1459e3dff1e17f381565b73f5bce5077908a1b7370b9ae04adc565ebd64396673ffffffffffffffffffffffffffffffffffffffff166397da6d307399d8a9c45b2eca8864373a26d1459e3dff1e17f330306000876040518663ffffffff1660e01b8152600401612f589594939291906151b1565b60408051808303816000875af1158015612f76573d6000803e3d6000fd5b505050506040513d601f19601f82011682018060405250810190612f9a9190614f24565b505073d96f48665a1410c0cd669a88898eca36b9fc2cce73ffffffffffffffffffffffffffffffffffffffff166397da6d307399d8a9c45b2eca8864373a26d1459e3dff1e17f330306000866040518663ffffffff1660e01b81526004016130069594939291906151b1565b60408051808303816000875af1158015613024573d6000803e3d6000fd5b505050506040513d601f19601f820116820180604052508101906130489190614f24565b50505050565b73d96f48665a1410c0cd669a88898eca36b9fc2cce81565b600160009054906101000a900473ffffffffffffffffffffffffffffffffffffffff1681565b7326fa3fffb6efe8c1e69103acb4044c26b9a106a981565b600081148061312e575060008373ffffffffffffffffffffffffffffffffffffffff1663dd62ed3e30856040518363ffffffff1660e01b81526004016130eb929190615204565b602060405180830381865afa158015613108573d6000803e3d6000fd5b505050506040513d601f19601f8201168201806040525081019061312c9190614a2c565b145b61316d576040517f08c379a00000000000000000000000000000000000000000000000000000000081526004016131649061529f565b60405180910390fd5b6131ee8363095ea7b360e01b848460405160240161318c92919061509b565b604051602081830303815290604052907bffffffffffffffffffffffffffffffffffffffffffffffffffffffff19166020820180517bffffffffffffffffffffffffffffffffffffffffffffffffffffffff8381831617835250505050613be9565b505050565b60606132028484600085613cb0565b90509392505050565b60008060646005548461321e9190614ad9565b6132289190614b62565b90507399d8a9c45b2eca8864373a26d1459e3dff1e17f373ffffffffffffffffffffffffffffffffffffffff1663a9059cbb735a7c5505f3cfb9a0d9a8493ec41bf27ee48c406d836040518363ffffffff1660e01b815260040161328d92919061509b565b6020604051808303816000875af11580156132ac573d6000803e3d6000fd5b505050506040513d601f19601f820116820180604052508101906132d09190614ea4565b5080836132dd9190614b93565b915050919050565b600080600073b5de0c3753b6e1b4dba616db82767f17513e6d4e73ffffffffffffffffffffffffffffffffffffffff16630902f1ac6040518163ffffffff1660e01b8152600401606060405180830381865afa158015613349573d6000803e3d6000fd5b505050506040513d601f19601f8201168201806040525081019061336d9190615341565b506dffffffffffffffffffffffffffff1691506dffffffffffffffffffffffffffff169150600061339f878385613dc4565b9050858110156133e4576040517f08c379a00000000000000000000000000000000000000000000000000000000081526004016133db906153e0565b60405180910390fd5b73c02aaa39b223fe8d0a0e5c4f27ead9083c756cc273ffffffffffffffffffffffffffffffffffffffff1663a9059cbb73b5de0c3753b6e1b4dba616db82767f17513e6d4e896040518363ffffffff1660e01b815260040161344792919061509b565b6020604051808303816000875af1158015613466573d6000803e3d6000fd5b505050506040513d601f19601f8201168201806040525081019061348a9190614ea4565b5073b5de0c3753b6e1b4dba616db82767f17513e6d4e73ffffffffffffffffffffffffffffffffffffffff1663022c0d9f826000886040518463ffffffff1660e01b81526004016134dd93929190615437565b600060405180830381600087803b1580156134f757600080fd5b505af115801561350b573d6000803e3d6000fd5b505050508093505050509392505050565b60008060405180610100016040528073c02aaa39b223fe8d0a0e5c4f27ead9083c756cc273ffffffffffffffffffffffffffffffffffffffff16815260200173090185f2135308bad17527004364ebcc2d37e5f673ffffffffffffffffffffffffffffffffffffffff168152602001610bb862ffffff1681526020018473ffffffffffffffffffffffffffffffffffffffff168152602001428152602001868152602001858152602001600073ffffffffffffffffffffffffffffffffffffffff168152509050600073e592427a0aece92de3edee1f18e0157c0586156473ffffffffffffffffffffffffffffffffffffffff1663414bf389836040518263ffffffff1660e01b8152600401613632919061556e565b6020604051808303816000875af1158015613651573d6000803e3d6000fd5b505050506040513d601f19601f820116820180604052508101906136759190614a2c565b905080925050509392505050565b6137048363a9059cbb60e01b84846040516024016136a292919061509b565b604051602081830303815290604052907bffffffffffffffffffffffffffffffffffffffffffffffffffffffff19166020820180517bffffffffffffffffffffffffffffffffffffffffffffffffffffffff8381831617835250505050613be9565b505050565b60008054906101000a900473ffffffffffffffffffffffffffffffffffffffff1673ffffffffffffffffffffffffffffffffffffffff163373ffffffffffffffffffffffffffffffffffffffff1614613797576040517f08c379a000000000000000000000000000000000000000000000000000000000815260040161378e90614727565b60405180910390fd5b600073ffffffffffffffffffffffffffffffffffffffff168173ffffffffffffffffffffffffffffffffffffffff161415613807576040517f08c379a00000000000000000000000000000000000000000000000000000000081526004016137fe906155d6565b60405180910390fd5b73f5bce5077908a1b7370b9ae04adc565ebd64396673ffffffffffffffffffffffffffffffffffffffff168173ffffffffffffffffffffffffffffffffffffffff16636b2ace876040518163ffffffff1660e01b81526004016020604051808303816000875af115801561387f573d6000803e3d6000fd5b505050506040513d601f19601f820116820180604052508101906138a39190614c84565b73ffffffffffffffffffffffffffffffffffffffff1614156139f85760005b60038054905081101561398f578173ffffffffffffffffffffffffffffffffffffffff16600382815481106138fa576138f9614bfe565b5b9060005260206000200160009054906101000a900473ffffffffffffffffffffffffffffffffffffffff1673ffffffffffffffffffffffffffffffffffffffff16141561397c576040517f08c379a000000000000000000000000000000000000000000000000000000000815260040161397390615642565b60405180910390fd5b808061398790614f64565b9150506138c2565b506003819080600181540180825580915050600190039060005260206000200160009091909190916101000a81548173ffffffffffffffffffffffffffffffffffffffff021916908373ffffffffffffffffffffffffffffffffffffffff160217905550613be6565b73d96f48665a1410c0cd669a88898eca36b9fc2cce73ffffffffffffffffffffffffffffffffffffffff168173ffffffffffffffffffffffffffffffffffffffff16636b2ace876040518163ffffffff1660e01b81526004016020604051808303816000875af1158015613a70573d6000803e3d6000fd5b505050506040513d601f19601f82011682018060405250810190613a949190614c84565b73ffffffffffffffffffffffffffffffffffffffff161415613be55760005b600480549050811015613b80578173ffffffffffffffffffffffffffffffffffffffff1660048281548110613aeb57613aea614bfe565b5b9060005260206000200160009054906101000a900473ffffffffffffffffffffffffffffffffffffffff1673ffffffffffffffffffffffffffffffffffffffff161415613b6d576040517f08c379a0000000000000000000000000000000000000000000000000000000008152600401613b6490615642565b60405180910390fd5b8080613b7890614f64565b915050613ab3565b506004819080600181540180825580915050600190039060005260206000200160009091909190916101000a81548173ffffffffffffffffffffffffffffffffffffffff021916908373ffffffffffffffffffffffffffffffffffffffff1602179055505b5b50565b6000613c4b826040518060400160405280602081526020017f5361666545524332303a206c6f772d6c6576656c2063616c6c206661696c65648152508573ffffffffffffffffffffffffffffffffffffffff166131f39092919063ffffffff16565b9050600081511115613cab5780806020019051810190613c6b9190614ea4565b613caa576040517f08c379a0000000000000000000000000000000000000000000000000000000008152600401613ca1906156d4565b60405180910390fd5b5b505050565b606082471015613cf5576040517f08c379a0000000000000000000000000000000000000000000000000000000008152600401613cec90615766565b60405180910390fd5b613cfe85613e1c565b613d3d576040517f08c379a0000000000000000000000000000000000000000000000000000000008152600401613d34906157d2565b60405180910390fd5b6000808673ffffffffffffffffffffffffffffffffffffffff168587604051613d669190615861565b60006040518083038185875af1925050503d8060008114613da3576040519150601f19603f3d011682016040523d82523d6000602084013e613da8565b606091505b5091509150613db8828286613e2f565b92505050949350505050565b6000806103e585613dd59190614ad9565b905060008382613de59190614ad9565b90506000826103e887613df89190614ad9565b613e0291906148ba565b90508082613e109190614b62565b93505050509392505050565b600080823b905060008111915050919050565b60608315613e3f57829050613e8f565b600083511115613e525782518084602001fd5b816040517f08c379a0000000000000000000000000000000000000000000000000000000008152600401613e8691906158bc565b60405180910390fd5b9392505050565b6000604051905090565b600080fd5b600080fd5b600073ffffffffffffffffffffffffffffffffffffffff82169050919050565b6000613ed582613eaa565b9050919050565b613ee581613eca565b8114613ef057600080fd5b50565b600081359050613f0281613edc565b92915050565b60008115159050919050565b613f1d81613f08565b8114613f2857600080fd5b50565b600081359050613f3a81613f14565b92915050565b600080600060608486031215613f5957613f58613ea0565b5b6000613f6786828701613ef3565b9350506020613f7886828701613f2b565b9250506040613f8986828701613f2b565b9150509250925092565b600060208284031215613fa957613fa8613ea0565b5b6000613fb784828501613ef3565b91505092915050565b613fc981613f08565b82525050565b6000602082019050613fe46000830184613fc0565b92915050565b6000819050919050565b613ffd81613fea565b811461400857600080fd5b50565b60008135905061401a81613ff4565b92915050565b600080600080600060a0868803121561403c5761403b613ea0565b5b600061404a8882890161400b565b955050602061405b8882890161400b565b945050604061406c8882890161400b565b935050606061407d8882890161400b565b925050608061408e88828901613f2b565b9150509295509295909350565b6000819050919050565b60006140c06140bb6140b684613eaa565b61409b565b613eaa565b9050919050565b60006140d2826140a5565b9050919050565b60006140e4826140c7565b9050919050565b6140f4816140d9565b82525050565b600060208201905061410f60008301846140eb565b92915050565b61411e81613eca565b82525050565b60006020820190506141396000830184614115565b92915050565b600061414a826140c7565b9050919050565b61415a8161413f565b82525050565b60006020820190506141756000830184614151565b92915050565b60006020828403121561419157614190613ea0565b5b600061419f8482850161400b565b91505092915050565b60006141b3826140c7565b9050919050565b6141c3816141a8565b82525050565b60006020820190506141de60008301846141ba565b92915050565b6141ed81613fea565b82525050565b600060208201905061420860008301846141e4565b92915050565b600061421982613eca565b9050919050565b6142298161420e565b811461423457600080fd5b50565b60008135905061424681614220565b92915050565b60006020828403121561426257614261613ea0565b5b600061427084828501614237565b91505092915050565b600080fd5b600080fd5b600080fd5b60008083601f84011261429e5761429d614279565b5b8235905067ffffffffffffffff8111156142bb576142ba61427e565b5b6020830191508360018202830111156142d7576142d6614283565b5b9250929050565b6000806000604084860312156142f7576142f6613ea0565b5b600061430586828701613ef3565b935050602084013567ffffffffffffffff81111561432657614325613ea5565b5b61433286828701614288565b92509250509250925092565b6000806040838503121561435557614354613ea0565b5b600061436385828601613ef3565b925050602061437485828601613f2b565b9150509250929050565b6000614389826140c7565b9050919050565b6143998161437e565b82525050565b60006020820190506143b46000830184614390565b92915050565b60006143c5826140c7565b9050919050565b6143d5816143ba565b82525050565b60006020820190506143f060008301846143cc565b92915050565b6000601f19601f8301169050919050565b7f4e487b7100000000000000000000000000000000000000000000000000000000600052604160045260246000fd5b61443f826143f6565b810181811067ffffffffffffffff8211171561445e5761445d614407565b5b80604052505050565b6000614471613e96565b905061447d8282614436565b919050565b600067ffffffffffffffff82111561449d5761449c614407565b5b602082029050602081019050919050565b60006144b982613eca565b9050919050565b6144c9816144ae565b81146144d457600080fd5b50565b6000813590506144e6816144c0565b92915050565b60006144ff6144fa84614482565b614467565b9050808382526020820190506020840283018581111561452257614521614283565b5b835b8181101561454b578061453788826144d7565b845260208401935050602081019050614524565b5050509392505050565b600082601f83011261456a57614569614279565b5b813561457a8482602086016144ec565b91505092915050565b60006020828403121561459957614598613ea0565b5b600082013567ffffffffffffffff8111156145b7576145b6613ea5565b5b6145c384828501614555565b91505092915050565b60006145d782613eca565b9050919050565b6145e7816145cc565b81146145f257600080fd5b50565b600081359050614604816145de565b92915050565b60008060006060848603121561462357614622613ea0565b5b6000614631868287016145f5565b935050602061464286828701613ef3565b92505060406146538682870161400b565b9150509250925092565b60006020828403121561467357614672613ea0565b5b6000614681848285016144d7565b91505092915050565b600080604083850312156146a1576146a0613ea0565b5b60006146af8582860161400b565b92505060206146c08582860161400b565b9150509250929050565b600082825260208201905092915050565b7f4f776e61626c653a2063616c6c6572206973206e6f7420746865206f776e6572600082015250565b60006147116020836146ca565b915061471c826146db565b602082019050919050565b6000602082019050818103600083015261474081614704565b9050919050565b7f4f776e61626c653a207a65726f20616464726573730000000000000000000000600082015250565b600061477d6015836146ca565b915061478882614747565b602082019050919050565b600060208201905081810360008301526147ac81614770565b9050919050565b7f4f6e6c79207665726966696564206f70657261746f7273000000000000000000600082015250565b60006147e96017836146ca565b91506147f4826147b3565b602082019050919050565b60006020820190508181036000830152614818816147dc565b9050919050565b7f6e6f7468696e6720746f20737761700000000000000000000000000000000000600082015250565b6000614855600f836146ca565b91506148608261481f565b602082019050919050565b6000602082019050818103600083015261488481614848565b9050919050565b7f4e487b7100000000000000000000000000000000000000000000000000000000600052601160045260246000fd5b60006148c582613fea565b91506148d083613fea565b9250827fffffffffffffffffffffffffffffffffffffffffffffffffffffffffffffffff038211156149055761490461488b565b5b828201905092915050565b6000819050919050565b600081600f0b9050919050565b600061494261493d61493884614910565b61409b565b61491a565b9050919050565b61495281614927565b82525050565b6000819050919050565b600061497d61497861497384614958565b61409b565b61491a565b9050919050565b61498d81614962565b82525050565b60006149ae6149a96149a484614910565b61409b565b613fea565b9050919050565b6149be81614993565b82525050565b600060a0820190506149d96000830188614949565b6149e66020830187614984565b6149f360408301866141e4565b614a0060608301856149b5565b614a0d6080830184614115565b9695505050505050565b600081519050614a2681613ff4565b92915050565b600060208284031215614a4257614a41613ea0565b5b6000614a5084828501614a17565b91505092915050565b6000819050919050565b6000614a7e614a79614a7484614a59565b61409b565b613fea565b9050919050565b614a8e81614a63565b82525050565b6000608082019050614aa960008301876149b5565b614ab66020830186614a85565b614ac360408301856141e4565b614ad060608301846149b5565b95945050505050565b6000614ae482613fea565b9150614aef83613fea565b9250817fffffffffffffffffffffffffffffffffffffffffffffffffffffffffffffffff0483118215151615614b2857614b2761488b565b5b828202905092915050565b7f4e487b7100000000000000000000000000000000000000000000000000000000600052601260045260246000fd5b6000614b6d82613fea565b9150614b7883613fea565b925082614b8857614b87614b33565b5b828204905092915050565b6000614b9e82613fea565b9150614ba983613fea565b925082821015614bbc57614bbb61488b565b5b828203905092915050565b6000606082019050614bdc60008301866141e4565b614be960208301856141e4565b614bf660408301846141e4565b949350505050565b7f4e487b7100000000000000000000000000000000000000000000000000000000600052603260045260246000fd5b600081519050614c3c816144c0565b92915050565b600060208284031215614c5857614c57613ea0565b5b6000614c6684828501614c2d565b91505092915050565b600081519050614c7e81613edc565b92915050565b600060208284031215614c9a57614c99613ea0565b5b6000614ca884828501614c6f565b91505092915050565b7f77726f6e6720666565546f000000000000000000000000000000000000000000600082015250565b6000614ce7600b836146ca565b9150614cf282614cb1565b602082019050919050565b60006020820190508181036000830152614d1681614cda565b9050919050565b600067ffffffffffffffff82169050919050565b614d3a81614d1d565b8114614d4557600080fd5b50565b600081519050614d5781614d31565b92915050565b60006fffffffffffffffffffffffffffffffff82169050919050565b614d8281614d5d565b8114614d8d57600080fd5b50565b600081519050614d9f81614d79565b92915050565b600080600060608486031215614dbe57614dbd613ea0565b5b6000614dcc86828701614d48565b9350506020614ddd86828701614d90565b9250506040614dee86828701614d48565b9150509250925092565b6000604082019050614e0d60008301856143cc565b614e1a6020830184614115565b9392505050565b6000606082019050614e3660008301866143cc565b614e4360208301856141e4565b614e506040830184613fc0565b949350505050565b6000606082019050614e6d6000830186614115565b614e7a6020830185614115565b614e8760408301846141e4565b949350505050565b600081519050614e9e81613f14565b92915050565b600060208284031215614eba57614eb9613ea0565b5b6000614ec884828501614e8f565b91505092915050565b600060a082019050614ee660008301886143cc565b614ef36020830187614115565b614f006040830186614115565b614f0d60608301856141e4565b614f1a60808301846149b5565b9695505050505050565b60008060408385031215614f3b57614f3a613ea0565b5b6000614f4985828601614a17565b9250506020614f5a85828601614a17565b9150509250929050565b6000614f6f82613fea565b91507fffffffffffffffffffffffffffffffffffffffffffffffffffffffffffffffff821415614fa257614fa161488b565b5b600182019050919050565b600081519050614fbc81614220565b92915050565b600060208284031215614fd857614fd7613ea0565b5b6000614fe684828501614fad565b91505092915050565b6000806040838503121561500657615005613ea0565b5b600061501485828601614d48565b925050602061502585828601614d90565b9150509250929050565b7f4f776e61626c653a2063616c6c657220213d2070656e64696e67206f776e6572600082015250565b60006150656020836146ca565b91506150708261502f565b602082019050919050565b6000602082019050818103600083015261509481615058565b9050919050565b60006040820190506150b06000830185614115565b6150bd60208301846141e4565b9392505050565b600081905092915050565b82818337600083830152505050565b60006150ea83856150c4565b93506150f78385846150cf565b82840190509392505050565b60006151108284866150de565b91508190509392505050565b7f31696e6368207377617020756e73756365737366756c00000000000000000000600082015250565b60006151526016836146ca565b915061515d8261511c565b602082019050919050565b6000602082019050818103600083015261518181615145565b9050919050565b600060408201905061519d6000830185614115565b6151aa60208301846149b5565b9392505050565b600060a0820190506151c660008301886143cc565b6151d36020830187614115565b6151e06040830186614115565b6151ed60608301856149b5565b6151fa60808301846141e4565b9695505050505050565b60006040820190506152196000830185614115565b6152266020830184614115565b9392505050565b7f5361666545524332303a20617070726f76652066726f6d206e6f6e2d7a65726f60008201527f20746f206e6f6e2d7a65726f20616c6c6f77616e636500000000000000000000602082015250565b60006152896036836146ca565b91506152948261522d565b604082019050919050565b600060208201905081810360008301526152b88161527c565b9050919050565b60006dffffffffffffffffffffffffffff82169050919050565b6152e2816152bf565b81146152ed57600080fd5b50565b6000815190506152ff816152d9565b92915050565b600063ffffffff82169050919050565b61531e81615305565b811461532957600080fd5b50565b60008151905061533b81615315565b92915050565b60008060006060848603121561535a57615359613ea0565b5b6000615368868287016152f0565b9350506020615379868287016152f0565b925050604061538a8682870161532c565b9150509250925092565b7f546f6f206c6974746c6520726563656976656400000000000000000000000000600082015250565b60006153ca6013836146ca565b91506153d582615394565b602082019050919050565b600060208201905081810360008301526153f9816153bd565b9050919050565b600082825260208201905092915050565b50565b6000615421600083615400565b915061542c82615411565b600082019050919050565b600060808201905061544c60008301866141e4565b61545960208301856149b5565b6154666040830184614115565b818103606083015261547781615414565b9050949350505050565b61548a81613eca565b82525050565b600062ffffff82169050919050565b6154a881615490565b82525050565b6154b781613fea565b82525050565b6154c681613eaa565b82525050565b610100820160008201516154e36000850182615481565b5060208201516154f66020850182615481565b506040820151615509604085018261549f565b50606082015161551c6060850182615481565b50608082015161552f60808501826154ae565b5060a082015161554260a08501826154ae565b5060c082015161555560c08501826154ae565b5060e082015161556860e08501826154bd565b50505050565b60006101008201905061558460008301846154cc565b92915050565b7f696e76616c6964206361756c64726f6e00000000000000000000000000000000600082015250565b60006155c06010836146ca565b91506155cb8261558a565b602082019050919050565b600060208201905081810360008301526155ef816155b3565b9050919050565b7f616c726561647920616464656400000000000000000000000000000000000000600082015250565b600061562c600d836146ca565b9150615637826155f6565b602082019050919050565b6000602082019050818103600083015261565b8161561f565b9050919050565b7f5361666545524332303a204552433230206f7065726174696f6e20646964206e60008201527f6f74207375636365656400000000000000000000000000000000000000000000602082015250565b60006156be602a836146ca565b91506156c982615662565b604082019050919050565b600060208201905081810360008301526156ed816156b1565b9050919050565b7f416464726573733a20696e73756666696369656e742062616c616e636520666f60008201527f722063616c6c0000000000000000000000000000000000000000000000000000602082015250565b60006157506026836146ca565b915061575b826156f4565b604082019050919050565b6000602082019050818103600083015261577f81615743565b9050919050565b7f416464726573733a2063616c6c20746f206e6f6e2d636f6e7472616374000000600082015250565b60006157bc601d836146ca565b91506157c782615786565b602082019050919050565b600060208201905081810360008301526157eb816157af565b9050919050565b600081519050919050565b60005b8381101561581b578082015181840152602081019050615800565b8381111561582a576000848401525b50505050565b600061583b826157f2565b61584581856150c4565b93506158558185602086016157fd565b80840191505092915050565b600061586d8284615830565b915081905092915050565b600081519050919050565b600061588e82615878565b61589881856146ca565b93506158a88185602086016157fd565b6158b1816143f6565b840191505092915050565b600060208201905081810360008301526158d68184615883565b90509291505056fea26469706673582212202a988d7e9e8e7ed41e36df054d23ad03a89bbb15c9d3a57b22b40c6ff55fbd1f64736f6c634300080a0033",
  "devdoc": {
    "kind": "dev",
    "methods": {
      "transferOwnership(address,bool,bool)": {
        "params": {
          "direct": "True if `newOwner` should be set immediately. False if `newOwner` needs to use `claimOwnership`.",
          "newOwner": "Address of the new owner.",
          "renounce": "Allows the `newOwner` to be `address(0)` if `direct` and `renounce` is True. Has no effect otherwise."
        }
      }
    },
    "version": 1
  },
  "userdoc": {
    "kind": "user",
    "methods": {
      "claimOwnership()": {
        "notice": "Needs to be called by `pendingOwner` to claim ownership."
      },
      "transferOwnership(address,bool,bool)": {
        "notice": "Transfers ownership to `newOwner`. Either directly or claimable by the new pending owner. Can only be invoked by the current `owner`."
      }
    },
    "version": 1
  },
  "storageLayout": {
    "storage": [
      {
        "astId": 1404,
        "contract": "contracts/withdrawer/EthereumWithdrawer.sol:EthereumWithdrawer",
        "label": "owner",
        "offset": 0,
        "slot": "0",
        "type": "t_address"
      },
      {
        "astId": 1406,
        "contract": "contracts/withdrawer/EthereumWithdrawer.sol:EthereumWithdrawer",
        "label": "pendingOwner",
        "offset": 0,
        "slot": "1",
        "type": "t_address"
      },
      {
        "astId": 1814,
        "contract": "contracts/withdrawer/EthereumWithdrawer.sol:EthereumWithdrawer",
        "label": "bentoBoxCauldronsV1",
        "offset": 0,
        "slot": "2",
        "type": "t_array(t_contract(CauldronV1)1680)dyn_storage"
      },
      {
        "astId": 1818,
        "contract": "contracts/withdrawer/EthereumWithdrawer.sol:EthereumWithdrawer",
        "label": "bentoBoxCauldronsV2",
        "offset": 0,
        "slot": "3",
        "type": "t_array(t_contract(Cauldron)1650)dyn_storage"
      },
      {
        "astId": 1822,
        "contract": "contracts/withdrawer/EthereumWithdrawer.sol:EthereumWithdrawer",
        "label": "degenBoxCauldrons",
        "offset": 0,
        "slot": "4",
        "type": "t_array(t_contract(Cauldron)1650)dyn_storage"
      },
      {
        "astId": 1824,
        "contract": "contracts/withdrawer/EthereumWithdrawer.sol:EthereumWithdrawer",
        "label": "treasuryShare",
        "offset": 0,
        "slot": "5",
        "type": "t_uint256"
      },
      {
        "astId": 1828,
        "contract": "contracts/withdrawer/EthereumWithdrawer.sol:EthereumWithdrawer",
        "label": "verified",
        "offset": 0,
        "slot": "6",
        "type": "t_mapping(t_address,t_bool)"
      }
    ],
    "types": {
      "t_address": {
        "encoding": "inplace",
        "label": "address",
        "numberOfBytes": "20"
      },
      "t_array(t_contract(Cauldron)1650)dyn_storage": {
        "base": "t_contract(Cauldron)1650",
        "encoding": "dynamic_array",
        "label": "contract Cauldron[]",
        "numberOfBytes": "32"
      },
      "t_array(t_contract(CauldronV1)1680)dyn_storage": {
        "base": "t_contract(CauldronV1)1680",
        "encoding": "dynamic_array",
        "label": "contract CauldronV1[]",
        "numberOfBytes": "32"
      },
      "t_bool": {
        "encoding": "inplace",
        "label": "bool",
        "numberOfBytes": "1"
      },
      "t_contract(Cauldron)1650": {
        "encoding": "inplace",
        "label": "contract Cauldron",
        "numberOfBytes": "20"
      },
      "t_contract(CauldronV1)1680": {
        "encoding": "inplace",
        "label": "contract CauldronV1",
        "numberOfBytes": "20"
      },
      "t_mapping(t_address,t_bool)": {
        "encoding": "mapping",
        "key": "t_address",
        "label": "mapping(address => bool)",
        "numberOfBytes": "32",
        "value": "t_bool"
      },
      "t_uint256": {
        "encoding": "inplace",
        "label": "uint256",
        "numberOfBytes": "32"
      }
    }
  }
}