{
  "address": "0xdFE1a5b757523Ca6F7f049ac02151808E6A52111",
  "abi": [
    {
      "inputs": [],
      "stateMutability": "nonpayable",
      "type": "constructor"
    },
    {
      "anonymous": false,
      "inputs": [
        {
          "indexed": true,
          "internalType": "address",
          "name": "previousOwner",
          "type": "address"
        },
        {
          "indexed": true,
          "internalType": "address",
          "name": "newOwner",
          "type": "address"
        }
      ],
      "name": "OwnershipTransferred",
      "type": "event"
    },
    {
      "inputs": [],
      "name": "MIM",
      "outputs": [
        {
          "internalType": "contract IERC20",
          "name": "",
          "type": "address"
        }
      ],
      "stateMutability": "view",
      "type": "function"
    },
    {
      "inputs": [],
      "name": "SPELL",
      "outputs": [
        {
          "internalType": "address",
          "name": "",
          "type": "address"
        }
      ],
      "stateMutability": "view",
      "type": "function"
    },
    {
      "inputs": [],
      "name": "claimOwnership",
      "outputs": [],
      "stateMutability": "nonpayable",
      "type": "function"
    },
    {
      "inputs": [],
      "name": "owner",
      "outputs": [
        {
          "internalType": "address",
          "name": "",
          "type": "address"
        }
      ],
      "stateMutability": "view",
      "type": "function"
    },
    {
      "inputs": [],
      "name": "pendingOwner",
      "outputs": [
        {
          "internalType": "address",
          "name": "",
          "type": "address"
        }
      ],
      "stateMutability": "view",
      "type": "function"
    },
    {
      "inputs": [
        {
          "internalType": "contract IERC20",
          "name": "token",
          "type": "address"
        },
        {
          "internalType": "address",
          "name": "to",
          "type": "address"
        },
        {
          "internalType": "uint256",
          "name": "amount",
          "type": "uint256"
        }
      ],
      "name": "rescueTokens",
      "outputs": [],
      "stateMutability": "nonpayable",
      "type": "function"
    },
    {
      "inputs": [],
      "name": "sSPELL",
      "outputs": [
        {
          "internalType": "address",
          "name": "",
          "type": "address"
        }
      ],
      "stateMutability": "view",
      "type": "function"
    },
    {
      "inputs": [
        {
          "internalType": "address",
          "name": "operator",
          "type": "address"
        },
        {
          "internalType": "bool",
          "name": "status",
          "type": "bool"
        }
      ],
      "name": "setVerified",
      "outputs": [],
      "stateMutability": "nonpayable",
      "type": "function"
    },
    {
      "inputs": [
        {
          "internalType": "address",
          "name": "inchrouter",
          "type": "address"
        },
        {
          "internalType": "bytes",
          "name": "data",
          "type": "bytes"
        }
      ],
      "name": "swapMimForSpell1Inch",
      "outputs": [],
      "stateMutability": "nonpayable",
      "type": "function"
    },
    {
      "inputs": [
        {
          "internalType": "address",
          "name": "newOwner",
          "type": "address"
        },
        {
          "internalType": "bool",
          "name": "direct",
          "type": "bool"
        },
        {
          "internalType": "bool",
          "name": "renounce",
          "type": "bool"
        }
      ],
      "name": "transferOwnership",
      "outputs": [],
      "stateMutability": "nonpayable",
      "type": "function"
    },
    {
      "inputs": [
        {
          "internalType": "address",
          "name": "",
          "type": "address"
        }
      ],
      "name": "verified",
      "outputs": [
        {
          "internalType": "bool",
          "name": "",
          "type": "bool"
        }
      ],
      "stateMutability": "view",
      "type": "function"
    }
  ],
  "transactionHash": "0xc07d0edc1094ad992d2d7d1739f0b547b7ef5cd8c40335a5a8257b717bb71bc6",
  "args": [],
  "numDeployments": 1,
  "solcInputHash": "e34a3715d5ff1b16c190f922d08b458a",
  "bytecode": "0x608060405234801561001057600080fd5b50600080546001600160a01b0319163390811782556040519091907f8be0079c531659141344cd1fd0a4f28419497f9722a3daafe3b4186f6b6457e0908290a3336000908152600260205260409020805460ff19166001179055610d13806100796000396000f3fe608060405234801561001057600080fd5b50600436106100c95760003560e01c80639109f9e411610081578063daec383d1161005b578063daec383d146101a2578063e30c3978146101bd578063fabf3601146101d057600080fd5b80639109f9e4146101695780639cf5c6131461017c578063cea9d26f1461018f57600080fd5b80634e71e0c8116100b25780634e71e0c81461011b57806376636722146101235780638da5cb5b1461015657600080fd5b8063078dfbe7146100ce5780630db065f4146100e3575b600080fd5b6100e16100dc366004610ab1565b6101eb565b005b6101066100f1366004610afc565b60026020526000908152604090205460ff1681565b60405190151581526020015b60405180910390f35b6100e1610350565b61013e73090185f2135308bad17527004364ebcc2d37e5f681565b6040516001600160a01b039091168152602001610112565b60005461013e906001600160a01b031681565b6100e1610177366004610b19565b61041a565b6100e161018a366004610b9e565b6106e4565b6100e161019d366004610bd7565b610769565b61013e7399d8a9c45b2eca8864373a26d1459e3dff1e17f381565b60015461013e906001600160a01b031681565b61013e7326fa3fffb6efe8c1e69103acb4044c26b9a106a981565b6000546001600160a01b0316331461024a5760405162461bcd60e51b815260206004820181905260248201527f4f776e61626c653a2063616c6c6572206973206e6f7420746865206f776e657260448201526064015b60405180910390fd5b8115610322576001600160a01b0383161515806102645750805b6102b05760405162461bcd60e51b815260206004820152601560248201527f4f776e61626c653a207a65726f206164647265737300000000000000000000006044820152606401610241565b600080546040516001600160a01b03808716939216917f8be0079c531659141344cd1fd0a4f28419497f9722a3daafe3b4186f6b6457e091a3600080546001600160a01b03851673ffffffffffffffffffffffffffffffffffffffff1991821617909155600180549091169055505050565b6001805473ffffffffffffffffffffffffffffffffffffffff19166001600160a01b0385161790555b505050565b6001546001600160a01b03163381146103ab5760405162461bcd60e51b815260206004820181905260248201527f4f776e61626c653a2063616c6c657220213d2070656e64696e67206f776e65726044820152606401610241565b600080546040516001600160a01b03808516939216917f8be0079c531659141344cd1fd0a4f28419497f9722a3daafe3b4186f6b6457e091a3600080546001600160a01b0390921673ffffffffffffffffffffffffffffffffffffffff19928316179055600180549091169055565b3360009081526002602052604090205460ff166104795760405162461bcd60e51b815260206004820152601760248201527f4f6e6c79207665726966696564206f70657261746f72730000000000000000006044820152606401610241565b60405163095ea7b360e01b81526001600160a01b038416600482015260001960248201527399d8a9c45b2eca8864373a26d1459e3dff1e17f39063095ea7b3906044016020604051808303816000875af11580156104db573d6000803e3d6000fd5b505050506040513d601f19601f820116820180604052508101906104ff9190610c18565b506000836001600160a01b0316838360405161051c929190610c35565b6000604051808303816000865af19150503d8060008114610559576040519150601f19603f3d011682016040523d82523d6000602084013e61055e565b606091505b50509050806105af5760405162461bcd60e51b815260206004820152601660248201527f31696e6368207377617020756e73756365737366756c000000000000000000006044820152606401610241565b6040516370a0823160e01b8152306004820152610658907326fa3fffb6efe8c1e69103acb4044c26b9a106a99073090185f2135308bad17527004364ebcc2d37e5f6906370a0823190602401602060405180830381865afa158015610618573d6000803e3d6000fd5b505050506040513d601f19601f8201168201806040525081019061063c9190610c45565b73090185f2135308bad17527004364ebcc2d37e5f691906107d3565b60405163095ea7b360e01b81526001600160a01b0385166004820152600060248201527399d8a9c45b2eca8864373a26d1459e3dff1e17f39063095ea7b3906044016020604051808303816000875af11580156106b9573d6000803e3d6000fd5b505050506040513d601f19601f820116820180604052508101906106dd9190610c18565b5050505050565b6000546001600160a01b0316331461073e5760405162461bcd60e51b815260206004820181905260248201527f4f776e61626c653a2063616c6c6572206973206e6f7420746865206f776e65726044820152606401610241565b6001600160a01b03919091166000908152600260205260409020805460ff1916911515919091179055565b6000546001600160a01b031633146107c35760405162461bcd60e51b815260206004820181905260248201527f4f776e61626c653a2063616c6c6572206973206e6f7420746865206f776e65726044820152606401610241565b61034b6001600160a01b03841683835b604080516001600160a01b03848116602483015260448083018590528351808403909101815260649092018352602080830180517bffffffffffffffffffffffffffffffffffffffffffffffffffffffff1663a9059cbb60e01b17905283518085019094528084527f5361666545524332303a206c6f772d6c6576656c2063616c6c206661696c65649084015261034b92869291600091610878918516908490610908565b80519091501561034b57808060200190518101906108969190610c18565b61034b5760405162461bcd60e51b815260206004820152602a60248201527f5361666545524332303a204552433230206f7065726174696f6e20646964206e60448201527f6f742073756363656564000000000000000000000000000000000000000000006064820152608401610241565b60606109178484600085610921565b90505b9392505050565b6060824710156109825760405162461bcd60e51b815260206004820152602660248201527f416464726573733a20696e73756666696369656e742062616c616e636520666f6044820152651c8818d85b1b60d21b6064820152608401610241565b6001600160a01b0385163b6109d95760405162461bcd60e51b815260206004820152601d60248201527f416464726573733a2063616c6c20746f206e6f6e2d636f6e74726163740000006044820152606401610241565b600080866001600160a01b031685876040516109f59190610c8e565b60006040518083038185875af1925050503d8060008114610a32576040519150601f19603f3d011682016040523d82523d6000602084013e610a37565b606091505b5091509150610a47828286610a52565b979650505050505050565b60608315610a6157508161091a565b825115610a715782518084602001fd5b8160405162461bcd60e51b81526004016102419190610caa565b6001600160a01b0381168114610aa057600080fd5b50565b8015158114610aa057600080fd5b600080600060608486031215610ac657600080fd5b8335610ad181610a8b565b92506020840135610ae181610aa3565b91506040840135610af181610aa3565b809150509250925092565b600060208284031215610b0e57600080fd5b813561091a81610a8b565b600080600060408486031215610b2e57600080fd5b8335610b3981610a8b565b9250602084013567ffffffffffffffff80821115610b5657600080fd5b818601915086601f830112610b6a57600080fd5b813581811115610b7957600080fd5b876020828501011115610b8b57600080fd5b6020830194508093505050509250925092565b60008060408385031215610bb157600080fd5b8235610bbc81610a8b565b91506020830135610bcc81610aa3565b809150509250929050565b600080600060608486031215610bec57600080fd5b8335610bf781610a8b565b92506020840135610c0781610a8b565b929592945050506040919091013590565b600060208284031215610c2a57600080fd5b815161091a81610aa3565b8183823760009101908152919050565b600060208284031215610c5757600080fd5b5051919050565b60005b83811015610c79578181015183820152602001610c61565b83811115610c88576000848401525b50505050565b60008251610ca0818460208701610c5e565b9190910192915050565b6020815260008251806020840152610cc9816040850160208701610c5e565b601f01601f1916919091016040019291505056fea2646970667358221220996d2fc6628142d2f49d027f09fa7a9e7c6d89677f2aa01bee5624c69aaad90264736f6c634300080a0033",
  "devdoc": {
    "kind": "dev",
    "methods": {
      "transferOwnership(address,bool,bool)": {
        "params": {
          "direct": "True if `newOwner` should be set immediately. False if `newOwner` needs to use `claimOwnership`.",
          "newOwner": "Address of the new owner.",
          "renounce": "Allows the `newOwner` to be `address(0)` if `direct` and `renounce` is True. Has no effect otherwise."
        }
      }
    },
    "version": 1
  },
  "userdoc": {
    "kind": "user",
    "methods": {
      "claimOwnership()": {
        "notice": "Needs to be called by `pendingOwner` to claim ownership."
      },
      "transferOwnership(address,bool,bool)": {
        "notice": "Transfers ownership to `newOwner`. Either directly or claimable by the new pending owner. Can only be invoked by the current `owner`."
      }
    },
    "version": 1
  },
  "storageLayout": {
    "storage": [
      {
        "astId": 14320,
        "contract": "contracts/swappers/InchSpellSwapper.sol:InchSpellSwapper",
        "label": "owner",
        "offset": 0,
        "slot": "0",
        "type": "t_address"
      },
      {
        "astId": 14322,
        "contract": "contracts/swappers/InchSpellSwapper.sol:InchSpellSwapper",
        "label": "pendingOwner",
        "offset": 0,
        "slot": "1",
        "type": "t_address"
      },
      {
        "astId": 14657,
        "contract": "contracts/swappers/InchSpellSwapper.sol:InchSpellSwapper",
        "label": "verified",
        "offset": 0,
        "slot": "2",
        "type": "t_mapping(t_address,t_bool)"
      }
    ],
    "types": {
      "t_address": {
        "encoding": "inplace",
        "label": "address",
        "numberOfBytes": "20"
      },
      "t_bool": {
        "encoding": "inplace",
        "label": "bool",
        "numberOfBytes": "1"
      },
      "t_mapping(t_address,t_bool)": {
        "encoding": "mapping",
        "key": "t_address",
        "label": "mapping(address => bool)",
        "numberOfBytes": "32",
        "value": "t_bool"
      }
    }
  }
}