{
  "address": "0x79317218de52Dfa2a233a3AeED098161889418c7",
  "abi": [
    {
      "inputs": [
        {
          "internalType": "contract ICurveVoter",
          "name": "_curveVoter",
          "type": "address"
        }
      ],
      "stateMutability": "nonpayable",
      "type": "constructor"
    },
    {
      "anonymous": false,
      "inputs": [
        {
          "indexed": true,
          "internalType": "address",
          "name": "owner",
          "type": "address"
        },
        {
          "indexed": true,
          "internalType": "address",
          "name": "spender",
          "type": "address"
        },
        {
          "indexed": false,
          "internalType": "uint256",
          "name": "amount",
          "type": "uint256"
        }
      ],
      "name": "Approval",
      "type": "event"
    },
    {
      "anonymous": false,
      "inputs": [
        {
          "indexed": true,
          "internalType": "address",
          "name": "from",
          "type": "address"
        },
        {
          "indexed": true,
          "internalType": "address",
          "name": "to",
          "type": "address"
        },
        {
          "indexed": false,
          "internalType": "uint256",
          "name": "amount",
          "type": "uint256"
        }
      ],
      "name": "Transfer",
      "type": "event"
    },
    {
      "inputs": [],
      "name": "CRV",
      "outputs": [
        {
          "internalType": "contract ERC20",
          "name": "",
          "type": "address"
        }
      ],
      "stateMutability": "view",
      "type": "function"
    },
    {
      "inputs": [],
      "name": "DOMAIN_SEPARATOR",
      "outputs": [
        {
          "internalType": "bytes32",
          "name": "",
          "type": "bytes32"
        }
      ],
      "stateMutability": "view",
      "type": "function"
    },
    {
      "inputs": [],
      "name": "PERMIT_TYPEHASH",
      "outputs": [
        {
          "internalType": "bytes32",
          "name": "",
          "type": "bytes32"
        }
      ],
      "stateMutability": "view",
      "type": "function"
    },
    {
      "inputs": [
        {
          "internalType": "address",
          "name": "",
          "type": "address"
        },
        {
          "internalType": "address",
          "name": "",
          "type": "address"
        }
      ],
      "name": "allowance",
      "outputs": [
        {
          "internalType": "uint256",
          "name": "",
          "type": "uint256"
        }
      ],
      "stateMutability": "view",
      "type": "function"
    },
    {
      "inputs": [
        {
          "internalType": "address",
          "name": "spender",
          "type": "address"
        },
        {
          "internalType": "uint256",
          "name": "amount",
          "type": "uint256"
        }
      ],
      "name": "approve",
      "outputs": [
        {
          "internalType": "bool",
          "name": "",
          "type": "bool"
        }
      ],
      "stateMutability": "nonpayable",
      "type": "function"
    },
    {
      "inputs": [
        {
          "internalType": "address",
          "name": "",
          "type": "address"
        }
      ],
      "name": "balanceOf",
      "outputs": [
        {
          "internalType": "uint256",
          "name": "",
          "type": "uint256"
        }
      ],
      "stateMutability": "view",
      "type": "function"
    },
    {
      "inputs": [],
      "name": "curveVoter",
      "outputs": [
        {
          "internalType": "contract ICurveVoter",
          "name": "",
          "type": "address"
        }
      ],
      "stateMutability": "view",
      "type": "function"
    },
    {
      "inputs": [],
      "name": "decimals",
      "outputs": [
        {
          "internalType": "uint8",
          "name": "",
          "type": "uint8"
        }
      ],
      "stateMutability": "view",
      "type": "function"
    },
    {
      "inputs": [
        {
          "internalType": "uint256",
          "name": "amount",
          "type": "uint256"
        }
      ],
      "name": "mint",
      "outputs": [
        {
          "internalType": "uint256",
          "name": "",
          "type": "uint256"
        }
      ],
      "stateMutability": "nonpayable",
      "type": "function"
    },
    {
      "inputs": [
        {
          "internalType": "uint256",
          "name": "amount",
          "type": "uint256"
        },
        {
          "internalType": "address",
          "name": "recipient",
          "type": "address"
        }
      ],
      "name": "mintFor",
      "outputs": [
        {
          "internalType": "uint256",
          "name": "",
          "type": "uint256"
        }
      ],
      "stateMutability": "nonpayable",
      "type": "function"
    },
    {
      "inputs": [],
      "name": "name",
      "outputs": [
        {
          "internalType": "string",
          "name": "",
          "type": "string"
        }
      ],
      "stateMutability": "view",
      "type": "function"
    },
    {
      "inputs": [
        {
          "internalType": "address",
          "name": "",
          "type": "address"
        }
      ],
      "name": "nonces",
      "outputs": [
        {
          "internalType": "uint256",
          "name": "",
          "type": "uint256"
        }
      ],
      "stateMutability": "view",
      "type": "function"
    },
    {
      "inputs": [
        {
          "internalType": "address",
          "name": "owner",
          "type": "address"
        },
        {
          "internalType": "address",
          "name": "spender",
          "type": "address"
        },
        {
          "internalType": "uint256",
          "name": "value",
          "type": "uint256"
        },
        {
          "internalType": "uint256",
          "name": "deadline",
          "type": "uint256"
        },
        {
          "internalType": "uint8",
          "name": "v",
          "type": "uint8"
        },
        {
          "internalType": "bytes32",
          "name": "r",
          "type": "bytes32"
        },
        {
          "internalType": "bytes32",
          "name": "s",
          "type": "bytes32"
        }
      ],
      "name": "permit",
      "outputs": [],
      "stateMutability": "nonpayable",
      "type": "function"
    },
    {
      "inputs": [],
      "name": "symbol",
      "outputs": [
        {
          "internalType": "string",
          "name": "",
          "type": "string"
        }
      ],
      "stateMutability": "view",
      "type": "function"
    },
    {
      "inputs": [],
      "name": "totalCRVTokens",
      "outputs": [
        {
          "internalType": "uint256",
          "name": "",
          "type": "uint256"
        }
      ],
      "stateMutability": "view",
      "type": "function"
    },
    {
      "inputs": [],
      "name": "totalSupply",
      "outputs": [
        {
          "internalType": "uint256",
          "name": "",
          "type": "uint256"
        }
      ],
      "stateMutability": "view",
      "type": "function"
    },
    {
      "inputs": [
        {
          "internalType": "address",
          "name": "to",
          "type": "address"
        },
        {
          "internalType": "uint256",
          "name": "amount",
          "type": "uint256"
        }
      ],
      "name": "transfer",
      "outputs": [
        {
          "internalType": "bool",
          "name": "",
          "type": "bool"
        }
      ],
      "stateMutability": "nonpayable",
      "type": "function"
    },
    {
      "inputs": [
        {
          "internalType": "address",
          "name": "from",
          "type": "address"
        },
        {
          "internalType": "address",
          "name": "to",
          "type": "address"
        },
        {
          "internalType": "uint256",
          "name": "amount",
          "type": "uint256"
        }
      ],
      "name": "transferFrom",
      "outputs": [
        {
          "internalType": "bool",
          "name": "",
          "type": "bool"
        }
      ],
      "stateMutability": "nonpayable",
      "type": "function"
    }
  ],
  "transactionHash": "0x2d1c428f12676b5d17e716f70baf06591ecf83663f76386e5b34235b19f7441c",
  "args": [
    "0x0b5E135FfBCd93F1323bdEF45c1bEa5887588dfD"
  ],
  "solcInputHash": "814b48cc1986245a8038f2694095470d",
  "bytecode": "0x6101006040523480156200001257600080fd5b506040516200131438038062001314833981016040819052620000359162000220565b604080518082018252600881526726b0b3b4b1a1a92b60c11b60208083019182528351808501909452600484526336a1a92b60e11b9084015281519192916012916200008591600091906200017a565b5081516200009b9060019060208501906200017a565b5060ff81166080524660a052620000b1620000c9565b60c0525050506001600160a01b031660e05262000333565b60007f8b73c3c69bb8fe3d512ecc4cf759cc79239f7b179b0ffacaa9a75d522b39400f6000604051620000fd91906200028f565b60408051918290038220828201825260018352603160f81b6020938401528151928301939093528101919091527fc89efdaa54c0f20c7adf612882df0950f5a951637e0307cdcb4c672f298b8bc660608201524660808201523060a082015260c00160405160208183030381529060405280519060200120905090565b828054620001889062000252565b90600052602060002090601f016020900481019282620001ac5760008555620001f7565b82601f10620001c757805160ff1916838001178555620001f7565b82800160010185558215620001f7579182015b82811115620001f7578251825591602001919060010190620001da565b506200020592915062000209565b5090565b5b808211156200020557600081556001016200020a565b6000602082840312156200023357600080fd5b81516001600160a01b03811681146200024b57600080fd5b9392505050565b600181811c908216806200026757607f821691505b602082108114156200028957634e487b7160e01b600052602260045260246000fd5b50919050565b600080835481600182811c915080831680620002ac57607f831692505b6020808410821415620002cd57634e487b7160e01b86526022600452602486fd5b818015620002e45760018114620002f65762000325565b60ff1986168952848901965062000325565b60008a81526020902060005b868110156200031d5781548b82015290850190830162000302565b505084890196505b509498975050505050505050565b60805160a05160c05160e051610f8b62000389600039600081816101fb01528181610564015281816109bf01528181610a5b0152610b070152600061053e01526000610509015260006101b20152610f8b6000f3fe608060405234801561001057600080fd5b50600436106101165760003560e01c806370a08231116100a2578063a0712d6811610071578063a0712d6814610298578063a9059cbb146102ab578063ad62f1ca146102be578063d505accf146102d1578063dd62ed3e146102e657600080fd5b806370a08231146102355780637ecebe0014610255578063945c91421461027557806395d89b411461029057600080fd5b806330adf81f116100e957806330adf81f14610186578063313ce567146101ad5780633644e515146101e657806351f3b948146101ee57806365d2ebbf146101f657600080fd5b806306fdde031461011b578063095ea7b31461013957806318160ddd1461015c57806323b872dd14610173575b600080fd5b610123610311565b6040516101309190610be9565b60405180910390f35b61014c610147366004610c5a565b61039f565b6040519015158152602001610130565b61016560025481565b604051908152602001610130565b61014c610181366004610c84565b61040b565b6101657f6e71edae12b1b97f4d1f60370fef10105fa2faae0126114a169c64845d6126c981565b6101d47f000000000000000000000000000000000000000000000000000000000000000081565b60405160ff9091168152602001610130565b610165610505565b610165610560565b61021d7f000000000000000000000000000000000000000000000000000000000000000081565b6040516001600160a01b039091168152602001610130565b610165610243366004610cc0565b60036020526000908152604090205481565b610165610263366004610cc0565b60056020526000908152604090205481565b61021d73d533a949740bb3306d119cc777fa900ba034cd5281565b6101236105e4565b6101656102a6366004610cdb565b6105f1565b61014c6102b9366004610c5a565b610603565b6101656102cc366004610cf4565b61067b565b6102e46102df366004610d20565b61068e565b005b6101656102f4366004610d93565b600460209081526000928352604080842090915290825290205481565b6000805461031e90610dbd565b80601f016020809104026020016040519081016040528092919081815260200182805461034a90610dbd565b80156103975780601f1061036c57610100808354040283529160200191610397565b820191906000526020600020905b81548152906001019060200180831161037a57829003601f168201915b505050505081565b3360008181526004602090815260408083206001600160a01b038716808552925280832085905551919290917f8c5be1e5ebec7d5bd14f71427d1e84f3dd0314c0f7b2291e5b200ac8c7c3b925906103fa9086815260200190565b60405180910390a350600192915050565b6001600160a01b038316600090815260046020908152604080832033845290915281205460001914610470576001600160a01b03841660009081526004602090815260408083203384529091528120805484929061046a908490610e0e565b90915550505b6001600160a01b03841660009081526003602052604081208054849290610498908490610e0e565b90915550506001600160a01b03808416600081815260036020526040908190208054860190555190918616907fddf252ad1be2c89b69c2b068fc378daa952ba7f163c4a11628f55a4df523b3ef906104f39086815260200190565b60405180910390a35060019392505050565b60007f0000000000000000000000000000000000000000000000000000000000000000461461053b576105366108f3565b905090565b507f000000000000000000000000000000000000000000000000000000000000000090565b60007f00000000000000000000000000000000000000000000000000000000000000006001600160a01b03166351f3b9486040518163ffffffff1660e01b8152600401602060405180830381865afa1580156105c0573d6000803e3d6000fd5b505050506040513d601f19601f820116820180604052508101906105369190610e25565b6001805461031e90610dbd565b60006105fd82336109a2565b92915050565b33600090815260036020526040812080548391908390610624908490610e0e565b90915550506001600160a01b038316600081815260036020526040908190208054850190555133907fddf252ad1be2c89b69c2b068fc378daa952ba7f163c4a11628f55a4df523b3ef906103fa9086815260200190565b600061068783836109a2565b9392505050565b428410156106e35760405162461bcd60e51b815260206004820152601760248201527f5045524d49545f444541444c494e455f4558504952454400000000000000000060448201526064015b60405180910390fd5b60006106ed610505565b6001600160a01b0389811660008181526005602090815260409182902080546001810190915582517f6e71edae12b1b97f4d1f60370fef10105fa2faae0126114a169c64845d6126c98184015280840194909452938c166060840152608083018b905260a083019390935260c08083018a90528151808403909101815260e08301909152805192019190912061190160f01b6101008301526101028201929092526101228101919091526101420160408051601f198184030181528282528051602091820120600080855291840180845281905260ff88169284019290925260608301869052608083018590529092509060019060a0016020604051602081039080840390855afa158015610806573d6000803e3d6000fd5b5050604051601f1901519150506001600160a01b0381161580159061083c5750886001600160a01b0316816001600160a01b0316145b6108885760405162461bcd60e51b815260206004820152601860248201527f494e56414c49445f5045524d49545f5349474e4154555245000000000000000060448201526064016106da565b6001600160a01b0390811660009081526004602090815260408083208b8516808552908352928190208a905551898152919350918a16917f8c5be1e5ebec7d5bd14f71427d1e84f3dd0314c0f7b2291e5b200ac8c7c3b925910160405180910390a350505050505050565b60007f8b73c3c69bb8fe3d512ecc4cf759cc79239f7b179b0ffacaa9a75d522b39400f60006040516109259190610e3e565b60408051918290038220828201825260018352603160f81b6020938401528151928301939093528101919091527fc89efdaa54c0f20c7adf612882df0950f5a951637e0307cdcb4c672f298b8bc660608201524660808201523060a082015260c00160405160208183030381529060405280519060200120905090565b6040516323b872dd60e01b81523360048201526001600160a01b037f00000000000000000000000000000000000000000000000000000000000000001660248201526044810183905260009073d533a949740bb3306d119cc777fa900ba034cd52906323b872dd906064016020604051808303816000875af1158015610a2c573d6000803e3d6000fd5b505050506040513d601f19601f82011682018060405250810190610a509190610eda565b5060025415610af7577f00000000000000000000000000000000000000000000000000000000000000006001600160a01b03166351f3b9486040518163ffffffff1660e01b8152600401602060405180830381865afa158015610ab7573d6000803e3d6000fd5b505050506040513d601f19601f82011682018060405250810190610adb9190610e25565b600254610ae89085610efc565b610af29190610f1b565b610af9565b825b9050610b058282610b7e565b7f00000000000000000000000000000000000000000000000000000000000000006001600160a01b031663f83d08ba6040518163ffffffff1660e01b8152600401600060405180830381600087803b158015610b6057600080fd5b505af1158015610b74573d6000803e3d6000fd5b5050505092915050565b8060026000828254610b909190610f3d565b90915550506001600160a01b0382166000818152600360209081526040808320805486019055518481527fddf252ad1be2c89b69c2b068fc378daa952ba7f163c4a11628f55a4df523b3ef910160405180910390a35050565b600060208083528351808285015260005b81811015610c1657858101830151858201604001528201610bfa565b81811115610c28576000604083870101525b50601f01601f1916929092016040019392505050565b80356001600160a01b0381168114610c5557600080fd5b919050565b60008060408385031215610c6d57600080fd5b610c7683610c3e565b946020939093013593505050565b600080600060608486031215610c9957600080fd5b610ca284610c3e565b9250610cb060208501610c3e565b9150604084013590509250925092565b600060208284031215610cd257600080fd5b61068782610c3e565b600060208284031215610ced57600080fd5b5035919050565b60008060408385031215610d0757600080fd5b82359150610d1760208401610c3e565b90509250929050565b600080600080600080600060e0888a031215610d3b57600080fd5b610d4488610c3e565b9650610d5260208901610c3e565b95506040880135945060608801359350608088013560ff81168114610d7657600080fd5b9699959850939692959460a0840135945060c09093013592915050565b60008060408385031215610da657600080fd5b610daf83610c3e565b9150610d1760208401610c3e565b600181811c90821680610dd157607f821691505b60208210811415610df257634e487b7160e01b600052602260045260246000fd5b50919050565b634e487b7160e01b600052601160045260246000fd5b600082821015610e2057610e20610df8565b500390565b600060208284031215610e3757600080fd5b5051919050565b600080835481600182811c915080831680610e5a57607f831692505b6020808410821415610e7a57634e487b7160e01b86526022600452602486fd5b818015610e8e5760018114610e9f57610ecc565b60ff19861689528489019650610ecc565b60008a81526020902060005b86811015610ec45781548b820152908501908301610eab565b505084890196505b509498975050505050505050565b600060208284031215610eec57600080fd5b8151801515811461068757600080fd5b6000816000190483118215151615610f1657610f16610df8565b500290565b600082610f3857634e487b7160e01b600052601260045260246000fd5b500490565b60008219821115610f5057610f50610df8565b50019056fea2646970667358221220d971cef2f88985c743bc2b17adb743b5c7a4b99f2bb7f2f2c82e14e792d46b9264736f6c634300080a0033",
  "devdoc": {
    "kind": "dev",
    "methods": {},
    "version": 1
  },
  "userdoc": {
    "kind": "user",
    "methods": {},
    "version": 1
  },
  "storageLayout": {
    "storage": [
      {
        "astId": 1317,
        "contract": "contracts/magic-crv/MagicCRV.sol:MagicCRV",
        "label": "name",
        "offset": 0,
        "slot": "0",
        "type": "t_string_storage"
      },
      {
        "astId": 1319,
        "contract": "contracts/magic-crv/MagicCRV.sol:MagicCRV",
        "label": "symbol",
        "offset": 0,
        "slot": "1",
        "type": "t_string_storage"
      },
      {
        "astId": 1323,
        "contract": "contracts/magic-crv/MagicCRV.sol:MagicCRV",
        "label": "totalSupply",
        "offset": 0,
        "slot": "2",
        "type": "t_uint256"
      },
      {
        "astId": 1327,
        "contract": "contracts/magic-crv/MagicCRV.sol:MagicCRV",
        "label": "balanceOf",
        "offset": 0,
        "slot": "3",
        "type": "t_mapping(t_address,t_uint256)"
      },
      {
        "astId": 1333,
        "contract": "contracts/magic-crv/MagicCRV.sol:MagicCRV",
        "label": "allowance",
        "offset": 0,
        "slot": "4",
        "type": "t_mapping(t_address,t_mapping(t_address,t_uint256))"
      },
      {
        "astId": 1346,
        "contract": "contracts/magic-crv/MagicCRV.sol:MagicCRV",
        "label": "nonces",
        "offset": 0,
        "slot": "5",
        "type": "t_mapping(t_address,t_uint256)"
      }
    ],
    "types": {
      "t_address": {
        "encoding": "inplace",
        "label": "address",
        "numberOfBytes": "20"
      },
      "t_mapping(t_address,t_mapping(t_address,t_uint256))": {
        "encoding": "mapping",
        "key": "t_address",
        "label": "mapping(address => mapping(address => uint256))",
        "numberOfBytes": "32",
        "value": "t_mapping(t_address,t_uint256)"
      },
      "t_mapping(t_address,t_uint256)": {
        "encoding": "mapping",
        "key": "t_address",
        "label": "mapping(address => uint256)",
        "numberOfBytes": "32",
        "value": "t_uint256"
      },
      "t_string_storage": {
        "encoding": "bytes",
        "label": "string",
        "numberOfBytes": "32"
      },
      "t_uint256": {
        "encoding": "inplace",
        "label": "uint256",
        "numberOfBytes": "32"
      }
    }
  }
}