{
  "address": "0x5624b48Ec2848bD642230b46405E1F65938c5FD0",
  "abi": [
    {
      "anonymous": false,
      "inputs": [
        {
          "indexed": true,
          "internalType": "address",
          "name": "_owner",
          "type": "address"
        },
        {
          "indexed": true,
          "internalType": "address",
          "name": "_spender",
          "type": "address"
        },
        {
          "indexed": false,
          "internalType": "uint256",
          "name": "_value",
          "type": "uint256"
        }
      ],
      "name": "Approval",
      "type": "event"
    },
    {
      "anonymous": false,
      "inputs": [
        {
          "indexed": true,
          "internalType": "address",
          "name": "previousOwner",
          "type": "address"
        },
        {
          "indexed": true,
          "internalType": "address",
          "name": "newOwner",
          "type": "address"
        }
      ],
      "name": "OwnershipTransferred",
      "type": "event"
    },
    {
      "anonymous": false,
      "inputs": [
        {
          "indexed": true,
          "internalType": "address",
          "name": "_from",
          "type": "address"
        },
        {
          "indexed": true,
          "internalType": "address",
          "name": "_to",
          "type": "address"
        },
        {
          "indexed": false,
          "internalType": "uint256",
          "name": "_value",
          "type": "uint256"
        }
      ],
      "name": "Transfer",
      "type": "event"
    },
    {
      "inputs": [],
      "name": "DOMAIN_SEPARATOR",
      "outputs": [
        {
          "internalType": "bytes32",
          "name": "",
          "type": "bytes32"
        }
      ],
      "stateMutability": "view",
      "type": "function"
    },
    {
      "inputs": [
        {
          "internalType": "address",
          "name": "",
          "type": "address"
        },
        {
          "internalType": "address",
          "name": "",
          "type": "address"
        }
      ],
      "name": "allowance",
      "outputs": [
        {
          "internalType": "uint256",
          "name": "",
          "type": "uint256"
        }
      ],
      "stateMutability": "view",
      "type": "function"
    },
    {
      "inputs": [
        {
          "internalType": "address",
          "name": "spender",
          "type": "address"
        },
        {
          "internalType": "uint256",
          "name": "amount",
          "type": "uint256"
        }
      ],
      "name": "approve",
      "outputs": [
        {
          "internalType": "bool",
          "name": "",
          "type": "bool"
        }
      ],
      "stateMutability": "nonpayable",
      "type": "function"
    },
    {
      "inputs": [
        {
          "internalType": "address",
          "name": "",
          "type": "address"
        }
      ],
      "name": "balanceOf",
      "outputs": [
        {
          "internalType": "uint256",
          "name": "",
          "type": "uint256"
        }
      ],
      "stateMutability": "view",
      "type": "function"
    },
    {
      "inputs": [
        {
          "internalType": "uint256",
          "name": "amount",
          "type": "uint256"
        }
      ],
      "name": "burn",
      "outputs": [],
      "stateMutability": "nonpayable",
      "type": "function"
    },
    {
      "inputs": [],
      "name": "claimOwnership",
      "outputs": [],
      "stateMutability": "nonpayable",
      "type": "function"
    },
    {
      "inputs": [],
      "name": "decimals",
      "outputs": [
        {
          "internalType": "uint8",
          "name": "",
          "type": "uint8"
        }
      ],
      "stateMutability": "view",
      "type": "function"
    },
    {
      "inputs": [],
      "name": "lastMint",
      "outputs": [
        {
          "internalType": "uint128",
          "name": "time",
          "type": "uint128"
        },
        {
          "internalType": "uint128",
          "name": "amount",
          "type": "uint128"
        }
      ],
      "stateMutability": "view",
      "type": "function"
    },
    {
      "inputs": [
        {
          "internalType": "address",
          "name": "to",
          "type": "address"
        },
        {
          "internalType": "uint256",
          "name": "amount",
          "type": "uint256"
        }
      ],
      "name": "mint",
      "outputs": [],
      "stateMutability": "nonpayable",
      "type": "function"
    },
    {
      "inputs": [
        {
          "internalType": "address",
          "name": "clone",
          "type": "address"
        },
        {
          "internalType": "uint256",
          "name": "amount",
          "type": "uint256"
        },
        {
          "internalType": "contract IBentoBoxV1",
          "name": "bentoBox",
          "type": "address"
        }
      ],
      "name": "mintToBentoBox",
      "outputs": [],
      "stateMutability": "nonpayable",
      "type": "function"
    },
    {
      "inputs": [],
      "name": "name",
      "outputs": [
        {
          "internalType": "string",
          "name": "",
          "type": "string"
        }
      ],
      "stateMutability": "view",
      "type": "function"
    },
    {
      "inputs": [
        {
          "internalType": "address",
          "name": "",
          "type": "address"
        }
      ],
      "name": "nonces",
      "outputs": [
        {
          "internalType": "uint256",
          "name": "",
          "type": "uint256"
        }
      ],
      "stateMutability": "view",
      "type": "function"
    },
    {
      "inputs": [],
      "name": "owner",
      "outputs": [
        {
          "internalType": "address",
          "name": "",
          "type": "address"
        }
      ],
      "stateMutability": "view",
      "type": "function"
    },
    {
      "inputs": [],
      "name": "pendingOwner",
      "outputs": [
        {
          "internalType": "address",
          "name": "",
          "type": "address"
        }
      ],
      "stateMutability": "view",
      "type": "function"
    },
    {
      "inputs": [
        {
          "internalType": "address",
          "name": "owner_",
          "type": "address"
        },
        {
          "internalType": "address",
          "name": "spender",
          "type": "address"
        },
        {
          "internalType": "uint256",
          "name": "value",
          "type": "uint256"
        },
        {
          "internalType": "uint256",
          "name": "deadline",
          "type": "uint256"
        },
        {
          "internalType": "uint8",
          "name": "v",
          "type": "uint8"
        },
        {
          "internalType": "bytes32",
          "name": "r",
          "type": "bytes32"
        },
        {
          "internalType": "bytes32",
          "name": "s",
          "type": "bytes32"
        }
      ],
      "name": "permit",
      "outputs": [],
      "stateMutability": "nonpayable",
      "type": "function"
    },
    {
      "inputs": [],
      "name": "symbol",
      "outputs": [
        {
          "internalType": "string",
          "name": "",
          "type": "string"
        }
      ],
      "stateMutability": "view",
      "type": "function"
    },
    {
      "inputs": [],
      "name": "totalSupply",
      "outputs": [
        {
          "internalType": "uint256",
          "name": "",
          "type": "uint256"
        }
      ],
      "stateMutability": "view",
      "type": "function"
    },
    {
      "inputs": [
        {
          "internalType": "address",
          "name": "to",
          "type": "address"
        },
        {
          "internalType": "uint256",
          "name": "amount",
          "type": "uint256"
        }
      ],
      "name": "transfer",
      "outputs": [
        {
          "internalType": "bool",
          "name": "",
          "type": "bool"
        }
      ],
      "stateMutability": "nonpayable",
      "type": "function"
    },
    {
      "inputs": [
        {
          "internalType": "address",
          "name": "from",
          "type": "address"
        },
        {
          "internalType": "address",
          "name": "to",
          "type": "address"
        },
        {
          "internalType": "uint256",
          "name": "amount",
          "type": "uint256"
        }
      ],
      "name": "transferFrom",
      "outputs": [
        {
          "internalType": "bool",
          "name": "",
          "type": "bool"
        }
      ],
      "stateMutability": "nonpayable",
      "type": "function"
    },
    {
      "inputs": [
        {
          "internalType": "address",
          "name": "newOwner",
          "type": "address"
        },
        {
          "internalType": "bool",
          "name": "direct",
          "type": "bool"
        },
        {
          "internalType": "bool",
          "name": "renounce",
          "type": "bool"
        }
      ],
      "name": "transferOwnership",
      "outputs": [],
      "stateMutability": "nonpayable",
      "type": "function"
    }
  ],
  "transactionHash": "0xf8030045d930196457bfe372170cd80d0e3c86d98628f85b39009d51421f5a30",
  "args": [],
  "numDeployments": 1,
  "solcInputHash": "a8287f9582549e1e61e2a34e7021b1e9",
  "bytecode": "0x60c060405234801561001057600080fd5b504660a081905261002081610069565b60805250600380546001600160a01b031916339081179091556040516000907f8be0079c531659141344cd1fd0a4f28419497f9722a3daafe3b4186f6b6457e0908290a36100c2565b604080517f47e79534a245952e8b16893a336b85a3d9ea9fa8c573f3d803afb92a794692186020808301919091528183019390935230606080830191909152825180830390910181526080909101909152805191012090565b60805160a05161149c6100e5600039806111f0525080611225525061149c6000f3fe608060405234801561001057600080fd5b506004361061016c5760003560e01c8063586fc5b5116100cd57806395d89b4111610081578063d505accf11610066578063d505accf1461043e578063dd62ed3e1461048f578063e30c3978146104bd5761016c565b806395d89b411461040a578063a9059cbb146104125761016c565b806370a08231116100b257806370a082311461039a5780637ecebe00146103c05780638da5cb5b146103e65761016c565b8063586fc5b51461032d57806369e40265146103645761016c565b8063313ce5671161012457806340c10f191161010957806340c10f19146102dc57806342966c68146103085780634e71e0c8146103255761016c565b8063313ce567146102b65780633644e515146102d45761016c565b8063095ea7b311610155578063095ea7b31461022657806318160ddd1461026657806323b872dd146102805761016c565b806306fdde0314610171578063078dfbe7146101ee575b600080fd5b6101796104c5565b6040805160208082528351818301528351919283929083019185019080838360005b838110156101b357818101518382015260200161019b565b50505050905090810190601f1680156101e05780820380516001836020036101000a031916815260200191505b509250505060405180910390f35b6102246004803603606081101561020457600080fd5b506001600160a01b038135169060208101351515906040013515156104fe565b005b6102526004803603604081101561023c57600080fd5b506001600160a01b038135169060200135610669565b604080519115158252519081900360200190f35b61026e6106d0565b60408051918252519081900360200190f35b6102526004803603606081101561029657600080fd5b506001600160a01b038135811691602081013590911690604001356106d6565b6102be6108ef565b6040805160ff9092168252519081900360200190f35b61026e6108f4565b610224600480360360408110156102f257600080fd5b506001600160a01b038135169060200135610903565b6102246004803603602081101561031e57600080fd5b5035610afe565b610224610bba565b610335610c8a565b60405180836001600160801b03168152602001826001600160801b031681526020019250505060405180910390f35b6102246004803603606081101561037a57600080fd5b506001600160a01b03813581169160208101359160409091013516610ca4565b61026e600480360360208110156103b057600080fd5b50356001600160a01b0316610da4565b61026e600480360360208110156103d657600080fd5b50356001600160a01b0316610db6565b6103ee610dc8565b604080516001600160a01b039092168252519081900360200190f35b610179610dd7565b6102526004803603604081101561042857600080fd5b506001600160a01b038135169060200135610df6565b610224600480360360e081101561045457600080fd5b506001600160a01b03813581169160208101359091169060408101359060608101359060ff6080820135169060a08101359060c00135610f58565b61026e600480360360408110156104a557600080fd5b506001600160a01b03813581169160200135166111bf565b6103ee6111dc565b6040518060400160405280601381526020017f4d6167696320496e7465726e657420476f6c640000000000000000000000000081525081565b6003546001600160a01b0316331461055d576040805162461bcd60e51b815260206004820181905260248201527f4f776e61626c653a2063616c6c6572206973206e6f7420746865206f776e6572604482015290519081900360640190fd5b811561063b576001600160a01b0383161515806105775750805b6105c8576040805162461bcd60e51b815260206004820152601560248201527f4f776e61626c653a207a65726f20616464726573730000000000000000000000604482015290519081900360640190fd5b6003546040516001600160a01b038086169216907f8be0079c531659141344cd1fd0a4f28419497f9722a3daafe3b4186f6b6457e090600090a3600380546001600160a01b03851673ffffffffffffffffffffffffffffffffffffffff1991821617909155600480549091169055610664565b6004805473ffffffffffffffffffffffffffffffffffffffff19166001600160a01b0385161790555b505050565b3360008181526001602090815260408083206001600160a01b038716808552908352818420869055815186815291519394909390927f8c5be1e5ebec7d5bd14f71427d1e84f3dd0314c0f7b2291e5b200ac8c7c3b925928290030190a35060015b92915050565b60055481565b6000811561089a576001600160a01b0384166000908152602081905260409020548281101561074c576040805162461bcd60e51b815260206004820152601660248201527f45524332303a2062616c616e636520746f6f206c6f7700000000000000000000604482015290519081900360640190fd5b836001600160a01b0316856001600160a01b031614610898576001600160a01b0385166000908152600160209081526040808320338452909152902054600019811461081057838110156107e7576040805162461bcd60e51b815260206004820152601860248201527f45524332303a20616c6c6f77616e636520746f6f206c6f770000000000000000604482015290519081900360640190fd5b6001600160a01b0386166000908152600160209081526040808320338452909152902084820390555b6001600160a01b03851661086b576040805162461bcd60e51b815260206004820152601660248201527f45524332303a206e6f207a65726f206164647265737300000000000000000000604482015290519081900360640190fd5b506001600160a01b0380861660009081526020819052604080822086850390559186168152208054840190555b505b826001600160a01b0316846001600160a01b03167fddf252ad1be2c89b69c2b068fc378daa952ba7f163c4a11628f55a4df523b3ef846040518082815260200191505060405180910390a35060019392505050565b601281565b60006108fe6111eb565b905090565b6003546001600160a01b03163314610962576040805162461bcd60e51b815260206004820181905260248201527f4f776e61626c653a2063616c6c6572206973206e6f7420746865206f776e6572604482015290519081900360640190fd5b6001600160a01b0382166109bd576040805162461bcd60e51b815260206004820152601c60248201527f4d49473a206e6f206d696e7420746f207a65726f206164647265737300000000604482015290519081900360640190fd5b600654600090610a0a9083906201517f1942016001600160801b03909116106109f857600654600160801b90046001600160801b03166109fb565b60005b6001600160801b03169061124b565b905060055460001480610a3f575080620186a0610a34613a986005546112a390919063ffffffff16565b81610a3b57fe5b0410155b610a4857600080fd5b610a514261130f565b600680546fffffffffffffffffffffffffffffffff19166001600160801b0392909216919091179055610a838161130f565b600680546001600160801b03928316600160801b02921691909117905560058054830190556001600160a01b038316600081815260208181526040808320805487019055805186815290517fddf252ad1be2c89b69c2b068fc378daa952ba7f163c4a11628f55a4df523b3ef929181900390910190a3505050565b33600090815260208190526040902054811115610b62576040805162461bcd60e51b815260206004820152600f60248201527f4d494d3a206e6f7420656e6f7567680000000000000000000000000000000000604482015290519081900360640190fd5b3360008181526020818152604080832080548690039055600580548690039055805185815290519293927fddf252ad1be2c89b69c2b068fc378daa952ba7f163c4a11628f55a4df523b3ef929181900390910190a350565b6004546001600160a01b0316338114610c1a576040805162461bcd60e51b815260206004820181905260248201527f4f776e61626c653a2063616c6c657220213d2070656e64696e67206f776e6572604482015290519081900360640190fd5b6003546040516001600160a01b038084169216907f8be0079c531659141344cd1fd0a4f28419497f9722a3daafe3b4186f6b6457e090600090a3600380546001600160a01b0390921673ffffffffffffffffffffffffffffffffffffffff19928316179055600480549091169055565b6006546001600160801b0380821691600160801b90041682565b6003546001600160a01b03163314610d03576040805162461bcd60e51b815260206004820181905260248201527f4f776e61626c653a2063616c6c6572206973206e6f7420746865206f776e6572604482015290519081900360640190fd5b610d0d8183610903565b6040805162ae511b60e21b81523060048201526001600160a01b0380841660248301819052908616604483015260648201859052600060848301819052835191936302b9446c9360a4808201949293918390030190829087803b158015610d7357600080fd5b505af1158015610d87573d6000803e3d6000fd5b505050506040513d6040811015610d9d57600080fd5b5050505050565b60006020819052908152604090205481565b60026020526000908152604090205481565b6003546001600160a01b031681565b604051806040016040528060038152602001624d494760e81b81525081565b600081151580610e0e5750336001600160a01b038416145b15610f0f573360009081526020819052604090205482811015610e78576040805162461bcd60e51b815260206004820152601660248201527f45524332303a2062616c616e636520746f6f206c6f7700000000000000000000604482015290519081900360640190fd5b336001600160a01b03851614610f0d576001600160a01b038416610ee3576040805162461bcd60e51b815260206004820152601660248201527f45524332303a206e6f207a65726f206164647265737300000000000000000000604482015290519081900360640190fd5b3360009081526020819052604080822085840390556001600160a01b038616825290208054840190555b505b6040805183815290516001600160a01b0385169133917fddf252ad1be2c89b69c2b068fc378daa952ba7f163c4a11628f55a4df523b3ef9181900360200190a350600192915050565b6001600160a01b038716610fb3576040805162461bcd60e51b815260206004820152601860248201527f45524332303a204f776e65722063616e6e6f7420626520300000000000000000604482015290519081900360640190fd5b834210611007576040805162461bcd60e51b815260206004820152600e60248201527f45524332303a2045787069726564000000000000000000000000000000000000604482015290519081900360640190fd5b6001600160a01b038088166000818152600260209081526040918290208054600181810190925583517f6e71edae12b1b97f4d1f60370fef10105fa2faae0126114a169c64845d6126c981850152808501869052958c166060870152608086018b905260a086015260c08086018a90528351808703909101815260e0909501909252835193019290922090919061109d90611371565b85858560405160008152602001604052604051808581526020018460ff1681526020018381526020018281526020019450505050506020604051602081039080840390855afa1580156110f4573d6000803e3d6000fd5b505050602060405103516001600160a01b031614611159576040805162461bcd60e51b815260206004820152601860248201527f45524332303a20496e76616c6964205369676e61747572650000000000000000604482015290519081900360640190fd5b6001600160a01b038088166000818152600160209081526040808320948b1680845294825291829020899055815189815291517f8c5be1e5ebec7d5bd14f71427d1e84f3dd0314c0f7b2291e5b200ac8c7c3b9259281900390910190a350505050505050565b600160209081526000928352604080842090915290825290205481565b6004546001600160a01b031681565b6000467f000000000000000000000000000000000000000000000000000000000000000081146112235761121e8161140d565b611245565b7f00000000000000000000000000000000000000000000000000000000000000005b91505090565b818101818110156106ca576040805162461bcd60e51b815260206004820152601860248201527f426f72696e674d6174683a20416464204f766572666c6f770000000000000000604482015290519081900360640190fd5b60008115806112be575050808202828282816112bb57fe5b04145b6106ca576040805162461bcd60e51b815260206004820152601860248201527f426f72696e674d6174683a204d756c204f766572666c6f770000000000000000604482015290519081900360640190fd5b60006001600160801b0382111561136d576040805162461bcd60e51b815260206004820152601c60248201527f426f72696e674d6174683a2075696e74313238204f766572666c6f7700000000604482015290519081900360640190fd5b5090565b600060405180604001604052806002815260200161190160f01b8152506113966111eb565b836040516020018084805190602001908083835b602083106113c95780518252601f1990920191602091820191016113aa565b51815160209384036101000a600019018019909216911617905292019485525083810192909252506040805180840383018152928101905281519101209392505050565b604080517f47e79534a245952e8b16893a336b85a3d9ea9fa8c573f3d803afb92a79469218602080830191909152818301939093523060608083019190915282518083039091018152608090910190915280519101209056fea2646970667358221220626f7582c87502e024292c3aeeee593ab9a0b2e15c4032188a7ae6c73cffe59b64736f6c634300060c0033",
  "devdoc": {
    "kind": "dev",
    "methods": {
      "approve(address,uint256)": {
        "params": {
          "amount": "The maximum collective amount that `spender` can draw.",
          "spender": "Address of the party that can draw from msg.sender's account."
        },
        "returns": {
          "_0": "(bool) Returns True if approved."
        }
      },
      "permit(address,address,uint256,uint256,uint8,bytes32,bytes32)": {
        "params": {
          "deadline": "This permit must be redeemed before this deadline (UTC timestamp in seconds).",
          "owner_": "Address of the owner.",
          "spender": "The address of the spender that gets approved to draw from `owner_`.",
          "value": "The maximum collective amount that `spender` can draw."
        }
      },
      "transfer(address,uint256)": {
        "params": {
          "amount": "of the tokens to move.",
          "to": "The address to move the tokens."
        },
        "returns": {
          "_0": "(bool) Returns True if succeeded."
        }
      },
      "transferFrom(address,address,uint256)": {
        "params": {
          "amount": "The token amount to move.",
          "from": "Address to draw tokens from.",
          "to": "The address to move the tokens."
        },
        "returns": {
          "_0": "(bool) Returns True if succeeded."
        }
      },
      "transferOwnership(address,bool,bool)": {
        "params": {
          "direct": "True if `newOwner` should be set immediately. False if `newOwner` needs to use `claimOwnership`.",
          "newOwner": "Address of the new owner.",
          "renounce": "Allows the `newOwner` to be `address(0)` if `direct` and `renounce` is True. Has no effect otherwise."
        }
      }
    },
    "title": "Magic Internet Gold",
    "version": 1
  },
  "userdoc": {
    "kind": "user",
    "methods": {
      "allowance(address,address)": {
        "notice": "owner > spender > allowance mapping."
      },
      "approve(address,uint256)": {
        "notice": "Approves `amount` from sender to be spend by `spender`."
      },
      "balanceOf(address)": {
        "notice": "owner > balance mapping."
      },
      "claimOwnership()": {
        "notice": "Needs to be called by `pendingOwner` to claim ownership."
      },
      "nonces(address)": {
        "notice": "owner > nonce mapping. Used in `permit`."
      },
      "permit(address,address,uint256,uint256,uint8,bytes32,bytes32)": {
        "notice": "Approves `value` from `owner_` to be spend by `spender`."
      },
      "transfer(address,uint256)": {
        "notice": "Transfers `amount` tokens from `msg.sender` to `to`."
      },
      "transferFrom(address,address,uint256)": {
        "notice": "Transfers `amount` tokens from `from` to `to`. Caller needs approval for `from`."
      },
      "transferOwnership(address,bool,bool)": {
        "notice": "Transfers ownership to `newOwner`. Either directly or claimable by the new pending owner. Can only be invoked by the current `owner`."
      }
    },
    "version": 1
  },
  "storageLayout": {
    "storage": [
      {
        "astId": 368,
        "contract": "contracts/MagicInternetGold.sol:MagicInternetGold",
        "label": "balanceOf",
        "offset": 0,
        "slot": "0",
        "type": "t_mapping(t_address,t_uint256)"
      },
      {
        "astId": 376,
        "contract": "contracts/MagicInternetGold.sol:MagicInternetGold",
        "label": "allowance",
        "offset": 0,
        "slot": "1",
        "type": "t_mapping(t_address,t_mapping(t_address,t_uint256))"
      },
      {
        "astId": 381,
        "contract": "contracts/MagicInternetGold.sol:MagicInternetGold",
        "label": "nonces",
        "offset": 0,
        "slot": "2",
        "type": "t_mapping(t_address,t_uint256)"
      },
      {
        "astId": 118,
        "contract": "contracts/MagicInternetGold.sol:MagicInternetGold",
        "label": "owner",
        "offset": 0,
        "slot": "3",
        "type": "t_address"
      },
      {
        "astId": 120,
        "contract": "contracts/MagicInternetGold.sol:MagicInternetGold",
        "label": "pendingOwner",
        "offset": 0,
        "slot": "4",
        "type": "t_address"
      },
      {
        "astId": 4827,
        "contract": "contracts/MagicInternetGold.sol:MagicInternetGold",
        "label": "totalSupply",
        "offset": 0,
        "slot": "5",
        "type": "t_uint256"
      },
      {
        "astId": 4834,
        "contract": "contracts/MagicInternetGold.sol:MagicInternetGold",
        "label": "lastMint",
        "offset": 0,
        "slot": "6",
        "type": "t_struct(Minting)4832_storage"
      }
    ],
    "types": {
      "t_address": {
        "encoding": "inplace",
        "label": "address",
        "numberOfBytes": "20"
      },
      "t_mapping(t_address,t_mapping(t_address,t_uint256))": {
        "encoding": "mapping",
        "key": "t_address",
        "label": "mapping(address => mapping(address => uint256))",
        "numberOfBytes": "32",
        "value": "t_mapping(t_address,t_uint256)"
      },
      "t_mapping(t_address,t_uint256)": {
        "encoding": "mapping",
        "key": "t_address",
        "label": "mapping(address => uint256)",
        "numberOfBytes": "32",
        "value": "t_uint256"
      },
      "t_struct(Minting)4832_storage": {
        "encoding": "inplace",
        "label": "struct MagicInternetGold.Minting",
        "members": [
          {
            "astId": 4829,
            "contract": "contracts/MagicInternetGold.sol:MagicInternetGold",
            "label": "time",
            "offset": 0,
            "slot": "0",
            "type": "t_uint128"
          },
          {
            "astId": 4831,
            "contract": "contracts/MagicInternetGold.sol:MagicInternetGold",
            "label": "amount",
            "offset": 16,
            "slot": "0",
            "type": "t_uint128"
          }
        ],
        "numberOfBytes": "32"
      },
      "t_uint128": {
        "encoding": "inplace",
        "label": "uint128",
        "numberOfBytes": "16"
      },
      "t_uint256": {
        "encoding": "inplace",
        "label": "uint256",
        "numberOfBytes": "32"
      }
    }
  }
}