{
  "address": "0x597D51a8B93FF4Aed8F2517885EF3B626B1d42db",
  "abi": [
    {
      "inputs": [
        {
          "internalType": "contract ICurveVoter",
          "name": "_curveVoter",
          "type": "address"
        }
      ],
      "stateMutability": "nonpayable",
      "type": "constructor"
    },
    {
      "anonymous": false,
      "inputs": [
        {
          "indexed": true,
          "internalType": "address",
          "name": "owner",
          "type": "address"
        },
        {
          "indexed": true,
          "internalType": "address",
          "name": "spender",
          "type": "address"
        },
        {
          "indexed": false,
          "internalType": "uint256",
          "name": "amount",
          "type": "uint256"
        }
      ],
      "name": "Approval",
      "type": "event"
    },
    {
      "anonymous": false,
      "inputs": [
        {
          "indexed": true,
          "internalType": "address",
          "name": "from",
          "type": "address"
        },
        {
          "indexed": true,
          "internalType": "address",
          "name": "to",
          "type": "address"
        },
        {
          "indexed": false,
          "internalType": "uint256",
          "name": "amount",
          "type": "uint256"
        }
      ],
      "name": "Transfer",
      "type": "event"
    },
    {
      "inputs": [],
      "name": "CRV",
      "outputs": [
        {
          "internalType": "contract ERC20",
          "name": "",
          "type": "address"
        }
      ],
      "stateMutability": "view",
      "type": "function"
    },
    {
      "inputs": [],
      "name": "DOMAIN_SEPARATOR",
      "outputs": [
        {
          "internalType": "bytes32",
          "name": "",
          "type": "bytes32"
        }
      ],
      "stateMutability": "view",
      "type": "function"
    },
    {
      "inputs": [],
      "name": "PERMIT_TYPEHASH",
      "outputs": [
        {
          "internalType": "bytes32",
          "name": "",
          "type": "bytes32"
        }
      ],
      "stateMutability": "view",
      "type": "function"
    },
    {
      "inputs": [
        {
          "internalType": "address",
          "name": "",
          "type": "address"
        },
        {
          "internalType": "address",
          "name": "",
          "type": "address"
        }
      ],
      "name": "allowance",
      "outputs": [
        {
          "internalType": "uint256",
          "name": "",
          "type": "uint256"
        }
      ],
      "stateMutability": "view",
      "type": "function"
    },
    {
      "inputs": [
        {
          "internalType": "address",
          "name": "spender",
          "type": "address"
        },
        {
          "internalType": "uint256",
          "name": "amount",
          "type": "uint256"
        }
      ],
      "name": "approve",
      "outputs": [
        {
          "internalType": "bool",
          "name": "",
          "type": "bool"
        }
      ],
      "stateMutability": "nonpayable",
      "type": "function"
    },
    {
      "inputs": [
        {
          "internalType": "address",
          "name": "",
          "type": "address"
        }
      ],
      "name": "balanceOf",
      "outputs": [
        {
          "internalType": "uint256",
          "name": "",
          "type": "uint256"
        }
      ],
      "stateMutability": "view",
      "type": "function"
    },
    {
      "inputs": [],
      "name": "curveVoter",
      "outputs": [
        {
          "internalType": "contract ICurveVoter",
          "name": "",
          "type": "address"
        }
      ],
      "stateMutability": "view",
      "type": "function"
    },
    {
      "inputs": [],
      "name": "decimals",
      "outputs": [
        {
          "internalType": "uint8",
          "name": "",
          "type": "uint8"
        }
      ],
      "stateMutability": "view",
      "type": "function"
    },
    {
      "inputs": [
        {
          "internalType": "uint256",
          "name": "amount",
          "type": "uint256"
        }
      ],
      "name": "mint",
      "outputs": [
        {
          "internalType": "uint256",
          "name": "",
          "type": "uint256"
        }
      ],
      "stateMutability": "nonpayable",
      "type": "function"
    },
    {
      "inputs": [
        {
          "internalType": "uint256",
          "name": "amount",
          "type": "uint256"
        },
        {
          "internalType": "address",
          "name": "recipient",
          "type": "address"
        }
      ],
      "name": "mintFor",
      "outputs": [
        {
          "internalType": "uint256",
          "name": "",
          "type": "uint256"
        }
      ],
      "stateMutability": "nonpayable",
      "type": "function"
    },
    {
      "inputs": [],
      "name": "name",
      "outputs": [
        {
          "internalType": "string",
          "name": "",
          "type": "string"
        }
      ],
      "stateMutability": "view",
      "type": "function"
    },
    {
      "inputs": [
        {
          "internalType": "address",
          "name": "",
          "type": "address"
        }
      ],
      "name": "nonces",
      "outputs": [
        {
          "internalType": "uint256",
          "name": "",
          "type": "uint256"
        }
      ],
      "stateMutability": "view",
      "type": "function"
    },
    {
      "inputs": [
        {
          "internalType": "address",
          "name": "owner",
          "type": "address"
        },
        {
          "internalType": "address",
          "name": "spender",
          "type": "address"
        },
        {
          "internalType": "uint256",
          "name": "value",
          "type": "uint256"
        },
        {
          "internalType": "uint256",
          "name": "deadline",
          "type": "uint256"
        },
        {
          "internalType": "uint8",
          "name": "v",
          "type": "uint8"
        },
        {
          "internalType": "bytes32",
          "name": "r",
          "type": "bytes32"
        },
        {
          "internalType": "bytes32",
          "name": "s",
          "type": "bytes32"
        }
      ],
      "name": "permit",
      "outputs": [],
      "stateMutability": "nonpayable",
      "type": "function"
    },
    {
      "inputs": [],
      "name": "symbol",
      "outputs": [
        {
          "internalType": "string",
          "name": "",
          "type": "string"
        }
      ],
      "stateMutability": "view",
      "type": "function"
    },
    {
      "inputs": [],
      "name": "totalCRVTokens",
      "outputs": [
        {
          "internalType": "uint256",
          "name": "",
          "type": "uint256"
        }
      ],
      "stateMutability": "view",
      "type": "function"
    },
    {
      "inputs": [],
      "name": "totalSupply",
      "outputs": [
        {
          "internalType": "uint256",
          "name": "",
          "type": "uint256"
        }
      ],
      "stateMutability": "view",
      "type": "function"
    },
    {
      "inputs": [
        {
          "internalType": "address",
          "name": "to",
          "type": "address"
        },
        {
          "internalType": "uint256",
          "name": "amount",
          "type": "uint256"
        }
      ],
      "name": "transfer",
      "outputs": [
        {
          "internalType": "bool",
          "name": "",
          "type": "bool"
        }
      ],
      "stateMutability": "nonpayable",
      "type": "function"
    },
    {
      "inputs": [
        {
          "internalType": "address",
          "name": "from",
          "type": "address"
        },
        {
          "internalType": "address",
          "name": "to",
          "type": "address"
        },
        {
          "internalType": "uint256",
          "name": "amount",
          "type": "uint256"
        }
      ],
      "name": "transferFrom",
      "outputs": [
        {
          "internalType": "bool",
          "name": "",
          "type": "bool"
        }
      ],
      "stateMutability": "nonpayable",
      "type": "function"
    }
  ],
  "transactionHash": "0xec7bd698fdfc67ca0b82b85d1387cc784930411e9831b649053a9eb6b91f1a8a",
  "args": [
    "0x55ee3014dFd4405e511c099B609D0ed2d4eFA27E"
  ],
  "numDeployments": 1,
  "solcInputHash": "4034f986f5b99ee54460cb06ee1c1c3a",
  "bytecode": "0x6101006040523480156200001257600080fd5b50604051620013023803806200130283398101604081905262000035916200020b565b604080518082018252600881526726b0b3b4b1a1a92b60c11b60208083019182528351808501909452600484526336a1a92b60e11b90840152815191929160129162000085916000919062000165565b5081516200009b90600190602085019062000165565b5060ff81166080524660a052620000b1620000c9565b60c0525050506001600160a01b031660e0526200031e565b60007f8b73c3c69bb8fe3d512ecc4cf759cc79239f7b179b0ffacaa9a75d522b39400f6000604051620000fd91906200027a565b6040805191829003822060208301939093528101919091527fc89efdaa54c0f20c7adf612882df0950f5a951637e0307cdcb4c672f298b8bc660608201524660808201523060a082015260c00160405160208183030381529060405280519060200120905090565b82805462000173906200023d565b90600052602060002090601f016020900481019282620001975760008555620001e2565b82601f10620001b257805160ff1916838001178555620001e2565b82800160010185558215620001e2579182015b82811115620001e2578251825591602001919060010190620001c5565b50620001f0929150620001f4565b5090565b5b80821115620001f05760008155600101620001f5565b6000602082840312156200021e57600080fd5b81516001600160a01b03811681146200023657600080fd5b9392505050565b600181811c908216806200025257607f821691505b602082108114156200027457634e487b7160e01b600052602260045260246000fd5b50919050565b600080835481600182811c9150808316806200029757607f831692505b6020808410821415620002b857634e487b7160e01b86526022600452602486fd5b818015620002cf5760018114620002e15762000310565b60ff1986168952848901965062000310565b60008a81526020902060005b86811015620003085781548b820152908501908301620002ed565b505084890196505b509498975050505050505050565b60805160a05160c05160e051610f8e620003746000396000818161021b0152818161057c015281816109c201528181610a5e0152610b0a0152600061055601526000610521015260006101d20152610f8e6000f3fe608060405234801561001057600080fd5b50600436106101365760003560e01c806370a08231116100b2578063a0712d6811610081578063ad62f1ca11610066578063ad62f1ca146102de578063d505accf146102f1578063dd62ed3e1461030657600080fd5b8063a0712d68146102b8578063a9059cbb146102cb57600080fd5b806370a08231146102555780637ecebe0014610275578063945c91421461029557806395d89b41146102b057600080fd5b806330adf81f116101095780633644e515116100ee5780633644e5151461020657806351f3b9481461020e57806365d2ebbf1461021657600080fd5b806330adf81f146101a6578063313ce567146101cd57600080fd5b806306fdde031461013b578063095ea7b31461015957806318160ddd1461017c57806323b872dd14610193575b600080fd5b610143610331565b6040516101509190610bec565b60405180910390f35b61016c610167366004610c5d565b6103bf565b6040519015158152602001610150565b61018560025481565b604051908152602001610150565b61016c6101a1366004610c87565b61042b565b6101857f6e71edae12b1b97f4d1f60370fef10105fa2faae0126114a169c64845d6126c981565b6101f47f000000000000000000000000000000000000000000000000000000000000000081565b60405160ff9091168152602001610150565b61018561051d565b610185610578565b61023d7f000000000000000000000000000000000000000000000000000000000000000081565b6040516001600160a01b039091168152602001610150565b610185610263366004610cc3565b60036020526000908152604090205481565b610185610283366004610cc3565b60056020526000908152604090205481565b61023d73d533a949740bb3306d119cc777fa900ba034cd5281565b6101436105fc565b6101856102c6366004610cde565b610609565b61016c6102d9366004610c5d565b61061b565b6101856102ec366004610cf7565b610693565b6103046102ff366004610d23565b6106a6565b005b610185610314366004610d96565b600460209081526000928352604080842090915290825290205481565b6000805461033e90610dc0565b80601f016020809104026020016040519081016040528092919081815260200182805461036a90610dc0565b80156103b75780601f1061038c576101008083540402835291602001916103b7565b820191906000526020600020905b81548152906001019060200180831161039a57829003601f168201915b505050505081565b3360008181526004602090815260408083206001600160a01b038716808552925280832085905551919290917f8c5be1e5ebec7d5bd14f71427d1e84f3dd0314c0f7b2291e5b200ac8c7c3b9259061041a9086815260200190565b60405180910390a350600192915050565b6001600160a01b03831660009081526004602090815260408083203384529091528120546000198114610487576104628382610e11565b6001600160a01b03861660009081526004602090815260408083203384529091529020555b6001600160a01b038516600090815260036020526040812080548592906104af908490610e11565b90915550506001600160a01b03808516600081815260036020526040908190208054870190555190918716907fddf252ad1be2c89b69c2b068fc378daa952ba7f163c4a11628f55a4df523b3ef9061050a9087815260200190565b60405180910390a3506001949350505050565b60007f000000000000000000000000000000000000000000000000000000000000000046146105535761054e61090b565b905090565b507f000000000000000000000000000000000000000000000000000000000000000090565b60007f00000000000000000000000000000000000000000000000000000000000000006001600160a01b03166351f3b9486040518163ffffffff1660e01b8152600401602060405180830381865afa1580156105d8573d6000803e3d6000fd5b505050506040513d601f19601f8201168201806040525081019061054e9190610e28565b6001805461033e90610dc0565b600061061582336109a5565b92915050565b3360009081526003602052604081208054839190839061063c908490610e11565b90915550506001600160a01b038316600081815260036020526040908190208054850190555133907fddf252ad1be2c89b69c2b068fc378daa952ba7f163c4a11628f55a4df523b3ef9061041a9086815260200190565b600061069f83836109a5565b9392505050565b428410156106fb5760405162461bcd60e51b815260206004820152601760248201527f5045524d49545f444541444c494e455f4558504952454400000000000000000060448201526064015b60405180910390fd5b600061070561051d565b6001600160a01b0389811660008181526005602090815260409182902080546001810190915582517f6e71edae12b1b97f4d1f60370fef10105fa2faae0126114a169c64845d6126c98184015280840194909452938c166060840152608083018b905260a083019390935260c08083018a90528151808403909101815260e08301909152805192019190912061190160f01b6101008301526101028201929092526101228101919091526101420160408051601f198184030181528282528051602091820120600080855291840180845281905260ff88169284019290925260608301869052608083018590529092509060019060a0016020604051602081039080840390855afa15801561081e573d6000803e3d6000fd5b5050604051601f1901519150506001600160a01b038116158015906108545750886001600160a01b0316816001600160a01b0316145b6108a05760405162461bcd60e51b815260206004820152600e60248201527f494e56414c49445f5349474e455200000000000000000000000000000000000060448201526064016106f2565b6001600160a01b0390811660009081526004602090815260408083208b8516808552908352928190208a905551898152919350918a16917f8c5be1e5ebec7d5bd14f71427d1e84f3dd0314c0f7b2291e5b200ac8c7c3b925910160405180910390a350505050505050565b60007f8b73c3c69bb8fe3d512ecc4cf759cc79239f7b179b0ffacaa9a75d522b39400f600060405161093d9190610e41565b6040805191829003822060208301939093528101919091527fc89efdaa54c0f20c7adf612882df0950f5a951637e0307cdcb4c672f298b8bc660608201524660808201523060a082015260c00160405160208183030381529060405280519060200120905090565b6040516323b872dd60e01b81523360048201526001600160a01b037f00000000000000000000000000000000000000000000000000000000000000001660248201526044810183905260009073d533a949740bb3306d119cc777fa900ba034cd52906323b872dd906064016020604051808303816000875af1158015610a2f573d6000803e3d6000fd5b505050506040513d601f19601f82011682018060405250810190610a539190610edd565b5060025415610afa577f00000000000000000000000000000000000000000000000000000000000000006001600160a01b03166351f3b9486040518163ffffffff1660e01b8152600401602060405180830381865afa158015610aba573d6000803e3d6000fd5b505050506040513d601f19601f82011682018060405250810190610ade9190610e28565b600254610aeb9085610eff565b610af59190610f1e565b610afc565b825b9050610b088282610b81565b7f00000000000000000000000000000000000000000000000000000000000000006001600160a01b031663f83d08ba6040518163ffffffff1660e01b8152600401600060405180830381600087803b158015610b6357600080fd5b505af1158015610b77573d6000803e3d6000fd5b5050505092915050565b8060026000828254610b939190610f40565b90915550506001600160a01b0382166000818152600360209081526040808320805486019055518481527fddf252ad1be2c89b69c2b068fc378daa952ba7f163c4a11628f55a4df523b3ef910160405180910390a35050565b600060208083528351808285015260005b81811015610c1957858101830151858201604001528201610bfd565b81811115610c2b576000604083870101525b50601f01601f1916929092016040019392505050565b80356001600160a01b0381168114610c5857600080fd5b919050565b60008060408385031215610c7057600080fd5b610c7983610c41565b946020939093013593505050565b600080600060608486031215610c9c57600080fd5b610ca584610c41565b9250610cb360208501610c41565b9150604084013590509250925092565b600060208284031215610cd557600080fd5b61069f82610c41565b600060208284031215610cf057600080fd5b5035919050565b60008060408385031215610d0a57600080fd5b82359150610d1a60208401610c41565b90509250929050565b600080600080600080600060e0888a031215610d3e57600080fd5b610d4788610c41565b9650610d5560208901610c41565b95506040880135945060608801359350608088013560ff81168114610d7957600080fd5b9699959850939692959460a0840135945060c09093013592915050565b60008060408385031215610da957600080fd5b610db283610c41565b9150610d1a60208401610c41565b600181811c90821680610dd457607f821691505b60208210811415610df557634e487b7160e01b600052602260045260246000fd5b50919050565b634e487b7160e01b600052601160045260246000fd5b600082821015610e2357610e23610dfb565b500390565b600060208284031215610e3a57600080fd5b5051919050565b600080835481600182811c915080831680610e5d57607f831692505b6020808410821415610e7d57634e487b7160e01b86526022600452602486fd5b818015610e915760018114610ea257610ecf565b60ff19861689528489019650610ecf565b60008a81526020902060005b86811015610ec75781548b820152908501908301610eae565b505084890196505b509498975050505050505050565b600060208284031215610eef57600080fd5b8151801515811461069f57600080fd5b6000816000190483118215151615610f1957610f19610dfb565b500290565b600082610f3b57634e487b7160e01b600052601260045260246000fd5b500490565b60008219821115610f5357610f53610dfb565b50019056fea2646970667358221220d736f0da38d75ddf0453338c9d15791dfd27203db387de2f3742bba17ed0429264736f6c634300080a0033",
  "devdoc": {
    "kind": "dev",
    "methods": {},
    "version": 1
  },
  "userdoc": {
    "kind": "user",
    "methods": {},
    "version": 1
  },
  "storageLayout": {
    "storage": [
      {
        "astId": 1450,
        "contract": "contracts/magic-crv/MagicCRV.sol:MagicCRV",
        "label": "name",
        "offset": 0,
        "slot": "0",
        "type": "t_string_storage"
      },
      {
        "astId": 1452,
        "contract": "contracts/magic-crv/MagicCRV.sol:MagicCRV",
        "label": "symbol",
        "offset": 0,
        "slot": "1",
        "type": "t_string_storage"
      },
      {
        "astId": 1456,
        "contract": "contracts/magic-crv/MagicCRV.sol:MagicCRV",
        "label": "totalSupply",
        "offset": 0,
        "slot": "2",
        "type": "t_uint256"
      },
      {
        "astId": 1460,
        "contract": "contracts/magic-crv/MagicCRV.sol:MagicCRV",
        "label": "balanceOf",
        "offset": 0,
        "slot": "3",
        "type": "t_mapping(t_address,t_uint256)"
      },
      {
        "astId": 1466,
        "contract": "contracts/magic-crv/MagicCRV.sol:MagicCRV",
        "label": "allowance",
        "offset": 0,
        "slot": "4",
        "type": "t_mapping(t_address,t_mapping(t_address,t_uint256))"
      },
      {
        "astId": 1479,
        "contract": "contracts/magic-crv/MagicCRV.sol:MagicCRV",
        "label": "nonces",
        "offset": 0,
        "slot": "5",
        "type": "t_mapping(t_address,t_uint256)"
      }
    ],
    "types": {
      "t_address": {
        "encoding": "inplace",
        "label": "address",
        "numberOfBytes": "20"
      },
      "t_mapping(t_address,t_mapping(t_address,t_uint256))": {
        "encoding": "mapping",
        "key": "t_address",
        "label": "mapping(address => mapping(address => uint256))",
        "numberOfBytes": "32",
        "value": "t_mapping(t_address,t_uint256)"
      },
      "t_mapping(t_address,t_uint256)": {
        "encoding": "mapping",
        "key": "t_address",
        "label": "mapping(address => uint256)",
        "numberOfBytes": "32",
        "value": "t_uint256"
      },
      "t_string_storage": {
        "encoding": "bytes",
        "label": "string",
        "numberOfBytes": "32"
      },
      "t_uint256": {
        "encoding": "inplace",
        "label": "uint256",
        "numberOfBytes": "32"
      }
    }
  }
}