{
  "address": "0x620F615D6E57a91a83cbFe6d6970296b3CF20Cf0",
  "abi": [
    {
      "inputs": [
        {
          "internalType": "contract ERC20",
          "name": "_mim",
          "type": "address"
        },
        {
          "internalType": "contract IStargateRouter",
          "name": "_stargateRouter",
          "type": "address"
        }
      ],
      "stateMutability": "nonpayable",
      "type": "constructor"
    },
    {
      "anonymous": false,
      "inputs": [
        {
          "indexed": false,
          "internalType": "address",
          "name": "redeemer",
          "type": "address"
        },
        {
          "indexed": false,
          "internalType": "bool",
          "name": "allowed",
          "type": "bool"
        }
      ],
      "name": "AllowedRedeemerChanged",
      "type": "event"
    },
    {
      "anonymous": false,
      "inputs": [
        {
          "indexed": false,
          "internalType": "uint256",
          "name": "feeBps",
          "type": "uint256"
        }
      ],
      "name": "FeeChanged",
      "type": "event"
    },
    {
      "anonymous": false,
      "inputs": [
        {
          "indexed": true,
          "internalType": "address",
          "name": "previousOwner",
          "type": "address"
        },
        {
          "indexed": true,
          "internalType": "address",
          "name": "newOwner",
          "type": "address"
        }
      ],
      "name": "OwnershipTransferred",
      "type": "event"
    },
    {
      "anonymous": false,
      "inputs": [
        {
          "indexed": false,
          "internalType": "contract IStargatePool",
          "name": "lp",
          "type": "address"
        },
        {
          "indexed": false,
          "internalType": "uint16",
          "name": "poolId",
          "type": "uint16"
        },
        {
          "indexed": false,
          "internalType": "contract IOracle",
          "name": "oracle",
          "type": "address"
        }
      ],
      "name": "PoolChanged",
      "type": "event"
    },
    {
      "anonymous": false,
      "inputs": [
        {
          "indexed": false,
          "internalType": "address",
          "name": "from",
          "type": "address"
        },
        {
          "indexed": false,
          "internalType": "contract IStargatePool",
          "name": "tokenIn",
          "type": "address"
        },
        {
          "indexed": false,
          "internalType": "uint256",
          "name": "amountIn",
          "type": "uint256"
        },
        {
          "indexed": false,
          "internalType": "uint256",
          "name": "amountOut",
          "type": "uint256"
        },
        {
          "indexed": false,
          "internalType": "address",
          "name": "recipient",
          "type": "address"
        }
      ],
      "name": "Swap",
      "type": "event"
    },
    {
      "inputs": [],
      "name": "MIM",
      "outputs": [
        {
          "internalType": "contract ERC20",
          "name": "",
          "type": "address"
        }
      ],
      "stateMutability": "view",
      "type": "function"
    },
    {
      "inputs": [],
      "name": "MIM_3POOL",
      "outputs": [
        {
          "internalType": "contract CurvePool",
          "name": "",
          "type": "address"
        }
      ],
      "stateMutability": "view",
      "type": "function"
    },
    {
      "inputs": [],
      "name": "MIM_ORACLE",
      "outputs": [
        {
          "internalType": "contract IAggregator",
          "name": "",
          "type": "address"
        }
      ],
      "stateMutability": "view",
      "type": "function"
    },
    {
      "inputs": [],
      "name": "ROUTER",
      "outputs": [
        {
          "internalType": "contract IStargateRouter",
          "name": "",
          "type": "address"
        }
      ],
      "stateMutability": "view",
      "type": "function"
    },
    {
      "inputs": [
        {
          "internalType": "address",
          "name": "",
          "type": "address"
        }
      ],
      "name": "allowedRedeemers",
      "outputs": [
        {
          "internalType": "bool",
          "name": "",
          "type": "bool"
        }
      ],
      "stateMutability": "view",
      "type": "function"
    },
    {
      "inputs": [
        {
          "internalType": "address",
          "name": "to",
          "type": "address"
        },
        {
          "internalType": "uint256",
          "name": "value",
          "type": "uint256"
        },
        {
          "internalType": "bytes",
          "name": "data",
          "type": "bytes"
        }
      ],
      "name": "execute",
      "outputs": [
        {
          "internalType": "bool",
          "name": "",
          "type": "bool"
        },
        {
          "internalType": "bytes",
          "name": "",
          "type": "bytes"
        }
      ],
      "stateMutability": "nonpayable",
      "type": "function"
    },
    {
      "inputs": [],
      "name": "feeBps",
      "outputs": [
        {
          "internalType": "uint256",
          "name": "",
          "type": "uint256"
        }
      ],
      "stateMutability": "view",
      "type": "function"
    },
    {
      "inputs": [
        {
          "internalType": "contract IStargatePool",
          "name": "tokenIn",
          "type": "address"
        },
        {
          "internalType": "uint256",
          "name": "amountIn",
          "type": "uint256"
        }
      ],
      "name": "getMimAmountOut",
      "outputs": [
        {
          "internalType": "uint256",
          "name": "",
          "type": "uint256"
        }
      ],
      "stateMutability": "view",
      "type": "function"
    },
    {
      "inputs": [
        {
          "internalType": "contract IStargatePool",
          "name": "lp",
          "type": "address"
        },
        {
          "internalType": "uint256",
          "name": "amount",
          "type": "uint256"
        }
      ],
      "name": "instantRedeemLocal",
      "outputs": [],
      "stateMutability": "nonpayable",
      "type": "function"
    },
    {
      "inputs": [
        {
          "internalType": "contract IStargatePool",
          "name": "lp",
          "type": "address"
        }
      ],
      "name": "instantRedeemLocalMax",
      "outputs": [],
      "stateMutability": "nonpayable",
      "type": "function"
    },
    {
      "inputs": [],
      "name": "mim",
      "outputs": [
        {
          "internalType": "contract ERC20",
          "name": "",
          "type": "address"
        }
      ],
      "stateMutability": "view",
      "type": "function"
    },
    {
      "inputs": [],
      "name": "mimOracle",
      "outputs": [
        {
          "internalType": "contract IAggregator",
          "name": "",
          "type": "address"
        }
      ],
      "stateMutability": "view",
      "type": "function"
    },
    {
      "inputs": [],
      "name": "owner",
      "outputs": [
        {
          "internalType": "address",
          "name": "",
          "type": "address"
        }
      ],
      "stateMutability": "view",
      "type": "function"
    },
    {
      "inputs": [
        {
          "internalType": "contract IStargatePool",
          "name": "",
          "type": "address"
        }
      ],
      "name": "pools",
      "outputs": [
        {
          "internalType": "uint16",
          "name": "poolId",
          "type": "uint16"
        },
        {
          "internalType": "contract IOracle",
          "name": "oracle",
          "type": "address"
        },
        {
          "internalType": "uint80",
          "name": "oracleDecimalsMultipler",
          "type": "uint80"
        }
      ],
      "stateMutability": "view",
      "type": "function"
    },
    {
      "inputs": [
        {
          "internalType": "uint16",
          "name": "dstChainId",
          "type": "uint16"
        },
        {
          "internalType": "uint256",
          "name": "srcPoolId",
          "type": "uint256"
        },
        {
          "internalType": "uint256",
          "name": "dstPoolId",
          "type": "uint256"
        },
        {
          "internalType": "uint256",
          "name": "amount",
          "type": "uint256"
        },
        {
          "components": [
            {
              "internalType": "uint256",
              "name": "dstGasForCall",
              "type": "uint256"
            },
            {
              "internalType": "uint256",
              "name": "dstNativeAmount",
              "type": "uint256"
            },
            {
              "internalType": "bytes",
              "name": "dstNativeAddr",
              "type": "bytes"
            }
          ],
          "internalType": "struct IStargateRouter.lzTxObj",
          "name": "txParams",
          "type": "tuple"
        }
      ],
      "name": "redeemLocal",
      "outputs": [],
      "stateMutability": "payable",
      "type": "function"
    },
    {
      "inputs": [],
      "name": "renounceOwnership",
      "outputs": [],
      "stateMutability": "nonpayable",
      "type": "function"
    },
    {
      "inputs": [
        {
          "internalType": "contract ERC20",
          "name": "token",
          "type": "address"
        },
        {
          "internalType": "address",
          "name": "to",
          "type": "address"
        },
        {
          "internalType": "uint256",
          "name": "amount",
          "type": "uint256"
        }
      ],
      "name": "rescueTokens",
      "outputs": [],
      "stateMutability": "nonpayable",
      "type": "function"
    },
    {
      "inputs": [
        {
          "internalType": "address",
          "name": "redeemer",
          "type": "address"
        },
        {
          "internalType": "bool",
          "name": "allowed",
          "type": "bool"
        }
      ],
      "name": "setAllowedRedeemer",
      "outputs": [],
      "stateMutability": "nonpayable",
      "type": "function"
    },
    {
      "inputs": [
        {
          "internalType": "uint256",
          "name": "_feeBps",
          "type": "uint256"
        }
      ],
      "name": "setFee",
      "outputs": [],
      "stateMutability": "nonpayable",
      "type": "function"
    },
    {
      "inputs": [
        {
          "internalType": "contract IStargatePool",
          "name": "lp",
          "type": "address"
        },
        {
          "internalType": "uint16",
          "name": "poolId",
          "type": "uint16"
        },
        {
          "internalType": "contract IOracle",
          "name": "oracle",
          "type": "address"
        },
        {
          "internalType": "uint80",
          "name": "oracleDecimalsMultipler",
          "type": "uint80"
        }
      ],
      "name": "setPool",
      "outputs": [],
      "stateMutability": "nonpayable",
      "type": "function"
    },
    {
      "inputs": [],
      "name": "stargateRouter",
      "outputs": [
        {
          "internalType": "contract IStargateRouter",
          "name": "",
          "type": "address"
        }
      ],
      "stateMutability": "view",
      "type": "function"
    },
    {
      "inputs": [
        {
          "internalType": "contract IStargatePool",
          "name": "tokenIn",
          "type": "address"
        },
        {
          "internalType": "uint256",
          "name": "amountIn",
          "type": "uint256"
        },
        {
          "internalType": "address",
          "name": "recipient",
          "type": "address"
        }
      ],
      "name": "swapForMim",
      "outputs": [
        {
          "internalType": "uint256",
          "name": "",
          "type": "uint256"
        }
      ],
      "stateMutability": "nonpayable",
      "type": "function"
    },
    {
      "inputs": [
        {
          "internalType": "address",
          "name": "inchrouter",
          "type": "address"
        },
        {
          "internalType": "contract ERC20",
          "name": "tokenIn",
          "type": "address"
        },
        {
          "internalType": "bytes",
          "name": "data",
          "type": "bytes"
        }
      ],
      "name": "swapToMimOn1Inch",
      "outputs": [],
      "stateMutability": "nonpayable",
      "type": "function"
    },
    {
      "inputs": [
        {
          "internalType": "contract ERC20",
          "name": "tokenIn",
          "type": "address"
        },
        {
          "internalType": "uint256",
          "name": "amountIn",
          "type": "uint256"
        },
        {
          "internalType": "int128",
          "name": "i",
          "type": "int128"
        }
      ],
      "name": "swapToMimOnCurve",
      "outputs": [],
      "stateMutability": "nonpayable",
      "type": "function"
    },
    {
      "inputs": [
        {
          "internalType": "address",
          "name": "newOwner",
          "type": "address"
        }
      ],
      "name": "transferOwnership",
      "outputs": [],
      "stateMutability": "nonpayable",
      "type": "function"
    }
  ],
  "transactionHash": "0xd5a21e2f0ec0c55535b8ab5d1d8979177404ca1160c4b8fce784abef4c1712f2",
  "args": [
    "0x99D8a9C45b2ecA8864373A26D1459e3Dff1e17F3",
    "0x8731d54E9D02c286767d56ac03e8037C07e01e98"
  ],
  "numDeployments": 1,
  "solcInputHash": "e590874295ade4d430608c5ceb7874cf",
  "bytecode": "0x60e06040523480156200001157600080fd5b50604051620021a7380380620021a783398101604081905262000034916200010d565b7399d8a9c45b2eca8864373a26d1459e3dff1e17f3737a364e8770418566e3eb2001a96116e6138eb32f738731d54e9d02c286767d56ac03e8037c07e01e986200007e33620000a4565b60146001556001600160a01b0392831660805290821660a0521660c052506200014c9050565b600080546001600160a01b038381166001600160a01b0319831681178455604051919092169283917f8be0079c531659141344cd1fd0a4f28419497f9722a3daafe3b4186f6b6457e09190a35050565b6001600160a01b03811681146200010a57600080fd5b50565b600080604083850312156200012157600080fd5b82516200012e81620000f4565b60208401519092506200014181620000f4565b809150509250929050565b60805160a05160c051612001620001a6600039600081816104b8015281816107e00152818161096901528181610cbe01526110710152600081816102ab01526111510152600081816103da01526106c901526120016000f3fe6080604052600436106101965760003560e01c8063910ae7d7116100e1578063a9e56f3c1161008a578063c300e4d811610064578063c300e4d814610528578063cea9d26f14610550578063daec383d14610570578063f2fde38b1461059857600080fd5b8063a9e56f3c146104a6578063b0eda7b6146104da578063b61d27f6146104fa57600080fd5b80639f67679e116100bb5780639f67679e146103c8578063a4063dbc146103fc578063a4c47dc41461048657600080fd5b8063910ae7d7146103685780639277ec83146103885780639a8308eb146103a857600080fd5b80635c356ee711610143578063723ef93d1161011d578063723ef93d146103025780637537dd171461032a5780638da5cb5b1461034a57600080fd5b80635c356ee71461029957806369fe0e2d146102cd578063715018a6146102ed57600080fd5b806338f6d6d21161017457806338f6d6d2146102245780634871c9e5146102395780635ae28ca01461027957600080fd5b806324a9d8531461019b5780632f3fc5cd146101c457806332fe7b26146101e4575b600080fd5b3480156101a757600080fd5b506101b160015481565b6040519081526020015b60405180910390f35b3480156101d057600080fd5b506101b16101df3660046118bf565b6105b8565b3480156101f057600080fd5b5061020c738731d54e9d02c286767d56ac03e8037c07e01e9881565b6040516001600160a01b0390911681526020016101bb565b610237610232366004611988565b610796565b005b34801561024557600080fd5b50610269610254366004611a8d565b60036020526000908152604090205460ff1681565b60405190151581526020016101bb565b34801561028557600080fd5b50610237610294366004611ab1565b6108a7565b3480156102a557600080fd5b5061020c7f000000000000000000000000000000000000000000000000000000000000000081565b3480156102d957600080fd5b506102376102e8366004611add565b6109dd565b3480156102f957600080fd5b50610237610ab2565b34801561030e57600080fd5b5061020c737a364e8770418566e3eb2001a96116e6138eb32f81565b34801561033657600080fd5b50610237610345366004611b04565b610b06565b34801561035657600080fd5b506000546001600160a01b031661020c565b34801561037457600080fd5b50610237610383366004611a8d565b610bb1565b34801561039457600080fd5b506102376103a3366004611b3d565b610d8e565b3480156103b457600080fd5b506102376103c3366004611bc4565b610e54565b3480156103d457600080fd5b5061020c7f000000000000000000000000000000000000000000000000000000000000000081565b34801561040857600080fd5b50610452610417366004611a8d565b60026020526000908152604090205461ffff8116906201000081046001600160a01b031690600160b01b900469ffffffffffffffffffff1683565b6040805161ffff90941684526001600160a01b03909216602084015269ffffffffffffffffffff16908201526060016101bb565b34801561049257600080fd5b506102376104a1366004611c29565b610f76565b3480156104b257600080fd5b5061020c7f000000000000000000000000000000000000000000000000000000000000000081565b3480156104e657600080fd5b506101b16104f5366004611ab1565b6110eb565b34801561050657600080fd5b5061051a610515366004611c92565b6112f0565b6040516101bb929190611d23565b34801561053457600080fd5b5061020c735a6a4d54456819380173272a5e8e9b9904bdf41b81565b34801561055c57600080fd5b5061023761056b366004611d3e565b6113ac565b34801561057c57600080fd5b5061020c7399d8a9c45b2eca8864373a26d1459e3dff1e17f381565b3480156105a457600080fd5b506102376105b3366004611a8d565b61140d565b3360009081526003602052604081205460ff1615156001146106215760405162461bcd60e51b815260206004820152600b60248201527f6e6f7420616c6c6f77656400000000000000000000000000000000000000000060448201526064015b60405180910390fd5b6001600160a01b03848116600090815260026020526040902054620100009004166106805760405162461bcd60e51b815260206004820152600f60248201526e34b73b30b634b2103a37b5b2b724b760891b6044820152606401610618565b600061068c85856110eb565b90506106a36001600160a01b0386163330876114c6565b60405163a9059cbb60e01b81526001600160a01b038481166004830152602482018390527f0000000000000000000000000000000000000000000000000000000000000000169063a9059cbb906044016020604051808303816000875af1158015610712573d6000803e3d6000fd5b505050506040513d601f19601f820116820180604052508101906107369190611d7f565b50604080513381526001600160a01b038781166020830152818301879052606082018490528516608082015290517fb39c9bc43f811e1a7ce159c5f147458fdb80266bf23c17322013316e27e086d09181900360a00190a1949350505050565b6000546001600160a01b031633146107de5760405162461bcd60e51b81526020600482018190526024820152600080516020611fac8339815191526044820152606401610618565b7f00000000000000000000000000000000000000000000000000000000000000006001600160a01b0316638f2e1d183487878733883060405160200161083c919060609190911b6bffffffffffffffffffffffff1916815260140190565b604051602081830303815290604052896040518963ffffffff1660e01b815260040161086e9796959493929190611d9c565b6000604051808303818588803b15801561088757600080fd5b505af115801561089b573d6000803e3d6000fd5b50505050505050505050565b6000546001600160a01b031633146108ef5760405162461bcd60e51b81526020600482018190526024820152600080516020611fac8339815191526044820152606401610618565b6001600160a01b038281166000908152600260209081526040918290208251606081018452905461ffff8116808352620100008204861693830193909352600160b01b900469ffffffffffffffffffff1681840152915163c4de93a560e01b815260048101919091526024810184905230604482015290917f0000000000000000000000000000000000000000000000000000000000000000169063c4de93a5906064015b6020604051808303816000875af11580156109b3573d6000803e3d6000fd5b505050506040513d601f19601f820116820180604052508101906109d79190611e18565b50505050565b6000546001600160a01b03163314610a255760405162461bcd60e51b81526020600482018190526024820152600080516020611fac8339815191526044820152606401610618565b612710811115610a775760405162461bcd60e51b815260206004820152601060248201527f6d617820666565206973203130303030000000000000000000000000000000006044820152606401610618565b60018190556040518181527f6bbc57480a46553fa4d156ce702beef5f3ad66303b0ed1a5d4cb44966c6584c39060200160405180910390a150565b6000546001600160a01b03163314610afa5760405162461bcd60e51b81526020600482018190526024820152600080516020611fac8339815191526044820152606401610618565b610b04600061155c565b565b6000546001600160a01b03163314610b4e5760405162461bcd60e51b81526020600482018190526024820152600080516020611fac8339815191526044820152606401610618565b6001600160a01b038216600081815260036020908152604091829020805460ff19168515159081179091558251938452908301527fb725d7ec39b904aca1b08e66391ea125cdeb3105d865653cf9d0d48e949e6c0d910160405180910390a15050565b6000546001600160a01b03163314610bf95760405162461bcd60e51b81526020600482018190526024820152600080516020611fac8339815191526044820152606401610618565b6001600160a01b0381811660008181526002602090815260408083208151606081018352905461ffff8116825262010000810490961692810192909252600160b01b90940469ffffffffffffffffffff168185015292516370a0823160e01b81523060048201529091906370a0823190602401602060405180830381865afa158015610c89573d6000803e3d6000fd5b505050506040513d601f19601f82011682018060405250810190610cad9190611e18565b90506000610cba846115b9565b90507f00000000000000000000000000000000000000000000000000000000000000006001600160a01b031663c4de93a58460000151838511610cfd5784610cff565b835b6040517fffffffff0000000000000000000000000000000000000000000000000000000060e085901b16815261ffff909216600483015260248201523060448201526064016020604051808303816000875af1158015610d63573d6000803e3d6000fd5b505050506040513d601f19601f82011682018060405250810190610d879190611e18565b5050505050565b6000546001600160a01b03163314610dd65760405162461bcd60e51b81526020600482018190526024820152600080516020611fac8339815191526044820152606401610618565b610dfe6001600160a01b038416735a6a4d54456819380173272a5e8e9b9904bdf41b84611755565b6040516322770cc360e11b8152600f82900b6004820152600060248201819052604482018490526064820152306084820152735a6a4d54456819380173272a5e8e9b9904bdf41b906344ee19869060a401610994565b6000546001600160a01b03163314610e9c5760405162461bcd60e51b81526020600482018190526024820152600080516020611fac8339815191526044820152606401610618565b610eb26001600160a01b03841685600019611755565b6000846001600160a01b03168383604051610ece929190611e31565b6000604051808303816000865af19150503d8060008114610f0b576040519150601f19603f3d011682016040523d82523d6000602084013e610f10565b606091505b5050905080610f615760405162461bcd60e51b815260206004820152601660248201527f31696e6368207377617020756e73756365737366756c000000000000000000006044820152606401610618565b610d876001600160a01b038516866000611755565b6000546001600160a01b03163314610fbe5760405162461bcd60e51b81526020600482018190526024820152600080516020611fac8339815191526044820152606401610618565b6040805160608101825261ffff80861682526001600160a01b03808616602080850191825269ffffffffffffffffffff8088168688019081528b851660008181526002909452979092209551865493519251909116600160b01b0275ffffffffffffffffffffffffffffffffffffffffffff9290941662010000027fffffffffffffffffffff000000000000000000000000000000000000000000009093169416939093171791909116179055611098907f0000000000000000000000000000000000000000000000000000000000000000600019611755565b604080516001600160a01b03868116825261ffff8616602083015284168183015290517f5c47df77929ae401d171c6f1e18dc38eb66ce08eb8a86180b5ee837d982870949181900360600190a150505050565b6001600160a01b038281166000908152600260205260408120549091620100009091041661114d5760405162461bcd60e51b815260206004820152600f60248201526e34b73b30b634b2103a37b5b2b724b760891b6044820152606401610618565b60007f00000000000000000000000000000000000000000000000000000000000000006001600160a01b03166350d25bcd6040518163ffffffff1660e01b8152600401602060405180830381865afa1580156111ad573d6000803e3d6000fd5b505050506040513d601f19601f820116820180604052508101906111d19190611e18565b6001600160a01b03808616600090815260026020526040808220549051630d39bbef60e41b815293945090928492620100009092049091169063d39bbef09061122890600401602080825260009082015260400190565b602060405180830381865afa158015611245573d6000803e3d6000fd5b505050506040513d601f19601f820116820180604052508101906112699190611e18565b6001600160a01b0387166000908152600260205260409020546112a090600160b01b900469ffffffffffffffffffff16600a611f3b565b6112aa9087611f53565b6112b49190611f72565b6112be9190611f72565b9050612710600154826112d19190611f53565b6112db9190611f72565b6112e59082611f94565b925050505b92915050565b600080546060906001600160a01b0316331461133c5760405162461bcd60e51b81526020600482018190526024820152600080516020611fac8339815191526044820152606401610618565b600080876001600160a01b031687878760405161135a929190611e31565b60006040518083038185875af1925050503d8060008114611397576040519150601f19603f3d011682016040523d82523d6000602084013e61139c565b606091505b5090999098509650505050505050565b6000546001600160a01b031633146113f45760405162461bcd60e51b81526020600482018190526024820152600080516020611fac8339815191526044820152606401610618565b6114086001600160a01b03841683836117dc565b505050565b6000546001600160a01b031633146114555760405162461bcd60e51b81526020600482018190526024820152600080516020611fac8339815191526044820152606401610618565b6001600160a01b0381166114ba5760405162461bcd60e51b815260206004820152602660248201527f4f776e61626c653a206e6577206f776e657220697320746865207a65726f206160448201526564647265737360d01b6064820152608401610618565b6114c38161155c565b50565b60006040516323b872dd60e01b81526001600160a01b03851660048201526001600160a01b038416602482015282604482015260008060648360008a5af191505061151081611863565b610d875760405162461bcd60e51b815260206004820152601460248201527f5452414e534645525f46524f4d5f4641494c45440000000000000000000000006044820152606401610618565b600080546001600160a01b0383811673ffffffffffffffffffffffffffffffffffffffff19831681178455604051919092169283917f8be0079c531659141344cd1fd0a4f28419497f9722a3daafe3b4186f6b6457e09190a35050565b600080826001600160a01b03166315770f926040518163ffffffff1660e01b8152600401602060405180830381865afa1580156115fa573d6000803e3d6000fd5b505050506040513d601f19601f8201168201806040525081019061161e9190611e18565b9050600081116116705760405162461bcd60e51b815260206004820152601360248201527f746f74616c4c69717569646974792069732030000000000000000000000000006044820152606401610618565b6000836001600160a01b0316631e8e51da6040518163ffffffff1660e01b8152600401602060405180830381865afa1580156116b0573d6000803e3d6000fd5b505050506040513d601f19601f820116820180604052508101906116d49190611e18565b905081846001600160a01b03166318160ddd6040518163ffffffff1660e01b8152600401602060405180830381865afa158015611715573d6000803e3d6000fd5b505050506040513d601f19601f820116820180604052508101906117399190611e18565b6117439083611f53565b61174d9190611f72565b949350505050565b600060405163095ea7b360e01b81526001600160a01b03841660048201528260248201526000806044836000895af191505061179081611863565b6109d75760405162461bcd60e51b815260206004820152600e60248201527f415050524f56455f4641494c45440000000000000000000000000000000000006044820152606401610618565b600060405163a9059cbb60e01b81526001600160a01b03841660048201528260248201526000806044836000895af191505061181781611863565b6109d75760405162461bcd60e51b815260206004820152600f60248201527f5452414e534645525f4641494c454400000000000000000000000000000000006044820152606401610618565b60003d8261187557806000803e806000fd5b806020811461188d57801561189e57600092506118a3565b816000803e600051151592506118a3565b600192505b5050919050565b6001600160a01b03811681146114c357600080fd5b6000806000606084860312156118d457600080fd5b83356118df816118aa565b92506020840135915060408401356118f6816118aa565b809150509250925092565b803561ffff8116811461191357600080fd5b919050565b634e487b7160e01b600052604160045260246000fd5b6040516060810167ffffffffffffffff8111828210171561195157611951611918565b60405290565b604051601f8201601f1916810167ffffffffffffffff8111828210171561198057611980611918565b604052919050565b600080600080600060a086880312156119a057600080fd5b6119a986611901565b945060208087013594506040870135935060608701359250608087013567ffffffffffffffff808211156119dc57600080fd5b908801906060828b0312156119f057600080fd5b6119f861192e565b823581528383013584820152604083013582811115611a1657600080fd5b8084019350508a601f840112611a2b57600080fd5b823582811115611a3d57611a3d611918565b611a4f601f8201601f19168601611957565b92508083528b85828601011115611a6557600080fd5b8085850186850137600085828501015250816040820152809450505050509295509295909350565b600060208284031215611a9f57600080fd5b8135611aaa816118aa565b9392505050565b60008060408385031215611ac457600080fd5b8235611acf816118aa565b946020939093013593505050565b600060208284031215611aef57600080fd5b5035919050565b80151581146114c357600080fd5b60008060408385031215611b1757600080fd5b8235611b22816118aa565b91506020830135611b3281611af6565b809150509250929050565b600080600060608486031215611b5257600080fd5b8335611b5d816118aa565b9250602084013591506040840135600f81900b81146118f657600080fd5b60008083601f840112611b8d57600080fd5b50813567ffffffffffffffff811115611ba557600080fd5b602083019150836020828501011115611bbd57600080fd5b9250929050565b60008060008060608587031215611bda57600080fd5b8435611be5816118aa565b93506020850135611bf5816118aa565b9250604085013567ffffffffffffffff811115611c1157600080fd5b611c1d87828801611b7b565b95989497509550505050565b60008060008060808587031215611c3f57600080fd5b8435611c4a816118aa565b9350611c5860208601611901565b92506040850135611c68816118aa565b9150606085013569ffffffffffffffffffff81168114611c8757600080fd5b939692955090935050565b60008060008060608587031215611ca857600080fd5b8435611cb3816118aa565b935060208501359250604085013567ffffffffffffffff811115611c1157600080fd5b6000815180845260005b81811015611cfc57602081850181015186830182015201611ce0565b81811115611d0e576000602083870101525b50601f01601f19169290920160200192915050565b821515815260406020820152600061174d6040830184611cd6565b600080600060608486031215611d5357600080fd5b8335611d5e816118aa565b92506020840135611d6e816118aa565b929592945050506040919091013590565b600060208284031215611d9157600080fd5b8151611aaa81611af6565b61ffff881681528660208201528560408201526001600160a01b038516606082015283608082015260e060a08201526000611dda60e0830185611cd6565b82810360c08401528351815260208401516020820152604084015160606040830152611e096060830182611cd6565b9b9a5050505050505050505050565b600060208284031215611e2a57600080fd5b5051919050565b8183823760009101908152919050565b634e487b7160e01b600052601160045260246000fd5b600181815b80851115611e92578160001904821115611e7857611e78611e41565b80851615611e8557918102915b93841c9390800290611e5c565b509250929050565b600082611ea9575060016112ea565b81611eb6575060006112ea565b8160018114611ecc5760028114611ed657611ef2565b60019150506112ea565b60ff841115611ee757611ee7611e41565b50506001821b6112ea565b5060208310610133831016604e8410600b8410161715611f15575081810a6112ea565b611f1f8383611e57565b8060001904821115611f3357611f33611e41565b029392505050565b6000611aaa69ffffffffffffffffffff841683611e9a565b6000816000190483118215151615611f6d57611f6d611e41565b500290565b600082611f8f57634e487b7160e01b600052601260045260246000fd5b500490565b600082821015611fa657611fa6611e41565b50039056fe4f776e61626c653a2063616c6c6572206973206e6f7420746865206f776e6572a26469706673582212202a416d3237ff2a6b496681e93d599784a0e840a985a5cfd113aea0388a1210c664736f6c634300080a0033",
  "devdoc": {
    "kind": "dev",
    "methods": {
      "owner()": {
        "details": "Returns the address of the current owner."
      },
      "redeemLocal(uint16,uint256,uint256,uint256,(uint256,uint256,bytes))": {
        "params": {
          "amount": "quantity of LP tokens to redeem",
          "dstChainId": "the chainId to remove liquidity",
          "dstPoolId": "the destination poolId",
          "srcPoolId": "the source poolId",
          "txParams": "adpater parameters https://layerzero.gitbook.io/docs/technical-reference/mainnet/supported-chain-ids"
        }
      },
      "renounceOwnership()": {
        "details": "Leaves the contract without owner. It will not be possible to call `onlyOwner` functions anymore. Can only be called by the current owner. NOTE: Renouncing ownership will leave the contract without an owner, thereby removing any functionality that is only available to the owner."
      },
      "transferOwnership(address)": {
        "details": "Transfers ownership of the contract to a new account (`newOwner`). Can only be called by the current owner."
      }
    },
    "version": 1
  },
  "userdoc": {
    "kind": "user",
    "methods": {},
    "version": 1
  },
  "storageLayout": {
    "storage": [
      {
        "astId": 7,
        "contract": "contracts/stargate/MainnetStargateLpMimPool.sol:MainnetStargateLpMimPool",
        "label": "_owner",
        "offset": 0,
        "slot": "0",
        "type": "t_address"
      },
      {
        "astId": 12551,
        "contract": "contracts/stargate/MainnetStargateLpMimPool.sol:MainnetStargateLpMimPool",
        "label": "feeBps",
        "offset": 0,
        "slot": "1",
        "type": "t_uint256"
      },
      {
        "astId": 12557,
        "contract": "contracts/stargate/MainnetStargateLpMimPool.sol:MainnetStargateLpMimPool",
        "label": "pools",
        "offset": 0,
        "slot": "2",
        "type": "t_mapping(t_contract(IStargatePool)4787,t_struct(PoolInfo)12540_storage)"
      },
      {
        "astId": 12561,
        "contract": "contracts/stargate/MainnetStargateLpMimPool.sol:MainnetStargateLpMimPool",
        "label": "allowedRedeemers",
        "offset": 0,
        "slot": "3",
        "type": "t_mapping(t_address,t_bool)"
      }
    ],
    "types": {
      "t_address": {
        "encoding": "inplace",
        "label": "address",
        "numberOfBytes": "20"
      },
      "t_bool": {
        "encoding": "inplace",
        "label": "bool",
        "numberOfBytes": "1"
      },
      "t_contract(IOracle)4182": {
        "encoding": "inplace",
        "label": "contract IOracle",
        "numberOfBytes": "20"
      },
      "t_contract(IStargatePool)4787": {
        "encoding": "inplace",
        "label": "contract IStargatePool",
        "numberOfBytes": "20"
      },
      "t_mapping(t_address,t_bool)": {
        "encoding": "mapping",
        "key": "t_address",
        "label": "mapping(address => bool)",
        "numberOfBytes": "32",
        "value": "t_bool"
      },
      "t_mapping(t_contract(IStargatePool)4787,t_struct(PoolInfo)12540_storage)": {
        "encoding": "mapping",
        "key": "t_contract(IStargatePool)4787",
        "label": "mapping(contract IStargatePool => struct BaseStargateLpMimPool.PoolInfo)",
        "numberOfBytes": "32",
        "value": "t_struct(PoolInfo)12540_storage"
      },
      "t_struct(PoolInfo)12540_storage": {
        "encoding": "inplace",
        "label": "struct BaseStargateLpMimPool.PoolInfo",
        "members": [
          {
            "astId": 12534,
            "contract": "contracts/stargate/MainnetStargateLpMimPool.sol:MainnetStargateLpMimPool",
            "label": "poolId",
            "offset": 0,
            "slot": "0",
            "type": "t_uint16"
          },
          {
            "astId": 12537,
            "contract": "contracts/stargate/MainnetStargateLpMimPool.sol:MainnetStargateLpMimPool",
            "label": "oracle",
            "offset": 2,
            "slot": "0",
            "type": "t_contract(IOracle)4182"
          },
          {
            "astId": 12539,
            "contract": "contracts/stargate/MainnetStargateLpMimPool.sol:MainnetStargateLpMimPool",
            "label": "oracleDecimalsMultipler",
            "offset": 22,
            "slot": "0",
            "type": "t_uint80"
          }
        ],
        "numberOfBytes": "32"
      },
      "t_uint16": {
        "encoding": "inplace",
        "label": "uint16",
        "numberOfBytes": "2"
      },
      "t_uint256": {
        "encoding": "inplace",
        "label": "uint256",
        "numberOfBytes": "32"
      },
      "t_uint80": {
        "encoding": "inplace",
        "label": "uint80",
        "numberOfBytes": "10"
      }
    }
  }
}