{
  "address": "0x185697868e26c2Ec5b6b86504dB2F2d390f54720",
  "abi": [
    {
      "inputs": [
        {
          "internalType": "contract ERC20",
          "name": "_mim",
          "type": "address"
        },
        {
          "internalType": "contract IAggregator",
          "name": "_mimOracle",
          "type": "address"
        },
        {
          "internalType": "contract IStargateRouter",
          "name": "_stargateRouter",
          "type": "address"
        }
      ],
      "stateMutability": "nonpayable",
      "type": "constructor"
    },
    {
      "inputs": [],
      "name": "ErrSwapFailed",
      "type": "error"
    },
    {
      "anonymous": false,
      "inputs": [
        {
          "indexed": false,
          "internalType": "address",
          "name": "redeemer",
          "type": "address"
        },
        {
          "indexed": false,
          "internalType": "bool",
          "name": "allowed",
          "type": "bool"
        }
      ],
      "name": "AllowedExecutorChanged",
      "type": "event"
    },
    {
      "anonymous": false,
      "inputs": [
        {
          "indexed": false,
          "internalType": "address",
          "name": "redeemer",
          "type": "address"
        },
        {
          "indexed": false,
          "internalType": "bool",
          "name": "allowed",
          "type": "bool"
        }
      ],
      "name": "AllowedRedeemerChanged",
      "type": "event"
    },
    {
      "anonymous": false,
      "inputs": [
        {
          "indexed": false,
          "internalType": "uint256",
          "name": "feeBps",
          "type": "uint256"
        }
      ],
      "name": "FeeChanged",
      "type": "event"
    },
    {
      "anonymous": false,
      "inputs": [
        {
          "indexed": true,
          "internalType": "address",
          "name": "previousOwner",
          "type": "address"
        },
        {
          "indexed": true,
          "internalType": "address",
          "name": "newOwner",
          "type": "address"
        }
      ],
      "name": "OwnershipTransferred",
      "type": "event"
    },
    {
      "anonymous": false,
      "inputs": [
        {
          "indexed": false,
          "internalType": "contract IStargatePool",
          "name": "lp",
          "type": "address"
        },
        {
          "indexed": false,
          "internalType": "uint16",
          "name": "poolId",
          "type": "uint16"
        },
        {
          "indexed": false,
          "internalType": "contract IOracle",
          "name": "oracle",
          "type": "address"
        }
      ],
      "name": "PoolChanged",
      "type": "event"
    },
    {
      "anonymous": false,
      "inputs": [
        {
          "indexed": false,
          "internalType": "address",
          "name": "from",
          "type": "address"
        },
        {
          "indexed": false,
          "internalType": "contract IStargatePool",
          "name": "tokenIn",
          "type": "address"
        },
        {
          "indexed": false,
          "internalType": "uint256",
          "name": "amountIn",
          "type": "uint256"
        },
        {
          "indexed": false,
          "internalType": "uint256",
          "name": "amountOut",
          "type": "uint256"
        },
        {
          "indexed": false,
          "internalType": "address",
          "name": "recipient",
          "type": "address"
        }
      ],
      "name": "Swap",
      "type": "event"
    },
    {
      "inputs": [
        {
          "internalType": "address",
          "name": "",
          "type": "address"
        }
      ],
      "name": "allowedExecutors",
      "outputs": [
        {
          "internalType": "bool",
          "name": "",
          "type": "bool"
        }
      ],
      "stateMutability": "view",
      "type": "function"
    },
    {
      "inputs": [
        {
          "internalType": "address",
          "name": "",
          "type": "address"
        }
      ],
      "name": "allowedRedeemers",
      "outputs": [
        {
          "internalType": "bool",
          "name": "",
          "type": "bool"
        }
      ],
      "stateMutability": "view",
      "type": "function"
    },
    {
      "inputs": [
        {
          "internalType": "address",
          "name": "to",
          "type": "address"
        },
        {
          "internalType": "uint256",
          "name": "value",
          "type": "uint256"
        },
        {
          "internalType": "bytes",
          "name": "data",
          "type": "bytes"
        }
      ],
      "name": "execute",
      "outputs": [
        {
          "internalType": "bool",
          "name": "",
          "type": "bool"
        },
        {
          "internalType": "bytes",
          "name": "",
          "type": "bytes"
        }
      ],
      "stateMutability": "nonpayable",
      "type": "function"
    },
    {
      "inputs": [],
      "name": "feeBps",
      "outputs": [
        {
          "internalType": "uint256",
          "name": "",
          "type": "uint256"
        }
      ],
      "stateMutability": "view",
      "type": "function"
    },
    {
      "inputs": [
        {
          "internalType": "contract IStargatePool",
          "name": "tokenIn",
          "type": "address"
        },
        {
          "internalType": "uint256",
          "name": "amountIn",
          "type": "uint256"
        }
      ],
      "name": "getMimAmountOut",
      "outputs": [
        {
          "internalType": "uint256",
          "name": "",
          "type": "uint256"
        }
      ],
      "stateMutability": "view",
      "type": "function"
    },
    {
      "inputs": [
        {
          "internalType": "contract IStargatePool",
          "name": "lp",
          "type": "address"
        },
        {
          "internalType": "uint256",
          "name": "amount",
          "type": "uint256"
        }
      ],
      "name": "instantRedeemLocal",
      "outputs": [],
      "stateMutability": "nonpayable",
      "type": "function"
    },
    {
      "inputs": [
        {
          "internalType": "contract IStargatePool",
          "name": "lp",
          "type": "address"
        }
      ],
      "name": "instantRedeemLocalMax",
      "outputs": [],
      "stateMutability": "nonpayable",
      "type": "function"
    },
    {
      "inputs": [],
      "name": "mim",
      "outputs": [
        {
          "internalType": "contract ERC20",
          "name": "",
          "type": "address"
        }
      ],
      "stateMutability": "view",
      "type": "function"
    },
    {
      "inputs": [],
      "name": "mimOracle",
      "outputs": [
        {
          "internalType": "contract IAggregator",
          "name": "",
          "type": "address"
        }
      ],
      "stateMutability": "view",
      "type": "function"
    },
    {
      "inputs": [],
      "name": "owner",
      "outputs": [
        {
          "internalType": "address",
          "name": "",
          "type": "address"
        }
      ],
      "stateMutability": "view",
      "type": "function"
    },
    {
      "inputs": [
        {
          "internalType": "contract IStargatePool",
          "name": "",
          "type": "address"
        }
      ],
      "name": "pools",
      "outputs": [
        {
          "internalType": "uint16",
          "name": "poolId",
          "type": "uint16"
        },
        {
          "internalType": "contract IOracle",
          "name": "oracle",
          "type": "address"
        },
        {
          "internalType": "uint80",
          "name": "oracleDecimalsMultipler",
          "type": "uint80"
        }
      ],
      "stateMutability": "view",
      "type": "function"
    },
    {
      "inputs": [
        {
          "internalType": "uint16",
          "name": "dstChainId",
          "type": "uint16"
        },
        {
          "internalType": "uint256",
          "name": "srcPoolId",
          "type": "uint256"
        },
        {
          "internalType": "uint256",
          "name": "dstPoolId",
          "type": "uint256"
        },
        {
          "internalType": "uint256",
          "name": "amount",
          "type": "uint256"
        },
        {
          "components": [
            {
              "internalType": "uint256",
              "name": "dstGasForCall",
              "type": "uint256"
            },
            {
              "internalType": "uint256",
              "name": "dstNativeAmount",
              "type": "uint256"
            },
            {
              "internalType": "bytes",
              "name": "dstNativeAddr",
              "type": "bytes"
            }
          ],
          "internalType": "struct IStargateRouter.lzTxObj",
          "name": "txParams",
          "type": "tuple"
        }
      ],
      "name": "redeemLocal",
      "outputs": [],
      "stateMutability": "payable",
      "type": "function"
    },
    {
      "inputs": [],
      "name": "renounceOwnership",
      "outputs": [],
      "stateMutability": "nonpayable",
      "type": "function"
    },
    {
      "inputs": [
        {
          "internalType": "contract ERC20",
          "name": "token",
          "type": "address"
        },
        {
          "internalType": "address",
          "name": "to",
          "type": "address"
        },
        {
          "internalType": "uint256",
          "name": "amount",
          "type": "uint256"
        }
      ],
      "name": "rescueTokens",
      "outputs": [],
      "stateMutability": "nonpayable",
      "type": "function"
    },
    {
      "inputs": [
        {
          "internalType": "address",
          "name": "executor",
          "type": "address"
        },
        {
          "internalType": "bool",
          "name": "allowed",
          "type": "bool"
        }
      ],
      "name": "setAllowedExecutor",
      "outputs": [],
      "stateMutability": "nonpayable",
      "type": "function"
    },
    {
      "inputs": [
        {
          "internalType": "address",
          "name": "redeemer",
          "type": "address"
        },
        {
          "internalType": "bool",
          "name": "allowed",
          "type": "bool"
        }
      ],
      "name": "setAllowedRedeemer",
      "outputs": [],
      "stateMutability": "nonpayable",
      "type": "function"
    },
    {
      "inputs": [
        {
          "internalType": "uint256",
          "name": "_feeBps",
          "type": "uint256"
        }
      ],
      "name": "setFee",
      "outputs": [],
      "stateMutability": "nonpayable",
      "type": "function"
    },
    {
      "inputs": [
        {
          "internalType": "contract IStargatePool",
          "name": "lp",
          "type": "address"
        },
        {
          "internalType": "uint16",
          "name": "poolId",
          "type": "uint16"
        },
        {
          "internalType": "contract IOracle",
          "name": "oracle",
          "type": "address"
        },
        {
          "internalType": "uint80",
          "name": "oracleDecimalsMultipler",
          "type": "uint80"
        }
      ],
      "name": "setPool",
      "outputs": [],
      "stateMutability": "nonpayable",
      "type": "function"
    },
    {
      "inputs": [],
      "name": "stargateRouter",
      "outputs": [
        {
          "internalType": "contract IStargateRouter",
          "name": "",
          "type": "address"
        }
      ],
      "stateMutability": "view",
      "type": "function"
    },
    {
      "inputs": [
        {
          "internalType": "contract IStargatePool",
          "name": "tokenIn",
          "type": "address"
        },
        {
          "internalType": "uint256",
          "name": "amountIn",
          "type": "uint256"
        },
        {
          "internalType": "address",
          "name": "recipient",
          "type": "address"
        }
      ],
      "name": "swapForMim",
      "outputs": [
        {
          "internalType": "uint256",
          "name": "",
          "type": "uint256"
        }
      ],
      "stateMutability": "nonpayable",
      "type": "function"
    },
    {
      "inputs": [
        {
          "internalType": "address",
          "name": "aggreagtorRouter",
          "type": "address"
        },
        {
          "internalType": "contract ERC20",
          "name": "tokenIn",
          "type": "address"
        },
        {
          "internalType": "bytes",
          "name": "data",
          "type": "bytes"
        }
      ],
      "name": "swapOnAggregator",
      "outputs": [],
      "stateMutability": "nonpayable",
      "type": "function"
    },
    {
      "inputs": [
        {
          "internalType": "address",
          "name": "newOwner",
          "type": "address"
        }
      ],
      "name": "transferOwnership",
      "outputs": [],
      "stateMutability": "nonpayable",
      "type": "function"
    }
  ],
  "transactionHash": "0x920a02432f04e43c1394cd55d632689361b39baab68af8a04ee88649a1477e40",
  "args": [
    "0x99D8a9C45b2ecA8864373A26D1459e3Dff1e17F3",
    "0x7A364e8770418566e3eb2001A96116E6138Eb32F",
    "0x8731d54E9D02c286767d56ac03e8037C07e01e98"
  ],
  "numDeployments": 1,
  "solcInputHash": "ad217ce9d84e838729d0cef2136966ca",
  "bytecode": "0x60e06040523480156200001157600080fd5b5060405162002070380380620020708339810160408190526200003491620000cb565b6200003f3362000062565b60146001556001600160a01b0392831660805290821660a0521660c0526200011f565b600080546001600160a01b038381166001600160a01b0319831681178455604051919092169283917f8be0079c531659141344cd1fd0a4f28419497f9722a3daafe3b4186f6b6457e09190a35050565b6001600160a01b0381168114620000c857600080fd5b50565b600080600060608486031215620000e157600080fd5b8351620000ee81620000b2565b60208501519093506200010181620000b2565b60408501519092506200011481620000b2565b809150509250925092565b60805160a05160c051611ef7620001796000396000818161043701528181610747015281816108da01528181610c390152610e0401526000818161027a0152610ee401526000818161035901526106260152611ef76000f3fe6080604052600436106101755760003560e01c8063910ae7d7116100cb578063b0eda7b61161007f578063cea9d26f11610059578063cea9d26f146104c7578063cfac96ce146104e7578063f2fde38b1461050757600080fd5b8063b0eda7b614610459578063b61d27f614610479578063c15fcbf0146104a757600080fd5b8063a4063dbc116100b0578063a4063dbc1461037b578063a4c47dc414610405578063a9e56f3c1461042557600080fd5b8063910ae7d7146103275780639f67679e1461034757600080fd5b80635ae28ca01161012d578063715018a611610107578063715018a6146102d45780637537dd17146102e95780638da5cb5b1461030957600080fd5b80635ae28ca0146102485780635c356ee71461026857806369fe0e2d146102b457600080fd5b806337cb67361161015e57806337cb6736146101c357806338f6d6d2146102035780634871c9e51461021857600080fd5b806324a9d8531461017a5780632f3fc5cd146101a3575b600080fd5b34801561018657600080fd5b5061019060015481565b6040519081526020015b60405180910390f35b3480156101af57600080fd5b506101906101be3660046117f3565b610527565b3480156101cf57600080fd5b506101f36101de366004611835565b60046020526000908152604090205460ff1681565b604051901515815260200161019a565b6102166102113660046118e0565b6106f3565b005b34801561022457600080fd5b506101f3610233366004611835565b60036020526000908152604090205460ff1681565b34801561025457600080fd5b506102166102633660046119e5565b61080e565b34801561027457600080fd5b5061029c7f000000000000000000000000000000000000000000000000000000000000000081565b6040516001600160a01b03909116815260200161019a565b3480156102c057600080fd5b506102166102cf366004611a11565b61094d565b3480156102e057600080fd5b50610216610a22565b3480156102f557600080fd5b50610216610304366004611a38565b610a76565b34801561031557600080fd5b506000546001600160a01b031661029c565b34801561033357600080fd5b50610216610342366004611835565b610b22565b34801561035357600080fd5b5061029c7f000000000000000000000000000000000000000000000000000000000000000081565b34801561038757600080fd5b506103d1610396366004611835565b60026020526000908152604090205461ffff8116906201000081046001600160a01b031690600160b01b900469ffffffffffffffffffff1683565b6040805161ffff90941684526001600160a01b03909216602084015269ffffffffffffffffffff169082015260600161019a565b34801561041157600080fd5b50610216610420366004611a71565b610d09565b34801561043157600080fd5b5061029c7f000000000000000000000000000000000000000000000000000000000000000081565b34801561046557600080fd5b506101906104743660046119e5565b610e7e565b34801561048557600080fd5b50610499610494366004611b23565b611083565b60405161019a929190611bcc565b3480156104b357600080fd5b506102166104c2366004611be7565b61113f565b3480156104d357600080fd5b506102166104e2366004611c34565b61123c565b3480156104f357600080fd5b50610216610502366004611a38565b61129d565b34801561051357600080fd5b50610216610522366004611835565b611341565b3360009081526003602052604081205460ff16151560011461057e5760405162461bcd60e51b815260206004820152600b60248201526a1b9bdd08185b1b1bddd95960aa1b60448201526064015b60405180910390fd5b6001600160a01b03848116600090815260026020526040902054620100009004166105dd5760405162461bcd60e51b815260206004820152600f60248201526e34b73b30b634b2103a37b5b2b724b760891b6044820152606401610575565b60006105e98585610e7e565b90506106006001600160a01b0386163330876113fa565b60405163a9059cbb60e01b81526001600160a01b038481166004830152602482018390527f0000000000000000000000000000000000000000000000000000000000000000169063a9059cbb906044016020604051808303816000875af115801561066f573d6000803e3d6000fd5b505050506040513d601f19601f820116820180604052508101906106939190611c75565b50604080513381526001600160a01b038781166020830152818301879052606082018490528516608082015290517fb39c9bc43f811e1a7ce159c5f147458fdb80266bf23c17322013316e27e086d09181900360a00190a1949350505050565b3360009081526004602052604090205460ff1615156001146107455760405162461bcd60e51b815260206004820152600b60248201526a1b9bdd08185b1b1bddd95960aa1b6044820152606401610575565b7f00000000000000000000000000000000000000000000000000000000000000006001600160a01b0316638f2e1d18348787873388306040516020016107a3919060609190911b6bffffffffffffffffffffffff1916815260140190565b604051602081830303815290604052896040518963ffffffff1660e01b81526004016107d59796959493929190611c92565b6000604051808303818588803b1580156107ee57600080fd5b505af1158015610802573d6000803e3d6000fd5b50505050505050505050565b3360009081526004602052604090205460ff1615156001146108605760405162461bcd60e51b815260206004820152600b60248201526a1b9bdd08185b1b1bddd95960aa1b6044820152606401610575565b6001600160a01b038281166000908152600260209081526040918290208251606081018452905461ffff8116808352620100008204861693830193909352600160b01b900469ffffffffffffffffffff1681840152915163c4de93a560e01b815260048101919091526024810184905230604482015290917f0000000000000000000000000000000000000000000000000000000000000000169063c4de93a5906064016020604051808303816000875af1158015610923573d6000803e3d6000fd5b505050506040513d601f19601f820116820180604052508101906109479190611d0e565b50505050565b6000546001600160a01b031633146109955760405162461bcd60e51b81526020600482018190526024820152600080516020611ea28339815191526044820152606401610575565b6127108111156109e75760405162461bcd60e51b815260206004820152601060248201527f6d617820666565206973203130303030000000000000000000000000000000006044820152606401610575565b60018190556040518181527f6bbc57480a46553fa4d156ce702beef5f3ad66303b0ed1a5d4cb44966c6584c39060200160405180910390a150565b6000546001600160a01b03163314610a6a5760405162461bcd60e51b81526020600482018190526024820152600080516020611ea28339815191526044820152606401610575565b610a746000611490565b565b6000546001600160a01b03163314610abe5760405162461bcd60e51b81526020600482018190526024820152600080516020611ea28339815191526044820152606401610575565b6001600160a01b038216600081815260036020908152604091829020805460ff19168515159081179091558251938452908301527fb725d7ec39b904aca1b08e66391ea125cdeb3105d865653cf9d0d48e949e6c0d91015b60405180910390a15050565b3360009081526004602052604090205460ff161515600114610b745760405162461bcd60e51b815260206004820152600b60248201526a1b9bdd08185b1b1bddd95960aa1b6044820152606401610575565b6001600160a01b0381811660008181526002602090815260408083208151606081018352905461ffff8116825262010000810490961692810192909252600160b01b90940469ffffffffffffffffffff168185015292516370a0823160e01b81523060048201529091906370a0823190602401602060405180830381865afa158015610c04573d6000803e3d6000fd5b505050506040513d601f19601f82011682018060405250810190610c289190611d0e565b90506000610c35846114ed565b90507f00000000000000000000000000000000000000000000000000000000000000006001600160a01b031663c4de93a58460000151838511610c785784610c7a565b835b6040517fffffffff0000000000000000000000000000000000000000000000000000000060e085901b16815261ffff909216600483015260248201523060448201526064016020604051808303816000875af1158015610cde573d6000803e3d6000fd5b505050506040513d601f19601f82011682018060405250810190610d029190611d0e565b5050505050565b6000546001600160a01b03163314610d515760405162461bcd60e51b81526020600482018190526024820152600080516020611ea28339815191526044820152606401610575565b6040805160608101825261ffff80861682526001600160a01b03808616602080850191825269ffffffffffffffffffff8088168688019081528b851660008181526002909452979092209551865493519251909116600160b01b0275ffffffffffffffffffffffffffffffffffffffffffff9290941662010000027fffffffffffffffffffff000000000000000000000000000000000000000000009093169416939093171791909116179055610e2b907f0000000000000000000000000000000000000000000000000000000000000000600019611689565b604080516001600160a01b03868116825261ffff8616602083015284168183015290517f5c47df77929ae401d171c6f1e18dc38eb66ce08eb8a86180b5ee837d982870949181900360600190a150505050565b6001600160a01b0382811660009081526002602052604081205490916201000090910416610ee05760405162461bcd60e51b815260206004820152600f60248201526e34b73b30b634b2103a37b5b2b724b760891b6044820152606401610575565b60007f00000000000000000000000000000000000000000000000000000000000000006001600160a01b03166350d25bcd6040518163ffffffff1660e01b8152600401602060405180830381865afa158015610f40573d6000803e3d6000fd5b505050506040513d601f19601f82011682018060405250810190610f649190611d0e565b6001600160a01b03808616600090815260026020526040808220549051630d39bbef60e41b815293945090928492620100009092049091169063d39bbef090610fbb90600401602080825260009082015260400190565b602060405180830381865afa158015610fd8573d6000803e3d6000fd5b505050506040513d601f19601f82011682018060405250810190610ffc9190611d0e565b6001600160a01b03871660009081526002602052604090205461103390600160b01b900469ffffffffffffffffffff16600a611e21565b61103d9087611e39565b6110479190611e58565b6110519190611e58565b9050612710600154826110649190611e39565b61106e9190611e58565b6110789082611e7a565b925050505b92915050565b600080546060906001600160a01b031633146110cf5760405162461bcd60e51b81526020600482018190526024820152600080516020611ea28339815191526044820152606401610575565b600080876001600160a01b03168787876040516110ed929190611e91565b60006040518083038185875af1925050503d806000811461112a576040519150601f19603f3d011682016040523d82523d6000602084013e61112f565b606091505b5090999098509650505050505050565b3360009081526004602052604090205460ff1615156001146111915760405162461bcd60e51b815260206004820152600b60248201526a1b9bdd08185b1b1bddd95960aa1b6044820152606401610575565b6111a76001600160a01b03841685600019611689565b6000846001600160a01b031683836040516111c3929190611e91565b6000604051808303816000865af19150503d8060008114611200576040519150601f19603f3d011682016040523d82523d6000602084013e611205565b606091505b50509050806112275760405163fc3116c160e01b815260040160405180910390fd5b610d026001600160a01b038516866000611689565b6000546001600160a01b031633146112845760405162461bcd60e51b81526020600482018190526024820152600080516020611ea28339815191526044820152606401610575565b6112986001600160a01b0384168383611710565b505050565b6000546001600160a01b031633146112e55760405162461bcd60e51b81526020600482018190526024820152600080516020611ea28339815191526044820152606401610575565b6001600160a01b038216600081815260046020908152604091829020805460ff19168515159081179091558251938452908301527f6bc3015c9a91a28a4d0f4084c5fd810b1c70c2a355fd3020592ae24142b3aab09101610b16565b6000546001600160a01b031633146113895760405162461bcd60e51b81526020600482018190526024820152600080516020611ea28339815191526044820152606401610575565b6001600160a01b0381166113ee5760405162461bcd60e51b815260206004820152602660248201527f4f776e61626c653a206e6577206f776e657220697320746865207a65726f206160448201526564647265737360d01b6064820152608401610575565b6113f781611490565b50565b60006040516323b872dd60e01b81526001600160a01b03851660048201526001600160a01b038416602482015282604482015260008060648360008a5af191505061144481611797565b610d025760405162461bcd60e51b815260206004820152601460248201527f5452414e534645525f46524f4d5f4641494c45440000000000000000000000006044820152606401610575565b600080546001600160a01b0383811673ffffffffffffffffffffffffffffffffffffffff19831681178455604051919092169283917f8be0079c531659141344cd1fd0a4f28419497f9722a3daafe3b4186f6b6457e09190a35050565b600080826001600160a01b03166315770f926040518163ffffffff1660e01b8152600401602060405180830381865afa15801561152e573d6000803e3d6000fd5b505050506040513d601f19601f820116820180604052508101906115529190611d0e565b9050600081116115a45760405162461bcd60e51b815260206004820152601360248201527f746f74616c4c69717569646974792069732030000000000000000000000000006044820152606401610575565b6000836001600160a01b0316631e8e51da6040518163ffffffff1660e01b8152600401602060405180830381865afa1580156115e4573d6000803e3d6000fd5b505050506040513d601f19601f820116820180604052508101906116089190611d0e565b905081846001600160a01b03166318160ddd6040518163ffffffff1660e01b8152600401602060405180830381865afa158015611649573d6000803e3d6000fd5b505050506040513d601f19601f8201168201806040525081019061166d9190611d0e565b6116779083611e39565b6116819190611e58565b949350505050565b600060405163095ea7b360e01b81526001600160a01b03841660048201528260248201526000806044836000895af19150506116c481611797565b6109475760405162461bcd60e51b815260206004820152600e60248201527f415050524f56455f4641494c45440000000000000000000000000000000000006044820152606401610575565b600060405163a9059cbb60e01b81526001600160a01b03841660048201528260248201526000806044836000895af191505061174b81611797565b6109475760405162461bcd60e51b815260206004820152600f60248201527f5452414e534645525f4641494c454400000000000000000000000000000000006044820152606401610575565b60003d826117a957806000803e806000fd5b80602081146117c15780156117d257600092506117d7565b816000803e600051151592506117d7565b600192505b5050919050565b6001600160a01b03811681146113f757600080fd5b60008060006060848603121561180857600080fd5b8335611813816117de565b925060208401359150604084013561182a816117de565b809150509250925092565b60006020828403121561184757600080fd5b8135611852816117de565b9392505050565b803561ffff8116811461186b57600080fd5b919050565b634e487b7160e01b600052604160045260246000fd5b6040516060810167ffffffffffffffff811182821017156118a9576118a9611870565b60405290565b604051601f8201601f1916810167ffffffffffffffff811182821017156118d8576118d8611870565b604052919050565b600080600080600060a086880312156118f857600080fd5b61190186611859565b945060208087013594506040870135935060608701359250608087013567ffffffffffffffff8082111561193457600080fd5b908801906060828b03121561194857600080fd5b611950611886565b82358152838301358482015260408301358281111561196e57600080fd5b8084019350508a601f84011261198357600080fd5b82358281111561199557611995611870565b6119a7601f8201601f191686016118af565b92508083528b858286010111156119bd57600080fd5b8085850186850137600085828501015250816040820152809450505050509295509295909350565b600080604083850312156119f857600080fd5b8235611a03816117de565b946020939093013593505050565b600060208284031215611a2357600080fd5b5035919050565b80151581146113f757600080fd5b60008060408385031215611a4b57600080fd5b8235611a56816117de565b91506020830135611a6681611a2a565b809150509250929050565b60008060008060808587031215611a8757600080fd5b8435611a92816117de565b9350611aa060208601611859565b92506040850135611ab0816117de565b9150606085013569ffffffffffffffffffff81168114611acf57600080fd5b939692955090935050565b60008083601f840112611aec57600080fd5b50813567ffffffffffffffff811115611b0457600080fd5b602083019150836020828501011115611b1c57600080fd5b9250929050565b60008060008060608587031215611b3957600080fd5b8435611b44816117de565b935060208501359250604085013567ffffffffffffffff811115611b6757600080fd5b611b7387828801611ada565b95989497509550505050565b6000815180845260005b81811015611ba557602081850181015186830182015201611b89565b81811115611bb7576000602083870101525b50601f01601f19169290920160200192915050565b82151581526040602082015260006116816040830184611b7f565b60008060008060608587031215611bfd57600080fd5b8435611c08816117de565b93506020850135611c18816117de565b9250604085013567ffffffffffffffff811115611b6757600080fd5b600080600060608486031215611c4957600080fd5b8335611c54816117de565b92506020840135611c64816117de565b929592945050506040919091013590565b600060208284031215611c8757600080fd5b815161185281611a2a565b61ffff881681528660208201528560408201526001600160a01b038516606082015283608082015260e060a08201526000611cd060e0830185611b7f565b82810360c08401528351815260208401516020820152604084015160606040830152611cff6060830182611b7f565b9b9a5050505050505050505050565b600060208284031215611d2057600080fd5b5051919050565b634e487b7160e01b600052601160045260246000fd5b600181815b80851115611d78578160001904821115611d5e57611d5e611d27565b80851615611d6b57918102915b93841c9390800290611d42565b509250929050565b600082611d8f5750600161107d565b81611d9c5750600061107d565b8160018114611db25760028114611dbc57611dd8565b600191505061107d565b60ff841115611dcd57611dcd611d27565b50506001821b61107d565b5060208310610133831016604e8410600b8410161715611dfb575081810a61107d565b611e058383611d3d565b8060001904821115611e1957611e19611d27565b029392505050565b600061185269ffffffffffffffffffff841683611d80565b6000816000190483118215151615611e5357611e53611d27565b500290565b600082611e7557634e487b7160e01b600052601260045260246000fd5b500490565b600082821015611e8c57611e8c611d27565b500390565b818382376000910190815291905056fe4f776e61626c653a2063616c6c6572206973206e6f7420746865206f776e6572a264697066735822122025f35c328567ecf3ce7e83c56cee4edf08097a00bcbacf366daabde6d9d6d02c64736f6c634300080a0033",
  "devdoc": {
    "kind": "dev",
    "methods": {
      "owner()": {
        "details": "Returns the address of the current owner."
      },
      "redeemLocal(uint16,uint256,uint256,uint256,(uint256,uint256,bytes))": {
        "params": {
          "amount": "quantity of LP tokens to redeem",
          "dstChainId": "the chainId to remove liquidity",
          "dstPoolId": "the destination poolId",
          "srcPoolId": "the source poolId",
          "txParams": "adpater parameters https://layerzero.gitbook.io/docs/technical-reference/mainnet/supported-chain-ids"
        }
      },
      "renounceOwnership()": {
        "details": "Leaves the contract without owner. It will not be possible to call `onlyOwner` functions anymore. Can only be called by the current owner. NOTE: Renouncing ownership will leave the contract without an owner, thereby removing any functionality that is only available to the owner."
      },
      "swapOnAggregator(address,address,bytes)": {
        "details": "Swap internal tokens using an aggregator, for example, 1inch, 0x."
      },
      "transferOwnership(address)": {
        "details": "Transfers ownership of the contract to a new account (`newOwner`). Can only be called by the current owner."
      }
    },
    "version": 1
  },
  "userdoc": {
    "kind": "user",
    "methods": {},
    "version": 1
  },
  "storageLayout": {
    "storage": [
      {
        "astId": 7,
        "contract": "contracts/stargate/StargateLpMimPool.sol:StargateLpMimPool",
        "label": "_owner",
        "offset": 0,
        "slot": "0",
        "type": "t_address"
      },
      {
        "astId": 14378,
        "contract": "contracts/stargate/StargateLpMimPool.sol:StargateLpMimPool",
        "label": "feeBps",
        "offset": 0,
        "slot": "1",
        "type": "t_uint256"
      },
      {
        "astId": 14384,
        "contract": "contracts/stargate/StargateLpMimPool.sol:StargateLpMimPool",
        "label": "pools",
        "offset": 0,
        "slot": "2",
        "type": "t_mapping(t_contract(IStargatePool)4921,t_struct(PoolInfo)14367_storage)"
      },
      {
        "astId": 14388,
        "contract": "contracts/stargate/StargateLpMimPool.sol:StargateLpMimPool",
        "label": "allowedRedeemers",
        "offset": 0,
        "slot": "3",
        "type": "t_mapping(t_address,t_bool)"
      },
      {
        "astId": 14392,
        "contract": "contracts/stargate/StargateLpMimPool.sol:StargateLpMimPool",
        "label": "allowedExecutors",
        "offset": 0,
        "slot": "4",
        "type": "t_mapping(t_address,t_bool)"
      }
    ],
    "types": {
      "t_address": {
        "encoding": "inplace",
        "label": "address",
        "numberOfBytes": "20"
      },
      "t_bool": {
        "encoding": "inplace",
        "label": "bool",
        "numberOfBytes": "1"
      },
      "t_contract(IOracle)4270": {
        "encoding": "inplace",
        "label": "contract IOracle",
        "numberOfBytes": "20"
      },
      "t_contract(IStargatePool)4921": {
        "encoding": "inplace",
        "label": "contract IStargatePool",
        "numberOfBytes": "20"
      },
      "t_mapping(t_address,t_bool)": {
        "encoding": "mapping",
        "key": "t_address",
        "label": "mapping(address => bool)",
        "numberOfBytes": "32",
        "value": "t_bool"
      },
      "t_mapping(t_contract(IStargatePool)4921,t_struct(PoolInfo)14367_storage)": {
        "encoding": "mapping",
        "key": "t_contract(IStargatePool)4921",
        "label": "mapping(contract IStargatePool => struct StargateLpMimPool.PoolInfo)",
        "numberOfBytes": "32",
        "value": "t_struct(PoolInfo)14367_storage"
      },
      "t_struct(PoolInfo)14367_storage": {
        "encoding": "inplace",
        "label": "struct StargateLpMimPool.PoolInfo",
        "members": [
          {
            "astId": 14361,
            "contract": "contracts/stargate/StargateLpMimPool.sol:StargateLpMimPool",
            "label": "poolId",
            "offset": 0,
            "slot": "0",
            "type": "t_uint16"
          },
          {
            "astId": 14364,
            "contract": "contracts/stargate/StargateLpMimPool.sol:StargateLpMimPool",
            "label": "oracle",
            "offset": 2,
            "slot": "0",
            "type": "t_contract(IOracle)4270"
          },
          {
            "astId": 14366,
            "contract": "contracts/stargate/StargateLpMimPool.sol:StargateLpMimPool",
            "label": "oracleDecimalsMultipler",
            "offset": 22,
            "slot": "0",
            "type": "t_uint80"
          }
        ],
        "numberOfBytes": "32"
      },
      "t_uint16": {
        "encoding": "inplace",
        "label": "uint16",
        "numberOfBytes": "2"
      },
      "t_uint256": {
        "encoding": "inplace",
        "label": "uint256",
        "numberOfBytes": "32"
      },
      "t_uint80": {
        "encoding": "inplace",
        "label": "uint80",
        "numberOfBytes": "10"
      }
    }
  }
}