{
  "address": "0xFc2796c47063D6FCb98006081778c7b45b13A4c0",
  "abi": [
    {
      "inputs": [],
      "stateMutability": "nonpayable",
      "type": "constructor"
    },
    {
      "inputs": [],
      "name": "NotNoon",
      "type": "error"
    },
    {
      "inputs": [],
      "name": "NotPastNoon",
      "type": "error"
    },
    {
      "inputs": [
        {
          "internalType": "uint256",
          "name": "",
          "type": "uint256"
        }
      ],
      "name": "NotUpdated",
      "type": "error"
    },
    {
      "anonymous": false,
      "inputs": [
        {
          "indexed": true,
          "internalType": "address",
          "name": "recipient",
          "type": "address"
        },
        {
          "indexed": false,
          "internalType": "uint256",
          "name": "chainId",
          "type": "uint256"
        },
        {
          "indexed": false,
          "internalType": "uint256",
          "name": "chainIdLZ",
          "type": "uint256"
        }
      ],
      "name": "LogAddRecipient",
      "type": "event"
    },
    {
      "anonymous": false,
      "inputs": [
        {
          "indexed": true,
          "internalType": "address",
          "name": "recipient",
          "type": "address"
        },
        {
          "indexed": false,
          "internalType": "uint256",
          "name": "amount",
          "type": "uint256"
        },
        {
          "indexed": false,
          "internalType": "uint256",
          "name": "chainId",
          "type": "uint256"
        }
      ],
      "name": "LogBridgeToRecipient",
      "type": "event"
    },
    {
      "anonymous": false,
      "inputs": [
        {
          "indexed": false,
          "internalType": "address",
          "name": "_purchaser",
          "type": "address"
        },
        {
          "indexed": false,
          "internalType": "address",
          "name": "_treasury",
          "type": "address"
        },
        {
          "indexed": false,
          "internalType": "uint256",
          "name": "_treasuryPercentage",
          "type": "uint256"
        }
      ],
      "name": "LogChangePurchaser",
      "type": "event"
    },
    {
      "anonymous": false,
      "inputs": [
        {
          "indexed": true,
          "internalType": "address",
          "name": "operator",
          "type": "address"
        },
        {
          "indexed": false,
          "internalType": "bool",
          "name": "status",
          "type": "bool"
        }
      ],
      "name": "LogSetOperator",
      "type": "event"
    },
    {
      "anonymous": false,
      "inputs": [
        {
          "indexed": false,
          "internalType": "uint256",
          "name": "chainIdLZ",
          "type": "uint256"
        },
        {
          "indexed": true,
          "internalType": "address",
          "name": "reporter",
          "type": "address"
        }
      ],
      "name": "LogSetReporter",
      "type": "event"
    },
    {
      "anonymous": false,
      "inputs": [
        {
          "indexed": false,
          "internalType": "uint16",
          "name": "srcChainId",
          "type": "uint16"
        },
        {
          "indexed": true,
          "internalType": "address",
          "name": "fromAddress",
          "type": "address"
        },
        {
          "indexed": false,
          "internalType": "uint32",
          "name": "timestamp",
          "type": "uint32"
        },
        {
          "indexed": false,
          "internalType": "uint128",
          "name": "amount",
          "type": "uint128"
        }
      ],
      "name": "LogSpellStakedReceived",
      "type": "event"
    },
    {
      "anonymous": false,
      "inputs": [
        {
          "indexed": true,
          "internalType": "address",
          "name": "previousOwner",
          "type": "address"
        },
        {
          "indexed": true,
          "internalType": "address",
          "name": "newOwner",
          "type": "address"
        }
      ],
      "name": "OwnershipTransferred",
      "type": "event"
    },
    {
      "inputs": [
        {
          "internalType": "address",
          "name": "recipient",
          "type": "address"
        },
        {
          "internalType": "uint256",
          "name": "chainId",
          "type": "uint256"
        },
        {
          "internalType": "uint256",
          "name": "chainIdLZ",
          "type": "uint256"
        }
      ],
      "name": "addMSpellRecipient",
      "outputs": [],
      "stateMutability": "nonpayable",
      "type": "function"
    },
    {
      "inputs": [
        {
          "internalType": "address",
          "name": "reporter",
          "type": "address"
        },
        {
          "internalType": "uint256",
          "name": "chainIdLZ",
          "type": "uint256"
        }
      ],
      "name": "addReporter",
      "outputs": [],
      "stateMutability": "nonpayable",
      "type": "function"
    },
    {
      "inputs": [],
      "name": "bridgeMim",
      "outputs": [],
      "stateMutability": "nonpayable",
      "type": "function"
    },
    {
      "inputs": [
        {
          "internalType": "address",
          "name": "_purchaser",
          "type": "address"
        },
        {
          "internalType": "uint256",
          "name": "_treasuryPercentage",
          "type": "uint256"
        }
      ],
      "name": "changePurchaser",
      "outputs": [],
      "stateMutability": "nonpayable",
      "type": "function"
    },
    {
      "inputs": [],
      "name": "claimOwnership",
      "outputs": [],
      "stateMutability": "nonpayable",
      "type": "function"
    },
    {
      "inputs": [
        {
          "internalType": "uint256",
          "name": "",
          "type": "uint256"
        }
      ],
      "name": "isActiveChain",
      "outputs": [
        {
          "internalType": "uint8",
          "name": "isActive",
          "type": "uint8"
        },
        {
          "internalType": "uint32",
          "name": "position",
          "type": "uint32"
        }
      ],
      "stateMutability": "view",
      "type": "function"
    },
    {
      "inputs": [
        {
          "internalType": "address",
          "name": "",
          "type": "address"
        }
      ],
      "name": "isOperator",
      "outputs": [
        {
          "internalType": "bool",
          "name": "",
          "type": "bool"
        }
      ],
      "stateMutability": "view",
      "type": "function"
    },
    {
      "inputs": [
        {
          "internalType": "uint16",
          "name": "_srcChainId",
          "type": "uint16"
        },
        {
          "internalType": "bytes",
          "name": "_srcAddress",
          "type": "bytes"
        },
        {
          "internalType": "uint64",
          "name": "",
          "type": "uint64"
        },
        {
          "internalType": "bytes",
          "name": "_payload",
          "type": "bytes"
        }
      ],
      "name": "lzReceive",
      "outputs": [],
      "stateMutability": "nonpayable",
      "type": "function"
    },
    {
      "inputs": [
        {
          "internalType": "uint256",
          "name": "",
          "type": "uint256"
        }
      ],
      "name": "mSpellReporter",
      "outputs": [
        {
          "internalType": "address",
          "name": "",
          "type": "address"
        }
      ],
      "stateMutability": "view",
      "type": "function"
    },
    {
      "inputs": [],
      "name": "owner",
      "outputs": [
        {
          "internalType": "address",
          "name": "",
          "type": "address"
        }
      ],
      "stateMutability": "view",
      "type": "function"
    },
    {
      "inputs": [],
      "name": "pendingOwner",
      "outputs": [
        {
          "internalType": "address",
          "name": "",
          "type": "address"
        }
      ],
      "stateMutability": "view",
      "type": "function"
    },
    {
      "inputs": [
        {
          "internalType": "uint256",
          "name": "",
          "type": "uint256"
        }
      ],
      "name": "recipients",
      "outputs": [
        {
          "internalType": "address",
          "name": "recipient",
          "type": "address"
        },
        {
          "internalType": "uint32",
          "name": "chainId",
          "type": "uint32"
        },
        {
          "internalType": "uint32",
          "name": "chainIdLZ",
          "type": "uint32"
        },
        {
          "internalType": "uint32",
          "name": "lastUpdated",
          "type": "uint32"
        },
        {
          "internalType": "uint128",
          "name": "amountStaked",
          "type": "uint128"
        }
      ],
      "stateMutability": "view",
      "type": "function"
    },
    {
      "inputs": [
        {
          "internalType": "address",
          "name": "operator",
          "type": "address"
        },
        {
          "internalType": "bool",
          "name": "status",
          "type": "bool"
        }
      ],
      "name": "setOperator",
      "outputs": [],
      "stateMutability": "nonpayable",
      "type": "function"
    },
    {
      "inputs": [],
      "name": "sspellBuyBack",
      "outputs": [
        {
          "internalType": "address",
          "name": "",
          "type": "address"
        }
      ],
      "stateMutability": "view",
      "type": "function"
    },
    {
      "inputs": [
        {
          "internalType": "address",
          "name": "newOwner",
          "type": "address"
        },
        {
          "internalType": "bool",
          "name": "direct",
          "type": "bool"
        },
        {
          "internalType": "bool",
          "name": "renounce",
          "type": "bool"
        }
      ],
      "name": "transferOwnership",
      "outputs": [],
      "stateMutability": "nonpayable",
      "type": "function"
    },
    {
      "inputs": [],
      "name": "treasury",
      "outputs": [
        {
          "internalType": "address",
          "name": "",
          "type": "address"
        }
      ],
      "stateMutability": "view",
      "type": "function"
    },
    {
      "inputs": [],
      "name": "treasuryPercentage",
      "outputs": [
        {
          "internalType": "uint256",
          "name": "",
          "type": "uint256"
        }
      ],
      "stateMutability": "view",
      "type": "function"
    }
  ],
  "transactionHash": "0x58a8f0ceabdba42a1085ce2b12d50ece76033dc3f319c556ef1c876130dcfac1",
  "args": [],
  "numDeployments": 1,
  "solcInputHash": "0ce29aa255e885fcd529f1bc49b70f71",
  "bytecode": "0x6080604052600280546001600160a01b03191673fddfe525054efaad204600d00ca86adb1cc2ea8a179055601960035534801561003b57600080fd5b50600080546001600160a01b0319163390811782556040519091907f8be0079c531659141344cd1fd0a4f28419497f9722a3daafe3b4186f6b6457e0908290a360405163095ea7b360e01b8152736b7a87899490ece95443e979ca9485cbe7e71522600482015260001960248201527399d8a9c45b2eca8864373a26d1459e3dff1e17f39063095ea7b3906044016020604051808303816000875af11580156100e8573d6000803e3d6000fd5b505050506040513d601f19601f8201168201806040525081019061010c9190610112565b5061013b565b60006020828403121561012457600080fd5b8151801515811461013457600080fd5b9392505050565b611a538061014a6000396000f3fe608060405234801561001057600080fd5b506004361061011a5760003560e01c80636d70f7ae116100b2578063a5d0be7111610081578063e30c397811610066578063e30c3978146102a5578063e909e181146102b8578063ee3cd721146102e157600080fd5b8063a5d0be7114610238578063d1bc76a11461024b57600080fd5b80636d70f7ae146101d35780637ab560831461020657806385bffc841461021d5780638da5cb5b1461022557600080fd5b8063558a7297116100ee578063558a72971461016257806359030dbb146101755780635e4523ae1461018857806361d027b3146101b857600080fd5b80621d35671461011f578063078dfbe71461013457806336df3eae146101475780634e71e0c81461015a575b600080fd5b61013261012d36600461156a565b61032f565b005b610132610142366004611699565b610499565b6101326101553660046116e2565b6105e5565b610132610878565b610132610170366004611715565b610935565b61013261018336600461174c565b6109ef565b60025461019b906001600160a01b031681565b6040516001600160a01b0390911681526020015b60405180910390f35b61019b73df2c270f610dc35d8ffda5b453e74db5471e126b81565b6101f66101e1366004611776565b60076020526000908152604090205460ff1681565b60405190151581526020016101af565b61020f60035481565b6040519081526020016101af565b610132610aa4565b60005461019b906001600160a01b031681565b61013261024636600461174c565b611222565b61025e610259366004611798565b6112f6565b604080516001600160a01b03909616865263ffffffff9485166020870152928416928501929092529190911660608301526001600160801b0316608082015260a0016101af565b60015461019b906001600160a01b031681565b61019b6102c6366004611798565b6006602052600090815260409020546001600160a01b031681565b6103116102ef366004611798565b60056020526000908152604090205460ff811690610100900463ffffffff1682565b6040805160ff909316835263ffffffff9091166020830152016101af565b337366a71dcef29a0ffbdbe3c6a460a3b5bc225cd6751461034f57600080fd5b61ffff85166000908152600560205260408120546004805461010090920463ffffffff16929183908110610385576103856117b1565b6000918252602080832060148a015161ffff8c1685526006909252604090932054600290920290920192506001600160a01b038083169116146103c757600080fd5b6000806103d6868801886117c7565b6001860180546001600160801b0383166fffffffffffffffffffffffffffffffff19909116179055855463ffffffff8316600160e01b026001600160e01b0390911617865560405191935091506001600160a01b038416907fe0d8ef8074a6e02ddc0b4a702390e047ac21fd4c63687002b6846bb780287a5690610485908d908690869061ffff93909316835263ffffffff9190911660208301526001600160801b0316604082015260600190565b60405180910390a250505050505050505050565b6000546001600160a01b031633146104f85760405162461bcd60e51b815260206004820181905260248201527f4f776e61626c653a2063616c6c6572206973206e6f7420746865206f776e657260448201526064015b60405180910390fd5b81156105c3576001600160a01b0383161515806105125750805b61055e5760405162461bcd60e51b815260206004820152601560248201527f4f776e61626c653a207a65726f2061646472657373000000000000000000000060448201526064016104ef565b600080546040516001600160a01b03808716939216917f8be0079c531659141344cd1fd0a4f28419497f9722a3daafe3b4186f6b6457e091a3600080546001600160a01b0385166001600160a01b031991821617909155600180549091169055505050565b600180546001600160a01b0385166001600160a01b0319909116179055505050565b6000546001600160a01b0316331461063f5760405162461bcd60e51b815260206004820181905260248201527f4f776e61626c653a2063616c6c6572206973206e6f7420746865206f776e657260448201526064016104ef565b60008181526005602052604090205460ff161561069e5760405162461bcd60e51b815260206004820152601560248201527f636861696e496420616c7265616479206164646564000000000000000000000060448201526064016104ef565b60048054604080518082018252600180825263ffffffff808516602080850191825260008981526005825286812095518654935185166101000264ffffffffff1990941660ff919091161792909217909455845160a0810186526001600160a01b03808c168083528b85169683019687528a851683890190815260608401858152608085018681528c549889018d559b909552925160029096027f8a35acfbc15ff81a39ae7d344fd709f28e8600b4aa8c65c6b64bfe7fe36bd19b810180549851945195518716600160e01b026001600160e01b03968816600160c01b029690961677ffffffffffffffffffffffffffffffffffffffffffffffff95909716600160a01b027fffffffffffffffff000000000000000000000000000000000000000000000000909916979093169690961796909617919091169290921717905593517f8a35acfbc15ff81a39ae7d344fd709f28e8600b4aa8c65c6b64bfe7fe36bd19c90940180546001600160801b03959095166fffffffffffffffffffffffffffffffff1990951694909417909355519091907fb64102a4611dd2eb58cfdb000b0fdd03770ae5c3220bd030b06b9a65004af28f9061086a9086908690918252602082015260400190565b60405180910390a250505050565b6001546001600160a01b03163381146108d35760405162461bcd60e51b815260206004820181905260248201527f4f776e61626c653a2063616c6c657220213d2070656e64696e67206f776e657260448201526064016104ef565b600080546040516001600160a01b03808516939216917f8be0079c531659141344cd1fd0a4f28419497f9722a3daafe3b4186f6b6457e091a3600080546001600160a01b039092166001600160a01b0319928316179055600180549091169055565b6000546001600160a01b0316331461098f5760405162461bcd60e51b815260206004820181905260248201527f4f776e61626c653a2063616c6c6572206973206e6f7420746865206f776e657260448201526064016104ef565b6001600160a01b038216600081815260076020908152604091829020805460ff191685151590811790915591519182527f93e5d6cb35b685fc6ad29826c16b672bdafd1df5b405459f5a33039c94f14dff91015b60405180910390a25050565b6000546001600160a01b03163314610a495760405162461bcd60e51b815260206004820181905260248201527f4f776e61626c653a2063616c6c6572206973206e6f7420746865206f776e657260448201526064016104ef565b60008181526006602090815260409182902080546001600160a01b0319166001600160a01b03861690811790915591518381527f8419ea90414db87493e1e23bbc2be8cc81cb16d1e3190f150fc86773930a632291016109e3565b6040516370a0823160e01b815230600482015260009081907399d8a9c45b2eca8864373a26d1459e3dff1e17f3906370a0823190602401602060405180830381865afa158015610af8573d6000803e3d6000fd5b505050506040513d601f19601f82011682018060405250810190610b1c919061180a565b90506000606460035483610b309190611839565b610b3a919061186e565b610b449083611882565b90506000610b514261135b565b6040516370a0823160e01b81527326fa3fffb6efe8c1e69103acb4044c26b9a106a9600482015290915060009073090185f2135308bad17527004364ebcc2d37e5f6906370a0823190602401602060405180830381865afa158015610bba573d6000803e3d6000fd5b505050506040513d601f19601f82011682018060405250810190610bde919061180a565b600454909150600090815b81811015610dcf5760048181548110610c0457610c046117b1565b6000918252602090912060029091020154600160a01b900463ffffffff16600114610cf55760048181548110610c3c57610c3c6117b1565b6000918252602090912060016002909202010154610c63906001600160801b031689611899565b975084610c9f60048381548110610c7c57610c7c6117b1565b6000918252602090912060029091020154600160e01b900463ffffffff1661135b565b14610cf05760048181548110610cb757610cb76117b1565b600091825260209091206002909102015460405163171e87a760e21b8152600160a01b90910463ffffffff1660048201526024016104ef565b610dbd565b73090185f2135308bad17527004364ebcc2d37e5f66001600160a01b03166370a0823160048381548110610d2b57610d2b6117b1565b600091825260209091206002909102015460405160e083901b6001600160e01b03191681526001600160a01b039091166004820152602401602060405180830381865afa158015610d80573d6000803e3d6000fd5b505050506040513d601f19601f82011682018060405250810190610da4919061180a565b9250610db08484611899565b610dba9089611899565b97505b80610dc7816118b1565b915050610be9565b5060005b818110156112185760048181548110610dee57610dee6117b1565b6000918252602090912060029091020154600160a01b900463ffffffff166001146110165760008860048381548110610e2957610e296117b1565b6000918252602090912060016002909202010154610e50906001600160801b031689611839565b610e5a919061186e565b9050801561101057736b7a87899490ece95443e979ca9485cbe7e715226001600160a01b031663edbdf5e273bbc4a8d076f4b1888fec42581b6fc58d242cf2d560048581548110610ead57610ead6117b1565b906000526020600020906002020160000160009054906101000a90046001600160a01b03168460048781548110610ee657610ee66117b1565b600091825260209091206002909102015460405160e086901b6001600160e01b03191681526001600160a01b0394851660048201529390921660248401526044830152600160a01b900463ffffffff166064820152608401600060405180830381600087803b158015610f5857600080fd5b505af1158015610f6c573d6000803e3d6000fd5b5050505060048281548110610f8357610f836117b1565b6000918252602090912060029091020154600480546001600160a01b03909216917fceaf82a0ff5bb3694b4434c66eff6741465c1a502542e441113e2f554cfe715691849186908110610fd857610fd86117b1565b60009182526020918290206002909102015460408051938452600160a01b90910463ffffffff16918301919091520160405180910390a25b50611206565b6000886110238589611839565b61102d919061186e565b905060008961103c878a611839565b611046919061186e565b90507399d8a9c45b2eca8864373a26d1459e3dff1e17f36001600160a01b031663a9059cbb6004858154811061107e5761107e6117b1565b600091825260209091206002909102015460405160e083901b6001600160e01b03191681526001600160a01b039091166004820152602481018590526044016020604051808303816000875af11580156110dc573d6000803e3d6000fd5b505050506040513d601f19601f8201168201806040525081019061110091906118cc565b5060048381548110611114576111146117b1565b60009182526020822060029091020154604080516379b6053960e11b815290516001600160a01b039092169263f36c0a729260048084019382900301818387803b15801561116157600080fd5b505af1158015611175573d6000803e3d6000fd5b505060025460405163a9059cbb60e01b81526001600160a01b039091166004820152602481018490527399d8a9c45b2eca8864373a26d1459e3dff1e17f3925063a9059cbb91506044016020604051808303816000875af11580156111de573d6000803e3d6000fd5b505050506040513d601f19601f8201168201806040525081019061120291906118cc565b5050505b80611210816118b1565b915050610dd3565b5050505050505050565b6000546001600160a01b0316331461127c5760405162461bcd60e51b815260206004820181905260248201527f4f776e61626c653a2063616c6c6572206973206e6f7420746865206f776e657260448201526064016104ef565b600280546001600160a01b0319166001600160a01b03841690811790915560038290556040805191825273df2c270f610dc35d8ffda5b453e74db5471e126b602083015281018290527fe56c270b94c3acf065cbe14b25675de866cd9381a298b6d30d7c5526b317cbac9060600160405180910390a15050565b6004818154811061130657600080fd5b6000918252602090912060029091020180546001909101546001600160a01b038216925063ffffffff600160a01b8304811692600160c01b8104821692600160e01b909104909116906001600160801b031685565b600061137261136d620151808461186e565b61137a565b949350505050565b60008080838162253d8c6113918362010bd96118e9565b61139b91906118e9565b9050600062023ab16113ae836004611929565b6113b891906119b0565b905060046113c98262023ab1611929565b6113d49060036118e9565b6113de91906119b0565b6113e890836119de565b9150600062164b096113fb8460016118e9565b61140790610fa0611929565b61141191906119b0565b90506004611421826105b5611929565b61142b91906119b0565b61143590846119de565b61144090601f6118e9565b9250600061098f611452856050611929565b61145c91906119b0565b90506000605061146e8361098f611929565b61147891906119b0565b61148290866119de565b905061148f600b836119b0565b945061149c85600c611929565b6114a78360026118e9565b6114b191906119de565b915084836114c06031876119de565b6114cb906064611929565b6114d591906118e9565b6114df91906118e9565b9a919950975095505050505050565b634e487b7160e01b600052604160045260246000fd5b803567ffffffffffffffff8116811461151c57600080fd5b919050565b60008083601f84011261153357600080fd5b50813567ffffffffffffffff81111561154b57600080fd5b60208301915083602082850101111561156357600080fd5b9250929050565b60008060008060006080868803121561158257600080fd5b853561ffff8116811461159457600080fd5b9450602086013567ffffffffffffffff808211156115b157600080fd5b818801915088601f8301126115c557600080fd5b8135818111156115d7576115d76114ee565b604051601f8201601f19908116603f011681019083821181831017156115ff576115ff6114ee565b816040528281528b602084870101111561161857600080fd5b8260208601602083013760006020848301015280985050505061163d60408901611504565b9450606088013591508082111561165357600080fd5b5061166088828901611521565b969995985093965092949392505050565b80356001600160a01b038116811461151c57600080fd5b801515811461169657600080fd5b50565b6000806000606084860312156116ae57600080fd5b6116b784611671565b925060208401356116c781611688565b915060408401356116d781611688565b809150509250925092565b6000806000606084860312156116f757600080fd5b61170084611671565b95602085013595506040909401359392505050565b6000806040838503121561172857600080fd5b61173183611671565b9150602083013561174181611688565b809150509250929050565b6000806040838503121561175f57600080fd5b61176883611671565b946020939093013593505050565b60006020828403121561178857600080fd5b61179182611671565b9392505050565b6000602082840312156117aa57600080fd5b5035919050565b634e487b7160e01b600052603260045260246000fd5b600080604083850312156117da57600080fd5b823563ffffffff811681146117ee57600080fd5b915060208301356001600160801b038116811461174157600080fd5b60006020828403121561181c57600080fd5b5051919050565b634e487b7160e01b600052601160045260246000fd5b600081600019048311821515161561185357611853611823565b500290565b634e487b7160e01b600052601260045260246000fd5b60008261187d5761187d611858565b500490565b60008282101561189457611894611823565b500390565b600082198211156118ac576118ac611823565b500190565b60006000198214156118c5576118c5611823565b5060010190565b6000602082840312156118de57600080fd5b815161179181611688565b6000808212826001600160ff1b030384138115161561190a5761190a611823565b600160ff1b839003841281161561192357611923611823565b50500190565b60006001600160ff1b0360008413600084138583048511828216161561195157611951611823565b600160ff1b600087128281168783058912161561197057611970611823565b6000871292508782058712848416161561198c5761198c611823565b878505871281841616156119a2576119a2611823565b505050929093029392505050565b6000826119bf576119bf611858565b600160ff1b8214600019841416156119d9576119d9611823565b500590565b60008083128015600160ff1b8501841216156119fc576119fc611823565b836001600160ff1b03018313811615611a1757611a17611823565b5050039056fea2646970667358221220085c18a1f9f204b6abbee12ac8c6b026f77b58eae199bb1976e114c0681b640364736f6c634300080a0033",
  "devdoc": {
    "kind": "dev",
    "methods": {
      "transferOwnership(address,bool,bool)": {
        "params": {
          "direct": "True if `newOwner` should be set immediately. False if `newOwner` needs to use `claimOwnership`.",
          "newOwner": "Address of the new owner.",
          "renounce": "Allows the `newOwner` to be `address(0)` if `direct` and `renounce` is True. Has no effect otherwise."
        }
      }
    },
    "version": 1
  },
  "userdoc": {
    "events": {
      "LogSetOperator(address,bool)": {
        "notice": "EVENTS"
      }
    },
    "kind": "user",
    "methods": {
      "claimOwnership()": {
        "notice": "Needs to be called by `pendingOwner` to claim ownership."
      },
      "transferOwnership(address,bool,bool)": {
        "notice": "Transfers ownership to `newOwner`. Either directly or claimable by the new pending owner. Can only be invoked by the current `owner`."
      }
    },
    "version": 1
  },
  "storageLayout": {
    "storage": [
      {
        "astId": 6495,
        "contract": "contracts/mspell/mSpellSenderManual.sol:mSpellSenderManual",
        "label": "owner",
        "offset": 0,
        "slot": "0",
        "type": "t_address"
      },
      {
        "astId": 6497,
        "contract": "contracts/mspell/mSpellSenderManual.sol:mSpellSenderManual",
        "label": "pendingOwner",
        "offset": 0,
        "slot": "1",
        "type": "t_address"
      },
      {
        "astId": 11942,
        "contract": "contracts/mspell/mSpellSenderManual.sol:mSpellSenderManual",
        "label": "sspellBuyBack",
        "offset": 0,
        "slot": "2",
        "type": "t_address"
      },
      {
        "astId": 11948,
        "contract": "contracts/mspell/mSpellSenderManual.sol:mSpellSenderManual",
        "label": "treasuryPercentage",
        "offset": 0,
        "slot": "3",
        "type": "t_uint256"
      },
      {
        "astId": 11971,
        "contract": "contracts/mspell/mSpellSenderManual.sol:mSpellSenderManual",
        "label": "recipients",
        "offset": 0,
        "slot": "4",
        "type": "t_array(t_struct(MSpellRecipients)11962_storage)dyn_storage"
      },
      {
        "astId": 11976,
        "contract": "contracts/mspell/mSpellSenderManual.sol:mSpellSenderManual",
        "label": "isActiveChain",
        "offset": 0,
        "slot": "5",
        "type": "t_mapping(t_uint256,t_struct(ActiveChain)11967_storage)"
      },
      {
        "astId": 11980,
        "contract": "contracts/mspell/mSpellSenderManual.sol:mSpellSenderManual",
        "label": "mSpellReporter",
        "offset": 0,
        "slot": "6",
        "type": "t_mapping(t_uint256,t_address)"
      },
      {
        "astId": 11984,
        "contract": "contracts/mspell/mSpellSenderManual.sol:mSpellSenderManual",
        "label": "isOperator",
        "offset": 0,
        "slot": "7",
        "type": "t_mapping(t_address,t_bool)"
      }
    ],
    "types": {
      "t_address": {
        "encoding": "inplace",
        "label": "address",
        "numberOfBytes": "20"
      },
      "t_array(t_struct(MSpellRecipients)11962_storage)dyn_storage": {
        "base": "t_struct(MSpellRecipients)11962_storage",
        "encoding": "dynamic_array",
        "label": "struct mSpellSenderManual.MSpellRecipients[]",
        "numberOfBytes": "32"
      },
      "t_bool": {
        "encoding": "inplace",
        "label": "bool",
        "numberOfBytes": "1"
      },
      "t_mapping(t_address,t_bool)": {
        "encoding": "mapping",
        "key": "t_address",
        "label": "mapping(address => bool)",
        "numberOfBytes": "32",
        "value": "t_bool"
      },
      "t_mapping(t_uint256,t_address)": {
        "encoding": "mapping",
        "key": "t_uint256",
        "label": "mapping(uint256 => address)",
        "numberOfBytes": "32",
        "value": "t_address"
      },
      "t_mapping(t_uint256,t_struct(ActiveChain)11967_storage)": {
        "encoding": "mapping",
        "key": "t_uint256",
        "label": "mapping(uint256 => struct mSpellSenderManual.ActiveChain)",
        "numberOfBytes": "32",
        "value": "t_struct(ActiveChain)11967_storage"
      },
      "t_struct(ActiveChain)11967_storage": {
        "encoding": "inplace",
        "label": "struct mSpellSenderManual.ActiveChain",
        "members": [
          {
            "astId": 11964,
            "contract": "contracts/mspell/mSpellSenderManual.sol:mSpellSenderManual",
            "label": "isActive",
            "offset": 0,
            "slot": "0",
            "type": "t_uint8"
          },
          {
            "astId": 11966,
            "contract": "contracts/mspell/mSpellSenderManual.sol:mSpellSenderManual",
            "label": "position",
            "offset": 1,
            "slot": "0",
            "type": "t_uint32"
          }
        ],
        "numberOfBytes": "32"
      },
      "t_struct(MSpellRecipients)11962_storage": {
        "encoding": "inplace",
        "label": "struct mSpellSenderManual.MSpellRecipients",
        "members": [
          {
            "astId": 11953,
            "contract": "contracts/mspell/mSpellSenderManual.sol:mSpellSenderManual",
            "label": "recipient",
            "offset": 0,
            "slot": "0",
            "type": "t_address"
          },
          {
            "astId": 11955,
            "contract": "contracts/mspell/mSpellSenderManual.sol:mSpellSenderManual",
            "label": "chainId",
            "offset": 20,
            "slot": "0",
            "type": "t_uint32"
          },
          {
            "astId": 11957,
            "contract": "contracts/mspell/mSpellSenderManual.sol:mSpellSenderManual",
            "label": "chainIdLZ",
            "offset": 24,
            "slot": "0",
            "type": "t_uint32"
          },
          {
            "astId": 11959,
            "contract": "contracts/mspell/mSpellSenderManual.sol:mSpellSenderManual",
            "label": "lastUpdated",
            "offset": 28,
            "slot": "0",
            "type": "t_uint32"
          },
          {
            "astId": 11961,
            "contract": "contracts/mspell/mSpellSenderManual.sol:mSpellSenderManual",
            "label": "amountStaked",
            "offset": 0,
            "slot": "1",
            "type": "t_uint128"
          }
        ],
        "numberOfBytes": "64"
      },
      "t_uint128": {
        "encoding": "inplace",
        "label": "uint128",
        "numberOfBytes": "16"
      },
      "t_uint256": {
        "encoding": "inplace",
        "label": "uint256",
        "numberOfBytes": "32"
      },
      "t_uint32": {
        "encoding": "inplace",
        "label": "uint32",
        "numberOfBytes": "4"
      },
      "t_uint8": {
        "encoding": "inplace",
        "label": "uint8",
        "numberOfBytes": "1"
      }
    }
  }
}