{
  "address": "0x7FA0320180B0D6E12b3Ab47Aa0Fbb3da9e3e926C",
  "abi": [
    {
      "inputs": [],
      "stateMutability": "nonpayable",
      "type": "constructor"
    },
    {
      "anonymous": false,
      "inputs": [
        {
          "indexed": true,
          "internalType": "address",
          "name": "recipient",
          "type": "address"
        },
        {
          "indexed": false,
          "internalType": "uint256",
          "name": "chainId",
          "type": "uint256"
        }
      ],
      "name": "LogAddRecipient",
      "type": "event"
    },
    {
      "anonymous": false,
      "inputs": [
        {
          "indexed": true,
          "internalType": "address",
          "name": "recipient",
          "type": "address"
        },
        {
          "indexed": false,
          "internalType": "uint256",
          "name": "amount",
          "type": "uint256"
        },
        {
          "indexed": false,
          "internalType": "uint256",
          "name": "chainId",
          "type": "uint256"
        }
      ],
      "name": "LogBridgeToRecipient",
      "type": "event"
    },
    {
      "anonymous": false,
      "inputs": [
        {
          "indexed": true,
          "internalType": "address",
          "name": "operator",
          "type": "address"
        },
        {
          "indexed": false,
          "internalType": "bool",
          "name": "status",
          "type": "bool"
        }
      ],
      "name": "LogSetOperator",
      "type": "event"
    },
    {
      "anonymous": false,
      "inputs": [
        {
          "indexed": true,
          "internalType": "address",
          "name": "previousOwner",
          "type": "address"
        },
        {
          "indexed": true,
          "internalType": "address",
          "name": "newOwner",
          "type": "address"
        }
      ],
      "name": "OwnershipTransferred",
      "type": "event"
    },
    {
      "inputs": [
        {
          "internalType": "address",
          "name": "recipient",
          "type": "address"
        },
        {
          "internalType": "uint256",
          "name": "chainId",
          "type": "uint256"
        }
      ],
      "name": "addMSpellRecipient",
      "outputs": [],
      "stateMutability": "nonpayable",
      "type": "function"
    },
    {
      "inputs": [
        {
          "internalType": "uint256[]",
          "name": "ratios",
          "type": "uint256[]"
        }
      ],
      "name": "bridgeMim",
      "outputs": [],
      "stateMutability": "nonpayable",
      "type": "function"
    },
    {
      "inputs": [],
      "name": "claimOwnership",
      "outputs": [],
      "stateMutability": "nonpayable",
      "type": "function"
    },
    {
      "inputs": [
        {
          "internalType": "uint256",
          "name": "",
          "type": "uint256"
        }
      ],
      "name": "isActiveChain",
      "outputs": [
        {
          "internalType": "bool",
          "name": "",
          "type": "bool"
        }
      ],
      "stateMutability": "view",
      "type": "function"
    },
    {
      "inputs": [
        {
          "internalType": "address",
          "name": "",
          "type": "address"
        }
      ],
      "name": "isOperator",
      "outputs": [
        {
          "internalType": "bool",
          "name": "",
          "type": "bool"
        }
      ],
      "stateMutability": "view",
      "type": "function"
    },
    {
      "inputs": [],
      "name": "owner",
      "outputs": [
        {
          "internalType": "address",
          "name": "",
          "type": "address"
        }
      ],
      "stateMutability": "view",
      "type": "function"
    },
    {
      "inputs": [],
      "name": "pendingOwner",
      "outputs": [
        {
          "internalType": "address",
          "name": "",
          "type": "address"
        }
      ],
      "stateMutability": "view",
      "type": "function"
    },
    {
      "inputs": [
        {
          "internalType": "uint256",
          "name": "",
          "type": "uint256"
        }
      ],
      "name": "recipients",
      "outputs": [
        {
          "internalType": "address",
          "name": "recipient",
          "type": "address"
        },
        {
          "internalType": "uint256",
          "name": "chainId",
          "type": "uint256"
        }
      ],
      "stateMutability": "view",
      "type": "function"
    },
    {
      "inputs": [
        {
          "internalType": "address",
          "name": "operator",
          "type": "address"
        },
        {
          "internalType": "bool",
          "name": "status",
          "type": "bool"
        }
      ],
      "name": "setOperator",
      "outputs": [],
      "stateMutability": "nonpayable",
      "type": "function"
    },
    {
      "inputs": [
        {
          "internalType": "address",
          "name": "newOwner",
          "type": "address"
        },
        {
          "internalType": "bool",
          "name": "direct",
          "type": "bool"
        },
        {
          "internalType": "bool",
          "name": "renounce",
          "type": "bool"
        }
      ],
      "name": "transferOwnership",
      "outputs": [],
      "stateMutability": "nonpayable",
      "type": "function"
    }
  ],
  "transactionHash": "0xd69dc0282c16bda382a95c295325b10d2ce0e3da928b5002f5fd7c22b94f6d6e",
  "args": [],
  "solcInputHash": "5c65d1277c996a2cd54e850db094a348",
  "bytecode": "0x60806040523480156200001157600080fd5b50336000806101000a81548173ffffffffffffffffffffffffffffffffffffffff021916908373ffffffffffffffffffffffffffffffffffffffff1602179055503373ffffffffffffffffffffffffffffffffffffffff16600073ffffffffffffffffffffffffffffffffffffffff167f8be0079c531659141344cd1fd0a4f28419497f9722a3daafe3b4186f6b6457e060405160405180910390a37399d8a9c45b2eca8864373a26d1459e3dff1e17f373ffffffffffffffffffffffffffffffffffffffff1663095ea7b373bbc4a8d076f4b1888fec42581b6fc58d242cf2d57fffffffffffffffffffffffffffffffffffffffffffffffffffffffffffffffff6040518363ffffffff1660e01b815260040162000132929190620001df565b6020604051808303816000875af115801562000152573d6000803e3d6000fd5b505050506040513d601f19601f820116820180604052508101906200017891906200024e565b5062000280565b600073ffffffffffffffffffffffffffffffffffffffff82169050919050565b6000620001ac826200017f565b9050919050565b620001be816200019f565b82525050565b6000819050919050565b620001d981620001c4565b82525050565b6000604082019050620001f66000830185620001b3565b620002056020830184620001ce565b9392505050565b600080fd5b60008115159050919050565b620002288162000211565b81146200023457600080fd5b50565b60008151905062000248816200021d565b92915050565b6000602082840312156200026757620002666200020c565b5b6000620002778482850162000237565b91505092915050565b61175a80620002906000396000f3fe608060405234801561001057600080fd5b506004361061009e5760003560e01c80639299c11e116100665780639299c11e14610133578063d1bc76a11461014f578063d877f07914610180578063e30c39781461019c578063ee3cd721146101ba5761009e565b8063078dfbe7146100a35780634e71e0c8146100bf578063558a7297146100c95780636d70f7ae146100e55780638da5cb5b14610115575b600080fd5b6100bd60048036038101906100b89190610e78565b6101ea565b005b6100c761043e565b005b6100e360048036038101906100de9190610ecb565b6105d2565b005b6100ff60048036038101906100fa9190610f0b565b610709565b60405161010c9190610f47565b60405180910390f35b61011d610729565b60405161012a9190610f71565b60405180910390f35b61014d6004803603810190610148919061111b565b61074d565b005b61016960048036038101906101649190611164565b610b1e565b6040516101779291906111a0565b60405180910390f35b61019a600480360381019061019591906111c9565b610b72565b005b6101a4610d88565b6040516101b19190610f71565b60405180910390f35b6101d460048036038101906101cf9190611164565b610dae565b6040516101e19190610f47565b60405180910390f35b60008054906101000a900473ffffffffffffffffffffffffffffffffffffffff1673ffffffffffffffffffffffffffffffffffffffff163373ffffffffffffffffffffffffffffffffffffffff1614610278576040517f08c379a000000000000000000000000000000000000000000000000000000000815260040161026f90611266565b60405180910390fd5b81156103f757600073ffffffffffffffffffffffffffffffffffffffff168373ffffffffffffffffffffffffffffffffffffffff161415806102b75750805b6102f6576040517f08c379a00000000000000000000000000000000000000000000000000000000081526004016102ed906112d2565b60405180910390fd5b8273ffffffffffffffffffffffffffffffffffffffff1660008054906101000a900473ffffffffffffffffffffffffffffffffffffffff1673ffffffffffffffffffffffffffffffffffffffff167f8be0079c531659141344cd1fd0a4f28419497f9722a3daafe3b4186f6b6457e060405160405180910390a3826000806101000a81548173ffffffffffffffffffffffffffffffffffffffff021916908373ffffffffffffffffffffffffffffffffffffffff1602179055506000600160006101000a81548173ffffffffffffffffffffffffffffffffffffffff021916908373ffffffffffffffffffffffffffffffffffffffff160217905550610439565b82600160006101000a81548173ffffffffffffffffffffffffffffffffffffffff021916908373ffffffffffffffffffffffffffffffffffffffff1602179055505b505050565b6000600160009054906101000a900473ffffffffffffffffffffffffffffffffffffffff1690508073ffffffffffffffffffffffffffffffffffffffff163373ffffffffffffffffffffffffffffffffffffffff16146104d3576040517f08c379a00000000000000000000000000000000000000000000000000000000081526004016104ca9061133e565b60405180910390fd5b8073ffffffffffffffffffffffffffffffffffffffff1660008054906101000a900473ffffffffffffffffffffffffffffffffffffffff1673ffffffffffffffffffffffffffffffffffffffff167f8be0079c531659141344cd1fd0a4f28419497f9722a3daafe3b4186f6b6457e060405160405180910390a3806000806101000a81548173ffffffffffffffffffffffffffffffffffffffff021916908373ffffffffffffffffffffffffffffffffffffffff1602179055506000600160006101000a81548173ffffffffffffffffffffffffffffffffffffffff021916908373ffffffffffffffffffffffffffffffffffffffff16021790555050565b60008054906101000a900473ffffffffffffffffffffffffffffffffffffffff1673ffffffffffffffffffffffffffffffffffffffff163373ffffffffffffffffffffffffffffffffffffffff1614610660576040517f08c379a000000000000000000000000000000000000000000000000000000000815260040161065790611266565b60405180910390fd5b80600460008473ffffffffffffffffffffffffffffffffffffffff1673ffffffffffffffffffffffffffffffffffffffff16815260200190815260200160002060006101000a81548160ff0219169083151502179055508173ffffffffffffffffffffffffffffffffffffffff167f93e5d6cb35b685fc6ad29826c16b672bdafd1df5b405459f5a33039c94f14dff826040516106fd9190610f47565b60405180910390a25050565b60046020528060005260406000206000915054906101000a900460ff1681565b60008054906101000a900473ffffffffffffffffffffffffffffffffffffffff1681565b600460003373ffffffffffffffffffffffffffffffffffffffff1673ffffffffffffffffffffffffffffffffffffffff16815260200190815260200160002060009054906101000a900460ff166107d9576040517f08c379a00000000000000000000000000000000000000000000000000000000081526004016107d0906113aa565b60405180910390fd5b600280549050815114610821576040517f08c379a000000000000000000000000000000000000000000000000000000000815260040161081890611416565b60405180910390fd5b6000807399d8a9c45b2eca8864373a26d1459e3dff1e17f373ffffffffffffffffffffffffffffffffffffffff166370a08231306040518263ffffffff1660e01b81526004016108719190610f71565b602060405180830381865afa15801561088e573d6000803e3d6000fd5b505050506040513d601f19601f820116820180604052508101906108b2919061144b565b905060005b83518110156108fb578381815181106108d3576108d2611478565b5b6020026020010151836108e691906114d6565b925080806108f39061152c565b9150506108b7565b5060005b8351811015610b185760008385838151811061091e5761091d611478565b5b6020026020010151846109319190611575565b61093b91906115fe565b90506000811115610b0457736b7a87899490ece95443e979ca9485cbe7e7152273ffffffffffffffffffffffffffffffffffffffff1663edbdf5e273bbc4a8d076f4b1888fec42581b6fc58d242cf2d56002858154811061099f5761099e611478565b5b906000526020600020906002020160000160009054906101000a900473ffffffffffffffffffffffffffffffffffffffff1684600287815481106109e6576109e5611478565b5b9060005260206000209060020201600101546040518563ffffffff1660e01b8152600401610a17949392919061162f565b600060405180830381600087803b158015610a3157600080fd5b505af1158015610a45573d6000803e3d6000fd5b5050505060028281548110610a5d57610a5c611478565b5b906000526020600020906002020160000160009054906101000a900473ffffffffffffffffffffffffffffffffffffffff1673ffffffffffffffffffffffffffffffffffffffff167fceaf82a0ff5bb3694b4434c66eff6741465c1a502542e441113e2f554cfe71568260028581548110610adb57610ada611478565b5b906000526020600020906002020160010154604051610afb929190611674565b60405180910390a25b508080610b109061152c565b9150506108ff565b50505050565b60028181548110610b2e57600080fd5b90600052602060002090600202016000915090508060000160009054906101000a900473ffffffffffffffffffffffffffffffffffffffff16908060010154905082565b60008054906101000a900473ffffffffffffffffffffffffffffffffffffffff1673ffffffffffffffffffffffffffffffffffffffff163373ffffffffffffffffffffffffffffffffffffffff1614610c00576040517f08c379a0000000000000000000000000000000000000000000000000000000008152600401610bf790611266565b60405180910390fd5b6003600082815260200190815260200160002060009054906101000a900460ff1615610c61576040517f08c379a0000000000000000000000000000000000000000000000000000000008152600401610c58906116e9565b60405180910390fd5b60016003600083815260200190815260200160002060006101000a81548160ff021916908315150217905550600260405180604001604052808473ffffffffffffffffffffffffffffffffffffffff16815260200183815250908060018154018082558091505060019003906000526020600020906002020160009091909190915060008201518160000160006101000a81548173ffffffffffffffffffffffffffffffffffffffff021916908373ffffffffffffffffffffffffffffffffffffffff1602179055506020820151816001015550508173ffffffffffffffffffffffffffffffffffffffff167f6f854dd3349576c51e096779d2c5801bd2e775255e7105e31e50d3e344bb79a282604051610d7c9190611709565b60405180910390a25050565b600160009054906101000a900473ffffffffffffffffffffffffffffffffffffffff1681565b60036020528060005260406000206000915054906101000a900460ff1681565b6000604051905090565b600080fd5b600080fd5b600073ffffffffffffffffffffffffffffffffffffffff82169050919050565b6000610e0d82610de2565b9050919050565b610e1d81610e02565b8114610e2857600080fd5b50565b600081359050610e3a81610e14565b92915050565b60008115159050919050565b610e5581610e40565b8114610e6057600080fd5b50565b600081359050610e7281610e4c565b92915050565b600080600060608486031215610e9157610e90610dd8565b5b6000610e9f86828701610e2b565b9350506020610eb086828701610e63565b9250506040610ec186828701610e63565b9150509250925092565b60008060408385031215610ee257610ee1610dd8565b5b6000610ef085828601610e2b565b9250506020610f0185828601610e63565b9150509250929050565b600060208284031215610f2157610f20610dd8565b5b6000610f2f84828501610e2b565b91505092915050565b610f4181610e40565b82525050565b6000602082019050610f5c6000830184610f38565b92915050565b610f6b81610e02565b82525050565b6000602082019050610f866000830184610f62565b92915050565b600080fd5b6000601f19601f8301169050919050565b7f4e487b7100000000000000000000000000000000000000000000000000000000600052604160045260246000fd5b610fda82610f91565b810181811067ffffffffffffffff82111715610ff957610ff8610fa2565b5b80604052505050565b600061100c610dce565b90506110188282610fd1565b919050565b600067ffffffffffffffff82111561103857611037610fa2565b5b602082029050602081019050919050565b600080fd5b6000819050919050565b6110618161104e565b811461106c57600080fd5b50565b60008135905061107e81611058565b92915050565b60006110976110928461101d565b611002565b905080838252602082019050602084028301858111156110ba576110b9611049565b5b835b818110156110e357806110cf888261106f565b8452602084019350506020810190506110bc565b5050509392505050565b600082601f83011261110257611101610f8c565b5b8135611112848260208601611084565b91505092915050565b60006020828403121561113157611130610dd8565b5b600082013567ffffffffffffffff81111561114f5761114e610ddd565b5b61115b848285016110ed565b91505092915050565b60006020828403121561117a57611179610dd8565b5b60006111888482850161106f565b91505092915050565b61119a8161104e565b82525050565b60006040820190506111b56000830185610f62565b6111c26020830184611191565b9392505050565b600080604083850312156111e0576111df610dd8565b5b60006111ee85828601610e2b565b92505060206111ff8582860161106f565b9150509250929050565b600082825260208201905092915050565b7f4f776e61626c653a2063616c6c6572206973206e6f7420746865206f776e6572600082015250565b6000611250602083611209565b915061125b8261121a565b602082019050919050565b6000602082019050818103600083015261127f81611243565b9050919050565b7f4f776e61626c653a207a65726f20616464726573730000000000000000000000600082015250565b60006112bc601583611209565b91506112c782611286565b602082019050919050565b600060208201905081810360008301526112eb816112af565b9050919050565b7f4f776e61626c653a2063616c6c657220213d2070656e64696e67206f776e6572600082015250565b6000611328602083611209565b9150611333826112f2565b602082019050919050565b600060208201905081810360008301526113578161131b565b9050919050565b7f6f6e6c79206f70657261746f7200000000000000000000000000000000000000600082015250565b6000611394600d83611209565b915061139f8261135e565b602082019050919050565b600060208201905081810360008301526113c381611387565b9050919050565b7f726174696f73206c656e677468206d69736d6174636800000000000000000000600082015250565b6000611400601683611209565b915061140b826113ca565b602082019050919050565b6000602082019050818103600083015261142f816113f3565b9050919050565b60008151905061144581611058565b92915050565b60006020828403121561146157611460610dd8565b5b600061146f84828501611436565b91505092915050565b7f4e487b7100000000000000000000000000000000000000000000000000000000600052603260045260246000fd5b7f4e487b7100000000000000000000000000000000000000000000000000000000600052601160045260246000fd5b60006114e18261104e565b91506114ec8361104e565b9250827fffffffffffffffffffffffffffffffffffffffffffffffffffffffffffffffff03821115611521576115206114a7565b5b828201905092915050565b60006115378261104e565b91507fffffffffffffffffffffffffffffffffffffffffffffffffffffffffffffffff82141561156a576115696114a7565b5b600182019050919050565b60006115808261104e565b915061158b8361104e565b9250817fffffffffffffffffffffffffffffffffffffffffffffffffffffffffffffffff04831182151516156115c4576115c36114a7565b5b828202905092915050565b7f4e487b7100000000000000000000000000000000000000000000000000000000600052601260045260246000fd5b60006116098261104e565b91506116148361104e565b925082611624576116236115cf565b5b828204905092915050565b60006080820190506116446000830187610f62565b6116516020830186610f62565b61165e6040830185611191565b61166b6060830184611191565b95945050505050565b60006040820190506116896000830185611191565b6116966020830184611191565b9392505050565b7f636861696e496420616c72656164792061646465640000000000000000000000600082015250565b60006116d3601583611209565b91506116de8261169d565b602082019050919050565b60006020820190508181036000830152611702816116c6565b9050919050565b600060208201905061171e6000830184611191565b9291505056fea264697066735822122066ed1afcaa1c831636ee8acaeccea5efe3ff0835d4b12527538a72047e6eb0af64736f6c634300080a0033",
  "devdoc": {
    "kind": "dev",
    "methods": {
      "bridgeMim(uint256[])": {
        "params": {
          "ratios": "ratio in bps, 1 is 0.01%, 10_000 is 100%"
        }
      },
      "transferOwnership(address,bool,bool)": {
        "params": {
          "direct": "True if `newOwner` should be set immediately. False if `newOwner` needs to use `claimOwnership`.",
          "newOwner": "Address of the new owner.",
          "renounce": "Allows the `newOwner` to be `address(0)` if `direct` and `renounce` is True. Has no effect otherwise."
        }
      }
    },
    "version": 1
  },
  "userdoc": {
    "events": {
      "LogSetOperator(address,bool)": {
        "notice": "EVENTS"
      }
    },
    "kind": "user",
    "methods": {
      "claimOwnership()": {
        "notice": "Needs to be called by `pendingOwner` to claim ownership."
      },
      "transferOwnership(address,bool,bool)": {
        "notice": "Transfers ownership to `newOwner`. Either directly or claimable by the new pending owner. Can only be invoked by the current `owner`."
      }
    },
    "version": 1
  },
  "storageLayout": {
    "storage": [
      {
        "astId": 496,
        "contract": "contracts/mspell/mSpellSender.sol:mSpellSender",
        "label": "owner",
        "offset": 0,
        "slot": "0",
        "type": "t_address"
      },
      {
        "astId": 498,
        "contract": "contracts/mspell/mSpellSender.sol:mSpellSender",
        "label": "pendingOwner",
        "offset": 0,
        "slot": "1",
        "type": "t_address"
      },
      {
        "astId": 1283,
        "contract": "contracts/mspell/mSpellSender.sol:mSpellSender",
        "label": "recipients",
        "offset": 0,
        "slot": "2",
        "type": "t_array(t_struct(MSpellRecipients)1279_storage)dyn_storage"
      },
      {
        "astId": 1287,
        "contract": "contracts/mspell/mSpellSender.sol:mSpellSender",
        "label": "isActiveChain",
        "offset": 0,
        "slot": "3",
        "type": "t_mapping(t_uint256,t_bool)"
      },
      {
        "astId": 1291,
        "contract": "contracts/mspell/mSpellSender.sol:mSpellSender",
        "label": "isOperator",
        "offset": 0,
        "slot": "4",
        "type": "t_mapping(t_address,t_bool)"
      }
    ],
    "types": {
      "t_address": {
        "encoding": "inplace",
        "label": "address",
        "numberOfBytes": "20"
      },
      "t_array(t_struct(MSpellRecipients)1279_storage)dyn_storage": {
        "base": "t_struct(MSpellRecipients)1279_storage",
        "encoding": "dynamic_array",
        "label": "struct mSpellSender.MSpellRecipients[]",
        "numberOfBytes": "32"
      },
      "t_bool": {
        "encoding": "inplace",
        "label": "bool",
        "numberOfBytes": "1"
      },
      "t_mapping(t_address,t_bool)": {
        "encoding": "mapping",
        "key": "t_address",
        "label": "mapping(address => bool)",
        "numberOfBytes": "32",
        "value": "t_bool"
      },
      "t_mapping(t_uint256,t_bool)": {
        "encoding": "mapping",
        "key": "t_uint256",
        "label": "mapping(uint256 => bool)",
        "numberOfBytes": "32",
        "value": "t_bool"
      },
      "t_struct(MSpellRecipients)1279_storage": {
        "encoding": "inplace",
        "label": "struct mSpellSender.MSpellRecipients",
        "members": [
          {
            "astId": 1276,
            "contract": "contracts/mspell/mSpellSender.sol:mSpellSender",
            "label": "recipient",
            "offset": 0,
            "slot": "0",
            "type": "t_address"
          },
          {
            "astId": 1278,
            "contract": "contracts/mspell/mSpellSender.sol:mSpellSender",
            "label": "chainId",
            "offset": 0,
            "slot": "1",
            "type": "t_uint256"
          }
        ],
        "numberOfBytes": "64"
      },
      "t_uint256": {
        "encoding": "inplace",
        "label": "uint256",
        "numberOfBytes": "32"
      }
    }
  }
}