{
  "address": "0xf780Dec6C8f7B4a14858FE3CCD64E4CC1F8F3e12",
  "abi": [
    {
      "inputs": [],
      "stateMutability": "nonpayable",
      "type": "constructor"
    },
    {
      "inputs": [],
      "name": "NotNoon",
      "type": "error"
    },
    {
      "inputs": [],
      "name": "NotPastNoon",
      "type": "error"
    },
    {
      "inputs": [
        {
          "internalType": "uint256",
          "name": "",
          "type": "uint256"
        }
      ],
      "name": "NotUpdated",
      "type": "error"
    },
    {
      "anonymous": false,
      "inputs": [
        {
          "indexed": true,
          "internalType": "address",
          "name": "recipient",
          "type": "address"
        },
        {
          "indexed": false,
          "internalType": "uint256",
          "name": "chainId",
          "type": "uint256"
        },
        {
          "indexed": false,
          "internalType": "uint256",
          "name": "chainIdLZ",
          "type": "uint256"
        }
      ],
      "name": "LogAddRecipient",
      "type": "event"
    },
    {
      "anonymous": false,
      "inputs": [
        {
          "indexed": true,
          "internalType": "address",
          "name": "recipient",
          "type": "address"
        },
        {
          "indexed": false,
          "internalType": "uint256",
          "name": "amount",
          "type": "uint256"
        },
        {
          "indexed": false,
          "internalType": "uint256",
          "name": "chainId",
          "type": "uint256"
        }
      ],
      "name": "LogBridgeToRecipient",
      "type": "event"
    },
    {
      "anonymous": false,
      "inputs": [
        {
          "indexed": false,
          "internalType": "address",
          "name": "_purchaser",
          "type": "address"
        },
        {
          "indexed": false,
          "internalType": "address",
          "name": "_treasury",
          "type": "address"
        },
        {
          "indexed": false,
          "internalType": "uint256",
          "name": "_treasuryPercentage",
          "type": "uint256"
        }
      ],
      "name": "LogChangePurchaser",
      "type": "event"
    },
    {
      "anonymous": false,
      "inputs": [
        {
          "indexed": true,
          "internalType": "address",
          "name": "operator",
          "type": "address"
        },
        {
          "indexed": false,
          "internalType": "bool",
          "name": "status",
          "type": "bool"
        }
      ],
      "name": "LogSetOperator",
      "type": "event"
    },
    {
      "anonymous": false,
      "inputs": [
        {
          "indexed": false,
          "internalType": "uint256",
          "name": "chainIdLZ",
          "type": "uint256"
        },
        {
          "indexed": true,
          "internalType": "address",
          "name": "reporter",
          "type": "address"
        }
      ],
      "name": "LogSetReporter",
      "type": "event"
    },
    {
      "anonymous": false,
      "inputs": [
        {
          "indexed": false,
          "internalType": "uint16",
          "name": "srcChainId",
          "type": "uint16"
        },
        {
          "indexed": true,
          "internalType": "address",
          "name": "fromAddress",
          "type": "address"
        },
        {
          "indexed": false,
          "internalType": "uint32",
          "name": "timestamp",
          "type": "uint32"
        },
        {
          "indexed": false,
          "internalType": "uint128",
          "name": "amount",
          "type": "uint128"
        }
      ],
      "name": "LogSpellStakedReceived",
      "type": "event"
    },
    {
      "anonymous": false,
      "inputs": [
        {
          "indexed": true,
          "internalType": "address",
          "name": "previousOwner",
          "type": "address"
        },
        {
          "indexed": true,
          "internalType": "address",
          "name": "newOwner",
          "type": "address"
        }
      ],
      "name": "OwnershipTransferred",
      "type": "event"
    },
    {
      "inputs": [
        {
          "internalType": "address",
          "name": "recipient",
          "type": "address"
        },
        {
          "internalType": "uint256",
          "name": "chainId",
          "type": "uint256"
        },
        {
          "internalType": "uint256",
          "name": "chainIdLZ",
          "type": "uint256"
        }
      ],
      "name": "addMSpellRecipient",
      "outputs": [],
      "stateMutability": "nonpayable",
      "type": "function"
    },
    {
      "inputs": [
        {
          "internalType": "address",
          "name": "reporter",
          "type": "address"
        },
        {
          "internalType": "uint256",
          "name": "chainIdLZ",
          "type": "uint256"
        }
      ],
      "name": "addReporter",
      "outputs": [],
      "stateMutability": "nonpayable",
      "type": "function"
    },
    {
      "inputs": [],
      "name": "bridgeMim",
      "outputs": [],
      "stateMutability": "nonpayable",
      "type": "function"
    },
    {
      "inputs": [
        {
          "internalType": "address",
          "name": "_purchaser",
          "type": "address"
        },
        {
          "internalType": "address",
          "name": "_treasury",
          "type": "address"
        },
        {
          "internalType": "uint256",
          "name": "_treasuryPercentage",
          "type": "uint256"
        }
      ],
      "name": "changePurchaser",
      "outputs": [],
      "stateMutability": "nonpayable",
      "type": "function"
    },
    {
      "inputs": [],
      "name": "claimOwnership",
      "outputs": [],
      "stateMutability": "nonpayable",
      "type": "function"
    },
    {
      "inputs": [
        {
          "internalType": "uint256",
          "name": "",
          "type": "uint256"
        }
      ],
      "name": "isActiveChain",
      "outputs": [
        {
          "internalType": "uint8",
          "name": "isActive",
          "type": "uint8"
        },
        {
          "internalType": "uint32",
          "name": "position",
          "type": "uint32"
        }
      ],
      "stateMutability": "view",
      "type": "function"
    },
    {
      "inputs": [
        {
          "internalType": "address",
          "name": "",
          "type": "address"
        }
      ],
      "name": "isOperator",
      "outputs": [
        {
          "internalType": "bool",
          "name": "",
          "type": "bool"
        }
      ],
      "stateMutability": "view",
      "type": "function"
    },
    {
      "inputs": [
        {
          "internalType": "uint16",
          "name": "_srcChainId",
          "type": "uint16"
        },
        {
          "internalType": "bytes",
          "name": "_srcAddress",
          "type": "bytes"
        },
        {
          "internalType": "uint64",
          "name": "",
          "type": "uint64"
        },
        {
          "internalType": "bytes",
          "name": "_payload",
          "type": "bytes"
        }
      ],
      "name": "lzReceive",
      "outputs": [],
      "stateMutability": "nonpayable",
      "type": "function"
    },
    {
      "inputs": [
        {
          "internalType": "uint256",
          "name": "",
          "type": "uint256"
        }
      ],
      "name": "mSpellReporter",
      "outputs": [
        {
          "internalType": "address",
          "name": "",
          "type": "address"
        }
      ],
      "stateMutability": "view",
      "type": "function"
    },
    {
      "inputs": [],
      "name": "owner",
      "outputs": [
        {
          "internalType": "address",
          "name": "",
          "type": "address"
        }
      ],
      "stateMutability": "view",
      "type": "function"
    },
    {
      "inputs": [],
      "name": "pendingOwner",
      "outputs": [
        {
          "internalType": "address",
          "name": "",
          "type": "address"
        }
      ],
      "stateMutability": "view",
      "type": "function"
    },
    {
      "inputs": [
        {
          "internalType": "uint256",
          "name": "",
          "type": "uint256"
        }
      ],
      "name": "recipients",
      "outputs": [
        {
          "internalType": "address",
          "name": "recipient",
          "type": "address"
        },
        {
          "internalType": "uint32",
          "name": "chainId",
          "type": "uint32"
        },
        {
          "internalType": "uint32",
          "name": "chainIdLZ",
          "type": "uint32"
        },
        {
          "internalType": "uint32",
          "name": "lastUpdated",
          "type": "uint32"
        },
        {
          "internalType": "uint128",
          "name": "amountStaked",
          "type": "uint128"
        }
      ],
      "stateMutability": "view",
      "type": "function"
    },
    {
      "inputs": [
        {
          "internalType": "address",
          "name": "operator",
          "type": "address"
        },
        {
          "internalType": "bool",
          "name": "status",
          "type": "bool"
        }
      ],
      "name": "setOperator",
      "outputs": [],
      "stateMutability": "nonpayable",
      "type": "function"
    },
    {
      "inputs": [],
      "name": "sspellBuyBack",
      "outputs": [
        {
          "internalType": "address",
          "name": "",
          "type": "address"
        }
      ],
      "stateMutability": "view",
      "type": "function"
    },
    {
      "inputs": [
        {
          "internalType": "address",
          "name": "newOwner",
          "type": "address"
        },
        {
          "internalType": "bool",
          "name": "direct",
          "type": "bool"
        },
        {
          "internalType": "bool",
          "name": "renounce",
          "type": "bool"
        }
      ],
      "name": "transferOwnership",
      "outputs": [],
      "stateMutability": "nonpayable",
      "type": "function"
    },
    {
      "inputs": [
        {
          "internalType": "address",
          "name": "newOwner",
          "type": "address"
        }
      ],
      "name": "transferWithdrawer",
      "outputs": [],
      "stateMutability": "nonpayable",
      "type": "function"
    },
    {
      "inputs": [],
      "name": "treasury",
      "outputs": [
        {
          "internalType": "address",
          "name": "",
          "type": "address"
        }
      ],
      "stateMutability": "view",
      "type": "function"
    },
    {
      "inputs": [],
      "name": "treasuryPercentage",
      "outputs": [
        {
          "internalType": "uint256",
          "name": "",
          "type": "uint256"
        }
      ],
      "stateMutability": "view",
      "type": "function"
    }
  ],
  "transactionHash": "0x78dbe1f6dada41d16036e2798570810da82cb21ac5c6e914af42d41ec3bb2f2e",
  "args": [],
  "numDeployments": 3,
  "solcInputHash": "1b9be3ac9fab54fdd6d9ff492a6a4ad2",
  "bytecode": "0x608060405273fddfe525054efaad204600d00ca86adb1cc2ea8a600260006101000a81548173ffffffffffffffffffffffffffffffffffffffff021916908373ffffffffffffffffffffffffffffffffffffffff16021790555073df2c270f610dc35d8ffda5b453e74db5471e126b600360006101000a81548173ffffffffffffffffffffffffffffffffffffffff021916908373ffffffffffffffffffffffffffffffffffffffff1602179055506019600455348015620000c057600080fd5b50336000806101000a81548173ffffffffffffffffffffffffffffffffffffffff021916908373ffffffffffffffffffffffffffffffffffffffff1602179055503373ffffffffffffffffffffffffffffffffffffffff16600073ffffffffffffffffffffffffffffffffffffffff167f8be0079c531659141344cd1fd0a4f28419497f9722a3daafe3b4186f6b6457e060405160405180910390a37399d8a9c45b2eca8864373a26d1459e3dff1e17f373ffffffffffffffffffffffffffffffffffffffff1663095ea7b373bbc4a8d076f4b1888fec42581b6fc58d242cf2d57fffffffffffffffffffffffffffffffffffffffffffffffffffffffffffffffff6040518363ffffffff1660e01b8152600401620001e19291906200028e565b6020604051808303816000875af115801562000201573d6000803e3d6000fd5b505050506040513d601f19601f82011682018060405250810190620002279190620002fd565b506200032f565b600073ffffffffffffffffffffffffffffffffffffffff82169050919050565b60006200025b826200022e565b9050919050565b6200026d816200024e565b82525050565b6000819050919050565b620002888162000273565b82525050565b6000604082019050620002a5600083018562000262565b620002b460208301846200027d565b9392505050565b600080fd5b60008115159050919050565b620002d781620002c0565b8114620002e357600080fd5b50565b600081519050620002f781620002cc565b92915050565b600060208284031215620003165762000315620002bb565b5b60006200032684828501620002e6565b91505092915050565b61315f806200033f6000396000f3fe608060405234801561001057600080fd5b50600436106101155760003560e01c80636d70f7ae116100a2578063d1bc76a111610071578063d1bc76a11461027e578063e30c3978146102b2578063e909e181146102d0578063e9f850cf14610300578063ee3cd7211461031c57610115565b80636d70f7ae146102085780637ab560831461023857806385bffc84146102565780638da5cb5b1461026057610115565b80634e71e0c8116100e95780634e71e0c81461018a578063558a72971461019457806359030dbb146101b05780635e4523ae146101cc57806361d027b3146101ea57610115565b80621d35671461011a578063078dfbe7146101365780630daf9c1e1461015257806336df3eae1461016e575b600080fd5b610134600480360381019061012f9190612284565b61034d565b005b610150600480360381019061014b91906123be565b610597565b005b61016c60048036038101906101679190612411565b6107eb565b005b61018860048036038101906101839190612474565b610901565b005b610192610c60565b005b6101ae60048036038101906101a991906124c7565b610df4565b005b6101ca60048036038101906101c59190612507565b610f2b565b005b6101d461105d565b6040516101e19190612556565b60405180910390f35b6101f2611083565b6040516101ff9190612556565b60405180910390f35b610222600480360381019061021d9190612411565b6110a9565b60405161022f9190612580565b60405180910390f35b6102406110c9565b60405161024d91906125aa565b60405180910390f35b61025e6110cf565b005b610268611bc3565b6040516102759190612556565b60405180910390f35b610298600480360381019061029391906125c5565b611be7565b6040516102a995949392919061263c565b60405180910390f35b6102ba611c99565b6040516102c79190612556565b60405180910390f35b6102ea60048036038101906102e591906125c5565b611cbf565b6040516102f79190612556565b60405180910390f35b61031a6004803603810190610315919061268f565b611cf2565b005b610336600480360381019061033191906125c5565b611e49565b6040516103449291906126fe565b60405180910390f35b60006018610e104261035f9190612785565b61036991906127b6565b9050600c81146103a5576040517f3ea9114000000000000000000000000000000000000000000000000000000000815260040160405180910390fd5b7366a71dcef29a0ffbdbe3c6a460a3b5bc225cd67573ffffffffffffffffffffffffffffffffffffffff163373ffffffffffffffffffffffffffffffffffffffff16146103f157600080fd5b6000600660008861ffff16815260200190815260200160002060000160019054906101000a900463ffffffff1663ffffffff16905060006005828154811061043c5761043b6127e7565b5b90600052602060002090600202019050600060148801519050600760008a61ffff16815260200190815260200160002060009054906101000a900473ffffffffffffffffffffffffffffffffffffffff1673ffffffffffffffffffffffffffffffffffffffff168173ffffffffffffffffffffffffffffffffffffffff16146104c457600080fd5b60008087878101906104d6919061286e565b91509150808460010160006101000a8154816fffffffffffffffffffffffffffffffff02191690836fffffffffffffffffffffffffffffffff1602179055508184600001601c6101000a81548163ffffffff021916908363ffffffff1602179055508273ffffffffffffffffffffffffffffffffffffffff167fe0d8ef8074a6e02ddc0b4a702390e047ac21fd4c63687002b6846bb780287a568c8484604051610582939291906128bd565b60405180910390a25050505050505050505050565b60008054906101000a900473ffffffffffffffffffffffffffffffffffffffff1673ffffffffffffffffffffffffffffffffffffffff163373ffffffffffffffffffffffffffffffffffffffff1614610625576040517f08c379a000000000000000000000000000000000000000000000000000000000815260040161061c90612951565b60405180910390fd5b81156107a457600073ffffffffffffffffffffffffffffffffffffffff168373ffffffffffffffffffffffffffffffffffffffff161415806106645750805b6106a3576040517f08c379a000000000000000000000000000000000000000000000000000000000815260040161069a906129bd565b60405180910390fd5b8273ffffffffffffffffffffffffffffffffffffffff1660008054906101000a900473ffffffffffffffffffffffffffffffffffffffff1673ffffffffffffffffffffffffffffffffffffffff167f8be0079c531659141344cd1fd0a4f28419497f9722a3daafe3b4186f6b6457e060405160405180910390a3826000806101000a81548173ffffffffffffffffffffffffffffffffffffffff021916908373ffffffffffffffffffffffffffffffffffffffff1602179055506000600160006101000a81548173ffffffffffffffffffffffffffffffffffffffff021916908373ffffffffffffffffffffffffffffffffffffffff1602179055506107e6565b82600160006101000a81548173ffffffffffffffffffffffffffffffffffffffff021916908373ffffffffffffffffffffffffffffffffffffffff1602179055505b505050565b60008054906101000a900473ffffffffffffffffffffffffffffffffffffffff1673ffffffffffffffffffffffffffffffffffffffff163373ffffffffffffffffffffffffffffffffffffffff1614610879576040517f08c379a000000000000000000000000000000000000000000000000000000000815260040161087090612951565b60405180910390fd5b73b2c3a9c577068479b1e5119f6b7da98d25ba48f473ffffffffffffffffffffffffffffffffffffffff1663078dfbe782600160006040518463ffffffff1660e01b81526004016108cc939291906129dd565b600060405180830381600087803b1580156108e657600080fd5b505af11580156108fa573d6000803e3d6000fd5b5050505050565b60008054906101000a900473ffffffffffffffffffffffffffffffffffffffff1673ffffffffffffffffffffffffffffffffffffffff163373ffffffffffffffffffffffffffffffffffffffff161461098f576040517f08c379a000000000000000000000000000000000000000000000000000000000815260040161098690612951565b60405180910390fd5b60006006600083815260200190815260200160002060000160009054906101000a900460ff1660ff16146109f8576040517f08c379a00000000000000000000000000000000000000000000000000000000081526004016109ef90612a60565b60405180910390fd5b600060058054905090506040518060400160405280600160ff1681526020018263ffffffff168152506006600084815260200190815260200160002060008201518160000160006101000a81548160ff021916908360ff16021790555060208201518160000160016101000a81548163ffffffff021916908363ffffffff16021790555090505060056040518060a001604052808673ffffffffffffffffffffffffffffffffffffffff1681526020018563ffffffff1681526020018463ffffffff168152602001600063ffffffff16815260200160006fffffffffffffffffffffffffffffffff16815250908060018154018082558091505060019003906000526020600020906002020160009091909190915060008201518160000160006101000a81548173ffffffffffffffffffffffffffffffffffffffff021916908373ffffffffffffffffffffffffffffffffffffffff16021790555060208201518160000160146101000a81548163ffffffff021916908363ffffffff16021790555060408201518160000160186101000a81548163ffffffff021916908363ffffffff160217905550606082015181600001601c6101000a81548163ffffffff021916908363ffffffff16021790555060808201518160010160006101000a8154816fffffffffffffffffffffffffffffffff02191690836fffffffffffffffffffffffffffffffff16021790555050508373ffffffffffffffffffffffffffffffffffffffff167fb64102a4611dd2eb58cfdb000b0fdd03770ae5c3220bd030b06b9a65004af28f8484604051610c52929190612a80565b60405180910390a250505050565b6000600160009054906101000a900473ffffffffffffffffffffffffffffffffffffffff1690508073ffffffffffffffffffffffffffffffffffffffff163373ffffffffffffffffffffffffffffffffffffffff1614610cf5576040517f08c379a0000000000000000000000000000000000000000000000000000000008152600401610cec90612af5565b60405180910390fd5b8073ffffffffffffffffffffffffffffffffffffffff1660008054906101000a900473ffffffffffffffffffffffffffffffffffffffff1673ffffffffffffffffffffffffffffffffffffffff167f8be0079c531659141344cd1fd0a4f28419497f9722a3daafe3b4186f6b6457e060405160405180910390a3806000806101000a81548173ffffffffffffffffffffffffffffffffffffffff021916908373ffffffffffffffffffffffffffffffffffffffff1602179055506000600160006101000a81548173ffffffffffffffffffffffffffffffffffffffff021916908373ffffffffffffffffffffffffffffffffffffffff16021790555050565b60008054906101000a900473ffffffffffffffffffffffffffffffffffffffff1673ffffffffffffffffffffffffffffffffffffffff163373ffffffffffffffffffffffffffffffffffffffff1614610e82576040517f08c379a0000000000000000000000000000000000000000000000000000000008152600401610e7990612951565b60405180910390fd5b80600860008473ffffffffffffffffffffffffffffffffffffffff1673ffffffffffffffffffffffffffffffffffffffff16815260200190815260200160002060006101000a81548160ff0219169083151502179055508173ffffffffffffffffffffffffffffffffffffffff167f93e5d6cb35b685fc6ad29826c16b672bdafd1df5b405459f5a33039c94f14dff82604051610f1f9190612580565b60405180910390a25050565b60008054906101000a900473ffffffffffffffffffffffffffffffffffffffff1673ffffffffffffffffffffffffffffffffffffffff163373ffffffffffffffffffffffffffffffffffffffff1614610fb9576040517f08c379a0000000000000000000000000000000000000000000000000000000008152600401610fb090612951565b60405180910390fd5b816007600083815260200190815260200160002060006101000a81548173ffffffffffffffffffffffffffffffffffffffff021916908373ffffffffffffffffffffffffffffffffffffffff1602179055508173ffffffffffffffffffffffffffffffffffffffff167f8419ea90414db87493e1e23bbc2be8cc81cb16d1e3190f150fc86773930a63228260405161105191906125aa565b60405180910390a25050565b600260009054906101000a900473ffffffffffffffffffffffffffffffffffffffff1681565b600360009054906101000a900473ffffffffffffffffffffffffffffffffffffffff1681565b60086020528060005260406000206000915054906101000a900460ff1681565b60045481565b60006018610e10426110e19190612785565b6110eb91906127b6565b9050600d8114611127576040517f5897b5fc00000000000000000000000000000000000000000000000000000000815260040160405180910390fd5b6000807399d8a9c45b2eca8864373a26d1459e3dff1e17f373ffffffffffffffffffffffffffffffffffffffff166370a0823173b2c3a9c577068479b1e5119f6b7da98d25ba48f46040518263ffffffff1660e01b815260040161118b9190612556565b602060405180830381865afa1580156111a8573d6000803e3d6000fd5b505050506040513d601f19601f820116820180604052508101906111cc9190612b2a565b905060006064600454836111e09190612b57565b6111ea9190612785565b826111f59190612bb1565b905073b2c3a9c577068479b1e5119f6b7da98d25ba48f473ffffffffffffffffffffffffffffffffffffffff1663cea9d26f7399d8a9c45b2eca8864373a26d1459e3dff1e17f330846040518463ffffffff1660e01b815260040161125c93929190612c44565b600060405180830381600087803b15801561127657600080fd5b505af115801561128a573d6000803e3d6000fd5b5050505073b2c3a9c577068479b1e5119f6b7da98d25ba48f473ffffffffffffffffffffffffffffffffffffffff1663cea9d26f7399d8a9c45b2eca8864373a26d1459e3dff1e17f3600360009054906101000a900473ffffffffffffffffffffffffffffffffffffffff166064600454876113069190612b57565b6113109190612785565b6040518463ffffffff1660e01b815260040161132e93929190612c44565b600060405180830381600087803b15801561134857600080fd5b505af115801561135c573d6000803e3d6000fd5b50505050600061136b42611e8a565b9050600073090185f2135308bad17527004364ebcc2d37e5f673ffffffffffffffffffffffffffffffffffffffff166370a082317326fa3fffb6efe8c1e69103acb4044c26b9a106a96040518263ffffffff1660e01b81526004016113d09190612556565b602060405180830381865afa1580156113ed573d6000803e3d6000fd5b505050506040513d601f19601f820116820180604052508101906114119190612b2a565b9050600080600580549050905060005b818110156116905760016005828154811061143f5761143e6127e7565b5b906000526020600020906002020160000160149054906101000a900463ffffffff1663ffffffff161461158e57600581815481106114805761147f6127e7565b5b906000526020600020906002020160010160009054906101000a90046fffffffffffffffffffffffffffffffff166fffffffffffffffffffffffffffffffff16886114cb9190612c7b565b975084611512600583815481106114e5576114e46127e7565b5b9060005260206000209060020201600001601c9054906101000a900463ffffffff1663ffffffff16611e8a565b14611589576005818154811061152b5761152a6127e7565b5b906000526020600020906002020160000160149054906101000a900463ffffffff166040517f5c7a1e9c0000000000000000000000000000000000000000000000000000000081526004016115809190612d02565b60405180910390fd5b61167d565b73090185f2135308bad17527004364ebcc2d37e5f673ffffffffffffffffffffffffffffffffffffffff166370a08231600583815481106115d2576115d16127e7565b5b906000526020600020906002020160000160009054906101000a900473ffffffffffffffffffffffffffffffffffffffff166040518263ffffffff1660e01b81526004016116209190612556565b602060405180830381865afa15801561163d573d6000803e3d6000fd5b505050506040513d601f19601f820116820180604052508101906116619190612b2a565b9250838361166f9190612c7b565b8861167a9190612c7b565b97505b808061168890612d1d565b915050611421565b5060005b81811015611bb8576001600582815481106116b2576116b16127e7565b5b906000526020600020906002020160000160149054906101000a900463ffffffff1663ffffffff161461193a57600088600583815481106116f6576116f56127e7565b5b906000526020600020906002020160010160009054906101000a90046fffffffffffffffffffffffffffffffff166fffffffffffffffffffffffffffffffff16886117419190612b57565b61174b9190612785565b9050600081111561193457736b7a87899490ece95443e979ca9485cbe7e7152273ffffffffffffffffffffffffffffffffffffffff1663edbdf5e273bbc4a8d076f4b1888fec42581b6fc58d242cf2d5600585815481106117af576117ae6127e7565b5b906000526020600020906002020160000160009054906101000a900473ffffffffffffffffffffffffffffffffffffffff1684600587815481106117f6576117f56127e7565b5b906000526020600020906002020160000160149054906101000a900463ffffffff166040518563ffffffff1660e01b81526004016118379493929190612d66565b600060405180830381600087803b15801561185157600080fd5b505af1158015611865573d6000803e3d6000fd5b505050506005828154811061187d5761187c6127e7565b5b906000526020600020906002020160000160009054906101000a900473ffffffffffffffffffffffffffffffffffffffff1673ffffffffffffffffffffffffffffffffffffffff167fceaf82a0ff5bb3694b4434c66eff6741465c1a502542e441113e2f554cfe715682600585815481106118fb576118fa6127e7565b5b906000526020600020906002020160000160149054906101000a900463ffffffff1660405161192b929190612dab565b60405180910390a25b50611ba5565b60008884886119499190612b57565b6119539190612785565b905060008986896119649190612b57565b61196e9190612785565b90507399d8a9c45b2eca8864373a26d1459e3dff1e17f373ffffffffffffffffffffffffffffffffffffffff1663a9059cbb600585815481106119b4576119b36127e7565b5b906000526020600020906002020160000160009054906101000a900473ffffffffffffffffffffffffffffffffffffffff16846040518363ffffffff1660e01b8152600401611a04929190612dd4565b6020604051808303816000875af1158015611a23573d6000803e3d6000fd5b505050506040513d601f19601f82011682018060405250810190611a479190612e12565b5060058381548110611a5c57611a5b6127e7565b5b906000526020600020906002020160000160009054906101000a900473ffffffffffffffffffffffffffffffffffffffff1673ffffffffffffffffffffffffffffffffffffffff1663f36c0a726040518163ffffffff1660e01b8152600401600060405180830381600087803b158015611ad557600080fd5b505af1158015611ae9573d6000803e3d6000fd5b505050507399d8a9c45b2eca8864373a26d1459e3dff1e17f373ffffffffffffffffffffffffffffffffffffffff1663a9059cbb600260009054906101000a900473ffffffffffffffffffffffffffffffffffffffff16836040518363ffffffff1660e01b8152600401611b5e929190612dd4565b6020604051808303816000875af1158015611b7d573d6000803e3d6000fd5b505050506040513d601f19601f82011682018060405250810190611ba19190612e12565b5050505b8080611bb090612d1d565b915050611694565b505050505050505050565b60008054906101000a900473ffffffffffffffffffffffffffffffffffffffff1681565b60058181548110611bf757600080fd5b90600052602060002090600202016000915090508060000160009054906101000a900473ffffffffffffffffffffffffffffffffffffffff16908060000160149054906101000a900463ffffffff16908060000160189054906101000a900463ffffffff169080600001601c9054906101000a900463ffffffff16908060010160009054906101000a90046fffffffffffffffffffffffffffffffff16905085565b600160009054906101000a900473ffffffffffffffffffffffffffffffffffffffff1681565b60076020528060005260406000206000915054906101000a900473ffffffffffffffffffffffffffffffffffffffff1681565b60008054906101000a900473ffffffffffffffffffffffffffffffffffffffff1673ffffffffffffffffffffffffffffffffffffffff163373ffffffffffffffffffffffffffffffffffffffff1614611d80576040517f08c379a0000000000000000000000000000000000000000000000000000000008152600401611d7790612951565b60405180910390fd5b82600260006101000a81548173ffffffffffffffffffffffffffffffffffffffff021916908373ffffffffffffffffffffffffffffffffffffffff16021790555081600360006101000a81548173ffffffffffffffffffffffffffffffffffffffff021916908373ffffffffffffffffffffffffffffffffffffffff160217905550806004819055507fe56c270b94c3acf065cbe14b25675de866cd9381a298b6d30d7c5526b317cbac838383604051611e3c93929190612e3f565b60405180910390a1505050565b60066020528060005260406000206000915090508060000160009054906101000a900460ff16908060000160019054906101000a900463ffffffff16905082565b6000611ea36201518083611e9e9190612785565b611eb1565b909150905080915050919050565b600080600080849050600062253d8c62010bd983611ecf9190612e80565b611ed99190612e80565b9050600062023ab1826004611eee9190612f14565b611ef8919061302b565b9050600460038262023ab1611f0d9190612f14565b611f179190612e80565b611f21919061302b565b82611f2c9190613095565b9150600062164b09600184611f419190612e80565b610fa0611f4e9190612f14565b611f58919061302b565b9050601f6004826105b5611f6c9190612f14565b611f76919061302b565b84611f819190613095565b611f8b9190612e80565b9250600061098f846050611f9f9190612f14565b611fa9919061302b565b9050600060508261098f611fbd9190612f14565b611fc7919061302b565b85611fd29190613095565b9050600b82611fe1919061302b565b945084600c611ff09190612f14565b600283611ffd9190612e80565b6120079190613095565b915084836031866120189190613095565b60646120249190612f14565b61202e9190612e80565b6120389190612e80565b92508298508197508096505050505050509193909250565b6000604051905090565b600080fd5b600080fd5b600061ffff82169050919050565b61207b81612064565b811461208657600080fd5b50565b60008135905061209881612072565b92915050565b600080fd5b600080fd5b6000601f19601f8301169050919050565b7f4e487b7100000000000000000000000000000000000000000000000000000000600052604160045260246000fd5b6120f1826120a8565b810181811067ffffffffffffffff821117156121105761210f6120b9565b5b80604052505050565b6000612123612050565b905061212f82826120e8565b919050565b600067ffffffffffffffff82111561214f5761214e6120b9565b5b612158826120a8565b9050602081019050919050565b82818337600083830152505050565b600061218761218284612134565b612119565b9050828152602081018484840111156121a3576121a26120a3565b5b6121ae848285612165565b509392505050565b600082601f8301126121cb576121ca61209e565b5b81356121db848260208601612174565b91505092915050565b600067ffffffffffffffff82169050919050565b612201816121e4565b811461220c57600080fd5b50565b60008135905061221e816121f8565b92915050565b600080fd5b600080fd5b60008083601f8401126122445761224361209e565b5b8235905067ffffffffffffffff81111561226157612260612224565b5b60208301915083600182028301111561227d5761227c612229565b5b9250929050565b6000806000806000608086880312156122a05761229f61205a565b5b60006122ae88828901612089565b955050602086013567ffffffffffffffff8111156122cf576122ce61205f565b5b6122db888289016121b6565b94505060406122ec8882890161220f565b935050606086013567ffffffffffffffff81111561230d5761230c61205f565b5b6123198882890161222e565b92509250509295509295909350565b600073ffffffffffffffffffffffffffffffffffffffff82169050919050565b600061235382612328565b9050919050565b61236381612348565b811461236e57600080fd5b50565b6000813590506123808161235a565b92915050565b60008115159050919050565b61239b81612386565b81146123a657600080fd5b50565b6000813590506123b881612392565b92915050565b6000806000606084860312156123d7576123d661205a565b5b60006123e586828701612371565b93505060206123f6868287016123a9565b9250506040612407868287016123a9565b9150509250925092565b6000602082840312156124275761242661205a565b5b600061243584828501612371565b91505092915050565b6000819050919050565b6124518161243e565b811461245c57600080fd5b50565b60008135905061246e81612448565b92915050565b60008060006060848603121561248d5761248c61205a565b5b600061249b86828701612371565b93505060206124ac8682870161245f565b92505060406124bd8682870161245f565b9150509250925092565b600080604083850312156124de576124dd61205a565b5b60006124ec85828601612371565b92505060206124fd858286016123a9565b9150509250929050565b6000806040838503121561251e5761251d61205a565b5b600061252c85828601612371565b925050602061253d8582860161245f565b9150509250929050565b61255081612348565b82525050565b600060208201905061256b6000830184612547565b92915050565b61257a81612386565b82525050565b60006020820190506125956000830184612571565b92915050565b6125a48161243e565b82525050565b60006020820190506125bf600083018461259b565b92915050565b6000602082840312156125db576125da61205a565b5b60006125e98482850161245f565b91505092915050565b600063ffffffff82169050919050565b61260b816125f2565b82525050565b60006fffffffffffffffffffffffffffffffff82169050919050565b61263681612611565b82525050565b600060a0820190506126516000830188612547565b61265e6020830187612602565b61266b6040830186612602565b6126786060830185612602565b612685608083018461262d565b9695505050505050565b6000806000606084860312156126a8576126a761205a565b5b60006126b686828701612371565b93505060206126c786828701612371565b92505060406126d88682870161245f565b9150509250925092565b600060ff82169050919050565b6126f8816126e2565b82525050565b600060408201905061271360008301856126ef565b6127206020830184612602565b9392505050565b7f4e487b7100000000000000000000000000000000000000000000000000000000600052601260045260246000fd5b7f4e487b7100000000000000000000000000000000000000000000000000000000600052601160045260246000fd5b60006127908261243e565b915061279b8361243e565b9250826127ab576127aa612727565b5b828204905092915050565b60006127c18261243e565b91506127cc8361243e565b9250826127dc576127db612727565b5b828206905092915050565b7f4e487b7100000000000000000000000000000000000000000000000000000000600052603260045260246000fd5b61281f816125f2565b811461282a57600080fd5b50565b60008135905061283c81612816565b92915050565b61284b81612611565b811461285657600080fd5b50565b60008135905061286881612842565b92915050565b600080604083850312156128855761288461205a565b5b60006128938582860161282d565b92505060206128a485828601612859565b9150509250929050565b6128b781612064565b82525050565b60006060820190506128d260008301866128ae565b6128df6020830185612602565b6128ec604083018461262d565b949350505050565b600082825260208201905092915050565b7f4f776e61626c653a2063616c6c6572206973206e6f7420746865206f776e6572600082015250565b600061293b6020836128f4565b915061294682612905565b602082019050919050565b6000602082019050818103600083015261296a8161292e565b9050919050565b7f4f776e61626c653a207a65726f20616464726573730000000000000000000000600082015250565b60006129a76015836128f4565b91506129b282612971565b602082019050919050565b600060208201905081810360008301526129d68161299a565b9050919050565b60006060820190506129f26000830186612547565b6129ff6020830185612571565b612a0c6040830184612571565b949350505050565b7f636861696e496420616c72656164792061646465640000000000000000000000600082015250565b6000612a4a6015836128f4565b9150612a5582612a14565b602082019050919050565b60006020820190508181036000830152612a7981612a3d565b9050919050565b6000604082019050612a95600083018561259b565b612aa2602083018461259b565b9392505050565b7f4f776e61626c653a2063616c6c657220213d2070656e64696e67206f776e6572600082015250565b6000612adf6020836128f4565b9150612aea82612aa9565b602082019050919050565b60006020820190508181036000830152612b0e81612ad2565b9050919050565b600081519050612b2481612448565b92915050565b600060208284031215612b4057612b3f61205a565b5b6000612b4e84828501612b15565b91505092915050565b6000612b628261243e565b9150612b6d8361243e565b9250817fffffffffffffffffffffffffffffffffffffffffffffffffffffffffffffffff0483118215151615612ba657612ba5612756565b5b828202905092915050565b6000612bbc8261243e565b9150612bc78361243e565b925082821015612bda57612bd9612756565b5b828203905092915050565b6000819050919050565b6000612c0a612c05612c0084612328565b612be5565b612328565b9050919050565b6000612c1c82612bef565b9050919050565b6000612c2e82612c11565b9050919050565b612c3e81612c23565b82525050565b6000606082019050612c596000830186612c35565b612c666020830185612547565b612c73604083018461259b565b949350505050565b6000612c868261243e565b9150612c918361243e565b9250827fffffffffffffffffffffffffffffffffffffffffffffffffffffffffffffffff03821115612cc657612cc5612756565b5b828201905092915050565b6000612cec612ce7612ce2846125f2565b612be5565b61243e565b9050919050565b612cfc81612cd1565b82525050565b6000602082019050612d176000830184612cf3565b92915050565b6000612d288261243e565b91507fffffffffffffffffffffffffffffffffffffffffffffffffffffffffffffffff821415612d5b57612d5a612756565b5b600182019050919050565b6000608082019050612d7b6000830187612547565b612d886020830186612547565b612d95604083018561259b565b612da26060830184612cf3565b95945050505050565b6000604082019050612dc0600083018561259b565b612dcd6020830184612cf3565b9392505050565b6000604082019050612de96000830185612547565b612df6602083018461259b565b9392505050565b600081519050612e0c81612392565b92915050565b600060208284031215612e2857612e2761205a565b5b6000612e3684828501612dfd565b91505092915050565b6000606082019050612e546000830186612547565b612e616020830185612547565b612e6e604083018461259b565b949350505050565b6000819050919050565b6000612e8b82612e76565b9150612e9683612e76565b9250817f7fffffffffffffffffffffffffffffffffffffffffffffffffffffffffffffff03831360008312151615612ed157612ed0612756565b5b817f8000000000000000000000000000000000000000000000000000000000000000038312600083121615612f0957612f08612756565b5b828201905092915050565b6000612f1f82612e76565b9150612f2a83612e76565b9250827f7fffffffffffffffffffffffffffffffffffffffffffffffffffffffffffffff0482116000841360008413161615612f6957612f68612756565b5b817f80000000000000000000000000000000000000000000000000000000000000000583126000841260008413161615612fa657612fa5612756565b5b827f80000000000000000000000000000000000000000000000000000000000000000582126000841360008412161615612fe357612fe2612756565b5b827f7fffffffffffffffffffffffffffffffffffffffffffffffffffffffffffffff05821260008412600084121616156130205761301f612756565b5b828202905092915050565b600061303682612e76565b915061304183612e76565b92508261305157613050612727565b5b600160000383147f80000000000000000000000000000000000000000000000000000000000000008314161561308a57613089612756565b5b828205905092915050565b60006130a082612e76565b91506130ab83612e76565b9250827f8000000000000000000000000000000000000000000000000000000000000000018212600084121516156130e6576130e5612756565b5b827f7fffffffffffffffffffffffffffffffffffffffffffffffffffffffffffffff01821360008412161561311e5761311d612756565b5b82820390509291505056fea264697066735822122014ef606f56231d6d2bf80554bb72d01685f6c758d7a7037b753ab141abf9009b64736f6c634300080a0033",
  "devdoc": {
    "kind": "dev",
    "methods": {
      "transferOwnership(address,bool,bool)": {
        "params": {
          "direct": "True if `newOwner` should be set immediately. False if `newOwner` needs to use `claimOwnership`.",
          "newOwner": "Address of the new owner.",
          "renounce": "Allows the `newOwner` to be `address(0)` if `direct` and `renounce` is True. Has no effect otherwise."
        }
      }
    },
    "version": 1
  },
  "userdoc": {
    "events": {
      "LogSetOperator(address,bool)": {
        "notice": "EVENTS"
      }
    },
    "kind": "user",
    "methods": {
      "claimOwnership()": {
        "notice": "Needs to be called by `pendingOwner` to claim ownership."
      },
      "transferOwnership(address,bool,bool)": {
        "notice": "Transfers ownership to `newOwner`. Either directly or claimable by the new pending owner. Can only be invoked by the current `owner`."
      }
    },
    "version": 1
  },
  "storageLayout": {
    "storage": [
      {
        "astId": 1980,
        "contract": "contracts/mspell/mSpellSender.sol:mSpellSender",
        "label": "owner",
        "offset": 0,
        "slot": "0",
        "type": "t_address"
      },
      {
        "astId": 1982,
        "contract": "contracts/mspell/mSpellSender.sol:mSpellSender",
        "label": "pendingOwner",
        "offset": 0,
        "slot": "1",
        "type": "t_address"
      },
      {
        "astId": 2251,
        "contract": "contracts/mspell/mSpellSender.sol:mSpellSender",
        "label": "sspellBuyBack",
        "offset": 0,
        "slot": "2",
        "type": "t_address"
      },
      {
        "astId": 2254,
        "contract": "contracts/mspell/mSpellSender.sol:mSpellSender",
        "label": "treasury",
        "offset": 0,
        "slot": "3",
        "type": "t_address"
      },
      {
        "astId": 2257,
        "contract": "contracts/mspell/mSpellSender.sol:mSpellSender",
        "label": "treasuryPercentage",
        "offset": 0,
        "slot": "4",
        "type": "t_uint256"
      },
      {
        "astId": 2280,
        "contract": "contracts/mspell/mSpellSender.sol:mSpellSender",
        "label": "recipients",
        "offset": 0,
        "slot": "5",
        "type": "t_array(t_struct(MSpellRecipients)2271_storage)dyn_storage"
      },
      {
        "astId": 2285,
        "contract": "contracts/mspell/mSpellSender.sol:mSpellSender",
        "label": "isActiveChain",
        "offset": 0,
        "slot": "6",
        "type": "t_mapping(t_uint256,t_struct(ActiveChain)2276_storage)"
      },
      {
        "astId": 2289,
        "contract": "contracts/mspell/mSpellSender.sol:mSpellSender",
        "label": "mSpellReporter",
        "offset": 0,
        "slot": "7",
        "type": "t_mapping(t_uint256,t_address)"
      },
      {
        "astId": 2293,
        "contract": "contracts/mspell/mSpellSender.sol:mSpellSender",
        "label": "isOperator",
        "offset": 0,
        "slot": "8",
        "type": "t_mapping(t_address,t_bool)"
      }
    ],
    "types": {
      "t_address": {
        "encoding": "inplace",
        "label": "address",
        "numberOfBytes": "20"
      },
      "t_array(t_struct(MSpellRecipients)2271_storage)dyn_storage": {
        "base": "t_struct(MSpellRecipients)2271_storage",
        "encoding": "dynamic_array",
        "label": "struct mSpellSender.MSpellRecipients[]",
        "numberOfBytes": "32"
      },
      "t_bool": {
        "encoding": "inplace",
        "label": "bool",
        "numberOfBytes": "1"
      },
      "t_mapping(t_address,t_bool)": {
        "encoding": "mapping",
        "key": "t_address",
        "label": "mapping(address => bool)",
        "numberOfBytes": "32",
        "value": "t_bool"
      },
      "t_mapping(t_uint256,t_address)": {
        "encoding": "mapping",
        "key": "t_uint256",
        "label": "mapping(uint256 => address)",
        "numberOfBytes": "32",
        "value": "t_address"
      },
      "t_mapping(t_uint256,t_struct(ActiveChain)2276_storage)": {
        "encoding": "mapping",
        "key": "t_uint256",
        "label": "mapping(uint256 => struct mSpellSender.ActiveChain)",
        "numberOfBytes": "32",
        "value": "t_struct(ActiveChain)2276_storage"
      },
      "t_struct(ActiveChain)2276_storage": {
        "encoding": "inplace",
        "label": "struct mSpellSender.ActiveChain",
        "members": [
          {
            "astId": 2273,
            "contract": "contracts/mspell/mSpellSender.sol:mSpellSender",
            "label": "isActive",
            "offset": 0,
            "slot": "0",
            "type": "t_uint8"
          },
          {
            "astId": 2275,
            "contract": "contracts/mspell/mSpellSender.sol:mSpellSender",
            "label": "position",
            "offset": 1,
            "slot": "0",
            "type": "t_uint32"
          }
        ],
        "numberOfBytes": "32"
      },
      "t_struct(MSpellRecipients)2271_storage": {
        "encoding": "inplace",
        "label": "struct mSpellSender.MSpellRecipients",
        "members": [
          {
            "astId": 2262,
            "contract": "contracts/mspell/mSpellSender.sol:mSpellSender",
            "label": "recipient",
            "offset": 0,
            "slot": "0",
            "type": "t_address"
          },
          {
            "astId": 2264,
            "contract": "contracts/mspell/mSpellSender.sol:mSpellSender",
            "label": "chainId",
            "offset": 20,
            "slot": "0",
            "type": "t_uint32"
          },
          {
            "astId": 2266,
            "contract": "contracts/mspell/mSpellSender.sol:mSpellSender",
            "label": "chainIdLZ",
            "offset": 24,
            "slot": "0",
            "type": "t_uint32"
          },
          {
            "astId": 2268,
            "contract": "contracts/mspell/mSpellSender.sol:mSpellSender",
            "label": "lastUpdated",
            "offset": 28,
            "slot": "0",
            "type": "t_uint32"
          },
          {
            "astId": 2270,
            "contract": "contracts/mspell/mSpellSender.sol:mSpellSender",
            "label": "amountStaked",
            "offset": 0,
            "slot": "1",
            "type": "t_uint128"
          }
        ],
        "numberOfBytes": "64"
      },
      "t_uint128": {
        "encoding": "inplace",
        "label": "uint128",
        "numberOfBytes": "16"
      },
      "t_uint256": {
        "encoding": "inplace",
        "label": "uint256",
        "numberOfBytes": "32"
      },
      "t_uint32": {
        "encoding": "inplace",
        "label": "uint32",
        "numberOfBytes": "4"
      },
      "t_uint8": {
        "encoding": "inplace",
        "label": "uint8",
        "numberOfBytes": "1"
      }
    }
  }
}