{
  "address": "0x54c80f1c4718E3E6df71b83BB9Cb389EC41F07a5",
  "abi": [
    {
      "inputs": [],
      "stateMutability": "nonpayable",
      "type": "constructor"
    },
    {
      "inputs": [],
      "name": "NotNoon",
      "type": "error"
    },
    {
      "inputs": [],
      "name": "NotPastNoon",
      "type": "error"
    },
    {
      "inputs": [
        {
          "internalType": "uint256",
          "name": "",
          "type": "uint256"
        }
      ],
      "name": "NotUpdated",
      "type": "error"
    },
    {
      "anonymous": false,
      "inputs": [
        {
          "indexed": true,
          "internalType": "address",
          "name": "recipient",
          "type": "address"
        },
        {
          "indexed": false,
          "internalType": "uint256",
          "name": "chainId",
          "type": "uint256"
        },
        {
          "indexed": false,
          "internalType": "uint256",
          "name": "chainIdLZ",
          "type": "uint256"
        }
      ],
      "name": "LogAddRecipient",
      "type": "event"
    },
    {
      "anonymous": false,
      "inputs": [
        {
          "indexed": true,
          "internalType": "address",
          "name": "recipient",
          "type": "address"
        },
        {
          "indexed": false,
          "internalType": "uint256",
          "name": "amount",
          "type": "uint256"
        },
        {
          "indexed": false,
          "internalType": "uint256",
          "name": "chainId",
          "type": "uint256"
        }
      ],
      "name": "LogBridgeToRecipient",
      "type": "event"
    },
    {
      "anonymous": false,
      "inputs": [
        {
          "indexed": false,
          "internalType": "address",
          "name": "_purchaser",
          "type": "address"
        },
        {
          "indexed": false,
          "internalType": "address",
          "name": "_treasury",
          "type": "address"
        },
        {
          "indexed": false,
          "internalType": "uint256",
          "name": "_treasuryPercentage",
          "type": "uint256"
        }
      ],
      "name": "LogChangePurchaser",
      "type": "event"
    },
    {
      "anonymous": false,
      "inputs": [
        {
          "indexed": true,
          "internalType": "address",
          "name": "operator",
          "type": "address"
        },
        {
          "indexed": false,
          "internalType": "bool",
          "name": "status",
          "type": "bool"
        }
      ],
      "name": "LogSetOperator",
      "type": "event"
    },
    {
      "anonymous": false,
      "inputs": [
        {
          "indexed": false,
          "internalType": "uint256",
          "name": "chainIdLZ",
          "type": "uint256"
        },
        {
          "indexed": true,
          "internalType": "address",
          "name": "reporter",
          "type": "address"
        }
      ],
      "name": "LogSetReporter",
      "type": "event"
    },
    {
      "anonymous": false,
      "inputs": [
        {
          "indexed": false,
          "internalType": "uint16",
          "name": "srcChainId",
          "type": "uint16"
        },
        {
          "indexed": true,
          "internalType": "address",
          "name": "fromAddress",
          "type": "address"
        },
        {
          "indexed": false,
          "internalType": "uint32",
          "name": "timestamp",
          "type": "uint32"
        },
        {
          "indexed": false,
          "internalType": "uint128",
          "name": "amount",
          "type": "uint128"
        }
      ],
      "name": "LogSpellStakedReceived",
      "type": "event"
    },
    {
      "anonymous": false,
      "inputs": [
        {
          "indexed": true,
          "internalType": "address",
          "name": "previousOwner",
          "type": "address"
        },
        {
          "indexed": true,
          "internalType": "address",
          "name": "newOwner",
          "type": "address"
        }
      ],
      "name": "OwnershipTransferred",
      "type": "event"
    },
    {
      "inputs": [
        {
          "internalType": "address",
          "name": "recipient",
          "type": "address"
        },
        {
          "internalType": "uint256",
          "name": "chainId",
          "type": "uint256"
        },
        {
          "internalType": "uint256",
          "name": "chainIdLZ",
          "type": "uint256"
        }
      ],
      "name": "addMSpellRecipient",
      "outputs": [],
      "stateMutability": "nonpayable",
      "type": "function"
    },
    {
      "inputs": [
        {
          "internalType": "address",
          "name": "reporter",
          "type": "address"
        },
        {
          "internalType": "uint256",
          "name": "chainIdLZ",
          "type": "uint256"
        }
      ],
      "name": "addReporter",
      "outputs": [],
      "stateMutability": "nonpayable",
      "type": "function"
    },
    {
      "inputs": [],
      "name": "bridgeMim",
      "outputs": [],
      "stateMutability": "nonpayable",
      "type": "function"
    },
    {
      "inputs": [
        {
          "internalType": "address",
          "name": "_purchaser",
          "type": "address"
        },
        {
          "internalType": "address",
          "name": "_treasury",
          "type": "address"
        },
        {
          "internalType": "uint256",
          "name": "_treasuryPercentage",
          "type": "uint256"
        }
      ],
      "name": "changePurchaser",
      "outputs": [],
      "stateMutability": "nonpayable",
      "type": "function"
    },
    {
      "inputs": [],
      "name": "claimOwnership",
      "outputs": [],
      "stateMutability": "nonpayable",
      "type": "function"
    },
    {
      "inputs": [
        {
          "internalType": "uint256",
          "name": "",
          "type": "uint256"
        }
      ],
      "name": "isActiveChain",
      "outputs": [
        {
          "internalType": "uint8",
          "name": "isActive",
          "type": "uint8"
        },
        {
          "internalType": "uint32",
          "name": "position",
          "type": "uint32"
        }
      ],
      "stateMutability": "view",
      "type": "function"
    },
    {
      "inputs": [
        {
          "internalType": "address",
          "name": "",
          "type": "address"
        }
      ],
      "name": "isOperator",
      "outputs": [
        {
          "internalType": "bool",
          "name": "",
          "type": "bool"
        }
      ],
      "stateMutability": "view",
      "type": "function"
    },
    {
      "inputs": [
        {
          "internalType": "uint16",
          "name": "_srcChainId",
          "type": "uint16"
        },
        {
          "internalType": "bytes",
          "name": "_srcAddress",
          "type": "bytes"
        },
        {
          "internalType": "uint64",
          "name": "",
          "type": "uint64"
        },
        {
          "internalType": "bytes",
          "name": "_payload",
          "type": "bytes"
        }
      ],
      "name": "lzReceive",
      "outputs": [],
      "stateMutability": "nonpayable",
      "type": "function"
    },
    {
      "inputs": [
        {
          "internalType": "uint256",
          "name": "",
          "type": "uint256"
        }
      ],
      "name": "mSpellReporter",
      "outputs": [
        {
          "internalType": "address",
          "name": "",
          "type": "address"
        }
      ],
      "stateMutability": "view",
      "type": "function"
    },
    {
      "inputs": [],
      "name": "owner",
      "outputs": [
        {
          "internalType": "address",
          "name": "",
          "type": "address"
        }
      ],
      "stateMutability": "view",
      "type": "function"
    },
    {
      "inputs": [],
      "name": "pendingOwner",
      "outputs": [
        {
          "internalType": "address",
          "name": "",
          "type": "address"
        }
      ],
      "stateMutability": "view",
      "type": "function"
    },
    {
      "inputs": [
        {
          "internalType": "uint256",
          "name": "",
          "type": "uint256"
        }
      ],
      "name": "recipients",
      "outputs": [
        {
          "internalType": "address",
          "name": "recipient",
          "type": "address"
        },
        {
          "internalType": "uint32",
          "name": "chainId",
          "type": "uint32"
        },
        {
          "internalType": "uint32",
          "name": "chainIdLZ",
          "type": "uint32"
        },
        {
          "internalType": "uint32",
          "name": "lastUpdated",
          "type": "uint32"
        },
        {
          "internalType": "uint128",
          "name": "amountStaked",
          "type": "uint128"
        }
      ],
      "stateMutability": "view",
      "type": "function"
    },
    {
      "inputs": [
        {
          "internalType": "address",
          "name": "operator",
          "type": "address"
        },
        {
          "internalType": "bool",
          "name": "status",
          "type": "bool"
        }
      ],
      "name": "setOperator",
      "outputs": [],
      "stateMutability": "nonpayable",
      "type": "function"
    },
    {
      "inputs": [],
      "name": "sspellBuyBack",
      "outputs": [
        {
          "internalType": "address",
          "name": "",
          "type": "address"
        }
      ],
      "stateMutability": "view",
      "type": "function"
    },
    {
      "inputs": [
        {
          "internalType": "address",
          "name": "newOwner",
          "type": "address"
        },
        {
          "internalType": "bool",
          "name": "direct",
          "type": "bool"
        },
        {
          "internalType": "bool",
          "name": "renounce",
          "type": "bool"
        }
      ],
      "name": "transferOwnership",
      "outputs": [],
      "stateMutability": "nonpayable",
      "type": "function"
    },
    {
      "inputs": [
        {
          "internalType": "address",
          "name": "newOwner",
          "type": "address"
        }
      ],
      "name": "transferWithdrawer",
      "outputs": [],
      "stateMutability": "nonpayable",
      "type": "function"
    },
    {
      "inputs": [],
      "name": "treasury",
      "outputs": [
        {
          "internalType": "address",
          "name": "",
          "type": "address"
        }
      ],
      "stateMutability": "view",
      "type": "function"
    },
    {
      "inputs": [],
      "name": "treasuryPercentage",
      "outputs": [
        {
          "internalType": "uint256",
          "name": "",
          "type": "uint256"
        }
      ],
      "stateMutability": "view",
      "type": "function"
    }
  ],
  "transactionHash": "0xaca0359721ea10c6d3ae721efe27fa27f757ee6fe858c2b7446dfdd799122ba7",
  "args": [],
  "numDeployments": 3,
  "solcInputHash": "a3de8c8ba7b42943472df348438e7222",
  "bytecode": "0x6080604052600280546001600160a01b031990811673fddfe525054efaad204600d00ca86adb1cc2ea8a179091556003805490911673df2c270f610dc35d8ffda5b453e74db5471e126b179055601960045534801561005d57600080fd5b50600080546001600160a01b0319163390811782556040519091907f8be0079c531659141344cd1fd0a4f28419497f9722a3daafe3b4186f6b6457e0908290a360405163095ea7b360e01b815273bbc4a8d076f4b1888fec42581b6fc58d242cf2d5600482015260001960248201527399d8a9c45b2eca8864373a26d1459e3dff1e17f39063095ea7b3906044016020604051808303816000875af115801561010a573d6000803e3d6000fd5b505050506040513d601f19601f8201168201806040525081019061012e9190610134565b5061015d565b60006020828403121561014657600080fd5b8151801515811461015657600080fd5b9392505050565b611d77806200016d6000396000f3fe608060405234801561001057600080fd5b50600436106101355760003560e01c80636d70f7ae116100b2578063d1bc76a111610081578063e909e18111610066578063e909e181146102cb578063e9f850cf146102f4578063ee3cd7211461030757600080fd5b8063d1bc76a11461025e578063e30c3978146102b857600080fd5b80636d70f7ae146101f95780637ab560831461022c57806385bffc84146102435780638da5cb5b1461024b57600080fd5b80634e71e0c81161010957806359030dbb116100ee57806359030dbb146101a35780635e4523ae146101b657806361d027b3146101e657600080fd5b80634e71e0c814610188578063558a72971461019057600080fd5b80621d35671461013a578063078dfbe71461014f5780630daf9c1e1461016257806336df3eae14610175575b600080fd5b61014d61014836600461183e565b610355565b005b61014d61015d36600461196d565b6104fc565b61014d6101703660046119b6565b610648565b61014d6101833660046119d8565b610720565b61014d6109b3565b61014d61019e366004611a0b565b610a70565b61014d6101b1366004611a42565b610b2a565b6002546101c9906001600160a01b031681565b6040516001600160a01b0390911681526020015b60405180910390f35b6003546101c9906001600160a01b031681565b61021c6102073660046119b6565b60086020526000908152604090205460ff1681565b60405190151581526020016101dd565b61023560045481565b6040519081526020016101dd565b61014d610bdf565b6000546101c9906001600160a01b031681565b61027161026c366004611a6c565b6114f5565b604080516001600160a01b03909616865263ffffffff9485166020870152928416928501929092529190911660608301526001600160801b0316608082015260a0016101dd565b6001546101c9906001600160a01b031681565b6101c96102d9366004611a6c565b6007602052600090815260409020546001600160a01b031681565b61014d610302366004611a85565b61155a565b610337610315366004611a6c565b60066020526000908152604090205460ff811690610100900463ffffffff1682565b6040805160ff909316835263ffffffff9091166020830152016101dd565b60006018610365610e1042611aed565b61036f9190611b01565b905080600c146103915760405162faa44560e61b815260040160405180910390fd5b337366a71dcef29a0ffbdbe3c6a460a3b5bc225cd675146103b157600080fd5b61ffff86166000908152600660205260408120546005805461010090920463ffffffff169291839081106103e7576103e7611b15565b6000918252602080832060148b015161ffff8d1685526007909252604090932054600290920290920192506001600160a01b0380831691161461042957600080fd5b60008061043887890189611b2b565b6001860180546001600160801b0383166fffffffffffffffffffffffffffffffff19909116179055855463ffffffff8316600160e01b026001600160e01b0390911617865560405191935091506001600160a01b038416907fe0d8ef8074a6e02ddc0b4a702390e047ac21fd4c63687002b6846bb780287a56906104e7908e908690869061ffff93909316835263ffffffff9190911660208301526001600160801b0316604082015260600190565b60405180910390a25050505050505050505050565b6000546001600160a01b0316331461055b5760405162461bcd60e51b815260206004820181905260248201527f4f776e61626c653a2063616c6c6572206973206e6f7420746865206f776e657260448201526064015b60405180910390fd5b8115610626576001600160a01b0383161515806105755750805b6105c15760405162461bcd60e51b815260206004820152601560248201527f4f776e61626c653a207a65726f206164647265737300000000000000000000006044820152606401610552565b600080546040516001600160a01b03808716939216917f8be0079c531659141344cd1fd0a4f28419497f9722a3daafe3b4186f6b6457e091a3600080546001600160a01b0385166001600160a01b031991821617909155600180549091169055505050565b600180546001600160a01b0385166001600160a01b0319909116179055505050565b6000546001600160a01b031633146106a25760405162461bcd60e51b815260206004820181905260248201527f4f776e61626c653a2063616c6c6572206973206e6f7420746865206f776e65726044820152606401610552565b60405163078dfbe760e01b81526001600160a01b0382166004820152600160248201526000604482015273b2c3a9c577068479b1e5119f6b7da98d25ba48f49063078dfbe790606401600060405180830381600087803b15801561070557600080fd5b505af1158015610719573d6000803e3d6000fd5b5050505050565b6000546001600160a01b0316331461077a5760405162461bcd60e51b815260206004820181905260248201527f4f776e61626c653a2063616c6c6572206973206e6f7420746865206f776e65726044820152606401610552565b60008181526006602052604090205460ff16156107d95760405162461bcd60e51b815260206004820152601560248201527f636861696e496420616c726561647920616464656400000000000000000000006044820152606401610552565b60058054604080518082018252600180825263ffffffff808516602080850191825260008981526006825286812095518654935185166101000264ffffffffff1990941660ff919091161792909217909455845160a0810186526001600160a01b03808c168083528b85169683019687528a851683890190815260608401858152608085018681528c549889018d559b909552925160029096027f036b6384b5eca791c62761152d0c79bb0604c104a5fb6f4eb0703f3154bb3db0810180549851945195518716600160e01b026001600160e01b03968816600160c01b029690961677ffffffffffffffffffffffffffffffffffffffffffffffff95909716600160a01b027fffffffffffffffff000000000000000000000000000000000000000000000000909916979093169690961796909617919091169290921717905593517f036b6384b5eca791c62761152d0c79bb0604c104a5fb6f4eb0703f3154bb3db190940180546001600160801b03959095166fffffffffffffffffffffffffffffffff1990951694909417909355519091907fb64102a4611dd2eb58cfdb000b0fdd03770ae5c3220bd030b06b9a65004af28f906109a59086908690918252602082015260400190565b60405180910390a250505050565b6001546001600160a01b0316338114610a0e5760405162461bcd60e51b815260206004820181905260248201527f4f776e61626c653a2063616c6c657220213d2070656e64696e67206f776e65726044820152606401610552565b600080546040516001600160a01b03808516939216917f8be0079c531659141344cd1fd0a4f28419497f9722a3daafe3b4186f6b6457e091a3600080546001600160a01b039092166001600160a01b0319928316179055600180549091169055565b6000546001600160a01b03163314610aca5760405162461bcd60e51b815260206004820181905260248201527f4f776e61626c653a2063616c6c6572206973206e6f7420746865206f776e65726044820152606401610552565b6001600160a01b038216600081815260086020908152604091829020805460ff191685151590811790915591519182527f93e5d6cb35b685fc6ad29826c16b672bdafd1df5b405459f5a33039c94f14dff91015b60405180910390a25050565b6000546001600160a01b03163314610b845760405162461bcd60e51b815260206004820181905260248201527f4f776e61626c653a2063616c6c6572206973206e6f7420746865206f776e65726044820152606401610552565b60008181526007602090815260409182902080546001600160a01b0319166001600160a01b03861690811790915591518381527f8419ea90414db87493e1e23bbc2be8cc81cb16d1e3190f150fc86773930a63229101610b1e565b60006018610bef610e1042611aed565b610bf99190611b01565b905080600d14610c1c57604051631625ed7f60e21b815260040160405180910390fd5b6040516370a0823160e01b815273b2c3a9c577068479b1e5119f6b7da98d25ba48f4600482015260009081907399d8a9c45b2eca8864373a26d1459e3dff1e17f3906370a0823190602401602060405180830381865afa158015610c84573d6000803e3d6000fd5b505050506040513d601f19601f82011682018060405250810190610ca89190611b6e565b90506000606460045483610cbc9190611b87565b610cc69190611aed565b610cd09083611ba6565b60405163cea9d26f60e01b81527399d8a9c45b2eca8864373a26d1459e3dff1e17f360048201523060248201526044810182905290915073b2c3a9c577068479b1e5119f6b7da98d25ba48f49063cea9d26f90606401600060405180830381600087803b158015610d4057600080fd5b505af1158015610d54573d6000803e3d6000fd5b505060035460045473b2c3a9c577068479b1e5119f6b7da98d25ba48f4935063cea9d26f92507399d8a9c45b2eca8864373a26d1459e3dff1e17f3916001600160a01b031690606490610da79088611b87565b610db19190611aed565b6040516001600160e01b031960e086901b1681526001600160a01b0393841660048201529290911660248301526044820152606401600060405180830381600087803b158015610e0057600080fd5b505af1158015610e14573d6000803e3d6000fd5b505050506000610e234261162f565b6040516370a0823160e01b81527326fa3fffb6efe8c1e69103acb4044c26b9a106a9600482015290915060009073090185f2135308bad17527004364ebcc2d37e5f6906370a0823190602401602060405180830381865afa158015610e8c573d6000803e3d6000fd5b505050506040513d601f19601f82011682018060405250810190610eb09190611b6e565b600554909150600090815b818110156110a15760058181548110610ed657610ed6611b15565b6000918252602090912060029091020154600160a01b900463ffffffff16600114610fc75760058181548110610f0e57610f0e611b15565b6000918252602090912060016002909202010154610f35906001600160801b031689611bbd565b975084610f7160058381548110610f4e57610f4e611b15565b6000918252602090912060029091020154600160e01b900463ffffffff1661162f565b14610fc25760058181548110610f8957610f89611b15565b600091825260209091206002909102015460405163171e87a760e21b8152600160a01b90910463ffffffff166004820152602401610552565b61108f565b73090185f2135308bad17527004364ebcc2d37e5f66001600160a01b03166370a0823160058381548110610ffd57610ffd611b15565b600091825260209091206002909102015460405160e083901b6001600160e01b03191681526001600160a01b039091166004820152602401602060405180830381865afa158015611052573d6000803e3d6000fd5b505050506040513d601f19601f820116820180604052508101906110769190611b6e565b92506110828484611bbd565b61108c9089611bbd565b97505b8061109981611bd5565b915050610ebb565b5060005b818110156114ea57600581815481106110c0576110c0611b15565b6000918252602090912060029091020154600160a01b900463ffffffff166001146112e857600088600583815481106110fb576110fb611b15565b6000918252602090912060016002909202010154611122906001600160801b031689611b87565b61112c9190611aed565b905080156112e257736b7a87899490ece95443e979ca9485cbe7e715226001600160a01b031663edbdf5e273bbc4a8d076f4b1888fec42581b6fc58d242cf2d56005858154811061117f5761117f611b15565b906000526020600020906002020160000160009054906101000a90046001600160a01b031684600587815481106111b8576111b8611b15565b600091825260209091206002909102015460405160e086901b6001600160e01b03191681526001600160a01b0394851660048201529390921660248401526044830152600160a01b900463ffffffff166064820152608401600060405180830381600087803b15801561122a57600080fd5b505af115801561123e573d6000803e3d6000fd5b505050506005828154811061125557611255611b15565b6000918252602090912060029091020154600580546001600160a01b03909216917fceaf82a0ff5bb3694b4434c66eff6741465c1a502542e441113e2f554cfe7156918491869081106112aa576112aa611b15565b60009182526020918290206002909102015460408051938452600160a01b90910463ffffffff16918301919091520160405180910390a25b506114d8565b6000886112f58589611b87565b6112ff9190611aed565b905060008961130e878a611b87565b6113189190611aed565b90507399d8a9c45b2eca8864373a26d1459e3dff1e17f36001600160a01b031663a9059cbb6005858154811061135057611350611b15565b600091825260209091206002909102015460405160e083901b6001600160e01b03191681526001600160a01b039091166004820152602481018590526044016020604051808303816000875af11580156113ae573d6000803e3d6000fd5b505050506040513d601f19601f820116820180604052508101906113d29190611bf0565b50600583815481106113e6576113e6611b15565b60009182526020822060029091020154604080516379b6053960e11b815290516001600160a01b039092169263f36c0a729260048084019382900301818387803b15801561143357600080fd5b505af1158015611447573d6000803e3d6000fd5b505060025460405163a9059cbb60e01b81526001600160a01b039091166004820152602481018490527399d8a9c45b2eca8864373a26d1459e3dff1e17f3925063a9059cbb91506044016020604051808303816000875af11580156114b0573d6000803e3d6000fd5b505050506040513d601f19601f820116820180604052508101906114d49190611bf0565b5050505b806114e281611bd5565b9150506110a5565b505050505050505050565b6005818154811061150557600080fd5b6000918252602090912060029091020180546001909101546001600160a01b038216925063ffffffff600160a01b8304811692600160c01b8104821692600160e01b909104909116906001600160801b031685565b6000546001600160a01b031633146115b45760405162461bcd60e51b815260206004820181905260248201527f4f776e61626c653a2063616c6c6572206973206e6f7420746865206f776e65726044820152606401610552565b600280546001600160a01b038581166001600160a01b0319928316811790935560038054918616919092168117909155600483905560408051928352602083019190915281018290527fe56c270b94c3acf065cbe14b25675de866cd9381a298b6d30d7c5526b317cbac9060600160405180910390a1505050565b60006116466116416201518084611aed565b61164e565b949350505050565b60008080838162253d8c6116658362010bd9611c0d565b61166f9190611c0d565b9050600062023ab1611682836004611c4d565b61168c9190611cd4565b9050600461169d8262023ab1611c4d565b6116a8906003611c0d565b6116b29190611cd4565b6116bc9083611d02565b9150600062164b096116cf846001611c0d565b6116db90610fa0611c4d565b6116e59190611cd4565b905060046116f5826105b5611c4d565b6116ff9190611cd4565b6117099084611d02565b61171490601f611c0d565b9250600061098f611726856050611c4d565b6117309190611cd4565b9050600060506117428361098f611c4d565b61174c9190611cd4565b6117569086611d02565b9050611763600b83611cd4565b945061177085600c611c4d565b61177b836002611c0d565b6117859190611d02565b91508483611794603187611d02565b61179f906064611c4d565b6117a99190611c0d565b6117b39190611c0d565b9a919950975095505050505050565b634e487b7160e01b600052604160045260246000fd5b803567ffffffffffffffff811681146117f057600080fd5b919050565b60008083601f84011261180757600080fd5b50813567ffffffffffffffff81111561181f57600080fd5b60208301915083602082850101111561183757600080fd5b9250929050565b60008060008060006080868803121561185657600080fd5b853561ffff8116811461186857600080fd5b9450602086013567ffffffffffffffff8082111561188557600080fd5b818801915088601f83011261189957600080fd5b8135818111156118ab576118ab6117c2565b604051601f8201601f19908116603f011681019083821181831017156118d3576118d36117c2565b816040528281528b60208487010111156118ec57600080fd5b82602086016020830137600060208483010152809850505050611911604089016117d8565b9450606088013591508082111561192757600080fd5b50611934888289016117f5565b969995985093965092949392505050565b80356001600160a01b03811681146117f057600080fd5b801515811461196a57600080fd5b50565b60008060006060848603121561198257600080fd5b61198b84611945565b9250602084013561199b8161195c565b915060408401356119ab8161195c565b809150509250925092565b6000602082840312156119c857600080fd5b6119d182611945565b9392505050565b6000806000606084860312156119ed57600080fd5b6119f684611945565b95602085013595506040909401359392505050565b60008060408385031215611a1e57600080fd5b611a2783611945565b91506020830135611a378161195c565b809150509250929050565b60008060408385031215611a5557600080fd5b611a5e83611945565b946020939093013593505050565b600060208284031215611a7e57600080fd5b5035919050565b600080600060608486031215611a9a57600080fd5b611aa384611945565b9250611ab160208501611945565b9150604084013590509250925092565b634e487b7160e01b600052601260045260246000fd5b634e487b7160e01b600052601160045260246000fd5b600082611afc57611afc611ac1565b500490565b600082611b1057611b10611ac1565b500690565b634e487b7160e01b600052603260045260246000fd5b60008060408385031215611b3e57600080fd5b823563ffffffff81168114611b5257600080fd5b915060208301356001600160801b0381168114611a3757600080fd5b600060208284031215611b8057600080fd5b5051919050565b6000816000190483118215151615611ba157611ba1611ad7565b500290565b600082821015611bb857611bb8611ad7565b500390565b60008219821115611bd057611bd0611ad7565b500190565b6000600019821415611be957611be9611ad7565b5060010190565b600060208284031215611c0257600080fd5b81516119d18161195c565b6000808212826001600160ff1b0303841381151615611c2e57611c2e611ad7565b600160ff1b8390038412811615611c4757611c47611ad7565b50500190565b60006001600160ff1b03600084136000841385830485118282161615611c7557611c75611ad7565b600160ff1b6000871282811687830589121615611c9457611c94611ad7565b60008712925087820587128484161615611cb057611cb0611ad7565b87850587128184161615611cc657611cc6611ad7565b505050929093029392505050565b600082611ce357611ce3611ac1565b600160ff1b821460001984141615611cfd57611cfd611ad7565b500590565b60008083128015600160ff1b850184121615611d2057611d20611ad7565b836001600160ff1b03018313811615611d3b57611d3b611ad7565b5050039056fea26469706673582212201c4d1c08af72db86feaa29629ce0e11edae6526f0dac28d524191a09b5612ace64736f6c634300080a0033",
  "devdoc": {
    "kind": "dev",
    "methods": {
      "transferOwnership(address,bool,bool)": {
        "params": {
          "direct": "True if `newOwner` should be set immediately. False if `newOwner` needs to use `claimOwnership`.",
          "newOwner": "Address of the new owner.",
          "renounce": "Allows the `newOwner` to be `address(0)` if `direct` and `renounce` is True. Has no effect otherwise."
        }
      }
    },
    "version": 1
  },
  "userdoc": {
    "events": {
      "LogSetOperator(address,bool)": {
        "notice": "EVENTS"
      }
    },
    "kind": "user",
    "methods": {
      "claimOwnership()": {
        "notice": "Needs to be called by `pendingOwner` to claim ownership."
      },
      "transferOwnership(address,bool,bool)": {
        "notice": "Transfers ownership to `newOwner`. Either directly or claimable by the new pending owner. Can only be invoked by the current `owner`."
      }
    },
    "version": 1
  },
  "storageLayout": {
    "storage": [
      {
        "astId": 5642,
        "contract": "contracts/mspell/mSpellSender.sol:mSpellSender",
        "label": "owner",
        "offset": 0,
        "slot": "0",
        "type": "t_address"
      },
      {
        "astId": 5644,
        "contract": "contracts/mspell/mSpellSender.sol:mSpellSender",
        "label": "pendingOwner",
        "offset": 0,
        "slot": "1",
        "type": "t_address"
      },
      {
        "astId": 9051,
        "contract": "contracts/mspell/mSpellSender.sol:mSpellSender",
        "label": "sspellBuyBack",
        "offset": 0,
        "slot": "2",
        "type": "t_address"
      },
      {
        "astId": 9054,
        "contract": "contracts/mspell/mSpellSender.sol:mSpellSender",
        "label": "treasury",
        "offset": 0,
        "slot": "3",
        "type": "t_address"
      },
      {
        "astId": 9057,
        "contract": "contracts/mspell/mSpellSender.sol:mSpellSender",
        "label": "treasuryPercentage",
        "offset": 0,
        "slot": "4",
        "type": "t_uint256"
      },
      {
        "astId": 9080,
        "contract": "contracts/mspell/mSpellSender.sol:mSpellSender",
        "label": "recipients",
        "offset": 0,
        "slot": "5",
        "type": "t_array(t_struct(MSpellRecipients)9071_storage)dyn_storage"
      },
      {
        "astId": 9085,
        "contract": "contracts/mspell/mSpellSender.sol:mSpellSender",
        "label": "isActiveChain",
        "offset": 0,
        "slot": "6",
        "type": "t_mapping(t_uint256,t_struct(ActiveChain)9076_storage)"
      },
      {
        "astId": 9089,
        "contract": "contracts/mspell/mSpellSender.sol:mSpellSender",
        "label": "mSpellReporter",
        "offset": 0,
        "slot": "7",
        "type": "t_mapping(t_uint256,t_address)"
      },
      {
        "astId": 9093,
        "contract": "contracts/mspell/mSpellSender.sol:mSpellSender",
        "label": "isOperator",
        "offset": 0,
        "slot": "8",
        "type": "t_mapping(t_address,t_bool)"
      }
    ],
    "types": {
      "t_address": {
        "encoding": "inplace",
        "label": "address",
        "numberOfBytes": "20"
      },
      "t_array(t_struct(MSpellRecipients)9071_storage)dyn_storage": {
        "base": "t_struct(MSpellRecipients)9071_storage",
        "encoding": "dynamic_array",
        "label": "struct mSpellSender.MSpellRecipients[]",
        "numberOfBytes": "32"
      },
      "t_bool": {
        "encoding": "inplace",
        "label": "bool",
        "numberOfBytes": "1"
      },
      "t_mapping(t_address,t_bool)": {
        "encoding": "mapping",
        "key": "t_address",
        "label": "mapping(address => bool)",
        "numberOfBytes": "32",
        "value": "t_bool"
      },
      "t_mapping(t_uint256,t_address)": {
        "encoding": "mapping",
        "key": "t_uint256",
        "label": "mapping(uint256 => address)",
        "numberOfBytes": "32",
        "value": "t_address"
      },
      "t_mapping(t_uint256,t_struct(ActiveChain)9076_storage)": {
        "encoding": "mapping",
        "key": "t_uint256",
        "label": "mapping(uint256 => struct mSpellSender.ActiveChain)",
        "numberOfBytes": "32",
        "value": "t_struct(ActiveChain)9076_storage"
      },
      "t_struct(ActiveChain)9076_storage": {
        "encoding": "inplace",
        "label": "struct mSpellSender.ActiveChain",
        "members": [
          {
            "astId": 9073,
            "contract": "contracts/mspell/mSpellSender.sol:mSpellSender",
            "label": "isActive",
            "offset": 0,
            "slot": "0",
            "type": "t_uint8"
          },
          {
            "astId": 9075,
            "contract": "contracts/mspell/mSpellSender.sol:mSpellSender",
            "label": "position",
            "offset": 1,
            "slot": "0",
            "type": "t_uint32"
          }
        ],
        "numberOfBytes": "32"
      },
      "t_struct(MSpellRecipients)9071_storage": {
        "encoding": "inplace",
        "label": "struct mSpellSender.MSpellRecipients",
        "members": [
          {
            "astId": 9062,
            "contract": "contracts/mspell/mSpellSender.sol:mSpellSender",
            "label": "recipient",
            "offset": 0,
            "slot": "0",
            "type": "t_address"
          },
          {
            "astId": 9064,
            "contract": "contracts/mspell/mSpellSender.sol:mSpellSender",
            "label": "chainId",
            "offset": 20,
            "slot": "0",
            "type": "t_uint32"
          },
          {
            "astId": 9066,
            "contract": "contracts/mspell/mSpellSender.sol:mSpellSender",
            "label": "chainIdLZ",
            "offset": 24,
            "slot": "0",
            "type": "t_uint32"
          },
          {
            "astId": 9068,
            "contract": "contracts/mspell/mSpellSender.sol:mSpellSender",
            "label": "lastUpdated",
            "offset": 28,
            "slot": "0",
            "type": "t_uint32"
          },
          {
            "astId": 9070,
            "contract": "contracts/mspell/mSpellSender.sol:mSpellSender",
            "label": "amountStaked",
            "offset": 0,
            "slot": "1",
            "type": "t_uint128"
          }
        ],
        "numberOfBytes": "64"
      },
      "t_uint128": {
        "encoding": "inplace",
        "label": "uint128",
        "numberOfBytes": "16"
      },
      "t_uint256": {
        "encoding": "inplace",
        "label": "uint256",
        "numberOfBytes": "32"
      },
      "t_uint32": {
        "encoding": "inplace",
        "label": "uint32",
        "numberOfBytes": "4"
      },
      "t_uint8": {
        "encoding": "inplace",
        "label": "uint8",
        "numberOfBytes": "1"
      }
    }
  }
}