{
  "address": "0x88e9cB153df9b8c46Bd0c99081Fc5E6C67149863",
  "abi": [
    {
      "inputs": [],
      "stateMutability": "nonpayable",
      "type": "constructor"
    },
    {
      "anonymous": false,
      "inputs": [
        {
          "indexed": true,
          "internalType": "address",
          "name": "recipient",
          "type": "address"
        },
        {
          "indexed": false,
          "internalType": "uint256",
          "name": "chainId",
          "type": "uint256"
        }
      ],
      "name": "LogAddRecipient",
      "type": "event"
    },
    {
      "anonymous": false,
      "inputs": [
        {
          "indexed": true,
          "internalType": "address",
          "name": "recipient",
          "type": "address"
        },
        {
          "indexed": false,
          "internalType": "uint256",
          "name": "amount",
          "type": "uint256"
        },
        {
          "indexed": false,
          "internalType": "uint256",
          "name": "chainId",
          "type": "uint256"
        }
      ],
      "name": "LogBridgeToRecipient",
      "type": "event"
    },
    {
      "anonymous": false,
      "inputs": [
        {
          "indexed": true,
          "internalType": "address",
          "name": "operator",
          "type": "address"
        },
        {
          "indexed": false,
          "internalType": "bool",
          "name": "status",
          "type": "bool"
        }
      ],
      "name": "LogSetOperator",
      "type": "event"
    },
    {
      "anonymous": false,
      "inputs": [
        {
          "indexed": true,
          "internalType": "address",
          "name": "previousOwner",
          "type": "address"
        },
        {
          "indexed": true,
          "internalType": "address",
          "name": "newOwner",
          "type": "address"
        }
      ],
      "name": "OwnershipTransferred",
      "type": "event"
    },
    {
      "inputs": [
        {
          "internalType": "address",
          "name": "recipient",
          "type": "address"
        },
        {
          "internalType": "uint256",
          "name": "chainId",
          "type": "uint256"
        }
      ],
      "name": "addMSpellRecipient",
      "outputs": [],
      "stateMutability": "nonpayable",
      "type": "function"
    },
    {
      "inputs": [
        {
          "internalType": "uint256[]",
          "name": "ratios",
          "type": "uint256[]"
        }
      ],
      "name": "bridgeMim",
      "outputs": [],
      "stateMutability": "nonpayable",
      "type": "function"
    },
    {
      "inputs": [],
      "name": "claimOwnership",
      "outputs": [],
      "stateMutability": "nonpayable",
      "type": "function"
    },
    {
      "inputs": [
        {
          "internalType": "uint256",
          "name": "",
          "type": "uint256"
        }
      ],
      "name": "isActiveChain",
      "outputs": [
        {
          "internalType": "bool",
          "name": "",
          "type": "bool"
        }
      ],
      "stateMutability": "view",
      "type": "function"
    },
    {
      "inputs": [
        {
          "internalType": "address",
          "name": "",
          "type": "address"
        }
      ],
      "name": "isOperator",
      "outputs": [
        {
          "internalType": "bool",
          "name": "",
          "type": "bool"
        }
      ],
      "stateMutability": "view",
      "type": "function"
    },
    {
      "inputs": [],
      "name": "owner",
      "outputs": [
        {
          "internalType": "address",
          "name": "",
          "type": "address"
        }
      ],
      "stateMutability": "view",
      "type": "function"
    },
    {
      "inputs": [],
      "name": "pendingOwner",
      "outputs": [
        {
          "internalType": "address",
          "name": "",
          "type": "address"
        }
      ],
      "stateMutability": "view",
      "type": "function"
    },
    {
      "inputs": [
        {
          "internalType": "uint256",
          "name": "",
          "type": "uint256"
        }
      ],
      "name": "recipients",
      "outputs": [
        {
          "internalType": "address",
          "name": "recipient",
          "type": "address"
        },
        {
          "internalType": "uint256",
          "name": "chainId",
          "type": "uint256"
        }
      ],
      "stateMutability": "view",
      "type": "function"
    },
    {
      "inputs": [
        {
          "internalType": "address",
          "name": "operator",
          "type": "address"
        },
        {
          "internalType": "bool",
          "name": "status",
          "type": "bool"
        }
      ],
      "name": "setOperator",
      "outputs": [],
      "stateMutability": "nonpayable",
      "type": "function"
    },
    {
      "inputs": [
        {
          "internalType": "address",
          "name": "newOwner",
          "type": "address"
        },
        {
          "internalType": "bool",
          "name": "direct",
          "type": "bool"
        },
        {
          "internalType": "bool",
          "name": "renounce",
          "type": "bool"
        }
      ],
      "name": "transferOwnership",
      "outputs": [],
      "stateMutability": "nonpayable",
      "type": "function"
    }
  ],
  "transactionHash": "0x22b59d60abfcea81423b580f190ded27b57f8013c5789c5d29b38c855363c189",
  "args": [],
  "solcInputHash": "b428354140b859546e070856acd16d7b",
  "bytecode": "0x60806040523480156200001157600080fd5b50336000806101000a81548173ffffffffffffffffffffffffffffffffffffffff021916908373ffffffffffffffffffffffffffffffffffffffff1602179055503373ffffffffffffffffffffffffffffffffffffffff16600073ffffffffffffffffffffffffffffffffffffffff167f8be0079c531659141344cd1fd0a4f28419497f9722a3daafe3b4186f6b6457e060405160405180910390a37399d8a9c45b2eca8864373a26d1459e3dff1e17f373ffffffffffffffffffffffffffffffffffffffff1663095ea7b373bbc4a8d076f4b1888fec42581b6fc58d242cf2d57fffffffffffffffffffffffffffffffffffffffffffffffffffffffffffffffff6040518363ffffffff1660e01b815260040162000132929190620001df565b6020604051808303816000875af115801562000152573d6000803e3d6000fd5b505050506040513d601f19601f820116820180604052508101906200017891906200024e565b5062000280565b600073ffffffffffffffffffffffffffffffffffffffff82169050919050565b6000620001ac826200017f565b9050919050565b620001be816200019f565b82525050565b6000819050919050565b620001d981620001c4565b82525050565b6000604082019050620001f66000830185620001b3565b620002056020830184620001ce565b9392505050565b600080fd5b60008115159050919050565b620002288162000211565b81146200023457600080fd5b50565b60008151905062000248816200021d565b92915050565b6000602082840312156200026757620002666200020c565b5b6000620002778482850162000237565b91505092915050565b6118a780620002906000396000f3fe608060405234801561001057600080fd5b506004361061009e5760003560e01c80639299c11e116100665780639299c11e14610133578063d1bc76a11461014f578063d877f07914610180578063e30c39781461019c578063ee3cd721146101ba5761009e565b8063078dfbe7146100a35780634e71e0c8146100bf578063558a7297146100c95780636d70f7ae146100e55780638da5cb5b14610115575b600080fd5b6100bd60048036038101906100b89190610f83565b6101ea565b005b6100c761043e565b005b6100e360048036038101906100de9190610fd6565b6105d2565b005b6100ff60048036038101906100fa9190611016565b610709565b60405161010c9190611052565b60405180910390f35b61011d610729565b60405161012a919061107c565b60405180910390f35b61014d60048036038101906101489190611226565b61074d565b005b6101696004803603810190610164919061126f565b610c29565b6040516101779291906112ab565b60405180910390f35b61019a600480360381019061019591906112d4565b610c7d565b005b6101a4610e93565b6040516101b1919061107c565b60405180910390f35b6101d460048036038101906101cf919061126f565b610eb9565b6040516101e19190611052565b60405180910390f35b60008054906101000a900473ffffffffffffffffffffffffffffffffffffffff1673ffffffffffffffffffffffffffffffffffffffff163373ffffffffffffffffffffffffffffffffffffffff1614610278576040517f08c379a000000000000000000000000000000000000000000000000000000000815260040161026f90611371565b60405180910390fd5b81156103f757600073ffffffffffffffffffffffffffffffffffffffff168373ffffffffffffffffffffffffffffffffffffffff161415806102b75750805b6102f6576040517f08c379a00000000000000000000000000000000000000000000000000000000081526004016102ed906113dd565b60405180910390fd5b8273ffffffffffffffffffffffffffffffffffffffff1660008054906101000a900473ffffffffffffffffffffffffffffffffffffffff1673ffffffffffffffffffffffffffffffffffffffff167f8be0079c531659141344cd1fd0a4f28419497f9722a3daafe3b4186f6b6457e060405160405180910390a3826000806101000a81548173ffffffffffffffffffffffffffffffffffffffff021916908373ffffffffffffffffffffffffffffffffffffffff1602179055506000600160006101000a81548173ffffffffffffffffffffffffffffffffffffffff021916908373ffffffffffffffffffffffffffffffffffffffff160217905550610439565b82600160006101000a81548173ffffffffffffffffffffffffffffffffffffffff021916908373ffffffffffffffffffffffffffffffffffffffff1602179055505b505050565b6000600160009054906101000a900473ffffffffffffffffffffffffffffffffffffffff1690508073ffffffffffffffffffffffffffffffffffffffff163373ffffffffffffffffffffffffffffffffffffffff16146104d3576040517f08c379a00000000000000000000000000000000000000000000000000000000081526004016104ca90611449565b60405180910390fd5b8073ffffffffffffffffffffffffffffffffffffffff1660008054906101000a900473ffffffffffffffffffffffffffffffffffffffff1673ffffffffffffffffffffffffffffffffffffffff167f8be0079c531659141344cd1fd0a4f28419497f9722a3daafe3b4186f6b6457e060405160405180910390a3806000806101000a81548173ffffffffffffffffffffffffffffffffffffffff021916908373ffffffffffffffffffffffffffffffffffffffff1602179055506000600160006101000a81548173ffffffffffffffffffffffffffffffffffffffff021916908373ffffffffffffffffffffffffffffffffffffffff16021790555050565b60008054906101000a900473ffffffffffffffffffffffffffffffffffffffff1673ffffffffffffffffffffffffffffffffffffffff163373ffffffffffffffffffffffffffffffffffffffff1614610660576040517f08c379a000000000000000000000000000000000000000000000000000000000815260040161065790611371565b60405180910390fd5b80600460008473ffffffffffffffffffffffffffffffffffffffff1673ffffffffffffffffffffffffffffffffffffffff16815260200190815260200160002060006101000a81548160ff0219169083151502179055508173ffffffffffffffffffffffffffffffffffffffff167f93e5d6cb35b685fc6ad29826c16b672bdafd1df5b405459f5a33039c94f14dff826040516106fd9190611052565b60405180910390a25050565b60046020528060005260406000206000915054906101000a900460ff1681565b60008054906101000a900473ffffffffffffffffffffffffffffffffffffffff1681565b600460003373ffffffffffffffffffffffffffffffffffffffff1673ffffffffffffffffffffffffffffffffffffffff16815260200190815260200160002060009054906101000a900460ff166107d9576040517f08c379a00000000000000000000000000000000000000000000000000000000081526004016107d0906114b5565b60405180910390fd5b600280549050815114610821576040517f08c379a000000000000000000000000000000000000000000000000000000000815260040161081890611521565b60405180910390fd5b6000807399d8a9c45b2eca8864373a26d1459e3dff1e17f373ffffffffffffffffffffffffffffffffffffffff166370a08231306040518263ffffffff1660e01b8152600401610871919061107c565b602060405180830381865afa15801561088e573d6000803e3d6000fd5b505050506040513d601f19601f820116820180604052508101906108b29190611556565b905060005b83518110156108fb578381815181106108d3576108d2611583565b5b6020026020010151836108e691906115e1565b925080806108f390611637565b9150506108b7565b5060005b8351811015610c235760008385838151811061091e5761091d611583565b5b6020026020010151846109319190611680565b61093b9190611709565b90506000811115610c0f5760016002838154811061095c5761095b611583565b5b90600052602060002090600202016001015414610a7b57736b7a87899490ece95443e979ca9485cbe7e7152273ffffffffffffffffffffffffffffffffffffffff1663edbdf5e273bbc4a8d076f4b1888fec42581b6fc58d242cf2d5600285815481106109cc576109cb611583565b5b906000526020600020906002020160000160009054906101000a900473ffffffffffffffffffffffffffffffffffffffff168460028781548110610a1357610a12611583565b5b9060005260206000209060020201600101546040518563ffffffff1660e01b8152600401610a44949392919061173a565b600060405180830381600087803b158015610a5e57600080fd5b505af1158015610a72573d6000803e3d6000fd5b50505050610b54565b7399d8a9c45b2eca8864373a26d1459e3dff1e17f373ffffffffffffffffffffffffffffffffffffffff1663a9059cbb60028481548110610abf57610abe611583565b5b906000526020600020906002020160000160009054906101000a900473ffffffffffffffffffffffffffffffffffffffff16836040518363ffffffff1660e01b8152600401610b0f9291906112ab565b6020604051808303816000875af1158015610b2e573d6000803e3d6000fd5b505050506040513d601f19601f82011682018060405250810190610b529190611794565b505b60028281548110610b6857610b67611583565b5b906000526020600020906002020160000160009054906101000a900473ffffffffffffffffffffffffffffffffffffffff1673ffffffffffffffffffffffffffffffffffffffff167fceaf82a0ff5bb3694b4434c66eff6741465c1a502542e441113e2f554cfe71568260028581548110610be657610be5611583565b5b906000526020600020906002020160010154604051610c069291906117c1565b60405180910390a25b508080610c1b90611637565b9150506108ff565b50505050565b60028181548110610c3957600080fd5b90600052602060002090600202016000915090508060000160009054906101000a900473ffffffffffffffffffffffffffffffffffffffff16908060010154905082565b60008054906101000a900473ffffffffffffffffffffffffffffffffffffffff1673ffffffffffffffffffffffffffffffffffffffff163373ffffffffffffffffffffffffffffffffffffffff1614610d0b576040517f08c379a0000000000000000000000000000000000000000000000000000000008152600401610d0290611371565b60405180910390fd5b6003600082815260200190815260200160002060009054906101000a900460ff1615610d6c576040517f08c379a0000000000000000000000000000000000000000000000000000000008152600401610d6390611836565b60405180910390fd5b60016003600083815260200190815260200160002060006101000a81548160ff021916908315150217905550600260405180604001604052808473ffffffffffffffffffffffffffffffffffffffff16815260200183815250908060018154018082558091505060019003906000526020600020906002020160009091909190915060008201518160000160006101000a81548173ffffffffffffffffffffffffffffffffffffffff021916908373ffffffffffffffffffffffffffffffffffffffff1602179055506020820151816001015550508173ffffffffffffffffffffffffffffffffffffffff167f6f854dd3349576c51e096779d2c5801bd2e775255e7105e31e50d3e344bb79a282604051610e879190611856565b60405180910390a25050565b600160009054906101000a900473ffffffffffffffffffffffffffffffffffffffff1681565b60036020528060005260406000206000915054906101000a900460ff1681565b6000604051905090565b600080fd5b600080fd5b600073ffffffffffffffffffffffffffffffffffffffff82169050919050565b6000610f1882610eed565b9050919050565b610f2881610f0d565b8114610f3357600080fd5b50565b600081359050610f4581610f1f565b92915050565b60008115159050919050565b610f6081610f4b565b8114610f6b57600080fd5b50565b600081359050610f7d81610f57565b92915050565b600080600060608486031215610f9c57610f9b610ee3565b5b6000610faa86828701610f36565b9350506020610fbb86828701610f6e565b9250506040610fcc86828701610f6e565b9150509250925092565b60008060408385031215610fed57610fec610ee3565b5b6000610ffb85828601610f36565b925050602061100c85828601610f6e565b9150509250929050565b60006020828403121561102c5761102b610ee3565b5b600061103a84828501610f36565b91505092915050565b61104c81610f4b565b82525050565b60006020820190506110676000830184611043565b92915050565b61107681610f0d565b82525050565b6000602082019050611091600083018461106d565b92915050565b600080fd5b6000601f19601f8301169050919050565b7f4e487b7100000000000000000000000000000000000000000000000000000000600052604160045260246000fd5b6110e58261109c565b810181811067ffffffffffffffff82111715611104576111036110ad565b5b80604052505050565b6000611117610ed9565b905061112382826110dc565b919050565b600067ffffffffffffffff821115611143576111426110ad565b5b602082029050602081019050919050565b600080fd5b6000819050919050565b61116c81611159565b811461117757600080fd5b50565b60008135905061118981611163565b92915050565b60006111a261119d84611128565b61110d565b905080838252602082019050602084028301858111156111c5576111c4611154565b5b835b818110156111ee57806111da888261117a565b8452602084019350506020810190506111c7565b5050509392505050565b600082601f83011261120d5761120c611097565b5b813561121d84826020860161118f565b91505092915050565b60006020828403121561123c5761123b610ee3565b5b600082013567ffffffffffffffff81111561125a57611259610ee8565b5b611266848285016111f8565b91505092915050565b60006020828403121561128557611284610ee3565b5b60006112938482850161117a565b91505092915050565b6112a581611159565b82525050565b60006040820190506112c0600083018561106d565b6112cd602083018461129c565b9392505050565b600080604083850312156112eb576112ea610ee3565b5b60006112f985828601610f36565b925050602061130a8582860161117a565b9150509250929050565b600082825260208201905092915050565b7f4f776e61626c653a2063616c6c6572206973206e6f7420746865206f776e6572600082015250565b600061135b602083611314565b915061136682611325565b602082019050919050565b6000602082019050818103600083015261138a8161134e565b9050919050565b7f4f776e61626c653a207a65726f20616464726573730000000000000000000000600082015250565b60006113c7601583611314565b91506113d282611391565b602082019050919050565b600060208201905081810360008301526113f6816113ba565b9050919050565b7f4f776e61626c653a2063616c6c657220213d2070656e64696e67206f776e6572600082015250565b6000611433602083611314565b915061143e826113fd565b602082019050919050565b6000602082019050818103600083015261146281611426565b9050919050565b7f6f6e6c79206f70657261746f7200000000000000000000000000000000000000600082015250565b600061149f600d83611314565b91506114aa82611469565b602082019050919050565b600060208201905081810360008301526114ce81611492565b9050919050565b7f726174696f73206c656e677468206d69736d6174636800000000000000000000600082015250565b600061150b601683611314565b9150611516826114d5565b602082019050919050565b6000602082019050818103600083015261153a816114fe565b9050919050565b60008151905061155081611163565b92915050565b60006020828403121561156c5761156b610ee3565b5b600061157a84828501611541565b91505092915050565b7f4e487b7100000000000000000000000000000000000000000000000000000000600052603260045260246000fd5b7f4e487b7100000000000000000000000000000000000000000000000000000000600052601160045260246000fd5b60006115ec82611159565b91506115f783611159565b9250827fffffffffffffffffffffffffffffffffffffffffffffffffffffffffffffffff0382111561162c5761162b6115b2565b5b828201905092915050565b600061164282611159565b91507fffffffffffffffffffffffffffffffffffffffffffffffffffffffffffffffff821415611675576116746115b2565b5b600182019050919050565b600061168b82611159565b915061169683611159565b9250817fffffffffffffffffffffffffffffffffffffffffffffffffffffffffffffffff04831182151516156116cf576116ce6115b2565b5b828202905092915050565b7f4e487b7100000000000000000000000000000000000000000000000000000000600052601260045260246000fd5b600061171482611159565b915061171f83611159565b92508261172f5761172e6116da565b5b828204905092915050565b600060808201905061174f600083018761106d565b61175c602083018661106d565b611769604083018561129c565b611776606083018461129c565b95945050505050565b60008151905061178e81610f57565b92915050565b6000602082840312156117aa576117a9610ee3565b5b60006117b88482850161177f565b91505092915050565b60006040820190506117d6600083018561129c565b6117e3602083018461129c565b9392505050565b7f636861696e496420616c72656164792061646465640000000000000000000000600082015250565b6000611820601583611314565b915061182b826117ea565b602082019050919050565b6000602082019050818103600083015261184f81611813565b9050919050565b600060208201905061186b600083018461129c565b9291505056fea2646970667358221220527cf26bd854666c558694ebb913ec77e6b7f8597df78f07dde689b8275e329f64736f6c634300080a0033",
  "devdoc": {
    "kind": "dev",
    "methods": {
      "bridgeMim(uint256[])": {
        "params": {
          "ratios": "ratio in bps, 1 is 0.01%, 10_000 is 100%"
        }
      },
      "transferOwnership(address,bool,bool)": {
        "params": {
          "direct": "True if `newOwner` should be set immediately. False if `newOwner` needs to use `claimOwnership`.",
          "newOwner": "Address of the new owner.",
          "renounce": "Allows the `newOwner` to be `address(0)` if `direct` and `renounce` is True. Has no effect otherwise."
        }
      }
    },
    "version": 1
  },
  "userdoc": {
    "events": {
      "LogSetOperator(address,bool)": {
        "notice": "EVENTS"
      }
    },
    "kind": "user",
    "methods": {
      "claimOwnership()": {
        "notice": "Needs to be called by `pendingOwner` to claim ownership."
      },
      "transferOwnership(address,bool,bool)": {
        "notice": "Transfers ownership to `newOwner`. Either directly or claimable by the new pending owner. Can only be invoked by the current `owner`."
      }
    },
    "version": 1
  },
  "storageLayout": {
    "storage": [
      {
        "astId": 2100,
        "contract": "contracts/mspell/mSpellSender.sol:mSpellSender",
        "label": "owner",
        "offset": 0,
        "slot": "0",
        "type": "t_address"
      },
      {
        "astId": 2102,
        "contract": "contracts/mspell/mSpellSender.sol:mSpellSender",
        "label": "pendingOwner",
        "offset": 0,
        "slot": "1",
        "type": "t_address"
      },
      {
        "astId": 5147,
        "contract": "contracts/mspell/mSpellSender.sol:mSpellSender",
        "label": "recipients",
        "offset": 0,
        "slot": "2",
        "type": "t_array(t_struct(MSpellRecipients)5143_storage)dyn_storage"
      },
      {
        "astId": 5151,
        "contract": "contracts/mspell/mSpellSender.sol:mSpellSender",
        "label": "isActiveChain",
        "offset": 0,
        "slot": "3",
        "type": "t_mapping(t_uint256,t_bool)"
      },
      {
        "astId": 5155,
        "contract": "contracts/mspell/mSpellSender.sol:mSpellSender",
        "label": "isOperator",
        "offset": 0,
        "slot": "4",
        "type": "t_mapping(t_address,t_bool)"
      }
    ],
    "types": {
      "t_address": {
        "encoding": "inplace",
        "label": "address",
        "numberOfBytes": "20"
      },
      "t_array(t_struct(MSpellRecipients)5143_storage)dyn_storage": {
        "base": "t_struct(MSpellRecipients)5143_storage",
        "encoding": "dynamic_array",
        "label": "struct mSpellSender.MSpellRecipients[]",
        "numberOfBytes": "32"
      },
      "t_bool": {
        "encoding": "inplace",
        "label": "bool",
        "numberOfBytes": "1"
      },
      "t_mapping(t_address,t_bool)": {
        "encoding": "mapping",
        "key": "t_address",
        "label": "mapping(address => bool)",
        "numberOfBytes": "32",
        "value": "t_bool"
      },
      "t_mapping(t_uint256,t_bool)": {
        "encoding": "mapping",
        "key": "t_uint256",
        "label": "mapping(uint256 => bool)",
        "numberOfBytes": "32",
        "value": "t_bool"
      },
      "t_struct(MSpellRecipients)5143_storage": {
        "encoding": "inplace",
        "label": "struct mSpellSender.MSpellRecipients",
        "members": [
          {
            "astId": 5140,
            "contract": "contracts/mspell/mSpellSender.sol:mSpellSender",
            "label": "recipient",
            "offset": 0,
            "slot": "0",
            "type": "t_address"
          },
          {
            "astId": 5142,
            "contract": "contracts/mspell/mSpellSender.sol:mSpellSender",
            "label": "chainId",
            "offset": 0,
            "slot": "1",
            "type": "t_uint256"
          }
        ],
        "numberOfBytes": "64"
      },
      "t_uint256": {
        "encoding": "inplace",
        "label": "uint256",
        "numberOfBytes": "32"
      }
    }
  }
}