{
  "address": "0x1440ECdFc61386A64116E58326bc7D6074E80815",
  "abi": [
    {
      "inputs": [],
      "stateMutability": "nonpayable",
      "type": "constructor"
    },
    {
      "inputs": [],
      "name": "NotNoon",
      "type": "error"
    },
    {
      "inputs": [],
      "name": "NotPastNoon",
      "type": "error"
    },
    {
      "inputs": [
        {
          "internalType": "uint256",
          "name": "",
          "type": "uint256"
        }
      ],
      "name": "NotUpdated",
      "type": "error"
    },
    {
      "anonymous": false,
      "inputs": [
        {
          "indexed": true,
          "internalType": "address",
          "name": "recipient",
          "type": "address"
        },
        {
          "indexed": false,
          "internalType": "uint256",
          "name": "chainId",
          "type": "uint256"
        },
        {
          "indexed": false,
          "internalType": "uint256",
          "name": "chainIdLZ",
          "type": "uint256"
        }
      ],
      "name": "LogAddRecipient",
      "type": "event"
    },
    {
      "anonymous": false,
      "inputs": [
        {
          "indexed": true,
          "internalType": "address",
          "name": "recipient",
          "type": "address"
        },
        {
          "indexed": false,
          "internalType": "uint256",
          "name": "amount",
          "type": "uint256"
        },
        {
          "indexed": false,
          "internalType": "uint256",
          "name": "chainId",
          "type": "uint256"
        }
      ],
      "name": "LogBridgeToRecipient",
      "type": "event"
    },
    {
      "anonymous": false,
      "inputs": [
        {
          "indexed": false,
          "internalType": "address",
          "name": "_purchaser",
          "type": "address"
        },
        {
          "indexed": false,
          "internalType": "address",
          "name": "_treasury",
          "type": "address"
        },
        {
          "indexed": false,
          "internalType": "uint256",
          "name": "_treasuryPercentage",
          "type": "uint256"
        }
      ],
      "name": "LogChangePurchaser",
      "type": "event"
    },
    {
      "anonymous": false,
      "inputs": [
        {
          "indexed": true,
          "internalType": "address",
          "name": "operator",
          "type": "address"
        },
        {
          "indexed": false,
          "internalType": "bool",
          "name": "status",
          "type": "bool"
        }
      ],
      "name": "LogSetOperator",
      "type": "event"
    },
    {
      "anonymous": false,
      "inputs": [
        {
          "indexed": true,
          "internalType": "uint256",
          "name": "chainIdLZ",
          "type": "uint256"
        },
        {
          "indexed": false,
          "internalType": "bytes",
          "name": "reporter",
          "type": "bytes"
        }
      ],
      "name": "LogSetReporter",
      "type": "event"
    },
    {
      "anonymous": false,
      "inputs": [
        {
          "indexed": false,
          "internalType": "uint16",
          "name": "srcChainId",
          "type": "uint16"
        },
        {
          "indexed": false,
          "internalType": "uint32",
          "name": "timestamp",
          "type": "uint32"
        },
        {
          "indexed": false,
          "internalType": "uint128",
          "name": "amount",
          "type": "uint128"
        }
      ],
      "name": "LogSpellStakedReceived",
      "type": "event"
    },
    {
      "anonymous": false,
      "inputs": [
        {
          "indexed": true,
          "internalType": "address",
          "name": "previousOwner",
          "type": "address"
        },
        {
          "indexed": true,
          "internalType": "address",
          "name": "newOwner",
          "type": "address"
        }
      ],
      "name": "OwnershipTransferred",
      "type": "event"
    },
    {
      "inputs": [
        {
          "internalType": "address",
          "name": "recipient",
          "type": "address"
        },
        {
          "internalType": "uint256",
          "name": "chainId",
          "type": "uint256"
        },
        {
          "internalType": "uint256",
          "name": "chainIdLZ",
          "type": "uint256"
        }
      ],
      "name": "addMSpellRecipient",
      "outputs": [],
      "stateMutability": "nonpayable",
      "type": "function"
    },
    {
      "inputs": [
        {
          "internalType": "bytes",
          "name": "reporter",
          "type": "bytes"
        },
        {
          "internalType": "uint256",
          "name": "chainIdLZ",
          "type": "uint256"
        }
      ],
      "name": "addReporter",
      "outputs": [],
      "stateMutability": "nonpayable",
      "type": "function"
    },
    {
      "inputs": [],
      "name": "bridgeMim",
      "outputs": [],
      "stateMutability": "nonpayable",
      "type": "function"
    },
    {
      "inputs": [
        {
          "internalType": "address",
          "name": "_purchaser",
          "type": "address"
        },
        {
          "internalType": "address",
          "name": "_treasury",
          "type": "address"
        },
        {
          "internalType": "uint256",
          "name": "_treasuryPercentage",
          "type": "uint256"
        }
      ],
      "name": "changePurchaser",
      "outputs": [],
      "stateMutability": "nonpayable",
      "type": "function"
    },
    {
      "inputs": [],
      "name": "checker",
      "outputs": [
        {
          "internalType": "bool",
          "name": "canExec",
          "type": "bool"
        },
        {
          "internalType": "bytes",
          "name": "execPayload",
          "type": "bytes"
        }
      ],
      "stateMutability": "view",
      "type": "function"
    },
    {
      "inputs": [],
      "name": "claimOwnership",
      "outputs": [],
      "stateMutability": "nonpayable",
      "type": "function"
    },
    {
      "inputs": [
        {
          "internalType": "uint256",
          "name": "",
          "type": "uint256"
        }
      ],
      "name": "isActiveChain",
      "outputs": [
        {
          "internalType": "uint8",
          "name": "isActive",
          "type": "uint8"
        },
        {
          "internalType": "uint32",
          "name": "position",
          "type": "uint32"
        }
      ],
      "stateMutability": "view",
      "type": "function"
    },
    {
      "inputs": [
        {
          "internalType": "address",
          "name": "",
          "type": "address"
        }
      ],
      "name": "isOperator",
      "outputs": [
        {
          "internalType": "bool",
          "name": "",
          "type": "bool"
        }
      ],
      "stateMutability": "view",
      "type": "function"
    },
    {
      "inputs": [
        {
          "internalType": "uint16",
          "name": "_srcChainId",
          "type": "uint16"
        },
        {
          "internalType": "bytes",
          "name": "_srcAddress",
          "type": "bytes"
        },
        {
          "internalType": "uint64",
          "name": "",
          "type": "uint64"
        },
        {
          "internalType": "bytes",
          "name": "_payload",
          "type": "bytes"
        }
      ],
      "name": "lzReceive",
      "outputs": [],
      "stateMutability": "nonpayable",
      "type": "function"
    },
    {
      "inputs": [
        {
          "internalType": "uint256",
          "name": "",
          "type": "uint256"
        }
      ],
      "name": "mSpellReporter",
      "outputs": [
        {
          "internalType": "bytes",
          "name": "",
          "type": "bytes"
        }
      ],
      "stateMutability": "view",
      "type": "function"
    },
    {
      "inputs": [],
      "name": "owner",
      "outputs": [
        {
          "internalType": "address",
          "name": "",
          "type": "address"
        }
      ],
      "stateMutability": "view",
      "type": "function"
    },
    {
      "inputs": [],
      "name": "pendingOwner",
      "outputs": [
        {
          "internalType": "address",
          "name": "",
          "type": "address"
        }
      ],
      "stateMutability": "view",
      "type": "function"
    },
    {
      "inputs": [
        {
          "internalType": "uint256",
          "name": "",
          "type": "uint256"
        }
      ],
      "name": "recipients",
      "outputs": [
        {
          "internalType": "address",
          "name": "recipient",
          "type": "address"
        },
        {
          "internalType": "uint32",
          "name": "chainId",
          "type": "uint32"
        },
        {
          "internalType": "uint32",
          "name": "chainIdLZ",
          "type": "uint32"
        },
        {
          "internalType": "uint32",
          "name": "lastUpdated",
          "type": "uint32"
        },
        {
          "internalType": "uint128",
          "name": "amountStaked",
          "type": "uint128"
        }
      ],
      "stateMutability": "view",
      "type": "function"
    },
    {
      "inputs": [
        {
          "internalType": "address",
          "name": "operator",
          "type": "address"
        },
        {
          "internalType": "bool",
          "name": "status",
          "type": "bool"
        }
      ],
      "name": "setOperator",
      "outputs": [],
      "stateMutability": "nonpayable",
      "type": "function"
    },
    {
      "inputs": [],
      "name": "sspellBuyBack",
      "outputs": [
        {
          "internalType": "address",
          "name": "",
          "type": "address"
        }
      ],
      "stateMutability": "view",
      "type": "function"
    },
    {
      "inputs": [
        {
          "internalType": "address",
          "name": "newOwner",
          "type": "address"
        },
        {
          "internalType": "bool",
          "name": "direct",
          "type": "bool"
        },
        {
          "internalType": "bool",
          "name": "renounce",
          "type": "bool"
        }
      ],
      "name": "transferOwnership",
      "outputs": [],
      "stateMutability": "nonpayable",
      "type": "function"
    },
    {
      "inputs": [
        {
          "internalType": "address",
          "name": "newOwner",
          "type": "address"
        }
      ],
      "name": "transferWithdrawer",
      "outputs": [],
      "stateMutability": "nonpayable",
      "type": "function"
    },
    {
      "inputs": [],
      "name": "treasury",
      "outputs": [
        {
          "internalType": "address",
          "name": "",
          "type": "address"
        }
      ],
      "stateMutability": "view",
      "type": "function"
    },
    {
      "inputs": [],
      "name": "treasuryPercentage",
      "outputs": [
        {
          "internalType": "uint256",
          "name": "",
          "type": "uint256"
        }
      ],
      "stateMutability": "view",
      "type": "function"
    }
  ],
  "transactionHash": "0xf0176acee9e1386dcd6aad560353aaf116771a4dc66fa09816e936d82e497d0d",
  "args": [],
  "numDeployments": 5,
  "solcInputHash": "e34a3715d5ff1b16c190f922d08b458a",
  "bytecode": "0x6080604052600280546001600160a01b031990811673fddfe525054efaad204600d00ca86adb1cc2ea8a179091556003805490911673df2c270f610dc35d8ffda5b453e74db5471e126b17905560196004553480156200005e57600080fd5b50600080546001600160a01b0319163390811782556040519091907f8be0079c531659141344cd1fd0a4f28419497f9722a3daafe3b4186f6b6457e0908290a360405163095ea7b360e01b8152736b7a87899490ece95443e979ca9485cbe7e71522600482015260001960248201527399d8a9c45b2eca8864373a26d1459e3dff1e17f39063095ea7b3906044016020604051808303816000875af11580156200010c573d6000803e3d6000fd5b505050506040513d601f19601f8201168201806040525081019062000132919062000139565b5062000164565b6000602082840312156200014c57600080fd5b815180151581146200015d57600080fd5b9392505050565b61221580620001746000396000f3fe608060405234801561001057600080fd5b50600436106101505760003560e01c80636d70f7ae116100cd578063d1bc76a111610081578063e909e18111610066578063e909e181146102fc578063e9f850cf1461031c578063ee3cd7211461032f57600080fd5b8063d1bc76a11461028f578063e30c3978146102e957600080fd5b806385bffc84116100b257806385bffc841461025e5780638da5cb5b14610266578063cf5303cf1461027957600080fd5b80636d70f7ae146102145780637ab560831461024757600080fd5b80634e71e0c811610124578063558a729711610109578063558a7297146101be5780635e4523ae146101d157806361d027b31461020157600080fd5b80634e71e0c8146101a35780635483fdd6146101ab57600080fd5b80621d356714610155578063078dfbe71461016a5780630daf9c1e1461017d57806336df3eae14610190575b600080fd5b610168610163366004611b39565b61037d565b005b610168610178366004611c68565b610550565b61016861018b366004611cb1565b61069c565b61016861019e366004611cd3565b610774565b610168610a07565b6101686101b9366004611d06565b610ac4565b6101686101cc366004611d52565b610b77565b6002546101e4906001600160a01b031681565b6040516001600160a01b0390911681526020015b60405180910390f35b6003546101e4906001600160a01b031681565b610237610222366004611cb1565b60086020526000908152604090205460ff1681565b60405190151581526020016101f8565b61025060045481565b6040519081526020016101f8565b610168610c30565b6000546101e4906001600160a01b031681565b61028161154a565b6040516101f8929190611dd6565b6102a261029d366004611df1565b6116bd565b604080516001600160a01b03909616865263ffffffff9485166020870152928416928501929092529190911660608301526001600160801b0316608082015260a0016101f8565b6001546101e4906001600160a01b031681565b61030f61030a366004611df1565b611722565b6040516101f89190611e0a565b61016861032a366004611e1d565b6117bc565b61035f61033d366004611df1565b60066020526000908152604090205460ff811690610100900463ffffffff1682565b6040805160ff909316835263ffffffff9091166020830152016101f8565b6000601861038d610e1042611e85565b6103979190611e99565b905080600c146103b95760405162faa44560e61b815260040160405180910390fd5b337366a71dcef29a0ffbdbe3c6a460a3b5bc225cd675146103d957600080fd5b61ffff86166000908152600660205260408120546005805461010090920463ffffffff1692918390811061040f5761040f611ead565b90600052602060002090600202019050600760008961ffff168152602001908152602001600020805461044190611ec3565b90508751148015610480575061ffff881660009081526007602052604090819020905161046e9190611efe565b60405180910390208780519060200120145b61048957600080fd5b60008061049886880188611f9a565b6001850180546001600160801b0383166fffffffffffffffffffffffffffffffff19909116179055845463ffffffff8316600160e01b026001600160e01b0390911617855560405191935091507f4ea9bdd5b905501ef51b0569bcf66f715937c0105f36c7383a37653cf3173b569061053c908c908590859061ffff93909316835263ffffffff9190911660208301526001600160801b0316604082015260600190565b60405180910390a150505050505050505050565b6000546001600160a01b031633146105af5760405162461bcd60e51b815260206004820181905260248201527f4f776e61626c653a2063616c6c6572206973206e6f7420746865206f776e657260448201526064015b60405180910390fd5b811561067a576001600160a01b0383161515806105c95750805b6106155760405162461bcd60e51b815260206004820152601560248201527f4f776e61626c653a207a65726f2061646472657373000000000000000000000060448201526064016105a6565b600080546040516001600160a01b03808716939216917f8be0079c531659141344cd1fd0a4f28419497f9722a3daafe3b4186f6b6457e091a3600080546001600160a01b0385166001600160a01b031991821617909155600180549091169055505050565b600180546001600160a01b0385166001600160a01b0319909116179055505050565b6000546001600160a01b031633146106f65760405162461bcd60e51b815260206004820181905260248201527f4f776e61626c653a2063616c6c6572206973206e6f7420746865206f776e657260448201526064016105a6565b60405163078dfbe760e01b81526001600160a01b0382166004820152600160248201526000604482015273b2c3a9c577068479b1e5119f6b7da98d25ba48f49063078dfbe790606401600060405180830381600087803b15801561075957600080fd5b505af115801561076d573d6000803e3d6000fd5b5050505050565b6000546001600160a01b031633146107ce5760405162461bcd60e51b815260206004820181905260248201527f4f776e61626c653a2063616c6c6572206973206e6f7420746865206f776e657260448201526064016105a6565b60008181526006602052604090205460ff161561082d5760405162461bcd60e51b815260206004820152601560248201527f636861696e496420616c7265616479206164646564000000000000000000000060448201526064016105a6565b60058054604080518082018252600180825263ffffffff808516602080850191825260008981526006825286812095518654935185166101000264ffffffffff1990941660ff919091161792909217909455845160a0810186526001600160a01b03808c168083528b85169683019687528a851683890190815260608401858152608085018681528c549889018d559b909552925160029096027f036b6384b5eca791c62761152d0c79bb0604c104a5fb6f4eb0703f3154bb3db0810180549851945195518716600160e01b026001600160e01b03968816600160c01b029690961677ffffffffffffffffffffffffffffffffffffffffffffffff95909716600160a01b027fffffffffffffffff000000000000000000000000000000000000000000000000909916979093169690961796909617919091169290921717905593517f036b6384b5eca791c62761152d0c79bb0604c104a5fb6f4eb0703f3154bb3db190940180546001600160801b03959095166fffffffffffffffffffffffffffffffff1990951694909417909355519091907fb64102a4611dd2eb58cfdb000b0fdd03770ae5c3220bd030b06b9a65004af28f906109f99086908690918252602082015260400190565b60405180910390a250505050565b6001546001600160a01b0316338114610a625760405162461bcd60e51b815260206004820181905260248201527f4f776e61626c653a2063616c6c657220213d2070656e64696e67206f776e657260448201526064016105a6565b600080546040516001600160a01b03808516939216917f8be0079c531659141344cd1fd0a4f28419497f9722a3daafe3b4186f6b6457e091a3600080546001600160a01b039092166001600160a01b0319928316179055600180549091169055565b6000546001600160a01b03163314610b1e5760405162461bcd60e51b815260206004820181905260248201527f4f776e61626c653a2063616c6c6572206973206e6f7420746865206f776e657260448201526064016105a6565b6000818152600760205260409020610b37908484611a24565b50807f79e3d59f74d1db9dfa37bf5a1e001a270dd9b6e3194a253f7e5c14efe196bde88484604051610b6a929190611fdd565b60405180910390a2505050565b6000546001600160a01b03163314610bd15760405162461bcd60e51b815260206004820181905260248201527f4f776e61626c653a2063616c6c6572206973206e6f7420746865206f776e657260448201526064016105a6565b6001600160a01b038216600081815260086020908152604091829020805460ff191685151590811790915591519182527f93e5d6cb35b685fc6ad29826c16b672bdafd1df5b405459f5a33039c94f14dff910160405180910390a25050565b60006018610c40610e1042611e85565b610c4a9190611e99565b905080600d14610c6d57604051631625ed7f60e21b815260040160405180910390fd5b6040516370a0823160e01b815273b2c3a9c577068479b1e5119f6b7da98d25ba48f4600482015260009081907399d8a9c45b2eca8864373a26d1459e3dff1e17f3906370a0823190602401602060405180830381865afa158015610cd5573d6000803e3d6000fd5b505050506040513d601f19601f82011682018060405250810190610cf9919061200c565b90506000606460045483610d0d9190612025565b610d179190611e85565b610d219083612044565b60405163cea9d26f60e01b81527399d8a9c45b2eca8864373a26d1459e3dff1e17f360048201523060248201526044810182905290915073b2c3a9c577068479b1e5119f6b7da98d25ba48f49063cea9d26f90606401600060405180830381600087803b158015610d9157600080fd5b505af1158015610da5573d6000803e3d6000fd5b505060035460045473b2c3a9c577068479b1e5119f6b7da98d25ba48f4935063cea9d26f92507399d8a9c45b2eca8864373a26d1459e3dff1e17f3916001600160a01b031690606490610df89088612025565b610e029190611e85565b6040516001600160e01b031960e086901b1681526001600160a01b0393841660048201529290911660248301526044820152606401600060405180830381600087803b158015610e5157600080fd5b505af1158015610e65573d6000803e3d6000fd5b505050506000610e7442611891565b6040516370a0823160e01b81527326fa3fffb6efe8c1e69103acb4044c26b9a106a9600482015290915060009073090185f2135308bad17527004364ebcc2d37e5f6906370a0823190602401602060405180830381865afa158015610edd573d6000803e3d6000fd5b505050506040513d601f19601f82011682018060405250810190610f01919061200c565b600554909150600090815b818110156110f25760058181548110610f2757610f27611ead565b6000918252602090912060029091020154600160a01b900463ffffffff166001146110185760058181548110610f5f57610f5f611ead565b6000918252602090912060016002909202010154610f86906001600160801b03168961205b565b975084610fc260058381548110610f9f57610f9f611ead565b6000918252602090912060029091020154600160e01b900463ffffffff16611891565b146110135760058181548110610fda57610fda611ead565b600091825260209091206002909102015460405163171e87a760e21b8152600160a01b90910463ffffffff1660048201526024016105a6565b6110e0565b73090185f2135308bad17527004364ebcc2d37e5f66001600160a01b03166370a082316005838154811061104e5761104e611ead565b600091825260209091206002909102015460405160e083901b6001600160e01b03191681526001600160a01b039091166004820152602401602060405180830381865afa1580156110a3573d6000803e3d6000fd5b505050506040513d601f19601f820116820180604052508101906110c7919061200c565b92506110d3848461205b565b6110dd908961205b565b97505b806110ea81612073565b915050610f0c565b5060005b8181101561153b576005818154811061111157611111611ead565b6000918252602090912060029091020154600160a01b900463ffffffff16600114611339576000886005838154811061114c5761114c611ead565b6000918252602090912060016002909202010154611173906001600160801b031689612025565b61117d9190611e85565b9050801561133357736b7a87899490ece95443e979ca9485cbe7e715226001600160a01b031663edbdf5e273bbc4a8d076f4b1888fec42581b6fc58d242cf2d5600585815481106111d0576111d0611ead565b906000526020600020906002020160000160009054906101000a90046001600160a01b0316846005878154811061120957611209611ead565b600091825260209091206002909102015460405160e086901b6001600160e01b03191681526001600160a01b0394851660048201529390921660248401526044830152600160a01b900463ffffffff166064820152608401600060405180830381600087803b15801561127b57600080fd5b505af115801561128f573d6000803e3d6000fd5b50505050600582815481106112a6576112a6611ead565b6000918252602090912060029091020154600580546001600160a01b03909216917fceaf82a0ff5bb3694b4434c66eff6741465c1a502542e441113e2f554cfe7156918491869081106112fb576112fb611ead565b60009182526020918290206002909102015460408051938452600160a01b90910463ffffffff16918301919091520160405180910390a25b50611529565b6000886113468589612025565b6113509190611e85565b905060008961135f878a612025565b6113699190611e85565b90507399d8a9c45b2eca8864373a26d1459e3dff1e17f36001600160a01b031663a9059cbb600585815481106113a1576113a1611ead565b600091825260209091206002909102015460405160e083901b6001600160e01b03191681526001600160a01b039091166004820152602481018590526044016020604051808303816000875af11580156113ff573d6000803e3d6000fd5b505050506040513d601f19601f82011682018060405250810190611423919061208e565b506005838154811061143757611437611ead565b60009182526020822060029091020154604080516379b6053960e11b815290516001600160a01b039092169263f36c0a729260048084019382900301818387803b15801561148457600080fd5b505af1158015611498573d6000803e3d6000fd5b505060025460405163a9059cbb60e01b81526001600160a01b039091166004820152602481018490527399d8a9c45b2eca8864373a26d1459e3dff1e17f3925063a9059cbb91506044016020604051808303816000875af1158015611501573d6000803e3d6000fd5b505050506040513d601f19601f82011682018060405250810190611525919061208e565b5050505b8061153381612073565b9150506110f6565b50504260095550505050505050565b60006060600061155942611891565b90506018611569610e1042611e85565b6115739190611e99565b600d1415801561158d57508061158a600954611891565b14155b156115d057505060408051808201909152600e81527f4e6f7420526967687420486f75720000000000000000000000000000000000006020820152600092909150565b60055460005b8181101561168757600581815481106115f1576115f1611ead565b6000918252602090912060029091020154600160a01b900463ffffffff16600114611675578261162d60058381548110610f9f57610f9f611ead565b146116755760006040518060400160405280600b81526020017f4e6f742055706461746564000000000000000000000000000000000000000000815250945094505050509091565b8061167f81612073565b9150506115d6565b50506040805160048152602481019091526020810180516001600160e01b031663216fff2160e21b179052600194909350915050565b600581815481106116cd57600080fd5b6000918252602090912060029091020180546001909101546001600160a01b038216925063ffffffff600160a01b8304811692600160c01b8104821692600160e01b909104909116906001600160801b031685565b6007602052600090815260409020805461173b90611ec3565b80601f016020809104026020016040519081016040528092919081815260200182805461176790611ec3565b80156117b45780601f10611789576101008083540402835291602001916117b4565b820191906000526020600020905b81548152906001019060200180831161179757829003601f168201915b505050505081565b6000546001600160a01b031633146118165760405162461bcd60e51b815260206004820181905260248201527f4f776e61626c653a2063616c6c6572206973206e6f7420746865206f776e657260448201526064016105a6565b600280546001600160a01b038581166001600160a01b0319928316811790935560038054918616919092168117909155600483905560408051928352602083019190915281018290527fe56c270b94c3acf065cbe14b25675de866cd9381a298b6d30d7c5526b317cbac9060600160405180910390a1505050565b60006118a86118a36201518084611e85565b6118b0565b949350505050565b60008080838162253d8c6118c78362010bd96120ab565b6118d191906120ab565b9050600062023ab16118e48360046120eb565b6118ee9190612172565b905060046118ff8262023ab16120eb565b61190a9060036120ab565b6119149190612172565b61191e90836121a0565b9150600062164b096119318460016120ab565b61193d90610fa06120eb565b6119479190612172565b90506004611957826105b56120eb565b6119619190612172565b61196b90846121a0565b61197690601f6120ab565b9250600061098f6119888560506120eb565b6119929190612172565b9050600060506119a48361098f6120eb565b6119ae9190612172565b6119b890866121a0565b90506119c5600b83612172565b94506119d285600c6120eb565b6119dd8360026120ab565b6119e791906121a0565b915084836119f66031876121a0565b611a019060646120eb565b611a0b91906120ab565b611a1591906120ab565b9a919950975095505050505050565b828054611a3090611ec3565b90600052602060002090601f016020900481019282611a525760008555611a98565b82601f10611a6b5782800160ff19823516178555611a98565b82800160010185558215611a98579182015b82811115611a98578235825591602001919060010190611a7d565b50611aa4929150611aa8565b5090565b5b80821115611aa45760008155600101611aa9565b634e487b7160e01b600052604160045260246000fd5b803567ffffffffffffffff81168114611aeb57600080fd5b919050565b60008083601f840112611b0257600080fd5b50813567ffffffffffffffff811115611b1a57600080fd5b602083019150836020828501011115611b3257600080fd5b9250929050565b600080600080600060808688031215611b5157600080fd5b853561ffff81168114611b6357600080fd5b9450602086013567ffffffffffffffff80821115611b8057600080fd5b818801915088601f830112611b9457600080fd5b813581811115611ba657611ba6611abd565b604051601f8201601f19908116603f01168101908382118183101715611bce57611bce611abd565b816040528281528b6020848701011115611be757600080fd5b82602086016020830137600060208483010152809850505050611c0c60408901611ad3565b94506060880135915080821115611c2257600080fd5b50611c2f88828901611af0565b969995985093965092949392505050565b80356001600160a01b0381168114611aeb57600080fd5b8015158114611c6557600080fd5b50565b600080600060608486031215611c7d57600080fd5b611c8684611c40565b92506020840135611c9681611c57565b91506040840135611ca681611c57565b809150509250925092565b600060208284031215611cc357600080fd5b611ccc82611c40565b9392505050565b600080600060608486031215611ce857600080fd5b611cf184611c40565b95602085013595506040909401359392505050565b600080600060408486031215611d1b57600080fd5b833567ffffffffffffffff811115611d3257600080fd5b611d3e86828701611af0565b909790965060209590950135949350505050565b60008060408385031215611d6557600080fd5b611d6e83611c40565b91506020830135611d7e81611c57565b809150509250929050565b6000815180845260005b81811015611daf57602081850181015186830182015201611d93565b81811115611dc1576000602083870101525b50601f01601f19169290920160200192915050565b82151581526040602082015260006118a86040830184611d89565b600060208284031215611e0357600080fd5b5035919050565b602081526000611ccc6020830184611d89565b600080600060608486031215611e3257600080fd5b611e3b84611c40565b9250611e4960208501611c40565b9150604084013590509250925092565b634e487b7160e01b600052601260045260246000fd5b634e487b7160e01b600052601160045260246000fd5b600082611e9457611e94611e59565b500490565b600082611ea857611ea8611e59565b500690565b634e487b7160e01b600052603260045260246000fd5b600181811c90821680611ed757607f821691505b60208210811415611ef857634e487b7160e01b600052602260045260246000fd5b50919050565b600080835481600182811c915080831680611f1a57607f831692505b6020808410821415611f3a57634e487b7160e01b86526022600452602486fd5b818015611f4e5760018114611f5f57611f8c565b60ff19861689528489019650611f8c565b60008a81526020902060005b86811015611f845781548b820152908501908301611f6b565b505084890196505b509498975050505050505050565b60008060408385031215611fad57600080fd5b823563ffffffff81168114611fc157600080fd5b915060208301356001600160801b0381168114611d7e57600080fd5b60208152816020820152818360408301376000818301604090810191909152601f909201601f19160101919050565b60006020828403121561201e57600080fd5b5051919050565b600081600019048311821515161561203f5761203f611e6f565b500290565b60008282101561205657612056611e6f565b500390565b6000821982111561206e5761206e611e6f565b500190565b600060001982141561208757612087611e6f565b5060010190565b6000602082840312156120a057600080fd5b8151611ccc81611c57565b6000808212826001600160ff1b03038413811516156120cc576120cc611e6f565b600160ff1b83900384128116156120e5576120e5611e6f565b50500190565b60006001600160ff1b0360008413600084138583048511828216161561211357612113611e6f565b600160ff1b600087128281168783058912161561213257612132611e6f565b6000871292508782058712848416161561214e5761214e611e6f565b8785058712818416161561216457612164611e6f565b505050929093029392505050565b60008261218157612181611e59565b600160ff1b82146000198414161561219b5761219b611e6f565b500590565b60008083128015600160ff1b8501841216156121be576121be611e6f565b836001600160ff1b030183138116156121d9576121d9611e6f565b5050039056fea2646970667358221220a5acf27295fc29cef0e95dc8af61edf56936e6bf03bb78a2c7eb41ab552b7d2164736f6c634300080a0033",
  "devdoc": {
    "kind": "dev",
    "methods": {
      "transferOwnership(address,bool,bool)": {
        "params": {
          "direct": "True if `newOwner` should be set immediately. False if `newOwner` needs to use `claimOwnership`.",
          "newOwner": "Address of the new owner.",
          "renounce": "Allows the `newOwner` to be `address(0)` if `direct` and `renounce` is True. Has no effect otherwise."
        }
      }
    },
    "version": 1
  },
  "userdoc": {
    "events": {
      "LogSetOperator(address,bool)": {
        "notice": "EVENTS"
      }
    },
    "kind": "user",
    "methods": {
      "claimOwnership()": {
        "notice": "Needs to be called by `pendingOwner` to claim ownership."
      },
      "transferOwnership(address,bool,bool)": {
        "notice": "Transfers ownership to `newOwner`. Either directly or claimable by the new pending owner. Can only be invoked by the current `owner`."
      }
    },
    "version": 1
  },
  "storageLayout": {
    "storage": [
      {
        "astId": 6760,
        "contract": "contracts/mspell/mSpellSender.sol:mSpellSender",
        "label": "owner",
        "offset": 0,
        "slot": "0",
        "type": "t_address"
      },
      {
        "astId": 6762,
        "contract": "contracts/mspell/mSpellSender.sol:mSpellSender",
        "label": "pendingOwner",
        "offset": 0,
        "slot": "1",
        "type": "t_address"
      },
      {
        "astId": 11753,
        "contract": "contracts/mspell/mSpellSender.sol:mSpellSender",
        "label": "sspellBuyBack",
        "offset": 0,
        "slot": "2",
        "type": "t_address"
      },
      {
        "astId": 11756,
        "contract": "contracts/mspell/mSpellSender.sol:mSpellSender",
        "label": "treasury",
        "offset": 0,
        "slot": "3",
        "type": "t_address"
      },
      {
        "astId": 11759,
        "contract": "contracts/mspell/mSpellSender.sol:mSpellSender",
        "label": "treasuryPercentage",
        "offset": 0,
        "slot": "4",
        "type": "t_uint256"
      },
      {
        "astId": 11782,
        "contract": "contracts/mspell/mSpellSender.sol:mSpellSender",
        "label": "recipients",
        "offset": 0,
        "slot": "5",
        "type": "t_array(t_struct(MSpellRecipients)11773_storage)dyn_storage"
      },
      {
        "astId": 11787,
        "contract": "contracts/mspell/mSpellSender.sol:mSpellSender",
        "label": "isActiveChain",
        "offset": 0,
        "slot": "6",
        "type": "t_mapping(t_uint256,t_struct(ActiveChain)11778_storage)"
      },
      {
        "astId": 11791,
        "contract": "contracts/mspell/mSpellSender.sol:mSpellSender",
        "label": "mSpellReporter",
        "offset": 0,
        "slot": "7",
        "type": "t_mapping(t_uint256,t_bytes_storage)"
      },
      {
        "astId": 11795,
        "contract": "contracts/mspell/mSpellSender.sol:mSpellSender",
        "label": "isOperator",
        "offset": 0,
        "slot": "8",
        "type": "t_mapping(t_address,t_bool)"
      },
      {
        "astId": 11797,
        "contract": "contracts/mspell/mSpellSender.sol:mSpellSender",
        "label": "lastDistributed",
        "offset": 0,
        "slot": "9",
        "type": "t_uint256"
      }
    ],
    "types": {
      "t_address": {
        "encoding": "inplace",
        "label": "address",
        "numberOfBytes": "20"
      },
      "t_array(t_struct(MSpellRecipients)11773_storage)dyn_storage": {
        "base": "t_struct(MSpellRecipients)11773_storage",
        "encoding": "dynamic_array",
        "label": "struct mSpellSender.MSpellRecipients[]",
        "numberOfBytes": "32"
      },
      "t_bool": {
        "encoding": "inplace",
        "label": "bool",
        "numberOfBytes": "1"
      },
      "t_bytes_storage": {
        "encoding": "bytes",
        "label": "bytes",
        "numberOfBytes": "32"
      },
      "t_mapping(t_address,t_bool)": {
        "encoding": "mapping",
        "key": "t_address",
        "label": "mapping(address => bool)",
        "numberOfBytes": "32",
        "value": "t_bool"
      },
      "t_mapping(t_uint256,t_bytes_storage)": {
        "encoding": "mapping",
        "key": "t_uint256",
        "label": "mapping(uint256 => bytes)",
        "numberOfBytes": "32",
        "value": "t_bytes_storage"
      },
      "t_mapping(t_uint256,t_struct(ActiveChain)11778_storage)": {
        "encoding": "mapping",
        "key": "t_uint256",
        "label": "mapping(uint256 => struct mSpellSender.ActiveChain)",
        "numberOfBytes": "32",
        "value": "t_struct(ActiveChain)11778_storage"
      },
      "t_struct(ActiveChain)11778_storage": {
        "encoding": "inplace",
        "label": "struct mSpellSender.ActiveChain",
        "members": [
          {
            "astId": 11775,
            "contract": "contracts/mspell/mSpellSender.sol:mSpellSender",
            "label": "isActive",
            "offset": 0,
            "slot": "0",
            "type": "t_uint8"
          },
          {
            "astId": 11777,
            "contract": "contracts/mspell/mSpellSender.sol:mSpellSender",
            "label": "position",
            "offset": 1,
            "slot": "0",
            "type": "t_uint32"
          }
        ],
        "numberOfBytes": "32"
      },
      "t_struct(MSpellRecipients)11773_storage": {
        "encoding": "inplace",
        "label": "struct mSpellSender.MSpellRecipients",
        "members": [
          {
            "astId": 11764,
            "contract": "contracts/mspell/mSpellSender.sol:mSpellSender",
            "label": "recipient",
            "offset": 0,
            "slot": "0",
            "type": "t_address"
          },
          {
            "astId": 11766,
            "contract": "contracts/mspell/mSpellSender.sol:mSpellSender",
            "label": "chainId",
            "offset": 20,
            "slot": "0",
            "type": "t_uint32"
          },
          {
            "astId": 11768,
            "contract": "contracts/mspell/mSpellSender.sol:mSpellSender",
            "label": "chainIdLZ",
            "offset": 24,
            "slot": "0",
            "type": "t_uint32"
          },
          {
            "astId": 11770,
            "contract": "contracts/mspell/mSpellSender.sol:mSpellSender",
            "label": "lastUpdated",
            "offset": 28,
            "slot": "0",
            "type": "t_uint32"
          },
          {
            "astId": 11772,
            "contract": "contracts/mspell/mSpellSender.sol:mSpellSender",
            "label": "amountStaked",
            "offset": 0,
            "slot": "1",
            "type": "t_uint128"
          }
        ],
        "numberOfBytes": "64"
      },
      "t_uint128": {
        "encoding": "inplace",
        "label": "uint128",
        "numberOfBytes": "16"
      },
      "t_uint256": {
        "encoding": "inplace",
        "label": "uint256",
        "numberOfBytes": "32"
      },
      "t_uint32": {
        "encoding": "inplace",
        "label": "uint32",
        "numberOfBytes": "4"
      },
      "t_uint8": {
        "encoding": "inplace",
        "label": "uint8",
        "numberOfBytes": "1"
      }
    }
  }
}