{
  "address": "0x04146736FEF83A25e39834a972cf6A5C011ACEad",
  "abi": [
    {
      "inputs": [
        {
          "internalType": "contract IPopsicle",
          "name": "_popsicle",
          "type": "address"
        }
      ],
      "stateMutability": "nonpayable",
      "type": "constructor"
    },
    {
      "inputs": [],
      "name": "DEGENBOX",
      "outputs": [
        {
          "internalType": "contract IBentoBoxV1",
          "name": "",
          "type": "address"
        }
      ],
      "stateMutability": "view",
      "type": "function"
    },
    {
      "inputs": [],
      "name": "popsicle",
      "outputs": [
        {
          "internalType": "contract IPopsicle",
          "name": "",
          "type": "address"
        }
      ],
      "stateMutability": "view",
      "type": "function"
    },
    {
      "inputs": [
        {
          "internalType": "address",
          "name": "recipient",
          "type": "address"
        },
        {
          "internalType": "uint256",
          "name": "shareToMin",
          "type": "uint256"
        },
        {
          "internalType": "uint256",
          "name": "shareFrom",
          "type": "uint256"
        }
      ],
      "name": "swap",
      "outputs": [
        {
          "internalType": "uint256",
          "name": "extraShare",
          "type": "uint256"
        },
        {
          "internalType": "uint256",
          "name": "shareReturned",
          "type": "uint256"
        }
      ],
      "stateMutability": "nonpayable",
      "type": "function"
    }
  ],
  "transactionHash": "0xdd2f26b958150e72acec21a4fedad040531999f37f8d4af183a975f8f104fa2b",
  "args": [
    "0xaE7b92C8B14E7bdB523408aE0A6fFbf3f589adD9"
  ],
  "solcInputHash": "525ea041c6370a3b5301a3bfbd56c5c6",
  "bytecode": "0x60c06040523480156200001157600080fd5b506040516200299138038062002991833981810160405281019062000037919062000436565b7399d8a9c45b2eca8864373a26d1459e3dff1e17f373ffffffffffffffffffffffffffffffffffffffff1663095ea7b3735a6a4d54456819380173272a5e8e9b9904bdf41b7fffffffffffffffffffffffffffffffffffffffffffffffffffffffffffffffff6040518363ffffffff1660e01b8152600401620000bc92919062000484565b602060405180830381600087803b158015620000d757600080fd5b505af1158015620000ec573d6000803e3d6000fd5b505050506040513d601f19601f820116820180604052508101906200011291906200040a565b5073a0b86991c6218b36c1d19d4a2e9eb0ce3606eb4873ffffffffffffffffffffffffffffffffffffffff1663095ea7b3827fffffffffffffffffffffffffffffffffffffffffffffffffffffffffffffffff6040518363ffffffff1660e01b81526004016200018492919062000484565b602060405180830381600087803b1580156200019f57600080fd5b505af1158015620001b4573d6000803e3d6000fd5b505050506040513d601f19601f82011682018060405250810190620001da91906200040a565b5073c02aaa39b223fe8d0a0e5c4f27ead9083c756cc273ffffffffffffffffffffffffffffffffffffffff1663095ea7b3827fffffffffffffffffffffffffffffffffffffffffffffffffffffffffffffffff6040518363ffffffff1660e01b81526004016200024c92919062000484565b602060405180830381600087803b1580156200026757600080fd5b505af11580156200027c573d6000803e3d6000fd5b505050506040513d601f19601f82011682018060405250810190620002a291906200040a565b508073ffffffffffffffffffffffffffffffffffffffff166316f0115b6040518163ffffffff1660e01b815260040160206040518083038186803b158015620002ea57600080fd5b505afa158015620002ff573d6000803e3d6000fd5b505050506040513d601f19601f82011682018060405250810190620003259190620003de565b73ffffffffffffffffffffffffffffffffffffffff1660a08173ffffffffffffffffffffffffffffffffffffffff1660601b815250508073ffffffffffffffffffffffffffffffffffffffff1660808173ffffffffffffffffffffffffffffffffffffffff1660601b81525050506200055d565b600081519050620003aa816200050f565b92915050565b600081519050620003c18162000529565b92915050565b600081519050620003d88162000543565b92915050565b600060208284031215620003f157600080fd5b6000620004018482850162000399565b91505092915050565b6000602082840312156200041d57600080fd5b60006200042d84828501620003b0565b91505092915050565b6000602082840312156200044957600080fd5b60006200045984828501620003c7565b91505092915050565b6200046d81620004b1565b82525050565b6200047e8162000505565b82525050565b60006040820190506200049b600083018562000462565b620004aa602083018462000473565b9392505050565b6000620004be82620004e5565b9050919050565b60008115159050919050565b6000620004de82620004b1565b9050919050565b600073ffffffffffffffffffffffffffffffffffffffff82169050919050565b6000819050919050565b6200051a81620004b1565b81146200052657600080fd5b50565b6200053481620004c5565b81146200054057600080fd5b50565b6200054e81620004d1565b81146200055a57600080fd5b50565b60805160601c60a05160601c6123f66200059b60003980610a2052508061052f528061075e528061081f5280610869528061094652506123f66000f3fe608060405234801561001057600080fd5b50600436106100415760003560e01c80639f1d0f5914610046578063dc502dfa14610077578063e0bc66b814610095575b600080fd5b610060600480360381019061005b9190611c36565b6100b3565b60405161006e9291906120e8565b60405180910390f35b61007f61081d565b60405161008c919061202e565b60405180910390f35b61009d610841565b6040516100aa9190611f6d565b60405180910390f35b600080600073d96f48665a1410c0cd669a88898eca36b9fc2cce73ffffffffffffffffffffffffffffffffffffffff166397da6d307399d8a9c45b2eca8864373a26d1459e3dff1e17f330306000896040518663ffffffff1660e01b8152600401610122959493929190611f88565b6040805180830381600087803b15801561013b57600080fd5b505af115801561014f573d6000803e3d6000fd5b505050506040513d601f19601f820116820180604052508101906101739190611ded565b509050735a6a4d54456819380173272a5e8e9b9904bdf41b73ffffffffffffffffffffffffffffffffffffffff166344ee198660006002846000306040518663ffffffff1660e01b81526004016101ce959493929190612049565b602060405180830381600087803b1580156101e857600080fd5b505af11580156101fc573d6000803e3d6000fd5b505050506040513d601f19601f820116820180604052508101906102209190611dc4565b50600073a0b86991c6218b36c1d19d4a2e9eb0ce3606eb4873ffffffffffffffffffffffffffffffffffffffff166370a08231306040518263ffffffff1660e01b81526004016102709190611f29565b60206040518083038186803b15801561028857600080fd5b505afa15801561029c573d6000803e3d6000fd5b505050506040513d601f19601f820116820180604052508101906102c09190611dc4565b905060008073397ff1542f962076d0bfe58ea045ffa2d347aca073ffffffffffffffffffffffffffffffffffffffff16630902f1ac6040518163ffffffff1660e01b815260040160606040518083038186803b15801561031f57600080fd5b505afa158015610333573d6000803e3d6000fd5b505050506040513d601f19601f820116820180604052508101906103579190611cd7565b506dffffffffffffffffffffffffffff1691506dffffffffffffffffffffffffffff16915060008061038a858585610859565b9150915073a0b86991c6218b36c1d19d4a2e9eb0ce3606eb4873ffffffffffffffffffffffffffffffffffffffff1663a9059cbb73397ff1542f962076d0bfe58ea045ffa2d347aca06103e68589610f8a90919063ffffffff16565b6040518363ffffffff1660e01b8152600401610403929190611f44565b602060405180830381600087803b15801561041d57600080fd5b505af1158015610431573d6000803e3d6000fd5b505050506040513d601f19601f820116820180604052508101906104559190611c85565b5073397ff1542f962076d0bfe58ea045ffa2d347aca073ffffffffffffffffffffffffffffffffffffffff1663022c0d9f60008330600067ffffffffffffffff811180156104a257600080fd5b506040519080825280601f01601f1916602001820160405280156104d55781602001600182028036833780820191505090505b506040518563ffffffff1660e01b81526004016104f5949392919061209c565b600060405180830381600087803b15801561050f57600080fd5b505af1158015610523573d6000803e3d6000fd5b505050505050505060007f000000000000000000000000000000000000000000000000000000000000000073ffffffffffffffffffffffffffffffffffffffff16638dbdbe6d73a0b86991c6218b36c1d19d4a2e9eb0ce3606eb4873ffffffffffffffffffffffffffffffffffffffff166370a08231306040518263ffffffff1660e01b81526004016105b69190611f29565b60206040518083038186803b1580156105ce57600080fd5b505afa1580156105e2573d6000803e3d6000fd5b505050506040513d601f19601f820116820180604052508101906106069190611dc4565b73c02aaa39b223fe8d0a0e5c4f27ead9083c756cc273ffffffffffffffffffffffffffffffffffffffff166370a08231306040518263ffffffff1660e01b81526004016106539190611f29565b60206040518083038186803b15801561066b57600080fd5b505afa15801561067f573d6000803e3d6000fd5b505050506040513d601f19601f820116820180604052508101906106a39190611dc4565b73d96f48665a1410c0cd669a88898eca36b9fc2cce6040518463ffffffff1660e01b81526004016106d693929190612111565b606060405180830381600087803b1580156106f057600080fd5b505af1158015610704573d6000803e3d6000fd5b505050506040513d601f19601f820116820180604052508101906107289190611e29565b5050905073d96f48665a1410c0cd669a88898eca36b9fc2cce73ffffffffffffffffffffffffffffffffffffffff166302b9446c7f000000000000000000000000000000000000000000000000000000000000000073d96f48665a1410c0cd669a88898eca36b9fc2cce8b8560006040518663ffffffff1660e01b81526004016107b6959493929190611fdb565b6040805180830381600087803b1580156107cf57600080fd5b505af11580156107e3573d6000803e3d6000fd5b505050506040513d601f19601f820116820180604052508101906108079190611ded565b9050809450508684039450505050935093915050565b7f000000000000000000000000000000000000000000000000000000000000000081565b73d96f48665a1410c0cd669a88898eca36b9fc2cce81565b600080610864611abd565b61090a7f000000000000000000000000000000000000000000000000000000000000000073ffffffffffffffffffffffffffffffffffffffff166359c4f9056040518163ffffffff1660e01b815260040160206040518083038186803b1580156108cd57600080fd5b505afa1580156108e1573d6000803e3d6000fd5b505050506040513d601f19601f820116820180604052508101906109059190611cae565b610fa4565b816000019073ffffffffffffffffffffffffffffffffffffffff16908173ffffffffffffffffffffffffffffffffffffffff16815250506109e77f000000000000000000000000000000000000000000000000000000000000000073ffffffffffffffffffffffffffffffffffffffff166355b812a86040518163ffffffff1660e01b815260040160206040518083038186803b1580156109aa57600080fd5b505afa1580156109be573d6000803e3d6000fd5b505050506040513d601f19601f820116820180604052508101906109e29190611cae565b610fa4565b816020019073ffffffffffffffffffffffffffffffffffffffff16908173ffffffffffffffffffffffffffffffffffffffff16815250507f000000000000000000000000000000000000000000000000000000000000000073ffffffffffffffffffffffffffffffffffffffff16633850c7bd6040518163ffffffff1660e01b815260040160e06040518083038186803b158015610a8457600080fd5b505afa158015610a98573d6000803e3d6000fd5b505050506040513d601f19601f82011682018060405250810190610abc9190611d26565b909192939450909192935090919250909150905050816040018173ffffffffffffffffffffffffffffffffffffffff1673ffffffffffffffffffffffffffffffffffffffff16815250506000816000015182602001510373ffffffffffffffffffffffffffffffffffffffff1690506000610b60836040015184602001510373ffffffffffffffffffffffffffffffffffffffff16670de0b6b3a7640000846113df565b90506000610b97846000015185604001510373ffffffffffffffffffffffffffffffffffffffff16670de0b6b3a7640000856113df565b9050610bac8982670de0b6b3a76400006113df565b8460e0018181525050610bcc8460e001518a610f8a90919063ffffffff16565b9550610bdd8460e0015189896114b9565b9450610bf8846040015185600001518660200151898961152b565b8461012001906fffffffffffffffffffffffffffffffff1690816fffffffffffffffffffffffffffffffff1681525050610c45846040015185600001518660200151876101200151611657565b856060018660800182815250828152505050610c6e846060015187610f8a90919063ffffffff16565b8460a0018181525050610c8e846080015186610f8a90919063ffffffff16565b8460c001818152505060005b600a811015610f7d57620f42408560a0015111158015610cc4575065b5e620f480008560c0015111155b15610cce57610f7d565b610ce985606001518660c0015161174990919063ffffffff16565b610d0486608001518760a0015161174990919063ffffffff16565b1115610e1b57610d218560a0015183670de0b6b3a76400006113df565b8560e0018181525050610d418560e0015188610f8a90919063ffffffff16565b9650610d60610d59888c610f8a90919063ffffffff16565b8a8a6114b9565b9550610d7b8560400151866000015187602001518a8a61152b565b8561012001906fffffffffffffffffffffffffffffffff1690816fffffffffffffffffffffffffffffffff1681525050610dc8856040015186600001518760200151886101200151611657565b866060018760800182815250828152505050610df1856060015188610f8a90919063ffffffff16565b8560a0018181525050610e11856080015187610f8a90919063ffffffff16565b8560c00181815250505b610e3685606001518660c0015161174990919063ffffffff16565b610e5186608001518760a0015161174990919063ffffffff16565b1015610f7057610e6e8560c0015184670de0b6b3a76400006113df565b85610100018181525050610e9085610100015187610f8a90919063ffffffff16565b95506000610e9f878a8c611775565b9050610eb4818c610f8a90919063ffffffff16565b9750610ecf8660400151876000015188602001518b8b61152b565b8661012001906fffffffffffffffffffffffffffffffff1690816fffffffffffffffffffffffffffffffff1681525050610f1c866040015187600001518860200151896101200151611657565b876060018860800182815250828152505050610f45866060015189610f8a90919063ffffffff16565b8660a0018181525050610f65866080015188610f8a90919063ffffffff16565b8660c0018181525050505b8080600101915050610c9a565b5050505050935093915050565b6000828284039150811115610f9e57600080fd5b92915050565b60008060008360020b12610fbb578260020b610fc3565b8260020b6000035b90507ffffffffffffffffffffffffffffffffffffffffffffffffffffffffffff2761860000360020b811115611061576040517f08c379a00000000000000000000000000000000000000000000000000000000081526004018080602001828103825260018152602001807f540000000000000000000000000000000000000000000000000000000000000081525060200191505060405180910390fd5b60008060018316141561108557700100000000000000000000000000000000611097565b6ffffcb933bd6fad37aa2d162d1a5940015b70ffffffffffffffffffffffffffffffffff169050600060028316146110d15760806ffff97272373d413259a46990580e213a8202901c90505b600060048316146110f65760806ffff2e50f5f656932ef12357cf3c7fdcc8202901c90505b6000600883161461111b5760806fffe5caca7e10e4e61c3624eaa0941cd08202901c90505b600060108316146111405760806fffcb9843d60f6159c9db58835c9266448202901c90505b600060208316146111655760806fff973b41fa98c081472e6896dfb254c08202901c90505b6000604083161461118a5760806fff2ea16466c96a3843ec78b326b528618202901c90505b600060808316146111af5760806ffe5dee046a99a2a811c461f1969c30538202901c90505b60006101008316146111d55760806ffcbe86c7900a88aedcffc83b479aa3a48202901c90505b60006102008316146111fb5760806ff987a7253ac413176f2b074cf7815e548202901c90505b60006104008316146112215760806ff3392b0822b70005940c7a398e4b70f38202901c90505b60006108008316146112475760806fe7159475a2c29b7443b29c7fa6e889d98202901c90505b600061100083161461126d5760806fd097f3bdfd2022b8845ad8f792aa58258202901c90505b60006120008316146112935760806fa9f746462d870fdf8a65dc1f90e061e58202901c90505b60006140008316146112b95760806f70d869a156d2a1b890bb3df62baf32f78202901c90505b60006180008316146112df5760806f31be135f97d08fd981231505542fcfa68202901c90505b6000620100008316146113065760806f09aa508b5b7a84e1c677de54f3e99bc98202901c90505b60006202000083161461132c5760806e5d6af8dedb81196699c329225ee6048202901c90505b6000620400008316146113515760806d2216e584f5fa1ea926041bedfe988202901c90505b6000620800008316146113745760806b048a170391f7dc42444e8fa28202901c90505b60008460020b13156113ad57807fffffffffffffffffffffffffffffffffffffffffffffffffffffffffffffffff816113a957fe5b0490505b600064010000000082816113bd57fe5b06146113ca5760016113cd565b60005b60ff16602082901c0192505050919050565b60008060008019858709858702925082811083820303915050600081141561141a576000841161140e57600080fd5b838204925050506114b2565b80841161142657600080fd5b600084868809905082811182039150808303925060008586600003169050808604955080840493506001818260000304019050808302841793506000600287600302189050808702600203810290508087026002038102905080870260020381029050808702600203810290508087026002038102905080870260020381029050808502955050505050505b9392505050565b6000806114d16103e58661174990919063ffffffff16565b905060006114e8848361174990919063ffffffff16565b90506000611513836115056103e88961174990919063ffffffff16565b6117f490919063ffffffff16565b905080828161151e57fe5b0493505050509392505050565b60008373ffffffffffffffffffffffffffffffffffffffff168573ffffffffffffffffffffffffffffffffffffffff16111561156c57838580955081965050505b8473ffffffffffffffffffffffffffffffffffffffff168673ffffffffffffffffffffffffffffffffffffffff16116115b1576115aa85858561180e565b905061164e565b8373ffffffffffffffffffffffffffffffffffffffff168673ffffffffffffffffffffffffffffffffffffffff16101561163f5760006115f287868661180e565b905060006116018789866118cc565b9050806fffffffffffffffffffffffffffffffff16826fffffffffffffffffffffffffffffffff16106116345780611636565b815b9250505061164d565b61164a8585846118cc565b90505b5b95945050505050565b6000808373ffffffffffffffffffffffffffffffffffffffff168573ffffffffffffffffffffffffffffffffffffffff16111561169957838580955081965050505b8473ffffffffffffffffffffffffffffffffffffffff168673ffffffffffffffffffffffffffffffffffffffff16116116de576116d785858561194e565b9150611740565b8373ffffffffffffffffffffffffffffffffffffffff168673ffffffffffffffffffffffffffffffffffffffff1610156117315761171d86858561194e565b915061172a858785611a09565b905061173f565b61173c858585611a09565b90505b5b94509492505050565b600080831480611766575081838385029250828161176357fe5b04145b61176f57600080fd5b92915050565b60008061179f6103e8611791878761174990919063ffffffff16565b61174990919063ffffffff16565b905060006117ca6103e56117bc8887610f8a90919063ffffffff16565b61174990919063ffffffff16565b90506117e960018284816117da57fe5b046117f490919063ffffffff16565b925050509392505050565b600082828401915081101561180857600080fd5b92915050565b60008273ffffffffffffffffffffffffffffffffffffffff168473ffffffffffffffffffffffffffffffffffffffff16111561184f57828480945081955050505b60006118958573ffffffffffffffffffffffffffffffffffffffff168573ffffffffffffffffffffffffffffffffffffffff166c010000000000000000000000006113df565b90506118c26118bd848388880373ffffffffffffffffffffffffffffffffffffffff166113df565b611a95565b9150509392505050565b60008273ffffffffffffffffffffffffffffffffffffffff168473ffffffffffffffffffffffffffffffffffffffff16111561190d57828480945081955050505b611945611940836c0100000000000000000000000087870373ffffffffffffffffffffffffffffffffffffffff166113df565b611a95565b90509392505050565b60008273ffffffffffffffffffffffffffffffffffffffff168473ffffffffffffffffffffffffffffffffffffffff16111561198f57828480945081955050505b8373ffffffffffffffffffffffffffffffffffffffff166119f8606060ff16846fffffffffffffffffffffffffffffffff16901b86860373ffffffffffffffffffffffffffffffffffffffff168673ffffffffffffffffffffffffffffffffffffffff166113df565b816119ff57fe5b0490509392505050565b60008273ffffffffffffffffffffffffffffffffffffffff168473ffffffffffffffffffffffffffffffffffffffff161115611a4a57828480945081955050505b611a8c826fffffffffffffffffffffffffffffffff1685850373ffffffffffffffffffffffffffffffffffffffff166c010000000000000000000000006113df565b90509392505050565b600081829150816fffffffffffffffffffffffffffffffff1614611ab857600080fd5b919050565b604051806101400160405280600073ffffffffffffffffffffffffffffffffffffffff168152602001600073ffffffffffffffffffffffffffffffffffffffff168152602001600073ffffffffffffffffffffffffffffffffffffffff16815260200160008152602001600081526020016000815260200160008152602001600081526020016000815260200160006fffffffffffffffffffffffffffffffff1681525090565b600081359050611b73816122f1565b92915050565b600081519050611b8881612308565b92915050565b600081519050611b9d8161231f565b92915050565b600081519050611bb281612336565b92915050565b600081519050611bc781612364565b92915050565b600081519050611bdc8161234d565b92915050565b600081359050611bf18161237b565b92915050565b600081519050611c068161237b565b92915050565b600081519050611c1b81612392565b92915050565b600081519050611c30816123a9565b92915050565b600080600060608486031215611c4b57600080fd5b6000611c5986828701611b64565b9350506020611c6a86828701611be2565b9250506040611c7b86828701611be2565b9150509250925092565b600060208284031215611c9757600080fd5b6000611ca584828501611b79565b91505092915050565b600060208284031215611cc057600080fd5b6000611cce84828501611b8e565b91505092915050565b600080600060608486031215611cec57600080fd5b6000611cfa86828701611ba3565b9350506020611d0b86828701611ba3565b9250506040611d1c86828701611c0c565b9150509250925092565b600080600080600080600060e0888a031215611d4157600080fd5b6000611d4f8a828b01611bb8565b9750506020611d608a828b01611b8e565b9650506040611d718a828b01611bcd565b9550506060611d828a828b01611bcd565b9450506080611d938a828b01611bcd565b93505060a0611da48a828b01611c21565b92505060c0611db58a828b01611b79565b91505092959891949750929550565b600060208284031215611dd657600080fd5b6000611de484828501611bf7565b91505092915050565b60008060408385031215611e0057600080fd5b6000611e0e85828601611bf7565b9250506020611e1f85828601611bf7565b9150509250929050565b600080600060608486031215611e3e57600080fd5b6000611e4c86828701611bf7565b9350506020611e5d86828701611bf7565b9250506040611e6e86828701611bf7565b9150509250925092565b611e8181612164565b82525050565b6000611e9282612148565b611e9c8185612153565b9350611eac8185602086016122ad565b611eb5816122e0565b840191505092915050565b611ec98161220b565b82525050565b611ed88161222f565b82525050565b611ee781612253565b82525050565b611ef681612277565b82525050565b611f0581612289565b82525050565b611f148161229b565b82525050565b611f23816121e4565b82525050565b6000602082019050611f3e6000830184611e78565b92915050565b6000604082019050611f596000830185611e78565b611f666020830184611f1a565b9392505050565b6000602082019050611f826000830184611ec0565b92915050565b600060a082019050611f9d6000830188611ecf565b611faa6020830187611e78565b611fb76040830186611e78565b611fc46060830185611efc565b611fd16080830184611f1a565b9695505050505050565b600060a082019050611ff06000830188611ecf565b611ffd6020830187611e78565b61200a6040830186611e78565b6120176060830185611f1a565b6120246080830184611efc565b9695505050505050565b60006020820190506120436000830184611ede565b92915050565b600060a08201905061205e6000830188611eed565b61206b6020830187611f0b565b6120786040830186611f1a565b6120856060830185611efc565b6120926080830184611e78565b9695505050505050565b60006080820190506120b16000830187611efc565b6120be6020830186611f1a565b6120cb6040830185611e78565b81810360608301526120dd8184611e87565b905095945050505050565b60006040820190506120fd6000830185611f1a565b61210a6020830184611f1a565b9392505050565b60006060820190506121266000830186611f1a565b6121336020830185611f1a565b6121406040830184611e78565b949350505050565b600081519050919050565b600082825260208201905092915050565b600061216f826121c4565b9050919050565b60008115159050919050565b600081600f0b9050919050565b60008160020b9050919050565b60006dffffffffffffffffffffffffffff82169050919050565b600061ffff82169050919050565b600073ffffffffffffffffffffffffffffffffffffffff82169050919050565b6000819050919050565b600063ffffffff82169050919050565b600060ff82169050919050565b60006122168261221d565b9050919050565b6000612228826121c4565b9050919050565b600061223a82612241565b9050919050565b600061224c826121c4565b9050919050565b600061225e82612265565b9050919050565b6000612270826121c4565b9050919050565b600061228282612182565b9050919050565b6000612294826121e4565b9050919050565b60006122a682612182565b9050919050565b60005b838110156122cb5780820151818401526020810190506122b0565b838111156122da576000848401525b50505050565b6000601f19601f8301169050919050565b6122fa81612164565b811461230557600080fd5b50565b61231181612176565b811461231c57600080fd5b50565b6123288161218f565b811461233357600080fd5b50565b61233f8161219c565b811461234a57600080fd5b50565b612356816121b6565b811461236157600080fd5b50565b61236d816121c4565b811461237857600080fd5b50565b612384816121e4565b811461238f57600080fd5b50565b61239b816121ee565b81146123a657600080fd5b50565b6123b2816121fe565b81146123bd57600080fd5b5056fea2646970667358221220517e63eaf0100ea0b0e701e2ad68638413516ff4ef23e6e9987ecec0fca0b5af64736f6c63430007060033",
  "devdoc": {
    "kind": "dev",
    "methods": {},
    "version": 1
  },
  "userdoc": {
    "kind": "user",
    "methods": {},
    "notice": "USDC/WETH Popsicle Leverage Swapper for Ethereum",
    "version": 1
  },
  "storageLayout": {
    "storage": [],
    "types": null
  }
}