{
  "address": "0xBd73aA17Ce60B0e83d972aB1Fb32f7cE138Ca32A",
  "abi": [
    {
      "inputs": [
        {
          "internalType": "contract IPopsicle",
          "name": "_popsicle",
          "type": "address"
        }
      ],
      "stateMutability": "nonpayable",
      "type": "constructor"
    },
    {
      "inputs": [],
      "name": "DEGENBOX",
      "outputs": [
        {
          "internalType": "contract IBentoBoxV1",
          "name": "",
          "type": "address"
        }
      ],
      "stateMutability": "view",
      "type": "function"
    },
    {
      "inputs": [],
      "name": "MIM",
      "outputs": [
        {
          "internalType": "contract IERC20",
          "name": "",
          "type": "address"
        }
      ],
      "stateMutability": "view",
      "type": "function"
    },
    {
      "inputs": [],
      "name": "MIM3POOL",
      "outputs": [
        {
          "internalType": "contract CurvePool",
          "name": "",
          "type": "address"
        }
      ],
      "stateMutability": "view",
      "type": "function"
    },
    {
      "inputs": [],
      "name": "USDT",
      "outputs": [
        {
          "internalType": "contract ERC20",
          "name": "",
          "type": "address"
        }
      ],
      "stateMutability": "view",
      "type": "function"
    },
    {
      "inputs": [],
      "name": "WETH",
      "outputs": [
        {
          "internalType": "contract IERC20",
          "name": "",
          "type": "address"
        }
      ],
      "stateMutability": "view",
      "type": "function"
    },
    {
      "inputs": [],
      "name": "WETHUSDT",
      "outputs": [
        {
          "internalType": "contract IUniswapV2Pair",
          "name": "",
          "type": "address"
        }
      ],
      "stateMutability": "view",
      "type": "function"
    },
    {
      "inputs": [],
      "name": "popsicle",
      "outputs": [
        {
          "internalType": "contract IPopsicle",
          "name": "",
          "type": "address"
        }
      ],
      "stateMutability": "view",
      "type": "function"
    },
    {
      "inputs": [
        {
          "internalType": "contract IERC20",
          "name": "",
          "type": "address"
        },
        {
          "internalType": "contract IERC20",
          "name": "",
          "type": "address"
        },
        {
          "internalType": "address",
          "name": "recipient",
          "type": "address"
        },
        {
          "internalType": "uint256",
          "name": "shareToMin",
          "type": "uint256"
        },
        {
          "internalType": "uint256",
          "name": "shareFrom",
          "type": "uint256"
        }
      ],
      "name": "swap",
      "outputs": [
        {
          "internalType": "uint256",
          "name": "extraShare",
          "type": "uint256"
        },
        {
          "internalType": "uint256",
          "name": "shareReturned",
          "type": "uint256"
        }
      ],
      "stateMutability": "nonpayable",
      "type": "function"
    },
    {
      "inputs": [
        {
          "internalType": "contract IERC20",
          "name": "",
          "type": "address"
        },
        {
          "internalType": "contract IERC20",
          "name": "",
          "type": "address"
        },
        {
          "internalType": "address",
          "name": "",
          "type": "address"
        },
        {
          "internalType": "address",
          "name": "",
          "type": "address"
        },
        {
          "internalType": "uint256",
          "name": "",
          "type": "uint256"
        },
        {
          "internalType": "uint256",
          "name": "",
          "type": "uint256"
        }
      ],
      "name": "swapExact",
      "outputs": [
        {
          "internalType": "uint256",
          "name": "shareUsed",
          "type": "uint256"
        },
        {
          "internalType": "uint256",
          "name": "shareReturned",
          "type": "uint256"
        }
      ],
      "stateMutability": "pure",
      "type": "function"
    }
  ],
  "transactionHash": "0x9bbc670f49bdcef07958f942bb41133375ca043383808ee37102015d9ad60abf",
  "args": [
    "0x8d8B490fCe6Ca1A31752E7cFAFa954Bf30eB7EE2"
  ],
  "solcInputHash": "6275ba41784bca598d640e544e1be041",
  "bytecode": "0x60a06040523480156200001157600080fd5b506040516200164038038062001640833981810160405281019062000037919062000269565b8073ffffffffffffffffffffffffffffffffffffffff1660808173ffffffffffffffffffffffffffffffffffffffff1681525050620000e5735a6a4d54456819380173272a5e8e9b9904bdf41b7fffffffffffffffffffffffffffffffffffffffffffffffffffffffffffffffff73dac17f958d2ee523a2206206994597c13d831ec773ffffffffffffffffffffffffffffffffffffffff16620000ec60201b62000783179092919060201c565b506200031e565b60006040517f095ea7b300000000000000000000000000000000000000000000000000000000815273ffffffffffffffffffffffffffffffffffffffff841660048201528260248201526000806044836000895af191505062000155816200019d60201b60201c565b62000197576040517f08c379a00000000000000000000000000000000000000000000000000000000081526004016200018e90620002fc565b60405180910390fd5b50505050565b60003d82620001b057806000803e806000fd5b8060208114620001cd5760008114620001df5760009250620001e4565b816000803e60005115159250620001e4565b600192505b5050919050565b600080fd5b600073ffffffffffffffffffffffffffffffffffffffff82169050919050565b60006200021d82620001f0565b9050919050565b6000620002318262000210565b9050919050565b620002438162000224565b81146200024f57600080fd5b50565b600081519050620002638162000238565b92915050565b600060208284031215620002825762000281620001eb565b5b6000620002928482850162000252565b91505092915050565b600082825260208201905092915050565b7f415050524f56455f4641494c4544000000000000000000000000000000000000600082015250565b6000620002e4600e836200029b565b9150620002f182620002ac565b602082019050919050565b600060208201905081810360008301526200031781620002d5565b9050919050565b6080516112f8620003486000396000818161025b015281816102cc015261035a01526112f86000f3fe608060405234801561001057600080fd5b50600436106100935760003560e01c8063c54e44eb11610066578063c54e44eb14610123578063daec383d14610141578063dc502dfa1461015f578063e0bc66b81461017d578063e343fe121461019b57610093565b806322a88c0914610098578063348a272a146100b65780634622be90146100d4578063ad5c464814610105575b600080fd5b6100a06101cc565b6040516100ad9190610949565b60405180910390f35b6100be6101e4565b6040516100cb9190610985565b60405180910390f35b6100ee60048036038101906100e99190610a57565b6101fc565b6040516100fc929190610af3565b60405180910390f35b61010d610211565b60405161011a9190610b3d565b60405180910390f35b61012b610229565b6040516101389190610b79565b60405180910390f35b610149610241565b6040516101569190610b3d565b60405180910390f35b610167610259565b6040516101749190610bb5565b60405180910390f35b61018561027d565b6040516101929190610bf1565b60405180910390f35b6101b560048036038101906101b09190610c0c565b610295565b6040516101c3929190610af3565b60405180910390f35b735a6a4d54456819380173272a5e8e9b9904bdf41b81565b7306da0fd433c1a5d7a4faa01111c044910a18455381565b60008060008091509150965096945050505050565b73c02aaa39b223fe8d0a0e5c4f27ead9083c756cc281565b73dac17f958d2ee523a2206206994597c13d831ec781565b7399d8a9c45b2eca8864373a26d1459e3dff1e17f381565b7f000000000000000000000000000000000000000000000000000000000000000081565b73d96f48665a1410c0cd669a88898eca36b9fc2cce81565b600080600073d96f48665a1410c0cd669a88898eca36b9fc2cce73ffffffffffffffffffffffffffffffffffffffff166397da6d307f000000000000000000000000000000000000000000000000000000000000000030306000896040518663ffffffff1660e01b8152600401610310959493929190610cd1565b60408051808303816000875af115801561032e573d6000803e3d6000fd5b505050506040513d601f19601f820116820180604052508101906103529190610d39565b5090506000807f000000000000000000000000000000000000000000000000000000000000000073ffffffffffffffffffffffffffffffffffffffff1662f714ce84306040518363ffffffff1660e01b81526004016103b2929190610d79565b60408051808303816000875af11580156103d0573d6000803e3d6000fd5b505050506040513d601f19601f820116820180604052508101906103f49190610d39565b915091506000807306da0fd433c1a5d7a4faa01111c044910a18455373ffffffffffffffffffffffffffffffffffffffff16630902f1ac6040518163ffffffff1660e01b8152600401606060405180830381865afa15801561045a573d6000803e3d6000fd5b505050506040513d601f19601f8201168201806040525081019061047e9190610e24565b506dffffffffffffffffffffffffffff1691506dffffffffffffffffffffffffffff16915060006104b0858484610829565b905073c02aaa39b223fe8d0a0e5c4f27ead9083c756cc273ffffffffffffffffffffffffffffffffffffffff1663a9059cbb7306da0fd433c1a5d7a4faa01111c044910a184553876040518363ffffffff1660e01b8152600401610515929190610e77565b6020604051808303816000875af1158015610534573d6000803e3d6000fd5b505050506040513d601f19601f820116820180604052508101906105589190610ed8565b507306da0fd433c1a5d7a4faa01111c044910a18455373ffffffffffffffffffffffffffffffffffffffff1663022c0d9f600083306040518463ffffffff1660e01b81526004016105ab93929190610f3c565b600060405180830381600087803b1580156105c557600080fd5b505af11580156105d9573d6000803e3d6000fd5b5050505080846105e99190610fb5565b93506000735a6a4d54456819380173272a5e8e9b9904bdf41b73ffffffffffffffffffffffffffffffffffffffff166344ee19866003600088600073d96f48665a1410c0cd669a88898eca36b9fc2cce6040518663ffffffff1660e01b8152600401610659959493929190611084565b6020604051808303816000875af1158015610678573d6000803e3d6000fd5b505050506040513d601f19601f8201168201806040525081019061069c91906110d7565b905073d96f48665a1410c0cd669a88898eca36b9fc2cce73ffffffffffffffffffffffffffffffffffffffff166302b9446c7399d8a9c45b2eca8864373a26d1459e3dff1e17f373d96f48665a1410c0cd669a88898eca36b9fc2cce8f8560006040518663ffffffff1660e01b815260040161071c959493929190611104565b60408051808303816000875af115801561073a573d6000803e3d6000fd5b505050506040513d601f19601f8201168201806040525081019061075e9190610d39565b9050809850508a886107709190611157565b9850505050505050509550959350505050565b60006040517f095ea7b300000000000000000000000000000000000000000000000000000000815273ffffffffffffffffffffffffffffffffffffffff841660048201528260248201526000806044836000895af19150506107e481610881565b610823576040517f08c379a000000000000000000000000000000000000000000000000000000000815260040161081a906111e8565b60405180910390fd5b50505050565b6000806103e58561083a9190611208565b90506000838261084a9190611208565b90506000826103e88761085d9190611208565b6108679190610fb5565b905080826108759190611291565b93505050509392505050565b60003d8261089357806000803e806000fd5b80602081146108ad57600081146108be57600092506108c3565b816000803e600051151592506108c3565b600192505b5050919050565b600073ffffffffffffffffffffffffffffffffffffffff82169050919050565b6000819050919050565b600061090f61090a610905846108ca565b6108ea565b6108ca565b9050919050565b6000610921826108f4565b9050919050565b600061093382610916565b9050919050565b61094381610928565b82525050565b600060208201905061095e600083018461093a565b92915050565b600061096f82610916565b9050919050565b61097f81610964565b82525050565b600060208201905061099a6000830184610976565b92915050565b600080fd5b60006109b0826108ca565b9050919050565b60006109c2826109a5565b9050919050565b6109d2816109b7565b81146109dd57600080fd5b50565b6000813590506109ef816109c9565b92915050565b6109fe816109a5565b8114610a0957600080fd5b50565b600081359050610a1b816109f5565b92915050565b6000819050919050565b610a3481610a21565b8114610a3f57600080fd5b50565b600081359050610a5181610a2b565b92915050565b60008060008060008060c08789031215610a7457610a736109a0565b5b6000610a8289828a016109e0565b9650506020610a9389828a016109e0565b9550506040610aa489828a01610a0c565b9450506060610ab589828a01610a0c565b9350506080610ac689828a01610a42565b92505060a0610ad789828a01610a42565b9150509295509295509295565b610aed81610a21565b82525050565b6000604082019050610b086000830185610ae4565b610b156020830184610ae4565b9392505050565b6000610b2782610916565b9050919050565b610b3781610b1c565b82525050565b6000602082019050610b526000830184610b2e565b92915050565b6000610b6382610916565b9050919050565b610b7381610b58565b82525050565b6000602082019050610b8e6000830184610b6a565b92915050565b6000610b9f82610916565b9050919050565b610baf81610b94565b82525050565b6000602082019050610bca6000830184610ba6565b92915050565b6000610bdb82610916565b9050919050565b610beb81610bd0565b82525050565b6000602082019050610c066000830184610be2565b92915050565b600080600080600060a08688031215610c2857610c276109a0565b5b6000610c36888289016109e0565b9550506020610c47888289016109e0565b9450506040610c5888828901610a0c565b9350506060610c6988828901610a42565b9250506080610c7a88828901610a42565b9150509295509295909350565b610c90816109a5565b82525050565b6000819050919050565b6000610cbb610cb6610cb184610c96565b6108ea565b610a21565b9050919050565b610ccb81610ca0565b82525050565b600060a082019050610ce66000830188610b2e565b610cf36020830187610c87565b610d006040830186610c87565b610d0d6060830185610cc2565b610d1a6080830184610ae4565b9695505050505050565b600081519050610d3381610a2b565b92915050565b60008060408385031215610d5057610d4f6109a0565b5b6000610d5e85828601610d24565b9250506020610d6f85828601610d24565b9150509250929050565b6000604082019050610d8e6000830185610ae4565b610d9b6020830184610c87565b9392505050565b60006dffffffffffffffffffffffffffff82169050919050565b610dc581610da2565b8114610dd057600080fd5b50565b600081519050610de281610dbc565b92915050565b600063ffffffff82169050919050565b610e0181610de8565b8114610e0c57600080fd5b50565b600081519050610e1e81610df8565b92915050565b600080600060608486031215610e3d57610e3c6109a0565b5b6000610e4b86828701610dd3565b9350506020610e5c86828701610dd3565b9250506040610e6d86828701610e0f565b9150509250925092565b6000604082019050610e8c6000830185610c87565b610e996020830184610ae4565b9392505050565b60008115159050919050565b610eb581610ea0565b8114610ec057600080fd5b50565b600081519050610ed281610eac565b92915050565b600060208284031215610eee57610eed6109a0565b5b6000610efc84828501610ec3565b91505092915050565b600082825260208201905092915050565b50565b6000610f26600083610f05565b9150610f3182610f16565b600082019050919050565b6000608082019050610f516000830186610cc2565b610f5e6020830185610ae4565b610f6b6040830184610c87565b8181036060830152610f7c81610f19565b9050949350505050565b7f4e487b7100000000000000000000000000000000000000000000000000000000600052601160045260246000fd5b6000610fc082610a21565b9150610fcb83610a21565b9250827fffffffffffffffffffffffffffffffffffffffffffffffffffffffffffffffff0382111561100057610fff610f86565b5b828201905092915050565b6000819050919050565b600081600f0b9050919050565b600061103d6110386110338461100b565b6108ea565b611015565b9050919050565b61104d81611022565b82525050565b600061106e61106961106484610c96565b6108ea565b611015565b9050919050565b61107e81611053565b82525050565b600060a0820190506110996000830188611044565b6110a66020830187611075565b6110b36040830186610ae4565b6110c06060830185610cc2565b6110cd6080830184610c87565b9695505050505050565b6000602082840312156110ed576110ec6109a0565b5b60006110fb84828501610d24565b91505092915050565b600060a0820190506111196000830188610b2e565b6111266020830187610c87565b6111336040830186610c87565b6111406060830185610ae4565b61114d6080830184610cc2565b9695505050505050565b600061116282610a21565b915061116d83610a21565b9250828210156111805761117f610f86565b5b828203905092915050565b600082825260208201905092915050565b7f415050524f56455f4641494c4544000000000000000000000000000000000000600082015250565b60006111d2600e8361118b565b91506111dd8261119c565b602082019050919050565b60006020820190508181036000830152611201816111c5565b9050919050565b600061121382610a21565b915061121e83610a21565b9250817fffffffffffffffffffffffffffffffffffffffffffffffffffffffffffffffff048311821515161561125757611256610f86565b5b828202905092915050565b7f4e487b7100000000000000000000000000000000000000000000000000000000600052601260045260246000fd5b600061129c82610a21565b91506112a783610a21565b9250826112b7576112b6611262565b5b82820490509291505056fea264697066735822122072a9290fcd2d358dac1ff6c697d21436b941893414c7de2fb3a3d0b2363e6e8a64736f6c634300080a0033",
  "devdoc": {
    "kind": "dev",
    "methods": {},
    "version": 1
  },
  "userdoc": {
    "kind": "user",
    "methods": {
      "swap(address,address,address,uint256,uint256)": {
        "notice": "Withdraws 'amountFrom' of token 'from' from the BentoBox account for this swapper. Swaps it for at least 'amountToMin' of token 'to'. Transfers the swapped tokens of 'to' into the BentoBox using a plain ERC20 transfer. Returns the amount of tokens 'to' transferred to BentoBox. (The BentoBox skim function will be used by the caller to get the swapped funds)."
      },
      "swapExact(address,address,address,address,uint256,uint256)": {
        "notice": "Calculates the amount of token 'from' needed to complete the swap (amountFrom), this should be less than or equal to amountFromMax. Withdraws 'amountFrom' of token 'from' from the BentoBox account for this swapper. Swaps it for exactly 'exactAmountTo' of token 'to'. Transfers the swapped tokens of 'to' into the BentoBox using a plain ERC20 transfer. Transfers allocated, but unused 'from' tokens within the BentoBox to 'refundTo' (amountFromMax - amountFrom). Returns the amount of 'from' tokens withdrawn from BentoBox (amountFrom). (The BentoBox skim function will be used by the caller to get the swapped funds)."
      }
    },
    "notice": "WETH/USDT Popsicle Swapper for Ethereum",
    "version": 1
  },
  "storageLayout": {
    "storage": [],
    "types": null
  }
}