{
  "address": "0xc97C7F6e60Fdd610A0fCA4792BbBD1dbD028d474",
  "abi": [
    {
      "inputs": [
        {
          "internalType": "contract IPopsicle",
          "name": "_popsicle",
          "type": "address"
        }
      ],
      "stateMutability": "nonpayable",
      "type": "constructor"
    },
    {
      "inputs": [],
      "name": "DEGENBOX",
      "outputs": [
        {
          "internalType": "contract IBentoBoxV1",
          "name": "",
          "type": "address"
        }
      ],
      "stateMutability": "view",
      "type": "function"
    },
    {
      "inputs": [],
      "name": "MIM",
      "outputs": [
        {
          "internalType": "contract IERC20",
          "name": "",
          "type": "address"
        }
      ],
      "stateMutability": "view",
      "type": "function"
    },
    {
      "inputs": [],
      "name": "MIM3POOL",
      "outputs": [
        {
          "internalType": "contract CurvePool",
          "name": "",
          "type": "address"
        }
      ],
      "stateMutability": "view",
      "type": "function"
    },
    {
      "inputs": [],
      "name": "USDC",
      "outputs": [
        {
          "internalType": "contract IERC20",
          "name": "",
          "type": "address"
        }
      ],
      "stateMutability": "view",
      "type": "function"
    },
    {
      "inputs": [],
      "name": "USDCWETH",
      "outputs": [
        {
          "internalType": "contract IUniswapV2Pair",
          "name": "",
          "type": "address"
        }
      ],
      "stateMutability": "view",
      "type": "function"
    },
    {
      "inputs": [],
      "name": "WETH",
      "outputs": [
        {
          "internalType": "contract IERC20",
          "name": "",
          "type": "address"
        }
      ],
      "stateMutability": "view",
      "type": "function"
    },
    {
      "inputs": [],
      "name": "popsicle",
      "outputs": [
        {
          "internalType": "contract IPopsicle",
          "name": "",
          "type": "address"
        }
      ],
      "stateMutability": "view",
      "type": "function"
    },
    {
      "inputs": [
        {
          "internalType": "contract IERC20",
          "name": "",
          "type": "address"
        },
        {
          "internalType": "contract IERC20",
          "name": "",
          "type": "address"
        },
        {
          "internalType": "address",
          "name": "recipient",
          "type": "address"
        },
        {
          "internalType": "uint256",
          "name": "shareToMin",
          "type": "uint256"
        },
        {
          "internalType": "uint256",
          "name": "shareFrom",
          "type": "uint256"
        }
      ],
      "name": "swap",
      "outputs": [
        {
          "internalType": "uint256",
          "name": "extraShare",
          "type": "uint256"
        },
        {
          "internalType": "uint256",
          "name": "shareReturned",
          "type": "uint256"
        }
      ],
      "stateMutability": "nonpayable",
      "type": "function"
    },
    {
      "inputs": [
        {
          "internalType": "contract IERC20",
          "name": "",
          "type": "address"
        },
        {
          "internalType": "contract IERC20",
          "name": "",
          "type": "address"
        },
        {
          "internalType": "address",
          "name": "",
          "type": "address"
        },
        {
          "internalType": "address",
          "name": "",
          "type": "address"
        },
        {
          "internalType": "uint256",
          "name": "",
          "type": "uint256"
        },
        {
          "internalType": "uint256",
          "name": "",
          "type": "uint256"
        }
      ],
      "name": "swapExact",
      "outputs": [
        {
          "internalType": "uint256",
          "name": "shareUsed",
          "type": "uint256"
        },
        {
          "internalType": "uint256",
          "name": "shareReturned",
          "type": "uint256"
        }
      ],
      "stateMutability": "nonpayable",
      "type": "function"
    }
  ],
  "transactionHash": "0xc7bce4f2b839cc79f15ad798e073f5fd7e434aa5a08ec2e5af3d2f97d69d00b5",
  "args": [
    "0xaE7b92C8B14E7bdB523408aE0A6fFbf3f589adD9"
  ],
  "solcInputHash": "0d35a875afda9e01aa51f92dfe24d98c",
  "bytecode": "0x60a06040523480156200001157600080fd5b506040516200149a3803806200149a8339818101604052810190620000379190620001cc565b8073ffffffffffffffffffffffffffffffffffffffff1660808173ffffffffffffffffffffffffffffffffffffffff168152505073a0b86991c6218b36c1d19d4a2e9eb0ce3606eb4873ffffffffffffffffffffffffffffffffffffffff1663095ea7b3735a6a4d54456819380173272a5e8e9b9904bdf41b7fffffffffffffffffffffffffffffffffffffffffffffffffffffffffffffffff6040518363ffffffff1660e01b8152600401620000f09291906200022a565b602060405180830381600087803b1580156200010b57600080fd5b505af115801562000120573d6000803e3d6000fd5b505050506040513d601f19601f8201168201806040525081019062000146919062000294565b5050620002c6565b600080fd5b600073ffffffffffffffffffffffffffffffffffffffff82169050919050565b6000620001808262000153565b9050919050565b6000620001948262000173565b9050919050565b620001a68162000187565b8114620001b257600080fd5b50565b600081519050620001c6816200019b565b92915050565b600060208284031215620001e557620001e46200014e565b5b6000620001f584828501620001b5565b91505092915050565b620002098162000173565b82525050565b6000819050919050565b62000224816200020f565b82525050565b6000604082019050620002416000830185620001fe565b62000250602083018462000219565b9392505050565b60008115159050919050565b6200026e8162000257565b81146200027a57600080fd5b50565b6000815190506200028e8162000263565b92915050565b600060208284031215620002ad57620002ac6200014e565b5b6000620002bd848285016200027d565b91505092915050565b6080516111aa620002f06000396000818161025b015281816102cc015261036901526111aa6000f3fe608060405234801561001057600080fd5b50600436106100935760003560e01c8063ad5c464811610066578063ad5c464814610123578063daec383d14610141578063dc502dfa1461015f578063e0bc66b81461017d578063e343fe121461019b57610093565b806322a88c09146100985780634622be90146100b65780635259a990146100e757806389a3027114610105575b600080fd5b6100a06101cc565b6040516100ad91906108b4565b60405180910390f35b6100d060048036038101906100cb9190610986565b6101e4565b6040516100de929190610a22565b60405180910390f35b6100ef6101f9565b6040516100fc9190610a6c565b60405180910390f35b61010d610211565b60405161011a9190610aa8565b60405180910390f35b61012b610229565b6040516101389190610aa8565b60405180910390f35b610149610241565b6040516101569190610aa8565b60405180910390f35b610167610259565b6040516101749190610ae4565b60405180910390f35b61018561027d565b6040516101929190610b20565b60405180910390f35b6101b560048036038101906101b09190610b3b565b610295565b6040516101c3929190610a22565b60405180910390f35b735a6a4d54456819380173272a5e8e9b9904bdf41b81565b60008060008091509150965096945050505050565b73397ff1542f962076d0bfe58ea045ffa2d347aca081565b73a0b86991c6218b36c1d19d4a2e9eb0ce3606eb4881565b73c02aaa39b223fe8d0a0e5c4f27ead9083c756cc281565b7399d8a9c45b2eca8864373a26d1459e3dff1e17f381565b7f000000000000000000000000000000000000000000000000000000000000000081565b73d96f48665a1410c0cd669a88898eca36b9fc2cce81565b600080600073d96f48665a1410c0cd669a88898eca36b9fc2cce73ffffffffffffffffffffffffffffffffffffffff166397da6d307f000000000000000000000000000000000000000000000000000000000000000030306000896040518663ffffffff1660e01b8152600401610310959493929190610c00565b6040805180830381600087803b15801561032957600080fd5b505af115801561033d573d6000803e3d6000fd5b505050506040513d601f19601f820116820180604052508101906103619190610c68565b5090506000807f000000000000000000000000000000000000000000000000000000000000000073ffffffffffffffffffffffffffffffffffffffff1662f714ce84306040518363ffffffff1660e01b81526004016103c1929190610ca8565b6040805180830381600087803b1580156103da57600080fd5b505af11580156103ee573d6000803e3d6000fd5b505050506040513d601f19601f820116820180604052508101906104129190610c68565b9150915060008073397ff1542f962076d0bfe58ea045ffa2d347aca073ffffffffffffffffffffffffffffffffffffffff16630902f1ac6040518163ffffffff1660e01b815260040160606040518083038186803b15801561047357600080fd5b505afa158015610487573d6000803e3d6000fd5b505050506040513d601f19601f820116820180604052508101906104ab9190610d53565b506dffffffffffffffffffffffffffff1691506dffffffffffffffffffffffffffff16915060006104dd8483856107dd565b905073c02aaa39b223fe8d0a0e5c4f27ead9083c756cc273ffffffffffffffffffffffffffffffffffffffff1663a9059cbb73397ff1542f962076d0bfe58ea045ffa2d347aca0866040518363ffffffff1660e01b8152600401610542929190610da6565b602060405180830381600087803b15801561055c57600080fd5b505af1158015610570573d6000803e3d6000fd5b505050506040513d601f19601f820116820180604052508101906105949190610e07565b5073397ff1542f962076d0bfe58ea045ffa2d347aca073ffffffffffffffffffffffffffffffffffffffff1663022c0d9f826000306040518463ffffffff1660e01b81526004016105e793929190610e6b565b600060405180830381600087803b15801561060157600080fd5b505af1158015610615573d6000803e3d6000fd5b5050505080856106259190610ee4565b94506000735a6a4d54456819380173272a5e8e9b9904bdf41b73ffffffffffffffffffffffffffffffffffffffff166344ee19866002600089600073d96f48665a1410c0cd669a88898eca36b9fc2cce6040518663ffffffff1660e01b8152600401610695959493929190610fb3565b602060405180830381600087803b1580156106af57600080fd5b505af11580156106c3573d6000803e3d6000fd5b505050506040513d601f19601f820116820180604052508101906106e79190611006565b905073d96f48665a1410c0cd669a88898eca36b9fc2cce73ffffffffffffffffffffffffffffffffffffffff166302b9446c7399d8a9c45b2eca8864373a26d1459e3dff1e17f373d96f48665a1410c0cd669a88898eca36b9fc2cce8f8560006040518663ffffffff1660e01b8152600401610767959493929190611033565b6040805180830381600087803b15801561078057600080fd5b505af1158015610794573d6000803e3d6000fd5b505050506040513d601f19601f820116820180604052508101906107b89190610c68565b9050809850508a886107ca9190611086565b9850505050505050509550959350505050565b6000806103e5856107ee91906110ba565b9050600083826107fe91906110ba565b90506000826103e88761081191906110ba565b61081b9190610ee4565b905080826108299190611143565b93505050509392505050565b600073ffffffffffffffffffffffffffffffffffffffff82169050919050565b6000819050919050565b600061087a61087561087084610835565b610855565b610835565b9050919050565b600061088c8261085f565b9050919050565b600061089e82610881565b9050919050565b6108ae81610893565b82525050565b60006020820190506108c960008301846108a5565b92915050565b600080fd5b60006108df82610835565b9050919050565b60006108f1826108d4565b9050919050565b610901816108e6565b811461090c57600080fd5b50565b60008135905061091e816108f8565b92915050565b61092d816108d4565b811461093857600080fd5b50565b60008135905061094a81610924565b92915050565b6000819050919050565b61096381610950565b811461096e57600080fd5b50565b6000813590506109808161095a565b92915050565b60008060008060008060c087890312156109a3576109a26108cf565b5b60006109b189828a0161090f565b96505060206109c289828a0161090f565b95505060406109d389828a0161093b565b94505060606109e489828a0161093b565b93505060806109f589828a01610971565b92505060a0610a0689828a01610971565b9150509295509295509295565b610a1c81610950565b82525050565b6000604082019050610a376000830185610a13565b610a446020830184610a13565b9392505050565b6000610a5682610881565b9050919050565b610a6681610a4b565b82525050565b6000602082019050610a816000830184610a5d565b92915050565b6000610a9282610881565b9050919050565b610aa281610a87565b82525050565b6000602082019050610abd6000830184610a99565b92915050565b6000610ace82610881565b9050919050565b610ade81610ac3565b82525050565b6000602082019050610af96000830184610ad5565b92915050565b6000610b0a82610881565b9050919050565b610b1a81610aff565b82525050565b6000602082019050610b356000830184610b11565b92915050565b600080600080600060a08688031215610b5757610b566108cf565b5b6000610b658882890161090f565b9550506020610b768882890161090f565b9450506040610b878882890161093b565b9350506060610b9888828901610971565b9250506080610ba988828901610971565b9150509295509295909350565b610bbf816108d4565b82525050565b6000819050919050565b6000610bea610be5610be084610bc5565b610855565b610950565b9050919050565b610bfa81610bcf565b82525050565b600060a082019050610c156000830188610a99565b610c226020830187610bb6565b610c2f6040830186610bb6565b610c3c6060830185610bf1565b610c496080830184610a13565b9695505050505050565b600081519050610c628161095a565b92915050565b60008060408385031215610c7f57610c7e6108cf565b5b6000610c8d85828601610c53565b9250506020610c9e85828601610c53565b9150509250929050565b6000604082019050610cbd6000830185610a13565b610cca6020830184610bb6565b9392505050565b60006dffffffffffffffffffffffffffff82169050919050565b610cf481610cd1565b8114610cff57600080fd5b50565b600081519050610d1181610ceb565b92915050565b600063ffffffff82169050919050565b610d3081610d17565b8114610d3b57600080fd5b50565b600081519050610d4d81610d27565b92915050565b600080600060608486031215610d6c57610d6b6108cf565b5b6000610d7a86828701610d02565b9350506020610d8b86828701610d02565b9250506040610d9c86828701610d3e565b9150509250925092565b6000604082019050610dbb6000830185610bb6565b610dc86020830184610a13565b9392505050565b60008115159050919050565b610de481610dcf565b8114610def57600080fd5b50565b600081519050610e0181610ddb565b92915050565b600060208284031215610e1d57610e1c6108cf565b5b6000610e2b84828501610df2565b91505092915050565b600082825260208201905092915050565b50565b6000610e55600083610e34565b9150610e6082610e45565b600082019050919050565b6000608082019050610e806000830186610a13565b610e8d6020830185610bf1565b610e9a6040830184610bb6565b8181036060830152610eab81610e48565b9050949350505050565b7f4e487b7100000000000000000000000000000000000000000000000000000000600052601160045260246000fd5b6000610eef82610950565b9150610efa83610950565b9250827fffffffffffffffffffffffffffffffffffffffffffffffffffffffffffffffff03821115610f2f57610f2e610eb5565b5b828201905092915050565b6000819050919050565b600081600f0b9050919050565b6000610f6c610f67610f6284610f3a565b610855565b610f44565b9050919050565b610f7c81610f51565b82525050565b6000610f9d610f98610f9384610bc5565b610855565b610f44565b9050919050565b610fad81610f82565b82525050565b600060a082019050610fc86000830188610f73565b610fd56020830187610fa4565b610fe26040830186610a13565b610fef6060830185610bf1565b610ffc6080830184610bb6565b9695505050505050565b60006020828403121561101c5761101b6108cf565b5b600061102a84828501610c53565b91505092915050565b600060a0820190506110486000830188610a99565b6110556020830187610bb6565b6110626040830186610bb6565b61106f6060830185610a13565b61107c6080830184610bf1565b9695505050505050565b600061109182610950565b915061109c83610950565b9250828210156110af576110ae610eb5565b5b828203905092915050565b60006110c582610950565b91506110d083610950565b9250817fffffffffffffffffffffffffffffffffffffffffffffffffffffffffffffffff048311821515161561110957611108610eb5565b5b828202905092915050565b7f4e487b7100000000000000000000000000000000000000000000000000000000600052601260045260246000fd5b600061114e82610950565b915061115983610950565b92508261116957611168611114565b5b82820490509291505056fea2646970667358221220a8ccd8905f57bc991dc63230fe9de14a69f73b85b39025576de9fa31a43abecc64736f6c63430008090033",
  "devdoc": {
    "kind": "dev",
    "methods": {},
    "version": 1
  },
  "userdoc": {
    "kind": "user",
    "methods": {
      "swap(address,address,address,uint256,uint256)": {
        "notice": "Withdraws 'amountFrom' of token 'from' from the BentoBox account for this swapper. Swaps it for at least 'amountToMin' of token 'to'. Transfers the swapped tokens of 'to' into the BentoBox using a plain ERC20 transfer. Returns the amount of tokens 'to' transferred to BentoBox. (The BentoBox skim function will be used by the caller to get the swapped funds)."
      },
      "swapExact(address,address,address,address,uint256,uint256)": {
        "notice": "Calculates the amount of token 'from' needed to complete the swap (amountFrom), this should be less than or equal to amountFromMax. Withdraws 'amountFrom' of token 'from' from the BentoBox account for this swapper. Swaps it for exactly 'exactAmountTo' of token 'to'. Transfers the swapped tokens of 'to' into the BentoBox using a plain ERC20 transfer. Transfers allocated, but unused 'from' tokens within the BentoBox to 'refundTo' (amountFromMax - amountFrom). Returns the amount of 'from' tokens withdrawn from BentoBox (amountFrom). (The BentoBox skim function will be used by the caller to get the swapped funds)."
      }
    },
    "notice": "USDC/WETH Popsicle Swapper for Ethereum",
    "version": 1
  },
  "storageLayout": {
    "storage": [],
    "types": null
  }
}