{
  "address": "0xBc7Fa554a65A98502457FCFC2f1afa28113D7920",
  "abi": [
    {
      "inputs": [
        {
          "internalType": "contract IPopsicle",
          "name": "_popsicle",
          "type": "address"
        }
      ],
      "stateMutability": "nonpayable",
      "type": "constructor"
    },
    {
      "inputs": [],
      "name": "DEGENBOX",
      "outputs": [
        {
          "internalType": "contract IBentoBoxV1",
          "name": "",
          "type": "address"
        }
      ],
      "stateMutability": "view",
      "type": "function"
    },
    {
      "inputs": [],
      "name": "popsicle",
      "outputs": [
        {
          "internalType": "contract IPopsicle",
          "name": "",
          "type": "address"
        }
      ],
      "stateMutability": "view",
      "type": "function"
    },
    {
      "inputs": [
        {
          "internalType": "address",
          "name": "recipient",
          "type": "address"
        },
        {
          "internalType": "uint256",
          "name": "shareToMin",
          "type": "uint256"
        },
        {
          "internalType": "uint256",
          "name": "shareFrom",
          "type": "uint256"
        }
      ],
      "name": "swap",
      "outputs": [
        {
          "internalType": "uint256",
          "name": "extraShare",
          "type": "uint256"
        },
        {
          "internalType": "uint256",
          "name": "shareReturned",
          "type": "uint256"
        }
      ],
      "stateMutability": "nonpayable",
      "type": "function"
    }
  ],
  "transactionHash": "0xe211f37e6363463de594bc80ad96ad37937de4265415bcc3a42d8332dd2373d4",
  "args": [
    "0x989442D5cCB27E7931095B0f3165c75a6def9bc3"
  ],
  "solcInputHash": "a7dd28009b25f01a8f11abe8914090a8",
  "bytecode": "0x60c06040523480156200001157600080fd5b5060405162003019380380620030198339818101604052810190620000379190620004f8565b7399d8a9c45b2eca8864373a26d1459e3dff1e17f373ffffffffffffffffffffffffffffffffffffffff1663095ea7b3735a6a4d54456819380173272a5e8e9b9904bdf41b7fffffffffffffffffffffffffffffffffffffffffffffffffffffffffffffffff6040518363ffffffff1660e01b8152600401620000bc92919062000556565b6020604051808303816000875af1158015620000dc573d6000803e3d6000fd5b505050506040513d601f19601f82011682018060405250810190620001029190620005c0565b5062000169817fffffffffffffffffffffffffffffffffffffffffffffffffffffffffffffffff73dac17f958d2ee523a2206206994597c13d831ec773ffffffffffffffffffffffffffffffffffffffff166200037b60201b620008b0179092919060201c565b620001e373bebc44782c7db0a1a60cb6fe97d0b483032ff1c77fffffffffffffffffffffffffffffffffffffffffffffffffffffffffffffffff73dac17f958d2ee523a2206206994597c13d831ec773ffffffffffffffffffffffffffffffffffffffff166200037b60201b620008b0179092919060201c565b73a0b86991c6218b36c1d19d4a2e9eb0ce3606eb4873ffffffffffffffffffffffffffffffffffffffff1663095ea7b3827fffffffffffffffffffffffffffffffffffffffffffffffffffffffffffffffff6040518363ffffffff1660e01b81526004016200025492919062000556565b6020604051808303816000875af115801562000274573d6000803e3d6000fd5b505050506040513d601f19601f820116820180604052508101906200029a9190620005c0565b508073ffffffffffffffffffffffffffffffffffffffff166316f0115b6040518163ffffffff1660e01b8152600401602060405180830381865afa158015620002e7573d6000803e3d6000fd5b505050506040513d601f19601f820116820180604052508101906200030d919062000623565b73ffffffffffffffffffffffffffffffffffffffff1660a08173ffffffffffffffffffffffffffffffffffffffff16815250508073ffffffffffffffffffffffffffffffffffffffff1660808173ffffffffffffffffffffffffffffffffffffffff168152505050620006d8565b60006040517f095ea7b300000000000000000000000000000000000000000000000000000000815273ffffffffffffffffffffffffffffffffffffffff841660048201528260248201526000806044836000895af1915050620003e4816200042c60201b60201c565b62000426576040517f08c379a00000000000000000000000000000000000000000000000000000000081526004016200041d90620006b6565b60405180910390fd5b50505050565b60003d826200043f57806000803e806000fd5b80602081146200045c57600081146200046e576000925062000473565b816000803e6000511515925062000473565b600192505b5050919050565b600080fd5b600073ffffffffffffffffffffffffffffffffffffffff82169050919050565b6000620004ac826200047f565b9050919050565b6000620004c0826200049f565b9050919050565b620004d281620004b3565b8114620004de57600080fd5b50565b600081519050620004f281620004c7565b92915050565b6000602082840312156200051157620005106200047a565b5b60006200052184828501620004e1565b91505092915050565b62000535816200049f565b82525050565b6000819050919050565b62000550816200053b565b82525050565b60006040820190506200056d60008301856200052a565b6200057c602083018462000545565b9392505050565b60008115159050919050565b6200059a8162000583565b8114620005a657600080fd5b50565b600081519050620005ba816200058f565b92915050565b600060208284031215620005d957620005d86200047a565b5b6000620005e984828501620005a9565b91505092915050565b620005fd816200049f565b81146200060957600080fd5b50565b6000815190506200061d81620005f2565b92915050565b6000602082840312156200063c576200063b6200047a565b5b60006200064c848285016200060c565b91505092915050565b600082825260208201905092915050565b7f415050524f56455f4641494c4544000000000000000000000000000000000000600082015250565b60006200069e600e8362000655565b9150620006ab8262000666565b602082019050919050565b60006020820190508181036000830152620006d1816200068f565b9050919050565b60805160a0516128ff6200071a600039600061029901526000818161035d015281816103f4015281816105b9015281816107bb015261087601526128ff6000f3fe608060405234801561001057600080fd5b50600436106100415760003560e01c80639f1d0f5914610046578063dc502dfa14610077578063e0bc66b814610095575b600080fd5b610060600480360381019061005b9190611cf4565b6100b3565b60405161006e929190611d56565b60405180910390f35b61007f610874565b60405161008c9190611dde565b60405180910390f35b61009d610898565b6040516100aa9190611e1a565b60405180910390f35b600080600073d96f48665a1410c0cd669a88898eca36b9fc2cce73ffffffffffffffffffffffffffffffffffffffff166397da6d307399d8a9c45b2eca8864373a26d1459e3dff1e17f330306000896040518663ffffffff1660e01b8152600401610122959493929190611ea0565b60408051808303816000875af1158015610140573d6000803e3d6000fd5b505050506040513d601f19601f820116820180604052508101906101649190611f08565b509050735a6a4d54456819380173272a5e8e9b9904bdf41b73ffffffffffffffffffffffffffffffffffffffff166344ee198660006003846000306040518663ffffffff1660e01b81526004016101bf959493929190611fc1565b6020604051808303816000875af11580156101de573d6000803e3d6000fd5b505050506040513d601f19601f820116820180604052508101906102029190612014565b50600073dac17f958d2ee523a2206206994597c13d831ec773ffffffffffffffffffffffffffffffffffffffff166370a08231306040518263ffffffff1660e01b81526004016102529190612041565b602060405180830381865afa15801561026f573d6000803e3d6000fd5b505050506040513d601f19601f820116820180604052508101906102939190612014565b905060007f000000000000000000000000000000000000000000000000000000000000000073ffffffffffffffffffffffffffffffffffffffff16633850c7bd6040518163ffffffff1660e01b815260040160e060405180830381865afa158015610302573d6000803e3d6000fd5b505050506040513d601f19601f82011682018060405250810190610326919061216c565b5050505050509050600061051d6040518061016001604052808473ffffffffffffffffffffffffffffffffffffffff1681526020017f000000000000000000000000000000000000000000000000000000000000000073ffffffffffffffffffffffffffffffffffffffff166359c4f9056040518163ffffffff1660e01b8152600401602060405180830381865afa1580156103c6573d6000803e3d6000fd5b505050506040513d601f19601f820116820180604052508101906103ea919061220e565b60020b81526020017f000000000000000000000000000000000000000000000000000000000000000073ffffffffffffffffffffffffffffffffffffffff166355b812a86040518163ffffffff1660e01b8152600401602060405180830381865afa15801561045d573d6000803e3d6000fd5b505050506040513d601f19601f82011682018060405250810190610481919061220e565b60020b8152602001600015158152602001600260000b8152602001600160000b815260200173bebc44782c7db0a1a60cb6fe97d0b483032ff1c773ffffffffffffffffffffffffffffffffffffffff1681526020016307211ef760e01b7bffffffffffffffffffffffffffffffffffffffffffffffffffffffff19168152602001858152602001620f42408152602001620f4240815250610956565b91505073bebc44782c7db0a1a60cb6fe97d0b483032ff1c773ffffffffffffffffffffffffffffffffffffffff16633df02124600260018487610560919061226a565b60006040518563ffffffff1660e01b81526004016105819493929190612314565b600060405180830381600087803b15801561059b57600080fd5b505af11580156105af573d6000803e3d6000fd5b50505050505060007f000000000000000000000000000000000000000000000000000000000000000073ffffffffffffffffffffffffffffffffffffffff16638dbdbe6d73a0b86991c6218b36c1d19d4a2e9eb0ce3606eb4873ffffffffffffffffffffffffffffffffffffffff166370a08231306040518263ffffffff1660e01b81526004016106409190612041565b602060405180830381865afa15801561065d573d6000803e3d6000fd5b505050506040513d601f19601f820116820180604052508101906106819190612014565b73dac17f958d2ee523a2206206994597c13d831ec773ffffffffffffffffffffffffffffffffffffffff166370a08231306040518263ffffffff1660e01b81526004016106ce9190612041565b602060405180830381865afa1580156106eb573d6000803e3d6000fd5b505050506040513d601f19601f8201168201806040525081019061070f9190612014565b73d96f48665a1410c0cd669a88898eca36b9fc2cce6040518463ffffffff1660e01b815260040161074293929190612359565b6060604051808303816000875af1158015610761573d6000803e3d6000fd5b505050506040513d601f19601f820116820180604052508101906107859190612390565b5050905073d96f48665a1410c0cd669a88898eca36b9fc2cce73ffffffffffffffffffffffffffffffffffffffff166302b9446c7f000000000000000000000000000000000000000000000000000000000000000073d96f48665a1410c0cd669a88898eca36b9fc2cce8b8560006040518663ffffffff1660e01b81526004016108139594939291906123e3565b60408051808303816000875af1158015610831573d6000803e3d6000fd5b505050506040513d601f19601f820116820180604052508101906108559190611f08565b9050809450508684610867919061226a565b9450505050935093915050565b7f000000000000000000000000000000000000000000000000000000000000000081565b73d96f48665a1410c0cd669a88898eca36b9fc2cce81565b60006040517f095ea7b300000000000000000000000000000000000000000000000000000000815273ffffffffffffffffffffffffffffffffffffffff841660048201528260248201526000806044836000895af191505061091181610ec6565b610950576040517f08c379a000000000000000000000000000000000000000000000000000000000815260040161094790612493565b60405180910390fd5b50505050565b600080610961611bbb565b8360000151816000019073ffffffffffffffffffffffffffffffffffffffff16908173ffffffffffffffffffffffffffffffffffffffff16815250506109aa8460200151610f0f565b816020019073ffffffffffffffffffffffffffffffffffffffff16908173ffffffffffffffffffffffffffffffffffffffff16815250506109ee8460400151610f0f565b816040019073ffffffffffffffffffffffffffffffffffffffff16908173ffffffffffffffffffffffffffffffffffffffff1681525050600081602001518260400151610a3b91906124b3565b73ffffffffffffffffffffffffffffffffffffffff1690506000610a9186600001518460400151610a6c91906124b3565b73ffffffffffffffffffffffffffffffffffffffff16670de0b6b3a7640000846113db565b90506000610ad184602001518860000151610aac91906124b3565b73ffffffffffffffffffffffffffffffffffffffff16670de0b6b3a7640000856113db565b9050866060015115610ccf57610af587610100015182670de0b6b3a76400006113db565b8460e00181815250508360e00151876101000151610b13919061226a565b9550610b368760c001518860e0015189608001518a60a001518860e001516114d7565b9450610b43848787611619565b60005b600a811015610cc9578761012001518560a0015111158015610b7157508761014001518560c0015111155b15610b7b57610cc9565b84606001518560c00151610b8f91906124e7565b85608001518660a00151610ba391906124e7565b1115610c1657610bc08560a0015183670de0b6b3a76400006113db565b8560e00181815250508460e0015187610bd9919061226a565b9650610c088860c001518960e001518a608001518b60a001518b8d6101000151610c03919061226a565b6114d7565b9550610c15858888611619565b5b84608001518560a00151610c2a91906124e7565b85606001518660c00151610c3e91906124e7565b1115610cb657610c5b8560c0015184670de0b6b3a76400006113db565b8560e00181815250508460e0015186610c74919061226a565b95506000610c998960c001518a60e001518b60a001518c608001518a60e001516114d7565b90508088610ca79190612541565b9750610cb4868989611619565b505b8080610cc190612597565b915050610b46565b50610ebd565b610ce787610100015183670de0b6b3a76400006113db565b8460e00181815250508360e00151876101000151610d05919061226a565b9450610d288760c001518860e0015189608001518a60a001518860e001516114d7565b9550610d35848787611619565b60005b600a811015610ebb578761012001518560a0015111158015610d6357508761014001518560c0015111155b15610d6d57610ebb565b84606001518560c00151610d8191906124e7565b85608001518660a00151610d9591906124e7565b1115610e0d57610db28560a0015183670de0b6b3a76400006113db565b8560e00181815250508460e0015187610dcb919061226a565b96506000610df08960c001518a60e001518b60a001518c608001518a60e001516114d7565b90508087610dfe9190612541565b9650610e0b868989611619565b505b84608001518560a00151610e2191906124e7565b85606001518660c00151610e3591906124e7565b1115610ea857610e528560c0015184670de0b6b3a76400006113db565b8560e00181815250508460e0015186610e6b919061226a565b9550610e9a8860c001518960e001518a608001518b60a001518a8d6101000151610e95919061226a565b6114d7565b9650610ea7858888611619565b5b8080610eb390612597565b915050610d38565b505b50505050915091565b60003d82610ed857806000803e806000fd5b8060208114610ef25760008114610f035760009250610f08565b816000803e60005115159250610f08565b600192505b5050919050565b60008060008360020b12610f26578260020b610f34565b8260020b610f33906125ea565b5b90507ffffffffffffffffffffffffffffffffffffffffffffffffffffffffffff27618610f6090612633565b60020b811115610fa5576040517f08c379a0000000000000000000000000000000000000000000000000000000008152600401610f9c906126c8565b60405180910390fd5b600080600183161415610fc957700100000000000000000000000000000000610fdb565b6ffffcb933bd6fad37aa2d162d1a5940015b70ffffffffffffffffffffffffffffffffff1690506000600283161461101e5760806ffff97272373d413259a46990580e213a8261101991906124e7565b901c90505b6000600483161461104c5760806ffff2e50f5f656932ef12357cf3c7fdcc8261104791906124e7565b901c90505b6000600883161461107a5760806fffe5caca7e10e4e61c3624eaa0941cd08261107591906124e7565b901c90505b600060108316146110a85760806fffcb9843d60f6159c9db58835c926644826110a391906124e7565b901c90505b600060208316146110d65760806fff973b41fa98c081472e6896dfb254c0826110d191906124e7565b901c90505b600060408316146111045760806fff2ea16466c96a3843ec78b326b52861826110ff91906124e7565b901c90505b600060808316146111325760806ffe5dee046a99a2a811c461f1969c30538261112d91906124e7565b901c90505b60006101008316146111615760806ffcbe86c7900a88aedcffc83b479aa3a48261115c91906124e7565b901c90505b60006102008316146111905760806ff987a7253ac413176f2b074cf7815e548261118b91906124e7565b901c90505b60006104008316146111bf5760806ff3392b0822b70005940c7a398e4b70f3826111ba91906124e7565b901c90505b60006108008316146111ee5760806fe7159475a2c29b7443b29c7fa6e889d9826111e991906124e7565b901c90505b600061100083161461121d5760806fd097f3bdfd2022b8845ad8f792aa58258261121891906124e7565b901c90505b600061200083161461124c5760806fa9f746462d870fdf8a65dc1f90e061e58261124791906124e7565b901c90505b600061400083161461127b5760806f70d869a156d2a1b890bb3df62baf32f78261127691906124e7565b901c90505b60006180008316146112aa5760806f31be135f97d08fd981231505542fcfa6826112a591906124e7565b901c90505b6000620100008316146112da5760806f09aa508b5b7a84e1c677de54f3e99bc9826112d591906124e7565b901c90505b6000620200008316146113095760806e5d6af8dedb81196699c329225ee6048261130491906124e7565b901c90505b6000620400008316146113375760806d2216e584f5fa1ea926041bedfe988261133291906124e7565b901c90505b6000620800008316146113635760806b048a170391f7dc42444e8fa28261135e91906124e7565b901c90505b60008460020b131561139e57807fffffffffffffffffffffffffffffffffffffffffffffffffffffffffffffffff61139b9190612717565b90505b6000640100000000826113b19190612748565b146113bd5760016113c0565b60005b60ff16602082901c6113d29190612541565b92505050919050565b600080600080198587098587029250828110838203039150506000811415611416576000841161140a57600080fd5b838204925050506114d0565b80841161142257600080fd5b60008486880990508281118203915080830392506000856001877fffffffffffffffffffffffffffffffffffffffffffffffffffffffffffffffff0301169050808604955080840493506001818260000304019050808302841793506000600287600302189050808702600203810290508087026002038102905080870260020381029050808702600203810290508087026002038102905080870260020381029050808502955050505050505b9392505050565b60008060008773ffffffffffffffffffffffffffffffffffffffff168787878760405160240161150993929190612795565b604051602081830303815290604052907bffffffffffffffffffffffffffffffffffffffffffffffffffffffff19166020820180517bffffffffffffffffffffffffffffffffffffffffffffffffffffffff83818316178352505050506040516115739190612846565b600060405180830381855afa9150503d80600081146115ae576040519150601f19603f3d011682016040523d82523d6000602084013e6115b3565b606091505b5091509150816115f8576040517f08c379a00000000000000000000000000000000000000000000000000000000081526004016115ef906128a9565b60405180910390fd5b8080602001905181019061160c9190612014565b9250505095945050505050565b61163283600001518460200151856040015185856116c8565b8361010001906fffffffffffffffffffffffffffffffff1690816fffffffffffffffffffffffffffffffff168152505061167f8360000151846020015185604001518661010001516117f4565b8460600185608001828152508281525050508260600151826116a1919061226a565b8360a00181815250508260800151816116ba919061226a565b8360c0018181525050505050565b60008373ffffffffffffffffffffffffffffffffffffffff168573ffffffffffffffffffffffffffffffffffffffff16111561170957838580955081965050505b8473ffffffffffffffffffffffffffffffffffffffff168673ffffffffffffffffffffffffffffffffffffffff161161174e576117478585856118e6565b90506117eb565b8373ffffffffffffffffffffffffffffffffffffffff168673ffffffffffffffffffffffffffffffffffffffff1610156117dc57600061178f8786866118e6565b9050600061179e8789866119ad565b9050806fffffffffffffffffffffffffffffffff16826fffffffffffffffffffffffffffffffff16106117d157806117d3565b815b925050506117ea565b6117e78585846119ad565b90505b5b95945050505050565b6000808373ffffffffffffffffffffffffffffffffffffffff168573ffffffffffffffffffffffffffffffffffffffff16111561183657838580955081965050505b8473ffffffffffffffffffffffffffffffffffffffff168673ffffffffffffffffffffffffffffffffffffffff161161187b57611874858585611a38565b91506118dd565b8373ffffffffffffffffffffffffffffffffffffffff168673ffffffffffffffffffffffffffffffffffffffff1610156118ce576118ba868585611a38565b91506118c7858785611afe565b90506118dc565b6118d9858585611afe565b90505b5b94509492505050565b60008273ffffffffffffffffffffffffffffffffffffffff168473ffffffffffffffffffffffffffffffffffffffff16111561192757828480945081955050505b600061196d8573ffffffffffffffffffffffffffffffffffffffff168573ffffffffffffffffffffffffffffffffffffffff166c010000000000000000000000006113db565b90506119a361199e8483888861198391906124b3565b73ffffffffffffffffffffffffffffffffffffffff166113db565b611b93565b9150509392505050565b60008273ffffffffffffffffffffffffffffffffffffffff168473ffffffffffffffffffffffffffffffffffffffff1611156119ee57828480945081955050505b611a2f611a2a836c010000000000000000000000008787611a0f91906124b3565b73ffffffffffffffffffffffffffffffffffffffff166113db565b611b93565b90509392505050565b60008273ffffffffffffffffffffffffffffffffffffffff168473ffffffffffffffffffffffffffffffffffffffff161115611a7957828480945081955050505b8373ffffffffffffffffffffffffffffffffffffffff16611aeb606060ff16846fffffffffffffffffffffffffffffffff16901b8686611ab991906124b3565b73ffffffffffffffffffffffffffffffffffffffff168673ffffffffffffffffffffffffffffffffffffffff166113db565b611af59190612717565b90509392505050565b60008273ffffffffffffffffffffffffffffffffffffffff168473ffffffffffffffffffffffffffffffffffffffff161115611b3f57828480945081955050505b611b8a826fffffffffffffffffffffffffffffffff168585611b6191906124b3565b73ffffffffffffffffffffffffffffffffffffffff166c010000000000000000000000006113db565b90509392505050565b600081829150816fffffffffffffffffffffffffffffffff1614611bb657600080fd5b919050565b604051806101200160405280600073ffffffffffffffffffffffffffffffffffffffff168152602001600073ffffffffffffffffffffffffffffffffffffffff168152602001600073ffffffffffffffffffffffffffffffffffffffff168152602001600081526020016000815260200160008152602001600081526020016000815260200160006fffffffffffffffffffffffffffffffff1681525090565b600080fd5b600073ffffffffffffffffffffffffffffffffffffffff82169050919050565b6000611c8b82611c60565b9050919050565b611c9b81611c80565b8114611ca657600080fd5b50565b600081359050611cb881611c92565b92915050565b6000819050919050565b611cd181611cbe565b8114611cdc57600080fd5b50565b600081359050611cee81611cc8565b92915050565b600080600060608486031215611d0d57611d0c611c5b565b5b6000611d1b86828701611ca9565b9350506020611d2c86828701611cdf565b9250506040611d3d86828701611cdf565b9150509250925092565b611d5081611cbe565b82525050565b6000604082019050611d6b6000830185611d47565b611d786020830184611d47565b9392505050565b6000819050919050565b6000611da4611d9f611d9a84611c60565b611d7f565b611c60565b9050919050565b6000611db682611d89565b9050919050565b6000611dc882611dab565b9050919050565b611dd881611dbd565b82525050565b6000602082019050611df36000830184611dcf565b92915050565b6000611e0482611dab565b9050919050565b611e1481611df9565b82525050565b6000602082019050611e2f6000830184611e0b565b92915050565b6000611e4082611dab565b9050919050565b611e5081611e35565b82525050565b611e5f81611c80565b82525050565b6000819050919050565b6000611e8a611e85611e8084611e65565b611d7f565b611cbe565b9050919050565b611e9a81611e6f565b82525050565b600060a082019050611eb56000830188611e47565b611ec26020830187611e56565b611ecf6040830186611e56565b611edc6060830185611e91565b611ee96080830184611d47565b9695505050505050565b600081519050611f0281611cc8565b92915050565b60008060408385031215611f1f57611f1e611c5b565b5b6000611f2d85828601611ef3565b9250506020611f3e85828601611ef3565b9150509250929050565b600081600f0b9050919050565b6000611f70611f6b611f6684611e65565b611d7f565b611f48565b9050919050565b611f8081611f55565b82525050565b6000819050919050565b6000611fab611fa6611fa184611f86565b611d7f565b611f48565b9050919050565b611fbb81611f90565b82525050565b600060a082019050611fd66000830188611f77565b611fe36020830187611fb2565b611ff06040830186611d47565b611ffd6060830185611e91565b61200a6080830184611e56565b9695505050505050565b60006020828403121561202a57612029611c5b565b5b600061203884828501611ef3565b91505092915050565b60006020820190506120566000830184611e56565b92915050565b61206581611c60565b811461207057600080fd5b50565b6000815190506120828161205c565b92915050565b60008160020b9050919050565b61209e81612088565b81146120a957600080fd5b50565b6000815190506120bb81612095565b92915050565b600061ffff82169050919050565b6120d8816120c1565b81146120e357600080fd5b50565b6000815190506120f5816120cf565b92915050565b600060ff82169050919050565b612111816120fb565b811461211c57600080fd5b50565b60008151905061212e81612108565b92915050565b60008115159050919050565b61214981612134565b811461215457600080fd5b50565b60008151905061216681612140565b92915050565b600080600080600080600060e0888a03121561218b5761218a611c5b565b5b60006121998a828b01612073565b97505060206121aa8a828b016120ac565b96505060406121bb8a828b016120e6565b95505060606121cc8a828b016120e6565b94505060806121dd8a828b016120e6565b93505060a06121ee8a828b0161211f565b92505060c06121ff8a828b01612157565b91505092959891949750929550565b60006020828403121561222457612223611c5b565b5b6000612232848285016120ac565b91505092915050565b7f4e487b7100000000000000000000000000000000000000000000000000000000600052601160045260246000fd5b600061227582611cbe565b915061228083611cbe565b9250828210156122935761229261223b565b5b828203905092915050565b6000819050919050565b60006122c36122be6122b98461229e565b611d7f565b611f48565b9050919050565b6122d3816122a8565b82525050565b6000819050919050565b60006122fe6122f96122f4846122d9565b611d7f565b611f48565b9050919050565b61230e816122e3565b82525050565b600060808201905061232960008301876122ca565b6123366020830186612305565b6123436040830185611d47565b6123506060830184611e91565b95945050505050565b600060608201905061236e6000830186611d47565b61237b6020830185611d47565b6123886040830184611e56565b949350505050565b6000806000606084860312156123a9576123a8611c5b565b5b60006123b786828701611ef3565b93505060206123c886828701611ef3565b92505060406123d986828701611ef3565b9150509250925092565b600060a0820190506123f86000830188611e47565b6124056020830187611e56565b6124126040830186611e56565b61241f6060830185611d47565b61242c6080830184611e91565b9695505050505050565b600082825260208201905092915050565b7f415050524f56455f4641494c4544000000000000000000000000000000000000600082015250565b600061247d600e83612436565b915061248882612447565b602082019050919050565b600060208201905081810360008301526124ac81612470565b9050919050565b60006124be82611c60565b91506124c983611c60565b9250828210156124dc576124db61223b565b5b828203905092915050565b60006124f282611cbe565b91506124fd83611cbe565b9250817fffffffffffffffffffffffffffffffffffffffffffffffffffffffffffffffff04831182151516156125365761253561223b565b5b828202905092915050565b600061254c82611cbe565b915061255783611cbe565b9250827fffffffffffffffffffffffffffffffffffffffffffffffffffffffffffffffff0382111561258c5761258b61223b565b5b828201905092915050565b60006125a282611cbe565b91507fffffffffffffffffffffffffffffffffffffffffffffffffffffffffffffffff8214156125d5576125d461223b565b5b600182019050919050565b6000819050919050565b60006125f5826125e0565b91507f80000000000000000000000000000000000000000000000000000000000000008214156126285761262761223b565b5b816000039050919050565b600061263e82612088565b91507fffffffffffffffffffffffffffffffffffffffffffffffffffffffffff8000008214156126715761267061223b565b5b816000039050919050565b7f5400000000000000000000000000000000000000000000000000000000000000600082015250565b60006126b2600183612436565b91506126bd8261267c565b602082019050919050565b600060208201905081810360008301526126e1816126a5565b9050919050565b7f4e487b7100000000000000000000000000000000000000000000000000000000600052601260045260246000fd5b600061272282611cbe565b915061272d83611cbe565b92508261273d5761273c6126e8565b5b828204905092915050565b600061275382611cbe565b915061275e83611cbe565b92508261276e5761276d6126e8565b5b828206905092915050565b60008160000b9050919050565b61278f81612779565b82525050565b60006060820190506127aa6000830186612786565b6127b76020830185612786565b6127c46040830184611d47565b949350505050565b600081519050919050565b600081905092915050565b60005b838110156128005780820151818401526020810190506127e5565b8381111561280f576000848401525b50505050565b6000612820826127cc565b61282a81856127d7565b935061283a8185602086016127e2565b80840191505092915050565b60006128528284612815565b915081905092915050565b7f63616c6c206661696c6564000000000000000000000000000000000000000000600082015250565b6000612893600b83612436565b915061289e8261285d565b602082019050919050565b600060208201905081810360008301526128c281612886565b905091905056fea2646970667358221220764b69b39dc2bf96603de7dc8a8b627b43883c544fc5ae8d2b527b369419921f64736f6c634300080a0033",
  "devdoc": {
    "kind": "dev",
    "methods": {},
    "version": 1
  },
  "userdoc": {
    "kind": "user",
    "methods": {},
    "notice": "USDC/USDT Popsicle Leverage Swapper for Ethereum",
    "version": 1
  },
  "storageLayout": {
    "storage": [],
    "types": null
  }
}