{
  "address": "0xc2141D069c75C76EFf779fc3Ca187233dAfC1e7c",
  "abi": [
    {
      "inputs": [
        {
          "internalType": "contract IPopsicle",
          "name": "_popsicle",
          "type": "address"
        }
      ],
      "stateMutability": "nonpayable",
      "type": "constructor"
    },
    {
      "inputs": [],
      "name": "DEGENBOX",
      "outputs": [
        {
          "internalType": "contract IBentoBoxV1",
          "name": "",
          "type": "address"
        }
      ],
      "stateMutability": "view",
      "type": "function"
    },
    {
      "inputs": [],
      "name": "MIM",
      "outputs": [
        {
          "internalType": "contract IERC20",
          "name": "",
          "type": "address"
        }
      ],
      "stateMutability": "view",
      "type": "function"
    },
    {
      "inputs": [],
      "name": "MIM3POOL",
      "outputs": [
        {
          "internalType": "contract CurvePool",
          "name": "",
          "type": "address"
        }
      ],
      "stateMutability": "view",
      "type": "function"
    },
    {
      "inputs": [],
      "name": "USDT",
      "outputs": [
        {
          "internalType": "contract ERC20",
          "name": "",
          "type": "address"
        }
      ],
      "stateMutability": "view",
      "type": "function"
    },
    {
      "inputs": [],
      "name": "UST",
      "outputs": [
        {
          "internalType": "contract IERC20",
          "name": "",
          "type": "address"
        }
      ],
      "stateMutability": "view",
      "type": "function"
    },
    {
      "inputs": [],
      "name": "UST2POOL",
      "outputs": [
        {
          "internalType": "contract CurvePool",
          "name": "",
          "type": "address"
        }
      ],
      "stateMutability": "view",
      "type": "function"
    },
    {
      "inputs": [],
      "name": "popsicle",
      "outputs": [
        {
          "internalType": "contract IPopsicle",
          "name": "",
          "type": "address"
        }
      ],
      "stateMutability": "view",
      "type": "function"
    },
    {
      "inputs": [
        {
          "internalType": "contract IERC20",
          "name": "",
          "type": "address"
        },
        {
          "internalType": "contract IERC20",
          "name": "",
          "type": "address"
        },
        {
          "internalType": "address",
          "name": "recipient",
          "type": "address"
        },
        {
          "internalType": "uint256",
          "name": "shareToMin",
          "type": "uint256"
        },
        {
          "internalType": "uint256",
          "name": "shareFrom",
          "type": "uint256"
        }
      ],
      "name": "swap",
      "outputs": [
        {
          "internalType": "uint256",
          "name": "extraShare",
          "type": "uint256"
        },
        {
          "internalType": "uint256",
          "name": "shareReturned",
          "type": "uint256"
        }
      ],
      "stateMutability": "nonpayable",
      "type": "function"
    },
    {
      "inputs": [
        {
          "internalType": "contract IERC20",
          "name": "",
          "type": "address"
        },
        {
          "internalType": "contract IERC20",
          "name": "",
          "type": "address"
        },
        {
          "internalType": "address",
          "name": "",
          "type": "address"
        },
        {
          "internalType": "address",
          "name": "",
          "type": "address"
        },
        {
          "internalType": "uint256",
          "name": "",
          "type": "uint256"
        },
        {
          "internalType": "uint256",
          "name": "",
          "type": "uint256"
        }
      ],
      "name": "swapExact",
      "outputs": [
        {
          "internalType": "uint256",
          "name": "shareUsed",
          "type": "uint256"
        },
        {
          "internalType": "uint256",
          "name": "shareReturned",
          "type": "uint256"
        }
      ],
      "stateMutability": "pure",
      "type": "function"
    }
  ],
  "transactionHash": "0x60e0984302cb1c80087600bea47cae20c4967b0cfbf48d99d2a2aad2d3518f66",
  "args": [
    "0xbA38029806AbE4B45D5273098137DDb52dA8e62F"
  ],
  "solcInputHash": "a7dd28009b25f01a8f11abe8914090a8",
  "bytecode": "0x60a06040523480156200001157600080fd5b50604051620013f6380380620013f6833981810160405281019062000037919062000335565b8073ffffffffffffffffffffffffffffffffffffffff1660808173ffffffffffffffffffffffffffffffffffffffff168152505073a47c8bf37f92abed4a126bda807a7b7498661acd73ffffffffffffffffffffffffffffffffffffffff1663095ea7b37355a8a39bc9694714e2874c1ce77aa1e599461e187fffffffffffffffffffffffffffffffffffffffffffffffffffffffffffffffff6040518363ffffffff1660e01b8152600401620000f092919062000393565b6020604051808303816000875af115801562000110573d6000803e3d6000fd5b505050506040513d601f19601f82011682018060405250810190620001369190620003fd565b50620001b1735a6a4d54456819380173272a5e8e9b9904bdf41b7fffffffffffffffffffffffffffffffffffffffffffffffffffffffffffffffff73dac17f958d2ee523a2206206994597c13d831ec773ffffffffffffffffffffffffffffffffffffffff16620001b860201b62000649179092919060201c565b50620004b2565b60006040517f095ea7b300000000000000000000000000000000000000000000000000000000815273ffffffffffffffffffffffffffffffffffffffff841660048201528260248201526000806044836000895af191505062000221816200026960201b60201c565b62000263576040517f08c379a00000000000000000000000000000000000000000000000000000000081526004016200025a9062000490565b60405180910390fd5b50505050565b60003d826200027c57806000803e806000fd5b8060208114620002995760008114620002ab5760009250620002b0565b816000803e60005115159250620002b0565b600192505b5050919050565b600080fd5b600073ffffffffffffffffffffffffffffffffffffffff82169050919050565b6000620002e982620002bc565b9050919050565b6000620002fd82620002dc565b9050919050565b6200030f81620002f0565b81146200031b57600080fd5b50565b6000815190506200032f8162000304565b92915050565b6000602082840312156200034e576200034d620002b7565b5b60006200035e848285016200031e565b91505092915050565b6200037281620002dc565b82525050565b6000819050919050565b6200038d8162000378565b82525050565b6000604082019050620003aa600083018562000367565b620003b9602083018462000382565b9392505050565b60008115159050919050565b620003d781620003c0565b8114620003e357600080fd5b50565b600081519050620003f781620003cc565b92915050565b600060208284031215620004165762000415620002b7565b5b60006200042684828501620003e6565b91505092915050565b600082825260208201905092915050565b7f415050524f56455f4641494c4544000000000000000000000000000000000000600082015250565b600062000478600e836200042f565b9150620004858262000440565b602082019050919050565b60006020820190508181036000830152620004ab8162000469565b9050919050565b608051610f1a620004dc60003960008181610243015281816102b401526103420152610f1a6000f3fe608060405234801561001057600080fd5b50600436106100935760003560e01c8063daec383d11610066578063daec383d14610123578063dc502dfa14610141578063e0bc66b81461015f578063e343fe121461017d578063e7ec9f30146101ae57610093565b806322a88c09146100985780634622be90146100b6578063931893f2146100e7578063c54e44eb14610105575b600080fd5b6100a06101cc565b6040516100ad91906107b7565b60405180910390f35b6100d060048036038101906100cb9190610889565b6101e4565b6040516100de929190610925565b60405180910390f35b6100ef6101f9565b6040516100fc91906107b7565b60405180910390f35b61010d610211565b60405161011a919061096f565b60405180910390f35b61012b610229565b60405161013891906109ab565b60405180910390f35b610149610241565b60405161015691906109e7565b60405180910390f35b610167610265565b6040516101749190610a23565b60405180910390f35b61019760048036038101906101929190610a3e565b61027d565b6040516101a5929190610925565b60405180910390f35b6101b6610631565b6040516101c391906109ab565b60405180910390f35b735a6a4d54456819380173272a5e8e9b9904bdf41b81565b60008060008091509150965096945050505050565b7355a8a39bc9694714e2874c1ce77aa1e599461e1881565b73dac17f958d2ee523a2206206994597c13d831ec781565b7399d8a9c45b2eca8864373a26d1459e3dff1e17f381565b7f000000000000000000000000000000000000000000000000000000000000000081565b73d96f48665a1410c0cd669a88898eca36b9fc2cce81565b600080600073d96f48665a1410c0cd669a88898eca36b9fc2cce73ffffffffffffffffffffffffffffffffffffffff166397da6d307f000000000000000000000000000000000000000000000000000000000000000030306000896040518663ffffffff1660e01b81526004016102f8959493929190610b03565b60408051808303816000875af1158015610316573d6000803e3d6000fd5b505050506040513d601f19601f8201168201806040525081019061033a9190610b6b565b5090506000807f000000000000000000000000000000000000000000000000000000000000000073ffffffffffffffffffffffffffffffffffffffff1662f714ce84306040518363ffffffff1660e01b815260040161039a929190610bab565b60408051808303816000875af11580156103b8573d6000803e3d6000fd5b505050506040513d601f19601f820116820180604052508101906103dc9190610b6b565b9150915060007355a8a39bc9694714e2874c1ce77aa1e599461e1873ffffffffffffffffffffffffffffffffffffffff1663ddc1f59d6001600086600073d96f48665a1410c0cd669a88898eca36b9fc2cce6040518663ffffffff1660e01b815260040161044e959493929190610c4d565b6020604051808303816000875af115801561046d573d6000803e3d6000fd5b505050506040513d601f19601f820116820180604052508101906104919190610ca0565b9050735a6a4d54456819380173272a5e8e9b9904bdf41b73ffffffffffffffffffffffffffffffffffffffff166344ee19866003600085600073d96f48665a1410c0cd669a88898eca36b9fc2cce6040518663ffffffff1660e01b81526004016104ff959493929190610d08565b6020604051808303816000875af115801561051e573d6000803e3d6000fd5b505050506040513d601f19601f820116820180604052508101906105429190610ca0565b8161054d9190610d8a565b905073d96f48665a1410c0cd669a88898eca36b9fc2cce73ffffffffffffffffffffffffffffffffffffffff166302b9446c7399d8a9c45b2eca8864373a26d1459e3dff1e17f373d96f48665a1410c0cd669a88898eca36b9fc2cce8c8560006040518663ffffffff1660e01b81526004016105cd959493929190610de0565b60408051808303816000875af11580156105eb573d6000803e3d6000fd5b505050506040513d601f19601f8201168201806040525081019061060f9190610b6b565b90508095505087856106219190610e33565b9550505050509550959350505050565b73a47c8bf37f92abed4a126bda807a7b7498661acd81565b60006040517f095ea7b300000000000000000000000000000000000000000000000000000000815273ffffffffffffffffffffffffffffffffffffffff841660048201528260248201526000806044836000895af19150506106aa816106ef565b6106e9576040517f08c379a00000000000000000000000000000000000000000000000000000000081526004016106e090610ec4565b60405180910390fd5b50505050565b60003d8261070157806000803e806000fd5b806020811461071b576000811461072c5760009250610731565b816000803e60005115159250610731565b600192505b5050919050565b600073ffffffffffffffffffffffffffffffffffffffff82169050919050565b6000819050919050565b600061077d61077861077384610738565b610758565b610738565b9050919050565b600061078f82610762565b9050919050565b60006107a182610784565b9050919050565b6107b181610796565b82525050565b60006020820190506107cc60008301846107a8565b92915050565b600080fd5b60006107e282610738565b9050919050565b60006107f4826107d7565b9050919050565b610804816107e9565b811461080f57600080fd5b50565b600081359050610821816107fb565b92915050565b610830816107d7565b811461083b57600080fd5b50565b60008135905061084d81610827565b92915050565b6000819050919050565b61086681610853565b811461087157600080fd5b50565b6000813590506108838161085d565b92915050565b60008060008060008060c087890312156108a6576108a56107d2565b5b60006108b489828a01610812565b96505060206108c589828a01610812565b95505060406108d689828a0161083e565b94505060606108e789828a0161083e565b93505060806108f889828a01610874565b92505060a061090989828a01610874565b9150509295509295509295565b61091f81610853565b82525050565b600060408201905061093a6000830185610916565b6109476020830184610916565b9392505050565b600061095982610784565b9050919050565b6109698161094e565b82525050565b60006020820190506109846000830184610960565b92915050565b600061099582610784565b9050919050565b6109a58161098a565b82525050565b60006020820190506109c0600083018461099c565b92915050565b60006109d182610784565b9050919050565b6109e1816109c6565b82525050565b60006020820190506109fc60008301846109d8565b92915050565b6000610a0d82610784565b9050919050565b610a1d81610a02565b82525050565b6000602082019050610a386000830184610a14565b92915050565b600080600080600060a08688031215610a5a57610a596107d2565b5b6000610a6888828901610812565b9550506020610a7988828901610812565b9450506040610a8a8882890161083e565b9350506060610a9b88828901610874565b9250506080610aac88828901610874565b9150509295509295909350565b610ac2816107d7565b82525050565b6000819050919050565b6000610aed610ae8610ae384610ac8565b610758565b610853565b9050919050565b610afd81610ad2565b82525050565b600060a082019050610b18600083018861099c565b610b256020830187610ab9565b610b326040830186610ab9565b610b3f6060830185610af4565b610b4c6080830184610916565b9695505050505050565b600081519050610b658161085d565b92915050565b60008060408385031215610b8257610b816107d2565b5b6000610b9085828601610b56565b9250506020610ba185828601610b56565b9150509250929050565b6000604082019050610bc06000830185610916565b610bcd6020830184610ab9565b9392505050565b6000819050919050565b600081600f0b9050919050565b6000610c06610c01610bfc84610bd4565b610758565b610bde565b9050919050565b610c1681610beb565b82525050565b6000610c37610c32610c2d84610ac8565b610758565b610bde565b9050919050565b610c4781610c1c565b82525050565b600060a082019050610c626000830188610c0d565b610c6f6020830187610c3e565b610c7c6040830186610916565b610c896060830185610af4565b610c966080830184610ab9565b9695505050505050565b600060208284031215610cb657610cb56107d2565b5b6000610cc484828501610b56565b91505092915050565b6000819050919050565b6000610cf2610ced610ce884610ccd565b610758565b610bde565b9050919050565b610d0281610cd7565b82525050565b600060a082019050610d1d6000830188610cf9565b610d2a6020830187610c3e565b610d376040830186610916565b610d446060830185610af4565b610d516080830184610ab9565b9695505050505050565b7f4e487b7100000000000000000000000000000000000000000000000000000000600052601160045260246000fd5b6000610d9582610853565b9150610da083610853565b9250827fffffffffffffffffffffffffffffffffffffffffffffffffffffffffffffffff03821115610dd557610dd4610d5b565b5b828201905092915050565b600060a082019050610df5600083018861099c565b610e026020830187610ab9565b610e0f6040830186610ab9565b610e1c6060830185610916565b610e296080830184610af4565b9695505050505050565b6000610e3e82610853565b9150610e4983610853565b925082821015610e5c57610e5b610d5b565b5b828203905092915050565b600082825260208201905092915050565b7f415050524f56455f4641494c4544000000000000000000000000000000000000600082015250565b6000610eae600e83610e67565b9150610eb982610e78565b602082019050919050565b60006020820190508181036000830152610edd81610ea1565b905091905056fea2646970667358221220a9117968b0455a5dafc2665c8c62efdbe050955c7e28128c39a662946c3ee74864736f6c634300080a0033",
  "devdoc": {
    "kind": "dev",
    "methods": {},
    "version": 1
  },
  "userdoc": {
    "kind": "user",
    "methods": {
      "swap(address,address,address,uint256,uint256)": {
        "notice": "Withdraws 'amountFrom' of token 'from' from the BentoBox account for this swapper. Swaps it for at least 'amountToMin' of token 'to'. Transfers the swapped tokens of 'to' into the BentoBox using a plain ERC20 transfer. Returns the amount of tokens 'to' transferred to BentoBox. (The BentoBox skim function will be used by the caller to get the swapped funds)."
      },
      "swapExact(address,address,address,address,uint256,uint256)": {
        "notice": "Calculates the amount of token 'from' needed to complete the swap (amountFrom), this should be less than or equal to amountFromMax. Withdraws 'amountFrom' of token 'from' from the BentoBox account for this swapper. Swaps it for exactly 'exactAmountTo' of token 'to'. Transfers the swapped tokens of 'to' into the BentoBox using a plain ERC20 transfer. Transfers allocated, but unused 'from' tokens within the BentoBox to 'refundTo' (amountFromMax - amountFrom). Returns the amount of 'from' tokens withdrawn from BentoBox (amountFrom). (The BentoBox skim function will be used by the caller to get the swapped funds)."
      }
    },
    "notice": "UST/USDT Popsicle Swapper for Ethereum",
    "version": 1
  },
  "storageLayout": {
    "storage": [],
    "types": null
  }
}