{
  "address": "0xFa85b0BB658d519247494b6020Cae6E65f572950",
  "abi": [
    {
      "inputs": [
        {
          "internalType": "contract IPopsicle",
          "name": "_popsicle",
          "type": "address"
        }
      ],
      "stateMutability": "nonpayable",
      "type": "constructor"
    },
    {
      "inputs": [],
      "name": "DEGENBOX",
      "outputs": [
        {
          "internalType": "contract IBentoBoxV1",
          "name": "",
          "type": "address"
        }
      ],
      "stateMutability": "view",
      "type": "function"
    },
    {
      "inputs": [],
      "name": "MIM",
      "outputs": [
        {
          "internalType": "contract IERC20",
          "name": "",
          "type": "address"
        }
      ],
      "stateMutability": "view",
      "type": "function"
    },
    {
      "inputs": [],
      "name": "MIM3POOL",
      "outputs": [
        {
          "internalType": "contract CurvePool",
          "name": "",
          "type": "address"
        }
      ],
      "stateMutability": "view",
      "type": "function"
    },
    {
      "inputs": [],
      "name": "USDC",
      "outputs": [
        {
          "internalType": "contract IERC20",
          "name": "",
          "type": "address"
        }
      ],
      "stateMutability": "view",
      "type": "function"
    },
    {
      "inputs": [],
      "name": "USDT",
      "outputs": [
        {
          "internalType": "contract ERC20",
          "name": "",
          "type": "address"
        }
      ],
      "stateMutability": "view",
      "type": "function"
    },
    {
      "inputs": [],
      "name": "popsicle",
      "outputs": [
        {
          "internalType": "contract IPopsicle",
          "name": "",
          "type": "address"
        }
      ],
      "stateMutability": "view",
      "type": "function"
    },
    {
      "inputs": [
        {
          "internalType": "contract IERC20",
          "name": "",
          "type": "address"
        },
        {
          "internalType": "contract IERC20",
          "name": "",
          "type": "address"
        },
        {
          "internalType": "address",
          "name": "recipient",
          "type": "address"
        },
        {
          "internalType": "uint256",
          "name": "shareToMin",
          "type": "uint256"
        },
        {
          "internalType": "uint256",
          "name": "shareFrom",
          "type": "uint256"
        }
      ],
      "name": "swap",
      "outputs": [
        {
          "internalType": "uint256",
          "name": "extraShare",
          "type": "uint256"
        },
        {
          "internalType": "uint256",
          "name": "shareReturned",
          "type": "uint256"
        }
      ],
      "stateMutability": "nonpayable",
      "type": "function"
    },
    {
      "inputs": [
        {
          "internalType": "contract IERC20",
          "name": "",
          "type": "address"
        },
        {
          "internalType": "contract IERC20",
          "name": "",
          "type": "address"
        },
        {
          "internalType": "address",
          "name": "",
          "type": "address"
        },
        {
          "internalType": "address",
          "name": "",
          "type": "address"
        },
        {
          "internalType": "uint256",
          "name": "",
          "type": "uint256"
        },
        {
          "internalType": "uint256",
          "name": "",
          "type": "uint256"
        }
      ],
      "name": "swapExact",
      "outputs": [
        {
          "internalType": "uint256",
          "name": "shareUsed",
          "type": "uint256"
        },
        {
          "internalType": "uint256",
          "name": "shareReturned",
          "type": "uint256"
        }
      ],
      "stateMutability": "pure",
      "type": "function"
    }
  ],
  "transactionHash": "0x052df6db7596360a4bcfcb54fd5c8d85a8a7c07f2bd8bce661d06a567a703fa1",
  "args": [
    "0x989442D5cCB27E7931095B0f3165c75a6def9bc3"
  ],
  "solcInputHash": "a7dd28009b25f01a8f11abe8914090a8",
  "bytecode": "0x60a06040523480156200001157600080fd5b50604051620013b5380380620013b5833981810160405281019062000037919062000335565b8073ffffffffffffffffffffffffffffffffffffffff1660808173ffffffffffffffffffffffffffffffffffffffff168152505073a0b86991c6218b36c1d19d4a2e9eb0ce3606eb4873ffffffffffffffffffffffffffffffffffffffff1663095ea7b3735a6a4d54456819380173272a5e8e9b9904bdf41b7fffffffffffffffffffffffffffffffffffffffffffffffffffffffffffffffff6040518363ffffffff1660e01b8152600401620000f092919062000393565b6020604051808303816000875af115801562000110573d6000803e3d6000fd5b505050506040513d601f19601f82011682018060405250810190620001369190620003fd565b50620001b1735a6a4d54456819380173272a5e8e9b9904bdf41b7fffffffffffffffffffffffffffffffffffffffffffffffffffffffffffffffff73dac17f958d2ee523a2206206994597c13d831ec773ffffffffffffffffffffffffffffffffffffffff16620001b860201b62000608179092919060201c565b50620004b2565b60006040517f095ea7b300000000000000000000000000000000000000000000000000000000815273ffffffffffffffffffffffffffffffffffffffff841660048201528260248201526000806044836000895af191505062000221816200026960201b60201c565b62000263576040517f08c379a00000000000000000000000000000000000000000000000000000000081526004016200025a9062000490565b60405180910390fd5b50505050565b60003d826200027c57806000803e806000fd5b8060208114620002995760008114620002ab5760009250620002b0565b816000803e60005115159250620002b0565b600192505b5050919050565b600080fd5b600073ffffffffffffffffffffffffffffffffffffffff82169050919050565b6000620002e982620002bc565b9050919050565b6000620002fd82620002dc565b9050919050565b6200030f81620002f0565b81146200031b57600080fd5b50565b6000815190506200032f8162000304565b92915050565b6000602082840312156200034e576200034d620002b7565b5b60006200035e848285016200031e565b91505092915050565b6200037281620002dc565b82525050565b6000819050919050565b6200038d8162000378565b82525050565b6000604082019050620003aa600083018562000367565b620003b9602083018462000382565b9392505050565b60008115159050919050565b620003d781620003c0565b8114620003e357600080fd5b50565b600081519050620003f781620003cc565b92915050565b600060208284031215620004165762000415620002b7565b5b60006200042684828501620003e6565b91505092915050565b600082825260208201905092915050565b7f415050524f56455f4641494c4544000000000000000000000000000000000000600082015250565b600062000478600e836200042f565b9150620004858262000440565b602082019050919050565b60006020820190508181036000830152620004ab8162000469565b9050919050565b608051610ed9620004dc6000396000818161021a0152818161028b01526103190152610ed96000f3fe608060405234801561001057600080fd5b50600436106100885760003560e01c8063daec383d1161005b578063daec383d14610118578063dc502dfa14610136578063e0bc66b814610154578063e343fe121461017257610088565b806322a88c091461008d5780634622be90146100ab57806389a30271146100dc578063c54e44eb146100fa575b600080fd5b6100956101a3565b6040516100a29190610776565b60405180910390f35b6100c560048036038101906100c09190610848565b6101bb565b6040516100d39291906108e4565b60405180910390f35b6100e46101d0565b6040516100f1919061092e565b60405180910390f35b6101026101e8565b60405161010f919061096a565b60405180910390f35b610120610200565b60405161012d919061092e565b60405180910390f35b61013e610218565b60405161014b91906109a6565b60405180910390f35b61015c61023c565b60405161016991906109e2565b60405180910390f35b61018c600480360381019061018791906109fd565b610254565b60405161019a9291906108e4565b60405180910390f35b735a6a4d54456819380173272a5e8e9b9904bdf41b81565b60008060008091509150965096945050505050565b73a0b86991c6218b36c1d19d4a2e9eb0ce3606eb4881565b73dac17f958d2ee523a2206206994597c13d831ec781565b7399d8a9c45b2eca8864373a26d1459e3dff1e17f381565b7f000000000000000000000000000000000000000000000000000000000000000081565b73d96f48665a1410c0cd669a88898eca36b9fc2cce81565b600080600073d96f48665a1410c0cd669a88898eca36b9fc2cce73ffffffffffffffffffffffffffffffffffffffff166397da6d307f000000000000000000000000000000000000000000000000000000000000000030306000896040518663ffffffff1660e01b81526004016102cf959493929190610ac2565b60408051808303816000875af11580156102ed573d6000803e3d6000fd5b505050506040513d601f19601f820116820180604052508101906103119190610b2a565b5090506000807f000000000000000000000000000000000000000000000000000000000000000073ffffffffffffffffffffffffffffffffffffffff1662f714ce84306040518363ffffffff1660e01b8152600401610371929190610b6a565b60408051808303816000875af115801561038f573d6000803e3d6000fd5b505050506040513d601f19601f820116820180604052508101906103b39190610b2a565b915091506000735a6a4d54456819380173272a5e8e9b9904bdf41b73ffffffffffffffffffffffffffffffffffffffff166344ee19866002600086600073d96f48665a1410c0cd669a88898eca36b9fc2cce6040518663ffffffff1660e01b8152600401610425959493929190610c0c565b6020604051808303816000875af1158015610444573d6000803e3d6000fd5b505050506040513d601f19601f820116820180604052508101906104689190610c5f565b9050735a6a4d54456819380173272a5e8e9b9904bdf41b73ffffffffffffffffffffffffffffffffffffffff166344ee19866003600085600073d96f48665a1410c0cd669a88898eca36b9fc2cce6040518663ffffffff1660e01b81526004016104d6959493929190610cc7565b6020604051808303816000875af11580156104f5573d6000803e3d6000fd5b505050506040513d601f19601f820116820180604052508101906105199190610c5f565b816105249190610d49565b905073d96f48665a1410c0cd669a88898eca36b9fc2cce73ffffffffffffffffffffffffffffffffffffffff166302b9446c7399d8a9c45b2eca8864373a26d1459e3dff1e17f373d96f48665a1410c0cd669a88898eca36b9fc2cce8c8560006040518663ffffffff1660e01b81526004016105a4959493929190610d9f565b60408051808303816000875af11580156105c2573d6000803e3d6000fd5b505050506040513d601f19601f820116820180604052508101906105e69190610b2a565b90508095505087856105f89190610df2565b9550505050509550959350505050565b60006040517f095ea7b300000000000000000000000000000000000000000000000000000000815273ffffffffffffffffffffffffffffffffffffffff841660048201528260248201526000806044836000895af1915050610669816106ae565b6106a8576040517f08c379a000000000000000000000000000000000000000000000000000000000815260040161069f90610e83565b60405180910390fd5b50505050565b60003d826106c057806000803e806000fd5b80602081146106da57600081146106eb57600092506106f0565b816000803e600051151592506106f0565b600192505b5050919050565b600073ffffffffffffffffffffffffffffffffffffffff82169050919050565b6000819050919050565b600061073c610737610732846106f7565b610717565b6106f7565b9050919050565b600061074e82610721565b9050919050565b600061076082610743565b9050919050565b61077081610755565b82525050565b600060208201905061078b6000830184610767565b92915050565b600080fd5b60006107a1826106f7565b9050919050565b60006107b382610796565b9050919050565b6107c3816107a8565b81146107ce57600080fd5b50565b6000813590506107e0816107ba565b92915050565b6107ef81610796565b81146107fa57600080fd5b50565b60008135905061080c816107e6565b92915050565b6000819050919050565b61082581610812565b811461083057600080fd5b50565b6000813590506108428161081c565b92915050565b60008060008060008060c0878903121561086557610864610791565b5b600061087389828a016107d1565b965050602061088489828a016107d1565b955050604061089589828a016107fd565b94505060606108a689828a016107fd565b93505060806108b789828a01610833565b92505060a06108c889828a01610833565b9150509295509295509295565b6108de81610812565b82525050565b60006040820190506108f960008301856108d5565b61090660208301846108d5565b9392505050565b600061091882610743565b9050919050565b6109288161090d565b82525050565b6000602082019050610943600083018461091f565b92915050565b600061095482610743565b9050919050565b61096481610949565b82525050565b600060208201905061097f600083018461095b565b92915050565b600061099082610743565b9050919050565b6109a081610985565b82525050565b60006020820190506109bb6000830184610997565b92915050565b60006109cc82610743565b9050919050565b6109dc816109c1565b82525050565b60006020820190506109f760008301846109d3565b92915050565b600080600080600060a08688031215610a1957610a18610791565b5b6000610a27888289016107d1565b9550506020610a38888289016107d1565b9450506040610a49888289016107fd565b9350506060610a5a88828901610833565b9250506080610a6b88828901610833565b9150509295509295909350565b610a8181610796565b82525050565b6000819050919050565b6000610aac610aa7610aa284610a87565b610717565b610812565b9050919050565b610abc81610a91565b82525050565b600060a082019050610ad7600083018861091f565b610ae46020830187610a78565b610af16040830186610a78565b610afe6060830185610ab3565b610b0b60808301846108d5565b9695505050505050565b600081519050610b248161081c565b92915050565b60008060408385031215610b4157610b40610791565b5b6000610b4f85828601610b15565b9250506020610b6085828601610b15565b9150509250929050565b6000604082019050610b7f60008301856108d5565b610b8c6020830184610a78565b9392505050565b6000819050919050565b600081600f0b9050919050565b6000610bc5610bc0610bbb84610b93565b610717565b610b9d565b9050919050565b610bd581610baa565b82525050565b6000610bf6610bf1610bec84610a87565b610717565b610b9d565b9050919050565b610c0681610bdb565b82525050565b600060a082019050610c216000830188610bcc565b610c2e6020830187610bfd565b610c3b60408301866108d5565b610c486060830185610ab3565b610c556080830184610a78565b9695505050505050565b600060208284031215610c7557610c74610791565b5b6000610c8384828501610b15565b91505092915050565b6000819050919050565b6000610cb1610cac610ca784610c8c565b610717565b610b9d565b9050919050565b610cc181610c96565b82525050565b600060a082019050610cdc6000830188610cb8565b610ce96020830187610bfd565b610cf660408301866108d5565b610d036060830185610ab3565b610d106080830184610a78565b9695505050505050565b7f4e487b7100000000000000000000000000000000000000000000000000000000600052601160045260246000fd5b6000610d5482610812565b9150610d5f83610812565b9250827fffffffffffffffffffffffffffffffffffffffffffffffffffffffffffffffff03821115610d9457610d93610d1a565b5b828201905092915050565b600060a082019050610db4600083018861091f565b610dc16020830187610a78565b610dce6040830186610a78565b610ddb60608301856108d5565b610de86080830184610ab3565b9695505050505050565b6000610dfd82610812565b9150610e0883610812565b925082821015610e1b57610e1a610d1a565b5b828203905092915050565b600082825260208201905092915050565b7f415050524f56455f4641494c4544000000000000000000000000000000000000600082015250565b6000610e6d600e83610e26565b9150610e7882610e37565b602082019050919050565b60006020820190508181036000830152610e9c81610e60565b905091905056fea2646970667358221220fbc7ee2ff1855092ee72e653e7846632c2bb781273818bcd626812b4b3adafbf64736f6c634300080a0033",
  "devdoc": {
    "kind": "dev",
    "methods": {},
    "version": 1
  },
  "userdoc": {
    "kind": "user",
    "methods": {
      "swap(address,address,address,uint256,uint256)": {
        "notice": "Withdraws 'amountFrom' of token 'from' from the BentoBox account for this swapper. Swaps it for at least 'amountToMin' of token 'to'. Transfers the swapped tokens of 'to' into the BentoBox using a plain ERC20 transfer. Returns the amount of tokens 'to' transferred to BentoBox. (The BentoBox skim function will be used by the caller to get the swapped funds)."
      },
      "swapExact(address,address,address,address,uint256,uint256)": {
        "notice": "Calculates the amount of token 'from' needed to complete the swap (amountFrom), this should be less than or equal to amountFromMax. Withdraws 'amountFrom' of token 'from' from the BentoBox account for this swapper. Swaps it for exactly 'exactAmountTo' of token 'to'. Transfers the swapped tokens of 'to' into the BentoBox using a plain ERC20 transfer. Transfers allocated, but unused 'from' tokens within the BentoBox to 'refundTo' (amountFromMax - amountFrom). Returns the amount of 'from' tokens withdrawn from BentoBox (amountFrom). (The BentoBox skim function will be used by the caller to get the swapped funds)."
      }
    },
    "notice": "USDC/USDT Popsicle Swapper for Ethereum",
    "version": 1
  },
  "storageLayout": {
    "storage": [],
    "types": null
  }
}