{
  "address": "0x9D72680409b906bf964dBFC89C7c270a88fe4DE6",
  "abi": [
    {
      "inputs": [
        {
          "internalType": "contract IPopsicle",
          "name": "_plp",
          "type": "address"
        },
        {
          "internalType": "contract IAggregator",
          "name": "_token0Aggregator",
          "type": "address"
        },
        {
          "internalType": "contract IAggregator",
          "name": "_token1Aggregator",
          "type": "address"
        }
      ],
      "stateMutability": "nonpayable",
      "type": "constructor"
    },
    {
      "inputs": [
        {
          "internalType": "bytes",
          "name": "",
          "type": "bytes"
        }
      ],
      "name": "get",
      "outputs": [
        {
          "internalType": "bool",
          "name": "",
          "type": "bool"
        },
        {
          "internalType": "uint256",
          "name": "",
          "type": "uint256"
        }
      ],
      "stateMutability": "view",
      "type": "function"
    },
    {
      "inputs": [
        {
          "internalType": "bytes",
          "name": "",
          "type": "bytes"
        }
      ],
      "name": "name",
      "outputs": [
        {
          "internalType": "string",
          "name": "",
          "type": "string"
        }
      ],
      "stateMutability": "pure",
      "type": "function"
    },
    {
      "inputs": [
        {
          "internalType": "bytes",
          "name": "",
          "type": "bytes"
        }
      ],
      "name": "peek",
      "outputs": [
        {
          "internalType": "bool",
          "name": "",
          "type": "bool"
        },
        {
          "internalType": "uint256",
          "name": "",
          "type": "uint256"
        }
      ],
      "stateMutability": "view",
      "type": "function"
    },
    {
      "inputs": [
        {
          "internalType": "bytes",
          "name": "data",
          "type": "bytes"
        }
      ],
      "name": "peekSpot",
      "outputs": [
        {
          "internalType": "uint256",
          "name": "rate",
          "type": "uint256"
        }
      ],
      "stateMutability": "view",
      "type": "function"
    },
    {
      "inputs": [],
      "name": "plp",
      "outputs": [
        {
          "internalType": "contract IPopsicle",
          "name": "",
          "type": "address"
        }
      ],
      "stateMutability": "view",
      "type": "function"
    },
    {
      "inputs": [
        {
          "internalType": "bytes",
          "name": "",
          "type": "bytes"
        }
      ],
      "name": "symbol",
      "outputs": [
        {
          "internalType": "string",
          "name": "",
          "type": "string"
        }
      ],
      "stateMutability": "pure",
      "type": "function"
    },
    {
      "inputs": [],
      "name": "token0Aggregator",
      "outputs": [
        {
          "internalType": "contract IAggregator",
          "name": "",
          "type": "address"
        }
      ],
      "stateMutability": "view",
      "type": "function"
    },
    {
      "inputs": [],
      "name": "token1Aggregator",
      "outputs": [
        {
          "internalType": "contract IAggregator",
          "name": "",
          "type": "address"
        }
      ],
      "stateMutability": "view",
      "type": "function"
    }
  ],
  "transactionHash": "0xb6456bbb110589aac3b237df76fd5a7e9b4fbcc6d3a3c48c45dd590ad652be7e",
  "args": [
    "0x9683D433621A83aA7dd290106e1da85251317F55",
    "0x8fFfFfd4AfB6115b954Bd326cbe7B4BA576818f6",
    "0x5f4eC3Df9cbd43714FE2740f5E3616155c5b8419"
  ],
  "solcInputHash": "a4d23b74082c4c3a5619ea72f9edefaf",
  "bytecode": "0x6101206040523480156200001257600080fd5b50604051620013b0380380620013b08339818101604052810190620000389190620004cd565b8273ffffffffffffffffffffffffffffffffffffffff1660c08173ffffffffffffffffffffffffffffffffffffffff16815250508173ffffffffffffffffffffffffffffffffffffffff1660808173ffffffffffffffffffffffffffffffffffffffff16815250508073ffffffffffffffffffffffffffffffffffffffff1660a08173ffffffffffffffffffffffffffffffffffffffff168152505060008373ffffffffffffffffffffffffffffffffffffffff16630dfe16816040518163ffffffff1660e01b8152600401602060405180830381865afa15801562000122573d6000803e3d6000fd5b505050506040513d601f19601f820116820180604052508101906200014891906200055a565b73ffffffffffffffffffffffffffffffffffffffff1663313ce5676040518163ffffffff1660e01b8152600401602060405180830381865afa15801562000193573d6000803e3d6000fd5b505050506040513d601f19601f82011682018060405250810190620001b99190620005ca565b60ff16905060008473ffffffffffffffffffffffffffffffffffffffff1663d21220a76040518163ffffffff1660e01b8152600401602060405180830381865afa1580156200020c573d6000803e3d6000fd5b505050506040513d601f19601f820116820180604052508101906200023291906200055a565b73ffffffffffffffffffffffffffffffffffffffff1663313ce5676040518163ffffffff1660e01b8152600401602060405180830381865afa1580156200027d573d6000803e3d6000fd5b505050506040513d601f19601f82011682018060405250810190620002a39190620005ca565b60ff16905060008473ffffffffffffffffffffffffffffffffffffffff1663313ce5676040518163ffffffff1660e01b8152600401602060405180830381865afa158015620002f6573d6000803e3d6000fd5b505050506040513d601f19601f820116820180604052508101906200031c9190620005ca565b60ff16905060008473ffffffffffffffffffffffffffffffffffffffff1663313ce5676040518163ffffffff1660e01b8152600401602060405180830381865afa1580156200036f573d6000803e3d6000fd5b505050506040513d601f19601f82011682018060405250810190620003959190620005ca565b60ff16905081846024620003aa919062000635565b620003b6919062000635565b600a620003c49190620007c4565b60e0818152505080836024620003db919062000635565b620003e7919062000635565b600a620003f59190620007c4565b61010081815250505050505050505062000815565b600080fd5b600073ffffffffffffffffffffffffffffffffffffffff82169050919050565b60006200043c826200040f565b9050919050565b600062000450826200042f565b9050919050565b620004628162000443565b81146200046e57600080fd5b50565b600081519050620004828162000457565b92915050565b600062000495826200042f565b9050919050565b620004a78162000488565b8114620004b357600080fd5b50565b600081519050620004c7816200049c565b92915050565b600080600060608486031215620004e957620004e86200040a565b5b6000620004f98682870162000471565b93505060206200050c86828701620004b6565b92505060406200051f86828701620004b6565b9150509250925092565b62000534816200042f565b81146200054057600080fd5b50565b600081519050620005548162000529565b92915050565b6000602082840312156200057357620005726200040a565b5b6000620005838482850162000543565b91505092915050565b600060ff82169050919050565b620005a4816200058c565b8114620005b057600080fd5b50565b600081519050620005c48162000599565b92915050565b600060208284031215620005e357620005e26200040a565b5b6000620005f384828501620005b3565b91505092915050565b6000819050919050565b7f4e487b7100000000000000000000000000000000000000000000000000000000600052601160045260246000fd5b60006200064282620005fc565b91506200064f83620005fc565b92508282101562000665576200066462000606565b5b828203905092915050565b60008160011c9050919050565b6000808291508390505b6001851115620006cf57808604811115620006a757620006a662000606565b5b6001851615620006b75780820291505b8081029050620006c78562000670565b945062000687565b94509492505050565b600082620006ea5760019050620007bd565b81620006fa5760009050620007bd565b81600181146200071357600281146200071e5762000754565b6001915050620007bd565b60ff84111562000733576200073262000606565b5b8360020a9150848211156200074d576200074c62000606565b5b50620007bd565b5060208310610133831016604e8410600b84101617156200078e5782820a90508381111562000788576200078762000606565b5b620007bd565b6200079d84848460016200067d565b92509050818404811115620007b757620007b662000606565b5b81810290505b9392505050565b6000620007d182620005fc565b9150620007de83620005fc565b92506200080d7fffffffffffffffffffffffffffffffffffffffffffffffffffffffffffffffff8484620006d8565b905092915050565b60805160a05160c05160e05161010051610b3a620008766000396000610471015260006103a80152600081816101db01528181610314015261053a01526000818161022301526104920152600081816101ff01526103c90152610b3a6000f3fe608060405234801561001057600080fd5b50600436106100885760003560e01c8063d39bbef01161005b578063d39bbef014610117578063d568866c14610147578063d6d7d52514610177578063eeb8a8d3146101a857610088565b80630429cda61461008d578063188bebc6146100ab57806338190cf7146100c9578063c699c4d6146100e7575b600080fd5b6100956101d9565b6040516100a29190610683565b60405180910390f35b6100b36101fd565b6040516100c091906106bf565b60405180910390f35b6100d1610221565b6040516100de91906106bf565b60405180910390f35b61010160048036038101906100fc9190610749565b610245565b60405161010e919061082f565b60405180910390f35b610131600480360381019061012c9190610749565b610285565b60405161013e919061086a565b60405180910390f35b610161600480360381019061015c9190610749565b61029d565b60405161016e919061082f565b60405180910390f35b610191600480360381019061018c9190610749565b6102dd565b60405161019f9291906108a0565b60405180910390f35b6101c260048036038101906101bd9190610749565b6102f5565b6040516101d09291906108a0565b60405180910390f35b7f000000000000000000000000000000000000000000000000000000000000000081565b7f000000000000000000000000000000000000000000000000000000000000000081565b7f000000000000000000000000000000000000000000000000000000000000000081565b60606040518060400160405280600881526020017f4c494e4b2f504c50000000000000000000000000000000000000000000000000815250905092915050565b600061029183836102f5565b90508091505092915050565b60606040518060400160405280601281526020017f436861696e6c696e6b20506f707369636c650000000000000000000000000000815250905092915050565b60008060016102ea61030d565b915091509250929050565b600080600161030261030d565b915091509250929050565b60008060007f000000000000000000000000000000000000000000000000000000000000000073ffffffffffffffffffffffffffffffffffffffff1663da4867216040518163ffffffff1660e01b81526004016040805180830381865afa15801561037c573d6000803e3d6000fd5b505050506040513d601f19601f820116820180604052508101906103a091906108f5565b9150915060007f00000000000000000000000000000000000000000000000000000000000000007f000000000000000000000000000000000000000000000000000000000000000073ffffffffffffffffffffffffffffffffffffffff166350d25bcd6040518163ffffffff1660e01b8152600401602060405180830381865afa158015610432573d6000803e3d6000fd5b505050506040513d601f19601f82011682018060405250810190610456919061096b565b8461046191906109c7565b61046b91906109c7565b905060007f00000000000000000000000000000000000000000000000000000000000000007f000000000000000000000000000000000000000000000000000000000000000073ffffffffffffffffffffffffffffffffffffffff166350d25bcd6040518163ffffffff1660e01b8152600401602060405180830381865afa1580156104fb573d6000803e3d6000fd5b505050506040513d601f19601f8201168201806040525081019061051f919061096b565b8461052a91906109c7565b61053491906109c7565b905060007f000000000000000000000000000000000000000000000000000000000000000073ffffffffffffffffffffffffffffffffffffffff166318160ddd6040518163ffffffff1660e01b8152600401602060405180830381865afa1580156105a3573d6000803e3d6000fd5b505050506040513d601f19601f820116820180604052508101906105c79190610a21565b82846105d39190610a4e565b6105dd9190610ad3565b9050806ec097ce7bc90715b34b9f10000000006105fa9190610ad3565b9550505050505090565b600073ffffffffffffffffffffffffffffffffffffffff82169050919050565b6000819050919050565b600061064961064461063f84610604565b610624565b610604565b9050919050565b600061065b8261062e565b9050919050565b600061066d82610650565b9050919050565b61067d81610662565b82525050565b60006020820190506106986000830184610674565b92915050565b60006106a982610650565b9050919050565b6106b98161069e565b82525050565b60006020820190506106d460008301846106b0565b92915050565b600080fd5b600080fd5b600080fd5b600080fd5b600080fd5b60008083601f840112610709576107086106e4565b5b8235905067ffffffffffffffff811115610726576107256106e9565b5b602083019150836001820283011115610742576107416106ee565b5b9250929050565b600080602083850312156107605761075f6106da565b5b600083013567ffffffffffffffff81111561077e5761077d6106df565b5b61078a858286016106f3565b92509250509250929050565b600081519050919050565b600082825260208201905092915050565b60005b838110156107d05780820151818401526020810190506107b5565b838111156107df576000848401525b50505050565b6000601f19601f8301169050919050565b600061080182610796565b61080b81856107a1565b935061081b8185602086016107b2565b610824816107e5565b840191505092915050565b6000602082019050818103600083015261084981846107f6565b905092915050565b6000819050919050565b61086481610851565b82525050565b600060208201905061087f600083018461085b565b92915050565b60008115159050919050565b61089a81610885565b82525050565b60006040820190506108b56000830185610891565b6108c2602083018461085b565b9392505050565b6108d281610851565b81146108dd57600080fd5b50565b6000815190506108ef816108c9565b92915050565b6000806040838503121561090c5761090b6106da565b5b600061091a858286016108e0565b925050602061092b858286016108e0565b9150509250929050565b6000819050919050565b61094881610935565b811461095357600080fd5b50565b6000815190506109658161093f565b92915050565b600060208284031215610981576109806106da565b5b600061098f84828501610956565b91505092915050565b7f4e487b7100000000000000000000000000000000000000000000000000000000600052601160045260246000fd5b60006109d282610851565b91506109dd83610851565b9250817fffffffffffffffffffffffffffffffffffffffffffffffffffffffffffffffff0483118215151615610a1657610a15610998565b5b828202905092915050565b600060208284031215610a3757610a366106da565b5b6000610a45848285016108e0565b91505092915050565b6000610a5982610851565b9150610a6483610851565b9250827fffffffffffffffffffffffffffffffffffffffffffffffffffffffffffffffff03821115610a9957610a98610998565b5b828201905092915050565b7f4e487b7100000000000000000000000000000000000000000000000000000000600052601260045260246000fd5b6000610ade82610851565b9150610ae983610851565b925082610af957610af8610aa4565b5b82820490509291505056fea26469706673582212207b63ae4562add965c2c932395fd0cd4f6c30624c4aebb708866e4b1665336f5464736f6c634300080a0033",
  "devdoc": {
    "kind": "dev",
    "methods": {
      "get(bytes)": {
        "params": {
          "data": "Usually abi encoded, implementation specific data that contains information and arguments to & about the oracle. For example: (string memory collateralSymbol, string memory assetSymbol, uint256 division) = abi.decode(data, (string, string, uint256));"
        },
        "returns": {
          "_0": "if no valid (recent) rate is available, return false else true.",
          "_1": "The rate of the requested asset / pair / pool."
        }
      },
      "name(bytes)": {
        "params": {
          "data": "Usually abi encoded, implementation specific data that contains information and arguments to & about the oracle. For example: (string memory collateralSymbol, string memory assetSymbol, uint256 division) = abi.decode(data, (string, string, uint256));"
        },
        "returns": {
          "_0": "(string) A human readable name about this oracle."
        }
      },
      "peek(bytes)": {
        "params": {
          "data": "Usually abi encoded, implementation specific data that contains information and arguments to & about the oracle. For example: (string memory collateralSymbol, string memory assetSymbol, uint256 division) = abi.decode(data, (string, string, uint256));"
        },
        "returns": {
          "_0": "if no valid (recent) rate is available, return false else true.",
          "_1": "The rate of the requested asset / pair / pool."
        }
      },
      "peekSpot(bytes)": {
        "params": {
          "data": "Usually abi encoded, implementation specific data that contains information and arguments to & about the oracle. For example: (string memory collateralSymbol, string memory assetSymbol, uint256 division) = abi.decode(data, (string, string, uint256));"
        },
        "returns": {
          "rate": "The rate of the requested asset / pair / pool."
        }
      },
      "symbol(bytes)": {
        "params": {
          "data": "Usually abi encoded, implementation specific data that contains information and arguments to & about the oracle. For example: (string memory collateralSymbol, string memory assetSymbol, uint256 division) = abi.decode(data, (string, string, uint256));"
        },
        "returns": {
          "_0": "(string) A human readable symbol name about this oracle."
        }
      }
    },
    "version": 1
  },
  "userdoc": {
    "kind": "user",
    "methods": {
      "get(bytes)": {
        "notice": "Get the latest exchange rate."
      },
      "name(bytes)": {
        "notice": "Returns a human readable name about this oracle."
      },
      "peek(bytes)": {
        "notice": "Check the last exchange rate without any state changes."
      },
      "peekSpot(bytes)": {
        "notice": "Check the current spot exchange rate without any state changes. For oracles like TWAP this will be different from peek()."
      },
      "symbol(bytes)": {
        "notice": "Returns a human readable (short) name about this oracle."
      }
    },
    "version": 1
  },
  "storageLayout": {
    "storage": [],
    "types": null
  }
}