{
  "address": "0xa1CdF7d4E983A4dbC3833f6Bbfdb3eB112fEF5C1",
  "abi": [
    {
      "inputs": [
        {
          "internalType": "contract IPopsicle",
          "name": "_popsicle",
          "type": "address"
        }
      ],
      "stateMutability": "nonpayable",
      "type": "constructor"
    },
    {
      "inputs": [],
      "name": "DEGENBOX",
      "outputs": [
        {
          "internalType": "contract IBentoBoxV1",
          "name": "",
          "type": "address"
        }
      ],
      "stateMutability": "view",
      "type": "function"
    },
    {
      "inputs": [],
      "name": "MIM",
      "outputs": [
        {
          "internalType": "contract IERC20",
          "name": "",
          "type": "address"
        }
      ],
      "stateMutability": "view",
      "type": "function"
    },
    {
      "inputs": [],
      "name": "MIM3POOL",
      "outputs": [
        {
          "internalType": "contract CurvePool",
          "name": "",
          "type": "address"
        }
      ],
      "stateMutability": "view",
      "type": "function"
    },
    {
      "inputs": [],
      "name": "THREECRYPTO",
      "outputs": [
        {
          "internalType": "contract CurveThreeCryptoPool",
          "name": "",
          "type": "address"
        }
      ],
      "stateMutability": "view",
      "type": "function"
    },
    {
      "inputs": [],
      "name": "WETH",
      "outputs": [
        {
          "internalType": "contract IERC20",
          "name": "",
          "type": "address"
        }
      ],
      "stateMutability": "view",
      "type": "function"
    },
    {
      "inputs": [],
      "name": "popsicle",
      "outputs": [
        {
          "internalType": "contract IPopsicle",
          "name": "",
          "type": "address"
        }
      ],
      "stateMutability": "view",
      "type": "function"
    },
    {
      "inputs": [
        {
          "internalType": "contract IERC20",
          "name": "",
          "type": "address"
        },
        {
          "internalType": "contract IERC20",
          "name": "",
          "type": "address"
        },
        {
          "internalType": "address",
          "name": "recipient",
          "type": "address"
        },
        {
          "internalType": "uint256",
          "name": "shareToMin",
          "type": "uint256"
        },
        {
          "internalType": "uint256",
          "name": "shareFrom",
          "type": "uint256"
        }
      ],
      "name": "swap",
      "outputs": [
        {
          "internalType": "uint256",
          "name": "extraShare",
          "type": "uint256"
        },
        {
          "internalType": "uint256",
          "name": "shareReturned",
          "type": "uint256"
        }
      ],
      "stateMutability": "nonpayable",
      "type": "function"
    },
    {
      "inputs": [
        {
          "internalType": "contract IERC20",
          "name": "",
          "type": "address"
        },
        {
          "internalType": "contract IERC20",
          "name": "",
          "type": "address"
        },
        {
          "internalType": "address",
          "name": "",
          "type": "address"
        },
        {
          "internalType": "address",
          "name": "",
          "type": "address"
        },
        {
          "internalType": "uint256",
          "name": "",
          "type": "uint256"
        },
        {
          "internalType": "uint256",
          "name": "",
          "type": "uint256"
        }
      ],
      "name": "swapExact",
      "outputs": [
        {
          "internalType": "uint256",
          "name": "shareUsed",
          "type": "uint256"
        },
        {
          "internalType": "uint256",
          "name": "shareReturned",
          "type": "uint256"
        }
      ],
      "stateMutability": "pure",
      "type": "function"
    }
  ],
  "transactionHash": "0x5d6780c8132f80a69984c385baba4836f10ba88b0b234353a929eec23eafff82",
  "args": [
    "0x212Aa024E25A9C9bAF5b5397B558B7ccea81740B"
  ],
  "solcInputHash": "a7dd28009b25f01a8f11abe8914090a8",
  "bytecode": "0x60a06040523480156200001157600080fd5b506040516200159938038062001599833981810160405281019062000037919062000401565b8073ffffffffffffffffffffffffffffffffffffffff1660808173ffffffffffffffffffffffffffffffffffffffff1681525050732260fac5e5542a773aa44fbcfedf7c193bc2c59973ffffffffffffffffffffffffffffffffffffffff1663095ea7b373d51a44d3fae010294c616388b506acda1bfaae467fffffffffffffffffffffffffffffffffffffffffffffffffffffffffffffffff6040518363ffffffff1660e01b8152600401620000f09291906200045f565b6020604051808303816000875af115801562000110573d6000803e3d6000fd5b505050506040513d601f19601f82011682018060405250810190620001369190620004c9565b5073c02aaa39b223fe8d0a0e5c4f27ead9083c756cc273ffffffffffffffffffffffffffffffffffffffff1663095ea7b373d51a44d3fae010294c616388b506acda1bfaae467fffffffffffffffffffffffffffffffffffffffffffffffffffffffffffffffff6040518363ffffffff1660e01b8152600401620001bc9291906200045f565b6020604051808303816000875af1158015620001dc573d6000803e3d6000fd5b505050506040513d601f19601f82011682018060405250810190620002029190620004c9565b506200027d735a6a4d54456819380173272a5e8e9b9904bdf41b7fffffffffffffffffffffffffffffffffffffffffffffffffffffffffffffffff73dac17f958d2ee523a2206206994597c13d831ec773ffffffffffffffffffffffffffffffffffffffff166200028460201b620006e9179092919060201c565b506200057e565b60006040517f095ea7b300000000000000000000000000000000000000000000000000000000815273ffffffffffffffffffffffffffffffffffffffff841660048201528260248201526000806044836000895af1915050620002ed816200033560201b60201c565b6200032f576040517f08c379a000000000000000000000000000000000000000000000000000000000815260040162000326906200055c565b60405180910390fd5b50505050565b60003d826200034857806000803e806000fd5b80602081146200036557600081146200037757600092506200037c565b816000803e600051151592506200037c565b600192505b5050919050565b600080fd5b600073ffffffffffffffffffffffffffffffffffffffff82169050919050565b6000620003b58262000388565b9050919050565b6000620003c982620003a8565b9050919050565b620003db81620003bc565b8114620003e757600080fd5b50565b600081519050620003fb81620003d0565b92915050565b6000602082840312156200041a576200041962000383565b5b60006200042a84828501620003ea565b91505092915050565b6200043e81620003a8565b82525050565b6000819050919050565b620004598162000444565b82525050565b600060408201905062000476600083018562000433565b6200048560208301846200044e565b9392505050565b60008115159050919050565b620004a3816200048c565b8114620004af57600080fd5b50565b600081519050620004c38162000498565b92915050565b600060208284031215620004e257620004e162000383565b5b6000620004f284828501620004b2565b91505092915050565b600082825260208201905092915050565b7f415050524f56455f4641494c4544000000000000000000000000000000000000600082015250565b600062000544600e83620004fb565b915062000551826200050c565b602082019050919050565b60006020820190508181036000830152620005778162000535565b9050919050565b608051610ff1620005a86000396000818161021a0152818161028b01526103190152610ff16000f3fe608060405234801561001057600080fd5b50600436106100885760003560e01c8063daec383d1161005b578063daec383d14610118578063dc502dfa14610136578063e0bc66b814610154578063e343fe121461017257610088565b806322a88c091461008d5780634622be90146100ab5780635825a248146100dc578063ad5c4648146100fa575b600080fd5b6100956101a3565b6040516100a29190610857565b60405180910390f35b6100c560048036038101906100c09190610929565b6101bb565b6040516100d39291906109c5565b60405180910390f35b6100e46101d0565b6040516100f19190610a0f565b60405180910390f35b6101026101e8565b60405161010f9190610a4b565b60405180910390f35b610120610200565b60405161012d9190610a4b565b60405180910390f35b61013e610218565b60405161014b9190610a87565b60405180910390f35b61015c61023c565b6040516101699190610ac3565b60405180910390f35b61018c60048036038101906101879190610ade565b610254565b60405161019a9291906109c5565b60405180910390f35b735a6a4d54456819380173272a5e8e9b9904bdf41b81565b60008060008091509150965096945050505050565b73d51a44d3fae010294c616388b506acda1bfaae4681565b73c02aaa39b223fe8d0a0e5c4f27ead9083c756cc281565b7399d8a9c45b2eca8864373a26d1459e3dff1e17f381565b7f000000000000000000000000000000000000000000000000000000000000000081565b73d96f48665a1410c0cd669a88898eca36b9fc2cce81565b600080600073d96f48665a1410c0cd669a88898eca36b9fc2cce73ffffffffffffffffffffffffffffffffffffffff166397da6d307f000000000000000000000000000000000000000000000000000000000000000030306000896040518663ffffffff1660e01b81526004016102cf959493929190610ba3565b60408051808303816000875af11580156102ed573d6000803e3d6000fd5b505050506040513d601f19601f820116820180604052508101906103119190610c0b565b5090506000807f000000000000000000000000000000000000000000000000000000000000000073ffffffffffffffffffffffffffffffffffffffff1662f714ce84306040518363ffffffff1660e01b8152600401610371929190610c4b565b60408051808303816000875af115801561038f573d6000803e3d6000fd5b505050506040513d601f19601f820116820180604052508101906103b39190610c0b565b9150915073d51a44d3fae010294c616388b506acda1bfaae4673ffffffffffffffffffffffffffffffffffffffff16635b41b908600160008560006040518563ffffffff1660e01b815260040161040d9493929190610caf565b600060405180830381600087803b15801561042757600080fd5b505af115801561043b573d6000803e3d6000fd5b5050505073d51a44d3fae010294c616388b506acda1bfaae4673ffffffffffffffffffffffffffffffffffffffff16635b41b908600260008460006040518563ffffffff1660e01b81526004016104959493929190610d2f565b600060405180830381600087803b1580156104af57600080fd5b505af11580156104c3573d6000803e3d6000fd5b505050506000735a6a4d54456819380173272a5e8e9b9904bdf41b73ffffffffffffffffffffffffffffffffffffffff166344ee19866003600073dac17f958d2ee523a2206206994597c13d831ec773ffffffffffffffffffffffffffffffffffffffff166370a08231306040518263ffffffff1660e01b815260040161054a9190610d74565b602060405180830381865afa158015610567573d6000803e3d6000fd5b505050506040513d601f19601f8201168201806040525081019061058b9190610d8f565b600073d96f48665a1410c0cd669a88898eca36b9fc2cce6040518663ffffffff1660e01b81526004016105c2959493929190610e35565b6020604051808303816000875af11580156105e1573d6000803e3d6000fd5b505050506040513d601f19601f820116820180604052508101906106059190610d8f565b905073d96f48665a1410c0cd669a88898eca36b9fc2cce73ffffffffffffffffffffffffffffffffffffffff166302b9446c7399d8a9c45b2eca8864373a26d1459e3dff1e17f373d96f48665a1410c0cd669a88898eca36b9fc2cce8c8560006040518663ffffffff1660e01b8152600401610685959493929190610e88565b60408051808303816000875af11580156106a3573d6000803e3d6000fd5b505050506040513d601f19601f820116820180604052508101906106c79190610c0b565b90508095505087856106d99190610f0a565b9550505050509550959350505050565b60006040517f095ea7b300000000000000000000000000000000000000000000000000000000815273ffffffffffffffffffffffffffffffffffffffff841660048201528260248201526000806044836000895af191505061074a8161078f565b610789576040517f08c379a000000000000000000000000000000000000000000000000000000000815260040161078090610f9b565b60405180910390fd5b50505050565b60003d826107a157806000803e806000fd5b80602081146107bb57600081146107cc57600092506107d1565b816000803e600051151592506107d1565b600192505b5050919050565b600073ffffffffffffffffffffffffffffffffffffffff82169050919050565b6000819050919050565b600061081d610818610813846107d8565b6107f8565b6107d8565b9050919050565b600061082f82610802565b9050919050565b600061084182610824565b9050919050565b61085181610836565b82525050565b600060208201905061086c6000830184610848565b92915050565b600080fd5b6000610882826107d8565b9050919050565b600061089482610877565b9050919050565b6108a481610889565b81146108af57600080fd5b50565b6000813590506108c18161089b565b92915050565b6108d081610877565b81146108db57600080fd5b50565b6000813590506108ed816108c7565b92915050565b6000819050919050565b610906816108f3565b811461091157600080fd5b50565b600081359050610923816108fd565b92915050565b60008060008060008060c0878903121561094657610945610872565b5b600061095489828a016108b2565b965050602061096589828a016108b2565b955050604061097689828a016108de565b945050606061098789828a016108de565b935050608061099889828a01610914565b92505060a06109a989828a01610914565b9150509295509295509295565b6109bf816108f3565b82525050565b60006040820190506109da60008301856109b6565b6109e760208301846109b6565b9392505050565b60006109f982610824565b9050919050565b610a09816109ee565b82525050565b6000602082019050610a246000830184610a00565b92915050565b6000610a3582610824565b9050919050565b610a4581610a2a565b82525050565b6000602082019050610a606000830184610a3c565b92915050565b6000610a7182610824565b9050919050565b610a8181610a66565b82525050565b6000602082019050610a9c6000830184610a78565b92915050565b6000610aad82610824565b9050919050565b610abd81610aa2565b82525050565b6000602082019050610ad86000830184610ab4565b92915050565b600080600080600060a08688031215610afa57610af9610872565b5b6000610b08888289016108b2565b9550506020610b19888289016108b2565b9450506040610b2a888289016108de565b9350506060610b3b88828901610914565b9250506080610b4c88828901610914565b9150509295509295909350565b610b6281610877565b82525050565b6000819050919050565b6000610b8d610b88610b8384610b68565b6107f8565b6108f3565b9050919050565b610b9d81610b72565b82525050565b600060a082019050610bb86000830188610a3c565b610bc56020830187610b59565b610bd26040830186610b59565b610bdf6060830185610b94565b610bec60808301846109b6565b9695505050505050565b600081519050610c05816108fd565b92915050565b60008060408385031215610c2257610c21610872565b5b6000610c3085828601610bf6565b9250506020610c4185828601610bf6565b9150509250929050565b6000604082019050610c6060008301856109b6565b610c6d6020830184610b59565b9392505050565b6000819050919050565b6000610c99610c94610c8f84610c74565b6107f8565b6108f3565b9050919050565b610ca981610c7e565b82525050565b6000608082019050610cc46000830187610ca0565b610cd16020830186610b94565b610cde60408301856109b6565b610ceb6060830184610b94565b95945050505050565b6000819050919050565b6000610d19610d14610d0f84610cf4565b6107f8565b6108f3565b9050919050565b610d2981610cfe565b82525050565b6000608082019050610d446000830187610d20565b610d516020830186610b94565b610d5e60408301856109b6565b610d6b6060830184610b94565b95945050505050565b6000602082019050610d896000830184610b59565b92915050565b600060208284031215610da557610da4610872565b5b6000610db384828501610bf6565b91505092915050565b6000819050919050565b600081600f0b9050919050565b6000610dee610de9610de484610dbc565b6107f8565b610dc6565b9050919050565b610dfe81610dd3565b82525050565b6000610e1f610e1a610e1584610b68565b6107f8565b610dc6565b9050919050565b610e2f81610e04565b82525050565b600060a082019050610e4a6000830188610df5565b610e576020830187610e26565b610e6460408301866109b6565b610e716060830185610b94565b610e7e6080830184610b59565b9695505050505050565b600060a082019050610e9d6000830188610a3c565b610eaa6020830187610b59565b610eb76040830186610b59565b610ec460608301856109b6565b610ed16080830184610b94565b9695505050505050565b7f4e487b7100000000000000000000000000000000000000000000000000000000600052601160045260246000fd5b6000610f15826108f3565b9150610f20836108f3565b925082821015610f3357610f32610edb565b5b828203905092915050565b600082825260208201905092915050565b7f415050524f56455f4641494c4544000000000000000000000000000000000000600082015250565b6000610f85600e83610f3e565b9150610f9082610f4f565b602082019050919050565b60006020820190508181036000830152610fb481610f78565b905091905056fea2646970667358221220f4bfa34a0e6af91c3fa9ff2ba0719966e4e1d54e32cc089777b7c1d17b34e99c64736f6c634300080a0033",
  "devdoc": {
    "kind": "dev",
    "methods": {},
    "version": 1
  },
  "userdoc": {
    "kind": "user",
    "methods": {
      "swap(address,address,address,uint256,uint256)": {
        "notice": "Withdraws 'amountFrom' of token 'from' from the BentoBox account for this swapper. Swaps it for at least 'amountToMin' of token 'to'. Transfers the swapped tokens of 'to' into the BentoBox using a plain ERC20 transfer. Returns the amount of tokens 'to' transferred to BentoBox. (The BentoBox skim function will be used by the caller to get the swapped funds)."
      },
      "swapExact(address,address,address,address,uint256,uint256)": {
        "notice": "Calculates the amount of token 'from' needed to complete the swap (amountFrom), this should be less than or equal to amountFromMax. Withdraws 'amountFrom' of token 'from' from the BentoBox account for this swapper. Swaps it for exactly 'exactAmountTo' of token 'to'. Transfers the swapped tokens of 'to' into the BentoBox using a plain ERC20 transfer. Transfers allocated, but unused 'from' tokens within the BentoBox to 'refundTo' (amountFromMax - amountFrom). Returns the amount of 'from' tokens withdrawn from BentoBox (amountFrom). (The BentoBox skim function will be used by the caller to get the swapped funds)."
      }
    },
    "notice": "WBTC/WETH Popsicle Swapper for Ethereum",
    "version": 1
  },
  "storageLayout": {
    "storage": [],
    "types": null
  }
}