{
  "address": "0x64C65549C10D86De6F00C3B0D5132d8f742Af8C4",
  "abi": [
    {
      "inputs": [
        {
          "internalType": "contract IPopsicle",
          "name": "_popsicle",
          "type": "address"
        }
      ],
      "stateMutability": "nonpayable",
      "type": "constructor"
    },
    {
      "inputs": [],
      "name": "DEGENBOX",
      "outputs": [
        {
          "internalType": "contract IBentoBoxV1",
          "name": "",
          "type": "address"
        }
      ],
      "stateMutability": "view",
      "type": "function"
    },
    {
      "inputs": [],
      "name": "THREECRYPTO",
      "outputs": [
        {
          "internalType": "contract CurveThreeCryptoPool",
          "name": "",
          "type": "address"
        }
      ],
      "stateMutability": "view",
      "type": "function"
    },
    {
      "inputs": [],
      "name": "WETH",
      "outputs": [
        {
          "internalType": "contract IERC20",
          "name": "",
          "type": "address"
        }
      ],
      "stateMutability": "view",
      "type": "function"
    },
    {
      "inputs": [],
      "name": "popsicle",
      "outputs": [
        {
          "internalType": "contract IPopsicle",
          "name": "",
          "type": "address"
        }
      ],
      "stateMutability": "view",
      "type": "function"
    },
    {
      "inputs": [
        {
          "internalType": "address",
          "name": "recipient",
          "type": "address"
        },
        {
          "internalType": "uint256",
          "name": "shareToMin",
          "type": "uint256"
        },
        {
          "internalType": "uint256",
          "name": "shareFrom",
          "type": "uint256"
        }
      ],
      "name": "swap",
      "outputs": [
        {
          "internalType": "uint256",
          "name": "extraShare",
          "type": "uint256"
        },
        {
          "internalType": "uint256",
          "name": "shareReturned",
          "type": "uint256"
        }
      ],
      "stateMutability": "nonpayable",
      "type": "function"
    }
  ],
  "transactionHash": "0xbbcb2854f9fc1c7b6b675b943edfa0f05c8784b463d16249711a5ea9621654b6",
  "args": [
    "0x212Aa024E25A9C9bAF5b5397B558B7ccea81740B"
  ],
  "solcInputHash": "a7dd28009b25f01a8f11abe8914090a8",
  "bytecode": "0x60c06040523480156200001157600080fd5b506040516200336c3803806200336c833981810160405281019062000037919062000616565b7399d8a9c45b2eca8864373a26d1459e3dff1e17f373ffffffffffffffffffffffffffffffffffffffff1663095ea7b3735a6a4d54456819380173272a5e8e9b9904bdf41b7fffffffffffffffffffffffffffffffffffffffffffffffffffffffffffffffff6040518363ffffffff1660e01b8152600401620000bc92919062000674565b6020604051808303816000875af1158015620000dc573d6000803e3d6000fd5b505050506040513d601f19601f82011682018060405250810190620001029190620006de565b50732260fac5e5542a773aa44fbcfedf7c193bc2c59973ffffffffffffffffffffffffffffffffffffffff1663095ea7b3827fffffffffffffffffffffffffffffffffffffffffffffffffffffffffffffffff6040518363ffffffff1660e01b81526004016200017492919062000674565b6020604051808303816000875af115801562000194573d6000803e3d6000fd5b505050506040513d601f19601f82011682018060405250810190620001ba9190620006de565b5073c02aaa39b223fe8d0a0e5c4f27ead9083c756cc273ffffffffffffffffffffffffffffffffffffffff1663095ea7b3827fffffffffffffffffffffffffffffffffffffffffffffffffffffffffffffffff6040518363ffffffff1660e01b81526004016200022c92919062000674565b6020604051808303816000875af11580156200024c573d6000803e3d6000fd5b505050506040513d601f19601f82011682018060405250810190620002729190620006de565b50732260fac5e5542a773aa44fbcfedf7c193bc2c59973ffffffffffffffffffffffffffffffffffffffff1663095ea7b373d51a44d3fae010294c616388b506acda1bfaae467fffffffffffffffffffffffffffffffffffffffffffffffffffffffffffffffff6040518363ffffffff1660e01b8152600401620002f892919062000674565b6020604051808303816000875af115801562000318573d6000803e3d6000fd5b505050506040513d601f19601f820116820180604052508101906200033e9190620006de565b50620003b973d51a44d3fae010294c616388b506acda1bfaae467fffffffffffffffffffffffffffffffffffffffffffffffffffffffffffffffff73dac17f958d2ee523a2206206994597c13d831ec773ffffffffffffffffffffffffffffffffffffffff166200049960201b62000a49179092919060201c565b8073ffffffffffffffffffffffffffffffffffffffff166316f0115b6040518163ffffffff1660e01b8152600401602060405180830381865afa15801562000405573d6000803e3d6000fd5b505050506040513d601f19601f820116820180604052508101906200042b919062000741565b73ffffffffffffffffffffffffffffffffffffffff1660a08173ffffffffffffffffffffffffffffffffffffffff16815250508073ffffffffffffffffffffffffffffffffffffffff1660808173ffffffffffffffffffffffffffffffffffffffff168152505050620007f6565b60006040517f095ea7b300000000000000000000000000000000000000000000000000000000815273ffffffffffffffffffffffffffffffffffffffff841660048201528260248201526000806044836000895af191505062000502816200054a60201b60201c565b62000544576040517f08c379a00000000000000000000000000000000000000000000000000000000081526004016200053b90620007d4565b60405180910390fd5b50505050565b60003d826200055d57806000803e806000fd5b80602081146200057a57600081146200058c576000925062000591565b816000803e6000511515925062000591565b600192505b5050919050565b600080fd5b600073ffffffffffffffffffffffffffffffffffffffff82169050919050565b6000620005ca826200059d565b9050919050565b6000620005de82620005bd565b9050919050565b620005f081620005d1565b8114620005fc57600080fd5b50565b6000815190506200061081620005e5565b92915050565b6000602082840312156200062f576200062e62000598565b5b60006200063f84828501620005ff565b91505092915050565b6200065381620005bd565b82525050565b6000819050919050565b6200066e8162000659565b82525050565b60006040820190506200068b600083018562000648565b6200069a602083018462000663565b9392505050565b60008115159050919050565b620006b881620006a1565b8114620006c457600080fd5b50565b600081519050620006d881620006ad565b92915050565b600060208284031215620006f757620006f662000598565b5b60006200070784828501620006c7565b91505092915050565b6200071b81620005bd565b81146200072757600080fd5b50565b6000815190506200073b8162000710565b92915050565b6000602082840312156200075a576200075962000598565b5b60006200076a848285016200072a565b91505092915050565b600082825260208201905092915050565b7f415050524f56455f4641494c4544000000000000000000000000000000000000600082015250565b6000620007bc600e8362000773565b9150620007c98262000784565b602082019050919050565b60006020820190508181036000830152620007ef81620007ad565b9050919050565b60805160a051612b346200083860003960006104180152600081816104dc015281816105730152818161073a0152818161093c0152610a0f0152612b346000f3fe608060405234801561001057600080fd5b50600436106100575760003560e01c80635825a2481461005c5780639f1d0f591461007a578063ad5c4648146100ab578063dc502dfa146100c9578063e0bc66b8146100e7575b600080fd5b610064610105565b6040516100719190611e73565b60405180910390f35b610094600480360381019061008f9190611f07565b61011d565b6040516100a2929190611f69565b60405180910390f35b6100b36109f5565b6040516100c09190611fb3565b60405180910390f35b6100d1610a0d565b6040516100de9190611fef565b60405180910390f35b6100ef610a31565b6040516100fc919061202b565b60405180910390f35b73d51a44d3fae010294c616388b506acda1bfaae4681565b600080600073d96f48665a1410c0cd669a88898eca36b9fc2cce73ffffffffffffffffffffffffffffffffffffffff166397da6d307399d8a9c45b2eca8864373a26d1459e3dff1e17f330306000896040518663ffffffff1660e01b815260040161018c959493929190612090565b60408051808303816000875af11580156101aa573d6000803e3d6000fd5b505050506040513d601f19601f820116820180604052508101906101ce91906120f8565b509050735a6a4d54456819380173272a5e8e9b9904bdf41b73ffffffffffffffffffffffffffffffffffffffff166344ee198660006003846000306040518663ffffffff1660e01b81526004016102299594939291906121b1565b6020604051808303816000875af1158015610248573d6000803e3d6000fd5b505050506040513d601f19601f8201168201806040525081019061026c9190612204565b5073d51a44d3fae010294c616388b506acda1bfaae4673ffffffffffffffffffffffffffffffffffffffff16635b41b9086000600173dac17f958d2ee523a2206206994597c13d831ec773ffffffffffffffffffffffffffffffffffffffff166370a08231306040518263ffffffff1660e01b81526004016102ee9190612231565b602060405180830381865afa15801561030b573d6000803e3d6000fd5b505050506040513d601f19601f8201168201806040525081019061032f9190612204565b60006040518563ffffffff1660e01b81526004016103509493929190612287565b600060405180830381600087803b15801561036a57600080fd5b505af115801561037e573d6000803e3d6000fd5b505050506000732260fac5e5542a773aa44fbcfedf7c193bc2c59973ffffffffffffffffffffffffffffffffffffffff166370a08231306040518263ffffffff1660e01b81526004016103d19190612231565b602060405180830381865afa1580156103ee573d6000803e3d6000fd5b505050506040513d601f19601f820116820180604052508101906104129190612204565b905060007f000000000000000000000000000000000000000000000000000000000000000073ffffffffffffffffffffffffffffffffffffffff16633850c7bd6040518163ffffffff1660e01b815260040160e060405180830381865afa158015610481573d6000803e3d6000fd5b505050506040513d601f19601f820116820180604052508101906104a591906123dc565b5050505050509050600061069e6040518061016001604052808473ffffffffffffffffffffffffffffffffffffffff1681526020017f000000000000000000000000000000000000000000000000000000000000000073ffffffffffffffffffffffffffffffffffffffff166359c4f9056040518163ffffffff1660e01b8152600401602060405180830381865afa158015610545573d6000803e3d6000fd5b505050506040513d601f19601f82011682018060405250810190610569919061247e565b60020b81526020017f000000000000000000000000000000000000000000000000000000000000000073ffffffffffffffffffffffffffffffffffffffff166355b812a86040518163ffffffff1660e01b8152600401602060405180830381865afa1580156105dc573d6000803e3d6000fd5b505050506040513d601f19601f82011682018060405250810190610600919061247e565b60020b8152602001600115158152602001600160000b8152602001600260000b815260200173d51a44d3fae010294c616388b506acda1bfaae4673ffffffffffffffffffffffffffffffffffffffff16815260200163556d6e9f60e01b7bffffffffffffffffffffffffffffffffffffffffffffffffffffffff191681526020018581526020016103e8815260200165b5e620f48000815250610aef565b50905073d51a44d3fae010294c616388b506acda1bfaae4673ffffffffffffffffffffffffffffffffffffffff16635b41b9086001600284876106e191906124da565b60006040518563ffffffff1660e01b81526004016107029493929190612549565b600060405180830381600087803b15801561071c57600080fd5b505af1158015610730573d6000803e3d6000fd5b50505050505060007f000000000000000000000000000000000000000000000000000000000000000073ffffffffffffffffffffffffffffffffffffffff16638dbdbe6d732260fac5e5542a773aa44fbcfedf7c193bc2c59973ffffffffffffffffffffffffffffffffffffffff166370a08231306040518263ffffffff1660e01b81526004016107c19190612231565b602060405180830381865afa1580156107de573d6000803e3d6000fd5b505050506040513d601f19601f820116820180604052508101906108029190612204565b73c02aaa39b223fe8d0a0e5c4f27ead9083c756cc273ffffffffffffffffffffffffffffffffffffffff166370a08231306040518263ffffffff1660e01b815260040161084f9190612231565b602060405180830381865afa15801561086c573d6000803e3d6000fd5b505050506040513d601f19601f820116820180604052508101906108909190612204565b73d96f48665a1410c0cd669a88898eca36b9fc2cce6040518463ffffffff1660e01b81526004016108c39392919061258e565b6060604051808303816000875af11580156108e2573d6000803e3d6000fd5b505050506040513d601f19601f8201168201806040525081019061090691906125c5565b5050905073d96f48665a1410c0cd669a88898eca36b9fc2cce73ffffffffffffffffffffffffffffffffffffffff166302b9446c7f000000000000000000000000000000000000000000000000000000000000000073d96f48665a1410c0cd669a88898eca36b9fc2cce8b8560006040518663ffffffff1660e01b8152600401610994959493929190612618565b60408051808303816000875af11580156109b2573d6000803e3d6000fd5b505050506040513d601f19601f820116820180604052508101906109d691906120f8565b90508094505086846109e891906124da565b9450505050935093915050565b73c02aaa39b223fe8d0a0e5c4f27ead9083c756cc281565b7f000000000000000000000000000000000000000000000000000000000000000081565b73d96f48665a1410c0cd669a88898eca36b9fc2cce81565b60006040517f095ea7b300000000000000000000000000000000000000000000000000000000815273ffffffffffffffffffffffffffffffffffffffff841660048201528260248201526000806044836000895af1915050610aaa8161105f565b610ae9576040517f08c379a0000000000000000000000000000000000000000000000000000000008152600401610ae0906126c8565b60405180910390fd5b50505050565b600080610afa611d54565b8360000151816000019073ffffffffffffffffffffffffffffffffffffffff16908173ffffffffffffffffffffffffffffffffffffffff1681525050610b4384602001516110a8565b816020019073ffffffffffffffffffffffffffffffffffffffff16908173ffffffffffffffffffffffffffffffffffffffff1681525050610b8784604001516110a8565b816040019073ffffffffffffffffffffffffffffffffffffffff16908173ffffffffffffffffffffffffffffffffffffffff1681525050600081602001518260400151610bd491906126e8565b73ffffffffffffffffffffffffffffffffffffffff1690506000610c2a86600001518460400151610c0591906126e8565b73ffffffffffffffffffffffffffffffffffffffff16670de0b6b3a764000084611574565b90506000610c6a84602001518860000151610c4591906126e8565b73ffffffffffffffffffffffffffffffffffffffff16670de0b6b3a764000085611574565b9050866060015115610e6857610c8e87610100015182670de0b6b3a7640000611574565b8460e00181815250508360e00151876101000151610cac91906124da565b9550610ccf8760c001518860e0015189608001518a60a001518860e00151611670565b9450610cdc8487876117b2565b60005b600a811015610e62578761012001518560a0015111158015610d0a57508761014001518560c0015111155b15610d1457610e62565b84606001518560c00151610d28919061271c565b85608001518660a00151610d3c919061271c565b1115610daf57610d598560a0015183670de0b6b3a7640000611574565b8560e00181815250508460e0015187610d7291906124da565b9650610da18860c001518960e001518a608001518b60a001518b8d6101000151610d9c91906124da565b611670565b9550610dae8588886117b2565b5b84608001518560a00151610dc3919061271c565b85606001518660c00151610dd7919061271c565b1115610e4f57610df48560c0015184670de0b6b3a7640000611574565b8560e00181815250508460e0015186610e0d91906124da565b95506000610e328960c001518a60e001518b60a001518c608001518a60e00151611670565b90508088610e409190612776565b9750610e4d8689896117b2565b505b8080610e5a906127cc565b915050610cdf565b50611056565b610e8087610100015183670de0b6b3a7640000611574565b8460e00181815250508360e00151876101000151610e9e91906124da565b9450610ec18760c001518860e0015189608001518a60a001518860e00151611670565b9550610ece8487876117b2565b60005b600a811015611054578761012001518560a0015111158015610efc57508761014001518560c0015111155b15610f0657611054565b84606001518560c00151610f1a919061271c565b85608001518660a00151610f2e919061271c565b1115610fa657610f4b8560a0015183670de0b6b3a7640000611574565b8560e00181815250508460e0015187610f6491906124da565b96506000610f898960c001518a60e001518b60a001518c608001518a60e00151611670565b90508087610f979190612776565b9650610fa48689896117b2565b505b84608001518560a00151610fba919061271c565b85606001518660c00151610fce919061271c565b111561104157610feb8560c0015184670de0b6b3a7640000611574565b8560e00181815250508460e001518661100491906124da565b95506110338860c001518960e001518a608001518b60a001518a8d610100015161102e91906124da565b611670565b96506110408588886117b2565b5b808061104c906127cc565b915050610ed1565b505b50505050915091565b60003d8261107157806000803e806000fd5b806020811461108b576000811461109c57600092506110a1565b816000803e600051151592506110a1565b600192505b5050919050565b60008060008360020b126110bf578260020b6110cd565b8260020b6110cc9061281f565b5b90507ffffffffffffffffffffffffffffffffffffffffffffffffffffffffffff276186110f990612868565b60020b81111561113e576040517f08c379a0000000000000000000000000000000000000000000000000000000008152600401611135906128fd565b60405180910390fd5b60008060018316141561116257700100000000000000000000000000000000611174565b6ffffcb933bd6fad37aa2d162d1a5940015b70ffffffffffffffffffffffffffffffffff169050600060028316146111b75760806ffff97272373d413259a46990580e213a826111b2919061271c565b901c90505b600060048316146111e55760806ffff2e50f5f656932ef12357cf3c7fdcc826111e0919061271c565b901c90505b600060088316146112135760806fffe5caca7e10e4e61c3624eaa0941cd08261120e919061271c565b901c90505b600060108316146112415760806fffcb9843d60f6159c9db58835c9266448261123c919061271c565b901c90505b6000602083161461126f5760806fff973b41fa98c081472e6896dfb254c08261126a919061271c565b901c90505b6000604083161461129d5760806fff2ea16466c96a3843ec78b326b5286182611298919061271c565b901c90505b600060808316146112cb5760806ffe5dee046a99a2a811c461f1969c3053826112c6919061271c565b901c90505b60006101008316146112fa5760806ffcbe86c7900a88aedcffc83b479aa3a4826112f5919061271c565b901c90505b60006102008316146113295760806ff987a7253ac413176f2b074cf7815e5482611324919061271c565b901c90505b60006104008316146113585760806ff3392b0822b70005940c7a398e4b70f382611353919061271c565b901c90505b60006108008316146113875760806fe7159475a2c29b7443b29c7fa6e889d982611382919061271c565b901c90505b60006110008316146113b65760806fd097f3bdfd2022b8845ad8f792aa5825826113b1919061271c565b901c90505b60006120008316146113e55760806fa9f746462d870fdf8a65dc1f90e061e5826113e0919061271c565b901c90505b60006140008316146114145760806f70d869a156d2a1b890bb3df62baf32f78261140f919061271c565b901c90505b60006180008316146114435760806f31be135f97d08fd981231505542fcfa68261143e919061271c565b901c90505b6000620100008316146114735760806f09aa508b5b7a84e1c677de54f3e99bc98261146e919061271c565b901c90505b6000620200008316146114a25760806e5d6af8dedb81196699c329225ee6048261149d919061271c565b901c90505b6000620400008316146114d05760806d2216e584f5fa1ea926041bedfe98826114cb919061271c565b901c90505b6000620800008316146114fc5760806b048a170391f7dc42444e8fa2826114f7919061271c565b901c90505b60008460020b131561153757807fffffffffffffffffffffffffffffffffffffffffffffffffffffffffffffffff611534919061294c565b90505b60006401000000008261154a919061297d565b14611556576001611559565b60005b60ff16602082901c61156b9190612776565b92505050919050565b6000806000801985870985870292508281108382030391505060008114156115af57600084116115a357600080fd5b83820492505050611669565b8084116115bb57600080fd5b60008486880990508281118203915080830392506000856001877fffffffffffffffffffffffffffffffffffffffffffffffffffffffffffffffff0301169050808604955080840493506001818260000304019050808302841793506000600287600302189050808702600203810290508087026002038102905080870260020381029050808702600203810290508087026002038102905080870260020381029050808502955050505050505b9392505050565b60008060008773ffffffffffffffffffffffffffffffffffffffff16878787876040516024016116a2939291906129ca565b604051602081830303815290604052907bffffffffffffffffffffffffffffffffffffffffffffffffffffffff19166020820180517bffffffffffffffffffffffffffffffffffffffffffffffffffffffff838183161783525050505060405161170c9190612a7b565b600060405180830381855afa9150503d8060008114611747576040519150601f19603f3d011682016040523d82523d6000602084013e61174c565b606091505b509150915081611791576040517f08c379a000000000000000000000000000000000000000000000000000000000815260040161178890612ade565b60405180910390fd5b808060200190518101906117a59190612204565b9250505095945050505050565b6117cb8360000151846020015185604001518585611861565b8361010001906fffffffffffffffffffffffffffffffff1690816fffffffffffffffffffffffffffffffff168152505061181883600001518460200151856040015186610100015161198d565b84606001856080018281525082815250505082606001518261183a91906124da565b8360a001818152505082608001518161185391906124da565b8360c0018181525050505050565b60008373ffffffffffffffffffffffffffffffffffffffff168573ffffffffffffffffffffffffffffffffffffffff1611156118a257838580955081965050505b8473ffffffffffffffffffffffffffffffffffffffff168673ffffffffffffffffffffffffffffffffffffffff16116118e7576118e0858585611a7f565b9050611984565b8373ffffffffffffffffffffffffffffffffffffffff168673ffffffffffffffffffffffffffffffffffffffff161015611975576000611928878686611a7f565b90506000611937878986611b46565b9050806fffffffffffffffffffffffffffffffff16826fffffffffffffffffffffffffffffffff161061196a578061196c565b815b92505050611983565b611980858584611b46565b90505b5b95945050505050565b6000808373ffffffffffffffffffffffffffffffffffffffff168573ffffffffffffffffffffffffffffffffffffffff1611156119cf57838580955081965050505b8473ffffffffffffffffffffffffffffffffffffffff168673ffffffffffffffffffffffffffffffffffffffff1611611a1457611a0d858585611bd1565b9150611a76565b8373ffffffffffffffffffffffffffffffffffffffff168673ffffffffffffffffffffffffffffffffffffffff161015611a6757611a53868585611bd1565b9150611a60858785611c97565b9050611a75565b611a72858585611c97565b90505b5b94509492505050565b60008273ffffffffffffffffffffffffffffffffffffffff168473ffffffffffffffffffffffffffffffffffffffff161115611ac057828480945081955050505b6000611b068573ffffffffffffffffffffffffffffffffffffffff168573ffffffffffffffffffffffffffffffffffffffff166c01000000000000000000000000611574565b9050611b3c611b3784838888611b1c91906126e8565b73ffffffffffffffffffffffffffffffffffffffff16611574565b611d2c565b9150509392505050565b60008273ffffffffffffffffffffffffffffffffffffffff168473ffffffffffffffffffffffffffffffffffffffff161115611b8757828480945081955050505b611bc8611bc3836c010000000000000000000000008787611ba891906126e8565b73ffffffffffffffffffffffffffffffffffffffff16611574565b611d2c565b90509392505050565b60008273ffffffffffffffffffffffffffffffffffffffff168473ffffffffffffffffffffffffffffffffffffffff161115611c1257828480945081955050505b8373ffffffffffffffffffffffffffffffffffffffff16611c84606060ff16846fffffffffffffffffffffffffffffffff16901b8686611c5291906126e8565b73ffffffffffffffffffffffffffffffffffffffff168673ffffffffffffffffffffffffffffffffffffffff16611574565b611c8e919061294c565b90509392505050565b60008273ffffffffffffffffffffffffffffffffffffffff168473ffffffffffffffffffffffffffffffffffffffff161115611cd857828480945081955050505b611d23826fffffffffffffffffffffffffffffffff168585611cfa91906126e8565b73ffffffffffffffffffffffffffffffffffffffff166c01000000000000000000000000611574565b90509392505050565b600081829150816fffffffffffffffffffffffffffffffff1614611d4f57600080fd5b919050565b604051806101200160405280600073ffffffffffffffffffffffffffffffffffffffff168152602001600073ffffffffffffffffffffffffffffffffffffffff168152602001600073ffffffffffffffffffffffffffffffffffffffff168152602001600081526020016000815260200160008152602001600081526020016000815260200160006fffffffffffffffffffffffffffffffff1681525090565b600073ffffffffffffffffffffffffffffffffffffffff82169050919050565b6000819050919050565b6000611e39611e34611e2f84611df4565b611e14565b611df4565b9050919050565b6000611e4b82611e1e565b9050919050565b6000611e5d82611e40565b9050919050565b611e6d81611e52565b82525050565b6000602082019050611e886000830184611e64565b92915050565b600080fd5b6000611e9e82611df4565b9050919050565b611eae81611e93565b8114611eb957600080fd5b50565b600081359050611ecb81611ea5565b92915050565b6000819050919050565b611ee481611ed1565b8114611eef57600080fd5b50565b600081359050611f0181611edb565b92915050565b600080600060608486031215611f2057611f1f611e8e565b5b6000611f2e86828701611ebc565b9350506020611f3f86828701611ef2565b9250506040611f5086828701611ef2565b9150509250925092565b611f6381611ed1565b82525050565b6000604082019050611f7e6000830185611f5a565b611f8b6020830184611f5a565b9392505050565b6000611f9d82611e40565b9050919050565b611fad81611f92565b82525050565b6000602082019050611fc86000830184611fa4565b92915050565b6000611fd982611e40565b9050919050565b611fe981611fce565b82525050565b60006020820190506120046000830184611fe0565b92915050565b600061201582611e40565b9050919050565b6120258161200a565b82525050565b6000602082019050612040600083018461201c565b92915050565b61204f81611e93565b82525050565b6000819050919050565b600061207a61207561207084612055565b611e14565b611ed1565b9050919050565b61208a8161205f565b82525050565b600060a0820190506120a56000830188611fa4565b6120b26020830187612046565b6120bf6040830186612046565b6120cc6060830185612081565b6120d96080830184611f5a565b9695505050505050565b6000815190506120f281611edb565b92915050565b6000806040838503121561210f5761210e611e8e565b5b600061211d858286016120e3565b925050602061212e858286016120e3565b9150509250929050565b600081600f0b9050919050565b600061216061215b61215684612055565b611e14565b612138565b9050919050565b61217081612145565b82525050565b6000819050919050565b600061219b61219661219184612176565b611e14565b612138565b9050919050565b6121ab81612180565b82525050565b600060a0820190506121c66000830188612167565b6121d360208301876121a2565b6121e06040830186611f5a565b6121ed6060830185612081565b6121fa6080830184612046565b9695505050505050565b60006020828403121561221a57612219611e8e565b5b6000612228848285016120e3565b91505092915050565b60006020820190506122466000830184612046565b92915050565b6000819050919050565b600061227161226c6122678461224c565b611e14565b611ed1565b9050919050565b61228181612256565b82525050565b600060808201905061229c6000830187612081565b6122a96020830186612278565b6122b66040830185611f5a565b6122c36060830184612081565b95945050505050565b6122d581611df4565b81146122e057600080fd5b50565b6000815190506122f2816122cc565b92915050565b60008160020b9050919050565b61230e816122f8565b811461231957600080fd5b50565b60008151905061232b81612305565b92915050565b600061ffff82169050919050565b61234881612331565b811461235357600080fd5b50565b6000815190506123658161233f565b92915050565b600060ff82169050919050565b6123818161236b565b811461238c57600080fd5b50565b60008151905061239e81612378565b92915050565b60008115159050919050565b6123b9816123a4565b81146123c457600080fd5b50565b6000815190506123d6816123b0565b92915050565b600080600080600080600060e0888a0312156123fb576123fa611e8e565b5b60006124098a828b016122e3565b975050602061241a8a828b0161231c565b965050604061242b8a828b01612356565b955050606061243c8a828b01612356565b945050608061244d8a828b01612356565b93505060a061245e8a828b0161238f565b92505060c061246f8a828b016123c7565b91505092959891949750929550565b60006020828403121561249457612493611e8e565b5b60006124a28482850161231c565b91505092915050565b7f4e487b7100000000000000000000000000000000000000000000000000000000600052601160045260246000fd5b60006124e582611ed1565b91506124f083611ed1565b925082821015612503576125026124ab565b5b828203905092915050565b6000819050919050565b600061253361252e6125298461250e565b611e14565b611ed1565b9050919050565b61254381612518565b82525050565b600060808201905061255e6000830187612278565b61256b602083018661253a565b6125786040830185611f5a565b6125856060830184612081565b95945050505050565b60006060820190506125a36000830186611f5a565b6125b06020830185611f5a565b6125bd6040830184612046565b949350505050565b6000806000606084860312156125de576125dd611e8e565b5b60006125ec868287016120e3565b93505060206125fd868287016120e3565b925050604061260e868287016120e3565b9150509250925092565b600060a08201905061262d6000830188611fa4565b61263a6020830187612046565b6126476040830186612046565b6126546060830185611f5a565b6126616080830184612081565b9695505050505050565b600082825260208201905092915050565b7f415050524f56455f4641494c4544000000000000000000000000000000000000600082015250565b60006126b2600e8361266b565b91506126bd8261267c565b602082019050919050565b600060208201905081810360008301526126e1816126a5565b9050919050565b60006126f382611df4565b91506126fe83611df4565b925082821015612711576127106124ab565b5b828203905092915050565b600061272782611ed1565b915061273283611ed1565b9250817fffffffffffffffffffffffffffffffffffffffffffffffffffffffffffffffff048311821515161561276b5761276a6124ab565b5b828202905092915050565b600061278182611ed1565b915061278c83611ed1565b9250827fffffffffffffffffffffffffffffffffffffffffffffffffffffffffffffffff038211156127c1576127c06124ab565b5b828201905092915050565b60006127d782611ed1565b91507fffffffffffffffffffffffffffffffffffffffffffffffffffffffffffffffff82141561280a576128096124ab565b5b600182019050919050565b6000819050919050565b600061282a82612815565b91507f800000000000000000000000000000000000000000000000000000000000000082141561285d5761285c6124ab565b5b816000039050919050565b6000612873826122f8565b91507fffffffffffffffffffffffffffffffffffffffffffffffffffffffffff8000008214156128a6576128a56124ab565b5b816000039050919050565b7f5400000000000000000000000000000000000000000000000000000000000000600082015250565b60006128e760018361266b565b91506128f2826128b1565b602082019050919050565b60006020820190508181036000830152612916816128da565b9050919050565b7f4e487b7100000000000000000000000000000000000000000000000000000000600052601260045260246000fd5b600061295782611ed1565b915061296283611ed1565b9250826129725761297161291d565b5b828204905092915050565b600061298882611ed1565b915061299383611ed1565b9250826129a3576129a261291d565b5b828206905092915050565b60008160000b9050919050565b6129c4816129ae565b82525050565b60006060820190506129df60008301866129bb565b6129ec60208301856129bb565b6129f96040830184611f5a565b949350505050565b600081519050919050565b600081905092915050565b60005b83811015612a35578082015181840152602081019050612a1a565b83811115612a44576000848401525b50505050565b6000612a5582612a01565b612a5f8185612a0c565b9350612a6f818560208601612a17565b80840191505092915050565b6000612a878284612a4a565b915081905092915050565b7f63616c6c206661696c6564000000000000000000000000000000000000000000600082015250565b6000612ac8600b8361266b565b9150612ad382612a92565b602082019050919050565b60006020820190508181036000830152612af781612abb565b905091905056fea26469706673582212206c84768cc6f019e85913714fe7e8a124a965b1ae60c4d68b563446720692954564736f6c634300080a0033",
  "devdoc": {
    "kind": "dev",
    "methods": {},
    "version": 1
  },
  "userdoc": {
    "kind": "user",
    "methods": {},
    "notice": "WBTC/WETH Popsicle Leverage Swapper for Ethereum",
    "version": 1
  },
  "storageLayout": {
    "storage": [],
    "types": null
  }
}