{
  "address": "0x0E0E2c6204976bA791fBA95eFbb54f9f76556a57",
  "abi": [
    {
      "inputs": [
        {
          "internalType": "contract IPopsicle",
          "name": "_popsicle",
          "type": "address"
        }
      ],
      "stateMutability": "nonpayable",
      "type": "constructor"
    },
    {
      "inputs": [],
      "name": "DEGENBOX",
      "outputs": [
        {
          "internalType": "contract IBentoBoxV1",
          "name": "",
          "type": "address"
        }
      ],
      "stateMutability": "view",
      "type": "function"
    },
    {
      "inputs": [],
      "name": "MIM",
      "outputs": [
        {
          "internalType": "contract IERC20",
          "name": "",
          "type": "address"
        }
      ],
      "stateMutability": "view",
      "type": "function"
    },
    {
      "inputs": [],
      "name": "MIM3POOL",
      "outputs": [
        {
          "internalType": "contract CurvePool",
          "name": "",
          "type": "address"
        }
      ],
      "stateMutability": "view",
      "type": "function"
    },
    {
      "inputs": [],
      "name": "USDC",
      "outputs": [
        {
          "internalType": "contract IERC20",
          "name": "",
          "type": "address"
        }
      ],
      "stateMutability": "view",
      "type": "function"
    },
    {
      "inputs": [],
      "name": "USDCWETH",
      "outputs": [
        {
          "internalType": "contract IUniswapV2Pair",
          "name": "",
          "type": "address"
        }
      ],
      "stateMutability": "view",
      "type": "function"
    },
    {
      "inputs": [],
      "name": "WETH",
      "outputs": [
        {
          "internalType": "contract IERC20",
          "name": "",
          "type": "address"
        }
      ],
      "stateMutability": "view",
      "type": "function"
    },
    {
      "inputs": [],
      "name": "popsicle",
      "outputs": [
        {
          "internalType": "contract IPopsicle",
          "name": "",
          "type": "address"
        }
      ],
      "stateMutability": "view",
      "type": "function"
    },
    {
      "inputs": [
        {
          "internalType": "contract IERC20",
          "name": "",
          "type": "address"
        },
        {
          "internalType": "contract IERC20",
          "name": "",
          "type": "address"
        },
        {
          "internalType": "address",
          "name": "recipient",
          "type": "address"
        },
        {
          "internalType": "uint256",
          "name": "shareToMin",
          "type": "uint256"
        },
        {
          "internalType": "uint256",
          "name": "shareFrom",
          "type": "uint256"
        }
      ],
      "name": "swap",
      "outputs": [
        {
          "internalType": "uint256",
          "name": "extraShare",
          "type": "uint256"
        },
        {
          "internalType": "uint256",
          "name": "shareReturned",
          "type": "uint256"
        }
      ],
      "stateMutability": "nonpayable",
      "type": "function"
    },
    {
      "inputs": [
        {
          "internalType": "contract IERC20",
          "name": "",
          "type": "address"
        },
        {
          "internalType": "contract IERC20",
          "name": "",
          "type": "address"
        },
        {
          "internalType": "address",
          "name": "",
          "type": "address"
        },
        {
          "internalType": "address",
          "name": "",
          "type": "address"
        },
        {
          "internalType": "uint256",
          "name": "",
          "type": "uint256"
        },
        {
          "internalType": "uint256",
          "name": "",
          "type": "uint256"
        }
      ],
      "name": "swapExact",
      "outputs": [
        {
          "internalType": "uint256",
          "name": "shareUsed",
          "type": "uint256"
        },
        {
          "internalType": "uint256",
          "name": "shareReturned",
          "type": "uint256"
        }
      ],
      "stateMutability": "pure",
      "type": "function"
    }
  ],
  "transactionHash": "0xe43f28187cd467c51eeea050147d4a3f8601f8b38e8de7a71b516950e77e5ace",
  "args": [
    "0x9683D433621A83aA7dd290106e1da85251317F55"
  ],
  "solcInputHash": "6275ba41784bca598d640e544e1be041",
  "bytecode": "0x60a06040523480156200001157600080fd5b5060405162001430380380620014308339818101604052810190620000379190620001bc565b8073ffffffffffffffffffffffffffffffffffffffff1660808173ffffffffffffffffffffffffffffffffffffffff168152505073a0b86991c6218b36c1d19d4a2e9eb0ce3606eb4873ffffffffffffffffffffffffffffffffffffffff1663095ea7b3735a6a4d54456819380173272a5e8e9b9904bdf41b7fffffffffffffffffffffffffffffffffffffffffffffffffffffffffffffffff6040518363ffffffff1660e01b8152600401620000f09291906200021a565b6020604051808303816000875af115801562000110573d6000803e3d6000fd5b505050506040513d601f19601f8201168201806040525081019062000136919062000284565b5050620002b6565b600080fd5b600073ffffffffffffffffffffffffffffffffffffffff82169050919050565b6000620001708262000143565b9050919050565b6000620001848262000163565b9050919050565b620001968162000177565b8114620001a257600080fd5b50565b600081519050620001b6816200018b565b92915050565b600060208284031215620001d557620001d46200013e565b5b6000620001e584828501620001a5565b91505092915050565b620001f98162000163565b82525050565b6000819050919050565b6200021481620001ff565b82525050565b6000604082019050620002316000830185620001ee565b62000240602083018462000209565b9392505050565b60008115159050919050565b6200025e8162000247565b81146200026a57600080fd5b50565b6000815190506200027e8162000253565b92915050565b6000602082840312156200029d576200029c6200013e565b5b6000620002ad848285016200026d565b91505092915050565b608051611150620002e06000396000818161025b015281816102cc015261035a01526111506000f3fe608060405234801561001057600080fd5b50600436106100935760003560e01c8063ad5c464811610066578063ad5c464814610123578063daec383d14610141578063dc502dfa1461015f578063e0bc66b81461017d578063e343fe121461019b57610093565b806322a88c09146100985780634622be90146100b65780635259a990146100e757806389a3027114610105575b600080fd5b6100a06101cc565b6040516100ad919061085a565b60405180910390f35b6100d060048036038101906100cb919061092c565b6101e4565b6040516100de9291906109c8565b60405180910390f35b6100ef6101f9565b6040516100fc9190610a12565b60405180910390f35b61010d610211565b60405161011a9190610a4e565b60405180910390f35b61012b610229565b6040516101389190610a4e565b60405180910390f35b610149610241565b6040516101569190610a4e565b60405180910390f35b610167610259565b6040516101749190610a8a565b60405180910390f35b61018561027d565b6040516101929190610ac6565b60405180910390f35b6101b560048036038101906101b09190610ae1565b610295565b6040516101c39291906109c8565b60405180910390f35b735a6a4d54456819380173272a5e8e9b9904bdf41b81565b60008060008091509150965096945050505050565b73397ff1542f962076d0bfe58ea045ffa2d347aca081565b73a0b86991c6218b36c1d19d4a2e9eb0ce3606eb4881565b73c02aaa39b223fe8d0a0e5c4f27ead9083c756cc281565b7399d8a9c45b2eca8864373a26d1459e3dff1e17f381565b7f000000000000000000000000000000000000000000000000000000000000000081565b73d96f48665a1410c0cd669a88898eca36b9fc2cce81565b600080600073d96f48665a1410c0cd669a88898eca36b9fc2cce73ffffffffffffffffffffffffffffffffffffffff166397da6d307f000000000000000000000000000000000000000000000000000000000000000030306000896040518663ffffffff1660e01b8152600401610310959493929190610ba6565b60408051808303816000875af115801561032e573d6000803e3d6000fd5b505050506040513d601f19601f820116820180604052508101906103529190610c0e565b5090506000807f000000000000000000000000000000000000000000000000000000000000000073ffffffffffffffffffffffffffffffffffffffff1662f714ce84306040518363ffffffff1660e01b81526004016103b2929190610c4e565b60408051808303816000875af11580156103d0573d6000803e3d6000fd5b505050506040513d601f19601f820116820180604052508101906103f49190610c0e565b9150915060008073397ff1542f962076d0bfe58ea045ffa2d347aca073ffffffffffffffffffffffffffffffffffffffff16630902f1ac6040518163ffffffff1660e01b8152600401606060405180830381865afa15801561045a573d6000803e3d6000fd5b505050506040513d601f19601f8201168201806040525081019061047e9190610cf9565b506dffffffffffffffffffffffffffff1691506dffffffffffffffffffffffffffff16915060006104b0848385610783565b905073c02aaa39b223fe8d0a0e5c4f27ead9083c756cc273ffffffffffffffffffffffffffffffffffffffff1663a9059cbb73397ff1542f962076d0bfe58ea045ffa2d347aca0866040518363ffffffff1660e01b8152600401610515929190610d4c565b6020604051808303816000875af1158015610534573d6000803e3d6000fd5b505050506040513d601f19601f820116820180604052508101906105589190610dad565b5073397ff1542f962076d0bfe58ea045ffa2d347aca073ffffffffffffffffffffffffffffffffffffffff1663022c0d9f826000306040518463ffffffff1660e01b81526004016105ab93929190610e11565b600060405180830381600087803b1580156105c557600080fd5b505af11580156105d9573d6000803e3d6000fd5b5050505080856105e99190610e8a565b94506000735a6a4d54456819380173272a5e8e9b9904bdf41b73ffffffffffffffffffffffffffffffffffffffff166344ee19866002600089600073d96f48665a1410c0cd669a88898eca36b9fc2cce6040518663ffffffff1660e01b8152600401610659959493929190610f59565b6020604051808303816000875af1158015610678573d6000803e3d6000fd5b505050506040513d601f19601f8201168201806040525081019061069c9190610fac565b905073d96f48665a1410c0cd669a88898eca36b9fc2cce73ffffffffffffffffffffffffffffffffffffffff166302b9446c7399d8a9c45b2eca8864373a26d1459e3dff1e17f373d96f48665a1410c0cd669a88898eca36b9fc2cce8f8560006040518663ffffffff1660e01b815260040161071c959493929190610fd9565b60408051808303816000875af115801561073a573d6000803e3d6000fd5b505050506040513d601f19601f8201168201806040525081019061075e9190610c0e565b9050809850508a88610770919061102c565b9850505050505050509550959350505050565b6000806103e5856107949190611060565b9050600083826107a49190611060565b90506000826103e8876107b79190611060565b6107c19190610e8a565b905080826107cf91906110e9565b93505050509392505050565b600073ffffffffffffffffffffffffffffffffffffffff82169050919050565b6000819050919050565b600061082061081b610816846107db565b6107fb565b6107db565b9050919050565b600061083282610805565b9050919050565b600061084482610827565b9050919050565b61085481610839565b82525050565b600060208201905061086f600083018461084b565b92915050565b600080fd5b6000610885826107db565b9050919050565b60006108978261087a565b9050919050565b6108a78161088c565b81146108b257600080fd5b50565b6000813590506108c48161089e565b92915050565b6108d38161087a565b81146108de57600080fd5b50565b6000813590506108f0816108ca565b92915050565b6000819050919050565b610909816108f6565b811461091457600080fd5b50565b60008135905061092681610900565b92915050565b60008060008060008060c0878903121561094957610948610875565b5b600061095789828a016108b5565b965050602061096889828a016108b5565b955050604061097989828a016108e1565b945050606061098a89828a016108e1565b935050608061099b89828a01610917565b92505060a06109ac89828a01610917565b9150509295509295509295565b6109c2816108f6565b82525050565b60006040820190506109dd60008301856109b9565b6109ea60208301846109b9565b9392505050565b60006109fc82610827565b9050919050565b610a0c816109f1565b82525050565b6000602082019050610a276000830184610a03565b92915050565b6000610a3882610827565b9050919050565b610a4881610a2d565b82525050565b6000602082019050610a636000830184610a3f565b92915050565b6000610a7482610827565b9050919050565b610a8481610a69565b82525050565b6000602082019050610a9f6000830184610a7b565b92915050565b6000610ab082610827565b9050919050565b610ac081610aa5565b82525050565b6000602082019050610adb6000830184610ab7565b92915050565b600080600080600060a08688031215610afd57610afc610875565b5b6000610b0b888289016108b5565b9550506020610b1c888289016108b5565b9450506040610b2d888289016108e1565b9350506060610b3e88828901610917565b9250506080610b4f88828901610917565b9150509295509295909350565b610b658161087a565b82525050565b6000819050919050565b6000610b90610b8b610b8684610b6b565b6107fb565b6108f6565b9050919050565b610ba081610b75565b82525050565b600060a082019050610bbb6000830188610a3f565b610bc86020830187610b5c565b610bd56040830186610b5c565b610be26060830185610b97565b610bef60808301846109b9565b9695505050505050565b600081519050610c0881610900565b92915050565b60008060408385031215610c2557610c24610875565b5b6000610c3385828601610bf9565b9250506020610c4485828601610bf9565b9150509250929050565b6000604082019050610c6360008301856109b9565b610c706020830184610b5c565b9392505050565b60006dffffffffffffffffffffffffffff82169050919050565b610c9a81610c77565b8114610ca557600080fd5b50565b600081519050610cb781610c91565b92915050565b600063ffffffff82169050919050565b610cd681610cbd565b8114610ce157600080fd5b50565b600081519050610cf381610ccd565b92915050565b600080600060608486031215610d1257610d11610875565b5b6000610d2086828701610ca8565b9350506020610d3186828701610ca8565b9250506040610d4286828701610ce4565b9150509250925092565b6000604082019050610d616000830185610b5c565b610d6e60208301846109b9565b9392505050565b60008115159050919050565b610d8a81610d75565b8114610d9557600080fd5b50565b600081519050610da781610d81565b92915050565b600060208284031215610dc357610dc2610875565b5b6000610dd184828501610d98565b91505092915050565b600082825260208201905092915050565b50565b6000610dfb600083610dda565b9150610e0682610deb565b600082019050919050565b6000608082019050610e2660008301866109b9565b610e336020830185610b97565b610e406040830184610b5c565b8181036060830152610e5181610dee565b9050949350505050565b7f4e487b7100000000000000000000000000000000000000000000000000000000600052601160045260246000fd5b6000610e95826108f6565b9150610ea0836108f6565b9250827fffffffffffffffffffffffffffffffffffffffffffffffffffffffffffffffff03821115610ed557610ed4610e5b565b5b828201905092915050565b6000819050919050565b600081600f0b9050919050565b6000610f12610f0d610f0884610ee0565b6107fb565b610eea565b9050919050565b610f2281610ef7565b82525050565b6000610f43610f3e610f3984610b6b565b6107fb565b610eea565b9050919050565b610f5381610f28565b82525050565b600060a082019050610f6e6000830188610f19565b610f7b6020830187610f4a565b610f8860408301866109b9565b610f956060830185610b97565b610fa26080830184610b5c565b9695505050505050565b600060208284031215610fc257610fc1610875565b5b6000610fd084828501610bf9565b91505092915050565b600060a082019050610fee6000830188610a3f565b610ffb6020830187610b5c565b6110086040830186610b5c565b61101560608301856109b9565b6110226080830184610b97565b9695505050505050565b6000611037826108f6565b9150611042836108f6565b92508282101561105557611054610e5b565b5b828203905092915050565b600061106b826108f6565b9150611076836108f6565b9250817fffffffffffffffffffffffffffffffffffffffffffffffffffffffffffffffff04831182151516156110af576110ae610e5b565b5b828202905092915050565b7f4e487b7100000000000000000000000000000000000000000000000000000000600052601260045260246000fd5b60006110f4826108f6565b91506110ff836108f6565b92508261110f5761110e6110ba565b5b82820490509291505056fea264697066735822122028fb7ced55c1ad1adb4ea7c092e1f6cac855ccd6e7ea77d075f23cbc33191ffb64736f6c634300080a0033",
  "devdoc": {
    "kind": "dev",
    "methods": {},
    "version": 1
  },
  "userdoc": {
    "kind": "user",
    "methods": {
      "swap(address,address,address,uint256,uint256)": {
        "notice": "Withdraws 'amountFrom' of token 'from' from the BentoBox account for this swapper. Swaps it for at least 'amountToMin' of token 'to'. Transfers the swapped tokens of 'to' into the BentoBox using a plain ERC20 transfer. Returns the amount of tokens 'to' transferred to BentoBox. (The BentoBox skim function will be used by the caller to get the swapped funds)."
      },
      "swapExact(address,address,address,address,uint256,uint256)": {
        "notice": "Calculates the amount of token 'from' needed to complete the swap (amountFrom), this should be less than or equal to amountFromMax. Withdraws 'amountFrom' of token 'from' from the BentoBox account for this swapper. Swaps it for exactly 'exactAmountTo' of token 'to'. Transfers the swapped tokens of 'to' into the BentoBox using a plain ERC20 transfer. Transfers allocated, but unused 'from' tokens within the BentoBox to 'refundTo' (amountFromMax - amountFrom). Returns the amount of 'from' tokens withdrawn from BentoBox (amountFrom). (The BentoBox skim function will be used by the caller to get the swapped funds)."
      }
    },
    "notice": "USDC/WETH Popsicle Swapper for Ethereum",
    "version": 1
  },
  "storageLayout": {
    "storage": [],
    "types": null
  }
}