{
  "address": "0x3BAB7207D4E27b5DE4A15D540B7297281B45Ed2a",
  "abi": [
    {
      "inputs": [],
      "stateMutability": "nonpayable",
      "type": "constructor"
    },
    {
      "inputs": [],
      "name": "CurveToken",
      "outputs": [
        {
          "internalType": "contract IERC20",
          "name": "",
          "type": "address"
        }
      ],
      "stateMutability": "view",
      "type": "function"
    },
    {
      "inputs": [],
      "name": "MIM",
      "outputs": [
        {
          "internalType": "contract IERC20",
          "name": "",
          "type": "address"
        }
      ],
      "stateMutability": "view",
      "type": "function"
    },
    {
      "inputs": [],
      "name": "MIM3POOL",
      "outputs": [
        {
          "internalType": "contract CurvePool",
          "name": "",
          "type": "address"
        }
      ],
      "stateMutability": "view",
      "type": "function"
    },
    {
      "inputs": [],
      "name": "TETHER",
      "outputs": [
        {
          "internalType": "contract TetherToken",
          "name": "",
          "type": "address"
        }
      ],
      "stateMutability": "view",
      "type": "function"
    },
    {
      "inputs": [],
      "name": "WBTC",
      "outputs": [
        {
          "internalType": "contract IERC20",
          "name": "",
          "type": "address"
        }
      ],
      "stateMutability": "view",
      "type": "function"
    },
    {
      "inputs": [],
      "name": "bentoBox",
      "outputs": [
        {
          "internalType": "contract IBentoBoxV1",
          "name": "",
          "type": "address"
        }
      ],
      "stateMutability": "view",
      "type": "function"
    },
    {
      "inputs": [],
      "name": "cvxRen",
      "outputs": [
        {
          "internalType": "contract IConvex",
          "name": "",
          "type": "address"
        }
      ],
      "stateMutability": "view",
      "type": "function"
    },
    {
      "inputs": [],
      "name": "renCrv",
      "outputs": [
        {
          "internalType": "contract CurvePool",
          "name": "",
          "type": "address"
        }
      ],
      "stateMutability": "view",
      "type": "function"
    },
    {
      "inputs": [
        {
          "internalType": "address",
          "name": "recipient",
          "type": "address"
        },
        {
          "internalType": "uint256",
          "name": "shareToMin",
          "type": "uint256"
        },
        {
          "internalType": "uint256",
          "name": "shareFrom",
          "type": "uint256"
        }
      ],
      "name": "swap",
      "outputs": [
        {
          "internalType": "uint256",
          "name": "extraShare",
          "type": "uint256"
        },
        {
          "internalType": "uint256",
          "name": "shareReturned",
          "type": "uint256"
        }
      ],
      "stateMutability": "nonpayable",
      "type": "function"
    },
    {
      "inputs": [],
      "name": "threecrypto",
      "outputs": [
        {
          "internalType": "contract IThreeCrypto",
          "name": "",
          "type": "address"
        }
      ],
      "stateMutability": "view",
      "type": "function"
    }
  ],
  "transactionHash": "0xeb13cdb756a7effb769d2e887052d6271d09230c07c9f96504d794b8d95311c5",
  "args": [],
  "solcInputHash": "0119d1ac78db0bcdf394c4c08dc302c4",
  "bytecode": "0x608060405234801561001057600080fd5b506040805163095ea7b360e01b8152735a6a4d54456819380173272a5e8e9b9904bdf41b6004820152600019602482015290517399d8a9c45b2eca8864373a26d1459e3dff1e17f39163095ea7b39160448083019260209291908290030181600087803b15801561008057600080fd5b505af1158015610094573d6000803e3d6000fd5b505050506040513d60208110156100aa57600080fd5b50506040805163095ea7b360e01b815273d51a44d3fae010294c616388b506acda1bfaae4660048201526000196024820152905173dac17f958d2ee523a2206206994597c13d831ec79163095ea7b391604480830192600092919082900301818387803b15801561011a57600080fd5b505af115801561012e573d6000803e3d6000fd5b50506040805163095ea7b360e01b81527393054188d876f558f4a66b2ef1d97d16edf0895b600482015260001960248201529051732260fac5e5542a773aa44fbcfedf7c193bc2c599935063095ea7b3925060448083019260209291908290030181600087803b1580156101a157600080fd5b505af11580156101b5573d6000803e3d6000fd5b505050506040513d60208110156101cb57600080fd5b50506040805163095ea7b360e01b815273b65ede134521f0efd4e943c835f450137dc6e83e6004820152600019602482015290517349849c98ae39fff122806c06791fa73784fb36759163095ea7b39160448083019260209291908290030181600087803b15801561023c57600080fd5b505af1158015610250573d6000803e3d6000fd5b505050506040513d602081101561026657600080fd5b50506107c9806102776000396000f3fe608060405234801561001057600080fd5b506004361061009e5760003560e01c80638fe2508b116100665780638fe2508b146100e7578063979d80c4146100ef5780639f1d0f59146100f7578063a5d3bf2914610142578063daec383d1461014a5761009e565b806322a88c09146100a35780634dede3de146100c75780636733a6c7146100cf5780636b2ace87146100d757806378e7e3d1146100df575b600080fd5b6100ab610152565b604080516001600160a01b039092168252519081900360200190f35b6100ab61016a565b6100ab610182565b6100ab61019a565b6100ab6101b2565b6100ab6101ca565b6100ab6101e2565b6101296004803603606081101561010d57600080fd5b506001600160a01b0381351690602081013590604001356101fa565b6040805192835260208301919091528051918290030190f35b6100ab6106ef565b6100ab610707565b735a6a4d54456819380173272a5e8e9b9904bdf41b81565b732260fac5e5542a773aa44fbcfedf7c193bc2c59981565b73d51a44d3fae010294c616388b506acda1bfaae4681565b73f5bce5077908a1b7370b9ae04adc565ebd64396681565b73dac17f958d2ee523a2206206994597c13d831ec781565b7349849c98ae39fff122806c06791fa73784fb367581565b73b65ede134521f0efd4e943c835f450137dc6e83e81565b6040805163097da6d360e41b81527399d8a9c45b2eca8864373a26d1459e3dff1e17f360048201523060248201819052604482015260006064820181905260848201849052825190928392839273f5bce5077908a1b7370b9ae04adc565ebd643966926397da6d309260a4808201939182900301818787803b15801561027f57600080fd5b505af1158015610293573d6000803e3d6000fd5b505050506040513d60408110156102a957600080fd5b5051604080516322770cc360e11b815260006004820181905260036024830152604482018490526064820181905230608483015291519293509091735a6a4d54456819380173272a5e8e9b9904bdf41b916344ee19869160a480830192602092919082900301818787803b15801561032057600080fd5b505af1158015610334573d6000803e3d6000fd5b505050506040513d602081101561034a57600080fd5b505160408051630b68372160e31b8152600060048201819052600160248301526044820184905260648201819052915192935073d51a44d3fae010294c616388b506acda1bfaae4692635b41b9089260848084019391929182900301818387803b1580156103b757600080fd5b505af11580156103cb573d6000803e3d6000fd5b5050604080516370a0823160e01b8152306004820152905160009350732260fac5e5542a773aa44fbcfedf7c193bc2c59992506370a0823191602480820192602092909190829003018186803b15801561042457600080fd5b505afa158015610438573d6000803e3d6000fd5b505050506040513d602081101561044e57600080fd5b5051905061045a610775565b6040518060400160405280600081526020018381525090507393054188d876f558f4a66b2ef1d97d16edf0895b6001600160a01b0316630b4c7e4d8260006040518363ffffffff1660e01b81526004018083600260200280838360005b838110156104cf5781810151838201526020016104b7565b5050505090500182815260200192505050600060405180830381600087803b1580156104fa57600080fd5b505af115801561050e573d6000803e3d6000fd5b5050604080516370a0823160e01b81523060048201529051600093507349849c98ae39fff122806c06791fa73784fb367592506370a0823191602480820192602092909190829003018186803b15801561056757600080fd5b505afa15801561057b573d6000803e3d6000fd5b505050506040513d602081101561059157600080fd5b505160408051636e553f6560e01b81526004810183905273f5bce5077908a1b7370b9ae04adc565ebd6439666024820152905191925073b65ede134521f0efd4e943c835f450137dc6e83e91636e553f659160448082019260009290919082900301818387803b15801561060457600080fd5b505af1158015610618573d6000803e3d6000fd5b50506040805162ae511b60e21b815273b65ede134521f0efd4e943c835f450137dc6e83e600482015273f5bce5077908a1b7370b9ae04adc565ebd643966602482018190526001600160a01b038f1660448301526064820186905260006084830181905283519195506302b9446c945060a480840194938390030190829087803b1580156106a557600080fd5b505af11580156106b9573d6000803e3d6000fd5b505050506040513d60408110156106cf57600080fd5b506020015195506106e0868a61071f565b96505050505050935093915050565b7393054188d876f558f4a66b2ef1d97d16edf0895b81565b7399d8a9c45b2eca8864373a26d1459e3dff1e17f381565b8082038281111561076f576040805162461bcd60e51b8152602060048201526015602482015274426f72696e674d6174683a20556e646572666c6f7760581b604482015290519081900360640190fd5b92915050565b6040518060400160405280600290602082028036833750919291505056fea2646970667358221220b3560818a759605ec1cf8e157c439579c431e3915c8317c2f85f7b71ba12843b64736f6c634300060c0033",
  "devdoc": {
    "kind": "dev",
    "methods": {},
    "version": 1
  },
  "userdoc": {
    "kind": "user",
    "methods": {},
    "version": 1
  },
  "storageLayout": {
    "storage": [],
    "types": null
  }
}