{
  "address": "0x41D65ce96342a3d9c3D878856e283E839d29dF42",
  "abi": [
    {
      "inputs": [],
      "stateMutability": "nonpayable",
      "type": "constructor"
    },
    {
      "inputs": [],
      "name": "CurveToken",
      "outputs": [
        {
          "internalType": "contract IERC20",
          "name": "",
          "type": "address"
        }
      ],
      "stateMutability": "view",
      "type": "function"
    },
    {
      "inputs": [],
      "name": "MIM",
      "outputs": [
        {
          "internalType": "contract IERC20",
          "name": "",
          "type": "address"
        }
      ],
      "stateMutability": "view",
      "type": "function"
    },
    {
      "inputs": [],
      "name": "MIM3POOL",
      "outputs": [
        {
          "internalType": "contract CurvePool",
          "name": "",
          "type": "address"
        }
      ],
      "stateMutability": "view",
      "type": "function"
    },
    {
      "inputs": [],
      "name": "TETHER",
      "outputs": [
        {
          "internalType": "contract TetherToken",
          "name": "",
          "type": "address"
        }
      ],
      "stateMutability": "view",
      "type": "function"
    },
    {
      "inputs": [],
      "name": "WBTC",
      "outputs": [
        {
          "internalType": "contract IERC20",
          "name": "",
          "type": "address"
        }
      ],
      "stateMutability": "view",
      "type": "function"
    },
    {
      "inputs": [],
      "name": "bentoBox",
      "outputs": [
        {
          "internalType": "contract IBentoBoxV1",
          "name": "",
          "type": "address"
        }
      ],
      "stateMutability": "view",
      "type": "function"
    },
    {
      "inputs": [],
      "name": "cvxRen",
      "outputs": [
        {
          "internalType": "contract IConvex",
          "name": "",
          "type": "address"
        }
      ],
      "stateMutability": "view",
      "type": "function"
    },
    {
      "inputs": [],
      "name": "renCrv",
      "outputs": [
        {
          "internalType": "contract CurvePool",
          "name": "",
          "type": "address"
        }
      ],
      "stateMutability": "view",
      "type": "function"
    },
    {
      "inputs": [
        {
          "internalType": "contract IERC20",
          "name": "fromToken",
          "type": "address"
        },
        {
          "internalType": "contract IERC20",
          "name": "toToken",
          "type": "address"
        },
        {
          "internalType": "address",
          "name": "recipient",
          "type": "address"
        },
        {
          "internalType": "uint256",
          "name": "shareToMin",
          "type": "uint256"
        },
        {
          "internalType": "uint256",
          "name": "shareFrom",
          "type": "uint256"
        }
      ],
      "name": "swap",
      "outputs": [
        {
          "internalType": "uint256",
          "name": "extraShare",
          "type": "uint256"
        },
        {
          "internalType": "uint256",
          "name": "shareReturned",
          "type": "uint256"
        }
      ],
      "stateMutability": "nonpayable",
      "type": "function"
    },
    {
      "inputs": [
        {
          "internalType": "contract IERC20",
          "name": "fromToken",
          "type": "address"
        },
        {
          "internalType": "contract IERC20",
          "name": "toToken",
          "type": "address"
        },
        {
          "internalType": "address",
          "name": "recipient",
          "type": "address"
        },
        {
          "internalType": "address",
          "name": "refundTo",
          "type": "address"
        },
        {
          "internalType": "uint256",
          "name": "shareFromSupplied",
          "type": "uint256"
        },
        {
          "internalType": "uint256",
          "name": "shareToExact",
          "type": "uint256"
        }
      ],
      "name": "swapExact",
      "outputs": [
        {
          "internalType": "uint256",
          "name": "shareUsed",
          "type": "uint256"
        },
        {
          "internalType": "uint256",
          "name": "shareReturned",
          "type": "uint256"
        }
      ],
      "stateMutability": "nonpayable",
      "type": "function"
    },
    {
      "inputs": [],
      "name": "threecrypto",
      "outputs": [
        {
          "internalType": "contract IThreeCrypto",
          "name": "",
          "type": "address"
        }
      ],
      "stateMutability": "view",
      "type": "function"
    }
  ],
  "transactionHash": "0xceb4f31cdbd53c35ab2cb6297eed8b2a3dca2481dbb2f95e41fb28c144dc1c93",
  "args": [],
  "solcInputHash": "0119d1ac78db0bcdf394c4c08dc302c4",
  "bytecode": "0x608060405234801561001057600080fd5b506040805163095ea7b360e01b8152735a6a4d54456819380173272a5e8e9b9904bdf41b6004820152600019602482015290517399d8a9c45b2eca8864373a26d1459e3dff1e17f39163095ea7b39160448083019260209291908290030181600087803b15801561008057600080fd5b505af1158015610094573d6000803e3d6000fd5b505050506040513d60208110156100aa57600080fd5b50506040805163095ea7b360e01b8152735a6a4d54456819380173272a5e8e9b9904bdf41b60048201526000196024820152905173dac17f958d2ee523a2206206994597c13d831ec79163095ea7b391604480830192600092919082900301818387803b15801561011a57600080fd5b505af115801561012e573d6000803e3d6000fd5b50506040805163095ea7b360e01b815273d51a44d3fae010294c616388b506acda1bfaae46600482015260001960248201529051732260fac5e5542a773aa44fbcfedf7c193bc2c599935063095ea7b3925060448083019260209291908290030181600087803b1580156101a157600080fd5b505af11580156101b5573d6000803e3d6000fd5b505050506040513d60208110156101cb57600080fd5b50506107b9806101dc6000396000f3fe608060405234801561001057600080fd5b50600436106100a95760003560e01c806378e7e3d11161007157806378e7e3d11461014f5780638fe2508b14610157578063979d80c41461015f578063a5d3bf2914610167578063daec383d1461016f578063e343fe1214610177576100a9565b806322a88c09146100ae5780634622be90146100d25780634dede3de146101375780636733a6c71461013f5780636b2ace8714610147575b600080fd5b6100b66101b9565b604080516001600160a01b039092168252519081900360200190f35b61011e600480360360c08110156100e857600080fd5b506001600160a01b0381358116916020810135821691604082013581169160608101359091169060808101359060a001356101d1565b6040805192835260208301919091528051918290030190f35b6100b66101df565b6100b66101f7565b6100b661020f565b6100b6610227565b6100b661023f565b6100b6610257565b6100b661026f565b6100b6610287565b61011e600480360360a081101561018d57600080fd5b506001600160a01b0381358116916020810135821691604082013516906060810135906080013561029f565b735a6a4d54456819380173272a5e8e9b9904bdf41b81565b600080965096945050505050565b732260fac5e5542a773aa44fbcfedf7c193bc2c59981565b73d51a44d3fae010294c616388b506acda1bfaae4681565b73f5bce5077908a1b7370b9ae04adc565ebd64396681565b73dac17f958d2ee523a2206206994597c13d831ec781565b7349849c98ae39fff122806c06791fa73784fb367581565b73b65ede134521f0efd4e943c835f450137dc6e83e81565b7393054188d876f558f4a66b2ef1d97d16edf0895b81565b7399d8a9c45b2eca8864373a26d1459e3dff1e17f381565b6040805163097da6d360e41b81526001600160a01b03871660048201523060248201819052604482015260006064820181905260848201849052825190928392839273f5bce5077908a1b7370b9ae04adc565ebd643966926397da6d309260a4808201939182900301818787803b15801561031957600080fd5b505af115801561032d573d6000803e3d6000fd5b505050506040513d604081101561034357600080fd5b505160408051630e5a77ed60e21b815260048101839052905191925073b65ede134521f0efd4e943c835f450137dc6e83e91633969dfb49160248082019260009290919082900301818387803b15801561039c57600080fd5b505af11580156103b0573d6000803e3d6000fd5b505060408051630d2680e960e11b8152600481018590526001602482015260006044820181905291517393054188d876f558f4a66b2ef1d97d16edf0895b9450631a4d01d293506064808301939282900301818387803b15801561041357600080fd5b505af1158015610427573d6000803e3d6000fd5b5050604080516370a0823160e01b8152306004820152905160009350732260fac5e5542a773aa44fbcfedf7c193bc2c59992506370a0823191602480820192602092909190829003018186803b15801561048057600080fd5b505afa158015610494573d6000803e3d6000fd5b505050506040513d60208110156104aa57600080fd5b505160408051630b68372160e31b8152600160048201526000602482018190526044820184905260648201819052915192935073d51a44d3fae010294c616388b506acda1bfaae4692635b41b9089260848084019391929182900301818387803b15801561051757600080fd5b505af115801561052b573d6000803e3d6000fd5b5050604080516370a0823160e01b815230600482015290516000935073dac17f958d2ee523a2206206994597c13d831ec792506370a0823191602480820192602092909190829003018186803b15801561058457600080fd5b505afa158015610598573d6000803e3d6000fd5b505050506040513d60208110156105ae57600080fd5b5051604080516322770cc360e11b815260036004820152600060248201819052604482018490526064820181905273f5bce5077908a1b7370b9ae04adc565ebd643966608483015291519293509091735a6a4d54456819380173272a5e8e9b9904bdf41b916344ee19869160a480830192602092919082900301818787803b15801561063957600080fd5b505af115801561064d573d6000803e3d6000fd5b505050506040513d602081101561066357600080fd5b50516040805162ae511b60e21b81526001600160a01b038d8116600483015273f5bce5077908a1b7370b9ae04adc565ebd64396660248301819052908d16604483015260648201849052600060848301819052835194955090936302b9446c9360a4808501949193918390030190829087803b1580156106e257600080fd5b505af11580156106f6573d6000803e3d6000fd5b505050506040513d604081101561070c57600080fd5b5060200151945061071d858961072d565b9550505050509550959350505050565b8082038281111561077d576040805162461bcd60e51b8152602060048201526015602482015274426f72696e674d6174683a20556e646572666c6f7760581b604482015290519081900360640190fd5b9291505056fea2646970667358221220ccfeaf76f55fc596e7c6a8ad4286484bec2670a1b01ba36c10e1d7dbd38dd2f864736f6c634300060c0033",
  "devdoc": {
    "kind": "dev",
    "methods": {},
    "version": 1
  },
  "userdoc": {
    "kind": "user",
    "methods": {
      "swap(address,address,address,uint256,uint256)": {
        "notice": "Withdraws 'amountFrom' of token 'from' from the BentoBox account for this swapper. Swaps it for at least 'amountToMin' of token 'to'. Transfers the swapped tokens of 'to' into the BentoBox using a plain ERC20 transfer. Returns the amount of tokens 'to' transferred to BentoBox. (The BentoBox skim function will be used by the caller to get the swapped funds)."
      },
      "swapExact(address,address,address,address,uint256,uint256)": {
        "notice": "Calculates the amount of token 'from' needed to complete the swap (amountFrom), this should be less than or equal to amountFromMax. Withdraws 'amountFrom' of token 'from' from the BentoBox account for this swapper. Swaps it for exactly 'exactAmountTo' of token 'to'. Transfers the swapped tokens of 'to' into the BentoBox using a plain ERC20 transfer. Transfers allocated, but unused 'from' tokens within the BentoBox to 'refundTo' (amountFromMax - amountFrom). Returns the amount of 'from' tokens withdrawn from BentoBox (amountFrom). (The BentoBox skim function will be used by the caller to get the swapped funds)."
      }
    },
    "version": 1
  },
  "storageLayout": {
    "storage": [],
    "types": null
  }
}