{
  "address": "0xA454406bE7690C78ee96F99790a8b509460854eA",
  "abi": [
    {
      "inputs": [
        {
          "internalType": "contract ICurveVoter",
          "name": "_curveVoter",
          "type": "address"
        }
      ],
      "stateMutability": "nonpayable",
      "type": "constructor"
    },
    {
      "inputs": [],
      "name": "InsufficientOutput",
      "type": "error"
    },
    {
      "inputs": [],
      "name": "NotAllowed",
      "type": "error"
    },
    {
      "anonymous": false,
      "inputs": [
        {
          "indexed": true,
          "internalType": "address",
          "name": "previousOwner",
          "type": "address"
        },
        {
          "indexed": true,
          "internalType": "address",
          "name": "newOwner",
          "type": "address"
        }
      ],
      "name": "OwnershipTransferred",
      "type": "event"
    },
    {
      "inputs": [],
      "name": "CRV",
      "outputs": [
        {
          "internalType": "contract ERC20",
          "name": "",
          "type": "address"
        }
      ],
      "stateMutability": "view",
      "type": "function"
    },
    {
      "inputs": [],
      "name": "CRV3",
      "outputs": [
        {
          "internalType": "contract ERC20",
          "name": "",
          "type": "address"
        }
      ],
      "stateMutability": "view",
      "type": "function"
    },
    {
      "inputs": [],
      "name": "CRV3POOL",
      "outputs": [
        {
          "internalType": "contract CurveThreePool",
          "name": "",
          "type": "address"
        }
      ],
      "stateMutability": "view",
      "type": "function"
    },
    {
      "inputs": [],
      "name": "CRVETH",
      "outputs": [
        {
          "internalType": "contract CurvePool",
          "name": "",
          "type": "address"
        }
      ],
      "stateMutability": "view",
      "type": "function"
    },
    {
      "inputs": [],
      "name": "TRICRYPTO",
      "outputs": [
        {
          "internalType": "contract CurveThreeCryptoPool",
          "name": "",
          "type": "address"
        }
      ],
      "stateMutability": "view",
      "type": "function"
    },
    {
      "inputs": [],
      "name": "USDT",
      "outputs": [
        {
          "internalType": "contract Tether",
          "name": "",
          "type": "address"
        }
      ],
      "stateMutability": "view",
      "type": "function"
    },
    {
      "inputs": [],
      "name": "WETH",
      "outputs": [
        {
          "internalType": "contract ERC20",
          "name": "",
          "type": "address"
        }
      ],
      "stateMutability": "view",
      "type": "function"
    },
    {
      "inputs": [
        {
          "internalType": "address",
          "name": "",
          "type": "address"
        }
      ],
      "name": "allowedHarvesters",
      "outputs": [
        {
          "internalType": "bool",
          "name": "",
          "type": "bool"
        }
      ],
      "stateMutability": "view",
      "type": "function"
    },
    {
      "inputs": [],
      "name": "curveVoter",
      "outputs": [
        {
          "internalType": "contract ICurveVoter",
          "name": "",
          "type": "address"
        }
      ],
      "stateMutability": "view",
      "type": "function"
    },
    {
      "inputs": [
        {
          "internalType": "uint256",
          "name": "minAmountOut",
          "type": "uint256"
        }
      ],
      "name": "harvest",
      "outputs": [
        {
          "internalType": "uint256",
          "name": "amountOut",
          "type": "uint256"
        }
      ],
      "stateMutability": "nonpayable",
      "type": "function"
    },
    {
      "inputs": [
        {
          "internalType": "uint256",
          "name": "minAmountOut",
          "type": "uint256"
        }
      ],
      "name": "harvestAll",
      "outputs": [
        {
          "internalType": "uint256",
          "name": "amountOut",
          "type": "uint256"
        }
      ],
      "stateMutability": "nonpayable",
      "type": "function"
    },
    {
      "inputs": [],
      "name": "owner",
      "outputs": [
        {
          "internalType": "address",
          "name": "",
          "type": "address"
        }
      ],
      "stateMutability": "view",
      "type": "function"
    },
    {
      "inputs": [],
      "name": "renounceOwnership",
      "outputs": [],
      "stateMutability": "nonpayable",
      "type": "function"
    },
    {
      "inputs": [
        {
          "internalType": "address",
          "name": "account",
          "type": "address"
        },
        {
          "internalType": "bool",
          "name": "allowed",
          "type": "bool"
        }
      ],
      "name": "setAllowedHarvester",
      "outputs": [],
      "stateMutability": "nonpayable",
      "type": "function"
    },
    {
      "inputs": [
        {
          "internalType": "address",
          "name": "newOwner",
          "type": "address"
        }
      ],
      "name": "transferOwnership",
      "outputs": [],
      "stateMutability": "nonpayable",
      "type": "function"
    }
  ],
  "transactionHash": "0x48ab7c0870b4c3caf902e514e16d818701d7ba99247d1adecf715a19cc2ea6cf",
  "args": [
    "0x129149DC63F5778a41f619Bb36212566ac54eA45"
  ],
  "numDeployments": 2,
  "solcInputHash": "77aa9cc56d2fba9fc473de8e3e4a9c8d",
  "bytecode": "0x60a060405234801561001057600080fd5b50604051610d70380380610d7083398101604081905261002f916101ad565b6100383361015d565b6001600160a01b03811660805260405163095ea7b360e01b815273d51a44d3fae010294c616388b506acda1bfaae466004820152600019602482015273dac17f958d2ee523a2206206994597c13d831ec79063095ea7b390604401600060405180830381600087803b1580156100ad57600080fd5b505af11580156100c1573d6000803e3d6000fd5b505060405163095ea7b360e01b8152738301ae4fc9c624d1d396cbdaa1ed877821d7c5116004820152600019602482015273c02aaa39b223fe8d0a0e5c4f27ead9083c756cc2925063095ea7b391506044016020604051808303816000875af1158015610132573d6000803e3d6000fd5b505050506040513d601f19601f8201168201806040525081019061015691906101dd565b50506101ff565b600080546001600160a01b038381166001600160a01b0319831681178455604051919092169283917f8be0079c531659141344cd1fd0a4f28419497f9722a3daafe3b4186f6b6457e09190a35050565b6000602082840312156101bf57600080fd5b81516001600160a01b03811681146101d657600080fd5b9392505050565b6000602082840312156101ef57600080fd5b815180151581146101d657600080fd5b608051610b3a610236600039600081816101b5015281816103f4015281816104e60152818161092a01526109bb0152610b3a6000f3fe608060405234801561001057600080fd5b50600436106100f55760003560e01c80638da5cb5b11610097578063c54e44eb11610066578063c54e44eb14610241578063d6595f3a1461025c578063ddc632621461027d578063f2fde38b1461029057600080fd5b80638da5cb5b146101df578063945c9142146101f0578063950c7d281461020b578063ad5c46481461022657600080fd5b806345c6c193116100d357806345c6c1931461017a578063510b78d01461019557806365d2ebbf146101b0578063715018a6146101d757600080fd5b806325069aca146100fa578063367fc2fc146101325780633958f9e914610165575b600080fd5b61011573d51a44d3fae010294c616388b506acda1bfaae4681565b6040516001600160a01b0390911681526020015b60405180910390f35b610155610140366004610a4e565b60016020526000908152604090205460ff1681565b6040519015158152602001610129565b610178610173366004610a7e565b6102a3565b005b610115738301ae4fc9c624d1d396cbdaa1ed877821d7c51181565b610115736c3f90f043a72fa612cbac8115ee7e52bde6e49081565b6101157f000000000000000000000000000000000000000000000000000000000000000081565b61017861032d565b6000546001600160a01b0316610115565b61011573d533a949740bb3306d119cc777fa900ba034cd5281565b61011573bebc44782c7db0a1a60cb6fe97d0b483032ff1c781565b61011573c02aaa39b223fe8d0a0e5c4f27ead9083c756cc281565b61011573dac17f958d2ee523a2206206994597c13d831ec781565b61026f61026a366004610ab5565b610393565b604051908152602001610129565b61026f61028b366004610ab5565b610485565b61017861029e366004610a4e565b61051d565b6000546001600160a01b031633146103025760405162461bcd60e51b815260206004820181905260248201527f4f776e61626c653a2063616c6c6572206973206e6f7420746865206f776e657260448201526064015b60405180910390fd5b6001600160a01b03919091166000908152600160205260409020805460ff1916911515919091179055565b6000546001600160a01b031633146103875760405162461bcd60e51b815260206004820181905260248201527f4f776e61626c653a2063616c6c6572206973206e6f7420746865206f776e657260448201526064016102f9565b61039160006105e8565b565b3360009081526001602052604081205460ff161580156103be57506000546001600160a01b03163314155b156103dc57604051631eb49d6d60e11b815260040160405180910390fd5b6040516377329f3560e01b81523060048201526000907f00000000000000000000000000000000000000000000000000000000000000006001600160a01b0316906377329f35906024015b6020604051808303816000875af1158015610446573d6000803e3d6000fd5b505050506040513d601f19601f8201168201806040525081019061046a9190610ace565b9050801561047f5761047c8184610645565b91505b50919050565b3360009081526001602052604081205460ff161580156104b057506000546001600160a01b03163314155b156104ce57604051631eb49d6d60e11b815260040160405180910390fd5b604051630f41a04d60e11b81523060048201526000907f00000000000000000000000000000000000000000000000000000000000000006001600160a01b031690631e83409a90602401610427565b6000546001600160a01b031633146105775760405162461bcd60e51b815260206004820181905260248201527f4f776e61626c653a2063616c6c6572206973206e6f7420746865206f776e657260448201526064016102f9565b6001600160a01b0381166105dc5760405162461bcd60e51b815260206004820152602660248201527f4f776e61626c653a206e6577206f776e657220697320746865207a65726f206160448201526564647265737360d01b60648201526084016102f9565b6105e5816105e8565b50565b600080546001600160a01b0383811673ffffffffffffffffffffffffffffffffffffffff19831681178455604051919092169283917f8be0079c531659141344cd1fd0a4f28419497f9722a3daafe3b4186f6b6457e09190a35050565b604051630d2680e960e11b815260048101839052600260248201526000604482018190529073bebc44782c7db0a1a60cb6fe97d0b483032ff1c790631a4d01d290606401600060405180830381600087803b1580156106a357600080fd5b505af11580156106b7573d6000803e3d6000fd5b50506040516370a0823160e01b815230600482015273d51a44d3fae010294c616388b506acda1bfaae469250635b41b908915060009060029073dac17f958d2ee523a2206206994597c13d831ec7906370a0823190602401602060405180830381865afa15801561072c573d6000803e3d6000fd5b505050506040513d601f19601f820116820180604052508101906107509190610ace565b6040517fffffffff0000000000000000000000000000000000000000000000000000000060e086901b16815260048101939093526024830191909152604482015260006064820152608401600060405180830381600087803b1580156107b557600080fd5b505af11580156107c9573d6000803e3d6000fd5b50506040516370a0823160e01b8152306004820152738301ae4fc9c624d1d396cbdaa1ed877821d7c5119250635b41b908915060009060019073c02aaa39b223fe8d0a0e5c4f27ead9083c756cc2906370a0823190602401602060405180830381865afa15801561083e573d6000803e3d6000fd5b505050506040513d601f19601f820116820180604052508101906108629190610ace565b6040517fffffffff0000000000000000000000000000000000000000000000000000000060e086901b168152600481019390935260248301919091526044820152600060648201526084016020604051808303816000875af11580156108cc573d6000803e3d6000fd5b505050506040513d601f19601f820116820180604052508101906108f09190610ace565b9050818110156109135760405163bb2875c360e01b815260040160405180910390fd5b60405163a9059cbb60e01b81526001600160a01b037f00000000000000000000000000000000000000000000000000000000000000001660048201526024810182905273d533a949740bb3306d119cc777fa900ba034cd529063a9059cbb906044016020604051808303816000875af1158015610994573d6000803e3d6000fd5b505050506040513d601f19601f820116820180604052508101906109b89190610ae7565b507f00000000000000000000000000000000000000000000000000000000000000006001600160a01b031663f83d08ba6040518163ffffffff1660e01b8152600401600060405180830381600087803b158015610a1457600080fd5b505af1158015610a28573d6000803e3d6000fd5b5050505092915050565b80356001600160a01b0381168114610a4957600080fd5b919050565b600060208284031215610a6057600080fd5b610a6982610a32565b9392505050565b80151581146105e557600080fd5b60008060408385031215610a9157600080fd5b610a9a83610a32565b91506020830135610aaa81610a70565b809150509250929050565b600060208284031215610ac757600080fd5b5035919050565b600060208284031215610ae057600080fd5b5051919050565b600060208284031215610af957600080fd5b8151610a6981610a7056fea264697066735822122014a7d6c6e13f140cc46cb147189523bfafcaff7178e8279b028ba185a19cf27364736f6c634300080a0033",
  "devdoc": {
    "kind": "dev",
    "methods": {
      "owner()": {
        "details": "Returns the address of the current owner."
      },
      "renounceOwnership()": {
        "details": "Leaves the contract without owner. It will not be possible to call `onlyOwner` functions anymore. Can only be called by the current owner. NOTE: Renouncing ownership will leave the contract without an owner, thereby removing any functionality that is only available to the owner."
      },
      "transferOwnership(address)": {
        "details": "Transfers ownership of the contract to a new account (`newOwner`). Can only be called by the current owner."
      }
    },
    "version": 1
  },
  "userdoc": {
    "kind": "user",
    "methods": {},
    "version": 1
  },
  "storageLayout": {
    "storage": [
      {
        "astId": 7,
        "contract": "contracts/magic-crv/RewardHarvester.sol:RewardHarvester",
        "label": "_owner",
        "offset": 0,
        "slot": "0",
        "type": "t_address"
      },
      {
        "astId": 9457,
        "contract": "contracts/magic-crv/RewardHarvester.sol:RewardHarvester",
        "label": "allowedHarvesters",
        "offset": 0,
        "slot": "1",
        "type": "t_mapping(t_address,t_bool)"
      }
    ],
    "types": {
      "t_address": {
        "encoding": "inplace",
        "label": "address",
        "numberOfBytes": "20"
      },
      "t_bool": {
        "encoding": "inplace",
        "label": "bool",
        "numberOfBytes": "1"
      },
      "t_mapping(t_address,t_bool)": {
        "encoding": "mapping",
        "key": "t_address",
        "label": "mapping(address => bool)",
        "numberOfBytes": "32",
        "value": "t_bool"
      }
    }
  }
}