{
  "address": "0x71c7267D4C5A4b54F6F995f66AD51F13dc688D6b",
  "abi": [
    {
      "inputs": [
        {
          "internalType": "contract ICurveVoter",
          "name": "_curveVoter",
          "type": "address"
        }
      ],
      "stateMutability": "nonpayable",
      "type": "constructor"
    },
    {
      "inputs": [],
      "name": "InsufficientOutput",
      "type": "error"
    },
    {
      "inputs": [],
      "name": "NotAllowed",
      "type": "error"
    },
    {
      "anonymous": false,
      "inputs": [
        {
          "indexed": true,
          "internalType": "address",
          "name": "previousOwner",
          "type": "address"
        },
        {
          "indexed": true,
          "internalType": "address",
          "name": "newOwner",
          "type": "address"
        }
      ],
      "name": "OwnershipTransferred",
      "type": "event"
    },
    {
      "inputs": [],
      "name": "CRV",
      "outputs": [
        {
          "internalType": "contract ERC20",
          "name": "",
          "type": "address"
        }
      ],
      "stateMutability": "view",
      "type": "function"
    },
    {
      "inputs": [],
      "name": "CRV3",
      "outputs": [
        {
          "internalType": "contract ERC20",
          "name": "",
          "type": "address"
        }
      ],
      "stateMutability": "view",
      "type": "function"
    },
    {
      "inputs": [],
      "name": "CRV3POOL",
      "outputs": [
        {
          "internalType": "contract CurveThreePool",
          "name": "",
          "type": "address"
        }
      ],
      "stateMutability": "view",
      "type": "function"
    },
    {
      "inputs": [],
      "name": "CRVETH",
      "outputs": [
        {
          "internalType": "contract CurvePool",
          "name": "",
          "type": "address"
        }
      ],
      "stateMutability": "view",
      "type": "function"
    },
    {
      "inputs": [],
      "name": "TRICRYPTO",
      "outputs": [
        {
          "internalType": "contract CurveThreeCryptoPool",
          "name": "",
          "type": "address"
        }
      ],
      "stateMutability": "view",
      "type": "function"
    },
    {
      "inputs": [],
      "name": "USDT",
      "outputs": [
        {
          "internalType": "contract Tether",
          "name": "",
          "type": "address"
        }
      ],
      "stateMutability": "view",
      "type": "function"
    },
    {
      "inputs": [],
      "name": "WETH",
      "outputs": [
        {
          "internalType": "contract ERC20",
          "name": "",
          "type": "address"
        }
      ],
      "stateMutability": "view",
      "type": "function"
    },
    {
      "inputs": [
        {
          "internalType": "address",
          "name": "",
          "type": "address"
        }
      ],
      "name": "allowedHarvesters",
      "outputs": [
        {
          "internalType": "bool",
          "name": "",
          "type": "bool"
        }
      ],
      "stateMutability": "view",
      "type": "function"
    },
    {
      "inputs": [],
      "name": "curveVoter",
      "outputs": [
        {
          "internalType": "contract ICurveVoter",
          "name": "",
          "type": "address"
        }
      ],
      "stateMutability": "view",
      "type": "function"
    },
    {
      "inputs": [
        {
          "internalType": "uint256",
          "name": "minAmountOut",
          "type": "uint256"
        }
      ],
      "name": "harvest",
      "outputs": [
        {
          "internalType": "uint256",
          "name": "amountOut",
          "type": "uint256"
        }
      ],
      "stateMutability": "nonpayable",
      "type": "function"
    },
    {
      "inputs": [
        {
          "internalType": "uint256",
          "name": "minAmountOut",
          "type": "uint256"
        }
      ],
      "name": "harvestAll",
      "outputs": [
        {
          "internalType": "uint256",
          "name": "amountOut",
          "type": "uint256"
        }
      ],
      "stateMutability": "nonpayable",
      "type": "function"
    },
    {
      "inputs": [],
      "name": "owner",
      "outputs": [
        {
          "internalType": "address",
          "name": "",
          "type": "address"
        }
      ],
      "stateMutability": "view",
      "type": "function"
    },
    {
      "inputs": [],
      "name": "renounceOwnership",
      "outputs": [],
      "stateMutability": "nonpayable",
      "type": "function"
    },
    {
      "inputs": [
        {
          "internalType": "address",
          "name": "account",
          "type": "address"
        },
        {
          "internalType": "bool",
          "name": "allowed",
          "type": "bool"
        }
      ],
      "name": "setAllowedHarvester",
      "outputs": [],
      "stateMutability": "nonpayable",
      "type": "function"
    },
    {
      "inputs": [
        {
          "internalType": "address",
          "name": "newOwner",
          "type": "address"
        }
      ],
      "name": "transferOwnership",
      "outputs": [],
      "stateMutability": "nonpayable",
      "type": "function"
    }
  ],
  "transactionHash": "0x6396b84be7d35c4f62fba5bec616b82c97fe23e86cbe3e39f0acb5df42b12c2f",
  "args": [
    "0x0b5E135FfBCd93F1323bdEF45c1bEa5887588dfD"
  ],
  "solcInputHash": "174f27f515ec229e3be578f164f7e64f",
  "bytecode": "0x60a060405234801561001057600080fd5b50604051610cdc380380610cdc83398101604081905261002f916101ad565b6100383361015d565b6001600160a01b03811660805260405163095ea7b360e01b815273d51a44d3fae010294c616388b506acda1bfaae466004820152600019602482015273dac17f958d2ee523a2206206994597c13d831ec79063095ea7b390604401600060405180830381600087803b1580156100ad57600080fd5b505af11580156100c1573d6000803e3d6000fd5b505060405163095ea7b360e01b8152738301ae4fc9c624d1d396cbdaa1ed877821d7c5116004820152600019602482015273c02aaa39b223fe8d0a0e5c4f27ead9083c756cc2925063095ea7b391506044016020604051808303816000875af1158015610132573d6000803e3d6000fd5b505050506040513d601f19601f8201168201806040525081019061015691906101dd565b50506101ff565b600080546001600160a01b038381166001600160a01b0319831681178455604051919092169283917f8be0079c531659141344cd1fd0a4f28419497f9722a3daafe3b4186f6b6457e09190a35050565b6000602082840312156101bf57600080fd5b81516001600160a01b03811681146101d657600080fd5b9392505050565b6000602082840312156101ef57600080fd5b815180151581146101d657600080fd5b608051610aa6610236600039600081816101b5015281816103980152818161048a0152818161086101526108f20152610aa66000f3fe608060405234801561001057600080fd5b50600436106100f55760003560e01c80638da5cb5b11610097578063c54e44eb11610066578063c54e44eb14610241578063d6595f3a1461025c578063ddc632621461027d578063f2fde38b1461029057600080fd5b80638da5cb5b146101df578063945c9142146101f0578063950c7d281461020b578063ad5c46481461022657600080fd5b806345c6c193116100d357806345c6c1931461017a578063510b78d01461019557806365d2ebbf146101b0578063715018a6146101d757600080fd5b806325069aca146100fa578063367fc2fc146101325780633958f9e914610165575b600080fd5b61011573d51a44d3fae010294c616388b506acda1bfaae4681565b6040516001600160a01b0390911681526020015b60405180910390f35b610155610140366004610985565b60016020526000908152604090205460ff1681565b6040519015158152602001610129565b6101786101733660046109b5565b6102a3565b005b610115738301ae4fc9c624d1d396cbdaa1ed877821d7c51181565b610115736c3f90f043a72fa612cbac8115ee7e52bde6e49081565b6101157f000000000000000000000000000000000000000000000000000000000000000081565b610178610301565b6000546001600160a01b0316610115565b61011573d533a949740bb3306d119cc777fa900ba034cd5281565b61011573bebc44782c7db0a1a60cb6fe97d0b483032ff1c781565b61011573c02aaa39b223fe8d0a0e5c4f27ead9083c756cc281565b61011573dac17f958d2ee523a2206206994597c13d831ec781565b61026f61026a3660046109ec565b610337565b604051908152602001610129565b61026f61028b3660046109ec565b610429565b61017861029e366004610985565b6104c1565b6000546001600160a01b031633146102d65760405162461bcd60e51b81526004016102cd90610a05565b60405180910390fd5b6001600160a01b03919091166000908152600160205260409020805460ff1916911515919091179055565b6000546001600160a01b0316331461032b5760405162461bcd60e51b81526004016102cd90610a05565b610335600061055c565b565b3360009081526001602052604081205460ff1615801561036257506000546001600160a01b03163314155b1561038057604051631eb49d6d60e11b815260040160405180910390fd5b6040516377329f3560e01b81523060048201526000907f00000000000000000000000000000000000000000000000000000000000000006001600160a01b0316906377329f35906024015b6020604051808303816000875af11580156103ea573d6000803e3d6000fd5b505050506040513d601f19601f8201168201806040525081019061040e9190610a3a565b905080156104235761042081846105ac565b91505b50919050565b3360009081526001602052604081205460ff1615801561045457506000546001600160a01b03163314155b1561047257604051631eb49d6d60e11b815260040160405180910390fd5b604051630f41a04d60e11b81523060048201526000907f00000000000000000000000000000000000000000000000000000000000000006001600160a01b031690631e83409a906024016103cb565b6000546001600160a01b031633146104eb5760405162461bcd60e51b81526004016102cd90610a05565b6001600160a01b0381166105505760405162461bcd60e51b815260206004820152602660248201527f4f776e61626c653a206e6577206f776e657220697320746865207a65726f206160448201526564647265737360d01b60648201526084016102cd565b6105598161055c565b50565b600080546001600160a01b038381166001600160a01b0319831681178455604051919092169283917f8be0079c531659141344cd1fd0a4f28419497f9722a3daafe3b4186f6b6457e09190a35050565b604051630d2680e960e11b815260048101839052600260248201526000604482018190529073bebc44782c7db0a1a60cb6fe97d0b483032ff1c790631a4d01d290606401600060405180830381600087803b15801561060a57600080fd5b505af115801561061e573d6000803e3d6000fd5b50506040516370a0823160e01b815230600482015273d51a44d3fae010294c616388b506acda1bfaae469250635b41b908915060009060029073dac17f958d2ee523a2206206994597c13d831ec7906370a0823190602401602060405180830381865afa158015610693573d6000803e3d6000fd5b505050506040513d601f19601f820116820180604052508101906106b79190610a3a565b6040516001600160e01b031960e086901b16815260048101939093526024830191909152604482015260006064820152608401600060405180830381600087803b15801561070457600080fd5b505af1158015610718573d6000803e3d6000fd5b50506040516370a0823160e01b8152306004820152738301ae4fc9c624d1d396cbdaa1ed877821d7c5119250635b41b908915060009060019073c02aaa39b223fe8d0a0e5c4f27ead9083c756cc2906370a0823190602401602060405180830381865afa15801561078d573d6000803e3d6000fd5b505050506040513d601f19601f820116820180604052508101906107b19190610a3a565b6040516001600160e01b031960e086901b168152600481019390935260248301919091526044820152600060648201526084016020604051808303816000875af1158015610803573d6000803e3d6000fd5b505050506040513d601f19601f820116820180604052508101906108279190610a3a565b90508181101561084a5760405163bb2875c360e01b815260040160405180910390fd5b60405163a9059cbb60e01b81526001600160a01b037f00000000000000000000000000000000000000000000000000000000000000001660048201526024810182905273d533a949740bb3306d119cc777fa900ba034cd529063a9059cbb906044016020604051808303816000875af11580156108cb573d6000803e3d6000fd5b505050506040513d601f19601f820116820180604052508101906108ef9190610a53565b507f00000000000000000000000000000000000000000000000000000000000000006001600160a01b031663f83d08ba6040518163ffffffff1660e01b8152600401600060405180830381600087803b15801561094b57600080fd5b505af115801561095f573d6000803e3d6000fd5b5050505092915050565b80356001600160a01b038116811461098057600080fd5b919050565b60006020828403121561099757600080fd5b6109a082610969565b9392505050565b801515811461055957600080fd5b600080604083850312156109c857600080fd5b6109d183610969565b915060208301356109e1816109a7565b809150509250929050565b6000602082840312156109fe57600080fd5b5035919050565b6020808252818101527f4f776e61626c653a2063616c6c6572206973206e6f7420746865206f776e6572604082015260600190565b600060208284031215610a4c57600080fd5b5051919050565b600060208284031215610a6557600080fd5b81516109a0816109a756fea26469706673582212204206e8cf6b32dcf64b923d42b91522d52e1634cce792a3aa7b6b2646357cdcfe64736f6c634300080a0033",
  "devdoc": {
    "kind": "dev",
    "methods": {
      "owner()": {
        "details": "Returns the address of the current owner."
      },
      "renounceOwnership()": {
        "details": "Leaves the contract without owner. It will not be possible to call `onlyOwner` functions anymore. Can only be called by the current owner. NOTE: Renouncing ownership will leave the contract without an owner, thereby removing any functionality that is only available to the owner."
      },
      "transferOwnership(address)": {
        "details": "Transfers ownership of the contract to a new account (`newOwner`). Can only be called by the current owner."
      }
    },
    "version": 1
  },
  "userdoc": {
    "kind": "user",
    "methods": {},
    "version": 1
  },
  "storageLayout": {
    "storage": [
      {
        "astId": 7,
        "contract": "contracts/magic-crv/RewardHarvester.sol:RewardHarvester",
        "label": "_owner",
        "offset": 0,
        "slot": "0",
        "type": "t_address"
      },
      {
        "astId": 7523,
        "contract": "contracts/magic-crv/RewardHarvester.sol:RewardHarvester",
        "label": "allowedHarvesters",
        "offset": 0,
        "slot": "1",
        "type": "t_mapping(t_address,t_bool)"
      }
    ],
    "types": {
      "t_address": {
        "encoding": "inplace",
        "label": "address",
        "numberOfBytes": "20"
      },
      "t_bool": {
        "encoding": "inplace",
        "label": "bool",
        "numberOfBytes": "1"
      },
      "t_mapping(t_address,t_bool)": {
        "encoding": "mapping",
        "key": "t_address",
        "label": "mapping(address => bool)",
        "numberOfBytes": "32",
        "value": "t_bool"
      }
    }
  }
}