{
  "address": "0x1085Fa0770a88a132E3b8aae21C84755d70081ce",
  "abi": [
    {
      "inputs": [],
      "stateMutability": "nonpayable",
      "type": "constructor"
    },
    {
      "inputs": [],
      "name": "MIM3POOL",
      "outputs": [
        {
          "internalType": "contract CurvePool",
          "name": "",
          "type": "address"
        }
      ],
      "stateMutability": "view",
      "type": "function"
    },
    {
      "inputs": [],
      "name": "TETHER",
      "outputs": [
        {
          "internalType": "contract TetherToken",
          "name": "",
          "type": "address"
        }
      ],
      "stateMutability": "view",
      "type": "function"
    },
    {
      "inputs": [
        {
          "internalType": "contract IERC20",
          "name": "fromToken",
          "type": "address"
        },
        {
          "internalType": "contract IERC20",
          "name": "toToken",
          "type": "address"
        },
        {
          "internalType": "address",
          "name": "recipient",
          "type": "address"
        },
        {
          "internalType": "uint256",
          "name": "shareToMin",
          "type": "uint256"
        },
        {
          "internalType": "uint256",
          "name": "shareFrom",
          "type": "uint256"
        }
      ],
      "name": "swap",
      "outputs": [
        {
          "internalType": "uint256",
          "name": "extraShare",
          "type": "uint256"
        },
        {
          "internalType": "uint256",
          "name": "shareReturned",
          "type": "uint256"
        }
      ],
      "stateMutability": "nonpayable",
      "type": "function"
    },
    {
      "inputs": [
        {
          "internalType": "contract IERC20",
          "name": "fromToken",
          "type": "address"
        },
        {
          "internalType": "contract IERC20",
          "name": "toToken",
          "type": "address"
        },
        {
          "internalType": "address",
          "name": "recipient",
          "type": "address"
        },
        {
          "internalType": "address",
          "name": "refundTo",
          "type": "address"
        },
        {
          "internalType": "uint256",
          "name": "shareFromSupplied",
          "type": "uint256"
        },
        {
          "internalType": "uint256",
          "name": "shareToExact",
          "type": "uint256"
        }
      ],
      "name": "swapExact",
      "outputs": [
        {
          "internalType": "uint256",
          "name": "shareUsed",
          "type": "uint256"
        },
        {
          "internalType": "uint256",
          "name": "shareReturned",
          "type": "uint256"
        }
      ],
      "stateMutability": "nonpayable",
      "type": "function"
    },
    {
      "inputs": [
        {
          "internalType": "int256",
          "name": "amount0Delta",
          "type": "int256"
        },
        {
          "internalType": "int256",
          "name": "amount1Delta",
          "type": "int256"
        },
        {
          "internalType": "bytes",
          "name": "data",
          "type": "bytes"
        }
      ],
      "name": "uniswapV3SwapCallback",
      "outputs": [],
      "stateMutability": "nonpayable",
      "type": "function"
    }
  ],
  "transactionHash": "0x35091c17df66dc8623b78cb83b2f163f5223b4c876c0cc719d29d59a3393f8bb",
  "args": [],
  "solcInputHash": "67ba1d6dfaee4a7011ae1ae24e9fedfa",
  "bytecode": "0x608060405234801561001057600080fd5b506040805163095ea7b360e01b8152735a6a4d54456819380173272a5e8e9b9904bdf41b60048201526000196024820152905173dac17f958d2ee523a2206206994597c13d831ec79163095ea7b391604480830192600092919082900301818387803b15801561007f57600080fd5b505af1158015610093573d6000803e3d6000fd5b50505050610aae806100a66000396000f3fe608060405234801561001057600080fd5b50600436106100575760003560e01c806322a88c091461005c5780634622be901461008057806378e7e3d1146100e5578063e343fe12146100ed578063fa461e331461012f575b600080fd5b6100646101ad565b604080516001600160a01b039092168252519081900360200190f35b6100cc600480360360c081101561009657600080fd5b506001600160a01b0381358116916020810135821691604082013581169160608101359091169060808101359060a001356101c5565b6040805192835260208301919091528051918290030190f35b6100646101d3565b6100cc600480360360a081101561010357600080fd5b506001600160a01b038135811691602081013582169160408201351690606081013590608001356101eb565b6101ab6004803603606081101561014557600080fd5b81359160208101359181019060608101604082013564010000000081111561016c57600080fd5b82018360208201111561017e57600080fd5b803590602001918460018302840111640100000000831117156101a057600080fd5b509092509050610747565b005b735a6a4d54456819380173272a5e8e9b9904bdf41b81565b600080965096945050505050565b73dac17f958d2ee523a2206206994597c13d831ec781565b6040805163097da6d360e41b81526001600160a01b038716600482015230602482018190526044820152600060648201819052608482018490528251909283928392839273f5bce5077908a1b7370b9ae04adc565ebd643966926397da6d309260a4808301939282900301818787803b15801561026757600080fd5b505af115801561027b573d6000803e3d6000fd5b505050506040513d604081101561029157600080fd5b505190506001600080732f62f2b4c5fcd7570a709dec05d68ea19c82a9ec63128acb087306da0fd433c1a5d7a4faa01111c044910a184553856102d388610797565b876102f25773fffd8963efd1fc6a506488495d951d5263988d256102f9565b6401000276a45b89604051602001808281526020019150506040516020818303038152906040526040518663ffffffff1660e01b815260040180866001600160a01b031681526020018515158152602001848152602001836001600160a01b0316815260200180602001828103825283818151815260200191508051906020019080838360005b83811015610391578181015183820152602001610379565b50505050905090810190601f1680156103be5780820380516001836020036101000a031916815260200191505b5096505050505050506040805180830381600087803b1580156103e057600080fd5b505af11580156103f4573d6000803e3d6000fd5b505050506040513d604081101561040a57600080fd5b5080516020909101519092509050826104235781610425565b805b6000039450505050506000807306da0fd433c1a5d7a4faa01111c044910a1845536001600160a01b0316630902f1ac6040518163ffffffff1660e01b815260040160606040518083038186803b15801561047e57600080fd5b505afa158015610492573d6000803e3d6000fd5b505050506040513d60608110156104a857600080fd5b5080516020909101516dffffffffffffffffffffffffffff918216935016905060006104d58484846107ad565b604080516000808252602082019283905263022c0d9f60e01b835260248201818152604483018590523060648401819052608060848501908152845160a486018190529697507306da0fd433c1a5d7a4faa01111c044910a1845539663022c0d9f96949589959394909390929160c4850191908083838b5b8381101561056557818101518382015260200161054d565b50505050905090810190601f1680156105925780820380516001836020036101000a031916815260200191505b5095505050505050600060405180830381600087803b1580156105b457600080fd5b505af11580156105c8573d6000803e3d6000fd5b5050604080516322770cc360e11b815260036004820152600060248201819052604482018690526064820181905273f5bce5077908a1b7370b9ae04adc565ebd64396660848301529151919350735a6a4d54456819380173272a5e8e9b9904bdf41b92506344ee19869160a480830192602092919082900301818787803b15801561065257600080fd5b505af1158015610666573d6000803e3d6000fd5b505050506040513d602081101561067c57600080fd5b50516040805162ae511b60e21b81526001600160a01b038e8116600483015273f5bce5077908a1b7370b9ae04adc565ebd64396660248301819052908e16604483015260648201849052600060848301819052835194955090936302b9446c9360a4808501949193918390030190829087803b1580156106fb57600080fd5b505af115801561070f573d6000803e3d6000fd5b505050506040513d604081101561072557600080fd5b50602001519550610736868a6107fb565b965050505050509550959350505050565b60008282602081101561075957600080fd5b503590506107907395ad61b0a150d79219dcf64e1e6cc01f0b64c4ce732f62f2b4c5fcd7570a709dec05d68ea19c82a9ec83610851565b5050505050565b6000600160ff1b82106107a957600080fd5b5090565b6000806107bc856103e56109b4565b905060006107ca82856109b4565b905060006107e4836107de886103e86109b4565b90610a20565b90508082816107ef57fe5b04979650505050505050565b8082038281111561084b576040805162461bcd60e51b8152602060048201526015602482015274426f72696e674d6174683a20556e646572666c6f7760581b604482015290519081900360640190fd5b92915050565b604080516001600160a01b038481166024830152604480830185905283518084039091018152606490920183526020820180516001600160e01b031663a9059cbb60e01b178152925182516000946060949389169392918291908083835b602083106108ce5780518252601f1990920191602091820191016108af565b6001836020036101000a0380198251168184511680821785525050505050509050019150506000604051808303816000865af19150503d8060008114610930576040519150601f19603f3d011682016040523d82523d6000602084013e610935565b606091505b5091509150818015610963575080511580610963575080806020019051602081101561096057600080fd5b50515b610790576040805162461bcd60e51b815260206004820152601c60248201527f426f72696e6745524332303a205472616e73666572206661696c656400000000604482015290519081900360640190fd5b60008115806109cf575050808202828282816109cc57fe5b04145b61084b576040805162461bcd60e51b815260206004820152601860248201527f426f72696e674d6174683a204d756c204f766572666c6f770000000000000000604482015290519081900360640190fd5b8181018181101561084b576040805162461bcd60e51b815260206004820152601860248201527f426f72696e674d6174683a20416464204f766572666c6f770000000000000000604482015290519081900360640190fdfea26469706673582212205802665c7369531b6e1df3e342b201ab584b7781075f58ac0f612ecdcdcf727964736f6c634300060c0033",
  "devdoc": {
    "kind": "dev",
    "methods": {
      "uniswapV3SwapCallback(int256,int256,bytes)": {
        "details": "In the implementation you must pay the pool tokens owed for the swap. The caller of this method must be checked to be a UniswapV3Pool deployed by the canonical UniswapV3Factory. amount0Delta and amount1Delta can both be 0 if no tokens were swapped.",
        "params": {
          "amount0Delta": "The amount of token0 that was sent (negative) or must be received (positive) by the pool by the end of the swap. If positive, the callback must send that amount of token0 to the pool.",
          "amount1Delta": "The amount of token1 that was sent (negative) or must be received (positive) by the pool by the end of the swap. If positive, the callback must send that amount of token1 to the pool.",
          "data": "Any data passed through by the caller via the IUniswapV3PoolActions#swap call"
        }
      }
    },
    "version": 1
  },
  "userdoc": {
    "kind": "user",
    "methods": {
      "swap(address,address,address,uint256,uint256)": {
        "notice": "Withdraws 'amountFrom' of token 'from' from the BentoBox account for this swapper. Swaps it for at least 'amountToMin' of token 'to'. Transfers the swapped tokens of 'to' into the BentoBox using a plain ERC20 transfer. Returns the amount of tokens 'to' transferred to BentoBox. (The BentoBox skim function will be used by the caller to get the swapped funds)."
      },
      "swapExact(address,address,address,address,uint256,uint256)": {
        "notice": "Calculates the amount of token 'from' needed to complete the swap (amountFrom), this should be less than or equal to amountFromMax. Withdraws 'amountFrom' of token 'from' from the BentoBox account for this swapper. Swaps it for exactly 'exactAmountTo' of token 'to'. Transfers the swapped tokens of 'to' into the BentoBox using a plain ERC20 transfer. Transfers allocated, but unused 'from' tokens within the BentoBox to 'refundTo' (amountFromMax - amountFrom). Returns the amount of 'from' tokens withdrawn from BentoBox (amountFrom). (The BentoBox skim function will be used by the caller to get the swapped funds)."
      },
      "uniswapV3SwapCallback(int256,int256,bytes)": {
        "notice": "Called to `msg.sender` after executing a swap via IUniswapV3Pool#swap."
      }
    },
    "version": 1
  },
  "storageLayout": {
    "storage": [],
    "types": null
  }
}