{
  "address": "0x38a67c0F839e5F8939B12f9181A1924E4e4375eD",
  "abi": [
    {
      "inputs": [
        {
          "internalType": "address",
          "name": "",
          "type": "address"
        },
        {
          "internalType": "address",
          "name": "",
          "type": "address"
        }
      ],
      "name": "allowance",
      "outputs": [
        {
          "internalType": "uint256",
          "name": "",
          "type": "uint256"
        }
      ],
      "stateMutability": "pure",
      "type": "function"
    },
    {
      "inputs": [
        {
          "internalType": "address",
          "name": "",
          "type": "address"
        },
        {
          "internalType": "uint256",
          "name": "",
          "type": "uint256"
        }
      ],
      "name": "approve",
      "outputs": [
        {
          "internalType": "bool",
          "name": "",
          "type": "bool"
        }
      ],
      "stateMutability": "pure",
      "type": "function"
    },
    {
      "inputs": [
        {
          "internalType": "address",
          "name": "account",
          "type": "address"
        }
      ],
      "name": "balanceOf",
      "outputs": [
        {
          "internalType": "uint256",
          "name": "powah",
          "type": "uint256"
        }
      ],
      "stateMutability": "view",
      "type": "function"
    },
    {
      "inputs": [],
      "name": "bento",
      "outputs": [
        {
          "internalType": "contract IBentoBoxV1BalanceAmount",
          "name": "",
          "type": "address"
        }
      ],
      "stateMutability": "view",
      "type": "function"
    },
    {
      "inputs": [],
      "name": "decimals",
      "outputs": [
        {
          "internalType": "uint8",
          "name": "",
          "type": "uint8"
        }
      ],
      "stateMutability": "pure",
      "type": "function"
    },
    {
      "inputs": [],
      "name": "name",
      "outputs": [
        {
          "internalType": "string",
          "name": "",
          "type": "string"
        }
      ],
      "stateMutability": "pure",
      "type": "function"
    },
    {
      "inputs": [],
      "name": "pair",
      "outputs": [
        {
          "internalType": "contract IERC20",
          "name": "",
          "type": "address"
        }
      ],
      "stateMutability": "view",
      "type": "function"
    },
    {
      "inputs": [],
      "name": "sorbettiere",
      "outputs": [
        {
          "internalType": "contract ISorbettiere",
          "name": "",
          "type": "address"
        }
      ],
      "stateMutability": "view",
      "type": "function"
    },
    {
      "inputs": [],
      "name": "spell",
      "outputs": [
        {
          "internalType": "contract IERC20",
          "name": "",
          "type": "address"
        }
      ],
      "stateMutability": "view",
      "type": "function"
    },
    {
      "inputs": [],
      "name": "sspell",
      "outputs": [
        {
          "internalType": "contract IERC20",
          "name": "",
          "type": "address"
        }
      ],
      "stateMutability": "view",
      "type": "function"
    },
    {
      "inputs": [],
      "name": "sspellCauldron",
      "outputs": [
        {
          "internalType": "contract ICauldron",
          "name": "",
          "type": "address"
        }
      ],
      "stateMutability": "view",
      "type": "function"
    },
    {
      "inputs": [],
      "name": "symbol",
      "outputs": [
        {
          "internalType": "string",
          "name": "",
          "type": "string"
        }
      ],
      "stateMutability": "pure",
      "type": "function"
    },
    {
      "inputs": [],
      "name": "totalSupply",
      "outputs": [
        {
          "internalType": "uint256",
          "name": "total",
          "type": "uint256"
        }
      ],
      "stateMutability": "view",
      "type": "function"
    },
    {
      "inputs": [
        {
          "internalType": "address",
          "name": "",
          "type": "address"
        },
        {
          "internalType": "uint256",
          "name": "",
          "type": "uint256"
        }
      ],
      "name": "transfer",
      "outputs": [
        {
          "internalType": "bool",
          "name": "",
          "type": "bool"
        }
      ],
      "stateMutability": "pure",
      "type": "function"
    },
    {
      "inputs": [
        {
          "internalType": "address",
          "name": "",
          "type": "address"
        },
        {
          "internalType": "address",
          "name": "",
          "type": "address"
        },
        {
          "internalType": "uint256",
          "name": "",
          "type": "uint256"
        }
      ],
      "name": "transferFrom",
      "outputs": [
        {
          "internalType": "bool",
          "name": "",
          "type": "bool"
        }
      ],
      "stateMutability": "pure",
      "type": "function"
    }
  ],
  "transactionHash": "0x70f12d1d7ee0906fe71123704f61d99a2c2ce53812ec6927a7756d44142c1cf6",
  "args": [],
  "solcInputHash": "afa1c1dc57e077aa3e197d5cbe366d39",
  "bytecode": "0x608060405234801561001057600080fd5b50610e69806100206000396000f3fe608060405234801561001057600080fd5b50600436106100f55760003560e01c80634da3182711610097578063a8aa1b3111610066578063a8aa1b3114610248578063a9059cbb14610142578063dd62ed3e14610263578063ea762b791461027157600080fd5b80634da31827146101ff57806362aa5c7e1461021a57806370a082311461023557806395d89b41146100fa57600080fd5b806318160ddd116100d357806318160ddd146101a857806319d30b0d146101be57806323b872dd146101d9578063313ce567146101f057600080fd5b806306fdde03146100fa578063095ea7b3146101425780631134c4a514610168575b600080fd5b604080518082018252600a81527f5350454c4c504f57455200000000000000000000000000000000000000000000602082015290516101399190610d01565b60405180910390f35b610158610150366004610c3b565b600092915050565b6040519015158152602001610139565b61018373c319eea1e792577c319723b5e60a15da3857e7da81565b60405173ffffffffffffffffffffffffffffffffffffffff9091168152602001610139565b6101b061028c565b604051908152602001610139565b6101837326fa3fffb6efe8c1e69103acb4044c26b9a106a981565b6101586101e7366004610bff565b60009392505050565b60405160128152602001610139565b61018373f5bce5077908a1b7370b9ae04adc565ebd64396681565b61018373f43480afe9863da4acbd4419a47d9cc7d25a647f81565b6101b0610243366004610baa565b610407565b61018373b5de0c3753b6e1b4dba616db82767f17513e6d4e81565b6101b0610150366004610bcc565b61018373090185f2135308bad17527004364ebcc2d37e5f681565b6040517f70a0823100000000000000000000000000000000000000000000000000000000815273b5de0c3753b6e1b4dba616db82767f17513e6d4e600482015260009073090185f2135308bad17527004364ebcc2d37e5f6906370a082319060240160206040518083038186803b15801561030657600080fd5b505afa15801561031a573d6000803e3d6000fd5b505050506040513d601f19601f8201168201806040525081019061033e9190610ce8565b610349906002610dc7565b6040517f70a082310000000000000000000000000000000000000000000000000000000081527326fa3fffb6efe8c1e69103acb4044c26b9a106a9600482015273090185f2135308bad17527004364ebcc2d37e5f6906370a082319060240160206040518083038186803b1580156103c057600080fd5b505afa1580156103d4573d6000803e3d6000fd5b505050506040513d601f19601f820116820180604052508101906103f89190610ce8565b6104029190610d74565b905090565b6040517f1c9e379b00000000000000000000000000000000000000000000000000000000815273ffffffffffffffffffffffffffffffffffffffff82166004820152600090819073f5bce5077908a1b7370b9ae04adc565ebd643966906356623118907326fa3fffb6efe8c1e69103acb4044c26b9a106a99073c319eea1e792577c319723b5e60a15da3857e7da90631c9e379b9060240160206040518083038186803b1580156104b757600080fd5b505afa1580156104cb573d6000803e3d6000fd5b505050506040513d601f19601f820116820180604052508101906104ef9190610ce8565b6040517ff7888aec0000000000000000000000000000000000000000000000000000000081527326fa3fffb6efe8c1e69103acb4044c26b9a106a9600482015273ffffffffffffffffffffffffffffffffffffffff8816602482015273f5bce5077908a1b7370b9ae04adc565ebd6439669063f7888aec9060440160206040518083038186803b15801561058257600080fd5b505afa158015610596573d6000803e3d6000fd5b505050506040513d601f19601f820116820180604052508101906105ba9190610ce8565b6105c49190610d74565b6040517fffffffff0000000000000000000000000000000000000000000000000000000060e085901b16815273ffffffffffffffffffffffffffffffffffffffff909216600483015260248201526000604482015260640160206040518083038186803b15801561063457600080fd5b505afa158015610648573d6000803e3d6000fd5b505050506040513d601f19601f8201168201806040525081019061066c9190610ce8565b6040517f70a0823100000000000000000000000000000000000000000000000000000000815273ffffffffffffffffffffffffffffffffffffffff851660048201529091506000907326fa3fffb6efe8c1e69103acb4044c26b9a106a9906370a082319060240160206040518083038186803b1580156106eb57600080fd5b505afa1580156106ff573d6000803e3d6000fd5b505050506040513d601f19601f820116820180604052508101906107239190610ce8565b61072d9083610d74565b905060007326fa3fffb6efe8c1e69103acb4044c26b9a106a973ffffffffffffffffffffffffffffffffffffffff166318160ddd6040518163ffffffff1660e01b815260040160206040518083038186803b15801561078b57600080fd5b505afa15801561079f573d6000803e3d6000fd5b505050506040513d601f19601f820116820180604052508101906107c39190610ce8565b6040517f70a082310000000000000000000000000000000000000000000000000000000081527326fa3fffb6efe8c1e69103acb4044c26b9a106a9600482015273090185f2135308bad17527004364ebcc2d37e5f6906370a082319060240160206040518083038186803b15801561083a57600080fd5b505afa15801561084e573d6000803e3d6000fd5b505050506040513d601f19601f820116820180604052508101906108729190610ce8565b61087c9084610dc7565b6108869190610d8c565b6040517f93f1a40b00000000000000000000000000000000000000000000000000000000815260006004820181905273ffffffffffffffffffffffffffffffffffffffff8816602483015291925073f43480afe9863da4acbd4419a47d9cc7d25a647f906393f1a40b9060440160606040518083038186803b15801561090b57600080fd5b505afa15801561091f573d6000803e3d6000fd5b505050506040513d601f19601f820116820180604052508101906109439190610c65565b516040517f70a0823100000000000000000000000000000000000000000000000000000000815273ffffffffffffffffffffffffffffffffffffffff8816600482015290915060009073b5de0c3753b6e1b4dba616db82767f17513e6d4e906370a082319060240160206040518083038186803b1580156109c357600080fd5b505afa1580156109d7573d6000803e3d6000fd5b505050506040513d601f19601f820116820180604052508101906109fb9190610ce8565b610a059083610d74565b9050600073b5de0c3753b6e1b4dba616db82767f17513e6d4e73ffffffffffffffffffffffffffffffffffffffff166318160ddd6040518163ffffffff1660e01b815260040160206040518083038186803b158015610a6357600080fd5b505afa158015610a77573d6000803e3d6000fd5b505050506040513d601f19601f82011682018060405250810190610a9b9190610ce8565b6040517f70a0823100000000000000000000000000000000000000000000000000000000815273b5de0c3753b6e1b4dba616db82767f17513e6d4e600482015273090185f2135308bad17527004364ebcc2d37e5f6906370a082319060240160206040518083038186803b158015610b1257600080fd5b505afa158015610b26573d6000803e3d6000fd5b505050506040513d601f19601f82011682018060405250810190610b4a9190610ce8565b610b549084610dc7565b610b5e9190610d8c565b610b69906002610dc7565b9050610b758185610d74565b98975050505050505050565b803573ffffffffffffffffffffffffffffffffffffffff81168114610ba557600080fd5b919050565b600060208284031215610bbc57600080fd5b610bc582610b81565b9392505050565b60008060408385031215610bdf57600080fd5b610be883610b81565b9150610bf660208401610b81565b90509250929050565b600080600060608486031215610c1457600080fd5b610c1d84610b81565b9250610c2b60208501610b81565b9150604084013590509250925092565b60008060408385031215610c4e57600080fd5b610c5783610b81565b946020939093013593505050565b600060608284031215610c7757600080fd5b6040516060810181811067ffffffffffffffff82111715610cc1577f4e487b7100000000000000000000000000000000000000000000000000000000600052604160045260246000fd5b80604052508251815260208301516020820152604083015160408201528091505092915050565b600060208284031215610cfa57600080fd5b5051919050565b600060208083528351808285015260005b81811015610d2e57858101830151858201604001528201610d12565b81811115610d40576000604083870101525b50601f017fffffffffffffffffffffffffffffffffffffffffffffffffffffffffffffffe016929092016040019392505050565b60008219821115610d8757610d87610e04565b500190565b600082610dc2577f4e487b7100000000000000000000000000000000000000000000000000000000600052601260045260246000fd5b500490565b6000817fffffffffffffffffffffffffffffffffffffffffffffffffffffffffffffffff0483118215151615610dff57610dff610e04565b500290565b7f4e487b7100000000000000000000000000000000000000000000000000000000600052601160045260246000fdfea264697066735822122087078cf72ec83bb6175095eb199e03542acb7d54fbf98fe04391694ed06dc14664736f6c63430008060033"
}