{
  "address": "0x663Ef4455A07243D9029bA0fC48297AE181aeb38",
  "abi": [
    {
      "inputs": [],
      "stateMutability": "nonpayable",
      "type": "constructor"
    },
    {
      "anonymous": false,
      "inputs": [
        {
          "indexed": true,
          "internalType": "address",
          "name": "previousOwner",
          "type": "address"
        },
        {
          "indexed": true,
          "internalType": "address",
          "name": "newOwner",
          "type": "address"
        }
      ],
      "name": "OwnershipTransferred",
      "type": "event"
    },
    {
      "inputs": [],
      "name": "MIM",
      "outputs": [
        {
          "internalType": "contract IERC20",
          "name": "",
          "type": "address"
        }
      ],
      "stateMutability": "view",
      "type": "function"
    },
    {
      "inputs": [],
      "name": "MIM3POOL",
      "outputs": [
        {
          "internalType": "contract CurvePool",
          "name": "",
          "type": "address"
        }
      ],
      "stateMutability": "view",
      "type": "function"
    },
    {
      "inputs": [],
      "name": "SPELL",
      "outputs": [
        {
          "internalType": "contract IERC20",
          "name": "",
          "type": "address"
        }
      ],
      "stateMutability": "view",
      "type": "function"
    },
    {
      "inputs": [],
      "name": "TETHER",
      "outputs": [
        {
          "internalType": "contract TetherToken",
          "name": "",
          "type": "address"
        }
      ],
      "stateMutability": "view",
      "type": "function"
    },
    {
      "inputs": [],
      "name": "bentoBox",
      "outputs": [
        {
          "internalType": "contract IBentoBoxV1",
          "name": "",
          "type": "address"
        }
      ],
      "stateMutability": "view",
      "type": "function"
    },
    {
      "inputs": [],
      "name": "claimOwnership",
      "outputs": [],
      "stateMutability": "nonpayable",
      "type": "function"
    },
    {
      "inputs": [],
      "name": "owner",
      "outputs": [
        {
          "internalType": "address",
          "name": "",
          "type": "address"
        }
      ],
      "stateMutability": "view",
      "type": "function"
    },
    {
      "inputs": [],
      "name": "pendingOwner",
      "outputs": [
        {
          "internalType": "address",
          "name": "",
          "type": "address"
        }
      ],
      "stateMutability": "view",
      "type": "function"
    },
    {
      "inputs": [],
      "name": "sSPELL",
      "outputs": [
        {
          "internalType": "address",
          "name": "",
          "type": "address"
        }
      ],
      "stateMutability": "view",
      "type": "function"
    },
    {
      "inputs": [
        {
          "internalType": "address",
          "name": "operator",
          "type": "address"
        },
        {
          "internalType": "bool",
          "name": "status",
          "type": "bool"
        }
      ],
      "name": "setVerified",
      "outputs": [],
      "stateMutability": "nonpayable",
      "type": "function"
    },
    {
      "inputs": [
        {
          "internalType": "uint256",
          "name": "amountToMin",
          "type": "uint256"
        }
      ],
      "name": "swap",
      "outputs": [],
      "stateMutability": "nonpayable",
      "type": "function"
    },
    {
      "inputs": [
        {
          "internalType": "address",
          "name": "newOwner",
          "type": "address"
        },
        {
          "internalType": "bool",
          "name": "direct",
          "type": "bool"
        },
        {
          "internalType": "bool",
          "name": "renounce",
          "type": "bool"
        }
      ],
      "name": "transferOwnership",
      "outputs": [],
      "stateMutability": "nonpayable",
      "type": "function"
    },
    {
      "inputs": [],
      "name": "treasury",
      "outputs": [
        {
          "internalType": "address",
          "name": "",
          "type": "address"
        }
      ],
      "stateMutability": "view",
      "type": "function"
    },
    {
      "inputs": [
        {
          "internalType": "address",
          "name": "",
          "type": "address"
        }
      ],
      "name": "verified",
      "outputs": [
        {
          "internalType": "bool",
          "name": "",
          "type": "bool"
        }
      ],
      "stateMutability": "view",
      "type": "function"
    }
  ],
  "transactionHash": "0xf1c842e42da556f8f0f86bafa7ea58de851a222a8cac945b04b076bc2850815b",
  "args": [],
  "solcInputHash": "2d46f1f9e952a0b8d3b9ba6e4bc749a9",
  "bytecode": "0x608060405234801561001057600080fd5b50600080546001600160a01b0319163390811782556040519091907f8be0079c531659141344cd1fd0a4f28419497f9722a3daafe3b4186f6b6457e0908290a36040805163095ea7b360e01b8152735a6a4d54456819380173272a5e8e9b9904bdf41b6004820152600019602482015290517399d8a9c45b2eca8864373a26d1459e3dff1e17f39163095ea7b39160448083019260209291908290030181600087803b1580156100bf57600080fd5b505af11580156100d3573d6000803e3d6000fd5b505050506040513d60208110156100e957600080fd5b5050336000908152600260205260409020805460ff19166001179055610e38806101146000396000f3fe608060405234801561001057600080fd5b50600436106100ea5760003560e01c806378e7e3d11161008c5780639cf5c613116100665780639cf5c613146101d2578063daec383d14610200578063e30c397814610208578063fabf360114610210576100ea565b806378e7e3d1146101a55780638da5cb5b146101ad57806394b918de146101b5576100ea565b80634e71e0c8116100c85780634e71e0c81461018557806361d027b31461018d5780636b2ace8714610195578063766367221461019d576100ea565b8063078dfbe7146100ef5780630db065f41461012757806322a88c0914610161575b600080fd5b6101256004803603606081101561010557600080fd5b506001600160a01b03813516906020810135151590604001351515610218565b005b61014d6004803603602081101561013d57600080fd5b50356001600160a01b0316610360565b604080519115158252519081900360200190f35b610169610375565b604080516001600160a01b039092168252519081900360200190f35b61012561038d565b61016961044f565b610169610467565b61016961047f565b610169610497565b6101696104af565b610125600480360360208110156101cb57600080fd5b50356104be565b610125600480360360408110156101e857600080fd5b506001600160a01b0381351690602001351515610bd1565b610169610c5b565b610169610c73565b610169610c82565b6000546001600160a01b03163314610277576040805162461bcd60e51b815260206004820181905260248201527f4f776e61626c653a2063616c6c6572206973206e6f7420746865206f776e6572604482015290519081900360640190fd5b811561033f576001600160a01b0383161515806102915750805b6102da576040805162461bcd60e51b81526020600482015260156024820152744f776e61626c653a207a65726f206164647265737360581b604482015290519081900360640190fd5b600080546040516001600160a01b03808716939216917f8be0079c531659141344cd1fd0a4f28419497f9722a3daafe3b4186f6b6457e091a3600080546001600160a01b0385166001600160a01b03199182161790915560018054909116905561035b565b600180546001600160a01b0319166001600160a01b0385161790555b505050565b60026020526000908152604090205460ff1681565b735a6a4d54456819380173272a5e8e9b9904bdf41b81565b6001546001600160a01b03163381146103ed576040805162461bcd60e51b815260206004820181905260248201527f4f776e61626c653a2063616c6c657220213d2070656e64696e67206f776e6572604482015290519081900360640190fd5b600080546040516001600160a01b03808516939216917f8be0079c531659141344cd1fd0a4f28419497f9722a3daafe3b4186f6b6457e091a3600080546001600160a01b039092166001600160a01b0319928316179055600180549091169055565b735a7c5505f3cfb9a0d9a8493ec41bf27ee48c406d81565b73f5bce5077908a1b7370b9ae04adc565ebd64396681565b73090185f2135308bad17527004364ebcc2d37e5f681565b73dac17f958d2ee523a2206206994597c13d831ec781565b6000546001600160a01b031681565b3360009081526002602052604090205460ff16610522576040805162461bcd60e51b815260206004820152601760248201527f4f6e6c79207665726966696564206f70657261746f7273000000000000000000604482015290519081900360640190fd5b60408051633de222bb60e21b81527399d8a9c45b2eca8864373a26d1459e3dff1e17f3600482015230602482015290516000918291829173f5bce5077908a1b7370b9ae04adc565ebd6439669163f7888aec91604480820192602092909190829003018186803b15801561059557600080fd5b505afa1580156105a9573d6000803e3d6000fd5b505050506040513d60208110156105bf57600080fd5b5051905060006004826040805163097da6d360e41b81527399d8a9c45b2eca8864373a26d1459e3dff1e17f36004820152306024820152735a7c5505f3cfb9a0d9a8493ec41bf27ee48c406d60448201526000606482018190529390920460848301819052815190945073f5bce5077908a1b7370b9ae04adc565ebd643966936397da6d309360a4808201949392918390030190829087803b15801561066457600080fd5b505af1158015610678573d6000803e3d6000fd5b505050506040513d604081101561068e57600080fd5b506000905073f5bce5077908a1b7370b9ae04adc565ebd6439666397da6d307399d8a9c45b2eca8864373a26d1459e3dff1e17f33080856106cf8989610c9a565b6040518663ffffffff1660e01b815260040180866001600160a01b03168152602001856001600160a01b03168152602001846001600160a01b03168152602001838152602001828152602001955050505050506040805180830381600087803b15801561073b57600080fd5b505af115801561074f573d6000803e3d6000fd5b505050506040513d604081101561076557600080fd5b5051604080516322770cc360e11b81526000600482018190526003602483015260448201849052606482018190527306da0fd433c1a5d7a4faa01111c044910a18455360848301529151929350735a6a4d54456819380173272a5e8e9b9904bdf41b926344ee19869260a480840193602093929083900390910190829087803b1580156107f157600080fd5b505af1158015610805573d6000803e3d6000fd5b505050506040513d602081101561081b57600080fd5b505160408051630240bc6b60e21b8152905191965060009182917306da0fd433c1a5d7a4faa01111c044910a18455391630902f1ac91600480820192606092909190829003018186803b15801561087157600080fd5b505afa158015610885573d6000803e3d6000fd5b505050506040513d606081101561089b57600080fd5b5080516020909101516001600160701b0391821693501690506108bf878284610cf0565b604080516000808252602082019283905263022c0d9f60e01b8352602482018481526044830182905273b5de0c3753b6e1b4dba616db82767f17513e6d4e60648401819052608060848501908152845160a48601819052969c50929a507306da0fd433c1a5d7a4faa01111c044910a184553995063022c0d9f98508b97508a9650949293909260c4850191908083838a5b83811015610968578181015183820152602001610950565b50505050905090810190601f1680156109955780820380516001836020036101000a031916815260200191505b5095505050505050600060405180830381600087803b1580156109b757600080fd5b505af11580156109cb573d6000803e3d6000fd5b5050505060008073b5de0c3753b6e1b4dba616db82767f17513e6d4e6001600160a01b0316630902f1ac6040518163ffffffff1660e01b815260040160606040518083038186803b158015610a1f57600080fd5b505afa158015610a33573d6000803e3d6000fd5b505050506040513d6060811015610a4957600080fd5b5080516020909101516001600160701b039182169350169050610a6d848284610cf0565b925085831015610ac4576040805162461bcd60e51b815260206004820152601760248201527f4d696e696d756d206d7573742062652072656163686564000000000000000000604482015290519081900360640190fd5b5050604080516000808252602082019283905263022c0d9f60e01b835260248201848152604483018290527326fa3fffb6efe8c1e69103acb4044c26b9a106a960648401819052608060848501908152845160a4860181905273b5de0c3753b6e1b4dba616db82767f17513e6d4e9663022c0d9f9689969590939092909160c48501918083838a5b83811015610b64578181015183820152602001610b4c565b50505050905090810190601f168015610b915780820380516001836020036101000a031916815260200191505b5095505050505050600060405180830381600087803b158015610bb357600080fd5b505af1158015610bc7573d6000803e3d6000fd5b5050505050505050565b6000546001600160a01b03163314610c30576040805162461bcd60e51b815260206004820181905260248201527f4f776e61626c653a2063616c6c6572206973206e6f7420746865206f776e6572604482015290519081900360640190fd5b6001600160a01b03919091166000908152600260205260409020805460ff1916911515919091179055565b7399d8a9c45b2eca8864373a26d1459e3dff1e17f381565b6001546001600160a01b031681565b7326fa3fffb6efe8c1e69103acb4044c26b9a106a981565b80820382811115610cea576040805162461bcd60e51b8152602060048201526015602482015274426f72696e674d6174683a20556e646572666c6f7760581b604482015290519081900360640190fd5b92915050565b600080610cff856103e5610d3e565b90506000610d0d8285610d3e565b90506000610d2783610d21886103e8610d3e565b90610daa565b9050808281610d3257fe5b04979650505050505050565b6000811580610d5957505080820282828281610d5657fe5b04145b610cea576040805162461bcd60e51b815260206004820152601860248201527f426f72696e674d6174683a204d756c204f766572666c6f770000000000000000604482015290519081900360640190fd5b81810181811015610cea576040805162461bcd60e51b815260206004820152601860248201527f426f72696e674d6174683a20416464204f766572666c6f770000000000000000604482015290519081900360640190fdfea26469706673582212208e069dbf8daa1e82603bafe64399d20aa2f4075fa6ebc2e35cba6c9187b1a99b64736f6c634300060c0033",
  "devdoc": {
    "kind": "dev",
    "methods": {
      "transferOwnership(address,bool,bool)": {
        "params": {
          "direct": "True if `newOwner` should be set immediately. False if `newOwner` needs to use `claimOwnership`.",
          "newOwner": "Address of the new owner.",
          "renounce": "Allows the `newOwner` to be `address(0)` if `direct` and `renounce` is True. Has no effect otherwise."
        }
      }
    },
    "version": 1
  },
  "userdoc": {
    "kind": "user",
    "methods": {
      "claimOwnership()": {
        "notice": "Needs to be called by `pendingOwner` to claim ownership."
      },
      "transferOwnership(address,bool,bool)": {
        "notice": "Transfers ownership to `newOwner`. Either directly or claimable by the new pending owner. Can only be invoked by the current `owner`."
      }
    },
    "version": 1
  },
  "storageLayout": {
    "storage": [
      {
        "astId": 118,
        "contract": "contracts/swappers/SpellSwapper.sol:SpellSwapper",
        "label": "owner",
        "offset": 0,
        "slot": "0",
        "type": "t_address"
      },
      {
        "astId": 120,
        "contract": "contracts/swappers/SpellSwapper.sol:SpellSwapper",
        "label": "pendingOwner",
        "offset": 0,
        "slot": "1",
        "type": "t_address"
      },
      {
        "astId": 28922,
        "contract": "contracts/swappers/SpellSwapper.sol:SpellSwapper",
        "label": "verified",
        "offset": 0,
        "slot": "2",
        "type": "t_mapping(t_address,t_bool)"
      }
    ],
    "types": {
      "t_address": {
        "encoding": "inplace",
        "label": "address",
        "numberOfBytes": "20"
      },
      "t_bool": {
        "encoding": "inplace",
        "label": "bool",
        "numberOfBytes": "1"
      },
      "t_mapping(t_address,t_bool)": {
        "encoding": "mapping",
        "key": "t_address",
        "label": "mapping(address => bool)",
        "numberOfBytes": "32",
        "value": "t_bool"
      }
    }
  }
}