{
  "address": "0xeF633d1af20Ed99A69b7CF46Da5bE63dA07eD5ee",
  "abi": [
    {
      "inputs": [],
      "stateMutability": "nonpayable",
      "type": "constructor"
    },
    {
      "inputs": [],
      "name": "MIM3POOL",
      "outputs": [
        {
          "internalType": "contract CurvePool",
          "name": "",
          "type": "address"
        }
      ],
      "stateMutability": "view",
      "type": "function"
    },
    {
      "inputs": [],
      "name": "SPELL",
      "outputs": [
        {
          "internalType": "contract ISpell",
          "name": "",
          "type": "address"
        }
      ],
      "stateMutability": "view",
      "type": "function"
    },
    {
      "inputs": [],
      "name": "TETHER",
      "outputs": [
        {
          "internalType": "contract TetherToken",
          "name": "",
          "type": "address"
        }
      ],
      "stateMutability": "view",
      "type": "function"
    },
    {
      "inputs": [],
      "name": "bentoBox",
      "outputs": [
        {
          "internalType": "contract IBentoBoxV1",
          "name": "",
          "type": "address"
        }
      ],
      "stateMutability": "view",
      "type": "function"
    },
    {
      "inputs": [],
      "name": "sSpell",
      "outputs": [
        {
          "internalType": "contract IsSpell",
          "name": "",
          "type": "address"
        }
      ],
      "stateMutability": "view",
      "type": "function"
    },
    {
      "inputs": [
        {
          "internalType": "contract IERC20",
          "name": "fromToken",
          "type": "address"
        },
        {
          "internalType": "contract IERC20",
          "name": "toToken",
          "type": "address"
        },
        {
          "internalType": "address",
          "name": "recipient",
          "type": "address"
        },
        {
          "internalType": "uint256",
          "name": "shareToMin",
          "type": "uint256"
        },
        {
          "internalType": "uint256",
          "name": "shareFrom",
          "type": "uint256"
        }
      ],
      "name": "swap",
      "outputs": [
        {
          "internalType": "uint256",
          "name": "extraShare",
          "type": "uint256"
        },
        {
          "internalType": "uint256",
          "name": "shareReturned",
          "type": "uint256"
        }
      ],
      "stateMutability": "nonpayable",
      "type": "function"
    },
    {
      "inputs": [
        {
          "internalType": "contract IERC20",
          "name": "fromToken",
          "type": "address"
        },
        {
          "internalType": "contract IERC20",
          "name": "toToken",
          "type": "address"
        },
        {
          "internalType": "address",
          "name": "recipient",
          "type": "address"
        },
        {
          "internalType": "address",
          "name": "refundTo",
          "type": "address"
        },
        {
          "internalType": "uint256",
          "name": "shareFromSupplied",
          "type": "uint256"
        },
        {
          "internalType": "uint256",
          "name": "shareToExact",
          "type": "uint256"
        }
      ],
      "name": "swapExact",
      "outputs": [
        {
          "internalType": "uint256",
          "name": "shareUsed",
          "type": "uint256"
        },
        {
          "internalType": "uint256",
          "name": "shareReturned",
          "type": "uint256"
        }
      ],
      "stateMutability": "nonpayable",
      "type": "function"
    }
  ],
  "transactionHash": "0x353c2c53979cfb83a2cc3cfa1ce313cae3ae0370130c5eb350e02445bafba2e9",
  "args": [],
  "solcInputHash": "551fea19b336c84177b90b39a1cc4ec6",
  "bytecode": "0x608060405234801561001057600080fd5b506040805163095ea7b360e01b8152735a6a4d54456819380173272a5e8e9b9904bdf41b60048201526000196024820152905173dac17f958d2ee523a2206206994597c13d831ec79163095ea7b391604480830192600092919082900301818387803b15801561007f57600080fd5b505af1158015610093573d6000803e3d6000fd5b50505050610909806100a66000396000f3fe608060405234801561001057600080fd5b506004361061007d5760003560e01c8063766367221161005b578063766367221461011357806378e7e3d11461011b578063b9a27bc114610123578063e343fe121461012b5761007d565b806322a88c09146100825780634622be90146100a65780636b2ace871461010b575b600080fd5b61008a61016d565b604080516001600160a01b039092168252519081900360200190f35b6100f2600480360360c08110156100bc57600080fd5b506001600160a01b0381358116916020810135821691604082013581169160608101359091169060808101359060a00135610185565b6040805192835260208301919091528051918290030190f35b61008a610193565b61008a6101ab565b61008a6101c3565b61008a6101db565b6100f2600480360360a081101561014157600080fd5b506001600160a01b038135811691602081013582169160408201351690606081013590608001356101f3565b735a6a4d54456819380173272a5e8e9b9904bdf41b81565b600080965096945050505050565b73d96f48665a1410c0cd669a88898eca36b9fc2cce81565b73090185f2135308bad17527004364ebcc2d37e5f681565b73dac17f958d2ee523a2206206994597c13d831ec781565b7326fa3fffb6efe8c1e69103acb4044c26b9a106a981565b6040805163097da6d360e41b81526001600160a01b038716600482015230602482015273b5de0c3753b6e1b4dba616db82767f17513e6d4e604482015260006064820181905260848201849052825190928392839273d96f48665a1410c0cd669a88898eca36b9fc2cce926397da6d309260a4808201939182900301818787803b15801561028057600080fd5b505af1158015610294573d6000803e3d6000fd5b505050506040513d60408110156102aa57600080fd5b505160408051630240bc6b60e21b815290519192506000918291829173b5de0c3753b6e1b4dba616db82767f17513e6d4e91630902f1ac916004808301926060929190829003018186803b15801561030157600080fd5b505afa158015610315573d6000803e3d6000fd5b505050506040513d606081101561032b57600080fd5b5080516020909101516001600160701b03918216935016905061034f84838361076b565b604080516000808252602082019283905263022c0d9f60e01b835260248201818152604483018590527306da0fd433c1a5d7a4faa01111c044910a18455360648401819052608060848501908152845160a4860181905296995073b5de0c3753b6e1b4dba616db82767f17513e6d4e985063022c0d9f9750929589959194939160c48501918083838b5b838110156103f15781810151838201526020016103d9565b50505050905090810190601f16801561041e5780820380516001836020036101000a031916815260200191505b5095505050505050600060405180830381600087803b15801561044057600080fd5b505af1158015610454573d6000803e3d6000fd5b505050506000807306da0fd433c1a5d7a4faa01111c044910a1845536001600160a01b0316630902f1ac6040518163ffffffff1660e01b815260040160606040518083038186803b1580156104a857600080fd5b505afa1580156104bc573d6000803e3d6000fd5b505050506040513d60608110156104d257600080fd5b5080516020909101516001600160701b03918216935016905060006104f884848461076b565b604080516000808252602082019283905263022c0d9f60e01b835260248201818152604483018590523060648401819052608060848501908152845160a486018190529697507306da0fd433c1a5d7a4faa01111c044910a1845539663022c0d9f96949589959394909390929160c4850191908083838b5b83811015610588578181015183820152602001610570565b50505050905090810190601f1680156105b55780820380516001836020036101000a031916815260200191505b5095505050505050600060405180830381600087803b1580156105d757600080fd5b505af11580156105eb573d6000803e3d6000fd5b5050604080516322770cc360e11b815260036004820152600060248201819052604482018690526064820181905273d96f48665a1410c0cd669a88898eca36b9fc2cce60848301529151919350735a6a4d54456819380173272a5e8e9b9904bdf41b92506344ee19869160a480830192602092919082900301818787803b15801561067557600080fd5b505af1158015610689573d6000803e3d6000fd5b505050506040513d602081101561069f57600080fd5b50516040805162ae511b60e21b81526001600160a01b038f8116600483015273d96f48665a1410c0cd669a88898eca36b9fc2cce60248301819052908f16604483015260648201849052600060848301819052835194955090936302b9446c9360a4808501949193918390030190829087803b15801561071e57600080fd5b505af1158015610732573d6000803e3d6000fd5b505050506040513d604081101561074857600080fd5b50602001519650610759878b6107b9565b97505050505050509550959350505050565b60008061077a856103e561080f565b90506000610788828561080f565b905060006107a28361079c886103e861080f565b9061087b565b90508082816107ad57fe5b04979650505050505050565b80820382811115610809576040805162461bcd60e51b8152602060048201526015602482015274426f72696e674d6174683a20556e646572666c6f7760581b604482015290519081900360640190fd5b92915050565b600081158061082a5750508082028282828161082757fe5b04145b610809576040805162461bcd60e51b815260206004820152601860248201527f426f72696e674d6174683a204d756c204f766572666c6f770000000000000000604482015290519081900360640190fd5b81810181811015610809576040805162461bcd60e51b815260206004820152601860248201527f426f72696e674d6174683a20416464204f766572666c6f770000000000000000604482015290519081900360640190fdfea26469706673582212204c39a5f2e78a5a24d0ace905ddc588cb60f826eba2c4608fd162c44f95bac53364736f6c634300060c0033",
  "devdoc": {
    "kind": "dev",
    "methods": {},
    "version": 1
  },
  "userdoc": {
    "kind": "user",
    "methods": {
      "swap(address,address,address,uint256,uint256)": {
        "notice": "Withdraws 'amountFrom' of token 'from' from the BentoBox account for this swapper. Swaps it for at least 'amountToMin' of token 'to'. Transfers the swapped tokens of 'to' into the BentoBox using a plain ERC20 transfer. Returns the amount of tokens 'to' transferred to BentoBox. (The BentoBox skim function will be used by the caller to get the swapped funds)."
      },
      "swapExact(address,address,address,address,uint256,uint256)": {
        "notice": "Calculates the amount of token 'from' needed to complete the swap (amountFrom), this should be less than or equal to amountFromMax. Withdraws 'amountFrom' of token 'from' from the BentoBox account for this swapper. Swaps it for exactly 'exactAmountTo' of token 'to'. Transfers the swapped tokens of 'to' into the BentoBox using a plain ERC20 transfer. Transfers allocated, but unused 'from' tokens within the BentoBox to 'refundTo' (amountFromMax - amountFrom). Returns the amount of 'from' tokens withdrawn from BentoBox (amountFrom). (The BentoBox skim function will be used by the caller to get the swapped funds)."
      }
    },
    "version": 1
  },
  "storageLayout": {
    "storage": [],
    "types": null
  }
}