{
  "address": "0x26FA3fFFB6EfE8c1E69103aCb4044C26B9A106a9",
  "abi": [
    {
      "inputs": [
        {
          "internalType": "contract IERC20",
          "name": "_token",
          "type": "address"
        }
      ],
      "stateMutability": "nonpayable",
      "type": "constructor"
    },
    {
      "anonymous": false,
      "inputs": [
        {
          "indexed": true,
          "internalType": "address",
          "name": "_owner",
          "type": "address"
        },
        {
          "indexed": true,
          "internalType": "address",
          "name": "_spender",
          "type": "address"
        },
        {
          "indexed": false,
          "internalType": "uint256",
          "name": "_value",
          "type": "uint256"
        }
      ],
      "name": "Approval",
      "type": "event"
    },
    {
      "anonymous": false,
      "inputs": [
        {
          "indexed": true,
          "internalType": "address",
          "name": "_from",
          "type": "address"
        },
        {
          "indexed": true,
          "internalType": "address",
          "name": "_to",
          "type": "address"
        },
        {
          "indexed": false,
          "internalType": "uint256",
          "name": "_value",
          "type": "uint256"
        }
      ],
      "name": "Transfer",
      "type": "event"
    },
    {
      "inputs": [],
      "name": "DOMAIN_SEPARATOR",
      "outputs": [
        {
          "internalType": "bytes32",
          "name": "",
          "type": "bytes32"
        }
      ],
      "stateMutability": "view",
      "type": "function"
    },
    {
      "inputs": [
        {
          "internalType": "address",
          "name": "",
          "type": "address"
        },
        {
          "internalType": "address",
          "name": "",
          "type": "address"
        }
      ],
      "name": "allowance",
      "outputs": [
        {
          "internalType": "uint256",
          "name": "",
          "type": "uint256"
        }
      ],
      "stateMutability": "view",
      "type": "function"
    },
    {
      "inputs": [
        {
          "internalType": "address",
          "name": "spender",
          "type": "address"
        },
        {
          "internalType": "uint256",
          "name": "amount",
          "type": "uint256"
        }
      ],
      "name": "approve",
      "outputs": [
        {
          "internalType": "bool",
          "name": "",
          "type": "bool"
        }
      ],
      "stateMutability": "nonpayable",
      "type": "function"
    },
    {
      "inputs": [
        {
          "internalType": "address",
          "name": "user",
          "type": "address"
        }
      ],
      "name": "balanceOf",
      "outputs": [
        {
          "internalType": "uint256",
          "name": "balance",
          "type": "uint256"
        }
      ],
      "stateMutability": "view",
      "type": "function"
    },
    {
      "inputs": [
        {
          "internalType": "address",
          "name": "to",
          "type": "address"
        },
        {
          "internalType": "uint256",
          "name": "shares",
          "type": "uint256"
        }
      ],
      "name": "burn",
      "outputs": [
        {
          "internalType": "bool",
          "name": "",
          "type": "bool"
        }
      ],
      "stateMutability": "nonpayable",
      "type": "function"
    },
    {
      "inputs": [
        {
          "internalType": "address",
          "name": "from",
          "type": "address"
        },
        {
          "internalType": "address",
          "name": "to",
          "type": "address"
        },
        {
          "internalType": "uint256",
          "name": "shares",
          "type": "uint256"
        }
      ],
      "name": "burnFrom",
      "outputs": [
        {
          "internalType": "bool",
          "name": "",
          "type": "bool"
        }
      ],
      "stateMutability": "nonpayable",
      "type": "function"
    },
    {
      "inputs": [],
      "name": "decimals",
      "outputs": [
        {
          "internalType": "uint8",
          "name": "",
          "type": "uint8"
        }
      ],
      "stateMutability": "view",
      "type": "function"
    },
    {
      "inputs": [
        {
          "internalType": "uint256",
          "name": "amount",
          "type": "uint256"
        }
      ],
      "name": "mint",
      "outputs": [
        {
          "internalType": "bool",
          "name": "",
          "type": "bool"
        }
      ],
      "stateMutability": "nonpayable",
      "type": "function"
    },
    {
      "inputs": [],
      "name": "name",
      "outputs": [
        {
          "internalType": "string",
          "name": "",
          "type": "string"
        }
      ],
      "stateMutability": "view",
      "type": "function"
    },
    {
      "inputs": [
        {
          "internalType": "address",
          "name": "",
          "type": "address"
        }
      ],
      "name": "nonces",
      "outputs": [
        {
          "internalType": "uint256",
          "name": "",
          "type": "uint256"
        }
      ],
      "stateMutability": "view",
      "type": "function"
    },
    {
      "inputs": [
        {
          "internalType": "address",
          "name": "owner_",
          "type": "address"
        },
        {
          "internalType": "address",
          "name": "spender",
          "type": "address"
        },
        {
          "internalType": "uint256",
          "name": "value",
          "type": "uint256"
        },
        {
          "internalType": "uint256",
          "name": "deadline",
          "type": "uint256"
        },
        {
          "internalType": "uint8",
          "name": "v",
          "type": "uint8"
        },
        {
          "internalType": "bytes32",
          "name": "r",
          "type": "bytes32"
        },
        {
          "internalType": "bytes32",
          "name": "s",
          "type": "bytes32"
        }
      ],
      "name": "permit",
      "outputs": [],
      "stateMutability": "nonpayable",
      "type": "function"
    },
    {
      "inputs": [],
      "name": "symbol",
      "outputs": [
        {
          "internalType": "string",
          "name": "",
          "type": "string"
        }
      ],
      "stateMutability": "view",
      "type": "function"
    },
    {
      "inputs": [],
      "name": "token",
      "outputs": [
        {
          "internalType": "contract IERC20",
          "name": "",
          "type": "address"
        }
      ],
      "stateMutability": "view",
      "type": "function"
    },
    {
      "inputs": [],
      "name": "totalSupply",
      "outputs": [
        {
          "internalType": "uint256",
          "name": "",
          "type": "uint256"
        }
      ],
      "stateMutability": "view",
      "type": "function"
    },
    {
      "inputs": [
        {
          "internalType": "address",
          "name": "to",
          "type": "address"
        },
        {
          "internalType": "uint256",
          "name": "shares",
          "type": "uint256"
        }
      ],
      "name": "transfer",
      "outputs": [
        {
          "internalType": "bool",
          "name": "",
          "type": "bool"
        }
      ],
      "stateMutability": "nonpayable",
      "type": "function"
    },
    {
      "inputs": [
        {
          "internalType": "address",
          "name": "from",
          "type": "address"
        },
        {
          "internalType": "address",
          "name": "to",
          "type": "address"
        },
        {
          "internalType": "uint256",
          "name": "shares",
          "type": "uint256"
        }
      ],
      "name": "transferFrom",
      "outputs": [
        {
          "internalType": "bool",
          "name": "",
          "type": "bool"
        }
      ],
      "stateMutability": "nonpayable",
      "type": "function"
    },
    {
      "inputs": [
        {
          "internalType": "address",
          "name": "",
          "type": "address"
        }
      ],
      "name": "users",
      "outputs": [
        {
          "internalType": "uint128",
          "name": "balance",
          "type": "uint128"
        },
        {
          "internalType": "uint128",
          "name": "lockedUntil",
          "type": "uint128"
        }
      ],
      "stateMutability": "view",
      "type": "function"
    }
  ],
  "transactionHash": "0xf52412ffc34448d890ff2a22a40ac7f72992ff7f52cd932ffabd14d188c9a321",
  "args": [
    "0x090185f2135308BaD17527004364eBcC2D37e5F6"
  ],
  "solcInputHash": "107f1a0bd97a27adece616492bf6290d",
  "bytecode": "0x60e06040523480156200001157600080fd5b5060405162001cd638038062001cd68339810160408190526200003491620000b5565b4660a081905262000045816200005f565b6080525060601b6001600160601b03191660c05262000104565b60007f47e79534a245952e8b16893a336b85a3d9ea9fa8c573f3d803afb92a7946921882306040516020016200009893929190620000e5565b604051602081830303815290604052805190602001209050919050565b600060208284031215620000c7578081fd5b81516001600160a01b0381168114620000de578182fd5b9392505050565b92835260208301919091526001600160a01b0316604082015260600190565b60805160a05160c05160601c611b8e62000148600039806104c45280610638528061095f5280610f33528061105e525080610da4525080610dd95250611b8e6000f3fe608060405234801561001057600080fd5b506004361061011b5760003560e01c806395d89b41116100b2578063a9059cbb11610081578063dd62ed3e11610066578063dd62ed3e14610240578063ec60bcf314610253578063fc0c546a146102665761011b565b8063a9059cbb14610218578063d505accf1461022b5761011b565b806395d89b41146101c95780639dc29fac146101d1578063a0712d68146101e4578063a87430ba146101f75761011b565b8063313ce567116100ee578063313ce567146101865780633644e5151461019b57806370a08231146101a35780637ecebe00146101b65761011b565b806306fdde0314610120578063095ea7b31461013e57806318160ddd1461015e57806323b872dd14610173575b600080fd5b61012861027b565b6040516101359190611826565b60405180910390f35b61015161014c366004611652565b6102b4565b6040516101359190611787565b61016661032c565b6040516101359190611792565b61015161018136600461159f565b610332565b61018e610353565b6040516101359190611af5565b610166610358565b6101666101b1366004611549565b610367565b6101666101c4366004611549565b6103a1565b6101286103b3565b6101516101df366004611652565b6103ec565b6101516101f236600461169c565b610402565b61020a610205366004611549565b6106bd565b604051610135929190611ad2565b610151610226366004611652565b6106f9565b61023e6102393660046115df565b610706565b005b61016661024e36600461156b565b610929565b61015161026136600461159f565b610946565b61026e61095d565b604051610135919061170f565b6040518060400160405280601381526020017f5374616b6564205370656c6c20546f6b656e730000000000000000000000000081525081565b33600081815260026020908152604080832073ffffffffffffffffffffffffffffffffffffffff8716808552925280832085905551919290917f8c5be1e5ebec7d5bd14f71427d1e84f3dd0314c0f7b2291e5b200ac8c7c3b9259061031a908690611792565b60405180910390a35060015b92915050565b60005481565b600061033e8483610981565b610349848484610a72565b5060019392505050565b601281565b6000610362610d9f565b905090565b73ffffffffffffffffffffffffffffffffffffffff166000908152600160205260409020546fffffffffffffffffffffffffffffffff1690565b60036020526000908152604090205481565b6040518060400160405280600681526020017f735350454c4c000000000000000000000000000000000000000000000000000081525081565b60006103f9338484610dff565b50600192915050565b600033610444576040517f08c379a000000000000000000000000000000000000000000000000000000000815260040161043b9061198a565b60405180910390fd5b61044c61150e565b503360009081526001602090815260408083208151808301835290546fffffffffffffffffffffffffffffffff80821683527001000000000000000000000000000000009091041692810192909252517f70a082310000000000000000000000000000000000000000000000000000000081529091907f000000000000000000000000000000000000000000000000000000000000000073ffffffffffffffffffffffffffffffffffffffff16906370a082319061050e90309060040161170f565b60206040518083038186803b15801561052657600080fd5b505afa15801561053a573d6000803e3d6000fd5b505050506040513d601f19601f8201168201806040525081019061055e91906116b4565b90506000805460001461057e578160005486028161057857fe5b04610580565b845b905061058b816110f2565b8351016fffffffffffffffffffffffffffffffff1683526105b06201518042016110f2565b6fffffffffffffffffffffffffffffffff90811660208086019182523360008181526001909252604082208751815494518616700100000000000000000000000000000000029086167fffffffffffffffffffffffffffffffff00000000000000000000000000000000909516949094179094169290921790925581548301909155610675907f000000000000000000000000000000000000000000000000000000000000000073ffffffffffffffffffffffffffffffffffffffff16903088611142565b60405133906000907fddf252ad1be2c89b69c2b068fc378daa952ba7f163c4a11628f55a4df523b3ef906106aa908590611792565b60405180910390a3506001949350505050565b6001602052600090815260409020546fffffffffffffffffffffffffffffffff8082169170010000000000000000000000000000000090041682565b60006103f9338484610a72565b73ffffffffffffffffffffffffffffffffffffffff8716610753576040517f08c379a000000000000000000000000000000000000000000000000000000000815260040161043b90611a64565b83421061078c576040517f08c379a000000000000000000000000000000000000000000000000000000000815260040161043b90611a9b565b73ffffffffffffffffffffffffffffffffffffffff87166000818152600360209081526040918290208054600181810190925592519092610817926107fc927f6e71edae12b1b97f4d1f60370fef10105fa2faae0126114a169c64845d6126c9928e928e928e92918e910161179b565b604051602081830303815290604052805190602001206112ad565b858585604051600081526020016040526040516108379493929190611808565b6020604051602081039080840390855afa158015610859573d6000803e3d6000fd5b5050506020604051035173ffffffffffffffffffffffffffffffffffffffff16146108b0576040517f08c379a000000000000000000000000000000000000000000000000000000000815260040161043b906119f8565b73ffffffffffffffffffffffffffffffffffffffff8088166000818152600260209081526040808320948b168084529490915290819020889055517f8c5be1e5ebec7d5bd14f71427d1e84f3dd0314c0f7b2291e5b200ac8c7c3b92590610918908990611792565b60405180910390a350505050505050565b600260209081526000928352604080842090915290825290205481565b60006109528483610981565b610349848484610dff565b7f000000000000000000000000000000000000000000000000000000000000000081565b3373ffffffffffffffffffffffffffffffffffffffff831614156109a457610a6e565b73ffffffffffffffffffffffffffffffffffffffff821660009081526002602090815260408083203384529091529020547fffffffffffffffffffffffffffffffffffffffffffffffffffffffffffffffff8114610a6c5781811015610a36576040517f08c379a000000000000000000000000000000000000000000000000000000000815260040161043b9061191c565b73ffffffffffffffffffffffffffffffffffffffff83166000908152600260209081526040808320338452909152902082820390555b505b5050565b610a7a61150e565b5073ffffffffffffffffffffffffffffffffffffffff83166000908152600160209081526040918290208251808401909352546fffffffffffffffffffffffffffffffff808216845270010000000000000000000000000000000090910416908201819052421015610b18576040517f08c379a000000000000000000000000000000000000000000000000000000000815260040161043b906118ae565b8115610d345780516fffffffffffffffffffffffffffffffff16821115610b6b576040517f08c379a000000000000000000000000000000000000000000000000000000000815260040161043b90611953565b8273ffffffffffffffffffffffffffffffffffffffff168473ffffffffffffffffffffffffffffffffffffffff1614610d345773ffffffffffffffffffffffffffffffffffffffff8316610beb576040517f08c379a000000000000000000000000000000000000000000000000000000000815260040161043b9061198a565b610bf361150e565b5073ffffffffffffffffffffffffffffffffffffffff83166000908152600160209081526040918290208251808401909352546fffffffffffffffffffffffffffffffff80821684527001000000000000000000000000000000009091041690820152610c5f836110f2565b825173ffffffffffffffffffffffffffffffffffffffff8716600090815260016020526040902080547fffffffffffffffffffffffffffffffff0000000000000000000000000000000016929091036fffffffffffffffffffffffffffffffff16919091179055610ccf836110f2565b905173ffffffffffffffffffffffffffffffffffffffff8516600090815260016020526040902080547fffffffffffffffffffffffffffffffff0000000000000000000000000000000016919092016fffffffffffffffffffffffffffffffff161790555b8273ffffffffffffffffffffffffffffffffffffffff168473ffffffffffffffffffffffffffffffffffffffff167fddf252ad1be2c89b69c2b068fc378daa952ba7f163c4a11628f55a4df523b3ef84604051610d919190611792565b60405180910390a350505050565b6000467f00000000000000000000000000000000000000000000000000000000000000008114610dd757610dd28161131d565b610df9565b7f00000000000000000000000000000000000000000000000000000000000000005b91505090565b73ffffffffffffffffffffffffffffffffffffffff8216610e4c576040517f08c379a000000000000000000000000000000000000000000000000000000000815260040161043b9061198a565b610e5461150e565b5073ffffffffffffffffffffffffffffffffffffffff83166000908152600160209081526040918290208251808401909352546fffffffffffffffffffffffffffffffff808216845270010000000000000000000000000000000090910416908201819052421015610ef2576040517f08c379a000000000000000000000000000000000000000000000000000000000815260040161043b906118ae565b600080546040517f70a0823100000000000000000000000000000000000000000000000000000000815273ffffffffffffffffffffffffffffffffffffffff7f000000000000000000000000000000000000000000000000000000000000000016906370a0823190610f6890309060040161170f565b60206040518083038186803b158015610f8057600080fd5b505afa158015610f94573d6000803e3d6000fd5b505050506040513d601f19601f82011682018060405250810190610fb891906116b4565b840281610fc157fe5b049050610fea610fd0846110f2565b83516fffffffffffffffffffffffffffffffff1690611354565b73ffffffffffffffffffffffffffffffffffffffff868116600090815260016020526040812080547fffffffffffffffffffffffffffffffff00000000000000000000000000000000166fffffffffffffffffffffffffffffffff94909416939093179092558154859003909155611085907f00000000000000000000000000000000000000000000000000000000000000001685836113a6565b600073ffffffffffffffffffffffffffffffffffffffff168573ffffffffffffffffffffffffffffffffffffffff167fddf252ad1be2c89b69c2b068fc378daa952ba7f163c4a11628f55a4df523b3ef856040516110e39190611792565b60405180910390a35050505050565b60006fffffffffffffffffffffffffffffffff82111561113e576040517f08c379a000000000000000000000000000000000000000000000000000000000815260040161043b906119c1565b5090565b600060608573ffffffffffffffffffffffffffffffffffffffff166323b872dd60e01b86868660405160240161117a93929190611730565b604080517fffffffffffffffffffffffffffffffffffffffffffffffffffffffffffffffe08184030181529181526020820180517bffffffffffffffffffffffffffffffffffffffffffffffffffffffff167fffffffff0000000000000000000000000000000000000000000000000000000090941693909317909252905161120391906116cc565b6000604051808303816000865af19150503d8060008114611240576040519150601f19603f3d011682016040523d82523d6000602084013e611245565b606091505b509150915081801561126f57508051158061126f57508080602001905181019061126f919061167c565b6112a5576040517f08c379a000000000000000000000000000000000000000000000000000000000815260040161043b90611a2f565b505050505050565b60006040518060400160405280600281526020017f19010000000000000000000000000000000000000000000000000000000000008152506112ed610d9f565b83604051602001611300939291906116e8565b604051602081830303815290604052805190602001209050919050565b60007f47e79534a245952e8b16893a336b85a3d9ea9fa8c573f3d803afb92a794692188230604051602001611300939291906117dc565b8082036fffffffffffffffffffffffffffffffff8084169082161115610326576040517f08c379a000000000000000000000000000000000000000000000000000000000815260040161043b90611877565b600060608473ffffffffffffffffffffffffffffffffffffffff1663a9059cbb60e01b85856040516024016113dc929190611761565b604080517fffffffffffffffffffffffffffffffffffffffffffffffffffffffffffffffe08184030181529181526020820180517bffffffffffffffffffffffffffffffffffffffffffffffffffffffff167fffffffff0000000000000000000000000000000000000000000000000000000090941693909317909252905161146591906116cc565b6000604051808303816000865af19150503d80600081146114a2576040519150601f19603f3d011682016040523d82523d6000602084013e6114a7565b606091505b50915091508180156114d15750805115806114d15750808060200190518101906114d1919061167c565b611507576040517f08c379a000000000000000000000000000000000000000000000000000000000815260040161043b906118e5565b5050505050565b604080518082019091526000808252602082015290565b803573ffffffffffffffffffffffffffffffffffffffff8116811461032657600080fd5b60006020828403121561155a578081fd5b6115648383611525565b9392505050565b6000806040838503121561157d578081fd5b6115878484611525565b91506115968460208501611525565b90509250929050565b6000806000606084860312156115b3578081fd5b83356115be81611b33565b925060208401356115ce81611b33565b929592945050506040919091013590565b600080600080600080600060e0888a0312156115f9578283fd5b6116038989611525565b96506116128960208a01611525565b95506040880135945060608801359350608088013560ff81168114611635578384fd5b9699959850939692959460a0840135945060c09093013592915050565b60008060408385031215611664578182fd5b61166e8484611525565b946020939093013593505050565b60006020828403121561168d578081fd5b81518015158114611564578182fd5b6000602082840312156116ad578081fd5b5035919050565b6000602082840312156116c5578081fd5b5051919050565b600082516116de818460208701611b03565b9190910192915050565b600084516116fa818460208901611b03565b91909101928352506020820152604001919050565b73ffffffffffffffffffffffffffffffffffffffff91909116815260200190565b73ffffffffffffffffffffffffffffffffffffffff9384168152919092166020820152604081019190915260600190565b73ffffffffffffffffffffffffffffffffffffffff929092168252602082015260400190565b901515815260200190565b90815260200190565b95865273ffffffffffffffffffffffffffffffffffffffff94851660208701529290931660408501526060840152608083019190915260a082015260c00190565b928352602083019190915273ffffffffffffffffffffffffffffffffffffffff16604082015260600190565b93845260ff9290921660208401526040830152606082015260800190565b6000602082528251806020840152611845816040850160208701611b03565b601f017fffffffffffffffffffffffffffffffffffffffffffffffffffffffffffffffe0169190910160400192915050565b60208082526015908201527f426f72696e674d6174683a20556e646572666c6f770000000000000000000000604082015260600190565b60208082526006908201527f4c6f636b65640000000000000000000000000000000000000000000000000000604082015260600190565b6020808252601c908201527f426f72696e6745524332303a205472616e73666572206661696c656400000000604082015260600190565b6020808252600d908201527f4c6f7720616c6c6f77616e636500000000000000000000000000000000000000604082015260600190565b6020808252600b908201527f4c6f772062616c616e6365000000000000000000000000000000000000000000604082015260600190565b6020808252600c908201527f5a65726f20616464726573730000000000000000000000000000000000000000604082015260600190565b6020808252601c908201527f426f72696e674d6174683a2075696e74313238204f766572666c6f7700000000604082015260600190565b6020808252600b908201527f496e76616c696420536967000000000000000000000000000000000000000000604082015260600190565b6020808252818101527f426f72696e6745524332303a205472616e7366657246726f6d206661696c6564604082015260600190565b6020808252600a908201527f5a65726f206f776e657200000000000000000000000000000000000000000000604082015260600190565b60208082526007908201527f4578706972656400000000000000000000000000000000000000000000000000604082015260600190565b6fffffffffffffffffffffffffffffffff92831681529116602082015260400190565b60ff91909116815260200190565b60005b83811015611b1e578181015183820152602001611b06565b83811115611b2d576000848401525b50505050565b73ffffffffffffffffffffffffffffffffffffffff81168114611b5557600080fd5b5056fea26469706673582212206b133f8f02cff08e545e9b72bfa6d2aa3fed362b9ab85ea8046ceccba486368464736f6c634300060c0033"
}