{
  "address": "0x41B8Dbde2D4127111FBEDF31783781ae69300026",
  "abi": [
    {
      "inputs": [
        {
          "internalType": "contract IBentoBoxV1",
          "name": "_degenBox",
          "type": "address"
        },
        {
          "internalType": "contract IStargatePool",
          "name": "_pool",
          "type": "address"
        },
        {
          "internalType": "uint16",
          "name": "_poolId",
          "type": "uint16"
        },
        {
          "internalType": "contract IStargateRouter",
          "name": "_stargateRouter",
          "type": "address"
        },
        {
          "internalType": "contract CurvePool",
          "name": "_curvePool",
          "type": "address"
        },
        {
          "internalType": "int128",
          "name": "_curvePoolI",
          "type": "int128"
        },
        {
          "internalType": "int128",
          "name": "_curvePoolJ",
          "type": "int128"
        }
      ],
      "stateMutability": "nonpayable",
      "type": "constructor"
    },
    {
      "anonymous": false,
      "inputs": [
        {
          "indexed": false,
          "internalType": "contract IStargateLpMimPool",
          "name": "pool",
          "type": "address"
        }
      ],
      "name": "MimPoolChanged",
      "type": "event"
    },
    {
      "anonymous": false,
      "inputs": [
        {
          "indexed": true,
          "internalType": "address",
          "name": "previousOwner",
          "type": "address"
        },
        {
          "indexed": true,
          "internalType": "address",
          "name": "newOwner",
          "type": "address"
        }
      ],
      "name": "OwnershipTransferred",
      "type": "event"
    },
    {
      "inputs": [],
      "name": "curvePool",
      "outputs": [
        {
          "internalType": "contract CurvePool",
          "name": "",
          "type": "address"
        }
      ],
      "stateMutability": "view",
      "type": "function"
    },
    {
      "inputs": [],
      "name": "curvePoolI",
      "outputs": [
        {
          "internalType": "int128",
          "name": "",
          "type": "int128"
        }
      ],
      "stateMutability": "view",
      "type": "function"
    },
    {
      "inputs": [],
      "name": "curvePoolJ",
      "outputs": [
        {
          "internalType": "int128",
          "name": "",
          "type": "int128"
        }
      ],
      "stateMutability": "view",
      "type": "function"
    },
    {
      "inputs": [],
      "name": "degenBox",
      "outputs": [
        {
          "internalType": "contract IBentoBoxV1",
          "name": "",
          "type": "address"
        }
      ],
      "stateMutability": "view",
      "type": "function"
    },
    {
      "inputs": [],
      "name": "mim",
      "outputs": [
        {
          "internalType": "contract IERC20",
          "name": "",
          "type": "address"
        }
      ],
      "stateMutability": "view",
      "type": "function"
    },
    {
      "inputs": [],
      "name": "mimPool",
      "outputs": [
        {
          "internalType": "contract IStargateLpMimPool",
          "name": "",
          "type": "address"
        }
      ],
      "stateMutability": "view",
      "type": "function"
    },
    {
      "inputs": [],
      "name": "owner",
      "outputs": [
        {
          "internalType": "address",
          "name": "",
          "type": "address"
        }
      ],
      "stateMutability": "view",
      "type": "function"
    },
    {
      "inputs": [],
      "name": "pool",
      "outputs": [
        {
          "internalType": "contract IStargatePool",
          "name": "",
          "type": "address"
        }
      ],
      "stateMutability": "view",
      "type": "function"
    },
    {
      "inputs": [],
      "name": "poolId",
      "outputs": [
        {
          "internalType": "uint16",
          "name": "",
          "type": "uint16"
        }
      ],
      "stateMutability": "view",
      "type": "function"
    },
    {
      "inputs": [],
      "name": "renounceOwnership",
      "outputs": [],
      "stateMutability": "nonpayable",
      "type": "function"
    },
    {
      "inputs": [
        {
          "internalType": "contract IStargateLpMimPool",
          "name": "_mimPool",
          "type": "address"
        }
      ],
      "name": "setMimPool",
      "outputs": [],
      "stateMutability": "nonpayable",
      "type": "function"
    },
    {
      "inputs": [],
      "name": "stargateRouter",
      "outputs": [
        {
          "internalType": "contract IStargateRouter",
          "name": "",
          "type": "address"
        }
      ],
      "stateMutability": "view",
      "type": "function"
    },
    {
      "inputs": [
        {
          "internalType": "contract IERC20",
          "name": "",
          "type": "address"
        },
        {
          "internalType": "contract IERC20",
          "name": "",
          "type": "address"
        },
        {
          "internalType": "address",
          "name": "recipient",
          "type": "address"
        },
        {
          "internalType": "uint256",
          "name": "shareToMin",
          "type": "uint256"
        },
        {
          "internalType": "uint256",
          "name": "shareFrom",
          "type": "uint256"
        }
      ],
      "name": "swap",
      "outputs": [
        {
          "internalType": "uint256",
          "name": "extraShare",
          "type": "uint256"
        },
        {
          "internalType": "uint256",
          "name": "shareReturned",
          "type": "uint256"
        }
      ],
      "stateMutability": "nonpayable",
      "type": "function"
    },
    {
      "inputs": [
        {
          "internalType": "contract IERC20",
          "name": "",
          "type": "address"
        },
        {
          "internalType": "contract IERC20",
          "name": "",
          "type": "address"
        },
        {
          "internalType": "address",
          "name": "",
          "type": "address"
        },
        {
          "internalType": "address",
          "name": "",
          "type": "address"
        },
        {
          "internalType": "uint256",
          "name": "",
          "type": "uint256"
        },
        {
          "internalType": "uint256",
          "name": "",
          "type": "uint256"
        }
      ],
      "name": "swapExact",
      "outputs": [
        {
          "internalType": "uint256",
          "name": "shareUsed",
          "type": "uint256"
        },
        {
          "internalType": "uint256",
          "name": "shareReturned",
          "type": "uint256"
        }
      ],
      "stateMutability": "pure",
      "type": "function"
    },
    {
      "inputs": [
        {
          "internalType": "address",
          "name": "newOwner",
          "type": "address"
        }
      ],
      "name": "transferOwnership",
      "outputs": [],
      "stateMutability": "nonpayable",
      "type": "function"
    },
    {
      "inputs": [],
      "name": "underlyingPoolToken",
      "outputs": [
        {
          "internalType": "contract IERC20",
          "name": "",
          "type": "address"
        }
      ],
      "stateMutability": "view",
      "type": "function"
    }
  ],
  "transactionHash": "0x233b39c6dd3579cbd0988dc2cddee64c4fb6c2614ecd1b03a13511a01858fee9",
  "args": [
    "0xd96f48665a1410C0cd669A88898ecA36B9Fc2cce",
    "0x38EA452219524Bb87e18dE1C24D3bB59510BD783",
    2,
    "0x8731d54E9D02c286767d56ac03e8037C07e01e98",
    "0x5a6A4D54456819380173272A5E8E9B9904BdF41B",
    3,
    0
  ],
  "numDeployments": 1,
  "solcInputHash": "e60729bb212d2f68975f3ed8132cd38e",
  "bytecode": "0x6101a06040523480156200001257600080fd5b5060405162001b3038038062001b308339810160408190526200003591620005b5565b62000040336200018d565b6001600160a01b0387811660805286811660a05261ffff86166101405284811660c052831660e0819052600f83810b6101005282900b6101205260405163c661065760e01b81526001600160801b038316600482015263c661065790602401602060405180830381865afa158015620000bd573d6000803e3d6000fd5b505050506040513d601f19601f82011682018060405250810190620000e391906200065e565b6001600160a01b0316610180816001600160a01b031681525050856001600160a01b031663fc0c546a6040518163ffffffff1660e01b8152600401602060405180830381865afa1580156200013c573d6000803e3d6000fd5b505050506040513d601f19601f820116820180604052508101906200016291906200065e565b6001600160a01b0316610160819052620001809084600019620001dd565b505050505050506200073e565b600080546001600160a01b038381166001600160a01b0319831681178455604051919092169283917f8be0079c531659141344cd1fd0a4f28419497f9722a3daafe3b4186f6b6457e09190a35050565b8015806200025b5750604051636eb1769f60e11b81523060048201526001600160a01b03838116602483015284169063dd62ed3e90604401602060405180830381865afa15801562000233573d6000803e3d6000fd5b505050506040513d601f19601f820116820180604052508101906200025991906200067e565b155b620002d35760405162461bcd60e51b815260206004820152603660248201527f5361666545524332303a20617070726f76652066726f6d206e6f6e2d7a65726f60448201527f20746f206e6f6e2d7a65726f20616c6c6f77616e63650000000000000000000060648201526084015b60405180910390fd5b604080516001600160a01b03848116602483015260448083018590528351808403909101815260649092018352602080830180516001600160e01b031663095ea7b360e01b17905283518085019094528084527f5361666545524332303a206c6f772d6c6576656c2063616c6c206661696c65648482015260009362000367939288169291620003ef811b62000cb317901c565b805190915015620003e9578080602001905181019062000388919062000698565b620003e95760405162461bcd60e51b815260206004820152602a60248201527f5361666545524332303a204552433230206f7065726174696f6e20646964206e6044820152691bdd081cdd58d8d9595960b21b6064820152608401620002ca565b50505050565b60606200040084846000856200040a565b90505b9392505050565b6060824710156200046d5760405162461bcd60e51b815260206004820152602660248201527f416464726573733a20696e73756666696369656e742062616c616e636520666f6044820152651c8818d85b1b60d21b6064820152608401620002ca565b6001600160a01b0385163b620004c65760405162461bcd60e51b815260206004820152601d60248201527f416464726573733a2063616c6c20746f206e6f6e2d636f6e74726163740000006044820152606401620002ca565b600080866001600160a01b03168587604051620004e49190620006eb565b60006040518083038185875af1925050503d806000811462000523576040519150601f19603f3d011682016040523d82523d6000602084013e62000528565b606091505b5090925090506200053b82828662000546565b979650505050505050565b606083156200055757508162000403565b825115620005685782518084602001fd5b8160405162461bcd60e51b8152600401620002ca919062000709565b6001600160a01b03811681146200059a57600080fd5b50565b8051600f81900b8114620005b057600080fd5b919050565b600080600080600080600060e0888a031215620005d157600080fd5b8751620005de8162000584565b6020890151909750620005f18162000584565b604089015190965061ffff811681146200060a57600080fd5b60608901519095506200061d8162000584565b6080890151909450620006308162000584565b92506200064060a089016200059d565b91506200065060c089016200059d565b905092959891949750929550565b6000602082840312156200067157600080fd5b8151620004038162000584565b6000602082840312156200069157600080fd5b5051919050565b600060208284031215620006ab57600080fd5b815180151581146200040357600080fd5b60005b83811015620006d9578181015183820152602001620006bf565b83811115620003e95750506000910152565b60008251620006ff818460208701620006bc565b9190910192915050565b60208152600082518060208401526200072a816040850160208701620006bc565b601f01601f19169190910160400192915050565b60805160a05160c05160e05161010051610120516101405161016051610180516113036200082d600039600081816102d00152610b1801526000818161028201526109ca0152600081816101c4015261064801526000818161023701526109a801526000818161010a0152610986015260008181610188015261095c0152600081816102f7015261068a015260008181610149015281816103b4015281816103ef015281816104f5015281816105c30152818161071e015281816107b3015261087f0152600081816102a90152818161053d015281816107e201528181610a8d0152610b4001526113036000f3fe608060405234801561001057600080fd5b50600436106101005760003560e01c80638157e690116100975780639f67679e116100665780639f67679e146102cb578063a9e56f3c146102f2578063e343fe1214610319578063f2fde38b1461032c57600080fd5b80638157e690146102595780638da5cb5b1461026c5780639dd6126e1461027d5780639f495c15146102a457600080fd5b80633e0dc34e116100d35780633e0dc34e146101bf5780634622be90146101f9578063715018a61461022a5780637c3e13e31461023257600080fd5b806307a658821461010557806316f0115b14610144578063218751b2146101835780633db62a20146101aa575b600080fd5b61012c7f000000000000000000000000000000000000000000000000000000000000000081565b604051600f9190910b81526020015b60405180910390f35b61016b7f000000000000000000000000000000000000000000000000000000000000000081565b6040516001600160a01b03909116815260200161013b565b61016b7f000000000000000000000000000000000000000000000000000000000000000081565b6101bd6101b83660046110c8565b61033f565b005b6101e67f000000000000000000000000000000000000000000000000000000000000000081565b60405161ffff909116815260200161013b565b6102156102073660046110e5565b600080965096945050505050565b6040805192835260208301919091520161013b565b6101bd610478565b61012c7f000000000000000000000000000000000000000000000000000000000000000081565b60015461016b906001600160a01b031681565b6000546001600160a01b031661016b565b61016b7f000000000000000000000000000000000000000000000000000000000000000081565b61016b7f000000000000000000000000000000000000000000000000000000000000000081565b61016b7f000000000000000000000000000000000000000000000000000000000000000081565b61016b7f000000000000000000000000000000000000000000000000000000000000000081565b610215610327366004611153565b6104de565b6101bd61033a3660046110c8565b610be8565b6000546001600160a01b0316331461039e5760405162461bcd60e51b815260206004820181905260248201527f4f776e61626c653a2063616c6c6572206973206e6f7420746865206f776e657260448201526064015b60405180910390fd5b6001546001600160a01b0316156103db576103db7f0000000000000000000000000000000000000000000000000000000000000000826000610ccc565b6001600160a01b03811615610417576104177f000000000000000000000000000000000000000000000000000000000000000082600019610ccc565b6001805473ffffffffffffffffffffffffffffffffffffffff19166001600160a01b0383169081179091556040519081527fe9973953e9d8f3140f18e438cee8a40280c209560eba7f42757b3febb2a9f7c49060200160405180910390a150565b6000546001600160a01b031633146104d25760405162461bcd60e51b815260206004820181905260248201527f4f776e61626c653a2063616c6c6572206973206e6f7420746865206f776e65726044820152606401610395565b6104dc6000610eec565b565b60405163097da6d360e41b81526001600160a01b037f00000000000000000000000000000000000000000000000000000000000000008116600483015230602483018190526044830152600060648301819052608483018490529182917f000000000000000000000000000000000000000000000000000000000000000016906397da6d309060a40160408051808303816000875af1158015610585573d6000803e3d6000fd5b505050506040513d601f19601f820116820180604052508101906105a991906111ae565b50506040516370a0823160e01b81523060048201526000907f00000000000000000000000000000000000000000000000000000000000000006001600160a01b0316906370a0823190602401602060405180830381865afa158015610612573d6000803e3d6000fd5b505050506040513d601f19601f8201168201806040525081019061063691906111d2565b60405163c4de93a560e01b815261ffff7f0000000000000000000000000000000000000000000000000000000000000000166004820152602481018290523060448201529091506000906001600160a01b037f0000000000000000000000000000000000000000000000000000000000000000169063c4de93a5906064016020604051808303816000875af11580156106d3573d6000803e3d6000fd5b505050506040513d601f19601f820116820180604052508101906106f791906111d2565b506001546001600160a01b03161561086a576040516370a0823160e01b81523060048201527f00000000000000000000000000000000000000000000000000000000000000006001600160a01b0316906370a0823190602401602060405180830381865afa15801561076d573d6000803e3d6000fd5b505050506040513d601f19601f8201168201806040525081019061079191906111d2565b9150811561086557600154604051632f3fc5cd60e01b81526001600160a01b037f000000000000000000000000000000000000000000000000000000000000000081166004830152602482018590527f00000000000000000000000000000000000000000000000000000000000000008116604483015290911690632f3fc5cd906064016020604051808303816000875af1158015610834573d6000803e3d6000fd5b505050506040513d601f19601f8201168201806040525081019061085891906111d2565b6108629082611201565b90505b61093f565b6040516370a0823160e01b81523060048201527f00000000000000000000000000000000000000000000000000000000000000006001600160a01b0316906370a0823190602401602060405180830381865afa1580156108ce573d6000803e3d6000fd5b505050506040513d601f19601f820116820180604052508101906108f291906111d2565b1561093f5760405162461bcd60e51b815260206004820152601360248201527f43616e6e6f742066756c6c792072656465656d000000000000000000000000006044820152606401610395565b6040516370a0823160e01b81523060048201526001600160a01b037f00000000000000000000000000000000000000000000000000000000000000008116916344ee1986917f0000000000000000000000000000000000000000000000000000000000000000917f0000000000000000000000000000000000000000000000000000000000000000917f000000000000000000000000000000000000000000000000000000000000000016906370a0823190602401602060405180830381865afa158015610a11573d6000803e3d6000fd5b505050506040513d601f19601f82011682018060405250810190610a3591906111d2565b6040517fffffffff0000000000000000000000000000000000000000000000000000000060e086901b168152600f93840b60048201529190920b60248201526044810191909152600060648201526001600160a01b037f000000000000000000000000000000000000000000000000000000000000000016608482015260a4016020604051808303816000875af1158015610ad4573d6000803e3d6000fd5b505050506040513d601f19601f82011682018060405250810190610af891906111d2565b610b029082611201565b60405162ae511b60e21b81526001600160a01b037f0000000000000000000000000000000000000000000000000000000000000000811660048301527f0000000000000000000000000000000000000000000000000000000000000000811660248301819052908a16604483015260648201839052600060848301529192506302b9446c9060a40160408051808303816000875af1158015610ba8573d6000803e3d6000fd5b505050506040513d601f19601f82011682018060405250810190610bcc91906111ae565b9350610bda90508684611219565b935050509550959350505050565b6000546001600160a01b03163314610c425760405162461bcd60e51b815260206004820181905260248201527f4f776e61626c653a2063616c6c6572206973206e6f7420746865206f776e65726044820152606401610395565b6001600160a01b038116610ca75760405162461bcd60e51b815260206004820152602660248201527f4f776e61626c653a206e6577206f776e657220697320746865207a65726f206160448201526564647265737360d01b6064820152608401610395565b610cb081610eec565b50565b6060610cc28484600085610f49565b90505b9392505050565b801580610d465750604051636eb1769f60e11b81523060048201526001600160a01b03838116602483015284169063dd62ed3e90604401602060405180830381865afa158015610d20573d6000803e3d6000fd5b505050506040513d601f19601f82011682018060405250810190610d4491906111d2565b155b610db85760405162461bcd60e51b815260206004820152603660248201527f5361666545524332303a20617070726f76652066726f6d206e6f6e2d7a65726f60448201527f20746f206e6f6e2d7a65726f20616c6c6f77616e6365000000000000000000006064820152608401610395565b604080516001600160a01b03848116602483015260448083018590528351808403909101815260649092018352602080830180517bffffffffffffffffffffffffffffffffffffffffffffffffffffffff1663095ea7b360e01b17905283518085019094528084527f5361666545524332303a206c6f772d6c6576656c2063616c6c206661696c656490840152600092610e56929187169190610cb3565b805190915015610ee65780806020019051810190610e749190611230565b610ee65760405162461bcd60e51b815260206004820152602a60248201527f5361666545524332303a204552433230206f7065726174696f6e20646964206e60448201527f6f742073756363656564000000000000000000000000000000000000000000006064820152608401610395565b50505050565b600080546001600160a01b0383811673ffffffffffffffffffffffffffffffffffffffff19831681178455604051919092169283917f8be0079c531659141344cd1fd0a4f28419497f9722a3daafe3b4186f6b6457e09190a35050565b606082471015610faa5760405162461bcd60e51b815260206004820152602660248201527f416464726573733a20696e73756666696369656e742062616c616e636520666f6044820152651c8818d85b1b60d21b6064820152608401610395565b6001600160a01b0385163b6110015760405162461bcd60e51b815260206004820152601d60248201527f416464726573733a2063616c6c20746f206e6f6e2d636f6e74726163740000006044820152606401610395565b600080866001600160a01b0316858760405161101d919061127e565b60006040518083038185875af1925050503d806000811461105a576040519150601f19603f3d011682016040523d82523d6000602084013e61105f565b606091505b509150915061106f82828661107a565b979650505050505050565b60608315611089575081610cc5565b8251156110995782518084602001fd5b8160405162461bcd60e51b8152600401610395919061129a565b6001600160a01b0381168114610cb057600080fd5b6000602082840312156110da57600080fd5b8135610cc5816110b3565b60008060008060008060c087890312156110fe57600080fd5b8635611109816110b3565b95506020870135611119816110b3565b94506040870135611129816110b3565b93506060870135611139816110b3565b9598949750929560808101359460a0909101359350915050565b600080600080600060a0868803121561116b57600080fd5b8535611176816110b3565b94506020860135611186816110b3565b93506040860135611196816110b3565b94979396509394606081013594506080013592915050565b600080604083850312156111c157600080fd5b505080516020909101519092909150565b6000602082840312156111e457600080fd5b5051919050565b634e487b7160e01b600052601160045260246000fd5b60008219821115611214576112146111eb565b500190565b60008282101561122b5761122b6111eb565b500390565b60006020828403121561124257600080fd5b81518015158114610cc557600080fd5b60005b8381101561126d578181015183820152602001611255565b83811115610ee65750506000910152565b60008251611290818460208701611252565b9190910192915050565b60208152600082518060208401526112b9816040850160208701611252565b601f01601f1916919091016040019291505056fea2646970667358221220157ac062de3cb6bfbc0841a6f6b2dd7cdfcccdd73bfc577ca67779ac4ba3824f64736f6c634300080a0033",
  "devdoc": {
    "kind": "dev",
    "methods": {
      "owner()": {
        "details": "Returns the address of the current owner."
      },
      "renounceOwnership()": {
        "details": "Leaves the contract without owner. It will not be possible to call `onlyOwner` functions anymore. Can only be called by the current owner. NOTE: Renouncing ownership will leave the contract without an owner, thereby removing any functionality that is only available to the owner."
      },
      "transferOwnership(address)": {
        "details": "Transfers ownership of the contract to a new account (`newOwner`). Can only be called by the current owner."
      }
    },
    "version": 1
  },
  "userdoc": {
    "kind": "user",
    "methods": {
      "swap(address,address,address,uint256,uint256)": {
        "notice": "Withdraws 'amountFrom' of token 'from' from the BentoBox account for this swapper. Swaps it for at least 'amountToMin' of token 'to'. Transfers the swapped tokens of 'to' into the BentoBox using a plain ERC20 transfer. Returns the amount of tokens 'to' transferred to BentoBox. (The BentoBox skim function will be used by the caller to get the swapped funds)."
      },
      "swapExact(address,address,address,address,uint256,uint256)": {
        "notice": "Calculates the amount of token 'from' needed to complete the swap (amountFrom), this should be less than or equal to amountFromMax. Withdraws 'amountFrom' of token 'from' from the BentoBox account for this swapper. Swaps it for exactly 'exactAmountTo' of token 'to'. Transfers the swapped tokens of 'to' into the BentoBox using a plain ERC20 transfer. Transfers allocated, but unused 'from' tokens within the BentoBox to 'refundTo' (amountFromMax - amountFrom). Returns the amount of 'from' tokens withdrawn from BentoBox (amountFrom). (The BentoBox skim function will be used by the caller to get the swapped funds)."
      }
    },
    "notice": "Liquidation Swapper for Stargate LP using Curve",
    "version": 1
  },
  "storageLayout": {
    "storage": [
      {
        "astId": 7,
        "contract": "contracts/swappers/Liquidations/StargateCurveSwapperV2.sol:StargateCurveSwapperV2",
        "label": "_owner",
        "offset": 0,
        "slot": "0",
        "type": "t_address"
      },
      {
        "astId": 15717,
        "contract": "contracts/swappers/Liquidations/StargateCurveSwapperV2.sol:StargateCurveSwapperV2",
        "label": "mimPool",
        "offset": 0,
        "slot": "1",
        "type": "t_contract(IStargateLpMimPool)15677"
      }
    ],
    "types": {
      "t_address": {
        "encoding": "inplace",
        "label": "address",
        "numberOfBytes": "20"
      },
      "t_contract(IStargateLpMimPool)15677": {
        "encoding": "inplace",
        "label": "contract IStargateLpMimPool",
        "numberOfBytes": "20"
      }
    }
  }
}