{
  "address": "0x33c2854027A55279491017E1020aEe2eFF8B718A",
  "abi": [
    {
      "inputs": [
        {
          "internalType": "contract IStargatePool",
          "name": "_pool",
          "type": "address"
        },
        {
          "internalType": "contract IAggregator",
          "name": "_tokenOracle",
          "type": "address"
        },
        {
          "internalType": "string",
          "name": "_desc",
          "type": "string"
        }
      ],
      "stateMutability": "nonpayable",
      "type": "constructor"
    },
    {
      "inputs": [
        {
          "internalType": "bytes",
          "name": "",
          "type": "bytes"
        }
      ],
      "name": "get",
      "outputs": [
        {
          "internalType": "bool",
          "name": "",
          "type": "bool"
        },
        {
          "internalType": "uint256",
          "name": "",
          "type": "uint256"
        }
      ],
      "stateMutability": "view",
      "type": "function"
    },
    {
      "inputs": [
        {
          "internalType": "bytes",
          "name": "",
          "type": "bytes"
        }
      ],
      "name": "name",
      "outputs": [
        {
          "internalType": "string",
          "name": "",
          "type": "string"
        }
      ],
      "stateMutability": "view",
      "type": "function"
    },
    {
      "inputs": [
        {
          "internalType": "bytes",
          "name": "",
          "type": "bytes"
        }
      ],
      "name": "peek",
      "outputs": [
        {
          "internalType": "bool",
          "name": "",
          "type": "bool"
        },
        {
          "internalType": "uint256",
          "name": "",
          "type": "uint256"
        }
      ],
      "stateMutability": "view",
      "type": "function"
    },
    {
      "inputs": [
        {
          "internalType": "bytes",
          "name": "data",
          "type": "bytes"
        }
      ],
      "name": "peekSpot",
      "outputs": [
        {
          "internalType": "uint256",
          "name": "rate",
          "type": "uint256"
        }
      ],
      "stateMutability": "view",
      "type": "function"
    },
    {
      "inputs": [],
      "name": "pool",
      "outputs": [
        {
          "internalType": "contract IStargatePool",
          "name": "",
          "type": "address"
        }
      ],
      "stateMutability": "view",
      "type": "function"
    },
    {
      "inputs": [
        {
          "internalType": "bytes",
          "name": "",
          "type": "bytes"
        }
      ],
      "name": "symbol",
      "outputs": [
        {
          "internalType": "string",
          "name": "",
          "type": "string"
        }
      ],
      "stateMutability": "view",
      "type": "function"
    },
    {
      "inputs": [],
      "name": "tokenOracle",
      "outputs": [
        {
          "internalType": "contract IAggregator",
          "name": "",
          "type": "address"
        }
      ],
      "stateMutability": "view",
      "type": "function"
    }
  ],
  "transactionHash": "0xebb5454db815fffd8052cd1467a34128132a9a89ed398c9f5e1e11c45a1190e2",
  "args": [
    "0xdf0770dF86a8034b3EFEf0A1Bb3c889B8332FF56",
    "0x8fFfFfd4AfB6115b954Bd326cbe7B4BA576818f6",
    "LINK/USDC"
  ],
  "numDeployments": 1,
  "solcInputHash": "2aef7030060e2318cf6f7b4df6354c1b",
  "bytecode": "0x60c060405234801561001057600080fd5b5060405161080438038061080483398101604081905261002f91610125565b6001600160a01b03808416608052821660a052805161005590600090602084019061005e565b50505050610259565b82805461006a9061021e565b90600052602060002090601f01602090048101928261008c57600085556100d2565b82601f106100a557805160ff19168380011785556100d2565b828001600101855582156100d2579182015b828111156100d25782518255916020019190600101906100b7565b506100de9291506100e2565b5090565b5b808211156100de57600081556001016100e3565b6001600160a01b038116811461010c57600080fd5b50565b634e487b7160e01b600052604160045260246000fd5b60008060006060848603121561013a57600080fd5b8351610145816100f7565b80935050602080850151610158816100f7565b60408601519093506001600160401b038082111561017557600080fd5b818701915087601f83011261018957600080fd5b81518181111561019b5761019b61010f565b604051601f8201601f19908116603f011681019083821181831017156101c3576101c361010f565b816040528281528a868487010111156101db57600080fd5b600093505b828410156101fd57848401860151818501870152928501926101e0565b8284111561020e5760008684830101525b8096505050505050509250925092565b600181811c9082168061023257607f821691505b6020821081141561025357634e487b7160e01b600052602260045260246000fd5b50919050565b60805160a0516105736102916000396000818160cb01526102a001526000818160870152818161021e015261032201526105736000f3fe608060405234801561001057600080fd5b506004361061007d5760003560e01c8063d39bbef01161005b578063d39bbef01461010d578063d568866c146100ed578063d6d7d5251461012e578063eeb8a8d31461012e57600080fd5b806316f0115b146100825780636c5ec25c146100c6578063c699c4d6146100ed575b600080fd5b6100a97f000000000000000000000000000000000000000000000000000000000000000081565b6040516001600160a01b0390911681526020015b60405180910390f35b6100a97f000000000000000000000000000000000000000000000000000000000000000081565b6101006100fb3660046103d3565b610158565b6040516100bd9190610445565b61012061011b3660046103d3565b6101ed565b6040519081526020016100bd565b61014161013c3660046103d3565b610201565b6040805192151583526020830191909152016100bd565b6060600080546101679061049a565b80601f01602080910402602001604051908101604052809291908181526020018280546101939061049a565b80156101e05780601f106101b5576101008083540402835291602001916101e0565b820191906000526020600020905b8154815290600101906020018083116101c357829003601f168201915b5050505050905092915050565b60006101f98383610201565b949350505050565b600080600161020e610219565b915091509250929050565b6000807f00000000000000000000000000000000000000000000000000000000000000006001600160a01b03166318160ddd6040518163ffffffff1660e01b8152600401602060405180830381865afa15801561027a573d6000803e3d6000fd5b505050506040513d601f19601f8201168201806040525081019061029e91906104d5565b7f00000000000000000000000000000000000000000000000000000000000000006001600160a01b03166350d25bcd6040518163ffffffff1660e01b8152600401602060405180830381865afa1580156102fc573d6000803e3d6000fd5b505050506040513d601f19601f8201168201806040525081019061032091906104d5565b7f00000000000000000000000000000000000000000000000000000000000000006001600160a01b03166315770f926040518163ffffffff1660e01b8152600401602060405180830381865afa15801561037e573d6000803e3d6000fd5b505050506040513d601f19601f820116820180604052508101906103a291906104d5565b6103ac91906104ee565b6103b6919061051b565b90506103cd816a52b7d2dcc80cd2e400000061051b565b91505090565b600080602083850312156103e657600080fd5b823567ffffffffffffffff808211156103fe57600080fd5b818501915085601f83011261041257600080fd5b81358181111561042157600080fd5b86602082850101111561043357600080fd5b60209290920196919550909350505050565b600060208083528351808285015260005b8181101561047257858101830151858201604001528201610456565b81811115610484576000604083870101525b50601f01601f1916929092016040019392505050565b600181811c908216806104ae57607f821691505b602082108114156104cf57634e487b7160e01b600052602260045260246000fd5b50919050565b6000602082840312156104e757600080fd5b5051919050565b600081600019048311821515161561051657634e487b7160e01b600052601160045260246000fd5b500290565b60008261053857634e487b7160e01b600052601260045260246000fd5b50049056fea2646970667358221220adc0765eaec16e21e12a398a93d9982bf374cc924534a122cde86c2748e76f2164736f6c634300080a0033",
  "devdoc": {
    "kind": "dev",
    "methods": {
      "get(bytes)": {
        "params": {
          "data": "Usually abi encoded, implementation specific data that contains information and arguments to & about the oracle. For example: (string memory collateralSymbol, string memory assetSymbol, uint256 division) = abi.decode(data, (string, string, uint256));"
        },
        "returns": {
          "_0": "if no valid (recent) rate is available, return false else true.",
          "_1": "The rate of the requested asset / pair / pool."
        }
      },
      "name(bytes)": {
        "params": {
          "data": "Usually abi encoded, implementation specific data that contains information and arguments to & about the oracle. For example: (string memory collateralSymbol, string memory assetSymbol, uint256 division) = abi.decode(data, (string, string, uint256));"
        },
        "returns": {
          "_0": "(string) A human readable name about this oracle."
        }
      },
      "peek(bytes)": {
        "params": {
          "data": "Usually abi encoded, implementation specific data that contains information and arguments to & about the oracle. For example: (string memory collateralSymbol, string memory assetSymbol, uint256 division) = abi.decode(data, (string, string, uint256));"
        },
        "returns": {
          "_0": "if no valid (recent) rate is available, return false else true.",
          "_1": "The rate of the requested asset / pair / pool."
        }
      },
      "peekSpot(bytes)": {
        "params": {
          "data": "Usually abi encoded, implementation specific data that contains information and arguments to & about the oracle. For example: (string memory collateralSymbol, string memory assetSymbol, uint256 division) = abi.decode(data, (string, string, uint256));"
        },
        "returns": {
          "rate": "The rate of the requested asset / pair / pool."
        }
      },
      "symbol(bytes)": {
        "params": {
          "data": "Usually abi encoded, implementation specific data that contains information and arguments to & about the oracle. For example: (string memory collateralSymbol, string memory assetSymbol, uint256 division) = abi.decode(data, (string, string, uint256));"
        },
        "returns": {
          "_0": "(string) A human readable symbol name about this oracle."
        }
      }
    },
    "version": 1
  },
  "userdoc": {
    "kind": "user",
    "methods": {
      "get(bytes)": {
        "notice": "Get the latest exchange rate."
      },
      "name(bytes)": {
        "notice": "Returns a human readable name about this oracle."
      },
      "peek(bytes)": {
        "notice": "Check the last exchange rate without any state changes."
      },
      "peekSpot(bytes)": {
        "notice": "Check the current spot exchange rate without any state changes. For oracles like TWAP this will be different from peek()."
      },
      "symbol(bytes)": {
        "notice": "Returns a human readable (short) name about this oracle."
      }
    },
    "version": 1
  },
  "storageLayout": {
    "storage": [
      {
        "astId": 12021,
        "contract": "contracts/oracles/StargateLPOracle.sol:StargateLPOracle",
        "label": "desc",
        "offset": 0,
        "slot": "0",
        "type": "t_string_storage"
      }
    ],
    "types": {
      "t_string_storage": {
        "encoding": "bytes",
        "label": "string",
        "numberOfBytes": "32"
      }
    }
  }
}