{
  "address": "0xD69E75C1c2a0f2838A6bbA8BDFf9d08C8f137cD9",
  "abi": [
    {
      "inputs": [
        {
          "internalType": "contract IConvex",
          "name": "_stkFrax3Crv",
          "type": "address"
        }
      ],
      "stateMutability": "nonpayable",
      "type": "constructor"
    },
    {
      "inputs": [],
      "name": "FRAX3CRV",
      "outputs": [
        {
          "internalType": "contract IERC20",
          "name": "",
          "type": "address"
        }
      ],
      "stateMutability": "view",
      "type": "function"
    },
    {
      "inputs": [],
      "name": "FRAX3CRVPOOL",
      "outputs": [
        {
          "internalType": "address",
          "name": "",
          "type": "address"
        }
      ],
      "stateMutability": "view",
      "type": "function"
    },
    {
      "inputs": [],
      "name": "MIM",
      "outputs": [
        {
          "internalType": "contract IERC20",
          "name": "",
          "type": "address"
        }
      ],
      "stateMutability": "view",
      "type": "function"
    },
    {
      "inputs": [],
      "name": "MIM3POOL",
      "outputs": [
        {
          "internalType": "contract CurvePool",
          "name": "",
          "type": "address"
        }
      ],
      "stateMutability": "view",
      "type": "function"
    },
    {
      "inputs": [],
      "name": "TETHER",
      "outputs": [
        {
          "internalType": "contract TetherToken",
          "name": "",
          "type": "address"
        }
      ],
      "stateMutability": "view",
      "type": "function"
    },
    {
      "inputs": [],
      "name": "bentoBox",
      "outputs": [
        {
          "internalType": "contract IBentoBoxV1",
          "name": "",
          "type": "address"
        }
      ],
      "stateMutability": "view",
      "type": "function"
    },
    {
      "inputs": [],
      "name": "stkFrax3Crv",
      "outputs": [
        {
          "internalType": "contract IConvex",
          "name": "",
          "type": "address"
        }
      ],
      "stateMutability": "view",
      "type": "function"
    },
    {
      "inputs": [
        {
          "internalType": "contract IERC20",
          "name": "",
          "type": "address"
        },
        {
          "internalType": "contract IERC20",
          "name": "",
          "type": "address"
        },
        {
          "internalType": "address",
          "name": "recipient",
          "type": "address"
        },
        {
          "internalType": "uint256",
          "name": "shareToMin",
          "type": "uint256"
        },
        {
          "internalType": "uint256",
          "name": "shareFrom",
          "type": "uint256"
        }
      ],
      "name": "swap",
      "outputs": [
        {
          "internalType": "uint256",
          "name": "extraShare",
          "type": "uint256"
        },
        {
          "internalType": "uint256",
          "name": "shareReturned",
          "type": "uint256"
        }
      ],
      "stateMutability": "nonpayable",
      "type": "function"
    },
    {
      "inputs": [
        {
          "internalType": "contract IERC20",
          "name": "",
          "type": "address"
        },
        {
          "internalType": "contract IERC20",
          "name": "",
          "type": "address"
        },
        {
          "internalType": "address",
          "name": "",
          "type": "address"
        },
        {
          "internalType": "address",
          "name": "",
          "type": "address"
        },
        {
          "internalType": "uint256",
          "name": "",
          "type": "uint256"
        },
        {
          "internalType": "uint256",
          "name": "",
          "type": "uint256"
        }
      ],
      "name": "swapExact",
      "outputs": [
        {
          "internalType": "uint256",
          "name": "shareUsed",
          "type": "uint256"
        },
        {
          "internalType": "uint256",
          "name": "shareReturned",
          "type": "uint256"
        }
      ],
      "stateMutability": "nonpayable",
      "type": "function"
    },
    {
      "inputs": [],
      "name": "threePool",
      "outputs": [
        {
          "internalType": "contract CurvePool",
          "name": "",
          "type": "address"
        }
      ],
      "stateMutability": "view",
      "type": "function"
    }
  ],
  "transactionHash": "0x87e0f7f4dc1f17d0d6205b58d7906fd37901296bbb0145c52177428daf051672",
  "args": [
    "0x873221f8651bC14aa58b79489a4A927130259844"
  ],
  "numDeployments": 2,
  "solcInputHash": "f8f4d505da7c6637f6dea09d05f4a402",
  "bytecode": "0x60a060405234801561001057600080fd5b506040516108993803806108998339818101604052602081101561003357600080fd5b50516001600160601b0319606082901b166080526040805163095ea7b360e01b8152735a6a4d54456819380173272a5e8e9b9904bdf41b6004820152600019602482015290517399d8a9c45b2eca8864373a26d1459e3dff1e17f39163095ea7b39160448083019260209291908290030181600087803b1580156100b657600080fd5b505af11580156100ca573d6000803e3d6000fd5b505050506040513d60208110156100e057600080fd5b50506040805163095ea7b360e01b8152735a6a4d54456819380173272a5e8e9b9904bdf41b60048201526000196024820152905173dac17f958d2ee523a2206206994597c13d831ec79163095ea7b391604480830192600092919082900301818387803b15801561015057600080fd5b505af1158015610164573d6000803e3d6000fd5b50506040805163095ea7b360e01b815273a79828df1850e8a3a3064576f380d90aecdd335960048201526000196024820152905173d632f22692fac7611d2aa1c0d552930d43caed3b935063095ea7b3925060448083019260209291908290030181600087803b1580156101d757600080fd5b505af11580156101eb573d6000803e3d6000fd5b505050506040513d602081101561020157600080fd5b50505060805160601c61066e61022b600039806101a05280610270528061034a525061066e6000f3fe608060405234801561001057600080fd5b506004361061009e5760003560e01c806378e7e3d11161006657806378e7e3d11461014457806382a485a01461014c578063a80e2b371461014c578063daec383d14610154578063e343fe121461015c5761009e565b806304300820146100a357806322a88c09146100c75780634622be90146100cf5780635305bd8e146101345780636b2ace871461013c575b600080fd5b6100ab61019e565b604080516001600160a01b039092168252519081900360200190f35b6100ab6101c2565b61011b600480360360c08110156100e557600080fd5b506001600160a01b0381358116916020810135821691604082013581169160608101359091169060808101359060a001356101da565b6040805192835260208301919091528051918290030190f35b6100ab6101e8565b6100ab610200565b6100ab610218565b6100ab610230565b6100ab610248565b61011b600480360360a081101561017257600080fd5b506001600160a01b03813581169160208101358216916040820135169060608101359060800135610260565b7f000000000000000000000000000000000000000000000000000000000000000081565b735a6a4d54456819380173272a5e8e9b9904bdf41b81565b600080965096945050505050565b73a79828df1850e8a3a3064576f380d90aecdd335981565b73f5bce5077908a1b7370b9ae04adc565ebd64396681565b73dac17f958d2ee523a2206206994597c13d831ec781565b73d632f22692fac7611d2aa1c0d552930d43caed3b81565b7399d8a9c45b2eca8864373a26d1459e3dff1e17f381565b6040805163097da6d360e41b81527f00000000000000000000000000000000000000000000000000000000000000006001600160a01b031660048201523060248201819052604482015260006064820181905260848201849052825190928392839273f5bce5077908a1b7370b9ae04adc565ebd643966926397da6d309260a4808201939182900301818787803b1580156102fa57600080fd5b505af115801561030e573d6000803e3d6000fd5b505050506040513d604081101561032457600080fd5b505160408051630e5a77ed60e21b81526004810183905290519192506001600160a01b037f00000000000000000000000000000000000000000000000000000000000000001691633969dfb49160248082019260009290919082900301818387803b15801561039257600080fd5b505af11580156103a6573d6000803e3d6000fd5b5050604080516314f6943160e11b815273d632f22692fac7611d2aa1c0d552930d43caed3b60048201526024810185905260036044820152600060648201819052915191935073a79828df1850e8a3a3064576f380d90aecdd335992506329ed286291608480830192602092919082900301818787803b15801561042957600080fd5b505af115801561043d573d6000803e3d6000fd5b505050506040513d602081101561045357600080fd5b5051604080516322770cc360e11b815260036004820152600060248201819052604482018490526064820181905273f5bce5077908a1b7370b9ae04adc565ebd643966608483015291519293509091735a6a4d54456819380173272a5e8e9b9904bdf41b916344ee19869160a480830192602092919082900301818787803b1580156104de57600080fd5b505af11580156104f2573d6000803e3d6000fd5b505050506040513d602081101561050857600080fd5b50516040805162ae511b60e21b81527399d8a9c45b2eca8864373a26d1459e3dff1e17f3600482015273f5bce5077908a1b7370b9ae04adc565ebd643966602482018190526001600160a01b038c16604483015260648201849052600060848301819052835194955090936302b9446c9360a4808501949193918390030190829087803b15801561059857600080fd5b505af11580156105ac573d6000803e3d6000fd5b505050506040513d60408110156105c257600080fd5b506020015193506105d384886105e2565b94505050509550959350505050565b80820382811115610632576040805162461bcd60e51b8152602060048201526015602482015274426f72696e674d6174683a20556e646572666c6f7760581b604482015290519081900360640190fd5b9291505056fea2646970667358221220530da570867cd63c33a48649eb933b0bb0262efa4212b1cc4687e82bfd9b110d64736f6c634300060c0033",
  "devdoc": {
    "kind": "dev",
    "methods": {},
    "version": 1
  },
  "userdoc": {
    "kind": "user",
    "methods": {
      "swap(address,address,address,uint256,uint256)": {
        "notice": "Withdraws 'amountFrom' of token 'from' from the BentoBox account for this swapper. Swaps it for at least 'amountToMin' of token 'to'. Transfers the swapped tokens of 'to' into the BentoBox using a plain ERC20 transfer. Returns the amount of tokens 'to' transferred to BentoBox. (The BentoBox skim function will be used by the caller to get the swapped funds)."
      },
      "swapExact(address,address,address,address,uint256,uint256)": {
        "notice": "Calculates the amount of token 'from' needed to complete the swap (amountFrom), this should be less than or equal to amountFromMax. Withdraws 'amountFrom' of token 'from' from the BentoBox account for this swapper. Swaps it for exactly 'exactAmountTo' of token 'to'. Transfers the swapped tokens of 'to' into the BentoBox using a plain ERC20 transfer. Transfers allocated, but unused 'from' tokens within the BentoBox to 'refundTo' (amountFromMax - amountFrom). Returns the amount of 'from' tokens withdrawn from BentoBox (amountFrom). (The BentoBox skim function will be used by the caller to get the swapped funds)."
      }
    },
    "version": 1
  },
  "storageLayout": {
    "storage": [],
    "types": null
  }
}