{
  "address": "0xFd2281453d970964c46B58CD4eBF50B45E820D58",
  "abi": [
    {
      "inputs": [
        {
          "internalType": "contract IConvex",
          "name": "_stkFrax3Crv",
          "type": "address"
        }
      ],
      "stateMutability": "nonpayable",
      "type": "constructor"
    },
    {
      "inputs": [],
      "name": "FRAX3CRV",
      "outputs": [
        {
          "internalType": "contract IERC20",
          "name": "",
          "type": "address"
        }
      ],
      "stateMutability": "view",
      "type": "function"
    },
    {
      "inputs": [],
      "name": "MIM",
      "outputs": [
        {
          "internalType": "contract IERC20",
          "name": "",
          "type": "address"
        }
      ],
      "stateMutability": "view",
      "type": "function"
    },
    {
      "inputs": [],
      "name": "MIM3POOL",
      "outputs": [
        {
          "internalType": "contract CurvePool",
          "name": "",
          "type": "address"
        }
      ],
      "stateMutability": "view",
      "type": "function"
    },
    {
      "inputs": [],
      "name": "TETHER",
      "outputs": [
        {
          "internalType": "contract TetherToken",
          "name": "",
          "type": "address"
        }
      ],
      "stateMutability": "view",
      "type": "function"
    },
    {
      "inputs": [],
      "name": "bentoBox",
      "outputs": [
        {
          "internalType": "contract IBentoBoxV1",
          "name": "",
          "type": "address"
        }
      ],
      "stateMutability": "view",
      "type": "function"
    },
    {
      "inputs": [],
      "name": "stkFrax3Crv",
      "outputs": [
        {
          "internalType": "contract IConvex",
          "name": "",
          "type": "address"
        }
      ],
      "stateMutability": "view",
      "type": "function"
    },
    {
      "inputs": [
        {
          "internalType": "address",
          "name": "recipient",
          "type": "address"
        },
        {
          "internalType": "uint256",
          "name": "shareToMin",
          "type": "uint256"
        },
        {
          "internalType": "uint256",
          "name": "shareFrom",
          "type": "uint256"
        }
      ],
      "name": "swap",
      "outputs": [
        {
          "internalType": "uint256",
          "name": "extraShare",
          "type": "uint256"
        },
        {
          "internalType": "uint256",
          "name": "shareReturned",
          "type": "uint256"
        }
      ],
      "stateMutability": "nonpayable",
      "type": "function"
    },
    {
      "inputs": [],
      "name": "threePool",
      "outputs": [
        {
          "internalType": "contract CurvePool",
          "name": "",
          "type": "address"
        }
      ],
      "stateMutability": "view",
      "type": "function"
    }
  ],
  "transactionHash": "0x0cfba6d06af0517b994bd0179d6275f7aecf5075ad31474f0fde337278dbfbe1",
  "args": [
    "0x873221f8651bC14aa58b79489a4A927130259844"
  ],
  "numDeployments": 2,
  "solcInputHash": "f8f4d505da7c6637f6dea09d05f4a402",
  "bytecode": "0x60a060405234801561001057600080fd5b506040516108863803806108868339818101604052602081101561003357600080fd5b50516001600160601b0319606082901b166080526040805163095ea7b360e01b8152735a6a4d54456819380173272a5e8e9b9904bdf41b6004820152600019602482015290517399d8a9c45b2eca8864373a26d1459e3dff1e17f39163095ea7b39160448083019260209291908290030181600087803b1580156100b657600080fd5b505af11580156100ca573d6000803e3d6000fd5b505050506040513d60208110156100e057600080fd5b50506040805163095ea7b360e01b815273a79828df1850e8a3a3064576f380d90aecdd335960048201526000196024820152905173dac17f958d2ee523a2206206994597c13d831ec79163095ea7b391604480830192600092919082900301818387803b15801561015057600080fd5b505af1158015610164573d6000803e3d6000fd5b50506040805163095ea7b360e01b81526001600160a01b03851660048201526000196024820152905173d632f22692fac7611d2aa1c0d552930d43caed3b935063095ea7b3925060448083019260209291908290030181600087803b1580156101cc57600080fd5b505af11580156101e0573d6000803e3d6000fd5b505050506040513d60208110156101f657600080fd5b50505060805160601c6106666102206000398061012e528061046352806104d852506106666000f3fe608060405234801561001057600080fd5b50600436106100885760003560e01c806378e7e3d11161005b57806378e7e3d1146100c957806382a485a0146100d15780639f1d0f59146100d9578063daec383d1461012457610088565b8063043008201461008d57806322a88c09146100b15780635305bd8e146100b95780636b2ace87146100c1575b600080fd5b61009561012c565b604080516001600160a01b039092168252519081900360200190f35b610095610150565b610095610168565b610095610180565b610095610198565b6100956101b0565b61010b600480360360608110156100ef57600080fd5b506001600160a01b0381351690602081013590604001356101c8565b6040805192835260208301919091528051918290030190f35b6100956105a4565b7f000000000000000000000000000000000000000000000000000000000000000081565b735a6a4d54456819380173272a5e8e9b9904bdf41b81565b73a79828df1850e8a3a3064576f380d90aecdd335981565b73f5bce5077908a1b7370b9ae04adc565ebd64396681565b73dac17f958d2ee523a2206206994597c13d831ec781565b73d632f22692fac7611d2aa1c0d552930d43caed3b81565b6040805163097da6d360e41b81527399d8a9c45b2eca8864373a26d1459e3dff1e17f360048201523060248201819052604482015260006064820181905260848201849052825190928392839273f5bce5077908a1b7370b9ae04adc565ebd643966926397da6d309260a4808201939182900301818787803b15801561024d57600080fd5b505af1158015610261573d6000803e3d6000fd5b505050506040513d604081101561027757600080fd5b5051604080516322770cc360e11b815260006004820181905260036024830152604482018490526064820181905230608483015291519293509091735a6a4d54456819380173272a5e8e9b9904bdf41b916344ee19869160a480830192602092919082900301818787803b1580156102ee57600080fd5b505af1158015610302573d6000803e3d6000fd5b505050506040513d602081101561031857600080fd5b50519050610324610612565b6040518060800160405280600081526020016000815260200160008152602001838152509050600073a79828df1850e8a3a3064576f380d90aecdd33596001600160a01b031663384e03db73d632f22692fac7611d2aa1c0d552930d43caed3b8460006040518463ffffffff1660e01b815260040180846001600160a01b0316815260200183600460200280838360005b838110156103cd5781810151838201526020016103b5565b505050509050018281526020019350505050602060405180830381600087803b1580156103f957600080fd5b505af115801561040d573d6000803e3d6000fd5b505050506040513d602081101561042357600080fd5b505160408051636e553f6560e01b81526004810183905273f5bce5077908a1b7370b9ae04adc565ebd643966602482015290519192506001600160a01b037f00000000000000000000000000000000000000000000000000000000000000001691636e553f659160448082019260009290919082900301818387803b1580156104ab57600080fd5b505af11580156104bf573d6000803e3d6000fd5b50506040805162ae511b60e21b81526001600160a01b037f00000000000000000000000000000000000000000000000000000000000000008116600483015273f5bce5077908a1b7370b9ae04adc565ebd64396660248301819052908e1660448301526064820186905260006084830181905283519195506302b9446c945060a480840194938390030190829087803b15801561055b57600080fd5b505af115801561056f573d6000803e3d6000fd5b505050506040513d604081101561058557600080fd5b5060200151945061059685896105bc565b955050505050935093915050565b7399d8a9c45b2eca8864373a26d1459e3dff1e17f381565b8082038281111561060c576040805162461bcd60e51b8152602060048201526015602482015274426f72696e674d6174683a20556e646572666c6f7760581b604482015290519081900360640190fd5b92915050565b6040518060800160405280600490602082028036833750919291505056fea26469706673582212209a8343b14bc07e0de3126fe7aa4734b6af21f5961aa127d19b54444b0eee1e1e64736f6c634300060c0033",
  "devdoc": {
    "kind": "dev",
    "methods": {},
    "version": 1
  },
  "userdoc": {
    "kind": "user",
    "methods": {},
    "version": 1
  },
  "storageLayout": {
    "storage": [],
    "types": null
  }
}