{
  "address": "0x30D525cbB79D2baaE7637eA748631a6360Ce7c16",
  "abi": [
    {
      "inputs": [
        {
          "internalType": "contract IConvex",
          "name": "_stkFrax3Crv",
          "type": "address"
        }
      ],
      "stateMutability": "nonpayable",
      "type": "constructor"
    },
    {
      "inputs": [],
      "name": "FRAX3CRV",
      "outputs": [
        {
          "internalType": "contract IERC20",
          "name": "",
          "type": "address"
        }
      ],
      "stateMutability": "view",
      "type": "function"
    },
    {
      "inputs": [],
      "name": "FRAX3CRVPOOL",
      "outputs": [
        {
          "internalType": "address",
          "name": "",
          "type": "address"
        }
      ],
      "stateMutability": "view",
      "type": "function"
    },
    {
      "inputs": [],
      "name": "MIM",
      "outputs": [
        {
          "internalType": "contract IERC20",
          "name": "",
          "type": "address"
        }
      ],
      "stateMutability": "view",
      "type": "function"
    },
    {
      "inputs": [],
      "name": "MIM3POOL",
      "outputs": [
        {
          "internalType": "contract CurvePool",
          "name": "",
          "type": "address"
        }
      ],
      "stateMutability": "view",
      "type": "function"
    },
    {
      "inputs": [],
      "name": "TETHER",
      "outputs": [
        {
          "internalType": "contract TetherToken",
          "name": "",
          "type": "address"
        }
      ],
      "stateMutability": "view",
      "type": "function"
    },
    {
      "inputs": [],
      "name": "bentoBox",
      "outputs": [
        {
          "internalType": "contract IBentoBoxV1",
          "name": "",
          "type": "address"
        }
      ],
      "stateMutability": "view",
      "type": "function"
    },
    {
      "inputs": [],
      "name": "stkFrax3Crv",
      "outputs": [
        {
          "internalType": "contract IConvex",
          "name": "",
          "type": "address"
        }
      ],
      "stateMutability": "view",
      "type": "function"
    },
    {
      "inputs": [
        {
          "internalType": "contract IERC20",
          "name": "",
          "type": "address"
        },
        {
          "internalType": "contract IERC20",
          "name": "",
          "type": "address"
        },
        {
          "internalType": "address",
          "name": "recipient",
          "type": "address"
        },
        {
          "internalType": "uint256",
          "name": "shareToMin",
          "type": "uint256"
        },
        {
          "internalType": "uint256",
          "name": "shareFrom",
          "type": "uint256"
        }
      ],
      "name": "swap",
      "outputs": [
        {
          "internalType": "uint256",
          "name": "extraShare",
          "type": "uint256"
        },
        {
          "internalType": "uint256",
          "name": "shareReturned",
          "type": "uint256"
        }
      ],
      "stateMutability": "nonpayable",
      "type": "function"
    },
    {
      "inputs": [
        {
          "internalType": "contract IERC20",
          "name": "",
          "type": "address"
        },
        {
          "internalType": "contract IERC20",
          "name": "",
          "type": "address"
        },
        {
          "internalType": "address",
          "name": "",
          "type": "address"
        },
        {
          "internalType": "address",
          "name": "",
          "type": "address"
        },
        {
          "internalType": "uint256",
          "name": "",
          "type": "uint256"
        },
        {
          "internalType": "uint256",
          "name": "",
          "type": "uint256"
        }
      ],
      "name": "swapExact",
      "outputs": [
        {
          "internalType": "uint256",
          "name": "shareUsed",
          "type": "uint256"
        },
        {
          "internalType": "uint256",
          "name": "shareReturned",
          "type": "uint256"
        }
      ],
      "stateMutability": "nonpayable",
      "type": "function"
    },
    {
      "inputs": [],
      "name": "threePool",
      "outputs": [
        {
          "internalType": "contract CurvePool",
          "name": "",
          "type": "address"
        }
      ],
      "stateMutability": "view",
      "type": "function"
    }
  ],
  "transactionHash": "0x7696d1846de94ee7c4fa47cab41b3d0660a8b2361679307c9e56758b1cac62ce",
  "args": [
    "0x2F1Ba281cA9c32BCe9C6E8792Ba6448434178f89"
  ],
  "solcInputHash": "928f1966404f6c7065a6e867df9f0555",
  "bytecode": "0x60a060405234801561001057600080fd5b50604051610a3d380380610a3d83398101604081905261002f91610233565b6001600160601b0319606082901b1660805260405163095ea7b360e01b81527399d8a9c45b2eca8864373a26d1459e3dff1e17f39063095ea7b39061009090735a6a4d54456819380173272a5e8e9b9904bdf41b906000199060040161025a565b602060405180830381600087803b1580156100aa57600080fd5b505af11580156100be573d6000803e3d6000fd5b505050506040513d601f19601f820116820180604052508101906100e2919061020c565b5060405163095ea7b360e01b815273dac17f958d2ee523a2206206994597c13d831ec79063095ea7b39061013290735a6a4d54456819380173272a5e8e9b9904bdf41b906000199060040161025a565b600060405180830381600087803b15801561014c57600080fd5b505af1158015610160573d6000803e3d6000fd5b505060405163095ea7b360e01b815273d632f22692fac7611d2aa1c0d552930d43caed3b925063095ea7b391506101b39073a79828df1850e8a3a3064576f380d90aecdd3359906000199060040161025a565b602060405180830381600087803b1580156101cd57600080fd5b505af11580156101e1573d6000803e3d6000fd5b505050506040513d601f19601f82011682018060405250810190610205919061020c565b5050610273565b60006020828403121561021d578081fd5b8151801515811461022c578182fd5b9392505050565b600060208284031215610244578081fd5b81516001600160a01b038116811461022c578182fd5b6001600160a01b03929092168252602082015260400190565b60805160601c6107a361029a60003980610127528061021d52806102b952506107a36000f3fe608060405234801561001057600080fd5b506004361061009e5760003560e01c806378e7e3d11161006657806378e7e3d1146100fa57806382a485a014610102578063a80e2b3714610102578063daec383d1461010a578063e343fe12146101125761009e565b806304300820146100a357806322a88c09146100c15780634622be90146100c95780635305bd8e146100ea5780636b2ace87146100f2575b600080fd5b6100ab610125565b6040516100b8919061066b565b60405180910390f35b6100ab610149565b6100dc6100d7366004610569565b610161565b6040516100b8929190610747565b6100ab61016f565b6100ab610187565b6100ab61019f565b6100ab6101b7565b6100ab6101cf565b6100dc6101203660046105d6565b6101e7565b7f000000000000000000000000000000000000000000000000000000000000000081565b735a6a4d54456819380173272a5e8e9b9904bdf41b81565b600080965096945050505050565b73a79828df1850e8a3a3064576f380d90aecdd335981565b73f5bce5077908a1b7370b9ae04adc565ebd64396681565b73dac17f958d2ee523a2206206994597c13d831ec781565b73d632f22692fac7611d2aa1c0d552930d43caed3b81565b7399d8a9c45b2eca8864373a26d1459e3dff1e17f381565b60405163097da6d360e41b81526000908190819073f5bce5077908a1b7370b9ae04adc565ebd643966906397da6d309061024d907f0000000000000000000000000000000000000000000000000000000000000000903090819087908b906004016106a8565b6040805180830381600087803b15801561026657600080fd5b505af115801561027a573d6000803e3d6000fd5b505050506040513d601f19601f8201168201806040525081019061029e9190610648565b50604051630e5a77ed60e21b81529091506001600160a01b037f00000000000000000000000000000000000000000000000000000000000000001690633969dfb4906102ee90849060040161073e565b600060405180830381600087803b15801561030857600080fd5b505af115801561031c573d6000803e3d6000fd5b50506040516314f6943160e11b81526000925073a79828df1850e8a3a3064576f380d90aecdd335991506329ed2862906103759073d632f22692fac7611d2aa1c0d552930d43caed3b908690600390879060040161067f565b602060405180830381600087803b15801561038f57600080fd5b505af11580156103a3573d6000803e3d6000fd5b505050506040513d601f19601f820116820180604052508101906103c79190610630565b6040516322770cc360e11b8152909150600090735a6a4d54456819380173272a5e8e9b9904bdf41b906344ee1986906104219060039085908790829073f5bce5077908a1b7370b9ae04adc565ebd643966906004016106dc565b602060405180830381600087803b15801561043b57600080fd5b505af115801561044f573d6000803e3d6000fd5b505050506040513d601f19601f820116820180604052508101906104739190610630565b60405162ae511b60e21b815290915073f5bce5077908a1b7370b9ae04adc565ebd643966906302b9446c906104c9907399d8a9c45b2eca8864373a26d1459e3dff1e17f39084908d9087906000906004016106a8565b6040805180830381600087803b1580156104e257600080fd5b505af11580156104f6573d6000803e3d6000fd5b505050506040513d601f19601f8201168201806040525081019061051a9190610648565b945061052890508488610537565b94505050509550959350505050565b808203828111156105635760405162461bcd60e51b815260040161055a9061070f565b60405180910390fd5b92915050565b60008060008060008060c08789031215610581578182fd5b863561058c81610755565b9550602087013561059c81610755565b945060408701356105ac81610755565b935060608701356105bc81610755565b9598949750929560808101359460a0909101359350915050565b600080600080600060a086880312156105ed578081fd5b85356105f881610755565b9450602086013561060881610755565b9350604086013561061881610755565b94979396509394606081013594506080013592915050565b600060208284031215610641578081fd5b5051919050565b6000806040838503121561065a578182fd5b505080516020909101519092909150565b6001600160a01b0391909116815260200190565b6001600160a01b039490941684526020840192909252600f0b6040830152606082015260800190565b6001600160a01b03958616815293851660208501529190931660408301526060820192909252608081019190915260a00190565b600f95860b81529390940b6020840152604083019190915260608201526001600160a01b03909116608082015260a00190565b602080825260159082015274426f72696e674d6174683a20556e646572666c6f7760581b604082015260600190565b90815260200190565b918252602082015260400190565b6001600160a01b038116811461076a57600080fd5b5056fea26469706673582212206711f0a85d1b54dfdb1e72b5dca702c7ecd25f6e876c00dd70981114589d4ddc64736f6c634300060c0033",
  "devdoc": {
    "kind": "dev",
    "methods": {},
    "version": 1
  },
  "userdoc": {
    "kind": "user",
    "methods": {
      "swap(address,address,address,uint256,uint256)": {
        "notice": "Withdraws 'amountFrom' of token 'from' from the BentoBox account for this swapper. Swaps it for at least 'amountToMin' of token 'to'. Transfers the swapped tokens of 'to' into the BentoBox using a plain ERC20 transfer. Returns the amount of tokens 'to' transferred to BentoBox. (The BentoBox skim function will be used by the caller to get the swapped funds)."
      },
      "swapExact(address,address,address,address,uint256,uint256)": {
        "notice": "Calculates the amount of token 'from' needed to complete the swap (amountFrom), this should be less than or equal to amountFromMax. Withdraws 'amountFrom' of token 'from' from the BentoBox account for this swapper. Swaps it for exactly 'exactAmountTo' of token 'to'. Transfers the swapped tokens of 'to' into the BentoBox using a plain ERC20 transfer. Transfers allocated, but unused 'from' tokens within the BentoBox to 'refundTo' (amountFromMax - amountFrom). Returns the amount of 'from' tokens withdrawn from BentoBox (amountFrom). (The BentoBox skim function will be used by the caller to get the swapped funds)."
      }
    },
    "version": 1
  },
  "storageLayout": {
    "storage": [],
    "types": null
  }
}