{
  "address": "0xE94C443e2d124cF9d5b5A6F1CE0E29dc464551DA",
  "abi": [
    {
      "inputs": [],
      "stateMutability": "nonpayable",
      "type": "constructor"
    },
    {
      "inputs": [],
      "name": "CurveToken",
      "outputs": [
        {
          "internalType": "contract IERC20",
          "name": "",
          "type": "address"
        }
      ],
      "stateMutability": "view",
      "type": "function"
    },
    {
      "inputs": [],
      "name": "MIM",
      "outputs": [
        {
          "internalType": "contract IERC20",
          "name": "",
          "type": "address"
        }
      ],
      "stateMutability": "view",
      "type": "function"
    },
    {
      "inputs": [],
      "name": "MIM3POOL",
      "outputs": [
        {
          "internalType": "contract CurvePool",
          "name": "",
          "type": "address"
        }
      ],
      "stateMutability": "view",
      "type": "function"
    },
    {
      "inputs": [],
      "name": "TETHER",
      "outputs": [
        {
          "internalType": "contract TetherToken",
          "name": "",
          "type": "address"
        }
      ],
      "stateMutability": "view",
      "type": "function"
    },
    {
      "inputs": [],
      "name": "bentoBox",
      "outputs": [
        {
          "internalType": "contract IBentoBoxV1",
          "name": "",
          "type": "address"
        }
      ],
      "stateMutability": "view",
      "type": "function"
    },
    {
      "inputs": [],
      "name": "cvx3Crypto",
      "outputs": [
        {
          "internalType": "contract IConvex",
          "name": "",
          "type": "address"
        }
      ],
      "stateMutability": "view",
      "type": "function"
    },
    {
      "inputs": [
        {
          "internalType": "address",
          "name": "recipient",
          "type": "address"
        },
        {
          "internalType": "uint256",
          "name": "shareToMin",
          "type": "uint256"
        },
        {
          "internalType": "uint256",
          "name": "shareFrom",
          "type": "uint256"
        }
      ],
      "name": "swap",
      "outputs": [
        {
          "internalType": "uint256",
          "name": "extraShare",
          "type": "uint256"
        },
        {
          "internalType": "uint256",
          "name": "shareReturned",
          "type": "uint256"
        }
      ],
      "stateMutability": "nonpayable",
      "type": "function"
    },
    {
      "inputs": [],
      "name": "threecrypto",
      "outputs": [
        {
          "internalType": "contract CurvePool",
          "name": "",
          "type": "address"
        }
      ],
      "stateMutability": "view",
      "type": "function"
    }
  ],
  "transactionHash": "0x94f3d1e504c8c07b7f747b5799532bc8f881f17d42c70a929660efd9f40ceba8",
  "args": [],
  "solcInputHash": "fe535ebb7fb07a1c3ad79ae4512a5126",
  "bytecode": "0x608060405234801561001057600080fd5b506040805163095ea7b360e01b8152735a6a4d54456819380173272a5e8e9b9904bdf41b6004820152600019602482015290517399d8a9c45b2eca8864373a26d1459e3dff1e17f39163095ea7b39160448083019260209291908290030181600087803b15801561008057600080fd5b505af1158015610094573d6000803e3d6000fd5b505050506040513d60208110156100aa57600080fd5b50506040805163095ea7b360e01b81527380466c64868e1ab14a1ddf27a676c3fcbe638fe560048201526000196024820152905173dac17f958d2ee523a2206206994597c13d831ec79163095ea7b391604480830192600092919082900301818387803b15801561011a57600080fd5b505af115801561012e573d6000803e3d6000fd5b50506040805163095ea7b360e01b8152735958a8db7dfe0cc49382209069b00f54e17929c260048201526000196024820152905173ca3d75ac011bf5ad07a98d02f18225f9bd9a6bdf935063095ea7b3925060448083019260209291908290030181600087803b1580156101a157600080fd5b505af11580156101b5573d6000803e3d6000fd5b505050506040513d60208110156101cb57600080fd5b5050610675806101dc6000396000f3fe608060405234801561001057600080fd5b50600436106100885760003560e01c80638fe2508b1161005b5780638fe2508b146100c95780639f1d0f59146100d1578063a6a356ed1461011c578063daec383d1461012457610088565b806322a88c091461008d5780636733a6c7146100b15780636b2ace87146100b957806378e7e3d1146100c1575b600080fd5b61009561012c565b604080516001600160a01b039092168252519081900360200190f35b610095610144565b61009561015c565b610095610174565b61009561018c565b610103600480360360608110156100e757600080fd5b506001600160a01b0381351690602081013590604001356101a4565b6040805192835260208301919091528051918290030190f35b61009561059b565b6100956105b3565b735a6a4d54456819380173272a5e8e9b9904bdf41b81565b7380466c64868e1ab14a1ddf27a676c3fcbe638fe581565b73f5bce5077908a1b7370b9ae04adc565ebd64396681565b73dac17f958d2ee523a2206206994597c13d831ec781565b73ca3d75ac011bf5ad07a98d02f18225f9bd9a6bdf81565b6040805163097da6d360e41b81527399d8a9c45b2eca8864373a26d1459e3dff1e17f360048201523060248201819052604482015260006064820181905260848201849052825190928392839273f5bce5077908a1b7370b9ae04adc565ebd643966926397da6d309260a4808201939182900301818787803b15801561022957600080fd5b505af115801561023d573d6000803e3d6000fd5b505050506040513d604081101561025357600080fd5b5051604080516322770cc360e11b815260006004820181905260036024830152604482018490526064820181905230608483015291519293509091735a6a4d54456819380173272a5e8e9b9904bdf41b916344ee19869160a480830192602092919082900301818787803b1580156102ca57600080fd5b505af11580156102de573d6000803e3d6000fd5b505050506040513d60208110156102f457600080fd5b50519050610300610621565b604051806060016040528083815260200160008152602001600081525090507380466c64868e1ab14a1ddf27a676c3fcbe638fe56001600160a01b0316634515cef38260006040518363ffffffff1660e01b81526004018083600360200280838360005b8381101561037c578181015183820152602001610364565b5050505090500182815260200192505050600060405180830381600087803b1580156103a757600080fd5b505af11580156103bb573d6000803e3d6000fd5b5050604080516370a0823160e01b815230600482015290516000935073ca3d75ac011bf5ad07a98d02f18225f9bd9a6bdf92506370a0823191602480820192602092909190829003018186803b15801561041457600080fd5b505afa158015610428573d6000803e3d6000fd5b505050506040513d602081101561043e57600080fd5b505160408051636e553f6560e01b81526004810183905273f5bce5077908a1b7370b9ae04adc565ebd64396660248201529051919250735958a8db7dfe0cc49382209069b00f54e17929c291636e553f659160448082019260009290919082900301818387803b1580156104b157600080fd5b505af11580156104c5573d6000803e3d6000fd5b50506040805162ae511b60e21b8152735958a8db7dfe0cc49382209069b00f54e17929c2600482015273f5bce5077908a1b7370b9ae04adc565ebd643966602482018190526001600160a01b038e1660448301526064820186905260006084830181905283519195506302b9446c945060a480840194938390030190829087803b15801561055257600080fd5b505af1158015610566573d6000803e3d6000fd5b505050506040513d604081101561057c57600080fd5b5060200151945061058d85896105cb565b955050505050935093915050565b735958a8db7dfe0cc49382209069b00f54e17929c281565b7399d8a9c45b2eca8864373a26d1459e3dff1e17f381565b8082038281111561061b576040805162461bcd60e51b8152602060048201526015602482015274426f72696e674d6174683a20556e646572666c6f7760581b604482015290519081900360640190fd5b92915050565b6040518060600160405280600390602082028036833750919291505056fea2646970667358221220949c603b31ff49e9e0e37ff8f24ecd8e91a9bf1263a381352d4c88dc1f3ee8ca64736f6c634300060c0033",
  "devdoc": {
    "kind": "dev",
    "methods": {},
    "version": 1
  },
  "userdoc": {
    "kind": "user",
    "methods": {},
    "version": 1
  },
  "storageLayout": {
    "storage": [],
    "types": null
  }
}