{
  "address": "0x286ed6C7a0797e370ED47C8f0f57AD68060AF7c5",
  "abi": [
    {
      "inputs": [],
      "stateMutability": "nonpayable",
      "type": "constructor"
    },
    {
      "inputs": [],
      "name": "MIM",
      "outputs": [
        {
          "internalType": "contract IERC20",
          "name": "",
          "type": "address"
        }
      ],
      "stateMutability": "view",
      "type": "function"
    },
    {
      "inputs": [],
      "name": "MIM3POOL",
      "outputs": [
        {
          "internalType": "contract CurvePool",
          "name": "",
          "type": "address"
        }
      ],
      "stateMutability": "view",
      "type": "function"
    },
    {
      "inputs": [],
      "name": "TETHER",
      "outputs": [
        {
          "internalType": "contract TetherToken",
          "name": "",
          "type": "address"
        }
      ],
      "stateMutability": "view",
      "type": "function"
    },
    {
      "inputs": [],
      "name": "bentoBox",
      "outputs": [
        {
          "internalType": "contract IBentoBoxV1",
          "name": "",
          "type": "address"
        }
      ],
      "stateMutability": "view",
      "type": "function"
    },
    {
      "inputs": [],
      "name": "cvx3CRV",
      "outputs": [
        {
          "internalType": "contract IConvex",
          "name": "",
          "type": "address"
        }
      ],
      "stateMutability": "view",
      "type": "function"
    },
    {
      "inputs": [
        {
          "internalType": "contract IERC20",
          "name": "fromToken",
          "type": "address"
        },
        {
          "internalType": "contract IERC20",
          "name": "toToken",
          "type": "address"
        },
        {
          "internalType": "address",
          "name": "recipient",
          "type": "address"
        },
        {
          "internalType": "uint256",
          "name": "shareToMin",
          "type": "uint256"
        },
        {
          "internalType": "uint256",
          "name": "shareFrom",
          "type": "uint256"
        }
      ],
      "name": "swap",
      "outputs": [
        {
          "internalType": "uint256",
          "name": "extraShare",
          "type": "uint256"
        },
        {
          "internalType": "uint256",
          "name": "shareReturned",
          "type": "uint256"
        }
      ],
      "stateMutability": "nonpayable",
      "type": "function"
    },
    {
      "inputs": [
        {
          "internalType": "contract IERC20",
          "name": "fromToken",
          "type": "address"
        },
        {
          "internalType": "contract IERC20",
          "name": "toToken",
          "type": "address"
        },
        {
          "internalType": "address",
          "name": "recipient",
          "type": "address"
        },
        {
          "internalType": "address",
          "name": "refundTo",
          "type": "address"
        },
        {
          "internalType": "uint256",
          "name": "shareFromSupplied",
          "type": "uint256"
        },
        {
          "internalType": "uint256",
          "name": "shareToExact",
          "type": "uint256"
        }
      ],
      "name": "swapExact",
      "outputs": [
        {
          "internalType": "uint256",
          "name": "shareUsed",
          "type": "uint256"
        },
        {
          "internalType": "uint256",
          "name": "shareReturned",
          "type": "uint256"
        }
      ],
      "stateMutability": "nonpayable",
      "type": "function"
    },
    {
      "inputs": [],
      "name": "threecrv",
      "outputs": [
        {
          "internalType": "contract CurvePool",
          "name": "",
          "type": "address"
        }
      ],
      "stateMutability": "view",
      "type": "function"
    }
  ],
  "transactionHash": "0x0207d1eca4096b90baee777ac55b520348b882762ae5bba6614323ad9f24dee5",
  "args": [],
  "solcInputHash": "d8a47284c61f735e85f75a77f5212459",
  "bytecode": "0x608060405234801561001057600080fd5b5060405163095ea7b360e01b81527399d8a9c45b2eca8864373a26d1459e3dff1e17f39063095ea7b39061006090735a6a4d54456819380173272a5e8e9b9904bdf41b9060001990600401610160565b602060405180830381600087803b15801561007a57600080fd5b505af115801561008e573d6000803e3d6000fd5b505050506040513d601f19601f820116820180604052508101906100b29190610139565b5060405163095ea7b360e01b815273dac17f958d2ee523a2206206994597c13d831ec79063095ea7b39061010290735a6a4d54456819380173272a5e8e9b9904bdf41b9060001990600401610160565b600060405180830381600087803b15801561011c57600080fd5b505af1158015610130573d6000803e3d6000fd5b50505050610179565b60006020828403121561014a578081fd5b81518015158114610159578182fd5b9392505050565b6001600160a01b03929092168252602082015260400190565b61075a806101886000396000f3fe608060405234801561001057600080fd5b50600436106100885760003560e01c806378e7e3d11161005b57806378e7e3d1146100dc578063daec383d146100e4578063e343fe12146100ec578063e7fe541f146100ff57610088565b806322a88c091461008d5780634622be90146100ab57806365f6a6be146100cc5780636b2ace87146100d4575b600080fd5b610095610107565b6040516100a29190610632565b60405180910390f35b6100be6100b9366004610530565b61011f565b6040516100a29291906106fe565b61009561012d565b610095610145565b61009561015d565b610095610175565b6100be6100fa36600461059d565b61018d565b6100956104e6565b735a6a4d54456819380173272a5e8e9b9904bdf41b81565b600080965096945050505050565b73bebc44782c7db0a1a60cb6fe97d0b483032ff1c781565b73f5bce5077908a1b7370b9ae04adc565ebd64396681565b73dac17f958d2ee523a2206206994597c13d831ec781565b7399d8a9c45b2eca8864373a26d1459e3dff1e17f381565b60405163097da6d360e41b81526000908190819073f5bce5077908a1b7370b9ae04adc565ebd643966906397da6d30906101d3908b903090819087908b90600401610646565b6040805180830381600087803b1580156101ec57600080fd5b505af1158015610200573d6000803e3d6000fd5b505050506040513d601f19601f82011682018060405250810190610224919061060f565b50604051630e5a77ed60e21b8152909150733ba207c25a278524e1cc7faaea950753049072a490633969dfb49061025f9084906004016106dc565b600060405180830381600087803b15801561027957600080fd5b505af115801561028d573d6000803e3d6000fd5b5050604051630d2680e960e11b815273bebc44782c7db0a1a60cb6fe97d0b483032ff1c79250631a4d01d291506102ce9084906002906000906004016106e5565b600060405180830381600087803b1580156102e857600080fd5b505af11580156102fc573d6000803e3d6000fd5b50506040516370a0823160e01b81526000925073dac17f958d2ee523a2206206994597c13d831ec791506370a082319061033a903090600401610632565b60206040518083038186803b15801561035257600080fd5b505afa158015610366573d6000803e3d6000fd5b505050506040513d601f19601f8201168201806040525081019061038a91906105f7565b6040516322770cc360e11b8152909150600090735a6a4d54456819380173272a5e8e9b9904bdf41b906344ee1986906103e49060039085908790829073f5bce5077908a1b7370b9ae04adc565ebd6439669060040161067a565b602060405180830381600087803b1580156103fe57600080fd5b505af1158015610412573d6000803e3d6000fd5b505050506040513d601f19601f8201168201806040525081019061043691906105f7565b60405162ae511b60e21b815290915073f5bce5077908a1b7370b9ae04adc565ebd643966906302b9446c90610478908c9084908d908790600090600401610646565b6040805180830381600087803b15801561049157600080fd5b505af11580156104a5573d6000803e3d6000fd5b505050506040513d601f19601f820116820180604052508101906104c9919061060f565b94506104d7905084886104fe565b94505050509550959350505050565b733ba207c25a278524e1cc7faaea950753049072a481565b8082038281111561052a5760405162461bcd60e51b8152600401610521906106ad565b60405180910390fd5b92915050565b60008060008060008060c08789031215610548578182fd5b86356105538161070c565b955060208701356105638161070c565b945060408701356105738161070c565b935060608701356105838161070c565b9598949750929560808101359460a0909101359350915050565b600080600080600060a086880312156105b4578081fd5b85356105bf8161070c565b945060208601356105cf8161070c565b935060408601356105df8161070c565b94979396509394606081013594506080013592915050565b600060208284031215610608578081fd5b5051919050565b60008060408385031215610621578182fd5b505080516020909101519092909150565b6001600160a01b0391909116815260200190565b6001600160a01b03958616815293851660208501529190931660408301526060820192909252608081019190915260a00190565b600f95860b81529390940b6020840152604083019190915260608201526001600160a01b03909116608082015260a00190565b602080825260159082015274426f72696e674d6174683a20556e646572666c6f7760581b604082015260600190565b90815260200190565b928352600f9190910b6020830152604082015260600190565b918252602082015260400190565b6001600160a01b038116811461072157600080fd5b5056fea2646970667358221220bded30d0a2188f927a8ebc5c2ba9d28d78c3a59288742d04bd36d99423a255ee64736f6c634300060c0033",
  "devdoc": {
    "kind": "dev",
    "methods": {},
    "version": 1
  },
  "userdoc": {
    "kind": "user",
    "methods": {
      "swap(address,address,address,uint256,uint256)": {
        "notice": "Withdraws 'amountFrom' of token 'from' from the BentoBox account for this swapper. Swaps it for at least 'amountToMin' of token 'to'. Transfers the swapped tokens of 'to' into the BentoBox using a plain ERC20 transfer. Returns the amount of tokens 'to' transferred to BentoBox. (The BentoBox skim function will be used by the caller to get the swapped funds)."
      },
      "swapExact(address,address,address,address,uint256,uint256)": {
        "notice": "Calculates the amount of token 'from' needed to complete the swap (amountFrom), this should be less than or equal to amountFromMax. Withdraws 'amountFrom' of token 'from' from the BentoBox account for this swapper. Swaps it for exactly 'exactAmountTo' of token 'to'. Transfers the swapped tokens of 'to' into the BentoBox using a plain ERC20 transfer. Transfers allocated, but unused 'from' tokens within the BentoBox to 'refundTo' (amountFromMax - amountFrom). Returns the amount of 'from' tokens withdrawn from BentoBox (amountFrom). (The BentoBox skim function will be used by the caller to get the swapped funds)."
      }
    },
    "version": 1
  },
  "storageLayout": {
    "storage": [],
    "types": null
  }
}