{
  "address": "0x1DDe3505fa0dD8ef2253dbbC1aEa0B4355c38D28",
  "abi": [
    {
      "inputs": [],
      "stateMutability": "nonpayable",
      "type": "constructor"
    },
    {
      "inputs": [],
      "name": "MIM",
      "outputs": [
        {
          "internalType": "contract IERC20",
          "name": "",
          "type": "address"
        }
      ],
      "stateMutability": "view",
      "type": "function"
    },
    {
      "inputs": [],
      "name": "MIM3POOL",
      "outputs": [
        {
          "internalType": "contract CurvePool",
          "name": "",
          "type": "address"
        }
      ],
      "stateMutability": "view",
      "type": "function"
    },
    {
      "inputs": [],
      "name": "TETHER",
      "outputs": [
        {
          "internalType": "contract TetherToken",
          "name": "",
          "type": "address"
        }
      ],
      "stateMutability": "view",
      "type": "function"
    },
    {
      "inputs": [],
      "name": "bentoBox",
      "outputs": [
        {
          "internalType": "contract IBentoBoxV1",
          "name": "",
          "type": "address"
        }
      ],
      "stateMutability": "view",
      "type": "function"
    },
    {
      "inputs": [],
      "name": "cvx3Crypto",
      "outputs": [
        {
          "internalType": "contract IConvex",
          "name": "",
          "type": "address"
        }
      ],
      "stateMutability": "view",
      "type": "function"
    },
    {
      "inputs": [
        {
          "internalType": "contract IERC20",
          "name": "fromToken",
          "type": "address"
        },
        {
          "internalType": "contract IERC20",
          "name": "toToken",
          "type": "address"
        },
        {
          "internalType": "address",
          "name": "recipient",
          "type": "address"
        },
        {
          "internalType": "uint256",
          "name": "shareToMin",
          "type": "uint256"
        },
        {
          "internalType": "uint256",
          "name": "shareFrom",
          "type": "uint256"
        }
      ],
      "name": "swap",
      "outputs": [
        {
          "internalType": "uint256",
          "name": "extraShare",
          "type": "uint256"
        },
        {
          "internalType": "uint256",
          "name": "shareReturned",
          "type": "uint256"
        }
      ],
      "stateMutability": "nonpayable",
      "type": "function"
    },
    {
      "inputs": [
        {
          "internalType": "contract IERC20",
          "name": "fromToken",
          "type": "address"
        },
        {
          "internalType": "contract IERC20",
          "name": "toToken",
          "type": "address"
        },
        {
          "internalType": "address",
          "name": "recipient",
          "type": "address"
        },
        {
          "internalType": "address",
          "name": "refundTo",
          "type": "address"
        },
        {
          "internalType": "uint256",
          "name": "shareFromSupplied",
          "type": "uint256"
        },
        {
          "internalType": "uint256",
          "name": "shareToExact",
          "type": "uint256"
        }
      ],
      "name": "swapExact",
      "outputs": [
        {
          "internalType": "uint256",
          "name": "shareUsed",
          "type": "uint256"
        },
        {
          "internalType": "uint256",
          "name": "shareReturned",
          "type": "uint256"
        }
      ],
      "stateMutability": "nonpayable",
      "type": "function"
    },
    {
      "inputs": [],
      "name": "threecrypto",
      "outputs": [
        {
          "internalType": "contract CurvePool",
          "name": "",
          "type": "address"
        }
      ],
      "stateMutability": "view",
      "type": "function"
    }
  ],
  "transactionHash": "0x9bb4d7cef656e25c0413281d6af31e3c3391d669afd0c5ae1a1df8e18482a224",
  "args": [],
  "solcInputHash": "fe535ebb7fb07a1c3ad79ae4512a5126",
  "bytecode": "0x608060405234801561001057600080fd5b506040805163095ea7b360e01b8152735a6a4d54456819380173272a5e8e9b9904bdf41b6004820152600019602482015290517399d8a9c45b2eca8864373a26d1459e3dff1e17f39163095ea7b39160448083019260209291908290030181600087803b15801561008057600080fd5b505af1158015610094573d6000803e3d6000fd5b505050506040513d60208110156100aa57600080fd5b50506040805163095ea7b360e01b8152735a6a4d54456819380173272a5e8e9b9904bdf41b60048201526000196024820152905173dac17f958d2ee523a2206206994597c13d831ec79163095ea7b391604480830192600092919082900301818387803b15801561011a57600080fd5b505af115801561012e573d6000803e3d6000fd5b50505050610633806101416000396000f3fe608060405234801561001057600080fd5b50600436106100885760003560e01c806378e7e3d11161005b57806378e7e3d114610126578063a6a356ed1461012e578063daec383d14610136578063e343fe121461013e57610088565b806322a88c091461008d5780634622be90146100b15780636733a6c7146101165780636b2ace871461011e575b600080fd5b610095610180565b604080516001600160a01b039092168252519081900360200190f35b6100fd600480360360c08110156100c757600080fd5b506001600160a01b0381358116916020810135821691604082013581169160608101359091169060808101359060a00135610198565b6040805192835260208301919091528051918290030190f35b6100956101a6565b6100956101be565b6100956101d6565b6100956101ee565b610095610206565b6100fd600480360360a081101561015457600080fd5b506001600160a01b0381358116916020810135821691604082013516906060810135906080013561021e565b735a6a4d54456819380173272a5e8e9b9904bdf41b81565b600080965096945050505050565b7380466c64868e1ab14a1ddf27a676c3fcbe638fe581565b73f5bce5077908a1b7370b9ae04adc565ebd64396681565b73dac17f958d2ee523a2206206994597c13d831ec781565b735958a8db7dfe0cc49382209069b00f54e17929c281565b7399d8a9c45b2eca8864373a26d1459e3dff1e17f381565b6040805163097da6d360e41b81526001600160a01b03871660048201523060248201819052604482015260006064820181905260848201849052825190928392839273f5bce5077908a1b7370b9ae04adc565ebd643966926397da6d309260a4808201939182900301818787803b15801561029857600080fd5b505af11580156102ac573d6000803e3d6000fd5b505050506040513d60408110156102c257600080fd5b505160408051630e5a77ed60e21b8152600481018390529051919250735958a8db7dfe0cc49382209069b00f54e17929c291633969dfb49160248082019260009290919082900301818387803b15801561031b57600080fd5b505af115801561032f573d6000803e3d6000fd5b505060408051630d2680e960e11b8152600481018590526000602482018190526044820181905291517380466c64868e1ab14a1ddf27a676c3fcbe638fe59450631a4d01d293506064808301939282900301818387803b15801561039257600080fd5b505af11580156103a6573d6000803e3d6000fd5b5050604080516370a0823160e01b815230600482015290516000935073dac17f958d2ee523a2206206994597c13d831ec792506370a0823191602480820192602092909190829003018186803b1580156103ff57600080fd5b505afa158015610413573d6000803e3d6000fd5b505050506040513d602081101561042957600080fd5b5051604080516322770cc360e11b815260036004820152600060248201819052604482018490526064820181905273f5bce5077908a1b7370b9ae04adc565ebd643966608483015291519293509091735a6a4d54456819380173272a5e8e9b9904bdf41b916344ee19869160a480830192602092919082900301818787803b1580156104b457600080fd5b505af11580156104c8573d6000803e3d6000fd5b505050506040513d60208110156104de57600080fd5b50516040805162ae511b60e21b81526001600160a01b038c8116600483015273f5bce5077908a1b7370b9ae04adc565ebd64396660248301819052908c16604483015260648201849052600060848301819052835194955090936302b9446c9360a4808501949193918390030190829087803b15801561055d57600080fd5b505af1158015610571573d6000803e3d6000fd5b505050506040513d604081101561058757600080fd5b5060200151935061059884886105a7565b94505050509550959350505050565b808203828111156105f7576040805162461bcd60e51b8152602060048201526015602482015274426f72696e674d6174683a20556e646572666c6f7760581b604482015290519081900360640190fd5b9291505056fea2646970667358221220416aa4886319de9c735626618cb921218a43340f68d554cc98e9c57eedbc473f64736f6c634300060c0033",
  "devdoc": {
    "kind": "dev",
    "methods": {},
    "version": 1
  },
  "userdoc": {
    "kind": "user",
    "methods": {
      "swap(address,address,address,uint256,uint256)": {
        "notice": "Withdraws 'amountFrom' of token 'from' from the BentoBox account for this swapper. Swaps it for at least 'amountToMin' of token 'to'. Transfers the swapped tokens of 'to' into the BentoBox using a plain ERC20 transfer. Returns the amount of tokens 'to' transferred to BentoBox. (The BentoBox skim function will be used by the caller to get the swapped funds)."
      },
      "swapExact(address,address,address,address,uint256,uint256)": {
        "notice": "Calculates the amount of token 'from' needed to complete the swap (amountFrom), this should be less than or equal to amountFromMax. Withdraws 'amountFrom' of token 'from' from the BentoBox account for this swapper. Swaps it for exactly 'exactAmountTo' of token 'to'. Transfers the swapped tokens of 'to' into the BentoBox using a plain ERC20 transfer. Transfers allocated, but unused 'from' tokens within the BentoBox to 'refundTo' (amountFromMax - amountFrom). Returns the amount of 'from' tokens withdrawn from BentoBox (amountFrom). (The BentoBox skim function will be used by the caller to get the swapped funds)."
      }
    },
    "version": 1
  },
  "storageLayout": {
    "storage": [],
    "types": null
  }
}