{
  "address": "0x3f37712726C9E509C5479f13e17Cb1033411D864",
  "abi": [
    {
      "inputs": [],
      "stateMutability": "nonpayable",
      "type": "constructor"
    },
    {
      "inputs": [],
      "name": "MIM",
      "outputs": [
        {
          "internalType": "contract IERC20",
          "name": "",
          "type": "address"
        }
      ],
      "stateMutability": "view",
      "type": "function"
    },
    {
      "inputs": [],
      "name": "MIM3POOL",
      "outputs": [
        {
          "internalType": "contract CurvePool",
          "name": "",
          "type": "address"
        }
      ],
      "stateMutability": "view",
      "type": "function"
    },
    {
      "inputs": [],
      "name": "ThreePOOL",
      "outputs": [
        {
          "internalType": "contract IERC20",
          "name": "",
          "type": "address"
        }
      ],
      "stateMutability": "view",
      "type": "function"
    },
    {
      "inputs": [],
      "name": "UST",
      "outputs": [
        {
          "internalType": "contract IERC20",
          "name": "",
          "type": "address"
        }
      ],
      "stateMutability": "view",
      "type": "function"
    },
    {
      "inputs": [],
      "name": "UST3POOL",
      "outputs": [
        {
          "internalType": "contract CurvePool",
          "name": "",
          "type": "address"
        }
      ],
      "stateMutability": "view",
      "type": "function"
    },
    {
      "inputs": [],
      "name": "bentoBox",
      "outputs": [
        {
          "internalType": "contract IBentoBoxV1",
          "name": "",
          "type": "address"
        }
      ],
      "stateMutability": "view",
      "type": "function"
    },
    {
      "inputs": [
        {
          "internalType": "address",
          "name": "recipient",
          "type": "address"
        },
        {
          "internalType": "uint256",
          "name": "shareToMin",
          "type": "uint256"
        },
        {
          "internalType": "uint256",
          "name": "shareFrom",
          "type": "uint256"
        }
      ],
      "name": "swap",
      "outputs": [
        {
          "internalType": "uint256",
          "name": "extraShare",
          "type": "uint256"
        },
        {
          "internalType": "uint256",
          "name": "shareReturned",
          "type": "uint256"
        }
      ],
      "stateMutability": "nonpayable",
      "type": "function"
    }
  ],
  "transactionHash": "0x8fe3867099f0582b7876b2041d9cf823714487f19a25057cdfc5eb9c2b2e0b80",
  "args": [],
  "solcInputHash": "e549d2c739b58365204d58d7cbee6ac8",
  "bytecode": "0x60806040523480156200001157600080fd5b507399d8a9c45b2eca8864373a26d1459e3dff1e17f373ffffffffffffffffffffffffffffffffffffffff1663095ea7b3735a6a4d54456819380173272a5e8e9b9904bdf41b7fffffffffffffffffffffffffffffffffffffffffffffffffffffffffffffffff6040518363ffffffff1660e01b81526004016200009792919062000311565b602060405180830381600087803b158015620000b257600080fd5b505af1158015620000c7573d6000803e3d6000fd5b505050506040513d601f19601f82011682018060405250810190620000ed9190620002c3565b50736c3f90f043a72fa612cbac8115ee7e52bde6e49073ffffffffffffffffffffffffffffffffffffffff1663095ea7b373890f4e345b1daed0367a877a1612f86a1f86985f7fffffffffffffffffffffffffffffffffffffffffffffffffffffffffffffffff6040518363ffffffff1660e01b81526004016200017392919062000311565b602060405180830381600087803b1580156200018e57600080fd5b505af1158015620001a3573d6000803e3d6000fd5b505050506040513d601f19601f82011682018060405250810190620001c99190620002c3565b5073a47c8bf37f92abed4a126bda807a7b7498661acd73ffffffffffffffffffffffffffffffffffffffff1663095ea7b373f5bce5077908a1b7370b9ae04adc565ebd6439667fffffffffffffffffffffffffffffffffffffffffffffffffffffffffffffffff6040518363ffffffff1660e01b81526004016200024f92919062000311565b602060405180830381600087803b1580156200026a57600080fd5b505af11580156200027f573d6000803e3d6000fd5b505050506040513d601f19601f82011682018060405250810190620002a59190620002c3565b50620003a2565b600081519050620002bd8162000388565b92915050565b600060208284031215620002d657600080fd5b6000620002e684828501620002ac565b91505092915050565b620002fa816200033e565b82525050565b6200030b816200037e565b82525050565b6000604082019050620003286000830185620002ef565b62000337602083018462000300565b9392505050565b60006200034b826200035e565b9050919050565b60008115159050919050565b600073ffffffffffffffffffffffffffffffffffffffff82169050919050565b6000819050919050565b620003938162000352565b81146200039f57600080fd5b50565b6109b380620003b26000396000f3fe608060405234801561001057600080fd5b506004361061007d5760003560e01c80638f1868ff1161005b5780638f1868ff146100dc5780639f1d0f59146100fa578063daec383d1461012b578063e7ec9f30146101495761007d565b806322a88c09146100825780632772a3f2146100a05780636b2ace87146100be575b600080fd5b61008a610167565b6040516100979190610657565b60405180910390f35b6100a861017f565b6040516100b59190610657565b60405180910390f35b6100c6610197565b6040516100d39190610672565b60405180910390f35b6100e46101af565b6040516100f1919061068d565b60405180910390f35b610114600480360381019061010f919061052b565b6101c7565b6040516101229291906107d8565b60405180910390f35b6101336104bc565b604051610140919061068d565b60405180910390f35b6101516104d4565b60405161015e919061068d565b60405180910390f35b735a6a4d54456819380173272a5e8e9b9904bdf41b81565b73890f4e345b1daed0367a877a1612f86a1f86985f81565b73f5bce5077908a1b7370b9ae04adc565ebd64396681565b736c3f90f043a72fa612cbac8115ee7e52bde6e49081565b600080600073f5bce5077908a1b7370b9ae04adc565ebd64396673ffffffffffffffffffffffffffffffffffffffff166397da6d307399d8a9c45b2eca8864373a26d1459e3dff1e17f330306000896040518663ffffffff1660e01b81526004016102369594939291906106a8565b6040805180830381600087803b15801561024f57600080fd5b505af1158015610263573d6000803e3d6000fd5b505050506040513d601f19601f8201168201806040525081019061028791906105a3565b5090506000735a6a4d54456819380173272a5e8e9b9904bdf41b73ffffffffffffffffffffffffffffffffffffffff16633df02124600060018560006040518563ffffffff1660e01b81526004016102e2949392919061074e565b602060405180830381600087803b1580156102fc57600080fd5b505af1158015610310573d6000803e3d6000fd5b505050506040513d601f19601f82011682018060405250810190610334919061057a565b9050600073890f4e345b1daed0367a877a1612f86a1f86985f73ffffffffffffffffffffffffffffffffffffffff16633df02124600160008560006040518563ffffffff1660e01b815260040161038e9493929190610793565b602060405180830381600087803b1580156103a857600080fd5b505af11580156103bc573d6000803e3d6000fd5b505050506040513d601f19601f820116820180604052508101906103e0919061057a565b905073f5bce5077908a1b7370b9ae04adc565ebd64396673ffffffffffffffffffffffffffffffffffffffff166302b9446c73a47c8bf37f92abed4a126bda807a7b7498661acd308b8560006040518663ffffffff1660e01b815260040161044c9594939291906106fb565b6040805180830381600087803b15801561046557600080fd5b505af1158015610479573d6000803e3d6000fd5b505050506040513d601f19601f8201168201806040525081019061049d91906105a3565b90508094505086846104af9190610801565b9450505050935093915050565b7399d8a9c45b2eca8864373a26d1459e3dff1e17f381565b73a47c8bf37f92abed4a126bda807a7b7498661acd81565b6000813590506104fb8161094f565b92915050565b60008135905061051081610966565b92915050565b60008151905061052581610966565b92915050565b60008060006060848603121561054057600080fd5b600061054e868287016104ec565b935050602061055f86828701610501565b925050604061057086828701610501565b9150509250925092565b60006020828403121561058c57600080fd5b600061059a84828501610516565b91505092915050565b600080604083850312156105b657600080fd5b60006105c485828601610516565b92505060206105d585828601610516565b9150509250929050565b6105e881610835565b82525050565b6105f78161087e565b82525050565b610606816108a2565b82525050565b610615816108c6565b82525050565b610624816108ea565b82525050565b610633816108fc565b82525050565b6106428161090e565b82525050565b61065181610874565b82525050565b600060208201905061066c60008301846105ee565b92915050565b600060208201905061068760008301846105fd565b92915050565b60006020820190506106a2600083018461060c565b92915050565b600060a0820190506106bd600083018861060c565b6106ca60208301876105df565b6106d760408301866105df565b6106e4606083018561062a565b6106f16080830184610648565b9695505050505050565b600060a082019050610710600083018861060c565b61071d60208301876105df565b61072a60408301866105df565b6107376060830185610648565b610744608083018461062a565b9695505050505050565b6000608082019050610763600083018761061b565b6107706020830186610639565b61077d6040830185610648565b61078a606083018461062a565b95945050505050565b60006080820190506107a86000830187610639565b6107b5602083018661061b565b6107c26040830185610648565b6107cf606083018461062a565b95945050505050565b60006040820190506107ed6000830185610648565b6107fa6020830184610648565b9392505050565b600061080c82610874565b915061081783610874565b92508282101561082a57610829610920565b5b828203905092915050565b600061084082610854565b9050919050565b600081600f0b9050919050565b600073ffffffffffffffffffffffffffffffffffffffff82169050919050565b6000819050919050565b600061088982610890565b9050919050565b600061089b82610854565b9050919050565b60006108ad826108b4565b9050919050565b60006108bf82610854565b9050919050565b60006108d1826108d8565b9050919050565b60006108e382610854565b9050919050565b60006108f582610847565b9050919050565b600061090782610874565b9050919050565b600061091982610847565b9050919050565b7f4e487b7100000000000000000000000000000000000000000000000000000000600052601160045260246000fd5b61095881610835565b811461096357600080fd5b50565b61096f81610874565b811461097a57600080fd5b5056fea264697066735822122032c70a486d38927673c4d3ee3deeac808f96639fb590fe34f2838e7218b6db0a64736f6c63430008040033",
  "devdoc": {
    "kind": "dev",
    "methods": {},
    "version": 1
  },
  "userdoc": {
    "kind": "user",
    "methods": {},
    "version": 1
  },
  "storageLayout": {
    "storage": [],
    "types": null
  }
}