{
  "address": "0xBB9997a195a031E4D7d29c14EA3fc53cf94F4b86",
  "abi": [
    {
      "inputs": [],
      "name": "UST",
      "outputs": [
        {
          "internalType": "contract IAggregator",
          "name": "",
          "type": "address"
        }
      ],
      "stateMutability": "view",
      "type": "function"
    },
    {
      "inputs": [
        {
          "internalType": "bytes",
          "name": "",
          "type": "bytes"
        }
      ],
      "name": "get",
      "outputs": [
        {
          "internalType": "bool",
          "name": "",
          "type": "bool"
        },
        {
          "internalType": "uint256",
          "name": "",
          "type": "uint256"
        }
      ],
      "stateMutability": "view",
      "type": "function"
    },
    {
      "inputs": [
        {
          "internalType": "bytes",
          "name": "",
          "type": "bytes"
        }
      ],
      "name": "name",
      "outputs": [
        {
          "internalType": "string",
          "name": "",
          "type": "string"
        }
      ],
      "stateMutability": "pure",
      "type": "function"
    },
    {
      "inputs": [
        {
          "internalType": "bytes",
          "name": "",
          "type": "bytes"
        }
      ],
      "name": "peek",
      "outputs": [
        {
          "internalType": "bool",
          "name": "",
          "type": "bool"
        },
        {
          "internalType": "uint256",
          "name": "",
          "type": "uint256"
        }
      ],
      "stateMutability": "view",
      "type": "function"
    },
    {
      "inputs": [
        {
          "internalType": "bytes",
          "name": "data",
          "type": "bytes"
        }
      ],
      "name": "peekSpot",
      "outputs": [
        {
          "internalType": "uint256",
          "name": "rate",
          "type": "uint256"
        }
      ],
      "stateMutability": "view",
      "type": "function"
    },
    {
      "inputs": [
        {
          "internalType": "bytes",
          "name": "",
          "type": "bytes"
        }
      ],
      "name": "symbol",
      "outputs": [
        {
          "internalType": "string",
          "name": "",
          "type": "string"
        }
      ],
      "stateMutability": "pure",
      "type": "function"
    }
  ],
  "transactionHash": "0xd51c162eff266964990f9bb457b5f43242907e152569ad27cf337af49f3984f9",
  "args": [],
  "solcInputHash": "6c6b63444e7f5e7f52d7a26c3c11c17d",
  "bytecode": "0x608060405234801561001057600080fd5b50610630806100206000396000f3fe608060405234801561001057600080fd5b50600436106100625760003560e01c8063c699c4d614610067578063d39bbef014610097578063d568866c146100c7578063d6d7d525146100f7578063e7ec9f3014610128578063eeb8a8d314610146575b600080fd5b610081600480360381019061007c919061036a565b610177565b60405161008e9190610482565b60405180910390f35b6100b160048036038101906100ac919061036a565b6101b7565b6040516100be91906104a4565b60405180910390f35b6100e160048036038101906100dc919061036a565b6101cf565b6040516100ee9190610482565b60405180910390f35b610111600480360381019061010c919061036a565b61020f565b60405161011f92919061043e565b60405180910390f35b610130610227565b60405161013d9190610467565b60405180910390f35b610160600480360381019061015b919061036a565b61023f565b60405161016e92919061043e565b60405180910390f35b60606040518060400160405280600881526020017f4c494e4b2f555354000000000000000000000000000000000000000000000000815250905092915050565b60006101c3838361023f565b90508091505092915050565b60606040518060400160405280600d81526020017f436861696e6c696e6b2055535400000000000000000000000000000000000000815250905092915050565b600080600161021c610257565b915091509250929050565b738b6d9085f310396c6e4f0012783e9f850eaa8a8281565b600080600161024c610257565b915091509250929050565b600080738b6d9085f310396c6e4f0012783e9f850eaa8a8273ffffffffffffffffffffffffffffffffffffffff166350d25bcd6040518163ffffffff1660e01b815260040160206040518083038186803b1580156102b457600080fd5b505afa1580156102c8573d6000803e3d6000fd5b505050506040513d601f19601f820116820180604052508101906102ec91906103af565b9050806a52b7d2dcc80cd2e400000061030591906104db565b91505090565b60008083601f84011261031d57600080fd5b8235905067ffffffffffffffff81111561033657600080fd5b60208301915083600182028301111561034e57600080fd5b9250929050565b600081519050610364816105e3565b92915050565b6000806020838503121561037d57600080fd5b600083013567ffffffffffffffff81111561039757600080fd5b6103a38582860161030b565b92509250509250929050565b6000602082840312156103c157600080fd5b60006103cf84828501610355565b91505092915050565b6103e18161050c565b82525050565b6103f08161054c565b82525050565b6000610401826104bf565b61040b81856104ca565b935061041b818560208601610570565b610424816105d2565b840191505092915050565b61043881610542565b82525050565b600060408201905061045360008301856103d8565b610460602083018461042f565b9392505050565b600060208201905061047c60008301846103e7565b92915050565b6000602082019050818103600083015261049c81846103f6565b905092915050565b60006020820190506104b9600083018461042f565b92915050565b600081519050919050565b600082825260208201905092915050565b60006104e682610542565b91506104f183610542565b925082610501576105006105a3565b5b828204905092915050565b60008115159050919050565b6000819050919050565b600073ffffffffffffffffffffffffffffffffffffffff82169050919050565b6000819050919050565b60006105578261055e565b9050919050565b600061056982610522565b9050919050565b60005b8381101561058e578082015181840152602081019050610573565b8381111561059d576000848401525b50505050565b7f4e487b7100000000000000000000000000000000000000000000000000000000600052601260045260246000fd5b6000601f19601f8301169050919050565b6105ec81610518565b81146105f757600080fd5b5056fea2646970667358221220751f0826ad0c195be1d50553ffc41af3063a80a663ab62f879c3e76344eeb99364736f6c63430008040033",
  "devdoc": {
    "kind": "dev",
    "methods": {
      "get(bytes)": {
        "params": {
          "data": "Usually abi encoded, implementation specific data that contains information and arguments to & about the oracle. For example: (string memory collateralSymbol, string memory assetSymbol, uint256 division) = abi.decode(data, (string, string, uint256));"
        },
        "returns": {
          "_0": "if no valid (recent) rate is available, return false else true.",
          "_1": "The rate of the requested asset / pair / pool."
        }
      },
      "name(bytes)": {
        "params": {
          "data": "Usually abi encoded, implementation specific data that contains information and arguments to & about the oracle. For example: (string memory collateralSymbol, string memory assetSymbol, uint256 division) = abi.decode(data, (string, string, uint256));"
        },
        "returns": {
          "_0": "(string) A human readable name about this oracle."
        }
      },
      "peek(bytes)": {
        "params": {
          "data": "Usually abi encoded, implementation specific data that contains information and arguments to & about the oracle. For example: (string memory collateralSymbol, string memory assetSymbol, uint256 division) = abi.decode(data, (string, string, uint256));"
        },
        "returns": {
          "_0": "if no valid (recent) rate is available, return false else true.",
          "_1": "The rate of the requested asset / pair / pool."
        }
      },
      "peekSpot(bytes)": {
        "params": {
          "data": "Usually abi encoded, implementation specific data that contains information and arguments to & about the oracle. For example: (string memory collateralSymbol, string memory assetSymbol, uint256 division) = abi.decode(data, (string, string, uint256));"
        },
        "returns": {
          "rate": "The rate of the requested asset / pair / pool."
        }
      },
      "symbol(bytes)": {
        "params": {
          "data": "Usually abi encoded, implementation specific data that contains information and arguments to & about the oracle. For example: (string memory collateralSymbol, string memory assetSymbol, uint256 division) = abi.decode(data, (string, string, uint256));"
        },
        "returns": {
          "_0": "(string) A human readable symbol name about this oracle."
        }
      }
    },
    "version": 1
  },
  "userdoc": {
    "kind": "user",
    "methods": {
      "get(bytes)": {
        "notice": "Get the latest exchange rate."
      },
      "name(bytes)": {
        "notice": "Returns a human readable name about this oracle."
      },
      "peek(bytes)": {
        "notice": "Check the last exchange rate without any state changes."
      },
      "peekSpot(bytes)": {
        "notice": "Check the current spot exchange rate without any state changes. For oracles like TWAP this will be different from peek()."
      },
      "symbol(bytes)": {
        "notice": "Returns a human readable (short) name about this oracle."
      }
    },
    "version": 1
  },
  "storageLayout": {
    "storage": [],
    "types": null
  }
}