{
  "address": "0xfb81be4BdE317d32eC6934DB87e05CfDc5245437",
  "abi": [
    {
      "inputs": [],
      "stateMutability": "nonpayable",
      "type": "constructor"
    },
    {
      "inputs": [],
      "name": "MIM",
      "outputs": [
        {
          "internalType": "contract IERC20",
          "name": "",
          "type": "address"
        }
      ],
      "stateMutability": "view",
      "type": "function"
    },
    {
      "inputs": [],
      "name": "MIM3POOL",
      "outputs": [
        {
          "internalType": "contract CurvePool",
          "name": "",
          "type": "address"
        }
      ],
      "stateMutability": "view",
      "type": "function"
    },
    {
      "inputs": [],
      "name": "TETHER",
      "outputs": [
        {
          "internalType": "contract TetherToken",
          "name": "",
          "type": "address"
        }
      ],
      "stateMutability": "view",
      "type": "function"
    },
    {
      "inputs": [],
      "name": "WETH",
      "outputs": [
        {
          "internalType": "contract IERC20",
          "name": "",
          "type": "address"
        }
      ],
      "stateMutability": "view",
      "type": "function"
    },
    {
      "inputs": [],
      "name": "degenBox",
      "outputs": [
        {
          "internalType": "contract IBentoBoxV1",
          "name": "",
          "type": "address"
        }
      ],
      "stateMutability": "view",
      "type": "function"
    },
    {
      "inputs": [
        {
          "internalType": "contract IERC20",
          "name": "fromToken",
          "type": "address"
        },
        {
          "internalType": "contract IERC20",
          "name": "toToken",
          "type": "address"
        },
        {
          "internalType": "address",
          "name": "recipient",
          "type": "address"
        },
        {
          "internalType": "uint256",
          "name": "shareToMin",
          "type": "uint256"
        },
        {
          "internalType": "uint256",
          "name": "shareFrom",
          "type": "uint256"
        }
      ],
      "name": "swap",
      "outputs": [
        {
          "internalType": "uint256",
          "name": "extraShare",
          "type": "uint256"
        },
        {
          "internalType": "uint256",
          "name": "shareReturned",
          "type": "uint256"
        }
      ],
      "stateMutability": "nonpayable",
      "type": "function"
    },
    {
      "inputs": [
        {
          "internalType": "contract IERC20",
          "name": "fromToken",
          "type": "address"
        },
        {
          "internalType": "contract IERC20",
          "name": "toToken",
          "type": "address"
        },
        {
          "internalType": "address",
          "name": "recipient",
          "type": "address"
        },
        {
          "internalType": "address",
          "name": "refundTo",
          "type": "address"
        },
        {
          "internalType": "uint256",
          "name": "shareFromSupplied",
          "type": "uint256"
        },
        {
          "internalType": "uint256",
          "name": "shareToExact",
          "type": "uint256"
        }
      ],
      "name": "swapExact",
      "outputs": [
        {
          "internalType": "uint256",
          "name": "shareUsed",
          "type": "uint256"
        },
        {
          "internalType": "uint256",
          "name": "shareReturned",
          "type": "uint256"
        }
      ],
      "stateMutability": "nonpayable",
      "type": "function"
    },
    {
      "inputs": [],
      "name": "threecrypto",
      "outputs": [
        {
          "internalType": "contract IThreeCrypto",
          "name": "",
          "type": "address"
        }
      ],
      "stateMutability": "view",
      "type": "function"
    }
  ],
  "transactionHash": "0x03e350c6fefccd21f708b0ea000de6cd3ad6ae3aaf96c52d0db236710c58c428",
  "args": [],
  "solcInputHash": "b592c84e6f5ba5111b0da97f4108c397",
  "bytecode": "0x608060405234801561001057600080fd5b506040805163095ea7b360e01b8152735a6a4d54456819380173272a5e8e9b9904bdf41b6004820152600019602482015290517399d8a9c45b2eca8864373a26d1459e3dff1e17f39163095ea7b39160448083019260209291908290030181600087803b15801561008057600080fd5b505af1158015610094573d6000803e3d6000fd5b505050506040513d60208110156100aa57600080fd5b50506040805163095ea7b360e01b8152735a6a4d54456819380173272a5e8e9b9904bdf41b60048201526000196024820152905173dac17f958d2ee523a2206206994597c13d831ec79163095ea7b391604480830192600092919082900301818387803b15801561011a57600080fd5b505af115801561012e573d6000803e3d6000fd5b50506040805163095ea7b360e01b815273d51a44d3fae010294c616388b506acda1bfaae4660048201526000196024820152905173c02aaa39b223fe8d0a0e5c4f27ead9083c756cc2935063095ea7b3925060448083019260209291908290030181600087803b1580156101a157600080fd5b505af11580156101b5573d6000803e3d6000fd5b505050506040513d60208110156101cb57600080fd5b50506105d0806101dc6000396000f3fe608060405234801561001057600080fd5b50600436106100885760003560e01c80639f495c151161005b5780639f495c1514610126578063ad5c46481461012e578063daec383d14610136578063e343fe121461013e57610088565b806322a88c091461008d5780634622be90146100b15780636733a6c71461011657806378e7e3d11461011e575b600080fd5b610095610180565b604080516001600160a01b039092168252519081900360200190f35b6100fd600480360360c08110156100c757600080fd5b506001600160a01b0381358116916020810135821691604082013581169160608101359091169060808101359060a00135610198565b6040805192835260208301919091528051918290030190f35b6100956101a6565b6100956101be565b6100956101d6565b6100956101ee565b610095610206565b6100fd600480360360a081101561015457600080fd5b506001600160a01b0381358116916020810135821691604082013516906060810135906080013561021e565b735a6a4d54456819380173272a5e8e9b9904bdf41b81565b600080965096945050505050565b73d51a44d3fae010294c616388b506acda1bfaae4681565b73dac17f958d2ee523a2206206994597c13d831ec781565b73d96f48665a1410c0cd669a88898eca36b9fc2cce81565b73c02aaa39b223fe8d0a0e5c4f27ead9083c756cc281565b7399d8a9c45b2eca8864373a26d1459e3dff1e17f381565b6040805163097da6d360e41b81526001600160a01b03871660048201523060248201819052604482015260006064820181905260848201849052825190928392839273d96f48665a1410c0cd669a88898eca36b9fc2cce926397da6d309260a4808201939182900301818787803b15801561029857600080fd5b505af11580156102ac573d6000803e3d6000fd5b505050506040513d60408110156102c257600080fd5b505160408051630b68372160e31b8152600260048201526000602482018190526044820184905260648201819052915192935073d51a44d3fae010294c616388b506acda1bfaae4692635b41b9089260848084019391929182900301818387803b15801561032f57600080fd5b505af1158015610343573d6000803e3d6000fd5b5050604080516370a0823160e01b815230600482015290516000935073dac17f958d2ee523a2206206994597c13d831ec792506370a0823191602480820192602092909190829003018186803b15801561039c57600080fd5b505afa1580156103b0573d6000803e3d6000fd5b505050506040513d60208110156103c657600080fd5b5051604080516322770cc360e11b815260036004820152600060248201819052604482018490526064820181905273d96f48665a1410c0cd669a88898eca36b9fc2cce608483015291519293509091735a6a4d54456819380173272a5e8e9b9904bdf41b916344ee19869160a480830192602092919082900301818787803b15801561045157600080fd5b505af1158015610465573d6000803e3d6000fd5b505050506040513d602081101561047b57600080fd5b50516040805162ae511b60e21b81526001600160a01b038c8116600483015273d96f48665a1410c0cd669a88898eca36b9fc2cce60248301819052908c16604483015260648201849052600060848301819052835194955090936302b9446c9360a4808501949193918390030190829087803b1580156104fa57600080fd5b505af115801561050e573d6000803e3d6000fd5b505050506040513d604081101561052457600080fd5b506020015193506105358488610544565b94505050509550959350505050565b80820382811115610594576040805162461bcd60e51b8152602060048201526015602482015274426f72696e674d6174683a20556e646572666c6f7760581b604482015290519081900360640190fd5b9291505056fea2646970667358221220d201b180ca7825439c0aa38e2267b7ad27a94d34477578bcf4aa9339c1c24d4c64736f6c634300060c0033",
  "devdoc": {
    "kind": "dev",
    "methods": {},
    "version": 1
  },
  "userdoc": {
    "kind": "user",
    "methods": {
      "swap(address,address,address,uint256,uint256)": {
        "notice": "Withdraws 'amountFrom' of token 'from' from the BentoBox account for this swapper. Swaps it for at least 'amountToMin' of token 'to'. Transfers the swapped tokens of 'to' into the BentoBox using a plain ERC20 transfer. Returns the amount of tokens 'to' transferred to BentoBox. (The BentoBox skim function will be used by the caller to get the swapped funds)."
      },
      "swapExact(address,address,address,address,uint256,uint256)": {
        "notice": "Calculates the amount of token 'from' needed to complete the swap (amountFrom), this should be less than or equal to amountFromMax. Withdraws 'amountFrom' of token 'from' from the BentoBox account for this swapper. Swaps it for exactly 'exactAmountTo' of token 'to'. Transfers the swapped tokens of 'to' into the BentoBox using a plain ERC20 transfer. Transfers allocated, but unused 'from' tokens within the BentoBox to 'refundTo' (amountFromMax - amountFrom). Returns the amount of 'from' tokens withdrawn from BentoBox (amountFrom). (The BentoBox skim function will be used by the caller to get the swapped funds)."
      }
    },
    "version": 1
  },
  "storageLayout": {
    "storage": [],
    "types": null
  }
}