{
  "address": "0x205d52E9eA8E42659AC5C7F83863B18d27d7E0F5",
  "abi": [
    {
      "inputs": [],
      "stateMutability": "nonpayable",
      "type": "constructor"
    },
    {
      "inputs": [],
      "name": "MIM",
      "outputs": [
        {
          "internalType": "contract IERC20",
          "name": "",
          "type": "address"
        }
      ],
      "stateMutability": "view",
      "type": "function"
    },
    {
      "inputs": [],
      "name": "MIM3POOL",
      "outputs": [
        {
          "internalType": "contract CurvePool",
          "name": "",
          "type": "address"
        }
      ],
      "stateMutability": "view",
      "type": "function"
    },
    {
      "inputs": [],
      "name": "TETHER",
      "outputs": [
        {
          "internalType": "contract TetherToken",
          "name": "",
          "type": "address"
        }
      ],
      "stateMutability": "view",
      "type": "function"
    },
    {
      "inputs": [],
      "name": "WETH",
      "outputs": [
        {
          "internalType": "contract IERC20",
          "name": "",
          "type": "address"
        }
      ],
      "stateMutability": "view",
      "type": "function"
    },
    {
      "inputs": [],
      "name": "degenBox",
      "outputs": [
        {
          "internalType": "contract IBentoBoxV1",
          "name": "",
          "type": "address"
        }
      ],
      "stateMutability": "view",
      "type": "function"
    },
    {
      "inputs": [
        {
          "internalType": "address",
          "name": "recipient",
          "type": "address"
        },
        {
          "internalType": "uint256",
          "name": "shareToMin",
          "type": "uint256"
        },
        {
          "internalType": "uint256",
          "name": "shareFrom",
          "type": "uint256"
        }
      ],
      "name": "swap",
      "outputs": [
        {
          "internalType": "uint256",
          "name": "extraShare",
          "type": "uint256"
        },
        {
          "internalType": "uint256",
          "name": "shareReturned",
          "type": "uint256"
        }
      ],
      "stateMutability": "nonpayable",
      "type": "function"
    },
    {
      "inputs": [],
      "name": "threecrypto",
      "outputs": [
        {
          "internalType": "contract IThreeCrypto",
          "name": "",
          "type": "address"
        }
      ],
      "stateMutability": "view",
      "type": "function"
    }
  ],
  "transactionHash": "0xe9708bfb4a0d434a80f79d5cd2b8cb7e6c6601696558a8d292a151aaa1650dba",
  "args": [],
  "solcInputHash": "b592c84e6f5ba5111b0da97f4108c397",
  "bytecode": "0x608060405234801561001057600080fd5b506040805163095ea7b360e01b8152735a6a4d54456819380173272a5e8e9b9904bdf41b6004820152600019602482015290517399d8a9c45b2eca8864373a26d1459e3dff1e17f39163095ea7b39160448083019260209291908290030181600087803b15801561008057600080fd5b505af1158015610094573d6000803e3d6000fd5b505050506040513d60208110156100aa57600080fd5b50506040805163095ea7b360e01b815273d51a44d3fae010294c616388b506acda1bfaae4660048201526000196024820152905173dac17f958d2ee523a2206206994597c13d831ec79163095ea7b391604480830192600092919082900301818387803b15801561011a57600080fd5b505af115801561012e573d6000803e3d6000fd5b50506040805163095ea7b360e01b815273d96f48665a1410c0cd669a88898eca36b9fc2cce60048201526000196024820152905173c02aaa39b223fe8d0a0e5c4f27ead9083c756cc2935063095ea7b3925060448083019260209291908290030181600087803b1580156101a157600080fd5b505af11580156101b5573d6000803e3d6000fd5b505050506040513d60208110156101cb57600080fd5b505061055f806101dc6000396000f3fe608060405234801561001057600080fd5b506004361061007d5760003560e01c80639f1d0f591161005b5780639f1d0f59146100b65780639f495c1514610101578063ad5c464814610109578063daec383d146101115761007d565b806322a88c09146100825780636733a6c7146100a657806378e7e3d1146100ae575b600080fd5b61008a610119565b604080516001600160a01b039092168252519081900360200190f35b61008a610131565b61008a610149565b6100e8600480360360608110156100cc57600080fd5b506001600160a01b038135169060208101359060400135610161565b6040805192835260208301919091528051918290030190f35b61008a61048b565b61008a6104a3565b61008a6104bb565b735a6a4d54456819380173272a5e8e9b9904bdf41b81565b73d51a44d3fae010294c616388b506acda1bfaae4681565b73dac17f958d2ee523a2206206994597c13d831ec781565b6040805163097da6d360e41b81527399d8a9c45b2eca8864373a26d1459e3dff1e17f360048201523060248201819052604482015260006064820181905260848201849052825190928392839273d96f48665a1410c0cd669a88898eca36b9fc2cce926397da6d309260a4808201939182900301818787803b1580156101e657600080fd5b505af11580156101fa573d6000803e3d6000fd5b505050506040513d604081101561021057600080fd5b5051604080516322770cc360e11b815260006004820181905260036024830152604482018490526064820181905230608483015291519293509091735a6a4d54456819380173272a5e8e9b9904bdf41b916344ee19869160a480830192602092919082900301818787803b15801561028757600080fd5b505af115801561029b573d6000803e3d6000fd5b505050506040513d60208110156102b157600080fd5b505160408051630b68372160e31b8152600060048201819052600260248301526044820184905260648201819052915192935073d51a44d3fae010294c616388b506acda1bfaae4692635b41b9089260848084019391929182900301818387803b15801561031e57600080fd5b505af1158015610332573d6000803e3d6000fd5b5050604080516370a0823160e01b815230600482015290516000935073c02aaa39b223fe8d0a0e5c4f27ead9083c756cc292506370a0823191602480820192602092909190829003018186803b15801561038b57600080fd5b505afa15801561039f573d6000803e3d6000fd5b505050506040513d60208110156103b557600080fd5b50516040805162ae511b60e21b815273c02aaa39b223fe8d0a0e5c4f27ead9083c756cc260048201523060248201526001600160a01b038b16604482015260648101839052600060848201819052825193945073d96f48665a1410c0cd669a88898eca36b9fc2cce936302b9446c9360a4808501949193918390030190829087803b15801561044357600080fd5b505af1158015610457573d6000803e3d6000fd5b505050506040513d604081101561046d57600080fd5b5060200151935061047e84886104d3565b9450505050935093915050565b73d96f48665a1410c0cd669a88898eca36b9fc2cce81565b73c02aaa39b223fe8d0a0e5c4f27ead9083c756cc281565b7399d8a9c45b2eca8864373a26d1459e3dff1e17f381565b80820382811115610523576040805162461bcd60e51b8152602060048201526015602482015274426f72696e674d6174683a20556e646572666c6f7760581b604482015290519081900360640190fd5b9291505056fea26469706673582212208a888d76673466af8bcee85bb6fcdc73ce2996997e9b3c90e9227c8316988cc464736f6c634300060c0033",
  "devdoc": {
    "kind": "dev",
    "methods": {},
    "version": 1
  },
  "userdoc": {
    "kind": "user",
    "methods": {},
    "version": 1
  },
  "storageLayout": {
    "storage": [],
    "types": null
  }
}