{
  "address": "0x6cc0cd7D25E291029B55C767B9A2D1d9A18Ae668",
  "abi": [
    {
      "inputs": [
        {
          "internalType": "bytes",
          "name": "data",
          "type": "bytes"
        }
      ],
      "name": "get",
      "outputs": [
        {
          "internalType": "bool",
          "name": "",
          "type": "bool"
        },
        {
          "internalType": "uint256",
          "name": "",
          "type": "uint256"
        }
      ],
      "stateMutability": "nonpayable",
      "type": "function"
    },
    {
      "inputs": [
        {
          "internalType": "address",
          "name": "multiply",
          "type": "address"
        },
        {
          "internalType": "address",
          "name": "divide",
          "type": "address"
        },
        {
          "internalType": "uint256",
          "name": "decimals",
          "type": "uint256"
        },
        {
          "internalType": "address",
          "name": "yearnVault",
          "type": "address"
        }
      ],
      "name": "getDataParameter",
      "outputs": [
        {
          "internalType": "bytes",
          "name": "",
          "type": "bytes"
        }
      ],
      "stateMutability": "pure",
      "type": "function"
    },
    {
      "inputs": [
        {
          "internalType": "bytes",
          "name": "",
          "type": "bytes"
        }
      ],
      "name": "name",
      "outputs": [
        {
          "internalType": "string",
          "name": "",
          "type": "string"
        }
      ],
      "stateMutability": "view",
      "type": "function"
    },
    {
      "inputs": [
        {
          "internalType": "bytes",
          "name": "data",
          "type": "bytes"
        }
      ],
      "name": "peek",
      "outputs": [
        {
          "internalType": "bool",
          "name": "",
          "type": "bool"
        },
        {
          "internalType": "uint256",
          "name": "",
          "type": "uint256"
        }
      ],
      "stateMutability": "view",
      "type": "function"
    },
    {
      "inputs": [
        {
          "internalType": "bytes",
          "name": "data",
          "type": "bytes"
        }
      ],
      "name": "peekSpot",
      "outputs": [
        {
          "internalType": "uint256",
          "name": "rate",
          "type": "uint256"
        }
      ],
      "stateMutability": "view",
      "type": "function"
    },
    {
      "inputs": [
        {
          "internalType": "bytes",
          "name": "",
          "type": "bytes"
        }
      ],
      "name": "symbol",
      "outputs": [
        {
          "internalType": "string",
          "name": "",
          "type": "string"
        }
      ],
      "stateMutability": "view",
      "type": "function"
    }
  ],
  "transactionHash": "0x06dfae72912c3dc87204ae6ddf2005cd7a59ef9ddc71b809e649f2266d7dbeea",
  "args": [],
  "solcInputHash": "4478d8b1f28728084fe05817244ce7de",
  "bytecode": "0x608060405234801561001057600080fd5b50610711806100206000396000f3fe608060405234801561001057600080fd5b50600436106100725760003560e01c8063d568866c11610050578063d568866c14610227578063d6d7d52514610297578063eeb8a8d31461029757610072565b80635834fb5014610077578063c699c4d614610135578063d39bbef0146101a5575b600080fd5b6100c06004803603608081101561008d57600080fd5b5073ffffffffffffffffffffffffffffffffffffffff813581169160208101358216916040820135916060013516610322565b6040805160208082528351818301528351919283929083019185019080838360005b838110156100fa5781810151838201526020016100e2565b50505050905090810190601f1680156101275780820380516001836020036101000a031916815260200191505b509250505060405180910390f35b6100c06004803603602081101561014b57600080fd5b81019060208101813564010000000081111561016657600080fd5b82018360208201111561017857600080fd5b8035906020019184600183028401116401000000008311171561019a57600080fd5b509092509050610373565b610215600480360360208110156101bb57600080fd5b8101906020810181356401000000008111156101d657600080fd5b8201836020820111156101e857600080fd5b8035906020019184600183028401116401000000008311171561020a57600080fd5b5090925090506103ae565b60408051918252519081900360200190f35b6100c06004803603602081101561023d57600080fd5b81019060208101813564010000000081111561025857600080fd5b82018360208201111561026a57600080fd5b8035906020019184600183028401116401000000008311171561028c57600080fd5b5090925090506103c2565b610307600480360360208110156102ad57600080fd5b8101906020810181356401000000008111156102c857600080fd5b8201836020820111156102da57600080fd5b803590602001918460018302840111640100000000831117156102fc57600080fd5b5090925090506103fb565b60408051921515835260208301919091528051918290030190f35b6040805173ffffffffffffffffffffffffffffffffffffffff95861660208201529385168482015260608401929092529092166080808301919091528251808303909101815260a090910190915290565b60408051808201909152600481527f4c494e4b0000000000000000000000000000000000000000000000000000000060208201525b92915050565b60006103ba83836103fb565b949350505050565b505060408051808201909152600981527f436861696e6c696e6b0000000000000000000000000000000000000000000000602082015290565b6000806000806000808787608081101561041457600080fd5b5073ffffffffffffffffffffffffffffffffffffffff81358116955060208201358116945060408201359350606090910135169050600161045785858585610466565b95509550505050509250929050565b60006ec097ce7bc90715b34b9f100000000073ffffffffffffffffffffffffffffffffffffffff861615610517576105108673ffffffffffffffffffffffffffffffffffffffff166350d25bcd6040518163ffffffff1660e01b815260040160206040518083038186803b1580156104dd57600080fd5b505afa1580156104f1573d6000803e3d6000fd5b505050506040513d602081101561050757600080fd5b50518290610655565b905061052c565b61052981670de0b6b3a7640000610655565b90505b73ffffffffffffffffffffffffffffffffffffffff8516156105c6578473ffffffffffffffffffffffffffffffffffffffff166350d25bcd6040518163ffffffff1660e01b815260040160206040518083038186803b15801561058e57600080fd5b505afa1580156105a2573d6000803e3d6000fd5b505050506040513d60208110156105b857600080fd5b505181816105c257fe5b0490505b6106428373ffffffffffffffffffffffffffffffffffffffff166399530b066040518163ffffffff1660e01b815260040160206040518083038186803b15801561060f57600080fd5b505afa158015610623573d6000803e3d6000fd5b505050506040513d602081101561063957600080fd5b50518590610655565b818161064a57fe5b049695505050505050565b60008115806106705750508082028282828161066d57fe5b04145b6103a857604080517f08c379a000000000000000000000000000000000000000000000000000000000815260206004820152601860248201527f426f72696e674d6174683a204d756c204f766572666c6f770000000000000000604482015290519081900360640190fdfea2646970667358221220f4969f17bc1641afec11040b9b921e1365b49e9f99163f41aab2f969089ef4cc64736f6c634300060c0033"
}