{
  "address": "0xF80a7b98b59e7F71BAa149990bAA6044728321bb",
  "abi": [
    {
      "inputs": [],
      "stateMutability": "nonpayable",
      "type": "constructor"
    },
    {
      "inputs": [],
      "name": "CVXETHPOOL",
      "outputs": [
        {
          "internalType": "contract CurvePool",
          "name": "",
          "type": "address"
        }
      ],
      "stateMutability": "view",
      "type": "function"
    },
    {
      "inputs": [],
      "name": "DEGENBOX",
      "outputs": [
        {
          "internalType": "contract IBentoBoxV1",
          "name": "",
          "type": "address"
        }
      ],
      "stateMutability": "view",
      "type": "function"
    },
    {
      "inputs": [],
      "name": "MIM",
      "outputs": [
        {
          "internalType": "contract IERC20",
          "name": "",
          "type": "address"
        }
      ],
      "stateMutability": "view",
      "type": "function"
    },
    {
      "inputs": [],
      "name": "MIM3POOL",
      "outputs": [
        {
          "internalType": "contract CurvePool",
          "name": "",
          "type": "address"
        }
      ],
      "stateMutability": "view",
      "type": "function"
    },
    {
      "inputs": [],
      "name": "THREECRYPTO",
      "outputs": [
        {
          "internalType": "contract CurveThreeCryptoPool",
          "name": "",
          "type": "address"
        }
      ],
      "stateMutability": "view",
      "type": "function"
    },
    {
      "inputs": [],
      "name": "USDT",
      "outputs": [
        {
          "internalType": "contract Tether",
          "name": "",
          "type": "address"
        }
      ],
      "stateMutability": "view",
      "type": "function"
    },
    {
      "inputs": [],
      "name": "WETH",
      "outputs": [
        {
          "internalType": "contract IERC20",
          "name": "",
          "type": "address"
        }
      ],
      "stateMutability": "view",
      "type": "function"
    },
    {
      "inputs": [],
      "name": "YVCVXETH",
      "outputs": [
        {
          "internalType": "contract IYearnVault",
          "name": "",
          "type": "address"
        }
      ],
      "stateMutability": "view",
      "type": "function"
    },
    {
      "inputs": [
        {
          "internalType": "contract IERC20",
          "name": "",
          "type": "address"
        },
        {
          "internalType": "contract IERC20",
          "name": "",
          "type": "address"
        },
        {
          "internalType": "address",
          "name": "recipient",
          "type": "address"
        },
        {
          "internalType": "uint256",
          "name": "shareToMin",
          "type": "uint256"
        },
        {
          "internalType": "uint256",
          "name": "shareFrom",
          "type": "uint256"
        }
      ],
      "name": "swap",
      "outputs": [
        {
          "internalType": "uint256",
          "name": "extraShare",
          "type": "uint256"
        },
        {
          "internalType": "uint256",
          "name": "shareReturned",
          "type": "uint256"
        }
      ],
      "stateMutability": "nonpayable",
      "type": "function"
    },
    {
      "inputs": [
        {
          "internalType": "contract IERC20",
          "name": "",
          "type": "address"
        },
        {
          "internalType": "contract IERC20",
          "name": "",
          "type": "address"
        },
        {
          "internalType": "address",
          "name": "",
          "type": "address"
        },
        {
          "internalType": "address",
          "name": "",
          "type": "address"
        },
        {
          "internalType": "uint256",
          "name": "",
          "type": "uint256"
        },
        {
          "internalType": "uint256",
          "name": "",
          "type": "uint256"
        }
      ],
      "name": "swapExact",
      "outputs": [
        {
          "internalType": "uint256",
          "name": "shareUsed",
          "type": "uint256"
        },
        {
          "internalType": "uint256",
          "name": "shareReturned",
          "type": "uint256"
        }
      ],
      "stateMutability": "pure",
      "type": "function"
    }
  ],
  "transactionHash": "0x6478f0194375177a96157418f0e4d6e9cc452e5ba39a403230e50a7986082fcd",
  "args": [],
  "solcInputHash": "2071b81cf51151da919f735c40f7d9f9",
  "bytecode": "0x60806040523480156200001157600080fd5b5073c02aaa39b223fe8d0a0e5c4f27ead9083c756cc273ffffffffffffffffffffffffffffffffffffffff1663095ea7b373d51a44d3fae010294c616388b506acda1bfaae467fffffffffffffffffffffffffffffffffffffffffffffffffffffffffffffffff6040518363ffffffff1660e01b81526004016200009792919062000212565b602060405180830381600087803b158015620000b257600080fd5b505af1158015620000c7573d6000803e3d6000fd5b505050506040513d601f19601f82011682018060405250810190620000ed9190620001c4565b5073dac17f958d2ee523a2206206994597c13d831ec773ffffffffffffffffffffffffffffffffffffffff1663095ea7b3735a6a4d54456819380173272a5e8e9b9904bdf41b7fffffffffffffffffffffffffffffffffffffffffffffffffffffffffffffffff6040518363ffffffff1660e01b81526004016200017392919062000212565b600060405180830381600087803b1580156200018e57600080fd5b505af1158015620001a3573d6000803e3d6000fd5b50505050620002a3565b600081519050620001be8162000289565b92915050565b600060208284031215620001d757600080fd5b6000620001e784828501620001ad565b91505092915050565b620001fb816200023f565b82525050565b6200020c816200027f565b82525050565b6000604082019050620002296000830185620001f0565b62000238602083018462000201565b9392505050565b60006200024c826200025f565b9050919050565b60008115159050919050565b600073ffffffffffffffffffffffffffffffffffffffff82169050919050565b6000819050919050565b620002948162000253565b8114620002a057600080fd5b50565b610ec180620002b36000396000f3fe608060405234801561001057600080fd5b506004361061009e5760003560e01c8063ad5c464811610066578063ad5c46481461014c578063c54e44eb1461016a578063daec383d14610188578063e0bc66b8146101a6578063e343fe12146101c45761009e565b80630acc00c0146100a357806322a88c09146100c157806339b3b10c146100df5780634622be90146100fd5780635825a2481461012e575b600080fd5b6100ab6101f5565b6040516100b89190610b3a565b60405180910390f35b6100c961020d565b6040516100d69190610a28565b60405180910390f35b6100e7610225565b6040516100f49190610a28565b60405180910390f35b610117600480360381019061011291906107f4565b61023d565b604051610125929190610c08565b60405180910390f35b610136610252565b6040516101439190610a43565b60405180910390f35b61015461026a565b6040516101619190610a79565b60405180910390f35b610172610282565b60405161017f9190610b55565b60405180910390f35b61019061029a565b60405161019d9190610a79565b60405180910390f35b6101ae6102b2565b6040516101bb9190610a5e565b60405180910390f35b6101de60048036038101906101d9919061087d565b6102ca565b6040516101ec929190610c08565b60405180910390f35b731635b506a88fbf428465ad65d00e8d6b6e5846c381565b735a6a4d54456819380173272a5e8e9b9904bdf41b81565b73b576491f1e6e5e62f1d8f26062ee822b40b0e0d481565b60008060008091509150965096945050505050565b73d51a44d3fae010294c616388b506acda1bfaae4681565b73c02aaa39b223fe8d0a0e5c4f27ead9083c756cc281565b73dac17f958d2ee523a2206206994597c13d831ec781565b7399d8a9c45b2eca8864373a26d1459e3dff1e17f381565b73d96f48665a1410c0cd669a88898eca36b9fc2cce81565b60008073d96f48665a1410c0cd669a88898eca36b9fc2cce73ffffffffffffffffffffffffffffffffffffffff166397da6d30731635b506a88fbf428465ad65d00e8d6b6e5846c330306000886040518663ffffffff1660e01b8152600401610337959493929190610a94565b6040805180830381600087803b15801561035057600080fd5b505af1158015610364573d6000803e3d6000fd5b505050506040513d601f19601f82011682018060405250810190610388919061091d565b50506000731635b506a88fbf428465ad65d00e8d6b6e5846c373ffffffffffffffffffffffffffffffffffffffff16633ccfd60b6040518163ffffffff1660e01b8152600401602060405180830381600087803b1580156103e857600080fd5b505af11580156103fc573d6000803e3d6000fd5b505050506040513d601f19601f8201168201806040525081019061042091906108f4565b9050600073b576491f1e6e5e62f1d8f26062ee822b40b0e0d473ffffffffffffffffffffffffffffffffffffffff1663f1dc3cc9836000806040518463ffffffff1660e01b815260040161047693929190610c31565b602060405180830381600087803b15801561049057600080fd5b505af11580156104a4573d6000803e3d6000fd5b505050506040513d601f19601f820116820180604052508101906104c891906108f4565b905073d51a44d3fae010294c616388b506acda1bfaae4673ffffffffffffffffffffffffffffffffffffffff16635b41b908600260008460006040518563ffffffff1660e01b81526004016105209493929190610b70565b600060405180830381600087803b15801561053a57600080fd5b505af115801561054e573d6000803e3d6000fd5b505050506000735a6a4d54456819380173272a5e8e9b9904bdf41b73ffffffffffffffffffffffffffffffffffffffff166344ee19866003600073dac17f958d2ee523a2206206994597c13d831ec773ffffffffffffffffffffffffffffffffffffffff166370a08231306040518263ffffffff1660e01b81526004016105d59190610a0d565b60206040518083038186803b1580156105ed57600080fd5b505afa158015610601573d6000803e3d6000fd5b505050506040513d601f19601f8201168201806040525081019061062591906108f4565b600073d96f48665a1410c0cd669a88898eca36b9fc2cce6040518663ffffffff1660e01b815260040161065c959493929190610bb5565b602060405180830381600087803b15801561067657600080fd5b505af115801561068a573d6000803e3d6000fd5b505050506040513d601f19601f820116820180604052508101906106ae91906108f4565b905073d96f48665a1410c0cd669a88898eca36b9fc2cce73ffffffffffffffffffffffffffffffffffffffff166302b9446c7399d8a9c45b2eca8864373a26d1459e3dff1e17f373d96f48665a1410c0cd669a88898eca36b9fc2cce8b8560006040518663ffffffff1660e01b815260040161072e959493929190610ae7565b6040805180830381600087803b15801561074757600080fd5b505af115801561075b573d6000803e3d6000fd5b505050506040513d601f19601f8201168201806040525081019061077f919061091d565b90508094505086846107919190610c68565b94505050509550959350505050565b6000813590506107af81610e46565b92915050565b6000813590506107c481610e5d565b92915050565b6000813590506107d981610e74565b92915050565b6000815190506107ee81610e74565b92915050565b60008060008060008060c0878903121561080d57600080fd5b600061081b89828a016107b5565b965050602061082c89828a016107b5565b955050604061083d89828a016107a0565b945050606061084e89828a016107a0565b935050608061085f89828a016107ca565b92505060a061087089828a016107ca565b9150509295509295509295565b600080600080600060a0868803121561089557600080fd5b60006108a3888289016107b5565b95505060206108b4888289016107b5565b94505060406108c5888289016107a0565b93505060606108d6888289016107ca565b92505060806108e7888289016107ca565b9150509295509295909350565b60006020828403121561090657600080fd5b6000610914848285016107df565b91505092915050565b6000806040838503121561093057600080fd5b600061093e858286016107df565b925050602061094f858286016107df565b9150509250929050565b61096281610c9c565b82525050565b61097181610cf7565b82525050565b61098081610d1b565b82525050565b61098f81610d3f565b82525050565b61099e81610d63565b82525050565b6109ad81610d87565b82525050565b6109bc81610dab565b82525050565b6109cb81610dcf565b82525050565b6109da81610de1565b82525050565b6109e981610df3565b82525050565b6109f881610e05565b82525050565b610a0781610ced565b82525050565b6000602082019050610a226000830184610959565b92915050565b6000602082019050610a3d6000830184610968565b92915050565b6000602082019050610a586000830184610977565b92915050565b6000602082019050610a736000830184610986565b92915050565b6000602082019050610a8e6000830184610995565b92915050565b600060a082019050610aa96000830188610995565b610ab66020830187610959565b610ac36040830186610959565b610ad060608301856109d1565b610add60808301846109fe565b9695505050505050565b600060a082019050610afc6000830188610995565b610b096020830187610959565b610b166040830186610959565b610b2360608301856109fe565b610b3060808301846109d1565b9695505050505050565b6000602082019050610b4f60008301846109a4565b92915050565b6000602082019050610b6a60008301846109b3565b92915050565b6000608082019050610b8560008301876109e0565b610b9260208301866109d1565b610b9f60408301856109fe565b610bac60608301846109d1565b95945050505050565b600060a082019050610bca60008301886109ef565b610bd760208301876109c2565b610be460408301866109fe565b610bf160608301856109d1565b610bfe6080830184610959565b9695505050505050565b6000604082019050610c1d60008301856109fe565b610c2a60208301846109fe565b9392505050565b6000606082019050610c4660008301866109fe565b610c5360208301856109fe565b610c6060408301846109d1565b949350505050565b6000610c7382610ced565b9150610c7e83610ced565b925082821015610c9157610c90610e17565b5b828203905092915050565b6000610ca782610ccd565b9050919050565b6000610cb982610c9c565b9050919050565b600081600f0b9050919050565b600073ffffffffffffffffffffffffffffffffffffffff82169050919050565b6000819050919050565b6000610d0282610d09565b9050919050565b6000610d1482610ccd565b9050919050565b6000610d2682610d2d565b9050919050565b6000610d3882610ccd565b9050919050565b6000610d4a82610d51565b9050919050565b6000610d5c82610ccd565b9050919050565b6000610d6e82610d75565b9050919050565b6000610d8082610ccd565b9050919050565b6000610d9282610d99565b9050919050565b6000610da482610ccd565b9050919050565b6000610db682610dbd565b9050919050565b6000610dc882610ccd565b9050919050565b6000610dda82610cc0565b9050919050565b6000610dec82610ced565b9050919050565b6000610dfe82610ced565b9050919050565b6000610e1082610cc0565b9050919050565b7f4e487b7100000000000000000000000000000000000000000000000000000000600052601160045260246000fd5b610e4f81610c9c565b8114610e5a57600080fd5b50565b610e6681610cae565b8114610e7157600080fd5b50565b610e7d81610ced565b8114610e8857600080fd5b5056fea264697066735822122046aba58ea43d6b71dc5d0894d275325e59c03b566c180c92ead564a62857f52d64736f6c63430008040033",
  "devdoc": {
    "kind": "dev",
    "methods": {},
    "version": 1
  },
  "userdoc": {
    "kind": "user",
    "methods": {
      "swap(address,address,address,uint256,uint256)": {
        "notice": "Withdraws 'amountFrom' of token 'from' from the BentoBox account for this swapper. Swaps it for at least 'amountToMin' of token 'to'. Transfers the swapped tokens of 'to' into the BentoBox using a plain ERC20 transfer. Returns the amount of tokens 'to' transferred to BentoBox. (The BentoBox skim function will be used by the caller to get the swapped funds)."
      },
      "swapExact(address,address,address,address,uint256,uint256)": {
        "notice": "Calculates the amount of token 'from' needed to complete the swap (amountFrom), this should be less than or equal to amountFromMax. Withdraws 'amountFrom' of token 'from' from the BentoBox account for this swapper. Swaps it for exactly 'exactAmountTo' of token 'to'. Transfers the swapped tokens of 'to' into the BentoBox using a plain ERC20 transfer. Transfers allocated, but unused 'from' tokens within the BentoBox to 'refundTo' (amountFromMax - amountFrom). Returns the amount of 'from' tokens withdrawn from BentoBox (amountFrom). (The BentoBox skim function will be used by the caller to get the swapped funds)."
      }
    },
    "version": 1
  },
  "storageLayout": {
    "storage": [],
    "types": null
  }
}