{
  "address": "0xE345156cDEc151D9F843F94ADE7770EFA9d56417",
  "abi": [
    {
      "inputs": [],
      "stateMutability": "nonpayable",
      "type": "constructor"
    },
    {
      "inputs": [],
      "name": "CVXETH",
      "outputs": [
        {
          "internalType": "contract IERC20",
          "name": "",
          "type": "address"
        }
      ],
      "stateMutability": "view",
      "type": "function"
    },
    {
      "inputs": [],
      "name": "CVXETHPOOL",
      "outputs": [
        {
          "internalType": "contract CurvePool",
          "name": "",
          "type": "address"
        }
      ],
      "stateMutability": "view",
      "type": "function"
    },
    {
      "inputs": [],
      "name": "DEGENBOX",
      "outputs": [
        {
          "internalType": "contract IBentoBoxV1",
          "name": "",
          "type": "address"
        }
      ],
      "stateMutability": "view",
      "type": "function"
    },
    {
      "inputs": [],
      "name": "MIM",
      "outputs": [
        {
          "internalType": "contract IERC20",
          "name": "",
          "type": "address"
        }
      ],
      "stateMutability": "view",
      "type": "function"
    },
    {
      "inputs": [],
      "name": "MIM3POOL",
      "outputs": [
        {
          "internalType": "contract CurvePool",
          "name": "",
          "type": "address"
        }
      ],
      "stateMutability": "view",
      "type": "function"
    },
    {
      "inputs": [],
      "name": "THREECRYPTO",
      "outputs": [
        {
          "internalType": "contract CurveThreeCryptoPool",
          "name": "",
          "type": "address"
        }
      ],
      "stateMutability": "view",
      "type": "function"
    },
    {
      "inputs": [],
      "name": "USDT",
      "outputs": [
        {
          "internalType": "contract Tether",
          "name": "",
          "type": "address"
        }
      ],
      "stateMutability": "view",
      "type": "function"
    },
    {
      "inputs": [],
      "name": "WETH",
      "outputs": [
        {
          "internalType": "contract IERC20",
          "name": "",
          "type": "address"
        }
      ],
      "stateMutability": "view",
      "type": "function"
    },
    {
      "inputs": [],
      "name": "YVCVXETH",
      "outputs": [
        {
          "internalType": "contract IYearnVault",
          "name": "",
          "type": "address"
        }
      ],
      "stateMutability": "view",
      "type": "function"
    },
    {
      "inputs": [
        {
          "internalType": "address",
          "name": "recipient",
          "type": "address"
        },
        {
          "internalType": "uint256",
          "name": "shareToMin",
          "type": "uint256"
        },
        {
          "internalType": "uint256",
          "name": "shareFrom",
          "type": "uint256"
        }
      ],
      "name": "swap",
      "outputs": [
        {
          "internalType": "uint256",
          "name": "extraShare",
          "type": "uint256"
        },
        {
          "internalType": "uint256",
          "name": "shareReturned",
          "type": "uint256"
        }
      ],
      "stateMutability": "nonpayable",
      "type": "function"
    }
  ],
  "transactionHash": "0x49ee2f826e242e7e904c2ebb0e749371b6d555eb3bdab65ad721d05328f908a5",
  "args": [],
  "solcInputHash": "2071b81cf51151da919f735c40f7d9f9",
  "bytecode": "0x60806040523480156200001157600080fd5b507399d8a9c45b2eca8864373a26d1459e3dff1e17f373ffffffffffffffffffffffffffffffffffffffff1663095ea7b3735a6a4d54456819380173272a5e8e9b9904bdf41b7fffffffffffffffffffffffffffffffffffffffffffffffffffffffffffffffff6040518363ffffffff1660e01b815260040162000097929190620003ca565b602060405180830381600087803b158015620000b257600080fd5b505af1158015620000c7573d6000803e3d6000fd5b505050506040513d601f19601f82011682018060405250810190620000ed91906200037c565b5073dac17f958d2ee523a2206206994597c13d831ec773ffffffffffffffffffffffffffffffffffffffff1663095ea7b373d51a44d3fae010294c616388b506acda1bfaae467fffffffffffffffffffffffffffffffffffffffffffffffffffffffffffffffff6040518363ffffffff1660e01b815260040162000173929190620003ca565b600060405180830381600087803b1580156200018e57600080fd5b505af1158015620001a3573d6000803e3d6000fd5b5050505073c02aaa39b223fe8d0a0e5c4f27ead9083c756cc273ffffffffffffffffffffffffffffffffffffffff1663095ea7b373b576491f1e6e5e62f1d8f26062ee822b40b0e0d47fffffffffffffffffffffffffffffffffffffffffffffffffffffffffffffffff6040518363ffffffff1660e01b81526004016200022c929190620003ca565b602060405180830381600087803b1580156200024757600080fd5b505af11580156200025c573d6000803e3d6000fd5b505050506040513d601f19601f820116820180604052508101906200028291906200037c565b50733a283d9c08e8b55966afb64c515f5143cf90761173ffffffffffffffffffffffffffffffffffffffff1663095ea7b3731635b506a88fbf428465ad65d00e8d6b6e5846c37fffffffffffffffffffffffffffffffffffffffffffffffffffffffffffffffff6040518363ffffffff1660e01b815260040162000308929190620003ca565b602060405180830381600087803b1580156200032357600080fd5b505af115801562000338573d6000803e3d6000fd5b505050506040513d601f19601f820116820180604052508101906200035e91906200037c565b506200045b565b600081519050620003768162000441565b92915050565b6000602082840312156200038f57600080fd5b60006200039f8482850162000365565b91505092915050565b620003b381620003f7565b82525050565b620003c48162000437565b82525050565b6000604082019050620003e16000830185620003a8565b620003f06020830184620003b9565b9392505050565b6000620004048262000417565b9050919050565b60008115159050919050565b600073ffffffffffffffffffffffffffffffffffffffff82169050919050565b6000819050919050565b6200044c816200040b565b81146200045857600080fd5b50565b610eab806200046b6000396000f3fe608060405234801561001057600080fd5b506004361061009e5760003560e01c80639f1d0f59116100665780639f1d0f5914610139578063ad5c46481461016a578063c54e44eb14610188578063daec383d146101a6578063e0bc66b8146101c45761009e565b80630acc00c0146100a35780630c084d70146100c157806322a88c09146100df57806339b3b10c146100fd5780635825a2481461011b575b600080fd5b6100ab6101e2565b6040516100b89190610b2e565b60405180910390f35b6100c96101fa565b6040516100d69190610a6d565b60405180910390f35b6100e7610212565b6040516100f49190610a1c565b60405180910390f35b61010561022a565b6040516101129190610a1c565b60405180910390f35b610123610242565b6040516101309190610a37565b60405180910390f35b610153600480360381019061014e91906107f2565b61025a565b604051610161929190610c25565b60405180910390f35b610172610753565b60405161017f9190610a6d565b60405180910390f35b61019061076b565b60405161019d9190610b49565b60405180910390f35b6101ae610783565b6040516101bb9190610a6d565b60405180910390f35b6101cc61079b565b6040516101d99190610a52565b60405180910390f35b731635b506a88fbf428465ad65d00e8d6b6e5846c381565b733a283d9c08e8b55966afb64c515f5143cf90761181565b735a6a4d54456819380173272a5e8e9b9904bdf41b81565b73b576491f1e6e5e62f1d8f26062ee822b40b0e0d481565b73d51a44d3fae010294c616388b506acda1bfaae4681565b600080600073d96f48665a1410c0cd669a88898eca36b9fc2cce73ffffffffffffffffffffffffffffffffffffffff166397da6d307399d8a9c45b2eca8864373a26d1459e3dff1e17f330306000896040518663ffffffff1660e01b81526004016102c9959493929190610a88565b6040805180830381600087803b1580156102e257600080fd5b505af11580156102f6573d6000803e3d6000fd5b505050506040513d601f19601f8201168201806040525081019061031a919061086a565b5090506000735a6a4d54456819380173272a5e8e9b9904bdf41b73ffffffffffffffffffffffffffffffffffffffff166344ee198660006003856000306040518663ffffffff1660e01b8152600401610377959493929190610ba9565b602060405180830381600087803b15801561039157600080fd5b505af11580156103a5573d6000803e3d6000fd5b505050506040513d601f19601f820116820180604052508101906103c99190610841565b905073d51a44d3fae010294c616388b506acda1bfaae4673ffffffffffffffffffffffffffffffffffffffff16635b41b908600060028460006040518563ffffffff1660e01b81526004016104219493929190610b64565b600060405180830381600087803b15801561043b57600080fd5b505af115801561044f573d6000803e3d6000fd5b505050506000604051806040016040528073c02aaa39b223fe8d0a0e5c4f27ead9083c756cc273ffffffffffffffffffffffffffffffffffffffff166370a08231306040518263ffffffff1660e01b81526004016104ad91906109d8565b60206040518083038186803b1580156104c557600080fd5b505afa1580156104d9573d6000803e3d6000fd5b505050506040513d601f19601f820116820180604052508101906104fd9190610841565b81526020016000815250905073b576491f1e6e5e62f1d8f26062ee822b40b0e0d473ffffffffffffffffffffffffffffffffffffffff16630b4c7e4d8260006040518363ffffffff1660e01b81526004016105599291906109f3565b600060405180830381600087803b15801561057357600080fd5b505af1158015610587573d6000803e3d6000fd5b505050506000731635b506a88fbf428465ad65d00e8d6b6e5846c373ffffffffffffffffffffffffffffffffffffffff16636e553f657fffffffffffffffffffffffffffffffffffffffffffffffffffffffffffffffff73d96f48665a1410c0cd669a88898eca36b9fc2cce6040518363ffffffff1660e01b8152600401610610929190610bfc565b602060405180830381600087803b15801561062a57600080fd5b505af115801561063e573d6000803e3d6000fd5b505050506040513d601f19601f820116820180604052508101906106629190610841565b905073d96f48665a1410c0cd669a88898eca36b9fc2cce73ffffffffffffffffffffffffffffffffffffffff166302b9446c731635b506a88fbf428465ad65d00e8d6b6e5846c373d96f48665a1410c0cd669a88898eca36b9fc2cce8c8560006040518663ffffffff1660e01b81526004016106e2959493929190610adb565b6040805180830381600087803b1580156106fb57600080fd5b505af115801561070f573d6000803e3d6000fd5b505050506040513d601f19601f82011682018060405250810190610733919061086a565b90508095505087856107459190610c7b565b955050505050935093915050565b73c02aaa39b223fe8d0a0e5c4f27ead9083c756cc281565b73dac17f958d2ee523a2206206994597c13d831ec781565b7399d8a9c45b2eca8864373a26d1459e3dff1e17f381565b73d96f48665a1410c0cd669a88898eca36b9fc2cce81565b6000813590506107c281610e47565b92915050565b6000813590506107d781610e5e565b92915050565b6000815190506107ec81610e5e565b92915050565b60008060006060848603121561080757600080fd5b6000610815868287016107b3565b9350506020610826868287016107c8565b9250506040610837868287016107c8565b9150509250925092565b60006020828403121561085357600080fd5b6000610861848285016107dd565b91505092915050565b6000806040838503121561087d57600080fd5b600061088b858286016107dd565b925050602061089c858286016107dd565b9150509250929050565b60006108b283836109ba565b60208301905092915050565b6108c781610caf565b82525050565b6108d681610c58565b6108e08184610c70565b92506108eb82610c4e565b8060005b8381101561091c57815161090387826108a6565b965061090e83610c63565b9250506001810190506108ef565b505050505050565b61092d81610cf8565b82525050565b61093c81610d1c565b82525050565b61094b81610d40565b82525050565b61095a81610d64565b82525050565b61096981610d88565b82525050565b61097881610dac565b82525050565b61098781610dd0565b82525050565b61099681610de2565b82525050565b6109a581610df4565b82525050565b6109b481610e06565b82525050565b6109c381610cee565b82525050565b6109d281610cee565b82525050565b60006020820190506109ed60008301846108be565b92915050565b6000606082019050610a0860008301856108cd565b610a15604083018461098d565b9392505050565b6000602082019050610a316000830184610924565b92915050565b6000602082019050610a4c6000830184610933565b92915050565b6000602082019050610a676000830184610942565b92915050565b6000602082019050610a826000830184610951565b92915050565b600060a082019050610a9d6000830188610951565b610aaa60208301876108be565b610ab760408301866108be565b610ac4606083018561098d565b610ad160808301846109c9565b9695505050505050565b600060a082019050610af06000830188610951565b610afd60208301876108be565b610b0a60408301866108be565b610b1760608301856109c9565b610b24608083018461098d565b9695505050505050565b6000602082019050610b436000830184610960565b92915050565b6000602082019050610b5e600083018461096f565b92915050565b6000608082019050610b79600083018761098d565b610b86602083018661099c565b610b9360408301856109c9565b610ba0606083018461098d565b95945050505050565b600060a082019050610bbe600083018861097e565b610bcb60208301876109ab565b610bd860408301866109c9565b610be5606083018561098d565b610bf260808301846108be565b9695505050505050565b6000604082019050610c1160008301856109c9565b610c1e60208301846108be565b9392505050565b6000604082019050610c3a60008301856109c9565b610c4760208301846109c9565b9392505050565b6000819050919050565b600060029050919050565b6000602082019050919050565b600081905092915050565b6000610c8682610cee565b9150610c9183610cee565b925082821015610ca457610ca3610e18565b5b828203905092915050565b6000610cba82610cce565b9050919050565b600081600f0b9050919050565b600073ffffffffffffffffffffffffffffffffffffffff82169050919050565b6000819050919050565b6000610d0382610d0a565b9050919050565b6000610d1582610cce565b9050919050565b6000610d2782610d2e565b9050919050565b6000610d3982610cce565b9050919050565b6000610d4b82610d52565b9050919050565b6000610d5d82610cce565b9050919050565b6000610d6f82610d76565b9050919050565b6000610d8182610cce565b9050919050565b6000610d9382610d9a565b9050919050565b6000610da582610cce565b9050919050565b6000610db782610dbe565b9050919050565b6000610dc982610cce565b9050919050565b6000610ddb82610cc1565b9050919050565b6000610ded82610cee565b9050919050565b6000610dff82610cee565b9050919050565b6000610e1182610cc1565b9050919050565b7f4e487b7100000000000000000000000000000000000000000000000000000000600052601160045260246000fd5b610e5081610caf565b8114610e5b57600080fd5b50565b610e6781610cee565b8114610e7257600080fd5b5056fea2646970667358221220012213241128bc9662e6c565acae4020cd3a266e2c13b7f094f695cae6bd995e64736f6c63430008040033",
  "devdoc": {
    "kind": "dev",
    "methods": {},
    "version": 1
  },
  "userdoc": {
    "kind": "user",
    "methods": {
      "swap(address,uint256,uint256)": {
        "notice": "Swaps to a flexible amount, from an exact input amount"
      }
    },
    "version": 1
  },
  "storageLayout": {
    "storage": [],
    "types": null
  }
}