{
  "address": "0xdb3A46896d2855e7932fC8Ea5A8465Fd07F7Fb57",
  "abi": [
    {
      "inputs": [],
      "stateMutability": "nonpayable",
      "type": "constructor"
    },
    {
      "inputs": [],
      "name": "DAI",
      "outputs": [
        {
          "internalType": "contract IERC20",
          "name": "",
          "type": "address"
        }
      ],
      "stateMutability": "view",
      "type": "function"
    },
    {
      "inputs": [],
      "name": "DAI_VAULT",
      "outputs": [
        {
          "internalType": "contract IYearnVault",
          "name": "",
          "type": "address"
        }
      ],
      "stateMutability": "view",
      "type": "function"
    },
    {
      "inputs": [],
      "name": "DEGENBOX",
      "outputs": [
        {
          "internalType": "contract IBentoBoxV1",
          "name": "",
          "type": "address"
        }
      ],
      "stateMutability": "view",
      "type": "function"
    },
    {
      "inputs": [],
      "name": "MIM",
      "outputs": [
        {
          "internalType": "contract IERC20",
          "name": "",
          "type": "address"
        }
      ],
      "stateMutability": "view",
      "type": "function"
    },
    {
      "inputs": [],
      "name": "MIM3POOL",
      "outputs": [
        {
          "internalType": "contract CurvePool",
          "name": "",
          "type": "address"
        }
      ],
      "stateMutability": "view",
      "type": "function"
    },
    {
      "inputs": [
        {
          "internalType": "contract IERC20",
          "name": "",
          "type": "address"
        },
        {
          "internalType": "contract IERC20",
          "name": "",
          "type": "address"
        },
        {
          "internalType": "address",
          "name": "recipient",
          "type": "address"
        },
        {
          "internalType": "uint256",
          "name": "shareToMin",
          "type": "uint256"
        },
        {
          "internalType": "uint256",
          "name": "shareFrom",
          "type": "uint256"
        }
      ],
      "name": "swap",
      "outputs": [
        {
          "internalType": "uint256",
          "name": "extraShare",
          "type": "uint256"
        },
        {
          "internalType": "uint256",
          "name": "shareReturned",
          "type": "uint256"
        }
      ],
      "stateMutability": "nonpayable",
      "type": "function"
    },
    {
      "inputs": [
        {
          "internalType": "contract IERC20",
          "name": "",
          "type": "address"
        },
        {
          "internalType": "contract IERC20",
          "name": "",
          "type": "address"
        },
        {
          "internalType": "address",
          "name": "",
          "type": "address"
        },
        {
          "internalType": "address",
          "name": "",
          "type": "address"
        },
        {
          "internalType": "uint256",
          "name": "",
          "type": "uint256"
        },
        {
          "internalType": "uint256",
          "name": "",
          "type": "uint256"
        }
      ],
      "name": "swapExact",
      "outputs": [
        {
          "internalType": "uint256",
          "name": "shareUsed",
          "type": "uint256"
        },
        {
          "internalType": "uint256",
          "name": "shareReturned",
          "type": "uint256"
        }
      ],
      "stateMutability": "pure",
      "type": "function"
    }
  ],
  "transactionHash": "0xd5e665984fb16b583e67b70d1a5c2a9a279068044a22283282d8e1f7ea1bf69c",
  "args": [],
  "solcInputHash": "c0a3f642a318782e249b87d784f0b6ef",
  "bytecode": "0x608060405234801561001057600080fd5b5060405163095ea7b360e01b8152735a6a4d54456819380173272a5e8e9b9904bdf41b60048201526000196024820152736b175474e89094c44da98b954eedeac495271d0f9063095ea7b3906044016020604051808303816000875af115801561007e573d6000803e3d6000fd5b505050506040513d601f19601f820116820180604052508101906100a291906100a8565b506100d1565b6000602082840312156100ba57600080fd5b815180151581146100ca57600080fd5b9392505050565b610572806100e06000396000f3fe608060405234801561001057600080fd5b506004361061007d5760003560e01c8063e088c67c1161005b578063e088c67c14610106578063e0bab4c414610121578063e0bc66b81461013c578063e343fe121461015757600080fd5b806322a88c09146100825780634622be90146100ba578063daec383d146100eb575b600080fd5b61009d735a6a4d54456819380173272a5e8e9b9904bdf41b81565b6040516001600160a01b0390911681526020015b60405180910390f35b6100d66100c8366004610411565b600180965096945050505050565b604080519283526020830191909152016100b1565b61009d7399d8a9c45b2eca8864373a26d1459e3dff1e17f381565b61009d73da816459f1ab5631232fe5e97a05bbbb94970c9581565b61009d736b175474e89094c44da98b954eedeac495271d0f81565b61009d73d96f48665a1410c0cd669a88898eca36b9fc2cce81565b6100d661016536600461047f565b60405163097da6d360e41b815273da816459f1ab5631232fe5e97a05bbbb94970c956004820152306024820181905260448201526000606482018190526084820183905290819073d96f48665a1410c0cd669a88898eca36b9fc2cce906397da6d309060a40160408051808303816000875af11580156101e9573d6000803e3d6000fd5b505050506040513d601f19601f8201168201806040525081019061020d91906104da565b5050600073da816459f1ab5631232fe5e97a05bbbb94970c956001600160a01b0316633ccfd60b6040518163ffffffff1660e01b81526004016020604051808303816000875af1158015610265573d6000803e3d6000fd5b505050506040513d601f19601f8201168201806040525081019061028991906104fe565b6040516322770cc360e11b81526001600482015260006024820181905260448201839052606482015273d96f48665a1410c0cd669a88898eca36b9fc2cce6084820152909150735a6a4d54456819380173272a5e8e9b9904bdf41b906344ee19869060a4016020604051808303816000875af115801561030d573d6000803e3d6000fd5b505050506040513d601f19601f8201168201806040525081019061033191906104fe565b60405162ae511b60e21b81527399d8a9c45b2eca8864373a26d1459e3dff1e17f3600482015273d96f48665a1410c0cd669a88898eca36b9fc2cce602482018190526001600160a01b038916604483015260648201839052600060848301529192506302b9446c9060a40160408051808303816000875af11580156103ba573d6000803e3d6000fd5b505050506040513d601f19601f820116820180604052508101906103de91906104da565b92506103ec90508583610517565b9250509550959350505050565b6001600160a01b038116811461040e57600080fd5b50565b60008060008060008060c0878903121561042a57600080fd5b8635610435816103f9565b95506020870135610445816103f9565b94506040870135610455816103f9565b93506060870135610465816103f9565b9598949750929560808101359460a0909101359350915050565b600080600080600060a0868803121561049757600080fd5b85356104a2816103f9565b945060208601356104b2816103f9565b935060408601356104c2816103f9565b94979396509394606081013594506080013592915050565b600080604083850312156104ed57600080fd5b505080516020909101519092909150565b60006020828403121561051057600080fd5b5051919050565b60008282101561053757634e487b7160e01b600052601160045260246000fd5b50039056fea2646970667358221220414ebcbf7cb02bd07aed327bd48867bf0c2c75351f71ca3c9ae347e2cf932c5b64736f6c634300080a0033",
  "devdoc": {
    "kind": "dev",
    "methods": {},
    "version": 1
  },
  "userdoc": {
    "kind": "user",
    "methods": {
      "swap(address,address,address,uint256,uint256)": {
        "notice": "Withdraws 'amountFrom' of token 'from' from the BentoBox account for this swapper. Swaps it for at least 'amountToMin' of token 'to'. Transfers the swapped tokens of 'to' into the BentoBox using a plain ERC20 transfer. Returns the amount of tokens 'to' transferred to BentoBox. (The BentoBox skim function will be used by the caller to get the swapped funds)."
      },
      "swapExact(address,address,address,address,uint256,uint256)": {
        "notice": "Calculates the amount of token 'from' needed to complete the swap (amountFrom), this should be less than or equal to amountFromMax. Withdraws 'amountFrom' of token 'from' from the BentoBox account for this swapper. Swaps it for exactly 'exactAmountTo' of token 'to'. Transfers the swapped tokens of 'to' into the BentoBox using a plain ERC20 transfer. Transfers allocated, but unused 'from' tokens within the BentoBox to 'refundTo' (amountFromMax - amountFrom). Returns the amount of 'from' tokens withdrawn from BentoBox (amountFrom). (The BentoBox skim function will be used by the caller to get the swapped funds)."
      }
    },
    "version": 1
  },
  "storageLayout": {
    "storage": [],
    "types": null
  }
}