{
  "address": "0xD8AF1558A2ca227607b49a3293e278c6875F9a40",
  "abi": [
    {
      "inputs": [],
      "stateMutability": "nonpayable",
      "type": "constructor"
    },
    {
      "inputs": [],
      "name": "DAI",
      "outputs": [
        {
          "internalType": "contract IERC20",
          "name": "",
          "type": "address"
        }
      ],
      "stateMutability": "view",
      "type": "function"
    },
    {
      "inputs": [],
      "name": "DAI_VAULT",
      "outputs": [
        {
          "internalType": "contract IYearnVault",
          "name": "",
          "type": "address"
        }
      ],
      "stateMutability": "view",
      "type": "function"
    },
    {
      "inputs": [],
      "name": "DEGENBOX",
      "outputs": [
        {
          "internalType": "contract IBentoBoxV1",
          "name": "",
          "type": "address"
        }
      ],
      "stateMutability": "view",
      "type": "function"
    },
    {
      "inputs": [],
      "name": "MIM",
      "outputs": [
        {
          "internalType": "contract IERC20",
          "name": "",
          "type": "address"
        }
      ],
      "stateMutability": "view",
      "type": "function"
    },
    {
      "inputs": [],
      "name": "MIM3POOL",
      "outputs": [
        {
          "internalType": "contract CurvePool",
          "name": "",
          "type": "address"
        }
      ],
      "stateMutability": "view",
      "type": "function"
    },
    {
      "inputs": [
        {
          "internalType": "address",
          "name": "recipient",
          "type": "address"
        },
        {
          "internalType": "uint256",
          "name": "shareToMin",
          "type": "uint256"
        },
        {
          "internalType": "uint256",
          "name": "shareFrom",
          "type": "uint256"
        }
      ],
      "name": "swap",
      "outputs": [
        {
          "internalType": "uint256",
          "name": "extraShare",
          "type": "uint256"
        },
        {
          "internalType": "uint256",
          "name": "shareReturned",
          "type": "uint256"
        }
      ],
      "stateMutability": "nonpayable",
      "type": "function"
    }
  ],
  "transactionHash": "0x3f72080f11a00c1cdb65b6aff5a4e1d509d4f1a7ca538c72b532825a250f2224",
  "args": [],
  "solcInputHash": "74924238f1632e7105e2afbea0ace3f8",
  "bytecode": "0x608060405234801561001057600080fd5b5060405163095ea7b360e01b8152735a6a4d54456819380173272a5e8e9b9904bdf41b600482015260001960248201527399d8a9c45b2eca8864373a26d1459e3dff1e17f39063095ea7b390604401602060405180830381600087803b15801561007957600080fd5b505af115801561008d573d6000803e3d6000fd5b505050506040513d601f19601f820116820180604052508101906100b19190610158565b5060405163095ea7b360e01b815273da816459f1ab5631232fe5e97a05bbbb94970c9560048201526000196024820152736b175474e89094c44da98b954eedeac495271d0f9063095ea7b390604401602060405180830381600087803b15801561011a57600080fd5b505af115801561012e573d6000803e3d6000fd5b505050506040513d601f19601f820116820180604052508101906101529190610158565b5061017f565b600060208284031215610169578081fd5b81518015158114610178578182fd5b9392505050565b6105118061018e6000396000f3fe608060405234801561001057600080fd5b50600436106100725760003560e01c8063e088c67c11610050578063e088c67c146100ff578063e0bab4c41461011a578063e0bc66b81461013557600080fd5b806322a88c09146100775780639f1d0f59146100bc578063daec383d146100e4575b600080fd5b610092735a6a4d54456819380173272a5e8e9b9904bdf41b81565b60405173ffffffffffffffffffffffffffffffffffffffff90911681526020015b60405180910390f35b6100cf6100ca366004610431565b610150565b604080519283526020830191909152016100b3565b6100927399d8a9c45b2eca8864373a26d1459e3dff1e17f381565b61009273da816459f1ab5631232fe5e97a05bbbb94970c9581565b610092736b175474e89094c44da98b954eedeac495271d0f81565b61009273d96f48665a1410c0cd669a88898eca36b9fc2cce81565b60405163097da6d360e41b81527399d8a9c45b2eca8864373a26d1459e3dff1e17f360048201523060248201819052604482015260006064820181905260848201839052908190819073d96f48665a1410c0cd669a88898eca36b9fc2cce906397da6d309060a4016040805180830381600087803b1580156101d157600080fd5b505af11580156101e5573d6000803e3d6000fd5b505050506040513d601f19601f820116820180604052508101906102099190610495565b506040516322770cc360e11b815260006004820181905260016024830152604482018390526064820152306084820152909150735a6a4d54456819380173272a5e8e9b9904bdf41b906344ee19869060a401602060405180830381600087803b15801561027557600080fd5b505af1158015610289573d6000803e3d6000fd5b505050506040513d601f19601f820116820180604052508101906102ad919061047d565b604051636e553f6560e01b81526004810182905273d96f48665a1410c0cd669a88898eca36b9fc2cce602482015290915073da816459f1ab5631232fe5e97a05bbbb94970c9590636e553f6590604401602060405180830381600087803b15801561031757600080fd5b505af115801561032b573d6000803e3d6000fd5b505050506040513d601f19601f8201168201806040525081019061034f919061047d565b60405162ae511b60e21b815273da816459f1ab5631232fe5e97a05bbbb94970c95600482015273d96f48665a1410c0cd669a88898eca36b9fc2cce6024820181905273ffffffffffffffffffffffffffffffffffffffff8916604483015260648201839052600060848301529192506302b9446c9060a4016040805180830381600087803b1580156103e057600080fd5b505af11580156103f4573d6000803e3d6000fd5b505050506040513d601f19601f820116820180604052508101906104189190610495565b9250610426905085836104b8565b925050935093915050565b600080600060608486031215610445578283fd5b833573ffffffffffffffffffffffffffffffffffffffff81168114610468578384fd5b95602085013595506040909401359392505050565b60006020828403121561048e578081fd5b5051919050565b600080604083850312156104a7578182fd5b505080516020909101519092909150565b6000828210156104d657634e487b7160e01b81526011600452602481fd5b50039056fea26469706673582212208c23e6bbc332223436e2b279e40d54e4a0d76a711c9f5c483417e5d5e2e0aa5464736f6c63430008040033",
  "devdoc": {
    "kind": "dev",
    "methods": {},
    "version": 1
  },
  "userdoc": {
    "kind": "user",
    "methods": {
      "swap(address,uint256,uint256)": {
        "notice": "Swaps to a flexible amount, from an exact input amount"
      }
    },
    "version": 1
  },
  "storageLayout": {
    "storage": [],
    "types": null
  }
}