{
  "address": "0x05e46FFD98F94F62cC2817d54D5F0B1FD065B76d",
  "abi": [
    {
      "inputs": [],
      "stateMutability": "nonpayable",
      "type": "constructor"
    },
    {
      "inputs": [],
      "name": "DEGENBOX",
      "outputs": [
        {
          "internalType": "contract IBentoBoxV1",
          "name": "",
          "type": "address"
        }
      ],
      "stateMutability": "view",
      "type": "function"
    },
    {
      "inputs": [],
      "name": "MIM",
      "outputs": [
        {
          "internalType": "contract IERC20",
          "name": "",
          "type": "address"
        }
      ],
      "stateMutability": "view",
      "type": "function"
    },
    {
      "inputs": [],
      "name": "MIM3CRV",
      "outputs": [
        {
          "internalType": "contract CurvePool",
          "name": "",
          "type": "address"
        }
      ],
      "stateMutability": "view",
      "type": "function"
    },
    {
      "inputs": [],
      "name": "YVMIM3CRV",
      "outputs": [
        {
          "internalType": "contract IYearnVault",
          "name": "",
          "type": "address"
        }
      ],
      "stateMutability": "view",
      "type": "function"
    },
    {
      "inputs": [
        {
          "internalType": "contract IERC20",
          "name": "",
          "type": "address"
        },
        {
          "internalType": "contract IERC20",
          "name": "",
          "type": "address"
        },
        {
          "internalType": "address",
          "name": "recipient",
          "type": "address"
        },
        {
          "internalType": "uint256",
          "name": "shareToMin",
          "type": "uint256"
        },
        {
          "internalType": "uint256",
          "name": "shareFrom",
          "type": "uint256"
        }
      ],
      "name": "swap",
      "outputs": [
        {
          "internalType": "uint256",
          "name": "extraShare",
          "type": "uint256"
        },
        {
          "internalType": "uint256",
          "name": "shareReturned",
          "type": "uint256"
        }
      ],
      "stateMutability": "nonpayable",
      "type": "function"
    },
    {
      "inputs": [
        {
          "internalType": "contract IERC20",
          "name": "",
          "type": "address"
        },
        {
          "internalType": "contract IERC20",
          "name": "",
          "type": "address"
        },
        {
          "internalType": "address",
          "name": "",
          "type": "address"
        },
        {
          "internalType": "address",
          "name": "",
          "type": "address"
        },
        {
          "internalType": "uint256",
          "name": "",
          "type": "uint256"
        },
        {
          "internalType": "uint256",
          "name": "",
          "type": "uint256"
        }
      ],
      "name": "swapExact",
      "outputs": [
        {
          "internalType": "uint256",
          "name": "shareUsed",
          "type": "uint256"
        },
        {
          "internalType": "uint256",
          "name": "shareReturned",
          "type": "uint256"
        }
      ],
      "stateMutability": "pure",
      "type": "function"
    }
  ],
  "transactionHash": "0x6a35808e2dc2ea0c1c3d753641c548c0cb06f0618c0cb8ce8cb124b6649491ba",
  "args": [],
  "solcInputHash": "41248cbba27594194febf5538dd8d43d",
  "bytecode": "0x608060405234801561001057600080fd5b50610a59806100206000396000f3fe608060405234801561001057600080fd5b50600436106100625760003560e01c80634622be901461006757806375efb4ba14610098578063c9a4fddc146100b6578063daec383d146100d4578063e0bc66b8146100f2578063e343fe1214610110575b600080fd5b610081600480360381019061007c919061050f565b610141565b60405161008f929190610843565b60405180910390f35b6100a0610156565b6040516100ad91906107e3565b60405180910390f35b6100be61016e565b6040516100cb91906106ec565b60405180910390f35b6100dc610186565b6040516100e99190610722565b60405180910390f35b6100fa61019e565b6040516101079190610707565b60405180910390f35b61012a60048036038101906101259190610598565b6101b6565b604051610138929190610843565b60405180910390f35b60008060008091509150965096945050505050565b732dfb14e32e2f8156ec15a2c21c3a6c053af52be881565b735a6a4d54456819380173272a5e8e9b9904bdf41b81565b7399d8a9c45b2eca8864373a26d1459e3dff1e17f381565b73d96f48665a1410c0cd669a88898eca36b9fc2cce81565b60008073d96f48665a1410c0cd669a88898eca36b9fc2cce73ffffffffffffffffffffffffffffffffffffffff166397da6d30732dfb14e32e2f8156ec15a2c21c3a6c053af52be830306000886040518663ffffffff1660e01b815260040161022395949392919061073d565b6040805180830381600087803b15801561023c57600080fd5b505af1158015610250573d6000803e3d6000fd5b505050506040513d601f19601f820116820180604052508101906102749190610638565b50506000732dfb14e32e2f8156ec15a2c21c3a6c053af52be873ffffffffffffffffffffffffffffffffffffffff16633ccfd60b6040518163ffffffff1660e01b8152600401602060405180830381600087803b1580156102d457600080fd5b505af11580156102e8573d6000803e3d6000fd5b505050506040513d601f19601f8201168201806040525081019061030c919061060f565b90506000735a6a4d54456819380173272a5e8e9b9904bdf41b73ffffffffffffffffffffffffffffffffffffffff1663081579a58360008073d96f48665a1410c0cd669a88898eca36b9fc2cce6040518563ffffffff1660e01b815260040161037894939291906107fe565b602060405180830381600087803b15801561039257600080fd5b505af11580156103a6573d6000803e3d6000fd5b505050506040513d601f19601f820116820180604052508101906103ca919061060f565b905073d96f48665a1410c0cd669a88898eca36b9fc2cce73ffffffffffffffffffffffffffffffffffffffff166302b9446c7399d8a9c45b2eca8864373a26d1459e3dff1e17f373d96f48665a1410c0cd669a88898eca36b9fc2cce8a8560006040518663ffffffff1660e01b815260040161044a959493929190610790565b6040805180830381600087803b15801561046357600080fd5b505af1158015610477573d6000803e3d6000fd5b505050506040513d601f19601f8201168201806040525081019061049b9190610638565b90508093505085836104ad919061086c565b935050509550959350505050565b6000813590506104ca816109de565b92915050565b6000813590506104df816109f5565b92915050565b6000813590506104f481610a0c565b92915050565b60008151905061050981610a0c565b92915050565b60008060008060008060c0878903121561052857600080fd5b600061053689828a016104d0565b965050602061054789828a016104d0565b955050604061055889828a016104bb565b945050606061056989828a016104bb565b935050608061057a89828a016104e5565b92505060a061058b89828a016104e5565b9150509295509295509295565b600080600080600060a086880312156105b057600080fd5b60006105be888289016104d0565b95505060206105cf888289016104d0565b94505060406105e0888289016104bb565b93505060606105f1888289016104e5565b9250506080610602888289016104e5565b9150509295509295909350565b60006020828403121561062157600080fd5b600061062f848285016104fa565b91505092915050565b6000806040838503121561064b57600080fd5b6000610659858286016104fa565b925050602061066a858286016104fa565b9150509250929050565b61067d816108a0565b82525050565b61068c816108fb565b82525050565b61069b8161091f565b82525050565b6106aa81610943565b82525050565b6106b981610967565b82525050565b6106c88161098b565b82525050565b6106d78161099d565b82525050565b6106e6816108f1565b82525050565b60006020820190506107016000830184610683565b92915050565b600060208201905061071c6000830184610692565b92915050565b600060208201905061073760008301846106a1565b92915050565b600060a08201905061075260008301886106a1565b61075f6020830187610674565b61076c6040830186610674565b61077960608301856106ce565b61078660808301846106dd565b9695505050505050565b600060a0820190506107a560008301886106a1565b6107b26020830187610674565b6107bf6040830186610674565b6107cc60608301856106dd565b6107d960808301846106ce565b9695505050505050565b60006020820190506107f860008301846106b0565b92915050565b600060808201905061081360008301876106dd565b61082060208301866106bf565b61082d60408301856106ce565b61083a6060830184610674565b95945050505050565b600060408201905061085860008301856106dd565b61086560208301846106dd565b9392505050565b6000610877826108f1565b9150610882836108f1565b925082821015610895576108946109af565b5b828203905092915050565b60006108ab826108d1565b9050919050565b60006108bd826108a0565b9050919050565b600081600f0b9050919050565b600073ffffffffffffffffffffffffffffffffffffffff82169050919050565b6000819050919050565b60006109068261090d565b9050919050565b6000610918826108d1565b9050919050565b600061092a82610931565b9050919050565b600061093c826108d1565b9050919050565b600061094e82610955565b9050919050565b6000610960826108d1565b9050919050565b600061097282610979565b9050919050565b6000610984826108d1565b9050919050565b6000610996826108c4565b9050919050565b60006109a8826108f1565b9050919050565b7f4e487b7100000000000000000000000000000000000000000000000000000000600052601160045260246000fd5b6109e7816108a0565b81146109f257600080fd5b50565b6109fe816108b2565b8114610a0957600080fd5b50565b610a15816108f1565b8114610a2057600080fd5b5056fea2646970667358221220fc22acc64ee0166ce7ad9e5db9a38dd6f59a51e543f69af8bd45edb5291b591764736f6c63430008040033",
  "devdoc": {
    "kind": "dev",
    "methods": {},
    "version": 1
  },
  "userdoc": {
    "kind": "user",
    "methods": {
      "swap(address,address,address,uint256,uint256)": {
        "notice": "Withdraws 'amountFrom' of token 'from' from the BentoBox account for this swapper. Swaps it for at least 'amountToMin' of token 'to'. Transfers the swapped tokens of 'to' into the BentoBox using a plain ERC20 transfer. Returns the amount of tokens 'to' transferred to BentoBox. (The BentoBox skim function will be used by the caller to get the swapped funds)."
      },
      "swapExact(address,address,address,address,uint256,uint256)": {
        "notice": "Calculates the amount of token 'from' needed to complete the swap (amountFrom), this should be less than or equal to amountFromMax. Withdraws 'amountFrom' of token 'from' from the BentoBox account for this swapper. Swaps it for exactly 'exactAmountTo' of token 'to'. Transfers the swapped tokens of 'to' into the BentoBox using a plain ERC20 transfer. Transfers allocated, but unused 'from' tokens within the BentoBox to 'refundTo' (amountFromMax - amountFrom). Returns the amount of 'from' tokens withdrawn from BentoBox (amountFrom). (The BentoBox skim function will be used by the caller to get the swapped funds)."
      }
    },
    "version": 1
  },
  "storageLayout": {
    "storage": [],
    "types": null
  }
}