{
  "address": "0xCbd7FD48c7a2a095ce053D5998db12Ca0Ea65264",
  "abi": [
    {
      "inputs": [],
      "stateMutability": "nonpayable",
      "type": "constructor"
    },
    {
      "inputs": [],
      "name": "MIM",
      "outputs": [
        {
          "internalType": "contract IERC20",
          "name": "",
          "type": "address"
        }
      ],
      "stateMutability": "view",
      "type": "function"
    },
    {
      "inputs": [],
      "name": "MIM3POOL",
      "outputs": [
        {
          "internalType": "contract CurvePool",
          "name": "",
          "type": "address"
        }
      ],
      "stateMutability": "view",
      "type": "function"
    },
    {
      "inputs": [],
      "name": "STETH",
      "outputs": [
        {
          "internalType": "contract CurvePool",
          "name": "",
          "type": "address"
        }
      ],
      "stateMutability": "view",
      "type": "function"
    },
    {
      "inputs": [],
      "name": "TETHER",
      "outputs": [
        {
          "internalType": "contract TetherToken",
          "name": "",
          "type": "address"
        }
      ],
      "stateMutability": "view",
      "type": "function"
    },
    {
      "inputs": [],
      "name": "WETH",
      "outputs": [
        {
          "internalType": "contract IWETH",
          "name": "",
          "type": "address"
        }
      ],
      "stateMutability": "view",
      "type": "function"
    },
    {
      "inputs": [],
      "name": "YVSTETH",
      "outputs": [
        {
          "internalType": "contract YearnVault",
          "name": "",
          "type": "address"
        }
      ],
      "stateMutability": "view",
      "type": "function"
    },
    {
      "inputs": [],
      "name": "degenBox",
      "outputs": [
        {
          "internalType": "contract IBentoBoxV1",
          "name": "",
          "type": "address"
        }
      ],
      "stateMutability": "view",
      "type": "function"
    },
    {
      "inputs": [
        {
          "internalType": "contract IERC20",
          "name": "fromToken",
          "type": "address"
        },
        {
          "internalType": "contract IERC20",
          "name": "toToken",
          "type": "address"
        },
        {
          "internalType": "address",
          "name": "recipient",
          "type": "address"
        },
        {
          "internalType": "uint256",
          "name": "shareToMin",
          "type": "uint256"
        },
        {
          "internalType": "uint256",
          "name": "shareFrom",
          "type": "uint256"
        }
      ],
      "name": "swap",
      "outputs": [
        {
          "internalType": "uint256",
          "name": "extraShare",
          "type": "uint256"
        },
        {
          "internalType": "uint256",
          "name": "shareReturned",
          "type": "uint256"
        }
      ],
      "stateMutability": "nonpayable",
      "type": "function"
    },
    {
      "inputs": [
        {
          "internalType": "contract IERC20",
          "name": "fromToken",
          "type": "address"
        },
        {
          "internalType": "contract IERC20",
          "name": "toToken",
          "type": "address"
        },
        {
          "internalType": "address",
          "name": "recipient",
          "type": "address"
        },
        {
          "internalType": "address",
          "name": "refundTo",
          "type": "address"
        },
        {
          "internalType": "uint256",
          "name": "shareFromSupplied",
          "type": "uint256"
        },
        {
          "internalType": "uint256",
          "name": "shareToExact",
          "type": "uint256"
        }
      ],
      "name": "swapExact",
      "outputs": [
        {
          "internalType": "uint256",
          "name": "shareUsed",
          "type": "uint256"
        },
        {
          "internalType": "uint256",
          "name": "shareReturned",
          "type": "uint256"
        }
      ],
      "stateMutability": "nonpayable",
      "type": "function"
    },
    {
      "inputs": [],
      "name": "threecrypto",
      "outputs": [
        {
          "internalType": "contract IThreeCrypto",
          "name": "",
          "type": "address"
        }
      ],
      "stateMutability": "view",
      "type": "function"
    },
    {
      "stateMutability": "payable",
      "type": "receive"
    }
  ],
  "transactionHash": "0xcea00713bd73e555e43ad18486720638c43d68957ac2becba2017ea7df4a11b5",
  "args": [],
  "numDeployments": 2,
  "solcInputHash": "e7217dddf7000bfb93167c93c7bd6030",
  "bytecode": "0x608060405234801561001057600080fd5b506040805163095ea7b360e01b8152735a6a4d54456819380173272a5e8e9b9904bdf41b6004820152600019602482015290517399d8a9c45b2eca8864373a26d1459e3dff1e17f39163095ea7b39160448083019260209291908290030181600087803b15801561008057600080fd5b505af1158015610094573d6000803e3d6000fd5b505050506040513d60208110156100aa57600080fd5b50506040805163095ea7b360e01b8152735a6a4d54456819380173272a5e8e9b9904bdf41b60048201526000196024820152905173dac17f958d2ee523a2206206994597c13d831ec79163095ea7b391604480830192600092919082900301818387803b15801561011a57600080fd5b505af115801561012e573d6000803e3d6000fd5b50506040805163095ea7b360e01b815273d51a44d3fae010294c616388b506acda1bfaae4660048201526000196024820152905173c02aaa39b223fe8d0a0e5c4f27ead9083c756cc2935063095ea7b3925060448083019260209291908290030181600087803b1580156101a157600080fd5b505af11580156101b5573d6000803e3d6000fd5b505050506040513d60208110156101cb57600080fd5b50506107df806101dc6000396000f3fe6080604052600436106100b55760003560e01c80639f495c1511610069578063daec383d1161004e578063daec383d146101cd578063e00bfe50146101e2578063e343fe12146101f7576100bc565b80639f495c15146101a3578063ad5c4648146101b8576100bc565b80636733a6c71161009a5780636733a6c71461016457806374e5690b1461017957806378e7e3d11461018e576100bc565b806322a88c09146100c15780634622be90146100f2576100bc565b366100bc57005b600080fd5b3480156100cd57600080fd5b506100d6610246565b604080516001600160a01b039092168252519081900360200190f35b3480156100fe57600080fd5b5061014b600480360360c081101561011557600080fd5b506001600160a01b0381358116916020810135821691604082013581169160608101359091169060808101359060a0013561025e565b6040805192835260208301919091528051918290030190f35b34801561017057600080fd5b506100d661026c565b34801561018557600080fd5b506100d6610284565b34801561019a57600080fd5b506100d661029c565b3480156101af57600080fd5b506100d66102b4565b3480156101c457600080fd5b506100d66102cc565b3480156101d957600080fd5b506100d66102e4565b3480156101ee57600080fd5b506100d66102fc565b34801561020357600080fd5b5061014b600480360360a081101561021a57600080fd5b506001600160a01b03813581169160208101358216916040820135169060608101359060800135610314565b735a6a4d54456819380173272a5e8e9b9904bdf41b81565b600080965096945050505050565b73d51a44d3fae010294c616388b506acda1bfaae4681565b735faf6a2d186448dfa667c51cb3d695c7a6e52d8e81565b73dac17f958d2ee523a2206206994597c13d831ec781565b73d96f48665a1410c0cd669a88898eca36b9fc2cce81565b73c02aaa39b223fe8d0a0e5c4f27ead9083c756cc281565b7399d8a9c45b2eca8864373a26d1459e3dff1e17f381565b73828b154032950c8ff7cf8085d841723db269605681565b6040805163097da6d360e41b81526001600160a01b0387166004820152306024820181905260448201526000606482018190526084820184905282519092839273d96f48665a1410c0cd669a88898eca36b9fc2cce926397da6d309260a48084019391929182900301818787803b15801561038e57600080fd5b505af11580156103a2573d6000803e3d6000fd5b505050506040513d60408110156103b857600080fd5b505060408051633ccfd60b60e01b815290516000918291735faf6a2d186448dfa667c51cb3d695c7a6e52d8e91633ccfd60b91600480830192602092919082900301818787803b15801561040b57600080fd5b505af115801561041f573d6000803e3d6000fd5b505050506040513d602081101561043557600080fd5b505160408051630d2680e960e11b81526004810183905260006024820181905260448201819052915192935073828b154032950c8ff7cf8085d841723db269605692631a4d01d292606480840193602093929083900390910190829087803b1580156104a057600080fd5b505af11580156104b4573d6000803e3d6000fd5b505050506040513d60208110156104ca57600080fd5b505160408051630b68372160e31b8152600260048201526000602482018190526044820184905260648201819052915192945073d51a44d3fae010294c616388b506acda1bfaae469350635b41b908926084808301939282900301818387803b15801561053657600080fd5b505af115801561054a573d6000803e3d6000fd5b5050604080516370a0823160e01b815230600482015290516000935073dac17f958d2ee523a2206206994597c13d831ec792506370a0823191602480820192602092909190829003018186803b1580156105a357600080fd5b505afa1580156105b7573d6000803e3d6000fd5b505050506040513d60208110156105cd57600080fd5b5051604080516322770cc360e11b815260036004820152600060248201819052604482018490526064820181905273d96f48665a1410c0cd669a88898eca36b9fc2cce608483015291519293509091735a6a4d54456819380173272a5e8e9b9904bdf41b916344ee19869160a480830192602092919082900301818787803b15801561065857600080fd5b505af115801561066c573d6000803e3d6000fd5b505050506040513d602081101561068257600080fd5b50516040805162ae511b60e21b81526001600160a01b038c8116600483015273d96f48665a1410c0cd669a88898eca36b9fc2cce60248301819052908c16604483015260648201849052600060848301819052835194955090936302b9446c9360a4808501949193918390030190829087803b15801561070157600080fd5b505af1158015610715573d6000803e3d6000fd5b505050506040513d604081101561072b57600080fd5b5060200151935061073c848861074b565b94505050509550959350505050565b808203828111156107a3576040805162461bcd60e51b815260206004820152601560248201527f426f72696e674d6174683a20556e646572666c6f770000000000000000000000604482015290519081900360640190fd5b9291505056fea2646970667358221220cee20c18841b9421fb6a2674aa4de7e6c90d0c9ca357ef3b2ff00990aa5885c864736f6c634300060c0033",
  "devdoc": {
    "kind": "dev",
    "methods": {},
    "version": 1
  },
  "userdoc": {
    "kind": "user",
    "methods": {
      "swap(address,address,address,uint256,uint256)": {
        "notice": "Withdraws 'amountFrom' of token 'from' from the BentoBox account for this swapper. Swaps it for at least 'amountToMin' of token 'to'. Transfers the swapped tokens of 'to' into the BentoBox using a plain ERC20 transfer. Returns the amount of tokens 'to' transferred to BentoBox. (The BentoBox skim function will be used by the caller to get the swapped funds)."
      },
      "swapExact(address,address,address,address,uint256,uint256)": {
        "notice": "Calculates the amount of token 'from' needed to complete the swap (amountFrom), this should be less than or equal to amountFromMax. Withdraws 'amountFrom' of token 'from' from the BentoBox account for this swapper. Swaps it for exactly 'exactAmountTo' of token 'to'. Transfers the swapped tokens of 'to' into the BentoBox using a plain ERC20 transfer. Transfers allocated, but unused 'from' tokens within the BentoBox to 'refundTo' (amountFromMax - amountFrom). Returns the amount of 'from' tokens withdrawn from BentoBox (amountFrom). (The BentoBox skim function will be used by the caller to get the swapped funds)."
      }
    },
    "version": 1
  },
  "storageLayout": {
    "storage": [],
    "types": null
  }
}