{
  "address": "0xC9faCFA2fC50C9A30C77a2ad14E2dB107d591918",
  "abi": [
    {
      "inputs": [],
      "name": "MIM",
      "outputs": [
        {
          "internalType": "contract IERC20",
          "name": "",
          "type": "address"
        }
      ],
      "stateMutability": "view",
      "type": "function"
    },
    {
      "inputs": [],
      "name": "bentoBox",
      "outputs": [
        {
          "internalType": "contract IBentoBoxV1",
          "name": "",
          "type": "address"
        }
      ],
      "stateMutability": "view",
      "type": "function"
    },
    {
      "inputs": [
        {
          "internalType": "address",
          "name": "recipient",
          "type": "address"
        },
        {
          "internalType": "uint256",
          "name": "shareToMin",
          "type": "uint256"
        },
        {
          "internalType": "uint256",
          "name": "shareFrom",
          "type": "uint256"
        }
      ],
      "name": "swap",
      "outputs": [
        {
          "internalType": "uint256",
          "name": "extraShare",
          "type": "uint256"
        },
        {
          "internalType": "uint256",
          "name": "shareReturned",
          "type": "uint256"
        }
      ],
      "stateMutability": "nonpayable",
      "type": "function"
    }
  ],
  "transactionHash": "0x17c64c535d11a55187edae05240497e2bcf7141ed86cec157444ffeb0600a251",
  "args": [],
  "solcInputHash": "c3009a22d51641eaa7a136ca68baf48d",
  "bytecode": "0x608060405234801561001057600080fd5b506107b2806100206000396000f3fe608060405234801561001057600080fd5b50600436106100415760003560e01c80636b2ace87146100465780639f1d0f591461006a578063daec383d146100b5575b600080fd5b61004e6100bd565b604080516001600160a01b039092168252519081900360200190f35b61009c6004803603606081101561008057600080fd5b506001600160a01b0381351690602081013590604001356100d5565b6040805192835260208301919091528051918290030190f35b61004e6104f9565b7374c764d41b77dbbb4fe771dab1939b00b146894a81565b6040805163097da6d360e41b815273fea7a6a0b346362bf88a9e4a88416b77a57d6c2a600482015230602482015273b6dd51d5425861c808fd60827ab6cfbffe60495960448201526000606482018190526084820184905282519092839283927374c764d41b77dbbb4fe771dab1939b00b146894a926397da6d309260a4808201939182900301818787803b15801561016d57600080fd5b505af1158015610181573d6000803e3d6000fd5b505050506040513d604081101561019757600080fd5b5051905060006101cf73fea7a6a0b346362bf88a9e4a88416b77a57d6c2a7382af49447d8a07e3bd95bd0d56f35241523fbab1610511565b50905060008073b6dd51d5425861c808fd60827ab6cfbffe6049596001600160a01b0316630902f1ac6040518163ffffffff1660e01b815260040160606040518083038186803b15801561022257600080fd5b505afa158015610236573d6000803e3d6000fd5b505050506040513d606081101561024c57600080fd5b5080516020909101516dffffffffffffffffffffffffffff918216935016905073fea7a6a0b346362bf88a9e4a88416b77a57d6c2a6001600160a01b0384161461029757808261029a565b81815b909250905060006102ac8584846105ef565b905060008073fea7a6a0b346362bf88a9e4a88416b77a57d6c2a6001600160a01b038716146102dd578260006102e1565b6000835b604080516000808252602082019283905263022c0d9f60e01b835260248201858152604483018590527374c764d41b77dbbb4fe771dab1939b00b146894a60648401819052608060848501908152845160a4860181905297995095975073b6dd51d5425861c808fd60827ab6cfbffe6049599663022c0d9f968a968a969395939493919260c48601928190849084905b83811015610389578181015183820152602001610371565b50505050905090810190601f1680156103b65780820380516001836020036101000a031916815260200191505b5095505050505050600060405180830381600087803b1580156103d857600080fd5b505af11580156103ec573d6000803e3d6000fd5b505050507374c764d41b77dbbb4fe771dab1939b00b146894a6001600160a01b03166302b9446c7382af49447d8a07e3bd95bd0d56f35241523fbab17374c764d41b77dbbb4fe771dab1939b00b146894a8f8760006040518663ffffffff1660e01b815260040180866001600160a01b03168152602001856001600160a01b03168152602001846001600160a01b03168152602001838152602001828152602001955050505050506040805180830381600087803b1580156104ad57600080fd5b505af11580156104c1573d6000803e3d6000fd5b505050506040513d60408110156104d757600080fd5b506020015197506104e8888c61063d565b985050505050505050935093915050565b73fea7a6a0b346362bf88a9e4a88416b77a57d6c2a81565b600080826001600160a01b0316846001600160a01b031614156105655760405162461bcd60e51b81526004018080602001828103825260258152602001806107586025913960400191505060405180910390fd5b826001600160a01b0316846001600160a01b031610610585578284610588565b83835b90925090506001600160a01b0382166105e8576040805162461bcd60e51b815260206004820152601e60248201527f556e697377617056324c6962726172793a205a45524f5f414444524553530000604482015290519081900360640190fd5b9250929050565b6000806105fe856103e5610693565b9050600061060c8285610693565b9050600061062683610620886103e8610693565b906106ff565b905080828161063157fe5b04979650505050505050565b8082038281111561068d576040805162461bcd60e51b8152602060048201526015602482015274426f72696e674d6174683a20556e646572666c6f7760581b604482015290519081900360640190fd5b92915050565b60008115806106ae575050808202828282816106ab57fe5b04145b61068d576040805162461bcd60e51b815260206004820152601860248201527f426f72696e674d6174683a204d756c204f766572666c6f770000000000000000604482015290519081900360640190fd5b8181018181101561068d576040805162461bcd60e51b815260206004820152601860248201527f426f72696e674d6174683a20416464204f766572666c6f770000000000000000604482015290519081900360640190fdfe556e697377617056324c6962726172793a204944454e544943414c5f414444524553534553a264697066735822122013438d1b279890e37825096c389da6c9dc1385c4e24eff9cbc5ee510a0b5513864736f6c634300060c0033",
  "devdoc": {
    "kind": "dev",
    "methods": {},
    "version": 1
  },
  "userdoc": {
    "kind": "user",
    "methods": {},
    "version": 1
  },
  "storageLayout": {
    "storage": [],
    "types": null
  }
}