{
  "address": "0xf33Eb640773827AFBbB886Fa2d60B071d51D2D85",
  "abi": [
    {
      "inputs": [
        {
          "internalType": "contract ILayerZeroEndpoint",
          "name": "_endpoint",
          "type": "address"
        },
        {
          "internalType": "contract ERC20",
          "name": "_SPELL",
          "type": "address"
        },
        {
          "internalType": "address",
          "name": "_mSpell",
          "type": "address"
        },
        {
          "internalType": "address",
          "name": "_mSpellSender",
          "type": "address"
        }
      ],
      "stateMutability": "nonpayable",
      "type": "constructor"
    },
    {
      "inputs": [],
      "name": "NotNoon",
      "type": "error"
    },
    {
      "stateMutability": "payable",
      "type": "fallback"
    },
    {
      "inputs": [],
      "name": "SPELL",
      "outputs": [
        {
          "internalType": "contract ERC20",
          "name": "",
          "type": "address"
        }
      ],
      "stateMutability": "view",
      "type": "function"
    },
    {
      "inputs": [],
      "name": "lastUpdated",
      "outputs": [
        {
          "internalType": "uint256",
          "name": "",
          "type": "uint256"
        }
      ],
      "stateMutability": "view",
      "type": "function"
    },
    {
      "inputs": [],
      "name": "mSpell",
      "outputs": [
        {
          "internalType": "address",
          "name": "",
          "type": "address"
        }
      ],
      "stateMutability": "view",
      "type": "function"
    },
    {
      "inputs": [],
      "name": "mSpellSender",
      "outputs": [
        {
          "internalType": "address",
          "name": "",
          "type": "address"
        }
      ],
      "stateMutability": "view",
      "type": "function"
    },
    {
      "inputs": [
        {
          "internalType": "address",
          "name": "to",
          "type": "address"
        }
      ],
      "name": "sendAmount",
      "outputs": [],
      "stateMutability": "payable",
      "type": "function"
    },
    {
      "inputs": [],
      "name": "sendAmount",
      "outputs": [],
      "stateMutability": "payable",
      "type": "function"
    },
    {
      "inputs": [],
      "name": "withdraw",
      "outputs": [],
      "stateMutability": "nonpayable",
      "type": "function"
    },
    {
      "stateMutability": "payable",
      "type": "receive"
    }
  ],
  "transactionHash": "0xf506136c245092c8e6b80365d352390b92fa4cbbfe5557508cb3ae42f1baffca",
  "args": [
    "0x3c2269811836af69497E5F486A85D7316753cf62",
    "0x3E6648C5a70A150A88bCE65F4aD4d506Fe15d2AF",
    "0x1DF188958A8674B5177f77667b8D173c3CdD9e51",
    "0xFc2796c47063D6FCb98006081778c7b45b13A4c0"
  ],
  "numDeployments": 2,
  "solcInputHash": "2354d470ceb469330436cc330d06065a",
  "bytecode": "0x61010060405234801561001157600080fd5b506040516108523803806108528339810160408190526100309161006a565b6001600160a01b0392831660a05290821660c052811660e052166080526100c9565b6001600160a01b038116811461006757600080fd5b50565b6000806000806080858703121561008057600080fd5b845161008b81610052565b602086015190945061009c81610052565b60408601519093506100ad81610052565b60608601519092506100be81610052565b939692955090935050565b60805160a05160c05160e051610720610132600039600081816101020152818161026c015261050c01526000818160b10152818161019b015261043b015260008181610136015281816101c601526104660152600081816102cd015261056d01526107206000f3fe60806040526004361061006e5760003560e01c8063572e98581161004b578063572e9858146100f057806376636722146101245780638b2b3d8b14610158578063d0b06f5d1461016057005b8063210cb8c3146100775780633ccfd60b1461008a5780634375feb41461009f57005b3661007557005b005b6100756100853660046105ed565b610184565b34801561009657600080fd5b5061007561034e565b3480156100ab57600080fd5b506100d37f000000000000000000000000000000000000000000000000000000000000000081565b6040516001600160a01b0390911681526020015b60405180910390f35b3480156100fc57600080fd5b506100d37f000000000000000000000000000000000000000000000000000000000000000081565b34801561013057600080fd5b506100d37f000000000000000000000000000000000000000000000000000000000000000081565b610075610424565b34801561016c57600080fd5b5061017660005481565b6040519081526020016100e7565b6040516370a0823160e01b81526001600160a01b037f0000000000000000000000000000000000000000000000000000000000000000811660048301526000917f0000000000000000000000000000000000000000000000000000000000000000909116906370a0823190602401602060405180830381865afa15801561020f573d6000803e3d6000fd5b505050506040513d601f19601f82011682018060405250810190610233919061061d565b604080514263ffffffff1660208201526fffffffffffffffffffffffffffffffff831681830152815180820383018152606080830184527f0000000000000000000000000000000000000000000000000000000000000000901b6bffffffffffffffffffffffff191660808301528251607481840301815260b48301845260006094909301838152935162c5803160e81b815294955090937f00000000000000000000000000000000000000000000000000000000000000006001600160a01b03169363c580310093349361031393600193919289923392600401610683565b6000604051808303818588803b15801561032c57600080fd5b505af1158015610340573d6000803e3d6000fd5b505042600055505050505050565b3373fddfe525054efaad204600d00ca86adb1cc2ea8a1461036e57600080fd5b604051479060009073fddfe525054efaad204600d00ca86adb1cc2ea8a9083908381818185875af1925050503d80600081146103c6576040519150601f19603f3d011682016040523d82523d6000602084013e6103cb565b606091505b50509050806104205760405162461bcd60e51b815260206004820152601460248201527f4661696c656420746f2073656e64204574686572000000000000000000000000604482015260640160405180910390fd5b5050565b6040516370a0823160e01b81526001600160a01b037f0000000000000000000000000000000000000000000000000000000000000000811660048301526000917f0000000000000000000000000000000000000000000000000000000000000000909116906370a0823190602401602060405180830381865afa1580156104af573d6000803e3d6000fd5b505050506040513d601f19601f820116820180604052508101906104d3919061061d565b604080514263ffffffff1660208201526fffffffffffffffffffffffffffffffff831681830152815180820383018152606080830184527f0000000000000000000000000000000000000000000000000000000000000000901b6bffffffffffffffffffffffff191660808301528251607481840301815260b48301845260006094909301838152935162c5803160e81b815294955090937f00000000000000000000000000000000000000000000000000000000000000006001600160a01b03169363c58031009334936105b393600193919289923392600401610683565b6000604051808303818588803b1580156105cc57600080fd5b505af11580156105e0573d6000803e3d6000fd5b5050426000555050505050565b6000602082840312156105ff57600080fd5b81356001600160a01b038116811461061657600080fd5b9392505050565b60006020828403121561062f57600080fd5b5051919050565b6000815180845260005b8181101561065c57602081850181015186830182015201610640565b8181111561066e576000602083870101525b50601f01601f19169290920160200192915050565b61ffff8716815260c0602082015260006106a060c0830188610636565b82810360408401526106b28188610636565b6001600160a01b0387811660608601528616608085015283810360a085015290506106dd8185610636565b999850505050505050505056fea26469706673582212208fa6a6a20b46f17d53354bd5a2096427d82e1d260afabff6661bb376225111b364736f6c634300080a0033",
  "devdoc": {
    "kind": "dev",
    "methods": {},
    "version": 1
  },
  "userdoc": {
    "kind": "user",
    "methods": {},
    "version": 1
  },
  "storageLayout": {
    "storage": [
      {
        "astId": 10842,
        "contract": "contracts/mspell/mSpellReporterManual.sol:mSpellReporterManual",
        "label": "lastUpdated",
        "offset": 0,
        "slot": "0",
        "type": "t_uint256"
      }
    ],
    "types": {
      "t_uint256": {
        "encoding": "inplace",
        "label": "uint256",
        "numberOfBytes": "32"
      }
    }
  }
}