{
  "address": "0x1fC83f75499b7620d53757f0b01E2ae626aAE530",
  "abi": [
    {
      "inputs": [
        {
          "internalType": "contract ILayerZeroEndpoint",
          "name": "_endpoint",
          "type": "address"
        },
        {
          "internalType": "contract ERC20",
          "name": "_SPELL",
          "type": "address"
        },
        {
          "internalType": "address",
          "name": "_mSpell",
          "type": "address"
        },
        {
          "internalType": "address",
          "name": "_mSpellSender",
          "type": "address"
        }
      ],
      "stateMutability": "nonpayable",
      "type": "constructor"
    },
    {
      "inputs": [],
      "name": "NotNoon",
      "type": "error"
    },
    {
      "stateMutability": "payable",
      "type": "fallback"
    },
    {
      "inputs": [],
      "name": "SPELL",
      "outputs": [
        {
          "internalType": "contract ERC20",
          "name": "",
          "type": "address"
        }
      ],
      "stateMutability": "view",
      "type": "function"
    },
    {
      "inputs": [],
      "name": "lastUpdated",
      "outputs": [
        {
          "internalType": "uint256",
          "name": "",
          "type": "uint256"
        }
      ],
      "stateMutability": "view",
      "type": "function"
    },
    {
      "inputs": [],
      "name": "mSpell",
      "outputs": [
        {
          "internalType": "address",
          "name": "",
          "type": "address"
        }
      ],
      "stateMutability": "view",
      "type": "function"
    },
    {
      "inputs": [],
      "name": "mSpellSender",
      "outputs": [
        {
          "internalType": "address",
          "name": "",
          "type": "address"
        }
      ],
      "stateMutability": "view",
      "type": "function"
    },
    {
      "inputs": [],
      "name": "sendAmount",
      "outputs": [],
      "stateMutability": "nonpayable",
      "type": "function"
    },
    {
      "inputs": [],
      "name": "withdraw",
      "outputs": [],
      "stateMutability": "nonpayable",
      "type": "function"
    },
    {
      "stateMutability": "payable",
      "type": "receive"
    }
  ],
  "transactionHash": "0x22084dc648f453a7f22f0bffb5a3d92849355d13c04467a49956dcd7c635e3fa",
  "args": [
    "0x3c2269811836af69497E5F486A85D7316753cf62",
    "0x3E6648C5a70A150A88bCE65F4aD4d506Fe15d2AF",
    "0x1DF188958A8674B5177f77667b8D173c3CdD9e51",
    "0x54c80f1c4718E3E6df71b83BB9Cb389EC41F07a5"
  ],
  "numDeployments": 3,
  "solcInputHash": "a3de8c8ba7b42943472df348438e7222",
  "bytecode": "0x61010060405234801561001157600080fd5b50604051610a71380380610a718339810160408190526100309161006a565b6001600160a01b0392831660a05290821660c052811660e052166080526100c9565b6001600160a01b038116811461006757600080fd5b50565b6000806000806080858703121561008057600080fd5b845161008b81610052565b602086015190945061009c81610052565b60408601519093506100ad81610052565b60608601519092506100be81610052565b939692955090935050565b60805160a05160c05160e05161095c6101156000396000818160e401526103d301526000818160930152610302015260008181610118015261032d01526000610434015261095c6000f3fe6080604052600436106100635760003560e01c8063766367221161004057806376636722146101065780638b2b3d8b1461013a578063d0b06f5d1461014f57005b80633ccfd60b1461006c5780634375feb414610081578063572e9858146100d257005b3661006a57005b005b34801561007857600080fd5b5061006a610173565b34801561008d57600080fd5b506100b57f000000000000000000000000000000000000000000000000000000000000000081565b6040516001600160a01b0390911681526020015b60405180910390f35b3480156100de57600080fd5b506100b57f000000000000000000000000000000000000000000000000000000000000000081565b34801561011257600080fd5b506100b57f000000000000000000000000000000000000000000000000000000000000000081565b34801561014657600080fd5b5061006a610229565b34801561015b57600080fd5b5061016560005481565b6040519081526020016100c9565b604051479060009073fddfe525054efaad204600d00ca86adb1cc2ea8a9083908381818185875af1925050503d80600081146101cb576040519150601f19603f3d011682016040523d82523d6000602084013e6101d0565b606091505b50509050806102255760405162461bcd60e51b815260206004820152601460248201527f4661696c656420746f2073656e64204574686572000000000000000000000000604482015260640160405180910390fd5b5050565b60006018610239610e10426106e5565b61024391906106f9565b905080600c146102655760405162faa44560e61b815260040160405180910390fd5b61026e426104b6565b6102796000546104b6565b10806102965750610289426104d5565b6102946000546104d5565b105b806102b257506102a5426104ef565b6102b06000546104ef565b105b6102bb57600080fd5b60006102c64261050a565b905080600114806102d75750806003145b806102e25750806005145b6102eb57600080fd5b6040516370a0823160e01b81526001600160a01b037f0000000000000000000000000000000000000000000000000000000000000000811660048301526000917f0000000000000000000000000000000000000000000000000000000000000000909116906370a0823190602401602060405180830381865afa158015610376573d6000803e3d6000fd5b505050506040513d601f19601f8201168201806040525081019061039a919061070d565b604080514263ffffffff1660208201526fffffffffffffffffffffffffffffffff831681830152815180820383018152606080830184527f0000000000000000000000000000000000000000000000000000000000000000901b6bffffffffffffffffffffffff191660808301528251607481840301815260b48301845260006094909301838152935162c5803160e81b815294955090937f00000000000000000000000000000000000000000000000000000000000000006001600160a01b03169363c580310093479361047a93600193919289923092600401610773565b6000604051808303818588803b15801561049357600080fd5b505af11580156104a7573d6000803e3d6000fd5b50504260005550505050505050565b60006104cd6104c862015180846106e5565b610545565b949350505050565b60006104e76104c862015180846106e5565b509392505050565b60006105016104c862015180846106e5565b50909392505050565b60008061051a62015180846106e5565b905060076105298260036107da565b61053391906106f9565b61053e9060016107da565b9392505050565b60008080838162253d8c61055c8362010bd96107f2565b61056691906107f2565b9050600062023ab1610579836004610832565b61058391906108b9565b905060046105948262023ab1610832565b61059f9060036107f2565b6105a991906108b9565b6105b390836108e7565b9150600062164b096105c68460016107f2565b6105d290610fa0610832565b6105dc91906108b9565b905060046105ec826105b5610832565b6105f691906108b9565b61060090846108e7565b61060b90601f6107f2565b9250600061098f61061d856050610832565b61062791906108b9565b9050600060506106398361098f610832565b61064391906108b9565b61064d90866108e7565b905061065a600b836108b9565b945061066785600c610832565b6106728360026107f2565b61067c91906108e7565b9150848361068b6031876108e7565b610696906064610832565b6106a091906107f2565b6106aa91906107f2565b9a919950975095505050505050565b634e487b7160e01b600052601260045260246000fd5b634e487b7160e01b600052601160045260246000fd5b6000826106f4576106f46106b9565b500490565b600082610708576107086106b9565b500690565b60006020828403121561071f57600080fd5b5051919050565b6000815180845260005b8181101561074c57602081850181015186830182015201610730565b8181111561075e576000602083870101525b50601f01601f19169290920160200192915050565b61ffff8716815260c06020820152600061079060c0830188610726565b82810360408401526107a28188610726565b6001600160a01b0387811660608601528616608085015283810360a085015290506107cd8185610726565b9998505050505050505050565b600082198211156107ed576107ed6106cf565b500190565b6000808212826001600160ff1b0303841381151615610813576108136106cf565b600160ff1b839003841281161561082c5761082c6106cf565b50500190565b60006001600160ff1b0360008413600084138583048511828216161561085a5761085a6106cf565b600160ff1b6000871282811687830589121615610879576108796106cf565b60008712925087820587128484161615610895576108956106cf565b878505871281841616156108ab576108ab6106cf565b505050929093029392505050565b6000826108c8576108c86106b9565b600160ff1b8214600019841416156108e2576108e26106cf565b500590565b60008083128015600160ff1b850184121615610905576109056106cf565b836001600160ff1b03018313811615610920576109206106cf565b5050039056fea264697066735822122093c45d5002e4aa4171877f806ee6c46cde6d9347c86ff784c81d12164bb06c1764736f6c634300080a0033",
  "devdoc": {
    "kind": "dev",
    "methods": {},
    "version": 1
  },
  "userdoc": {
    "kind": "user",
    "methods": {},
    "version": 1
  },
  "storageLayout": {
    "storage": [
      {
        "astId": 8699,
        "contract": "contracts/mspell/mSpellReporter.sol:mSpellReporter",
        "label": "lastUpdated",
        "offset": 0,
        "slot": "0",
        "type": "t_uint256"
      }
    ],
    "types": {
      "t_uint256": {
        "encoding": "inplace",
        "label": "uint256",
        "numberOfBytes": "32"
      }
    }
  }
}