{
  "address": "0x2906ae98fdAf225a697a09158D10843A89CF0FC5",
  "abi": [
    {
      "inputs": [
        {
          "internalType": "contract IBentoBoxV1",
          "name": "_degenBox",
          "type": "address"
        },
        {
          "internalType": "contract IStargatePool",
          "name": "_pool",
          "type": "address"
        },
        {
          "internalType": "uint16",
          "name": "_poolId",
          "type": "uint16"
        },
        {
          "internalType": "contract IStargateRouter",
          "name": "_stargateRouter",
          "type": "address"
        },
        {
          "internalType": "contract CurvePool",
          "name": "_curvePool",
          "type": "address"
        },
        {
          "internalType": "int128",
          "name": "_curvePoolI",
          "type": "int128"
        },
        {
          "internalType": "int128",
          "name": "_curvePoolJ",
          "type": "int128"
        }
      ],
      "stateMutability": "nonpayable",
      "type": "constructor"
    },
    {
      "inputs": [],
      "name": "curvePool",
      "outputs": [
        {
          "internalType": "contract CurvePool",
          "name": "",
          "type": "address"
        }
      ],
      "stateMutability": "view",
      "type": "function"
    },
    {
      "inputs": [],
      "name": "curvePoolI",
      "outputs": [
        {
          "internalType": "int128",
          "name": "",
          "type": "int128"
        }
      ],
      "stateMutability": "view",
      "type": "function"
    },
    {
      "inputs": [],
      "name": "curvePoolJ",
      "outputs": [
        {
          "internalType": "int128",
          "name": "",
          "type": "int128"
        }
      ],
      "stateMutability": "view",
      "type": "function"
    },
    {
      "inputs": [],
      "name": "degenBox",
      "outputs": [
        {
          "internalType": "contract IBentoBoxV1",
          "name": "",
          "type": "address"
        }
      ],
      "stateMutability": "view",
      "type": "function"
    },
    {
      "inputs": [],
      "name": "mim",
      "outputs": [
        {
          "internalType": "contract IERC20",
          "name": "",
          "type": "address"
        }
      ],
      "stateMutability": "view",
      "type": "function"
    },
    {
      "inputs": [],
      "name": "pool",
      "outputs": [
        {
          "internalType": "contract IStargatePool",
          "name": "",
          "type": "address"
        }
      ],
      "stateMutability": "view",
      "type": "function"
    },
    {
      "inputs": [],
      "name": "poolId",
      "outputs": [
        {
          "internalType": "uint16",
          "name": "",
          "type": "uint16"
        }
      ],
      "stateMutability": "view",
      "type": "function"
    },
    {
      "inputs": [],
      "name": "stargateRouter",
      "outputs": [
        {
          "internalType": "contract IStargateRouter",
          "name": "",
          "type": "address"
        }
      ],
      "stateMutability": "view",
      "type": "function"
    },
    {
      "inputs": [
        {
          "internalType": "contract IERC20",
          "name": "",
          "type": "address"
        },
        {
          "internalType": "contract IERC20",
          "name": "",
          "type": "address"
        },
        {
          "internalType": "address",
          "name": "recipient",
          "type": "address"
        },
        {
          "internalType": "uint256",
          "name": "shareToMin",
          "type": "uint256"
        },
        {
          "internalType": "uint256",
          "name": "shareFrom",
          "type": "uint256"
        }
      ],
      "name": "swap",
      "outputs": [
        {
          "internalType": "uint256",
          "name": "extraShare",
          "type": "uint256"
        },
        {
          "internalType": "uint256",
          "name": "shareReturned",
          "type": "uint256"
        }
      ],
      "stateMutability": "nonpayable",
      "type": "function"
    },
    {
      "inputs": [
        {
          "internalType": "contract IERC20",
          "name": "",
          "type": "address"
        },
        {
          "internalType": "contract IERC20",
          "name": "",
          "type": "address"
        },
        {
          "internalType": "address",
          "name": "",
          "type": "address"
        },
        {
          "internalType": "address",
          "name": "",
          "type": "address"
        },
        {
          "internalType": "uint256",
          "name": "",
          "type": "uint256"
        },
        {
          "internalType": "uint256",
          "name": "",
          "type": "uint256"
        }
      ],
      "name": "swapExact",
      "outputs": [
        {
          "internalType": "uint256",
          "name": "shareUsed",
          "type": "uint256"
        },
        {
          "internalType": "uint256",
          "name": "shareReturned",
          "type": "uint256"
        }
      ],
      "stateMutability": "pure",
      "type": "function"
    },
    {
      "inputs": [],
      "name": "underlyingPoolToken",
      "outputs": [
        {
          "internalType": "contract IERC20",
          "name": "",
          "type": "address"
        }
      ],
      "stateMutability": "view",
      "type": "function"
    }
  ],
  "transactionHash": "0x1ec5001e6e6a8a9b8e2e6974ce791a598954c0b61d50c496997549455b8714cc",
  "args": [
    "0x7C8FeF8eA9b1fE46A7689bfb8149341C90431D38",
    "0xB6CfcF89a7B22988bfC96632aC2A9D6daB60d641",
    2,
    "0x53Bf833A5d6c4ddA888F69c22C88C9f356a41614",
    "0x30dF229cefa463e991e29D42DB0bae2e122B2AC7",
    2,
    0
  ],
  "numDeployments": 1,
  "solcInputHash": "f8dea3782dfdbeea8f4c6cd9c24db2f9",
  "bytecode": "0x6101a06040523480156200001257600080fd5b50604051620013483803806200134883398101604081905262000035916200055a565b6001600160a01b0387811660805286811660a05261ffff86166101405284811660c052831660e0819052600f83810b6101005282900b6101205260405163c661065760e01b81526001600160801b038316600482015263c661065790602401602060405180830381865afa158015620000b2573d6000803e3d6000fd5b505050506040513d601f19601f82011682018060405250810190620000d8919062000603565b6001600160a01b0316610180816001600160a01b031681525050856001600160a01b031663fc0c546a6040518163ffffffff1660e01b8152600401602060405180830381865afa15801562000131573d6000803e3d6000fd5b505050506040513d601f19601f8201168201806040525081019062000157919062000603565b6001600160a01b031661016081905262000175908460001962000182565b50505050505050620006e3565b801580620002005750604051636eb1769f60e11b81523060048201526001600160a01b03838116602483015284169063dd62ed3e90604401602060405180830381865afa158015620001d8573d6000803e3d6000fd5b505050506040513d601f19601f82011682018060405250810190620001fe919062000623565b155b620002785760405162461bcd60e51b815260206004820152603660248201527f5361666545524332303a20617070726f76652066726f6d206e6f6e2d7a65726f60448201527f20746f206e6f6e2d7a65726f20616c6c6f77616e63650000000000000000000060648201526084015b60405180910390fd5b604080516001600160a01b03848116602483015260448083018590528351808403909101815260649092018352602080830180516001600160e01b031663095ea7b360e01b17905283518085019094528084527f5361666545524332303a206c6f772d6c6576656c2063616c6c206661696c6564848201526000936200030c93928816929162000394811b6200081f17901c565b8051909150156200038e57808060200190518101906200032d91906200063d565b6200038e5760405162461bcd60e51b815260206004820152602a60248201527f5361666545524332303a204552433230206f7065726174696f6e20646964206e6044820152691bdd081cdd58d8d9595960b21b60648201526084016200026f565b50505050565b6060620003a58484600085620003af565b90505b9392505050565b606082471015620004125760405162461bcd60e51b815260206004820152602660248201527f416464726573733a20696e73756666696369656e742062616c616e636520666f6044820152651c8818d85b1b60d21b60648201526084016200026f565b6001600160a01b0385163b6200046b5760405162461bcd60e51b815260206004820152601d60248201527f416464726573733a2063616c6c20746f206e6f6e2d636f6e747261637400000060448201526064016200026f565b600080866001600160a01b0316858760405162000489919062000690565b60006040518083038185875af1925050503d8060008114620004c8576040519150601f19603f3d011682016040523d82523d6000602084013e620004cd565b606091505b509092509050620004e0828286620004eb565b979650505050505050565b60608315620004fc575081620003a8565b8251156200050d5782518084602001fd5b8160405162461bcd60e51b81526004016200026f9190620006ae565b6001600160a01b03811681146200053f57600080fd5b50565b8051600f81900b81146200055557600080fd5b919050565b600080600080600080600060e0888a0312156200057657600080fd5b8751620005838162000529565b6020890151909750620005968162000529565b604089015190965061ffff81168114620005af57600080fd5b6060890151909550620005c28162000529565b6080890151909450620005d58162000529565b9250620005e560a0890162000542565b9150620005f560c0890162000542565b905092959891949750929550565b6000602082840312156200061657600080fd5b8151620003a88162000529565b6000602082840312156200063657600080fd5b5051919050565b6000602082840312156200065057600080fd5b81518015158114620003a857600080fd5b60005b838110156200067e57818101518382015260200162000664565b838111156200038e5750506000910152565b60008251620006a481846020870162000661565b9190910192915050565b6020815260008251806020840152620006cf81604085016020870162000661565b601f01601f19169190910160400192915050565b60805160a05160c05160e0516101005161012051610140516101605161018051610b9a620007ae60003960008181610258015261075001526000818161020a01526105b501526000818161017801526104190152600081816101e3015261066201526000818160d3015261063701526000818161015101526106cb01526000818161027f0152610450015260008181610112015281816102c60152818161039401526104db0152600081816102310152818161030e015281816106a001526107780152610b9a6000f3fe608060405234801561001057600080fd5b50600436106100c95760003560e01c80637c3e13e3116100815780639f67679e1161005b5780639f67679e14610253578063a9e56f3c1461027a578063e343fe12146102a157600080fd5b80637c3e13e3146101de5780639dd6126e146102055780639f495c151461022c57600080fd5b8063218751b2116100b2578063218751b21461014c5780633e0dc34e146101735780634622be90146101ad57600080fd5b806307a65882146100ce57806316f0115b1461010d575b600080fd5b6100f57f000000000000000000000000000000000000000000000000000000000000000081565b604051600f9190910b81526020015b60405180910390f35b6101347f000000000000000000000000000000000000000000000000000000000000000081565b6040516001600160a01b039091168152602001610104565b6101347f000000000000000000000000000000000000000000000000000000000000000081565b61019a7f000000000000000000000000000000000000000000000000000000000000000081565b60405161ffff9091168152602001610104565b6101c96101bb3660046109ba565b600080965096945050505050565b60408051928352602083019190915201610104565b6100f57f000000000000000000000000000000000000000000000000000000000000000081565b6101347f000000000000000000000000000000000000000000000000000000000000000081565b6101347f000000000000000000000000000000000000000000000000000000000000000081565b6101347f000000000000000000000000000000000000000000000000000000000000000081565b6101347f000000000000000000000000000000000000000000000000000000000000000081565b6101c96102af366004610a28565b60405163097da6d360e41b81526001600160a01b037f00000000000000000000000000000000000000000000000000000000000000008116600483015230602483018190526044830152600060648301819052608483018490529182917f000000000000000000000000000000000000000000000000000000000000000016906397da6d309060a40160408051808303816000875af1158015610356573d6000803e3d6000fd5b505050506040513d601f19601f8201168201806040525081019061037a9190610a83565b50506040516370a0823160e01b81523060048201526000907f00000000000000000000000000000000000000000000000000000000000000006001600160a01b0316906370a0823190602401602060405180830381865afa1580156103e3573d6000803e3d6000fd5b505050506040513d601f19601f820116820180604052508101906104079190610aa7565b60405163c4de93a560e01b815261ffff7f0000000000000000000000000000000000000000000000000000000000000000166004820152602481018290523060448201529091507f00000000000000000000000000000000000000000000000000000000000000006001600160a01b03169063c4de93a5906064016020604051808303816000875af11580156104a1573d6000803e3d6000fd5b505050506040513d601f19601f820116820180604052508101906104c59190610aa7565b506040516370a0823160e01b81523060048201527f00000000000000000000000000000000000000000000000000000000000000006001600160a01b0316906370a0823190602401602060405180830381865afa15801561052a573d6000803e3d6000fd5b505050506040513d601f19601f8201168201806040525081019061054e9190610aa7565b156105a05760405162461bcd60e51b815260206004820152601360248201527f43616e6e6f742066756c6c792072656465656d0000000000000000000000000060448201526064015b60405180910390fd5b6040516370a0823160e01b81523060048201527f00000000000000000000000000000000000000000000000000000000000000006001600160a01b0316906370a0823190602401602060405180830381865afa158015610604573d6000803e3d6000fd5b505050506040513d601f19601f820116820180604052508101906106289190610aa7565b6040516322770cc360e11b81527f0000000000000000000000000000000000000000000000000000000000000000600f90810b60048301527f0000000000000000000000000000000000000000000000000000000000000000900b602482015260448101829052600060648201526001600160a01b037f0000000000000000000000000000000000000000000000000000000000000000811660848301529192507f0000000000000000000000000000000000000000000000000000000000000000909116906344ee19869060a4016020604051808303816000875af1158015610716573d6000803e3d6000fd5b505050506040513d601f19601f8201168201806040525081019061073a9190610aa7565b60405162ae511b60e21b81526001600160a01b037f0000000000000000000000000000000000000000000000000000000000000000811660048301527f0000000000000000000000000000000000000000000000000000000000000000811660248301819052908916604483015260648201839052600060848301529192506302b9446c9060a40160408051808303816000875af11580156107e0573d6000803e3d6000fd5b505050506040513d601f19601f820116820180604052508101906108049190610a83565b925061081290508583610ac0565b9250509550959350505050565b606061082e8484600085610838565b90505b9392505050565b6060824710156108995760405162461bcd60e51b815260206004820152602660248201527f416464726573733a20696e73756666696369656e742062616c616e636520666f6044820152651c8818d85b1b60d21b6064820152608401610597565b6001600160a01b0385163b6108f05760405162461bcd60e51b815260206004820152601d60248201527f416464726573733a2063616c6c20746f206e6f6e2d636f6e74726163740000006044820152606401610597565b600080866001600160a01b0316858760405161090c9190610b15565b60006040518083038185875af1925050503d8060008114610949576040519150601f19603f3d011682016040523d82523d6000602084013e61094e565b606091505b509150915061095e828286610969565b979650505050505050565b60608315610978575081610831565b8251156109885782518084602001fd5b8160405162461bcd60e51b81526004016105979190610b31565b6001600160a01b03811681146109b757600080fd5b50565b60008060008060008060c087890312156109d357600080fd5b86356109de816109a2565b955060208701356109ee816109a2565b945060408701356109fe816109a2565b93506060870135610a0e816109a2565b9598949750929560808101359460a0909101359350915050565b600080600080600060a08688031215610a4057600080fd5b8535610a4b816109a2565b94506020860135610a5b816109a2565b93506040860135610a6b816109a2565b94979396509394606081013594506080013592915050565b60008060408385031215610a9657600080fd5b505080516020909101519092909150565b600060208284031215610ab957600080fd5b5051919050565b600082821015610ae057634e487b7160e01b600052601160045260246000fd5b500390565b60005b83811015610b00578181015183820152602001610ae8565b83811115610b0f576000848401525b50505050565b60008251610b27818460208701610ae5565b9190910192915050565b6020815260008251806020840152610b50816040850160208701610ae5565b601f01601f1916919091016040019291505056fea2646970667358221220b101f65e343fd23e46cb05d0a22e55b5951338ae3867424ddffcfde0ce3bd1cd64736f6c634300080a0033",
  "devdoc": {
    "kind": "dev",
    "methods": {},
    "version": 1
  },
  "userdoc": {
    "kind": "user",
    "methods": {
      "swap(address,address,address,uint256,uint256)": {
        "notice": "Withdraws 'amountFrom' of token 'from' from the BentoBox account for this swapper. Swaps it for at least 'amountToMin' of token 'to'. Transfers the swapped tokens of 'to' into the BentoBox using a plain ERC20 transfer. Returns the amount of tokens 'to' transferred to BentoBox. (The BentoBox skim function will be used by the caller to get the swapped funds)."
      },
      "swapExact(address,address,address,address,uint256,uint256)": {
        "notice": "Calculates the amount of token 'from' needed to complete the swap (amountFrom), this should be less than or equal to amountFromMax. Withdraws 'amountFrom' of token 'from' from the BentoBox account for this swapper. Swaps it for exactly 'exactAmountTo' of token 'to'. Transfers the swapped tokens of 'to' into the BentoBox using a plain ERC20 transfer. Transfers allocated, but unused 'from' tokens within the BentoBox to 'refundTo' (amountFromMax - amountFrom). Returns the amount of 'from' tokens withdrawn from BentoBox (amountFrom). (The BentoBox skim function will be used by the caller to get the swapped funds)."
      }
    },
    "notice": "Liquidation Swapper for Stargate LP using Curve",
    "version": 1
  },
  "storageLayout": {
    "storage": [],
    "types": null
  }
}