{
  "address": "0xa64B73699Cc7334810E382A4C09CAEc53636Ab96",
  "abi": [
    {
      "inputs": [
        {
          "internalType": "contract IBentoBoxV1",
          "name": "_degenBox",
          "type": "address"
        },
        {
          "internalType": "contract IStargatePool",
          "name": "_pool",
          "type": "address"
        },
        {
          "internalType": "uint16",
          "name": "_poolId",
          "type": "uint16"
        },
        {
          "internalType": "contract IStargateRouter",
          "name": "_stargateRouter",
          "type": "address"
        },
        {
          "internalType": "contract CurvePool",
          "name": "_curvePool",
          "type": "address"
        },
        {
          "internalType": "int128",
          "name": "_curvePoolI",
          "type": "int128"
        },
        {
          "internalType": "int128",
          "name": "_curvePoolJ",
          "type": "int128"
        }
      ],
      "stateMutability": "nonpayable",
      "type": "constructor"
    },
    {
      "inputs": [],
      "name": "curvePool",
      "outputs": [
        {
          "internalType": "contract CurvePool",
          "name": "",
          "type": "address"
        }
      ],
      "stateMutability": "view",
      "type": "function"
    },
    {
      "inputs": [],
      "name": "curvePoolI",
      "outputs": [
        {
          "internalType": "int128",
          "name": "",
          "type": "int128"
        }
      ],
      "stateMutability": "view",
      "type": "function"
    },
    {
      "inputs": [],
      "name": "curvePoolJ",
      "outputs": [
        {
          "internalType": "int128",
          "name": "",
          "type": "int128"
        }
      ],
      "stateMutability": "view",
      "type": "function"
    },
    {
      "inputs": [],
      "name": "degenBox",
      "outputs": [
        {
          "internalType": "contract IBentoBoxV1",
          "name": "",
          "type": "address"
        }
      ],
      "stateMutability": "view",
      "type": "function"
    },
    {
      "inputs": [],
      "name": "mim",
      "outputs": [
        {
          "internalType": "contract IERC20",
          "name": "",
          "type": "address"
        }
      ],
      "stateMutability": "view",
      "type": "function"
    },
    {
      "inputs": [],
      "name": "pool",
      "outputs": [
        {
          "internalType": "contract IStargatePool",
          "name": "",
          "type": "address"
        }
      ],
      "stateMutability": "view",
      "type": "function"
    },
    {
      "inputs": [],
      "name": "poolId",
      "outputs": [
        {
          "internalType": "uint256",
          "name": "",
          "type": "uint256"
        }
      ],
      "stateMutability": "view",
      "type": "function"
    },
    {
      "inputs": [],
      "name": "stargateRouter",
      "outputs": [
        {
          "internalType": "contract IStargateRouter",
          "name": "",
          "type": "address"
        }
      ],
      "stateMutability": "view",
      "type": "function"
    },
    {
      "inputs": [
        {
          "internalType": "address",
          "name": "recipient",
          "type": "address"
        },
        {
          "internalType": "uint256",
          "name": "shareToMin",
          "type": "uint256"
        },
        {
          "internalType": "uint256",
          "name": "shareFrom",
          "type": "uint256"
        }
      ],
      "name": "swap",
      "outputs": [
        {
          "internalType": "uint256",
          "name": "extraShare",
          "type": "uint256"
        },
        {
          "internalType": "uint256",
          "name": "shareReturned",
          "type": "uint256"
        }
      ],
      "stateMutability": "nonpayable",
      "type": "function"
    },
    {
      "inputs": [],
      "name": "underlyingPoolToken",
      "outputs": [
        {
          "internalType": "contract IERC20",
          "name": "",
          "type": "address"
        }
      ],
      "stateMutability": "view",
      "type": "function"
    }
  ],
  "transactionHash": "0x21191b203bb1d75d83a916cb91e0f7752d1d756dbb8349ad45fdc6edbe9694e9",
  "args": [
    "0x74c764D41B77DBbb4fe771daB1939B00b146894A",
    "0xB6CfcF89a7B22988bfC96632aC2A9D6daB60d641",
    2,
    "0x53Bf833A5d6c4ddA888F69c22C88C9f356a41614",
    "0x30dF229cefa463e991e29D42DB0bae2e122B2AC7",
    0,
    2
  ],
  "numDeployments": 1,
  "solcInputHash": "4253906bc6ff185a2720fd2214efbefb",
  "bytecode": "0x6101a06040523480156200001257600080fd5b50604051620011c8380380620011c883398101604081905262000035916200064e565b6001600160a01b0387811660805286811660a05261ffff86166101405284811660c052831660e0819052600f83810b6101005282900b6101205260405163c661065760e01b81526001600160801b038416600482015263c661065790602401602060405180830381865afa158015620000b2573d6000803e3d6000fd5b505050506040513d601f19601f82011682018060405250810190620000d89190620006f7565b6001600160a01b0316610180816001600160a01b031681525050856001600160a01b031663fc0c546a6040518163ffffffff1660e01b8152600401602060405180830381865afa15801562000131573d6000803e3d6000fd5b505050506040513d601f19601f82011682018060405250810190620001579190620006f7565b6001600160a01b03908116610160526101805160405163095ea7b360e01b81528583166004820152600019602482015291169063095ea7b3906044016020604051808303816000875af1158015620001b3573d6000803e3d6000fd5b505050506040513d601f19601f82011682018060405250810190620001d9919062000717565b5061016051620001ed908560001962000276565b60a05160405163095ea7b360e01b81526001600160a01b03898116600483015260001960248301529091169063095ea7b3906044016020604051808303816000875af115801562000242573d6000803e3d6000fd5b505050506040513d601f19601f8201168201806040525081019062000268919062000717565b5050505050505050620007d7565b801580620002f45750604051636eb1769f60e11b81523060048201526001600160a01b03838116602483015284169063dd62ed3e90604401602060405180830381865afa158015620002cc573d6000803e3d6000fd5b505050506040513d601f19601f82011682018060405250810190620002f291906200073b565b155b6200036c5760405162461bcd60e51b815260206004820152603660248201527f5361666545524332303a20617070726f76652066726f6d206e6f6e2d7a65726f60448201527f20746f206e6f6e2d7a65726f20616c6c6f77616e63650000000000000000000060648201526084015b60405180910390fd5b604080516001600160a01b03848116602483015260448083018590528351808403909101815260649092018352602080830180516001600160e01b031663095ea7b360e01b17905283518085019094528084527f5361666545524332303a206c6f772d6c6576656c2063616c6c206661696c6564848201526000936200040093928816929162000488811b6200065b17901c565b80519091501562000482578080602001905181019062000421919062000717565b620004825760405162461bcd60e51b815260206004820152602a60248201527f5361666545524332303a204552433230206f7065726174696f6e20646964206e6044820152691bdd081cdd58d8d9595960b21b606482015260840162000363565b50505050565b6060620004998484600085620004a3565b90505b9392505050565b606082471015620005065760405162461bcd60e51b815260206004820152602660248201527f416464726573733a20696e73756666696369656e742062616c616e636520666f6044820152651c8818d85b1b60d21b606482015260840162000363565b6001600160a01b0385163b6200055f5760405162461bcd60e51b815260206004820152601d60248201527f416464726573733a2063616c6c20746f206e6f6e2d636f6e7472616374000000604482015260640162000363565b600080866001600160a01b031685876040516200057d919062000784565b60006040518083038185875af1925050503d8060008114620005bc576040519150601f19603f3d011682016040523d82523d6000602084013e620005c1565b606091505b509092509050620005d4828286620005df565b979650505050505050565b60608315620005f05750816200049c565b825115620006015782518084602001fd5b8160405162461bcd60e51b8152600401620003639190620007a2565b6001600160a01b03811681146200063357600080fd5b50565b8051600f81900b81146200064957600080fd5b919050565b600080600080600080600060e0888a0312156200066a57600080fd5b875162000677816200061d565b60208901519097506200068a816200061d565b604089015190965061ffff81168114620006a357600080fd5b6060890151909550620006b6816200061d565b6080890151909450620006c9816200061d565b9250620006d960a0890162000636565b9150620006e960c0890162000636565b905092959891949750929550565b6000602082840312156200070a57600080fd5b81516200049c816200061d565b6000602082840312156200072a57600080fd5b815180151581146200049c57600080fd5b6000602082840312156200074e57600080fd5b5051919050565b60005b838110156200077257818101518382015260200162000758565b83811115620004825750506000910152565b600082516200079881846020870162000755565b9190910192915050565b6020815260008251806020840152620007c381604085016020870162000755565b601f01601f19169190910160400192915050565b60805160a05160c05160e051610100516101205161014051610160516101805161093b6200088d6000396000818161023f015261029f015260006101c901526000818161016d01526104550152600081816101a2015261039201526000818160c8015261036701526000818161014601526103d1015260008181610266015261048b01526000818161010701528181610502015261058d015260008181610218015281816102e901526105d4015261093b6000f3fe608060405234801561001057600080fd5b50600436106100be5760003560e01c80639dd6126e116100765780639f495c151161005b5780639f495c15146102135780639f67679e1461023a578063a9e56f3c1461026157600080fd5b80639dd6126e146101c45780639f1d0f59146101eb57600080fd5b8063218751b2116100a7578063218751b2146101415780633e0dc34e146101685780637c3e13e31461019d57600080fd5b806307a65882146100c357806316f0115b14610102575b600080fd5b6100ea7f000000000000000000000000000000000000000000000000000000000000000081565b604051600f9190910b81526020015b60405180910390f35b6101297f000000000000000000000000000000000000000000000000000000000000000081565b6040516001600160a01b0390911681526020016100f9565b6101297f000000000000000000000000000000000000000000000000000000000000000081565b61018f7f000000000000000000000000000000000000000000000000000000000000000081565b6040519081526020016100f9565b6100ea7f000000000000000000000000000000000000000000000000000000000000000081565b6101297f000000000000000000000000000000000000000000000000000000000000000081565b6101fe6101f93660046107e3565b610288565b604080519283526020830191909152016100f9565b6101297f000000000000000000000000000000000000000000000000000000000000000081565b6101297f000000000000000000000000000000000000000000000000000000000000000081565b6101297f000000000000000000000000000000000000000000000000000000000000000081565b60405163097da6d360e41b81526001600160a01b037f000000000000000000000000000000000000000000000000000000000000000081166004830152306024830181905260448301526000606483018190526084830184905291829182917f0000000000000000000000000000000000000000000000000000000000000000909116906397da6d309060a40160408051808303816000875af1158015610333573d6000803e3d6000fd5b505050506040513d601f19601f820116820180604052508101906103579190610824565b506040516322770cc360e11b81527f0000000000000000000000000000000000000000000000000000000000000000600f90810b60048301527f0000000000000000000000000000000000000000000000000000000000000000900b602482015260448101829052600060648201523060848201529091507f00000000000000000000000000000000000000000000000000000000000000006001600160a01b0316906344ee19869060a4016020604051808303816000875af1158015610422573d6000803e3d6000fd5b505050506040513d601f19601f820116820180604052508101906104469190610848565b6040516321ec87bf60e21b81527f00000000000000000000000000000000000000000000000000000000000000006004820152602481018290523060448201529091507f00000000000000000000000000000000000000000000000000000000000000006001600160a01b0316906387b21efc90606401600060405180830381600087803b1580156104d757600080fd5b505af11580156104eb573d6000803e3d6000fd5b50506040516370a0823160e01b81523060048201527f00000000000000000000000000000000000000000000000000000000000000006001600160a01b031692506370a082319150602401602060405180830381865afa158015610553573d6000803e3d6000fd5b505050506040513d601f19601f820116820180604052508101906105779190610848565b60405162ae511b60e21b81526001600160a01b037f000000000000000000000000000000000000000000000000000000000000000081166004830152306024830152888116604483015260648201839052600060848301529192507f0000000000000000000000000000000000000000000000000000000000000000909116906302b9446c9060a40160408051808303816000875af115801561061e573d6000803e3d6000fd5b505050506040513d601f19601f820116820180604052508101906106429190610824565b925061065090508583610861565b925050935093915050565b606061066a8484600085610674565b90505b9392505050565b6060824710156106da5760405162461bcd60e51b815260206004820152602660248201527f416464726573733a20696e73756666696369656e742062616c616e636520666f6044820152651c8818d85b1b60d21b60648201526084015b60405180910390fd5b6001600160a01b0385163b6107315760405162461bcd60e51b815260206004820152601d60248201527f416464726573733a2063616c6c20746f206e6f6e2d636f6e747261637400000060448201526064016106d1565b600080866001600160a01b0316858760405161074d91906108b6565b60006040518083038185875af1925050503d806000811461078a576040519150601f19603f3d011682016040523d82523d6000602084013e61078f565b606091505b509150915061079f8282866107aa565b979650505050505050565b606083156107b957508161066d565b8251156107c95782518084602001fd5b8160405162461bcd60e51b81526004016106d191906108d2565b6000806000606084860312156107f857600080fd5b83356001600160a01b038116811461080f57600080fd5b95602085013595506040909401359392505050565b6000806040838503121561083757600080fd5b505080516020909101519092909150565b60006020828403121561085a57600080fd5b5051919050565b60008282101561088157634e487b7160e01b600052601160045260246000fd5b500390565b60005b838110156108a1578181015183820152602001610889565b838111156108b0576000848401525b50505050565b600082516108c8818460208701610886565b9190910192915050565b60208152600082518060208401526108f1816040850160208701610886565b601f01601f1916919091016040019291505056fea2646970667358221220eca5a9a68635afbfcc1eb4872a9a2648275bb8c8187a9762011ee96924ce66d264736f6c634300080a0033",
  "devdoc": {
    "kind": "dev",
    "methods": {},
    "version": 1
  },
  "userdoc": {
    "kind": "user",
    "methods": {
      "swap(address,uint256,uint256)": {
        "notice": "Swaps to a flexible amount, from an exact input amount"
      }
    },
    "notice": "Leverage Swapper for Stargate LP using Curve",
    "version": 1
  },
  "storageLayout": {
    "storage": [],
    "types": null
  }
}